{
	"slipstream-main/contracts/core/VeloBot.sol": {
		"V3Bot": {
			"abi": [
				{
					"inputs": [],
					"stateMutability": "nonpayable",
					"type": "constructor"
				},
				{
					"anonymous": false,
					"inputs": [
						{
							"indexed": true,
							"internalType": "address",
							"name": "user",
							"type": "address"
						},
						{
							"indexed": false,
							"internalType": "uint256",
							"name": "amountIn",
							"type": "uint256"
						},
						{
							"indexed": false,
							"internalType": "uint256",
							"name": "amountOut",
							"type": "uint256"
						}
					],
					"name": "SwapExecuted",
					"type": "event"
				},
				{
					"inputs": [],
					"name": "V3Swap0for1",
					"outputs": [],
					"stateMutability": "nonpayable",
					"type": "function"
				},
				{
					"inputs": [
						{
							"internalType": "address",
							"name": "newAdmin",
							"type": "address"
						}
					],
					"name": "_newAdmin",
					"outputs": [],
					"stateMutability": "nonpayable",
					"type": "function"
				},
				{
					"inputs": [],
					"name": "admin",
					"outputs": [
						{
							"internalType": "address",
							"name": "",
							"type": "address"
						}
					],
					"stateMutability": "view",
					"type": "function"
				},
				{
					"inputs": [],
					"name": "pool",
					"outputs": [
						{
							"internalType": "address",
							"name": "",
							"type": "address"
						}
					],
					"stateMutability": "view",
					"type": "function"
				},
				{
					"inputs": [],
					"name": "token0",
					"outputs": [
						{
							"internalType": "address",
							"name": "",
							"type": "address"
						}
					],
					"stateMutability": "view",
					"type": "function"
				},
				{
					"inputs": [],
					"name": "token1",
					"outputs": [
						{
							"internalType": "address",
							"name": "",
							"type": "address"
						}
					],
					"stateMutability": "view",
					"type": "function"
				},
				{
					"inputs": [
						{
							"internalType": "address",
							"name": "Token",
							"type": "address"
						}
					],
					"name": "transferToAdmin",
					"outputs": [],
					"stateMutability": "nonpayable",
					"type": "function"
				},
				{
					"inputs": [
						{
							"internalType": "int256",
							"name": "amount0Delta",
							"type": "int256"
						},
						{
							"internalType": "int256",
							"name": "amount1Delta",
							"type": "int256"
						},
						{
							"internalType": "bytes",
							"name": "",
							"type": "bytes"
						}
					],
					"name": "uniswapV3SwapCallback",
					"outputs": [],
					"stateMutability": "nonpayable",
					"type": "function"
				}
			],
			"devdoc": {
				"kind": "dev",
				"methods": {},
				"version": 1
			},
			"evm": {
				"assembly": "    /* \"slipstream-main/contracts/core/VeloBot.sol\":1834:4397  contract V3Bot is ICLSwapCallback {\r... */\n  mstore(0x40, 0x80)\n    /* \"slipstream-main/contracts/core/VeloBot.sol\":2148:2199  constructor() {\r... */\n  callvalue\n  dup1\n  iszero\n  tag_1\n  jumpi\n  0x00\n  dup1\n  revert\ntag_1:\n  pop\n    /* \"slipstream-main/contracts/core/VeloBot.sol\":2173:2178  admin */\n  0x03\n    /* \"slipstream-main/contracts/core/VeloBot.sol\":2173:2191  admin = msg.sender */\n  dup1\n  sload\n  not(sub(shl(0xa0, 0x01), 0x01))\n  and\n    /* \"slipstream-main/contracts/core/VeloBot.sol\":2181:2191  msg.sender */\n  caller\n    /* \"slipstream-main/contracts/core/VeloBot.sol\":2173:2191  admin = msg.sender */\n  or\n  swap1\n  sstore\n    /* \"slipstream-main/contracts/core/VeloBot.sol\":1834:4397  contract V3Bot is ICLSwapCallback {\r... */\n  dataSize(sub_0)\n  dup1\n  dataOffset(sub_0)\n  0x00\n  codecopy\n  0x00\n  return\nstop\n\nsub_0: assembly {\n        /* \"slipstream-main/contracts/core/VeloBot.sol\":1834:4397  contract V3Bot is ICLSwapCallback {\r... */\n      mstore(0x40, 0x80)\n      callvalue\n      dup1\n      iszero\n      tag_1\n      jumpi\n      0x00\n      dup1\n      revert\n    tag_1:\n      pop\n      jumpi(tag_2, lt(calldatasize, 0x04))\n      shr(0xe0, calldataload(0x00))\n      dup1\n      0xd21220a7\n      gt\n      tag_11\n      jumpi\n      dup1\n      0xd21220a7\n      eq\n      tag_7\n      jumpi\n      dup1\n      0xe6f4d0aa\n      eq\n      tag_8\n      jumpi\n      dup1\n      0xf851a440\n      eq\n      tag_9\n      jumpi\n      dup1\n      0xfa461e33\n      eq\n      tag_10\n      jumpi\n      jump(tag_2)\n    tag_11:\n      dup1\n      0x0dfe1681\n      eq\n      tag_3\n      jumpi\n      dup1\n      0x16f0115b\n      eq\n      tag_4\n      jumpi\n      dup1\n      0x48d32466\n      eq\n      tag_5\n      jumpi\n      dup1\n      0x8cbc5cff\n      eq\n      tag_6\n      jumpi\n    tag_2:\n      0x00\n      dup1\n      revert\n        /* \"slipstream-main/contracts/core/VeloBot.sol\":1931:1952  address public token0 */\n    tag_3:\n      tag_12\n      tag_13\n      jump\t// in\n    tag_12:\n      0x40\n      dup1\n      mload\n      sub(shl(0xa0, 0x01), 0x01)\n      swap1\n      swap3\n      and\n      dup3\n      mstore\n      mload\n      swap1\n      dup2\n      swap1\n      sub\n      0x20\n      add\n      swap1\n      return\n        /* \"slipstream-main/contracts/core/VeloBot.sol\":1875:1894  address public pool */\n    tag_4:\n      tag_12\n      tag_15\n      jump\t// in\n        /* \"slipstream-main/contracts/core/VeloBot.sol\":2538:3671  function V3Swap0for1() external {\r... */\n    tag_5:\n      tag_16\n      tag_17\n      jump\t// in\n    tag_16:\n      stop\n        /* \"slipstream-main/contracts/core/VeloBot.sol\":2361:2530  function transferToAdmin(address Token) external {\r... */\n    tag_6:\n      tag_16\n      0x04\n      dup1\n      calldatasize\n      sub\n      0x20\n      dup2\n      lt\n      iszero\n      tag_19\n      jumpi\n      0x00\n      dup1\n      revert\n    tag_19:\n      pop\n      calldataload\n      sub(shl(0xa0, 0x01), 0x01)\n      and\n      tag_20\n      jump\t// in\n        /* \"slipstream-main/contracts/core/VeloBot.sol\":1981:2002  address public token1 */\n    tag_7:\n      tag_12\n      tag_22\n      jump\t// in\n        /* \"slipstream-main/contracts/core/VeloBot.sol\":2207:2353  function _newAdmin(address newAdmin) external {\r... */\n    tag_8:\n      tag_16\n      0x04\n      dup1\n      calldatasize\n      sub\n      0x20\n      dup2\n      lt\n      iszero\n      tag_24\n      jumpi\n      0x00\n      dup1\n      revert\n    tag_24:\n      pop\n      calldataload\n      sub(shl(0xa0, 0x01), 0x01)\n      and\n      tag_25\n      jump\t// in\n        /* \"slipstream-main/contracts/core/VeloBot.sol\":2033:2053  address public admin */\n    tag_9:\n      tag_12\n      tag_27\n      jump\t// in\n        /* \"slipstream-main/contracts/core/VeloBot.sol\":3749:4394  function uniswapV3SwapCallback(\r... */\n    tag_10:\n      tag_16\n      0x04\n      dup1\n      calldatasize\n      sub\n      0x60\n      dup2\n      lt\n      iszero\n      tag_29\n      jumpi\n      0x00\n      dup1\n      revert\n    tag_29:\n      dup2\n      calldataload\n      swap2\n      0x20\n      dup2\n      add\n      calldataload\n      swap2\n      dup2\n      add\n      swap1\n      0x60\n      dup2\n      add\n      0x40\n      dup3\n      add\n      calldataload\n      0x0100000000\n      dup2\n      gt\n      iszero\n      tag_30\n      jumpi\n      0x00\n      dup1\n      revert\n    tag_30:\n      dup3\n      add\n      dup4\n      0x20\n      dup3\n      add\n      gt\n      iszero\n      tag_31\n      jumpi\n      0x00\n      dup1\n      revert\n    tag_31:\n      dup1\n      calldataload\n      swap1\n      0x20\n      add\n      swap2\n      dup5\n      0x01\n      dup4\n      mul\n      dup5\n      add\n      gt\n      0x0100000000\n      dup4\n      gt\n      or\n      iszero\n      tag_32\n      jumpi\n      0x00\n      dup1\n      revert\n    tag_32:\n      pop\n      swap1\n      swap3\n      pop\n      swap1\n      pop\n      tag_33\n      jump\t// in\n        /* \"slipstream-main/contracts/core/VeloBot.sol\":1931:1952  address public token0 */\n    tag_13:\n      and(sub(shl(0xa0, 0x01), 0x01), sload(0x01))\n      dup2\n      jump\t// out\n        /* \"slipstream-main/contracts/core/VeloBot.sol\":1875:1894  address public pool */\n    tag_15:\n      and(sub(shl(0xa0, 0x01), 0x01), sload(0x00))\n      dup2\n      jump\t// out\n        /* \"slipstream-main/contracts/core/VeloBot.sol\":2538:3671  function V3Swap0for1() external {\r... */\n    tag_17:\n        /* \"slipstream-main/contracts/core/VeloBot.sol\":2607:2613  token0 */\n      sload(0x01)\n        /* \"slipstream-main/contracts/core/VeloBot.sol\":2600:2639  IERC20(token0).balanceOf(address(this)) */\n      0x40\n      dup1\n      mload\n      shl(0xe0, 0x70a08231)\n      dup2\n      mstore\n        /* \"slipstream-main/contracts/core/VeloBot.sol\":2633:2637  this */\n      address\n        /* \"slipstream-main/contracts/core/VeloBot.sol\":2600:2639  IERC20(token0).balanceOf(address(this)) */\n      0x04\n      dup3\n      add\n      mstore\n      swap1\n      mload\n        /* \"slipstream-main/contracts/core/VeloBot.sol\":2581:2597  uint256 amountIn */\n      0x00\n      swap3\n      sub(shl(0xa0, 0x01), 0x01)\n        /* \"slipstream-main/contracts/core/VeloBot.sol\":2607:2613  token0 */\n      and\n      swap2\n        /* \"slipstream-main/contracts/core/VeloBot.sol\":2600:2624  IERC20(token0).balanceOf */\n      0x70a08231\n      swap2\n        /* \"slipstream-main/contracts/core/VeloBot.sol\":2600:2639  IERC20(token0).balanceOf(address(this)) */\n      0x24\n      dup1\n      dup4\n      add\n      swap3\n      0x20\n      swap3\n      swap2\n      swap1\n      dup3\n      swap1\n      sub\n      add\n      dup2\n        /* \"slipstream-main/contracts/core/VeloBot.sol\":2607:2613  token0 */\n      dup7\n        /* \"slipstream-main/contracts/core/VeloBot.sol\":2600:2639  IERC20(token0).balanceOf(address(this)) */\n      dup1\n      extcodesize\n      iszero\n      dup1\n      iszero\n      tag_35\n      jumpi\n      0x00\n      dup1\n      revert\n    tag_35:\n      pop\n      gas\n      staticcall\n      iszero\n      dup1\n      iszero\n      tag_37\n      jumpi\n      returndatasize\n      0x00\n      dup1\n      returndatacopy\n      revert(0x00, returndatasize)\n    tag_37:\n      pop\n      pop\n      pop\n      pop\n      mload(0x40)\n      returndatasize\n      0x20\n      dup2\n      lt\n      iszero\n      tag_38\n      jumpi\n      0x00\n      dup1\n      revert\n    tag_38:\n      pop\n      mload\n      swap1\n      pop\n        /* \"slipstream-main/contracts/core/VeloBot.sol\":2658:2670  amountIn > 0 */\n      dup1\n        /* \"slipstream-main/contracts/core/VeloBot.sol\":2650:2695  require(amountIn > 0, \"Invalid input amount\") */\n      tag_39\n      jumpi\n      0x40\n      dup1\n      mload\n      shl(0xe5, 0x461bcd)\n      dup2\n      mstore\n      0x20\n      0x04\n      dup3\n      add\n      mstore\n      0x14\n      0x24\n      dup3\n      add\n      mstore\n      shl(0x62, 0x125b9d985b1a59081a5b9c1d5d08185b5bdd5b9d)\n      0x44\n      dup3\n      add\n      mstore\n      swap1\n      mload\n      swap1\n      dup2\n      swap1\n      sub\n      0x64\n      add\n      swap1\n      revert\n    tag_39:\n        /* \"slipstream-main/contracts/core/VeloBot.sol\":2760:2780  uint160 sqrtPriceX96 */\n      0x00\n        /* \"slipstream-main/contracts/core/VeloBot.sol\":2807:2811  pool */\n      dup1\n      0x00\n      swap1\n      sload\n      swap1\n      0x0100\n      exp\n      swap1\n      div\n      sub(shl(0xa0, 0x01), 0x01)\n      and\n      sub(shl(0xa0, 0x01), 0x01)\n        /* \"slipstream-main/contracts/core/VeloBot.sol\":2794:2818  ICLPoolState(pool).slot0 */\n      and\n      0x3850c7bd\n        /* \"slipstream-main/contracts/core/VeloBot.sol\":2794:2820  ICLPoolState(pool).slot0() */\n      mload(0x40)\n      dup2\n      0xffffffff\n      and\n      0xe0\n      shl\n      dup2\n      mstore\n      0x04\n      add\n      0xc0\n      mload(0x40)\n      dup1\n      dup4\n      sub\n      dup2\n      dup7\n      dup1\n      extcodesize\n      iszero\n      dup1\n      iszero\n      tag_40\n      jumpi\n      0x00\n      dup1\n      revert\n    tag_40:\n      pop\n      gas\n      staticcall\n      iszero\n      dup1\n      iszero\n      tag_42\n      jumpi\n      returndatasize\n      0x00\n      dup1\n      returndatacopy\n      revert(0x00, returndatasize)\n    tag_42:\n      pop\n      pop\n      pop\n      pop\n      mload(0x40)\n      returndatasize\n      0xc0\n      dup2\n      lt\n      iszero\n      tag_43\n      jumpi\n      0x00\n      dup1\n      revert\n    tag_43:\n      pop\n      mload\n      swap1\n      pop\n        /* \"slipstream-main/contracts/core/VeloBot.sol\":2831:2856  uint160 sqrtPriceLimitX96 */\n      0x00\n        /* \"slipstream-main/contracts/core/VeloBot.sol\":2887:2890  100 */\n      0x64\n      sub(shl(0xa0, 0x01), 0x01)\n        /* \"slipstream-main/contracts/core/VeloBot.sol\":2882:2884  99 */\n      0x63\n        /* \"slipstream-main/contracts/core/VeloBot.sol\":2867:2884  sqrtPriceX96 * 99 */\n      dup5\n      mul\n        /* \"slipstream-main/contracts/core/VeloBot.sol\":2867:2890  sqrtPriceX96 * 99 / 100 */\n      and\n      div\n      swap1\n      pop\n        /* \"@uniswap/v3-core/contracts/libraries/TickMath.sol\":824:834  4295128739 */\n      0x01000276a3\n      sub(shl(0xa0, 0x01), 0x01)\n        /* \"slipstream-main/contracts/core/VeloBot.sol\":2954:2998  sqrtPriceLimitX96 <= TickMath.MIN_SQRT_RATIO */\n      dup3\n      and\n      gt\n        /* \"slipstream-main/contracts/core/VeloBot.sol\":2950:3074  if (sqrtPriceLimitX96 <= TickMath.MIN_SQRT_RATIO) {\r... */\n      tag_45\n      jumpi\n      pop\n        /* \"slipstream-main/contracts/core/VeloBot.sol\":3035:3062  TickMath.MIN_SQRT_RATIO + 1 */\n      0x01000276a4\n        /* \"slipstream-main/contracts/core/VeloBot.sol\":2950:3074  if (sqrtPriceLimitX96 <= TickMath.MIN_SQRT_RATIO) {\r... */\n    tag_45:\n        /* \"slipstream-main/contracts/core/VeloBot.sol\":3134:3140  token0 */\n      sload(0x01)\n      0x00\n        /* \"slipstream-main/contracts/core/VeloBot.sol\":3150:3154  pool */\n      dup1\n      sload\n        /* \"slipstream-main/contracts/core/VeloBot.sol\":3127:3165  IERC20(token0).approve(pool, amountIn) */\n      0x40\n      dup1\n      mload\n      shl(0xe0, 0x095ea7b3)\n      dup2\n      mstore\n      sub(shl(0xa0, 0x01), 0x01)\n        /* \"slipstream-main/contracts/core/VeloBot.sol\":3150:3154  pool */\n      swap3\n      dup4\n      and\n        /* \"slipstream-main/contracts/core/VeloBot.sol\":3127:3165  IERC20(token0).approve(pool, amountIn) */\n      0x04\n      dup3\n      add\n      mstore\n      0x24\n      dup2\n      add\n      dup9\n      swap1\n      mstore\n      swap1\n      mload\n        /* \"slipstream-main/contracts/core/VeloBot.sol\":3134:3140  token0 */\n      swap2\n      swap1\n      swap4\n      and\n      swap3\n        /* \"slipstream-main/contracts/core/VeloBot.sol\":3127:3149  IERC20(token0).approve */\n      0x095ea7b3\n      swap3\n        /* \"slipstream-main/contracts/core/VeloBot.sol\":3127:3165  IERC20(token0).approve(pool, amountIn) */\n      0x44\n      dup1\n      dup4\n      add\n      swap4\n      0x20\n      swap4\n      swap1\n      swap3\n      swap1\n      dup4\n      swap1\n      sub\n      swap1\n      swap2\n      add\n      swap1\n      dup3\n      swap1\n        /* \"slipstream-main/contracts/core/VeloBot.sol\":3134:3140  token0 */\n      dup8\n        /* \"slipstream-main/contracts/core/VeloBot.sol\":3127:3165  IERC20(token0).approve(pool, amountIn) */\n      dup1\n      extcodesize\n      iszero\n      dup1\n      iszero\n      tag_46\n      jumpi\n      0x00\n      dup1\n      revert\n    tag_46:\n      pop\n      gas\n      call\n      iszero\n      dup1\n      iszero\n      tag_48\n      jumpi\n      returndatasize\n      0x00\n      dup1\n      returndatacopy\n      revert(0x00, returndatasize)\n    tag_48:\n      pop\n      pop\n      pop\n      pop\n      mload(0x40)\n      returndatasize\n      0x20\n      dup2\n      lt\n      iszero\n      tag_49\n      jumpi\n      0x00\n      dup1\n      revert\n    tag_49:\n      pop\n      pop\n        /* \"slipstream-main/contracts/core/VeloBot.sol\":3294:3319  abi.encode(address(this)) */\n      0x40\n      dup1\n      mload\n        /* \"slipstream-main/contracts/core/VeloBot.sol\":3313:3317  this */\n      address\n        /* \"slipstream-main/contracts/core/VeloBot.sol\":3127:3165  IERC20(token0).approve(pool, amountIn) */\n      0x20\n        /* \"slipstream-main/contracts/core/VeloBot.sol\":3294:3319  abi.encode(address(this)) */\n      dup3\n      dup2\n      add\n      dup3\n      swap1\n      mstore\n      dup4\n      mload\n      dup1\n      dup5\n      sub\n      dup3\n      add\n      dup2\n      mstore\n      dup4\n      dup6\n      add\n      swap5\n      dup6\n      swap1\n      mstore\n        /* \"slipstream-main/contracts/core/VeloBot.sol\":3274:3291  bytes memory data */\n      0x00\n        /* \"slipstream-main/contracts/core/VeloBot.sol\":3389:3393  pool */\n      dup1\n      sload\n      shl(0xe3, 0x02515961)\n        /* \"slipstream-main/contracts/core/VeloBot.sol\":3374:3663  ICLPoolActions(pool).swap(\r... */\n      swap1\n      swap7\n      mstore\n      0x44\n      dup6\n      add\n      dup5\n      dup2\n      mstore\n        /* \"slipstream-main/contracts/core/VeloBot.sol\":3389:3393  pool */\n      0x01\n        /* \"slipstream-main/contracts/core/VeloBot.sol\":3374:3663  ICLPoolActions(pool).swap(\r... */\n      0x64\n      dup8\n      add\n      dup2\n      swap1\n      mstore\n      0x84\n      dup8\n      add\n      dup12\n      swap1\n      mstore\n      sub(shl(0xa0, 0x01), 0x01)\n      dup10\n      dup2\n      and\n      0xa4\n      dup10\n      add\n      mstore\n      0xa0\n      0xc4\n      dup10\n      add\n      swap1\n      dup2\n      mstore\n      dup6\n      mload\n      0xe4\n      dup11\n      add\n      mstore\n      dup6\n      mload\n        /* \"slipstream-main/contracts/core/VeloBot.sol\":3294:3319  abi.encode(address(this)) */\n      swap6\n      swap10\n        /* \"slipstream-main/contracts/core/VeloBot.sol\":3389:3393  pool */\n      swap1\n      swap2\n      and\n      swap8\n        /* \"slipstream-main/contracts/core/VeloBot.sol\":3374:3399  ICLPoolActions(pool).swap */\n      0x128acb08\n      swap8\n        /* \"slipstream-main/contracts/core/VeloBot.sol\":3313:3317  this */\n      swap7\n        /* \"slipstream-main/contracts/core/VeloBot.sol\":3389:3393  pool */\n      swap3\n      swap6\n        /* \"slipstream-main/contracts/core/VeloBot.sol\":3530:3538  amountIn */\n      dup14\n      swap6\n        /* \"slipstream-main/contracts/core/VeloBot.sol\":3570:3587  sqrtPriceLimitX96 */\n      dup13\n      swap6\n        /* \"slipstream-main/contracts/core/VeloBot.sol\":3294:3319  abi.encode(address(this)) */\n      dup13\n      swap6\n        /* \"slipstream-main/contracts/core/VeloBot.sol\":3374:3663  ICLPoolActions(pool).swap(\r... */\n      swap1\n      swap5\n      swap4\n      0x0104\n      add\n      swap3\n      swap1\n      dup7\n      add\n      swap2\n      dup2\n      swap1\n      dup5\n      swap1\n      dup5\n      swap1\n    tag_50:\n      dup4\n      dup2\n      lt\n      iszero\n      tag_52\n      jumpi\n      dup2\n      dup2\n      add\n      mload\n      dup4\n      dup3\n      add\n      mstore\n      0x20\n      add\n      jump(tag_50)\n    tag_52:\n      pop\n      pop\n      pop\n      pop\n      swap1\n      pop\n      swap1\n      dup2\n      add\n      swap1\n      0x1f\n      and\n      dup1\n      iszero\n      tag_53\n      jumpi\n      dup1\n      dup3\n      sub\n      dup1\n      mload\n      0x01\n      dup4\n      0x20\n      sub\n      0x0100\n      exp\n      sub\n      not\n      and\n      dup2\n      mstore\n      0x20\n      add\n      swap2\n      pop\n    tag_53:\n      pop\n      swap7\n      pop\n      pop\n      pop\n      pop\n      pop\n      pop\n      pop\n      0x40\n      dup1\n      mload\n      dup1\n      dup4\n      sub\n      dup2\n      0x00\n      dup8\n      dup1\n      extcodesize\n      iszero\n      dup1\n      iszero\n      tag_54\n      jumpi\n      0x00\n      dup1\n      revert\n    tag_54:\n      pop\n      gas\n      call\n      iszero\n      dup1\n      iszero\n      tag_56\n      jumpi\n      returndatasize\n      0x00\n      dup1\n      returndatacopy\n      revert(0x00, returndatasize)\n    tag_56:\n      pop\n      pop\n      pop\n      pop\n      mload(0x40)\n      returndatasize\n      0x40\n      dup2\n      lt\n      iszero\n      tag_57\n      jumpi\n      0x00\n      dup1\n      revert\n    tag_57:\n      pop\n      pop\n      pop\n      pop\n      pop\n      pop\n        /* \"slipstream-main/contracts/core/VeloBot.sol\":2538:3671  function V3Swap0for1() external {\r... */\n      jump\t// out\n        /* \"slipstream-main/contracts/core/VeloBot.sol\":2361:2530  function transferToAdmin(address Token) external {\r... */\n    tag_20:\n        /* \"slipstream-main/contracts/core/VeloBot.sol\":2421:2434  uint256 value */\n      0x00\n        /* \"slipstream-main/contracts/core/VeloBot.sol\":2444:2449  Token */\n      dup2\n      sub(shl(0xa0, 0x01), 0x01)\n        /* \"slipstream-main/contracts/core/VeloBot.sol\":2437:2460  IERC20(Token).balanceOf */\n      and\n      0x70a08231\n        /* \"slipstream-main/contracts/core/VeloBot.sol\":2469:2473  this */\n      address\n        /* \"slipstream-main/contracts/core/VeloBot.sol\":2437:2475  IERC20(Token).balanceOf(address(this)) */\n      mload(0x40)\n      dup3\n      0xffffffff\n      and\n      0xe0\n      shl\n      dup2\n      mstore\n      0x04\n      add\n      dup1\n      dup3\n      sub(shl(0xa0, 0x01), 0x01)\n      and\n      dup2\n      mstore\n      0x20\n      add\n      swap2\n      pop\n      pop\n      0x20\n      mload(0x40)\n      dup1\n      dup4\n      sub\n      dup2\n      dup7\n      dup1\n      extcodesize\n      iszero\n      dup1\n      iszero\n      tag_59\n      jumpi\n      0x00\n      dup1\n      revert\n    tag_59:\n      pop\n      gas\n      staticcall\n      iszero\n      dup1\n      iszero\n      tag_61\n      jumpi\n      returndatasize\n      0x00\n      dup1\n      returndatacopy\n      revert(0x00, returndatasize)\n    tag_61:\n      pop\n      pop\n      pop\n      pop\n      mload(0x40)\n      returndatasize\n      0x20\n      dup2\n      lt\n      iszero\n      tag_62\n      jumpi\n      0x00\n      dup1\n      revert\n    tag_62:\n      pop\n      mload\n        /* \"slipstream-main/contracts/core/VeloBot.sol\":2509:2514  admin */\n      sload(0x03)\n        /* \"slipstream-main/contracts/core/VeloBot.sol\":2486:2522  IERC20(Token).transfer(admin, value) */\n      0x40\n      dup1\n      mload\n      shl(0xe0, 0xa9059cbb)\n      dup2\n      mstore\n      sub(shl(0xa0, 0x01), 0x01)\n        /* \"slipstream-main/contracts/core/VeloBot.sol\":2509:2514  admin */\n      swap3\n      dup4\n      and\n        /* \"slipstream-main/contracts/core/VeloBot.sol\":2486:2522  IERC20(Token).transfer(admin, value) */\n      0x04\n      dup3\n      add\n      mstore\n      0x24\n      dup2\n      add\n      dup5\n      swap1\n      mstore\n      swap1\n      mload\n        /* \"slipstream-main/contracts/core/VeloBot.sol\":2437:2475  IERC20(Token).balanceOf(address(this)) */\n      swap3\n      swap4\n      pop\n        /* \"slipstream-main/contracts/core/VeloBot.sol\":2486:2508  IERC20(Token).transfer */\n      swap1\n      dup5\n      and\n      swap2\n      0xa9059cbb\n      swap2\n        /* \"slipstream-main/contracts/core/VeloBot.sol\":2486:2522  IERC20(Token).transfer(admin, value) */\n      0x44\n      dup1\n      dup3\n      add\n      swap3\n        /* \"slipstream-main/contracts/core/VeloBot.sol\":2437:2475  IERC20(Token).balanceOf(address(this)) */\n      0x20\n      swap3\n        /* \"slipstream-main/contracts/core/VeloBot.sol\":2486:2522  IERC20(Token).transfer(admin, value) */\n      swap1\n      swap2\n      swap1\n      dup3\n      swap1\n      sub\n      add\n      dup2\n        /* \"slipstream-main/contracts/core/VeloBot.sol\":2509:2514  admin */\n      0x00\n        /* \"slipstream-main/contracts/core/VeloBot.sol\":2486:2508  IERC20(Token).transfer */\n      dup8\n        /* \"slipstream-main/contracts/core/VeloBot.sol\":2486:2522  IERC20(Token).transfer(admin, value) */\n      dup1\n      extcodesize\n      iszero\n      dup1\n      iszero\n      tag_63\n      jumpi\n      0x00\n      dup1\n      revert\n    tag_63:\n      pop\n      gas\n      call\n      iszero\n      dup1\n      iszero\n      tag_65\n      jumpi\n      returndatasize\n      0x00\n      dup1\n      returndatacopy\n      revert(0x00, returndatasize)\n    tag_65:\n      pop\n      pop\n      pop\n      pop\n      mload(0x40)\n      returndatasize\n      0x20\n      dup2\n      lt\n      iszero\n      tag_66\n      jumpi\n      0x00\n      dup1\n      revert\n    tag_66:\n      pop\n      pop\n      pop\n      pop\n        /* \"slipstream-main/contracts/core/VeloBot.sol\":2361:2530  function transferToAdmin(address Token) external {\r... */\n      jump\t// out\n        /* \"slipstream-main/contracts/core/VeloBot.sol\":1981:2002  address public token1 */\n    tag_22:\n      and(sub(shl(0xa0, 0x01), 0x01), sload(0x02))\n      dup2\n      jump\t// out\n        /* \"slipstream-main/contracts/core/VeloBot.sol\":2207:2353  function _newAdmin(address newAdmin) external {\r... */\n    tag_25:\n        /* \"slipstream-main/contracts/core/VeloBot.sol\":2286:2291  admin */\n      and(sub(shl(0xa0, 0x01), 0x01), sload(0x03))\n        /* \"slipstream-main/contracts/core/VeloBot.sol\":2272:2282  msg.sender */\n      caller\n        /* \"slipstream-main/contracts/core/VeloBot.sol\":2272:2291  msg.sender == admin */\n      eq\n        /* \"slipstream-main/contracts/core/VeloBot.sol\":2264:2318  require(msg.sender == admin, \"Only owner can do this\") */\n      tag_68\n      jumpi\n      0x40\n      dup1\n      mload\n      shl(0xe5, 0x461bcd)\n      dup2\n      mstore\n      0x20\n      0x04\n      dup3\n      add\n      mstore\n      0x16\n      0x24\n      dup3\n      add\n      mstore\n      shl(0x50, 0x4f6e6c79206f776e65722063616e20646f2074686973)\n      0x44\n      dup3\n      add\n      mstore\n      swap1\n      mload\n      swap1\n      dup2\n      swap1\n      sub\n      0x64\n      add\n      swap1\n      revert\n    tag_68:\n        /* \"slipstream-main/contracts/core/VeloBot.sol\":2329:2334  admin */\n      0x03\n        /* \"slipstream-main/contracts/core/VeloBot.sol\":2329:2345  admin = newAdmin */\n      dup1\n      sload\n      not(sub(shl(0xa0, 0x01), 0x01))\n      and\n      sub(shl(0xa0, 0x01), 0x01)\n      swap3\n      swap1\n      swap3\n      and\n      swap2\n      swap1\n      swap2\n      or\n      swap1\n      sstore\n        /* \"slipstream-main/contracts/core/VeloBot.sol\":2207:2353  function _newAdmin(address newAdmin) external {\r... */\n      jump\t// out\n        /* \"slipstream-main/contracts/core/VeloBot.sol\":2033:2053  address public admin */\n    tag_27:\n      and(sub(shl(0xa0, 0x01), 0x01), sload(0x03))\n      dup2\n      jump\t// out\n        /* \"slipstream-main/contracts/core/VeloBot.sol\":3749:4394  function uniswapV3SwapCallback(\r... */\n    tag_33:\n        /* \"slipstream-main/contracts/core/VeloBot.sol\":3934:3938  pool */\n      and(sub(shl(0xa0, 0x01), 0x01), sload(0x00))\n        /* \"slipstream-main/contracts/core/VeloBot.sol\":3920:3930  msg.sender */\n      caller\n        /* \"slipstream-main/contracts/core/VeloBot.sol\":3920:3938  msg.sender == pool */\n      eq\n        /* \"slipstream-main/contracts/core/VeloBot.sol\":3912:3966  require(msg.sender == pool, \"Callback only from pool\") */\n      tag_70\n      jumpi\n      0x40\n      dup1\n      mload\n      shl(0xe5, 0x461bcd)\n      dup2\n      mstore\n      0x20\n      0x04\n      dup3\n      add\n      mstore\n      0x17\n      0x24\n      dup3\n      add\n      mstore\n      0x43616c6c6261636b206f6e6c792066726f6d20706f6f6c000000000000000000\n      0x44\n      dup3\n      add\n      mstore\n      swap1\n      mload\n      swap1\n      dup2\n      swap1\n      sub\n      0x64\n      add\n      swap1\n      revert\n    tag_70:\n        /* \"slipstream-main/contracts/core/VeloBot.sol\":4077:4078  0 */\n      0x00\n        /* \"slipstream-main/contracts/core/VeloBot.sol\":4062:4074  amount0Delta */\n      dup5\n        /* \"slipstream-main/contracts/core/VeloBot.sol\":4062:4078  amount0Delta > 0 */\n      sgt\n        /* \"slipstream-main/contracts/core/VeloBot.sol\":4058:4159  if (amount0Delta > 0) {\r... */\n      iszero\n      tag_71\n      jumpi\n        /* \"slipstream-main/contracts/core/VeloBot.sol\":4102:4108  token0 */\n      sload(0x01)\n      0x00\n        /* \"slipstream-main/contracts/core/VeloBot.sol\":4119:4123  pool */\n      dup1\n      sload\n        /* \"slipstream-main/contracts/core/VeloBot.sol\":4095:4147  IERC20(token0).transfer(pool, uint256(amount0Delta)) */\n      0x40\n      dup1\n      mload\n      shl(0xe0, 0xa9059cbb)\n      dup2\n      mstore\n      sub(shl(0xa0, 0x01), 0x01)\n        /* \"slipstream-main/contracts/core/VeloBot.sol\":4119:4123  pool */\n      swap3\n      dup4\n      and\n        /* \"slipstream-main/contracts/core/VeloBot.sol\":4095:4147  IERC20(token0).transfer(pool, uint256(amount0Delta)) */\n      0x04\n      dup3\n      add\n      mstore\n      0x24\n      dup2\n      add\n      dup10\n      swap1\n      mstore\n      swap1\n      mload\n        /* \"slipstream-main/contracts/core/VeloBot.sol\":4102:4108  token0 */\n      swap2\n      swap1\n      swap4\n      and\n      swap3\n        /* \"slipstream-main/contracts/core/VeloBot.sol\":4095:4118  IERC20(token0).transfer */\n      0xa9059cbb\n      swap3\n        /* \"slipstream-main/contracts/core/VeloBot.sol\":4095:4147  IERC20(token0).transfer(pool, uint256(amount0Delta)) */\n      0x44\n      dup1\n      dup4\n      add\n      swap4\n      0x20\n      swap4\n      swap1\n      swap3\n      swap1\n      dup4\n      swap1\n      sub\n      swap1\n      swap2\n      add\n      swap1\n      dup3\n      swap1\n        /* \"slipstream-main/contracts/core/VeloBot.sol\":4102:4108  token0 */\n      dup8\n        /* \"slipstream-main/contracts/core/VeloBot.sol\":4095:4147  IERC20(token0).transfer(pool, uint256(amount0Delta)) */\n      dup1\n      extcodesize\n      iszero\n      dup1\n      iszero\n      tag_72\n      jumpi\n      0x00\n      dup1\n      revert\n    tag_72:\n      pop\n      gas\n      call\n      iszero\n      dup1\n      iszero\n      tag_74\n      jumpi\n      returndatasize\n      0x00\n      dup1\n      returndatacopy\n      revert(0x00, returndatasize)\n    tag_74:\n      pop\n      pop\n      pop\n      pop\n      mload(0x40)\n      returndatasize\n      0x20\n      dup2\n      lt\n      iszero\n      tag_75\n      jumpi\n      0x00\n      dup1\n      revert\n    tag_75:\n      pop\n      pop\n        /* \"slipstream-main/contracts/core/VeloBot.sol\":4058:4159  if (amount0Delta > 0) {\r... */\n    tag_71:\n        /* \"slipstream-main/contracts/core/VeloBot.sol\":4305:4306  0 */\n      0x00\n        /* \"slipstream-main/contracts/core/VeloBot.sol\":4290:4302  amount1Delta */\n      dup4\n        /* \"slipstream-main/contracts/core/VeloBot.sol\":4290:4306  amount1Delta > 0 */\n      sgt\n        /* \"slipstream-main/contracts/core/VeloBot.sol\":4286:4387  if (amount1Delta > 0) {\r... */\n      iszero\n      tag_66\n      jumpi\n        /* \"slipstream-main/contracts/core/VeloBot.sol\":4330:4336  token1 */\n      sload(0x02)\n      0x00\n        /* \"slipstream-main/contracts/core/VeloBot.sol\":4347:4351  pool */\n      dup1\n      sload\n        /* \"slipstream-main/contracts/core/VeloBot.sol\":4323:4375  IERC20(token1).transfer(pool, uint256(amount1Delta)) */\n      0x40\n      dup1\n      mload\n      shl(0xe0, 0xa9059cbb)\n      dup2\n      mstore\n      sub(shl(0xa0, 0x01), 0x01)\n        /* \"slipstream-main/contracts/core/VeloBot.sol\":4347:4351  pool */\n      swap3\n      dup4\n      and\n        /* \"slipstream-main/contracts/core/VeloBot.sol\":4323:4375  IERC20(token1).transfer(pool, uint256(amount1Delta)) */\n      0x04\n      dup3\n      add\n      mstore\n      0x24\n      dup2\n      add\n      dup9\n      swap1\n      mstore\n      swap1\n      mload\n        /* \"slipstream-main/contracts/core/VeloBot.sol\":4330:4336  token1 */\n      swap2\n      swap1\n      swap4\n      and\n      swap3\n        /* \"slipstream-main/contracts/core/VeloBot.sol\":4323:4346  IERC20(token1).transfer */\n      0xa9059cbb\n      swap3\n        /* \"slipstream-main/contracts/core/VeloBot.sol\":4323:4375  IERC20(token1).transfer(pool, uint256(amount1Delta)) */\n      0x44\n      dup1\n      dup4\n      add\n      swap4\n      0x20\n      swap4\n      swap1\n      swap3\n      swap1\n      dup4\n      swap1\n      sub\n      swap1\n      swap2\n      add\n      swap1\n      dup3\n      swap1\n        /* \"slipstream-main/contracts/core/VeloBot.sol\":4330:4336  token1 */\n      dup8\n        /* \"slipstream-main/contracts/core/VeloBot.sol\":4323:4375  IERC20(token1).transfer(pool, uint256(amount1Delta)) */\n      dup1\n      extcodesize\n      iszero\n      dup1\n      iszero\n      tag_77\n      jumpi\n      0x00\n      dup1\n      revert\n    tag_77:\n      pop\n      gas\n      call\n      iszero\n      dup1\n      iszero\n      tag_79\n      jumpi\n      returndatasize\n      0x00\n      dup1\n      returndatacopy\n      revert(0x00, returndatasize)\n    tag_79:\n      pop\n      pop\n      pop\n      pop\n      mload(0x40)\n      returndatasize\n      0x20\n      dup2\n      lt\n      iszero\n      tag_57\n      jumpi\n      0x00\n      dup1\n      revert\n\n    auxdata: 0xa2646970667358221220fc28bab020475831f26f62a6fb03f28f772fd2684cba5b7d383d6612246b35d964736f6c63430007060033\n}\n",
				"bytecode": {
					"linkReferences": {},
					"object": "608060405234801561001057600080fd5b50600380546001600160a01b0319163317905561082c806100326000396000f3fe608060405234801561001057600080fd5b50600436106100885760003560e01c8063d21220a71161005b578063d21220a7146100e9578063e6f4d0aa146100f1578063f851a44014610117578063fa461e331461011f57610088565b80630dfe16811461008d57806316f0115b146100b157806348d32466146100b95780638cbc5cff146100c3575b600080fd5b61009561019b565b604080516001600160a01b039092168252519081900360200190f35b6100956101aa565b6100c16101b9565b005b6100c1600480360360208110156100d957600080fd5b50356001600160a01b03166104d8565b6100956105dc565b6100c16004803603602081101561010757600080fd5b50356001600160a01b03166105eb565b610095610665565b6100c16004803603606081101561013557600080fd5b81359160208101359181019060608101604082013564010000000081111561015c57600080fd5b82018360208201111561016e57600080fd5b8035906020019184600183028401116401000000008311171561019057600080fd5b509092509050610674565b6001546001600160a01b031681565b6000546001600160a01b031681565b600154604080516370a0823160e01b815230600482015290516000926001600160a01b0316916370a08231916024808301926020929190829003018186803b15801561020457600080fd5b505afa158015610218573d6000803e3d6000fd5b505050506040513d602081101561022e57600080fd5b505190508061027b576040805162461bcd60e51b8152602060048201526014602482015273125b9d985b1a59081a5b9c1d5d08185b5bdd5b9d60621b604482015290519081900360640190fd5b60008060009054906101000a90046001600160a01b03166001600160a01b0316633850c7bd6040518163ffffffff1660e01b815260040160c06040518083038186803b1580156102ca57600080fd5b505afa1580156102de573d6000803e3d6000fd5b505050506040513d60c08110156102f457600080fd5b50519050600060646001600160a01b0360638402160490506401000276a36001600160a01b0382161161032957506401000276a45b600154600080546040805163095ea7b360e01b81526001600160a01b039283166004820152602481018890529051919093169263095ea7b39260448083019360209390929083900390910190829087803b15801561038657600080fd5b505af115801561039a573d6000803e3d6000fd5b505050506040513d60208110156103b057600080fd5b5050604080513060208281018290528351808403820181528385019485905260008054630251596160e31b90965260448501848152600160648701819052608487018b90526001600160a01b0389811660a489015260a060c48901908152855160e48a0152855195999091169763128acb08979692958d958c958c959094936101040192908601918190849084905b8381101561045757818101518382015260200161043f565b50505050905090810190601f1680156104845780820380516001836020036101000a031916815260200191505b5096505050505050506040805180830381600087803b1580156104a657600080fd5b505af11580156104ba573d6000803e3d6000fd5b505050506040513d60408110156104d057600080fd5b505050505050565b6000816001600160a01b03166370a08231306040518263ffffffff1660e01b815260040180826001600160a01b0316815260200191505060206040518083038186803b15801561052757600080fd5b505afa15801561053b573d6000803e3d6000fd5b505050506040513d602081101561055157600080fd5b50516003546040805163a9059cbb60e01b81526001600160a01b0392831660048201526024810184905290519293509084169163a9059cbb916044808201926020929091908290030181600087803b1580156105ac57600080fd5b505af11580156105c0573d6000803e3d6000fd5b505050506040513d60208110156105d657600080fd5b50505050565b6002546001600160a01b031681565b6003546001600160a01b03163314610643576040805162461bcd60e51b81526020600482015260166024820152754f6e6c79206f776e65722063616e20646f207468697360501b604482015290519081900360640190fd5b600380546001600160a01b0319166001600160a01b0392909216919091179055565b6003546001600160a01b031681565b6000546001600160a01b031633146106d3576040805162461bcd60e51b815260206004820152601760248201527f43616c6c6261636b206f6e6c792066726f6d20706f6f6c000000000000000000604482015290519081900360640190fd5b600084131561076657600154600080546040805163a9059cbb60e01b81526001600160a01b039283166004820152602481018990529051919093169263a9059cbb9260448083019360209390929083900390910190829087803b15801561073957600080fd5b505af115801561074d573d6000803e3d6000fd5b505050506040513d602081101561076357600080fd5b50505b60008313156105d657600254600080546040805163a9059cbb60e01b81526001600160a01b039283166004820152602481018890529051919093169263a9059cbb9260448083019360209390929083900390910190829087803b1580156107cc57600080fd5b505af11580156107e0573d6000803e3d6000fd5b505050506040513d60208110156104d057600080fdfea2646970667358221220fc28bab020475831f26f62a6fb03f28f772fd2684cba5b7d383d6612246b35d964736f6c63430007060033",
					"opcodes": "PUSH1 0x80 PUSH1 0x40 MSTORE CALLVALUE DUP1 ISZERO PUSH2 0x10 JUMPI PUSH1 0x0 DUP1 REVERT JUMPDEST POP PUSH1 0x3 DUP1 SLOAD PUSH1 0x1 PUSH1 0x1 PUSH1 0xA0 SHL SUB NOT AND CALLER OR SWAP1 SSTORE PUSH2 0x82C DUP1 PUSH2 0x32 PUSH1 0x0 CODECOPY PUSH1 0x0 RETURN INVALID PUSH1 0x80 PUSH1 0x40 MSTORE CALLVALUE DUP1 ISZERO PUSH2 0x10 JUMPI PUSH1 0x0 DUP1 REVERT JUMPDEST POP PUSH1 0x4 CALLDATASIZE LT PUSH2 0x88 JUMPI PUSH1 0x0 CALLDATALOAD PUSH1 0xE0 SHR DUP1 PUSH4 0xD21220A7 GT PUSH2 0x5B JUMPI DUP1 PUSH4 0xD21220A7 EQ PUSH2 0xE9 JUMPI DUP1 PUSH4 0xE6F4D0AA EQ PUSH2 0xF1 JUMPI DUP1 PUSH4 0xF851A440 EQ PUSH2 0x117 JUMPI DUP1 PUSH4 0xFA461E33 EQ PUSH2 0x11F JUMPI PUSH2 0x88 JUMP JUMPDEST DUP1 PUSH4 0xDFE1681 EQ PUSH2 0x8D JUMPI DUP1 PUSH4 0x16F0115B EQ PUSH2 0xB1 JUMPI DUP1 PUSH4 0x48D32466 EQ PUSH2 0xB9 JUMPI DUP1 PUSH4 0x8CBC5CFF EQ PUSH2 0xC3 JUMPI JUMPDEST PUSH1 0x0 DUP1 REVERT JUMPDEST PUSH2 0x95 PUSH2 0x19B JUMP JUMPDEST PUSH1 0x40 DUP1 MLOAD PUSH1 0x1 PUSH1 0x1 PUSH1 0xA0 SHL SUB SWAP1 SWAP3 AND DUP3 MSTORE MLOAD SWAP1 DUP2 SWAP1 SUB PUSH1 0x20 ADD SWAP1 RETURN JUMPDEST PUSH2 0x95 PUSH2 0x1AA JUMP JUMPDEST PUSH2 0xC1 PUSH2 0x1B9 JUMP JUMPDEST STOP JUMPDEST PUSH2 0xC1 PUSH1 0x4 DUP1 CALLDATASIZE SUB PUSH1 0x20 DUP2 LT ISZERO PUSH2 0xD9 JUMPI PUSH1 0x0 DUP1 REVERT JUMPDEST POP CALLDATALOAD PUSH1 0x1 PUSH1 0x1 PUSH1 0xA0 SHL SUB AND PUSH2 0x4D8 JUMP JUMPDEST PUSH2 0x95 PUSH2 0x5DC JUMP JUMPDEST PUSH2 0xC1 PUSH1 0x4 DUP1 CALLDATASIZE SUB PUSH1 0x20 DUP2 LT ISZERO PUSH2 0x107 JUMPI PUSH1 0x0 DUP1 REVERT JUMPDEST POP CALLDATALOAD PUSH1 0x1 PUSH1 0x1 PUSH1 0xA0 SHL SUB AND PUSH2 0x5EB JUMP JUMPDEST PUSH2 0x95 PUSH2 0x665 JUMP JUMPDEST PUSH2 0xC1 PUSH1 0x4 DUP1 CALLDATASIZE SUB PUSH1 0x60 DUP2 LT ISZERO PUSH2 0x135 JUMPI PUSH1 0x0 DUP1 REVERT JUMPDEST DUP2 CALLDATALOAD SWAP2 PUSH1 0x20 DUP2 ADD CALLDATALOAD SWAP2 DUP2 ADD SWAP1 PUSH1 0x60 DUP2 ADD PUSH1 0x40 DUP3 ADD CALLDATALOAD PUSH5 0x100000000 DUP2 GT ISZERO PUSH2 0x15C JUMPI PUSH1 0x0 DUP1 REVERT JUMPDEST DUP3 ADD DUP4 PUSH1 0x20 DUP3 ADD GT ISZERO PUSH2 0x16E JUMPI PUSH1 0x0 DUP1 REVERT JUMPDEST DUP1 CALLDATALOAD SWAP1 PUSH1 0x20 ADD SWAP2 DUP5 PUSH1 0x1 DUP4 MUL DUP5 ADD GT PUSH5 0x100000000 DUP4 GT OR ISZERO PUSH2 0x190 JUMPI PUSH1 0x0 DUP1 REVERT JUMPDEST POP SWAP1 SWAP3 POP SWAP1 POP PUSH2 0x674 JUMP JUMPDEST PUSH1 0x1 SLOAD PUSH1 0x1 PUSH1 0x1 PUSH1 0xA0 SHL SUB AND DUP2 JUMP JUMPDEST PUSH1 0x0 SLOAD PUSH1 0x1 PUSH1 0x1 PUSH1 0xA0 SHL SUB AND DUP2 JUMP JUMPDEST PUSH1 0x1 SLOAD PUSH1 0x40 DUP1 MLOAD PUSH4 0x70A08231 PUSH1 0xE0 SHL DUP2 MSTORE ADDRESS PUSH1 0x4 DUP3 ADD MSTORE SWAP1 MLOAD PUSH1 0x0 SWAP3 PUSH1 0x1 PUSH1 0x1 PUSH1 0xA0 SHL SUB AND SWAP2 PUSH4 0x70A08231 SWAP2 PUSH1 0x24 DUP1 DUP4 ADD SWAP3 PUSH1 0x20 SWAP3 SWAP2 SWAP1 DUP3 SWAP1 SUB ADD DUP2 DUP7 DUP1 EXTCODESIZE ISZERO DUP1 ISZERO PUSH2 0x204 JUMPI PUSH1 0x0 DUP1 REVERT JUMPDEST POP GAS STATICCALL ISZERO DUP1 ISZERO PUSH2 0x218 JUMPI RETURNDATASIZE PUSH1 0x0 DUP1 RETURNDATACOPY RETURNDATASIZE PUSH1 0x0 REVERT JUMPDEST POP POP POP POP PUSH1 0x40 MLOAD RETURNDATASIZE PUSH1 0x20 DUP2 LT ISZERO PUSH2 0x22E JUMPI PUSH1 0x0 DUP1 REVERT JUMPDEST POP MLOAD SWAP1 POP DUP1 PUSH2 0x27B JUMPI PUSH1 0x40 DUP1 MLOAD PUSH3 0x461BCD PUSH1 0xE5 SHL DUP2 MSTORE PUSH1 0x20 PUSH1 0x4 DUP3 ADD MSTORE PUSH1 0x14 PUSH1 0x24 DUP3 ADD MSTORE PUSH20 0x125B9D985B1A59081A5B9C1D5D08185B5BDD5B9D PUSH1 0x62 SHL PUSH1 0x44 DUP3 ADD MSTORE SWAP1 MLOAD SWAP1 DUP2 SWAP1 SUB PUSH1 0x64 ADD SWAP1 REVERT JUMPDEST PUSH1 0x0 DUP1 PUSH1 0x0 SWAP1 SLOAD SWAP1 PUSH2 0x100 EXP SWAP1 DIV PUSH1 0x1 PUSH1 0x1 PUSH1 0xA0 SHL SUB AND PUSH1 0x1 PUSH1 0x1 PUSH1 0xA0 SHL SUB AND PUSH4 0x3850C7BD PUSH1 0x40 MLOAD DUP2 PUSH4 0xFFFFFFFF AND PUSH1 0xE0 SHL DUP2 MSTORE PUSH1 0x4 ADD PUSH1 0xC0 PUSH1 0x40 MLOAD DUP1 DUP4 SUB DUP2 DUP7 DUP1 EXTCODESIZE ISZERO DUP1 ISZERO PUSH2 0x2CA JUMPI PUSH1 0x0 DUP1 REVERT JUMPDEST POP GAS STATICCALL ISZERO DUP1 ISZERO PUSH2 0x2DE JUMPI RETURNDATASIZE PUSH1 0x0 DUP1 RETURNDATACOPY RETURNDATASIZE PUSH1 0x0 REVERT JUMPDEST POP POP POP POP PUSH1 0x40 MLOAD RETURNDATASIZE PUSH1 0xC0 DUP2 LT ISZERO PUSH2 0x2F4 JUMPI PUSH1 0x0 DUP1 REVERT JUMPDEST POP MLOAD SWAP1 POP PUSH1 0x0 PUSH1 0x64 PUSH1 0x1 PUSH1 0x1 PUSH1 0xA0 SHL SUB PUSH1 0x63 DUP5 MUL AND DIV SWAP1 POP PUSH5 0x1000276A3 PUSH1 0x1 PUSH1 0x1 PUSH1 0xA0 SHL SUB DUP3 AND GT PUSH2 0x329 JUMPI POP PUSH5 0x1000276A4 JUMPDEST PUSH1 0x1 SLOAD PUSH1 0x0 DUP1 SLOAD PUSH1 0x40 DUP1 MLOAD PUSH4 0x95EA7B3 PUSH1 0xE0 SHL DUP2 MSTORE PUSH1 0x1 PUSH1 0x1 PUSH1 0xA0 SHL SUB SWAP3 DUP4 AND PUSH1 0x4 DUP3 ADD MSTORE PUSH1 0x24 DUP2 ADD DUP9 SWAP1 MSTORE SWAP1 MLOAD SWAP2 SWAP1 SWAP4 AND SWAP3 PUSH4 0x95EA7B3 SWAP3 PUSH1 0x44 DUP1 DUP4 ADD SWAP4 PUSH1 0x20 SWAP4 SWAP1 SWAP3 SWAP1 DUP4 SWAP1 SUB SWAP1 SWAP2 ADD SWAP1 DUP3 SWAP1 DUP8 DUP1 EXTCODESIZE ISZERO DUP1 ISZERO PUSH2 0x386 JUMPI PUSH1 0x0 DUP1 REVERT JUMPDEST POP GAS CALL ISZERO DUP1 ISZERO PUSH2 0x39A JUMPI RETURNDATASIZE PUSH1 0x0 DUP1 RETURNDATACOPY RETURNDATASIZE PUSH1 0x0 REVERT JUMPDEST POP POP POP POP PUSH1 0x40 MLOAD RETURNDATASIZE PUSH1 0x20 DUP2 LT ISZERO PUSH2 0x3B0 JUMPI PUSH1 0x0 DUP1 REVERT JUMPDEST POP POP PUSH1 0x40 DUP1 MLOAD ADDRESS PUSH1 0x20 DUP3 DUP2 ADD DUP3 SWAP1 MSTORE DUP4 MLOAD DUP1 DUP5 SUB DUP3 ADD DUP2 MSTORE DUP4 DUP6 ADD SWAP5 DUP6 SWAP1 MSTORE PUSH1 0x0 DUP1 SLOAD PUSH4 0x2515961 PUSH1 0xE3 SHL SWAP1 SWAP7 MSTORE PUSH1 0x44 DUP6 ADD DUP5 DUP2 MSTORE PUSH1 0x1 PUSH1 0x64 DUP8 ADD DUP2 SWAP1 MSTORE PUSH1 0x84 DUP8 ADD DUP12 SWAP1 MSTORE PUSH1 0x1 PUSH1 0x1 PUSH1 0xA0 SHL SUB DUP10 DUP2 AND PUSH1 0xA4 DUP10 ADD MSTORE PUSH1 0xA0 PUSH1 0xC4 DUP10 ADD SWAP1 DUP2 MSTORE DUP6 MLOAD PUSH1 0xE4 DUP11 ADD MSTORE DUP6 MLOAD SWAP6 SWAP10 SWAP1 SWAP2 AND SWAP8 PUSH4 0x128ACB08 SWAP8 SWAP7 SWAP3 SWAP6 DUP14 SWAP6 DUP13 SWAP6 DUP13 SWAP6 SWAP1 SWAP5 SWAP4 PUSH2 0x104 ADD SWAP3 SWAP1 DUP7 ADD SWAP2 DUP2 SWAP1 DUP5 SWAP1 DUP5 SWAP1 JUMPDEST DUP4 DUP2 LT ISZERO PUSH2 0x457 JUMPI DUP2 DUP2 ADD MLOAD DUP4 DUP3 ADD MSTORE PUSH1 0x20 ADD PUSH2 0x43F JUMP JUMPDEST POP POP POP POP SWAP1 POP SWAP1 DUP2 ADD SWAP1 PUSH1 0x1F AND DUP1 ISZERO PUSH2 0x484 JUMPI DUP1 DUP3 SUB DUP1 MLOAD PUSH1 0x1 DUP4 PUSH1 0x20 SUB PUSH2 0x100 EXP SUB NOT AND DUP2 MSTORE PUSH1 0x20 ADD SWAP2 POP JUMPDEST POP SWAP7 POP POP POP POP POP POP POP PUSH1 0x40 DUP1 MLOAD DUP1 DUP4 SUB DUP2 PUSH1 0x0 DUP8 DUP1 EXTCODESIZE ISZERO DUP1 ISZERO PUSH2 0x4A6 JUMPI PUSH1 0x0 DUP1 REVERT JUMPDEST POP GAS CALL ISZERO DUP1 ISZERO PUSH2 0x4BA JUMPI RETURNDATASIZE PUSH1 0x0 DUP1 RETURNDATACOPY RETURNDATASIZE PUSH1 0x0 REVERT JUMPDEST POP POP POP POP PUSH1 0x40 MLOAD RETURNDATASIZE PUSH1 0x40 DUP2 LT ISZERO PUSH2 0x4D0 JUMPI PUSH1 0x0 DUP1 REVERT JUMPDEST POP POP POP POP POP POP JUMP JUMPDEST PUSH1 0x0 DUP2 PUSH1 0x1 PUSH1 0x1 PUSH1 0xA0 SHL SUB AND PUSH4 0x70A08231 ADDRESS PUSH1 0x40 MLOAD DUP3 PUSH4 0xFFFFFFFF AND PUSH1 0xE0 SHL DUP2 MSTORE PUSH1 0x4 ADD DUP1 DUP3 PUSH1 0x1 PUSH1 0x1 PUSH1 0xA0 SHL SUB AND DUP2 MSTORE PUSH1 0x20 ADD SWAP2 POP POP PUSH1 0x20 PUSH1 0x40 MLOAD DUP1 DUP4 SUB DUP2 DUP7 DUP1 EXTCODESIZE ISZERO DUP1 ISZERO PUSH2 0x527 JUMPI PUSH1 0x0 DUP1 REVERT JUMPDEST POP GAS STATICCALL ISZERO DUP1 ISZERO PUSH2 0x53B JUMPI RETURNDATASIZE PUSH1 0x0 DUP1 RETURNDATACOPY RETURNDATASIZE PUSH1 0x0 REVERT JUMPDEST POP POP POP POP PUSH1 0x40 MLOAD RETURNDATASIZE PUSH1 0x20 DUP2 LT ISZERO PUSH2 0x551 JUMPI PUSH1 0x0 DUP1 REVERT JUMPDEST POP MLOAD PUSH1 0x3 SLOAD PUSH1 0x40 DUP1 MLOAD PUSH4 0xA9059CBB PUSH1 0xE0 SHL DUP2 MSTORE PUSH1 0x1 PUSH1 0x1 PUSH1 0xA0 SHL SUB SWAP3 DUP4 AND PUSH1 0x4 DUP3 ADD MSTORE PUSH1 0x24 DUP2 ADD DUP5 SWAP1 MSTORE SWAP1 MLOAD SWAP3 SWAP4 POP SWAP1 DUP5 AND SWAP2 PUSH4 0xA9059CBB SWAP2 PUSH1 0x44 DUP1 DUP3 ADD SWAP3 PUSH1 0x20 SWAP3 SWAP1 SWAP2 SWAP1 DUP3 SWAP1 SUB ADD DUP2 PUSH1 0x0 DUP8 DUP1 EXTCODESIZE ISZERO DUP1 ISZERO PUSH2 0x5AC JUMPI PUSH1 0x0 DUP1 REVERT JUMPDEST POP GAS CALL ISZERO DUP1 ISZERO PUSH2 0x5C0 JUMPI RETURNDATASIZE PUSH1 0x0 DUP1 RETURNDATACOPY RETURNDATASIZE PUSH1 0x0 REVERT JUMPDEST POP POP POP POP PUSH1 0x40 MLOAD RETURNDATASIZE PUSH1 0x20 DUP2 LT ISZERO PUSH2 0x5D6 JUMPI PUSH1 0x0 DUP1 REVERT JUMPDEST POP POP POP POP JUMP JUMPDEST PUSH1 0x2 SLOAD PUSH1 0x1 PUSH1 0x1 PUSH1 0xA0 SHL SUB AND DUP2 JUMP JUMPDEST PUSH1 0x3 SLOAD PUSH1 0x1 PUSH1 0x1 PUSH1 0xA0 SHL SUB AND CALLER EQ PUSH2 0x643 JUMPI PUSH1 0x40 DUP1 MLOAD PUSH3 0x461BCD PUSH1 0xE5 SHL DUP2 MSTORE PUSH1 0x20 PUSH1 0x4 DUP3 ADD MSTORE PUSH1 0x16 PUSH1 0x24 DUP3 ADD MSTORE PUSH22 0x4F6E6C79206F776E65722063616E20646F2074686973 PUSH1 0x50 SHL PUSH1 0x44 DUP3 ADD MSTORE SWAP1 MLOAD SWAP1 DUP2 SWAP1 SUB PUSH1 0x64 ADD SWAP1 REVERT JUMPDEST PUSH1 0x3 DUP1 SLOAD PUSH1 0x1 PUSH1 0x1 PUSH1 0xA0 SHL SUB NOT AND PUSH1 0x1 PUSH1 0x1 PUSH1 0xA0 SHL SUB SWAP3 SWAP1 SWAP3 AND SWAP2 SWAP1 SWAP2 OR SWAP1 SSTORE JUMP JUMPDEST PUSH1 0x3 SLOAD PUSH1 0x1 PUSH1 0x1 PUSH1 0xA0 SHL SUB AND DUP2 JUMP JUMPDEST PUSH1 0x0 SLOAD PUSH1 0x1 PUSH1 0x1 PUSH1 0xA0 SHL SUB AND CALLER EQ PUSH2 0x6D3 JUMPI PUSH1 0x40 DUP1 MLOAD PUSH3 0x461BCD PUSH1 0xE5 SHL DUP2 MSTORE PUSH1 0x20 PUSH1 0x4 DUP3 ADD MSTORE PUSH1 0x17 PUSH1 0x24 DUP3 ADD MSTORE PUSH32 0x43616C6C6261636B206F6E6C792066726F6D20706F6F6C000000000000000000 PUSH1 0x44 DUP3 ADD MSTORE SWAP1 MLOAD SWAP1 DUP2 SWAP1 SUB PUSH1 0x64 ADD SWAP1 REVERT JUMPDEST PUSH1 0x0 DUP5 SGT ISZERO PUSH2 0x766 JUMPI PUSH1 0x1 SLOAD PUSH1 0x0 DUP1 SLOAD PUSH1 0x40 DUP1 MLOAD PUSH4 0xA9059CBB PUSH1 0xE0 SHL DUP2 MSTORE PUSH1 0x1 PUSH1 0x1 PUSH1 0xA0 SHL SUB SWAP3 DUP4 AND PUSH1 0x4 DUP3 ADD MSTORE PUSH1 0x24 DUP2 ADD DUP10 SWAP1 MSTORE SWAP1 MLOAD SWAP2 SWAP1 SWAP4 AND SWAP3 PUSH4 0xA9059CBB SWAP3 PUSH1 0x44 DUP1 DUP4 ADD SWAP4 PUSH1 0x20 SWAP4 SWAP1 SWAP3 SWAP1 DUP4 SWAP1 SUB SWAP1 SWAP2 ADD SWAP1 DUP3 SWAP1 DUP8 DUP1 EXTCODESIZE ISZERO DUP1 ISZERO PUSH2 0x739 JUMPI PUSH1 0x0 DUP1 REVERT JUMPDEST POP GAS CALL ISZERO DUP1 ISZERO PUSH2 0x74D JUMPI RETURNDATASIZE PUSH1 0x0 DUP1 RETURNDATACOPY RETURNDATASIZE PUSH1 0x0 REVERT JUMPDEST POP POP POP POP PUSH1 0x40 MLOAD RETURNDATASIZE PUSH1 0x20 DUP2 LT ISZERO PUSH2 0x763 JUMPI PUSH1 0x0 DUP1 REVERT JUMPDEST POP POP JUMPDEST PUSH1 0x0 DUP4 SGT ISZERO PUSH2 0x5D6 JUMPI PUSH1 0x2 SLOAD PUSH1 0x0 DUP1 SLOAD PUSH1 0x40 DUP1 MLOAD PUSH4 0xA9059CBB PUSH1 0xE0 SHL DUP2 MSTORE PUSH1 0x1 PUSH1 0x1 PUSH1 0xA0 SHL SUB SWAP3 DUP4 AND PUSH1 0x4 DUP3 ADD MSTORE PUSH1 0x24 DUP2 ADD DUP9 SWAP1 MSTORE SWAP1 MLOAD SWAP2 SWAP1 SWAP4 AND SWAP3 PUSH4 0xA9059CBB SWAP3 PUSH1 0x44 DUP1 DUP4 ADD SWAP4 PUSH1 0x20 SWAP4 SWAP1 SWAP3 SWAP1 DUP4 SWAP1 SUB SWAP1 SWAP2 ADD SWAP1 DUP3 SWAP1 DUP8 DUP1 EXTCODESIZE ISZERO DUP1 ISZERO PUSH2 0x7CC JUMPI PUSH1 0x0 DUP1 REVERT JUMPDEST POP GAS CALL ISZERO DUP1 ISZERO PUSH2 0x7E0 JUMPI RETURNDATASIZE PUSH1 0x0 DUP1 RETURNDATACOPY RETURNDATASIZE PUSH1 0x0 REVERT JUMPDEST POP POP POP POP PUSH1 0x40 MLOAD RETURNDATASIZE PUSH1 0x20 DUP2 LT ISZERO PUSH2 0x4D0 JUMPI PUSH1 0x0 DUP1 REVERT INVALID LOG2 PUSH5 0x6970667358 0x22 SLT KECCAK256 0xFC 0x28 0xBA 0xB0 KECCAK256 SELFBALANCE PC BALANCE CALLCODE PUSH16 0x62A6FB03F28F772FD2684CBA5B7D383D PUSH7 0x12246B35D96473 PUSH16 0x6C634300070600330000000000000000 "
				},
				"gasEstimates": {
					"creation": {
						"codeDepositCost": "418400",
						"executionCost": "21290",
						"totalCost": "439690"
					},
					"external": {
						"V3Swap0for1()": "infinite",
						"_newAdmin(address)": "21935",
						"admin()": "1081",
						"pool()": "1060",
						"token0()": "1038",
						"token1()": "1037",
						"transferToAdmin(address)": "infinite",
						"uniswapV3SwapCallback(int256,int256,bytes)": "infinite"
					}
				},
				"methodIdentifiers": {
					"V3Swap0for1()": "48d32466",
					"_newAdmin(address)": "e6f4d0aa",
					"admin()": "f851a440",
					"pool()": "16f0115b",
					"token0()": "0dfe1681",
					"token1()": "d21220a7",
					"transferToAdmin(address)": "8cbc5cff",
					"uniswapV3SwapCallback(int256,int256,bytes)": "fa461e33"
				}
			},
			"storageLayout": {
				"storage": [
					{
						"astId": 672,
						"contract": "slipstream-main/contracts/core/VeloBot.sol:V3Bot",
						"label": "pool",
						"offset": 0,
						"slot": "0",
						"type": "t_address"
					},
					{
						"astId": 674,
						"contract": "slipstream-main/contracts/core/VeloBot.sol:V3Bot",
						"label": "token0",
						"offset": 0,
						"slot": "1",
						"type": "t_address"
					},
					{
						"astId": 676,
						"contract": "slipstream-main/contracts/core/VeloBot.sol:V3Bot",
						"label": "token1",
						"offset": 0,
						"slot": "2",
						"type": "t_address"
					},
					{
						"astId": 678,
						"contract": "slipstream-main/contracts/core/VeloBot.sol:V3Bot",
						"label": "admin",
						"offset": 0,
						"slot": "3",
						"type": "t_address"
					}
				],
				"types": {
					"t_address": {
						"encoding": "inplace",
						"label": "address",
						"numberOfBytes": "20"
					}
				}
			},
			"userdoc": {
				"kind": "user",
				"methods": {},
				"version": 1
			}
		}
	}
}