{
	"velo/slipstream-main/contracts/core/VeloBot.sol": {
		"DirectPoolSwap": {
			"abi": [
				{
					"inputs": [],
					"stateMutability": "nonpayable",
					"type": "constructor"
				},
				{
					"anonymous": false,
					"inputs": [
						{
							"indexed": true,
							"internalType": "address",
							"name": "user",
							"type": "address"
						},
						{
							"indexed": false,
							"internalType": "uint256",
							"name": "amountIn",
							"type": "uint256"
						},
						{
							"indexed": false,
							"internalType": "uint256",
							"name": "amountOut",
							"type": "uint256"
						}
					],
					"name": "SwapExecuted",
					"type": "event"
				},
				{
					"inputs": [],
					"name": "USDC",
					"outputs": [
						{
							"internalType": "address",
							"name": "",
							"type": "address"
						}
					],
					"stateMutability": "view",
					"type": "function"
				},
				{
					"inputs": [],
					"name": "VELO",
					"outputs": [
						{
							"internalType": "address",
							"name": "",
							"type": "address"
						}
					],
					"stateMutability": "view",
					"type": "function"
				},
				{
					"inputs": [
						{
							"internalType": "address",
							"name": "newAdmin",
							"type": "address"
						}
					],
					"name": "_newAdmin",
					"outputs": [],
					"stateMutability": "nonpayable",
					"type": "function"
				},
				{
					"inputs": [],
					"name": "admin",
					"outputs": [
						{
							"internalType": "address",
							"name": "",
							"type": "address"
						}
					],
					"stateMutability": "view",
					"type": "function"
				},
				{
					"inputs": [],
					"name": "pool",
					"outputs": [
						{
							"internalType": "address",
							"name": "",
							"type": "address"
						}
					],
					"stateMutability": "view",
					"type": "function"
				},
				{
					"inputs": [],
					"name": "swapUSDCforVELO",
					"outputs": [],
					"stateMutability": "nonpayable",
					"type": "function"
				},
				{
					"inputs": [
						{
							"internalType": "address",
							"name": "Token",
							"type": "address"
						}
					],
					"name": "transferToAdmin",
					"outputs": [],
					"stateMutability": "nonpayable",
					"type": "function"
				},
				{
					"inputs": [
						{
							"internalType": "int256",
							"name": "amount0Delta",
							"type": "int256"
						},
						{
							"internalType": "int256",
							"name": "amount1Delta",
							"type": "int256"
						},
						{
							"internalType": "bytes",
							"name": "",
							"type": "bytes"
						}
					],
					"name": "uniswapV3SwapCallback",
					"outputs": [],
					"stateMutability": "nonpayable",
					"type": "function"
				}
			],
			"devdoc": {
				"kind": "dev",
				"methods": {},
				"version": 1
			},
			"evm": {
				"assembly": "    /* \"velo/slipstream-main/contracts/core/VeloBot.sol\":1336:4040  contract DirectPoolSwap is ICLSwapCallback {\r... */\n  mstore(0x40, 0x80)\n    /* \"velo/slipstream-main/contracts/core/VeloBot.sol\":1809:1860  constructor() {\r... */\n  callvalue\n  dup1\n  iszero\n  tag_1\n  jumpi\n  0x00\n  dup1\n  revert\ntag_1:\n  pop\n    /* \"velo/slipstream-main/contracts/core/VeloBot.sol\":1834:1839  admin */\n  0x00\n    /* \"velo/slipstream-main/contracts/core/VeloBot.sol\":1834:1852  admin = msg.sender */\n  dup1\n  sload\n  not(sub(shl(0xa0, 0x01), 0x01))\n  and\n    /* \"velo/slipstream-main/contracts/core/VeloBot.sol\":1842:1852  msg.sender */\n  caller\n    /* \"velo/slipstream-main/contracts/core/VeloBot.sol\":1834:1852  admin = msg.sender */\n  or\n  swap1\n  sstore\n    /* \"velo/slipstream-main/contracts/core/VeloBot.sol\":1336:4040  contract DirectPoolSwap is ICLSwapCallback {\r... */\n  dataSize(sub_0)\n  dup1\n  dataOffset(sub_0)\n  0x00\n  codecopy\n  0x00\n  return\nstop\n\nsub_0: assembly {\n        /* \"velo/slipstream-main/contracts/core/VeloBot.sol\":1336:4040  contract DirectPoolSwap is ICLSwapCallback {\r... */\n      mstore(0x40, 0x80)\n      callvalue\n      dup1\n      iszero\n      tag_1\n      jumpi\n      0x00\n      dup1\n      revert\n    tag_1:\n      pop\n      jumpi(tag_2, lt(calldatasize, 0x04))\n      shr(0xe0, calldataload(0x00))\n      dup1\n      0xa0eeb39a\n      gt\n      tag_11\n      jumpi\n      dup1\n      0xa0eeb39a\n      eq\n      tag_7\n      jumpi\n      dup1\n      0xe6f4d0aa\n      eq\n      tag_8\n      jumpi\n      dup1\n      0xf851a440\n      eq\n      tag_9\n      jumpi\n      dup1\n      0xfa461e33\n      eq\n      tag_10\n      jumpi\n      jump(tag_2)\n    tag_11:\n      dup1\n      0x16f0115b\n      eq\n      tag_3\n      jumpi\n      dup1\n      0x19232c16\n      eq\n      tag_4\n      jumpi\n      dup1\n      0x89a30271\n      eq\n      tag_5\n      jumpi\n      dup1\n      0x8cbc5cff\n      eq\n      tag_6\n      jumpi\n    tag_2:\n      0x00\n      dup1\n      revert\n        /* \"velo/slipstream-main/contracts/core/VeloBot.sol\":1386:1459  address public constant pool = 0x7cfc2Da3ba598ef4De692905feDcA32565AB836E */\n    tag_3:\n      tag_12\n      tag_13\n      jump\t// in\n    tag_12:\n      0x40\n      dup1\n      mload\n      sub(shl(0xa0, 0x01), 0x01)\n      swap1\n      swap3\n      and\n      dup3\n      mstore\n      mload\n      swap1\n      dup2\n      swap1\n      sub\n      0x20\n      add\n      swap1\n      return\n        /* \"velo/slipstream-main/contracts/core/VeloBot.sol\":2199:3326  function swapUSDCforVELO() external {\r... */\n    tag_4:\n      tag_14\n      tag_15\n      jump\t// in\n    tag_14:\n      stop\n        /* \"velo/slipstream-main/contracts/core/VeloBot.sol\":1492:1565  address public constant USDC = 0x0b2C639c533813f4Aa9D7837CAf62653d097Ff85 */\n    tag_5:\n      tag_12\n      tag_17\n      jump\t// in\n        /* \"velo/slipstream-main/contracts/core/VeloBot.sol\":2022:2191  function transferToAdmin(address Token) external {\r... */\n    tag_6:\n      tag_14\n      0x04\n      dup1\n      calldatasize\n      sub\n      0x20\n      dup2\n      lt\n      iszero\n      tag_19\n      jumpi\n      0x00\n      dup1\n      revert\n    tag_19:\n      pop\n      calldataload\n      sub(shl(0xa0, 0x01), 0x01)\n      and\n      tag_20\n      jump\t// in\n        /* \"velo/slipstream-main/contracts/core/VeloBot.sol\":1592:1665  address public constant VELO = 0x9560e827aF36c94D2Ac33a39bCE1Fe78631088Db */\n    tag_7:\n      tag_12\n      tag_22\n      jump\t// in\n        /* \"velo/slipstream-main/contracts/core/VeloBot.sol\":1868:2014  function _newAdmin(address newAdmin) external {\r... */\n    tag_8:\n      tag_14\n      0x04\n      dup1\n      calldatasize\n      sub\n      0x20\n      dup2\n      lt\n      iszero\n      tag_24\n      jumpi\n      0x00\n      dup1\n      revert\n    tag_24:\n      pop\n      calldataload\n      sub(shl(0xa0, 0x01), 0x01)\n      and\n      tag_25\n      jump\t// in\n        /* \"velo/slipstream-main/contracts/core/VeloBot.sol\":1694:1714  address public admin */\n    tag_9:\n      tag_12\n      tag_27\n      jump\t// in\n        /* \"velo/slipstream-main/contracts/core/VeloBot.sol\":3404:4037  function uniswapV3SwapCallback(\r... */\n    tag_10:\n      tag_14\n      0x04\n      dup1\n      calldatasize\n      sub\n      0x60\n      dup2\n      lt\n      iszero\n      tag_29\n      jumpi\n      0x00\n      dup1\n      revert\n    tag_29:\n      dup2\n      calldataload\n      swap2\n      0x20\n      dup2\n      add\n      calldataload\n      swap2\n      dup2\n      add\n      swap1\n      0x60\n      dup2\n      add\n      0x40\n      dup3\n      add\n      calldataload\n      0x0100000000\n      dup2\n      gt\n      iszero\n      tag_30\n      jumpi\n      0x00\n      dup1\n      revert\n    tag_30:\n      dup3\n      add\n      dup4\n      0x20\n      dup3\n      add\n      gt\n      iszero\n      tag_31\n      jumpi\n      0x00\n      dup1\n      revert\n    tag_31:\n      dup1\n      calldataload\n      swap1\n      0x20\n      add\n      swap2\n      dup5\n      0x01\n      dup4\n      mul\n      dup5\n      add\n      gt\n      0x0100000000\n      dup4\n      gt\n      or\n      iszero\n      tag_32\n      jumpi\n      0x00\n      dup1\n      revert\n    tag_32:\n      pop\n      swap1\n      swap3\n      pop\n      swap1\n      pop\n      tag_33\n      jump\t// in\n        /* \"velo/slipstream-main/contracts/core/VeloBot.sol\":1386:1459  address public constant pool = 0x7cfc2Da3ba598ef4De692905feDcA32565AB836E */\n    tag_13:\n        /* \"velo/slipstream-main/contracts/core/VeloBot.sol\":1417:1459  0x7cfc2Da3ba598ef4De692905feDcA32565AB836E */\n      0x7cfc2da3ba598ef4de692905fedca32565ab836e\n        /* \"velo/slipstream-main/contracts/core/VeloBot.sol\":1386:1459  address public constant pool = 0x7cfc2Da3ba598ef4De692905feDcA32565AB836E */\n      dup2\n      jump\t// out\n        /* \"velo/slipstream-main/contracts/core/VeloBot.sol\":2199:3326  function swapUSDCforVELO() external {\r... */\n    tag_15:\n        /* \"velo/slipstream-main/contracts/core/VeloBot.sol\":2265:2302  IERC20(USDC).balanceOf(address(this)) */\n      0x40\n      dup1\n      mload\n      shl(0xe0, 0x70a08231)\n      dup2\n      mstore\n        /* \"velo/slipstream-main/contracts/core/VeloBot.sol\":2296:2300  this */\n      address\n        /* \"velo/slipstream-main/contracts/core/VeloBot.sol\":2265:2302  IERC20(USDC).balanceOf(address(this)) */\n      0x04\n      dup3\n      add\n      mstore\n      swap1\n      mload\n        /* \"velo/slipstream-main/contracts/core/VeloBot.sol\":2246:2262  uint256 amountIn */\n      0x00\n      swap2\n        /* \"velo/slipstream-main/contracts/core/VeloBot.sol\":1523:1565  0x0b2C639c533813f4Aa9D7837CAf62653d097Ff85 */\n      0x0b2c639c533813f4aa9d7837caf62653d097ff85\n      swap2\n        /* \"velo/slipstream-main/contracts/core/VeloBot.sol\":2265:2287  IERC20(USDC).balanceOf */\n      0x70a08231\n      swap2\n        /* \"velo/slipstream-main/contracts/core/VeloBot.sol\":2265:2302  IERC20(USDC).balanceOf(address(this)) */\n      0x24\n      dup1\n      dup3\n      add\n      swap3\n      0x20\n      swap3\n      swap1\n      swap2\n      swap1\n      dup3\n      swap1\n      sub\n      add\n      dup2\n        /* \"velo/slipstream-main/contracts/core/VeloBot.sol\":1523:1565  0x0b2C639c533813f4Aa9D7837CAf62653d097Ff85 */\n      dup7\n        /* \"velo/slipstream-main/contracts/core/VeloBot.sol\":2265:2302  IERC20(USDC).balanceOf(address(this)) */\n      dup1\n      extcodesize\n      iszero\n      dup1\n      iszero\n      tag_35\n      jumpi\n      0x00\n      dup1\n      revert\n    tag_35:\n      pop\n      gas\n      staticcall\n      iszero\n      dup1\n      iszero\n      tag_37\n      jumpi\n      returndatasize\n      0x00\n      dup1\n      returndatacopy\n      revert(0x00, returndatasize)\n    tag_37:\n      pop\n      pop\n      pop\n      pop\n      mload(0x40)\n      returndatasize\n      0x20\n      dup2\n      lt\n      iszero\n      tag_38\n      jumpi\n      0x00\n      dup1\n      revert\n    tag_38:\n      pop\n      mload\n      swap1\n      pop\n        /* \"velo/slipstream-main/contracts/core/VeloBot.sol\":2321:2333  amountIn > 0 */\n      dup1\n        /* \"velo/slipstream-main/contracts/core/VeloBot.sol\":2313:2358  require(amountIn > 0, \"Invalid input amount\") */\n      tag_39\n      jumpi\n      0x40\n      dup1\n      mload\n      shl(0xe5, 0x461bcd)\n      dup2\n      mstore\n      0x20\n      0x04\n      dup3\n      add\n      mstore\n      0x14\n      0x24\n      dup3\n      add\n      mstore\n      shl(0x62, 0x125b9d985b1a59081a5b9c1d5d08185b5bdd5b9d)\n      0x44\n      dup3\n      add\n      mstore\n      swap1\n      mload\n      swap1\n      dup2\n      swap1\n      sub\n      0x64\n      add\n      swap1\n      revert\n    tag_39:\n        /* \"velo/slipstream-main/contracts/core/VeloBot.sol\":2423:2443  uint160 sqrtPriceX96 */\n      0x00\n        /* \"velo/slipstream-main/contracts/core/VeloBot.sol\":1417:1459  0x7cfc2Da3ba598ef4De692905feDcA32565AB836E */\n      0x7cfc2da3ba598ef4de692905fedca32565ab836e\n      sub(shl(0xa0, 0x01), 0x01)\n        /* \"velo/slipstream-main/contracts/core/VeloBot.sol\":2457:2481  ICLPoolState(pool).slot0 */\n      and\n      0x3850c7bd\n        /* \"velo/slipstream-main/contracts/core/VeloBot.sol\":2457:2483  ICLPoolState(pool).slot0() */\n      mload(0x40)\n      dup2\n      0xffffffff\n      and\n      0xe0\n      shl\n      dup2\n      mstore\n      0x04\n      add\n      0xc0\n      mload(0x40)\n      dup1\n      dup4\n      sub\n      dup2\n      dup7\n      dup1\n      extcodesize\n      iszero\n      dup1\n      iszero\n      tag_40\n      jumpi\n      0x00\n      dup1\n      revert\n    tag_40:\n      pop\n      gas\n      staticcall\n      iszero\n      dup1\n      iszero\n      tag_42\n      jumpi\n      returndatasize\n      0x00\n      dup1\n      returndatacopy\n      revert(0x00, returndatasize)\n    tag_42:\n      pop\n      pop\n      pop\n      pop\n      mload(0x40)\n      returndatasize\n      0xc0\n      dup2\n      lt\n      iszero\n      tag_43\n      jumpi\n      0x00\n      dup1\n      revert\n    tag_43:\n      pop\n      mload\n      swap1\n      pop\n        /* \"velo/slipstream-main/contracts/core/VeloBot.sol\":2494:2519  uint160 sqrtPriceLimitX96 */\n      0x00\n        /* \"velo/slipstream-main/contracts/core/VeloBot.sol\":2550:2553  100 */\n      0x64\n      sub(shl(0xa0, 0x01), 0x01)\n        /* \"velo/slipstream-main/contracts/core/VeloBot.sol\":2545:2547  99 */\n      0x63\n        /* \"velo/slipstream-main/contracts/core/VeloBot.sol\":2530:2547  sqrtPriceX96 * 99 */\n      dup5\n      mul\n        /* \"velo/slipstream-main/contracts/core/VeloBot.sol\":2530:2553  sqrtPriceX96 * 99 / 100 */\n      and\n      div\n      swap1\n      pop\n        /* \"@uniswap/v3-core/contracts/libraries/TickMath.sol\":824:834  4295128739 */\n      0x01000276a3\n      sub(shl(0xa0, 0x01), 0x01)\n        /* \"velo/slipstream-main/contracts/core/VeloBot.sol\":2617:2661  sqrtPriceLimitX96 <= TickMath.MIN_SQRT_RATIO */\n      dup3\n      and\n      gt\n        /* \"velo/slipstream-main/contracts/core/VeloBot.sol\":2613:2737  if (sqrtPriceLimitX96 <= TickMath.MIN_SQRT_RATIO) {\r... */\n      tag_45\n      jumpi\n      pop\n        /* \"velo/slipstream-main/contracts/core/VeloBot.sol\":2698:2725  TickMath.MIN_SQRT_RATIO + 1 */\n      0x01000276a4\n        /* \"velo/slipstream-main/contracts/core/VeloBot.sol\":2613:2737  if (sqrtPriceLimitX96 <= TickMath.MIN_SQRT_RATIO) {\r... */\n    tag_45:\n        /* \"velo/slipstream-main/contracts/core/VeloBot.sol\":2788:2824  IERC20(USDC).approve(pool, amountIn) */\n      0x40\n      dup1\n      mload\n      shl(0xe0, 0x095ea7b3)\n      dup2\n      mstore\n        /* \"velo/slipstream-main/contracts/core/VeloBot.sol\":1417:1459  0x7cfc2Da3ba598ef4De692905feDcA32565AB836E */\n      0x7cfc2da3ba598ef4de692905fedca32565ab836e\n        /* \"velo/slipstream-main/contracts/core/VeloBot.sol\":2788:2824  IERC20(USDC).approve(pool, amountIn) */\n      0x04\n      dup3\n      add\n      mstore\n      0x24\n      dup2\n      add\n      dup6\n      swap1\n      mstore\n      swap1\n      mload\n        /* \"velo/slipstream-main/contracts/core/VeloBot.sol\":1523:1565  0x0b2C639c533813f4Aa9D7837CAf62653d097Ff85 */\n      0x0b2c639c533813f4aa9d7837caf62653d097ff85\n      swap2\n        /* \"velo/slipstream-main/contracts/core/VeloBot.sol\":2788:2808  IERC20(USDC).approve */\n      0x095ea7b3\n      swap2\n        /* \"velo/slipstream-main/contracts/core/VeloBot.sol\":2788:2824  IERC20(USDC).approve(pool, amountIn) */\n      0x44\n      dup1\n      dup4\n      add\n      swap3\n      0x20\n      swap3\n      swap2\n      swap1\n      dup3\n      swap1\n      sub\n      add\n      dup2\n      0x00\n        /* \"velo/slipstream-main/contracts/core/VeloBot.sol\":1523:1565  0x0b2C639c533813f4Aa9D7837CAf62653d097Ff85 */\n      dup8\n        /* \"velo/slipstream-main/contracts/core/VeloBot.sol\":2788:2824  IERC20(USDC).approve(pool, amountIn) */\n      dup1\n      extcodesize\n      iszero\n      dup1\n      iszero\n      tag_46\n      jumpi\n      0x00\n      dup1\n      revert\n    tag_46:\n      pop\n      gas\n      call\n      iszero\n      dup1\n      iszero\n      tag_48\n      jumpi\n      returndatasize\n      0x00\n      dup1\n      returndatacopy\n      revert(0x00, returndatasize)\n    tag_48:\n      pop\n      pop\n      pop\n      pop\n      mload(0x40)\n      returndatasize\n      0x20\n      dup2\n      lt\n      iszero\n      tag_49\n      jumpi\n      0x00\n      dup1\n      revert\n    tag_49:\n      pop\n      pop\n        /* \"velo/slipstream-main/contracts/core/VeloBot.sol\":2953:2978  abi.encode(address(this)) */\n      0x40\n      dup1\n      mload\n        /* \"velo/slipstream-main/contracts/core/VeloBot.sol\":2972:2976  this */\n      address\n        /* \"velo/slipstream-main/contracts/core/VeloBot.sol\":2788:2824  IERC20(USDC).approve(pool, amountIn) */\n      0x20\n        /* \"velo/slipstream-main/contracts/core/VeloBot.sol\":2953:2978  abi.encode(address(this)) */\n      dup3\n      dup2\n      add\n      dup3\n      swap1\n      mstore\n      dup4\n      mload\n      dup1\n      dup5\n      sub\n      dup3\n      add\n      dup2\n      mstore\n      dup4\n      dup6\n      add\n      swap5\n      dup6\n      swap1\n      mstore\n      shl(0xe3, 0x02515961)\n        /* \"velo/slipstream-main/contracts/core/VeloBot.sol\":3033:3318  ICLPoolActions(pool).swap(\r... */\n      swap1\n      swap5\n      mstore\n      0x44\n      dup4\n      add\n      dup3\n      dup2\n      mstore\n        /* \"velo/slipstream-main/contracts/core/VeloBot.sol\":3118:3122  true */\n      0x01\n        /* \"velo/slipstream-main/contracts/core/VeloBot.sol\":3033:3318  ICLPoolActions(pool).swap(\r... */\n      0x64\n      dup6\n      add\n      dup2\n      swap1\n      mstore\n      0x84\n      dup6\n      add\n      dup10\n      swap1\n      mstore\n      sub(shl(0xa0, 0x01), 0x01)\n      dup8\n      and\n      0xa4\n      dup7\n      add\n      mstore\n      0xa0\n      0xc4\n      dup7\n      add\n      swap1\n      dup2\n      mstore\n      dup7\n      mload\n      0xe4\n      dup8\n      add\n      mstore\n      dup7\n      mload\n        /* \"velo/slipstream-main/contracts/core/VeloBot.sol\":1417:1459  0x7cfc2Da3ba598ef4De692905feDcA32565AB836E */\n      0x7cfc2da3ba598ef4de692905fedca32565ab836e\n      swap7\n        /* \"velo/slipstream-main/contracts/core/VeloBot.sol\":3033:3058  ICLPoolActions(pool).swap */\n      0x128acb08\n      swap7\n        /* \"velo/slipstream-main/contracts/core/VeloBot.sol\":2972:2976  this */\n      swap6\n        /* \"velo/slipstream-main/contracts/core/VeloBot.sol\":3118:3122  true */\n      swap4\n      swap5\n        /* \"velo/slipstream-main/contracts/core/VeloBot.sol\":3185:3193  amountIn */\n      dup13\n      swap5\n        /* \"velo/slipstream-main/contracts/core/VeloBot.sol\":3225:3242  sqrtPriceLimitX96 */\n      dup12\n      swap5\n        /* \"velo/slipstream-main/contracts/core/VeloBot.sol\":2953:2978  abi.encode(address(this)) */\n      dup12\n      swap5\n        /* \"velo/slipstream-main/contracts/core/VeloBot.sol\":3033:3318  ICLPoolActions(pool).swap(\r... */\n      swap3\n      swap4\n      swap1\n      swap3\n      0x0104\n      swap1\n      swap2\n      add\n      swap2\n      dup6\n      add\n      swap1\n      dup1\n      dup4\n      dup4\n        /* \"velo/slipstream-main/contracts/core/VeloBot.sol\":2933:2950  bytes memory data */\n      0x00\n        /* \"velo/slipstream-main/contracts/core/VeloBot.sol\":3033:3318  ICLPoolActions(pool).swap(\r... */\n    tag_50:\n      dup4\n      dup2\n      lt\n      iszero\n      tag_52\n      jumpi\n      dup2\n      dup2\n      add\n      mload\n      dup4\n      dup3\n      add\n      mstore\n      0x20\n      add\n      jump(tag_50)\n    tag_52:\n      pop\n      pop\n      pop\n      pop\n      swap1\n      pop\n      swap1\n      dup2\n      add\n      swap1\n      0x1f\n      and\n      dup1\n      iszero\n      tag_53\n      jumpi\n      dup1\n      dup3\n      sub\n      dup1\n      mload\n      0x01\n      dup4\n      0x20\n      sub\n      0x0100\n      exp\n      sub\n      not\n      and\n      dup2\n      mstore\n      0x20\n      add\n      swap2\n      pop\n    tag_53:\n      pop\n      swap7\n      pop\n      pop\n      pop\n      pop\n      pop\n      pop\n      pop\n      0x40\n      dup1\n      mload\n      dup1\n      dup4\n      sub\n      dup2\n      0x00\n      dup8\n      dup1\n      extcodesize\n      iszero\n      dup1\n      iszero\n      tag_54\n      jumpi\n      0x00\n      dup1\n      revert\n    tag_54:\n      pop\n      gas\n      call\n      iszero\n      dup1\n      iszero\n      tag_56\n      jumpi\n      returndatasize\n      0x00\n      dup1\n      returndatacopy\n      revert(0x00, returndatasize)\n    tag_56:\n      pop\n      pop\n      pop\n      pop\n      mload(0x40)\n      returndatasize\n      0x40\n      dup2\n      lt\n      iszero\n      tag_57\n      jumpi\n      0x00\n      dup1\n      revert\n    tag_57:\n      pop\n      pop\n      pop\n      pop\n      pop\n      pop\n        /* \"velo/slipstream-main/contracts/core/VeloBot.sol\":2199:3326  function swapUSDCforVELO() external {\r... */\n      jump\t// out\n        /* \"velo/slipstream-main/contracts/core/VeloBot.sol\":1492:1565  address public constant USDC = 0x0b2C639c533813f4Aa9D7837CAf62653d097Ff85 */\n    tag_17:\n        /* \"velo/slipstream-main/contracts/core/VeloBot.sol\":1523:1565  0x0b2C639c533813f4Aa9D7837CAf62653d097Ff85 */\n      0x0b2c639c533813f4aa9d7837caf62653d097ff85\n        /* \"velo/slipstream-main/contracts/core/VeloBot.sol\":1492:1565  address public constant USDC = 0x0b2C639c533813f4Aa9D7837CAf62653d097Ff85 */\n      dup2\n      jump\t// out\n        /* \"velo/slipstream-main/contracts/core/VeloBot.sol\":2022:2191  function transferToAdmin(address Token) external {\r... */\n    tag_20:\n        /* \"velo/slipstream-main/contracts/core/VeloBot.sol\":2082:2095  uint256 value */\n      0x00\n        /* \"velo/slipstream-main/contracts/core/VeloBot.sol\":2105:2110  Token */\n      dup2\n      sub(shl(0xa0, 0x01), 0x01)\n        /* \"velo/slipstream-main/contracts/core/VeloBot.sol\":2098:2121  IERC20(Token).balanceOf */\n      and\n      0x70a08231\n        /* \"velo/slipstream-main/contracts/core/VeloBot.sol\":2130:2134  this */\n      address\n        /* \"velo/slipstream-main/contracts/core/VeloBot.sol\":2098:2136  IERC20(Token).balanceOf(address(this)) */\n      mload(0x40)\n      dup3\n      0xffffffff\n      and\n      0xe0\n      shl\n      dup2\n      mstore\n      0x04\n      add\n      dup1\n      dup3\n      sub(shl(0xa0, 0x01), 0x01)\n      and\n      dup2\n      mstore\n      0x20\n      add\n      swap2\n      pop\n      pop\n      0x20\n      mload(0x40)\n      dup1\n      dup4\n      sub\n      dup2\n      dup7\n      dup1\n      extcodesize\n      iszero\n      dup1\n      iszero\n      tag_59\n      jumpi\n      0x00\n      dup1\n      revert\n    tag_59:\n      pop\n      gas\n      staticcall\n      iszero\n      dup1\n      iszero\n      tag_61\n      jumpi\n      returndatasize\n      0x00\n      dup1\n      returndatacopy\n      revert(0x00, returndatasize)\n    tag_61:\n      pop\n      pop\n      pop\n      pop\n      mload(0x40)\n      returndatasize\n      0x20\n      dup2\n      lt\n      iszero\n      tag_62\n      jumpi\n      0x00\n      dup1\n      revert\n    tag_62:\n      pop\n      mload\n        /* \"velo/slipstream-main/contracts/core/VeloBot.sol\":2170:2175  admin */\n      0x00\n      dup1\n      sload\n        /* \"velo/slipstream-main/contracts/core/VeloBot.sol\":2147:2183  IERC20(Token).transfer(admin, value) */\n      0x40\n      dup1\n      mload\n      shl(0xe0, 0xa9059cbb)\n      dup2\n      mstore\n      sub(shl(0xa0, 0x01), 0x01)\n        /* \"velo/slipstream-main/contracts/core/VeloBot.sol\":2170:2175  admin */\n      swap3\n      dup4\n      and\n        /* \"velo/slipstream-main/contracts/core/VeloBot.sol\":2147:2183  IERC20(Token).transfer(admin, value) */\n      0x04\n      dup3\n      add\n      mstore\n      0x24\n      dup2\n      add\n      dup6\n      swap1\n      mstore\n      swap1\n      mload\n        /* \"velo/slipstream-main/contracts/core/VeloBot.sol\":2098:2136  IERC20(Token).balanceOf(address(this)) */\n      swap4\n      swap5\n      pop\n        /* \"velo/slipstream-main/contracts/core/VeloBot.sol\":2147:2169  IERC20(Token).transfer */\n      swap1\n      dup6\n      and\n      swap3\n      0xa9059cbb\n      swap3\n        /* \"velo/slipstream-main/contracts/core/VeloBot.sol\":2147:2183  IERC20(Token).transfer(admin, value) */\n      0x44\n      dup1\n      dup5\n      add\n      swap4\n        /* \"velo/slipstream-main/contracts/core/VeloBot.sol\":2098:2136  IERC20(Token).balanceOf(address(this)) */\n      0x20\n      swap4\n        /* \"velo/slipstream-main/contracts/core/VeloBot.sol\":2147:2183  IERC20(Token).transfer(admin, value) */\n      swap3\n      swap1\n      dup4\n      swap1\n      sub\n      swap1\n      swap2\n      add\n      swap1\n      dup3\n      swap1\n        /* \"velo/slipstream-main/contracts/core/VeloBot.sol\":2147:2169  IERC20(Token).transfer */\n      dup8\n        /* \"velo/slipstream-main/contracts/core/VeloBot.sol\":2147:2183  IERC20(Token).transfer(admin, value) */\n      dup1\n      extcodesize\n      iszero\n      dup1\n      iszero\n      tag_63\n      jumpi\n      0x00\n      dup1\n      revert\n    tag_63:\n      pop\n      gas\n      call\n      iszero\n      dup1\n      iszero\n      tag_65\n      jumpi\n      returndatasize\n      0x00\n      dup1\n      returndatacopy\n      revert(0x00, returndatasize)\n    tag_65:\n      pop\n      pop\n      pop\n      pop\n      mload(0x40)\n      returndatasize\n      0x20\n      dup2\n      lt\n      iszero\n      tag_66\n      jumpi\n      0x00\n      dup1\n      revert\n    tag_66:\n      pop\n      pop\n      pop\n      pop\n        /* \"velo/slipstream-main/contracts/core/VeloBot.sol\":2022:2191  function transferToAdmin(address Token) external {\r... */\n      jump\t// out\n        /* \"velo/slipstream-main/contracts/core/VeloBot.sol\":1592:1665  address public constant VELO = 0x9560e827aF36c94D2Ac33a39bCE1Fe78631088Db */\n    tag_22:\n        /* \"velo/slipstream-main/contracts/core/VeloBot.sol\":1623:1665  0x9560e827aF36c94D2Ac33a39bCE1Fe78631088Db */\n      0x9560e827af36c94d2ac33a39bce1fe78631088db\n        /* \"velo/slipstream-main/contracts/core/VeloBot.sol\":1592:1665  address public constant VELO = 0x9560e827aF36c94D2Ac33a39bCE1Fe78631088Db */\n      dup2\n      jump\t// out\n        /* \"velo/slipstream-main/contracts/core/VeloBot.sol\":1868:2014  function _newAdmin(address newAdmin) external {\r... */\n    tag_25:\n        /* \"velo/slipstream-main/contracts/core/VeloBot.sol\":1947:1952  admin */\n      and(sub(shl(0xa0, 0x01), 0x01), sload(0x00))\n        /* \"velo/slipstream-main/contracts/core/VeloBot.sol\":1933:1943  msg.sender */\n      caller\n        /* \"velo/slipstream-main/contracts/core/VeloBot.sol\":1933:1952  msg.sender == admin */\n      eq\n        /* \"velo/slipstream-main/contracts/core/VeloBot.sol\":1925:1979  require(msg.sender == admin, \"Only owner can do this\") */\n      tag_68\n      jumpi\n      0x40\n      dup1\n      mload\n      shl(0xe5, 0x461bcd)\n      dup2\n      mstore\n      0x20\n      0x04\n      dup3\n      add\n      mstore\n      0x16\n      0x24\n      dup3\n      add\n      mstore\n      shl(0x50, 0x4f6e6c79206f776e65722063616e20646f2074686973)\n      0x44\n      dup3\n      add\n      mstore\n      swap1\n      mload\n      swap1\n      dup2\n      swap1\n      sub\n      0x64\n      add\n      swap1\n      revert\n    tag_68:\n        /* \"velo/slipstream-main/contracts/core/VeloBot.sol\":1990:1995  admin */\n      0x00\n        /* \"velo/slipstream-main/contracts/core/VeloBot.sol\":1990:2006  admin = newAdmin */\n      dup1\n      sload\n      not(sub(shl(0xa0, 0x01), 0x01))\n      and\n      sub(shl(0xa0, 0x01), 0x01)\n      swap3\n      swap1\n      swap3\n      and\n      swap2\n      swap1\n      swap2\n      or\n      swap1\n      sstore\n        /* \"velo/slipstream-main/contracts/core/VeloBot.sol\":1868:2014  function _newAdmin(address newAdmin) external {\r... */\n      jump\t// out\n        /* \"velo/slipstream-main/contracts/core/VeloBot.sol\":1694:1714  address public admin */\n    tag_27:\n      and(sub(shl(0xa0, 0x01), 0x01), sload(0x00))\n      dup2\n      jump\t// out\n        /* \"velo/slipstream-main/contracts/core/VeloBot.sol\":3404:4037  function uniswapV3SwapCallback(\r... */\n    tag_33:\n        /* \"velo/slipstream-main/contracts/core/VeloBot.sol\":3575:3585  msg.sender */\n      caller\n        /* \"velo/slipstream-main/contracts/core/VeloBot.sol\":1417:1459  0x7cfc2Da3ba598ef4De692905feDcA32565AB836E */\n      0x7cfc2da3ba598ef4de692905fedca32565ab836e\n        /* \"velo/slipstream-main/contracts/core/VeloBot.sol\":3575:3593  msg.sender == pool */\n      eq\n        /* \"velo/slipstream-main/contracts/core/VeloBot.sol\":3567:3621  require(msg.sender == pool, \"Callback only from pool\") */\n      tag_70\n      jumpi\n      0x40\n      dup1\n      mload\n      shl(0xe5, 0x461bcd)\n      dup2\n      mstore\n      0x20\n      0x04\n      dup3\n      add\n      mstore\n      0x17\n      0x24\n      dup3\n      add\n      mstore\n      0x43616c6c6261636b206f6e6c792066726f6d20706f6f6c000000000000000000\n      0x44\n      dup3\n      add\n      mstore\n      swap1\n      mload\n      swap1\n      dup2\n      swap1\n      sub\n      0x64\n      add\n      swap1\n      revert\n    tag_70:\n        /* \"velo/slipstream-main/contracts/core/VeloBot.sol\":3730:3731  0 */\n      0x00\n        /* \"velo/slipstream-main/contracts/core/VeloBot.sol\":3715:3727  amount0Delta */\n      dup5\n        /* \"velo/slipstream-main/contracts/core/VeloBot.sol\":3715:3731  amount0Delta > 0 */\n      sgt\n        /* \"velo/slipstream-main/contracts/core/VeloBot.sol\":3711:3810  if (amount0Delta > 0) {\r... */\n      iszero\n      tag_71\n      jumpi\n        /* \"velo/slipstream-main/contracts/core/VeloBot.sol\":3748:3798  IERC20(USDC).transfer(pool, uint256(amount0Delta)) */\n      0x40\n      dup1\n      mload\n      shl(0xe0, 0xa9059cbb)\n      dup2\n      mstore\n        /* \"velo/slipstream-main/contracts/core/VeloBot.sol\":1417:1459  0x7cfc2Da3ba598ef4De692905feDcA32565AB836E */\n      0x7cfc2da3ba598ef4de692905fedca32565ab836e\n        /* \"velo/slipstream-main/contracts/core/VeloBot.sol\":3748:3798  IERC20(USDC).transfer(pool, uint256(amount0Delta)) */\n      0x04\n      dup3\n      add\n      mstore\n      0x24\n      dup2\n      add\n      dup7\n      swap1\n      mstore\n      swap1\n      mload\n        /* \"velo/slipstream-main/contracts/core/VeloBot.sol\":1523:1565  0x0b2C639c533813f4Aa9D7837CAf62653d097Ff85 */\n      0x0b2c639c533813f4aa9d7837caf62653d097ff85\n      swap2\n        /* \"velo/slipstream-main/contracts/core/VeloBot.sol\":3748:3769  IERC20(USDC).transfer */\n      0xa9059cbb\n      swap2\n        /* \"velo/slipstream-main/contracts/core/VeloBot.sol\":3748:3798  IERC20(USDC).transfer(pool, uint256(amount0Delta)) */\n      0x44\n      dup1\n      dup4\n      add\n      swap3\n      0x20\n      swap3\n      swap2\n      swap1\n      dup3\n      swap1\n      sub\n      add\n      dup2\n      0x00\n        /* \"velo/slipstream-main/contracts/core/VeloBot.sol\":1523:1565  0x0b2C639c533813f4Aa9D7837CAf62653d097Ff85 */\n      dup8\n        /* \"velo/slipstream-main/contracts/core/VeloBot.sol\":3748:3798  IERC20(USDC).transfer(pool, uint256(amount0Delta)) */\n      dup1\n      extcodesize\n      iszero\n      dup1\n      iszero\n      tag_72\n      jumpi\n      0x00\n      dup1\n      revert\n    tag_72:\n      pop\n      gas\n      call\n      iszero\n      dup1\n      iszero\n      tag_74\n      jumpi\n      returndatasize\n      0x00\n      dup1\n      returndatacopy\n      revert(0x00, returndatasize)\n    tag_74:\n      pop\n      pop\n      pop\n      pop\n      mload(0x40)\n      returndatasize\n      0x20\n      dup2\n      lt\n      iszero\n      tag_75\n      jumpi\n      0x00\n      dup1\n      revert\n    tag_75:\n      pop\n      pop\n        /* \"velo/slipstream-main/contracts/core/VeloBot.sol\":3711:3810  if (amount0Delta > 0) {\r... */\n    tag_71:\n        /* \"velo/slipstream-main/contracts/core/VeloBot.sol\":3950:3951  0 */\n      0x00\n        /* \"velo/slipstream-main/contracts/core/VeloBot.sol\":3935:3947  amount1Delta */\n      dup4\n        /* \"velo/slipstream-main/contracts/core/VeloBot.sol\":3935:3951  amount1Delta > 0 */\n      sgt\n        /* \"velo/slipstream-main/contracts/core/VeloBot.sol\":3931:4030  if (amount1Delta > 0) {\r... */\n      iszero\n      tag_66\n      jumpi\n        /* \"velo/slipstream-main/contracts/core/VeloBot.sol\":3968:4018  IERC20(VELO).transfer(pool, uint256(amount1Delta)) */\n      0x40\n      dup1\n      mload\n      shl(0xe0, 0xa9059cbb)\n      dup2\n      mstore\n        /* \"velo/slipstream-main/contracts/core/VeloBot.sol\":1417:1459  0x7cfc2Da3ba598ef4De692905feDcA32565AB836E */\n      0x7cfc2da3ba598ef4de692905fedca32565ab836e\n        /* \"velo/slipstream-main/contracts/core/VeloBot.sol\":3968:4018  IERC20(VELO).transfer(pool, uint256(amount1Delta)) */\n      0x04\n      dup3\n      add\n      mstore\n      0x24\n      dup2\n      add\n      dup6\n      swap1\n      mstore\n      swap1\n      mload\n        /* \"velo/slipstream-main/contracts/core/VeloBot.sol\":1623:1665  0x9560e827aF36c94D2Ac33a39bCE1Fe78631088Db */\n      0x9560e827af36c94d2ac33a39bce1fe78631088db\n      swap2\n        /* \"velo/slipstream-main/contracts/core/VeloBot.sol\":3968:3989  IERC20(VELO).transfer */\n      0xa9059cbb\n      swap2\n        /* \"velo/slipstream-main/contracts/core/VeloBot.sol\":3968:4018  IERC20(VELO).transfer(pool, uint256(amount1Delta)) */\n      0x44\n      dup1\n      dup4\n      add\n      swap3\n      0x20\n      swap3\n      swap2\n      swap1\n      dup3\n      swap1\n      sub\n      add\n      dup2\n      0x00\n        /* \"velo/slipstream-main/contracts/core/VeloBot.sol\":1623:1665  0x9560e827aF36c94D2Ac33a39bCE1Fe78631088Db */\n      dup8\n        /* \"velo/slipstream-main/contracts/core/VeloBot.sol\":3968:4018  IERC20(VELO).transfer(pool, uint256(amount1Delta)) */\n      dup1\n      extcodesize\n      iszero\n      dup1\n      iszero\n      tag_77\n      jumpi\n      0x00\n      dup1\n      revert\n    tag_77:\n      pop\n      gas\n      call\n      iszero\n      dup1\n      iszero\n      tag_79\n      jumpi\n      returndatasize\n      0x00\n      dup1\n      returndatacopy\n      revert(0x00, returndatasize)\n    tag_79:\n      pop\n      pop\n      pop\n      pop\n      mload(0x40)\n      returndatasize\n      0x20\n      dup2\n      lt\n      iszero\n      tag_57\n      jumpi\n      0x00\n      dup1\n      revert\n\n    auxdata: 0xa264697066735822122070bd01bd10b4f7204afdbb0b3e3e3e62e2c13a990722a1ce25b8390988f2651f64736f6c63430007060033\n}\n",
				"bytecode": {
					"linkReferences": {},
					"object": "608060405234801561001057600080fd5b50600080546001600160a01b0319163317905561089b806100326000396000f3fe608060405234801561001057600080fd5b50600436106100885760003560e01c8063a0eeb39a1161005b578063a0eeb39a146100e9578063e6f4d0aa146100f1578063f851a44014610117578063fa461e331461011f57610088565b806316f0115b1461008d57806319232c16146100b157806389a30271146100bb5780638cbc5cff146100c3575b600080fd5b61009561019b565b604080516001600160a01b039092168252519081900360200190f35b6100b96101b3565b005b6100956104f9565b6100b9600480360360208110156100d957600080fd5b50356001600160a01b0316610511565b610095610617565b6100b96004803603602081101561010757600080fd5b50356001600160a01b031661062f565b6100956106a9565b6100b96004803603606081101561013557600080fd5b81359160208101359181019060608101604082013564010000000081111561015c57600080fd5b82018360208201111561016e57600080fd5b8035906020019184600183028401116401000000008311171561019057600080fd5b5090925090506106b8565b737cfc2da3ba598ef4de692905fedca32565ab836e81565b604080516370a0823160e01b81523060048201529051600091730b2c639c533813f4aa9d7837caf62653d097ff85916370a0823191602480820192602092909190829003018186803b15801561020857600080fd5b505afa15801561021c573d6000803e3d6000fd5b505050506040513d602081101561023257600080fd5b505190508061027f576040805162461bcd60e51b8152602060048201526014602482015273125b9d985b1a59081a5b9c1d5d08185b5bdd5b9d60621b604482015290519081900360640190fd5b6000737cfc2da3ba598ef4de692905fedca32565ab836e6001600160a01b0316633850c7bd6040518163ffffffff1660e01b815260040160c06040518083038186803b1580156102ce57600080fd5b505afa1580156102e2573d6000803e3d6000fd5b505050506040513d60c08110156102f857600080fd5b50519050600060646001600160a01b0360638402160490506401000276a36001600160a01b0382161161032d57506401000276a45b6040805163095ea7b360e01b8152737cfc2da3ba598ef4de692905fedca32565ab836e6004820152602481018590529051730b2c639c533813f4aa9d7837caf62653d097ff859163095ea7b39160448083019260209291908290030181600087803b15801561039b57600080fd5b505af11580156103af573d6000803e3d6000fd5b505050506040513d60208110156103c557600080fd5b50506040805130602082810182905283518084038201815283850194859052630251596160e31b90945260448301828152600160648501819052608485018990526001600160a01b03871660a486015260a060c48601908152865160e48701528651737cfc2da3ba598ef4de692905fedca32565ab836e9663128acb08969593948c948b948b94929390926101049091019185019080838360005b83811015610478578181015183820152602001610460565b50505050905090810190601f1680156104a55780820380516001836020036101000a031916815260200191505b5096505050505050506040805180830381600087803b1580156104c757600080fd5b505af11580156104db573d6000803e3d6000fd5b505050506040513d60408110156104f157600080fd5b505050505050565b730b2c639c533813f4aa9d7837caf62653d097ff8581565b6000816001600160a01b03166370a08231306040518263ffffffff1660e01b815260040180826001600160a01b0316815260200191505060206040518083038186803b15801561056057600080fd5b505afa158015610574573d6000803e3d6000fd5b505050506040513d602081101561058a57600080fd5b5051600080546040805163a9059cbb60e01b81526001600160a01b0392831660048201526024810185905290519394509085169263a9059cbb92604480840193602093929083900390910190829087803b1580156105e757600080fd5b505af11580156105fb573d6000803e3d6000fd5b505050506040513d602081101561061157600080fd5b50505050565b739560e827af36c94d2ac33a39bce1fe78631088db81565b6000546001600160a01b03163314610687576040805162461bcd60e51b81526020600482015260166024820152754f6e6c79206f776e65722063616e20646f207468697360501b604482015290519081900360640190fd5b600080546001600160a01b0319166001600160a01b0392909216919091179055565b6000546001600160a01b031681565b33737cfc2da3ba598ef4de692905fedca32565ab836e14610720576040805162461bcd60e51b815260206004820152601760248201527f43616c6c6261636b206f6e6c792066726f6d20706f6f6c000000000000000000604482015290519081900360640190fd5b60008413156107c4576040805163a9059cbb60e01b8152737cfc2da3ba598ef4de692905fedca32565ab836e6004820152602481018690529051730b2c639c533813f4aa9d7837caf62653d097ff859163a9059cbb9160448083019260209291908290030181600087803b15801561079757600080fd5b505af11580156107ab573d6000803e3d6000fd5b505050506040513d60208110156107c157600080fd5b50505b6000831315610611576040805163a9059cbb60e01b8152737cfc2da3ba598ef4de692905fedca32565ab836e6004820152602481018590529051739560e827af36c94d2ac33a39bce1fe78631088db9163a9059cbb9160448083019260209291908290030181600087803b15801561083b57600080fd5b505af115801561084f573d6000803e3d6000fd5b505050506040513d60208110156104f157600080fdfea264697066735822122070bd01bd10b4f7204afdbb0b3e3e3e62e2c13a990722a1ce25b8390988f2651f64736f6c63430007060033",
					"opcodes": "PUSH1 0x80 PUSH1 0x40 MSTORE CALLVALUE DUP1 ISZERO PUSH2 0x10 JUMPI PUSH1 0x0 DUP1 REVERT JUMPDEST POP PUSH1 0x0 DUP1 SLOAD PUSH1 0x1 PUSH1 0x1 PUSH1 0xA0 SHL SUB NOT AND CALLER OR SWAP1 SSTORE PUSH2 0x89B DUP1 PUSH2 0x32 PUSH1 0x0 CODECOPY PUSH1 0x0 RETURN INVALID PUSH1 0x80 PUSH1 0x40 MSTORE CALLVALUE DUP1 ISZERO PUSH2 0x10 JUMPI PUSH1 0x0 DUP1 REVERT JUMPDEST POP PUSH1 0x4 CALLDATASIZE LT PUSH2 0x88 JUMPI PUSH1 0x0 CALLDATALOAD PUSH1 0xE0 SHR DUP1 PUSH4 0xA0EEB39A GT PUSH2 0x5B JUMPI DUP1 PUSH4 0xA0EEB39A EQ PUSH2 0xE9 JUMPI DUP1 PUSH4 0xE6F4D0AA EQ PUSH2 0xF1 JUMPI DUP1 PUSH4 0xF851A440 EQ PUSH2 0x117 JUMPI DUP1 PUSH4 0xFA461E33 EQ PUSH2 0x11F JUMPI PUSH2 0x88 JUMP JUMPDEST DUP1 PUSH4 0x16F0115B EQ PUSH2 0x8D JUMPI DUP1 PUSH4 0x19232C16 EQ PUSH2 0xB1 JUMPI DUP1 PUSH4 0x89A30271 EQ PUSH2 0xBB JUMPI DUP1 PUSH4 0x8CBC5CFF EQ PUSH2 0xC3 JUMPI JUMPDEST PUSH1 0x0 DUP1 REVERT JUMPDEST PUSH2 0x95 PUSH2 0x19B JUMP JUMPDEST PUSH1 0x40 DUP1 MLOAD PUSH1 0x1 PUSH1 0x1 PUSH1 0xA0 SHL SUB SWAP1 SWAP3 AND DUP3 MSTORE MLOAD SWAP1 DUP2 SWAP1 SUB PUSH1 0x20 ADD SWAP1 RETURN JUMPDEST PUSH2 0xB9 PUSH2 0x1B3 JUMP JUMPDEST STOP JUMPDEST PUSH2 0x95 PUSH2 0x4F9 JUMP JUMPDEST PUSH2 0xB9 PUSH1 0x4 DUP1 CALLDATASIZE SUB PUSH1 0x20 DUP2 LT ISZERO PUSH2 0xD9 JUMPI PUSH1 0x0 DUP1 REVERT JUMPDEST POP CALLDATALOAD PUSH1 0x1 PUSH1 0x1 PUSH1 0xA0 SHL SUB AND PUSH2 0x511 JUMP JUMPDEST PUSH2 0x95 PUSH2 0x617 JUMP JUMPDEST PUSH2 0xB9 PUSH1 0x4 DUP1 CALLDATASIZE SUB PUSH1 0x20 DUP2 LT ISZERO PUSH2 0x107 JUMPI PUSH1 0x0 DUP1 REVERT JUMPDEST POP CALLDATALOAD PUSH1 0x1 PUSH1 0x1 PUSH1 0xA0 SHL SUB AND PUSH2 0x62F JUMP JUMPDEST PUSH2 0x95 PUSH2 0x6A9 JUMP JUMPDEST PUSH2 0xB9 PUSH1 0x4 DUP1 CALLDATASIZE SUB PUSH1 0x60 DUP2 LT ISZERO PUSH2 0x135 JUMPI PUSH1 0x0 DUP1 REVERT JUMPDEST DUP2 CALLDATALOAD SWAP2 PUSH1 0x20 DUP2 ADD CALLDATALOAD SWAP2 DUP2 ADD SWAP1 PUSH1 0x60 DUP2 ADD PUSH1 0x40 DUP3 ADD CALLDATALOAD PUSH5 0x100000000 DUP2 GT ISZERO PUSH2 0x15C JUMPI PUSH1 0x0 DUP1 REVERT JUMPDEST DUP3 ADD DUP4 PUSH1 0x20 DUP3 ADD GT ISZERO PUSH2 0x16E JUMPI PUSH1 0x0 DUP1 REVERT JUMPDEST DUP1 CALLDATALOAD SWAP1 PUSH1 0x20 ADD SWAP2 DUP5 PUSH1 0x1 DUP4 MUL DUP5 ADD GT PUSH5 0x100000000 DUP4 GT OR ISZERO PUSH2 0x190 JUMPI PUSH1 0x0 DUP1 REVERT JUMPDEST POP SWAP1 SWAP3 POP SWAP1 POP PUSH2 0x6B8 JUMP JUMPDEST PUSH20 0x7CFC2DA3BA598EF4DE692905FEDCA32565AB836E DUP2 JUMP JUMPDEST PUSH1 0x40 DUP1 MLOAD PUSH4 0x70A08231 PUSH1 0xE0 SHL DUP2 MSTORE ADDRESS PUSH1 0x4 DUP3 ADD MSTORE SWAP1 MLOAD PUSH1 0x0 SWAP2 PUSH20 0xB2C639C533813F4AA9D7837CAF62653D097FF85 SWAP2 PUSH4 0x70A08231 SWAP2 PUSH1 0x24 DUP1 DUP3 ADD SWAP3 PUSH1 0x20 SWAP3 SWAP1 SWAP2 SWAP1 DUP3 SWAP1 SUB ADD DUP2 DUP7 DUP1 EXTCODESIZE ISZERO DUP1 ISZERO PUSH2 0x208 JUMPI PUSH1 0x0 DUP1 REVERT JUMPDEST POP GAS STATICCALL ISZERO DUP1 ISZERO PUSH2 0x21C JUMPI RETURNDATASIZE PUSH1 0x0 DUP1 RETURNDATACOPY RETURNDATASIZE PUSH1 0x0 REVERT JUMPDEST POP POP POP POP PUSH1 0x40 MLOAD RETURNDATASIZE PUSH1 0x20 DUP2 LT ISZERO PUSH2 0x232 JUMPI PUSH1 0x0 DUP1 REVERT JUMPDEST POP MLOAD SWAP1 POP DUP1 PUSH2 0x27F JUMPI PUSH1 0x40 DUP1 MLOAD PUSH3 0x461BCD PUSH1 0xE5 SHL DUP2 MSTORE PUSH1 0x20 PUSH1 0x4 DUP3 ADD MSTORE PUSH1 0x14 PUSH1 0x24 DUP3 ADD MSTORE PUSH20 0x125B9D985B1A59081A5B9C1D5D08185B5BDD5B9D PUSH1 0x62 SHL PUSH1 0x44 DUP3 ADD MSTORE SWAP1 MLOAD SWAP1 DUP2 SWAP1 SUB PUSH1 0x64 ADD SWAP1 REVERT JUMPDEST PUSH1 0x0 PUSH20 0x7CFC2DA3BA598EF4DE692905FEDCA32565AB836E PUSH1 0x1 PUSH1 0x1 PUSH1 0xA0 SHL SUB AND PUSH4 0x3850C7BD PUSH1 0x40 MLOAD DUP2 PUSH4 0xFFFFFFFF AND PUSH1 0xE0 SHL DUP2 MSTORE PUSH1 0x4 ADD PUSH1 0xC0 PUSH1 0x40 MLOAD DUP1 DUP4 SUB DUP2 DUP7 DUP1 EXTCODESIZE ISZERO DUP1 ISZERO PUSH2 0x2CE JUMPI PUSH1 0x0 DUP1 REVERT JUMPDEST POP GAS STATICCALL ISZERO DUP1 ISZERO PUSH2 0x2E2 JUMPI RETURNDATASIZE PUSH1 0x0 DUP1 RETURNDATACOPY RETURNDATASIZE PUSH1 0x0 REVERT JUMPDEST POP POP POP POP PUSH1 0x40 MLOAD RETURNDATASIZE PUSH1 0xC0 DUP2 LT ISZERO PUSH2 0x2F8 JUMPI PUSH1 0x0 DUP1 REVERT JUMPDEST POP MLOAD SWAP1 POP PUSH1 0x0 PUSH1 0x64 PUSH1 0x1 PUSH1 0x1 PUSH1 0xA0 SHL SUB PUSH1 0x63 DUP5 MUL AND DIV SWAP1 POP PUSH5 0x1000276A3 PUSH1 0x1 PUSH1 0x1 PUSH1 0xA0 SHL SUB DUP3 AND GT PUSH2 0x32D JUMPI POP PUSH5 0x1000276A4 JUMPDEST PUSH1 0x40 DUP1 MLOAD PUSH4 0x95EA7B3 PUSH1 0xE0 SHL DUP2 MSTORE PUSH20 0x7CFC2DA3BA598EF4DE692905FEDCA32565AB836E PUSH1 0x4 DUP3 ADD MSTORE PUSH1 0x24 DUP2 ADD DUP6 SWAP1 MSTORE SWAP1 MLOAD PUSH20 0xB2C639C533813F4AA9D7837CAF62653D097FF85 SWAP2 PUSH4 0x95EA7B3 SWAP2 PUSH1 0x44 DUP1 DUP4 ADD SWAP3 PUSH1 0x20 SWAP3 SWAP2 SWAP1 DUP3 SWAP1 SUB ADD DUP2 PUSH1 0x0 DUP8 DUP1 EXTCODESIZE ISZERO DUP1 ISZERO PUSH2 0x39B JUMPI PUSH1 0x0 DUP1 REVERT JUMPDEST POP GAS CALL ISZERO DUP1 ISZERO PUSH2 0x3AF JUMPI RETURNDATASIZE PUSH1 0x0 DUP1 RETURNDATACOPY RETURNDATASIZE PUSH1 0x0 REVERT JUMPDEST POP POP POP POP PUSH1 0x40 MLOAD RETURNDATASIZE PUSH1 0x20 DUP2 LT ISZERO PUSH2 0x3C5 JUMPI PUSH1 0x0 DUP1 REVERT JUMPDEST POP POP PUSH1 0x40 DUP1 MLOAD ADDRESS PUSH1 0x20 DUP3 DUP2 ADD DUP3 SWAP1 MSTORE DUP4 MLOAD DUP1 DUP5 SUB DUP3 ADD DUP2 MSTORE DUP4 DUP6 ADD SWAP5 DUP6 SWAP1 MSTORE PUSH4 0x2515961 PUSH1 0xE3 SHL SWAP1 SWAP5 MSTORE PUSH1 0x44 DUP4 ADD DUP3 DUP2 MSTORE PUSH1 0x1 PUSH1 0x64 DUP6 ADD DUP2 SWAP1 MSTORE PUSH1 0x84 DUP6 ADD DUP10 SWAP1 MSTORE PUSH1 0x1 PUSH1 0x1 PUSH1 0xA0 SHL SUB DUP8 AND PUSH1 0xA4 DUP7 ADD MSTORE PUSH1 0xA0 PUSH1 0xC4 DUP7 ADD SWAP1 DUP2 MSTORE DUP7 MLOAD PUSH1 0xE4 DUP8 ADD MSTORE DUP7 MLOAD PUSH20 0x7CFC2DA3BA598EF4DE692905FEDCA32565AB836E SWAP7 PUSH4 0x128ACB08 SWAP7 SWAP6 SWAP4 SWAP5 DUP13 SWAP5 DUP12 SWAP5 DUP12 SWAP5 SWAP3 SWAP4 SWAP1 SWAP3 PUSH2 0x104 SWAP1 SWAP2 ADD SWAP2 DUP6 ADD SWAP1 DUP1 DUP4 DUP4 PUSH1 0x0 JUMPDEST DUP4 DUP2 LT ISZERO PUSH2 0x478 JUMPI DUP2 DUP2 ADD MLOAD DUP4 DUP3 ADD MSTORE PUSH1 0x20 ADD PUSH2 0x460 JUMP JUMPDEST POP POP POP POP SWAP1 POP SWAP1 DUP2 ADD SWAP1 PUSH1 0x1F AND DUP1 ISZERO PUSH2 0x4A5 JUMPI DUP1 DUP3 SUB DUP1 MLOAD PUSH1 0x1 DUP4 PUSH1 0x20 SUB PUSH2 0x100 EXP SUB NOT AND DUP2 MSTORE PUSH1 0x20 ADD SWAP2 POP JUMPDEST POP SWAP7 POP POP POP POP POP POP POP PUSH1 0x40 DUP1 MLOAD DUP1 DUP4 SUB DUP2 PUSH1 0x0 DUP8 DUP1 EXTCODESIZE ISZERO DUP1 ISZERO PUSH2 0x4C7 JUMPI PUSH1 0x0 DUP1 REVERT JUMPDEST POP GAS CALL ISZERO DUP1 ISZERO PUSH2 0x4DB JUMPI RETURNDATASIZE PUSH1 0x0 DUP1 RETURNDATACOPY RETURNDATASIZE PUSH1 0x0 REVERT JUMPDEST POP POP POP POP PUSH1 0x40 MLOAD RETURNDATASIZE PUSH1 0x40 DUP2 LT ISZERO PUSH2 0x4F1 JUMPI PUSH1 0x0 DUP1 REVERT JUMPDEST POP POP POP POP POP POP JUMP JUMPDEST PUSH20 0xB2C639C533813F4AA9D7837CAF62653D097FF85 DUP2 JUMP JUMPDEST PUSH1 0x0 DUP2 PUSH1 0x1 PUSH1 0x1 PUSH1 0xA0 SHL SUB AND PUSH4 0x70A08231 ADDRESS PUSH1 0x40 MLOAD DUP3 PUSH4 0xFFFFFFFF AND PUSH1 0xE0 SHL DUP2 MSTORE PUSH1 0x4 ADD DUP1 DUP3 PUSH1 0x1 PUSH1 0x1 PUSH1 0xA0 SHL SUB AND DUP2 MSTORE PUSH1 0x20 ADD SWAP2 POP POP PUSH1 0x20 PUSH1 0x40 MLOAD DUP1 DUP4 SUB DUP2 DUP7 DUP1 EXTCODESIZE ISZERO DUP1 ISZERO PUSH2 0x560 JUMPI PUSH1 0x0 DUP1 REVERT JUMPDEST POP GAS STATICCALL ISZERO DUP1 ISZERO PUSH2 0x574 JUMPI RETURNDATASIZE PUSH1 0x0 DUP1 RETURNDATACOPY RETURNDATASIZE PUSH1 0x0 REVERT JUMPDEST POP POP POP POP PUSH1 0x40 MLOAD RETURNDATASIZE PUSH1 0x20 DUP2 LT ISZERO PUSH2 0x58A JUMPI PUSH1 0x0 DUP1 REVERT JUMPDEST POP MLOAD PUSH1 0x0 DUP1 SLOAD PUSH1 0x40 DUP1 MLOAD PUSH4 0xA9059CBB PUSH1 0xE0 SHL DUP2 MSTORE PUSH1 0x1 PUSH1 0x1 PUSH1 0xA0 SHL SUB SWAP3 DUP4 AND PUSH1 0x4 DUP3 ADD MSTORE PUSH1 0x24 DUP2 ADD DUP6 SWAP1 MSTORE SWAP1 MLOAD SWAP4 SWAP5 POP SWAP1 DUP6 AND SWAP3 PUSH4 0xA9059CBB SWAP3 PUSH1 0x44 DUP1 DUP5 ADD SWAP4 PUSH1 0x20 SWAP4 SWAP3 SWAP1 DUP4 SWAP1 SUB SWAP1 SWAP2 ADD SWAP1 DUP3 SWAP1 DUP8 DUP1 EXTCODESIZE ISZERO DUP1 ISZERO PUSH2 0x5E7 JUMPI PUSH1 0x0 DUP1 REVERT JUMPDEST POP GAS CALL ISZERO DUP1 ISZERO PUSH2 0x5FB JUMPI RETURNDATASIZE PUSH1 0x0 DUP1 RETURNDATACOPY RETURNDATASIZE PUSH1 0x0 REVERT JUMPDEST POP POP POP POP PUSH1 0x40 MLOAD RETURNDATASIZE PUSH1 0x20 DUP2 LT ISZERO PUSH2 0x611 JUMPI PUSH1 0x0 DUP1 REVERT JUMPDEST POP POP POP POP JUMP JUMPDEST PUSH20 0x9560E827AF36C94D2AC33A39BCE1FE78631088DB DUP2 JUMP JUMPDEST PUSH1 0x0 SLOAD PUSH1 0x1 PUSH1 0x1 PUSH1 0xA0 SHL SUB AND CALLER EQ PUSH2 0x687 JUMPI PUSH1 0x40 DUP1 MLOAD PUSH3 0x461BCD PUSH1 0xE5 SHL DUP2 MSTORE PUSH1 0x20 PUSH1 0x4 DUP3 ADD MSTORE PUSH1 0x16 PUSH1 0x24 DUP3 ADD MSTORE PUSH22 0x4F6E6C79206F776E65722063616E20646F2074686973 PUSH1 0x50 SHL PUSH1 0x44 DUP3 ADD MSTORE SWAP1 MLOAD SWAP1 DUP2 SWAP1 SUB PUSH1 0x64 ADD SWAP1 REVERT JUMPDEST PUSH1 0x0 DUP1 SLOAD PUSH1 0x1 PUSH1 0x1 PUSH1 0xA0 SHL SUB NOT AND PUSH1 0x1 PUSH1 0x1 PUSH1 0xA0 SHL SUB SWAP3 SWAP1 SWAP3 AND SWAP2 SWAP1 SWAP2 OR SWAP1 SSTORE JUMP JUMPDEST PUSH1 0x0 SLOAD PUSH1 0x1 PUSH1 0x1 PUSH1 0xA0 SHL SUB AND DUP2 JUMP JUMPDEST CALLER PUSH20 0x7CFC2DA3BA598EF4DE692905FEDCA32565AB836E EQ PUSH2 0x720 JUMPI PUSH1 0x40 DUP1 MLOAD PUSH3 0x461BCD PUSH1 0xE5 SHL DUP2 MSTORE PUSH1 0x20 PUSH1 0x4 DUP3 ADD MSTORE PUSH1 0x17 PUSH1 0x24 DUP3 ADD MSTORE PUSH32 0x43616C6C6261636B206F6E6C792066726F6D20706F6F6C000000000000000000 PUSH1 0x44 DUP3 ADD MSTORE SWAP1 MLOAD SWAP1 DUP2 SWAP1 SUB PUSH1 0x64 ADD SWAP1 REVERT JUMPDEST PUSH1 0x0 DUP5 SGT ISZERO PUSH2 0x7C4 JUMPI PUSH1 0x40 DUP1 MLOAD PUSH4 0xA9059CBB PUSH1 0xE0 SHL DUP2 MSTORE PUSH20 0x7CFC2DA3BA598EF4DE692905FEDCA32565AB836E PUSH1 0x4 DUP3 ADD MSTORE PUSH1 0x24 DUP2 ADD DUP7 SWAP1 MSTORE SWAP1 MLOAD PUSH20 0xB2C639C533813F4AA9D7837CAF62653D097FF85 SWAP2 PUSH4 0xA9059CBB SWAP2 PUSH1 0x44 DUP1 DUP4 ADD SWAP3 PUSH1 0x20 SWAP3 SWAP2 SWAP1 DUP3 SWAP1 SUB ADD DUP2 PUSH1 0x0 DUP8 DUP1 EXTCODESIZE ISZERO DUP1 ISZERO PUSH2 0x797 JUMPI PUSH1 0x0 DUP1 REVERT JUMPDEST POP GAS CALL ISZERO DUP1 ISZERO PUSH2 0x7AB JUMPI RETURNDATASIZE PUSH1 0x0 DUP1 RETURNDATACOPY RETURNDATASIZE PUSH1 0x0 REVERT JUMPDEST POP POP POP POP PUSH1 0x40 MLOAD RETURNDATASIZE PUSH1 0x20 DUP2 LT ISZERO PUSH2 0x7C1 JUMPI PUSH1 0x0 DUP1 REVERT JUMPDEST POP POP JUMPDEST PUSH1 0x0 DUP4 SGT ISZERO PUSH2 0x611 JUMPI PUSH1 0x40 DUP1 MLOAD PUSH4 0xA9059CBB PUSH1 0xE0 SHL DUP2 MSTORE PUSH20 0x7CFC2DA3BA598EF4DE692905FEDCA32565AB836E PUSH1 0x4 DUP3 ADD MSTORE PUSH1 0x24 DUP2 ADD DUP6 SWAP1 MSTORE SWAP1 MLOAD PUSH20 0x9560E827AF36C94D2AC33A39BCE1FE78631088DB SWAP2 PUSH4 0xA9059CBB SWAP2 PUSH1 0x44 DUP1 DUP4 ADD SWAP3 PUSH1 0x20 SWAP3 SWAP2 SWAP1 DUP3 SWAP1 SUB ADD DUP2 PUSH1 0x0 DUP8 DUP1 EXTCODESIZE ISZERO DUP1 ISZERO PUSH2 0x83B JUMPI PUSH1 0x0 DUP1 REVERT JUMPDEST POP GAS CALL ISZERO DUP1 ISZERO PUSH2 0x84F JUMPI RETURNDATASIZE PUSH1 0x0 DUP1 RETURNDATACOPY RETURNDATASIZE PUSH1 0x0 REVERT JUMPDEST POP POP POP POP PUSH1 0x40 MLOAD RETURNDATASIZE PUSH1 0x20 DUP2 LT ISZERO PUSH2 0x4F1 JUMPI PUSH1 0x0 DUP1 REVERT INVALID LOG2 PUSH5 0x6970667358 0x22 SLT KECCAK256 PUSH17 0xBD01BD10B4F7204AFDBB0B3E3E3E62E2C1 GASPRICE SWAP10 SMOD 0x22 LOG1 0xCE 0x25 0xB8 CODECOPY MULMOD DUP9 CALLCODE PUSH6 0x1F64736F6C63 NUMBER STOP SMOD MOD STOP CALLER "
				},
				"gasEstimates": {
					"creation": {
						"codeDepositCost": "440600",
						"executionCost": "21309",
						"totalCost": "461909"
					},
					"external": {
						"USDC()": "264",
						"VELO()": "219",
						"_newAdmin(address)": "21935",
						"admin()": "1081",
						"pool()": "220",
						"swapUSDCforVELO()": "infinite",
						"transferToAdmin(address)": "infinite",
						"uniswapV3SwapCallback(int256,int256,bytes)": "infinite"
					}
				},
				"methodIdentifiers": {
					"USDC()": "89a30271",
					"VELO()": "a0eeb39a",
					"_newAdmin(address)": "e6f4d0aa",
					"admin()": "f851a440",
					"pool()": "16f0115b",
					"swapUSDCforVELO()": "19232c16",
					"transferToAdmin(address)": "8cbc5cff",
					"uniswapV3SwapCallback(int256,int256,bytes)": "fa461e33"
				}
			},
			"storageLayout": {
				"storage": [
					{
						"astId": 640,
						"contract": "velo/slipstream-main/contracts/core/VeloBot.sol:DirectPoolSwap",
						"label": "admin",
						"offset": 0,
						"slot": "0",
						"type": "t_address"
					}
				],
				"types": {
					"t_address": {
						"encoding": "inplace",
						"label": "address",
						"numberOfBytes": "20"
					}
				}
			},
			"userdoc": {
				"kind": "user",
				"methods": {},
				"version": 1
			}
		}
	}
}