{
	"data": {
		"bytecode": {
			"linkReferences": {},
			"object": "608060405234801561001057600080fd5b50615f0080620000216000396000f3fe608060405234801561001057600080fd5b50600436106102695760003560e01c806357806ada11610151578063b64cc67b116100c3578063d0c93a7c11610087578063d0c93a7c14610a66578063d21220a714610a85578063ddca3f4314610a8d578063ebe2b12b14610a95578063f305839914610a9d578063f30dba9314610aa557610269565b8063b64cc67b14610a0d578063c45a015514610a2d578063c879657214610a35578063cab64bcd14610a3d578063d0b06f5d14610a4557610269565b8063883bdbfd11610115578063883bdbfd14610830578063a16368c914610937578063a34123a714610968578063a38807f2146109a2578063a6f19c84146109fd578063b056b49a14610a0557610269565b806357806ada146107a657806360a73f9b146107ae5780636f89244c146107d757806370cf754a146108205780637b0a47ee1461082857610269565b80633850c7bd116101ea57806347ccca02116101ae57806347ccca021461060e578063490e6cbc146106165780634ed6210f146106a05780634f1eb3d8146106dc578063514ea4bf1461072d5780635339c2961461078657610269565b80633850c7bd146104f45780633ab04b20146105445780633bf0c9fb1461054c5780633c8a7d8d1461055457806346141319146105f457610269565b80632071d884116102315780632071d8841461039b578063252c09d7146103ea578063293833ba14610441578063313383741461047857806332148f67146104d357610269565b80630dfe16811461026e578063128acb08146102925780631a6865021461033f5780631b410960146103635780631f7c35681461036d575b600080fd5b610276610b37565b604080516001600160a01b039092168252519081900360200190f35b610326600480360360a08110156102a857600080fd5b6001600160a01b0382358116926020810135151592604082013592606083013516919081019060a081016080820135600160201b8111156102e857600080fd5b8201836020820111156102fa57600080fd5b803590602001918460018302840111600160201b8311171561031b57600080fd5b509092509050610b46565b6040805192835260208301919091528051918290030190f35b6103476116fd565b604080516001600160801b039092168252519081900360200190f35b61036b61170c565b005b61036b6004803603604081101561038357600080fd5b506001600160a01b03813581169160200135166117be565b61036b600480360360c08110156103b157600080fd5b506001600160a01b03813581169160208101358216916040820135811691606081013560020b91608082013581169160a001351661192c565b6104076004803603602081101561040057600080fd5b5035611b11565b6040805163ffffffff909516855260069390930b60208501526001600160a01b039091168383015215156060830152519081900360800190f35b610449611b56565b60405180836001600160801b03168152602001826001600160801b031681526020019250505060405180910390f35b610449600480360360c081101561048e57600080fd5b506001600160a01b0381358116916020810135600290810b92604083013590910b916001600160801b03606082013581169260808301359091169160a0013516611b70565b61036b600480360360208110156104e957600080fd5b503561ffff16611c3e565b6104fc611d2f565b604080516001600160a01b03909716875260029590950b602087015261ffff9384168686015291831660608601529091166080840152151560a0830152519081900360c00190f35b610347611d76565b610276611d85565b610326600480360360a081101561056a57600080fd5b6001600160a01b03823516916020810135600290810b92604083013590910b916001600160801b036060820135169181019060a081016080820135600160201b8111156105b657600080fd5b8201836020820111156105c857600080fd5b803590602001918460018302840111600160201b831117156105e957600080fd5b509092509050611d94565b6105fc612052565b60408051918252519081900360200190f35b610276612058565b61036b6004803603608081101561062c57600080fd5b6001600160a01b038235169160208101359160408201359190810190608081016060820135600160201b81111561066257600080fd5b82018360208201111561067457600080fd5b803590602001918460018302840111600160201b8311171561069557600080fd5b509092509050612067565b61036b600480360360808110156106b657600080fd5b508035600f0b906020810135600290810b91604081013590910b90606001351515612415565b610449600480360360a08110156106f257600080fd5b506001600160a01b03813516906020810135600290810b91604081013590910b906001600160801b0360608201358116916080013516612631565b61074a6004803603602081101561074357600080fd5b50356126b6565b604080516001600160801b0396871681526020810195909552848101939093529084166060840152909216608082015290519081900360a00190f35b6105fc6004803603602081101561079c57600080fd5b503560010b6126f3565b6105fc612705565b61036b600480360360608110156107c457600080fd5b508035906020810135906040013561270b565b610326600480360360808110156107ed57600080fd5b508035600290810b91602081013590910b9060408101356001600160801b031690606001356001600160a01b03166127c6565b610347612890565b6105fc6128a6565b61089e6004803603602081101561084657600080fd5b810190602081018135600160201b81111561086057600080fd5b82018360208201111561087257600080fd5b803590602001918460208302840111600160201b8311171561089357600080fd5b5090925090506128ac565b604051808060200180602001838103835285818151815260200191508051906020019060200280838360005b838110156108e25781810151838201526020016108ca565b50505050905001838103825284818151815260200191508051906020019060200280838360005b83811015610921578181015183820152602001610909565b5050505090500194505050505060405180910390f35b6105fc6004803603606081101561094d57600080fd5b508035600290810b91602081013590910b9060400135612934565b6103266004803603606081101561097e57600080fd5b508035600290810b91602081013590910b90604001356001600160801b0316612973565b6109cc600480360360408110156109b857600080fd5b508035600290810b9160200135900b6129f4565b6040805160069490940b84526001600160a01b03909216602084015263ffffffff1682820152519081900360600190f35b610276612bcc565b6105fc612bdb565b610a15612be1565b6040805162ffffff9092168252519081900360200190f35b610276612c5e565b610449612c6d565b6105fc612e0c565b610a4d612e12565b6040805163ffffffff9092168252519081900360200190f35b610a6e612e25565b6040805160029290920b8252519081900360200190f35b610276612e35565b610a15612e44565b6105fc612e90565b6105fc612e96565b610ac560048036036020811015610abb57600080fd5b503560020b612e9c565b604080516001600160801b03909b168b52600f998a0b60208c01529790980b898801526060890195909552608088019390935260a087019190915260060b60c08601526001600160a01b031660e085015263ffffffff1661010084015290151561012083015251908190036101400190f35b6001546001600160a01b031681565b60008085610b80576040805162461bcd60e51b8152602060048201526002602482015261415360f01b604482015290519081900360640190fd5b6040805160c0810182526006546001600160a01b0381168252600160a01b8104600290810b810b900b6020830152600160b81b810461ffff90811693830193909352600160c81b810483166060830152600160d81b81049092166080820152600160e81b90910460ff16151560a08201819052610c2a576040805162461bcd60e51b81526020600482015260036024820152624c4f4b60e81b604482015290519081900360640190fd5b87610c755780600001516001600160a01b0316866001600160a01b0316118015610c70575073fffd8963efd1fc6a506488495d951d5263988d266001600160a01b038716105b610ca7565b80600001516001600160a01b0316866001600160a01b0316108015610ca757506401000276a36001600160a01b038716115b610cde576040805162461bcd60e51b815260206004820152600360248201526214d41360ea1b604482015290519081900360640190fd5b6006805460ff60e81b191690556040805160c0810182526010546001600160801b039081168252600f541660208201526000918101610d1b612f16565b63ffffffff168152602001600060060b815260200160006001600160a01b031681526020016000151581525090506000808913905060006040518061014001604052808b81526020016000815260200185600001516001600160a01b03168152602001856020015160020b8152602001610d93612e44565b62ffffff168152600060208201526040018c610db157600854610db5565b6007545b815260200160006001600160801b0316815260200184600001516001600160801b0316815260200184602001516001600160801b031681525090505b805115801590610e175750886001600160a01b031681604001516001600160a01b031614155b156111e457610e24615e50565b60408201516001600160a01b031681526060820151600f54610e5391601291600160a01b900460020b8f612f1a565b15156040830152600290810b810b60208301819052620d89e719910b1215610e8457620d89e7196020820152610ea3565b6020810151620d89e860029190910b1315610ea357620d89e860208201525b610eb0816020015161305c565b6001600160a01b031660608201526040820151610f26908d610eea578b6001600160a01b031683606001516001600160a01b031611610f04565b8b6001600160a01b031683606001516001600160a01b0316105b610f12578260600151610f14565b8b5b6101008501518551608087015161338d565b60c085015260a084015260808301526001600160a01b031660408301528215610f8857610f5c8160c0015182608001510161357f565b825103825260a0810151610f7e90610f739061357f565b602084015190613595565b6020830152610fc3565b610f958160a0015161357f565b825101825260c08101516080820151610fbd91610fb2910161357f565b6020840151906135b1565b60208301525b6101008201516001600160801b03161561101757600080610ff38360c001518561010001518661012001516135c7565b60c0860180519290920190915260e0850180519091016001600160801b0316905250505b80606001516001600160a01b031682604001516001600160a01b031614156111a35780604001511561117a578360a001516110a15761107f846040015160008760200151886040015188600001518a606001516014613668909695949392919063ffffffff16565b6001600160a01b03166080860152600690810b900b6060850152600160a08501525b8160a001516110ba576110b26137fa565b600160a08301525b600061110a82602001518e6110d1576007546110d7565b8460c001515b8f6110e6578560c001516110ea565b6008545b608089015160608a015160408b01516009546011969594939291906138b7565b90508c156111325780516000908103600f90810b810b8352602083018051909203810b900b90525b61114583610100015182600001516139a2565b6001600160801b0316610100840152610120830151602082015161116991906139a2565b6001600160801b0316610120840152505b8b611189578060200151611192565b60018160200151035b600290810b900b60608301526111de565b80600001516001600160a01b031682604001516001600160a01b0316146111de576111d18260400151613a58565b600290810b900b60608301525b50610df1565b836020015160020b816060015160020b146112b25760008061123286604001518660400151886020015188600001518a606001518b608001516014613d73909695949392919063ffffffff16565b604085015160608601516006805461ffff60c81b1916600160c81b61ffff958616021761ffff60b81b1916600160b81b95909416949094029290921762ffffff60a01b1916600160a01b62ffffff60029490940b9390931692909202919091176001600160a01b0319166001600160a01b03909116179055506112d79050565b6040810151600680546001600160a01b0319166001600160a01b039092169190911790555b8061010001516001600160801b031683600001516001600160801b03161461131f57610100810151601080546001600160801b0319166001600160801b039092169190911790555b8061012001516001600160801b031683602001516001600160801b03161461136757610120810151600f80546001600160801b0319166001600160801b039092169190911790555b8a156113b75760c081015160075560e08101516001600160801b0316156113b25760e0810151600a80546001600160801b031981166001600160801b03918216909301169190911790555b6113fd565b60c081015160085560e08101516001600160801b0316156113fd5760e0810151600a80546001600160801b03808216600160801b92839004821690940116029190911790555b8115158b15151461141657602081015181518b03611423565b80600001518a0381602001515b90965094508a1561154957600085121561145257600254611452906001600160a01b03168d6000889003613f0e565b600061145c61405c565b9050336001600160a01b031663fa461e3388888c8c6040518563ffffffff1660e01b815260040180858152602001848152602001806020018281038252848482818152602001925080828437600081840152601f19601f82011690508083019250505095505050505050600060405180830381600087803b1580156114e057600080fd5b505af11580156114f4573d6000803e3d6000fd5b5050505061150061405c565b61150a8289614177565b1115611543576040805162461bcd60e51b815260206004820152600360248201526249494160e81b604482015290519081900360640190fd5b50611660565b600086121561156d5760015461156d906001600160a01b03168d6000899003613f0e565b6000611577614187565b9050336001600160a01b031663fa461e3388888c8c6040518563ffffffff1660e01b815260040180858152602001848152602001806020018281038252848482818152602001925080828437600081840152601f19601f82011690508083019250505095505050505050600060405180830381600087803b1580156115fb57600080fd5b505af115801561160f573d6000803e3d6000fd5b5050505061161b614187565b6116258288614177565b111561165e576040805162461bcd60e51b815260206004820152600360248201526249494160e81b604482015290519081900360640190fd5b505b60408082015161010083015160608085015184518b8152602081018b90526001600160a01b03948516818701526001600160801b039093169183019190915260020b60808201529151908e169133917fc42079f94a6350d7e6235f29174924f928cc2ac818eb64fed8004e115fbcca679181900360a00190a350506006805460ff60e81b1916600160e81b17905550919890975095505050505050565b6010546001600160801b031681565b600654600160e81b900460ff16611750576040805162461bcd60e51b81526020600482015260036024820152624c4f4b60e81b604482015290519081900360640190fd5b6006805460ff60e81b191690556003546001600160a01b031633146117a1576040805162461bcd60e51b81526020600482015260026024820152614e4760f01b604482015290519081900360640190fd5b6117a96137fa565b6006805460ff60e81b1916600160e81b179055565b600654600160e81b900460ff16611802576040805162461bcd60e51b81526020600482015260036024820152624c4f4b60e81b604482015290519081900360640190fd5b6006805460ff60e81b191690556005546000805460408051631217afdb60e01b81526001600160a01b039283166004820152815193949290921692631217afdb92602480820193929182900301818787803b15801561186057600080fd5b505af1158015611874573d6000803e3d6000fd5b505050506040513d604081101561188a57600080fd5b50602001519050336001600160a01b038216146118d4576040805162461bcd60e51b81526020600482015260036024820152622723a360e91b604482015290519081900360640190fd5b6003546001600160a01b0316156118ea57600080fd5b50600380546001600160a01b039384166001600160a01b031991821617909155600480549290931691161790556006805460ff60e81b1916600160e81b179055565b6000546001600160a01b031615801561194d57506001600160a01b03861615155b61195657600080fd5b600080546001600160a01b038089166001600160a01b0319928316179092556001805488841690831617905560028054878416908316178155600f80549187900b62ffffff16600160a01b0262ffffff60a01b1990921691909117905560058054928516929091169190911790556119cd83614201565b601080546001600160801b03928316600160801b02921691909117905560006119f582613a58565b9050600080611a0d611a05612f16565b60149061426d565b6040805160c0810182526001600160a01b038816808252600288810b602080850182905260008587015261ffff8881166060870181905290881660808701819052600160a09097019690965260068054600160e81b6001600160a01b0319909116871762ffffff60a01b1916600160a01b62ffffff9787900b97909716969096029590951763ffffffff60b81b1916600160c81b9092029190911761ffff60d81b1916600160d81b9096029590951760ff60e81b191692909217909355835191825281019190915281519395509193507f98636036cb66a9c19a37435efc1e90142190214e8abeb821bdba3f2990dd4c9592918290030190a1505050505050505050565b60148161ffff8110611b2257600080fd5b015463ffffffff81169150600160201b810460060b90600160581b81046001600160a01b031690600160f81b900460ff1684565b600a546001600160801b0380821691600160801b90041682565b6006546000908190600160e81b900460ff16611bb9576040805162461bcd60e51b81526020600482015260036024820152624c4f4b60e81b604482015290519081900360640190fd5b6006805460ff60e81b191690556004546001600160a01b03163314611c0e576040805162461bcd60e51b815260206004808301919091526024820152631393919560e21b604482015290519081900360640190fd5b611c1c8888888888886142b9565b6006805460ff60e81b1916600160e81b17905590999098509650505050505050565b600654600160e81b900460ff16611c82576040805162461bcd60e51b81526020600482015260036024820152624c4f4b60e81b604482015290519081900360640190fd5b6006805460ff60e81b191690819055600160d81b900461ffff166000611caa6014838561444b565b6006805461ffff808416600160d81b810261ffff60d81b1990931692909217909255919250831614611d17576040805161ffff80851682528316602082015281517fac49e518f90a358f652e4400164f05a5d8f7e35e7747279bc3a93dbf584e125a929181900390910190a15b50506006805460ff60e81b1916600160e81b17905550565b6006546001600160a01b03811690600160a01b810460020b9061ffff600160b81b8204811691600160c81b8104821691600160d81b8204169060ff600160e81b9091041686565b600f546001600160801b031681565b6005546001600160a01b031681565b6006546000908190600160e81b900460ff16611ddd576040805162461bcd60e51b81526020600482015260036024820152624c4f4b60e81b604482015290519081900360640190fd5b6006805460ff60e81b191690556001600160801b038516611dfd57600080fd5b600080611e4b60405180608001604052808c6001600160a01b031681526020018b60020b81526020018a60020b8152602001611e418a6001600160801b03166144ee565b600f0b90526144ff565b92509250508193508092506000806000861115611e6d57611e6a61405c565b91505b8415611e7e57611e7b614187565b90505b336001600160a01b031663d348799787878b8b6040518563ffffffff1660e01b815260040180858152602001848152602001806020018281038252848482818152602001925080828437600081840152601f19601f82011690508083019250505095505050505050600060405180830381600087803b158015611f0057600080fd5b505af1158015611f14573d6000803e3d6000fd5b505050506000861115611f6b57611f2961405c565b611f338388614177565b1115611f6b576040805162461bcd60e51b815260206004820152600260248201526104d360f41b604482015290519081900360640190fd5b8415611fbb57611f79614187565b611f838287614177565b1115611fbb576040805162461bcd60e51b81526020600482015260026024820152614d3160f01b604482015290519081900360640190fd5b8960020b8b60020b8d6001600160a01b03167f7a53080ba414158be7ec69b987b5fb7d07dee101fe85488f0853ae16239d0bde338d8b8b60405180856001600160a01b03168152602001846001600160801b0316815260200183815260200182815260200194505050505060405180910390a450506006805460ff60e81b1916600160e81b17905550919890975095505050505050565b60085481565b6004546001600160a01b031681565b600654600160e81b900460ff166120ab576040805162461bcd60e51b81526020600482015260036024820152624c4f4b60e81b604482015290519081900360640190fd5b6006805460ff60e81b191690556010546001600160801b0316806120fa576040805162461bcd60e51b81526020600482015260016024820152601360fa1b604482015290519081900360640190fd5b600061211686612108612e44565b62ffffff16620f4240614728565b9050600061212686612108612e44565b9050600061213261405c565b9050600061213e614187565b9050881561215d5760015461215d906001600160a01b03168b8b613f0e565b871561217a5760025461217a906001600160a01b03168b8a613f0e565b336001600160a01b031663e9cbafb085858a8a6040518563ffffffff1660e01b815260040180858152602001848152602001806020018281038252848482818152602001925080828437600081840152601f19601f82011690508083019250505095505050505050600060405180830381600087803b1580156121fc57600080fd5b505af1158015612210573d6000803e3d6000fd5b50505050600061221e61405c565b9050600061222a614187565b9050816122378588614177565b111561226f576040805162461bcd60e51b8152602060048201526002602482015261046360f41b604482015290519081900360640190fd5b8061227a8487614177565b11156122b2576040805162461bcd60e51b8152602060048201526002602482015261463160f01b604482015290519081900360640190fd5b838203838203811561232457600f5460009081906122dc9085908d906001600160801b03166135c7565b909250905081156122f05760078054830190555b6001600160801b0381161561232157600a80546001600160801b038082168401166001600160801b03199091161790555b50505b801561238f57600f5460009081906123489084908d906001600160801b03166135c7565b9092509050811561235c5760088054830190555b6001600160801b0381161561238c57600a80546001600160801b03600160801b8083048216850182160291161790555b50505b8d6001600160a01b0316336001600160a01b03167fbdbdb71d7860376ba52b25a5028beea23581364a40522f6bcfb86bb1f2dca6338f8f86866040518085815260200184815260200183815260200182815260200194505050505060405180910390a350506006805460ff60e81b1916600160e81b179055505050505050505050505050565b600654600160e81b900460ff16612459576040805162461bcd60e51b81526020600482015260036024820152624c4f4b60e81b604482015290519081900360640190fd5b6006805460ff60e81b191690556003546001600160a01b031633146124aa576040805162461bcd60e51b81526020600482015260026024820152614e4760f01b604482015290519081900360640190fd5b600654600160a01b9004600290810b9084810b9082900b128015906124d457508260020b8160020b125b15612518576124e16137fa565b600f546124f7906001600160801b0316866139a2565b600f80546001600160801b0319166001600160801b03929092169190911790555b81156125ab5760045460009061253b906013906001600160a01b03168787614762565b60035490915060009061255b906013906001600160a01b03168888614762565b905060008061258088888760075460085460116147c69095949392919063ffffffff16565b90925090506125988460008b81039085908590614872565b6125a6838a84846001614872565b505050505b600284810b900b600090815260116020526040902060050154600160f81b900460ff16156125e1576125e1601185876000614a0d565b600283810b900b600090815260116020526040902060050154600160f81b900460ff161561261757612617601184876001614a0d565b50506006805460ff60e81b1916600160e81b179055505050565b6006546000908190600160e81b900460ff1661267a576040805162461bcd60e51b81526020600482015260036024820152624c4f4b60e81b604482015290519081900360640190fd5b6006805460ff60e81b191690556126958787878787336142b9565b6006805460ff60e81b1916600160e81b179055909890975095505050505050565b60136020526000908152604090208054600182015460028301546003909301546001600160801b0392831693919281811691600160801b90041685565b60126020526000908152604090205481565b60095481565b600654600160e81b900460ff1661274f576040805162461bcd60e51b81526020600482015260036024820152624c4f4b60e81b604482015290519081900360640190fd5b6006805460ff60e81b191690556003546001600160a01b031633146127a0576040805162461bcd60e51b81526020600482015260026024820152614e4760f01b604482015290519081900360640190fd5b600b92909255600c55600d556000600e556006805460ff60e81b1916600160e81b179055565b6006546000908190600160e81b900460ff1661280f576040805162461bcd60e51b81526020600482015260036024820152624c4f4b60e81b604482015290519081900360640190fd5b6006805460ff60e81b191690556004546001600160a01b03163314612864576040805162461bcd60e51b815260206004808301919091526024820152631393919560e21b604482015290519081900360640190fd5b61287086868686614a99565b6006805460ff60e81b1916600160e81b1790559097909650945050505050565b601054600160801b90046001600160801b031681565b600b5481565b6060806129296128ba612f16565b85858080602002602001604051908101604052809392919081815260200183836020028082843760009201919091525050600654601054601495949350600160a01b820460020b925061ffff600160b81b83048116926001600160801b0390921691600160c81b900416614bbd565b915091509250929050565b60006129408484614d17565b8161294b5760095491505b6006546129699060119086908690600160a01b900460020b86614de0565b90505b9392505050565b6006546000908190600160e81b900460ff166129bc576040805162461bcd60e51b81526020600482015260036024820152624c4f4b60e81b604482015290519081900360640190fd5b6006805460ff60e81b191690556129d585858533614a99565b6006805460ff60e81b1916600160e81b17905590969095509350505050565b6000806000612a038585614d17565b600285810b810b60009081526011602052604080822087840b90930b825281206005830154600681900b93600160381b82046001600160a01b0316928492600160d81b810463ffffffff169284929091600160f81b900460ff1680612a6757600080fd5b6005820154600681900b9850600160381b81046001600160a01b03169650600160d81b810463ffffffff169450600160f81b900460ff1680612aa857600080fd5b50506040805160c0810182526006546001600160a01b0381168252600160a01b8104600290810b810b810b60208401819052600160b81b830461ffff90811695850195909552600160c81b830485166060850152600160d81b83049094166080840152600160e81b90910460ff16151560a08301529093508e810b91900b12159050612b4257509390940396509003935090039050612bc5565b8a60020b816020015160020b1215612bb6576000612b5e612f16565b6020830151604084015160105460608601519394506000938493612b94936014938893879392916001600160801b031690613668565b9a9003989098039b505094909603929092039650909103039250612bc5915050565b50949093039650039350900390505b9250925092565b6003546001600160a01b031681565b600e5481565b60008054604080516348cf7a4360e01b815230600482015290516001600160a01b03909216916348cf7a4391602480820192602092909190829003018186803b158015612c2d57600080fd5b505afa158015612c41573d6000803e3d6000fd5b505050506040513d6020811015612c5757600080fd5b5051905090565b6000546001600160a01b031681565b6006546000908190600160e81b900460ff16612cb6576040805162461bcd60e51b81526020600482015260036024820152624c4f4b60e81b604482015290519081900360640190fd5b6006805460ff60e81b191690556003546001600160a01b03163314612d07576040805162461bcd60e51b81526020600482015260026024820152614e4760f01b604482015290519081900360640190fd5b5050600a546001600160801b0380821691600160801b9004166001821115612d6457600a80546001600160801b03191660019081179091555460001990920191612d64906001600160a01b0316336001600160801b038516613f0e565b6001816001600160801b03161115612db157600a80546001600160801b03908116600160801b1790915560025460001990920191612db1916001600160a01b039091169033908416613f0e565b604080516001600160801b03808516825283166020820152815133927f205860e66845f2bbc0966bfab80db9bf93fca93862ea2b9fcf6945748352b4a3928290030190a26006805460ff60e81b1916600160e81b1790559091565b600c5481565b600f54600160801b900463ffffffff1681565b600f54600160a01b900460020b81565b6002546001600160a01b031681565b6000805460408051630d51637360e21b815230600482015290516001600160a01b03909216916335458dcc91602480820192602092909190829003018186803b158015612c2d57600080fd5b600d5481565b60075481565b6011602052600090815260409020805460018201546002830154600384015460048501546005909501546001600160801b03851695600160801b909504600f90810b9594900b9390600681900b90600160381b81046001600160a01b031690600160d81b810463ffffffff1690600160f81b900460ff168a565b4290565b60008060008460020b8660020b81612f2e57fe5b05905060008660020b128015612f5557508460020b8660020b81612f4e57fe5b0760020b15155b15612f5f57600019015b8315612fd457600080612f7183614e58565b600182810b810b600090815260208d9052604090205460ff83169190911b80016000190190811680151597509294509092509085612fb657888360ff16860302612fc9565b88612fc082614e6a565b840360ff168603025b965050505050613052565b600080612fe383600101614e58565b91509150600060018260ff166001901b031990506000818b60008660010b60010b815260200190815260200160002054169050806000141595508561303557888360ff0360ff1686600101010261304b565b888361304083614f09565b0360ff168660010101025b9650505050505b5094509492505050565b60008060008360020b12613073578260020b61307b565b8260020b6000035b9050620d89e88111156130b9576040805162461bcd60e51b81526020600482015260016024820152601560fa1b604482015290519081900360640190fd5b6000600182166130cd57600160801b6130df565b6ffffcb933bd6fad37aa2d162d1a5940015b70ffffffffffffffffffffffffffffffffff1690506002821615613113576ffff97272373d413259a46990580e213a0260801c5b6004821615613132576ffff2e50f5f656932ef12357cf3c7fdcc0260801c5b6008821615613151576fffe5caca7e10e4e61c3624eaa0941cd00260801c5b6010821615613170576fffcb9843d60f6159c9db58835c9266440260801c5b602082161561318f576fff973b41fa98c081472e6896dfb254c00260801c5b60408216156131ae576fff2ea16466c96a3843ec78b326b528610260801c5b60808216156131cd576ffe5dee046a99a2a811c461f1969c30530260801c5b6101008216156131ed576ffcbe86c7900a88aedcffc83b479aa3a40260801c5b61020082161561320d576ff987a7253ac413176f2b074cf7815e540260801c5b61040082161561322d576ff3392b0822b70005940c7a398e4b70f30260801c5b61080082161561324d576fe7159475a2c29b7443b29c7fa6e889d90260801c5b61100082161561326d576fd097f3bdfd2022b8845ad8f792aa58250260801c5b61200082161561328d576fa9f746462d870fdf8a65dc1f90e061e50260801c5b6140008216156132ad576f70d869a156d2a1b890bb3df62baf32f70260801c5b6180008216156132cd576f31be135f97d08fd981231505542fcfa60260801c5b620100008216156132ee576f09aa508b5b7a84e1c677de54f3e99bc90260801c5b6202000082161561330e576e5d6af8dedb81196699c329225ee6040260801c5b6204000082161561332d576d2216e584f5fa1ea926041bedfe980260801c5b6208000082161561334a576b048a170391f7dc42444e8fa20260801c5b60008460020b131561336557806000198161336157fe5b0490505b600160201b81061561337857600161337b565b60005b60ff16602082901c0192505050919050565b60008080806001600160a01b03808916908a1610158187128015906134125760006133c68989620f42400362ffffff16620f4240614ff3565b9050826133df576133da8c8c8c60016150a2565b6133ec565b6133ec8b8d8c600161511d565b95508581106133fd578a965061340c565b6134098c8b83866151c8565b96505b5061345c565b81613429576134248b8b8b600061511d565b613436565b6134368a8c8b60006150a2565b935083886000031061344a5789955061345c565b6134598b8a8a60000385615214565b95505b6001600160a01b038a81169087161482156134bf5780801561347b5750815b6134915761348c878d8c600161511d565b613493565b855b95508080156134a0575081155b6134b6576134b1878d8c60006150a2565b6134b8565b845b9450613509565b8080156134c95750815b6134df576134da8c888c60016150a2565b6134e1565b855b95508080156134ee575081155b613504576134ff8c888c600061511d565b613506565b845b94505b8115801561351957508860000385115b15613525578860000394505b81801561354457508a6001600160a01b0316876001600160a01b031614155b15613553578589039350613570565b61356d868962ffffff168a620f42400362ffffff16614728565b93505b50505095509550955095915050565b6000600160ff1b821061359157600080fd5b5090565b808203828113156000831215146135ab57600080fd5b92915050565b818101828112156000831215146135ab57600080fd5b600080826001600160801b0316846001600160801b031614156135eb575083613660565b6001600160801b03831661362e57600080613607876000615260565b9150915061362382600160801b886001600160801b0316614ff3565b935091506136609050565b60008061363c878787615280565b9150915061365a82600160801b8789036001600160801b0316614ff3565b93509150505b935093915050565b60008063ffffffff871661370e576000898661ffff1661ffff811061368957fe5b60408051608081018252919092015463ffffffff808216808452600160201b8304600690810b810b900b6020850152600160581b83046001600160a01b031694840194909452600160f81b90910460ff16151560608301529092508a16146136fa576136f7818a89886152ba565b90505b8060200151816040015192509250506137ee565b8688036000806137238c8c858c8c8c8c61535d565b91509150816000015163ffffffff168363ffffffff1614156137555781602001518260400151945094505050506137ee565b805163ffffffff8481169116141561377d5780602001518160400151945094505050506137ee565b8151815160208085015190840151918390039286039163ffffffff80841692908516910360060b816137ab57fe5b05028460200151018263ffffffff168263ffffffff1686604001518660400151036001600160a01b031602816137dd57fe5b048560400151019650965050505050505b97509795505050505050565b6000613804612f16565b600f5490915063ffffffff600160801b909104811690821681900380156138b257600c541561389357600b54600c54908202908111156138435750600c545b600c80548290039055600f546001600160801b03161561388857600f5461387a908290600160801b906001600160801b0316614ff3565b600980549091019055613891565b600e8054820190555b505b600f805463ffffffff60801b1916600160801b63ffffffff8616021790555b505050565b6138bf615e8c565b600297880b880b60009081526020998a5260409020978801805490970390965560038701805490950390945560048601805490940390935560058501805463ffffffff600160d81b6001600160a01b03600160381b808504821690970316909502600160381b600160d81b031990921691909117600681810b90940390930b66ffffffffffffff1666ffffffffffffff1990931692909217838104831690940390911690910263ffffffff60d81b199092169190911790558154600160801b9004600f90810b810b810b8252600190920154820b820b90910b9181019190915290565b60008082600f0b1215613a0757826001600160801b03168260000384039150816001600160801b031610613a02576040805162461bcd60e51b81526020600482015260026024820152614c5360f01b604482015290519081900360640190fd5b6135ab565b826001600160801b03168284019150816001600160801b031610156135ab576040805162461bcd60e51b81526020600482015260026024820152614c4160f01b604482015290519081900360640190fd5b60006401000276a36001600160a01b03831610801590613a94575073fffd8963efd1fc6a506488495d951d5263988d266001600160a01b038316105b613ac9576040805162461bcd60e51b81526020600482015260016024820152602960f91b604482015290519081900360640190fd5b640100000000600160c01b03602083901b166001600160801b03811160071b81811c67ffffffffffffffff811160061b90811c63ffffffff811160051b90811c61ffff811160041b90811c60ff8111600390811b91821c600f811160021b90811c918211600190811b92831c97908811961790941790921717909117171760808110613b5d57607f810383901c9150613b67565b80607f0383901b91505b908002607f81811c60ff83811c9190911c800280831c81831c1c800280841c81841c1c800280851c81851c1c800280861c81861c1c800280871c81871c1c800280881c81881c1c800280891c81891c1c8002808a1c818a1c1c8002808b1c818b1c1c8002808c1c818c1c1c8002808d1c818d1c1c8002808e1c9c81901c9c909c1c80029c8d901c9e9d607f198f0160401b60c09190911c678000000000000000161760c19b909b1c674000000000000000169a909a1760c29990991c672000000000000000169890981760c39790971c671000000000000000169690961760c49590951c670800000000000000169490941760c59390931c670400000000000000169290921760c69190911c670200000000000000161760c79190911c600160381b161760c89190911c6680000000000000161760c99190911c6640000000000000161760ca9190911c6620000000000000161760cb9190911c6610000000000000161760cc9190911c6608000000000000161760cd9190911c66040000000000001617693627a301d71055774c8581026f028f6481ab7f045a5af012a19d003aa9198101608090811d906fdb2df09e81959a81455e260799a0632f8301901d600281810b9083900b14613d6457886001600160a01b0316613d488261305c565b6001600160a01b03161115613d5d5781613d5f565b805b613d66565b815b9998505050505050505050565b6000806000898961ffff1661ffff8110613d8957fe5b60408051608081018252919092015463ffffffff808216808452600160201b8304600690810b810b900b6020850152600160581b83046001600160a01b031694840194909452600160f81b90910460ff161515606083015290925089161415613df857888592509250506137ee565b8461ffff168461ffff16118015613e1957506001850361ffff168961ffff16145b15613e2657839150613e2a565b8491505b8161ffff168960010161ffff1681613e3e57fe5b069250613e4d818989896152ba565b8a8461ffff1661ffff8110613e5e57fe5b825191018054602084015160408501516060909501511515600160f81b026001600160f81b036001600160a01b03909616600160581b027fff0000000000000000000000000000000000000000ffffffffffffffffffffff60069390930b66ffffffffffffff16600160201b026affffffffffffff000000001963ffffffff90971663ffffffff199095169490941795909516929092171692909217929092161790555097509795505050505050565b604080516001600160a01b038481166024830152604480830185905283518084039091018152606490920183526020820180516001600160e01b031663a9059cbb60e01b1781529251825160009485949389169392918291908083835b60208310613f8a5780518252601f199092019160209182019101613f6b565b6001836020036101000a0380198251168184511680821785525050505050509050019150506000604051808303816000865af19150503d8060008114613fec576040519150601f19603f3d011682016040523d82523d6000602084013e613ff1565b606091505b509150915081801561401f57508051158061401f575080806020019051602081101561401c57600080fd5b50515b614055576040805162461bcd60e51b81526020600482015260026024820152612a2360f11b604482015290519081900360640190fd5b5050505050565b600154604080513060248083019190915282518083039091018152604490910182526020810180516001600160e01b03166370a0823160e01b17815291518151600094859485946001600160a01b039092169391928291908083835b602083106140d75780518252601f1990920191602091820191016140b8565b6001836020036101000a038019825116818451168082178552505050505050905001915050600060405180830381855afa9150503d8060008114614137576040519150601f19603f3d011682016040523d82523d6000602084013e61413c565b606091505b509150915081801561415057506020815110155b61415957600080fd5b80806020019051602081101561416e57600080fd5b50519250505090565b808201828110156135ab57600080fd5b600254604080513060248083019190915282518083039091018152604490910182526020810180516001600160e01b03166370a0823160e01b17815291518151600094859485946001600160a01b03909216939192829190808383602083106140d75780518252601f1990920191602091820191016140b8565b60008082600281900b620d89e7198161421657fe5b05029050600083600281900b620d89e88161422d57fe5b0502905060008460020b83830360020b8161424457fe5b0560010190508062ffffff166001600160801b0380168161426157fe5b0493505050505b919050565b6040805160808101825263ffffffff9283168082526000602083018190529282019290925260016060909101819052835463ffffffff1916909117909116600160f81b17909155908190565b600080806142ca6013858a8a614762565b60038101549091506001600160801b03908116908716116142eb57856142fa565b60038101546001600160801b03165b60038201549093506001600160801b03600160801b9091048116908616116143225784614338565b6003810154600160801b90046001600160801b03165b91506001600160801b0383161561438a576003810180546001600160801b031981166001600160801b0391821686900382161790915560015461438a916001600160a01b03909116908b908616613f0e565b6001600160801b038216156143dd576003810180546001600160801b03600160801b8083048216869003821602918116919091179091556002546143dd916001600160a01b03909116908b908516613f0e565b604080516001600160a01b038b811682526001600160801b038087166020840152851682840152915160028a810b93908c900b92908816917f70935338e69775456a85ddef226c395fb668b63fa0115f5f20610b388e6ca9c09181900360600190a450965096945050505050565b6000808361ffff1611614489576040805162461bcd60e51b81526020600482015260016024820152604960f81b604482015290519081900360640190fd5b8261ffff168261ffff161161449f57508161296c565b825b8261ffff168161ffff1610156144e5576001858261ffff1661ffff81106144c457fe5b01805463ffffffff191663ffffffff929092169190911790556001016144a1565b50909392505050565b80600f81900b811461426857600080fd5b600080600061451684602001518560400151614d17565b6040805160c0810182526006546001600160a01b0381168252600160a01b8104600290810b810b900b6020808401829052600160b81b830461ffff90811685870152600160c81b84048116606080870191909152600160d81b85049091166080860152600160e81b90930460ff16151560a0850152885190890151948901519289015193946145ab9491939092909190615557565b93508460600151600f0b60001461472057846020015160020b816020015160020b1215614600576145f96145e2866020015161305c565b6145ef876040015161305c565b876060015161571a565b9250614720565b846040015160020b816020015160020b12156146f65760105460408201516001600160801b039091169061465290614636612f16565b6020850151606086015160808701516014949392918791613d73565b6006805461ffff60c81b1916600160c81b61ffff938416021761ffff60b81b1916600160b81b9390921692909202179055815160408701516146a291906146989061305c565b886060015161571a565b93506146c06146b4876020015161305c565b8351606089015161575e565b92506146d08187606001516139a2565b601080546001600160801b0319166001600160801b039290921691909117905550614720565b61471d614706866020015161305c565b614713876040015161305c565b876060015161575e565b91505b509193909250565b6000614735848484614ff3565b90506000828061474157fe5b848609111561296c57600019811061475857600080fd5b6001019392505050565b6040805160609490941b6bffffffffffffffffffffffff1916602080860191909152600293840b60e890811b60348701529290930b90911b60378401528051808403601a018152603a90930181528251928201929092206000908152929052902090565b600285810b80820b60009081526020899052604080822088850b850b83529082209193849391929184918291908a900b1261480c5750506002820154600383015461481f565b8360020154880391508360030154870390505b6000808b60020b8b60020b121561484157505060028301546003840154614854565b84600201548a0391508460030154890390505b92909803979097039b96909503949094039850939650505050505050565b6040805160a08101825286546001600160801b0390811682526001880154602083015260028801549282019290925260038701548083166060830152600160801b900490911660808201526000600f86900b6149115781516001600160801b0316614909576040805162461bcd60e51b815260206004820152600260248201526104e560f41b604482015290519081900360640190fd5b508051614920565b815161491d90876139a2565b90505b600080846149715761494a8460200151880385600001516001600160801b0316600160801b614ff3565b915061496e8460400151870385600001516001600160801b0316600160801b614ff3565b90505b87600f0b6000146149965788546001600160801b0319166001600160801b0384161789555b60018901879055600289018690556001600160801b0382161515806149c457506000816001600160801b0316115b15614a02576003890180546001600160801b031981166001600160801b039182168501821617808216600160801b9182900483168501909216021790555b505050505050505050565b600283810b900b600090815260208590526040902081614a4e576001810154614a4990614a4490600f90810b810b9086900b6135b1565b6144ee565b614a6b565b6001810154614a6b90614a4490600f90810b810b9086900b613595565b60019091018054600f9290920b6001600160801b03166001600160801b031990921691909117905550505050565b6000806000806000614aef6040518060800160405280886001600160a01b031681526020018b60020b81526020018a60020b8152602001614ae28a6001600160801b03166144ee565b600003600f0b90526144ff565b9250925092508160000394508060000393506000851180614b105750600084115b15614b4f576003830180546001600160801b038082168089018216600160801b93849004831689019092169092029091176001600160801b0319161790555b8760020b8960020b876001600160a01b03167f0c396cd989a39f4459b5fa1aed6a9a8dcdbc45908acfd67e028cd568da98982c8a898960405180846001600160801b03168152602001838152602001828152602001935050505060405180910390a450505094509492505050565b60608060008361ffff1611614bfd576040805162461bcd60e51b81526020600482015260016024820152604960f81b604482015290519081900360640190fd5b865167ffffffffffffffff81118015614c1557600080fd5b50604051908082528060200260200182016040528015614c3f578160200160208202803683370190505b509150865167ffffffffffffffff81118015614c5a57600080fd5b50604051908082528060200260200182016040528015614c84578160200160208202803683370190505b50905060005b8751811015614d0a57614cb58a8a8a8481518110614ca457fe5b60200260200101518a8a8a8a613668565b848381518110614cc157fe5b60200260200101848481518110614cd457fe5b60200260200101826001600160a01b03166001600160a01b03168152508260060b60060b81525050508080600101915050614c8a565b5097509795505050505050565b8060020b8260020b12614d57576040805162461bcd60e51b8152602060048201526003602482015262544c5560e81b604482015290519081900360640190fd5b620d89e719600283900b1215614d9a576040805162461bcd60e51b8152602060048201526003602482015262544c4d60e81b604482015290519081900360640190fd5b620d89e8600282900b1315614ddc576040805162461bcd60e51b815260206004820152600360248201526254554d60e81b604482015290519081900360640190fd5b5050565b600284810b80820b60009081526020889052604080822087850b850b835290822091939092849187900b12614e1a57506004820154614e23565b50600482015484035b60008760020b8760020b1215614e3e57506004820154614e47565b50600482015485035b940393909303979650505050505050565b60020b600881901d9161010090910790565b6000808211614e7857600080fd5b600160801b8210614e8b57608091821c91015b680100000000000000008210614ea357604091821c91015b600160201b8210614eb657602091821c91015b620100008210614ec857601091821c91015b6101008210614ed957600891821c91015b60108210614ee957600491821c91015b60048210614ef957600291821c91015b6002821061426857600101919050565b6000808211614f1757600080fd5b5060ff6001600160801b03821615614f3257607f1901614f3a565b608082901c91505b67ffffffffffffffff821615614f5357603f1901614f5b565b604082901c91505b63ffffffff821615614f7057601f1901614f78565b602082901c91505b61ffff821615614f8b57600f1901614f93565b601082901c91505b60ff821615614fa55760071901614fad565b600882901c91505b600f821615614fbf5760031901614fc7565b600482901c91505b6003821615614fd95760011901614fe1565b600282901c91505b60018216156142685760001901919050565b6000808060001985870986860292508281109083900303905080615029576000841161501e57600080fd5b50829004905061296c565b80841161503557600080fd5b6000848688096000868103871696879004966002600389028118808a02820302808a02820302808a02820302808a02820302808a02820302808a02909103029181900381900460010186841190950394909402919094039290920491909117919091029150509392505050565b6000836001600160a01b0316856001600160a01b031611156150c2579293925b816150ef576150ea836001600160801b03168686036001600160a01b0316600160601b614ff3565b615112565b615112836001600160801b03168686036001600160a01b0316600160601b614728565b90505b949350505050565b6000836001600160a01b0316856001600160a01b0316111561513d579293925b600160601b600160e01b03606084901b166001600160a01b03868603811690871661516757600080fd5b8361519757866001600160a01b031661518a8383896001600160a01b0316614ff3565b8161519157fe5b046151bd565b6151bd6151ae8383896001600160a01b0316614728565b886001600160a01b031661578d565b979650505050505050565b600080856001600160a01b0316116151df57600080fd5b6000846001600160801b0316116151f557600080fd5b81615207576150ea8585856001615798565b6151128585856001615879565b600080856001600160a01b03161161522b57600080fd5b6000846001600160801b03161161524157600080fd5b81615253576150ea8585856000615879565b6151128585856000615798565b600080600061527185612108612be1565b94859003959390940193505050565b6000806152a085846001600160801b0316866001600160801b0316614728565b90506152ae81860382615260565b90969095509350505050565b6152c2615ea3565b600085600001518503905060405180608001604052808663ffffffff1681526020018263ffffffff168660020b0288602001510160060b81526020016000856001600160801b031611615316576001615318565b845b6001600160801b031663ffffffff60801b608085901b168161533657fe5b048860400151016001600160a01b0316815260200160011515815250915050949350505050565b615365615ea3565b61536d615ea3565b888561ffff1661ffff811061537e57fe5b60408051608081018252919092015463ffffffff8116808352600160201b8204600690810b810b900b6020840152600160581b82046001600160a01b031693830193909352600160f81b900460ff161515606082015292506153e29089908961595c565b1561541a578663ffffffff16826000015163ffffffff161415615404576137ee565b81615411838989886152ba565b915091506137ee565b888361ffff168660010161ffff168161542f57fe5b0661ffff1661ffff811061543f57fe5b60408051608081018252929091015463ffffffff81168352600160201b8104600690810b810b900b60208401526001600160a01b03600160581b8204169183019190915260ff600160f81b909104161515606082018190529092506154f457604080516080810182528a5463ffffffff81168252600160201b8104600690810b810b900b6020830152600160581b81046001600160a01b031692820192909252600160f81b90910460ff161515606082015291505b6155038883600001518961595c565b61553a576040805162461bcd60e51b815260206004820152600360248201526213d31160ea1b604482015290519081900360640190fd5b6155478989898887615a1d565b9150915097509795505050505050565b60006155666013878787614762565b6007546008546009549293509091600080600f88900b1561568d57600061558b612f16565b60065460105491925060009182916155d59160149186918591600160a01b810460020b9161ffff600160b81b83048116926001600160801b0390921691600160c81b900416613668565b601054919350915061560e906011908f908d908f908d908d908d9089908b908d90600090600160801b90046001600160801b0316615bbb565b601054909550615645906011908e908d908f908d908d908d9089908b908d90600190600160801b90046001600160801b0316615bbb565b9350841561566857600f54615668906012908f90600160a01b900460020b615d8f565b831561568957600f54615689906012908e90600160a01b900460020b615d8f565b5050505b60008061569f60118d8d8c8b8b6147c6565b60035491935091506000906001600160a01b038f811691161480156156cc57506001600160a01b038e1615155b90506156db898c858585614872565b60008b600f0b12156157095784156156f8576156f860118e615df5565b83156157095761570960118d615df5565b505050505050505095945050505050565b60008082600f0b126157405761573b615736858585600161511d565b61357f565b612969565b615753615736858585600003600061511d565b600003949350505050565b60008082600f0b1261577a5761573b61573685858560016150a2565b61575361573685858560000360006150a2565b808204910615150190565b6000811561580b5760006001600160a01b038411156157ce576157c984600160601b876001600160801b0316614ff3565b6157e6565b6001600160801b038516606085901b816157e457fe5b045b90506158036157fe6001600160a01b03881683614177565b615e3a565b915050615115565b60006001600160a01b038411156158395761583484600160601b876001600160801b0316614728565b615850565b615850606085901b6001600160801b03871661578d565b905080866001600160a01b03161161586757600080fd5b6001600160a01b038616039050615115565b600082615887575083615115565b600160601b600160e01b03606085901b168215615915576001600160a01b038616848102908582816158b557fe5b0414156158e6578181018281106158e4576158da83896001600160a01b031683614728565b9350505050615115565b505b61590c82615907878a6001600160a01b0316868161590057fe5b0490614177565b61578d565b92505050615115565b6001600160a01b0386168481029085828161592c57fe5b0414801561593957508082115b61594257600080fd5b8082036158da6157fe846001600160a01b038b1684614728565b60008363ffffffff168363ffffffff161115801561598657508363ffffffff168263ffffffff1611155b156159a2578163ffffffff168363ffffffff161115905061296c565b60008463ffffffff168463ffffffff16116159c9578363ffffffff16600160201b016159d1565b8363ffffffff165b64ffffffffff16905060008563ffffffff168463ffffffff1611615a01578363ffffffff16600160201b01615a09565b8363ffffffff165b64ffffffffff169091111595945050505050565b615a25615ea3565b615a2d615ea3565b60008361ffff168560010161ffff1681615a4357fe5b0661ffff169050600060018561ffff16830103905060005b506002818301048961ffff87168281615a7057fe5b0661ffff8110615a7c57fe5b60408051608081018252929091015463ffffffff81168352600160201b8104600690810b810b900b60208401526001600160a01b03600160581b8204169183019190915260ff600160f81b90910416151560608201819052909550615ae657806001019250615a5b565b898661ffff168260010181615af757fe5b0661ffff8110615b0357fe5b60408051608081018252929091015463ffffffff81168352600160201b8104600690810b810b900b60208401526001600160a01b03600160581b8204169183019190915260ff600160f81b90910416151560608201528551909450600090615b6d908b908b61595c565b9050808015615b865750615b868a8a876000015161595c565b15615b915750615bae565b80615ba157600182039250615ba8565b8160010193505b50615a5b565b5050509550959350505050565b60028b810b900b600090815260208d90526040812080546001600160801b031682615be6828e6139a2565b9050846001600160801b0316816001600160801b03161115615c34576040805162461bcd60e51b81526020600482015260026024820152614c4f60f01b604482015290519081900360640190fd5b6001600160801b038281161590821615811415945015615ce0578d60020b8f60020b13615cc857600283018c9055600383018b9055600483018a9055600583018054600160381b600160d81b031916600160381b6001600160a01b038c16021766ffffffffffffff191666ffffffffffffff60068b900b161763ffffffff60d81b1916600160d81b63ffffffff8a16021790555b6005830180546001600160f81b0316600160f81b1790555b82546001600160801b0319166001600160801b03821617835585615d3057615d2b614a448e600f0b8560000160109054906101000a9004600f0b600f0b6135b190919063ffffffff16565b615d5d565b615d5d614a448e600f0b8560000160109054906101000a9004600f0b600f0b61359590919063ffffffff16565b8354600f9190910b6001600160801b03908116600160801b0291161790925550909d9c50505050505050505050505050565b8060020b8260020b81615d9e57fe5b0760020b15615dac57600080fd5b600080615dc78360020b8560020b81615dc157fe5b05614e58565b600191820b820b60009081526020979097526040909620805460ff9097169190911b90951890945550505050565b600290810b810b6000908152602092909252604082208281556001810180546001600160801b0319169055908101829055600381018290556004810182905560050155565b806001600160a01b038116811461426857600080fd5b6040805160e081018252600080825260208201819052918101829052606081018290526080810182905260a0810182905260c081019190915290565b604080518082019091526000808252602082015290565b6040805160808101825260008082526020820181905291810182905260608101919091529056fea2646970667358221220e5c10e111f6fee7a216b74592bdbf817a6fa6eeaf9cf869c5c3b745ca1faab1c64736f6c63430007060033",
			"opcodes": "PUSH1 0x80 PUSH1 0x40 MSTORE CALLVALUE DUP1 ISZERO PUSH2 0x10 JUMPI PUSH1 0x0 DUP1 REVERT JUMPDEST POP PUSH2 0x5F00 DUP1 PUSH3 0x21 PUSH1 0x0 CODECOPY PUSH1 0x0 RETURN INVALID PUSH1 0x80 PUSH1 0x40 MSTORE CALLVALUE DUP1 ISZERO PUSH2 0x10 JUMPI PUSH1 0x0 DUP1 REVERT JUMPDEST POP PUSH1 0x4 CALLDATASIZE LT PUSH2 0x269 JUMPI PUSH1 0x0 CALLDATALOAD PUSH1 0xE0 SHR DUP1 PUSH4 0x57806ADA GT PUSH2 0x151 JUMPI DUP1 PUSH4 0xB64CC67B GT PUSH2 0xC3 JUMPI DUP1 PUSH4 0xD0C93A7C GT PUSH2 0x87 JUMPI DUP1 PUSH4 0xD0C93A7C EQ PUSH2 0xA66 JUMPI DUP1 PUSH4 0xD21220A7 EQ PUSH2 0xA85 JUMPI DUP1 PUSH4 0xDDCA3F43 EQ PUSH2 0xA8D JUMPI DUP1 PUSH4 0xEBE2B12B EQ PUSH2 0xA95 JUMPI DUP1 PUSH4 0xF3058399 EQ PUSH2 0xA9D JUMPI DUP1 PUSH4 0xF30DBA93 EQ PUSH2 0xAA5 JUMPI PUSH2 0x269 JUMP JUMPDEST DUP1 PUSH4 0xB64CC67B EQ PUSH2 0xA0D JUMPI DUP1 PUSH4 0xC45A0155 EQ PUSH2 0xA2D JUMPI DUP1 PUSH4 0xC8796572 EQ PUSH2 0xA35 JUMPI DUP1 PUSH4 0xCAB64BCD EQ PUSH2 0xA3D JUMPI DUP1 PUSH4 0xD0B06F5D EQ PUSH2 0xA45 JUMPI PUSH2 0x269 JUMP JUMPDEST DUP1 PUSH4 0x883BDBFD GT PUSH2 0x115 JUMPI DUP1 PUSH4 0x883BDBFD EQ PUSH2 0x830 JUMPI DUP1 PUSH4 0xA16368C9 EQ PUSH2 0x937 JUMPI DUP1 PUSH4 0xA34123A7 EQ PUSH2 0x968 JUMPI DUP1 PUSH4 0xA38807F2 EQ PUSH2 0x9A2 JUMPI DUP1 PUSH4 0xA6F19C84 EQ PUSH2 0x9FD JUMPI DUP1 PUSH4 0xB056B49A EQ PUSH2 0xA05 JUMPI PUSH2 0x269 JUMP JUMPDEST DUP1 PUSH4 0x57806ADA EQ PUSH2 0x7A6 JUMPI DUP1 PUSH4 0x60A73F9B EQ PUSH2 0x7AE JUMPI DUP1 PUSH4 0x6F89244C EQ PUSH2 0x7D7 JUMPI DUP1 PUSH4 0x70CF754A EQ PUSH2 0x820 JUMPI DUP1 PUSH4 0x7B0A47EE EQ PUSH2 0x828 JUMPI PUSH2 0x269 JUMP JUMPDEST DUP1 PUSH4 0x3850C7BD GT PUSH2 0x1EA JUMPI DUP1 PUSH4 0x47CCCA02 GT PUSH2 0x1AE JUMPI DUP1 PUSH4 0x47CCCA02 EQ PUSH2 0x60E JUMPI DUP1 PUSH4 0x490E6CBC EQ PUSH2 0x616 JUMPI DUP1 PUSH4 0x4ED6210F EQ PUSH2 0x6A0 JUMPI DUP1 PUSH4 0x4F1EB3D8 EQ PUSH2 0x6DC JUMPI DUP1 PUSH4 0x514EA4BF EQ PUSH2 0x72D JUMPI DUP1 PUSH4 0x5339C296 EQ PUSH2 0x786 JUMPI PUSH2 0x269 JUMP JUMPDEST DUP1 PUSH4 0x3850C7BD EQ PUSH2 0x4F4 JUMPI DUP1 PUSH4 0x3AB04B20 EQ PUSH2 0x544 JUMPI DUP1 PUSH4 0x3BF0C9FB EQ PUSH2 0x54C JUMPI DUP1 PUSH4 0x3C8A7D8D EQ PUSH2 0x554 JUMPI DUP1 PUSH4 0x46141319 EQ PUSH2 0x5F4 JUMPI PUSH2 0x269 JUMP JUMPDEST DUP1 PUSH4 0x2071D884 GT PUSH2 0x231 JUMPI DUP1 PUSH4 0x2071D884 EQ PUSH2 0x39B JUMPI DUP1 PUSH4 0x252C09D7 EQ PUSH2 0x3EA JUMPI DUP1 PUSH4 0x293833BA EQ PUSH2 0x441 JUMPI DUP1 PUSH4 0x31338374 EQ PUSH2 0x478 JUMPI DUP1 PUSH4 0x32148F67 EQ PUSH2 0x4D3 JUMPI PUSH2 0x269 JUMP JUMPDEST DUP1 PUSH4 0xDFE1681 EQ PUSH2 0x26E JUMPI DUP1 PUSH4 0x128ACB08 EQ PUSH2 0x292 JUMPI DUP1 PUSH4 0x1A686502 EQ PUSH2 0x33F JUMPI DUP1 PUSH4 0x1B410960 EQ PUSH2 0x363 JUMPI DUP1 PUSH4 0x1F7C3568 EQ PUSH2 0x36D JUMPI JUMPDEST PUSH1 0x0 DUP1 REVERT JUMPDEST PUSH2 0x276 PUSH2 0xB37 JUMP JUMPDEST PUSH1 0x40 DUP1 MLOAD PUSH1 0x1 PUSH1 0x1 PUSH1 0xA0 SHL SUB SWAP1 SWAP3 AND DUP3 MSTORE MLOAD SWAP1 DUP2 SWAP1 SUB PUSH1 0x20 ADD SWAP1 RETURN JUMPDEST PUSH2 0x326 PUSH1 0x4 DUP1 CALLDATASIZE SUB PUSH1 0xA0 DUP2 LT ISZERO PUSH2 0x2A8 JUMPI PUSH1 0x0 DUP1 REVERT JUMPDEST PUSH1 0x1 PUSH1 0x1 PUSH1 0xA0 SHL SUB DUP3 CALLDATALOAD DUP2 AND SWAP3 PUSH1 0x20 DUP2 ADD CALLDATALOAD ISZERO ISZERO SWAP3 PUSH1 0x40 DUP3 ADD CALLDATALOAD SWAP3 PUSH1 0x60 DUP4 ADD CALLDATALOAD AND SWAP2 SWAP1 DUP2 ADD SWAP1 PUSH1 0xA0 DUP2 ADD PUSH1 0x80 DUP3 ADD CALLDATALOAD PUSH1 0x1 PUSH1 0x20 SHL DUP2 GT ISZERO PUSH2 0x2E8 JUMPI PUSH1 0x0 DUP1 REVERT JUMPDEST DUP3 ADD DUP4 PUSH1 0x20 DUP3 ADD GT ISZERO PUSH2 0x2FA JUMPI PUSH1 0x0 DUP1 REVERT JUMPDEST DUP1 CALLDATALOAD SWAP1 PUSH1 0x20 ADD SWAP2 DUP5 PUSH1 0x1 DUP4 MUL DUP5 ADD GT PUSH1 0x1 PUSH1 0x20 SHL DUP4 GT OR ISZERO PUSH2 0x31B JUMPI PUSH1 0x0 DUP1 REVERT JUMPDEST POP SWAP1 SWAP3 POP SWAP1 POP PUSH2 0xB46 JUMP JUMPDEST PUSH1 0x40 DUP1 MLOAD SWAP3 DUP4 MSTORE PUSH1 0x20 DUP4 ADD SWAP2 SWAP1 SWAP2 MSTORE DUP1 MLOAD SWAP2 DUP3 SWAP1 SUB ADD SWAP1 RETURN JUMPDEST PUSH2 0x347 PUSH2 0x16FD JUMP JUMPDEST PUSH1 0x40 DUP1 MLOAD PUSH1 0x1 PUSH1 0x1 PUSH1 0x80 SHL SUB SWAP1 SWAP3 AND DUP3 MSTORE MLOAD SWAP1 DUP2 SWAP1 SUB PUSH1 0x20 ADD SWAP1 RETURN JUMPDEST PUSH2 0x36B PUSH2 0x170C JUMP JUMPDEST STOP JUMPDEST PUSH2 0x36B PUSH1 0x4 DUP1 CALLDATASIZE SUB PUSH1 0x40 DUP2 LT ISZERO PUSH2 0x383 JUMPI PUSH1 0x0 DUP1 REVERT JUMPDEST POP PUSH1 0x1 PUSH1 0x1 PUSH1 0xA0 SHL SUB DUP2 CALLDATALOAD DUP2 AND SWAP2 PUSH1 0x20 ADD CALLDATALOAD AND PUSH2 0x17BE JUMP JUMPDEST PUSH2 0x36B PUSH1 0x4 DUP1 CALLDATASIZE SUB PUSH1 0xC0 DUP2 LT ISZERO PUSH2 0x3B1 JUMPI PUSH1 0x0 DUP1 REVERT JUMPDEST POP PUSH1 0x1 PUSH1 0x1 PUSH1 0xA0 SHL SUB DUP2 CALLDATALOAD DUP2 AND SWAP2 PUSH1 0x20 DUP2 ADD CALLDATALOAD DUP3 AND SWAP2 PUSH1 0x40 DUP3 ADD CALLDATALOAD DUP2 AND SWAP2 PUSH1 0x60 DUP2 ADD CALLDATALOAD PUSH1 0x2 SIGNEXTEND SWAP2 PUSH1 0x80 DUP3 ADD CALLDATALOAD DUP2 AND SWAP2 PUSH1 0xA0 ADD CALLDATALOAD AND PUSH2 0x192C JUMP JUMPDEST PUSH2 0x407 PUSH1 0x4 DUP1 CALLDATASIZE SUB PUSH1 0x20 DUP2 LT ISZERO PUSH2 0x400 JUMPI PUSH1 0x0 DUP1 REVERT JUMPDEST POP CALLDATALOAD PUSH2 0x1B11 JUMP JUMPDEST PUSH1 0x40 DUP1 MLOAD PUSH4 0xFFFFFFFF SWAP1 SWAP6 AND DUP6 MSTORE PUSH1 0x6 SWAP4 SWAP1 SWAP4 SIGNEXTEND PUSH1 0x20 DUP6 ADD MSTORE PUSH1 0x1 PUSH1 0x1 PUSH1 0xA0 SHL SUB SWAP1 SWAP2 AND DUP4 DUP4 ADD MSTORE ISZERO ISZERO PUSH1 0x60 DUP4 ADD MSTORE MLOAD SWAP1 DUP2 SWAP1 SUB PUSH1 0x80 ADD SWAP1 RETURN JUMPDEST PUSH2 0x449 PUSH2 0x1B56 JUMP JUMPDEST PUSH1 0x40 MLOAD DUP1 DUP4 PUSH1 0x1 PUSH1 0x1 PUSH1 0x80 SHL SUB AND DUP2 MSTORE PUSH1 0x20 ADD DUP3 PUSH1 0x1 PUSH1 0x1 PUSH1 0x80 SHL SUB AND DUP2 MSTORE PUSH1 0x20 ADD SWAP3 POP POP POP PUSH1 0x40 MLOAD DUP1 SWAP2 SUB SWAP1 RETURN JUMPDEST PUSH2 0x449 PUSH1 0x4 DUP1 CALLDATASIZE SUB PUSH1 0xC0 DUP2 LT ISZERO PUSH2 0x48E JUMPI PUSH1 0x0 DUP1 REVERT JUMPDEST POP PUSH1 0x1 PUSH1 0x1 PUSH1 0xA0 SHL SUB DUP2 CALLDATALOAD DUP2 AND SWAP2 PUSH1 0x20 DUP2 ADD CALLDATALOAD PUSH1 0x2 SWAP1 DUP2 SIGNEXTEND SWAP3 PUSH1 0x40 DUP4 ADD CALLDATALOAD SWAP1 SWAP2 SIGNEXTEND SWAP2 PUSH1 0x1 PUSH1 0x1 PUSH1 0x80 SHL SUB PUSH1 0x60 DUP3 ADD CALLDATALOAD DUP2 AND SWAP3 PUSH1 0x80 DUP4 ADD CALLDATALOAD SWAP1 SWAP2 AND SWAP2 PUSH1 0xA0 ADD CALLDATALOAD AND PUSH2 0x1B70 JUMP JUMPDEST PUSH2 0x36B PUSH1 0x4 DUP1 CALLDATASIZE SUB PUSH1 0x20 DUP2 LT ISZERO PUSH2 0x4E9 JUMPI PUSH1 0x0 DUP1 REVERT JUMPDEST POP CALLDATALOAD PUSH2 0xFFFF AND PUSH2 0x1C3E JUMP JUMPDEST PUSH2 0x4FC PUSH2 0x1D2F JUMP JUMPDEST PUSH1 0x40 DUP1 MLOAD PUSH1 0x1 PUSH1 0x1 PUSH1 0xA0 SHL SUB SWAP1 SWAP8 AND DUP8 MSTORE PUSH1 0x2 SWAP6 SWAP1 SWAP6 SIGNEXTEND PUSH1 0x20 DUP8 ADD MSTORE PUSH2 0xFFFF SWAP4 DUP5 AND DUP7 DUP7 ADD MSTORE SWAP2 DUP4 AND PUSH1 0x60 DUP7 ADD MSTORE SWAP1 SWAP2 AND PUSH1 0x80 DUP5 ADD MSTORE ISZERO ISZERO PUSH1 0xA0 DUP4 ADD MSTORE MLOAD SWAP1 DUP2 SWAP1 SUB PUSH1 0xC0 ADD SWAP1 RETURN JUMPDEST PUSH2 0x347 PUSH2 0x1D76 JUMP JUMPDEST PUSH2 0x276 PUSH2 0x1D85 JUMP JUMPDEST PUSH2 0x326 PUSH1 0x4 DUP1 CALLDATASIZE SUB PUSH1 0xA0 DUP2 LT ISZERO PUSH2 0x56A JUMPI PUSH1 0x0 DUP1 REVERT JUMPDEST PUSH1 0x1 PUSH1 0x1 PUSH1 0xA0 SHL SUB DUP3 CALLDATALOAD AND SWAP2 PUSH1 0x20 DUP2 ADD CALLDATALOAD PUSH1 0x2 SWAP1 DUP2 SIGNEXTEND SWAP3 PUSH1 0x40 DUP4 ADD CALLDATALOAD SWAP1 SWAP2 SIGNEXTEND SWAP2 PUSH1 0x1 PUSH1 0x1 PUSH1 0x80 SHL SUB PUSH1 0x60 DUP3 ADD CALLDATALOAD AND SWAP2 DUP2 ADD SWAP1 PUSH1 0xA0 DUP2 ADD PUSH1 0x80 DUP3 ADD CALLDATALOAD PUSH1 0x1 PUSH1 0x20 SHL DUP2 GT ISZERO PUSH2 0x5B6 JUMPI PUSH1 0x0 DUP1 REVERT JUMPDEST DUP3 ADD DUP4 PUSH1 0x20 DUP3 ADD GT ISZERO PUSH2 0x5C8 JUMPI PUSH1 0x0 DUP1 REVERT JUMPDEST DUP1 CALLDATALOAD SWAP1 PUSH1 0x20 ADD SWAP2 DUP5 PUSH1 0x1 DUP4 MUL DUP5 ADD GT PUSH1 0x1 PUSH1 0x20 SHL DUP4 GT OR ISZERO PUSH2 0x5E9 JUMPI PUSH1 0x0 DUP1 REVERT JUMPDEST POP SWAP1 SWAP3 POP SWAP1 POP PUSH2 0x1D94 JUMP JUMPDEST PUSH2 0x5FC PUSH2 0x2052 JUMP JUMPDEST PUSH1 0x40 DUP1 MLOAD SWAP2 DUP3 MSTORE MLOAD SWAP1 DUP2 SWAP1 SUB PUSH1 0x20 ADD SWAP1 RETURN JUMPDEST PUSH2 0x276 PUSH2 0x2058 JUMP JUMPDEST PUSH2 0x36B PUSH1 0x4 DUP1 CALLDATASIZE SUB PUSH1 0x80 DUP2 LT ISZERO PUSH2 0x62C JUMPI PUSH1 0x0 DUP1 REVERT JUMPDEST PUSH1 0x1 PUSH1 0x1 PUSH1 0xA0 SHL SUB DUP3 CALLDATALOAD AND SWAP2 PUSH1 0x20 DUP2 ADD CALLDATALOAD SWAP2 PUSH1 0x40 DUP3 ADD CALLDATALOAD SWAP2 SWAP1 DUP2 ADD SWAP1 PUSH1 0x80 DUP2 ADD PUSH1 0x60 DUP3 ADD CALLDATALOAD PUSH1 0x1 PUSH1 0x20 SHL DUP2 GT ISZERO PUSH2 0x662 JUMPI PUSH1 0x0 DUP1 REVERT JUMPDEST DUP3 ADD DUP4 PUSH1 0x20 DUP3 ADD GT ISZERO PUSH2 0x674 JUMPI PUSH1 0x0 DUP1 REVERT JUMPDEST DUP1 CALLDATALOAD SWAP1 PUSH1 0x20 ADD SWAP2 DUP5 PUSH1 0x1 DUP4 MUL DUP5 ADD GT PUSH1 0x1 PUSH1 0x20 SHL DUP4 GT OR ISZERO PUSH2 0x695 JUMPI PUSH1 0x0 DUP1 REVERT JUMPDEST POP SWAP1 SWAP3 POP SWAP1 POP PUSH2 0x2067 JUMP JUMPDEST PUSH2 0x36B PUSH1 0x4 DUP1 CALLDATASIZE SUB PUSH1 0x80 DUP2 LT ISZERO PUSH2 0x6B6 JUMPI PUSH1 0x0 DUP1 REVERT JUMPDEST POP DUP1 CALLDATALOAD PUSH1 0xF SIGNEXTEND SWAP1 PUSH1 0x20 DUP2 ADD CALLDATALOAD PUSH1 0x2 SWAP1 DUP2 SIGNEXTEND SWAP2 PUSH1 0x40 DUP2 ADD CALLDATALOAD SWAP1 SWAP2 SIGNEXTEND SWAP1 PUSH1 0x60 ADD CALLDATALOAD ISZERO ISZERO PUSH2 0x2415 JUMP JUMPDEST PUSH2 0x449 PUSH1 0x4 DUP1 CALLDATASIZE SUB PUSH1 0xA0 DUP2 LT ISZERO PUSH2 0x6F2 JUMPI PUSH1 0x0 DUP1 REVERT JUMPDEST POP PUSH1 0x1 PUSH1 0x1 PUSH1 0xA0 SHL SUB DUP2 CALLDATALOAD AND SWAP1 PUSH1 0x20 DUP2 ADD CALLDATALOAD PUSH1 0x2 SWAP1 DUP2 SIGNEXTEND SWAP2 PUSH1 0x40 DUP2 ADD CALLDATALOAD SWAP1 SWAP2 SIGNEXTEND SWAP1 PUSH1 0x1 PUSH1 0x1 PUSH1 0x80 SHL SUB PUSH1 0x60 DUP3 ADD CALLDATALOAD DUP2 AND SWAP2 PUSH1 0x80 ADD CALLDATALOAD AND PUSH2 0x2631 JUMP JUMPDEST PUSH2 0x74A PUSH1 0x4 DUP1 CALLDATASIZE SUB PUSH1 0x20 DUP2 LT ISZERO PUSH2 0x743 JUMPI PUSH1 0x0 DUP1 REVERT JUMPDEST POP CALLDATALOAD PUSH2 0x26B6 JUMP JUMPDEST PUSH1 0x40 DUP1 MLOAD PUSH1 0x1 PUSH1 0x1 PUSH1 0x80 SHL SUB SWAP7 DUP8 AND DUP2 MSTORE PUSH1 0x20 DUP2 ADD SWAP6 SWAP1 SWAP6 MSTORE DUP5 DUP2 ADD SWAP4 SWAP1 SWAP4 MSTORE SWAP1 DUP5 AND PUSH1 0x60 DUP5 ADD MSTORE SWAP1 SWAP3 AND PUSH1 0x80 DUP3 ADD MSTORE SWAP1 MLOAD SWAP1 DUP2 SWAP1 SUB PUSH1 0xA0 ADD SWAP1 RETURN JUMPDEST PUSH2 0x5FC PUSH1 0x4 DUP1 CALLDATASIZE SUB PUSH1 0x20 DUP2 LT ISZERO PUSH2 0x79C JUMPI PUSH1 0x0 DUP1 REVERT JUMPDEST POP CALLDATALOAD PUSH1 0x1 SIGNEXTEND PUSH2 0x26F3 JUMP JUMPDEST PUSH2 0x5FC PUSH2 0x2705 JUMP JUMPDEST PUSH2 0x36B PUSH1 0x4 DUP1 CALLDATASIZE SUB PUSH1 0x60 DUP2 LT ISZERO PUSH2 0x7C4 JUMPI PUSH1 0x0 DUP1 REVERT JUMPDEST POP DUP1 CALLDATALOAD SWAP1 PUSH1 0x20 DUP2 ADD CALLDATALOAD SWAP1 PUSH1 0x40 ADD CALLDATALOAD PUSH2 0x270B JUMP JUMPDEST PUSH2 0x326 PUSH1 0x4 DUP1 CALLDATASIZE SUB PUSH1 0x80 DUP2 LT ISZERO PUSH2 0x7ED JUMPI PUSH1 0x0 DUP1 REVERT JUMPDEST POP DUP1 CALLDATALOAD PUSH1 0x2 SWAP1 DUP2 SIGNEXTEND SWAP2 PUSH1 0x20 DUP2 ADD CALLDATALOAD SWAP1 SWAP2 SIGNEXTEND SWAP1 PUSH1 0x40 DUP2 ADD CALLDATALOAD PUSH1 0x1 PUSH1 0x1 PUSH1 0x80 SHL SUB AND SWAP1 PUSH1 0x60 ADD CALLDATALOAD PUSH1 0x1 PUSH1 0x1 PUSH1 0xA0 SHL SUB AND PUSH2 0x27C6 JUMP JUMPDEST PUSH2 0x347 PUSH2 0x2890 JUMP JUMPDEST PUSH2 0x5FC PUSH2 0x28A6 JUMP JUMPDEST PUSH2 0x89E PUSH1 0x4 DUP1 CALLDATASIZE SUB PUSH1 0x20 DUP2 LT ISZERO PUSH2 0x846 JUMPI PUSH1 0x0 DUP1 REVERT JUMPDEST DUP2 ADD SWAP1 PUSH1 0x20 DUP2 ADD DUP2 CALLDATALOAD PUSH1 0x1 PUSH1 0x20 SHL DUP2 GT ISZERO PUSH2 0x860 JUMPI PUSH1 0x0 DUP1 REVERT JUMPDEST DUP3 ADD DUP4 PUSH1 0x20 DUP3 ADD GT ISZERO PUSH2 0x872 JUMPI PUSH1 0x0 DUP1 REVERT JUMPDEST DUP1 CALLDATALOAD SWAP1 PUSH1 0x20 ADD SWAP2 DUP5 PUSH1 0x20 DUP4 MUL DUP5 ADD GT PUSH1 0x1 PUSH1 0x20 SHL DUP4 GT OR ISZERO PUSH2 0x893 JUMPI PUSH1 0x0 DUP1 REVERT JUMPDEST POP SWAP1 SWAP3 POP SWAP1 POP PUSH2 0x28AC JUMP JUMPDEST PUSH1 0x40 MLOAD DUP1 DUP1 PUSH1 0x20 ADD DUP1 PUSH1 0x20 ADD DUP4 DUP2 SUB DUP4 MSTORE DUP6 DUP2 DUP2 MLOAD DUP2 MSTORE PUSH1 0x20 ADD SWAP2 POP DUP1 MLOAD SWAP1 PUSH1 0x20 ADD SWAP1 PUSH1 0x20 MUL DUP1 DUP4 DUP4 PUSH1 0x0 JUMPDEST DUP4 DUP2 LT ISZERO PUSH2 0x8E2 JUMPI DUP2 DUP2 ADD MLOAD DUP4 DUP3 ADD MSTORE PUSH1 0x20 ADD PUSH2 0x8CA JUMP JUMPDEST POP POP POP POP SWAP1 POP ADD DUP4 DUP2 SUB DUP3 MSTORE DUP5 DUP2 DUP2 MLOAD DUP2 MSTORE PUSH1 0x20 ADD SWAP2 POP DUP1 MLOAD SWAP1 PUSH1 0x20 ADD SWAP1 PUSH1 0x20 MUL DUP1 DUP4 DUP4 PUSH1 0x0 JUMPDEST DUP4 DUP2 LT ISZERO PUSH2 0x921 JUMPI DUP2 DUP2 ADD MLOAD DUP4 DUP3 ADD MSTORE PUSH1 0x20 ADD PUSH2 0x909 JUMP JUMPDEST POP POP POP POP SWAP1 POP ADD SWAP5 POP POP POP POP POP PUSH1 0x40 MLOAD DUP1 SWAP2 SUB SWAP1 RETURN JUMPDEST PUSH2 0x5FC PUSH1 0x4 DUP1 CALLDATASIZE SUB PUSH1 0x60 DUP2 LT ISZERO PUSH2 0x94D JUMPI PUSH1 0x0 DUP1 REVERT JUMPDEST POP DUP1 CALLDATALOAD PUSH1 0x2 SWAP1 DUP2 SIGNEXTEND SWAP2 PUSH1 0x20 DUP2 ADD CALLDATALOAD SWAP1 SWAP2 SIGNEXTEND SWAP1 PUSH1 0x40 ADD CALLDATALOAD PUSH2 0x2934 JUMP JUMPDEST PUSH2 0x326 PUSH1 0x4 DUP1 CALLDATASIZE SUB PUSH1 0x60 DUP2 LT ISZERO PUSH2 0x97E JUMPI PUSH1 0x0 DUP1 REVERT JUMPDEST POP DUP1 CALLDATALOAD PUSH1 0x2 SWAP1 DUP2 SIGNEXTEND SWAP2 PUSH1 0x20 DUP2 ADD CALLDATALOAD SWAP1 SWAP2 SIGNEXTEND SWAP1 PUSH1 0x40 ADD CALLDATALOAD PUSH1 0x1 PUSH1 0x1 PUSH1 0x80 SHL SUB AND PUSH2 0x2973 JUMP JUMPDEST PUSH2 0x9CC PUSH1 0x4 DUP1 CALLDATASIZE SUB PUSH1 0x40 DUP2 LT ISZERO PUSH2 0x9B8 JUMPI PUSH1 0x0 DUP1 REVERT JUMPDEST POP DUP1 CALLDATALOAD PUSH1 0x2 SWAP1 DUP2 SIGNEXTEND SWAP2 PUSH1 0x20 ADD CALLDATALOAD SWAP1 SIGNEXTEND PUSH2 0x29F4 JUMP JUMPDEST PUSH1 0x40 DUP1 MLOAD PUSH1 0x6 SWAP5 SWAP1 SWAP5 SIGNEXTEND DUP5 MSTORE PUSH1 0x1 PUSH1 0x1 PUSH1 0xA0 SHL SUB SWAP1 SWAP3 AND PUSH1 0x20 DUP5 ADD MSTORE PUSH4 0xFFFFFFFF AND DUP3 DUP3 ADD MSTORE MLOAD SWAP1 DUP2 SWAP1 SUB PUSH1 0x60 ADD SWAP1 RETURN JUMPDEST PUSH2 0x276 PUSH2 0x2BCC JUMP JUMPDEST PUSH2 0x5FC PUSH2 0x2BDB JUMP JUMPDEST PUSH2 0xA15 PUSH2 0x2BE1 JUMP JUMPDEST PUSH1 0x40 DUP1 MLOAD PUSH3 0xFFFFFF SWAP1 SWAP3 AND DUP3 MSTORE MLOAD SWAP1 DUP2 SWAP1 SUB PUSH1 0x20 ADD SWAP1 RETURN JUMPDEST PUSH2 0x276 PUSH2 0x2C5E JUMP JUMPDEST PUSH2 0x449 PUSH2 0x2C6D JUMP JUMPDEST PUSH2 0x5FC PUSH2 0x2E0C JUMP JUMPDEST PUSH2 0xA4D PUSH2 0x2E12 JUMP JUMPDEST PUSH1 0x40 DUP1 MLOAD PUSH4 0xFFFFFFFF SWAP1 SWAP3 AND DUP3 MSTORE MLOAD SWAP1 DUP2 SWAP1 SUB PUSH1 0x20 ADD SWAP1 RETURN JUMPDEST PUSH2 0xA6E PUSH2 0x2E25 JUMP JUMPDEST PUSH1 0x40 DUP1 MLOAD PUSH1 0x2 SWAP3 SWAP1 SWAP3 SIGNEXTEND DUP3 MSTORE MLOAD SWAP1 DUP2 SWAP1 SUB PUSH1 0x20 ADD SWAP1 RETURN JUMPDEST PUSH2 0x276 PUSH2 0x2E35 JUMP JUMPDEST PUSH2 0xA15 PUSH2 0x2E44 JUMP JUMPDEST PUSH2 0x5FC PUSH2 0x2E90 JUMP JUMPDEST PUSH2 0x5FC PUSH2 0x2E96 JUMP JUMPDEST PUSH2 0xAC5 PUSH1 0x4 DUP1 CALLDATASIZE SUB PUSH1 0x20 DUP2 LT ISZERO PUSH2 0xABB JUMPI PUSH1 0x0 DUP1 REVERT JUMPDEST POP CALLDATALOAD PUSH1 0x2 SIGNEXTEND PUSH2 0x2E9C JUMP JUMPDEST PUSH1 0x40 DUP1 MLOAD PUSH1 0x1 PUSH1 0x1 PUSH1 0x80 SHL SUB SWAP1 SWAP12 AND DUP12 MSTORE PUSH1 0xF SWAP10 DUP11 SIGNEXTEND PUSH1 0x20 DUP13 ADD MSTORE SWAP8 SWAP1 SWAP9 SIGNEXTEND DUP10 DUP9 ADD MSTORE PUSH1 0x60 DUP10 ADD SWAP6 SWAP1 SWAP6 MSTORE PUSH1 0x80 DUP9 ADD SWAP4 SWAP1 SWAP4 MSTORE PUSH1 0xA0 DUP8 ADD SWAP2 SWAP1 SWAP2 MSTORE PUSH1 0x6 SIGNEXTEND PUSH1 0xC0 DUP7 ADD MSTORE PUSH1 0x1 PUSH1 0x1 PUSH1 0xA0 SHL SUB AND PUSH1 0xE0 DUP6 ADD MSTORE PUSH4 0xFFFFFFFF AND PUSH2 0x100 DUP5 ADD MSTORE SWAP1 ISZERO ISZERO PUSH2 0x120 DUP4 ADD MSTORE MLOAD SWAP1 DUP2 SWAP1 SUB PUSH2 0x140 ADD SWAP1 RETURN JUMPDEST PUSH1 0x1 SLOAD PUSH1 0x1 PUSH1 0x1 PUSH1 0xA0 SHL SUB AND DUP2 JUMP JUMPDEST PUSH1 0x0 DUP1 DUP6 PUSH2 0xB80 JUMPI PUSH1 0x40 DUP1 MLOAD PUSH3 0x461BCD PUSH1 0xE5 SHL DUP2 MSTORE PUSH1 0x20 PUSH1 0x4 DUP3 ADD MSTORE PUSH1 0x2 PUSH1 0x24 DUP3 ADD MSTORE PUSH2 0x4153 PUSH1 0xF0 SHL PUSH1 0x44 DUP3 ADD MSTORE SWAP1 MLOAD SWAP1 DUP2 SWAP1 SUB PUSH1 0x64 ADD SWAP1 REVERT JUMPDEST PUSH1 0x40 DUP1 MLOAD PUSH1 0xC0 DUP2 ADD DUP3 MSTORE PUSH1 0x6 SLOAD PUSH1 0x1 PUSH1 0x1 PUSH1 0xA0 SHL SUB DUP2 AND DUP3 MSTORE PUSH1 0x1 PUSH1 0xA0 SHL DUP2 DIV PUSH1 0x2 SWAP1 DUP2 SIGNEXTEND DUP2 SIGNEXTEND SWAP1 SIGNEXTEND PUSH1 0x20 DUP4 ADD MSTORE PUSH1 0x1 PUSH1 0xB8 SHL DUP2 DIV PUSH2 0xFFFF SWAP1 DUP2 AND SWAP4 DUP4 ADD SWAP4 SWAP1 SWAP4 MSTORE PUSH1 0x1 PUSH1 0xC8 SHL DUP2 DIV DUP4 AND PUSH1 0x60 DUP4 ADD MSTORE PUSH1 0x1 PUSH1 0xD8 SHL DUP2 DIV SWAP1 SWAP3 AND PUSH1 0x80 DUP3 ADD MSTORE PUSH1 0x1 PUSH1 0xE8 SHL SWAP1 SWAP2 DIV PUSH1 0xFF AND ISZERO ISZERO PUSH1 0xA0 DUP3 ADD DUP2 SWAP1 MSTORE PUSH2 0xC2A JUMPI PUSH1 0x40 DUP1 MLOAD PUSH3 0x461BCD PUSH1 0xE5 SHL DUP2 MSTORE PUSH1 0x20 PUSH1 0x4 DUP3 ADD MSTORE PUSH1 0x3 PUSH1 0x24 DUP3 ADD MSTORE PUSH3 0x4C4F4B PUSH1 0xE8 SHL PUSH1 0x44 DUP3 ADD MSTORE SWAP1 MLOAD SWAP1 DUP2 SWAP1 SUB PUSH1 0x64 ADD SWAP1 REVERT JUMPDEST DUP8 PUSH2 0xC75 JUMPI DUP1 PUSH1 0x0 ADD MLOAD PUSH1 0x1 PUSH1 0x1 PUSH1 0xA0 SHL SUB AND DUP7 PUSH1 0x1 PUSH1 0x1 PUSH1 0xA0 SHL SUB AND GT DUP1 ISZERO PUSH2 0xC70 JUMPI POP PUSH20 0xFFFD8963EFD1FC6A506488495D951D5263988D26 PUSH1 0x1 PUSH1 0x1 PUSH1 0xA0 SHL SUB DUP8 AND LT JUMPDEST PUSH2 0xCA7 JUMP JUMPDEST DUP1 PUSH1 0x0 ADD MLOAD PUSH1 0x1 PUSH1 0x1 PUSH1 0xA0 SHL SUB AND DUP7 PUSH1 0x1 PUSH1 0x1 PUSH1 0xA0 SHL SUB AND LT DUP1 ISZERO PUSH2 0xCA7 JUMPI POP PUSH5 0x1000276A3 PUSH1 0x1 PUSH1 0x1 PUSH1 0xA0 SHL SUB DUP8 AND GT JUMPDEST PUSH2 0xCDE JUMPI PUSH1 0x40 DUP1 MLOAD PUSH3 0x461BCD PUSH1 0xE5 SHL DUP2 MSTORE PUSH1 0x20 PUSH1 0x4 DUP3 ADD MSTORE PUSH1 0x3 PUSH1 0x24 DUP3 ADD MSTORE PUSH3 0x14D413 PUSH1 0xEA SHL PUSH1 0x44 DUP3 ADD MSTORE SWAP1 MLOAD SWAP1 DUP2 SWAP1 SUB PUSH1 0x64 ADD SWAP1 REVERT JUMPDEST PUSH1 0x6 DUP1 SLOAD PUSH1 0xFF PUSH1 0xE8 SHL NOT AND SWAP1 SSTORE PUSH1 0x40 DUP1 MLOAD PUSH1 0xC0 DUP2 ADD DUP3 MSTORE PUSH1 0x10 SLOAD PUSH1 0x1 PUSH1 0x1 PUSH1 0x80 SHL SUB SWAP1 DUP2 AND DUP3 MSTORE PUSH1 0xF SLOAD AND PUSH1 0x20 DUP3 ADD MSTORE PUSH1 0x0 SWAP2 DUP2 ADD PUSH2 0xD1B PUSH2 0x2F16 JUMP JUMPDEST PUSH4 0xFFFFFFFF AND DUP2 MSTORE PUSH1 0x20 ADD PUSH1 0x0 PUSH1 0x6 SIGNEXTEND DUP2 MSTORE PUSH1 0x20 ADD PUSH1 0x0 PUSH1 0x1 PUSH1 0x1 PUSH1 0xA0 SHL SUB AND DUP2 MSTORE PUSH1 0x20 ADD PUSH1 0x0 ISZERO ISZERO DUP2 MSTORE POP SWAP1 POP PUSH1 0x0 DUP1 DUP10 SGT SWAP1 POP PUSH1 0x0 PUSH1 0x40 MLOAD DUP1 PUSH2 0x140 ADD PUSH1 0x40 MSTORE DUP1 DUP12 DUP2 MSTORE PUSH1 0x20 ADD PUSH1 0x0 DUP2 MSTORE PUSH1 0x20 ADD DUP6 PUSH1 0x0 ADD MLOAD PUSH1 0x1 PUSH1 0x1 PUSH1 0xA0 SHL SUB AND DUP2 MSTORE PUSH1 0x20 ADD DUP6 PUSH1 0x20 ADD MLOAD PUSH1 0x2 SIGNEXTEND DUP2 MSTORE PUSH1 0x20 ADD PUSH2 0xD93 PUSH2 0x2E44 JUMP JUMPDEST PUSH3 0xFFFFFF AND DUP2 MSTORE PUSH1 0x0 PUSH1 0x20 DUP3 ADD MSTORE PUSH1 0x40 ADD DUP13 PUSH2 0xDB1 JUMPI PUSH1 0x8 SLOAD PUSH2 0xDB5 JUMP JUMPDEST PUSH1 0x7 SLOAD JUMPDEST DUP2 MSTORE PUSH1 0x20 ADD PUSH1 0x0 PUSH1 0x1 PUSH1 0x1 PUSH1 0x80 SHL SUB AND DUP2 MSTORE PUSH1 0x20 ADD DUP5 PUSH1 0x0 ADD MLOAD PUSH1 0x1 PUSH1 0x1 PUSH1 0x80 SHL SUB AND DUP2 MSTORE PUSH1 0x20 ADD DUP5 PUSH1 0x20 ADD MLOAD PUSH1 0x1 PUSH1 0x1 PUSH1 0x80 SHL SUB AND DUP2 MSTORE POP SWAP1 POP JUMPDEST DUP1 MLOAD ISZERO DUP1 ISZERO SWAP1 PUSH2 0xE17 JUMPI POP DUP9 PUSH1 0x1 PUSH1 0x1 PUSH1 0xA0 SHL SUB AND DUP2 PUSH1 0x40 ADD MLOAD PUSH1 0x1 PUSH1 0x1 PUSH1 0xA0 SHL SUB AND EQ ISZERO JUMPDEST ISZERO PUSH2 0x11E4 JUMPI PUSH2 0xE24 PUSH2 0x5E50 JUMP JUMPDEST PUSH1 0x40 DUP3 ADD MLOAD PUSH1 0x1 PUSH1 0x1 PUSH1 0xA0 SHL SUB AND DUP2 MSTORE PUSH1 0x60 DUP3 ADD MLOAD PUSH1 0xF SLOAD PUSH2 0xE53 SWAP2 PUSH1 0x12 SWAP2 PUSH1 0x1 PUSH1 0xA0 SHL SWAP1 DIV PUSH1 0x2 SIGNEXTEND DUP16 PUSH2 0x2F1A JUMP JUMPDEST ISZERO ISZERO PUSH1 0x40 DUP4 ADD MSTORE PUSH1 0x2 SWAP1 DUP2 SIGNEXTEND DUP2 SIGNEXTEND PUSH1 0x20 DUP4 ADD DUP2 SWAP1 MSTORE PUSH3 0xD89E7 NOT SWAP2 SIGNEXTEND SLT ISZERO PUSH2 0xE84 JUMPI PUSH3 0xD89E7 NOT PUSH1 0x20 DUP3 ADD MSTORE PUSH2 0xEA3 JUMP JUMPDEST PUSH1 0x20 DUP2 ADD MLOAD PUSH3 0xD89E8 PUSH1 0x2 SWAP2 SWAP1 SWAP2 SIGNEXTEND SGT ISZERO PUSH2 0xEA3 JUMPI PUSH3 0xD89E8 PUSH1 0x20 DUP3 ADD MSTORE JUMPDEST PUSH2 0xEB0 DUP2 PUSH1 0x20 ADD MLOAD PUSH2 0x305C JUMP JUMPDEST PUSH1 0x1 PUSH1 0x1 PUSH1 0xA0 SHL SUB AND PUSH1 0x60 DUP3 ADD MSTORE PUSH1 0x40 DUP3 ADD MLOAD PUSH2 0xF26 SWAP1 DUP14 PUSH2 0xEEA JUMPI DUP12 PUSH1 0x1 PUSH1 0x1 PUSH1 0xA0 SHL SUB AND DUP4 PUSH1 0x60 ADD MLOAD PUSH1 0x1 PUSH1 0x1 PUSH1 0xA0 SHL SUB AND GT PUSH2 0xF04 JUMP JUMPDEST DUP12 PUSH1 0x1 PUSH1 0x1 PUSH1 0xA0 SHL SUB AND DUP4 PUSH1 0x60 ADD MLOAD PUSH1 0x1 PUSH1 0x1 PUSH1 0xA0 SHL SUB AND LT JUMPDEST PUSH2 0xF12 JUMPI DUP3 PUSH1 0x60 ADD MLOAD PUSH2 0xF14 JUMP JUMPDEST DUP12 JUMPDEST PUSH2 0x100 DUP6 ADD MLOAD DUP6 MLOAD PUSH1 0x80 DUP8 ADD MLOAD PUSH2 0x338D JUMP JUMPDEST PUSH1 0xC0 DUP6 ADD MSTORE PUSH1 0xA0 DUP5 ADD MSTORE PUSH1 0x80 DUP4 ADD MSTORE PUSH1 0x1 PUSH1 0x1 PUSH1 0xA0 SHL SUB AND PUSH1 0x40 DUP4 ADD MSTORE DUP3 ISZERO PUSH2 0xF88 JUMPI PUSH2 0xF5C DUP2 PUSH1 0xC0 ADD MLOAD DUP3 PUSH1 0x80 ADD MLOAD ADD PUSH2 0x357F JUMP JUMPDEST DUP3 MLOAD SUB DUP3 MSTORE PUSH1 0xA0 DUP2 ADD MLOAD PUSH2 0xF7E SWAP1 PUSH2 0xF73 SWAP1 PUSH2 0x357F JUMP JUMPDEST PUSH1 0x20 DUP5 ADD MLOAD SWAP1 PUSH2 0x3595 JUMP JUMPDEST PUSH1 0x20 DUP4 ADD MSTORE PUSH2 0xFC3 JUMP JUMPDEST PUSH2 0xF95 DUP2 PUSH1 0xA0 ADD MLOAD PUSH2 0x357F JUMP JUMPDEST DUP3 MLOAD ADD DUP3 MSTORE PUSH1 0xC0 DUP2 ADD MLOAD PUSH1 0x80 DUP3 ADD MLOAD PUSH2 0xFBD SWAP2 PUSH2 0xFB2 SWAP2 ADD PUSH2 0x357F JUMP JUMPDEST PUSH1 0x20 DUP5 ADD MLOAD SWAP1 PUSH2 0x35B1 JUMP JUMPDEST PUSH1 0x20 DUP4 ADD MSTORE JUMPDEST PUSH2 0x100 DUP3 ADD MLOAD PUSH1 0x1 PUSH1 0x1 PUSH1 0x80 SHL SUB AND ISZERO PUSH2 0x1017 JUMPI PUSH1 0x0 DUP1 PUSH2 0xFF3 DUP4 PUSH1 0xC0 ADD MLOAD DUP6 PUSH2 0x100 ADD MLOAD DUP7 PUSH2 0x120 ADD MLOAD PUSH2 0x35C7 JUMP JUMPDEST PUSH1 0xC0 DUP7 ADD DUP1 MLOAD SWAP3 SWAP1 SWAP3 ADD SWAP1 SWAP2 MSTORE PUSH1 0xE0 DUP6 ADD DUP1 MLOAD SWAP1 SWAP2 ADD PUSH1 0x1 PUSH1 0x1 PUSH1 0x80 SHL SUB AND SWAP1 MSTORE POP POP JUMPDEST DUP1 PUSH1 0x60 ADD MLOAD PUSH1 0x1 PUSH1 0x1 PUSH1 0xA0 SHL SUB AND DUP3 PUSH1 0x40 ADD MLOAD PUSH1 0x1 PUSH1 0x1 PUSH1 0xA0 SHL SUB AND EQ ISZERO PUSH2 0x11A3 JUMPI DUP1 PUSH1 0x40 ADD MLOAD ISZERO PUSH2 0x117A JUMPI DUP4 PUSH1 0xA0 ADD MLOAD PUSH2 0x10A1 JUMPI PUSH2 0x107F DUP5 PUSH1 0x40 ADD MLOAD PUSH1 0x0 DUP8 PUSH1 0x20 ADD MLOAD DUP9 PUSH1 0x40 ADD MLOAD DUP9 PUSH1 0x0 ADD MLOAD DUP11 PUSH1 0x60 ADD MLOAD PUSH1 0x14 PUSH2 0x3668 SWAP1 SWAP7 SWAP6 SWAP5 SWAP4 SWAP3 SWAP2 SWAP1 PUSH4 0xFFFFFFFF AND JUMP JUMPDEST PUSH1 0x1 PUSH1 0x1 PUSH1 0xA0 SHL SUB AND PUSH1 0x80 DUP7 ADD MSTORE PUSH1 0x6 SWAP1 DUP2 SIGNEXTEND SWAP1 SIGNEXTEND PUSH1 0x60 DUP6 ADD MSTORE PUSH1 0x1 PUSH1 0xA0 DUP6 ADD MSTORE JUMPDEST DUP2 PUSH1 0xA0 ADD MLOAD PUSH2 0x10BA JUMPI PUSH2 0x10B2 PUSH2 0x37FA JUMP JUMPDEST PUSH1 0x1 PUSH1 0xA0 DUP4 ADD MSTORE JUMPDEST PUSH1 0x0 PUSH2 0x110A DUP3 PUSH1 0x20 ADD MLOAD DUP15 PUSH2 0x10D1 JUMPI PUSH1 0x7 SLOAD PUSH2 0x10D7 JUMP JUMPDEST DUP5 PUSH1 0xC0 ADD MLOAD JUMPDEST DUP16 PUSH2 0x10E6 JUMPI DUP6 PUSH1 0xC0 ADD MLOAD PUSH2 0x10EA JUMP JUMPDEST PUSH1 0x8 SLOAD JUMPDEST PUSH1 0x80 DUP10 ADD MLOAD PUSH1 0x60 DUP11 ADD MLOAD PUSH1 0x40 DUP12 ADD MLOAD PUSH1 0x9 SLOAD PUSH1 0x11 SWAP7 SWAP6 SWAP5 SWAP4 SWAP3 SWAP2 SWAP1 PUSH2 0x38B7 JUMP JUMPDEST SWAP1 POP DUP13 ISZERO PUSH2 0x1132 JUMPI DUP1 MLOAD PUSH1 0x0 SWAP1 DUP2 SUB PUSH1 0xF SWAP1 DUP2 SIGNEXTEND DUP2 SIGNEXTEND DUP4 MSTORE PUSH1 0x20 DUP4 ADD DUP1 MLOAD SWAP1 SWAP3 SUB DUP2 SIGNEXTEND SWAP1 SIGNEXTEND SWAP1 MSTORE JUMPDEST PUSH2 0x1145 DUP4 PUSH2 0x100 ADD MLOAD DUP3 PUSH1 0x0 ADD MLOAD PUSH2 0x39A2 JUMP JUMPDEST PUSH1 0x1 PUSH1 0x1 PUSH1 0x80 SHL SUB AND PUSH2 0x100 DUP5 ADD MSTORE PUSH2 0x120 DUP4 ADD MLOAD PUSH1 0x20 DUP3 ADD MLOAD PUSH2 0x1169 SWAP2 SWAP1 PUSH2 0x39A2 JUMP JUMPDEST PUSH1 0x1 PUSH1 0x1 PUSH1 0x80 SHL SUB AND PUSH2 0x120 DUP5 ADD MSTORE POP JUMPDEST DUP12 PUSH2 0x1189 JUMPI DUP1 PUSH1 0x20 ADD MLOAD PUSH2 0x1192 JUMP JUMPDEST PUSH1 0x1 DUP2 PUSH1 0x20 ADD MLOAD SUB JUMPDEST PUSH1 0x2 SWAP1 DUP2 SIGNEXTEND SWAP1 SIGNEXTEND PUSH1 0x60 DUP4 ADD MSTORE PUSH2 0x11DE JUMP JUMPDEST DUP1 PUSH1 0x0 ADD MLOAD PUSH1 0x1 PUSH1 0x1 PUSH1 0xA0 SHL SUB AND DUP3 PUSH1 0x40 ADD MLOAD PUSH1 0x1 PUSH1 0x1 PUSH1 0xA0 SHL SUB AND EQ PUSH2 0x11DE JUMPI PUSH2 0x11D1 DUP3 PUSH1 0x40 ADD MLOAD PUSH2 0x3A58 JUMP JUMPDEST PUSH1 0x2 SWAP1 DUP2 SIGNEXTEND SWAP1 SIGNEXTEND PUSH1 0x60 DUP4 ADD MSTORE JUMPDEST POP PUSH2 0xDF1 JUMP JUMPDEST DUP4 PUSH1 0x20 ADD MLOAD PUSH1 0x2 SIGNEXTEND DUP2 PUSH1 0x60 ADD MLOAD PUSH1 0x2 SIGNEXTEND EQ PUSH2 0x12B2 JUMPI PUSH1 0x0 DUP1 PUSH2 0x1232 DUP7 PUSH1 0x40 ADD MLOAD DUP7 PUSH1 0x40 ADD MLOAD DUP9 PUSH1 0x20 ADD MLOAD DUP9 PUSH1 0x0 ADD MLOAD DUP11 PUSH1 0x60 ADD MLOAD DUP12 PUSH1 0x80 ADD MLOAD PUSH1 0x14 PUSH2 0x3D73 SWAP1 SWAP7 SWAP6 SWAP5 SWAP4 SWAP3 SWAP2 SWAP1 PUSH4 0xFFFFFFFF AND JUMP JUMPDEST PUSH1 0x40 DUP6 ADD MLOAD PUSH1 0x60 DUP7 ADD MLOAD PUSH1 0x6 DUP1 SLOAD PUSH2 0xFFFF PUSH1 0xC8 SHL NOT AND PUSH1 0x1 PUSH1 0xC8 SHL PUSH2 0xFFFF SWAP6 DUP7 AND MUL OR PUSH2 0xFFFF PUSH1 0xB8 SHL NOT AND PUSH1 0x1 PUSH1 0xB8 SHL SWAP6 SWAP1 SWAP5 AND SWAP5 SWAP1 SWAP5 MUL SWAP3 SWAP1 SWAP3 OR PUSH3 0xFFFFFF PUSH1 0xA0 SHL NOT AND PUSH1 0x1 PUSH1 0xA0 SHL PUSH3 0xFFFFFF PUSH1 0x2 SWAP5 SWAP1 SWAP5 SIGNEXTEND SWAP4 SWAP1 SWAP4 AND SWAP3 SWAP1 SWAP3 MUL SWAP2 SWAP1 SWAP2 OR PUSH1 0x1 PUSH1 0x1 PUSH1 0xA0 SHL SUB NOT AND PUSH1 0x1 PUSH1 0x1 PUSH1 0xA0 SHL SUB SWAP1 SWAP2 AND OR SWAP1 SSTORE POP PUSH2 0x12D7 SWAP1 POP JUMP JUMPDEST PUSH1 0x40 DUP2 ADD MLOAD PUSH1 0x6 DUP1 SLOAD PUSH1 0x1 PUSH1 0x1 PUSH1 0xA0 SHL SUB NOT AND PUSH1 0x1 PUSH1 0x1 PUSH1 0xA0 SHL SUB SWAP1 SWAP3 AND SWAP2 SWAP1 SWAP2 OR SWAP1 SSTORE JUMPDEST DUP1 PUSH2 0x100 ADD MLOAD PUSH1 0x1 PUSH1 0x1 PUSH1 0x80 SHL SUB AND DUP4 PUSH1 0x0 ADD MLOAD PUSH1 0x1 PUSH1 0x1 PUSH1 0x80 SHL SUB AND EQ PUSH2 0x131F JUMPI PUSH2 0x100 DUP2 ADD MLOAD PUSH1 0x10 DUP1 SLOAD PUSH1 0x1 PUSH1 0x1 PUSH1 0x80 SHL SUB NOT AND PUSH1 0x1 PUSH1 0x1 PUSH1 0x80 SHL SUB SWAP1 SWAP3 AND SWAP2 SWAP1 SWAP2 OR SWAP1 SSTORE JUMPDEST DUP1 PUSH2 0x120 ADD MLOAD PUSH1 0x1 PUSH1 0x1 PUSH1 0x80 SHL SUB AND DUP4 PUSH1 0x20 ADD MLOAD PUSH1 0x1 PUSH1 0x1 PUSH1 0x80 SHL SUB AND EQ PUSH2 0x1367 JUMPI PUSH2 0x120 DUP2 ADD MLOAD PUSH1 0xF DUP1 SLOAD PUSH1 0x1 PUSH1 0x1 PUSH1 0x80 SHL SUB NOT AND PUSH1 0x1 PUSH1 0x1 PUSH1 0x80 SHL SUB SWAP1 SWAP3 AND SWAP2 SWAP1 SWAP2 OR SWAP1 SSTORE JUMPDEST DUP11 ISZERO PUSH2 0x13B7 JUMPI PUSH1 0xC0 DUP2 ADD MLOAD PUSH1 0x7 SSTORE PUSH1 0xE0 DUP2 ADD MLOAD PUSH1 0x1 PUSH1 0x1 PUSH1 0x80 SHL SUB AND ISZERO PUSH2 0x13B2 JUMPI PUSH1 0xE0 DUP2 ADD MLOAD PUSH1 0xA DUP1 SLOAD PUSH1 0x1 PUSH1 0x1 PUSH1 0x80 SHL SUB NOT DUP2 AND PUSH1 0x1 PUSH1 0x1 PUSH1 0x80 SHL SUB SWAP2 DUP3 AND SWAP1 SWAP4 ADD AND SWAP2 SWAP1 SWAP2 OR SWAP1 SSTORE JUMPDEST PUSH2 0x13FD JUMP JUMPDEST PUSH1 0xC0 DUP2 ADD MLOAD PUSH1 0x8 SSTORE PUSH1 0xE0 DUP2 ADD MLOAD PUSH1 0x1 PUSH1 0x1 PUSH1 0x80 SHL SUB AND ISZERO PUSH2 0x13FD JUMPI PUSH1 0xE0 DUP2 ADD MLOAD PUSH1 0xA DUP1 SLOAD PUSH1 0x1 PUSH1 0x1 PUSH1 0x80 SHL SUB DUP1 DUP3 AND PUSH1 0x1 PUSH1 0x80 SHL SWAP3 DUP4 SWAP1 DIV DUP3 AND SWAP1 SWAP5 ADD AND MUL SWAP2 SWAP1 SWAP2 OR SWAP1 SSTORE JUMPDEST DUP2 ISZERO ISZERO DUP12 ISZERO ISZERO EQ PUSH2 0x1416 JUMPI PUSH1 0x20 DUP2 ADD MLOAD DUP2 MLOAD DUP12 SUB PUSH2 0x1423 JUMP JUMPDEST DUP1 PUSH1 0x0 ADD MLOAD DUP11 SUB DUP2 PUSH1 0x20 ADD MLOAD JUMPDEST SWAP1 SWAP7 POP SWAP5 POP DUP11 ISZERO PUSH2 0x1549 JUMPI PUSH1 0x0 DUP6 SLT ISZERO PUSH2 0x1452 JUMPI PUSH1 0x2 SLOAD PUSH2 0x1452 SWAP1 PUSH1 0x1 PUSH1 0x1 PUSH1 0xA0 SHL SUB AND DUP14 PUSH1 0x0 DUP9 SWAP1 SUB PUSH2 0x3F0E JUMP JUMPDEST PUSH1 0x0 PUSH2 0x145C PUSH2 0x405C JUMP JUMPDEST SWAP1 POP CALLER PUSH1 0x1 PUSH1 0x1 PUSH1 0xA0 SHL SUB AND PUSH4 0xFA461E33 DUP9 DUP9 DUP13 DUP13 PUSH1 0x40 MLOAD DUP6 PUSH4 0xFFFFFFFF AND PUSH1 0xE0 SHL DUP2 MSTORE PUSH1 0x4 ADD DUP1 DUP6 DUP2 MSTORE PUSH1 0x20 ADD DUP5 DUP2 MSTORE PUSH1 0x20 ADD DUP1 PUSH1 0x20 ADD DUP3 DUP2 SUB DUP3 MSTORE DUP5 DUP5 DUP3 DUP2 DUP2 MSTORE PUSH1 0x20 ADD SWAP3 POP DUP1 DUP3 DUP5 CALLDATACOPY PUSH1 0x0 DUP2 DUP5 ADD MSTORE PUSH1 0x1F NOT PUSH1 0x1F DUP3 ADD AND SWAP1 POP DUP1 DUP4 ADD SWAP3 POP POP POP SWAP6 POP POP POP POP POP POP PUSH1 0x0 PUSH1 0x40 MLOAD DUP1 DUP4 SUB DUP2 PUSH1 0x0 DUP8 DUP1 EXTCODESIZE ISZERO DUP1 ISZERO PUSH2 0x14E0 JUMPI PUSH1 0x0 DUP1 REVERT JUMPDEST POP GAS CALL ISZERO DUP1 ISZERO PUSH2 0x14F4 JUMPI RETURNDATASIZE PUSH1 0x0 DUP1 RETURNDATACOPY RETURNDATASIZE PUSH1 0x0 REVERT JUMPDEST POP POP POP POP PUSH2 0x1500 PUSH2 0x405C JUMP JUMPDEST PUSH2 0x150A DUP3 DUP10 PUSH2 0x4177 JUMP JUMPDEST GT ISZERO PUSH2 0x1543 JUMPI PUSH1 0x40 DUP1 MLOAD PUSH3 0x461BCD PUSH1 0xE5 SHL DUP2 MSTORE PUSH1 0x20 PUSH1 0x4 DUP3 ADD MSTORE PUSH1 0x3 PUSH1 0x24 DUP3 ADD MSTORE PUSH3 0x494941 PUSH1 0xE8 SHL PUSH1 0x44 DUP3 ADD MSTORE SWAP1 MLOAD SWAP1 DUP2 SWAP1 SUB PUSH1 0x64 ADD SWAP1 REVERT JUMPDEST POP PUSH2 0x1660 JUMP JUMPDEST PUSH1 0x0 DUP7 SLT ISZERO PUSH2 0x156D JUMPI PUSH1 0x1 SLOAD PUSH2 0x156D SWAP1 PUSH1 0x1 PUSH1 0x1 PUSH1 0xA0 SHL SUB AND DUP14 PUSH1 0x0 DUP10 SWAP1 SUB PUSH2 0x3F0E JUMP JUMPDEST PUSH1 0x0 PUSH2 0x1577 PUSH2 0x4187 JUMP JUMPDEST SWAP1 POP CALLER PUSH1 0x1 PUSH1 0x1 PUSH1 0xA0 SHL SUB AND PUSH4 0xFA461E33 DUP9 DUP9 DUP13 DUP13 PUSH1 0x40 MLOAD DUP6 PUSH4 0xFFFFFFFF AND PUSH1 0xE0 SHL DUP2 MSTORE PUSH1 0x4 ADD DUP1 DUP6 DUP2 MSTORE PUSH1 0x20 ADD DUP5 DUP2 MSTORE PUSH1 0x20 ADD DUP1 PUSH1 0x20 ADD DUP3 DUP2 SUB DUP3 MSTORE DUP5 DUP5 DUP3 DUP2 DUP2 MSTORE PUSH1 0x20 ADD SWAP3 POP DUP1 DUP3 DUP5 CALLDATACOPY PUSH1 0x0 DUP2 DUP5 ADD MSTORE PUSH1 0x1F NOT PUSH1 0x1F DUP3 ADD AND SWAP1 POP DUP1 DUP4 ADD SWAP3 POP POP POP SWAP6 POP POP POP POP POP POP PUSH1 0x0 PUSH1 0x40 MLOAD DUP1 DUP4 SUB DUP2 PUSH1 0x0 DUP8 DUP1 EXTCODESIZE ISZERO DUP1 ISZERO PUSH2 0x15FB JUMPI PUSH1 0x0 DUP1 REVERT JUMPDEST POP GAS CALL ISZERO DUP1 ISZERO PUSH2 0x160F JUMPI RETURNDATASIZE PUSH1 0x0 DUP1 RETURNDATACOPY RETURNDATASIZE PUSH1 0x0 REVERT JUMPDEST POP POP POP POP PUSH2 0x161B PUSH2 0x4187 JUMP JUMPDEST PUSH2 0x1625 DUP3 DUP9 PUSH2 0x4177 JUMP JUMPDEST GT ISZERO PUSH2 0x165E JUMPI PUSH1 0x40 DUP1 MLOAD PUSH3 0x461BCD PUSH1 0xE5 SHL DUP2 MSTORE PUSH1 0x20 PUSH1 0x4 DUP3 ADD MSTORE PUSH1 0x3 PUSH1 0x24 DUP3 ADD MSTORE PUSH3 0x494941 PUSH1 0xE8 SHL PUSH1 0x44 DUP3 ADD MSTORE SWAP1 MLOAD SWAP1 DUP2 SWAP1 SUB PUSH1 0x64 ADD SWAP1 REVERT JUMPDEST POP JUMPDEST PUSH1 0x40 DUP1 DUP3 ADD MLOAD PUSH2 0x100 DUP4 ADD MLOAD PUSH1 0x60 DUP1 DUP6 ADD MLOAD DUP5 MLOAD DUP12 DUP2 MSTORE PUSH1 0x20 DUP2 ADD DUP12 SWAP1 MSTORE PUSH1 0x1 PUSH1 0x1 PUSH1 0xA0 SHL SUB SWAP5 DUP6 AND DUP2 DUP8 ADD MSTORE PUSH1 0x1 PUSH1 0x1 PUSH1 0x80 SHL SUB SWAP1 SWAP4 AND SWAP2 DUP4 ADD SWAP2 SWAP1 SWAP2 MSTORE PUSH1 0x2 SIGNEXTEND PUSH1 0x80 DUP3 ADD MSTORE SWAP2 MLOAD SWAP1 DUP15 AND SWAP2 CALLER SWAP2 PUSH32 0xC42079F94A6350D7E6235F29174924F928CC2AC818EB64FED8004E115FBCCA67 SWAP2 DUP2 SWAP1 SUB PUSH1 0xA0 ADD SWAP1 LOG3 POP POP PUSH1 0x6 DUP1 SLOAD PUSH1 0xFF PUSH1 0xE8 SHL NOT AND PUSH1 0x1 PUSH1 0xE8 SHL OR SWAP1 SSTORE POP SWAP2 SWAP9 SWAP1 SWAP8 POP SWAP6 POP POP POP POP POP POP JUMP JUMPDEST PUSH1 0x10 SLOAD PUSH1 0x1 PUSH1 0x1 PUSH1 0x80 SHL SUB AND DUP2 JUMP JUMPDEST PUSH1 0x6 SLOAD PUSH1 0x1 PUSH1 0xE8 SHL SWAP1 DIV PUSH1 0xFF AND PUSH2 0x1750 JUMPI PUSH1 0x40 DUP1 MLOAD PUSH3 0x461BCD PUSH1 0xE5 SHL DUP2 MSTORE PUSH1 0x20 PUSH1 0x4 DUP3 ADD MSTORE PUSH1 0x3 PUSH1 0x24 DUP3 ADD MSTORE PUSH3 0x4C4F4B PUSH1 0xE8 SHL PUSH1 0x44 DUP3 ADD MSTORE SWAP1 MLOAD SWAP1 DUP2 SWAP1 SUB PUSH1 0x64 ADD SWAP1 REVERT JUMPDEST PUSH1 0x6 DUP1 SLOAD PUSH1 0xFF PUSH1 0xE8 SHL NOT AND SWAP1 SSTORE PUSH1 0x3 SLOAD PUSH1 0x1 PUSH1 0x1 PUSH1 0xA0 SHL SUB AND CALLER EQ PUSH2 0x17A1 JUMPI PUSH1 0x40 DUP1 MLOAD PUSH3 0x461BCD PUSH1 0xE5 SHL DUP2 MSTORE PUSH1 0x20 PUSH1 0x4 DUP3 ADD MSTORE PUSH1 0x2 PUSH1 0x24 DUP3 ADD MSTORE PUSH2 0x4E47 PUSH1 0xF0 SHL PUSH1 0x44 DUP3 ADD MSTORE SWAP1 MLOAD SWAP1 DUP2 SWAP1 SUB PUSH1 0x64 ADD SWAP1 REVERT JUMPDEST PUSH2 0x17A9 PUSH2 0x37FA JUMP JUMPDEST PUSH1 0x6 DUP1 SLOAD PUSH1 0xFF PUSH1 0xE8 SHL NOT AND PUSH1 0x1 PUSH1 0xE8 SHL OR SWAP1 SSTORE JUMP JUMPDEST PUSH1 0x6 SLOAD PUSH1 0x1 PUSH1 0xE8 SHL SWAP1 DIV PUSH1 0xFF AND PUSH2 0x1802 JUMPI PUSH1 0x40 DUP1 MLOAD PUSH3 0x461BCD PUSH1 0xE5 SHL DUP2 MSTORE PUSH1 0x20 PUSH1 0x4 DUP3 ADD MSTORE PUSH1 0x3 PUSH1 0x24 DUP3 ADD MSTORE PUSH3 0x4C4F4B PUSH1 0xE8 SHL PUSH1 0x44 DUP3 ADD MSTORE SWAP1 MLOAD SWAP1 DUP2 SWAP1 SUB PUSH1 0x64 ADD SWAP1 REVERT JUMPDEST PUSH1 0x6 DUP1 SLOAD PUSH1 0xFF PUSH1 0xE8 SHL NOT AND SWAP1 SSTORE PUSH1 0x5 SLOAD PUSH1 0x0 DUP1 SLOAD PUSH1 0x40 DUP1 MLOAD PUSH4 0x1217AFDB PUSH1 0xE0 SHL DUP2 MSTORE PUSH1 0x1 PUSH1 0x1 PUSH1 0xA0 SHL SUB SWAP3 DUP4 AND PUSH1 0x4 DUP3 ADD MSTORE DUP2 MLOAD SWAP4 SWAP5 SWAP3 SWAP1 SWAP3 AND SWAP3 PUSH4 0x1217AFDB SWAP3 PUSH1 0x24 DUP1 DUP3 ADD SWAP4 SWAP3 SWAP2 DUP3 SWAP1 SUB ADD DUP2 DUP8 DUP8 DUP1 EXTCODESIZE ISZERO DUP1 ISZERO PUSH2 0x1860 JUMPI PUSH1 0x0 DUP1 REVERT JUMPDEST POP GAS CALL ISZERO DUP1 ISZERO PUSH2 0x1874 JUMPI RETURNDATASIZE PUSH1 0x0 DUP1 RETURNDATACOPY RETURNDATASIZE PUSH1 0x0 REVERT JUMPDEST POP POP POP POP PUSH1 0x40 MLOAD RETURNDATASIZE PUSH1 0x40 DUP2 LT ISZERO PUSH2 0x188A JUMPI PUSH1 0x0 DUP1 REVERT JUMPDEST POP PUSH1 0x20 ADD MLOAD SWAP1 POP CALLER PUSH1 0x1 PUSH1 0x1 PUSH1 0xA0 SHL SUB DUP3 AND EQ PUSH2 0x18D4 JUMPI PUSH1 0x40 DUP1 MLOAD PUSH3 0x461BCD PUSH1 0xE5 SHL DUP2 MSTORE PUSH1 0x20 PUSH1 0x4 DUP3 ADD MSTORE PUSH1 0x3 PUSH1 0x24 DUP3 ADD MSTORE PUSH3 0x2723A3 PUSH1 0xE9 SHL PUSH1 0x44 DUP3 ADD MSTORE SWAP1 MLOAD SWAP1 DUP2 SWAP1 SUB PUSH1 0x64 ADD SWAP1 REVERT JUMPDEST PUSH1 0x3 SLOAD PUSH1 0x1 PUSH1 0x1 PUSH1 0xA0 SHL SUB AND ISZERO PUSH2 0x18EA JUMPI PUSH1 0x0 DUP1 REVERT JUMPDEST POP PUSH1 0x3 DUP1 SLOAD PUSH1 0x1 PUSH1 0x1 PUSH1 0xA0 SHL SUB SWAP4 DUP5 AND PUSH1 0x1 PUSH1 0x1 PUSH1 0xA0 SHL SUB NOT SWAP2 DUP3 AND OR SWAP1 SWAP2 SSTORE PUSH1 0x4 DUP1 SLOAD SWAP3 SWAP1 SWAP4 AND SWAP2 AND OR SWAP1 SSTORE PUSH1 0x6 DUP1 SLOAD PUSH1 0xFF PUSH1 0xE8 SHL NOT AND PUSH1 0x1 PUSH1 0xE8 SHL OR SWAP1 SSTORE JUMP JUMPDEST PUSH1 0x0 SLOAD PUSH1 0x1 PUSH1 0x1 PUSH1 0xA0 SHL SUB AND ISZERO DUP1 ISZERO PUSH2 0x194D JUMPI POP PUSH1 0x1 PUSH1 0x1 PUSH1 0xA0 SHL SUB DUP7 AND ISZERO ISZERO JUMPDEST PUSH2 0x1956 JUMPI PUSH1 0x0 DUP1 REVERT JUMPDEST PUSH1 0x0 DUP1 SLOAD PUSH1 0x1 PUSH1 0x1 PUSH1 0xA0 SHL SUB DUP1 DUP10 AND PUSH1 0x1 PUSH1 0x1 PUSH1 0xA0 SHL SUB NOT SWAP3 DUP4 AND OR SWAP1 SWAP3 SSTORE PUSH1 0x1 DUP1 SLOAD DUP9 DUP5 AND SWAP1 DUP4 AND OR SWAP1 SSTORE PUSH1 0x2 DUP1 SLOAD DUP8 DUP5 AND SWAP1 DUP4 AND OR DUP2 SSTORE PUSH1 0xF DUP1 SLOAD SWAP2 DUP8 SWAP1 SIGNEXTEND PUSH3 0xFFFFFF AND PUSH1 0x1 PUSH1 0xA0 SHL MUL PUSH3 0xFFFFFF PUSH1 0xA0 SHL NOT SWAP1 SWAP3 AND SWAP2 SWAP1 SWAP2 OR SWAP1 SSTORE PUSH1 0x5 DUP1 SLOAD SWAP3 DUP6 AND SWAP3 SWAP1 SWAP2 AND SWAP2 SWAP1 SWAP2 OR SWAP1 SSTORE PUSH2 0x19CD DUP4 PUSH2 0x4201 JUMP JUMPDEST PUSH1 0x10 DUP1 SLOAD PUSH1 0x1 PUSH1 0x1 PUSH1 0x80 SHL SUB SWAP3 DUP4 AND PUSH1 0x1 PUSH1 0x80 SHL MUL SWAP3 AND SWAP2 SWAP1 SWAP2 OR SWAP1 SSTORE PUSH1 0x0 PUSH2 0x19F5 DUP3 PUSH2 0x3A58 JUMP JUMPDEST SWAP1 POP PUSH1 0x0 DUP1 PUSH2 0x1A0D PUSH2 0x1A05 PUSH2 0x2F16 JUMP JUMPDEST PUSH1 0x14 SWAP1 PUSH2 0x426D JUMP JUMPDEST PUSH1 0x40 DUP1 MLOAD PUSH1 0xC0 DUP2 ADD DUP3 MSTORE PUSH1 0x1 PUSH1 0x1 PUSH1 0xA0 SHL SUB DUP9 AND DUP1 DUP3 MSTORE PUSH1 0x2 DUP9 DUP2 SIGNEXTEND PUSH1 0x20 DUP1 DUP6 ADD DUP3 SWAP1 MSTORE PUSH1 0x0 DUP6 DUP8 ADD MSTORE PUSH2 0xFFFF DUP9 DUP2 AND PUSH1 0x60 DUP8 ADD DUP2 SWAP1 MSTORE SWAP1 DUP9 AND PUSH1 0x80 DUP8 ADD DUP2 SWAP1 MSTORE PUSH1 0x1 PUSH1 0xA0 SWAP1 SWAP8 ADD SWAP7 SWAP1 SWAP7 MSTORE PUSH1 0x6 DUP1 SLOAD PUSH1 0x1 PUSH1 0xE8 SHL PUSH1 0x1 PUSH1 0x1 PUSH1 0xA0 SHL SUB NOT SWAP1 SWAP2 AND DUP8 OR PUSH3 0xFFFFFF PUSH1 0xA0 SHL NOT AND PUSH1 0x1 PUSH1 0xA0 SHL PUSH3 0xFFFFFF SWAP8 DUP8 SWAP1 SIGNEXTEND SWAP8 SWAP1 SWAP8 AND SWAP7 SWAP1 SWAP7 MUL SWAP6 SWAP1 SWAP6 OR PUSH4 0xFFFFFFFF PUSH1 0xB8 SHL NOT AND PUSH1 0x1 PUSH1 0xC8 SHL SWAP1 SWAP3 MUL SWAP2 SWAP1 SWAP2 OR PUSH2 0xFFFF PUSH1 0xD8 SHL NOT AND PUSH1 0x1 PUSH1 0xD8 SHL SWAP1 SWAP7 MUL SWAP6 SWAP1 SWAP6 OR PUSH1 0xFF PUSH1 0xE8 SHL NOT AND SWAP3 SWAP1 SWAP3 OR SWAP1 SWAP4 SSTORE DUP4 MLOAD SWAP2 DUP3 MSTORE DUP2 ADD SWAP2 SWAP1 SWAP2 MSTORE DUP2 MLOAD SWAP4 SWAP6 POP SWAP2 SWAP4 POP PUSH32 0x98636036CB66A9C19A37435EFC1E90142190214E8ABEB821BDBA3F2990DD4C95 SWAP3 SWAP2 DUP3 SWAP1 SUB ADD SWAP1 LOG1 POP POP POP POP POP POP POP POP POP JUMP JUMPDEST PUSH1 0x14 DUP2 PUSH2 0xFFFF DUP2 LT PUSH2 0x1B22 JUMPI PUSH1 0x0 DUP1 REVERT JUMPDEST ADD SLOAD PUSH4 0xFFFFFFFF DUP2 AND SWAP2 POP PUSH1 0x1 PUSH1 0x20 SHL DUP2 DIV PUSH1 0x6 SIGNEXTEND SWAP1 PUSH1 0x1 PUSH1 0x58 SHL DUP2 DIV PUSH1 0x1 PUSH1 0x1 PUSH1 0xA0 SHL SUB AND SWAP1 PUSH1 0x1 PUSH1 0xF8 SHL SWAP1 DIV PUSH1 0xFF AND DUP5 JUMP JUMPDEST PUSH1 0xA SLOAD PUSH1 0x1 PUSH1 0x1 PUSH1 0x80 SHL SUB DUP1 DUP3 AND SWAP2 PUSH1 0x1 PUSH1 0x80 SHL SWAP1 DIV AND DUP3 JUMP JUMPDEST PUSH1 0x6 SLOAD PUSH1 0x0 SWAP1 DUP2 SWAP1 PUSH1 0x1 PUSH1 0xE8 SHL SWAP1 DIV PUSH1 0xFF AND PUSH2 0x1BB9 JUMPI PUSH1 0x40 DUP1 MLOAD PUSH3 0x461BCD PUSH1 0xE5 SHL DUP2 MSTORE PUSH1 0x20 PUSH1 0x4 DUP3 ADD MSTORE PUSH1 0x3 PUSH1 0x24 DUP3 ADD MSTORE PUSH3 0x4C4F4B PUSH1 0xE8 SHL PUSH1 0x44 DUP3 ADD MSTORE SWAP1 MLOAD SWAP1 DUP2 SWAP1 SUB PUSH1 0x64 ADD SWAP1 REVERT JUMPDEST PUSH1 0x6 DUP1 SLOAD PUSH1 0xFF PUSH1 0xE8 SHL NOT AND SWAP1 SSTORE PUSH1 0x4 SLOAD PUSH1 0x1 PUSH1 0x1 PUSH1 0xA0 SHL SUB AND CALLER EQ PUSH2 0x1C0E JUMPI PUSH1 0x40 DUP1 MLOAD PUSH3 0x461BCD PUSH1 0xE5 SHL DUP2 MSTORE PUSH1 0x20 PUSH1 0x4 DUP1 DUP4 ADD SWAP2 SWAP1 SWAP2 MSTORE PUSH1 0x24 DUP3 ADD MSTORE PUSH4 0x13939195 PUSH1 0xE2 SHL PUSH1 0x44 DUP3 ADD MSTORE SWAP1 MLOAD SWAP1 DUP2 SWAP1 SUB PUSH1 0x64 ADD SWAP1 REVERT JUMPDEST PUSH2 0x1C1C DUP9 DUP9 DUP9 DUP9 DUP9 DUP9 PUSH2 0x42B9 JUMP JUMPDEST PUSH1 0x6 DUP1 SLOAD PUSH1 0xFF PUSH1 0xE8 SHL NOT AND PUSH1 0x1 PUSH1 0xE8 SHL OR SWAP1 SSTORE SWAP1 SWAP10 SWAP1 SWAP9 POP SWAP7 POP POP POP POP POP POP POP JUMP JUMPDEST PUSH1 0x6 SLOAD PUSH1 0x1 PUSH1 0xE8 SHL SWAP1 DIV PUSH1 0xFF AND PUSH2 0x1C82 JUMPI PUSH1 0x40 DUP1 MLOAD PUSH3 0x461BCD PUSH1 0xE5 SHL DUP2 MSTORE PUSH1 0x20 PUSH1 0x4 DUP3 ADD MSTORE PUSH1 0x3 PUSH1 0x24 DUP3 ADD MSTORE PUSH3 0x4C4F4B PUSH1 0xE8 SHL PUSH1 0x44 DUP3 ADD MSTORE SWAP1 MLOAD SWAP1 DUP2 SWAP1 SUB PUSH1 0x64 ADD SWAP1 REVERT JUMPDEST PUSH1 0x6 DUP1 SLOAD PUSH1 0xFF PUSH1 0xE8 SHL NOT AND SWAP1 DUP2 SWAP1 SSTORE PUSH1 0x1 PUSH1 0xD8 SHL SWAP1 DIV PUSH2 0xFFFF AND PUSH1 0x0 PUSH2 0x1CAA PUSH1 0x14 DUP4 DUP6 PUSH2 0x444B JUMP JUMPDEST PUSH1 0x6 DUP1 SLOAD PUSH2 0xFFFF DUP1 DUP5 AND PUSH1 0x1 PUSH1 0xD8 SHL DUP2 MUL PUSH2 0xFFFF PUSH1 0xD8 SHL NOT SWAP1 SWAP4 AND SWAP3 SWAP1 SWAP3 OR SWAP1 SWAP3 SSTORE SWAP2 SWAP3 POP DUP4 AND EQ PUSH2 0x1D17 JUMPI PUSH1 0x40 DUP1 MLOAD PUSH2 0xFFFF DUP1 DUP6 AND DUP3 MSTORE DUP4 AND PUSH1 0x20 DUP3 ADD MSTORE DUP2 MLOAD PUSH32 0xAC49E518F90A358F652E4400164F05A5D8F7E35E7747279BC3A93DBF584E125A SWAP3 SWAP2 DUP2 SWAP1 SUB SWAP1 SWAP2 ADD SWAP1 LOG1 JUMPDEST POP POP PUSH1 0x6 DUP1 SLOAD PUSH1 0xFF PUSH1 0xE8 SHL NOT AND PUSH1 0x1 PUSH1 0xE8 SHL OR SWAP1 SSTORE POP JUMP JUMPDEST PUSH1 0x6 SLOAD PUSH1 0x1 PUSH1 0x1 PUSH1 0xA0 SHL SUB DUP2 AND SWAP1 PUSH1 0x1 PUSH1 0xA0 SHL DUP2 DIV PUSH1 0x2 SIGNEXTEND SWAP1 PUSH2 0xFFFF PUSH1 0x1 PUSH1 0xB8 SHL DUP3 DIV DUP2 AND SWAP2 PUSH1 0x1 PUSH1 0xC8 SHL DUP2 DIV DUP3 AND SWAP2 PUSH1 0x1 PUSH1 0xD8 SHL DUP3 DIV AND SWAP1 PUSH1 0xFF PUSH1 0x1 PUSH1 0xE8 SHL SWAP1 SWAP2 DIV AND DUP7 JUMP JUMPDEST PUSH1 0xF SLOAD PUSH1 0x1 PUSH1 0x1 PUSH1 0x80 SHL SUB AND DUP2 JUMP JUMPDEST PUSH1 0x5 SLOAD PUSH1 0x1 PUSH1 0x1 PUSH1 0xA0 SHL SUB AND DUP2 JUMP JUMPDEST PUSH1 0x6 SLOAD PUSH1 0x0 SWAP1 DUP2 SWAP1 PUSH1 0x1 PUSH1 0xE8 SHL SWAP1 DIV PUSH1 0xFF AND PUSH2 0x1DDD JUMPI PUSH1 0x40 DUP1 MLOAD PUSH3 0x461BCD PUSH1 0xE5 SHL DUP2 MSTORE PUSH1 0x20 PUSH1 0x4 DUP3 ADD MSTORE PUSH1 0x3 PUSH1 0x24 DUP3 ADD MSTORE PUSH3 0x4C4F4B PUSH1 0xE8 SHL PUSH1 0x44 DUP3 ADD MSTORE SWAP1 MLOAD SWAP1 DUP2 SWAP1 SUB PUSH1 0x64 ADD SWAP1 REVERT JUMPDEST PUSH1 0x6 DUP1 SLOAD PUSH1 0xFF PUSH1 0xE8 SHL NOT AND SWAP1 SSTORE PUSH1 0x1 PUSH1 0x1 PUSH1 0x80 SHL SUB DUP6 AND PUSH2 0x1DFD JUMPI PUSH1 0x0 DUP1 REVERT JUMPDEST PUSH1 0x0 DUP1 PUSH2 0x1E4B PUSH1 0x40 MLOAD DUP1 PUSH1 0x80 ADD PUSH1 0x40 MSTORE DUP1 DUP13 PUSH1 0x1 PUSH1 0x1 PUSH1 0xA0 SHL SUB AND DUP2 MSTORE PUSH1 0x20 ADD DUP12 PUSH1 0x2 SIGNEXTEND DUP2 MSTORE PUSH1 0x20 ADD DUP11 PUSH1 0x2 SIGNEXTEND DUP2 MSTORE PUSH1 0x20 ADD PUSH2 0x1E41 DUP11 PUSH1 0x1 PUSH1 0x1 PUSH1 0x80 SHL SUB AND PUSH2 0x44EE JUMP JUMPDEST PUSH1 0xF SIGNEXTEND SWAP1 MSTORE PUSH2 0x44FF JUMP JUMPDEST SWAP3 POP SWAP3 POP POP DUP2 SWAP4 POP DUP1 SWAP3 POP PUSH1 0x0 DUP1 PUSH1 0x0 DUP7 GT ISZERO PUSH2 0x1E6D JUMPI PUSH2 0x1E6A PUSH2 0x405C JUMP JUMPDEST SWAP2 POP JUMPDEST DUP5 ISZERO PUSH2 0x1E7E JUMPI PUSH2 0x1E7B PUSH2 0x4187 JUMP JUMPDEST SWAP1 POP JUMPDEST CALLER PUSH1 0x1 PUSH1 0x1 PUSH1 0xA0 SHL SUB AND PUSH4 0xD3487997 DUP8 DUP8 DUP12 DUP12 PUSH1 0x40 MLOAD DUP6 PUSH4 0xFFFFFFFF AND PUSH1 0xE0 SHL DUP2 MSTORE PUSH1 0x4 ADD DUP1 DUP6 DUP2 MSTORE PUSH1 0x20 ADD DUP5 DUP2 MSTORE PUSH1 0x20 ADD DUP1 PUSH1 0x20 ADD DUP3 DUP2 SUB DUP3 MSTORE DUP5 DUP5 DUP3 DUP2 DUP2 MSTORE PUSH1 0x20 ADD SWAP3 POP DUP1 DUP3 DUP5 CALLDATACOPY PUSH1 0x0 DUP2 DUP5 ADD MSTORE PUSH1 0x1F NOT PUSH1 0x1F DUP3 ADD AND SWAP1 POP DUP1 DUP4 ADD SWAP3 POP POP POP SWAP6 POP POP POP POP POP POP PUSH1 0x0 PUSH1 0x40 MLOAD DUP1 DUP4 SUB DUP2 PUSH1 0x0 DUP8 DUP1 EXTCODESIZE ISZERO DUP1 ISZERO PUSH2 0x1F00 JUMPI PUSH1 0x0 DUP1 REVERT JUMPDEST POP GAS CALL ISZERO DUP1 ISZERO PUSH2 0x1F14 JUMPI RETURNDATASIZE PUSH1 0x0 DUP1 RETURNDATACOPY RETURNDATASIZE PUSH1 0x0 REVERT JUMPDEST POP POP POP POP PUSH1 0x0 DUP7 GT ISZERO PUSH2 0x1F6B JUMPI PUSH2 0x1F29 PUSH2 0x405C JUMP JUMPDEST PUSH2 0x1F33 DUP4 DUP9 PUSH2 0x4177 JUMP JUMPDEST GT ISZERO PUSH2 0x1F6B JUMPI PUSH1 0x40 DUP1 MLOAD PUSH3 0x461BCD PUSH1 0xE5 SHL DUP2 MSTORE PUSH1 0x20 PUSH1 0x4 DUP3 ADD MSTORE PUSH1 0x2 PUSH1 0x24 DUP3 ADD MSTORE PUSH2 0x4D3 PUSH1 0xF4 SHL PUSH1 0x44 DUP3 ADD MSTORE SWAP1 MLOAD SWAP1 DUP2 SWAP1 SUB PUSH1 0x64 ADD SWAP1 REVERT JUMPDEST DUP5 ISZERO PUSH2 0x1FBB JUMPI PUSH2 0x1F79 PUSH2 0x4187 JUMP JUMPDEST PUSH2 0x1F83 DUP3 DUP8 PUSH2 0x4177 JUMP JUMPDEST GT ISZERO PUSH2 0x1FBB JUMPI PUSH1 0x40 DUP1 MLOAD PUSH3 0x461BCD PUSH1 0xE5 SHL DUP2 MSTORE PUSH1 0x20 PUSH1 0x4 DUP3 ADD MSTORE PUSH1 0x2 PUSH1 0x24 DUP3 ADD MSTORE PUSH2 0x4D31 PUSH1 0xF0 SHL PUSH1 0x44 DUP3 ADD MSTORE SWAP1 MLOAD SWAP1 DUP2 SWAP1 SUB PUSH1 0x64 ADD SWAP1 REVERT JUMPDEST DUP10 PUSH1 0x2 SIGNEXTEND DUP12 PUSH1 0x2 SIGNEXTEND DUP14 PUSH1 0x1 PUSH1 0x1 PUSH1 0xA0 SHL SUB AND PUSH32 0x7A53080BA414158BE7EC69B987B5FB7D07DEE101FE85488F0853AE16239D0BDE CALLER DUP14 DUP12 DUP12 PUSH1 0x40 MLOAD DUP1 DUP6 PUSH1 0x1 PUSH1 0x1 PUSH1 0xA0 SHL SUB AND DUP2 MSTORE PUSH1 0x20 ADD DUP5 PUSH1 0x1 PUSH1 0x1 PUSH1 0x80 SHL SUB AND DUP2 MSTORE PUSH1 0x20 ADD DUP4 DUP2 MSTORE PUSH1 0x20 ADD DUP3 DUP2 MSTORE PUSH1 0x20 ADD SWAP5 POP POP POP POP POP PUSH1 0x40 MLOAD DUP1 SWAP2 SUB SWAP1 LOG4 POP POP PUSH1 0x6 DUP1 SLOAD PUSH1 0xFF PUSH1 0xE8 SHL NOT AND PUSH1 0x1 PUSH1 0xE8 SHL OR SWAP1 SSTORE POP SWAP2 SWAP9 SWAP1 SWAP8 POP SWAP6 POP POP POP POP POP POP JUMP JUMPDEST PUSH1 0x8 SLOAD DUP2 JUMP JUMPDEST PUSH1 0x4 SLOAD PUSH1 0x1 PUSH1 0x1 PUSH1 0xA0 SHL SUB AND DUP2 JUMP JUMPDEST PUSH1 0x6 SLOAD PUSH1 0x1 PUSH1 0xE8 SHL SWAP1 DIV PUSH1 0xFF AND PUSH2 0x20AB JUMPI PUSH1 0x40 DUP1 MLOAD PUSH3 0x461BCD PUSH1 0xE5 SHL DUP2 MSTORE PUSH1 0x20 PUSH1 0x4 DUP3 ADD MSTORE PUSH1 0x3 PUSH1 0x24 DUP3 ADD MSTORE PUSH3 0x4C4F4B PUSH1 0xE8 SHL PUSH1 0x44 DUP3 ADD MSTORE SWAP1 MLOAD SWAP1 DUP2 SWAP1 SUB PUSH1 0x64 ADD SWAP1 REVERT JUMPDEST PUSH1 0x6 DUP1 SLOAD PUSH1 0xFF PUSH1 0xE8 SHL NOT AND SWAP1 SSTORE PUSH1 0x10 SLOAD PUSH1 0x1 PUSH1 0x1 PUSH1 0x80 SHL SUB AND DUP1 PUSH2 0x20FA JUMPI PUSH1 0x40 DUP1 MLOAD PUSH3 0x461BCD PUSH1 0xE5 SHL DUP2 MSTORE PUSH1 0x20 PUSH1 0x4 DUP3 ADD MSTORE PUSH1 0x1 PUSH1 0x24 DUP3 ADD MSTORE PUSH1 0x13 PUSH1 0xFA SHL PUSH1 0x44 DUP3 ADD MSTORE SWAP1 MLOAD SWAP1 DUP2 SWAP1 SUB PUSH1 0x64 ADD SWAP1 REVERT JUMPDEST PUSH1 0x0 PUSH2 0x2116 DUP7 PUSH2 0x2108 PUSH2 0x2E44 JUMP JUMPDEST PUSH3 0xFFFFFF AND PUSH3 0xF4240 PUSH2 0x4728 JUMP JUMPDEST SWAP1 POP PUSH1 0x0 PUSH2 0x2126 DUP7 PUSH2 0x2108 PUSH2 0x2E44 JUMP JUMPDEST SWAP1 POP PUSH1 0x0 PUSH2 0x2132 PUSH2 0x405C JUMP JUMPDEST SWAP1 POP PUSH1 0x0 PUSH2 0x213E PUSH2 0x4187 JUMP JUMPDEST SWAP1 POP DUP9 ISZERO PUSH2 0x215D JUMPI PUSH1 0x1 SLOAD PUSH2 0x215D SWAP1 PUSH1 0x1 PUSH1 0x1 PUSH1 0xA0 SHL SUB AND DUP12 DUP12 PUSH2 0x3F0E JUMP JUMPDEST DUP8 ISZERO PUSH2 0x217A JUMPI PUSH1 0x2 SLOAD PUSH2 0x217A SWAP1 PUSH1 0x1 PUSH1 0x1 PUSH1 0xA0 SHL SUB AND DUP12 DUP11 PUSH2 0x3F0E JUMP JUMPDEST CALLER PUSH1 0x1 PUSH1 0x1 PUSH1 0xA0 SHL SUB AND PUSH4 0xE9CBAFB0 DUP6 DUP6 DUP11 DUP11 PUSH1 0x40 MLOAD DUP6 PUSH4 0xFFFFFFFF AND PUSH1 0xE0 SHL DUP2 MSTORE PUSH1 0x4 ADD DUP1 DUP6 DUP2 MSTORE PUSH1 0x20 ADD DUP5 DUP2 MSTORE PUSH1 0x20 ADD DUP1 PUSH1 0x20 ADD DUP3 DUP2 SUB DUP3 MSTORE DUP5 DUP5 DUP3 DUP2 DUP2 MSTORE PUSH1 0x20 ADD SWAP3 POP DUP1 DUP3 DUP5 CALLDATACOPY PUSH1 0x0 DUP2 DUP5 ADD MSTORE PUSH1 0x1F NOT PUSH1 0x1F DUP3 ADD AND SWAP1 POP DUP1 DUP4 ADD SWAP3 POP POP POP SWAP6 POP POP POP POP POP POP PUSH1 0x0 PUSH1 0x40 MLOAD DUP1 DUP4 SUB DUP2 PUSH1 0x0 DUP8 DUP1 EXTCODESIZE ISZERO DUP1 ISZERO PUSH2 0x21FC JUMPI PUSH1 0x0 DUP1 REVERT JUMPDEST POP GAS CALL ISZERO DUP1 ISZERO PUSH2 0x2210 JUMPI RETURNDATASIZE PUSH1 0x0 DUP1 RETURNDATACOPY RETURNDATASIZE PUSH1 0x0 REVERT JUMPDEST POP POP POP POP PUSH1 0x0 PUSH2 0x221E PUSH2 0x405C JUMP JUMPDEST SWAP1 POP PUSH1 0x0 PUSH2 0x222A PUSH2 0x4187 JUMP JUMPDEST SWAP1 POP DUP2 PUSH2 0x2237 DUP6 DUP9 PUSH2 0x4177 JUMP JUMPDEST GT ISZERO PUSH2 0x226F JUMPI PUSH1 0x40 DUP1 MLOAD PUSH3 0x461BCD PUSH1 0xE5 SHL DUP2 MSTORE PUSH1 0x20 PUSH1 0x4 DUP3 ADD MSTORE PUSH1 0x2 PUSH1 0x24 DUP3 ADD MSTORE PUSH2 0x463 PUSH1 0xF4 SHL PUSH1 0x44 DUP3 ADD MSTORE SWAP1 MLOAD SWAP1 DUP2 SWAP1 SUB PUSH1 0x64 ADD SWAP1 REVERT JUMPDEST DUP1 PUSH2 0x227A DUP5 DUP8 PUSH2 0x4177 JUMP JUMPDEST GT ISZERO PUSH2 0x22B2 JUMPI PUSH1 0x40 DUP1 MLOAD PUSH3 0x461BCD PUSH1 0xE5 SHL DUP2 MSTORE PUSH1 0x20 PUSH1 0x4 DUP3 ADD MSTORE PUSH1 0x2 PUSH1 0x24 DUP3 ADD MSTORE PUSH2 0x4631 PUSH1 0xF0 SHL PUSH1 0x44 DUP3 ADD MSTORE SWAP1 MLOAD SWAP1 DUP2 SWAP1 SUB PUSH1 0x64 ADD SWAP1 REVERT JUMPDEST DUP4 DUP3 SUB DUP4 DUP3 SUB DUP2 ISZERO PUSH2 0x2324 JUMPI PUSH1 0xF SLOAD PUSH1 0x0 SWAP1 DUP2 SWAP1 PUSH2 0x22DC SWAP1 DUP6 SWAP1 DUP14 SWAP1 PUSH1 0x1 PUSH1 0x1 PUSH1 0x80 SHL SUB AND PUSH2 0x35C7 JUMP JUMPDEST SWAP1 SWAP3 POP SWAP1 POP DUP2 ISZERO PUSH2 0x22F0 JUMPI PUSH1 0x7 DUP1 SLOAD DUP4 ADD SWAP1 SSTORE JUMPDEST PUSH1 0x1 PUSH1 0x1 PUSH1 0x80 SHL SUB DUP2 AND ISZERO PUSH2 0x2321 JUMPI PUSH1 0xA DUP1 SLOAD PUSH1 0x1 PUSH1 0x1 PUSH1 0x80 SHL SUB DUP1 DUP3 AND DUP5 ADD AND PUSH1 0x1 PUSH1 0x1 PUSH1 0x80 SHL SUB NOT SWAP1 SWAP2 AND OR SWAP1 SSTORE JUMPDEST POP POP JUMPDEST DUP1 ISZERO PUSH2 0x238F JUMPI PUSH1 0xF SLOAD PUSH1 0x0 SWAP1 DUP2 SWAP1 PUSH2 0x2348 SWAP1 DUP5 SWAP1 DUP14 SWAP1 PUSH1 0x1 PUSH1 0x1 PUSH1 0x80 SHL SUB AND PUSH2 0x35C7 JUMP JUMPDEST SWAP1 SWAP3 POP SWAP1 POP DUP2 ISZERO PUSH2 0x235C JUMPI PUSH1 0x8 DUP1 SLOAD DUP4 ADD SWAP1 SSTORE JUMPDEST PUSH1 0x1 PUSH1 0x1 PUSH1 0x80 SHL SUB DUP2 AND ISZERO PUSH2 0x238C JUMPI PUSH1 0xA DUP1 SLOAD PUSH1 0x1 PUSH1 0x1 PUSH1 0x80 SHL SUB PUSH1 0x1 PUSH1 0x80 SHL DUP1 DUP4 DIV DUP3 AND DUP6 ADD DUP3 AND MUL SWAP2 AND OR SWAP1 SSTORE JUMPDEST POP POP JUMPDEST DUP14 PUSH1 0x1 PUSH1 0x1 PUSH1 0xA0 SHL SUB AND CALLER PUSH1 0x1 PUSH1 0x1 PUSH1 0xA0 SHL SUB AND PUSH32 0xBDBDB71D7860376BA52B25A5028BEEA23581364A40522F6BCFB86BB1F2DCA633 DUP16 DUP16 DUP7 DUP7 PUSH1 0x40 MLOAD DUP1 DUP6 DUP2 MSTORE PUSH1 0x20 ADD DUP5 DUP2 MSTORE PUSH1 0x20 ADD DUP4 DUP2 MSTORE PUSH1 0x20 ADD DUP3 DUP2 MSTORE PUSH1 0x20 ADD SWAP5 POP POP POP POP POP PUSH1 0x40 MLOAD DUP1 SWAP2 SUB SWAP1 LOG3 POP POP PUSH1 0x6 DUP1 SLOAD PUSH1 0xFF PUSH1 0xE8 SHL NOT AND PUSH1 0x1 PUSH1 0xE8 SHL OR SWAP1 SSTORE POP POP POP POP POP POP POP POP POP POP POP POP JUMP JUMPDEST PUSH1 0x6 SLOAD PUSH1 0x1 PUSH1 0xE8 SHL SWAP1 DIV PUSH1 0xFF AND PUSH2 0x2459 JUMPI PUSH1 0x40 DUP1 MLOAD PUSH3 0x461BCD PUSH1 0xE5 SHL DUP2 MSTORE PUSH1 0x20 PUSH1 0x4 DUP3 ADD MSTORE PUSH1 0x3 PUSH1 0x24 DUP3 ADD MSTORE PUSH3 0x4C4F4B PUSH1 0xE8 SHL PUSH1 0x44 DUP3 ADD MSTORE SWAP1 MLOAD SWAP1 DUP2 SWAP1 SUB PUSH1 0x64 ADD SWAP1 REVERT JUMPDEST PUSH1 0x6 DUP1 SLOAD PUSH1 0xFF PUSH1 0xE8 SHL NOT AND SWAP1 SSTORE PUSH1 0x3 SLOAD PUSH1 0x1 PUSH1 0x1 PUSH1 0xA0 SHL SUB AND CALLER EQ PUSH2 0x24AA JUMPI PUSH1 0x40 DUP1 MLOAD PUSH3 0x461BCD PUSH1 0xE5 SHL DUP2 MSTORE PUSH1 0x20 PUSH1 0x4 DUP3 ADD MSTORE PUSH1 0x2 PUSH1 0x24 DUP3 ADD MSTORE PUSH2 0x4E47 PUSH1 0xF0 SHL PUSH1 0x44 DUP3 ADD MSTORE SWAP1 MLOAD SWAP1 DUP2 SWAP1 SUB PUSH1 0x64 ADD SWAP1 REVERT JUMPDEST PUSH1 0x6 SLOAD PUSH1 0x1 PUSH1 0xA0 SHL SWAP1 DIV PUSH1 0x2 SWAP1 DUP2 SIGNEXTEND SWAP1 DUP5 DUP2 SIGNEXTEND SWAP1 DUP3 SWAP1 SIGNEXTEND SLT DUP1 ISZERO SWAP1 PUSH2 0x24D4 JUMPI POP DUP3 PUSH1 0x2 SIGNEXTEND DUP2 PUSH1 0x2 SIGNEXTEND SLT JUMPDEST ISZERO PUSH2 0x2518 JUMPI PUSH2 0x24E1 PUSH2 0x37FA JUMP JUMPDEST PUSH1 0xF SLOAD PUSH2 0x24F7 SWAP1 PUSH1 0x1 PUSH1 0x1 PUSH1 0x80 SHL SUB AND DUP7 PUSH2 0x39A2 JUMP JUMPDEST PUSH1 0xF DUP1 SLOAD PUSH1 0x1 PUSH1 0x1 PUSH1 0x80 SHL SUB NOT AND PUSH1 0x1 PUSH1 0x1 PUSH1 0x80 SHL SUB SWAP3 SWAP1 SWAP3 AND SWAP2 SWAP1 SWAP2 OR SWAP1 SSTORE JUMPDEST DUP2 ISZERO PUSH2 0x25AB JUMPI PUSH1 0x4 SLOAD PUSH1 0x0 SWAP1 PUSH2 0x253B SWAP1 PUSH1 0x13 SWAP1 PUSH1 0x1 PUSH1 0x1 PUSH1 0xA0 SHL SUB AND DUP8 DUP8 PUSH2 0x4762 JUMP JUMPDEST PUSH1 0x3 SLOAD SWAP1 SWAP2 POP PUSH1 0x0 SWAP1 PUSH2 0x255B SWAP1 PUSH1 0x13 SWAP1 PUSH1 0x1 PUSH1 0x1 PUSH1 0xA0 SHL SUB AND DUP9 DUP9 PUSH2 0x4762 JUMP JUMPDEST SWAP1 POP PUSH1 0x0 DUP1 PUSH2 0x2580 DUP9 DUP9 DUP8 PUSH1 0x7 SLOAD PUSH1 0x8 SLOAD PUSH1 0x11 PUSH2 0x47C6 SWAP1 SWAP6 SWAP5 SWAP4 SWAP3 SWAP2 SWAP1 PUSH4 0xFFFFFFFF AND JUMP JUMPDEST SWAP1 SWAP3 POP SWAP1 POP PUSH2 0x2598 DUP5 PUSH1 0x0 DUP12 DUP2 SUB SWAP1 DUP6 SWAP1 DUP6 SWAP1 PUSH2 0x4872 JUMP JUMPDEST PUSH2 0x25A6 DUP4 DUP11 DUP5 DUP5 PUSH1 0x1 PUSH2 0x4872 JUMP JUMPDEST POP POP POP POP JUMPDEST PUSH1 0x2 DUP5 DUP2 SIGNEXTEND SWAP1 SIGNEXTEND PUSH1 0x0 SWAP1 DUP2 MSTORE PUSH1 0x11 PUSH1 0x20 MSTORE PUSH1 0x40 SWAP1 KECCAK256 PUSH1 0x5 ADD SLOAD PUSH1 0x1 PUSH1 0xF8 SHL SWAP1 DIV PUSH1 0xFF AND ISZERO PUSH2 0x25E1 JUMPI PUSH2 0x25E1 PUSH1 0x11 DUP6 DUP8 PUSH1 0x0 PUSH2 0x4A0D JUMP JUMPDEST PUSH1 0x2 DUP4 DUP2 SIGNEXTEND SWAP1 SIGNEXTEND PUSH1 0x0 SWAP1 DUP2 MSTORE PUSH1 0x11 PUSH1 0x20 MSTORE PUSH1 0x40 SWAP1 KECCAK256 PUSH1 0x5 ADD SLOAD PUSH1 0x1 PUSH1 0xF8 SHL SWAP1 DIV PUSH1 0xFF AND ISZERO PUSH2 0x2617 JUMPI PUSH2 0x2617 PUSH1 0x11 DUP5 DUP8 PUSH1 0x1 PUSH2 0x4A0D JUMP JUMPDEST POP POP PUSH1 0x6 DUP1 SLOAD PUSH1 0xFF PUSH1 0xE8 SHL NOT AND PUSH1 0x1 PUSH1 0xE8 SHL OR SWAP1 SSTORE POP POP POP JUMP JUMPDEST PUSH1 0x6 SLOAD PUSH1 0x0 SWAP1 DUP2 SWAP1 PUSH1 0x1 PUSH1 0xE8 SHL SWAP1 DIV PUSH1 0xFF AND PUSH2 0x267A JUMPI PUSH1 0x40 DUP1 MLOAD PUSH3 0x461BCD PUSH1 0xE5 SHL DUP2 MSTORE PUSH1 0x20 PUSH1 0x4 DUP3 ADD MSTORE PUSH1 0x3 PUSH1 0x24 DUP3 ADD MSTORE PUSH3 0x4C4F4B PUSH1 0xE8 SHL PUSH1 0x44 DUP3 ADD MSTORE SWAP1 MLOAD SWAP1 DUP2 SWAP1 SUB PUSH1 0x64 ADD SWAP1 REVERT JUMPDEST PUSH1 0x6 DUP1 SLOAD PUSH1 0xFF PUSH1 0xE8 SHL NOT AND SWAP1 SSTORE PUSH2 0x2695 DUP8 DUP8 DUP8 DUP8 DUP8 CALLER PUSH2 0x42B9 JUMP JUMPDEST PUSH1 0x6 DUP1 SLOAD PUSH1 0xFF PUSH1 0xE8 SHL NOT AND PUSH1 0x1 PUSH1 0xE8 SHL OR SWAP1 SSTORE SWAP1 SWAP9 SWAP1 SWAP8 POP SWAP6 POP POP POP POP POP POP JUMP JUMPDEST PUSH1 0x13 PUSH1 0x20 MSTORE PUSH1 0x0 SWAP1 DUP2 MSTORE PUSH1 0x40 SWAP1 KECCAK256 DUP1 SLOAD PUSH1 0x1 DUP3 ADD SLOAD PUSH1 0x2 DUP4 ADD SLOAD PUSH1 0x3 SWAP1 SWAP4 ADD SLOAD PUSH1 0x1 PUSH1 0x1 PUSH1 0x80 SHL SUB SWAP3 DUP4 AND SWAP4 SWAP2 SWAP3 DUP2 DUP2 AND SWAP2 PUSH1 0x1 PUSH1 0x80 SHL SWAP1 DIV AND DUP6 JUMP JUMPDEST PUSH1 0x12 PUSH1 0x20 MSTORE PUSH1 0x0 SWAP1 DUP2 MSTORE PUSH1 0x40 SWAP1 KECCAK256 SLOAD DUP2 JUMP JUMPDEST PUSH1 0x9 SLOAD DUP2 JUMP JUMPDEST PUSH1 0x6 SLOAD PUSH1 0x1 PUSH1 0xE8 SHL SWAP1 DIV PUSH1 0xFF AND PUSH2 0x274F JUMPI PUSH1 0x40 DUP1 MLOAD PUSH3 0x461BCD PUSH1 0xE5 SHL DUP2 MSTORE PUSH1 0x20 PUSH1 0x4 DUP3 ADD MSTORE PUSH1 0x3 PUSH1 0x24 DUP3 ADD MSTORE PUSH3 0x4C4F4B PUSH1 0xE8 SHL PUSH1 0x44 DUP3 ADD MSTORE SWAP1 MLOAD SWAP1 DUP2 SWAP1 SUB PUSH1 0x64 ADD SWAP1 REVERT JUMPDEST PUSH1 0x6 DUP1 SLOAD PUSH1 0xFF PUSH1 0xE8 SHL NOT AND SWAP1 SSTORE PUSH1 0x3 SLOAD PUSH1 0x1 PUSH1 0x1 PUSH1 0xA0 SHL SUB AND CALLER EQ PUSH2 0x27A0 JUMPI PUSH1 0x40 DUP1 MLOAD PUSH3 0x461BCD PUSH1 0xE5 SHL DUP2 MSTORE PUSH1 0x20 PUSH1 0x4 DUP3 ADD MSTORE PUSH1 0x2 PUSH1 0x24 DUP3 ADD MSTORE PUSH2 0x4E47 PUSH1 0xF0 SHL PUSH1 0x44 DUP3 ADD MSTORE SWAP1 MLOAD SWAP1 DUP2 SWAP1 SUB PUSH1 0x64 ADD SWAP1 REVERT JUMPDEST PUSH1 0xB SWAP3 SWAP1 SWAP3 SSTORE PUSH1 0xC SSTORE PUSH1 0xD SSTORE PUSH1 0x0 PUSH1 0xE SSTORE PUSH1 0x6 DUP1 SLOAD PUSH1 0xFF PUSH1 0xE8 SHL NOT AND PUSH1 0x1 PUSH1 0xE8 SHL OR SWAP1 SSTORE JUMP JUMPDEST PUSH1 0x6 SLOAD PUSH1 0x0 SWAP1 DUP2 SWAP1 PUSH1 0x1 PUSH1 0xE8 SHL SWAP1 DIV PUSH1 0xFF AND PUSH2 0x280F JUMPI PUSH1 0x40 DUP1 MLOAD PUSH3 0x461BCD PUSH1 0xE5 SHL DUP2 MSTORE PUSH1 0x20 PUSH1 0x4 DUP3 ADD MSTORE PUSH1 0x3 PUSH1 0x24 DUP3 ADD MSTORE PUSH3 0x4C4F4B PUSH1 0xE8 SHL PUSH1 0x44 DUP3 ADD MSTORE SWAP1 MLOAD SWAP1 DUP2 SWAP1 SUB PUSH1 0x64 ADD SWAP1 REVERT JUMPDEST PUSH1 0x6 DUP1 SLOAD PUSH1 0xFF PUSH1 0xE8 SHL NOT AND SWAP1 SSTORE PUSH1 0x4 SLOAD PUSH1 0x1 PUSH1 0x1 PUSH1 0xA0 SHL SUB AND CALLER EQ PUSH2 0x2864 JUMPI PUSH1 0x40 DUP1 MLOAD PUSH3 0x461BCD PUSH1 0xE5 SHL DUP2 MSTORE PUSH1 0x20 PUSH1 0x4 DUP1 DUP4 ADD SWAP2 SWAP1 SWAP2 MSTORE PUSH1 0x24 DUP3 ADD MSTORE PUSH4 0x13939195 PUSH1 0xE2 SHL PUSH1 0x44 DUP3 ADD MSTORE SWAP1 MLOAD SWAP1 DUP2 SWAP1 SUB PUSH1 0x64 ADD SWAP1 REVERT JUMPDEST PUSH2 0x2870 DUP7 DUP7 DUP7 DUP7 PUSH2 0x4A99 JUMP JUMPDEST PUSH1 0x6 DUP1 SLOAD PUSH1 0xFF PUSH1 0xE8 SHL NOT AND PUSH1 0x1 PUSH1 0xE8 SHL OR SWAP1 SSTORE SWAP1 SWAP8 SWAP1 SWAP7 POP SWAP5 POP POP POP POP POP JUMP JUMPDEST PUSH1 0x10 SLOAD PUSH1 0x1 PUSH1 0x80 SHL SWAP1 DIV PUSH1 0x1 PUSH1 0x1 PUSH1 0x80 SHL SUB AND DUP2 JUMP JUMPDEST PUSH1 0xB SLOAD DUP2 JUMP JUMPDEST PUSH1 0x60 DUP1 PUSH2 0x2929 PUSH2 0x28BA PUSH2 0x2F16 JUMP JUMPDEST DUP6 DUP6 DUP1 DUP1 PUSH1 0x20 MUL PUSH1 0x20 ADD PUSH1 0x40 MLOAD SWAP1 DUP2 ADD PUSH1 0x40 MSTORE DUP1 SWAP4 SWAP3 SWAP2 SWAP1 DUP2 DUP2 MSTORE PUSH1 0x20 ADD DUP4 DUP4 PUSH1 0x20 MUL DUP1 DUP3 DUP5 CALLDATACOPY PUSH1 0x0 SWAP3 ADD SWAP2 SWAP1 SWAP2 MSTORE POP POP PUSH1 0x6 SLOAD PUSH1 0x10 SLOAD PUSH1 0x14 SWAP6 SWAP5 SWAP4 POP PUSH1 0x1 PUSH1 0xA0 SHL DUP3 DIV PUSH1 0x2 SIGNEXTEND SWAP3 POP PUSH2 0xFFFF PUSH1 0x1 PUSH1 0xB8 SHL DUP4 DIV DUP2 AND SWAP3 PUSH1 0x1 PUSH1 0x1 PUSH1 0x80 SHL SUB SWAP1 SWAP3 AND SWAP2 PUSH1 0x1 PUSH1 0xC8 SHL SWAP1 DIV AND PUSH2 0x4BBD JUMP JUMPDEST SWAP2 POP SWAP2 POP SWAP3 POP SWAP3 SWAP1 POP JUMP JUMPDEST PUSH1 0x0 PUSH2 0x2940 DUP5 DUP5 PUSH2 0x4D17 JUMP JUMPDEST DUP2 PUSH2 0x294B JUMPI PUSH1 0x9 SLOAD SWAP2 POP JUMPDEST PUSH1 0x6 SLOAD PUSH2 0x2969 SWAP1 PUSH1 0x11 SWAP1 DUP7 SWAP1 DUP7 SWAP1 PUSH1 0x1 PUSH1 0xA0 SHL SWAP1 DIV PUSH1 0x2 SIGNEXTEND DUP7 PUSH2 0x4DE0 JUMP JUMPDEST SWAP1 POP JUMPDEST SWAP4 SWAP3 POP POP POP JUMP JUMPDEST PUSH1 0x6 SLOAD PUSH1 0x0 SWAP1 DUP2 SWAP1 PUSH1 0x1 PUSH1 0xE8 SHL SWAP1 DIV PUSH1 0xFF AND PUSH2 0x29BC JUMPI PUSH1 0x40 DUP1 MLOAD PUSH3 0x461BCD PUSH1 0xE5 SHL DUP2 MSTORE PUSH1 0x20 PUSH1 0x4 DUP3 ADD MSTORE PUSH1 0x3 PUSH1 0x24 DUP3 ADD MSTORE PUSH3 0x4C4F4B PUSH1 0xE8 SHL PUSH1 0x44 DUP3 ADD MSTORE SWAP1 MLOAD SWAP1 DUP2 SWAP1 SUB PUSH1 0x64 ADD SWAP1 REVERT JUMPDEST PUSH1 0x6 DUP1 SLOAD PUSH1 0xFF PUSH1 0xE8 SHL NOT AND SWAP1 SSTORE PUSH2 0x29D5 DUP6 DUP6 DUP6 CALLER PUSH2 0x4A99 JUMP JUMPDEST PUSH1 0x6 DUP1 SLOAD PUSH1 0xFF PUSH1 0xE8 SHL NOT AND PUSH1 0x1 PUSH1 0xE8 SHL OR SWAP1 SSTORE SWAP1 SWAP7 SWAP1 SWAP6 POP SWAP4 POP POP POP POP JUMP JUMPDEST PUSH1 0x0 DUP1 PUSH1 0x0 PUSH2 0x2A03 DUP6 DUP6 PUSH2 0x4D17 JUMP JUMPDEST PUSH1 0x2 DUP6 DUP2 SIGNEXTEND DUP2 SIGNEXTEND PUSH1 0x0 SWAP1 DUP2 MSTORE PUSH1 0x11 PUSH1 0x20 MSTORE PUSH1 0x40 DUP1 DUP3 KECCAK256 DUP8 DUP5 SIGNEXTEND SWAP1 SWAP4 SIGNEXTEND DUP3 MSTORE DUP2 KECCAK256 PUSH1 0x5 DUP4 ADD SLOAD PUSH1 0x6 DUP2 SWAP1 SIGNEXTEND SWAP4 PUSH1 0x1 PUSH1 0x38 SHL DUP3 DIV PUSH1 0x1 PUSH1 0x1 PUSH1 0xA0 SHL SUB AND SWAP3 DUP5 SWAP3 PUSH1 0x1 PUSH1 0xD8 SHL DUP2 DIV PUSH4 0xFFFFFFFF AND SWAP3 DUP5 SWAP3 SWAP1 SWAP2 PUSH1 0x1 PUSH1 0xF8 SHL SWAP1 DIV PUSH1 0xFF AND DUP1 PUSH2 0x2A67 JUMPI PUSH1 0x0 DUP1 REVERT JUMPDEST PUSH1 0x5 DUP3 ADD SLOAD PUSH1 0x6 DUP2 SWAP1 SIGNEXTEND SWAP9 POP PUSH1 0x1 PUSH1 0x38 SHL DUP2 DIV PUSH1 0x1 PUSH1 0x1 PUSH1 0xA0 SHL SUB AND SWAP7 POP PUSH1 0x1 PUSH1 0xD8 SHL DUP2 DIV PUSH4 0xFFFFFFFF AND SWAP5 POP PUSH1 0x1 PUSH1 0xF8 SHL SWAP1 DIV PUSH1 0xFF AND DUP1 PUSH2 0x2AA8 JUMPI PUSH1 0x0 DUP1 REVERT JUMPDEST POP POP PUSH1 0x40 DUP1 MLOAD PUSH1 0xC0 DUP2 ADD DUP3 MSTORE PUSH1 0x6 SLOAD PUSH1 0x1 PUSH1 0x1 PUSH1 0xA0 SHL SUB DUP2 AND DUP3 MSTORE PUSH1 0x1 PUSH1 0xA0 SHL DUP2 DIV PUSH1 0x2 SWAP1 DUP2 SIGNEXTEND DUP2 SIGNEXTEND DUP2 SIGNEXTEND PUSH1 0x20 DUP5 ADD DUP2 SWAP1 MSTORE PUSH1 0x1 PUSH1 0xB8 SHL DUP4 DIV PUSH2 0xFFFF SWAP1 DUP2 AND SWAP6 DUP6 ADD SWAP6 SWAP1 SWAP6 MSTORE PUSH1 0x1 PUSH1 0xC8 SHL DUP4 DIV DUP6 AND PUSH1 0x60 DUP6 ADD MSTORE PUSH1 0x1 PUSH1 0xD8 SHL DUP4 DIV SWAP1 SWAP5 AND PUSH1 0x80 DUP5 ADD MSTORE PUSH1 0x1 PUSH1 0xE8 SHL SWAP1 SWAP2 DIV PUSH1 0xFF AND ISZERO ISZERO PUSH1 0xA0 DUP4 ADD MSTORE SWAP1 SWAP4 POP DUP15 DUP2 SIGNEXTEND SWAP2 SWAP1 SIGNEXTEND SLT ISZERO SWAP1 POP PUSH2 0x2B42 JUMPI POP SWAP4 SWAP1 SWAP5 SUB SWAP7 POP SWAP1 SUB SWAP4 POP SWAP1 SUB SWAP1 POP PUSH2 0x2BC5 JUMP JUMPDEST DUP11 PUSH1 0x2 SIGNEXTEND DUP2 PUSH1 0x20 ADD MLOAD PUSH1 0x2 SIGNEXTEND SLT ISZERO PUSH2 0x2BB6 JUMPI PUSH1 0x0 PUSH2 0x2B5E PUSH2 0x2F16 JUMP JUMPDEST PUSH1 0x20 DUP4 ADD MLOAD PUSH1 0x40 DUP5 ADD MLOAD PUSH1 0x10 SLOAD PUSH1 0x60 DUP7 ADD MLOAD SWAP4 SWAP5 POP PUSH1 0x0 SWAP4 DUP5 SWAP4 PUSH2 0x2B94 SWAP4 PUSH1 0x14 SWAP4 DUP9 SWAP4 DUP8 SWAP4 SWAP3 SWAP2 PUSH1 0x1 PUSH1 0x1 PUSH1 0x80 SHL SUB AND SWAP1 PUSH2 0x3668 JUMP JUMPDEST SWAP11 SWAP1 SUB SWAP9 SWAP1 SWAP9 SUB SWAP12 POP POP SWAP5 SWAP1 SWAP7 SUB SWAP3 SWAP1 SWAP3 SUB SWAP7 POP SWAP1 SWAP2 SUB SUB SWAP3 POP PUSH2 0x2BC5 SWAP2 POP POP JUMP JUMPDEST POP SWAP5 SWAP1 SWAP4 SUB SWAP7 POP SUB SWAP4 POP SWAP1 SUB SWAP1 POP JUMPDEST SWAP3 POP SWAP3 POP SWAP3 JUMP JUMPDEST PUSH1 0x3 SLOAD PUSH1 0x1 PUSH1 0x1 PUSH1 0xA0 SHL SUB AND DUP2 JUMP JUMPDEST PUSH1 0xE SLOAD DUP2 JUMP JUMPDEST PUSH1 0x0 DUP1 SLOAD PUSH1 0x40 DUP1 MLOAD PUSH4 0x48CF7A43 PUSH1 0xE0 SHL DUP2 MSTORE ADDRESS PUSH1 0x4 DUP3 ADD MSTORE SWAP1 MLOAD PUSH1 0x1 PUSH1 0x1 PUSH1 0xA0 SHL SUB SWAP1 SWAP3 AND SWAP2 PUSH4 0x48CF7A43 SWAP2 PUSH1 0x24 DUP1 DUP3 ADD SWAP3 PUSH1 0x20 SWAP3 SWAP1 SWAP2 SWAP1 DUP3 SWAP1 SUB ADD DUP2 DUP7 DUP1 EXTCODESIZE ISZERO DUP1 ISZERO PUSH2 0x2C2D JUMPI PUSH1 0x0 DUP1 REVERT JUMPDEST POP GAS STATICCALL ISZERO DUP1 ISZERO PUSH2 0x2C41 JUMPI RETURNDATASIZE PUSH1 0x0 DUP1 RETURNDATACOPY RETURNDATASIZE PUSH1 0x0 REVERT JUMPDEST POP POP POP POP PUSH1 0x40 MLOAD RETURNDATASIZE PUSH1 0x20 DUP2 LT ISZERO PUSH2 0x2C57 JUMPI PUSH1 0x0 DUP1 REVERT JUMPDEST POP MLOAD SWAP1 POP SWAP1 JUMP JUMPDEST PUSH1 0x0 SLOAD PUSH1 0x1 PUSH1 0x1 PUSH1 0xA0 SHL SUB AND DUP2 JUMP JUMPDEST PUSH1 0x6 SLOAD PUSH1 0x0 SWAP1 DUP2 SWAP1 PUSH1 0x1 PUSH1 0xE8 SHL SWAP1 DIV PUSH1 0xFF AND PUSH2 0x2CB6 JUMPI PUSH1 0x40 DUP1 MLOAD PUSH3 0x461BCD PUSH1 0xE5 SHL DUP2 MSTORE PUSH1 0x20 PUSH1 0x4 DUP3 ADD MSTORE PUSH1 0x3 PUSH1 0x24 DUP3 ADD MSTORE PUSH3 0x4C4F4B PUSH1 0xE8 SHL PUSH1 0x44 DUP3 ADD MSTORE SWAP1 MLOAD SWAP1 DUP2 SWAP1 SUB PUSH1 0x64 ADD SWAP1 REVERT JUMPDEST PUSH1 0x6 DUP1 SLOAD PUSH1 0xFF PUSH1 0xE8 SHL NOT AND SWAP1 SSTORE PUSH1 0x3 SLOAD PUSH1 0x1 PUSH1 0x1 PUSH1 0xA0 SHL SUB AND CALLER EQ PUSH2 0x2D07 JUMPI PUSH1 0x40 DUP1 MLOAD PUSH3 0x461BCD PUSH1 0xE5 SHL DUP2 MSTORE PUSH1 0x20 PUSH1 0x4 DUP3 ADD MSTORE PUSH1 0x2 PUSH1 0x24 DUP3 ADD MSTORE PUSH2 0x4E47 PUSH1 0xF0 SHL PUSH1 0x44 DUP3 ADD MSTORE SWAP1 MLOAD SWAP1 DUP2 SWAP1 SUB PUSH1 0x64 ADD SWAP1 REVERT JUMPDEST POP POP PUSH1 0xA SLOAD PUSH1 0x1 PUSH1 0x1 PUSH1 0x80 SHL SUB DUP1 DUP3 AND SWAP2 PUSH1 0x1 PUSH1 0x80 SHL SWAP1 DIV AND PUSH1 0x1 DUP3 GT ISZERO PUSH2 0x2D64 JUMPI PUSH1 0xA DUP1 SLOAD PUSH1 0x1 PUSH1 0x1 PUSH1 0x80 SHL SUB NOT AND PUSH1 0x1 SWAP1 DUP2 OR SWAP1 SWAP2 SSTORE SLOAD PUSH1 0x0 NOT SWAP1 SWAP3 ADD SWAP2 PUSH2 0x2D64 SWAP1 PUSH1 0x1 PUSH1 0x1 PUSH1 0xA0 SHL SUB AND CALLER PUSH1 0x1 PUSH1 0x1 PUSH1 0x80 SHL SUB DUP6 AND PUSH2 0x3F0E JUMP JUMPDEST PUSH1 0x1 DUP2 PUSH1 0x1 PUSH1 0x1 PUSH1 0x80 SHL SUB AND GT ISZERO PUSH2 0x2DB1 JUMPI PUSH1 0xA DUP1 SLOAD PUSH1 0x1 PUSH1 0x1 PUSH1 0x80 SHL SUB SWAP1 DUP2 AND PUSH1 0x1 PUSH1 0x80 SHL OR SWAP1 SWAP2 SSTORE PUSH1 0x2 SLOAD PUSH1 0x0 NOT SWAP1 SWAP3 ADD SWAP2 PUSH2 0x2DB1 SWAP2 PUSH1 0x1 PUSH1 0x1 PUSH1 0xA0 SHL SUB SWAP1 SWAP2 AND SWAP1 CALLER SWAP1 DUP5 AND PUSH2 0x3F0E JUMP JUMPDEST PUSH1 0x40 DUP1 MLOAD PUSH1 0x1 PUSH1 0x1 PUSH1 0x80 SHL SUB DUP1 DUP6 AND DUP3 MSTORE DUP4 AND PUSH1 0x20 DUP3 ADD MSTORE DUP2 MLOAD CALLER SWAP3 PUSH32 0x205860E66845F2BBC0966BFAB80DB9BF93FCA93862EA2B9FCF6945748352B4A3 SWAP3 DUP3 SWAP1 SUB ADD SWAP1 LOG2 PUSH1 0x6 DUP1 SLOAD PUSH1 0xFF PUSH1 0xE8 SHL NOT AND PUSH1 0x1 PUSH1 0xE8 SHL OR SWAP1 SSTORE SWAP1 SWAP2 JUMP JUMPDEST PUSH1 0xC SLOAD DUP2 JUMP JUMPDEST PUSH1 0xF SLOAD PUSH1 0x1 PUSH1 0x80 SHL SWAP1 DIV PUSH4 0xFFFFFFFF AND DUP2 JUMP JUMPDEST PUSH1 0xF SLOAD PUSH1 0x1 PUSH1 0xA0 SHL SWAP1 DIV PUSH1 0x2 SIGNEXTEND DUP2 JUMP JUMPDEST PUSH1 0x2 SLOAD PUSH1 0x1 PUSH1 0x1 PUSH1 0xA0 SHL SUB AND DUP2 JUMP JUMPDEST PUSH1 0x0 DUP1 SLOAD PUSH1 0x40 DUP1 MLOAD PUSH4 0xD516373 PUSH1 0xE2 SHL DUP2 MSTORE ADDRESS PUSH1 0x4 DUP3 ADD MSTORE SWAP1 MLOAD PUSH1 0x1 PUSH1 0x1 PUSH1 0xA0 SHL SUB SWAP1 SWAP3 AND SWAP2 PUSH4 0x35458DCC SWAP2 PUSH1 0x24 DUP1 DUP3 ADD SWAP3 PUSH1 0x20 SWAP3 SWAP1 SWAP2 SWAP1 DUP3 SWAP1 SUB ADD DUP2 DUP7 DUP1 EXTCODESIZE ISZERO DUP1 ISZERO PUSH2 0x2C2D JUMPI PUSH1 0x0 DUP1 REVERT JUMPDEST PUSH1 0xD SLOAD DUP2 JUMP JUMPDEST PUSH1 0x7 SLOAD DUP2 JUMP JUMPDEST PUSH1 0x11 PUSH1 0x20 MSTORE PUSH1 0x0 SWAP1 DUP2 MSTORE PUSH1 0x40 SWAP1 KECCAK256 DUP1 SLOAD PUSH1 0x1 DUP3 ADD SLOAD PUSH1 0x2 DUP4 ADD SLOAD PUSH1 0x3 DUP5 ADD SLOAD PUSH1 0x4 DUP6 ADD SLOAD PUSH1 0x5 SWAP1 SWAP6 ADD SLOAD PUSH1 0x1 PUSH1 0x1 PUSH1 0x80 SHL SUB DUP6 AND SWAP6 PUSH1 0x1 PUSH1 0x80 SHL SWAP1 SWAP6 DIV PUSH1 0xF SWAP1 DUP2 SIGNEXTEND SWAP6 SWAP5 SWAP1 SIGNEXTEND SWAP4 SWAP1 PUSH1 0x6 DUP2 SWAP1 SIGNEXTEND SWAP1 PUSH1 0x1 PUSH1 0x38 SHL DUP2 DIV PUSH1 0x1 PUSH1 0x1 PUSH1 0xA0 SHL SUB AND SWAP1 PUSH1 0x1 PUSH1 0xD8 SHL DUP2 DIV PUSH4 0xFFFFFFFF AND SWAP1 PUSH1 0x1 PUSH1 0xF8 SHL SWAP1 DIV PUSH1 0xFF AND DUP11 JUMP JUMPDEST TIMESTAMP SWAP1 JUMP JUMPDEST PUSH1 0x0 DUP1 PUSH1 0x0 DUP5 PUSH1 0x2 SIGNEXTEND DUP7 PUSH1 0x2 SIGNEXTEND DUP2 PUSH2 0x2F2E JUMPI INVALID JUMPDEST SDIV SWAP1 POP PUSH1 0x0 DUP7 PUSH1 0x2 SIGNEXTEND SLT DUP1 ISZERO PUSH2 0x2F55 JUMPI POP DUP5 PUSH1 0x2 SIGNEXTEND DUP7 PUSH1 0x2 SIGNEXTEND DUP2 PUSH2 0x2F4E JUMPI INVALID JUMPDEST SMOD PUSH1 0x2 SIGNEXTEND ISZERO ISZERO JUMPDEST ISZERO PUSH2 0x2F5F JUMPI PUSH1 0x0 NOT ADD JUMPDEST DUP4 ISZERO PUSH2 0x2FD4 JUMPI PUSH1 0x0 DUP1 PUSH2 0x2F71 DUP4 PUSH2 0x4E58 JUMP JUMPDEST PUSH1 0x1 DUP3 DUP2 SIGNEXTEND DUP2 SIGNEXTEND PUSH1 0x0 SWAP1 DUP2 MSTORE PUSH1 0x20 DUP14 SWAP1 MSTORE PUSH1 0x40 SWAP1 KECCAK256 SLOAD PUSH1 0xFF DUP4 AND SWAP2 SWAP1 SWAP2 SHL DUP1 ADD PUSH1 0x0 NOT ADD SWAP1 DUP2 AND DUP1 ISZERO ISZERO SWAP8 POP SWAP3 SWAP5 POP SWAP1 SWAP3 POP SWAP1 DUP6 PUSH2 0x2FB6 JUMPI DUP9 DUP4 PUSH1 0xFF AND DUP7 SUB MUL PUSH2 0x2FC9 JUMP JUMPDEST DUP9 PUSH2 0x2FC0 DUP3 PUSH2 0x4E6A JUMP JUMPDEST DUP5 SUB PUSH1 0xFF AND DUP7 SUB MUL JUMPDEST SWAP7 POP POP POP POP POP PUSH2 0x3052 JUMP JUMPDEST PUSH1 0x0 DUP1 PUSH2 0x2FE3 DUP4 PUSH1 0x1 ADD PUSH2 0x4E58 JUMP JUMPDEST SWAP2 POP SWAP2 POP PUSH1 0x0 PUSH1 0x1 DUP3 PUSH1 0xFF AND PUSH1 0x1 SWAP1 SHL SUB NOT SWAP1 POP PUSH1 0x0 DUP2 DUP12 PUSH1 0x0 DUP7 PUSH1 0x1 SIGNEXTEND PUSH1 0x1 SIGNEXTEND DUP2 MSTORE PUSH1 0x20 ADD SWAP1 DUP2 MSTORE PUSH1 0x20 ADD PUSH1 0x0 KECCAK256 SLOAD AND SWAP1 POP DUP1 PUSH1 0x0 EQ ISZERO SWAP6 POP DUP6 PUSH2 0x3035 JUMPI DUP9 DUP4 PUSH1 0xFF SUB PUSH1 0xFF AND DUP7 PUSH1 0x1 ADD ADD MUL PUSH2 0x304B JUMP JUMPDEST DUP9 DUP4 PUSH2 0x3040 DUP4 PUSH2 0x4F09 JUMP JUMPDEST SUB PUSH1 0xFF AND DUP7 PUSH1 0x1 ADD ADD MUL JUMPDEST SWAP7 POP POP POP POP POP JUMPDEST POP SWAP5 POP SWAP5 SWAP3 POP POP POP JUMP JUMPDEST PUSH1 0x0 DUP1 PUSH1 0x0 DUP4 PUSH1 0x2 SIGNEXTEND SLT PUSH2 0x3073 JUMPI DUP3 PUSH1 0x2 SIGNEXTEND PUSH2 0x307B JUMP JUMPDEST DUP3 PUSH1 0x2 SIGNEXTEND PUSH1 0x0 SUB JUMPDEST SWAP1 POP PUSH3 0xD89E8 DUP2 GT ISZERO PUSH2 0x30B9 JUMPI PUSH1 0x40 DUP1 MLOAD PUSH3 0x461BCD PUSH1 0xE5 SHL DUP2 MSTORE PUSH1 0x20 PUSH1 0x4 DUP3 ADD MSTORE PUSH1 0x1 PUSH1 0x24 DUP3 ADD MSTORE PUSH1 0x15 PUSH1 0xFA SHL PUSH1 0x44 DUP3 ADD MSTORE SWAP1 MLOAD SWAP1 DUP2 SWAP1 SUB PUSH1 0x64 ADD SWAP1 REVERT JUMPDEST PUSH1 0x0 PUSH1 0x1 DUP3 AND PUSH2 0x30CD JUMPI PUSH1 0x1 PUSH1 0x80 SHL PUSH2 0x30DF JUMP JUMPDEST PUSH16 0xFFFCB933BD6FAD37AA2D162D1A594001 JUMPDEST PUSH17 0xFFFFFFFFFFFFFFFFFFFFFFFFFFFFFFFFFF AND SWAP1 POP PUSH1 0x2 DUP3 AND ISZERO PUSH2 0x3113 JUMPI PUSH16 0xFFF97272373D413259A46990580E213A MUL PUSH1 0x80 SHR JUMPDEST PUSH1 0x4 DUP3 AND ISZERO PUSH2 0x3132 JUMPI PUSH16 0xFFF2E50F5F656932EF12357CF3C7FDCC MUL PUSH1 0x80 SHR JUMPDEST PUSH1 0x8 DUP3 AND ISZERO PUSH2 0x3151 JUMPI PUSH16 0xFFE5CACA7E10E4E61C3624EAA0941CD0 MUL PUSH1 0x80 SHR JUMPDEST PUSH1 0x10 DUP3 AND ISZERO PUSH2 0x3170 JUMPI PUSH16 0xFFCB9843D60F6159C9DB58835C926644 MUL PUSH1 0x80 SHR JUMPDEST PUSH1 0x20 DUP3 AND ISZERO PUSH2 0x318F JUMPI PUSH16 0xFF973B41FA98C081472E6896DFB254C0 MUL PUSH1 0x80 SHR JUMPDEST PUSH1 0x40 DUP3 AND ISZERO PUSH2 0x31AE JUMPI PUSH16 0xFF2EA16466C96A3843EC78B326B52861 MUL PUSH1 0x80 SHR JUMPDEST PUSH1 0x80 DUP3 AND ISZERO PUSH2 0x31CD JUMPI PUSH16 0xFE5DEE046A99A2A811C461F1969C3053 MUL PUSH1 0x80 SHR JUMPDEST PUSH2 0x100 DUP3 AND ISZERO PUSH2 0x31ED JUMPI PUSH16 0xFCBE86C7900A88AEDCFFC83B479AA3A4 MUL PUSH1 0x80 SHR JUMPDEST PUSH2 0x200 DUP3 AND ISZERO PUSH2 0x320D JUMPI PUSH16 0xF987A7253AC413176F2B074CF7815E54 MUL PUSH1 0x80 SHR JUMPDEST PUSH2 0x400 DUP3 AND ISZERO PUSH2 0x322D JUMPI PUSH16 0xF3392B0822B70005940C7A398E4B70F3 MUL PUSH1 0x80 SHR JUMPDEST PUSH2 0x800 DUP3 AND ISZERO PUSH2 0x324D JUMPI PUSH16 0xE7159475A2C29B7443B29C7FA6E889D9 MUL PUSH1 0x80 SHR JUMPDEST PUSH2 0x1000 DUP3 AND ISZERO PUSH2 0x326D JUMPI PUSH16 0xD097F3BDFD2022B8845AD8F792AA5825 MUL PUSH1 0x80 SHR JUMPDEST PUSH2 0x2000 DUP3 AND ISZERO PUSH2 0x328D JUMPI PUSH16 0xA9F746462D870FDF8A65DC1F90E061E5 MUL PUSH1 0x80 SHR JUMPDEST PUSH2 0x4000 DUP3 AND ISZERO PUSH2 0x32AD JUMPI PUSH16 0x70D869A156D2A1B890BB3DF62BAF32F7 MUL PUSH1 0x80 SHR JUMPDEST PUSH2 0x8000 DUP3 AND ISZERO PUSH2 0x32CD JUMPI PUSH16 0x31BE135F97D08FD981231505542FCFA6 MUL PUSH1 0x80 SHR JUMPDEST PUSH3 0x10000 DUP3 AND ISZERO PUSH2 0x32EE JUMPI PUSH16 0x9AA508B5B7A84E1C677DE54F3E99BC9 MUL PUSH1 0x80 SHR JUMPDEST PUSH3 0x20000 DUP3 AND ISZERO PUSH2 0x330E JUMPI PUSH15 0x5D6AF8DEDB81196699C329225EE604 MUL PUSH1 0x80 SHR JUMPDEST PUSH3 0x40000 DUP3 AND ISZERO PUSH2 0x332D JUMPI PUSH14 0x2216E584F5FA1EA926041BEDFE98 MUL PUSH1 0x80 SHR JUMPDEST PUSH3 0x80000 DUP3 AND ISZERO PUSH2 0x334A JUMPI PUSH12 0x48A170391F7DC42444E8FA2 MUL PUSH1 0x80 SHR JUMPDEST PUSH1 0x0 DUP5 PUSH1 0x2 SIGNEXTEND SGT ISZERO PUSH2 0x3365 JUMPI DUP1 PUSH1 0x0 NOT DUP2 PUSH2 0x3361 JUMPI INVALID JUMPDEST DIV SWAP1 POP JUMPDEST PUSH1 0x1 PUSH1 0x20 SHL DUP2 MOD ISZERO PUSH2 0x3378 JUMPI PUSH1 0x1 PUSH2 0x337B JUMP JUMPDEST PUSH1 0x0 JUMPDEST PUSH1 0xFF AND PUSH1 0x20 DUP3 SWAP1 SHR ADD SWAP3 POP POP POP SWAP2 SWAP1 POP JUMP JUMPDEST PUSH1 0x0 DUP1 DUP1 DUP1 PUSH1 0x1 PUSH1 0x1 PUSH1 0xA0 SHL SUB DUP1 DUP10 AND SWAP1 DUP11 AND LT ISZERO DUP2 DUP8 SLT DUP1 ISZERO SWAP1 PUSH2 0x3412 JUMPI PUSH1 0x0 PUSH2 0x33C6 DUP10 DUP10 PUSH3 0xF4240 SUB PUSH3 0xFFFFFF AND PUSH3 0xF4240 PUSH2 0x4FF3 JUMP JUMPDEST SWAP1 POP DUP3 PUSH2 0x33DF JUMPI PUSH2 0x33DA DUP13 DUP13 DUP13 PUSH1 0x1 PUSH2 0x50A2 JUMP JUMPDEST PUSH2 0x33EC JUMP JUMPDEST PUSH2 0x33EC DUP12 DUP14 DUP13 PUSH1 0x1 PUSH2 0x511D JUMP JUMPDEST SWAP6 POP DUP6 DUP2 LT PUSH2 0x33FD JUMPI DUP11 SWAP7 POP PUSH2 0x340C JUMP JUMPDEST PUSH2 0x3409 DUP13 DUP12 DUP4 DUP7 PUSH2 0x51C8 JUMP JUMPDEST SWAP7 POP JUMPDEST POP PUSH2 0x345C JUMP JUMPDEST DUP2 PUSH2 0x3429 JUMPI PUSH2 0x3424 DUP12 DUP12 DUP12 PUSH1 0x0 PUSH2 0x511D JUMP JUMPDEST PUSH2 0x3436 JUMP JUMPDEST PUSH2 0x3436 DUP11 DUP13 DUP12 PUSH1 0x0 PUSH2 0x50A2 JUMP JUMPDEST SWAP4 POP DUP4 DUP9 PUSH1 0x0 SUB LT PUSH2 0x344A JUMPI DUP10 SWAP6 POP PUSH2 0x345C JUMP JUMPDEST PUSH2 0x3459 DUP12 DUP11 DUP11 PUSH1 0x0 SUB DUP6 PUSH2 0x5214 JUMP JUMPDEST SWAP6 POP JUMPDEST PUSH1 0x1 PUSH1 0x1 PUSH1 0xA0 SHL SUB DUP11 DUP2 AND SWAP1 DUP8 AND EQ DUP3 ISZERO PUSH2 0x34BF JUMPI DUP1 DUP1 ISZERO PUSH2 0x347B JUMPI POP DUP2 JUMPDEST PUSH2 0x3491 JUMPI PUSH2 0x348C DUP8 DUP14 DUP13 PUSH1 0x1 PUSH2 0x511D JUMP JUMPDEST PUSH2 0x3493 JUMP JUMPDEST DUP6 JUMPDEST SWAP6 POP DUP1 DUP1 ISZERO PUSH2 0x34A0 JUMPI POP DUP2 ISZERO JUMPDEST PUSH2 0x34B6 JUMPI PUSH2 0x34B1 DUP8 DUP14 DUP13 PUSH1 0x0 PUSH2 0x50A2 JUMP JUMPDEST PUSH2 0x34B8 JUMP JUMPDEST DUP5 JUMPDEST SWAP5 POP PUSH2 0x3509 JUMP JUMPDEST DUP1 DUP1 ISZERO PUSH2 0x34C9 JUMPI POP DUP2 JUMPDEST PUSH2 0x34DF JUMPI PUSH2 0x34DA DUP13 DUP9 DUP13 PUSH1 0x1 PUSH2 0x50A2 JUMP JUMPDEST PUSH2 0x34E1 JUMP JUMPDEST DUP6 JUMPDEST SWAP6 POP DUP1 DUP1 ISZERO PUSH2 0x34EE JUMPI POP DUP2 ISZERO JUMPDEST PUSH2 0x3504 JUMPI PUSH2 0x34FF DUP13 DUP9 DUP13 PUSH1 0x0 PUSH2 0x511D JUMP JUMPDEST PUSH2 0x3506 JUMP JUMPDEST DUP5 JUMPDEST SWAP5 POP JUMPDEST DUP2 ISZERO DUP1 ISZERO PUSH2 0x3519 JUMPI POP DUP9 PUSH1 0x0 SUB DUP6 GT JUMPDEST ISZERO PUSH2 0x3525 JUMPI DUP9 PUSH1 0x0 SUB SWAP5 POP JUMPDEST DUP2 DUP1 ISZERO PUSH2 0x3544 JUMPI POP DUP11 PUSH1 0x1 PUSH1 0x1 PUSH1 0xA0 SHL SUB AND DUP8 PUSH1 0x1 PUSH1 0x1 PUSH1 0xA0 SHL SUB AND EQ ISZERO JUMPDEST ISZERO PUSH2 0x3553 JUMPI DUP6 DUP10 SUB SWAP4 POP PUSH2 0x3570 JUMP JUMPDEST PUSH2 0x356D DUP7 DUP10 PUSH3 0xFFFFFF AND DUP11 PUSH3 0xF4240 SUB PUSH3 0xFFFFFF AND PUSH2 0x4728 JUMP JUMPDEST SWAP4 POP JUMPDEST POP POP POP SWAP6 POP SWAP6 POP SWAP6 POP SWAP6 SWAP2 POP POP JUMP JUMPDEST PUSH1 0x0 PUSH1 0x1 PUSH1 0xFF SHL DUP3 LT PUSH2 0x3591 JUMPI PUSH1 0x0 DUP1 REVERT JUMPDEST POP SWAP1 JUMP JUMPDEST DUP1 DUP3 SUB DUP3 DUP2 SGT ISZERO PUSH1 0x0 DUP4 SLT ISZERO EQ PUSH2 0x35AB JUMPI PUSH1 0x0 DUP1 REVERT JUMPDEST SWAP3 SWAP2 POP POP JUMP JUMPDEST DUP2 DUP2 ADD DUP3 DUP2 SLT ISZERO PUSH1 0x0 DUP4 SLT ISZERO EQ PUSH2 0x35AB JUMPI PUSH1 0x0 DUP1 REVERT JUMPDEST PUSH1 0x0 DUP1 DUP3 PUSH1 0x1 PUSH1 0x1 PUSH1 0x80 SHL SUB AND DUP5 PUSH1 0x1 PUSH1 0x1 PUSH1 0x80 SHL SUB AND EQ ISZERO PUSH2 0x35EB JUMPI POP DUP4 PUSH2 0x3660 JUMP JUMPDEST PUSH1 0x1 PUSH1 0x1 PUSH1 0x80 SHL SUB DUP4 AND PUSH2 0x362E JUMPI PUSH1 0x0 DUP1 PUSH2 0x3607 DUP8 PUSH1 0x0 PUSH2 0x5260 JUMP JUMPDEST SWAP2 POP SWAP2 POP PUSH2 0x3623 DUP3 PUSH1 0x1 PUSH1 0x80 SHL DUP9 PUSH1 0x1 PUSH1 0x1 PUSH1 0x80 SHL SUB AND PUSH2 0x4FF3 JUMP JUMPDEST SWAP4 POP SWAP2 POP PUSH2 0x3660 SWAP1 POP JUMP JUMPDEST PUSH1 0x0 DUP1 PUSH2 0x363C DUP8 DUP8 DUP8 PUSH2 0x5280 JUMP JUMPDEST SWAP2 POP SWAP2 POP PUSH2 0x365A DUP3 PUSH1 0x1 PUSH1 0x80 SHL DUP8 DUP10 SUB PUSH1 0x1 PUSH1 0x1 PUSH1 0x80 SHL SUB AND PUSH2 0x4FF3 JUMP JUMPDEST SWAP4 POP SWAP2 POP POP JUMPDEST SWAP4 POP SWAP4 SWAP2 POP POP JUMP JUMPDEST PUSH1 0x0 DUP1 PUSH4 0xFFFFFFFF DUP8 AND PUSH2 0x370E JUMPI PUSH1 0x0 DUP10 DUP7 PUSH2 0xFFFF AND PUSH2 0xFFFF DUP2 LT PUSH2 0x3689 JUMPI INVALID JUMPDEST PUSH1 0x40 DUP1 MLOAD PUSH1 0x80 DUP2 ADD DUP3 MSTORE SWAP2 SWAP1 SWAP3 ADD SLOAD PUSH4 0xFFFFFFFF DUP1 DUP3 AND DUP1 DUP5 MSTORE PUSH1 0x1 PUSH1 0x20 SHL DUP4 DIV PUSH1 0x6 SWAP1 DUP2 SIGNEXTEND DUP2 SIGNEXTEND SWAP1 SIGNEXTEND PUSH1 0x20 DUP6 ADD MSTORE PUSH1 0x1 PUSH1 0x58 SHL DUP4 DIV PUSH1 0x1 PUSH1 0x1 PUSH1 0xA0 SHL SUB AND SWAP5 DUP5 ADD SWAP5 SWAP1 SWAP5 MSTORE PUSH1 0x1 PUSH1 0xF8 SHL SWAP1 SWAP2 DIV PUSH1 0xFF AND ISZERO ISZERO PUSH1 0x60 DUP4 ADD MSTORE SWAP1 SWAP3 POP DUP11 AND EQ PUSH2 0x36FA JUMPI PUSH2 0x36F7 DUP2 DUP11 DUP10 DUP9 PUSH2 0x52BA JUMP JUMPDEST SWAP1 POP JUMPDEST DUP1 PUSH1 0x20 ADD MLOAD DUP2 PUSH1 0x40 ADD MLOAD SWAP3 POP SWAP3 POP POP PUSH2 0x37EE JUMP JUMPDEST DUP7 DUP9 SUB PUSH1 0x0 DUP1 PUSH2 0x3723 DUP13 DUP13 DUP6 DUP13 DUP13 DUP13 DUP13 PUSH2 0x535D JUMP JUMPDEST SWAP2 POP SWAP2 POP DUP2 PUSH1 0x0 ADD MLOAD PUSH4 0xFFFFFFFF AND DUP4 PUSH4 0xFFFFFFFF AND EQ ISZERO PUSH2 0x3755 JUMPI DUP2 PUSH1 0x20 ADD MLOAD DUP3 PUSH1 0x40 ADD MLOAD SWAP5 POP SWAP5 POP POP POP POP PUSH2 0x37EE JUMP JUMPDEST DUP1 MLOAD PUSH4 0xFFFFFFFF DUP5 DUP2 AND SWAP2 AND EQ ISZERO PUSH2 0x377D JUMPI DUP1 PUSH1 0x20 ADD MLOAD DUP2 PUSH1 0x40 ADD MLOAD SWAP5 POP SWAP5 POP POP POP POP PUSH2 0x37EE JUMP JUMPDEST DUP2 MLOAD DUP2 MLOAD PUSH1 0x20 DUP1 DUP6 ADD MLOAD SWAP1 DUP5 ADD MLOAD SWAP2 DUP4 SWAP1 SUB SWAP3 DUP7 SUB SWAP2 PUSH4 0xFFFFFFFF DUP1 DUP5 AND SWAP3 SWAP1 DUP6 AND SWAP2 SUB PUSH1 0x6 SIGNEXTEND DUP2 PUSH2 0x37AB JUMPI INVALID JUMPDEST SDIV MUL DUP5 PUSH1 0x20 ADD MLOAD ADD DUP3 PUSH4 0xFFFFFFFF AND DUP3 PUSH4 0xFFFFFFFF AND DUP7 PUSH1 0x40 ADD MLOAD DUP7 PUSH1 0x40 ADD MLOAD SUB PUSH1 0x1 PUSH1 0x1 PUSH1 0xA0 SHL SUB AND MUL DUP2 PUSH2 0x37DD JUMPI INVALID JUMPDEST DIV DUP6 PUSH1 0x40 ADD MLOAD ADD SWAP7 POP SWAP7 POP POP POP POP POP POP JUMPDEST SWAP8 POP SWAP8 SWAP6 POP POP POP POP POP POP JUMP JUMPDEST PUSH1 0x0 PUSH2 0x3804 PUSH2 0x2F16 JUMP JUMPDEST PUSH1 0xF SLOAD SWAP1 SWAP2 POP PUSH4 0xFFFFFFFF PUSH1 0x1 PUSH1 0x80 SHL SWAP1 SWAP2 DIV DUP2 AND SWAP1 DUP3 AND DUP2 SWAP1 SUB DUP1 ISZERO PUSH2 0x38B2 JUMPI PUSH1 0xC SLOAD ISZERO PUSH2 0x3893 JUMPI PUSH1 0xB SLOAD PUSH1 0xC SLOAD SWAP1 DUP3 MUL SWAP1 DUP2 GT ISZERO PUSH2 0x3843 JUMPI POP PUSH1 0xC SLOAD JUMPDEST PUSH1 0xC DUP1 SLOAD DUP3 SWAP1 SUB SWAP1 SSTORE PUSH1 0xF SLOAD PUSH1 0x1 PUSH1 0x1 PUSH1 0x80 SHL SUB AND ISZERO PUSH2 0x3888 JUMPI PUSH1 0xF SLOAD PUSH2 0x387A SWAP1 DUP3 SWAP1 PUSH1 0x1 PUSH1 0x80 SHL SWAP1 PUSH1 0x1 PUSH1 0x1 PUSH1 0x80 SHL SUB AND PUSH2 0x4FF3 JUMP JUMPDEST PUSH1 0x9 DUP1 SLOAD SWAP1 SWAP2 ADD SWAP1 SSTORE PUSH2 0x3891 JUMP JUMPDEST PUSH1 0xE DUP1 SLOAD DUP3 ADD SWAP1 SSTORE JUMPDEST POP JUMPDEST PUSH1 0xF DUP1 SLOAD PUSH4 0xFFFFFFFF PUSH1 0x80 SHL NOT AND PUSH1 0x1 PUSH1 0x80 SHL PUSH4 0xFFFFFFFF DUP7 AND MUL OR SWAP1 SSTORE JUMPDEST POP POP POP JUMP JUMPDEST PUSH2 0x38BF PUSH2 0x5E8C JUMP JUMPDEST PUSH1 0x2 SWAP8 DUP9 SIGNEXTEND DUP9 SIGNEXTEND PUSH1 0x0 SWAP1 DUP2 MSTORE PUSH1 0x20 SWAP10 DUP11 MSTORE PUSH1 0x40 SWAP1 KECCAK256 SWAP8 DUP9 ADD DUP1 SLOAD SWAP1 SWAP8 SUB SWAP1 SWAP7 SSTORE PUSH1 0x3 DUP8 ADD DUP1 SLOAD SWAP1 SWAP6 SUB SWAP1 SWAP5 SSTORE PUSH1 0x4 DUP7 ADD DUP1 SLOAD SWAP1 SWAP5 SUB SWAP1 SWAP4 SSTORE PUSH1 0x5 DUP6 ADD DUP1 SLOAD PUSH4 0xFFFFFFFF PUSH1 0x1 PUSH1 0xD8 SHL PUSH1 0x1 PUSH1 0x1 PUSH1 0xA0 SHL SUB PUSH1 0x1 PUSH1 0x38 SHL DUP1 DUP6 DIV DUP3 AND SWAP1 SWAP8 SUB AND SWAP1 SWAP6 MUL PUSH1 0x1 PUSH1 0x38 SHL PUSH1 0x1 PUSH1 0xD8 SHL SUB NOT SWAP1 SWAP3 AND SWAP2 SWAP1 SWAP2 OR PUSH1 0x6 DUP2 DUP2 SIGNEXTEND SWAP1 SWAP5 SUB SWAP1 SWAP4 SIGNEXTEND PUSH7 0xFFFFFFFFFFFFFF AND PUSH7 0xFFFFFFFFFFFFFF NOT SWAP1 SWAP4 AND SWAP3 SWAP1 SWAP3 OR DUP4 DUP2 DIV DUP4 AND SWAP1 SWAP5 SUB SWAP1 SWAP2 AND SWAP1 SWAP2 MUL PUSH4 0xFFFFFFFF PUSH1 0xD8 SHL NOT SWAP1 SWAP3 AND SWAP2 SWAP1 SWAP2 OR SWAP1 SSTORE DUP2 SLOAD PUSH1 0x1 PUSH1 0x80 SHL SWAP1 DIV PUSH1 0xF SWAP1 DUP2 SIGNEXTEND DUP2 SIGNEXTEND DUP2 SIGNEXTEND DUP3 MSTORE PUSH1 0x1 SWAP1 SWAP3 ADD SLOAD DUP3 SIGNEXTEND DUP3 SIGNEXTEND SWAP1 SWAP2 SIGNEXTEND SWAP2 DUP2 ADD SWAP2 SWAP1 SWAP2 MSTORE SWAP1 JUMP JUMPDEST PUSH1 0x0 DUP1 DUP3 PUSH1 0xF SIGNEXTEND SLT ISZERO PUSH2 0x3A07 JUMPI DUP3 PUSH1 0x1 PUSH1 0x1 PUSH1 0x80 SHL SUB AND DUP3 PUSH1 0x0 SUB DUP5 SUB SWAP2 POP DUP2 PUSH1 0x1 PUSH1 0x1 PUSH1 0x80 SHL SUB AND LT PUSH2 0x3A02 JUMPI PUSH1 0x40 DUP1 MLOAD PUSH3 0x461BCD PUSH1 0xE5 SHL DUP2 MSTORE PUSH1 0x20 PUSH1 0x4 DUP3 ADD MSTORE PUSH1 0x2 PUSH1 0x24 DUP3 ADD MSTORE PUSH2 0x4C53 PUSH1 0xF0 SHL PUSH1 0x44 DUP3 ADD MSTORE SWAP1 MLOAD SWAP1 DUP2 SWAP1 SUB PUSH1 0x64 ADD SWAP1 REVERT JUMPDEST PUSH2 0x35AB JUMP JUMPDEST DUP3 PUSH1 0x1 PUSH1 0x1 PUSH1 0x80 SHL SUB AND DUP3 DUP5 ADD SWAP2 POP DUP2 PUSH1 0x1 PUSH1 0x1 PUSH1 0x80 SHL SUB AND LT ISZERO PUSH2 0x35AB JUMPI PUSH1 0x40 DUP1 MLOAD PUSH3 0x461BCD PUSH1 0xE5 SHL DUP2 MSTORE PUSH1 0x20 PUSH1 0x4 DUP3 ADD MSTORE PUSH1 0x2 PUSH1 0x24 DUP3 ADD MSTORE PUSH2 0x4C41 PUSH1 0xF0 SHL PUSH1 0x44 DUP3 ADD MSTORE SWAP1 MLOAD SWAP1 DUP2 SWAP1 SUB PUSH1 0x64 ADD SWAP1 REVERT JUMPDEST PUSH1 0x0 PUSH5 0x1000276A3 PUSH1 0x1 PUSH1 0x1 PUSH1 0xA0 SHL SUB DUP4 AND LT DUP1 ISZERO SWAP1 PUSH2 0x3A94 JUMPI POP PUSH20 0xFFFD8963EFD1FC6A506488495D951D5263988D26 PUSH1 0x1 PUSH1 0x1 PUSH1 0xA0 SHL SUB DUP4 AND LT JUMPDEST PUSH2 0x3AC9 JUMPI PUSH1 0x40 DUP1 MLOAD PUSH3 0x461BCD PUSH1 0xE5 SHL DUP2 MSTORE PUSH1 0x20 PUSH1 0x4 DUP3 ADD MSTORE PUSH1 0x1 PUSH1 0x24 DUP3 ADD MSTORE PUSH1 0x29 PUSH1 0xF9 SHL PUSH1 0x44 DUP3 ADD MSTORE SWAP1 MLOAD SWAP1 DUP2 SWAP1 SUB PUSH1 0x64 ADD SWAP1 REVERT JUMPDEST PUSH5 0x100000000 PUSH1 0x1 PUSH1 0xC0 SHL SUB PUSH1 0x20 DUP4 SWAP1 SHL AND PUSH1 0x1 PUSH1 0x1 PUSH1 0x80 SHL SUB DUP2 GT PUSH1 0x7 SHL DUP2 DUP2 SHR PUSH8 0xFFFFFFFFFFFFFFFF DUP2 GT PUSH1 0x6 SHL SWAP1 DUP2 SHR PUSH4 0xFFFFFFFF DUP2 GT PUSH1 0x5 SHL SWAP1 DUP2 SHR PUSH2 0xFFFF DUP2 GT PUSH1 0x4 SHL SWAP1 DUP2 SHR PUSH1 0xFF DUP2 GT PUSH1 0x3 SWAP1 DUP2 SHL SWAP2 DUP3 SHR PUSH1 0xF DUP2 GT PUSH1 0x2 SHL SWAP1 DUP2 SHR SWAP2 DUP3 GT PUSH1 0x1 SWAP1 DUP2 SHL SWAP3 DUP4 SHR SWAP8 SWAP1 DUP9 GT SWAP7 OR SWAP1 SWAP5 OR SWAP1 SWAP3 OR OR SWAP1 SWAP2 OR OR OR PUSH1 0x80 DUP2 LT PUSH2 0x3B5D JUMPI PUSH1 0x7F DUP2 SUB DUP4 SWAP1 SHR SWAP2 POP PUSH2 0x3B67 JUMP JUMPDEST DUP1 PUSH1 0x7F SUB DUP4 SWAP1 SHL SWAP2 POP JUMPDEST SWAP1 DUP1 MUL PUSH1 0x7F DUP2 DUP2 SHR PUSH1 0xFF DUP4 DUP2 SHR SWAP2 SWAP1 SWAP2 SHR DUP1 MUL DUP1 DUP4 SHR DUP2 DUP4 SHR SHR DUP1 MUL DUP1 DUP5 SHR DUP2 DUP5 SHR SHR DUP1 MUL DUP1 DUP6 SHR DUP2 DUP6 SHR SHR DUP1 MUL DUP1 DUP7 SHR DUP2 DUP7 SHR SHR DUP1 MUL DUP1 DUP8 SHR DUP2 DUP8 SHR SHR DUP1 MUL DUP1 DUP9 SHR DUP2 DUP9 SHR SHR DUP1 MUL DUP1 DUP10 SHR DUP2 DUP10 SHR SHR DUP1 MUL DUP1 DUP11 SHR DUP2 DUP11 SHR SHR DUP1 MUL DUP1 DUP12 SHR DUP2 DUP12 SHR SHR DUP1 MUL DUP1 DUP13 SHR DUP2 DUP13 SHR SHR DUP1 MUL DUP1 DUP14 SHR DUP2 DUP14 SHR SHR DUP1 MUL DUP1 DUP15 SHR SWAP13 DUP2 SWAP1 SHR SWAP13 SWAP1 SWAP13 SHR DUP1 MUL SWAP13 DUP14 SWAP1 SHR SWAP15 SWAP14 PUSH1 0x7F NOT DUP16 ADD PUSH1 0x40 SHL PUSH1 0xC0 SWAP2 SWAP1 SWAP2 SHR PUSH8 0x8000000000000000 AND OR PUSH1 0xC1 SWAP12 SWAP1 SWAP12 SHR PUSH8 0x4000000000000000 AND SWAP11 SWAP1 SWAP11 OR PUSH1 0xC2 SWAP10 SWAP1 SWAP10 SHR PUSH8 0x2000000000000000 AND SWAP9 SWAP1 SWAP9 OR PUSH1 0xC3 SWAP8 SWAP1 SWAP8 SHR PUSH8 0x1000000000000000 AND SWAP7 SWAP1 SWAP7 OR PUSH1 0xC4 SWAP6 SWAP1 SWAP6 SHR PUSH8 0x800000000000000 AND SWAP5 SWAP1 SWAP5 OR PUSH1 0xC5 SWAP4 SWAP1 SWAP4 SHR PUSH8 0x400000000000000 AND SWAP3 SWAP1 SWAP3 OR PUSH1 0xC6 SWAP2 SWAP1 SWAP2 SHR PUSH8 0x200000000000000 AND OR PUSH1 0xC7 SWAP2 SWAP1 SWAP2 SHR PUSH1 0x1 PUSH1 0x38 SHL AND OR PUSH1 0xC8 SWAP2 SWAP1 SWAP2 SHR PUSH7 0x80000000000000 AND OR PUSH1 0xC9 SWAP2 SWAP1 SWAP2 SHR PUSH7 0x40000000000000 AND OR PUSH1 0xCA SWAP2 SWAP1 SWAP2 SHR PUSH7 0x20000000000000 AND OR PUSH1 0xCB SWAP2 SWAP1 SWAP2 SHR PUSH7 0x10000000000000 AND OR PUSH1 0xCC SWAP2 SWAP1 SWAP2 SHR PUSH7 0x8000000000000 AND OR PUSH1 0xCD SWAP2 SWAP1 SWAP2 SHR PUSH7 0x4000000000000 AND OR PUSH10 0x3627A301D71055774C85 DUP2 MUL PUSH16 0x28F6481AB7F045A5AF012A19D003AA9 NOT DUP2 ADD PUSH1 0x80 SWAP1 DUP2 SAR SWAP1 PUSH16 0xDB2DF09E81959A81455E260799A0632F DUP4 ADD SWAP1 SAR PUSH1 0x2 DUP2 DUP2 SIGNEXTEND SWAP1 DUP4 SWAP1 SIGNEXTEND EQ PUSH2 0x3D64 JUMPI DUP9 PUSH1 0x1 PUSH1 0x1 PUSH1 0xA0 SHL SUB AND PUSH2 0x3D48 DUP3 PUSH2 0x305C JUMP JUMPDEST PUSH1 0x1 PUSH1 0x1 PUSH1 0xA0 SHL SUB AND GT ISZERO PUSH2 0x3D5D JUMPI DUP2 PUSH2 0x3D5F JUMP JUMPDEST DUP1 JUMPDEST PUSH2 0x3D66 JUMP JUMPDEST DUP2 JUMPDEST SWAP10 SWAP9 POP POP POP POP POP POP POP POP POP JUMP JUMPDEST PUSH1 0x0 DUP1 PUSH1 0x0 DUP10 DUP10 PUSH2 0xFFFF AND PUSH2 0xFFFF DUP2 LT PUSH2 0x3D89 JUMPI INVALID JUMPDEST PUSH1 0x40 DUP1 MLOAD PUSH1 0x80 DUP2 ADD DUP3 MSTORE SWAP2 SWAP1 SWAP3 ADD SLOAD PUSH4 0xFFFFFFFF DUP1 DUP3 AND DUP1 DUP5 MSTORE PUSH1 0x1 PUSH1 0x20 SHL DUP4 DIV PUSH1 0x6 SWAP1 DUP2 SIGNEXTEND DUP2 SIGNEXTEND SWAP1 SIGNEXTEND PUSH1 0x20 DUP6 ADD MSTORE PUSH1 0x1 PUSH1 0x58 SHL DUP4 DIV PUSH1 0x1 PUSH1 0x1 PUSH1 0xA0 SHL SUB AND SWAP5 DUP5 ADD SWAP5 SWAP1 SWAP5 MSTORE PUSH1 0x1 PUSH1 0xF8 SHL SWAP1 SWAP2 DIV PUSH1 0xFF AND ISZERO ISZERO PUSH1 0x60 DUP4 ADD MSTORE SWAP1 SWAP3 POP DUP10 AND EQ ISZERO PUSH2 0x3DF8 JUMPI DUP9 DUP6 SWAP3 POP SWAP3 POP POP PUSH2 0x37EE JUMP JUMPDEST DUP5 PUSH2 0xFFFF AND DUP5 PUSH2 0xFFFF AND GT DUP1 ISZERO PUSH2 0x3E19 JUMPI POP PUSH1 0x1 DUP6 SUB PUSH2 0xFFFF AND DUP10 PUSH2 0xFFFF AND EQ JUMPDEST ISZERO PUSH2 0x3E26 JUMPI DUP4 SWAP2 POP PUSH2 0x3E2A JUMP JUMPDEST DUP5 SWAP2 POP JUMPDEST DUP2 PUSH2 0xFFFF AND DUP10 PUSH1 0x1 ADD PUSH2 0xFFFF AND DUP2 PUSH2 0x3E3E JUMPI INVALID JUMPDEST MOD SWAP3 POP PUSH2 0x3E4D DUP2 DUP10 DUP10 DUP10 PUSH2 0x52BA JUMP JUMPDEST DUP11 DUP5 PUSH2 0xFFFF AND PUSH2 0xFFFF DUP2 LT PUSH2 0x3E5E JUMPI INVALID JUMPDEST DUP3 MLOAD SWAP2 ADD DUP1 SLOAD PUSH1 0x20 DUP5 ADD MLOAD PUSH1 0x40 DUP6 ADD MLOAD PUSH1 0x60 SWAP1 SWAP6 ADD MLOAD ISZERO ISZERO PUSH1 0x1 PUSH1 0xF8 SHL MUL PUSH1 0x1 PUSH1 0x1 PUSH1 0xF8 SHL SUB PUSH1 0x1 PUSH1 0x1 PUSH1 0xA0 SHL SUB SWAP1 SWAP7 AND PUSH1 0x1 PUSH1 0x58 SHL MUL PUSH32 0xFF0000000000000000000000000000000000000000FFFFFFFFFFFFFFFFFFFFFF PUSH1 0x6 SWAP4 SWAP1 SWAP4 SIGNEXTEND PUSH7 0xFFFFFFFFFFFFFF AND PUSH1 0x1 PUSH1 0x20 SHL MUL PUSH11 0xFFFFFFFFFFFFFF00000000 NOT PUSH4 0xFFFFFFFF SWAP1 SWAP8 AND PUSH4 0xFFFFFFFF NOT SWAP1 SWAP6 AND SWAP5 SWAP1 SWAP5 OR SWAP6 SWAP1 SWAP6 AND SWAP3 SWAP1 SWAP3 OR AND SWAP3 SWAP1 SWAP3 OR SWAP3 SWAP1 SWAP3 AND OR SWAP1 SSTORE POP SWAP8 POP SWAP8 SWAP6 POP POP POP POP POP POP JUMP JUMPDEST PUSH1 0x40 DUP1 MLOAD PUSH1 0x1 PUSH1 0x1 PUSH1 0xA0 SHL SUB DUP5 DUP2 AND PUSH1 0x24 DUP4 ADD MSTORE PUSH1 0x44 DUP1 DUP4 ADD DUP6 SWAP1 MSTORE DUP4 MLOAD DUP1 DUP5 SUB SWAP1 SWAP2 ADD DUP2 MSTORE PUSH1 0x64 SWAP1 SWAP3 ADD DUP4 MSTORE PUSH1 0x20 DUP3 ADD DUP1 MLOAD PUSH1 0x1 PUSH1 0x1 PUSH1 0xE0 SHL SUB AND PUSH4 0xA9059CBB PUSH1 0xE0 SHL OR DUP2 MSTORE SWAP3 MLOAD DUP3 MLOAD PUSH1 0x0 SWAP5 DUP6 SWAP5 SWAP4 DUP10 AND SWAP4 SWAP3 SWAP2 DUP3 SWAP2 SWAP1 DUP1 DUP4 DUP4 JUMPDEST PUSH1 0x20 DUP4 LT PUSH2 0x3F8A JUMPI DUP1 MLOAD DUP3 MSTORE PUSH1 0x1F NOT SWAP1 SWAP3 ADD SWAP2 PUSH1 0x20 SWAP2 DUP3 ADD SWAP2 ADD PUSH2 0x3F6B JUMP JUMPDEST PUSH1 0x1 DUP4 PUSH1 0x20 SUB PUSH2 0x100 EXP SUB DUP1 NOT DUP3 MLOAD AND DUP2 DUP5 MLOAD AND DUP1 DUP3 OR DUP6 MSTORE POP POP POP POP POP POP SWAP1 POP ADD SWAP2 POP POP PUSH1 0x0 PUSH1 0x40 MLOAD DUP1 DUP4 SUB DUP2 PUSH1 0x0 DUP7 GAS CALL SWAP2 POP POP RETURNDATASIZE DUP1 PUSH1 0x0 DUP2 EQ PUSH2 0x3FEC JUMPI PUSH1 0x40 MLOAD SWAP2 POP PUSH1 0x1F NOT PUSH1 0x3F RETURNDATASIZE ADD AND DUP3 ADD PUSH1 0x40 MSTORE RETURNDATASIZE DUP3 MSTORE RETURNDATASIZE PUSH1 0x0 PUSH1 0x20 DUP5 ADD RETURNDATACOPY PUSH2 0x3FF1 JUMP JUMPDEST PUSH1 0x60 SWAP2 POP JUMPDEST POP SWAP2 POP SWAP2 POP DUP2 DUP1 ISZERO PUSH2 0x401F JUMPI POP DUP1 MLOAD ISZERO DUP1 PUSH2 0x401F JUMPI POP DUP1 DUP1 PUSH1 0x20 ADD SWAP1 MLOAD PUSH1 0x20 DUP2 LT ISZERO PUSH2 0x401C JUMPI PUSH1 0x0 DUP1 REVERT JUMPDEST POP MLOAD JUMPDEST PUSH2 0x4055 JUMPI PUSH1 0x40 DUP1 MLOAD PUSH3 0x461BCD PUSH1 0xE5 SHL DUP2 MSTORE PUSH1 0x20 PUSH1 0x4 DUP3 ADD MSTORE PUSH1 0x2 PUSH1 0x24 DUP3 ADD MSTORE PUSH2 0x2A23 PUSH1 0xF1 SHL PUSH1 0x44 DUP3 ADD MSTORE SWAP1 MLOAD SWAP1 DUP2 SWAP1 SUB PUSH1 0x64 ADD SWAP1 REVERT JUMPDEST POP POP POP POP POP JUMP JUMPDEST PUSH1 0x1 SLOAD PUSH1 0x40 DUP1 MLOAD ADDRESS PUSH1 0x24 DUP1 DUP4 ADD SWAP2 SWAP1 SWAP2 MSTORE DUP3 MLOAD DUP1 DUP4 SUB SWAP1 SWAP2 ADD DUP2 MSTORE PUSH1 0x44 SWAP1 SWAP2 ADD DUP3 MSTORE PUSH1 0x20 DUP2 ADD DUP1 MLOAD PUSH1 0x1 PUSH1 0x1 PUSH1 0xE0 SHL SUB AND PUSH4 0x70A08231 PUSH1 0xE0 SHL OR DUP2 MSTORE SWAP2 MLOAD DUP2 MLOAD PUSH1 0x0 SWAP5 DUP6 SWAP5 DUP6 SWAP5 PUSH1 0x1 PUSH1 0x1 PUSH1 0xA0 SHL SUB SWAP1 SWAP3 AND SWAP4 SWAP2 SWAP3 DUP3 SWAP2 SWAP1 DUP1 DUP4 DUP4 JUMPDEST PUSH1 0x20 DUP4 LT PUSH2 0x40D7 JUMPI DUP1 MLOAD DUP3 MSTORE PUSH1 0x1F NOT SWAP1 SWAP3 ADD SWAP2 PUSH1 0x20 SWAP2 DUP3 ADD SWAP2 ADD PUSH2 0x40B8 JUMP JUMPDEST PUSH1 0x1 DUP4 PUSH1 0x20 SUB PUSH2 0x100 EXP SUB DUP1 NOT DUP3 MLOAD AND DUP2 DUP5 MLOAD AND DUP1 DUP3 OR DUP6 MSTORE POP POP POP POP POP POP SWAP1 POP ADD SWAP2 POP POP PUSH1 0x0 PUSH1 0x40 MLOAD DUP1 DUP4 SUB DUP2 DUP6 GAS STATICCALL SWAP2 POP POP RETURNDATASIZE DUP1 PUSH1 0x0 DUP2 EQ PUSH2 0x4137 JUMPI PUSH1 0x40 MLOAD SWAP2 POP PUSH1 0x1F NOT PUSH1 0x3F RETURNDATASIZE ADD AND DUP3 ADD PUSH1 0x40 MSTORE RETURNDATASIZE DUP3 MSTORE RETURNDATASIZE PUSH1 0x0 PUSH1 0x20 DUP5 ADD RETURNDATACOPY PUSH2 0x413C JUMP JUMPDEST PUSH1 0x60 SWAP2 POP JUMPDEST POP SWAP2 POP SWAP2 POP DUP2 DUP1 ISZERO PUSH2 0x4150 JUMPI POP PUSH1 0x20 DUP2 MLOAD LT ISZERO JUMPDEST PUSH2 0x4159 JUMPI PUSH1 0x0 DUP1 REVERT JUMPDEST DUP1 DUP1 PUSH1 0x20 ADD SWAP1 MLOAD PUSH1 0x20 DUP2 LT ISZERO PUSH2 0x416E JUMPI PUSH1 0x0 DUP1 REVERT JUMPDEST POP MLOAD SWAP3 POP POP POP SWAP1 JUMP JUMPDEST DUP1 DUP3 ADD DUP3 DUP2 LT ISZERO PUSH2 0x35AB JUMPI PUSH1 0x0 DUP1 REVERT JUMPDEST PUSH1 0x2 SLOAD PUSH1 0x40 DUP1 MLOAD ADDRESS PUSH1 0x24 DUP1 DUP4 ADD SWAP2 SWAP1 SWAP2 MSTORE DUP3 MLOAD DUP1 DUP4 SUB SWAP1 SWAP2 ADD DUP2 MSTORE PUSH1 0x44 SWAP1 SWAP2 ADD DUP3 MSTORE PUSH1 0x20 DUP2 ADD DUP1 MLOAD PUSH1 0x1 PUSH1 0x1 PUSH1 0xE0 SHL SUB AND PUSH4 0x70A08231 PUSH1 0xE0 SHL OR DUP2 MSTORE SWAP2 MLOAD DUP2 MLOAD PUSH1 0x0 SWAP5 DUP6 SWAP5 DUP6 SWAP5 PUSH1 0x1 PUSH1 0x1 PUSH1 0xA0 SHL SUB SWAP1 SWAP3 AND SWAP4 SWAP2 SWAP3 DUP3 SWAP2 SWAP1 DUP1 DUP4 DUP4 PUSH1 0x20 DUP4 LT PUSH2 0x40D7 JUMPI DUP1 MLOAD DUP3 MSTORE PUSH1 0x1F NOT SWAP1 SWAP3 ADD SWAP2 PUSH1 0x20 SWAP2 DUP3 ADD SWAP2 ADD PUSH2 0x40B8 JUMP JUMPDEST PUSH1 0x0 DUP1 DUP3 PUSH1 0x2 DUP2 SWAP1 SIGNEXTEND PUSH3 0xD89E7 NOT DUP2 PUSH2 0x4216 JUMPI INVALID JUMPDEST SDIV MUL SWAP1 POP PUSH1 0x0 DUP4 PUSH1 0x2 DUP2 SWAP1 SIGNEXTEND PUSH3 0xD89E8 DUP2 PUSH2 0x422D JUMPI INVALID JUMPDEST SDIV MUL SWAP1 POP PUSH1 0x0 DUP5 PUSH1 0x2 SIGNEXTEND DUP4 DUP4 SUB PUSH1 0x2 SIGNEXTEND DUP2 PUSH2 0x4244 JUMPI INVALID JUMPDEST SDIV PUSH1 0x1 ADD SWAP1 POP DUP1 PUSH3 0xFFFFFF AND PUSH1 0x1 PUSH1 0x1 PUSH1 0x80 SHL SUB DUP1 AND DUP2 PUSH2 0x4261 JUMPI INVALID JUMPDEST DIV SWAP4 POP POP POP POP JUMPDEST SWAP2 SWAP1 POP JUMP JUMPDEST PUSH1 0x40 DUP1 MLOAD PUSH1 0x80 DUP2 ADD DUP3 MSTORE PUSH4 0xFFFFFFFF SWAP3 DUP4 AND DUP1 DUP3 MSTORE PUSH1 0x0 PUSH1 0x20 DUP4 ADD DUP2 SWAP1 MSTORE SWAP3 DUP3 ADD SWAP3 SWAP1 SWAP3 MSTORE PUSH1 0x1 PUSH1 0x60 SWAP1 SWAP2 ADD DUP2 SWAP1 MSTORE DUP4 SLOAD PUSH4 0xFFFFFFFF NOT AND SWAP1 SWAP2 OR SWAP1 SWAP2 AND PUSH1 0x1 PUSH1 0xF8 SHL OR SWAP1 SWAP2 SSTORE SWAP1 DUP2 SWAP1 JUMP JUMPDEST PUSH1 0x0 DUP1 DUP1 PUSH2 0x42CA PUSH1 0x13 DUP6 DUP11 DUP11 PUSH2 0x4762 JUMP JUMPDEST PUSH1 0x3 DUP2 ADD SLOAD SWAP1 SWAP2 POP PUSH1 0x1 PUSH1 0x1 PUSH1 0x80 SHL SUB SWAP1 DUP2 AND SWAP1 DUP8 AND GT PUSH2 0x42EB JUMPI DUP6 PUSH2 0x42FA JUMP JUMPDEST PUSH1 0x3 DUP2 ADD SLOAD PUSH1 0x1 PUSH1 0x1 PUSH1 0x80 SHL SUB AND JUMPDEST PUSH1 0x3 DUP3 ADD SLOAD SWAP1 SWAP4 POP PUSH1 0x1 PUSH1 0x1 PUSH1 0x80 SHL SUB PUSH1 0x1 PUSH1 0x80 SHL SWAP1 SWAP2 DIV DUP2 AND SWAP1 DUP7 AND GT PUSH2 0x4322 JUMPI DUP5 PUSH2 0x4338 JUMP JUMPDEST PUSH1 0x3 DUP2 ADD SLOAD PUSH1 0x1 PUSH1 0x80 SHL SWAP1 DIV PUSH1 0x1 PUSH1 0x1 PUSH1 0x80 SHL SUB AND JUMPDEST SWAP2 POP PUSH1 0x1 PUSH1 0x1 PUSH1 0x80 SHL SUB DUP4 AND ISZERO PUSH2 0x438A JUMPI PUSH1 0x3 DUP2 ADD DUP1 SLOAD PUSH1 0x1 PUSH1 0x1 PUSH1 0x80 SHL SUB NOT DUP2 AND PUSH1 0x1 PUSH1 0x1 PUSH1 0x80 SHL SUB SWAP2 DUP3 AND DUP7 SWAP1 SUB DUP3 AND OR SWAP1 SWAP2 SSTORE PUSH1 0x1 SLOAD PUSH2 0x438A SWAP2 PUSH1 0x1 PUSH1 0x1 PUSH1 0xA0 SHL SUB SWAP1 SWAP2 AND SWAP1 DUP12 SWAP1 DUP7 AND PUSH2 0x3F0E JUMP JUMPDEST PUSH1 0x1 PUSH1 0x1 PUSH1 0x80 SHL SUB DUP3 AND ISZERO PUSH2 0x43DD JUMPI PUSH1 0x3 DUP2 ADD DUP1 SLOAD PUSH1 0x1 PUSH1 0x1 PUSH1 0x80 SHL SUB PUSH1 0x1 PUSH1 0x80 SHL DUP1 DUP4 DIV DUP3 AND DUP7 SWAP1 SUB DUP3 AND MUL SWAP2 DUP2 AND SWAP2 SWAP1 SWAP2 OR SWAP1 SWAP2 SSTORE PUSH1 0x2 SLOAD PUSH2 0x43DD SWAP2 PUSH1 0x1 PUSH1 0x1 PUSH1 0xA0 SHL SUB SWAP1 SWAP2 AND SWAP1 DUP12 SWAP1 DUP6 AND PUSH2 0x3F0E JUMP JUMPDEST PUSH1 0x40 DUP1 MLOAD PUSH1 0x1 PUSH1 0x1 PUSH1 0xA0 SHL SUB DUP12 DUP2 AND DUP3 MSTORE PUSH1 0x1 PUSH1 0x1 PUSH1 0x80 SHL SUB DUP1 DUP8 AND PUSH1 0x20 DUP5 ADD MSTORE DUP6 AND DUP3 DUP5 ADD MSTORE SWAP2 MLOAD PUSH1 0x2 DUP11 DUP2 SIGNEXTEND SWAP4 SWAP1 DUP13 SWAP1 SIGNEXTEND SWAP3 SWAP1 DUP9 AND SWAP2 PUSH32 0x70935338E69775456A85DDEF226C395FB668B63FA0115F5F20610B388E6CA9C0 SWAP2 DUP2 SWAP1 SUB PUSH1 0x60 ADD SWAP1 LOG4 POP SWAP7 POP SWAP7 SWAP5 POP POP POP POP POP JUMP JUMPDEST PUSH1 0x0 DUP1 DUP4 PUSH2 0xFFFF AND GT PUSH2 0x4489 JUMPI PUSH1 0x40 DUP1 MLOAD PUSH3 0x461BCD PUSH1 0xE5 SHL DUP2 MSTORE PUSH1 0x20 PUSH1 0x4 DUP3 ADD MSTORE PUSH1 0x1 PUSH1 0x24 DUP3 ADD MSTORE PUSH1 0x49 PUSH1 0xF8 SHL PUSH1 0x44 DUP3 ADD MSTORE SWAP1 MLOAD SWAP1 DUP2 SWAP1 SUB PUSH1 0x64 ADD SWAP1 REVERT JUMPDEST DUP3 PUSH2 0xFFFF AND DUP3 PUSH2 0xFFFF AND GT PUSH2 0x449F JUMPI POP DUP2 PUSH2 0x296C JUMP JUMPDEST DUP3 JUMPDEST DUP3 PUSH2 0xFFFF AND DUP2 PUSH2 0xFFFF AND LT ISZERO PUSH2 0x44E5 JUMPI PUSH1 0x1 DUP6 DUP3 PUSH2 0xFFFF AND PUSH2 0xFFFF DUP2 LT PUSH2 0x44C4 JUMPI INVALID JUMPDEST ADD DUP1 SLOAD PUSH4 0xFFFFFFFF NOT AND PUSH4 0xFFFFFFFF SWAP3 SWAP1 SWAP3 AND SWAP2 SWAP1 SWAP2 OR SWAP1 SSTORE PUSH1 0x1 ADD PUSH2 0x44A1 JUMP JUMPDEST POP SWAP1 SWAP4 SWAP3 POP POP POP JUMP JUMPDEST DUP1 PUSH1 0xF DUP2 SWAP1 SIGNEXTEND DUP2 EQ PUSH2 0x4268 JUMPI PUSH1 0x0 DUP1 REVERT JUMPDEST PUSH1 0x0 DUP1 PUSH1 0x0 PUSH2 0x4516 DUP5 PUSH1 0x20 ADD MLOAD DUP6 PUSH1 0x40 ADD MLOAD PUSH2 0x4D17 JUMP JUMPDEST PUSH1 0x40 DUP1 MLOAD PUSH1 0xC0 DUP2 ADD DUP3 MSTORE PUSH1 0x6 SLOAD PUSH1 0x1 PUSH1 0x1 PUSH1 0xA0 SHL SUB DUP2 AND DUP3 MSTORE PUSH1 0x1 PUSH1 0xA0 SHL DUP2 DIV PUSH1 0x2 SWAP1 DUP2 SIGNEXTEND DUP2 SIGNEXTEND SWAP1 SIGNEXTEND PUSH1 0x20 DUP1 DUP5 ADD DUP3 SWAP1 MSTORE PUSH1 0x1 PUSH1 0xB8 SHL DUP4 DIV PUSH2 0xFFFF SWAP1 DUP2 AND DUP6 DUP8 ADD MSTORE PUSH1 0x1 PUSH1 0xC8 SHL DUP5 DIV DUP2 AND PUSH1 0x60 DUP1 DUP8 ADD SWAP2 SWAP1 SWAP2 MSTORE PUSH1 0x1 PUSH1 0xD8 SHL DUP6 DIV SWAP1 SWAP2 AND PUSH1 0x80 DUP7 ADD MSTORE PUSH1 0x1 PUSH1 0xE8 SHL SWAP1 SWAP4 DIV PUSH1 0xFF AND ISZERO ISZERO PUSH1 0xA0 DUP6 ADD MSTORE DUP9 MLOAD SWAP1 DUP10 ADD MLOAD SWAP5 DUP10 ADD MLOAD SWAP3 DUP10 ADD MLOAD SWAP4 SWAP5 PUSH2 0x45AB SWAP5 SWAP2 SWAP4 SWAP1 SWAP3 SWAP1 SWAP2 SWAP1 PUSH2 0x5557 JUMP JUMPDEST SWAP4 POP DUP5 PUSH1 0x60 ADD MLOAD PUSH1 0xF SIGNEXTEND PUSH1 0x0 EQ PUSH2 0x4720 JUMPI DUP5 PUSH1 0x20 ADD MLOAD PUSH1 0x2 SIGNEXTEND DUP2 PUSH1 0x20 ADD MLOAD PUSH1 0x2 SIGNEXTEND SLT ISZERO PUSH2 0x4600 JUMPI PUSH2 0x45F9 PUSH2 0x45E2 DUP7 PUSH1 0x20 ADD MLOAD PUSH2 0x305C JUMP JUMPDEST PUSH2 0x45EF DUP8 PUSH1 0x40 ADD MLOAD PUSH2 0x305C JUMP JUMPDEST DUP8 PUSH1 0x60 ADD MLOAD PUSH2 0x571A JUMP JUMPDEST SWAP3 POP PUSH2 0x4720 JUMP JUMPDEST DUP5 PUSH1 0x40 ADD MLOAD PUSH1 0x2 SIGNEXTEND DUP2 PUSH1 0x20 ADD MLOAD PUSH1 0x2 SIGNEXTEND SLT ISZERO PUSH2 0x46F6 JUMPI PUSH1 0x10 SLOAD PUSH1 0x40 DUP3 ADD MLOAD PUSH1 0x1 PUSH1 0x1 PUSH1 0x80 SHL SUB SWAP1 SWAP2 AND SWAP1 PUSH2 0x4652 SWAP1 PUSH2 0x4636 PUSH2 0x2F16 JUMP JUMPDEST PUSH1 0x20 DUP6 ADD MLOAD PUSH1 0x60 DUP7 ADD MLOAD PUSH1 0x80 DUP8 ADD MLOAD PUSH1 0x14 SWAP5 SWAP4 SWAP3 SWAP2 DUP8 SWAP2 PUSH2 0x3D73 JUMP JUMPDEST PUSH1 0x6 DUP1 SLOAD PUSH2 0xFFFF PUSH1 0xC8 SHL NOT AND PUSH1 0x1 PUSH1 0xC8 SHL PUSH2 0xFFFF SWAP4 DUP5 AND MUL OR PUSH2 0xFFFF PUSH1 0xB8 SHL NOT AND PUSH1 0x1 PUSH1 0xB8 SHL SWAP4 SWAP1 SWAP3 AND SWAP3 SWAP1 SWAP3 MUL OR SWAP1 SSTORE DUP2 MLOAD PUSH1 0x40 DUP8 ADD MLOAD PUSH2 0x46A2 SWAP2 SWAP1 PUSH2 0x4698 SWAP1 PUSH2 0x305C JUMP JUMPDEST DUP9 PUSH1 0x60 ADD MLOAD PUSH2 0x571A JUMP JUMPDEST SWAP4 POP PUSH2 0x46C0 PUSH2 0x46B4 DUP8 PUSH1 0x20 ADD MLOAD PUSH2 0x305C JUMP JUMPDEST DUP4 MLOAD PUSH1 0x60 DUP10 ADD MLOAD PUSH2 0x575E JUMP JUMPDEST SWAP3 POP PUSH2 0x46D0 DUP2 DUP8 PUSH1 0x60 ADD MLOAD PUSH2 0x39A2 JUMP JUMPDEST PUSH1 0x10 DUP1 SLOAD PUSH1 0x1 PUSH1 0x1 PUSH1 0x80 SHL SUB NOT AND PUSH1 0x1 PUSH1 0x1 PUSH1 0x80 SHL SUB SWAP3 SWAP1 SWAP3 AND SWAP2 SWAP1 SWAP2 OR SWAP1 SSTORE POP PUSH2 0x4720 JUMP JUMPDEST PUSH2 0x471D PUSH2 0x4706 DUP7 PUSH1 0x20 ADD MLOAD PUSH2 0x305C JUMP JUMPDEST PUSH2 0x4713 DUP8 PUSH1 0x40 ADD MLOAD PUSH2 0x305C JUMP JUMPDEST DUP8 PUSH1 0x60 ADD MLOAD PUSH2 0x575E JUMP JUMPDEST SWAP2 POP JUMPDEST POP SWAP2 SWAP4 SWAP1 SWAP3 POP JUMP JUMPDEST PUSH1 0x0 PUSH2 0x4735 DUP5 DUP5 DUP5 PUSH2 0x4FF3 JUMP JUMPDEST SWAP1 POP PUSH1 0x0 DUP3 DUP1 PUSH2 0x4741 JUMPI INVALID JUMPDEST DUP5 DUP7 MULMOD GT ISZERO PUSH2 0x296C JUMPI PUSH1 0x0 NOT DUP2 LT PUSH2 0x4758 JUMPI PUSH1 0x0 DUP1 REVERT JUMPDEST PUSH1 0x1 ADD SWAP4 SWAP3 POP POP POP JUMP JUMPDEST PUSH1 0x40 DUP1 MLOAD PUSH1 0x60 SWAP5 SWAP1 SWAP5 SHL PUSH12 0xFFFFFFFFFFFFFFFFFFFFFFFF NOT AND PUSH1 0x20 DUP1 DUP7 ADD SWAP2 SWAP1 SWAP2 MSTORE PUSH1 0x2 SWAP4 DUP5 SIGNEXTEND PUSH1 0xE8 SWAP1 DUP2 SHL PUSH1 0x34 DUP8 ADD MSTORE SWAP3 SWAP1 SWAP4 SIGNEXTEND SWAP1 SWAP2 SHL PUSH1 0x37 DUP5 ADD MSTORE DUP1 MLOAD DUP1 DUP5 SUB PUSH1 0x1A ADD DUP2 MSTORE PUSH1 0x3A SWAP1 SWAP4 ADD DUP2 MSTORE DUP3 MLOAD SWAP3 DUP3 ADD SWAP3 SWAP1 SWAP3 KECCAK256 PUSH1 0x0 SWAP1 DUP2 MSTORE SWAP3 SWAP1 MSTORE SWAP1 KECCAK256 SWAP1 JUMP JUMPDEST PUSH1 0x2 DUP6 DUP2 SIGNEXTEND DUP1 DUP3 SIGNEXTEND PUSH1 0x0 SWAP1 DUP2 MSTORE PUSH1 0x20 DUP10 SWAP1 MSTORE PUSH1 0x40 DUP1 DUP3 KECCAK256 DUP9 DUP6 SIGNEXTEND DUP6 SIGNEXTEND DUP4 MSTORE SWAP1 DUP3 KECCAK256 SWAP2 SWAP4 DUP5 SWAP4 SWAP2 SWAP3 SWAP2 DUP5 SWAP2 DUP3 SWAP2 SWAP1 DUP11 SWAP1 SIGNEXTEND SLT PUSH2 0x480C JUMPI POP POP PUSH1 0x2 DUP3 ADD SLOAD PUSH1 0x3 DUP4 ADD SLOAD PUSH2 0x481F JUMP JUMPDEST DUP4 PUSH1 0x2 ADD SLOAD DUP9 SUB SWAP2 POP DUP4 PUSH1 0x3 ADD SLOAD DUP8 SUB SWAP1 POP JUMPDEST PUSH1 0x0 DUP1 DUP12 PUSH1 0x2 SIGNEXTEND DUP12 PUSH1 0x2 SIGNEXTEND SLT ISZERO PUSH2 0x4841 JUMPI POP POP PUSH1 0x2 DUP4 ADD SLOAD PUSH1 0x3 DUP5 ADD SLOAD PUSH2 0x4854 JUMP JUMPDEST DUP5 PUSH1 0x2 ADD SLOAD DUP11 SUB SWAP2 POP DUP5 PUSH1 0x3 ADD SLOAD DUP10 SUB SWAP1 POP JUMPDEST SWAP3 SWAP1 SWAP9 SUB SWAP8 SWAP1 SWAP8 SUB SWAP12 SWAP7 SWAP1 SWAP6 SUB SWAP5 SWAP1 SWAP5 SUB SWAP9 POP SWAP4 SWAP7 POP POP POP POP POP POP POP JUMP JUMPDEST PUSH1 0x40 DUP1 MLOAD PUSH1 0xA0 DUP2 ADD DUP3 MSTORE DUP7 SLOAD PUSH1 0x1 PUSH1 0x1 PUSH1 0x80 SHL SUB SWAP1 DUP2 AND DUP3 MSTORE PUSH1 0x1 DUP9 ADD SLOAD PUSH1 0x20 DUP4 ADD MSTORE PUSH1 0x2 DUP9 ADD SLOAD SWAP3 DUP3 ADD SWAP3 SWAP1 SWAP3 MSTORE PUSH1 0x3 DUP8 ADD SLOAD DUP1 DUP4 AND PUSH1 0x60 DUP4 ADD MSTORE PUSH1 0x1 PUSH1 0x80 SHL SWAP1 DIV SWAP1 SWAP2 AND PUSH1 0x80 DUP3 ADD MSTORE PUSH1 0x0 PUSH1 0xF DUP7 SWAP1 SIGNEXTEND PUSH2 0x4911 JUMPI DUP2 MLOAD PUSH1 0x1 PUSH1 0x1 PUSH1 0x80 SHL SUB AND PUSH2 0x4909 JUMPI PUSH1 0x40 DUP1 MLOAD PUSH3 0x461BCD PUSH1 0xE5 SHL DUP2 MSTORE PUSH1 0x20 PUSH1 0x4 DUP3 ADD MSTORE PUSH1 0x2 PUSH1 0x24 DUP3 ADD MSTORE PUSH2 0x4E5 PUSH1 0xF4 SHL PUSH1 0x44 DUP3 ADD MSTORE SWAP1 MLOAD SWAP1 DUP2 SWAP1 SUB PUSH1 0x64 ADD SWAP1 REVERT JUMPDEST POP DUP1 MLOAD PUSH2 0x4920 JUMP JUMPDEST DUP2 MLOAD PUSH2 0x491D SWAP1 DUP8 PUSH2 0x39A2 JUMP JUMPDEST SWAP1 POP JUMPDEST PUSH1 0x0 DUP1 DUP5 PUSH2 0x4971 JUMPI PUSH2 0x494A DUP5 PUSH1 0x20 ADD MLOAD DUP9 SUB DUP6 PUSH1 0x0 ADD MLOAD PUSH1 0x1 PUSH1 0x1 PUSH1 0x80 SHL SUB AND PUSH1 0x1 PUSH1 0x80 SHL PUSH2 0x4FF3 JUMP JUMPDEST SWAP2 POP PUSH2 0x496E DUP5 PUSH1 0x40 ADD MLOAD DUP8 SUB DUP6 PUSH1 0x0 ADD MLOAD PUSH1 0x1 PUSH1 0x1 PUSH1 0x80 SHL SUB AND PUSH1 0x1 PUSH1 0x80 SHL PUSH2 0x4FF3 JUMP JUMPDEST SWAP1 POP JUMPDEST DUP8 PUSH1 0xF SIGNEXTEND PUSH1 0x0 EQ PUSH2 0x4996 JUMPI DUP9 SLOAD PUSH1 0x1 PUSH1 0x1 PUSH1 0x80 SHL SUB NOT AND PUSH1 0x1 PUSH1 0x1 PUSH1 0x80 SHL SUB DUP5 AND OR DUP10 SSTORE JUMPDEST PUSH1 0x1 DUP10 ADD DUP8 SWAP1 SSTORE PUSH1 0x2 DUP10 ADD DUP7 SWAP1 SSTORE PUSH1 0x1 PUSH1 0x1 PUSH1 0x80 SHL SUB DUP3 AND ISZERO ISZERO DUP1 PUSH2 0x49C4 JUMPI POP PUSH1 0x0 DUP2 PUSH1 0x1 PUSH1 0x1 PUSH1 0x80 SHL SUB AND GT JUMPDEST ISZERO PUSH2 0x4A02 JUMPI PUSH1 0x3 DUP10 ADD DUP1 SLOAD PUSH1 0x1 PUSH1 0x1 PUSH1 0x80 SHL SUB NOT DUP2 AND PUSH1 0x1 PUSH1 0x1 PUSH1 0x80 SHL SUB SWAP2 DUP3 AND DUP6 ADD DUP3 AND OR DUP1 DUP3 AND PUSH1 0x1 PUSH1 0x80 SHL SWAP2 DUP3 SWAP1 DIV DUP4 AND DUP6 ADD SWAP1 SWAP3 AND MUL OR SWAP1 SSTORE JUMPDEST POP POP POP POP POP POP POP POP POP JUMP JUMPDEST PUSH1 0x2 DUP4 DUP2 SIGNEXTEND SWAP1 SIGNEXTEND PUSH1 0x0 SWAP1 DUP2 MSTORE PUSH1 0x20 DUP6 SWAP1 MSTORE PUSH1 0x40 SWAP1 KECCAK256 DUP2 PUSH2 0x4A4E JUMPI PUSH1 0x1 DUP2 ADD SLOAD PUSH2 0x4A49 SWAP1 PUSH2 0x4A44 SWAP1 PUSH1 0xF SWAP1 DUP2 SIGNEXTEND DUP2 SIGNEXTEND SWAP1 DUP7 SWAP1 SIGNEXTEND PUSH2 0x35B1 JUMP JUMPDEST PUSH2 0x44EE JUMP JUMPDEST PUSH2 0x4A6B JUMP JUMPDEST PUSH1 0x1 DUP2 ADD SLOAD PUSH2 0x4A6B SWAP1 PUSH2 0x4A44 SWAP1 PUSH1 0xF SWAP1 DUP2 SIGNEXTEND DUP2 SIGNEXTEND SWAP1 DUP7 SWAP1 SIGNEXTEND PUSH2 0x3595 JUMP JUMPDEST PUSH1 0x1 SWAP1 SWAP2 ADD DUP1 SLOAD PUSH1 0xF SWAP3 SWAP1 SWAP3 SIGNEXTEND PUSH1 0x1 PUSH1 0x1 PUSH1 0x80 SHL SUB AND PUSH1 0x1 PUSH1 0x1 PUSH1 0x80 SHL SUB NOT SWAP1 SWAP3 AND SWAP2 SWAP1 SWAP2 OR SWAP1 SSTORE POP POP POP POP JUMP JUMPDEST PUSH1 0x0 DUP1 PUSH1 0x0 DUP1 PUSH1 0x0 PUSH2 0x4AEF PUSH1 0x40 MLOAD DUP1 PUSH1 0x80 ADD PUSH1 0x40 MSTORE DUP1 DUP9 PUSH1 0x1 PUSH1 0x1 PUSH1 0xA0 SHL SUB AND DUP2 MSTORE PUSH1 0x20 ADD DUP12 PUSH1 0x2 SIGNEXTEND DUP2 MSTORE PUSH1 0x20 ADD DUP11 PUSH1 0x2 SIGNEXTEND DUP2 MSTORE PUSH1 0x20 ADD PUSH2 0x4AE2 DUP11 PUSH1 0x1 PUSH1 0x1 PUSH1 0x80 SHL SUB AND PUSH2 0x44EE JUMP JUMPDEST PUSH1 0x0 SUB PUSH1 0xF SIGNEXTEND SWAP1 MSTORE PUSH2 0x44FF JUMP JUMPDEST SWAP3 POP SWAP3 POP SWAP3 POP DUP2 PUSH1 0x0 SUB SWAP5 POP DUP1 PUSH1 0x0 SUB SWAP4 POP PUSH1 0x0 DUP6 GT DUP1 PUSH2 0x4B10 JUMPI POP PUSH1 0x0 DUP5 GT JUMPDEST ISZERO PUSH2 0x4B4F JUMPI PUSH1 0x3 DUP4 ADD DUP1 SLOAD PUSH1 0x1 PUSH1 0x1 PUSH1 0x80 SHL SUB DUP1 DUP3 AND DUP1 DUP10 ADD DUP3 AND PUSH1 0x1 PUSH1 0x80 SHL SWAP4 DUP5 SWAP1 DIV DUP4 AND DUP10 ADD SWAP1 SWAP3 AND SWAP1 SWAP3 MUL SWAP1 SWAP2 OR PUSH1 0x1 PUSH1 0x1 PUSH1 0x80 SHL SUB NOT AND OR SWAP1 SSTORE JUMPDEST DUP8 PUSH1 0x2 SIGNEXTEND DUP10 PUSH1 0x2 SIGNEXTEND DUP8 PUSH1 0x1 PUSH1 0x1 PUSH1 0xA0 SHL SUB AND PUSH32 0xC396CD989A39F4459B5FA1AED6A9A8DCDBC45908ACFD67E028CD568DA98982C DUP11 DUP10 DUP10 PUSH1 0x40 MLOAD DUP1 DUP5 PUSH1 0x1 PUSH1 0x1 PUSH1 0x80 SHL SUB AND DUP2 MSTORE PUSH1 0x20 ADD DUP4 DUP2 MSTORE PUSH1 0x20 ADD DUP3 DUP2 MSTORE PUSH1 0x20 ADD SWAP4 POP POP POP POP PUSH1 0x40 MLOAD DUP1 SWAP2 SUB SWAP1 LOG4 POP POP POP SWAP5 POP SWAP5 SWAP3 POP POP POP JUMP JUMPDEST PUSH1 0x60 DUP1 PUSH1 0x0 DUP4 PUSH2 0xFFFF AND GT PUSH2 0x4BFD JUMPI PUSH1 0x40 DUP1 MLOAD PUSH3 0x461BCD PUSH1 0xE5 SHL DUP2 MSTORE PUSH1 0x20 PUSH1 0x4 DUP3 ADD MSTORE PUSH1 0x1 PUSH1 0x24 DUP3 ADD MSTORE PUSH1 0x49 PUSH1 0xF8 SHL PUSH1 0x44 DUP3 ADD MSTORE SWAP1 MLOAD SWAP1 DUP2 SWAP1 SUB PUSH1 0x64 ADD SWAP1 REVERT JUMPDEST DUP7 MLOAD PUSH8 0xFFFFFFFFFFFFFFFF DUP2 GT DUP1 ISZERO PUSH2 0x4C15 JUMPI PUSH1 0x0 DUP1 REVERT JUMPDEST POP PUSH1 0x40 MLOAD SWAP1 DUP1 DUP3 MSTORE DUP1 PUSH1 0x20 MUL PUSH1 0x20 ADD DUP3 ADD PUSH1 0x40 MSTORE DUP1 ISZERO PUSH2 0x4C3F JUMPI DUP2 PUSH1 0x20 ADD PUSH1 0x20 DUP3 MUL DUP1 CALLDATASIZE DUP4 CALLDATACOPY ADD SWAP1 POP JUMPDEST POP SWAP2 POP DUP7 MLOAD PUSH8 0xFFFFFFFFFFFFFFFF DUP2 GT DUP1 ISZERO PUSH2 0x4C5A JUMPI PUSH1 0x0 DUP1 REVERT JUMPDEST POP PUSH1 0x40 MLOAD SWAP1 DUP1 DUP3 MSTORE DUP1 PUSH1 0x20 MUL PUSH1 0x20 ADD DUP3 ADD PUSH1 0x40 MSTORE DUP1 ISZERO PUSH2 0x4C84 JUMPI DUP2 PUSH1 0x20 ADD PUSH1 0x20 DUP3 MUL DUP1 CALLDATASIZE DUP4 CALLDATACOPY ADD SWAP1 POP JUMPDEST POP SWAP1 POP PUSH1 0x0 JUMPDEST DUP8 MLOAD DUP2 LT ISZERO PUSH2 0x4D0A JUMPI PUSH2 0x4CB5 DUP11 DUP11 DUP11 DUP5 DUP2 MLOAD DUP2 LT PUSH2 0x4CA4 JUMPI INVALID JUMPDEST PUSH1 0x20 MUL PUSH1 0x20 ADD ADD MLOAD DUP11 DUP11 DUP11 DUP11 PUSH2 0x3668 JUMP JUMPDEST DUP5 DUP4 DUP2 MLOAD DUP2 LT PUSH2 0x4CC1 JUMPI INVALID JUMPDEST PUSH1 0x20 MUL PUSH1 0x20 ADD ADD DUP5 DUP5 DUP2 MLOAD DUP2 LT PUSH2 0x4CD4 JUMPI INVALID JUMPDEST PUSH1 0x20 MUL PUSH1 0x20 ADD ADD DUP3 PUSH1 0x1 PUSH1 0x1 PUSH1 0xA0 SHL SUB AND PUSH1 0x1 PUSH1 0x1 PUSH1 0xA0 SHL SUB AND DUP2 MSTORE POP DUP3 PUSH1 0x6 SIGNEXTEND PUSH1 0x6 SIGNEXTEND DUP2 MSTORE POP POP POP DUP1 DUP1 PUSH1 0x1 ADD SWAP2 POP POP PUSH2 0x4C8A JUMP JUMPDEST POP SWAP8 POP SWAP8 SWAP6 POP POP POP POP POP POP JUMP JUMPDEST DUP1 PUSH1 0x2 SIGNEXTEND DUP3 PUSH1 0x2 SIGNEXTEND SLT PUSH2 0x4D57 JUMPI PUSH1 0x40 DUP1 MLOAD PUSH3 0x461BCD PUSH1 0xE5 SHL DUP2 MSTORE PUSH1 0x20 PUSH1 0x4 DUP3 ADD MSTORE PUSH1 0x3 PUSH1 0x24 DUP3 ADD MSTORE PUSH3 0x544C55 PUSH1 0xE8 SHL PUSH1 0x44 DUP3 ADD MSTORE SWAP1 MLOAD SWAP1 DUP2 SWAP1 SUB PUSH1 0x64 ADD SWAP1 REVERT JUMPDEST PUSH3 0xD89E7 NOT PUSH1 0x2 DUP4 SWAP1 SIGNEXTEND SLT ISZERO PUSH2 0x4D9A JUMPI PUSH1 0x40 DUP1 MLOAD PUSH3 0x461BCD PUSH1 0xE5 SHL DUP2 MSTORE PUSH1 0x20 PUSH1 0x4 DUP3 ADD MSTORE PUSH1 0x3 PUSH1 0x24 DUP3 ADD MSTORE PUSH3 0x544C4D PUSH1 0xE8 SHL PUSH1 0x44 DUP3 ADD MSTORE SWAP1 MLOAD SWAP1 DUP2 SWAP1 SUB PUSH1 0x64 ADD SWAP1 REVERT JUMPDEST PUSH3 0xD89E8 PUSH1 0x2 DUP3 SWAP1 SIGNEXTEND SGT ISZERO PUSH2 0x4DDC JUMPI PUSH1 0x40 DUP1 MLOAD PUSH3 0x461BCD PUSH1 0xE5 SHL DUP2 MSTORE PUSH1 0x20 PUSH1 0x4 DUP3 ADD MSTORE PUSH1 0x3 PUSH1 0x24 DUP3 ADD MSTORE PUSH3 0x54554D PUSH1 0xE8 SHL PUSH1 0x44 DUP3 ADD MSTORE SWAP1 MLOAD SWAP1 DUP2 SWAP1 SUB PUSH1 0x64 ADD SWAP1 REVERT JUMPDEST POP POP JUMP JUMPDEST PUSH1 0x2 DUP5 DUP2 SIGNEXTEND DUP1 DUP3 SIGNEXTEND PUSH1 0x0 SWAP1 DUP2 MSTORE PUSH1 0x20 DUP9 SWAP1 MSTORE PUSH1 0x40 DUP1 DUP3 KECCAK256 DUP8 DUP6 SIGNEXTEND DUP6 SIGNEXTEND DUP4 MSTORE SWAP1 DUP3 KECCAK256 SWAP2 SWAP4 SWAP1 SWAP3 DUP5 SWAP2 DUP8 SWAP1 SIGNEXTEND SLT PUSH2 0x4E1A JUMPI POP PUSH1 0x4 DUP3 ADD SLOAD PUSH2 0x4E23 JUMP JUMPDEST POP PUSH1 0x4 DUP3 ADD SLOAD DUP5 SUB JUMPDEST PUSH1 0x0 DUP8 PUSH1 0x2 SIGNEXTEND DUP8 PUSH1 0x2 SIGNEXTEND SLT ISZERO PUSH2 0x4E3E JUMPI POP PUSH1 0x4 DUP3 ADD SLOAD PUSH2 0x4E47 JUMP JUMPDEST POP PUSH1 0x4 DUP3 ADD SLOAD DUP6 SUB JUMPDEST SWAP5 SUB SWAP4 SWAP1 SWAP4 SUB SWAP8 SWAP7 POP POP POP POP POP POP POP JUMP JUMPDEST PUSH1 0x2 SIGNEXTEND PUSH1 0x8 DUP2 SWAP1 SAR SWAP2 PUSH2 0x100 SWAP1 SWAP2 SMOD SWAP1 JUMP JUMPDEST PUSH1 0x0 DUP1 DUP3 GT PUSH2 0x4E78 JUMPI PUSH1 0x0 DUP1 REVERT JUMPDEST PUSH1 0x1 PUSH1 0x80 SHL DUP3 LT PUSH2 0x4E8B JUMPI PUSH1 0x80 SWAP2 DUP3 SHR SWAP2 ADD JUMPDEST PUSH9 0x10000000000000000 DUP3 LT PUSH2 0x4EA3 JUMPI PUSH1 0x40 SWAP2 DUP3 SHR SWAP2 ADD JUMPDEST PUSH1 0x1 PUSH1 0x20 SHL DUP3 LT PUSH2 0x4EB6 JUMPI PUSH1 0x20 SWAP2 DUP3 SHR SWAP2 ADD JUMPDEST PUSH3 0x10000 DUP3 LT PUSH2 0x4EC8 JUMPI PUSH1 0x10 SWAP2 DUP3 SHR SWAP2 ADD JUMPDEST PUSH2 0x100 DUP3 LT PUSH2 0x4ED9 JUMPI PUSH1 0x8 SWAP2 DUP3 SHR SWAP2 ADD JUMPDEST PUSH1 0x10 DUP3 LT PUSH2 0x4EE9 JUMPI PUSH1 0x4 SWAP2 DUP3 SHR SWAP2 ADD JUMPDEST PUSH1 0x4 DUP3 LT PUSH2 0x4EF9 JUMPI PUSH1 0x2 SWAP2 DUP3 SHR SWAP2 ADD JUMPDEST PUSH1 0x2 DUP3 LT PUSH2 0x4268 JUMPI PUSH1 0x1 ADD SWAP2 SWAP1 POP JUMP JUMPDEST PUSH1 0x0 DUP1 DUP3 GT PUSH2 0x4F17 JUMPI PUSH1 0x0 DUP1 REVERT JUMPDEST POP PUSH1 0xFF PUSH1 0x1 PUSH1 0x1 PUSH1 0x80 SHL SUB DUP3 AND ISZERO PUSH2 0x4F32 JUMPI PUSH1 0x7F NOT ADD PUSH2 0x4F3A JUMP JUMPDEST PUSH1 0x80 DUP3 SWAP1 SHR SWAP2 POP JUMPDEST PUSH8 0xFFFFFFFFFFFFFFFF DUP3 AND ISZERO PUSH2 0x4F53 JUMPI PUSH1 0x3F NOT ADD PUSH2 0x4F5B JUMP JUMPDEST PUSH1 0x40 DUP3 SWAP1 SHR SWAP2 POP JUMPDEST PUSH4 0xFFFFFFFF DUP3 AND ISZERO PUSH2 0x4F70 JUMPI PUSH1 0x1F NOT ADD PUSH2 0x4F78 JUMP JUMPDEST PUSH1 0x20 DUP3 SWAP1 SHR SWAP2 POP JUMPDEST PUSH2 0xFFFF DUP3 AND ISZERO PUSH2 0x4F8B JUMPI PUSH1 0xF NOT ADD PUSH2 0x4F93 JUMP JUMPDEST PUSH1 0x10 DUP3 SWAP1 SHR SWAP2 POP JUMPDEST PUSH1 0xFF DUP3 AND ISZERO PUSH2 0x4FA5 JUMPI PUSH1 0x7 NOT ADD PUSH2 0x4FAD JUMP JUMPDEST PUSH1 0x8 DUP3 SWAP1 SHR SWAP2 POP JUMPDEST PUSH1 0xF DUP3 AND ISZERO PUSH2 0x4FBF JUMPI PUSH1 0x3 NOT ADD PUSH2 0x4FC7 JUMP JUMPDEST PUSH1 0x4 DUP3 SWAP1 SHR SWAP2 POP JUMPDEST PUSH1 0x3 DUP3 AND ISZERO PUSH2 0x4FD9 JUMPI PUSH1 0x1 NOT ADD PUSH2 0x4FE1 JUMP JUMPDEST PUSH1 0x2 DUP3 SWAP1 SHR SWAP2 POP JUMPDEST PUSH1 0x1 DUP3 AND ISZERO PUSH2 0x4268 JUMPI PUSH1 0x0 NOT ADD SWAP2 SWAP1 POP JUMP JUMPDEST PUSH1 0x0 DUP1 DUP1 PUSH1 0x0 NOT DUP6 DUP8 MULMOD DUP7 DUP7 MUL SWAP3 POP DUP3 DUP2 LT SWAP1 DUP4 SWAP1 SUB SUB SWAP1 POP DUP1 PUSH2 0x5029 JUMPI PUSH1 0x0 DUP5 GT PUSH2 0x501E JUMPI PUSH1 0x0 DUP1 REVERT JUMPDEST POP DUP3 SWAP1 DIV SWAP1 POP PUSH2 0x296C JUMP JUMPDEST DUP1 DUP5 GT PUSH2 0x5035 JUMPI PUSH1 0x0 DUP1 REVERT JUMPDEST PUSH1 0x0 DUP5 DUP7 DUP9 MULMOD PUSH1 0x0 DUP7 DUP2 SUB DUP8 AND SWAP7 DUP8 SWAP1 DIV SWAP7 PUSH1 0x2 PUSH1 0x3 DUP10 MUL DUP2 XOR DUP1 DUP11 MUL DUP3 SUB MUL DUP1 DUP11 MUL DUP3 SUB MUL DUP1 DUP11 MUL DUP3 SUB MUL DUP1 DUP11 MUL DUP3 SUB MUL DUP1 DUP11 MUL DUP3 SUB MUL DUP1 DUP11 MUL SWAP1 SWAP2 SUB MUL SWAP2 DUP2 SWAP1 SUB DUP2 SWAP1 DIV PUSH1 0x1 ADD DUP7 DUP5 GT SWAP1 SWAP6 SUB SWAP5 SWAP1 SWAP5 MUL SWAP2 SWAP1 SWAP5 SUB SWAP3 SWAP1 SWAP3 DIV SWAP2 SWAP1 SWAP2 OR SWAP2 SWAP1 SWAP2 MUL SWAP2 POP POP SWAP4 SWAP3 POP POP POP JUMP JUMPDEST PUSH1 0x0 DUP4 PUSH1 0x1 PUSH1 0x1 PUSH1 0xA0 SHL SUB AND DUP6 PUSH1 0x1 PUSH1 0x1 PUSH1 0xA0 SHL SUB AND GT ISZERO PUSH2 0x50C2 JUMPI SWAP3 SWAP4 SWAP3 JUMPDEST DUP2 PUSH2 0x50EF JUMPI PUSH2 0x50EA DUP4 PUSH1 0x1 PUSH1 0x1 PUSH1 0x80 SHL SUB AND DUP7 DUP7 SUB PUSH1 0x1 PUSH1 0x1 PUSH1 0xA0 SHL SUB AND PUSH1 0x1 PUSH1 0x60 SHL PUSH2 0x4FF3 JUMP JUMPDEST PUSH2 0x5112 JUMP JUMPDEST PUSH2 0x5112 DUP4 PUSH1 0x1 PUSH1 0x1 PUSH1 0x80 SHL SUB AND DUP7 DUP7 SUB PUSH1 0x1 PUSH1 0x1 PUSH1 0xA0 SHL SUB AND PUSH1 0x1 PUSH1 0x60 SHL PUSH2 0x4728 JUMP JUMPDEST SWAP1 POP JUMPDEST SWAP5 SWAP4 POP POP POP POP JUMP JUMPDEST PUSH1 0x0 DUP4 PUSH1 0x1 PUSH1 0x1 PUSH1 0xA0 SHL SUB AND DUP6 PUSH1 0x1 PUSH1 0x1 PUSH1 0xA0 SHL SUB AND GT ISZERO PUSH2 0x513D JUMPI SWAP3 SWAP4 SWAP3 JUMPDEST PUSH1 0x1 PUSH1 0x60 SHL PUSH1 0x1 PUSH1 0xE0 SHL SUB PUSH1 0x60 DUP5 SWAP1 SHL AND PUSH1 0x1 PUSH1 0x1 PUSH1 0xA0 SHL SUB DUP7 DUP7 SUB DUP2 AND SWAP1 DUP8 AND PUSH2 0x5167 JUMPI PUSH1 0x0 DUP1 REVERT JUMPDEST DUP4 PUSH2 0x5197 JUMPI DUP7 PUSH1 0x1 PUSH1 0x1 PUSH1 0xA0 SHL SUB AND PUSH2 0x518A DUP4 DUP4 DUP10 PUSH1 0x1 PUSH1 0x1 PUSH1 0xA0 SHL SUB AND PUSH2 0x4FF3 JUMP JUMPDEST DUP2 PUSH2 0x5191 JUMPI INVALID JUMPDEST DIV PUSH2 0x51BD JUMP JUMPDEST PUSH2 0x51BD PUSH2 0x51AE DUP4 DUP4 DUP10 PUSH1 0x1 PUSH1 0x1 PUSH1 0xA0 SHL SUB AND PUSH2 0x4728 JUMP JUMPDEST DUP9 PUSH1 0x1 PUSH1 0x1 PUSH1 0xA0 SHL SUB AND PUSH2 0x578D JUMP JUMPDEST SWAP8 SWAP7 POP POP POP POP POP POP POP JUMP JUMPDEST PUSH1 0x0 DUP1 DUP6 PUSH1 0x1 PUSH1 0x1 PUSH1 0xA0 SHL SUB AND GT PUSH2 0x51DF JUMPI PUSH1 0x0 DUP1 REVERT JUMPDEST PUSH1 0x0 DUP5 PUSH1 0x1 PUSH1 0x1 PUSH1 0x80 SHL SUB AND GT PUSH2 0x51F5 JUMPI PUSH1 0x0 DUP1 REVERT JUMPDEST DUP2 PUSH2 0x5207 JUMPI PUSH2 0x50EA DUP6 DUP6 DUP6 PUSH1 0x1 PUSH2 0x5798 JUMP JUMPDEST PUSH2 0x5112 DUP6 DUP6 DUP6 PUSH1 0x1 PUSH2 0x5879 JUMP JUMPDEST PUSH1 0x0 DUP1 DUP6 PUSH1 0x1 PUSH1 0x1 PUSH1 0xA0 SHL SUB AND GT PUSH2 0x522B JUMPI PUSH1 0x0 DUP1 REVERT JUMPDEST PUSH1 0x0 DUP5 PUSH1 0x1 PUSH1 0x1 PUSH1 0x80 SHL SUB AND GT PUSH2 0x5241 JUMPI PUSH1 0x0 DUP1 REVERT JUMPDEST DUP2 PUSH2 0x5253 JUMPI PUSH2 0x50EA DUP6 DUP6 DUP6 PUSH1 0x0 PUSH2 0x5879 JUMP JUMPDEST PUSH2 0x5112 DUP6 DUP6 DUP6 PUSH1 0x0 PUSH2 0x5798 JUMP JUMPDEST PUSH1 0x0 DUP1 PUSH1 0x0 PUSH2 0x5271 DUP6 PUSH2 0x2108 PUSH2 0x2BE1 JUMP JUMPDEST SWAP5 DUP6 SWAP1 SUB SWAP6 SWAP4 SWAP1 SWAP5 ADD SWAP4 POP POP POP JUMP JUMPDEST PUSH1 0x0 DUP1 PUSH2 0x52A0 DUP6 DUP5 PUSH1 0x1 PUSH1 0x1 PUSH1 0x80 SHL SUB AND DUP7 PUSH1 0x1 PUSH1 0x1 PUSH1 0x80 SHL SUB AND PUSH2 0x4728 JUMP JUMPDEST SWAP1 POP PUSH2 0x52AE DUP2 DUP7 SUB DUP3 PUSH2 0x5260 JUMP JUMPDEST SWAP1 SWAP7 SWAP1 SWAP6 POP SWAP4 POP POP POP POP JUMP JUMPDEST PUSH2 0x52C2 PUSH2 0x5EA3 JUMP JUMPDEST PUSH1 0x0 DUP6 PUSH1 0x0 ADD MLOAD DUP6 SUB SWAP1 POP PUSH1 0x40 MLOAD DUP1 PUSH1 0x80 ADD PUSH1 0x40 MSTORE DUP1 DUP7 PUSH4 0xFFFFFFFF AND DUP2 MSTORE PUSH1 0x20 ADD DUP3 PUSH4 0xFFFFFFFF AND DUP7 PUSH1 0x2 SIGNEXTEND MUL DUP9 PUSH1 0x20 ADD MLOAD ADD PUSH1 0x6 SIGNEXTEND DUP2 MSTORE PUSH1 0x20 ADD PUSH1 0x0 DUP6 PUSH1 0x1 PUSH1 0x1 PUSH1 0x80 SHL SUB AND GT PUSH2 0x5316 JUMPI PUSH1 0x1 PUSH2 0x5318 JUMP JUMPDEST DUP5 JUMPDEST PUSH1 0x1 PUSH1 0x1 PUSH1 0x80 SHL SUB AND PUSH4 0xFFFFFFFF PUSH1 0x80 SHL PUSH1 0x80 DUP6 SWAP1 SHL AND DUP2 PUSH2 0x5336 JUMPI INVALID JUMPDEST DIV DUP9 PUSH1 0x40 ADD MLOAD ADD PUSH1 0x1 PUSH1 0x1 PUSH1 0xA0 SHL SUB AND DUP2 MSTORE PUSH1 0x20 ADD PUSH1 0x1 ISZERO ISZERO DUP2 MSTORE POP SWAP2 POP POP SWAP5 SWAP4 POP POP POP POP JUMP JUMPDEST PUSH2 0x5365 PUSH2 0x5EA3 JUMP JUMPDEST PUSH2 0x536D PUSH2 0x5EA3 JUMP JUMPDEST DUP9 DUP6 PUSH2 0xFFFF AND PUSH2 0xFFFF DUP2 LT PUSH2 0x537E JUMPI INVALID JUMPDEST PUSH1 0x40 DUP1 MLOAD PUSH1 0x80 DUP2 ADD DUP3 MSTORE SWAP2 SWAP1 SWAP3 ADD SLOAD PUSH4 0xFFFFFFFF DUP2 AND DUP1 DUP4 MSTORE PUSH1 0x1 PUSH1 0x20 SHL DUP3 DIV PUSH1 0x6 SWAP1 DUP2 SIGNEXTEND DUP2 SIGNEXTEND SWAP1 SIGNEXTEND PUSH1 0x20 DUP5 ADD MSTORE PUSH1 0x1 PUSH1 0x58 SHL DUP3 DIV PUSH1 0x1 PUSH1 0x1 PUSH1 0xA0 SHL SUB AND SWAP4 DUP4 ADD SWAP4 SWAP1 SWAP4 MSTORE PUSH1 0x1 PUSH1 0xF8 SHL SWAP1 DIV PUSH1 0xFF AND ISZERO ISZERO PUSH1 0x60 DUP3 ADD MSTORE SWAP3 POP PUSH2 0x53E2 SWAP1 DUP10 SWAP1 DUP10 PUSH2 0x595C JUMP JUMPDEST ISZERO PUSH2 0x541A JUMPI DUP7 PUSH4 0xFFFFFFFF AND DUP3 PUSH1 0x0 ADD MLOAD PUSH4 0xFFFFFFFF AND EQ ISZERO PUSH2 0x5404 JUMPI PUSH2 0x37EE JUMP JUMPDEST DUP2 PUSH2 0x5411 DUP4 DUP10 DUP10 DUP9 PUSH2 0x52BA JUMP JUMPDEST SWAP2 POP SWAP2 POP PUSH2 0x37EE JUMP JUMPDEST DUP9 DUP4 PUSH2 0xFFFF AND DUP7 PUSH1 0x1 ADD PUSH2 0xFFFF AND DUP2 PUSH2 0x542F JUMPI INVALID JUMPDEST MOD PUSH2 0xFFFF AND PUSH2 0xFFFF DUP2 LT PUSH2 0x543F JUMPI INVALID JUMPDEST PUSH1 0x40 DUP1 MLOAD PUSH1 0x80 DUP2 ADD DUP3 MSTORE SWAP3 SWAP1 SWAP2 ADD SLOAD PUSH4 0xFFFFFFFF DUP2 AND DUP4 MSTORE PUSH1 0x1 PUSH1 0x20 SHL DUP2 DIV PUSH1 0x6 SWAP1 DUP2 SIGNEXTEND DUP2 SIGNEXTEND SWAP1 SIGNEXTEND PUSH1 0x20 DUP5 ADD MSTORE PUSH1 0x1 PUSH1 0x1 PUSH1 0xA0 SHL SUB PUSH1 0x1 PUSH1 0x58 SHL DUP3 DIV AND SWAP2 DUP4 ADD SWAP2 SWAP1 SWAP2 MSTORE PUSH1 0xFF PUSH1 0x1 PUSH1 0xF8 SHL SWAP1 SWAP2 DIV AND ISZERO ISZERO PUSH1 0x60 DUP3 ADD DUP2 SWAP1 MSTORE SWAP1 SWAP3 POP PUSH2 0x54F4 JUMPI PUSH1 0x40 DUP1 MLOAD PUSH1 0x80 DUP2 ADD DUP3 MSTORE DUP11 SLOAD PUSH4 0xFFFFFFFF DUP2 AND DUP3 MSTORE PUSH1 0x1 PUSH1 0x20 SHL DUP2 DIV PUSH1 0x6 SWAP1 DUP2 SIGNEXTEND DUP2 SIGNEXTEND SWAP1 SIGNEXTEND PUSH1 0x20 DUP4 ADD MSTORE PUSH1 0x1 PUSH1 0x58 SHL DUP2 DIV PUSH1 0x1 PUSH1 0x1 PUSH1 0xA0 SHL SUB AND SWAP3 DUP3 ADD SWAP3 SWAP1 SWAP3 MSTORE PUSH1 0x1 PUSH1 0xF8 SHL SWAP1 SWAP2 DIV PUSH1 0xFF AND ISZERO ISZERO PUSH1 0x60 DUP3 ADD MSTORE SWAP2 POP JUMPDEST PUSH2 0x5503 DUP9 DUP4 PUSH1 0x0 ADD MLOAD DUP10 PUSH2 0x595C JUMP JUMPDEST PUSH2 0x553A JUMPI PUSH1 0x40 DUP1 MLOAD PUSH3 0x461BCD PUSH1 0xE5 SHL DUP2 MSTORE PUSH1 0x20 PUSH1 0x4 DUP3 ADD MSTORE PUSH1 0x3 PUSH1 0x24 DUP3 ADD MSTORE PUSH3 0x13D311 PUSH1 0xEA SHL PUSH1 0x44 DUP3 ADD MSTORE SWAP1 MLOAD SWAP1 DUP2 SWAP1 SUB PUSH1 0x64 ADD SWAP1 REVERT JUMPDEST PUSH2 0x5547 DUP10 DUP10 DUP10 DUP9 DUP8 PUSH2 0x5A1D JUMP JUMPDEST SWAP2 POP SWAP2 POP SWAP8 POP SWAP8 SWAP6 POP POP POP POP POP POP JUMP JUMPDEST PUSH1 0x0 PUSH2 0x5566 PUSH1 0x13 DUP8 DUP8 DUP8 PUSH2 0x4762 JUMP JUMPDEST PUSH1 0x7 SLOAD PUSH1 0x8 SLOAD PUSH1 0x9 SLOAD SWAP3 SWAP4 POP SWAP1 SWAP2 PUSH1 0x0 DUP1 PUSH1 0xF DUP9 SWAP1 SIGNEXTEND ISZERO PUSH2 0x568D JUMPI PUSH1 0x0 PUSH2 0x558B PUSH2 0x2F16 JUMP JUMPDEST PUSH1 0x6 SLOAD PUSH1 0x10 SLOAD SWAP2 SWAP3 POP PUSH1 0x0 SWAP2 DUP3 SWAP2 PUSH2 0x55D5 SWAP2 PUSH1 0x14 SWAP2 DUP7 SWAP2 DUP6 SWAP2 PUSH1 0x1 PUSH1 0xA0 SHL DUP2 DIV PUSH1 0x2 SIGNEXTEND SWAP2 PUSH2 0xFFFF PUSH1 0x1 PUSH1 0xB8 SHL DUP4 DIV DUP2 AND SWAP3 PUSH1 0x1 PUSH1 0x1 PUSH1 0x80 SHL SUB SWAP1 SWAP3 AND SWAP2 PUSH1 0x1 PUSH1 0xC8 SHL SWAP1 DIV AND PUSH2 0x3668 JUMP JUMPDEST PUSH1 0x10 SLOAD SWAP2 SWAP4 POP SWAP2 POP PUSH2 0x560E SWAP1 PUSH1 0x11 SWAP1 DUP16 SWAP1 DUP14 SWAP1 DUP16 SWAP1 DUP14 SWAP1 DUP14 SWAP1 DUP14 SWAP1 DUP10 SWAP1 DUP12 SWAP1 DUP14 SWAP1 PUSH1 0x0 SWAP1 PUSH1 0x1 PUSH1 0x80 SHL SWAP1 DIV PUSH1 0x1 PUSH1 0x1 PUSH1 0x80 SHL SUB AND PUSH2 0x5BBB JUMP JUMPDEST PUSH1 0x10 SLOAD SWAP1 SWAP6 POP PUSH2 0x5645 SWAP1 PUSH1 0x11 SWAP1 DUP15 SWAP1 DUP14 SWAP1 DUP16 SWAP1 DUP14 SWAP1 DUP14 SWAP1 DUP14 SWAP1 DUP10 SWAP1 DUP12 SWAP1 DUP14 SWAP1 PUSH1 0x1 SWAP1 PUSH1 0x1 PUSH1 0x80 SHL SWAP1 DIV PUSH1 0x1 PUSH1 0x1 PUSH1 0x80 SHL SUB AND PUSH2 0x5BBB JUMP JUMPDEST SWAP4 POP DUP5 ISZERO PUSH2 0x5668 JUMPI PUSH1 0xF SLOAD PUSH2 0x5668 SWAP1 PUSH1 0x12 SWAP1 DUP16 SWAP1 PUSH1 0x1 PUSH1 0xA0 SHL SWAP1 DIV PUSH1 0x2 SIGNEXTEND PUSH2 0x5D8F JUMP JUMPDEST DUP4 ISZERO PUSH2 0x5689 JUMPI PUSH1 0xF SLOAD PUSH2 0x5689 SWAP1 PUSH1 0x12 SWAP1 DUP15 SWAP1 PUSH1 0x1 PUSH1 0xA0 SHL SWAP1 DIV PUSH1 0x2 SIGNEXTEND PUSH2 0x5D8F JUMP JUMPDEST POP POP POP JUMPDEST PUSH1 0x0 DUP1 PUSH2 0x569F PUSH1 0x11 DUP14 DUP14 DUP13 DUP12 DUP12 PUSH2 0x47C6 JUMP JUMPDEST PUSH1 0x3 SLOAD SWAP2 SWAP4 POP SWAP2 POP PUSH1 0x0 SWAP1 PUSH1 0x1 PUSH1 0x1 PUSH1 0xA0 SHL SUB DUP16 DUP2 AND SWAP2 AND EQ DUP1 ISZERO PUSH2 0x56CC JUMPI POP PUSH1 0x1 PUSH1 0x1 PUSH1 0xA0 SHL SUB DUP15 AND ISZERO ISZERO JUMPDEST SWAP1 POP PUSH2 0x56DB DUP10 DUP13 DUP6 DUP6 DUP6 PUSH2 0x4872 JUMP JUMPDEST PUSH1 0x0 DUP12 PUSH1 0xF SIGNEXTEND SLT ISZERO PUSH2 0x5709 JUMPI DUP5 ISZERO PUSH2 0x56F8 JUMPI PUSH2 0x56F8 PUSH1 0x11 DUP15 PUSH2 0x5DF5 JUMP JUMPDEST DUP4 ISZERO PUSH2 0x5709 JUMPI PUSH2 0x5709 PUSH1 0x11 DUP14 PUSH2 0x5DF5 JUMP JUMPDEST POP POP POP POP POP POP POP POP SWAP6 SWAP5 POP POP POP POP POP JUMP JUMPDEST PUSH1 0x0 DUP1 DUP3 PUSH1 0xF SIGNEXTEND SLT PUSH2 0x5740 JUMPI PUSH2 0x573B PUSH2 0x5736 DUP6 DUP6 DUP6 PUSH1 0x1 PUSH2 0x511D JUMP JUMPDEST PUSH2 0x357F JUMP JUMPDEST PUSH2 0x2969 JUMP JUMPDEST PUSH2 0x5753 PUSH2 0x5736 DUP6 DUP6 DUP6 PUSH1 0x0 SUB PUSH1 0x0 PUSH2 0x511D JUMP JUMPDEST PUSH1 0x0 SUB SWAP5 SWAP4 POP POP POP POP JUMP JUMPDEST PUSH1 0x0 DUP1 DUP3 PUSH1 0xF SIGNEXTEND SLT PUSH2 0x577A JUMPI PUSH2 0x573B PUSH2 0x5736 DUP6 DUP6 DUP6 PUSH1 0x1 PUSH2 0x50A2 JUMP JUMPDEST PUSH2 0x5753 PUSH2 0x5736 DUP6 DUP6 DUP6 PUSH1 0x0 SUB PUSH1 0x0 PUSH2 0x50A2 JUMP JUMPDEST DUP1 DUP3 DIV SWAP2 MOD ISZERO ISZERO ADD SWAP1 JUMP JUMPDEST PUSH1 0x0 DUP2 ISZERO PUSH2 0x580B JUMPI PUSH1 0x0 PUSH1 0x1 PUSH1 0x1 PUSH1 0xA0 SHL SUB DUP5 GT ISZERO PUSH2 0x57CE JUMPI PUSH2 0x57C9 DUP5 PUSH1 0x1 PUSH1 0x60 SHL DUP8 PUSH1 0x1 PUSH1 0x1 PUSH1 0x80 SHL SUB AND PUSH2 0x4FF3 JUMP JUMPDEST PUSH2 0x57E6 JUMP JUMPDEST PUSH1 0x1 PUSH1 0x1 PUSH1 0x80 SHL SUB DUP6 AND PUSH1 0x60 DUP6 SWAP1 SHL DUP2 PUSH2 0x57E4 JUMPI INVALID JUMPDEST DIV JUMPDEST SWAP1 POP PUSH2 0x5803 PUSH2 0x57FE PUSH1 0x1 PUSH1 0x1 PUSH1 0xA0 SHL SUB DUP9 AND DUP4 PUSH2 0x4177 JUMP JUMPDEST PUSH2 0x5E3A JUMP JUMPDEST SWAP2 POP POP PUSH2 0x5115 JUMP JUMPDEST PUSH1 0x0 PUSH1 0x1 PUSH1 0x1 PUSH1 0xA0 SHL SUB DUP5 GT ISZERO PUSH2 0x5839 JUMPI PUSH2 0x5834 DUP5 PUSH1 0x1 PUSH1 0x60 SHL DUP8 PUSH1 0x1 PUSH1 0x1 PUSH1 0x80 SHL SUB AND PUSH2 0x4728 JUMP JUMPDEST PUSH2 0x5850 JUMP JUMPDEST PUSH2 0x5850 PUSH1 0x60 DUP6 SWAP1 SHL PUSH1 0x1 PUSH1 0x1 PUSH1 0x80 SHL SUB DUP8 AND PUSH2 0x578D JUMP JUMPDEST SWAP1 POP DUP1 DUP7 PUSH1 0x1 PUSH1 0x1 PUSH1 0xA0 SHL SUB AND GT PUSH2 0x5867 JUMPI PUSH1 0x0 DUP1 REVERT JUMPDEST PUSH1 0x1 PUSH1 0x1 PUSH1 0xA0 SHL SUB DUP7 AND SUB SWAP1 POP PUSH2 0x5115 JUMP JUMPDEST PUSH1 0x0 DUP3 PUSH2 0x5887 JUMPI POP DUP4 PUSH2 0x5115 JUMP JUMPDEST PUSH1 0x1 PUSH1 0x60 SHL PUSH1 0x1 PUSH1 0xE0 SHL SUB PUSH1 0x60 DUP6 SWAP1 SHL AND DUP3 ISZERO PUSH2 0x5915 JUMPI PUSH1 0x1 PUSH1 0x1 PUSH1 0xA0 SHL SUB DUP7 AND DUP5 DUP2 MUL SWAP1 DUP6 DUP3 DUP2 PUSH2 0x58B5 JUMPI INVALID JUMPDEST DIV EQ ISZERO PUSH2 0x58E6 JUMPI DUP2 DUP2 ADD DUP3 DUP2 LT PUSH2 0x58E4 JUMPI PUSH2 0x58DA DUP4 DUP10 PUSH1 0x1 PUSH1 0x1 PUSH1 0xA0 SHL SUB AND DUP4 PUSH2 0x4728 JUMP JUMPDEST SWAP4 POP POP POP POP PUSH2 0x5115 JUMP JUMPDEST POP JUMPDEST PUSH2 0x590C DUP3 PUSH2 0x5907 DUP8 DUP11 PUSH1 0x1 PUSH1 0x1 PUSH1 0xA0 SHL SUB AND DUP7 DUP2 PUSH2 0x5900 JUMPI INVALID JUMPDEST DIV SWAP1 PUSH2 0x4177 JUMP JUMPDEST PUSH2 0x578D JUMP JUMPDEST SWAP3 POP POP POP PUSH2 0x5115 JUMP JUMPDEST PUSH1 0x1 PUSH1 0x1 PUSH1 0xA0 SHL SUB DUP7 AND DUP5 DUP2 MUL SWAP1 DUP6 DUP3 DUP2 PUSH2 0x592C JUMPI INVALID JUMPDEST DIV EQ DUP1 ISZERO PUSH2 0x5939 JUMPI POP DUP1 DUP3 GT JUMPDEST PUSH2 0x5942 JUMPI PUSH1 0x0 DUP1 REVERT JUMPDEST DUP1 DUP3 SUB PUSH2 0x58DA PUSH2 0x57FE DUP5 PUSH1 0x1 PUSH1 0x1 PUSH1 0xA0 SHL SUB DUP12 AND DUP5 PUSH2 0x4728 JUMP JUMPDEST PUSH1 0x0 DUP4 PUSH4 0xFFFFFFFF AND DUP4 PUSH4 0xFFFFFFFF AND GT ISZERO DUP1 ISZERO PUSH2 0x5986 JUMPI POP DUP4 PUSH4 0xFFFFFFFF AND DUP3 PUSH4 0xFFFFFFFF AND GT ISZERO JUMPDEST ISZERO PUSH2 0x59A2 JUMPI DUP2 PUSH4 0xFFFFFFFF AND DUP4 PUSH4 0xFFFFFFFF AND GT ISZERO SWAP1 POP PUSH2 0x296C JUMP JUMPDEST PUSH1 0x0 DUP5 PUSH4 0xFFFFFFFF AND DUP5 PUSH4 0xFFFFFFFF AND GT PUSH2 0x59C9 JUMPI DUP4 PUSH4 0xFFFFFFFF AND PUSH1 0x1 PUSH1 0x20 SHL ADD PUSH2 0x59D1 JUMP JUMPDEST DUP4 PUSH4 0xFFFFFFFF AND JUMPDEST PUSH5 0xFFFFFFFFFF AND SWAP1 POP PUSH1 0x0 DUP6 PUSH4 0xFFFFFFFF AND DUP5 PUSH4 0xFFFFFFFF AND GT PUSH2 0x5A01 JUMPI DUP4 PUSH4 0xFFFFFFFF AND PUSH1 0x1 PUSH1 0x20 SHL ADD PUSH2 0x5A09 JUMP JUMPDEST DUP4 PUSH4 0xFFFFFFFF AND JUMPDEST PUSH5 0xFFFFFFFFFF AND SWAP1 SWAP2 GT ISZERO SWAP6 SWAP5 POP POP POP POP POP JUMP JUMPDEST PUSH2 0x5A25 PUSH2 0x5EA3 JUMP JUMPDEST PUSH2 0x5A2D PUSH2 0x5EA3 JUMP JUMPDEST PUSH1 0x0 DUP4 PUSH2 0xFFFF AND DUP6 PUSH1 0x1 ADD PUSH2 0xFFFF AND DUP2 PUSH2 0x5A43 JUMPI INVALID JUMPDEST MOD PUSH2 0xFFFF AND SWAP1 POP PUSH1 0x0 PUSH1 0x1 DUP6 PUSH2 0xFFFF AND DUP4 ADD SUB SWAP1 POP PUSH1 0x0 JUMPDEST POP PUSH1 0x2 DUP2 DUP4 ADD DIV DUP10 PUSH2 0xFFFF DUP8 AND DUP3 DUP2 PUSH2 0x5A70 JUMPI INVALID JUMPDEST MOD PUSH2 0xFFFF DUP2 LT PUSH2 0x5A7C JUMPI INVALID JUMPDEST PUSH1 0x40 DUP1 MLOAD PUSH1 0x80 DUP2 ADD DUP3 MSTORE SWAP3 SWAP1 SWAP2 ADD SLOAD PUSH4 0xFFFFFFFF DUP2 AND DUP4 MSTORE PUSH1 0x1 PUSH1 0x20 SHL DUP2 DIV PUSH1 0x6 SWAP1 DUP2 SIGNEXTEND DUP2 SIGNEXTEND SWAP1 SIGNEXTEND PUSH1 0x20 DUP5 ADD MSTORE PUSH1 0x1 PUSH1 0x1 PUSH1 0xA0 SHL SUB PUSH1 0x1 PUSH1 0x58 SHL DUP3 DIV AND SWAP2 DUP4 ADD SWAP2 SWAP1 SWAP2 MSTORE PUSH1 0xFF PUSH1 0x1 PUSH1 0xF8 SHL SWAP1 SWAP2 DIV AND ISZERO ISZERO PUSH1 0x60 DUP3 ADD DUP2 SWAP1 MSTORE SWAP1 SWAP6 POP PUSH2 0x5AE6 JUMPI DUP1 PUSH1 0x1 ADD SWAP3 POP PUSH2 0x5A5B JUMP JUMPDEST DUP10 DUP7 PUSH2 0xFFFF AND DUP3 PUSH1 0x1 ADD DUP2 PUSH2 0x5AF7 JUMPI INVALID JUMPDEST MOD PUSH2 0xFFFF DUP2 LT PUSH2 0x5B03 JUMPI INVALID JUMPDEST PUSH1 0x40 DUP1 MLOAD PUSH1 0x80 DUP2 ADD DUP3 MSTORE SWAP3 SWAP1 SWAP2 ADD SLOAD PUSH4 0xFFFFFFFF DUP2 AND DUP4 MSTORE PUSH1 0x1 PUSH1 0x20 SHL DUP2 DIV PUSH1 0x6 SWAP1 DUP2 SIGNEXTEND DUP2 SIGNEXTEND SWAP1 SIGNEXTEND PUSH1 0x20 DUP5 ADD MSTORE PUSH1 0x1 PUSH1 0x1 PUSH1 0xA0 SHL SUB PUSH1 0x1 PUSH1 0x58 SHL DUP3 DIV AND SWAP2 DUP4 ADD SWAP2 SWAP1 SWAP2 MSTORE PUSH1 0xFF PUSH1 0x1 PUSH1 0xF8 SHL SWAP1 SWAP2 DIV AND ISZERO ISZERO PUSH1 0x60 DUP3 ADD MSTORE DUP6 MLOAD SWAP1 SWAP5 POP PUSH1 0x0 SWAP1 PUSH2 0x5B6D SWAP1 DUP12 SWAP1 DUP12 PUSH2 0x595C JUMP JUMPDEST SWAP1 POP DUP1 DUP1 ISZERO PUSH2 0x5B86 JUMPI POP PUSH2 0x5B86 DUP11 DUP11 DUP8 PUSH1 0x0 ADD MLOAD PUSH2 0x595C JUMP JUMPDEST ISZERO PUSH2 0x5B91 JUMPI POP PUSH2 0x5BAE JUMP JUMPDEST DUP1 PUSH2 0x5BA1 JUMPI PUSH1 0x1 DUP3 SUB SWAP3 POP PUSH2 0x5BA8 JUMP JUMPDEST DUP2 PUSH1 0x1 ADD SWAP4 POP JUMPDEST POP PUSH2 0x5A5B JUMP JUMPDEST POP POP POP SWAP6 POP SWAP6 SWAP4 POP POP POP POP JUMP JUMPDEST PUSH1 0x2 DUP12 DUP2 SIGNEXTEND SWAP1 SIGNEXTEND PUSH1 0x0 SWAP1 DUP2 MSTORE PUSH1 0x20 DUP14 SWAP1 MSTORE PUSH1 0x40 DUP2 KECCAK256 DUP1 SLOAD PUSH1 0x1 PUSH1 0x1 PUSH1 0x80 SHL SUB AND DUP3 PUSH2 0x5BE6 DUP3 DUP15 PUSH2 0x39A2 JUMP JUMPDEST SWAP1 POP DUP5 PUSH1 0x1 PUSH1 0x1 PUSH1 0x80 SHL SUB AND DUP2 PUSH1 0x1 PUSH1 0x1 PUSH1 0x80 SHL SUB AND GT ISZERO PUSH2 0x5C34 JUMPI PUSH1 0x40 DUP1 MLOAD PUSH3 0x461BCD PUSH1 0xE5 SHL DUP2 MSTORE PUSH1 0x20 PUSH1 0x4 DUP3 ADD MSTORE PUSH1 0x2 PUSH1 0x24 DUP3 ADD MSTORE PUSH2 0x4C4F PUSH1 0xF0 SHL PUSH1 0x44 DUP3 ADD MSTORE SWAP1 MLOAD SWAP1 DUP2 SWAP1 SUB PUSH1 0x64 ADD SWAP1 REVERT JUMPDEST PUSH1 0x1 PUSH1 0x1 PUSH1 0x80 SHL SUB DUP3 DUP2 AND ISZERO SWAP1 DUP3 AND ISZERO DUP2 EQ ISZERO SWAP5 POP ISZERO PUSH2 0x5CE0 JUMPI DUP14 PUSH1 0x2 SIGNEXTEND DUP16 PUSH1 0x2 SIGNEXTEND SGT PUSH2 0x5CC8 JUMPI PUSH1 0x2 DUP4 ADD DUP13 SWAP1 SSTORE PUSH1 0x3 DUP4 ADD DUP12 SWAP1 SSTORE PUSH1 0x4 DUP4 ADD DUP11 SWAP1 SSTORE PUSH1 0x5 DUP4 ADD DUP1 SLOAD PUSH1 0x1 PUSH1 0x38 SHL PUSH1 0x1 PUSH1 0xD8 SHL SUB NOT AND PUSH1 0x1 PUSH1 0x38 SHL PUSH1 0x1 PUSH1 0x1 PUSH1 0xA0 SHL SUB DUP13 AND MUL OR PUSH7 0xFFFFFFFFFFFFFF NOT AND PUSH7 0xFFFFFFFFFFFFFF PUSH1 0x6 DUP12 SWAP1 SIGNEXTEND AND OR PUSH4 0xFFFFFFFF PUSH1 0xD8 SHL NOT AND PUSH1 0x1 PUSH1 0xD8 SHL PUSH4 0xFFFFFFFF DUP11 AND MUL OR SWAP1 SSTORE JUMPDEST PUSH1 0x5 DUP4 ADD DUP1 SLOAD PUSH1 0x1 PUSH1 0x1 PUSH1 0xF8 SHL SUB AND PUSH1 0x1 PUSH1 0xF8 SHL OR SWAP1 SSTORE JUMPDEST DUP3 SLOAD PUSH1 0x1 PUSH1 0x1 PUSH1 0x80 SHL SUB NOT AND PUSH1 0x1 PUSH1 0x1 PUSH1 0x80 SHL SUB DUP3 AND OR DUP4 SSTORE DUP6 PUSH2 0x5D30 JUMPI PUSH2 0x5D2B PUSH2 0x4A44 DUP15 PUSH1 0xF SIGNEXTEND DUP6 PUSH1 0x0 ADD PUSH1 0x10 SWAP1 SLOAD SWAP1 PUSH2 0x100 EXP SWAP1 DIV PUSH1 0xF SIGNEXTEND PUSH1 0xF SIGNEXTEND PUSH2 0x35B1 SWAP1 SWAP2 SWAP1 PUSH4 0xFFFFFFFF AND JUMP JUMPDEST PUSH2 0x5D5D JUMP JUMPDEST PUSH2 0x5D5D PUSH2 0x4A44 DUP15 PUSH1 0xF SIGNEXTEND DUP6 PUSH1 0x0 ADD PUSH1 0x10 SWAP1 SLOAD SWAP1 PUSH2 0x100 EXP SWAP1 DIV PUSH1 0xF SIGNEXTEND PUSH1 0xF SIGNEXTEND PUSH2 0x3595 SWAP1 SWAP2 SWAP1 PUSH4 0xFFFFFFFF AND JUMP JUMPDEST DUP4 SLOAD PUSH1 0xF SWAP2 SWAP1 SWAP2 SIGNEXTEND PUSH1 0x1 PUSH1 0x1 PUSH1 0x80 SHL SUB SWAP1 DUP2 AND PUSH1 0x1 PUSH1 0x80 SHL MUL SWAP2 AND OR SWAP1 SWAP3 SSTORE POP SWAP1 SWAP14 SWAP13 POP POP POP POP POP POP POP POP POP POP POP POP POP JUMP JUMPDEST DUP1 PUSH1 0x2 SIGNEXTEND DUP3 PUSH1 0x2 SIGNEXTEND DUP2 PUSH2 0x5D9E JUMPI INVALID JUMPDEST SMOD PUSH1 0x2 SIGNEXTEND ISZERO PUSH2 0x5DAC JUMPI PUSH1 0x0 DUP1 REVERT JUMPDEST PUSH1 0x0 DUP1 PUSH2 0x5DC7 DUP4 PUSH1 0x2 SIGNEXTEND DUP6 PUSH1 0x2 SIGNEXTEND DUP2 PUSH2 0x5DC1 JUMPI INVALID JUMPDEST SDIV PUSH2 0x4E58 JUMP JUMPDEST PUSH1 0x1 SWAP2 DUP3 SIGNEXTEND DUP3 SIGNEXTEND PUSH1 0x0 SWAP1 DUP2 MSTORE PUSH1 0x20 SWAP8 SWAP1 SWAP8 MSTORE PUSH1 0x40 SWAP1 SWAP7 KECCAK256 DUP1 SLOAD PUSH1 0xFF SWAP1 SWAP8 AND SWAP2 SWAP1 SWAP2 SHL SWAP1 SWAP6 XOR SWAP1 SWAP5 SSTORE POP POP POP POP JUMP JUMPDEST PUSH1 0x2 SWAP1 DUP2 SIGNEXTEND DUP2 SIGNEXTEND PUSH1 0x0 SWAP1 DUP2 MSTORE PUSH1 0x20 SWAP3 SWAP1 SWAP3 MSTORE PUSH1 0x40 DUP3 KECCAK256 DUP3 DUP2 SSTORE PUSH1 0x1 DUP2 ADD DUP1 SLOAD PUSH1 0x1 PUSH1 0x1 PUSH1 0x80 SHL SUB NOT AND SWAP1 SSTORE SWAP1 DUP2 ADD DUP3 SWAP1 SSTORE PUSH1 0x3 DUP2 ADD DUP3 SWAP1 SSTORE PUSH1 0x4 DUP2 ADD DUP3 SWAP1 SSTORE PUSH1 0x5 ADD SSTORE JUMP JUMPDEST DUP1 PUSH1 0x1 PUSH1 0x1 PUSH1 0xA0 SHL SUB DUP2 AND DUP2 EQ PUSH2 0x4268 JUMPI PUSH1 0x0 DUP1 REVERT JUMPDEST PUSH1 0x40 DUP1 MLOAD PUSH1 0xE0 DUP2 ADD DUP3 MSTORE PUSH1 0x0 DUP1 DUP3 MSTORE PUSH1 0x20 DUP3 ADD DUP2 SWAP1 MSTORE SWAP2 DUP2 ADD DUP3 SWAP1 MSTORE PUSH1 0x60 DUP2 ADD DUP3 SWAP1 MSTORE PUSH1 0x80 DUP2 ADD DUP3 SWAP1 MSTORE PUSH1 0xA0 DUP2 ADD DUP3 SWAP1 MSTORE PUSH1 0xC0 DUP2 ADD SWAP2 SWAP1 SWAP2 MSTORE SWAP1 JUMP JUMPDEST PUSH1 0x40 DUP1 MLOAD DUP1 DUP3 ADD SWAP1 SWAP2 MSTORE PUSH1 0x0 DUP1 DUP3 MSTORE PUSH1 0x20 DUP3 ADD MSTORE SWAP1 JUMP JUMPDEST PUSH1 0x40 DUP1 MLOAD PUSH1 0x80 DUP2 ADD DUP3 MSTORE PUSH1 0x0 DUP1 DUP3 MSTORE PUSH1 0x20 DUP3 ADD DUP2 SWAP1 MSTORE SWAP2 DUP2 ADD DUP3 SWAP1 MSTORE PUSH1 0x60 DUP2 ADD SWAP2 SWAP1 SWAP2 MSTORE SWAP1 JUMP INVALID LOG2 PUSH5 0x6970667358 0x22 SLT KECCAK256 0xE5 0xC1 0xE GT 0x1F PUSH16 0xEE7A216B74592BDBF817A6FA6EEAF9CF DUP7 SWAP13 0x5C EXTCODESIZE PUSH21 0x5CA1FAAB1C64736F6C634300070600330000000000 "
		},
		"gasEstimates": {
			"creation": {
				"codeDepositCost": "4864000",
				"executionCost": "5739",
				"totalCost": "4869739"
			},
			"external": {
				"burn(int24,int24,uint128)": "infinite",
				"burn(int24,int24,uint128,address)": "infinite",
				"collect(address,int24,int24,uint128,uint128)": "infinite",
				"collect(address,int24,int24,uint128,uint128,address)": "infinite",
				"collectFees()": "infinite",
				"factory()": "1104",
				"factoryRegistry()": "1127",
				"fee()": "infinite",
				"feeGrowthGlobal0X128()": "1130",
				"feeGrowthGlobal1X128()": "1132",
				"flash(address,uint256,uint256,bytes)": "infinite",
				"gauge()": "1170",
				"gaugeFees()": "1198",
				"getRewardGrowthInside(int24,int24,uint256)": "4174",
				"increaseObservationCardinalityNext(uint16)": "infinite",
				"initialize(address,address,address,int24,address,uint160)": "172903",
				"lastUpdated()": "1163",
				"liquidity()": "1128",
				"maxLiquidityPerTick()": "1166",
				"mint(address,int24,int24,uint128,bytes)": "infinite",
				"nft()": "1082",
				"observations(uint256)": "1341",
				"observe(uint32[])": "infinite",
				"periodFinish()": "1108",
				"positions(bytes32)": "3857",
				"rewardGrowthGlobalX128()": "1044",
				"rewardRate()": "1132",
				"rewardReserve()": "1109",
				"rollover()": "1153",
				"setGaugeAndPositionManager(address,address)": "infinite",
				"slot0()": "1349",
				"snapshotCumulativesInside(int24,int24)": "6663",
				"stake(int128,int24,int24,bool)": "infinite",
				"stakedLiquidity()": "1105",
				"swap(address,bool,int256,uint160,bytes)": "infinite",
				"syncReward(uint256,uint256,uint256)": "108648",
				"tickBitmap(int16)": "1269",
				"tickSpacing()": "1081",
				"ticks(int24)": "5753",
				"token0()": "1084",
				"token1()": "1103",
				"unstakedFee()": "infinite",
				"updateRewardsGrowthGlobal()": "111659"
			},
			"internal": {
				"_blockTimestamp()": "14",
				"_burn(int24,int24,uint128,address)": "infinite",
				"_collect(address,int24,int24,uint128,uint128,address)": "infinite",
				"_modifyPosition(struct CLPool.ModifyPositionParams memory)": "infinite",
				"_updatePosition(address,int24,int24,int128,int24)": "infinite",
				"_updateRewardsGrowthGlobal()": "68047",
				"applyUnstakedFees(uint256,uint256)": "infinite",
				"balance0()": "infinite",
				"balance1()": "infinite",
				"calculateFees(uint256,uint128,uint128)": "infinite",
				"checkTicks(int24,int24)": "infinite",
				"splitFees(uint256,uint128,uint128)": "infinite"
			}
		},
		"methodIdentifiers": {
			"burn(int24,int24,uint128)": "a34123a7",
			"burn(int24,int24,uint128,address)": "6f89244c",
			"collect(address,int24,int24,uint128,uint128)": "4f1eb3d8",
			"collect(address,int24,int24,uint128,uint128,address)": "31338374",
			"collectFees()": "c8796572",
			"factory()": "c45a0155",
			"factoryRegistry()": "3bf0c9fb",
			"fee()": "ddca3f43",
			"feeGrowthGlobal0X128()": "f3058399",
			"feeGrowthGlobal1X128()": "46141319",
			"flash(address,uint256,uint256,bytes)": "490e6cbc",
			"gauge()": "a6f19c84",
			"gaugeFees()": "293833ba",
			"getRewardGrowthInside(int24,int24,uint256)": "a16368c9",
			"increaseObservationCardinalityNext(uint16)": "32148f67",
			"initialize(address,address,address,int24,address,uint160)": "2071d884",
			"lastUpdated()": "d0b06f5d",
			"liquidity()": "1a686502",
			"maxLiquidityPerTick()": "70cf754a",
			"mint(address,int24,int24,uint128,bytes)": "3c8a7d8d",
			"nft()": "47ccca02",
			"observations(uint256)": "252c09d7",
			"observe(uint32[])": "883bdbfd",
			"periodFinish()": "ebe2b12b",
			"positions(bytes32)": "514ea4bf",
			"rewardGrowthGlobalX128()": "57806ada",
			"rewardRate()": "7b0a47ee",
			"rewardReserve()": "cab64bcd",
			"rollover()": "b056b49a",
			"setGaugeAndPositionManager(address,address)": "1f7c3568",
			"slot0()": "3850c7bd",
			"snapshotCumulativesInside(int24,int24)": "a38807f2",
			"stake(int128,int24,int24,bool)": "4ed6210f",
			"stakedLiquidity()": "3ab04b20",
			"swap(address,bool,int256,uint160,bytes)": "128acb08",
			"syncReward(uint256,uint256,uint256)": "60a73f9b",
			"tickBitmap(int16)": "5339c296",
			"tickSpacing()": "d0c93a7c",
			"ticks(int24)": "f30dba93",
			"token0()": "0dfe1681",
			"token1()": "d21220a7",
			"unstakedFee()": "b64cc67b",
			"updateRewardsGrowthGlobal()": "1b410960"
		}
	},
	"abi": [
		{
			"anonymous": false,
			"inputs": [
				{
					"indexed": true,
					"internalType": "address",
					"name": "owner",
					"type": "address"
				},
				{
					"indexed": true,
					"internalType": "int24",
					"name": "tickLower",
					"type": "int24"
				},
				{
					"indexed": true,
					"internalType": "int24",
					"name": "tickUpper",
					"type": "int24"
				},
				{
					"indexed": false,
					"internalType": "uint128",
					"name": "amount",
					"type": "uint128"
				},
				{
					"indexed": false,
					"internalType": "uint256",
					"name": "amount0",
					"type": "uint256"
				},
				{
					"indexed": false,
					"internalType": "uint256",
					"name": "amount1",
					"type": "uint256"
				}
			],
			"name": "Burn",
			"type": "event"
		},
		{
			"anonymous": false,
			"inputs": [
				{
					"indexed": true,
					"internalType": "address",
					"name": "owner",
					"type": "address"
				},
				{
					"indexed": false,
					"internalType": "address",
					"name": "recipient",
					"type": "address"
				},
				{
					"indexed": true,
					"internalType": "int24",
					"name": "tickLower",
					"type": "int24"
				},
				{
					"indexed": true,
					"internalType": "int24",
					"name": "tickUpper",
					"type": "int24"
				},
				{
					"indexed": false,
					"internalType": "uint128",
					"name": "amount0",
					"type": "uint128"
				},
				{
					"indexed": false,
					"internalType": "uint128",
					"name": "amount1",
					"type": "uint128"
				}
			],
			"name": "Collect",
			"type": "event"
		},
		{
			"anonymous": false,
			"inputs": [
				{
					"indexed": true,
					"internalType": "address",
					"name": "recipient",
					"type": "address"
				},
				{
					"indexed": false,
					"internalType": "uint128",
					"name": "amount0",
					"type": "uint128"
				},
				{
					"indexed": false,
					"internalType": "uint128",
					"name": "amount1",
					"type": "uint128"
				}
			],
			"name": "CollectFees",
			"type": "event"
		},
		{
			"anonymous": false,
			"inputs": [
				{
					"indexed": true,
					"internalType": "address",
					"name": "sender",
					"type": "address"
				},
				{
					"indexed": true,
					"internalType": "address",
					"name": "recipient",
					"type": "address"
				},
				{
					"indexed": false,
					"internalType": "uint256",
					"name": "amount0",
					"type": "uint256"
				},
				{
					"indexed": false,
					"internalType": "uint256",
					"name": "amount1",
					"type": "uint256"
				},
				{
					"indexed": false,
					"internalType": "uint256",
					"name": "paid0",
					"type": "uint256"
				},
				{
					"indexed": false,
					"internalType": "uint256",
					"name": "paid1",
					"type": "uint256"
				}
			],
			"name": "Flash",
			"type": "event"
		},
		{
			"anonymous": false,
			"inputs": [
				{
					"indexed": false,
					"internalType": "uint16",
					"name": "observationCardinalityNextOld",
					"type": "uint16"
				},
				{
					"indexed": false,
					"internalType": "uint16",
					"name": "observationCardinalityNextNew",
					"type": "uint16"
				}
			],
			"name": "IncreaseObservationCardinalityNext",
			"type": "event"
		},
		{
			"anonymous": false,
			"inputs": [
				{
					"indexed": false,
					"internalType": "uint160",
					"name": "sqrtPriceX96",
					"type": "uint160"
				},
				{
					"indexed": false,
					"internalType": "int24",
					"name": "tick",
					"type": "int24"
				}
			],
			"name": "Initialize",
			"type": "event"
		},
		{
			"anonymous": false,
			"inputs": [
				{
					"indexed": false,
					"internalType": "address",
					"name": "sender",
					"type": "address"
				},
				{
					"indexed": true,
					"internalType": "address",
					"name": "owner",
					"type": "address"
				},
				{
					"indexed": true,
					"internalType": "int24",
					"name": "tickLower",
					"type": "int24"
				},
				{
					"indexed": true,
					"internalType": "int24",
					"name": "tickUpper",
					"type": "int24"
				},
				{
					"indexed": false,
					"internalType": "uint128",
					"name": "amount",
					"type": "uint128"
				},
				{
					"indexed": false,
					"internalType": "uint256",
					"name": "amount0",
					"type": "uint256"
				},
				{
					"indexed": false,
					"internalType": "uint256",
					"name": "amount1",
					"type": "uint256"
				}
			],
			"name": "Mint",
			"type": "event"
		},
		{
			"anonymous": false,
			"inputs": [
				{
					"indexed": false,
					"internalType": "uint8",
					"name": "feeProtocol0Old",
					"type": "uint8"
				},
				{
					"indexed": false,
					"internalType": "uint8",
					"name": "feeProtocol1Old",
					"type": "uint8"
				},
				{
					"indexed": false,
					"internalType": "uint8",
					"name": "feeProtocol0New",
					"type": "uint8"
				},
				{
					"indexed": false,
					"internalType": "uint8",
					"name": "feeProtocol1New",
					"type": "uint8"
				}
			],
			"name": "SetFeeProtocol",
			"type": "event"
		},
		{
			"anonymous": false,
			"inputs": [
				{
					"indexed": true,
					"internalType": "address",
					"name": "sender",
					"type": "address"
				},
				{
					"indexed": true,
					"internalType": "address",
					"name": "recipient",
					"type": "address"
				},
				{
					"indexed": false,
					"internalType": "int256",
					"name": "amount0",
					"type": "int256"
				},
				{
					"indexed": false,
					"internalType": "int256",
					"name": "amount1",
					"type": "int256"
				},
				{
					"indexed": false,
					"internalType": "uint160",
					"name": "sqrtPriceX96",
					"type": "uint160"
				},
				{
					"indexed": false,
					"internalType": "uint128",
					"name": "liquidity",
					"type": "uint128"
				},
				{
					"indexed": false,
					"internalType": "int24",
					"name": "tick",
					"type": "int24"
				}
			],
			"name": "Swap",
			"type": "event"
		},
		{
			"inputs": [
				{
					"internalType": "int24",
					"name": "tickLower",
					"type": "int24"
				},
				{
					"internalType": "int24",
					"name": "tickUpper",
					"type": "int24"
				},
				{
					"internalType": "uint128",
					"name": "amount",
					"type": "uint128"
				},
				{
					"internalType": "address",
					"name": "owner",
					"type": "address"
				}
			],
			"name": "burn",
			"outputs": [
				{
					"internalType": "uint256",
					"name": "amount0",
					"type": "uint256"
				},
				{
					"internalType": "uint256",
					"name": "amount1",
					"type": "uint256"
				}
			],
			"stateMutability": "nonpayable",
			"type": "function"
		},
		{
			"inputs": [
				{
					"internalType": "int24",
					"name": "tickLower",
					"type": "int24"
				},
				{
					"internalType": "int24",
					"name": "tickUpper",
					"type": "int24"
				},
				{
					"internalType": "uint128",
					"name": "amount",
					"type": "uint128"
				}
			],
			"name": "burn",
			"outputs": [
				{
					"internalType": "uint256",
					"name": "amount0",
					"type": "uint256"
				},
				{
					"internalType": "uint256",
					"name": "amount1",
					"type": "uint256"
				}
			],
			"stateMutability": "nonpayable",
			"type": "function"
		},
		{
			"inputs": [
				{
					"internalType": "address",
					"name": "recipient",
					"type": "address"
				},
				{
					"internalType": "int24",
					"name": "tickLower",
					"type": "int24"
				},
				{
					"internalType": "int24",
					"name": "tickUpper",
					"type": "int24"
				},
				{
					"internalType": "uint128",
					"name": "amount0Requested",
					"type": "uint128"
				},
				{
					"internalType": "uint128",
					"name": "amount1Requested",
					"type": "uint128"
				},
				{
					"internalType": "address",
					"name": "owner",
					"type": "address"
				}
			],
			"name": "collect",
			"outputs": [
				{
					"internalType": "uint128",
					"name": "amount0",
					"type": "uint128"
				},
				{
					"internalType": "uint128",
					"name": "amount1",
					"type": "uint128"
				}
			],
			"stateMutability": "nonpayable",
			"type": "function"
		},
		{
			"inputs": [
				{
					"internalType": "address",
					"name": "recipient",
					"type": "address"
				},
				{
					"internalType": "int24",
					"name": "tickLower",
					"type": "int24"
				},
				{
					"internalType": "int24",
					"name": "tickUpper",
					"type": "int24"
				},
				{
					"internalType": "uint128",
					"name": "amount0Requested",
					"type": "uint128"
				},
				{
					"internalType": "uint128",
					"name": "amount1Requested",
					"type": "uint128"
				}
			],
			"name": "collect",
			"outputs": [
				{
					"internalType": "uint128",
					"name": "amount0",
					"type": "uint128"
				},
				{
					"internalType": "uint128",
					"name": "amount1",
					"type": "uint128"
				}
			],
			"stateMutability": "nonpayable",
			"type": "function"
		},
		{
			"inputs": [],
			"name": "collectFees",
			"outputs": [
				{
					"internalType": "uint128",
					"name": "amount0",
					"type": "uint128"
				},
				{
					"internalType": "uint128",
					"name": "amount1",
					"type": "uint128"
				}
			],
			"stateMutability": "nonpayable",
			"type": "function"
		},
		{
			"inputs": [],
			"name": "factory",
			"outputs": [
				{
					"internalType": "address",
					"name": "",
					"type": "address"
				}
			],
			"stateMutability": "view",
			"type": "function"
		},
		{
			"inputs": [],
			"name": "factoryRegistry",
			"outputs": [
				{
					"internalType": "address",
					"name": "",
					"type": "address"
				}
			],
			"stateMutability": "view",
			"type": "function"
		},
		{
			"inputs": [],
			"name": "fee",
			"outputs": [
				{
					"internalType": "uint24",
					"name": "",
					"type": "uint24"
				}
			],
			"stateMutability": "view",
			"type": "function"
		},
		{
			"inputs": [],
			"name": "feeGrowthGlobal0X128",
			"outputs": [
				{
					"internalType": "uint256",
					"name": "",
					"type": "uint256"
				}
			],
			"stateMutability": "view",
			"type": "function"
		},
		{
			"inputs": [],
			"name": "feeGrowthGlobal1X128",
			"outputs": [
				{
					"internalType": "uint256",
					"name": "",
					"type": "uint256"
				}
			],
			"stateMutability": "view",
			"type": "function"
		},
		{
			"inputs": [
				{
					"internalType": "address",
					"name": "recipient",
					"type": "address"
				},
				{
					"internalType": "uint256",
					"name": "amount0",
					"type": "uint256"
				},
				{
					"internalType": "uint256",
					"name": "amount1",
					"type": "uint256"
				},
				{
					"internalType": "bytes",
					"name": "data",
					"type": "bytes"
				}
			],
			"name": "flash",
			"outputs": [],
			"stateMutability": "nonpayable",
			"type": "function"
		},
		{
			"inputs": [],
			"name": "gauge",
			"outputs": [
				{
					"internalType": "address",
					"name": "",
					"type": "address"
				}
			],
			"stateMutability": "view",
			"type": "function"
		},
		{
			"inputs": [],
			"name": "gaugeFees",
			"outputs": [
				{
					"internalType": "uint128",
					"name": "token0",
					"type": "uint128"
				},
				{
					"internalType": "uint128",
					"name": "token1",
					"type": "uint128"
				}
			],
			"stateMutability": "view",
			"type": "function"
		},
		{
			"inputs": [
				{
					"internalType": "int24",
					"name": "tickLower",
					"type": "int24"
				},
				{
					"internalType": "int24",
					"name": "tickUpper",
					"type": "int24"
				},
				{
					"internalType": "uint256",
					"name": "_rewardGrowthGlobalX128",
					"type": "uint256"
				}
			],
			"name": "getRewardGrowthInside",
			"outputs": [
				{
					"internalType": "uint256",
					"name": "rewardGrowthInside",
					"type": "uint256"
				}
			],
			"stateMutability": "view",
			"type": "function"
		},
		{
			"inputs": [
				{
					"internalType": "uint16",
					"name": "observationCardinalityNext",
					"type": "uint16"
				}
			],
			"name": "increaseObservationCardinalityNext",
			"outputs": [],
			"stateMutability": "nonpayable",
			"type": "function"
		},
		{
			"inputs": [
				{
					"internalType": "address",
					"name": "_factory",
					"type": "address"
				},
				{
					"internalType": "address",
					"name": "_token0",
					"type": "address"
				},
				{
					"internalType": "address",
					"name": "_token1",
					"type": "address"
				},
				{
					"internalType": "int24",
					"name": "_tickSpacing",
					"type": "int24"
				},
				{
					"internalType": "address",
					"name": "_factoryRegistry",
					"type": "address"
				},
				{
					"internalType": "uint160",
					"name": "_sqrtPriceX96",
					"type": "uint160"
				}
			],
			"name": "initialize",
			"outputs": [],
			"stateMutability": "nonpayable",
			"type": "function"
		},
		{
			"inputs": [],
			"name": "lastUpdated",
			"outputs": [
				{
					"internalType": "uint32",
					"name": "",
					"type": "uint32"
				}
			],
			"stateMutability": "view",
			"type": "function"
		},
		{
			"inputs": [],
			"name": "liquidity",
			"outputs": [
				{
					"internalType": "uint128",
					"name": "",
					"type": "uint128"
				}
			],
			"stateMutability": "view",
			"type": "function"
		},
		{
			"inputs": [],
			"name": "maxLiquidityPerTick",
			"outputs": [
				{
					"internalType": "uint128",
					"name": "",
					"type": "uint128"
				}
			],
			"stateMutability": "view",
			"type": "function"
		},
		{
			"inputs": [
				{
					"internalType": "address",
					"name": "recipient",
					"type": "address"
				},
				{
					"internalType": "int24",
					"name": "tickLower",
					"type": "int24"
				},
				{
					"internalType": "int24",
					"name": "tickUpper",
					"type": "int24"
				},
				{
					"internalType": "uint128",
					"name": "amount",
					"type": "uint128"
				},
				{
					"internalType": "bytes",
					"name": "data",
					"type": "bytes"
				}
			],
			"name": "mint",
			"outputs": [
				{
					"internalType": "uint256",
					"name": "amount0",
					"type": "uint256"
				},
				{
					"internalType": "uint256",
					"name": "amount1",
					"type": "uint256"
				}
			],
			"stateMutability": "nonpayable",
			"type": "function"
		},
		{
			"inputs": [],
			"name": "nft",
			"outputs": [
				{
					"internalType": "address",
					"name": "",
					"type": "address"
				}
			],
			"stateMutability": "view",
			"type": "function"
		},
		{
			"inputs": [
				{
					"internalType": "uint256",
					"name": "",
					"type": "uint256"
				}
			],
			"name": "observations",
			"outputs": [
				{
					"internalType": "uint32",
					"name": "blockTimestamp",
					"type": "uint32"
				},
				{
					"internalType": "int56",
					"name": "tickCumulative",
					"type": "int56"
				},
				{
					"internalType": "uint160",
					"name": "secondsPerLiquidityCumulativeX128",
					"type": "uint160"
				},
				{
					"internalType": "bool",
					"name": "initialized",
					"type": "bool"
				}
			],
			"stateMutability": "view",
			"type": "function"
		},
		{
			"inputs": [
				{
					"internalType": "uint32[]",
					"name": "secondsAgos",
					"type": "uint32[]"
				}
			],
			"name": "observe",
			"outputs": [
				{
					"internalType": "int56[]",
					"name": "tickCumulatives",
					"type": "int56[]"
				},
				{
					"internalType": "uint160[]",
					"name": "secondsPerLiquidityCumulativeX128s",
					"type": "uint160[]"
				}
			],
			"stateMutability": "view",
			"type": "function"
		},
		{
			"inputs": [],
			"name": "periodFinish",
			"outputs": [
				{
					"internalType": "uint256",
					"name": "",
					"type": "uint256"
				}
			],
			"stateMutability": "view",
			"type": "function"
		},
		{
			"inputs": [
				{
					"internalType": "bytes32",
					"name": "",
					"type": "bytes32"
				}
			],
			"name": "positions",
			"outputs": [
				{
					"internalType": "uint128",
					"name": "liquidity",
					"type": "uint128"
				},
				{
					"internalType": "uint256",
					"name": "feeGrowthInside0LastX128",
					"type": "uint256"
				},
				{
					"internalType": "uint256",
					"name": "feeGrowthInside1LastX128",
					"type": "uint256"
				},
				{
					"internalType": "uint128",
					"name": "tokensOwed0",
					"type": "uint128"
				},
				{
					"internalType": "uint128",
					"name": "tokensOwed1",
					"type": "uint128"
				}
			],
			"stateMutability": "view",
			"type": "function"
		},
		{
			"inputs": [],
			"name": "rewardGrowthGlobalX128",
			"outputs": [
				{
					"internalType": "uint256",
					"name": "",
					"type": "uint256"
				}
			],
			"stateMutability": "view",
			"type": "function"
		},
		{
			"inputs": [],
			"name": "rewardRate",
			"outputs": [
				{
					"internalType": "uint256",
					"name": "",
					"type": "uint256"
				}
			],
			"stateMutability": "view",
			"type": "function"
		},
		{
			"inputs": [],
			"name": "rewardReserve",
			"outputs": [
				{
					"internalType": "uint256",
					"name": "",
					"type": "uint256"
				}
			],
			"stateMutability": "view",
			"type": "function"
		},
		{
			"inputs": [],
			"name": "rollover",
			"outputs": [
				{
					"internalType": "uint256",
					"name": "",
					"type": "uint256"
				}
			],
			"stateMutability": "view",
			"type": "function"
		},
		{
			"inputs": [
				{
					"internalType": "address",
					"name": "_gauge",
					"type": "address"
				},
				{
					"internalType": "address",
					"name": "_nft",
					"type": "address"
				}
			],
			"name": "setGaugeAndPositionManager",
			"outputs": [],
			"stateMutability": "nonpayable",
			"type": "function"
		},
		{
			"inputs": [],
			"name": "slot0",
			"outputs": [
				{
					"internalType": "uint160",
					"name": "sqrtPriceX96",
					"type": "uint160"
				},
				{
					"internalType": "int24",
					"name": "tick",
					"type": "int24"
				},
				{
					"internalType": "uint16",
					"name": "observationIndex",
					"type": "uint16"
				},
				{
					"internalType": "uint16",
					"name": "observationCardinality",
					"type": "uint16"
				},
				{
					"internalType": "uint16",
					"name": "observationCardinalityNext",
					"type": "uint16"
				},
				{
					"internalType": "bool",
					"name": "unlocked",
					"type": "bool"
				}
			],
			"stateMutability": "view",
			"type": "function"
		},
		{
			"inputs": [
				{
					"internalType": "int24",
					"name": "tickLower",
					"type": "int24"
				},
				{
					"internalType": "int24",
					"name": "tickUpper",
					"type": "int24"
				}
			],
			"name": "snapshotCumulativesInside",
			"outputs": [
				{
					"internalType": "int56",
					"name": "tickCumulativeInside",
					"type": "int56"
				},
				{
					"internalType": "uint160",
					"name": "secondsPerLiquidityInsideX128",
					"type": "uint160"
				},
				{
					"internalType": "uint32",
					"name": "secondsInside",
					"type": "uint32"
				}
			],
			"stateMutability": "view",
			"type": "function"
		},
		{
			"inputs": [
				{
					"internalType": "int128",
					"name": "stakedLiquidityDelta",
					"type": "int128"
				},
				{
					"internalType": "int24",
					"name": "tickLower",
					"type": "int24"
				},
				{
					"internalType": "int24",
					"name": "tickUpper",
					"type": "int24"
				},
				{
					"internalType": "bool",
					"name": "positionUpdate",
					"type": "bool"
				}
			],
			"name": "stake",
			"outputs": [],
			"stateMutability": "nonpayable",
			"type": "function"
		},
		{
			"inputs": [],
			"name": "stakedLiquidity",
			"outputs": [
				{
					"internalType": "uint128",
					"name": "",
					"type": "uint128"
				}
			],
			"stateMutability": "view",
			"type": "function"
		},
		{
			"inputs": [
				{
					"internalType": "address",
					"name": "recipient",
					"type": "address"
				},
				{
					"internalType": "bool",
					"name": "zeroForOne",
					"type": "bool"
				},
				{
					"internalType": "int256",
					"name": "amountSpecified",
					"type": "int256"
				},
				{
					"internalType": "uint160",
					"name": "sqrtPriceLimitX96",
					"type": "uint160"
				},
				{
					"internalType": "bytes",
					"name": "data",
					"type": "bytes"
				}
			],
			"name": "swap",
			"outputs": [
				{
					"internalType": "int256",
					"name": "amount0",
					"type": "int256"
				},
				{
					"internalType": "int256",
					"name": "amount1",
					"type": "int256"
				}
			],
			"stateMutability": "nonpayable",
			"type": "function"
		},
		{
			"inputs": [
				{
					"internalType": "uint256",
					"name": "_rewardRate",
					"type": "uint256"
				},
				{
					"internalType": "uint256",
					"name": "_rewardReserve",
					"type": "uint256"
				},
				{
					"internalType": "uint256",
					"name": "_periodFinish",
					"type": "uint256"
				}
			],
			"name": "syncReward",
			"outputs": [],
			"stateMutability": "nonpayable",
			"type": "function"
		},
		{
			"inputs": [
				{
					"internalType": "int16",
					"name": "",
					"type": "int16"
				}
			],
			"name": "tickBitmap",
			"outputs": [
				{
					"internalType": "uint256",
					"name": "",
					"type": "uint256"
				}
			],
			"stateMutability": "view",
			"type": "function"
		},
		{
			"inputs": [],
			"name": "tickSpacing",
			"outputs": [
				{
					"internalType": "int24",
					"name": "",
					"type": "int24"
				}
			],
			"stateMutability": "view",
			"type": "function"
		},
		{
			"inputs": [
				{
					"internalType": "int24",
					"name": "",
					"type": "int24"
				}
			],
			"name": "ticks",
			"outputs": [
				{
					"internalType": "uint128",
					"name": "liquidityGross",
					"type": "uint128"
				},
				{
					"internalType": "int128",
					"name": "liquidityNet",
					"type": "int128"
				},
				{
					"internalType": "int128",
					"name": "stakedLiquidityNet",
					"type": "int128"
				},
				{
					"internalType": "uint256",
					"name": "feeGrowthOutside0X128",
					"type": "uint256"
				},
				{
					"internalType": "uint256",
					"name": "feeGrowthOutside1X128",
					"type": "uint256"
				},
				{
					"internalType": "uint256",
					"name": "rewardGrowthOutsideX128",
					"type": "uint256"
				},
				{
					"internalType": "int56",
					"name": "tickCumulativeOutside",
					"type": "int56"
				},
				{
					"internalType": "uint160",
					"name": "secondsPerLiquidityOutsideX128",
					"type": "uint160"
				},
				{
					"internalType": "uint32",
					"name": "secondsOutside",
					"type": "uint32"
				},
				{
					"internalType": "bool",
					"name": "initialized",
					"type": "bool"
				}
			],
			"stateMutability": "view",
			"type": "function"
		},
		{
			"inputs": [],
			"name": "token0",
			"outputs": [
				{
					"internalType": "address",
					"name": "",
					"type": "address"
				}
			],
			"stateMutability": "view",
			"type": "function"
		},
		{
			"inputs": [],
			"name": "token1",
			"outputs": [
				{
					"internalType": "address",
					"name": "",
					"type": "address"
				}
			],
			"stateMutability": "view",
			"type": "function"
		},
		{
			"inputs": [],
			"name": "unstakedFee",
			"outputs": [
				{
					"internalType": "uint24",
					"name": "",
					"type": "uint24"
				}
			],
			"stateMutability": "view",
			"type": "function"
		},
		{
			"inputs": [],
			"name": "updateRewardsGrowthGlobal",
			"outputs": [],
			"stateMutability": "nonpayable",
			"type": "function"
		}
	]
}