{
	"contracts/core/VeloOracle.sol": {
		"VeloOracle": {
			"abi": [
				{
					"inputs": [
						{
							"internalType": "address",
							"name": "pool",
							"type": "address"
						}
					],
					"name": "GetPrice",
					"outputs": [
						{
							"internalType": "uint256",
							"name": "price",
							"type": "uint256"
						}
					],
					"stateMutability": "view",
					"type": "function"
				},
				{
					"inputs": [],
					"name": "V3Pool",
					"outputs": [
						{
							"internalType": "contract ICLPoolDerivedState",
							"name": "",
							"type": "address"
						}
					],
					"stateMutability": "view",
					"type": "function"
				}
			],
			"devdoc": {
				"kind": "dev",
				"methods": {},
				"version": 1
			},
			"evm": {
				"assembly": "    /* \"contracts/core/VeloOracle.sol\":636:672  uint32[] private secondsAgos = [0,1] */\n  0xc0\n    /* \"contracts/core/VeloOracle.sol\":573:1355  contract VeloOracle {\r... */\n  0x40\n    /* \"contracts/core/VeloOracle.sol\":636:672  uint32[] private secondsAgos = [0,1] */\n  mstore\n  0x00\n    /* \"contracts/core/VeloOracle.sol\":573:1355  contract VeloOracle {\r... */\n  0x80\n    /* \"contracts/core/VeloOracle.sol\":636:672  uint32[] private secondsAgos = [0,1] */\n  swap1\n  dup2\n  mstore\n    /* \"contracts/core/VeloOracle.sol\":670:671  1 */\n  0x01\n    /* \"contracts/core/VeloOracle.sol\":636:672  uint32[] private secondsAgos = [0,1] */\n  0xa0\n  dup2\n  swap1\n  mstore\n  tag_1\n  swap2\n  0x02\n  tag_2\n  jump\t// in\ntag_1:\n  pop\n    /* \"contracts/core/VeloOracle.sol\":573:1355  contract VeloOracle {\r... */\n  callvalue\n  dup1\n  iszero\n  tag_3\n  jumpi\n  0x00\n  dup1\n  revert\ntag_3:\n  pop\n  jump(tag_4)\ntag_2:\n  dup3\n  dup1\n  sload\n  dup3\n  dup3\n  sstore\n  swap1\n  0x00\n  mstore\n  keccak256(0x00, 0x20)\n  swap1\n  0x07\n  add\n  0x08\n  swap1\n  div\n  dup2\n  add\n  swap3\n  dup3\n  iszero\n  tag_5\n  jumpi\n  swap2\n  0x20\n  mul\n  dup3\n  add\n  0x00\ntag_6:\n  dup4\n  dup3\n  gt\n  iszero\n  tag_7\n  jumpi\n  dup4\n  mload\n  dup4\n  dup3\n  0x0100\n  exp\n  dup2\n  sload\n  dup2\n  0xffffffff\n  mul\n  not\n  and\n  swap1\n  dup4\n  0xff\n  and\n  mul\n  or\n  swap1\n  sstore\n  pop\n  swap3\n  0x20\n  add\n  swap3\n  0x04\n  add\n  0x20\n  dup2\n  0x03\n  add\n  div\n  swap3\n  dup4\n  add\n  swap3\n  0x01\n  sub\n  mul\n  jump(tag_6)\ntag_7:\n  dup1\n  iszero\n  tag_8\n  jumpi\n  dup3\n  dup2\n  0x0100\n  exp\n  dup2\n  sload\n  swap1\n  0xffffffff\n  mul\n  not\n  and\n  swap1\n  sstore\n  0x04\n  add\n  0x20\n  dup2\n  0x03\n  add\n  div\n  swap3\n  dup4\n  add\n  swap3\n  0x01\n  sub\n  mul\n  jump(tag_7)\ntag_8:\n  pop\ntag_5:\n  pop\n  tag_9\n  swap3\n  swap2\n  pop\n  tag_10\n  jump\t// in\ntag_9:\n  pop\n  swap1\n  jump\t// out\ntag_10:\ntag_11:\n  dup1\n  dup3\n  gt\n  iszero\n  tag_9\n  jumpi\n  0x00\n  dup2\n  sstore\n  0x01\n  add\n  jump(tag_11)\ntag_4:\n  dataSize(sub_0)\n  dup1\n  dataOffset(sub_0)\n  0x00\n  codecopy\n  0x00\n  return\nstop\n\nsub_0: assembly {\n        /* \"contracts/core/VeloOracle.sol\":573:1355  contract VeloOracle {\r... */\n      mstore(0x40, 0x80)\n      callvalue\n      dup1\n      iszero\n      tag_1\n      jumpi\n      0x00\n      dup1\n      revert\n    tag_1:\n      pop\n      jumpi(tag_2, lt(calldatasize, 0x04))\n      shr(0xe0, calldataload(0x00))\n      dup1\n      0x11ea5441\n      eq\n      tag_3\n      jumpi\n      dup1\n      0xf29d0040\n      eq\n      tag_4\n      jumpi\n    tag_2:\n      0x00\n      dup1\n      revert\n        /* \"contracts/core/VeloOracle.sol\":598:631  ICLPoolDerivedState public V3Pool */\n    tag_3:\n      tag_5\n      tag_6\n      jump\t// in\n    tag_5:\n      0x40\n      dup1\n      mload\n      sub(shl(0xa0, 0x01), 0x01)\n      swap1\n      swap3\n      and\n      dup3\n      mstore\n      mload\n      swap1\n      dup2\n      swap1\n      sub\n      0x20\n      add\n      swap1\n      return\n        /* \"contracts/core/VeloOracle.sol\":681:1352  function GetPrice(address pool) public view returns (uint price) {\r... */\n    tag_4:\n      tag_7\n      0x04\n      dup1\n      calldatasize\n      sub\n      0x20\n      dup2\n      lt\n      iszero\n      tag_8\n      jumpi\n      0x00\n      dup1\n      revert\n    tag_8:\n      pop\n      calldataload\n      sub(shl(0xa0, 0x01), 0x01)\n      and\n      tag_9\n      jump\t// in\n    tag_7:\n      0x40\n      dup1\n      mload\n      swap2\n      dup3\n      mstore\n      mload\n      swap1\n      dup2\n      swap1\n      sub\n      0x20\n      add\n      swap1\n      return\n        /* \"contracts/core/VeloOracle.sol\":598:631  ICLPoolDerivedState public V3Pool */\n    tag_6:\n      and(sub(shl(0xa0, 0x01), 0x01), sload(0x00))\n      dup2\n      jump\t// out\n        /* \"contracts/core/VeloOracle.sol\":681:1352  function GetPrice(address pool) public view returns (uint price) {\r... */\n    tag_9:\n        /* \"contracts/core/VeloOracle.sol\":734:744  uint price */\n      0x00\n        /* \"contracts/core/VeloOracle.sol\":757:767  uint price */\n      dup1\n        /* \"contracts/core/VeloOracle.sol\":787:817  int56[] memory tickCumulatives */\n      0x00\n        /* \"contracts/core/VeloOracle.sol\":842:846  pool */\n      dup4\n      sub(shl(0xa0, 0x01), 0x01)\n        /* \"contracts/core/VeloOracle.sol\":822:855  ICLPoolDerivedState(pool).observe */\n      and\n      0x883bdbfd\n        /* \"contracts/core/VeloOracle.sol\":856:867  secondsAgos */\n      0x01\n        /* \"contracts/core/VeloOracle.sol\":822:868  ICLPoolDerivedState(pool).observe(secondsAgos) */\n      mload(0x40)\n      dup3\n      0xffffffff\n      and\n      0xe0\n      shl\n      dup2\n      mstore\n      0x04\n      add\n      dup1\n      dup1\n      0x20\n      add\n      dup3\n      dup2\n      sub\n      dup3\n      mstore\n      dup4\n      dup2\n      dup2\n      sload\n      dup2\n      mstore\n      0x20\n      add\n      swap2\n      pop\n      dup1\n      sload\n      dup1\n      iszero\n      tag_11\n      jumpi\n      0x20\n      mul\n      dup3\n      add\n      swap2\n      swap1\n      0x00\n      mstore\n      keccak256(0x00, 0x20)\n      swap1\n      0x00\n      swap1\n    tag_12:\n      dup3\n      dup3\n      swap1\n      sload\n      swap1\n      0x0100\n      exp\n      swap1\n      div\n      0xffffffff\n      and\n      0xffffffff\n      and\n      dup2\n      mstore\n      0x20\n      add\n      swap1\n      0x04\n      add\n      swap1\n      0x20\n      dup3\n      0x03\n      add\n      div\n      swap3\n      dup4\n      add\n      swap3\n      0x01\n      sub\n      dup3\n      mul\n      swap2\n      pop\n      dup1\n      dup5\n      gt\n      tag_12\n      jumpi\n      swap1\n      pop\n    tag_11:\n      pop\n      pop\n      swap3\n      pop\n      pop\n      pop\n      0x00\n      mload(0x40)\n      dup1\n      dup4\n      sub\n      dup2\n      dup7\n      dup1\n      extcodesize\n      iszero\n      dup1\n      iszero\n      tag_13\n      jumpi\n      0x00\n      dup1\n      revert\n    tag_13:\n      pop\n      gas\n      staticcall\n      iszero\n      dup1\n      iszero\n      tag_15\n      jumpi\n      returndatasize\n      0x00\n      dup1\n      returndatacopy\n      revert(0x00, returndatasize)\n    tag_15:\n      pop\n      pop\n      pop\n      pop\n      mload(0x40)\n      returndatasize\n      0x00\n      dup3\n      returndatacopy\n      0x1f\n      returndatasize\n      swap1\n      dup2\n      add\n      not(0x1f)\n      and\n      dup3\n      add\n      0x40\n      swap1\n      dup2\n      mstore\n      dup2\n      lt\n      iszero\n      tag_16\n      jumpi\n      0x00\n      dup1\n      revert\n    tag_16:\n      dup2\n      add\n      swap1\n      dup1\n      dup1\n      mload\n      mload(0x40)\n      swap4\n      swap3\n      swap2\n      swap1\n      dup5\n      0x0100000000\n      dup3\n      gt\n      iszero\n      tag_17\n      jumpi\n      0x00\n      dup1\n      revert\n    tag_17:\n      swap1\n      dup4\n      add\n      swap1\n      0x20\n      dup3\n      add\n      dup6\n      dup2\n      gt\n      iszero\n      tag_18\n      jumpi\n      0x00\n      dup1\n      revert\n    tag_18:\n      dup3\n      mload\n      dup7\n      0x20\n      dup3\n      mul\n      dup4\n      add\n      gt\n      0x0100000000\n      dup3\n      gt\n      or\n      iszero\n      tag_19\n      jumpi\n      0x00\n      dup1\n      revert\n    tag_19:\n      dup3\n      mstore\n      pop\n      dup2\n      mload\n      0x20\n      swap2\n      dup3\n      add\n      swap3\n      dup3\n      add\n      swap2\n      mul\n      dup1\n      dup4\n      dup4\n      0x00\n    tag_20:\n      dup4\n      dup2\n      lt\n      iszero\n      tag_22\n      jumpi\n      dup2\n      dup2\n      add\n      mload\n      dup4\n      dup3\n      add\n      mstore\n      0x20\n      add\n      jump(tag_20)\n    tag_22:\n      pop\n      pop\n      pop\n      pop\n      swap1\n      pop\n      add\n      0x40\n      mstore\n      0x20\n      add\n      dup1\n      mload\n      mload(0x40)\n      swap4\n      swap3\n      swap2\n      swap1\n      dup5\n      0x0100000000\n      dup3\n      gt\n      iszero\n      tag_23\n      jumpi\n      0x00\n      dup1\n      revert\n    tag_23:\n      swap1\n      dup4\n      add\n      swap1\n      0x20\n      dup3\n      add\n      dup6\n      dup2\n      gt\n      iszero\n      tag_24\n      jumpi\n      0x00\n      dup1\n      revert\n    tag_24:\n      dup3\n      mload\n      dup7\n      0x20\n      dup3\n      mul\n      dup4\n      add\n      gt\n      0x0100000000\n      dup3\n      gt\n      or\n      iszero\n      tag_25\n      jumpi\n      0x00\n      dup1\n      revert\n    tag_25:\n      dup3\n      mstore\n      pop\n      dup2\n      mload\n      0x20\n      swap2\n      dup3\n      add\n      swap3\n      dup3\n      add\n      swap2\n      mul\n      dup1\n      dup4\n      dup4\n      0x00\n    tag_26:\n      dup4\n      dup2\n      lt\n      iszero\n      tag_28\n      jumpi\n      dup2\n      dup2\n      add\n      mload\n      dup4\n      dup3\n      add\n      mstore\n      0x20\n      add\n      jump(tag_26)\n    tag_28:\n      pop\n      pop\n      pop\n      pop\n      swap1\n      pop\n      add\n      0x40\n      mstore\n      pop\n      pop\n      pop\n        /* \"contracts/core/VeloOracle.sol\":786:868  (int56[] memory tickCumulatives,) = ICLPoolDerivedState(pool).observe(secondsAgos) */\n      pop\n      swap1\n      pop\n        /* \"contracts/core/VeloOracle.sol\":879:890  int56 ticka */\n      0x00\n        /* \"contracts/core/VeloOracle.sol\":893:908  tickCumulatives */\n      dup2\n        /* \"contracts/core/VeloOracle.sol\":909:910  0 */\n      0x00\n        /* \"contracts/core/VeloOracle.sol\":893:911  tickCumulatives[0] */\n      dup2\n      mload\n      dup2\n      lt\n      tag_29\n      jumpi\n      invalid\n    tag_29:\n      0x20\n      mul\n      0x20\n      add\n      add\n      mload\n        /* \"contracts/core/VeloOracle.sol\":879:911  int56 ticka = tickCumulatives[0] */\n      swap1\n      pop\n        /* \"contracts/core/VeloOracle.sol\":922:933  int56 tickb */\n      0x00\n        /* \"contracts/core/VeloOracle.sol\":936:951  tickCumulatives */\n      dup3\n        /* \"contracts/core/VeloOracle.sol\":952:953  1 */\n      0x01\n        /* \"contracts/core/VeloOracle.sol\":936:954  tickCumulatives[1] */\n      dup2\n      mload\n      dup2\n      lt\n      tag_30\n      jumpi\n      invalid\n    tag_30:\n      0x20\n      mul\n      0x20\n      add\n      add\n      mload\n        /* \"contracts/core/VeloOracle.sol\":922:954  int56 tickb = tickCumulatives[1] */\n      swap1\n      pop\n        /* \"contracts/core/VeloOracle.sol\":965:975  int56 tick */\n      0x00\n        /* \"contracts/core/VeloOracle.sol\":992:993  1 */\n      0x01\n        /* \"contracts/core/VeloOracle.sol\":985:990  tickb */\n      dup3\n        /* \"contracts/core/VeloOracle.sol\":979:984  ticka */\n      dup5\n        /* \"contracts/core/VeloOracle.sol\":979:990  ticka-tickb */\n      sub\n        /* \"contracts/core/VeloOracle.sol\":978:993  (ticka-tickb)/1 */\n      0x06\n      signextend\n      dup2\n      tag_31\n      jumpi\n      invalid\n    tag_31:\n      sdiv\n      swap1\n      pop\n      dup1\n        /* \"contracts/core/VeloOracle.sol\":1004:1016  int24 tick24 */\n      0x00\n        /* \"contracts/core/VeloOracle.sol\":1064:1099  TickMath.getSqrtRatioAtTick(tick24) */\n      tag_32\n        /* \"contracts/core/VeloOracle.sol\":978:993  (ticka-tickb)/1 */\n      dup3\n        /* \"contracts/core/VeloOracle.sol\":1064:1091  TickMath.getSqrtRatioAtTick */\n      tag_33\n        /* \"contracts/core/VeloOracle.sol\":1064:1099  TickMath.getSqrtRatioAtTick(tick24) */\n      jump\t// in\n    tag_32:\n        /* \"contracts/core/VeloOracle.sol\":1041:1099  uint160 sqrtRatioX96 = TickMath.getSqrtRatioAtTick(tick24) */\n      swap1\n      pop\n      sub(shl(0xa0, 0x01), 0x01)\n        /* \"contracts/core/VeloOracle.sol\":1122:1143  uint256(sqrtRatioX96) */\n      dup2\n      and\n        /* \"contracts/core/VeloOracle.sol\":1172:1173  2 */\n      0x02\n        /* \"contracts/core/VeloOracle.sol\":1167:1173  a ** 2 */\n      dup2\n      exp\n      shl(0xc0, 0x01)\n        /* \"contracts/core/VeloOracle.sol\":1231:1239  10 ** 14 */\n      0x5af3107a4000\n        /* \"contracts/core/VeloOracle.sol\":1110:1119  uint256 a */\n      0x00\n        /* \"contracts/core/VeloOracle.sol\":1263:1285  FullMath.mulDiv(s,r,t) */\n      tag_34\n        /* \"contracts/core/VeloOracle.sol\":1167:1173  a ** 2 */\n      dup5\n        /* \"contracts/core/VeloOracle.sol\":1231:1239  10 ** 14 */\n      dup4\n        /* \"contracts/core/VeloOracle.sol\":1198:1206  2 ** 192 */\n      dup6\n        /* \"contracts/core/VeloOracle.sol\":1263:1278  FullMath.mulDiv */\n      tag_35\n        /* \"contracts/core/VeloOracle.sol\":1263:1285  FullMath.mulDiv(s,r,t) */\n      jump\t// in\n    tag_34:\n        /* \"contracts/core/VeloOracle.sol\":1305:1310  d * r */\n      swap1\n      swap2\n      mul\n        /* \"contracts/core/VeloOracle.sol\":1313:1320  10 ** 2 */\n      0x64\n        /* \"contracts/core/VeloOracle.sol\":1304:1321  (d * r)*(10 ** 2) */\n      mul\n      swap14\n        /* \"contracts/core/VeloOracle.sol\":681:1352  function GetPrice(address pool) public view returns (uint price) {\r... */\n      swap13\n      pop\n      pop\n      pop\n      pop\n      pop\n      pop\n      pop\n      pop\n      pop\n      pop\n      pop\n      pop\n      pop\n      jump\t// out\n        /* \"contracts/core/libraries/TickMath.sol\":1362:3942  function getSqrtRatioAtTick(int24 tick) internal pure returns (uint160 sqrtPriceX96) {... */\n    tag_33:\n        /* \"contracts/core/libraries/TickMath.sol\":1425:1445  uint160 sqrtPriceX96 */\n      0x00\n        /* \"contracts/core/libraries/TickMath.sol\":1457:1472  uint256 absTick */\n      dup1\n        /* \"contracts/core/libraries/TickMath.sol\":1482:1483  0 */\n      0x00\n        /* \"contracts/core/libraries/TickMath.sol\":1475:1479  tick */\n      dup4\n        /* \"contracts/core/libraries/TickMath.sol\":1475:1483  tick < 0 */\n      0x02\n      signextend\n      slt\n        /* \"contracts/core/libraries/TickMath.sol\":1475:1532  tick < 0 ? uint256(-int256(tick)) : uint256(int256(tick)) */\n      tag_37\n      jumpi\n        /* \"contracts/core/libraries/TickMath.sol\":1526:1530  tick */\n      dup3\n        /* \"contracts/core/libraries/TickMath.sol\":1519:1531  int256(tick) */\n      0x02\n      signextend\n        /* \"contracts/core/libraries/TickMath.sol\":1475:1532  tick < 0 ? uint256(-int256(tick)) : uint256(int256(tick)) */\n      jump(tag_38)\n    tag_37:\n        /* \"contracts/core/libraries/TickMath.sol\":1502:1506  tick */\n      dup3\n        /* \"contracts/core/libraries/TickMath.sol\":1495:1507  int256(tick) */\n      0x02\n      signextend\n        /* \"contracts/core/libraries/TickMath.sol\":1494:1507  -int256(tick) */\n      0x00\n      sub\n        /* \"contracts/core/libraries/TickMath.sol\":1475:1532  tick < 0 ? uint256(-int256(tick)) : uint256(int256(tick)) */\n    tag_38:\n        /* \"contracts/core/libraries/TickMath.sol\":1457:1532  uint256 absTick = tick < 0 ? uint256(-int256(tick)) : uint256(int256(tick)) */\n      swap1\n      pop\n        /* \"contracts/core/libraries/TickMath.sol\":644:653  -MIN_TICK */\n      0x0d89e8\n        /* \"contracts/core/libraries/TickMath.sol\":1550:1578  absTick <= uint256(MAX_TICK) */\n      dup2\n      gt\n      iszero\n        /* \"contracts/core/libraries/TickMath.sol\":1542:1584  require(absTick <= uint256(MAX_TICK), \"T\") */\n      tag_39\n      jumpi\n      0x40\n      dup1\n      mload\n      shl(0xe5, 0x461bcd)\n      dup2\n      mstore\n      0x20\n      0x04\n      dup3\n      add\n      mstore\n      0x01\n      0x24\n      dup3\n      add\n      mstore\n      shl(0xfa, 0x15)\n      0x44\n      dup3\n      add\n      mstore\n      swap1\n      mload\n      swap1\n      dup2\n      swap1\n      sub\n      0x64\n      add\n      swap1\n      revert\n    tag_39:\n        /* \"contracts/core/libraries/TickMath.sol\":1595:1608  uint256 ratio */\n      0x00\n        /* \"contracts/core/libraries/TickMath.sol\":1621:1624  0x1 */\n      0x01\n        /* \"contracts/core/libraries/TickMath.sol\":1611:1624  absTick & 0x1 */\n      dup3\n      and\n        /* \"contracts/core/libraries/TickMath.sol\":1611:1704  absTick & 0x1 != 0 ? 0xfffcb933bd6fad37aa2d162d1a594001 : 0x100000000000000000000000000000000 */\n      tag_40\n      jumpi\n      shl(0x80, 0x01)\n      jump(tag_41)\n    tag_40:\n        /* \"contracts/core/libraries/TickMath.sol\":1632:1666  0xfffcb933bd6fad37aa2d162d1a594001 */\n      0xfffcb933bd6fad37aa2d162d1a594001\n        /* \"contracts/core/libraries/TickMath.sol\":1611:1704  absTick & 0x1 != 0 ? 0xfffcb933bd6fad37aa2d162d1a594001 : 0x100000000000000000000000000000000 */\n    tag_41:\n        /* \"contracts/core/libraries/TickMath.sol\":1595:1704  uint256 ratio = absTick & 0x1 != 0 ? 0xfffcb933bd6fad37aa2d162d1a594001 : 0x100000000000000000000000000000000 */\n      0xffffffffffffffffffffffffffffffffff\n      and\n      swap1\n      pop\n        /* \"contracts/core/libraries/TickMath.sol\":1728:1731  0x2 */\n      0x02\n        /* \"contracts/core/libraries/TickMath.sol\":1718:1731  absTick & 0x2 */\n      dup3\n      and\n        /* \"contracts/core/libraries/TickMath.sol\":1718:1736  absTick & 0x2 != 0 */\n      iszero\n        /* \"contracts/core/libraries/TickMath.sol\":1714:1797  if (absTick & 0x2 != 0) ratio = (ratio * 0xfff97272373d413259a46990580e213a) >> 128 */\n      tag_42\n      jumpi\n        /* \"contracts/core/libraries/TickMath.sol\":1755:1789  0xfff97272373d413259a46990580e213a */\n      0xfff97272373d413259a46990580e213a\n        /* \"contracts/core/libraries/TickMath.sol\":1747:1789  ratio * 0xfff97272373d413259a46990580e213a */\n      mul\n        /* \"contracts/core/libraries/TickMath.sol\":1794:1797  128 */\n      0x80\n        /* \"contracts/core/libraries/TickMath.sol\":1746:1797  (ratio * 0xfff97272373d413259a46990580e213a) >> 128 */\n      shr\n        /* \"contracts/core/libraries/TickMath.sol\":1714:1797  if (absTick & 0x2 != 0) ratio = (ratio * 0xfff97272373d413259a46990580e213a) >> 128 */\n    tag_42:\n        /* \"contracts/core/libraries/TickMath.sol\":1821:1824  0x4 */\n      0x04\n        /* \"contracts/core/libraries/TickMath.sol\":1811:1824  absTick & 0x4 */\n      dup3\n      and\n        /* \"contracts/core/libraries/TickMath.sol\":1811:1829  absTick & 0x4 != 0 */\n      iszero\n        /* \"contracts/core/libraries/TickMath.sol\":1807:1890  if (absTick & 0x4 != 0) ratio = (ratio * 0xfff2e50f5f656932ef12357cf3c7fdcc) >> 128 */\n      tag_43\n      jumpi\n        /* \"contracts/core/libraries/TickMath.sol\":1848:1882  0xfff2e50f5f656932ef12357cf3c7fdcc */\n      0xfff2e50f5f656932ef12357cf3c7fdcc\n        /* \"contracts/core/libraries/TickMath.sol\":1840:1882  ratio * 0xfff2e50f5f656932ef12357cf3c7fdcc */\n      mul\n        /* \"contracts/core/libraries/TickMath.sol\":1887:1890  128 */\n      0x80\n        /* \"contracts/core/libraries/TickMath.sol\":1839:1890  (ratio * 0xfff2e50f5f656932ef12357cf3c7fdcc) >> 128 */\n      shr\n        /* \"contracts/core/libraries/TickMath.sol\":1807:1890  if (absTick & 0x4 != 0) ratio = (ratio * 0xfff2e50f5f656932ef12357cf3c7fdcc) >> 128 */\n    tag_43:\n        /* \"contracts/core/libraries/TickMath.sol\":1914:1917  0x8 */\n      0x08\n        /* \"contracts/core/libraries/TickMath.sol\":1904:1917  absTick & 0x8 */\n      dup3\n      and\n        /* \"contracts/core/libraries/TickMath.sol\":1904:1922  absTick & 0x8 != 0 */\n      iszero\n        /* \"contracts/core/libraries/TickMath.sol\":1900:1983  if (absTick & 0x8 != 0) ratio = (ratio * 0xffe5caca7e10e4e61c3624eaa0941cd0) >> 128 */\n      tag_44\n      jumpi\n        /* \"contracts/core/libraries/TickMath.sol\":1941:1975  0xffe5caca7e10e4e61c3624eaa0941cd0 */\n      0xffe5caca7e10e4e61c3624eaa0941cd0\n        /* \"contracts/core/libraries/TickMath.sol\":1933:1975  ratio * 0xffe5caca7e10e4e61c3624eaa0941cd0 */\n      mul\n        /* \"contracts/core/libraries/TickMath.sol\":1980:1983  128 */\n      0x80\n        /* \"contracts/core/libraries/TickMath.sol\":1932:1983  (ratio * 0xffe5caca7e10e4e61c3624eaa0941cd0) >> 128 */\n      shr\n        /* \"contracts/core/libraries/TickMath.sol\":1900:1983  if (absTick & 0x8 != 0) ratio = (ratio * 0xffe5caca7e10e4e61c3624eaa0941cd0) >> 128 */\n    tag_44:\n        /* \"contracts/core/libraries/TickMath.sol\":2007:2011  0x10 */\n      0x10\n        /* \"contracts/core/libraries/TickMath.sol\":1997:2011  absTick & 0x10 */\n      dup3\n      and\n        /* \"contracts/core/libraries/TickMath.sol\":1997:2016  absTick & 0x10 != 0 */\n      iszero\n        /* \"contracts/core/libraries/TickMath.sol\":1993:2077  if (absTick & 0x10 != 0) ratio = (ratio * 0xffcb9843d60f6159c9db58835c926644) >> 128 */\n      tag_45\n      jumpi\n        /* \"contracts/core/libraries/TickMath.sol\":2035:2069  0xffcb9843d60f6159c9db58835c926644 */\n      0xffcb9843d60f6159c9db58835c926644\n        /* \"contracts/core/libraries/TickMath.sol\":2027:2069  ratio * 0xffcb9843d60f6159c9db58835c926644 */\n      mul\n        /* \"contracts/core/libraries/TickMath.sol\":2074:2077  128 */\n      0x80\n        /* \"contracts/core/libraries/TickMath.sol\":2026:2077  (ratio * 0xffcb9843d60f6159c9db58835c926644) >> 128 */\n      shr\n        /* \"contracts/core/libraries/TickMath.sol\":1993:2077  if (absTick & 0x10 != 0) ratio = (ratio * 0xffcb9843d60f6159c9db58835c926644) >> 128 */\n    tag_45:\n        /* \"contracts/core/libraries/TickMath.sol\":2101:2105  0x20 */\n      0x20\n        /* \"contracts/core/libraries/TickMath.sol\":2091:2105  absTick & 0x20 */\n      dup3\n      and\n        /* \"contracts/core/libraries/TickMath.sol\":2091:2110  absTick & 0x20 != 0 */\n      iszero\n        /* \"contracts/core/libraries/TickMath.sol\":2087:2171  if (absTick & 0x20 != 0) ratio = (ratio * 0xff973b41fa98c081472e6896dfb254c0) >> 128 */\n      tag_46\n      jumpi\n        /* \"contracts/core/libraries/TickMath.sol\":2129:2163  0xff973b41fa98c081472e6896dfb254c0 */\n      0xff973b41fa98c081472e6896dfb254c0\n        /* \"contracts/core/libraries/TickMath.sol\":2121:2163  ratio * 0xff973b41fa98c081472e6896dfb254c0 */\n      mul\n        /* \"contracts/core/libraries/TickMath.sol\":2168:2171  128 */\n      0x80\n        /* \"contracts/core/libraries/TickMath.sol\":2120:2171  (ratio * 0xff973b41fa98c081472e6896dfb254c0) >> 128 */\n      shr\n        /* \"contracts/core/libraries/TickMath.sol\":2087:2171  if (absTick & 0x20 != 0) ratio = (ratio * 0xff973b41fa98c081472e6896dfb254c0) >> 128 */\n    tag_46:\n        /* \"contracts/core/libraries/TickMath.sol\":2195:2199  0x40 */\n      0x40\n        /* \"contracts/core/libraries/TickMath.sol\":2185:2199  absTick & 0x40 */\n      dup3\n      and\n        /* \"contracts/core/libraries/TickMath.sol\":2185:2204  absTick & 0x40 != 0 */\n      iszero\n        /* \"contracts/core/libraries/TickMath.sol\":2181:2265  if (absTick & 0x40 != 0) ratio = (ratio * 0xff2ea16466c96a3843ec78b326b52861) >> 128 */\n      tag_47\n      jumpi\n        /* \"contracts/core/libraries/TickMath.sol\":2223:2257  0xff2ea16466c96a3843ec78b326b52861 */\n      0xff2ea16466c96a3843ec78b326b52861\n        /* \"contracts/core/libraries/TickMath.sol\":2215:2257  ratio * 0xff2ea16466c96a3843ec78b326b52861 */\n      mul\n        /* \"contracts/core/libraries/TickMath.sol\":2262:2265  128 */\n      0x80\n        /* \"contracts/core/libraries/TickMath.sol\":2214:2265  (ratio * 0xff2ea16466c96a3843ec78b326b52861) >> 128 */\n      shr\n        /* \"contracts/core/libraries/TickMath.sol\":2181:2265  if (absTick & 0x40 != 0) ratio = (ratio * 0xff2ea16466c96a3843ec78b326b52861) >> 128 */\n    tag_47:\n        /* \"contracts/core/libraries/TickMath.sol\":2289:2293  0x80 */\n      0x80\n        /* \"contracts/core/libraries/TickMath.sol\":2279:2293  absTick & 0x80 */\n      dup3\n      and\n        /* \"contracts/core/libraries/TickMath.sol\":2279:2298  absTick & 0x80 != 0 */\n      iszero\n        /* \"contracts/core/libraries/TickMath.sol\":2275:2359  if (absTick & 0x80 != 0) ratio = (ratio * 0xfe5dee046a99a2a811c461f1969c3053) >> 128 */\n      tag_48\n      jumpi\n        /* \"contracts/core/libraries/TickMath.sol\":2317:2351  0xfe5dee046a99a2a811c461f1969c3053 */\n      0xfe5dee046a99a2a811c461f1969c3053\n        /* \"contracts/core/libraries/TickMath.sol\":2309:2351  ratio * 0xfe5dee046a99a2a811c461f1969c3053 */\n      mul\n        /* \"contracts/core/libraries/TickMath.sol\":2356:2359  128 */\n      0x80\n        /* \"contracts/core/libraries/TickMath.sol\":2308:2359  (ratio * 0xfe5dee046a99a2a811c461f1969c3053) >> 128 */\n      shr\n        /* \"contracts/core/libraries/TickMath.sol\":2275:2359  if (absTick & 0x80 != 0) ratio = (ratio * 0xfe5dee046a99a2a811c461f1969c3053) >> 128 */\n    tag_48:\n        /* \"contracts/core/libraries/TickMath.sol\":2383:2388  0x100 */\n      0x0100\n        /* \"contracts/core/libraries/TickMath.sol\":2373:2388  absTick & 0x100 */\n      dup3\n      and\n        /* \"contracts/core/libraries/TickMath.sol\":2373:2393  absTick & 0x100 != 0 */\n      iszero\n        /* \"contracts/core/libraries/TickMath.sol\":2369:2454  if (absTick & 0x100 != 0) ratio = (ratio * 0xfcbe86c7900a88aedcffc83b479aa3a4) >> 128 */\n      tag_49\n      jumpi\n        /* \"contracts/core/libraries/TickMath.sol\":2412:2446  0xfcbe86c7900a88aedcffc83b479aa3a4 */\n      0xfcbe86c7900a88aedcffc83b479aa3a4\n        /* \"contracts/core/libraries/TickMath.sol\":2404:2446  ratio * 0xfcbe86c7900a88aedcffc83b479aa3a4 */\n      mul\n        /* \"contracts/core/libraries/TickMath.sol\":2451:2454  128 */\n      0x80\n        /* \"contracts/core/libraries/TickMath.sol\":2403:2454  (ratio * 0xfcbe86c7900a88aedcffc83b479aa3a4) >> 128 */\n      shr\n        /* \"contracts/core/libraries/TickMath.sol\":2369:2454  if (absTick & 0x100 != 0) ratio = (ratio * 0xfcbe86c7900a88aedcffc83b479aa3a4) >> 128 */\n    tag_49:\n        /* \"contracts/core/libraries/TickMath.sol\":2478:2483  0x200 */\n      0x0200\n        /* \"contracts/core/libraries/TickMath.sol\":2468:2483  absTick & 0x200 */\n      dup3\n      and\n        /* \"contracts/core/libraries/TickMath.sol\":2468:2488  absTick & 0x200 != 0 */\n      iszero\n        /* \"contracts/core/libraries/TickMath.sol\":2464:2549  if (absTick & 0x200 != 0) ratio = (ratio * 0xf987a7253ac413176f2b074cf7815e54) >> 128 */\n      tag_50\n      jumpi\n        /* \"contracts/core/libraries/TickMath.sol\":2507:2541  0xf987a7253ac413176f2b074cf7815e54 */\n      0xf987a7253ac413176f2b074cf7815e54\n        /* \"contracts/core/libraries/TickMath.sol\":2499:2541  ratio * 0xf987a7253ac413176f2b074cf7815e54 */\n      mul\n        /* \"contracts/core/libraries/TickMath.sol\":2546:2549  128 */\n      0x80\n        /* \"contracts/core/libraries/TickMath.sol\":2498:2549  (ratio * 0xf987a7253ac413176f2b074cf7815e54) >> 128 */\n      shr\n        /* \"contracts/core/libraries/TickMath.sol\":2464:2549  if (absTick & 0x200 != 0) ratio = (ratio * 0xf987a7253ac413176f2b074cf7815e54) >> 128 */\n    tag_50:\n        /* \"contracts/core/libraries/TickMath.sol\":2573:2578  0x400 */\n      0x0400\n        /* \"contracts/core/libraries/TickMath.sol\":2563:2578  absTick & 0x400 */\n      dup3\n      and\n        /* \"contracts/core/libraries/TickMath.sol\":2563:2583  absTick & 0x400 != 0 */\n      iszero\n        /* \"contracts/core/libraries/TickMath.sol\":2559:2644  if (absTick & 0x400 != 0) ratio = (ratio * 0xf3392b0822b70005940c7a398e4b70f3) >> 128 */\n      tag_51\n      jumpi\n        /* \"contracts/core/libraries/TickMath.sol\":2602:2636  0xf3392b0822b70005940c7a398e4b70f3 */\n      0xf3392b0822b70005940c7a398e4b70f3\n        /* \"contracts/core/libraries/TickMath.sol\":2594:2636  ratio * 0xf3392b0822b70005940c7a398e4b70f3 */\n      mul\n        /* \"contracts/core/libraries/TickMath.sol\":2641:2644  128 */\n      0x80\n        /* \"contracts/core/libraries/TickMath.sol\":2593:2644  (ratio * 0xf3392b0822b70005940c7a398e4b70f3) >> 128 */\n      shr\n        /* \"contracts/core/libraries/TickMath.sol\":2559:2644  if (absTick & 0x400 != 0) ratio = (ratio * 0xf3392b0822b70005940c7a398e4b70f3) >> 128 */\n    tag_51:\n        /* \"contracts/core/libraries/TickMath.sol\":2668:2673  0x800 */\n      0x0800\n        /* \"contracts/core/libraries/TickMath.sol\":2658:2673  absTick & 0x800 */\n      dup3\n      and\n        /* \"contracts/core/libraries/TickMath.sol\":2658:2678  absTick & 0x800 != 0 */\n      iszero\n        /* \"contracts/core/libraries/TickMath.sol\":2654:2739  if (absTick & 0x800 != 0) ratio = (ratio * 0xe7159475a2c29b7443b29c7fa6e889d9) >> 128 */\n      tag_52\n      jumpi\n        /* \"contracts/core/libraries/TickMath.sol\":2697:2731  0xe7159475a2c29b7443b29c7fa6e889d9 */\n      0xe7159475a2c29b7443b29c7fa6e889d9\n        /* \"contracts/core/libraries/TickMath.sol\":2689:2731  ratio * 0xe7159475a2c29b7443b29c7fa6e889d9 */\n      mul\n        /* \"contracts/core/libraries/TickMath.sol\":2736:2739  128 */\n      0x80\n        /* \"contracts/core/libraries/TickMath.sol\":2688:2739  (ratio * 0xe7159475a2c29b7443b29c7fa6e889d9) >> 128 */\n      shr\n        /* \"contracts/core/libraries/TickMath.sol\":2654:2739  if (absTick & 0x800 != 0) ratio = (ratio * 0xe7159475a2c29b7443b29c7fa6e889d9) >> 128 */\n    tag_52:\n        /* \"contracts/core/libraries/TickMath.sol\":2763:2769  0x1000 */\n      0x1000\n        /* \"contracts/core/libraries/TickMath.sol\":2753:2769  absTick & 0x1000 */\n      dup3\n      and\n        /* \"contracts/core/libraries/TickMath.sol\":2753:2774  absTick & 0x1000 != 0 */\n      iszero\n        /* \"contracts/core/libraries/TickMath.sol\":2749:2835  if (absTick & 0x1000 != 0) ratio = (ratio * 0xd097f3bdfd2022b8845ad8f792aa5825) >> 128 */\n      tag_53\n      jumpi\n        /* \"contracts/core/libraries/TickMath.sol\":2793:2827  0xd097f3bdfd2022b8845ad8f792aa5825 */\n      0xd097f3bdfd2022b8845ad8f792aa5825\n        /* \"contracts/core/libraries/TickMath.sol\":2785:2827  ratio * 0xd097f3bdfd2022b8845ad8f792aa5825 */\n      mul\n        /* \"contracts/core/libraries/TickMath.sol\":2832:2835  128 */\n      0x80\n        /* \"contracts/core/libraries/TickMath.sol\":2784:2835  (ratio * 0xd097f3bdfd2022b8845ad8f792aa5825) >> 128 */\n      shr\n        /* \"contracts/core/libraries/TickMath.sol\":2749:2835  if (absTick & 0x1000 != 0) ratio = (ratio * 0xd097f3bdfd2022b8845ad8f792aa5825) >> 128 */\n    tag_53:\n        /* \"contracts/core/libraries/TickMath.sol\":2859:2865  0x2000 */\n      0x2000\n        /* \"contracts/core/libraries/TickMath.sol\":2849:2865  absTick & 0x2000 */\n      dup3\n      and\n        /* \"contracts/core/libraries/TickMath.sol\":2849:2870  absTick & 0x2000 != 0 */\n      iszero\n        /* \"contracts/core/libraries/TickMath.sol\":2845:2931  if (absTick & 0x2000 != 0) ratio = (ratio * 0xa9f746462d870fdf8a65dc1f90e061e5) >> 128 */\n      tag_54\n      jumpi\n        /* \"contracts/core/libraries/TickMath.sol\":2889:2923  0xa9f746462d870fdf8a65dc1f90e061e5 */\n      0xa9f746462d870fdf8a65dc1f90e061e5\n        /* \"contracts/core/libraries/TickMath.sol\":2881:2923  ratio * 0xa9f746462d870fdf8a65dc1f90e061e5 */\n      mul\n        /* \"contracts/core/libraries/TickMath.sol\":2928:2931  128 */\n      0x80\n        /* \"contracts/core/libraries/TickMath.sol\":2880:2931  (ratio * 0xa9f746462d870fdf8a65dc1f90e061e5) >> 128 */\n      shr\n        /* \"contracts/core/libraries/TickMath.sol\":2845:2931  if (absTick & 0x2000 != 0) ratio = (ratio * 0xa9f746462d870fdf8a65dc1f90e061e5) >> 128 */\n    tag_54:\n        /* \"contracts/core/libraries/TickMath.sol\":2955:2961  0x4000 */\n      0x4000\n        /* \"contracts/core/libraries/TickMath.sol\":2945:2961  absTick & 0x4000 */\n      dup3\n      and\n        /* \"contracts/core/libraries/TickMath.sol\":2945:2966  absTick & 0x4000 != 0 */\n      iszero\n        /* \"contracts/core/libraries/TickMath.sol\":2941:3027  if (absTick & 0x4000 != 0) ratio = (ratio * 0x70d869a156d2a1b890bb3df62baf32f7) >> 128 */\n      tag_55\n      jumpi\n        /* \"contracts/core/libraries/TickMath.sol\":2985:3019  0x70d869a156d2a1b890bb3df62baf32f7 */\n      0x70d869a156d2a1b890bb3df62baf32f7\n        /* \"contracts/core/libraries/TickMath.sol\":2977:3019  ratio * 0x70d869a156d2a1b890bb3df62baf32f7 */\n      mul\n        /* \"contracts/core/libraries/TickMath.sol\":3024:3027  128 */\n      0x80\n        /* \"contracts/core/libraries/TickMath.sol\":2976:3027  (ratio * 0x70d869a156d2a1b890bb3df62baf32f7) >> 128 */\n      shr\n        /* \"contracts/core/libraries/TickMath.sol\":2941:3027  if (absTick & 0x4000 != 0) ratio = (ratio * 0x70d869a156d2a1b890bb3df62baf32f7) >> 128 */\n    tag_55:\n        /* \"contracts/core/libraries/TickMath.sol\":3051:3057  0x8000 */\n      0x8000\n        /* \"contracts/core/libraries/TickMath.sol\":3041:3057  absTick & 0x8000 */\n      dup3\n      and\n        /* \"contracts/core/libraries/TickMath.sol\":3041:3062  absTick & 0x8000 != 0 */\n      iszero\n        /* \"contracts/core/libraries/TickMath.sol\":3037:3123  if (absTick & 0x8000 != 0) ratio = (ratio * 0x31be135f97d08fd981231505542fcfa6) >> 128 */\n      tag_56\n      jumpi\n        /* \"contracts/core/libraries/TickMath.sol\":3081:3115  0x31be135f97d08fd981231505542fcfa6 */\n      0x31be135f97d08fd981231505542fcfa6\n        /* \"contracts/core/libraries/TickMath.sol\":3073:3115  ratio * 0x31be135f97d08fd981231505542fcfa6 */\n      mul\n        /* \"contracts/core/libraries/TickMath.sol\":3120:3123  128 */\n      0x80\n        /* \"contracts/core/libraries/TickMath.sol\":3072:3123  (ratio * 0x31be135f97d08fd981231505542fcfa6) >> 128 */\n      shr\n        /* \"contracts/core/libraries/TickMath.sol\":3037:3123  if (absTick & 0x8000 != 0) ratio = (ratio * 0x31be135f97d08fd981231505542fcfa6) >> 128 */\n    tag_56:\n        /* \"contracts/core/libraries/TickMath.sol\":3147:3154  0x10000 */\n      0x010000\n        /* \"contracts/core/libraries/TickMath.sol\":3137:3154  absTick & 0x10000 */\n      dup3\n      and\n        /* \"contracts/core/libraries/TickMath.sol\":3137:3159  absTick & 0x10000 != 0 */\n      iszero\n        /* \"contracts/core/libraries/TickMath.sol\":3133:3219  if (absTick & 0x10000 != 0) ratio = (ratio * 0x9aa508b5b7a84e1c677de54f3e99bc9) >> 128 */\n      tag_57\n      jumpi\n        /* \"contracts/core/libraries/TickMath.sol\":3178:3211  0x9aa508b5b7a84e1c677de54f3e99bc9 */\n      0x09aa508b5b7a84e1c677de54f3e99bc9\n        /* \"contracts/core/libraries/TickMath.sol\":3170:3211  ratio * 0x9aa508b5b7a84e1c677de54f3e99bc9 */\n      mul\n        /* \"contracts/core/libraries/TickMath.sol\":3216:3219  128 */\n      0x80\n        /* \"contracts/core/libraries/TickMath.sol\":3169:3219  (ratio * 0x9aa508b5b7a84e1c677de54f3e99bc9) >> 128 */\n      shr\n        /* \"contracts/core/libraries/TickMath.sol\":3133:3219  if (absTick & 0x10000 != 0) ratio = (ratio * 0x9aa508b5b7a84e1c677de54f3e99bc9) >> 128 */\n    tag_57:\n        /* \"contracts/core/libraries/TickMath.sol\":3243:3250  0x20000 */\n      0x020000\n        /* \"contracts/core/libraries/TickMath.sol\":3233:3250  absTick & 0x20000 */\n      dup3\n      and\n        /* \"contracts/core/libraries/TickMath.sol\":3233:3255  absTick & 0x20000 != 0 */\n      iszero\n        /* \"contracts/core/libraries/TickMath.sol\":3229:3314  if (absTick & 0x20000 != 0) ratio = (ratio * 0x5d6af8dedb81196699c329225ee604) >> 128 */\n      tag_58\n      jumpi\n        /* \"contracts/core/libraries/TickMath.sol\":3274:3306  0x5d6af8dedb81196699c329225ee604 */\n      0x5d6af8dedb81196699c329225ee604\n        /* \"contracts/core/libraries/TickMath.sol\":3266:3306  ratio * 0x5d6af8dedb81196699c329225ee604 */\n      mul\n        /* \"contracts/core/libraries/TickMath.sol\":3311:3314  128 */\n      0x80\n        /* \"contracts/core/libraries/TickMath.sol\":3265:3314  (ratio * 0x5d6af8dedb81196699c329225ee604) >> 128 */\n      shr\n        /* \"contracts/core/libraries/TickMath.sol\":3229:3314  if (absTick & 0x20000 != 0) ratio = (ratio * 0x5d6af8dedb81196699c329225ee604) >> 128 */\n    tag_58:\n        /* \"contracts/core/libraries/TickMath.sol\":3338:3345  0x40000 */\n      0x040000\n        /* \"contracts/core/libraries/TickMath.sol\":3328:3345  absTick & 0x40000 */\n      dup3\n      and\n        /* \"contracts/core/libraries/TickMath.sol\":3328:3350  absTick & 0x40000 != 0 */\n      iszero\n        /* \"contracts/core/libraries/TickMath.sol\":3324:3407  if (absTick & 0x40000 != 0) ratio = (ratio * 0x2216e584f5fa1ea926041bedfe98) >> 128 */\n      tag_59\n      jumpi\n        /* \"contracts/core/libraries/TickMath.sol\":3369:3399  0x2216e584f5fa1ea926041bedfe98 */\n      0x2216e584f5fa1ea926041bedfe98\n        /* \"contracts/core/libraries/TickMath.sol\":3361:3399  ratio * 0x2216e584f5fa1ea926041bedfe98 */\n      mul\n        /* \"contracts/core/libraries/TickMath.sol\":3404:3407  128 */\n      0x80\n        /* \"contracts/core/libraries/TickMath.sol\":3360:3407  (ratio * 0x2216e584f5fa1ea926041bedfe98) >> 128 */\n      shr\n        /* \"contracts/core/libraries/TickMath.sol\":3324:3407  if (absTick & 0x40000 != 0) ratio = (ratio * 0x2216e584f5fa1ea926041bedfe98) >> 128 */\n    tag_59:\n        /* \"contracts/core/libraries/TickMath.sol\":3431:3438  0x80000 */\n      0x080000\n        /* \"contracts/core/libraries/TickMath.sol\":3421:3438  absTick & 0x80000 */\n      dup3\n      and\n        /* \"contracts/core/libraries/TickMath.sol\":3421:3443  absTick & 0x80000 != 0 */\n      iszero\n        /* \"contracts/core/libraries/TickMath.sol\":3417:3495  if (absTick & 0x80000 != 0) ratio = (ratio * 0x48a170391f7dc42444e8fa2) >> 128 */\n      tag_60\n      jumpi\n        /* \"contracts/core/libraries/TickMath.sol\":3462:3487  0x48a170391f7dc42444e8fa2 */\n      0x048a170391f7dc42444e8fa2\n        /* \"contracts/core/libraries/TickMath.sol\":3454:3487  ratio * 0x48a170391f7dc42444e8fa2 */\n      mul\n        /* \"contracts/core/libraries/TickMath.sol\":3492:3495  128 */\n      0x80\n        /* \"contracts/core/libraries/TickMath.sol\":3453:3495  (ratio * 0x48a170391f7dc42444e8fa2) >> 128 */\n      shr\n        /* \"contracts/core/libraries/TickMath.sol\":3417:3495  if (absTick & 0x80000 != 0) ratio = (ratio * 0x48a170391f7dc42444e8fa2) >> 128 */\n    tag_60:\n        /* \"contracts/core/libraries/TickMath.sol\":3517:3518  0 */\n      0x00\n        /* \"contracts/core/libraries/TickMath.sol\":3510:3514  tick */\n      dup5\n        /* \"contracts/core/libraries/TickMath.sol\":3510:3518  tick > 0 */\n      0x02\n      signextend\n      sgt\n        /* \"contracts/core/libraries/TickMath.sol\":3506:3553  if (tick > 0) ratio = type(uint256).max / ratio */\n      iszero\n      tag_61\n      jumpi\n        /* \"contracts/core/libraries/TickMath.sol\":3548:3553  ratio */\n      dup1\n      not(0x00)\n        /* \"contracts/core/libraries/TickMath.sol\":3528:3553  type(uint256).max / ratio */\n      dup2\n      tag_62\n      jumpi\n      invalid\n    tag_62:\n      div\n        /* \"contracts/core/libraries/TickMath.sol\":3520:3553  ratio = type(uint256).max / ratio */\n      swap1\n      pop\n        /* \"contracts/core/libraries/TickMath.sol\":3506:3553  if (tick > 0) ratio = type(uint256).max / ratio */\n    tag_61:\n        /* \"contracts/core/libraries/TickMath.sol\":3912:3919  1 << 32 */\n      0x0100000000\n        /* \"contracts/core/libraries/TickMath.sol\":3903:3908  ratio */\n      dup2\n        /* \"contracts/core/libraries/TickMath.sol\":3903:3920  ratio % (1 << 32) */\n      mod\n        /* \"contracts/core/libraries/TickMath.sol\":3903:3925  ratio % (1 << 32) == 0 */\n      iszero\n        /* \"contracts/core/libraries/TickMath.sol\":3903:3933  ratio % (1 << 32) == 0 ? 0 : 1 */\n      tag_64\n      jumpi\n        /* \"contracts/core/libraries/TickMath.sol\":3932:3933  1 */\n      0x01\n        /* \"contracts/core/libraries/TickMath.sol\":3903:3933  ratio % (1 << 32) == 0 ? 0 : 1 */\n      jump(tag_65)\n    tag_64:\n        /* \"contracts/core/libraries/TickMath.sol\":3928:3929  0 */\n      0x00\n        /* \"contracts/core/libraries/TickMath.sol\":3903:3933  ratio % (1 << 32) == 0 ? 0 : 1 */\n    tag_65:\n        /* \"contracts/core/libraries/TickMath.sol\":3886:3934  (ratio >> 32) + (ratio % (1 << 32) == 0 ? 0 : 1) */\n      0xff\n      and\n        /* \"contracts/core/libraries/TickMath.sol\":3896:3898  32 */\n      0x20\n        /* \"contracts/core/libraries/TickMath.sol\":3887:3892  ratio */\n      dup3\n        /* \"contracts/core/libraries/TickMath.sol\":3887:3898  ratio >> 32 */\n      swap1\n      shr\n        /* \"contracts/core/libraries/TickMath.sol\":3886:3934  (ratio >> 32) + (ratio % (1 << 32) == 0 ? 0 : 1) */\n      add\n        /* \"contracts/core/libraries/TickMath.sol\":3863:3935  sqrtPriceX96 = uint160((ratio >> 32) + (ratio % (1 << 32) == 0 ? 0 : 1)) */\n      swap3\n      pop\n        /* \"contracts/core/libraries/TickMath.sol\":1362:3942  function getSqrtRatioAtTick(int24 tick) internal pure returns (uint160 sqrtPriceX96) {... */\n      pop\n      pop\n      swap2\n      swap1\n      pop\n      jump\t// out\n        /* \"contracts/core/libraries/FullMath.sol\":749:4495  function mulDiv(uint256 a, uint256 b, uint256 denominator) internal pure returns (uint256 result) {... */\n    tag_35:\n        /* \"contracts/core/libraries/FullMath.sol\":831:845  uint256 result */\n      0x00\n      dup1\n      dup1\n      not(0x00)\n        /* \"contracts/core/libraries/FullMath.sol\":1338:1339  b */\n      dup6\n        /* \"contracts/core/libraries/FullMath.sol\":1335:1336  a */\n      dup8\n        /* \"contracts/core/libraries/FullMath.sol\":1328:1348  mulmod(a, b, not(0)) */\n      mulmod\n        /* \"contracts/core/libraries/FullMath.sol\":1370:1379  mul(a, b) */\n      dup7\n      dup7\n      mul\n      swap3\n      pop\n        /* \"contracts/core/libraries/FullMath.sol\":1421:1434  lt(mm, prod0) */\n      dup3\n      dup2\n      lt\n        /* \"contracts/core/libraries/FullMath.sol\":1405:1419  sub(mm, prod0) */\n      swap1\n      dup4\n      swap1\n      sub\n        /* \"contracts/core/libraries/FullMath.sol\":1401:1435  sub(sub(mm, prod0), lt(mm, prod0)) */\n      sub\n      swap1\n      pop\n        /* \"contracts/core/libraries/FullMath.sol\":1517:1527  prod1 == 0 */\n      dup1\n        /* \"contracts/core/libraries/FullMath.sol\":1513:1692  if (prod1 == 0) {... */\n      tag_67\n      jumpi\n        /* \"contracts/core/libraries/FullMath.sol\":1565:1566  0 */\n      0x00\n        /* \"contracts/core/libraries/FullMath.sol\":1551:1562  denominator */\n      dup5\n        /* \"contracts/core/libraries/FullMath.sol\":1551:1566  denominator > 0 */\n      gt\n        /* \"contracts/core/libraries/FullMath.sol\":1543:1567  require(denominator > 0) */\n      tag_68\n      jumpi\n      0x00\n      dup1\n      revert\n    tag_68:\n      pop\n        /* \"contracts/core/libraries/FullMath.sol\":1618:1641  div(prod0, denominator) */\n      dup3\n      swap1\n      div\n      swap1\n      pop\n        /* \"contracts/core/libraries/FullMath.sol\":1668:1681  return result */\n      jump(tag_66)\n        /* \"contracts/core/libraries/FullMath.sol\":1513:1692  if (prod1 == 0) {... */\n    tag_67:\n        /* \"contracts/core/libraries/FullMath.sol\":1819:1824  prod1 */\n      dup1\n        /* \"contracts/core/libraries/FullMath.sol\":1805:1816  denominator */\n      dup5\n        /* \"contracts/core/libraries/FullMath.sol\":1805:1824  denominator > prod1 */\n      gt\n        /* \"contracts/core/libraries/FullMath.sol\":1797:1825  require(denominator > prod1) */\n      tag_69\n      jumpi\n      0x00\n      dup1\n      revert\n    tag_69:\n        /* \"contracts/core/libraries/FullMath.sol\":2102:2119  uint256 remainder */\n      0x00\n        /* \"contracts/core/libraries/FullMath.sol\":2178:2189  denominator */\n      dup5\n        /* \"contracts/core/libraries/FullMath.sol\":2175:2176  b */\n      dup7\n        /* \"contracts/core/libraries/FullMath.sol\":2172:2173  a */\n      dup9\n        /* \"contracts/core/libraries/FullMath.sol\":2165:2190  mulmod(a, b, denominator) */\n      mulmod\n        /* \"contracts/core/libraries/FullMath.sol\":2530:2542  uint256 twos */\n      0x00\n        /* \"contracts/core/libraries/FullMath.sol\":2545:2557  -denominator */\n      dup7\n      dup2\n      sub\n        /* \"contracts/core/libraries/FullMath.sol\":2545:2571  -denominator & denominator */\n      dup8\n      and\n        /* \"contracts/core/libraries/FullMath.sol\":2665:2687  div(denominator, twos) */\n      swap7\n      dup8\n      swap1\n      div\n      swap7\n        /* \"contracts/core/libraries/FullMath.sol\":3468:3469  2 */\n      0x02\n        /* \"contracts/core/libraries/FullMath.sol\":3449:3450  3 */\n      0x03\n        /* \"contracts/core/libraries/FullMath.sol\":3449:3464  3 * denominator */\n      dup10\n      mul\n        /* \"contracts/core/libraries/FullMath.sol\":3448:3469  (3 * denominator) ^ 2 */\n      dup2\n      xor\n        /* \"contracts/core/libraries/FullMath.sol\":3695:3712  denominator * inv */\n      dup1\n      dup11\n      mul\n        /* \"contracts/core/libraries/FullMath.sol\":3691:3712  2 - denominator * inv */\n      dup3\n      sub\n        /* \"contracts/core/libraries/FullMath.sol\":3684:3712  inv *= 2 - denominator * inv */\n      mul\n        /* \"contracts/core/libraries/FullMath.sol\":3753:3770  denominator * inv */\n      dup1\n      dup11\n      mul\n        /* \"contracts/core/libraries/FullMath.sol\":3749:3770  2 - denominator * inv */\n      dup3\n      sub\n        /* \"contracts/core/libraries/FullMath.sol\":3742:3770  inv *= 2 - denominator * inv */\n      mul\n        /* \"contracts/core/libraries/FullMath.sol\":3812:3829  denominator * inv */\n      dup1\n      dup11\n      mul\n        /* \"contracts/core/libraries/FullMath.sol\":3808:3829  2 - denominator * inv */\n      dup3\n      sub\n        /* \"contracts/core/libraries/FullMath.sol\":3801:3829  inv *= 2 - denominator * inv */\n      mul\n        /* \"contracts/core/libraries/FullMath.sol\":3871:3888  denominator * inv */\n      dup1\n      dup11\n      mul\n        /* \"contracts/core/libraries/FullMath.sol\":3867:3888  2 - denominator * inv */\n      dup3\n      sub\n        /* \"contracts/core/libraries/FullMath.sol\":3860:3888  inv *= 2 - denominator * inv */\n      mul\n        /* \"contracts/core/libraries/FullMath.sol\":3930:3947  denominator * inv */\n      dup1\n      dup11\n      mul\n        /* \"contracts/core/libraries/FullMath.sol\":3926:3947  2 - denominator * inv */\n      dup3\n      sub\n        /* \"contracts/core/libraries/FullMath.sol\":3919:3947  inv *= 2 - denominator * inv */\n      mul\n        /* \"contracts/core/libraries/FullMath.sol\":3990:4007  denominator * inv */\n      dup1\n      dup11\n      mul\n        /* \"contracts/core/libraries/FullMath.sol\":3986:4007  2 - denominator * inv */\n      swap1\n      swap2\n      sub\n        /* \"contracts/core/libraries/FullMath.sol\":3979:4007  inv *= 2 - denominator * inv */\n      mul\n        /* \"contracts/core/libraries/FullMath.sol\":3037:3049  sub(0, twos) */\n      swap2\n      dup2\n      swap1\n      sub\n        /* \"contracts/core/libraries/FullMath.sol\":3033:3056  div(sub(0, twos), twos) */\n      dup2\n      swap1\n      div\n        /* \"contracts/core/libraries/FullMath.sol\":3058:3059  1 */\n      0x01\n        /* \"contracts/core/libraries/FullMath.sol\":3029:3060  add(div(sub(0, twos), twos), 1) */\n      add\n        /* \"contracts/core/libraries/FullMath.sol\":2307:2327  gt(remainder, prod0) */\n      dup7\n      dup5\n      gt\n        /* \"contracts/core/libraries/FullMath.sol\":2296:2328  sub(prod1, gt(remainder, prod0)) */\n      swap1\n      swap6\n      sub\n        /* \"contracts/core/libraries/FullMath.sol\":3088:3100  prod1 * twos */\n      swap5\n      swap1\n      swap5\n      mul\n        /* \"contracts/core/libraries/FullMath.sol\":2350:2371  sub(prod0, remainder) */\n      swap2\n      swap1\n      swap5\n      sub\n        /* \"contracts/core/libraries/FullMath.sol\":2793:2809  div(prod0, twos) */\n      swap3\n      swap1\n      swap3\n      div\n        /* \"contracts/core/libraries/FullMath.sol\":3079:3100  prod0 |= prod1 * twos */\n      swap2\n      swap1\n      swap2\n      or\n        /* \"contracts/core/libraries/FullMath.sol\":4454:4465  prod0 * inv */\n      swap2\n      swap1\n      swap2\n      mul\n      swap2\n      pop\n      pop\n        /* \"contracts/core/libraries/FullMath.sol\":749:4495  function mulDiv(uint256 a, uint256 b, uint256 denominator) internal pure returns (uint256 result) {... */\n    tag_66:\n      swap4\n      swap3\n      pop\n      pop\n      pop\n      jump\t// out\n\n    auxdata: 0xa2646970667358221220af74f3653c7f3156c2709f6c82dfd10ce768541cda96333ecb74c06ece9b42cd64736f6c63430007060033\n}\n",
				"bytecode": {
					"linkReferences": {},
					"object": "60c060405260006080908152600160a081905261001d916002610030565b5034801561002a57600080fd5b506100f1565b828054828255906000526020600020906007016008900481019282156100cc5791602002820160005b8382111561009a57835183826101000a81548163ffffffff021916908360ff1602179055509260200192600401602081600301049283019260010302610059565b80156100ca5782816101000a81549063ffffffff021916905560040160208160030104928301926001030261009a565b505b506100d89291506100dc565b5090565b5b808211156100d857600081556001016100dd565b610758806101006000396000f3fe608060405234801561001057600080fd5b50600436106100365760003560e01c806311ea54411461003b578063f29d00401461005f575b600080fd5b610043610097565b604080516001600160a01b039092168252519081900360200190f35b6100856004803603602081101561007557600080fd5b50356001600160a01b03166100a6565b60408051918252519081900360200190f35b6000546001600160a01b031681565b6000806000836001600160a01b031663883bdbfd60016040518263ffffffff1660e01b81526004018080602001828103825283818154815260200191508054801561013c57602002820191906000526020600020906000905b82829054906101000a900463ffffffff1663ffffffff16815260200190600401906020826003010492830192600103820291508084116100ff5790505b50509250505060006040518083038186803b15801561015a57600080fd5b505afa15801561016e573d6000803e3d6000fd5b505050506040513d6000823e601f3d908101601f19168201604090815281101561019757600080fd5b81019080805160405193929190846401000000008211156101b757600080fd5b9083019060208201858111156101cc57600080fd5b82518660208202830111640100000000821117156101e957600080fd5b82525081516020918201928201910280838360005b838110156102165781810151838201526020016101fe565b505050509050016040526020018051604051939291908464010000000082111561023f57600080fd5b90830190602082018581111561025457600080fd5b825186602082028301116401000000008211171561027157600080fd5b82525081516020918201928201910280838360005b8381101561029e578181015183820152602001610286565b505050509050016040525050505090506000816000815181106102bd57fe5b602002602001015190506000826001815181106102d657fe5b602002602001015190506000600182840360060b816102f157fe5b05905080600061030082610340565b90506001600160a01b0381166002810a600160c01b655af3107a40006000610329848385610672565b9091026064029d9c50505050505050505050505050565b60008060008360020b12610357578260020b61035f565b8260020b6000035b9050620d89e881111561039d576040805162461bcd60e51b81526020600482015260016024820152601560fa1b604482015290519081900360640190fd5b6000600182166103b157600160801b6103c3565b6ffffcb933bd6fad37aa2d162d1a5940015b70ffffffffffffffffffffffffffffffffff16905060028216156103f7576ffff97272373d413259a46990580e213a0260801c5b6004821615610416576ffff2e50f5f656932ef12357cf3c7fdcc0260801c5b6008821615610435576fffe5caca7e10e4e61c3624eaa0941cd00260801c5b6010821615610454576fffcb9843d60f6159c9db58835c9266440260801c5b6020821615610473576fff973b41fa98c081472e6896dfb254c00260801c5b6040821615610492576fff2ea16466c96a3843ec78b326b528610260801c5b60808216156104b1576ffe5dee046a99a2a811c461f1969c30530260801c5b6101008216156104d1576ffcbe86c7900a88aedcffc83b479aa3a40260801c5b6102008216156104f1576ff987a7253ac413176f2b074cf7815e540260801c5b610400821615610511576ff3392b0822b70005940c7a398e4b70f30260801c5b610800821615610531576fe7159475a2c29b7443b29c7fa6e889d90260801c5b611000821615610551576fd097f3bdfd2022b8845ad8f792aa58250260801c5b612000821615610571576fa9f746462d870fdf8a65dc1f90e061e50260801c5b614000821615610591576f70d869a156d2a1b890bb3df62baf32f70260801c5b6180008216156105b1576f31be135f97d08fd981231505542fcfa60260801c5b620100008216156105d2576f09aa508b5b7a84e1c677de54f3e99bc90260801c5b620200008216156105f2576e5d6af8dedb81196699c329225ee6040260801c5b62040000821615610611576d2216e584f5fa1ea926041bedfe980260801c5b6208000082161561062e576b048a170391f7dc42444e8fa20260801c5b60008460020b131561064957806000198161064557fe5b0490505b64010000000081061561065d576001610660565b60005b60ff16602082901c0192505050919050565b60008080600019858709868602925082811090839003039050806106a8576000841161069d57600080fd5b50829004905061071b565b8084116106b457600080fd5b6000848688096000868103871696879004966002600389028118808a02820302808a02820302808a02820302808a02820302808a02820302808a02909103029181900381900460010186841190950394909402919094039290920491909117919091029150505b939250505056fea2646970667358221220af74f3653c7f3156c2709f6c82dfd10ce768541cda96333ecb74c06ece9b42cd64736f6c63430007060033",
					"opcodes": "PUSH1 0xC0 PUSH1 0x40 MSTORE PUSH1 0x0 PUSH1 0x80 SWAP1 DUP2 MSTORE PUSH1 0x1 PUSH1 0xA0 DUP2 SWAP1 MSTORE PUSH2 0x1D SWAP2 PUSH1 0x2 PUSH2 0x30 JUMP JUMPDEST POP CALLVALUE DUP1 ISZERO PUSH2 0x2A JUMPI PUSH1 0x0 DUP1 REVERT JUMPDEST POP PUSH2 0xF1 JUMP JUMPDEST DUP3 DUP1 SLOAD DUP3 DUP3 SSTORE SWAP1 PUSH1 0x0 MSTORE PUSH1 0x20 PUSH1 0x0 KECCAK256 SWAP1 PUSH1 0x7 ADD PUSH1 0x8 SWAP1 DIV DUP2 ADD SWAP3 DUP3 ISZERO PUSH2 0xCC JUMPI SWAP2 PUSH1 0x20 MUL DUP3 ADD PUSH1 0x0 JUMPDEST DUP4 DUP3 GT ISZERO PUSH2 0x9A JUMPI DUP4 MLOAD DUP4 DUP3 PUSH2 0x100 EXP DUP2 SLOAD DUP2 PUSH4 0xFFFFFFFF MUL NOT AND SWAP1 DUP4 PUSH1 0xFF AND MUL OR SWAP1 SSTORE POP SWAP3 PUSH1 0x20 ADD SWAP3 PUSH1 0x4 ADD PUSH1 0x20 DUP2 PUSH1 0x3 ADD DIV SWAP3 DUP4 ADD SWAP3 PUSH1 0x1 SUB MUL PUSH2 0x59 JUMP JUMPDEST DUP1 ISZERO PUSH2 0xCA JUMPI DUP3 DUP2 PUSH2 0x100 EXP DUP2 SLOAD SWAP1 PUSH4 0xFFFFFFFF MUL NOT AND SWAP1 SSTORE PUSH1 0x4 ADD PUSH1 0x20 DUP2 PUSH1 0x3 ADD DIV SWAP3 DUP4 ADD SWAP3 PUSH1 0x1 SUB MUL PUSH2 0x9A JUMP JUMPDEST POP JUMPDEST POP PUSH2 0xD8 SWAP3 SWAP2 POP PUSH2 0xDC JUMP JUMPDEST POP SWAP1 JUMP JUMPDEST JUMPDEST DUP1 DUP3 GT ISZERO PUSH2 0xD8 JUMPI PUSH1 0x0 DUP2 SSTORE PUSH1 0x1 ADD PUSH2 0xDD JUMP JUMPDEST PUSH2 0x758 DUP1 PUSH2 0x100 PUSH1 0x0 CODECOPY PUSH1 0x0 RETURN INVALID PUSH1 0x80 PUSH1 0x40 MSTORE CALLVALUE DUP1 ISZERO PUSH2 0x10 JUMPI PUSH1 0x0 DUP1 REVERT JUMPDEST POP PUSH1 0x4 CALLDATASIZE LT PUSH2 0x36 JUMPI PUSH1 0x0 CALLDATALOAD PUSH1 0xE0 SHR DUP1 PUSH4 0x11EA5441 EQ PUSH2 0x3B JUMPI DUP1 PUSH4 0xF29D0040 EQ PUSH2 0x5F JUMPI JUMPDEST PUSH1 0x0 DUP1 REVERT JUMPDEST PUSH2 0x43 PUSH2 0x97 JUMP JUMPDEST PUSH1 0x40 DUP1 MLOAD PUSH1 0x1 PUSH1 0x1 PUSH1 0xA0 SHL SUB SWAP1 SWAP3 AND DUP3 MSTORE MLOAD SWAP1 DUP2 SWAP1 SUB PUSH1 0x20 ADD SWAP1 RETURN JUMPDEST PUSH2 0x85 PUSH1 0x4 DUP1 CALLDATASIZE SUB PUSH1 0x20 DUP2 LT ISZERO PUSH2 0x75 JUMPI PUSH1 0x0 DUP1 REVERT JUMPDEST POP CALLDATALOAD PUSH1 0x1 PUSH1 0x1 PUSH1 0xA0 SHL SUB AND PUSH2 0xA6 JUMP JUMPDEST PUSH1 0x40 DUP1 MLOAD SWAP2 DUP3 MSTORE MLOAD SWAP1 DUP2 SWAP1 SUB PUSH1 0x20 ADD SWAP1 RETURN JUMPDEST PUSH1 0x0 SLOAD PUSH1 0x1 PUSH1 0x1 PUSH1 0xA0 SHL SUB AND DUP2 JUMP JUMPDEST PUSH1 0x0 DUP1 PUSH1 0x0 DUP4 PUSH1 0x1 PUSH1 0x1 PUSH1 0xA0 SHL SUB AND PUSH4 0x883BDBFD PUSH1 0x1 PUSH1 0x40 MLOAD DUP3 PUSH4 0xFFFFFFFF AND PUSH1 0xE0 SHL DUP2 MSTORE PUSH1 0x4 ADD DUP1 DUP1 PUSH1 0x20 ADD DUP3 DUP2 SUB DUP3 MSTORE DUP4 DUP2 DUP2 SLOAD DUP2 MSTORE PUSH1 0x20 ADD SWAP2 POP DUP1 SLOAD DUP1 ISZERO PUSH2 0x13C JUMPI PUSH1 0x20 MUL DUP3 ADD SWAP2 SWAP1 PUSH1 0x0 MSTORE PUSH1 0x20 PUSH1 0x0 KECCAK256 SWAP1 PUSH1 0x0 SWAP1 JUMPDEST DUP3 DUP3 SWAP1 SLOAD SWAP1 PUSH2 0x100 EXP SWAP1 DIV PUSH4 0xFFFFFFFF AND PUSH4 0xFFFFFFFF AND DUP2 MSTORE PUSH1 0x20 ADD SWAP1 PUSH1 0x4 ADD SWAP1 PUSH1 0x20 DUP3 PUSH1 0x3 ADD DIV SWAP3 DUP4 ADD SWAP3 PUSH1 0x1 SUB DUP3 MUL SWAP2 POP DUP1 DUP5 GT PUSH2 0xFF JUMPI SWAP1 POP JUMPDEST POP POP SWAP3 POP POP POP PUSH1 0x0 PUSH1 0x40 MLOAD DUP1 DUP4 SUB DUP2 DUP7 DUP1 EXTCODESIZE ISZERO DUP1 ISZERO PUSH2 0x15A JUMPI PUSH1 0x0 DUP1 REVERT JUMPDEST POP GAS STATICCALL ISZERO DUP1 ISZERO PUSH2 0x16E JUMPI RETURNDATASIZE PUSH1 0x0 DUP1 RETURNDATACOPY RETURNDATASIZE PUSH1 0x0 REVERT JUMPDEST POP POP POP POP PUSH1 0x40 MLOAD RETURNDATASIZE PUSH1 0x0 DUP3 RETURNDATACOPY PUSH1 0x1F RETURNDATASIZE SWAP1 DUP2 ADD PUSH1 0x1F NOT AND DUP3 ADD PUSH1 0x40 SWAP1 DUP2 MSTORE DUP2 LT ISZERO PUSH2 0x197 JUMPI PUSH1 0x0 DUP1 REVERT JUMPDEST DUP2 ADD SWAP1 DUP1 DUP1 MLOAD PUSH1 0x40 MLOAD SWAP4 SWAP3 SWAP2 SWAP1 DUP5 PUSH5 0x100000000 DUP3 GT ISZERO PUSH2 0x1B7 JUMPI PUSH1 0x0 DUP1 REVERT JUMPDEST SWAP1 DUP4 ADD SWAP1 PUSH1 0x20 DUP3 ADD DUP6 DUP2 GT ISZERO PUSH2 0x1CC JUMPI PUSH1 0x0 DUP1 REVERT JUMPDEST DUP3 MLOAD DUP7 PUSH1 0x20 DUP3 MUL DUP4 ADD GT PUSH5 0x100000000 DUP3 GT OR ISZERO PUSH2 0x1E9 JUMPI PUSH1 0x0 DUP1 REVERT JUMPDEST DUP3 MSTORE POP DUP2 MLOAD PUSH1 0x20 SWAP2 DUP3 ADD SWAP3 DUP3 ADD SWAP2 MUL DUP1 DUP4 DUP4 PUSH1 0x0 JUMPDEST DUP4 DUP2 LT ISZERO PUSH2 0x216 JUMPI DUP2 DUP2 ADD MLOAD DUP4 DUP3 ADD MSTORE PUSH1 0x20 ADD PUSH2 0x1FE JUMP JUMPDEST POP POP POP POP SWAP1 POP ADD PUSH1 0x40 MSTORE PUSH1 0x20 ADD DUP1 MLOAD PUSH1 0x40 MLOAD SWAP4 SWAP3 SWAP2 SWAP1 DUP5 PUSH5 0x100000000 DUP3 GT ISZERO PUSH2 0x23F JUMPI PUSH1 0x0 DUP1 REVERT JUMPDEST SWAP1 DUP4 ADD SWAP1 PUSH1 0x20 DUP3 ADD DUP6 DUP2 GT ISZERO PUSH2 0x254 JUMPI PUSH1 0x0 DUP1 REVERT JUMPDEST DUP3 MLOAD DUP7 PUSH1 0x20 DUP3 MUL DUP4 ADD GT PUSH5 0x100000000 DUP3 GT OR ISZERO PUSH2 0x271 JUMPI PUSH1 0x0 DUP1 REVERT JUMPDEST DUP3 MSTORE POP DUP2 MLOAD PUSH1 0x20 SWAP2 DUP3 ADD SWAP3 DUP3 ADD SWAP2 MUL DUP1 DUP4 DUP4 PUSH1 0x0 JUMPDEST DUP4 DUP2 LT ISZERO PUSH2 0x29E JUMPI DUP2 DUP2 ADD MLOAD DUP4 DUP3 ADD MSTORE PUSH1 0x20 ADD PUSH2 0x286 JUMP JUMPDEST POP POP POP POP SWAP1 POP ADD PUSH1 0x40 MSTORE POP POP POP POP SWAP1 POP PUSH1 0x0 DUP2 PUSH1 0x0 DUP2 MLOAD DUP2 LT PUSH2 0x2BD JUMPI INVALID JUMPDEST PUSH1 0x20 MUL PUSH1 0x20 ADD ADD MLOAD SWAP1 POP PUSH1 0x0 DUP3 PUSH1 0x1 DUP2 MLOAD DUP2 LT PUSH2 0x2D6 JUMPI INVALID JUMPDEST PUSH1 0x20 MUL PUSH1 0x20 ADD ADD MLOAD SWAP1 POP PUSH1 0x0 PUSH1 0x1 DUP3 DUP5 SUB PUSH1 0x6 SIGNEXTEND DUP2 PUSH2 0x2F1 JUMPI INVALID JUMPDEST SDIV SWAP1 POP DUP1 PUSH1 0x0 PUSH2 0x300 DUP3 PUSH2 0x340 JUMP JUMPDEST SWAP1 POP PUSH1 0x1 PUSH1 0x1 PUSH1 0xA0 SHL SUB DUP2 AND PUSH1 0x2 DUP2 EXP PUSH1 0x1 PUSH1 0xC0 SHL PUSH6 0x5AF3107A4000 PUSH1 0x0 PUSH2 0x329 DUP5 DUP4 DUP6 PUSH2 0x672 JUMP JUMPDEST SWAP1 SWAP2 MUL PUSH1 0x64 MUL SWAP14 SWAP13 POP POP POP POP POP POP POP POP POP POP POP POP POP JUMP JUMPDEST PUSH1 0x0 DUP1 PUSH1 0x0 DUP4 PUSH1 0x2 SIGNEXTEND SLT PUSH2 0x357 JUMPI DUP3 PUSH1 0x2 SIGNEXTEND PUSH2 0x35F JUMP JUMPDEST DUP3 PUSH1 0x2 SIGNEXTEND PUSH1 0x0 SUB JUMPDEST SWAP1 POP PUSH3 0xD89E8 DUP2 GT ISZERO PUSH2 0x39D JUMPI PUSH1 0x40 DUP1 MLOAD PUSH3 0x461BCD PUSH1 0xE5 SHL DUP2 MSTORE PUSH1 0x20 PUSH1 0x4 DUP3 ADD MSTORE PUSH1 0x1 PUSH1 0x24 DUP3 ADD MSTORE PUSH1 0x15 PUSH1 0xFA SHL PUSH1 0x44 DUP3 ADD MSTORE SWAP1 MLOAD SWAP1 DUP2 SWAP1 SUB PUSH1 0x64 ADD SWAP1 REVERT JUMPDEST PUSH1 0x0 PUSH1 0x1 DUP3 AND PUSH2 0x3B1 JUMPI PUSH1 0x1 PUSH1 0x80 SHL PUSH2 0x3C3 JUMP JUMPDEST PUSH16 0xFFFCB933BD6FAD37AA2D162D1A594001 JUMPDEST PUSH17 0xFFFFFFFFFFFFFFFFFFFFFFFFFFFFFFFFFF AND SWAP1 POP PUSH1 0x2 DUP3 AND ISZERO PUSH2 0x3F7 JUMPI PUSH16 0xFFF97272373D413259A46990580E213A MUL PUSH1 0x80 SHR JUMPDEST PUSH1 0x4 DUP3 AND ISZERO PUSH2 0x416 JUMPI PUSH16 0xFFF2E50F5F656932EF12357CF3C7FDCC MUL PUSH1 0x80 SHR JUMPDEST PUSH1 0x8 DUP3 AND ISZERO PUSH2 0x435 JUMPI PUSH16 0xFFE5CACA7E10E4E61C3624EAA0941CD0 MUL PUSH1 0x80 SHR JUMPDEST PUSH1 0x10 DUP3 AND ISZERO PUSH2 0x454 JUMPI PUSH16 0xFFCB9843D60F6159C9DB58835C926644 MUL PUSH1 0x80 SHR JUMPDEST PUSH1 0x20 DUP3 AND ISZERO PUSH2 0x473 JUMPI PUSH16 0xFF973B41FA98C081472E6896DFB254C0 MUL PUSH1 0x80 SHR JUMPDEST PUSH1 0x40 DUP3 AND ISZERO PUSH2 0x492 JUMPI PUSH16 0xFF2EA16466C96A3843EC78B326B52861 MUL PUSH1 0x80 SHR JUMPDEST PUSH1 0x80 DUP3 AND ISZERO PUSH2 0x4B1 JUMPI PUSH16 0xFE5DEE046A99A2A811C461F1969C3053 MUL PUSH1 0x80 SHR JUMPDEST PUSH2 0x100 DUP3 AND ISZERO PUSH2 0x4D1 JUMPI PUSH16 0xFCBE86C7900A88AEDCFFC83B479AA3A4 MUL PUSH1 0x80 SHR JUMPDEST PUSH2 0x200 DUP3 AND ISZERO PUSH2 0x4F1 JUMPI PUSH16 0xF987A7253AC413176F2B074CF7815E54 MUL PUSH1 0x80 SHR JUMPDEST PUSH2 0x400 DUP3 AND ISZERO PUSH2 0x511 JUMPI PUSH16 0xF3392B0822B70005940C7A398E4B70F3 MUL PUSH1 0x80 SHR JUMPDEST PUSH2 0x800 DUP3 AND ISZERO PUSH2 0x531 JUMPI PUSH16 0xE7159475A2C29B7443B29C7FA6E889D9 MUL PUSH1 0x80 SHR JUMPDEST PUSH2 0x1000 DUP3 AND ISZERO PUSH2 0x551 JUMPI PUSH16 0xD097F3BDFD2022B8845AD8F792AA5825 MUL PUSH1 0x80 SHR JUMPDEST PUSH2 0x2000 DUP3 AND ISZERO PUSH2 0x571 JUMPI PUSH16 0xA9F746462D870FDF8A65DC1F90E061E5 MUL PUSH1 0x80 SHR JUMPDEST PUSH2 0x4000 DUP3 AND ISZERO PUSH2 0x591 JUMPI PUSH16 0x70D869A156D2A1B890BB3DF62BAF32F7 MUL PUSH1 0x80 SHR JUMPDEST PUSH2 0x8000 DUP3 AND ISZERO PUSH2 0x5B1 JUMPI PUSH16 0x31BE135F97D08FD981231505542FCFA6 MUL PUSH1 0x80 SHR JUMPDEST PUSH3 0x10000 DUP3 AND ISZERO PUSH2 0x5D2 JUMPI PUSH16 0x9AA508B5B7A84E1C677DE54F3E99BC9 MUL PUSH1 0x80 SHR JUMPDEST PUSH3 0x20000 DUP3 AND ISZERO PUSH2 0x5F2 JUMPI PUSH15 0x5D6AF8DEDB81196699C329225EE604 MUL PUSH1 0x80 SHR JUMPDEST PUSH3 0x40000 DUP3 AND ISZERO PUSH2 0x611 JUMPI PUSH14 0x2216E584F5FA1EA926041BEDFE98 MUL PUSH1 0x80 SHR JUMPDEST PUSH3 0x80000 DUP3 AND ISZERO PUSH2 0x62E JUMPI PUSH12 0x48A170391F7DC42444E8FA2 MUL PUSH1 0x80 SHR JUMPDEST PUSH1 0x0 DUP5 PUSH1 0x2 SIGNEXTEND SGT ISZERO PUSH2 0x649 JUMPI DUP1 PUSH1 0x0 NOT DUP2 PUSH2 0x645 JUMPI INVALID JUMPDEST DIV SWAP1 POP JUMPDEST PUSH5 0x100000000 DUP2 MOD ISZERO PUSH2 0x65D JUMPI PUSH1 0x1 PUSH2 0x660 JUMP JUMPDEST PUSH1 0x0 JUMPDEST PUSH1 0xFF AND PUSH1 0x20 DUP3 SWAP1 SHR ADD SWAP3 POP POP POP SWAP2 SWAP1 POP JUMP JUMPDEST PUSH1 0x0 DUP1 DUP1 PUSH1 0x0 NOT DUP6 DUP8 MULMOD DUP7 DUP7 MUL SWAP3 POP DUP3 DUP2 LT SWAP1 DUP4 SWAP1 SUB SUB SWAP1 POP DUP1 PUSH2 0x6A8 JUMPI PUSH1 0x0 DUP5 GT PUSH2 0x69D JUMPI PUSH1 0x0 DUP1 REVERT JUMPDEST POP DUP3 SWAP1 DIV SWAP1 POP PUSH2 0x71B JUMP JUMPDEST DUP1 DUP5 GT PUSH2 0x6B4 JUMPI PUSH1 0x0 DUP1 REVERT JUMPDEST PUSH1 0x0 DUP5 DUP7 DUP9 MULMOD PUSH1 0x0 DUP7 DUP2 SUB DUP8 AND SWAP7 DUP8 SWAP1 DIV SWAP7 PUSH1 0x2 PUSH1 0x3 DUP10 MUL DUP2 XOR DUP1 DUP11 MUL DUP3 SUB MUL DUP1 DUP11 MUL DUP3 SUB MUL DUP1 DUP11 MUL DUP3 SUB MUL DUP1 DUP11 MUL DUP3 SUB MUL DUP1 DUP11 MUL DUP3 SUB MUL DUP1 DUP11 MUL SWAP1 SWAP2 SUB MUL SWAP2 DUP2 SWAP1 SUB DUP2 SWAP1 DIV PUSH1 0x1 ADD DUP7 DUP5 GT SWAP1 SWAP6 SUB SWAP5 SWAP1 SWAP5 MUL SWAP2 SWAP1 SWAP5 SUB SWAP3 SWAP1 SWAP3 DIV SWAP2 SWAP1 SWAP2 OR SWAP2 SWAP1 SWAP2 MUL SWAP2 POP POP JUMPDEST SWAP4 SWAP3 POP POP POP JUMP INVALID LOG2 PUSH5 0x6970667358 0x22 SLT KECCAK256 0xAF PUSH21 0xF3653C7F3156C2709F6C82DFD10CE768541CDA9633 RETURNDATACOPY 0xCB PUSH21 0xC06ECE9B42CD64736F6C6343000706003300000000 "
				},
				"gasEstimates": {
					"creation": {
						"codeDepositCost": "376000",
						"executionCost": "infinite",
						"totalCost": "infinite"
					},
					"external": {
						"GetPrice(address)": "infinite",
						"V3Pool()": "1015"
					}
				},
				"methodIdentifiers": {
					"GetPrice(address)": "f29d0040",
					"V3Pool()": "11ea5441"
				}
			},
			"storageLayout": {
				"storage": [
					{
						"astId": 16,
						"contract": "contracts/core/VeloOracle.sol:VeloOracle",
						"label": "V3Pool",
						"offset": 0,
						"slot": "0",
						"type": "t_contract(ICLPoolDerivedState)235"
					},
					{
						"astId": 22,
						"contract": "contracts/core/VeloOracle.sol:VeloOracle",
						"label": "secondsAgos",
						"offset": 0,
						"slot": "1",
						"type": "t_array(t_uint32)dyn_storage"
					}
				],
				"types": {
					"t_array(t_uint32)dyn_storage": {
						"base": "t_uint32",
						"encoding": "dynamic_array",
						"label": "uint32[]",
						"numberOfBytes": "32"
					},
					"t_contract(ICLPoolDerivedState)235": {
						"encoding": "inplace",
						"label": "contract ICLPoolDerivedState",
						"numberOfBytes": "20"
					},
					"t_uint32": {
						"encoding": "inplace",
						"label": "uint32",
						"numberOfBytes": "4"
					}
				}
			},
			"userdoc": {
				"kind": "user",
				"methods": {},
				"version": 1
			}
		}
	}
}