{
	"contracts/core/VeloOracle.sol": {
		"VeloOracle": {
			"abi": [
				{
					"inputs": [
						{
							"internalType": "address",
							"name": "pool",
							"type": "address"
						}
					],
					"name": "GetPrice",
					"outputs": [
						{
							"internalType": "uint256",
							"name": "price",
							"type": "uint256"
						}
					],
					"stateMutability": "view",
					"type": "function"
				},
				{
					"inputs": [],
					"name": "V3Pool",
					"outputs": [
						{
							"internalType": "contract ICLPoolDerivedState",
							"name": "",
							"type": "address"
						}
					],
					"stateMutability": "view",
					"type": "function"
				},
				{
					"inputs": [
						{
							"internalType": "address",
							"name": "pool",
							"type": "address"
						},
						{
							"internalType": "uint256",
							"name": "usdAmount",
							"type": "uint256"
						}
					],
					"name": "getAmountsforLiquidity",
					"outputs": [
						{
							"internalType": "uint256",
							"name": "amount0",
							"type": "uint256"
						},
						{
							"internalType": "uint256",
							"name": "amount1",
							"type": "uint256"
						}
					],
					"stateMutability": "view",
					"type": "function"
				},
				{
					"inputs": [
						{
							"internalType": "address",
							"name": "pool",
							"type": "address"
						}
					],
					"name": "getTicks",
					"outputs": [
						{
							"internalType": "int24",
							"name": "lowTick",
							"type": "int24"
						},
						{
							"internalType": "int24",
							"name": "highTick",
							"type": "int24"
						}
					],
					"stateMutability": "view",
					"type": "function"
				}
			],
			"devdoc": {
				"kind": "dev",
				"methods": {},
				"version": 1
			},
			"evm": {
				"assembly": "    /* \"contracts/core/VeloOracle.sol\":1473:6580  contract VeloOracle {\r... */\n  mstore(0x40, 0x80)\n  callvalue\n  dup1\n  iszero\n  tag_1\n  jumpi\n  0x00\n  dup1\n  revert\ntag_1:\n  pop\n  dataSize(sub_0)\n  dup1\n  dataOffset(sub_0)\n  0x00\n  codecopy\n  0x00\n  return\nstop\n\nsub_0: assembly {\n        /* \"contracts/core/VeloOracle.sol\":1473:6580  contract VeloOracle {\r... */\n      mstore(0x40, 0x80)\n      callvalue\n      dup1\n      iszero\n      tag_1\n      jumpi\n      0x00\n      dup1\n      revert\n    tag_1:\n      pop\n      jumpi(tag_2, lt(calldatasize, 0x04))\n      shr(0xe0, calldataload(0x00))\n      dup1\n      0x11ea5441\n      eq\n      tag_3\n      jumpi\n      dup1\n      0x802036f5\n      eq\n      tag_4\n      jumpi\n      dup1\n      0x941e0eb8\n      eq\n      tag_5\n      jumpi\n      dup1\n      0xf29d0040\n      eq\n      tag_6\n      jumpi\n    tag_2:\n      0x00\n      dup1\n      revert\n        /* \"contracts/core/VeloOracle.sol\":1498:1531  ICLPoolDerivedState public V3Pool */\n    tag_3:\n      tag_7\n      tag_8\n      jump\t// in\n    tag_7:\n      0x40\n      dup1\n      mload\n      sub(shl(0xa0, 0x01), 0x01)\n      swap1\n      swap3\n      and\n      dup3\n      mstore\n      mload\n      swap1\n      dup2\n      swap1\n      sub\n      0x20\n      add\n      swap1\n      return\n        /* \"contracts/core/VeloOracle.sol\":3192:3615  function getTicks (address pool) public view returns (int24 lowTick, int24 highTick){\r... */\n    tag_4:\n      tag_9\n      0x04\n      dup1\n      calldatasize\n      sub\n      0x20\n      dup2\n      lt\n      iszero\n      tag_10\n      jumpi\n      0x00\n      dup1\n      revert\n    tag_10:\n      pop\n      calldataload\n      sub(shl(0xa0, 0x01), 0x01)\n      and\n      tag_11\n      jump\t// in\n    tag_9:\n      mload(0x40)\n      dup1\n      dup4\n      0x02\n      signextend\n      dup2\n      mstore\n      0x20\n      add\n      dup3\n      0x02\n      signextend\n      dup2\n      mstore\n      0x20\n      add\n      swap3\n      pop\n      pop\n      pop\n      mload(0x40)\n      dup1\n      swap2\n      sub\n      swap1\n      return\n        /* \"contracts/core/VeloOracle.sol\":3623:5360  function getAmountsforLiquidity(address pool,\r... */\n    tag_5:\n      tag_12\n      0x04\n      dup1\n      calldatasize\n      sub\n      0x40\n      dup2\n      lt\n      iszero\n      tag_13\n      jumpi\n      0x00\n      dup1\n      revert\n    tag_13:\n      pop\n      sub(shl(0xa0, 0x01), 0x01)\n      dup2\n      calldataload\n      and\n      swap1\n      0x20\n      add\n      calldataload\n      tag_14\n      jump\t// in\n    tag_12:\n      0x40\n      dup1\n      mload\n      swap3\n      dup4\n      mstore\n      0x20\n      dup4\n      add\n      swap2\n      swap1\n      swap2\n      mstore\n      dup1\n      mload\n      swap2\n      dup3\n      swap1\n      sub\n      add\n      swap1\n      return\n        /* \"contracts/core/VeloOracle.sol\":1538:3184  function GetPrice(address pool) public view returns (uint256 price) {\r... */\n    tag_6:\n      tag_15\n      0x04\n      dup1\n      calldatasize\n      sub\n      0x20\n      dup2\n      lt\n      iszero\n      tag_16\n      jumpi\n      0x00\n      dup1\n      revert\n    tag_16:\n      pop\n      calldataload\n      sub(shl(0xa0, 0x01), 0x01)\n      and\n      tag_17\n      jump\t// in\n    tag_15:\n      0x40\n      dup1\n      mload\n      swap2\n      dup3\n      mstore\n      mload\n      swap1\n      dup2\n      swap1\n      sub\n      0x20\n      add\n      swap1\n      return\n        /* \"contracts/core/VeloOracle.sol\":1498:1531  ICLPoolDerivedState public V3Pool */\n    tag_8:\n      and(sub(shl(0xa0, 0x01), 0x01), sload(0x00))\n      dup2\n      jump\t// out\n        /* \"contracts/core/VeloOracle.sol\":3192:3615  function getTicks (address pool) public view returns (int24 lowTick, int24 highTick){\r... */\n    tag_11:\n        /* \"contracts/core/VeloOracle.sol\":3246:3259  int24 lowTick */\n      0x00\n        /* \"contracts/core/VeloOracle.sol\":3261:3275  int24 highTick */\n      dup1\n        /* \"contracts/core/VeloOracle.sol\":3287:3304  int24 tickSpacing */\n      0x00\n        /* \"contracts/core/VeloOracle.sol\":3324:3328  pool */\n      dup4\n      sub(shl(0xa0, 0x01), 0x01)\n        /* \"contracts/core/VeloOracle.sol\":3307:3341  ICLPoolConstants(pool).tickSpacing */\n      and\n      0xd0c93a7c\n        /* \"contracts/core/VeloOracle.sol\":3307:3343  ICLPoolConstants(pool).tickSpacing() */\n      mload(0x40)\n      dup2\n      0xffffffff\n      and\n      0xe0\n      shl\n      dup2\n      mstore\n      0x04\n      add\n      0x20\n      mload(0x40)\n      dup1\n      dup4\n      sub\n      dup2\n      dup7\n      dup1\n      extcodesize\n      iszero\n      dup1\n      iszero\n      tag_19\n      jumpi\n      0x00\n      dup1\n      revert\n    tag_19:\n      pop\n      gas\n      staticcall\n      iszero\n      dup1\n      iszero\n      tag_21\n      jumpi\n      returndatasize\n      0x00\n      dup1\n      returndatacopy\n      revert(0x00, returndatasize)\n    tag_21:\n      pop\n      pop\n      pop\n      pop\n      mload(0x40)\n      returndatasize\n      0x20\n      dup2\n      lt\n      iszero\n      tag_22\n      jumpi\n      0x00\n      dup1\n      revert\n    tag_22:\n      pop\n      mload\n        /* \"contracts/core/VeloOracle.sol\":3386:3407  ICLPool(pool).slot0() */\n      0x40\n      dup1\n      mload\n      shl(0xe0, 0x3850c7bd)\n      dup2\n      mstore\n      swap1\n      mload\n        /* \"contracts/core/VeloOracle.sol\":3307:3343  ICLPoolConstants(pool).tickSpacing() */\n      swap2\n      swap3\n      pop\n        /* \"contracts/core/VeloOracle.sol\":3357:3374  int24 currentTick */\n      0x00\n      swap2\n      sub(shl(0xa0, 0x01), 0x01)\n        /* \"contracts/core/VeloOracle.sol\":3386:3405  ICLPool(pool).slot0 */\n      dup8\n      and\n      swap2\n      0x3850c7bd\n      swap2\n        /* \"contracts/core/VeloOracle.sol\":3386:3407  ICLPool(pool).slot0() */\n      0x04\n      dup1\n      dup4\n      add\n      swap3\n      0xc0\n      swap3\n      swap2\n      swap1\n      dup3\n      swap1\n      sub\n      add\n      dup2\n        /* \"contracts/core/VeloOracle.sol\":3386:3405  ICLPool(pool).slot0 */\n      dup7\n        /* \"contracts/core/VeloOracle.sol\":3386:3407  ICLPool(pool).slot0() */\n      dup1\n      extcodesize\n      iszero\n      dup1\n      iszero\n      tag_23\n      jumpi\n      0x00\n      dup1\n      revert\n    tag_23:\n      pop\n      gas\n      staticcall\n      iszero\n      dup1\n      iszero\n      tag_25\n      jumpi\n      returndatasize\n      0x00\n      dup1\n      returndatacopy\n      revert(0x00, returndatasize)\n    tag_25:\n      pop\n      pop\n      pop\n      pop\n      mload(0x40)\n      returndatasize\n      0xc0\n      dup2\n      lt\n      iszero\n      tag_26\n      jumpi\n      0x00\n      dup1\n      revert\n    tag_26:\n      pop\n      0x20\n      add\n      mload\n      swap1\n      pop\n        /* \"contracts/core/VeloOracle.sol\":3462:3473  tickSpacing */\n      dup2\n        /* \"contracts/core/VeloOracle.sol\":3433:3458  currentTick / tickSpacing */\n      0x02\n      dup2\n      dup2\n      signextend\n      swap1\n      dup4\n      swap1\n      signextend\n      dup2\n      tag_27\n      jumpi\n      invalid\n    tag_27:\n      sdiv\n        /* \"contracts/core/VeloOracle.sol\":3432:3473  (currentTick / tickSpacing) * tickSpacing */\n      mul\n        /* \"contracts/core/VeloOracle.sol\":3494:3519  currentTick - tickSpacing */\n      dup3\n      dup2\n      sub\n      swap7\n        /* \"contracts/core/VeloOracle.sol\":3541:3566  currentTick + tickSpacing */\n      swap3\n      add\n      swap5\n      pop\n        /* \"contracts/core/VeloOracle.sol\":3192:3615  function getTicks (address pool) public view returns (int24 lowTick, int24 highTick){\r... */\n      swap1\n      swap3\n      pop\n      pop\n      pop\n      jump\t// out\n        /* \"contracts/core/VeloOracle.sol\":3623:5360  function getAmountsforLiquidity(address pool,\r... */\n    tag_14:\n        /* \"contracts/core/VeloOracle.sol\":3783:3795  uint amount0 */\n      0x00\n        /* \"contracts/core/VeloOracle.sol\":3797:3809  uint amount1 */\n      dup1\n        /* \"contracts/core/VeloOracle.sol\":3833:3848  int24 tickLower */\n      0x00\n        /* \"contracts/core/VeloOracle.sol\":3849:3864  int24 tickUpper */\n      dup1\n        /* \"contracts/core/VeloOracle.sol\":3868:3882  getTicks(pool) */\n      tag_29\n        /* \"contracts/core/VeloOracle.sol\":3877:3881  pool */\n      dup7\n        /* \"contracts/core/VeloOracle.sol\":3868:3876  getTicks */\n      tag_11\n        /* \"contracts/core/VeloOracle.sol\":3868:3882  getTicks(pool) */\n      jump\t// in\n    tag_29:\n        /* \"contracts/core/VeloOracle.sol\":3832:3882  (int24 tickLower,int24 tickUpper) = getTicks(pool) */\n      swap2\n      pop\n      swap2\n      pop\n        /* \"contracts/core/VeloOracle.sol\":3940:3962  uint160 sqrtPriceLower */\n      0x00\n        /* \"contracts/core/VeloOracle.sol\":3965:4003  TickMath.getSqrtRatioAtTick(tickLower) */\n      tag_30\n        /* \"contracts/core/VeloOracle.sol\":3993:4002  tickLower */\n      dup4\n        /* \"contracts/core/VeloOracle.sol\":3965:3992  TickMath.getSqrtRatioAtTick */\n      tag_31\n        /* \"contracts/core/VeloOracle.sol\":3965:4003  TickMath.getSqrtRatioAtTick(tickLower) */\n      jump\t// in\n    tag_30:\n        /* \"contracts/core/VeloOracle.sol\":3940:4003  uint160 sqrtPriceLower = TickMath.getSqrtRatioAtTick(tickLower) */\n      swap1\n      pop\n        /* \"contracts/core/VeloOracle.sol\":4014:4036  uint160 sqrtPriceUpper */\n      0x00\n        /* \"contracts/core/VeloOracle.sol\":4039:4077  TickMath.getSqrtRatioAtTick(tickUpper) */\n      tag_32\n        /* \"contracts/core/VeloOracle.sol\":4067:4076  tickUpper */\n      dup4\n        /* \"contracts/core/VeloOracle.sol\":4039:4066  TickMath.getSqrtRatioAtTick */\n      tag_31\n        /* \"contracts/core/VeloOracle.sol\":4039:4077  TickMath.getSqrtRatioAtTick(tickUpper) */\n      jump\t// in\n    tag_32:\n        /* \"contracts/core/VeloOracle.sol\":4014:4077  uint160 sqrtPriceUpper = TickMath.getSqrtRatioAtTick(tickUpper) */\n      swap1\n      pop\n        /* \"contracts/core/VeloOracle.sol\":4183:4208  uint256 deltaInvSqrtPrice */\n      0x00\n        /* \"contracts/core/VeloOracle.sol\":4336:4382  FullMath.mulDiv(1e18, 1 << 96, sqrtPriceUpper) */\n      tag_33\n        /* \"contracts/core/VeloOracle.sol\":4352:4356  1e18 */\n      0x0de0b6b3a7640000\n      shl(0x60, 0x01)\n        /* \"contracts/core/VeloOracle.sol\":4367:4381  sqrtPriceUpper */\n      dup5\n      sub(shl(0xa0, 0x01), 0x01)\n        /* \"contracts/core/VeloOracle.sol\":4336:4382  FullMath.mulDiv(1e18, 1 << 96, sqrtPriceUpper) */\n      and\n        /* \"contracts/core/VeloOracle.sol\":4336:4351  FullMath.mulDiv */\n      tag_34\n        /* \"contracts/core/VeloOracle.sol\":4336:4382  FullMath.mulDiv(1e18, 1 << 96, sqrtPriceUpper) */\n      jump\t// in\n    tag_33:\n        /* \"contracts/core/VeloOracle.sol\":4254:4300  FullMath.mulDiv(1e18, 1 << 96, sqrtPriceLower) */\n      tag_35\n        /* \"contracts/core/VeloOracle.sol\":4270:4274  1e18 */\n      0x0de0b6b3a7640000\n      shl(0x60, 0x01)\n        /* \"contracts/core/VeloOracle.sol\":4285:4299  sqrtPriceLower */\n      dup7\n      sub(shl(0xa0, 0x01), 0x01)\n        /* \"contracts/core/VeloOracle.sol\":4254:4300  FullMath.mulDiv(1e18, 1 << 96, sqrtPriceLower) */\n      and\n        /* \"contracts/core/VeloOracle.sol\":4254:4269  FullMath.mulDiv */\n      tag_34\n        /* \"contracts/core/VeloOracle.sol\":4254:4300  FullMath.mulDiv(1e18, 1 << 96, sqrtPriceLower) */\n      jump\t// in\n    tag_35:\n        /* \"contracts/core/VeloOracle.sol\":4254:4382  FullMath.mulDiv(1e18, 1 << 96, sqrtPriceLower) -\r... */\n      sub\n      swap1\n      pop\n      sub(shl(0xa0, 0x01), 0x01)\n        /* \"contracts/core/VeloOracle.sol\":4502:4525  uint256(sqrtPriceLower) */\n      dup1\n      dup5\n      and\n        /* \"contracts/core/VeloOracle.sol\":4476:4499  uint256(sqrtPriceUpper) */\n      swap1\n      dup4\n      and\n        /* \"contracts/core/VeloOracle.sol\":4476:4525  uint256(sqrtPriceUpper) - uint256(sqrtPriceLower) */\n      sub\n        /* \"contracts/core/VeloOracle.sol\":4451:4473  uint256 deltaSqrtPrice */\n      0x00\n        /* \"contracts/core/VeloOracle.sol\":5047:5093  FullMath.mulDiv(deltaSqrtPrice, 1e12, 1 << 96) */\n      tag_36\n        /* \"contracts/core/VeloOracle.sol\":4476:4525  uint256(sqrtPriceUpper) - uint256(sqrtPriceLower) */\n      dup3\n        /* \"contracts/core/VeloOracle.sol\":5079:5083  1e12 */\n      0xe8d4a51000\n      shl(0x60, 0x01)\n        /* \"contracts/core/VeloOracle.sol\":5047:5062  FullMath.mulDiv */\n      tag_34\n        /* \"contracts/core/VeloOracle.sol\":5047:5093  FullMath.mulDiv(deltaSqrtPrice, 1e12, 1 << 96) */\n      jump\t// in\n    tag_36:\n        /* \"contracts/core/VeloOracle.sol\":5027:5044  deltaInvSqrtPrice */\n      dup4\n        /* \"contracts/core/VeloOracle.sol\":5027:5093  deltaInvSqrtPrice + FullMath.mulDiv(deltaSqrtPrice, 1e12, 1 << 96) */\n      add\n        /* \"contracts/core/VeloOracle.sol\":5005:5093  uint256 denominator = deltaInvSqrtPrice + FullMath.mulDiv(deltaSqrtPrice, 1e12, 1 << 96) */\n      swap1\n      pop\n        /* \"contracts/core/VeloOracle.sol\":5104:5121  uint128 liquidity */\n      0x00\n        /* \"contracts/core/VeloOracle.sol\":5132:5177  FullMath.mulDiv(usdAmount, 1e18, denominator) */\n      tag_37\n        /* \"contracts/core/VeloOracle.sol\":5148:5157  usdAmount */\n      dup12\n        /* \"contracts/core/VeloOracle.sol\":5159:5163  1e18 */\n      0x0de0b6b3a7640000\n        /* \"contracts/core/VeloOracle.sol\":5165:5176  denominator */\n      dup5\n        /* \"contracts/core/VeloOracle.sol\":5132:5147  FullMath.mulDiv */\n      tag_34\n        /* \"contracts/core/VeloOracle.sol\":5132:5177  FullMath.mulDiv(usdAmount, 1e18, denominator) */\n      jump\t// in\n    tag_37:\n        /* \"contracts/core/VeloOracle.sol\":5104:5178  uint128 liquidity = uint128(FullMath.mulDiv(usdAmount, 1e18, denominator)) */\n      swap1\n      pop\n        /* \"contracts/core/VeloOracle.sol\":5201:5266  getAmount0ForLiquidity(sqrtPriceLower, sqrtPriceUpper, liquidity) */\n      tag_38\n        /* \"contracts/core/VeloOracle.sol\":5224:5238  sqrtPriceLower */\n      dup7\n        /* \"contracts/core/VeloOracle.sol\":5240:5254  sqrtPriceUpper */\n      dup7\n        /* \"contracts/core/VeloOracle.sol\":5256:5265  liquidity */\n      dup4\n        /* \"contracts/core/VeloOracle.sol\":5201:5223  getAmount0ForLiquidity */\n      tag_39\n        /* \"contracts/core/VeloOracle.sol\":5201:5266  getAmount0ForLiquidity(sqrtPriceLower, sqrtPriceUpper, liquidity) */\n      jump\t// in\n    tag_38:\n        /* \"contracts/core/VeloOracle.sol\":5191:5266  amount0 = getAmount0ForLiquidity(sqrtPriceLower, sqrtPriceUpper, liquidity) */\n      swap10\n      pop\n        /* \"contracts/core/VeloOracle.sol\":5287:5352  getAmount1ForLiquidity(sqrtPriceLower, sqrtPriceUpper, liquidity) */\n      tag_40\n        /* \"contracts/core/VeloOracle.sol\":5310:5324  sqrtPriceLower */\n      dup7\n        /* \"contracts/core/VeloOracle.sol\":5326:5340  sqrtPriceUpper */\n      dup7\n        /* \"contracts/core/VeloOracle.sol\":5342:5351  liquidity */\n      dup4\n        /* \"contracts/core/VeloOracle.sol\":5287:5309  getAmount1ForLiquidity */\n      tag_41\n        /* \"contracts/core/VeloOracle.sol\":5287:5352  getAmount1ForLiquidity(sqrtPriceLower, sqrtPriceUpper, liquidity) */\n      jump\t// in\n    tag_40:\n        /* \"contracts/core/VeloOracle.sol\":5277:5352  amount1 = getAmount1ForLiquidity(sqrtPriceLower, sqrtPriceUpper, liquidity) */\n      swap9\n      pop\n        /* \"contracts/core/VeloOracle.sol\":3623:5360  function getAmountsforLiquidity(address pool,\r... */\n      pop\n      pop\n      pop\n      pop\n      pop\n      pop\n      pop\n      pop\n      swap3\n      pop\n      swap3\n      swap1\n      pop\n      jump\t// out\n        /* \"contracts/core/VeloOracle.sol\":1538:3184  function GetPrice(address pool) public view returns (uint256 price) {\r... */\n    tag_17:\n        /* \"contracts/core/VeloOracle.sol\":1591:1604  uint256 price */\n      0x00\n      sub(shl(0xa0, 0x01), 0x01)\n        /* \"contracts/core/VeloOracle.sol\":1621:1639  pool != address(0) */\n      dup3\n      and\n        /* \"contracts/core/VeloOracle.sol\":1613:1664  require(pool != address(0), \"Invalid pool address\") */\n      tag_43\n      jumpi\n      0x40\n      dup1\n      mload\n      shl(0xe5, 0x461bcd)\n      dup2\n      mstore\n      0x20\n      0x04\n      dup3\n      add\n      mstore\n      0x14\n      0x24\n      dup3\n      add\n      mstore\n      shl(0x60, 0x496e76616c696420706f6f6c2061646472657373)\n      0x44\n      dup3\n      add\n      mstore\n      swap1\n      mload\n      swap1\n      dup2\n      swap1\n      sub\n      0x64\n      add\n      swap1\n      revert\n    tag_43:\n        /* \"contracts/core/VeloOracle.sol\":1703:1717  address token0 */\n      0x00\n        /* \"contracts/core/VeloOracle.sol\":1737:1741  pool */\n      dup3\n      sub(shl(0xa0, 0x01), 0x01)\n        /* \"contracts/core/VeloOracle.sol\":1720:1749  ICLPoolConstants(pool).token0 */\n      and\n      0x0dfe1681\n        /* \"contracts/core/VeloOracle.sol\":1720:1751  ICLPoolConstants(pool).token0() */\n      mload(0x40)\n      dup2\n      0xffffffff\n      and\n      0xe0\n      shl\n      dup2\n      mstore\n      0x04\n      add\n      0x20\n      mload(0x40)\n      dup1\n      dup4\n      sub\n      dup2\n      dup7\n      dup1\n      extcodesize\n      iszero\n      dup1\n      iszero\n      tag_44\n      jumpi\n      0x00\n      dup1\n      revert\n    tag_44:\n      pop\n      gas\n      staticcall\n      iszero\n      dup1\n      iszero\n      tag_46\n      jumpi\n      returndatasize\n      0x00\n      dup1\n      returndatacopy\n      revert(0x00, returndatasize)\n    tag_46:\n      pop\n      pop\n      pop\n      pop\n      mload(0x40)\n      returndatasize\n      0x20\n      dup2\n      lt\n      iszero\n      tag_47\n      jumpi\n      0x00\n      dup1\n      revert\n    tag_47:\n      pop\n      mload\n        /* \"contracts/core/VeloOracle.sol\":1775:1806  ICLPoolConstants(pool).token1() */\n      0x40\n      dup1\n      mload\n      shl(0xe0, 0xd21220a7)\n      dup2\n      mstore\n      swap1\n      mload\n        /* \"contracts/core/VeloOracle.sol\":1720:1751  ICLPoolConstants(pool).token0() */\n      swap2\n      swap3\n      pop\n        /* \"contracts/core/VeloOracle.sol\":1758:1772  address token1 */\n      0x00\n      swap2\n      sub(shl(0xa0, 0x01), 0x01)\n        /* \"contracts/core/VeloOracle.sol\":1775:1804  ICLPoolConstants(pool).token1 */\n      dup7\n      and\n      swap2\n      0xd21220a7\n      swap2\n        /* \"contracts/core/VeloOracle.sol\":1775:1806  ICLPoolConstants(pool).token1() */\n      0x04\n      dup1\n      dup4\n      add\n      swap3\n        /* \"contracts/core/VeloOracle.sol\":1720:1751  ICLPoolConstants(pool).token0() */\n      0x20\n      swap3\n        /* \"contracts/core/VeloOracle.sol\":1775:1806  ICLPoolConstants(pool).token1() */\n      swap2\n      swap1\n      dup3\n      swap1\n      sub\n      add\n      dup2\n        /* \"contracts/core/VeloOracle.sol\":1775:1804  ICLPoolConstants(pool).token1 */\n      dup7\n        /* \"contracts/core/VeloOracle.sol\":1775:1806  ICLPoolConstants(pool).token1() */\n      dup1\n      extcodesize\n      iszero\n      dup1\n      iszero\n      tag_48\n      jumpi\n      0x00\n      dup1\n      revert\n    tag_48:\n      pop\n      gas\n      staticcall\n      iszero\n      dup1\n      iszero\n      tag_50\n      jumpi\n      returndatasize\n      0x00\n      dup1\n      returndatacopy\n      revert(0x00, returndatasize)\n    tag_50:\n      pop\n      pop\n      pop\n      pop\n      mload(0x40)\n      returndatasize\n      0x20\n      dup2\n      lt\n      iszero\n      tag_51\n      jumpi\n      0x00\n      dup1\n      revert\n    tag_51:\n      pop\n      mload\n      swap1\n      pop\n      sub(shl(0xa0, 0x01), 0x01)\n        /* \"contracts/core/VeloOracle.sol\":1821:1841  token0 != address(0) */\n      dup3\n      and\n      iszero\n      dup1\n      iszero\n      swap1\n        /* \"contracts/core/VeloOracle.sol\":1821:1865  token0 != address(0) && token1 != address(0) */\n      tag_52\n      jumpi\n      pop\n      sub(shl(0xa0, 0x01), 0x01)\n        /* \"contracts/core/VeloOracle.sol\":1845:1865  token1 != address(0) */\n      dup2\n      and\n      iszero\n      iszero\n        /* \"contracts/core/VeloOracle.sol\":1821:1865  token0 != address(0) && token1 != address(0) */\n    tag_52:\n        /* \"contracts/core/VeloOracle.sol\":1813:1884  require(token0 != address(0) && token1 != address(0), \"Invalid tokens\") */\n      tag_53\n      jumpi\n      0x40\n      dup1\n      mload\n      shl(0xe5, 0x461bcd)\n      dup2\n      mstore\n      0x20\n      0x04\n      dup3\n      add\n      mstore\n      0x0e\n      0x24\n      dup3\n      add\n      mstore\n      shl(0x90, 0x496e76616c696420746f6b656e73)\n      0x44\n      dup3\n      add\n      mstore\n      swap1\n      mload\n      swap1\n      dup2\n      swap1\n      sub\n      0x64\n      add\n      swap1\n      revert\n    tag_53:\n        /* \"contracts/core/VeloOracle.sol\":1925:1942  bool isToken0Base */\n      0x00\n        /* \"contracts/core/VeloOracle.sol\":1954:1960  token1 */\n      dup2\n      sub(shl(0xa0, 0x01), 0x01)\n        /* \"contracts/core/VeloOracle.sol\":1945:1960  token0 < token1 */\n      and\n        /* \"contracts/core/VeloOracle.sol\":1945:1951  token0 */\n      dup4\n      sub(shl(0xa0, 0x01), 0x01)\n        /* \"contracts/core/VeloOracle.sol\":1945:1960  token0 < token1 */\n      and\n      lt\n        /* \"contracts/core/VeloOracle.sol\":1925:1960  bool isToken0Base = token0 < token1 */\n      swap1\n      pop\n        /* \"contracts/core/VeloOracle.sol\":1992:2002  uint8 dec0 */\n      0x00\n        /* \"contracts/core/VeloOracle.sol\":2012:2018  token0 */\n      dup4\n      sub(shl(0xa0, 0x01), 0x01)\n        /* \"contracts/core/VeloOracle.sol\":2005:2028  IERC20(token0).decimals */\n      and\n      0x313ce567\n        /* \"contracts/core/VeloOracle.sol\":2005:2030  IERC20(token0).decimals() */\n      mload(0x40)\n      dup2\n      0xffffffff\n      and\n      0xe0\n      shl\n      dup2\n      mstore\n      0x04\n      add\n      0x20\n      mload(0x40)\n      dup1\n      dup4\n      sub\n      dup2\n      dup7\n      dup1\n      extcodesize\n      iszero\n      dup1\n      iszero\n      tag_54\n      jumpi\n      0x00\n      dup1\n      revert\n    tag_54:\n      pop\n      gas\n      staticcall\n      iszero\n      dup1\n      iszero\n      tag_56\n      jumpi\n      returndatasize\n      0x00\n      dup1\n      returndatacopy\n      revert(0x00, returndatasize)\n    tag_56:\n      pop\n      pop\n      pop\n      pop\n      mload(0x40)\n      returndatasize\n      0x20\n      dup2\n      lt\n      iszero\n      tag_57\n      jumpi\n      0x00\n      dup1\n      revert\n    tag_57:\n      pop\n      mload\n        /* \"contracts/core/VeloOracle.sol\":2062:2087  IERC20(token1).decimals() */\n      0x40\n      dup1\n      mload\n      shl(0xe0, 0x313ce567)\n      dup2\n      mstore\n      swap1\n      mload\n        /* \"contracts/core/VeloOracle.sol\":2005:2030  IERC20(token0).decimals() */\n      swap2\n      swap3\n      pop\n        /* \"contracts/core/VeloOracle.sol\":2049:2059  uint8 dec1 */\n      0x00\n      swap2\n      sub(shl(0xa0, 0x01), 0x01)\n        /* \"contracts/core/VeloOracle.sol\":2062:2085  IERC20(token1).decimals */\n      dup7\n      and\n      swap2\n      0x313ce567\n      swap2\n        /* \"contracts/core/VeloOracle.sol\":2062:2087  IERC20(token1).decimals() */\n      0x04\n      dup1\n      dup4\n      add\n      swap3\n        /* \"contracts/core/VeloOracle.sol\":2005:2030  IERC20(token0).decimals() */\n      0x20\n      swap3\n        /* \"contracts/core/VeloOracle.sol\":2062:2087  IERC20(token1).decimals() */\n      swap2\n      swap1\n      dup3\n      swap1\n      sub\n      add\n      dup2\n        /* \"contracts/core/VeloOracle.sol\":2062:2085  IERC20(token1).decimals */\n      dup7\n        /* \"contracts/core/VeloOracle.sol\":2062:2087  IERC20(token1).decimals() */\n      dup1\n      extcodesize\n      iszero\n      dup1\n      iszero\n      tag_58\n      jumpi\n      0x00\n      dup1\n      revert\n    tag_58:\n      pop\n      gas\n      staticcall\n      iszero\n      dup1\n      iszero\n      tag_60\n      jumpi\n      returndatasize\n      0x00\n      dup1\n      returndatacopy\n      revert(0x00, returndatasize)\n    tag_60:\n      pop\n      pop\n      pop\n      pop\n      mload(0x40)\n      returndatasize\n      0x20\n      dup2\n      lt\n      iszero\n      tag_61\n      jumpi\n      0x00\n      dup1\n      revert\n    tag_61:\n      pop\n      mload\n        /* \"contracts/core/VeloOracle.sol\":2161:2187  ICLPoolState(pool).slot0() */\n      0x40\n      dup1\n      mload\n      shl(0xe0, 0x3850c7bd)\n      dup2\n      mstore\n      swap1\n      mload\n        /* \"contracts/core/VeloOracle.sol\":2062:2087  IERC20(token1).decimals() */\n      swap2\n      swap3\n      pop\n        /* \"contracts/core/VeloOracle.sol\":2139:2149  int24 tick */\n      0x00\n      swap2\n      sub(shl(0xa0, 0x01), 0x01)\n        /* \"contracts/core/VeloOracle.sol\":2161:2185  ICLPoolState(pool).slot0 */\n      dup11\n      and\n      swap2\n      0x3850c7bd\n      swap2\n        /* \"contracts/core/VeloOracle.sol\":2161:2187  ICLPoolState(pool).slot0() */\n      0x04\n      dup1\n      dup4\n      add\n      swap3\n      0xc0\n      swap3\n      swap2\n      swap1\n      dup3\n      swap1\n      sub\n      add\n      dup2\n        /* \"contracts/core/VeloOracle.sol\":2161:2185  ICLPoolState(pool).slot0 */\n      dup7\n        /* \"contracts/core/VeloOracle.sol\":2161:2187  ICLPoolState(pool).slot0() */\n      dup1\n      extcodesize\n      iszero\n      dup1\n      iszero\n      tag_62\n      jumpi\n      0x00\n      dup1\n      revert\n    tag_62:\n      pop\n      gas\n      staticcall\n      iszero\n      dup1\n      iszero\n      tag_64\n      jumpi\n      returndatasize\n      0x00\n      dup1\n      returndatacopy\n      revert(0x00, returndatasize)\n    tag_64:\n      pop\n      pop\n      pop\n      pop\n      mload(0x40)\n      returndatasize\n      0xc0\n      dup2\n      lt\n      iszero\n      tag_65\n      jumpi\n      0x00\n      dup1\n      revert\n    tag_65:\n      pop\n      0x20\n      add\n      mload\n      swap1\n      pop\n        /* \"contracts/core/VeloOracle.sol\":2219:2239  uint160 sqrtRatioX96 */\n      0x00\n        /* \"contracts/core/VeloOracle.sol\":2242:2275  TickMath.getSqrtRatioAtTick(tick) */\n      tag_66\n        /* \"contracts/core/VeloOracle.sol\":2161:2187  ICLPoolState(pool).slot0() */\n      dup3\n        /* \"contracts/core/VeloOracle.sol\":2242:2269  TickMath.getSqrtRatioAtTick */\n      tag_31\n        /* \"contracts/core/VeloOracle.sol\":2242:2275  TickMath.getSqrtRatioAtTick(tick) */\n      jump\t// in\n    tag_66:\n        /* \"contracts/core/VeloOracle.sol\":2219:2275  uint160 sqrtRatioX96 = TickMath.getSqrtRatioAtTick(tick) */\n      swap1\n      pop\n      sub(shl(0xa0, 0x01), 0x01)\n        /* \"contracts/core/VeloOracle.sol\":2302:2323  uint256(sqrtRatioX96) */\n      dup2\n      and\n        /* \"contracts/core/VeloOracle.sol\":2282:2299  uint256 sqrtPrice */\n      0x00\n        /* \"contracts/core/VeloOracle.sol\":2402:2451  FullMath.mulDiv(sqrtPrice * sqrtPrice, 1, 2**192) */\n      tag_67\n        /* \"contracts/core/VeloOracle.sol\":2418:2439  sqrtPrice * sqrtPrice */\n      dup3\n      dup1\n      mul\n        /* \"contracts/core/VeloOracle.sol\":2441:2442  1 */\n      0x01\n      shl(0xc0, 0x01)\n        /* \"contracts/core/VeloOracle.sol\":2402:2417  FullMath.mulDiv */\n      tag_34\n        /* \"contracts/core/VeloOracle.sol\":2402:2451  FullMath.mulDiv(sqrtPrice * sqrtPrice, 1, 2**192) */\n      jump\t// in\n    tag_67:\n        /* \"contracts/core/VeloOracle.sol\":2383:2451  uint256 priceRaw = FullMath.mulDiv(sqrtPrice * sqrtPrice, 1, 2**192) */\n      swap1\n      pop\n        /* \"contracts/core/VeloOracle.sol\":2510:2522  isToken0Base */\n      dup7\n        /* \"contracts/core/VeloOracle.sol\":2506:3158  if (isToken0Base) {\r... */\n      iszero\n      tag_68\n      jumpi\n        /* \"contracts/core/VeloOracle.sol\":2597:2605  priceRaw */\n      dup1\n        /* \"contracts/core/VeloOracle.sol\":2589:2605  price = priceRaw */\n      swap10\n      pop\n        /* \"contracts/core/VeloOracle.sol\":2724:2759  FullMath.mulDiv(price, 10**dec0, 1) */\n      tag_69\n        /* \"contracts/core/VeloOracle.sol\":2740:2745  price */\n      dup11\n        /* \"contracts/core/VeloOracle.sol\":2751:2755  dec0 */\n      dup8\n        /* \"contracts/core/VeloOracle.sol\":2747:2755  10**dec0 */\n      0xff\n      and\n        /* \"contracts/core/VeloOracle.sol\":2747:2749  10 */\n      0x0a\n        /* \"contracts/core/VeloOracle.sol\":2747:2755  10**dec0 */\n      exp\n        /* \"contracts/core/VeloOracle.sol\":2757:2758  1 */\n      0x01\n        /* \"contracts/core/VeloOracle.sol\":2724:2739  FullMath.mulDiv */\n      tag_34\n        /* \"contracts/core/VeloOracle.sol\":2724:2759  FullMath.mulDiv(price, 10**dec0, 1) */\n      jump\t// in\n    tag_69:\n        /* \"contracts/core/VeloOracle.sol\":2716:2759  price = FullMath.mulDiv(price, 10**dec0, 1) */\n      swap10\n      pop\n        /* \"contracts/core/VeloOracle.sol\":2506:3158  if (isToken0Base) {\r... */\n      jump(tag_70)\n    tag_68:\n        /* \"contracts/core/VeloOracle.sol\":2924:2925  0 */\n      0x00\n        /* \"contracts/core/VeloOracle.sol\":2913:2921  priceRaw */\n      dup2\n        /* \"contracts/core/VeloOracle.sol\":2913:2925  priceRaw > 0 */\n      gt\n        /* \"contracts/core/VeloOracle.sol\":2913:2973  priceRaw > 0 ? FullMath.mulDiv(10**18, 10**18, priceRaw) : 0 */\n      tag_71\n      jumpi\n        /* \"contracts/core/VeloOracle.sol\":2972:2973  0 */\n      0x00\n        /* \"contracts/core/VeloOracle.sol\":2913:2973  priceRaw > 0 ? FullMath.mulDiv(10**18, 10**18, priceRaw) : 0 */\n      jump(tag_73)\n    tag_71:\n        /* \"contracts/core/VeloOracle.sol\":2928:2969  FullMath.mulDiv(10**18, 10**18, priceRaw) */\n      tag_73\n        /* \"contracts/core/VeloOracle.sol\":2944:2950  10**18 */\n      0x0de0b6b3a7640000\n        /* \"contracts/core/VeloOracle.sol\":2952:2958  10**18 */\n      dup1\n        /* \"contracts/core/VeloOracle.sol\":2960:2968  priceRaw */\n      dup4\n        /* \"contracts/core/VeloOracle.sol\":2928:2943  FullMath.mulDiv */\n      tag_34\n        /* \"contracts/core/VeloOracle.sol\":2928:2969  FullMath.mulDiv(10**18, 10**18, priceRaw) */\n      jump\t// in\n    tag_73:\n        /* \"contracts/core/VeloOracle.sol\":2905:2973  price = priceRaw > 0 ? FullMath.mulDiv(10**18, 10**18, priceRaw) : 0 */\n      swap10\n      pop\n        /* \"contracts/core/VeloOracle.sol\":3090:3125  FullMath.mulDiv(price, 10**dec1, 1) */\n      tag_74\n        /* \"contracts/core/VeloOracle.sol\":3106:3111  price */\n      dup11\n        /* \"contracts/core/VeloOracle.sol\":3117:3121  dec1 */\n      dup7\n        /* \"contracts/core/VeloOracle.sol\":3113:3121  10**dec1 */\n      0xff\n      and\n        /* \"contracts/core/VeloOracle.sol\":3113:3115  10 */\n      0x0a\n        /* \"contracts/core/VeloOracle.sol\":3113:3121  10**dec1 */\n      exp\n        /* \"contracts/core/VeloOracle.sol\":3123:3124  1 */\n      0x01\n        /* \"contracts/core/VeloOracle.sol\":3090:3105  FullMath.mulDiv */\n      tag_34\n        /* \"contracts/core/VeloOracle.sol\":3090:3125  FullMath.mulDiv(price, 10**dec1, 1) */\n      jump\t// in\n    tag_74:\n        /* \"contracts/core/VeloOracle.sol\":3082:3125  price = FullMath.mulDiv(price, 10**dec1, 1) */\n      swap10\n      pop\n        /* \"contracts/core/VeloOracle.sol\":2506:3158  if (isToken0Base) {\r... */\n    tag_70:\n        /* \"contracts/core/VeloOracle.sol\":3166:3180  return (price) */\n      pop\n      pop\n      pop\n      pop\n      pop\n      pop\n      pop\n      pop\n      pop\n        /* \"contracts/core/VeloOracle.sol\":1538:3184  function GetPrice(address pool) public view returns (uint256 price) {\r... */\n      swap2\n      swap1\n      pop\n      jump\t// out\n        /* \"contracts/core/libraries/TickMath.sol\":1362:3942  function getSqrtRatioAtTick(int24 tick) internal pure returns (uint160 sqrtPriceX96) {... */\n    tag_31:\n        /* \"contracts/core/libraries/TickMath.sol\":1425:1445  uint160 sqrtPriceX96 */\n      0x00\n        /* \"contracts/core/libraries/TickMath.sol\":1457:1472  uint256 absTick */\n      dup1\n        /* \"contracts/core/libraries/TickMath.sol\":1482:1483  0 */\n      0x00\n        /* \"contracts/core/libraries/TickMath.sol\":1475:1479  tick */\n      dup4\n        /* \"contracts/core/libraries/TickMath.sol\":1475:1483  tick < 0 */\n      0x02\n      signextend\n      slt\n        /* \"contracts/core/libraries/TickMath.sol\":1475:1532  tick < 0 ? uint256(-int256(tick)) : uint256(int256(tick)) */\n      tag_76\n      jumpi\n        /* \"contracts/core/libraries/TickMath.sol\":1526:1530  tick */\n      dup3\n        /* \"contracts/core/libraries/TickMath.sol\":1519:1531  int256(tick) */\n      0x02\n      signextend\n        /* \"contracts/core/libraries/TickMath.sol\":1475:1532  tick < 0 ? uint256(-int256(tick)) : uint256(int256(tick)) */\n      jump(tag_77)\n    tag_76:\n        /* \"contracts/core/libraries/TickMath.sol\":1502:1506  tick */\n      dup3\n        /* \"contracts/core/libraries/TickMath.sol\":1495:1507  int256(tick) */\n      0x02\n      signextend\n        /* \"contracts/core/libraries/TickMath.sol\":1494:1507  -int256(tick) */\n      0x00\n      sub\n        /* \"contracts/core/libraries/TickMath.sol\":1475:1532  tick < 0 ? uint256(-int256(tick)) : uint256(int256(tick)) */\n    tag_77:\n        /* \"contracts/core/libraries/TickMath.sol\":1457:1532  uint256 absTick = tick < 0 ? uint256(-int256(tick)) : uint256(int256(tick)) */\n      swap1\n      pop\n        /* \"contracts/core/libraries/TickMath.sol\":644:653  -MIN_TICK */\n      0x0d89e8\n        /* \"contracts/core/libraries/TickMath.sol\":1550:1578  absTick <= uint256(MAX_TICK) */\n      dup2\n      gt\n      iszero\n        /* \"contracts/core/libraries/TickMath.sol\":1542:1584  require(absTick <= uint256(MAX_TICK), \"T\") */\n      tag_78\n      jumpi\n      0x40\n      dup1\n      mload\n      shl(0xe5, 0x461bcd)\n      dup2\n      mstore\n      0x20\n      0x04\n      dup3\n      add\n      mstore\n      0x01\n      0x24\n      dup3\n      add\n      mstore\n      shl(0xfa, 0x15)\n      0x44\n      dup3\n      add\n      mstore\n      swap1\n      mload\n      swap1\n      dup2\n      swap1\n      sub\n      0x64\n      add\n      swap1\n      revert\n    tag_78:\n        /* \"contracts/core/libraries/TickMath.sol\":1595:1608  uint256 ratio */\n      0x00\n        /* \"contracts/core/libraries/TickMath.sol\":1621:1624  0x1 */\n      0x01\n        /* \"contracts/core/libraries/TickMath.sol\":1611:1624  absTick & 0x1 */\n      dup3\n      and\n        /* \"contracts/core/libraries/TickMath.sol\":1611:1704  absTick & 0x1 != 0 ? 0xfffcb933bd6fad37aa2d162d1a594001 : 0x100000000000000000000000000000000 */\n      tag_79\n      jumpi\n      shl(0x80, 0x01)\n      jump(tag_80)\n    tag_79:\n        /* \"contracts/core/libraries/TickMath.sol\":1632:1666  0xfffcb933bd6fad37aa2d162d1a594001 */\n      0xfffcb933bd6fad37aa2d162d1a594001\n        /* \"contracts/core/libraries/TickMath.sol\":1611:1704  absTick & 0x1 != 0 ? 0xfffcb933bd6fad37aa2d162d1a594001 : 0x100000000000000000000000000000000 */\n    tag_80:\n        /* \"contracts/core/libraries/TickMath.sol\":1595:1704  uint256 ratio = absTick & 0x1 != 0 ? 0xfffcb933bd6fad37aa2d162d1a594001 : 0x100000000000000000000000000000000 */\n      0xffffffffffffffffffffffffffffffffff\n      and\n      swap1\n      pop\n        /* \"contracts/core/libraries/TickMath.sol\":1728:1731  0x2 */\n      0x02\n        /* \"contracts/core/libraries/TickMath.sol\":1718:1731  absTick & 0x2 */\n      dup3\n      and\n        /* \"contracts/core/libraries/TickMath.sol\":1718:1736  absTick & 0x2 != 0 */\n      iszero\n        /* \"contracts/core/libraries/TickMath.sol\":1714:1797  if (absTick & 0x2 != 0) ratio = (ratio * 0xfff97272373d413259a46990580e213a) >> 128 */\n      tag_81\n      jumpi\n        /* \"contracts/core/libraries/TickMath.sol\":1755:1789  0xfff97272373d413259a46990580e213a */\n      0xfff97272373d413259a46990580e213a\n        /* \"contracts/core/libraries/TickMath.sol\":1747:1789  ratio * 0xfff97272373d413259a46990580e213a */\n      mul\n        /* \"contracts/core/libraries/TickMath.sol\":1794:1797  128 */\n      0x80\n        /* \"contracts/core/libraries/TickMath.sol\":1746:1797  (ratio * 0xfff97272373d413259a46990580e213a) >> 128 */\n      shr\n        /* \"contracts/core/libraries/TickMath.sol\":1714:1797  if (absTick & 0x2 != 0) ratio = (ratio * 0xfff97272373d413259a46990580e213a) >> 128 */\n    tag_81:\n        /* \"contracts/core/libraries/TickMath.sol\":1821:1824  0x4 */\n      0x04\n        /* \"contracts/core/libraries/TickMath.sol\":1811:1824  absTick & 0x4 */\n      dup3\n      and\n        /* \"contracts/core/libraries/TickMath.sol\":1811:1829  absTick & 0x4 != 0 */\n      iszero\n        /* \"contracts/core/libraries/TickMath.sol\":1807:1890  if (absTick & 0x4 != 0) ratio = (ratio * 0xfff2e50f5f656932ef12357cf3c7fdcc) >> 128 */\n      tag_82\n      jumpi\n        /* \"contracts/core/libraries/TickMath.sol\":1848:1882  0xfff2e50f5f656932ef12357cf3c7fdcc */\n      0xfff2e50f5f656932ef12357cf3c7fdcc\n        /* \"contracts/core/libraries/TickMath.sol\":1840:1882  ratio * 0xfff2e50f5f656932ef12357cf3c7fdcc */\n      mul\n        /* \"contracts/core/libraries/TickMath.sol\":1887:1890  128 */\n      0x80\n        /* \"contracts/core/libraries/TickMath.sol\":1839:1890  (ratio * 0xfff2e50f5f656932ef12357cf3c7fdcc) >> 128 */\n      shr\n        /* \"contracts/core/libraries/TickMath.sol\":1807:1890  if (absTick & 0x4 != 0) ratio = (ratio * 0xfff2e50f5f656932ef12357cf3c7fdcc) >> 128 */\n    tag_82:\n        /* \"contracts/core/libraries/TickMath.sol\":1914:1917  0x8 */\n      0x08\n        /* \"contracts/core/libraries/TickMath.sol\":1904:1917  absTick & 0x8 */\n      dup3\n      and\n        /* \"contracts/core/libraries/TickMath.sol\":1904:1922  absTick & 0x8 != 0 */\n      iszero\n        /* \"contracts/core/libraries/TickMath.sol\":1900:1983  if (absTick & 0x8 != 0) ratio = (ratio * 0xffe5caca7e10e4e61c3624eaa0941cd0) >> 128 */\n      tag_83\n      jumpi\n        /* \"contracts/core/libraries/TickMath.sol\":1941:1975  0xffe5caca7e10e4e61c3624eaa0941cd0 */\n      0xffe5caca7e10e4e61c3624eaa0941cd0\n        /* \"contracts/core/libraries/TickMath.sol\":1933:1975  ratio * 0xffe5caca7e10e4e61c3624eaa0941cd0 */\n      mul\n        /* \"contracts/core/libraries/TickMath.sol\":1980:1983  128 */\n      0x80\n        /* \"contracts/core/libraries/TickMath.sol\":1932:1983  (ratio * 0xffe5caca7e10e4e61c3624eaa0941cd0) >> 128 */\n      shr\n        /* \"contracts/core/libraries/TickMath.sol\":1900:1983  if (absTick & 0x8 != 0) ratio = (ratio * 0xffe5caca7e10e4e61c3624eaa0941cd0) >> 128 */\n    tag_83:\n        /* \"contracts/core/libraries/TickMath.sol\":2007:2011  0x10 */\n      0x10\n        /* \"contracts/core/libraries/TickMath.sol\":1997:2011  absTick & 0x10 */\n      dup3\n      and\n        /* \"contracts/core/libraries/TickMath.sol\":1997:2016  absTick & 0x10 != 0 */\n      iszero\n        /* \"contracts/core/libraries/TickMath.sol\":1993:2077  if (absTick & 0x10 != 0) ratio = (ratio * 0xffcb9843d60f6159c9db58835c926644) >> 128 */\n      tag_84\n      jumpi\n        /* \"contracts/core/libraries/TickMath.sol\":2035:2069  0xffcb9843d60f6159c9db58835c926644 */\n      0xffcb9843d60f6159c9db58835c926644\n        /* \"contracts/core/libraries/TickMath.sol\":2027:2069  ratio * 0xffcb9843d60f6159c9db58835c926644 */\n      mul\n        /* \"contracts/core/libraries/TickMath.sol\":2074:2077  128 */\n      0x80\n        /* \"contracts/core/libraries/TickMath.sol\":2026:2077  (ratio * 0xffcb9843d60f6159c9db58835c926644) >> 128 */\n      shr\n        /* \"contracts/core/libraries/TickMath.sol\":1993:2077  if (absTick & 0x10 != 0) ratio = (ratio * 0xffcb9843d60f6159c9db58835c926644) >> 128 */\n    tag_84:\n        /* \"contracts/core/libraries/TickMath.sol\":2101:2105  0x20 */\n      0x20\n        /* \"contracts/core/libraries/TickMath.sol\":2091:2105  absTick & 0x20 */\n      dup3\n      and\n        /* \"contracts/core/libraries/TickMath.sol\":2091:2110  absTick & 0x20 != 0 */\n      iszero\n        /* \"contracts/core/libraries/TickMath.sol\":2087:2171  if (absTick & 0x20 != 0) ratio = (ratio * 0xff973b41fa98c081472e6896dfb254c0) >> 128 */\n      tag_85\n      jumpi\n        /* \"contracts/core/libraries/TickMath.sol\":2129:2163  0xff973b41fa98c081472e6896dfb254c0 */\n      0xff973b41fa98c081472e6896dfb254c0\n        /* \"contracts/core/libraries/TickMath.sol\":2121:2163  ratio * 0xff973b41fa98c081472e6896dfb254c0 */\n      mul\n        /* \"contracts/core/libraries/TickMath.sol\":2168:2171  128 */\n      0x80\n        /* \"contracts/core/libraries/TickMath.sol\":2120:2171  (ratio * 0xff973b41fa98c081472e6896dfb254c0) >> 128 */\n      shr\n        /* \"contracts/core/libraries/TickMath.sol\":2087:2171  if (absTick & 0x20 != 0) ratio = (ratio * 0xff973b41fa98c081472e6896dfb254c0) >> 128 */\n    tag_85:\n        /* \"contracts/core/libraries/TickMath.sol\":2195:2199  0x40 */\n      0x40\n        /* \"contracts/core/libraries/TickMath.sol\":2185:2199  absTick & 0x40 */\n      dup3\n      and\n        /* \"contracts/core/libraries/TickMath.sol\":2185:2204  absTick & 0x40 != 0 */\n      iszero\n        /* \"contracts/core/libraries/TickMath.sol\":2181:2265  if (absTick & 0x40 != 0) ratio = (ratio * 0xff2ea16466c96a3843ec78b326b52861) >> 128 */\n      tag_86\n      jumpi\n        /* \"contracts/core/libraries/TickMath.sol\":2223:2257  0xff2ea16466c96a3843ec78b326b52861 */\n      0xff2ea16466c96a3843ec78b326b52861\n        /* \"contracts/core/libraries/TickMath.sol\":2215:2257  ratio * 0xff2ea16466c96a3843ec78b326b52861 */\n      mul\n        /* \"contracts/core/libraries/TickMath.sol\":2262:2265  128 */\n      0x80\n        /* \"contracts/core/libraries/TickMath.sol\":2214:2265  (ratio * 0xff2ea16466c96a3843ec78b326b52861) >> 128 */\n      shr\n        /* \"contracts/core/libraries/TickMath.sol\":2181:2265  if (absTick & 0x40 != 0) ratio = (ratio * 0xff2ea16466c96a3843ec78b326b52861) >> 128 */\n    tag_86:\n        /* \"contracts/core/libraries/TickMath.sol\":2289:2293  0x80 */\n      0x80\n        /* \"contracts/core/libraries/TickMath.sol\":2279:2293  absTick & 0x80 */\n      dup3\n      and\n        /* \"contracts/core/libraries/TickMath.sol\":2279:2298  absTick & 0x80 != 0 */\n      iszero\n        /* \"contracts/core/libraries/TickMath.sol\":2275:2359  if (absTick & 0x80 != 0) ratio = (ratio * 0xfe5dee046a99a2a811c461f1969c3053) >> 128 */\n      tag_87\n      jumpi\n        /* \"contracts/core/libraries/TickMath.sol\":2317:2351  0xfe5dee046a99a2a811c461f1969c3053 */\n      0xfe5dee046a99a2a811c461f1969c3053\n        /* \"contracts/core/libraries/TickMath.sol\":2309:2351  ratio * 0xfe5dee046a99a2a811c461f1969c3053 */\n      mul\n        /* \"contracts/core/libraries/TickMath.sol\":2356:2359  128 */\n      0x80\n        /* \"contracts/core/libraries/TickMath.sol\":2308:2359  (ratio * 0xfe5dee046a99a2a811c461f1969c3053) >> 128 */\n      shr\n        /* \"contracts/core/libraries/TickMath.sol\":2275:2359  if (absTick & 0x80 != 0) ratio = (ratio * 0xfe5dee046a99a2a811c461f1969c3053) >> 128 */\n    tag_87:\n        /* \"contracts/core/libraries/TickMath.sol\":2383:2388  0x100 */\n      0x0100\n        /* \"contracts/core/libraries/TickMath.sol\":2373:2388  absTick & 0x100 */\n      dup3\n      and\n        /* \"contracts/core/libraries/TickMath.sol\":2373:2393  absTick & 0x100 != 0 */\n      iszero\n        /* \"contracts/core/libraries/TickMath.sol\":2369:2454  if (absTick & 0x100 != 0) ratio = (ratio * 0xfcbe86c7900a88aedcffc83b479aa3a4) >> 128 */\n      tag_88\n      jumpi\n        /* \"contracts/core/libraries/TickMath.sol\":2412:2446  0xfcbe86c7900a88aedcffc83b479aa3a4 */\n      0xfcbe86c7900a88aedcffc83b479aa3a4\n        /* \"contracts/core/libraries/TickMath.sol\":2404:2446  ratio * 0xfcbe86c7900a88aedcffc83b479aa3a4 */\n      mul\n        /* \"contracts/core/libraries/TickMath.sol\":2451:2454  128 */\n      0x80\n        /* \"contracts/core/libraries/TickMath.sol\":2403:2454  (ratio * 0xfcbe86c7900a88aedcffc83b479aa3a4) >> 128 */\n      shr\n        /* \"contracts/core/libraries/TickMath.sol\":2369:2454  if (absTick & 0x100 != 0) ratio = (ratio * 0xfcbe86c7900a88aedcffc83b479aa3a4) >> 128 */\n    tag_88:\n        /* \"contracts/core/libraries/TickMath.sol\":2478:2483  0x200 */\n      0x0200\n        /* \"contracts/core/libraries/TickMath.sol\":2468:2483  absTick & 0x200 */\n      dup3\n      and\n        /* \"contracts/core/libraries/TickMath.sol\":2468:2488  absTick & 0x200 != 0 */\n      iszero\n        /* \"contracts/core/libraries/TickMath.sol\":2464:2549  if (absTick & 0x200 != 0) ratio = (ratio * 0xf987a7253ac413176f2b074cf7815e54) >> 128 */\n      tag_89\n      jumpi\n        /* \"contracts/core/libraries/TickMath.sol\":2507:2541  0xf987a7253ac413176f2b074cf7815e54 */\n      0xf987a7253ac413176f2b074cf7815e54\n        /* \"contracts/core/libraries/TickMath.sol\":2499:2541  ratio * 0xf987a7253ac413176f2b074cf7815e54 */\n      mul\n        /* \"contracts/core/libraries/TickMath.sol\":2546:2549  128 */\n      0x80\n        /* \"contracts/core/libraries/TickMath.sol\":2498:2549  (ratio * 0xf987a7253ac413176f2b074cf7815e54) >> 128 */\n      shr\n        /* \"contracts/core/libraries/TickMath.sol\":2464:2549  if (absTick & 0x200 != 0) ratio = (ratio * 0xf987a7253ac413176f2b074cf7815e54) >> 128 */\n    tag_89:\n        /* \"contracts/core/libraries/TickMath.sol\":2573:2578  0x400 */\n      0x0400\n        /* \"contracts/core/libraries/TickMath.sol\":2563:2578  absTick & 0x400 */\n      dup3\n      and\n        /* \"contracts/core/libraries/TickMath.sol\":2563:2583  absTick & 0x400 != 0 */\n      iszero\n        /* \"contracts/core/libraries/TickMath.sol\":2559:2644  if (absTick & 0x400 != 0) ratio = (ratio * 0xf3392b0822b70005940c7a398e4b70f3) >> 128 */\n      tag_90\n      jumpi\n        /* \"contracts/core/libraries/TickMath.sol\":2602:2636  0xf3392b0822b70005940c7a398e4b70f3 */\n      0xf3392b0822b70005940c7a398e4b70f3\n        /* \"contracts/core/libraries/TickMath.sol\":2594:2636  ratio * 0xf3392b0822b70005940c7a398e4b70f3 */\n      mul\n        /* \"contracts/core/libraries/TickMath.sol\":2641:2644  128 */\n      0x80\n        /* \"contracts/core/libraries/TickMath.sol\":2593:2644  (ratio * 0xf3392b0822b70005940c7a398e4b70f3) >> 128 */\n      shr\n        /* \"contracts/core/libraries/TickMath.sol\":2559:2644  if (absTick & 0x400 != 0) ratio = (ratio * 0xf3392b0822b70005940c7a398e4b70f3) >> 128 */\n    tag_90:\n        /* \"contracts/core/libraries/TickMath.sol\":2668:2673  0x800 */\n      0x0800\n        /* \"contracts/core/libraries/TickMath.sol\":2658:2673  absTick & 0x800 */\n      dup3\n      and\n        /* \"contracts/core/libraries/TickMath.sol\":2658:2678  absTick & 0x800 != 0 */\n      iszero\n        /* \"contracts/core/libraries/TickMath.sol\":2654:2739  if (absTick & 0x800 != 0) ratio = (ratio * 0xe7159475a2c29b7443b29c7fa6e889d9) >> 128 */\n      tag_91\n      jumpi\n        /* \"contracts/core/libraries/TickMath.sol\":2697:2731  0xe7159475a2c29b7443b29c7fa6e889d9 */\n      0xe7159475a2c29b7443b29c7fa6e889d9\n        /* \"contracts/core/libraries/TickMath.sol\":2689:2731  ratio * 0xe7159475a2c29b7443b29c7fa6e889d9 */\n      mul\n        /* \"contracts/core/libraries/TickMath.sol\":2736:2739  128 */\n      0x80\n        /* \"contracts/core/libraries/TickMath.sol\":2688:2739  (ratio * 0xe7159475a2c29b7443b29c7fa6e889d9) >> 128 */\n      shr\n        /* \"contracts/core/libraries/TickMath.sol\":2654:2739  if (absTick & 0x800 != 0) ratio = (ratio * 0xe7159475a2c29b7443b29c7fa6e889d9) >> 128 */\n    tag_91:\n        /* \"contracts/core/libraries/TickMath.sol\":2763:2769  0x1000 */\n      0x1000\n        /* \"contracts/core/libraries/TickMath.sol\":2753:2769  absTick & 0x1000 */\n      dup3\n      and\n        /* \"contracts/core/libraries/TickMath.sol\":2753:2774  absTick & 0x1000 != 0 */\n      iszero\n        /* \"contracts/core/libraries/TickMath.sol\":2749:2835  if (absTick & 0x1000 != 0) ratio = (ratio * 0xd097f3bdfd2022b8845ad8f792aa5825) >> 128 */\n      tag_92\n      jumpi\n        /* \"contracts/core/libraries/TickMath.sol\":2793:2827  0xd097f3bdfd2022b8845ad8f792aa5825 */\n      0xd097f3bdfd2022b8845ad8f792aa5825\n        /* \"contracts/core/libraries/TickMath.sol\":2785:2827  ratio * 0xd097f3bdfd2022b8845ad8f792aa5825 */\n      mul\n        /* \"contracts/core/libraries/TickMath.sol\":2832:2835  128 */\n      0x80\n        /* \"contracts/core/libraries/TickMath.sol\":2784:2835  (ratio * 0xd097f3bdfd2022b8845ad8f792aa5825) >> 128 */\n      shr\n        /* \"contracts/core/libraries/TickMath.sol\":2749:2835  if (absTick & 0x1000 != 0) ratio = (ratio * 0xd097f3bdfd2022b8845ad8f792aa5825) >> 128 */\n    tag_92:\n        /* \"contracts/core/libraries/TickMath.sol\":2859:2865  0x2000 */\n      0x2000\n        /* \"contracts/core/libraries/TickMath.sol\":2849:2865  absTick & 0x2000 */\n      dup3\n      and\n        /* \"contracts/core/libraries/TickMath.sol\":2849:2870  absTick & 0x2000 != 0 */\n      iszero\n        /* \"contracts/core/libraries/TickMath.sol\":2845:2931  if (absTick & 0x2000 != 0) ratio = (ratio * 0xa9f746462d870fdf8a65dc1f90e061e5) >> 128 */\n      tag_93\n      jumpi\n        /* \"contracts/core/libraries/TickMath.sol\":2889:2923  0xa9f746462d870fdf8a65dc1f90e061e5 */\n      0xa9f746462d870fdf8a65dc1f90e061e5\n        /* \"contracts/core/libraries/TickMath.sol\":2881:2923  ratio * 0xa9f746462d870fdf8a65dc1f90e061e5 */\n      mul\n        /* \"contracts/core/libraries/TickMath.sol\":2928:2931  128 */\n      0x80\n        /* \"contracts/core/libraries/TickMath.sol\":2880:2931  (ratio * 0xa9f746462d870fdf8a65dc1f90e061e5) >> 128 */\n      shr\n        /* \"contracts/core/libraries/TickMath.sol\":2845:2931  if (absTick & 0x2000 != 0) ratio = (ratio * 0xa9f746462d870fdf8a65dc1f90e061e5) >> 128 */\n    tag_93:\n        /* \"contracts/core/libraries/TickMath.sol\":2955:2961  0x4000 */\n      0x4000\n        /* \"contracts/core/libraries/TickMath.sol\":2945:2961  absTick & 0x4000 */\n      dup3\n      and\n        /* \"contracts/core/libraries/TickMath.sol\":2945:2966  absTick & 0x4000 != 0 */\n      iszero\n        /* \"contracts/core/libraries/TickMath.sol\":2941:3027  if (absTick & 0x4000 != 0) ratio = (ratio * 0x70d869a156d2a1b890bb3df62baf32f7) >> 128 */\n      tag_94\n      jumpi\n        /* \"contracts/core/libraries/TickMath.sol\":2985:3019  0x70d869a156d2a1b890bb3df62baf32f7 */\n      0x70d869a156d2a1b890bb3df62baf32f7\n        /* \"contracts/core/libraries/TickMath.sol\":2977:3019  ratio * 0x70d869a156d2a1b890bb3df62baf32f7 */\n      mul\n        /* \"contracts/core/libraries/TickMath.sol\":3024:3027  128 */\n      0x80\n        /* \"contracts/core/libraries/TickMath.sol\":2976:3027  (ratio * 0x70d869a156d2a1b890bb3df62baf32f7) >> 128 */\n      shr\n        /* \"contracts/core/libraries/TickMath.sol\":2941:3027  if (absTick & 0x4000 != 0) ratio = (ratio * 0x70d869a156d2a1b890bb3df62baf32f7) >> 128 */\n    tag_94:\n        /* \"contracts/core/libraries/TickMath.sol\":3051:3057  0x8000 */\n      0x8000\n        /* \"contracts/core/libraries/TickMath.sol\":3041:3057  absTick & 0x8000 */\n      dup3\n      and\n        /* \"contracts/core/libraries/TickMath.sol\":3041:3062  absTick & 0x8000 != 0 */\n      iszero\n        /* \"contracts/core/libraries/TickMath.sol\":3037:3123  if (absTick & 0x8000 != 0) ratio = (ratio * 0x31be135f97d08fd981231505542fcfa6) >> 128 */\n      tag_95\n      jumpi\n        /* \"contracts/core/libraries/TickMath.sol\":3081:3115  0x31be135f97d08fd981231505542fcfa6 */\n      0x31be135f97d08fd981231505542fcfa6\n        /* \"contracts/core/libraries/TickMath.sol\":3073:3115  ratio * 0x31be135f97d08fd981231505542fcfa6 */\n      mul\n        /* \"contracts/core/libraries/TickMath.sol\":3120:3123  128 */\n      0x80\n        /* \"contracts/core/libraries/TickMath.sol\":3072:3123  (ratio * 0x31be135f97d08fd981231505542fcfa6) >> 128 */\n      shr\n        /* \"contracts/core/libraries/TickMath.sol\":3037:3123  if (absTick & 0x8000 != 0) ratio = (ratio * 0x31be135f97d08fd981231505542fcfa6) >> 128 */\n    tag_95:\n        /* \"contracts/core/libraries/TickMath.sol\":3147:3154  0x10000 */\n      0x010000\n        /* \"contracts/core/libraries/TickMath.sol\":3137:3154  absTick & 0x10000 */\n      dup3\n      and\n        /* \"contracts/core/libraries/TickMath.sol\":3137:3159  absTick & 0x10000 != 0 */\n      iszero\n        /* \"contracts/core/libraries/TickMath.sol\":3133:3219  if (absTick & 0x10000 != 0) ratio = (ratio * 0x9aa508b5b7a84e1c677de54f3e99bc9) >> 128 */\n      tag_96\n      jumpi\n        /* \"contracts/core/libraries/TickMath.sol\":3178:3211  0x9aa508b5b7a84e1c677de54f3e99bc9 */\n      0x09aa508b5b7a84e1c677de54f3e99bc9\n        /* \"contracts/core/libraries/TickMath.sol\":3170:3211  ratio * 0x9aa508b5b7a84e1c677de54f3e99bc9 */\n      mul\n        /* \"contracts/core/libraries/TickMath.sol\":3216:3219  128 */\n      0x80\n        /* \"contracts/core/libraries/TickMath.sol\":3169:3219  (ratio * 0x9aa508b5b7a84e1c677de54f3e99bc9) >> 128 */\n      shr\n        /* \"contracts/core/libraries/TickMath.sol\":3133:3219  if (absTick & 0x10000 != 0) ratio = (ratio * 0x9aa508b5b7a84e1c677de54f3e99bc9) >> 128 */\n    tag_96:\n        /* \"contracts/core/libraries/TickMath.sol\":3243:3250  0x20000 */\n      0x020000\n        /* \"contracts/core/libraries/TickMath.sol\":3233:3250  absTick & 0x20000 */\n      dup3\n      and\n        /* \"contracts/core/libraries/TickMath.sol\":3233:3255  absTick & 0x20000 != 0 */\n      iszero\n        /* \"contracts/core/libraries/TickMath.sol\":3229:3314  if (absTick & 0x20000 != 0) ratio = (ratio * 0x5d6af8dedb81196699c329225ee604) >> 128 */\n      tag_97\n      jumpi\n        /* \"contracts/core/libraries/TickMath.sol\":3274:3306  0x5d6af8dedb81196699c329225ee604 */\n      0x5d6af8dedb81196699c329225ee604\n        /* \"contracts/core/libraries/TickMath.sol\":3266:3306  ratio * 0x5d6af8dedb81196699c329225ee604 */\n      mul\n        /* \"contracts/core/libraries/TickMath.sol\":3311:3314  128 */\n      0x80\n        /* \"contracts/core/libraries/TickMath.sol\":3265:3314  (ratio * 0x5d6af8dedb81196699c329225ee604) >> 128 */\n      shr\n        /* \"contracts/core/libraries/TickMath.sol\":3229:3314  if (absTick & 0x20000 != 0) ratio = (ratio * 0x5d6af8dedb81196699c329225ee604) >> 128 */\n    tag_97:\n        /* \"contracts/core/libraries/TickMath.sol\":3338:3345  0x40000 */\n      0x040000\n        /* \"contracts/core/libraries/TickMath.sol\":3328:3345  absTick & 0x40000 */\n      dup3\n      and\n        /* \"contracts/core/libraries/TickMath.sol\":3328:3350  absTick & 0x40000 != 0 */\n      iszero\n        /* \"contracts/core/libraries/TickMath.sol\":3324:3407  if (absTick & 0x40000 != 0) ratio = (ratio * 0x2216e584f5fa1ea926041bedfe98) >> 128 */\n      tag_98\n      jumpi\n        /* \"contracts/core/libraries/TickMath.sol\":3369:3399  0x2216e584f5fa1ea926041bedfe98 */\n      0x2216e584f5fa1ea926041bedfe98\n        /* \"contracts/core/libraries/TickMath.sol\":3361:3399  ratio * 0x2216e584f5fa1ea926041bedfe98 */\n      mul\n        /* \"contracts/core/libraries/TickMath.sol\":3404:3407  128 */\n      0x80\n        /* \"contracts/core/libraries/TickMath.sol\":3360:3407  (ratio * 0x2216e584f5fa1ea926041bedfe98) >> 128 */\n      shr\n        /* \"contracts/core/libraries/TickMath.sol\":3324:3407  if (absTick & 0x40000 != 0) ratio = (ratio * 0x2216e584f5fa1ea926041bedfe98) >> 128 */\n    tag_98:\n        /* \"contracts/core/libraries/TickMath.sol\":3431:3438  0x80000 */\n      0x080000\n        /* \"contracts/core/libraries/TickMath.sol\":3421:3438  absTick & 0x80000 */\n      dup3\n      and\n        /* \"contracts/core/libraries/TickMath.sol\":3421:3443  absTick & 0x80000 != 0 */\n      iszero\n        /* \"contracts/core/libraries/TickMath.sol\":3417:3495  if (absTick & 0x80000 != 0) ratio = (ratio * 0x48a170391f7dc42444e8fa2) >> 128 */\n      tag_99\n      jumpi\n        /* \"contracts/core/libraries/TickMath.sol\":3462:3487  0x48a170391f7dc42444e8fa2 */\n      0x048a170391f7dc42444e8fa2\n        /* \"contracts/core/libraries/TickMath.sol\":3454:3487  ratio * 0x48a170391f7dc42444e8fa2 */\n      mul\n        /* \"contracts/core/libraries/TickMath.sol\":3492:3495  128 */\n      0x80\n        /* \"contracts/core/libraries/TickMath.sol\":3453:3495  (ratio * 0x48a170391f7dc42444e8fa2) >> 128 */\n      shr\n        /* \"contracts/core/libraries/TickMath.sol\":3417:3495  if (absTick & 0x80000 != 0) ratio = (ratio * 0x48a170391f7dc42444e8fa2) >> 128 */\n    tag_99:\n        /* \"contracts/core/libraries/TickMath.sol\":3517:3518  0 */\n      0x00\n        /* \"contracts/core/libraries/TickMath.sol\":3510:3514  tick */\n      dup5\n        /* \"contracts/core/libraries/TickMath.sol\":3510:3518  tick > 0 */\n      0x02\n      signextend\n      sgt\n        /* \"contracts/core/libraries/TickMath.sol\":3506:3553  if (tick > 0) ratio = type(uint256).max / ratio */\n      iszero\n      tag_100\n      jumpi\n        /* \"contracts/core/libraries/TickMath.sol\":3548:3553  ratio */\n      dup1\n      not(0x00)\n        /* \"contracts/core/libraries/TickMath.sol\":3528:3553  type(uint256).max / ratio */\n      dup2\n      tag_101\n      jumpi\n      invalid\n    tag_101:\n      div\n        /* \"contracts/core/libraries/TickMath.sol\":3520:3553  ratio = type(uint256).max / ratio */\n      swap1\n      pop\n        /* \"contracts/core/libraries/TickMath.sol\":3506:3553  if (tick > 0) ratio = type(uint256).max / ratio */\n    tag_100:\n        /* \"contracts/core/libraries/TickMath.sol\":3912:3919  1 << 32 */\n      0x0100000000\n        /* \"contracts/core/libraries/TickMath.sol\":3903:3908  ratio */\n      dup2\n        /* \"contracts/core/libraries/TickMath.sol\":3903:3920  ratio % (1 << 32) */\n      mod\n        /* \"contracts/core/libraries/TickMath.sol\":3903:3925  ratio % (1 << 32) == 0 */\n      iszero\n        /* \"contracts/core/libraries/TickMath.sol\":3903:3933  ratio % (1 << 32) == 0 ? 0 : 1 */\n      tag_103\n      jumpi\n        /* \"contracts/core/libraries/TickMath.sol\":3932:3933  1 */\n      0x01\n        /* \"contracts/core/libraries/TickMath.sol\":3903:3933  ratio % (1 << 32) == 0 ? 0 : 1 */\n      jump(tag_104)\n    tag_103:\n        /* \"contracts/core/libraries/TickMath.sol\":3928:3929  0 */\n      0x00\n        /* \"contracts/core/libraries/TickMath.sol\":3903:3933  ratio % (1 << 32) == 0 ? 0 : 1 */\n    tag_104:\n        /* \"contracts/core/libraries/TickMath.sol\":3886:3934  (ratio >> 32) + (ratio % (1 << 32) == 0 ? 0 : 1) */\n      0xff\n      and\n        /* \"contracts/core/libraries/TickMath.sol\":3896:3898  32 */\n      0x20\n        /* \"contracts/core/libraries/TickMath.sol\":3887:3892  ratio */\n      dup3\n        /* \"contracts/core/libraries/TickMath.sol\":3887:3898  ratio >> 32 */\n      swap1\n      shr\n        /* \"contracts/core/libraries/TickMath.sol\":3886:3934  (ratio >> 32) + (ratio % (1 << 32) == 0 ? 0 : 1) */\n      add\n        /* \"contracts/core/libraries/TickMath.sol\":3863:3935  sqrtPriceX96 = uint160((ratio >> 32) + (ratio % (1 << 32) == 0 ? 0 : 1)) */\n      swap3\n      pop\n        /* \"contracts/core/libraries/TickMath.sol\":1362:3942  function getSqrtRatioAtTick(int24 tick) internal pure returns (uint160 sqrtPriceX96) {... */\n      pop\n      pop\n      swap2\n      swap1\n      pop\n      jump\t// out\n        /* \"contracts/core/libraries/FullMath.sol\":749:4495  function mulDiv(uint256 a, uint256 b, uint256 denominator) internal pure returns (uint256 result) {... */\n    tag_34:\n        /* \"contracts/core/libraries/FullMath.sol\":831:845  uint256 result */\n      0x00\n      dup1\n      dup1\n      not(0x00)\n        /* \"contracts/core/libraries/FullMath.sol\":1338:1339  b */\n      dup6\n        /* \"contracts/core/libraries/FullMath.sol\":1335:1336  a */\n      dup8\n        /* \"contracts/core/libraries/FullMath.sol\":1328:1348  mulmod(a, b, not(0)) */\n      mulmod\n        /* \"contracts/core/libraries/FullMath.sol\":1370:1379  mul(a, b) */\n      dup7\n      dup7\n      mul\n      swap3\n      pop\n        /* \"contracts/core/libraries/FullMath.sol\":1421:1434  lt(mm, prod0) */\n      dup3\n      dup2\n      lt\n        /* \"contracts/core/libraries/FullMath.sol\":1405:1419  sub(mm, prod0) */\n      swap1\n      dup4\n      swap1\n      sub\n        /* \"contracts/core/libraries/FullMath.sol\":1401:1435  sub(sub(mm, prod0), lt(mm, prod0)) */\n      sub\n      swap1\n      pop\n        /* \"contracts/core/libraries/FullMath.sol\":1517:1527  prod1 == 0 */\n      dup1\n        /* \"contracts/core/libraries/FullMath.sol\":1513:1692  if (prod1 == 0) {... */\n      tag_106\n      jumpi\n        /* \"contracts/core/libraries/FullMath.sol\":1565:1566  0 */\n      0x00\n        /* \"contracts/core/libraries/FullMath.sol\":1551:1562  denominator */\n      dup5\n        /* \"contracts/core/libraries/FullMath.sol\":1551:1566  denominator > 0 */\n      gt\n        /* \"contracts/core/libraries/FullMath.sol\":1543:1567  require(denominator > 0) */\n      tag_107\n      jumpi\n      0x00\n      dup1\n      revert\n    tag_107:\n      pop\n        /* \"contracts/core/libraries/FullMath.sol\":1618:1641  div(prod0, denominator) */\n      dup3\n      swap1\n      div\n      swap1\n      pop\n        /* \"contracts/core/libraries/FullMath.sol\":1668:1681  return result */\n      jump(tag_105)\n        /* \"contracts/core/libraries/FullMath.sol\":1513:1692  if (prod1 == 0) {... */\n    tag_106:\n        /* \"contracts/core/libraries/FullMath.sol\":1819:1824  prod1 */\n      dup1\n        /* \"contracts/core/libraries/FullMath.sol\":1805:1816  denominator */\n      dup5\n        /* \"contracts/core/libraries/FullMath.sol\":1805:1824  denominator > prod1 */\n      gt\n        /* \"contracts/core/libraries/FullMath.sol\":1797:1825  require(denominator > prod1) */\n      tag_108\n      jumpi\n      0x00\n      dup1\n      revert\n    tag_108:\n        /* \"contracts/core/libraries/FullMath.sol\":2102:2119  uint256 remainder */\n      0x00\n        /* \"contracts/core/libraries/FullMath.sol\":2178:2189  denominator */\n      dup5\n        /* \"contracts/core/libraries/FullMath.sol\":2175:2176  b */\n      dup7\n        /* \"contracts/core/libraries/FullMath.sol\":2172:2173  a */\n      dup9\n        /* \"contracts/core/libraries/FullMath.sol\":2165:2190  mulmod(a, b, denominator) */\n      mulmod\n        /* \"contracts/core/libraries/FullMath.sol\":2530:2542  uint256 twos */\n      0x00\n        /* \"contracts/core/libraries/FullMath.sol\":2545:2557  -denominator */\n      dup7\n      dup2\n      sub\n        /* \"contracts/core/libraries/FullMath.sol\":2545:2571  -denominator & denominator */\n      dup8\n      and\n        /* \"contracts/core/libraries/FullMath.sol\":2665:2687  div(denominator, twos) */\n      swap7\n      dup8\n      swap1\n      div\n      swap7\n        /* \"contracts/core/libraries/FullMath.sol\":3468:3469  2 */\n      0x02\n        /* \"contracts/core/libraries/FullMath.sol\":3449:3450  3 */\n      0x03\n        /* \"contracts/core/libraries/FullMath.sol\":3449:3464  3 * denominator */\n      dup10\n      mul\n        /* \"contracts/core/libraries/FullMath.sol\":3448:3469  (3 * denominator) ^ 2 */\n      dup2\n      xor\n        /* \"contracts/core/libraries/FullMath.sol\":3695:3712  denominator * inv */\n      dup1\n      dup11\n      mul\n        /* \"contracts/core/libraries/FullMath.sol\":3691:3712  2 - denominator * inv */\n      dup3\n      sub\n        /* \"contracts/core/libraries/FullMath.sol\":3684:3712  inv *= 2 - denominator * inv */\n      mul\n        /* \"contracts/core/libraries/FullMath.sol\":3753:3770  denominator * inv */\n      dup1\n      dup11\n      mul\n        /* \"contracts/core/libraries/FullMath.sol\":3749:3770  2 - denominator * inv */\n      dup3\n      sub\n        /* \"contracts/core/libraries/FullMath.sol\":3742:3770  inv *= 2 - denominator * inv */\n      mul\n        /* \"contracts/core/libraries/FullMath.sol\":3812:3829  denominator * inv */\n      dup1\n      dup11\n      mul\n        /* \"contracts/core/libraries/FullMath.sol\":3808:3829  2 - denominator * inv */\n      dup3\n      sub\n        /* \"contracts/core/libraries/FullMath.sol\":3801:3829  inv *= 2 - denominator * inv */\n      mul\n        /* \"contracts/core/libraries/FullMath.sol\":3871:3888  denominator * inv */\n      dup1\n      dup11\n      mul\n        /* \"contracts/core/libraries/FullMath.sol\":3867:3888  2 - denominator * inv */\n      dup3\n      sub\n        /* \"contracts/core/libraries/FullMath.sol\":3860:3888  inv *= 2 - denominator * inv */\n      mul\n        /* \"contracts/core/libraries/FullMath.sol\":3930:3947  denominator * inv */\n      dup1\n      dup11\n      mul\n        /* \"contracts/core/libraries/FullMath.sol\":3926:3947  2 - denominator * inv */\n      dup3\n      sub\n        /* \"contracts/core/libraries/FullMath.sol\":3919:3947  inv *= 2 - denominator * inv */\n      mul\n        /* \"contracts/core/libraries/FullMath.sol\":3990:4007  denominator * inv */\n      dup1\n      dup11\n      mul\n        /* \"contracts/core/libraries/FullMath.sol\":3986:4007  2 - denominator * inv */\n      swap1\n      swap2\n      sub\n        /* \"contracts/core/libraries/FullMath.sol\":3979:4007  inv *= 2 - denominator * inv */\n      mul\n        /* \"contracts/core/libraries/FullMath.sol\":3037:3049  sub(0, twos) */\n      swap2\n      dup2\n      swap1\n      sub\n        /* \"contracts/core/libraries/FullMath.sol\":3033:3056  div(sub(0, twos), twos) */\n      dup2\n      swap1\n      div\n        /* \"contracts/core/libraries/FullMath.sol\":3058:3059  1 */\n      0x01\n        /* \"contracts/core/libraries/FullMath.sol\":3029:3060  add(div(sub(0, twos), twos), 1) */\n      add\n        /* \"contracts/core/libraries/FullMath.sol\":2307:2327  gt(remainder, prod0) */\n      dup7\n      dup5\n      gt\n        /* \"contracts/core/libraries/FullMath.sol\":2296:2328  sub(prod1, gt(remainder, prod0)) */\n      swap1\n      swap6\n      sub\n        /* \"contracts/core/libraries/FullMath.sol\":3088:3100  prod1 * twos */\n      swap5\n      swap1\n      swap5\n      mul\n        /* \"contracts/core/libraries/FullMath.sol\":2350:2371  sub(prod0, remainder) */\n      swap2\n      swap1\n      swap5\n      sub\n        /* \"contracts/core/libraries/FullMath.sol\":2793:2809  div(prod0, twos) */\n      swap3\n      swap1\n      swap3\n      div\n        /* \"contracts/core/libraries/FullMath.sol\":3079:3100  prod0 |= prod1 * twos */\n      swap2\n      swap1\n      swap2\n      or\n        /* \"contracts/core/libraries/FullMath.sol\":4454:4465  prod0 * inv */\n      swap2\n      swap1\n      swap2\n      mul\n      swap2\n      pop\n      pop\n        /* \"contracts/core/libraries/FullMath.sol\":749:4495  function mulDiv(uint256 a, uint256 b, uint256 denominator) internal pure returns (uint256 result) {... */\n    tag_105:\n      swap4\n      swap3\n      pop\n      pop\n      pop\n      jump\t// out\n        /* \"contracts/core/VeloOracle.sol\":5375:5829  function getAmount0ForLiquidity(uint160 sqrtRatioAX96, uint160 sqrtRatioBX96, uint128 liquidity)\r... */\n    tag_39:\n        /* \"contracts/core/VeloOracle.sol\":5522:5537  uint256 amount0 */\n      0x00\n        /* \"contracts/core/VeloOracle.sol\":5575:5588  sqrtRatioBX96 */\n      dup3\n      sub(shl(0xa0, 0x01), 0x01)\n        /* \"contracts/core/VeloOracle.sol\":5559:5588  sqrtRatioAX96 > sqrtRatioBX96 */\n      and\n        /* \"contracts/core/VeloOracle.sol\":5559:5572  sqrtRatioAX96 */\n      dup5\n      sub(shl(0xa0, 0x01), 0x01)\n        /* \"contracts/core/VeloOracle.sol\":5559:5588  sqrtRatioAX96 > sqrtRatioBX96 */\n      and\n      gt\n        /* \"contracts/core/VeloOracle.sol\":5555:5653  if (sqrtRatioAX96 > sqrtRatioBX96) (sqrtRatioAX96, sqrtRatioBX96) = (sqrtRatioBX96, sqrtRatioAX96) */\n      iszero\n      tag_110\n      jumpi\n        /* \"contracts/core/VeloOracle.sol\":5624:5637  sqrtRatioBX96 */\n      swap2\n      swap3\n        /* \"contracts/core/VeloOracle.sol\":5639:5652  sqrtRatioAX96 */\n      swap2\n        /* \"contracts/core/VeloOracle.sol\":5555:5653  if (sqrtRatioAX96 > sqrtRatioBX96) (sqrtRatioAX96, sqrtRatioBX96) = (sqrtRatioBX96, sqrtRatioAX96) */\n    tag_110:\n        /* \"contracts/core/VeloOracle.sol\":5808:5821  sqrtRatioAX96 */\n      dup4\n      sub(shl(0xa0, 0x01), 0x01)\n        /* \"contracts/core/VeloOracle.sol\":5673:5821  FullMath.mulDiv(\r... */\n      and\n        /* \"contracts/core/VeloOracle.sol\":5673:5805  FullMath.mulDiv(\r... */\n      tag_111\n        /* \"contracts/core/libraries/FixedPoint96.sol\":309:311  96 */\n      0x60\n        /* \"contracts/core/VeloOracle.sol\":5703:5748  uint256(liquidity) << FixedPoint96.RESOLUTION */\n      0xff\n      and\n        /* \"contracts/core/VeloOracle.sol\":5711:5720  liquidity */\n      dup5\n      sub(shl(0x80, 0x01), 0x01)\n        /* \"contracts/core/VeloOracle.sol\":5703:5721  uint256(liquidity) */\n      and\n        /* \"contracts/core/VeloOracle.sol\":5703:5748  uint256(liquidity) << FixedPoint96.RESOLUTION */\n      swap1\n      shl\n        /* \"contracts/core/VeloOracle.sol\":5766:5779  sqrtRatioAX96 */\n      dup7\n        /* \"contracts/core/VeloOracle.sol\":5750:5763  sqrtRatioBX96 */\n      dup7\n        /* \"contracts/core/VeloOracle.sol\":5750:5779  sqrtRatioBX96 - sqrtRatioAX96 */\n      sub\n      sub(shl(0xa0, 0x01), 0x01)\n        /* \"contracts/core/VeloOracle.sol\":5673:5805  FullMath.mulDiv(\r... */\n      and\n        /* \"contracts/core/VeloOracle.sol\":5781:5794  sqrtRatioBX96 */\n      dup7\n      sub(shl(0xa0, 0x01), 0x01)\n        /* \"contracts/core/VeloOracle.sol\":5673:5805  FullMath.mulDiv(\r... */\n      and\n        /* \"contracts/core/VeloOracle.sol\":5673:5688  FullMath.mulDiv */\n      tag_34\n        /* \"contracts/core/VeloOracle.sol\":5673:5805  FullMath.mulDiv(\r... */\n      jump\t// in\n    tag_111:\n        /* \"contracts/core/VeloOracle.sol\":5673:5821  FullMath.mulDiv(\r... */\n      dup2\n      tag_112\n      jumpi\n      invalid\n    tag_112:\n      div\n      swap5\n        /* \"contracts/core/VeloOracle.sol\":5375:5829  function getAmount0ForLiquidity(uint160 sqrtRatioAX96, uint160 sqrtRatioBX96, uint128 liquidity)\r... */\n      swap4\n      pop\n      pop\n      pop\n      pop\n      jump\t// out\n        /* \"contracts/core/VeloOracle.sol\":6194:6575  function getAmount1ForLiquidity(uint160 sqrtRatioAX96, uint160 sqrtRatioBX96, uint128 liquidity)\r... */\n    tag_41:\n        /* \"contracts/core/VeloOracle.sol\":6341:6356  uint256 amount1 */\n      0x00\n        /* \"contracts/core/VeloOracle.sol\":6394:6407  sqrtRatioBX96 */\n      dup3\n      sub(shl(0xa0, 0x01), 0x01)\n        /* \"contracts/core/VeloOracle.sol\":6378:6407  sqrtRatioAX96 > sqrtRatioBX96 */\n      and\n        /* \"contracts/core/VeloOracle.sol\":6378:6391  sqrtRatioAX96 */\n      dup5\n      sub(shl(0xa0, 0x01), 0x01)\n        /* \"contracts/core/VeloOracle.sol\":6378:6407  sqrtRatioAX96 > sqrtRatioBX96 */\n      and\n      gt\n        /* \"contracts/core/VeloOracle.sol\":6374:6472  if (sqrtRatioAX96 > sqrtRatioBX96) (sqrtRatioAX96, sqrtRatioBX96) = (sqrtRatioBX96, sqrtRatioAX96) */\n      iszero\n      tag_114\n      jumpi\n        /* \"contracts/core/VeloOracle.sol\":6443:6456  sqrtRatioBX96 */\n      swap2\n      swap3\n        /* \"contracts/core/VeloOracle.sol\":6458:6471  sqrtRatioAX96 */\n      swap2\n        /* \"contracts/core/VeloOracle.sol\":6374:6472  if (sqrtRatioAX96 > sqrtRatioBX96) (sqrtRatioAX96, sqrtRatioBX96) = (sqrtRatioBX96, sqrtRatioAX96) */\n    tag_114:\n        /* \"contracts/core/VeloOracle.sol\":6492:6567  FullMath.mulDiv(liquidity, sqrtRatioBX96 - sqrtRatioAX96, FixedPoint96.Q96) */\n      tag_115\n        /* \"contracts/core/VeloOracle.sol\":6508:6517  liquidity */\n      dup3\n      sub(shl(0x80, 0x01), 0x01)\n        /* \"contracts/core/VeloOracle.sol\":6492:6567  FullMath.mulDiv(liquidity, sqrtRatioBX96 - sqrtRatioAX96, FixedPoint96.Q96) */\n      and\n        /* \"contracts/core/VeloOracle.sol\":6535:6548  sqrtRatioAX96 */\n      dup6\n        /* \"contracts/core/VeloOracle.sol\":6519:6532  sqrtRatioBX96 */\n      dup6\n        /* \"contracts/core/VeloOracle.sol\":6519:6548  sqrtRatioBX96 - sqrtRatioAX96 */\n      sub\n      sub(shl(0xa0, 0x01), 0x01)\n        /* \"contracts/core/VeloOracle.sol\":6492:6567  FullMath.mulDiv(liquidity, sqrtRatioBX96 - sqrtRatioAX96, FixedPoint96.Q96) */\n      and\n      shl(0x60, 0x01)\n        /* \"contracts/core/VeloOracle.sol\":6492:6507  FullMath.mulDiv */\n      tag_34\n        /* \"contracts/core/VeloOracle.sol\":6492:6567  FullMath.mulDiv(liquidity, sqrtRatioBX96 - sqrtRatioAX96, FixedPoint96.Q96) */\n      jump\t// in\n    tag_115:\n        /* \"contracts/core/VeloOracle.sol\":6485:6567  return FullMath.mulDiv(liquidity, sqrtRatioBX96 - sqrtRatioAX96, FixedPoint96.Q96) */\n      swap5\n        /* \"contracts/core/VeloOracle.sol\":6194:6575  function getAmount1ForLiquidity(uint160 sqrtRatioAX96, uint160 sqrtRatioBX96, uint128 liquidity)\r... */\n      swap4\n      pop\n      pop\n      pop\n      pop\n      jump\t// out\n\n    auxdata: 0xa264697066735822122074143f30ba000b66b3c3d3f2249c228fa13daddfd243ce2a866005290c3377ad64736f6c63430007060033\n}\n",
				"bytecode": {
					"linkReferences": {},
					"object": "608060405234801561001057600080fd5b50610b84806100206000396000f3fe608060405234801561001057600080fd5b506004361061004c5760003560e01c806311ea544114610051578063802036f514610075578063941e0eb8146100be578063f29d004014610103575b600080fd5b61005961013b565b604080516001600160a01b039092168252519081900360200190f35b61009b6004803603602081101561008b57600080fd5b50356001600160a01b031661014a565b604051808360020b81526020018260020b81526020019250505060405180910390f35b6100ea600480360360408110156100d457600080fd5b506001600160a01b03813516906020013561024d565b6040805192835260208301919091528051918290030190f35b6101296004803603602081101561011957600080fd5b50356001600160a01b0316610328565b60408051918252519081900360200190f35b6000546001600160a01b031681565b6000806000836001600160a01b031663d0c93a7c6040518163ffffffff1660e01b815260040160206040518083038186803b15801561018857600080fd5b505afa15801561019c573d6000803e3d6000fd5b505050506040513d60208110156101b257600080fd5b505160408051633850c7bd60e01b815290519192506000916001600160a01b03871691633850c7bd9160048083019260c0929190829003018186803b1580156101fa57600080fd5b505afa15801561020e573d6000803e3d6000fd5b505050506040513d60c081101561022457600080fd5b5060200151905081600281810b9083900b8161023c57fe5b050282810396920194509092505050565b60008060008061025c8661014a565b91509150600061026b836106b8565b90506000610278836106b8565b9050600061029c670de0b6b3a7640000600160601b846001600160a01b03166109ea565b6102bc670de0b6b3a7640000600160601b866001600160a01b03166109ea565b0390506001600160a01b038084169083160360006102e48264e8d4a51000600160601b6109ea565b8301905060006102fd8b670de0b6b3a7640000846109ea565b905061030a868683610a9a565b9950610317868683610b03565b985050505050505050509250929050565b60006001600160a01b03821661037c576040805162461bcd60e51b8152602060048201526014602482015273496e76616c696420706f6f6c206164647265737360601b604482015290519081900360640190fd5b6000826001600160a01b0316630dfe16816040518163ffffffff1660e01b815260040160206040518083038186803b1580156103b757600080fd5b505afa1580156103cb573d6000803e3d6000fd5b505050506040513d60208110156103e157600080fd5b50516040805163d21220a760e01b815290519192506000916001600160a01b0386169163d21220a7916004808301926020929190829003018186803b15801561042957600080fd5b505afa15801561043d573d6000803e3d6000fd5b505050506040513d602081101561045357600080fd5b505190506001600160a01b0382161580159061047757506001600160a01b03811615155b6104b9576040805162461bcd60e51b815260206004820152600e60248201526d496e76616c696420746f6b656e7360901b604482015290519081900360640190fd5b6000816001600160a01b0316836001600160a01b03161090506000836001600160a01b031663313ce5676040518163ffffffff1660e01b815260040160206040518083038186803b15801561050d57600080fd5b505afa158015610521573d6000803e3d6000fd5b505050506040513d602081101561053757600080fd5b50516040805163313ce56760e01b815290519192506000916001600160a01b0386169163313ce567916004808301926020929190829003018186803b15801561057f57600080fd5b505afa158015610593573d6000803e3d6000fd5b505050506040513d60208110156105a957600080fd5b505160408051633850c7bd60e01b815290519192506000916001600160a01b038a1691633850c7bd9160048083019260c0929190829003018186803b1580156105f157600080fd5b505afa158015610605573d6000803e3d6000fd5b505050506040513d60c081101561061b57600080fd5b50602001519050600061062d826106b8565b90506001600160a01b038116600061064d8280026001600160c01b6109ea565b905086156106715780995061066a8a8760ff16600a0a60016109ea565b99506106aa565b60008111610680576000610693565b610693670de0b6b3a764000080836109ea565b99506106a78a8660ff16600a0a60016109ea565b99505b505050505050505050919050565b60008060008360020b126106cf578260020b6106d7565b8260020b6000035b9050620d89e8811115610715576040805162461bcd60e51b81526020600482015260016024820152601560fa1b604482015290519081900360640190fd5b60006001821661072957600160801b61073b565b6ffffcb933bd6fad37aa2d162d1a5940015b70ffffffffffffffffffffffffffffffffff169050600282161561076f576ffff97272373d413259a46990580e213a0260801c5b600482161561078e576ffff2e50f5f656932ef12357cf3c7fdcc0260801c5b60088216156107ad576fffe5caca7e10e4e61c3624eaa0941cd00260801c5b60108216156107cc576fffcb9843d60f6159c9db58835c9266440260801c5b60208216156107eb576fff973b41fa98c081472e6896dfb254c00260801c5b604082161561080a576fff2ea16466c96a3843ec78b326b528610260801c5b6080821615610829576ffe5dee046a99a2a811c461f1969c30530260801c5b610100821615610849576ffcbe86c7900a88aedcffc83b479aa3a40260801c5b610200821615610869576ff987a7253ac413176f2b074cf7815e540260801c5b610400821615610889576ff3392b0822b70005940c7a398e4b70f30260801c5b6108008216156108a9576fe7159475a2c29b7443b29c7fa6e889d90260801c5b6110008216156108c9576fd097f3bdfd2022b8845ad8f792aa58250260801c5b6120008216156108e9576fa9f746462d870fdf8a65dc1f90e061e50260801c5b614000821615610909576f70d869a156d2a1b890bb3df62baf32f70260801c5b618000821615610929576f31be135f97d08fd981231505542fcfa60260801c5b6201000082161561094a576f09aa508b5b7a84e1c677de54f3e99bc90260801c5b6202000082161561096a576e5d6af8dedb81196699c329225ee6040260801c5b62040000821615610989576d2216e584f5fa1ea926041bedfe980260801c5b620800008216156109a6576b048a170391f7dc42444e8fa20260801c5b60008460020b13156109c15780600019816109bd57fe5b0490505b6401000000008106156109d55760016109d8565b60005b60ff16602082901c0192505050919050565b6000808060001985870986860292508281109083900303905080610a205760008411610a1557600080fd5b508290049050610a93565b808411610a2c57600080fd5b6000848688096000868103871696879004966002600389028118808a02820302808a02820302808a02820302808a02820302808a02820302808a02909103029181900381900460010186841190950394909402919094039290920491909117919091029150505b9392505050565b6000826001600160a01b0316846001600160a01b03161115610aba579192915b836001600160a01b0316610af3606060ff16846001600160801b0316901b8686036001600160a01b0316866001600160a01b03166109ea565b81610afa57fe5b04949350505050565b6000826001600160a01b0316846001600160a01b03161115610b23579192915b610b46826001600160801b03168585036001600160a01b0316600160601b6109ea565b94935050505056fea264697066735822122074143f30ba000b66b3c3d3f2249c228fa13daddfd243ce2a866005290c3377ad64736f6c63430007060033",
					"opcodes": "PUSH1 0x80 PUSH1 0x40 MSTORE CALLVALUE DUP1 ISZERO PUSH2 0x10 JUMPI PUSH1 0x0 DUP1 REVERT JUMPDEST POP PUSH2 0xB84 DUP1 PUSH2 0x20 PUSH1 0x0 CODECOPY PUSH1 0x0 RETURN INVALID PUSH1 0x80 PUSH1 0x40 MSTORE CALLVALUE DUP1 ISZERO PUSH2 0x10 JUMPI PUSH1 0x0 DUP1 REVERT JUMPDEST POP PUSH1 0x4 CALLDATASIZE LT PUSH2 0x4C JUMPI PUSH1 0x0 CALLDATALOAD PUSH1 0xE0 SHR DUP1 PUSH4 0x11EA5441 EQ PUSH2 0x51 JUMPI DUP1 PUSH4 0x802036F5 EQ PUSH2 0x75 JUMPI DUP1 PUSH4 0x941E0EB8 EQ PUSH2 0xBE JUMPI DUP1 PUSH4 0xF29D0040 EQ PUSH2 0x103 JUMPI JUMPDEST PUSH1 0x0 DUP1 REVERT JUMPDEST PUSH2 0x59 PUSH2 0x13B JUMP JUMPDEST PUSH1 0x40 DUP1 MLOAD PUSH1 0x1 PUSH1 0x1 PUSH1 0xA0 SHL SUB SWAP1 SWAP3 AND DUP3 MSTORE MLOAD SWAP1 DUP2 SWAP1 SUB PUSH1 0x20 ADD SWAP1 RETURN JUMPDEST PUSH2 0x9B PUSH1 0x4 DUP1 CALLDATASIZE SUB PUSH1 0x20 DUP2 LT ISZERO PUSH2 0x8B JUMPI PUSH1 0x0 DUP1 REVERT JUMPDEST POP CALLDATALOAD PUSH1 0x1 PUSH1 0x1 PUSH1 0xA0 SHL SUB AND PUSH2 0x14A JUMP JUMPDEST PUSH1 0x40 MLOAD DUP1 DUP4 PUSH1 0x2 SIGNEXTEND DUP2 MSTORE PUSH1 0x20 ADD DUP3 PUSH1 0x2 SIGNEXTEND DUP2 MSTORE PUSH1 0x20 ADD SWAP3 POP POP POP PUSH1 0x40 MLOAD DUP1 SWAP2 SUB SWAP1 RETURN JUMPDEST PUSH2 0xEA PUSH1 0x4 DUP1 CALLDATASIZE SUB PUSH1 0x40 DUP2 LT ISZERO PUSH2 0xD4 JUMPI PUSH1 0x0 DUP1 REVERT JUMPDEST POP PUSH1 0x1 PUSH1 0x1 PUSH1 0xA0 SHL SUB DUP2 CALLDATALOAD AND SWAP1 PUSH1 0x20 ADD CALLDATALOAD PUSH2 0x24D JUMP JUMPDEST PUSH1 0x40 DUP1 MLOAD SWAP3 DUP4 MSTORE PUSH1 0x20 DUP4 ADD SWAP2 SWAP1 SWAP2 MSTORE DUP1 MLOAD SWAP2 DUP3 SWAP1 SUB ADD SWAP1 RETURN JUMPDEST PUSH2 0x129 PUSH1 0x4 DUP1 CALLDATASIZE SUB PUSH1 0x20 DUP2 LT ISZERO PUSH2 0x119 JUMPI PUSH1 0x0 DUP1 REVERT JUMPDEST POP CALLDATALOAD PUSH1 0x1 PUSH1 0x1 PUSH1 0xA0 SHL SUB AND PUSH2 0x328 JUMP JUMPDEST PUSH1 0x40 DUP1 MLOAD SWAP2 DUP3 MSTORE MLOAD SWAP1 DUP2 SWAP1 SUB PUSH1 0x20 ADD SWAP1 RETURN JUMPDEST PUSH1 0x0 SLOAD PUSH1 0x1 PUSH1 0x1 PUSH1 0xA0 SHL SUB AND DUP2 JUMP JUMPDEST PUSH1 0x0 DUP1 PUSH1 0x0 DUP4 PUSH1 0x1 PUSH1 0x1 PUSH1 0xA0 SHL SUB AND PUSH4 0xD0C93A7C PUSH1 0x40 MLOAD DUP2 PUSH4 0xFFFFFFFF AND PUSH1 0xE0 SHL DUP2 MSTORE PUSH1 0x4 ADD PUSH1 0x20 PUSH1 0x40 MLOAD DUP1 DUP4 SUB DUP2 DUP7 DUP1 EXTCODESIZE ISZERO DUP1 ISZERO PUSH2 0x188 JUMPI PUSH1 0x0 DUP1 REVERT JUMPDEST POP GAS STATICCALL ISZERO DUP1 ISZERO PUSH2 0x19C JUMPI RETURNDATASIZE PUSH1 0x0 DUP1 RETURNDATACOPY RETURNDATASIZE PUSH1 0x0 REVERT JUMPDEST POP POP POP POP PUSH1 0x40 MLOAD RETURNDATASIZE PUSH1 0x20 DUP2 LT ISZERO PUSH2 0x1B2 JUMPI PUSH1 0x0 DUP1 REVERT JUMPDEST POP MLOAD PUSH1 0x40 DUP1 MLOAD PUSH4 0x3850C7BD PUSH1 0xE0 SHL DUP2 MSTORE SWAP1 MLOAD SWAP2 SWAP3 POP PUSH1 0x0 SWAP2 PUSH1 0x1 PUSH1 0x1 PUSH1 0xA0 SHL SUB DUP8 AND SWAP2 PUSH4 0x3850C7BD SWAP2 PUSH1 0x4 DUP1 DUP4 ADD SWAP3 PUSH1 0xC0 SWAP3 SWAP2 SWAP1 DUP3 SWAP1 SUB ADD DUP2 DUP7 DUP1 EXTCODESIZE ISZERO DUP1 ISZERO PUSH2 0x1FA JUMPI PUSH1 0x0 DUP1 REVERT JUMPDEST POP GAS STATICCALL ISZERO DUP1 ISZERO PUSH2 0x20E JUMPI RETURNDATASIZE PUSH1 0x0 DUP1 RETURNDATACOPY RETURNDATASIZE PUSH1 0x0 REVERT JUMPDEST POP POP POP POP PUSH1 0x40 MLOAD RETURNDATASIZE PUSH1 0xC0 DUP2 LT ISZERO PUSH2 0x224 JUMPI PUSH1 0x0 DUP1 REVERT JUMPDEST POP PUSH1 0x20 ADD MLOAD SWAP1 POP DUP2 PUSH1 0x2 DUP2 DUP2 SIGNEXTEND SWAP1 DUP4 SWAP1 SIGNEXTEND DUP2 PUSH2 0x23C JUMPI INVALID JUMPDEST SDIV MUL DUP3 DUP2 SUB SWAP7 SWAP3 ADD SWAP5 POP SWAP1 SWAP3 POP POP POP JUMP JUMPDEST PUSH1 0x0 DUP1 PUSH1 0x0 DUP1 PUSH2 0x25C DUP7 PUSH2 0x14A JUMP JUMPDEST SWAP2 POP SWAP2 POP PUSH1 0x0 PUSH2 0x26B DUP4 PUSH2 0x6B8 JUMP JUMPDEST SWAP1 POP PUSH1 0x0 PUSH2 0x278 DUP4 PUSH2 0x6B8 JUMP JUMPDEST SWAP1 POP PUSH1 0x0 PUSH2 0x29C PUSH8 0xDE0B6B3A7640000 PUSH1 0x1 PUSH1 0x60 SHL DUP5 PUSH1 0x1 PUSH1 0x1 PUSH1 0xA0 SHL SUB AND PUSH2 0x9EA JUMP JUMPDEST PUSH2 0x2BC PUSH8 0xDE0B6B3A7640000 PUSH1 0x1 PUSH1 0x60 SHL DUP7 PUSH1 0x1 PUSH1 0x1 PUSH1 0xA0 SHL SUB AND PUSH2 0x9EA JUMP JUMPDEST SUB SWAP1 POP PUSH1 0x1 PUSH1 0x1 PUSH1 0xA0 SHL SUB DUP1 DUP5 AND SWAP1 DUP4 AND SUB PUSH1 0x0 PUSH2 0x2E4 DUP3 PUSH5 0xE8D4A51000 PUSH1 0x1 PUSH1 0x60 SHL PUSH2 0x9EA JUMP JUMPDEST DUP4 ADD SWAP1 POP PUSH1 0x0 PUSH2 0x2FD DUP12 PUSH8 0xDE0B6B3A7640000 DUP5 PUSH2 0x9EA JUMP JUMPDEST SWAP1 POP PUSH2 0x30A DUP7 DUP7 DUP4 PUSH2 0xA9A JUMP JUMPDEST SWAP10 POP PUSH2 0x317 DUP7 DUP7 DUP4 PUSH2 0xB03 JUMP JUMPDEST SWAP9 POP POP POP POP POP POP POP POP POP SWAP3 POP SWAP3 SWAP1 POP JUMP JUMPDEST PUSH1 0x0 PUSH1 0x1 PUSH1 0x1 PUSH1 0xA0 SHL SUB DUP3 AND PUSH2 0x37C JUMPI PUSH1 0x40 DUP1 MLOAD PUSH3 0x461BCD PUSH1 0xE5 SHL DUP2 MSTORE PUSH1 0x20 PUSH1 0x4 DUP3 ADD MSTORE PUSH1 0x14 PUSH1 0x24 DUP3 ADD MSTORE PUSH20 0x496E76616C696420706F6F6C2061646472657373 PUSH1 0x60 SHL PUSH1 0x44 DUP3 ADD MSTORE SWAP1 MLOAD SWAP1 DUP2 SWAP1 SUB PUSH1 0x64 ADD SWAP1 REVERT JUMPDEST PUSH1 0x0 DUP3 PUSH1 0x1 PUSH1 0x1 PUSH1 0xA0 SHL SUB AND PUSH4 0xDFE1681 PUSH1 0x40 MLOAD DUP2 PUSH4 0xFFFFFFFF AND PUSH1 0xE0 SHL DUP2 MSTORE PUSH1 0x4 ADD PUSH1 0x20 PUSH1 0x40 MLOAD DUP1 DUP4 SUB DUP2 DUP7 DUP1 EXTCODESIZE ISZERO DUP1 ISZERO PUSH2 0x3B7 JUMPI PUSH1 0x0 DUP1 REVERT JUMPDEST POP GAS STATICCALL ISZERO DUP1 ISZERO PUSH2 0x3CB JUMPI RETURNDATASIZE PUSH1 0x0 DUP1 RETURNDATACOPY RETURNDATASIZE PUSH1 0x0 REVERT JUMPDEST POP POP POP POP PUSH1 0x40 MLOAD RETURNDATASIZE PUSH1 0x20 DUP2 LT ISZERO PUSH2 0x3E1 JUMPI PUSH1 0x0 DUP1 REVERT JUMPDEST POP MLOAD PUSH1 0x40 DUP1 MLOAD PUSH4 0xD21220A7 PUSH1 0xE0 SHL DUP2 MSTORE SWAP1 MLOAD SWAP2 SWAP3 POP PUSH1 0x0 SWAP2 PUSH1 0x1 PUSH1 0x1 PUSH1 0xA0 SHL SUB DUP7 AND SWAP2 PUSH4 0xD21220A7 SWAP2 PUSH1 0x4 DUP1 DUP4 ADD SWAP3 PUSH1 0x20 SWAP3 SWAP2 SWAP1 DUP3 SWAP1 SUB ADD DUP2 DUP7 DUP1 EXTCODESIZE ISZERO DUP1 ISZERO PUSH2 0x429 JUMPI PUSH1 0x0 DUP1 REVERT JUMPDEST POP GAS STATICCALL ISZERO DUP1 ISZERO PUSH2 0x43D JUMPI RETURNDATASIZE PUSH1 0x0 DUP1 RETURNDATACOPY RETURNDATASIZE PUSH1 0x0 REVERT JUMPDEST POP POP POP POP PUSH1 0x40 MLOAD RETURNDATASIZE PUSH1 0x20 DUP2 LT ISZERO PUSH2 0x453 JUMPI PUSH1 0x0 DUP1 REVERT JUMPDEST POP MLOAD SWAP1 POP PUSH1 0x1 PUSH1 0x1 PUSH1 0xA0 SHL SUB DUP3 AND ISZERO DUP1 ISZERO SWAP1 PUSH2 0x477 JUMPI POP PUSH1 0x1 PUSH1 0x1 PUSH1 0xA0 SHL SUB DUP2 AND ISZERO ISZERO JUMPDEST PUSH2 0x4B9 JUMPI PUSH1 0x40 DUP1 MLOAD PUSH3 0x461BCD PUSH1 0xE5 SHL DUP2 MSTORE PUSH1 0x20 PUSH1 0x4 DUP3 ADD MSTORE PUSH1 0xE PUSH1 0x24 DUP3 ADD MSTORE PUSH14 0x496E76616C696420746F6B656E73 PUSH1 0x90 SHL PUSH1 0x44 DUP3 ADD MSTORE SWAP1 MLOAD SWAP1 DUP2 SWAP1 SUB PUSH1 0x64 ADD SWAP1 REVERT JUMPDEST PUSH1 0x0 DUP2 PUSH1 0x1 PUSH1 0x1 PUSH1 0xA0 SHL SUB AND DUP4 PUSH1 0x1 PUSH1 0x1 PUSH1 0xA0 SHL SUB AND LT SWAP1 POP PUSH1 0x0 DUP4 PUSH1 0x1 PUSH1 0x1 PUSH1 0xA0 SHL SUB AND PUSH4 0x313CE567 PUSH1 0x40 MLOAD DUP2 PUSH4 0xFFFFFFFF AND PUSH1 0xE0 SHL DUP2 MSTORE PUSH1 0x4 ADD PUSH1 0x20 PUSH1 0x40 MLOAD DUP1 DUP4 SUB DUP2 DUP7 DUP1 EXTCODESIZE ISZERO DUP1 ISZERO PUSH2 0x50D JUMPI PUSH1 0x0 DUP1 REVERT JUMPDEST POP GAS STATICCALL ISZERO DUP1 ISZERO PUSH2 0x521 JUMPI RETURNDATASIZE PUSH1 0x0 DUP1 RETURNDATACOPY RETURNDATASIZE PUSH1 0x0 REVERT JUMPDEST POP POP POP POP PUSH1 0x40 MLOAD RETURNDATASIZE PUSH1 0x20 DUP2 LT ISZERO PUSH2 0x537 JUMPI PUSH1 0x0 DUP1 REVERT JUMPDEST POP MLOAD PUSH1 0x40 DUP1 MLOAD PUSH4 0x313CE567 PUSH1 0xE0 SHL DUP2 MSTORE SWAP1 MLOAD SWAP2 SWAP3 POP PUSH1 0x0 SWAP2 PUSH1 0x1 PUSH1 0x1 PUSH1 0xA0 SHL SUB DUP7 AND SWAP2 PUSH4 0x313CE567 SWAP2 PUSH1 0x4 DUP1 DUP4 ADD SWAP3 PUSH1 0x20 SWAP3 SWAP2 SWAP1 DUP3 SWAP1 SUB ADD DUP2 DUP7 DUP1 EXTCODESIZE ISZERO DUP1 ISZERO PUSH2 0x57F JUMPI PUSH1 0x0 DUP1 REVERT JUMPDEST POP GAS STATICCALL ISZERO DUP1 ISZERO PUSH2 0x593 JUMPI RETURNDATASIZE PUSH1 0x0 DUP1 RETURNDATACOPY RETURNDATASIZE PUSH1 0x0 REVERT JUMPDEST POP POP POP POP PUSH1 0x40 MLOAD RETURNDATASIZE PUSH1 0x20 DUP2 LT ISZERO PUSH2 0x5A9 JUMPI PUSH1 0x0 DUP1 REVERT JUMPDEST POP MLOAD PUSH1 0x40 DUP1 MLOAD PUSH4 0x3850C7BD PUSH1 0xE0 SHL DUP2 MSTORE SWAP1 MLOAD SWAP2 SWAP3 POP PUSH1 0x0 SWAP2 PUSH1 0x1 PUSH1 0x1 PUSH1 0xA0 SHL SUB DUP11 AND SWAP2 PUSH4 0x3850C7BD SWAP2 PUSH1 0x4 DUP1 DUP4 ADD SWAP3 PUSH1 0xC0 SWAP3 SWAP2 SWAP1 DUP3 SWAP1 SUB ADD DUP2 DUP7 DUP1 EXTCODESIZE ISZERO DUP1 ISZERO PUSH2 0x5F1 JUMPI PUSH1 0x0 DUP1 REVERT JUMPDEST POP GAS STATICCALL ISZERO DUP1 ISZERO PUSH2 0x605 JUMPI RETURNDATASIZE PUSH1 0x0 DUP1 RETURNDATACOPY RETURNDATASIZE PUSH1 0x0 REVERT JUMPDEST POP POP POP POP PUSH1 0x40 MLOAD RETURNDATASIZE PUSH1 0xC0 DUP2 LT ISZERO PUSH2 0x61B JUMPI PUSH1 0x0 DUP1 REVERT JUMPDEST POP PUSH1 0x20 ADD MLOAD SWAP1 POP PUSH1 0x0 PUSH2 0x62D DUP3 PUSH2 0x6B8 JUMP JUMPDEST SWAP1 POP PUSH1 0x1 PUSH1 0x1 PUSH1 0xA0 SHL SUB DUP2 AND PUSH1 0x0 PUSH2 0x64D DUP3 DUP1 MUL PUSH1 0x1 PUSH1 0x1 PUSH1 0xC0 SHL PUSH2 0x9EA JUMP JUMPDEST SWAP1 POP DUP7 ISZERO PUSH2 0x671 JUMPI DUP1 SWAP10 POP PUSH2 0x66A DUP11 DUP8 PUSH1 0xFF AND PUSH1 0xA EXP PUSH1 0x1 PUSH2 0x9EA JUMP JUMPDEST SWAP10 POP PUSH2 0x6AA JUMP JUMPDEST PUSH1 0x0 DUP2 GT PUSH2 0x680 JUMPI PUSH1 0x0 PUSH2 0x693 JUMP JUMPDEST PUSH2 0x693 PUSH8 0xDE0B6B3A7640000 DUP1 DUP4 PUSH2 0x9EA JUMP JUMPDEST SWAP10 POP PUSH2 0x6A7 DUP11 DUP7 PUSH1 0xFF AND PUSH1 0xA EXP PUSH1 0x1 PUSH2 0x9EA JUMP JUMPDEST SWAP10 POP JUMPDEST POP POP POP POP POP POP POP POP POP SWAP2 SWAP1 POP JUMP JUMPDEST PUSH1 0x0 DUP1 PUSH1 0x0 DUP4 PUSH1 0x2 SIGNEXTEND SLT PUSH2 0x6CF JUMPI DUP3 PUSH1 0x2 SIGNEXTEND PUSH2 0x6D7 JUMP JUMPDEST DUP3 PUSH1 0x2 SIGNEXTEND PUSH1 0x0 SUB JUMPDEST SWAP1 POP PUSH3 0xD89E8 DUP2 GT ISZERO PUSH2 0x715 JUMPI PUSH1 0x40 DUP1 MLOAD PUSH3 0x461BCD PUSH1 0xE5 SHL DUP2 MSTORE PUSH1 0x20 PUSH1 0x4 DUP3 ADD MSTORE PUSH1 0x1 PUSH1 0x24 DUP3 ADD MSTORE PUSH1 0x15 PUSH1 0xFA SHL PUSH1 0x44 DUP3 ADD MSTORE SWAP1 MLOAD SWAP1 DUP2 SWAP1 SUB PUSH1 0x64 ADD SWAP1 REVERT JUMPDEST PUSH1 0x0 PUSH1 0x1 DUP3 AND PUSH2 0x729 JUMPI PUSH1 0x1 PUSH1 0x80 SHL PUSH2 0x73B JUMP JUMPDEST PUSH16 0xFFFCB933BD6FAD37AA2D162D1A594001 JUMPDEST PUSH17 0xFFFFFFFFFFFFFFFFFFFFFFFFFFFFFFFFFF AND SWAP1 POP PUSH1 0x2 DUP3 AND ISZERO PUSH2 0x76F JUMPI PUSH16 0xFFF97272373D413259A46990580E213A MUL PUSH1 0x80 SHR JUMPDEST PUSH1 0x4 DUP3 AND ISZERO PUSH2 0x78E JUMPI PUSH16 0xFFF2E50F5F656932EF12357CF3C7FDCC MUL PUSH1 0x80 SHR JUMPDEST PUSH1 0x8 DUP3 AND ISZERO PUSH2 0x7AD JUMPI PUSH16 0xFFE5CACA7E10E4E61C3624EAA0941CD0 MUL PUSH1 0x80 SHR JUMPDEST PUSH1 0x10 DUP3 AND ISZERO PUSH2 0x7CC JUMPI PUSH16 0xFFCB9843D60F6159C9DB58835C926644 MUL PUSH1 0x80 SHR JUMPDEST PUSH1 0x20 DUP3 AND ISZERO PUSH2 0x7EB JUMPI PUSH16 0xFF973B41FA98C081472E6896DFB254C0 MUL PUSH1 0x80 SHR JUMPDEST PUSH1 0x40 DUP3 AND ISZERO PUSH2 0x80A JUMPI PUSH16 0xFF2EA16466C96A3843EC78B326B52861 MUL PUSH1 0x80 SHR JUMPDEST PUSH1 0x80 DUP3 AND ISZERO PUSH2 0x829 JUMPI PUSH16 0xFE5DEE046A99A2A811C461F1969C3053 MUL PUSH1 0x80 SHR JUMPDEST PUSH2 0x100 DUP3 AND ISZERO PUSH2 0x849 JUMPI PUSH16 0xFCBE86C7900A88AEDCFFC83B479AA3A4 MUL PUSH1 0x80 SHR JUMPDEST PUSH2 0x200 DUP3 AND ISZERO PUSH2 0x869 JUMPI PUSH16 0xF987A7253AC413176F2B074CF7815E54 MUL PUSH1 0x80 SHR JUMPDEST PUSH2 0x400 DUP3 AND ISZERO PUSH2 0x889 JUMPI PUSH16 0xF3392B0822B70005940C7A398E4B70F3 MUL PUSH1 0x80 SHR JUMPDEST PUSH2 0x800 DUP3 AND ISZERO PUSH2 0x8A9 JUMPI PUSH16 0xE7159475A2C29B7443B29C7FA6E889D9 MUL PUSH1 0x80 SHR JUMPDEST PUSH2 0x1000 DUP3 AND ISZERO PUSH2 0x8C9 JUMPI PUSH16 0xD097F3BDFD2022B8845AD8F792AA5825 MUL PUSH1 0x80 SHR JUMPDEST PUSH2 0x2000 DUP3 AND ISZERO PUSH2 0x8E9 JUMPI PUSH16 0xA9F746462D870FDF8A65DC1F90E061E5 MUL PUSH1 0x80 SHR JUMPDEST PUSH2 0x4000 DUP3 AND ISZERO PUSH2 0x909 JUMPI PUSH16 0x70D869A156D2A1B890BB3DF62BAF32F7 MUL PUSH1 0x80 SHR JUMPDEST PUSH2 0x8000 DUP3 AND ISZERO PUSH2 0x929 JUMPI PUSH16 0x31BE135F97D08FD981231505542FCFA6 MUL PUSH1 0x80 SHR JUMPDEST PUSH3 0x10000 DUP3 AND ISZERO PUSH2 0x94A JUMPI PUSH16 0x9AA508B5B7A84E1C677DE54F3E99BC9 MUL PUSH1 0x80 SHR JUMPDEST PUSH3 0x20000 DUP3 AND ISZERO PUSH2 0x96A JUMPI PUSH15 0x5D6AF8DEDB81196699C329225EE604 MUL PUSH1 0x80 SHR JUMPDEST PUSH3 0x40000 DUP3 AND ISZERO PUSH2 0x989 JUMPI PUSH14 0x2216E584F5FA1EA926041BEDFE98 MUL PUSH1 0x80 SHR JUMPDEST PUSH3 0x80000 DUP3 AND ISZERO PUSH2 0x9A6 JUMPI PUSH12 0x48A170391F7DC42444E8FA2 MUL PUSH1 0x80 SHR JUMPDEST PUSH1 0x0 DUP5 PUSH1 0x2 SIGNEXTEND SGT ISZERO PUSH2 0x9C1 JUMPI DUP1 PUSH1 0x0 NOT DUP2 PUSH2 0x9BD JUMPI INVALID JUMPDEST DIV SWAP1 POP JUMPDEST PUSH5 0x100000000 DUP2 MOD ISZERO PUSH2 0x9D5 JUMPI PUSH1 0x1 PUSH2 0x9D8 JUMP JUMPDEST PUSH1 0x0 JUMPDEST PUSH1 0xFF AND PUSH1 0x20 DUP3 SWAP1 SHR ADD SWAP3 POP POP POP SWAP2 SWAP1 POP JUMP JUMPDEST PUSH1 0x0 DUP1 DUP1 PUSH1 0x0 NOT DUP6 DUP8 MULMOD DUP7 DUP7 MUL SWAP3 POP DUP3 DUP2 LT SWAP1 DUP4 SWAP1 SUB SUB SWAP1 POP DUP1 PUSH2 0xA20 JUMPI PUSH1 0x0 DUP5 GT PUSH2 0xA15 JUMPI PUSH1 0x0 DUP1 REVERT JUMPDEST POP DUP3 SWAP1 DIV SWAP1 POP PUSH2 0xA93 JUMP JUMPDEST DUP1 DUP5 GT PUSH2 0xA2C JUMPI PUSH1 0x0 DUP1 REVERT JUMPDEST PUSH1 0x0 DUP5 DUP7 DUP9 MULMOD PUSH1 0x0 DUP7 DUP2 SUB DUP8 AND SWAP7 DUP8 SWAP1 DIV SWAP7 PUSH1 0x2 PUSH1 0x3 DUP10 MUL DUP2 XOR DUP1 DUP11 MUL DUP3 SUB MUL DUP1 DUP11 MUL DUP3 SUB MUL DUP1 DUP11 MUL DUP3 SUB MUL DUP1 DUP11 MUL DUP3 SUB MUL DUP1 DUP11 MUL DUP3 SUB MUL DUP1 DUP11 MUL SWAP1 SWAP2 SUB MUL SWAP2 DUP2 SWAP1 SUB DUP2 SWAP1 DIV PUSH1 0x1 ADD DUP7 DUP5 GT SWAP1 SWAP6 SUB SWAP5 SWAP1 SWAP5 MUL SWAP2 SWAP1 SWAP5 SUB SWAP3 SWAP1 SWAP3 DIV SWAP2 SWAP1 SWAP2 OR SWAP2 SWAP1 SWAP2 MUL SWAP2 POP POP JUMPDEST SWAP4 SWAP3 POP POP POP JUMP JUMPDEST PUSH1 0x0 DUP3 PUSH1 0x1 PUSH1 0x1 PUSH1 0xA0 SHL SUB AND DUP5 PUSH1 0x1 PUSH1 0x1 PUSH1 0xA0 SHL SUB AND GT ISZERO PUSH2 0xABA JUMPI SWAP2 SWAP3 SWAP2 JUMPDEST DUP4 PUSH1 0x1 PUSH1 0x1 PUSH1 0xA0 SHL SUB AND PUSH2 0xAF3 PUSH1 0x60 PUSH1 0xFF AND DUP5 PUSH1 0x1 PUSH1 0x1 PUSH1 0x80 SHL SUB AND SWAP1 SHL DUP7 DUP7 SUB PUSH1 0x1 PUSH1 0x1 PUSH1 0xA0 SHL SUB AND DUP7 PUSH1 0x1 PUSH1 0x1 PUSH1 0xA0 SHL SUB AND PUSH2 0x9EA JUMP JUMPDEST DUP2 PUSH2 0xAFA JUMPI INVALID JUMPDEST DIV SWAP5 SWAP4 POP POP POP POP JUMP JUMPDEST PUSH1 0x0 DUP3 PUSH1 0x1 PUSH1 0x1 PUSH1 0xA0 SHL SUB AND DUP5 PUSH1 0x1 PUSH1 0x1 PUSH1 0xA0 SHL SUB AND GT ISZERO PUSH2 0xB23 JUMPI SWAP2 SWAP3 SWAP2 JUMPDEST PUSH2 0xB46 DUP3 PUSH1 0x1 PUSH1 0x1 PUSH1 0x80 SHL SUB AND DUP6 DUP6 SUB PUSH1 0x1 PUSH1 0x1 PUSH1 0xA0 SHL SUB AND PUSH1 0x1 PUSH1 0x60 SHL PUSH2 0x9EA JUMP JUMPDEST SWAP5 SWAP4 POP POP POP POP JUMP INVALID LOG2 PUSH5 0x6970667358 0x22 SLT KECCAK256 PUSH21 0x143F30BA000B66B3C3D3F2249C228FA13DADDFD243 0xCE 0x2A DUP7 PUSH1 0x5 0x29 0xC CALLER PUSH24 0xAD64736F6C63430007060033000000000000000000000000 "
				},
				"gasEstimates": {
					"creation": {
						"codeDepositCost": "589600",
						"executionCost": "625",
						"totalCost": "590225"
					},
					"external": {
						"GetPrice(address)": "infinite",
						"V3Pool()": "1015",
						"getAmountsforLiquidity(address,uint256)": "infinite",
						"getTicks(address)": "infinite"
					},
					"internal": {
						"getAmount0ForLiquidity(uint160,uint160,uint128)": "705",
						"getAmount1ForLiquidity(uint160,uint160,uint128)": "635"
					}
				},
				"methodIdentifiers": {
					"GetPrice(address)": "f29d0040",
					"V3Pool()": "11ea5441",
					"getAmountsforLiquidity(address,uint256)": "941e0eb8",
					"getTicks(address)": "802036f5"
				}
			},
			"storageLayout": {
				"storage": [
					{
						"astId": 418,
						"contract": "contracts/core/VeloOracle.sol:VeloOracle",
						"label": "V3Pool",
						"offset": 0,
						"slot": "0",
						"type": "t_contract(ICLPoolDerivedState)1169"
					}
				],
				"types": {
					"t_contract(ICLPoolDerivedState)1169": {
						"encoding": "inplace",
						"label": "contract ICLPoolDerivedState",
						"numberOfBytes": "20"
					}
				}
			},
			"userdoc": {
				"kind": "user",
				"methods": {},
				"version": 1
			}
		}
	}
}