{
	"contracts/core/VeloBrain.sol": {
		"Proxy": {
			"abi": [
				{
					"inputs": [
						{
							"internalType": "address",
							"name": "_implementation",
							"type": "address"
						}
					],
					"stateMutability": "nonpayable",
					"type": "constructor"
				},
				{
					"stateMutability": "payable",
					"type": "fallback"
				},
				{
					"inputs": [],
					"name": "admin",
					"outputs": [
						{
							"internalType": "address",
							"name": "",
							"type": "address"
						}
					],
					"stateMutability": "view",
					"type": "function"
				},
				{
					"inputs": [],
					"name": "implementation",
					"outputs": [
						{
							"internalType": "address",
							"name": "",
							"type": "address"
						}
					],
					"stateMutability": "view",
					"type": "function"
				},
				{
					"inputs": [
						{
							"internalType": "address",
							"name": "_newImplementation",
							"type": "address"
						}
					],
					"name": "upgrade",
					"outputs": [],
					"stateMutability": "nonpayable",
					"type": "function"
				},
				{
					"stateMutability": "payable",
					"type": "receive"
				}
			],
			"devdoc": {
				"kind": "dev",
				"methods": {},
				"version": 1
			},
			"evm": {
				"assembly": "    /* \"contracts/core/VeloBrain.sol\":60:1313  contract Proxy {... */\n  mstore(0x40, 0x80)\n    /* \"contracts/core/VeloBrain.sol\":254:371  constructor(address _implementation) {... */\n  callvalue\n  dup1\n  iszero\n  tag_1\n  jumpi\n  revert(0x00, 0x00)\ntag_1:\n  pop\n  mload(0x40)\n  sub(codesize, bytecodeSize)\n  dup1\n  bytecodeSize\n  dup4\n  codecopy\n  dup2\n  dup2\n  add\n  0x40\n  mstore\n  dup2\n  add\n  swap1\n  tag_2\n  swap2\n  swap1\n  tag_3\n  jump\t// in\ntag_2:\n    /* \"contracts/core/VeloBrain.sol\":310:320  msg.sender */\n  caller\n    /* \"contracts/core/VeloBrain.sol\":302:307  admin */\n  0x01\n  0x00\n    /* \"contracts/core/VeloBrain.sol\":302:320  admin = msg.sender */\n  0x0100\n  exp\n  dup2\n  sload\n  dup2\n  0xffffffffffffffffffffffffffffffffffffffff\n  mul\n  not\n  and\n  swap1\n  dup4\n  0xffffffffffffffffffffffffffffffffffffffff\n  and\n  mul\n  or\n  swap1\n  sstore\n  pop\n    /* \"contracts/core/VeloBrain.sol\":348:363  _implementation */\n  dup1\n    /* \"contracts/core/VeloBrain.sol\":331:345  implementation */\n  0x00\n  0x00\n    /* \"contracts/core/VeloBrain.sol\":331:363  implementation = _implementation */\n  0x0100\n  exp\n  dup2\n  sload\n  dup2\n  0xffffffffffffffffffffffffffffffffffffffff\n  mul\n  not\n  and\n  swap1\n  dup4\n  0xffffffffffffffffffffffffffffffffffffffff\n  and\n  mul\n  or\n  swap1\n  sstore\n  pop\n    /* \"contracts/core/VeloBrain.sol\":254:371  constructor(address _implementation) {... */\n  pop\n    /* \"contracts/core/VeloBrain.sol\":60:1313  contract Proxy {... */\n  jump(tag_6)\n    /* \"#utility.yul\":88:205   */\ntag_8:\n    /* \"#utility.yul\":197:198   */\n  0x00\n    /* \"#utility.yul\":194:195   */\n  0x00\n    /* \"#utility.yul\":187:199   */\n  revert\n    /* \"#utility.yul\":334:460   */\ntag_10:\n    /* \"#utility.yul\":371:378   */\n  0x00\n    /* \"#utility.yul\":411:453   */\n  0xffffffffffffffffffffffffffffffffffffffff\n    /* \"#utility.yul\":404:409   */\n  dup3\n    /* \"#utility.yul\":400:454   */\n  and\n    /* \"#utility.yul\":389:454   */\n  swap1\n  pop\n    /* \"#utility.yul\":334:460   */\n  swap2\n  swap1\n  pop\n  jump\t// out\n    /* \"#utility.yul\":466:562   */\ntag_11:\n    /* \"#utility.yul\":503:510   */\n  0x00\n    /* \"#utility.yul\":532:556   */\n  tag_20\n    /* \"#utility.yul\":550:555   */\n  dup3\n    /* \"#utility.yul\":532:556   */\n  tag_10\n  jump\t// in\ntag_20:\n    /* \"#utility.yul\":521:556   */\n  swap1\n  pop\n    /* \"#utility.yul\":466:562   */\n  swap2\n  swap1\n  pop\n  jump\t// out\n    /* \"#utility.yul\":568:690   */\ntag_12:\n    /* \"#utility.yul\":641:665   */\n  tag_22\n    /* \"#utility.yul\":659:664   */\n  dup2\n    /* \"#utility.yul\":641:665   */\n  tag_11\n  jump\t// in\ntag_22:\n    /* \"#utility.yul\":634:639   */\n  dup2\n    /* \"#utility.yul\":631:666   */\n  eq\n    /* \"#utility.yul\":621:684   */\n  tag_23\n  jumpi\n    /* \"#utility.yul\":680:681   */\n  0x00\n    /* \"#utility.yul\":677:678   */\n  0x00\n    /* \"#utility.yul\":670:682   */\n  revert\n    /* \"#utility.yul\":621:684   */\ntag_23:\n    /* \"#utility.yul\":568:690   */\n  pop\n  jump\t// out\n    /* \"#utility.yul\":696:839   */\ntag_13:\n    /* \"#utility.yul\":753:758   */\n  0x00\n    /* \"#utility.yul\":784:790   */\n  dup2\n    /* \"#utility.yul\":778:791   */\n  mload\n    /* \"#utility.yul\":769:791   */\n  swap1\n  pop\n    /* \"#utility.yul\":800:833   */\n  tag_25\n    /* \"#utility.yul\":827:832   */\n  dup2\n    /* \"#utility.yul\":800:833   */\n  tag_12\n  jump\t// in\ntag_25:\n    /* \"#utility.yul\":696:839   */\n  swap3\n  swap2\n  pop\n  pop\n  jump\t// out\n    /* \"#utility.yul\":845:1196   */\ntag_3:\n    /* \"#utility.yul\":915:921   */\n  0x00\n    /* \"#utility.yul\":964:966   */\n  0x20\n    /* \"#utility.yul\":952:961   */\n  dup3\n    /* \"#utility.yul\":943:950   */\n  dup5\n    /* \"#utility.yul\":939:962   */\n  sub\n    /* \"#utility.yul\":935:967   */\n  slt\n    /* \"#utility.yul\":932:1051   */\n  iszero\n  tag_27\n  jumpi\n    /* \"#utility.yul\":970:1049   */\n  tag_28\n  tag_8\n  jump\t// in\ntag_28:\n    /* \"#utility.yul\":932:1051   */\ntag_27:\n    /* \"#utility.yul\":1090:1091   */\n  0x00\n    /* \"#utility.yul\":1115:1179   */\n  tag_29\n    /* \"#utility.yul\":1171:1178   */\n  dup5\n    /* \"#utility.yul\":1162:1168   */\n  dup3\n    /* \"#utility.yul\":1151:1160   */\n  dup6\n    /* \"#utility.yul\":1147:1169   */\n  add\n    /* \"#utility.yul\":1115:1179   */\n  tag_13\n  jump\t// in\ntag_29:\n    /* \"#utility.yul\":1105:1179   */\n  swap2\n  pop\n    /* \"#utility.yul\":1061:1189   */\n  pop\n    /* \"#utility.yul\":845:1196   */\n  swap3\n  swap2\n  pop\n  pop\n  jump\t// out\n    /* \"contracts/core/VeloBrain.sol\":60:1313  contract Proxy {... */\ntag_6:\n  dataSize(sub_0)\n  dup1\n  dataOffset(sub_0)\n  0x00\n  codecopy\n  0x00\n  return\nstop\n\nsub_0: assembly {\n        /* \"contracts/core/VeloBrain.sol\":60:1313  contract Proxy {... */\n      mstore(0x40, 0x80)\n      jumpi(tag_1, lt(calldatasize, 0x04))\n      shr(0xe0, calldataload(0x00))\n      dup1\n      0x0900f010\n      eq\n      tag_3\n      jumpi\n      dup1\n      0x5c60da1b\n      eq\n      tag_4\n      jumpi\n      dup1\n      0xf851a440\n      eq\n      tag_5\n      jumpi\n      jump(tag_2)\n    tag_1:\n      jumpi(tag_2, calldatasize)\n      stop\n    tag_2:\n        /* \"contracts/core/VeloBrain.sol\":811:823  address impl */\n      0x00\n        /* \"contracts/core/VeloBrain.sol\":826:840  implementation */\n      0x00\n      0x00\n      swap1\n      sload\n      swap1\n      0x0100\n      exp\n      swap1\n      div\n      0xffffffffffffffffffffffffffffffffffffffff\n      and\n        /* \"contracts/core/VeloBrain.sol\":811:840  address impl = implementation */\n      swap1\n      pop\n        /* \"contracts/core/VeloBrain.sol\":875:876  0 */\n      0x00\n        /* \"contracts/core/VeloBrain.sol\":859:877  impl != address(0) */\n      0xffffffffffffffffffffffffffffffffffffffff\n      and\n        /* \"contracts/core/VeloBrain.sol\":859:863  impl */\n      dup2\n        /* \"contracts/core/VeloBrain.sol\":859:877  impl != address(0) */\n      0xffffffffffffffffffffffffffffffffffffffff\n      and\n      sub\n        /* \"contracts/core/VeloBrain.sol\":851:904  require(impl != address(0), \"Implementation not set\") */\n      tag_10\n      jumpi\n      mload(0x40)\n      0x08c379a000000000000000000000000000000000000000000000000000000000\n      dup2\n      mstore\n      0x04\n      add\n      tag_11\n      swap1\n      tag_12\n      jump\t// in\n    tag_11:\n      mload(0x40)\n      dup1\n      swap2\n      sub\n      swap1\n      revert\n    tag_10:\n        /* \"contracts/core/VeloBrain.sol\":975:987  bool success */\n      0x00\n        /* \"contracts/core/VeloBrain.sol\":989:1006  bytes memory data */\n      0x00\n        /* \"contracts/core/VeloBrain.sol\":1010:1014  impl */\n      dup3\n        /* \"contracts/core/VeloBrain.sol\":1010:1027  impl.delegatecall */\n      0xffffffffffffffffffffffffffffffffffffffff\n      and\n        /* \"contracts/core/VeloBrain.sol\":1028:1036  msg.data */\n      0x00\n      calldatasize\n        /* \"contracts/core/VeloBrain.sol\":1010:1037  impl.delegatecall(msg.data) */\n      mload(0x40)\n      tag_13\n      swap3\n      swap2\n      swap1\n      tag_14\n      jump\t// in\n    tag_13:\n      0x00\n      mload(0x40)\n      dup1\n      dup4\n      sub\n      dup2\n      dup6\n      gas\n      delegatecall\n      swap2\n      pop\n      pop\n      returndatasize\n      dup1\n      0x00\n      dup2\n      eq\n      tag_17\n      jumpi\n      mload(0x40)\n      swap2\n      pop\n      and(add(returndatasize, 0x3f), not(0x1f))\n      dup3\n      add\n      0x40\n      mstore\n      returndatasize\n      dup3\n      mstore\n      returndatasize\n      0x00\n      0x20\n      dup5\n      add\n      returndatacopy\n      jump(tag_16)\n    tag_17:\n      0x60\n      swap2\n      pop\n    tag_16:\n      pop\n        /* \"contracts/core/VeloBrain.sol\":974:1037  (bool success, bytes memory data) = impl.delegatecall(msg.data) */\n      swap2\n      pop\n      swap2\n      pop\n        /* \"contracts/core/VeloBrain.sol\":1056:1063  success */\n      dup2\n        /* \"contracts/core/VeloBrain.sol\":1048:1087  require(success, \"Delegatecall failed\") */\n      tag_18\n      jumpi\n      mload(0x40)\n      0x08c379a000000000000000000000000000000000000000000000000000000000\n      dup2\n      mstore\n      0x04\n      add\n      tag_19\n      swap1\n      tag_20\n      jump\t// in\n    tag_19:\n      mload(0x40)\n      dup1\n      swap2\n      sub\n      swap1\n      revert\n    tag_18:\n        /* \"contracts/core/VeloBrain.sol\":1196:1200  data */\n      dup1\n        /* \"contracts/core/VeloBrain.sol\":1190:1201  mload(data) */\n      mload\n        /* \"contracts/core/VeloBrain.sol\":1183:1187  0x20 */\n      0x20\n        /* \"contracts/core/VeloBrain.sol\":1177:1181  data */\n      dup3\n        /* \"contracts/core/VeloBrain.sol\":1173:1188  add(data, 0x20) */\n      add\n        /* \"contracts/core/VeloBrain.sol\":1166:1202  return(add(data, 0x20), mload(data)) */\n      return\n        /* \"contracts/core/VeloBrain.sol\":580:698  function upgrade(address _newImplementation) external onlyAdmin {... */\n    tag_3:\n      callvalue\n      dup1\n      iszero\n      tag_21\n      jumpi\n      revert(0x00, 0x00)\n    tag_21:\n      pop\n      tag_22\n      0x04\n      dup1\n      calldatasize\n      sub\n      dup2\n      add\n      swap1\n      tag_23\n      swap2\n      swap1\n      tag_24\n      jump\t// in\n    tag_23:\n      tag_25\n      jump\t// in\n    tag_22:\n      stop\n        /* \"contracts/core/VeloBrain.sol\":144:173  address public implementation */\n    tag_4:\n      callvalue\n      dup1\n      iszero\n      tag_26\n      jumpi\n      revert(0x00, 0x00)\n    tag_26:\n      pop\n      tag_27\n      tag_28\n      jump\t// in\n    tag_27:\n      mload(0x40)\n      tag_29\n      swap2\n      swap1\n      tag_30\n      jump\t// in\n    tag_29:\n      mload(0x40)\n      dup1\n      swap2\n      sub\n      swap1\n      return\n        /* \"contracts/core/VeloBrain.sol\":180:200  address public admin */\n    tag_5:\n      callvalue\n      dup1\n      iszero\n      tag_31\n      jumpi\n      revert(0x00, 0x00)\n    tag_31:\n      pop\n      tag_32\n      tag_33\n      jump\t// in\n    tag_32:\n      mload(0x40)\n      tag_34\n      swap2\n      swap1\n      tag_30\n      jump\t// in\n    tag_34:\n      mload(0x40)\n      dup1\n      swap2\n      sub\n      swap1\n      return\n        /* \"contracts/core/VeloBrain.sol\":580:698  function upgrade(address _newImplementation) external onlyAdmin {... */\n    tag_25:\n        /* \"contracts/core/VeloBrain.sol\":481:486  admin */\n      0x01\n      0x00\n      swap1\n      sload\n      swap1\n      0x0100\n      exp\n      swap1\n      div\n      0xffffffffffffffffffffffffffffffffffffffff\n      and\n        /* \"contracts/core/VeloBrain.sol\":467:486  msg.sender == admin */\n      0xffffffffffffffffffffffffffffffffffffffff\n      and\n        /* \"contracts/core/VeloBrain.sol\":467:477  msg.sender */\n      caller\n        /* \"contracts/core/VeloBrain.sol\":467:486  msg.sender == admin */\n      0xffffffffffffffffffffffffffffffffffffffff\n      and\n      eq\n        /* \"contracts/core/VeloBrain.sol\":459:500  require(msg.sender == admin, \"Not admin\") */\n      tag_36\n      jumpi\n      mload(0x40)\n      0x08c379a000000000000000000000000000000000000000000000000000000000\n      dup2\n      mstore\n      0x04\n      add\n      tag_37\n      swap1\n      tag_38\n      jump\t// in\n    tag_37:\n      mload(0x40)\n      dup1\n      swap2\n      sub\n      swap1\n      revert\n    tag_36:\n        /* \"contracts/core/VeloBrain.sol\":672:690  _newImplementation */\n      dup1\n        /* \"contracts/core/VeloBrain.sol\":655:669  implementation */\n      0x00\n      0x00\n        /* \"contracts/core/VeloBrain.sol\":655:690  implementation = _newImplementation */\n      0x0100\n      exp\n      dup2\n      sload\n      dup2\n      0xffffffffffffffffffffffffffffffffffffffff\n      mul\n      not\n      and\n      swap1\n      dup4\n      0xffffffffffffffffffffffffffffffffffffffff\n      and\n      mul\n      or\n      swap1\n      sstore\n      pop\n        /* \"contracts/core/VeloBrain.sol\":580:698  function upgrade(address _newImplementation) external onlyAdmin {... */\n      pop\n      jump\t// out\n        /* \"contracts/core/VeloBrain.sol\":144:173  address public implementation */\n    tag_28:\n      0x00\n      0x00\n      swap1\n      sload\n      swap1\n      0x0100\n      exp\n      swap1\n      div\n      0xffffffffffffffffffffffffffffffffffffffff\n      and\n      dup2\n      jump\t// out\n        /* \"contracts/core/VeloBrain.sol\":180:200  address public admin */\n    tag_33:\n      0x01\n      0x00\n      swap1\n      sload\n      swap1\n      0x0100\n      exp\n      swap1\n      div\n      0xffffffffffffffffffffffffffffffffffffffff\n      and\n      dup2\n      jump\t// out\n        /* \"#utility.yul\":7:176   */\n    tag_40:\n        /* \"#utility.yul\":91:102   */\n      0x00\n        /* \"#utility.yul\":125:131   */\n      dup3\n        /* \"#utility.yul\":120:123   */\n      dup3\n        /* \"#utility.yul\":113:132   */\n      mstore\n        /* \"#utility.yul\":165:169   */\n      0x20\n        /* \"#utility.yul\":160:163   */\n      dup3\n        /* \"#utility.yul\":156:170   */\n      add\n        /* \"#utility.yul\":141:170   */\n      swap1\n      pop\n        /* \"#utility.yul\":7:176   */\n      swap3\n      swap2\n      pop\n      pop\n      jump\t// out\n        /* \"#utility.yul\":182:354   */\n    tag_41:\n        /* \"#utility.yul\":322:346   */\n      0x496d706c656d656e746174696f6e206e6f742073657400000000000000000000\n        /* \"#utility.yul\":318:319   */\n      0x00\n        /* \"#utility.yul\":310:316   */\n      dup3\n        /* \"#utility.yul\":306:320   */\n      add\n        /* \"#utility.yul\":299:347   */\n      mstore\n        /* \"#utility.yul\":182:354   */\n      pop\n      jump\t// out\n        /* \"#utility.yul\":360:726   */\n    tag_42:\n        /* \"#utility.yul\":502:505   */\n      0x00\n        /* \"#utility.yul\":523:590   */\n      tag_62\n        /* \"#utility.yul\":587:589   */\n      0x16\n        /* \"#utility.yul\":582:585   */\n      dup4\n        /* \"#utility.yul\":523:590   */\n      tag_40\n      jump\t// in\n    tag_62:\n        /* \"#utility.yul\":516:590   */\n      swap2\n      pop\n        /* \"#utility.yul\":599:692   */\n      tag_63\n        /* \"#utility.yul\":688:691   */\n      dup3\n        /* \"#utility.yul\":599:692   */\n      tag_41\n      jump\t// in\n    tag_63:\n        /* \"#utility.yul\":717:719   */\n      0x20\n        /* \"#utility.yul\":712:715   */\n      dup3\n        /* \"#utility.yul\":708:720   */\n      add\n        /* \"#utility.yul\":701:720   */\n      swap1\n      pop\n        /* \"#utility.yul\":360:726   */\n      swap2\n      swap1\n      pop\n      jump\t// out\n        /* \"#utility.yul\":732:1151   */\n    tag_12:\n        /* \"#utility.yul\":898:902   */\n      0x00\n        /* \"#utility.yul\":936:938   */\n      0x20\n        /* \"#utility.yul\":925:934   */\n      dup3\n        /* \"#utility.yul\":921:939   */\n      add\n        /* \"#utility.yul\":913:939   */\n      swap1\n      pop\n        /* \"#utility.yul\":985:994   */\n      dup2\n        /* \"#utility.yul\":979:983   */\n      dup2\n        /* \"#utility.yul\":975:995   */\n      sub\n        /* \"#utility.yul\":971:972   */\n      0x00\n        /* \"#utility.yul\":960:969   */\n      dup4\n        /* \"#utility.yul\":956:973   */\n      add\n        /* \"#utility.yul\":949:996   */\n      mstore\n        /* \"#utility.yul\":1013:1144   */\n      tag_65\n        /* \"#utility.yul\":1139:1143   */\n      dup2\n        /* \"#utility.yul\":1013:1144   */\n      tag_42\n      jump\t// in\n    tag_65:\n        /* \"#utility.yul\":1005:1144   */\n      swap1\n      pop\n        /* \"#utility.yul\":732:1151   */\n      swap2\n      swap1\n      pop\n      jump\t// out\n        /* \"#utility.yul\":1157:1304   */\n    tag_43:\n        /* \"#utility.yul\":1258:1269   */\n      0x00\n        /* \"#utility.yul\":1295:1298   */\n      dup2\n        /* \"#utility.yul\":1280:1298   */\n      swap1\n      pop\n        /* \"#utility.yul\":1157:1304   */\n      swap3\n      swap2\n      pop\n      pop\n      jump\t// out\n        /* \"#utility.yul\":1310:1458   */\n    tag_44:\n        /* \"#utility.yul\":1408:1414   */\n      dup3\n        /* \"#utility.yul\":1403:1406   */\n      dup2\n        /* \"#utility.yul\":1398:1401   */\n      dup4\n        /* \"#utility.yul\":1385:1415   */\n      calldatacopy\n        /* \"#utility.yul\":1449:1450   */\n      0x00\n        /* \"#utility.yul\":1440:1446   */\n      dup4\n        /* \"#utility.yul\":1435:1438   */\n      dup4\n        /* \"#utility.yul\":1431:1447   */\n      add\n        /* \"#utility.yul\":1424:1451   */\n      mstore\n        /* \"#utility.yul\":1310:1458   */\n      pop\n      pop\n      pop\n      jump\t// out\n        /* \"#utility.yul\":1486:1813   */\n    tag_45:\n        /* \"#utility.yul\":1600:1603   */\n      0x00\n        /* \"#utility.yul\":1621:1709   */\n      tag_69\n        /* \"#utility.yul\":1702:1708   */\n      dup4\n        /* \"#utility.yul\":1697:1700   */\n      dup6\n        /* \"#utility.yul\":1621:1709   */\n      tag_43\n      jump\t// in\n    tag_69:\n        /* \"#utility.yul\":1614:1709   */\n      swap4\n      pop\n        /* \"#utility.yul\":1719:1775   */\n      tag_70\n        /* \"#utility.yul\":1768:1774   */\n      dup4\n        /* \"#utility.yul\":1763:1766   */\n      dup6\n        /* \"#utility.yul\":1756:1761   */\n      dup5\n        /* \"#utility.yul\":1719:1775   */\n      tag_44\n      jump\t// in\n    tag_70:\n        /* \"#utility.yul\":1800:1806   */\n      dup3\n        /* \"#utility.yul\":1795:1798   */\n      dup5\n        /* \"#utility.yul\":1791:1807   */\n      add\n        /* \"#utility.yul\":1784:1807   */\n      swap1\n      pop\n        /* \"#utility.yul\":1486:1813   */\n      swap4\n      swap3\n      pop\n      pop\n      pop\n      jump\t// out\n        /* \"#utility.yul\":1819:2110   */\n    tag_14:\n        /* \"#utility.yul\":1959:1962   */\n      0x00\n        /* \"#utility.yul\":1981:2084   */\n      tag_72\n        /* \"#utility.yul\":2080:2083   */\n      dup3\n        /* \"#utility.yul\":2071:2077   */\n      dup5\n        /* \"#utility.yul\":2063:2069   */\n      dup7\n        /* \"#utility.yul\":1981:2084   */\n      tag_45\n      jump\t// in\n    tag_72:\n        /* \"#utility.yul\":1974:2084   */\n      swap2\n      pop\n        /* \"#utility.yul\":2101:2104   */\n      dup2\n        /* \"#utility.yul\":2094:2104   */\n      swap1\n      pop\n        /* \"#utility.yul\":1819:2110   */\n      swap4\n      swap3\n      pop\n      pop\n      pop\n      jump\t// out\n        /* \"#utility.yul\":2116:2285   */\n    tag_46:\n        /* \"#utility.yul\":2256:2277   */\n      0x44656c656761746563616c6c206661696c656400000000000000000000000000\n        /* \"#utility.yul\":2252:2253   */\n      0x00\n        /* \"#utility.yul\":2244:2250   */\n      dup3\n        /* \"#utility.yul\":2240:2254   */\n      add\n        /* \"#utility.yul\":2233:2278   */\n      mstore\n        /* \"#utility.yul\":2116:2285   */\n      pop\n      jump\t// out\n        /* \"#utility.yul\":2291:2657   */\n    tag_47:\n        /* \"#utility.yul\":2433:2436   */\n      0x00\n        /* \"#utility.yul\":2454:2521   */\n      tag_75\n        /* \"#utility.yul\":2518:2520   */\n      0x13\n        /* \"#utility.yul\":2513:2516   */\n      dup4\n        /* \"#utility.yul\":2454:2521   */\n      tag_40\n      jump\t// in\n    tag_75:\n        /* \"#utility.yul\":2447:2521   */\n      swap2\n      pop\n        /* \"#utility.yul\":2530:2623   */\n      tag_76\n        /* \"#utility.yul\":2619:2622   */\n      dup3\n        /* \"#utility.yul\":2530:2623   */\n      tag_46\n      jump\t// in\n    tag_76:\n        /* \"#utility.yul\":2648:2650   */\n      0x20\n        /* \"#utility.yul\":2643:2646   */\n      dup3\n        /* \"#utility.yul\":2639:2651   */\n      add\n        /* \"#utility.yul\":2632:2651   */\n      swap1\n      pop\n        /* \"#utility.yul\":2291:2657   */\n      swap2\n      swap1\n      pop\n      jump\t// out\n        /* \"#utility.yul\":2663:3082   */\n    tag_20:\n        /* \"#utility.yul\":2829:2833   */\n      0x00\n        /* \"#utility.yul\":2867:2869   */\n      0x20\n        /* \"#utility.yul\":2856:2865   */\n      dup3\n        /* \"#utility.yul\":2852:2870   */\n      add\n        /* \"#utility.yul\":2844:2870   */\n      swap1\n      pop\n        /* \"#utility.yul\":2916:2925   */\n      dup2\n        /* \"#utility.yul\":2910:2914   */\n      dup2\n        /* \"#utility.yul\":2906:2926   */\n      sub\n        /* \"#utility.yul\":2902:2903   */\n      0x00\n        /* \"#utility.yul\":2891:2900   */\n      dup4\n        /* \"#utility.yul\":2887:2904   */\n      add\n        /* \"#utility.yul\":2880:2927   */\n      mstore\n        /* \"#utility.yul\":2944:3075   */\n      tag_78\n        /* \"#utility.yul\":3070:3074   */\n      dup2\n        /* \"#utility.yul\":2944:3075   */\n      tag_47\n      jump\t// in\n    tag_78:\n        /* \"#utility.yul\":2936:3075   */\n      swap1\n      pop\n        /* \"#utility.yul\":2663:3082   */\n      swap2\n      swap1\n      pop\n      jump\t// out\n        /* \"#utility.yul\":3169:3286   */\n    tag_49:\n        /* \"#utility.yul\":3278:3279   */\n      0x00\n        /* \"#utility.yul\":3275:3276   */\n      0x00\n        /* \"#utility.yul\":3268:3280   */\n      revert\n        /* \"#utility.yul\":3415:3541   */\n    tag_51:\n        /* \"#utility.yul\":3452:3459   */\n      0x00\n        /* \"#utility.yul\":3492:3534   */\n      0xffffffffffffffffffffffffffffffffffffffff\n        /* \"#utility.yul\":3485:3490   */\n      dup3\n        /* \"#utility.yul\":3481:3535   */\n      and\n        /* \"#utility.yul\":3470:3535   */\n      swap1\n      pop\n        /* \"#utility.yul\":3415:3541   */\n      swap2\n      swap1\n      pop\n      jump\t// out\n        /* \"#utility.yul\":3547:3643   */\n    tag_52:\n        /* \"#utility.yul\":3584:3591   */\n      0x00\n        /* \"#utility.yul\":3613:3637   */\n      tag_84\n        /* \"#utility.yul\":3631:3636   */\n      dup3\n        /* \"#utility.yul\":3613:3637   */\n      tag_51\n      jump\t// in\n    tag_84:\n        /* \"#utility.yul\":3602:3637   */\n      swap1\n      pop\n        /* \"#utility.yul\":3547:3643   */\n      swap2\n      swap1\n      pop\n      jump\t// out\n        /* \"#utility.yul\":3649:3771   */\n    tag_53:\n        /* \"#utility.yul\":3722:3746   */\n      tag_86\n        /* \"#utility.yul\":3740:3745   */\n      dup2\n        /* \"#utility.yul\":3722:3746   */\n      tag_52\n      jump\t// in\n    tag_86:\n        /* \"#utility.yul\":3715:3720   */\n      dup2\n        /* \"#utility.yul\":3712:3747   */\n      eq\n        /* \"#utility.yul\":3702:3765   */\n      tag_87\n      jumpi\n        /* \"#utility.yul\":3761:3762   */\n      0x00\n        /* \"#utility.yul\":3758:3759   */\n      0x00\n        /* \"#utility.yul\":3751:3763   */\n      revert\n        /* \"#utility.yul\":3702:3765   */\n    tag_87:\n        /* \"#utility.yul\":3649:3771   */\n      pop\n      jump\t// out\n        /* \"#utility.yul\":3777:3916   */\n    tag_54:\n        /* \"#utility.yul\":3823:3828   */\n      0x00\n        /* \"#utility.yul\":3861:3867   */\n      dup2\n        /* \"#utility.yul\":3848:3868   */\n      calldataload\n        /* \"#utility.yul\":3839:3868   */\n      swap1\n      pop\n        /* \"#utility.yul\":3877:3910   */\n      tag_89\n        /* \"#utility.yul\":3904:3909   */\n      dup2\n        /* \"#utility.yul\":3877:3910   */\n      tag_53\n      jump\t// in\n    tag_89:\n        /* \"#utility.yul\":3777:3916   */\n      swap3\n      swap2\n      pop\n      pop\n      jump\t// out\n        /* \"#utility.yul\":3922:4251   */\n    tag_24:\n        /* \"#utility.yul\":3981:3987   */\n      0x00\n        /* \"#utility.yul\":4030:4032   */\n      0x20\n        /* \"#utility.yul\":4018:4027   */\n      dup3\n        /* \"#utility.yul\":4009:4016   */\n      dup5\n        /* \"#utility.yul\":4005:4028   */\n      sub\n        /* \"#utility.yul\":4001:4033   */\n      slt\n        /* \"#utility.yul\":3998:4117   */\n      iszero\n      tag_91\n      jumpi\n        /* \"#utility.yul\":4036:4115   */\n      tag_92\n      tag_49\n      jump\t// in\n    tag_92:\n        /* \"#utility.yul\":3998:4117   */\n    tag_91:\n        /* \"#utility.yul\":4156:4157   */\n      0x00\n        /* \"#utility.yul\":4181:4234   */\n      tag_93\n        /* \"#utility.yul\":4226:4233   */\n      dup5\n        /* \"#utility.yul\":4217:4223   */\n      dup3\n        /* \"#utility.yul\":4206:4215   */\n      dup6\n        /* \"#utility.yul\":4202:4224   */\n      add\n        /* \"#utility.yul\":4181:4234   */\n      tag_54\n      jump\t// in\n    tag_93:\n        /* \"#utility.yul\":4171:4234   */\n      swap2\n      pop\n        /* \"#utility.yul\":4127:4244   */\n      pop\n        /* \"#utility.yul\":3922:4251   */\n      swap3\n      swap2\n      pop\n      pop\n      jump\t// out\n        /* \"#utility.yul\":4257:4375   */\n    tag_55:\n        /* \"#utility.yul\":4344:4368   */\n      tag_95\n        /* \"#utility.yul\":4362:4367   */\n      dup2\n        /* \"#utility.yul\":4344:4368   */\n      tag_52\n      jump\t// in\n    tag_95:\n        /* \"#utility.yul\":4339:4342   */\n      dup3\n        /* \"#utility.yul\":4332:4369   */\n      mstore\n        /* \"#utility.yul\":4257:4375   */\n      pop\n      pop\n      jump\t// out\n        /* \"#utility.yul\":4381:4603   */\n    tag_30:\n        /* \"#utility.yul\":4474:4478   */\n      0x00\n        /* \"#utility.yul\":4512:4514   */\n      0x20\n        /* \"#utility.yul\":4501:4510   */\n      dup3\n        /* \"#utility.yul\":4497:4515   */\n      add\n        /* \"#utility.yul\":4489:4515   */\n      swap1\n      pop\n        /* \"#utility.yul\":4525:4596   */\n      tag_97\n        /* \"#utility.yul\":4593:4594   */\n      0x00\n        /* \"#utility.yul\":4582:4591   */\n      dup4\n        /* \"#utility.yul\":4578:4595   */\n      add\n        /* \"#utility.yul\":4569:4575   */\n      dup5\n        /* \"#utility.yul\":4525:4596   */\n      tag_55\n      jump\t// in\n    tag_97:\n        /* \"#utility.yul\":4381:4603   */\n      swap3\n      swap2\n      pop\n      pop\n      jump\t// out\n        /* \"#utility.yul\":4609:4768   */\n    tag_56:\n        /* \"#utility.yul\":4749:4760   */\n      0x4e6f742061646d696e0000000000000000000000000000000000000000000000\n        /* \"#utility.yul\":4745:4746   */\n      0x00\n        /* \"#utility.yul\":4737:4743   */\n      dup3\n        /* \"#utility.yul\":4733:4747   */\n      add\n        /* \"#utility.yul\":4726:4761   */\n      mstore\n        /* \"#utility.yul\":4609:4768   */\n      pop\n      jump\t// out\n        /* \"#utility.yul\":4774:5139   */\n    tag_57:\n        /* \"#utility.yul\":4916:4919   */\n      0x00\n        /* \"#utility.yul\":4937:5003   */\n      tag_100\n        /* \"#utility.yul\":5001:5002   */\n      0x09\n        /* \"#utility.yul\":4996:4999   */\n      dup4\n        /* \"#utility.yul\":4937:5003   */\n      tag_40\n      jump\t// in\n    tag_100:\n        /* \"#utility.yul\":4930:5003   */\n      swap2\n      pop\n        /* \"#utility.yul\":5012:5105   */\n      tag_101\n        /* \"#utility.yul\":5101:5104   */\n      dup3\n        /* \"#utility.yul\":5012:5105   */\n      tag_56\n      jump\t// in\n    tag_101:\n        /* \"#utility.yul\":5130:5132   */\n      0x20\n        /* \"#utility.yul\":5125:5128   */\n      dup3\n        /* \"#utility.yul\":5121:5133   */\n      add\n        /* \"#utility.yul\":5114:5133   */\n      swap1\n      pop\n        /* \"#utility.yul\":4774:5139   */\n      swap2\n      swap1\n      pop\n      jump\t// out\n        /* \"#utility.yul\":5145:5564   */\n    tag_38:\n        /* \"#utility.yul\":5311:5315   */\n      0x00\n        /* \"#utility.yul\":5349:5351   */\n      0x20\n        /* \"#utility.yul\":5338:5347   */\n      dup3\n        /* \"#utility.yul\":5334:5352   */\n      add\n        /* \"#utility.yul\":5326:5352   */\n      swap1\n      pop\n        /* \"#utility.yul\":5398:5407   */\n      dup2\n        /* \"#utility.yul\":5392:5396   */\n      dup2\n        /* \"#utility.yul\":5388:5408   */\n      sub\n        /* \"#utility.yul\":5384:5385   */\n      0x00\n        /* \"#utility.yul\":5373:5382   */\n      dup4\n        /* \"#utility.yul\":5369:5386   */\n      add\n        /* \"#utility.yul\":5362:5409   */\n      mstore\n        /* \"#utility.yul\":5426:5557   */\n      tag_103\n        /* \"#utility.yul\":5552:5556   */\n      dup2\n        /* \"#utility.yul\":5426:5557   */\n      tag_57\n      jump\t// in\n    tag_103:\n        /* \"#utility.yul\":5418:5557   */\n      swap1\n      pop\n        /* \"#utility.yul\":5145:5564   */\n      swap2\n      swap1\n      pop\n      jump\t// out\n\n    auxdata: 0xa264697066735822122065003235093065c06b98be5b6b18b3c9e9048278b54a85e5a9143393d707f34264736f6c634300081d0033\n}\n",
				"bytecode": {
					"linkReferences": {},
					"object": "608060405234801561000f575f5ffd5b506040516106e83803806106e883398181016040528101906100319190610114565b3360015f6101000a81548173ffffffffffffffffffffffffffffffffffffffff021916908373ffffffffffffffffffffffffffffffffffffffff160217905550805f5f6101000a81548173ffffffffffffffffffffffffffffffffffffffff021916908373ffffffffffffffffffffffffffffffffffffffff1602179055505061013f565b5f5ffd5b5f73ffffffffffffffffffffffffffffffffffffffff82169050919050565b5f6100e3826100ba565b9050919050565b6100f3816100d9565b81146100fd575f5ffd5b50565b5f8151905061010e816100ea565b92915050565b5f60208284031215610129576101286100b6565b5b5f61013684828501610100565b91505092915050565b61059c8061014c5f395ff3fe608060405260043610610037575f3560e01c80630900f010146101835780635c60da1b146101ab578063f851a440146101d55761003e565b3661003e57005b5f5f5f9054906101000a900473ffffffffffffffffffffffffffffffffffffffff1690505f73ffffffffffffffffffffffffffffffffffffffff168173ffffffffffffffffffffffffffffffffffffffff16036100d0576040517f08c379a00000000000000000000000000000000000000000000000000000000081526004016100c790610373565b60405180910390fd5b5f5f8273ffffffffffffffffffffffffffffffffffffffff165f366040516100f99291906103cd565b5f60405180830381855af49150503d805f8114610131576040519150601f19603f3d011682016040523d82523d5f602084013e610136565b606091505b50915091508161017b576040517f08c379a00000000000000000000000000000000000000000000000000000000081526004016101729061042f565b60405180910390fd5b805160208201f35b34801561018e575f5ffd5b506101a960048036038101906101a491906104ab565b6101ff565b005b3480156101b6575f5ffd5b506101bf6102d0565b6040516101cc91906104e5565b60405180910390f35b3480156101e0575f5ffd5b506101e96102f4565b6040516101f691906104e5565b60405180910390f35b60015f9054906101000a900473ffffffffffffffffffffffffffffffffffffffff1673ffffffffffffffffffffffffffffffffffffffff163373ffffffffffffffffffffffffffffffffffffffff161461028e576040517f08c379a000000000000000000000000000000000000000000000000000000000815260040161028590610548565b60405180910390fd5b805f5f6101000a81548173ffffffffffffffffffffffffffffffffffffffff021916908373ffffffffffffffffffffffffffffffffffffffff16021790555050565b5f5f9054906101000a900473ffffffffffffffffffffffffffffffffffffffff1681565b60015f9054906101000a900473ffffffffffffffffffffffffffffffffffffffff1681565b5f82825260208201905092915050565b7f496d706c656d656e746174696f6e206e6f7420736574000000000000000000005f82015250565b5f61035d601683610319565b915061036882610329565b602082019050919050565b5f6020820190508181035f83015261038a81610351565b9050919050565b5f81905092915050565b828183375f83830152505050565b5f6103b48385610391565b93506103c183858461039b565b82840190509392505050565b5f6103d98284866103a9565b91508190509392505050565b7f44656c656761746563616c6c206661696c6564000000000000000000000000005f82015250565b5f610419601383610319565b9150610424826103e5565b602082019050919050565b5f6020820190508181035f8301526104468161040d565b9050919050565b5f5ffd5b5f73ffffffffffffffffffffffffffffffffffffffff82169050919050565b5f61047a82610451565b9050919050565b61048a81610470565b8114610494575f5ffd5b50565b5f813590506104a581610481565b92915050565b5f602082840312156104c0576104bf61044d565b5b5f6104cd84828501610497565b91505092915050565b6104df81610470565b82525050565b5f6020820190506104f85f8301846104d6565b92915050565b7f4e6f742061646d696e00000000000000000000000000000000000000000000005f82015250565b5f610532600983610319565b915061053d826104fe565b602082019050919050565b5f6020820190508181035f83015261055f81610526565b905091905056fea264697066735822122065003235093065c06b98be5b6b18b3c9e9048278b54a85e5a9143393d707f34264736f6c634300081d0033",
					"opcodes": "PUSH1 0x80 PUSH1 0x40 MSTORE CALLVALUE DUP1 ISZERO PUSH2 0xF JUMPI PUSH0 PUSH0 REVERT JUMPDEST POP PUSH1 0x40 MLOAD PUSH2 0x6E8 CODESIZE SUB DUP1 PUSH2 0x6E8 DUP4 CODECOPY DUP2 DUP2 ADD PUSH1 0x40 MSTORE DUP2 ADD SWAP1 PUSH2 0x31 SWAP2 SWAP1 PUSH2 0x114 JUMP JUMPDEST CALLER PUSH1 0x1 PUSH0 PUSH2 0x100 EXP DUP2 SLOAD DUP2 PUSH20 0xFFFFFFFFFFFFFFFFFFFFFFFFFFFFFFFFFFFFFFFF MUL NOT AND SWAP1 DUP4 PUSH20 0xFFFFFFFFFFFFFFFFFFFFFFFFFFFFFFFFFFFFFFFF AND MUL OR SWAP1 SSTORE POP DUP1 PUSH0 PUSH0 PUSH2 0x100 EXP DUP2 SLOAD DUP2 PUSH20 0xFFFFFFFFFFFFFFFFFFFFFFFFFFFFFFFFFFFFFFFF MUL NOT AND SWAP1 DUP4 PUSH20 0xFFFFFFFFFFFFFFFFFFFFFFFFFFFFFFFFFFFFFFFF AND MUL OR SWAP1 SSTORE POP POP PUSH2 0x13F JUMP JUMPDEST PUSH0 PUSH0 REVERT JUMPDEST PUSH0 PUSH20 0xFFFFFFFFFFFFFFFFFFFFFFFFFFFFFFFFFFFFFFFF DUP3 AND SWAP1 POP SWAP2 SWAP1 POP JUMP JUMPDEST PUSH0 PUSH2 0xE3 DUP3 PUSH2 0xBA JUMP JUMPDEST SWAP1 POP SWAP2 SWAP1 POP JUMP JUMPDEST PUSH2 0xF3 DUP2 PUSH2 0xD9 JUMP JUMPDEST DUP2 EQ PUSH2 0xFD JUMPI PUSH0 PUSH0 REVERT JUMPDEST POP JUMP JUMPDEST PUSH0 DUP2 MLOAD SWAP1 POP PUSH2 0x10E DUP2 PUSH2 0xEA JUMP JUMPDEST SWAP3 SWAP2 POP POP JUMP JUMPDEST PUSH0 PUSH1 0x20 DUP3 DUP5 SUB SLT ISZERO PUSH2 0x129 JUMPI PUSH2 0x128 PUSH2 0xB6 JUMP JUMPDEST JUMPDEST PUSH0 PUSH2 0x136 DUP5 DUP3 DUP6 ADD PUSH2 0x100 JUMP JUMPDEST SWAP2 POP POP SWAP3 SWAP2 POP POP JUMP JUMPDEST PUSH2 0x59C DUP1 PUSH2 0x14C PUSH0 CODECOPY PUSH0 RETURN INVALID PUSH1 0x80 PUSH1 0x40 MSTORE PUSH1 0x4 CALLDATASIZE LT PUSH2 0x37 JUMPI PUSH0 CALLDATALOAD PUSH1 0xE0 SHR DUP1 PUSH4 0x900F010 EQ PUSH2 0x183 JUMPI DUP1 PUSH4 0x5C60DA1B EQ PUSH2 0x1AB JUMPI DUP1 PUSH4 0xF851A440 EQ PUSH2 0x1D5 JUMPI PUSH2 0x3E JUMP JUMPDEST CALLDATASIZE PUSH2 0x3E JUMPI STOP JUMPDEST PUSH0 PUSH0 PUSH0 SWAP1 SLOAD SWAP1 PUSH2 0x100 EXP SWAP1 DIV PUSH20 0xFFFFFFFFFFFFFFFFFFFFFFFFFFFFFFFFFFFFFFFF AND SWAP1 POP PUSH0 PUSH20 0xFFFFFFFFFFFFFFFFFFFFFFFFFFFFFFFFFFFFFFFF AND DUP2 PUSH20 0xFFFFFFFFFFFFFFFFFFFFFFFFFFFFFFFFFFFFFFFF AND SUB PUSH2 0xD0 JUMPI PUSH1 0x40 MLOAD PUSH32 0x8C379A000000000000000000000000000000000000000000000000000000000 DUP2 MSTORE PUSH1 0x4 ADD PUSH2 0xC7 SWAP1 PUSH2 0x373 JUMP JUMPDEST PUSH1 0x40 MLOAD DUP1 SWAP2 SUB SWAP1 REVERT JUMPDEST PUSH0 PUSH0 DUP3 PUSH20 0xFFFFFFFFFFFFFFFFFFFFFFFFFFFFFFFFFFFFFFFF AND PUSH0 CALLDATASIZE PUSH1 0x40 MLOAD PUSH2 0xF9 SWAP3 SWAP2 SWAP1 PUSH2 0x3CD JUMP JUMPDEST PUSH0 PUSH1 0x40 MLOAD DUP1 DUP4 SUB DUP2 DUP6 GAS DELEGATECALL SWAP2 POP POP RETURNDATASIZE DUP1 PUSH0 DUP2 EQ PUSH2 0x131 JUMPI PUSH1 0x40 MLOAD SWAP2 POP PUSH1 0x1F NOT PUSH1 0x3F RETURNDATASIZE ADD AND DUP3 ADD PUSH1 0x40 MSTORE RETURNDATASIZE DUP3 MSTORE RETURNDATASIZE PUSH0 PUSH1 0x20 DUP5 ADD RETURNDATACOPY PUSH2 0x136 JUMP JUMPDEST PUSH1 0x60 SWAP2 POP JUMPDEST POP SWAP2 POP SWAP2 POP DUP2 PUSH2 0x17B JUMPI PUSH1 0x40 MLOAD PUSH32 0x8C379A000000000000000000000000000000000000000000000000000000000 DUP2 MSTORE PUSH1 0x4 ADD PUSH2 0x172 SWAP1 PUSH2 0x42F JUMP JUMPDEST PUSH1 0x40 MLOAD DUP1 SWAP2 SUB SWAP1 REVERT JUMPDEST DUP1 MLOAD PUSH1 0x20 DUP3 ADD RETURN JUMPDEST CALLVALUE DUP1 ISZERO PUSH2 0x18E JUMPI PUSH0 PUSH0 REVERT JUMPDEST POP PUSH2 0x1A9 PUSH1 0x4 DUP1 CALLDATASIZE SUB DUP2 ADD SWAP1 PUSH2 0x1A4 SWAP2 SWAP1 PUSH2 0x4AB JUMP JUMPDEST PUSH2 0x1FF JUMP JUMPDEST STOP JUMPDEST CALLVALUE DUP1 ISZERO PUSH2 0x1B6 JUMPI PUSH0 PUSH0 REVERT JUMPDEST POP PUSH2 0x1BF PUSH2 0x2D0 JUMP JUMPDEST PUSH1 0x40 MLOAD PUSH2 0x1CC SWAP2 SWAP1 PUSH2 0x4E5 JUMP JUMPDEST PUSH1 0x40 MLOAD DUP1 SWAP2 SUB SWAP1 RETURN JUMPDEST CALLVALUE DUP1 ISZERO PUSH2 0x1E0 JUMPI PUSH0 PUSH0 REVERT JUMPDEST POP PUSH2 0x1E9 PUSH2 0x2F4 JUMP JUMPDEST PUSH1 0x40 MLOAD PUSH2 0x1F6 SWAP2 SWAP1 PUSH2 0x4E5 JUMP JUMPDEST PUSH1 0x40 MLOAD DUP1 SWAP2 SUB SWAP1 RETURN JUMPDEST PUSH1 0x1 PUSH0 SWAP1 SLOAD SWAP1 PUSH2 0x100 EXP SWAP1 DIV PUSH20 0xFFFFFFFFFFFFFFFFFFFFFFFFFFFFFFFFFFFFFFFF AND PUSH20 0xFFFFFFFFFFFFFFFFFFFFFFFFFFFFFFFFFFFFFFFF AND CALLER PUSH20 0xFFFFFFFFFFFFFFFFFFFFFFFFFFFFFFFFFFFFFFFF AND EQ PUSH2 0x28E JUMPI PUSH1 0x40 MLOAD PUSH32 0x8C379A000000000000000000000000000000000000000000000000000000000 DUP2 MSTORE PUSH1 0x4 ADD PUSH2 0x285 SWAP1 PUSH2 0x548 JUMP JUMPDEST PUSH1 0x40 MLOAD DUP1 SWAP2 SUB SWAP1 REVERT JUMPDEST DUP1 PUSH0 PUSH0 PUSH2 0x100 EXP DUP2 SLOAD DUP2 PUSH20 0xFFFFFFFFFFFFFFFFFFFFFFFFFFFFFFFFFFFFFFFF MUL NOT AND SWAP1 DUP4 PUSH20 0xFFFFFFFFFFFFFFFFFFFFFFFFFFFFFFFFFFFFFFFF AND MUL OR SWAP1 SSTORE POP POP JUMP JUMPDEST PUSH0 PUSH0 SWAP1 SLOAD SWAP1 PUSH2 0x100 EXP SWAP1 DIV PUSH20 0xFFFFFFFFFFFFFFFFFFFFFFFFFFFFFFFFFFFFFFFF AND DUP2 JUMP JUMPDEST PUSH1 0x1 PUSH0 SWAP1 SLOAD SWAP1 PUSH2 0x100 EXP SWAP1 DIV PUSH20 0xFFFFFFFFFFFFFFFFFFFFFFFFFFFFFFFFFFFFFFFF AND DUP2 JUMP JUMPDEST PUSH0 DUP3 DUP3 MSTORE PUSH1 0x20 DUP3 ADD SWAP1 POP SWAP3 SWAP2 POP POP JUMP JUMPDEST PUSH32 0x496D706C656D656E746174696F6E206E6F742073657400000000000000000000 PUSH0 DUP3 ADD MSTORE POP JUMP JUMPDEST PUSH0 PUSH2 0x35D PUSH1 0x16 DUP4 PUSH2 0x319 JUMP JUMPDEST SWAP2 POP PUSH2 0x368 DUP3 PUSH2 0x329 JUMP JUMPDEST PUSH1 0x20 DUP3 ADD SWAP1 POP SWAP2 SWAP1 POP JUMP JUMPDEST PUSH0 PUSH1 0x20 DUP3 ADD SWAP1 POP DUP2 DUP2 SUB PUSH0 DUP4 ADD MSTORE PUSH2 0x38A DUP2 PUSH2 0x351 JUMP JUMPDEST SWAP1 POP SWAP2 SWAP1 POP JUMP JUMPDEST PUSH0 DUP2 SWAP1 POP SWAP3 SWAP2 POP POP JUMP JUMPDEST DUP3 DUP2 DUP4 CALLDATACOPY PUSH0 DUP4 DUP4 ADD MSTORE POP POP POP JUMP JUMPDEST PUSH0 PUSH2 0x3B4 DUP4 DUP6 PUSH2 0x391 JUMP JUMPDEST SWAP4 POP PUSH2 0x3C1 DUP4 DUP6 DUP5 PUSH2 0x39B JUMP JUMPDEST DUP3 DUP5 ADD SWAP1 POP SWAP4 SWAP3 POP POP POP JUMP JUMPDEST PUSH0 PUSH2 0x3D9 DUP3 DUP5 DUP7 PUSH2 0x3A9 JUMP JUMPDEST SWAP2 POP DUP2 SWAP1 POP SWAP4 SWAP3 POP POP POP JUMP JUMPDEST PUSH32 0x44656C656761746563616C6C206661696C656400000000000000000000000000 PUSH0 DUP3 ADD MSTORE POP JUMP JUMPDEST PUSH0 PUSH2 0x419 PUSH1 0x13 DUP4 PUSH2 0x319 JUMP JUMPDEST SWAP2 POP PUSH2 0x424 DUP3 PUSH2 0x3E5 JUMP JUMPDEST PUSH1 0x20 DUP3 ADD SWAP1 POP SWAP2 SWAP1 POP JUMP JUMPDEST PUSH0 PUSH1 0x20 DUP3 ADD SWAP1 POP DUP2 DUP2 SUB PUSH0 DUP4 ADD MSTORE PUSH2 0x446 DUP2 PUSH2 0x40D JUMP JUMPDEST SWAP1 POP SWAP2 SWAP1 POP JUMP JUMPDEST PUSH0 PUSH0 REVERT JUMPDEST PUSH0 PUSH20 0xFFFFFFFFFFFFFFFFFFFFFFFFFFFFFFFFFFFFFFFF DUP3 AND SWAP1 POP SWAP2 SWAP1 POP JUMP JUMPDEST PUSH0 PUSH2 0x47A DUP3 PUSH2 0x451 JUMP JUMPDEST SWAP1 POP SWAP2 SWAP1 POP JUMP JUMPDEST PUSH2 0x48A DUP2 PUSH2 0x470 JUMP JUMPDEST DUP2 EQ PUSH2 0x494 JUMPI PUSH0 PUSH0 REVERT JUMPDEST POP JUMP JUMPDEST PUSH0 DUP2 CALLDATALOAD SWAP1 POP PUSH2 0x4A5 DUP2 PUSH2 0x481 JUMP JUMPDEST SWAP3 SWAP2 POP POP JUMP JUMPDEST PUSH0 PUSH1 0x20 DUP3 DUP5 SUB SLT ISZERO PUSH2 0x4C0 JUMPI PUSH2 0x4BF PUSH2 0x44D JUMP JUMPDEST JUMPDEST PUSH0 PUSH2 0x4CD DUP5 DUP3 DUP6 ADD PUSH2 0x497 JUMP JUMPDEST SWAP2 POP POP SWAP3 SWAP2 POP POP JUMP JUMPDEST PUSH2 0x4DF DUP2 PUSH2 0x470 JUMP JUMPDEST DUP3 MSTORE POP POP JUMP JUMPDEST PUSH0 PUSH1 0x20 DUP3 ADD SWAP1 POP PUSH2 0x4F8 PUSH0 DUP4 ADD DUP5 PUSH2 0x4D6 JUMP JUMPDEST SWAP3 SWAP2 POP POP JUMP JUMPDEST PUSH32 0x4E6F742061646D696E0000000000000000000000000000000000000000000000 PUSH0 DUP3 ADD MSTORE POP JUMP JUMPDEST PUSH0 PUSH2 0x532 PUSH1 0x9 DUP4 PUSH2 0x319 JUMP JUMPDEST SWAP2 POP PUSH2 0x53D DUP3 PUSH2 0x4FE JUMP JUMPDEST PUSH1 0x20 DUP3 ADD SWAP1 POP SWAP2 SWAP1 POP JUMP JUMPDEST PUSH0 PUSH1 0x20 DUP3 ADD SWAP1 POP DUP2 DUP2 SUB PUSH0 DUP4 ADD MSTORE PUSH2 0x55F DUP2 PUSH2 0x526 JUMP JUMPDEST SWAP1 POP SWAP2 SWAP1 POP JUMP INVALID LOG2 PUSH5 0x6970667358 0x22 SLT KECCAK256 PUSH6 0x3235093065 0xC0 PUSH12 0x98BE5B6B18B3C9E9048278B5 BLOBBASEFEE DUP6 JUMPF 0xA914 CALLER SWAP4 0xD7 SMOD RETURN TIMESTAMP PUSH5 0x736F6C6343 STOP ADDMOD SAR STOP CALLER "
				},
				"gasEstimates": {
					"creation": {
						"codeDepositCost": "287200",
						"executionCost": "infinite",
						"totalCost": "infinite"
					},
					"external": {
						"": "infinite",
						"admin()": "2530",
						"implementation()": "2507",
						"upgrade(address)": "26861"
					}
				},
				"methodIdentifiers": {
					"admin()": "f851a440",
					"implementation()": "5c60da1b",
					"upgrade(address)": "0900f010"
				}
			},
			"storageLayout": {
				"storage": [
					{
						"astId": 3,
						"contract": "contracts/core/VeloBrain.sol:Proxy",
						"label": "implementation",
						"offset": 0,
						"slot": "0",
						"type": "t_address"
					},
					{
						"astId": 5,
						"contract": "contracts/core/VeloBrain.sol:Proxy",
						"label": "admin",
						"offset": 0,
						"slot": "1",
						"type": "t_address"
					}
				],
				"types": {
					"t_address": {
						"encoding": "inplace",
						"label": "address",
						"numberOfBytes": "20"
					}
				}
			},
			"userdoc": {
				"kind": "user",
				"methods": {},
				"version": 1
			}
		}
	}
}