{
	"contracts/core/VeloDeposit.sol": {
		"V3Bot": {
			"abi": [
				{
					"inputs": [],
					"stateMutability": "nonpayable",
					"type": "constructor"
				},
				{
					"anonymous": false,
					"inputs": [
						{
							"indexed": true,
							"internalType": "address",
							"name": "user",
							"type": "address"
						},
						{
							"indexed": false,
							"internalType": "uint256",
							"name": "amountIn",
							"type": "uint256"
						},
						{
							"indexed": false,
							"internalType": "uint256",
							"name": "amountOut",
							"type": "uint256"
						}
					],
					"name": "SwapExecuted",
					"type": "event"
				},
				{
					"inputs": [
						{
							"internalType": "address",
							"name": "newAdmin",
							"type": "address"
						}
					],
					"name": "_newAdmin",
					"outputs": [],
					"stateMutability": "nonpayable",
					"type": "function"
				},
				{
					"inputs": [
						{
							"internalType": "address",
							"name": "newPool",
							"type": "address"
						}
					],
					"name": "_newPool",
					"outputs": [],
					"stateMutability": "nonpayable",
					"type": "function"
				},
				{
					"inputs": [
						{
							"internalType": "int24",
							"name": "newSpaceMultiplier",
							"type": "int24"
						}
					],
					"name": "_newSpaceMultiplier",
					"outputs": [],
					"stateMutability": "nonpayable",
					"type": "function"
				},
				{
					"inputs": [
						{
							"internalType": "address",
							"name": "Token",
							"type": "address"
						}
					],
					"name": "_transferToAdmin",
					"outputs": [],
					"stateMutability": "nonpayable",
					"type": "function"
				},
				{
					"inputs": [
						{
							"internalType": "uint256",
							"name": "token0Amount",
							"type": "uint256"
						}
					],
					"name": "addLiquidity",
					"outputs": [],
					"stateMutability": "payable",
					"type": "function"
				},
				{
					"inputs": [],
					"name": "admin",
					"outputs": [
						{
							"internalType": "address",
							"name": "",
							"type": "address"
						}
					],
					"stateMutability": "view",
					"type": "function"
				},
				{
					"inputs": [
						{
							"internalType": "uint256",
							"name": "",
							"type": "uint256"
						}
					],
					"name": "deposits",
					"outputs": [
						{
							"internalType": "address",
							"name": "owner",
							"type": "address"
						},
						{
							"internalType": "uint128",
							"name": "liquidity",
							"type": "uint128"
						},
						{
							"internalType": "address",
							"name": "token0",
							"type": "address"
						},
						{
							"internalType": "address",
							"name": "token1",
							"type": "address"
						}
					],
					"stateMutability": "view",
					"type": "function"
				},
				{
					"inputs": [],
					"name": "farmNFT",
					"outputs": [
						{
							"internalType": "address",
							"name": "",
							"type": "address"
						}
					],
					"stateMutability": "view",
					"type": "function"
				},
				{
					"inputs": [],
					"name": "getTicks",
					"outputs": [
						{
							"internalType": "int24",
							"name": "lowTick",
							"type": "int24"
						},
						{
							"internalType": "int24",
							"name": "highTick",
							"type": "int24"
						}
					],
					"stateMutability": "view",
					"type": "function"
				},
				{
					"inputs": [],
					"name": "oracle",
					"outputs": [
						{
							"internalType": "address",
							"name": "",
							"type": "address"
						}
					],
					"stateMutability": "view",
					"type": "function"
				},
				{
					"inputs": [],
					"name": "pool",
					"outputs": [
						{
							"internalType": "address",
							"name": "",
							"type": "address"
						}
					],
					"stateMutability": "view",
					"type": "function"
				},
				{
					"inputs": [],
					"name": "spaceMultiplier",
					"outputs": [
						{
							"internalType": "int24",
							"name": "",
							"type": "int24"
						}
					],
					"stateMutability": "view",
					"type": "function"
				},
				{
					"inputs": [],
					"name": "tickSpacing",
					"outputs": [
						{
							"internalType": "int24",
							"name": "",
							"type": "int24"
						}
					],
					"stateMutability": "view",
					"type": "function"
				},
				{
					"inputs": [],
					"name": "token0",
					"outputs": [
						{
							"internalType": "address",
							"name": "",
							"type": "address"
						}
					],
					"stateMutability": "view",
					"type": "function"
				},
				{
					"inputs": [],
					"name": "token1",
					"outputs": [
						{
							"internalType": "address",
							"name": "",
							"type": "address"
						}
					],
					"stateMutability": "view",
					"type": "function"
				}
			],
			"devdoc": {
				"kind": "dev",
				"methods": {},
				"version": 1
			},
			"evm": {
				"assembly": "    /* \"contracts/core/VeloDeposit.sol\":1900:5486  contract V3Bot {\r... */\n  mstore(0x40, 0x80)\n    /* \"contracts/core/VeloDeposit.sol\":2200:2266  address public oracle = 0x9465eD15b70E8A534663530C4fCc92E22B8F6032 */\n  0x05\n  dup1\n  sload\n  not(sub(shl(0xa0, 0x01), 0x01))\n  and\n    /* \"contracts/core/VeloDeposit.sol\":2224:2266  0x9465eD15b70E8A534663530C4fCc92E22B8F6032 */\n  0x9465ed15b70e8a534663530c4fcc92e22b8f6032\n    /* \"contracts/core/VeloDeposit.sol\":2200:2266  address public oracle = 0x9465eD15b70E8A534663530C4fCc92E22B8F6032 */\n  or\n  swap1\n  sstore\n    /* \"contracts/core/VeloDeposit.sol\":2546:2597  constructor() {\r... */\n  callvalue\n  dup1\n  iszero\n  tag_1\n  jumpi\n  0x00\n  dup1\n  revert\ntag_1:\n  pop\n    /* \"contracts/core/VeloDeposit.sol\":2571:2576  admin */\n  0x04\n    /* \"contracts/core/VeloDeposit.sol\":2571:2589  admin = msg.sender */\n  dup1\n  sload\n  not(sub(shl(0xa0, 0x01), 0x01))\n  and\n    /* \"contracts/core/VeloDeposit.sol\":2579:2589  msg.sender */\n  caller\n    /* \"contracts/core/VeloDeposit.sol\":2571:2589  admin = msg.sender */\n  or\n  swap1\n  sstore\n    /* \"contracts/core/VeloDeposit.sol\":1900:5486  contract V3Bot {\r... */\n  dataSize(sub_0)\n  dup1\n  dataOffset(sub_0)\n  0x00\n  codecopy\n  0x00\n  return\nstop\n\nsub_0: assembly {\n        /* \"contracts/core/VeloDeposit.sol\":1900:5486  contract V3Bot {\r... */\n      mstore(0x40, 0x80)\n      jumpi(tag_1, lt(calldatasize, 0x04))\n      shr(0xe0, calldataload(0x00))\n      dup1\n      0xb02c43d0\n      gt\n      tag_17\n      jumpi\n      dup1\n      0xda802f80\n      gt\n      tag_18\n      jumpi\n      dup1\n      0xda802f80\n      eq\n      tag_13\n      jumpi\n      dup1\n      0xe6f4d0aa\n      eq\n      tag_14\n      jumpi\n      dup1\n      0xf851a440\n      eq\n      tag_15\n      jumpi\n      dup1\n      0xfd1c1518\n      eq\n      tag_16\n      jumpi\n      jump(tag_1)\n    tag_18:\n      dup1\n      0xb02c43d0\n      eq\n      tag_9\n      jumpi\n      dup1\n      0xd0c93a7c\n      eq\n      tag_10\n      jumpi\n      dup1\n      0xd21220a7\n      eq\n      tag_11\n      jumpi\n      dup1\n      0xd2aca8cd\n      eq\n      tag_12\n      jumpi\n      jump(tag_1)\n    tag_17:\n      dup1\n      0x51c6590a\n      gt\n      tag_19\n      jumpi\n      dup1\n      0x51c6590a\n      eq\n      tag_5\n      jumpi\n      dup1\n      0x6f053890\n      eq\n      tag_6\n      jumpi\n      dup1\n      0x7210468a\n      eq\n      tag_7\n      jumpi\n      dup1\n      0x7dc0d1d0\n      eq\n      tag_8\n      jumpi\n      jump(tag_1)\n    tag_19:\n      dup1\n      0x0dfe1681\n      eq\n      tag_2\n      jumpi\n      dup1\n      0x16f0115b\n      eq\n      tag_3\n      jumpi\n      dup1\n      0x3d1c387b\n      eq\n      tag_4\n      jumpi\n    tag_1:\n      0x00\n      dup1\n      revert\n        /* \"contracts/core/VeloDeposit.sol\":1978:1999  address public token0 */\n    tag_2:\n      callvalue\n      dup1\n      iszero\n      tag_20\n      jumpi\n      0x00\n      dup1\n      revert\n    tag_20:\n      pop\n      tag_21\n      tag_22\n      jump\t// in\n    tag_21:\n      mload(0x40)\n      tag_23\n      swap2\n      swap1\n      tag_24\n      jump\t// in\n    tag_23:\n      mload(0x40)\n      dup1\n      swap2\n      sub\n      swap1\n      return\n        /* \"contracts/core/VeloDeposit.sol\":1922:1941  address public pool */\n    tag_3:\n      callvalue\n      dup1\n      iszero\n      tag_25\n      jumpi\n      0x00\n      dup1\n      revert\n    tag_25:\n      pop\n      tag_21\n      tag_27\n      jump\t// in\n        /* \"contracts/core/VeloDeposit.sol\":3505:3849  function getTicks () public view returns (int24 lowTick, int24 highTick){\r... */\n    tag_4:\n      callvalue\n      dup1\n      iszero\n      tag_29\n      jumpi\n      0x00\n      dup1\n      revert\n    tag_29:\n      pop\n      tag_30\n      tag_31\n      jump\t// in\n    tag_30:\n      mload(0x40)\n      tag_23\n      swap3\n      swap2\n      swap1\n      tag_33\n      jump\t// in\n        /* \"contracts/core/VeloDeposit.sol\":3855:5481  function addLiquidity(uint256 token0Amount) public payable {\r... */\n    tag_5:\n      tag_34\n      tag_35\n      calldatasize\n      0x04\n      tag_36\n      jump\t// in\n    tag_35:\n      tag_37\n      jump\t// in\n    tag_34:\n      stop\n        /* \"contracts/core/VeloDeposit.sol\":2759:2943  function _newSpaceMultiplier(int24 newSpaceMultiplier) external {\r... */\n    tag_6:\n      callvalue\n      dup1\n      iszero\n      tag_38\n      jumpi\n      0x00\n      dup1\n      revert\n    tag_38:\n      pop\n      tag_34\n      tag_40\n      calldatasize\n      0x04\n      tag_41\n      jump\t// in\n    tag_40:\n      tag_42\n      jump\t// in\n        /* \"contracts/core/VeloDeposit.sol\":3313:3497  function _transferToAdmin(address Token) external {\r... */\n    tag_7:\n      callvalue\n      dup1\n      iszero\n      tag_43\n      jumpi\n      0x00\n      dup1\n      revert\n    tag_43:\n      pop\n      tag_34\n      tag_45\n      calldatasize\n      0x04\n      tag_46\n      jump\t// in\n    tag_45:\n      tag_47\n      jump\t// in\n        /* \"contracts/core/VeloDeposit.sol\":2200:2266  address public oracle = 0x9465eD15b70E8A534663530C4fCc92E22B8F6032 */\n    tag_8:\n      callvalue\n      dup1\n      iszero\n      tag_48\n      jumpi\n      0x00\n      dup1\n      revert\n    tag_48:\n      pop\n      tag_21\n      tag_50\n      jump\t// in\n        /* \"contracts/core/VeloDeposit.sol\":2408:2451  mapping(uint256 => Deposit) public deposits */\n    tag_9:\n      callvalue\n      dup1\n      iszero\n      tag_52\n      jumpi\n      0x00\n      dup1\n      revert\n    tag_52:\n      pop\n      tag_53\n      tag_54\n      calldatasize\n      0x04\n      tag_36\n      jump\t// in\n    tag_54:\n      tag_55\n      jump\t// in\n    tag_53:\n      mload(0x40)\n      tag_23\n      swap5\n      swap4\n      swap3\n      swap2\n      swap1\n      tag_57\n      jump\t// in\n        /* \"contracts/core/VeloDeposit.sol\":2134:2158  int24 public tickSpacing */\n    tag_10:\n      callvalue\n      dup1\n      iszero\n      tag_58\n      jumpi\n      0x00\n      dup1\n      revert\n    tag_58:\n      pop\n      tag_59\n      tag_60\n      jump\t// in\n    tag_59:\n      mload(0x40)\n      tag_23\n      swap2\n      swap1\n      tag_62\n      jump\t// in\n        /* \"contracts/core/VeloDeposit.sol\":2028:2049  address public token1 */\n    tag_11:\n      callvalue\n      dup1\n      iszero\n      tag_63\n      jumpi\n      0x00\n      dup1\n      revert\n    tag_63:\n      pop\n      tag_21\n      tag_65\n      jump\t// in\n        /* \"contracts/core/VeloDeposit.sol\":2951:3305  function _newPool(address newPool) external {\r... */\n    tag_12:\n      callvalue\n      dup1\n      iszero\n      tag_67\n      jumpi\n      0x00\n      dup1\n      revert\n    tag_67:\n      pop\n      tag_34\n      tag_69\n      calldatasize\n      0x04\n      tag_46\n      jump\t// in\n    tag_69:\n      tag_70\n      jump\t// in\n        /* \"contracts/core/VeloDeposit.sol\":2078:2100  address public farmNFT */\n    tag_13:\n      callvalue\n      dup1\n      iszero\n      tag_71\n      jumpi\n      0x00\n      dup1\n      revert\n    tag_71:\n      pop\n      tag_21\n      tag_73\n      jump\t// in\n        /* \"contracts/core/VeloDeposit.sol\":2605:2751  function _newAdmin(address newAdmin) external {\r... */\n    tag_14:\n      callvalue\n      dup1\n      iszero\n      tag_75\n      jumpi\n      0x00\n      dup1\n      revert\n    tag_75:\n      pop\n      tag_34\n      tag_77\n      calldatasize\n      0x04\n      tag_46\n      jump\t// in\n    tag_77:\n      tag_78\n      jump\t// in\n        /* \"contracts/core/VeloDeposit.sol\":2107:2127  address public admin */\n    tag_15:\n      callvalue\n      dup1\n      iszero\n      tag_79\n      jumpi\n      0x00\n      dup1\n      revert\n    tag_79:\n      pop\n      tag_21\n      tag_81\n      jump\t// in\n        /* \"contracts/core/VeloDeposit.sol\":2165:2193  int24 public spaceMultiplier */\n    tag_16:\n      callvalue\n      dup1\n      iszero\n      tag_83\n      jumpi\n      0x00\n      dup1\n      revert\n    tag_83:\n      pop\n      tag_59\n      tag_85\n      jump\t// in\n        /* \"contracts/core/VeloDeposit.sol\":1978:1999  address public token0 */\n    tag_22:\n      and(sub(shl(0xa0, 0x01), 0x01), sload(0x01))\n      dup2\n      jump\t// out\n        /* \"contracts/core/VeloDeposit.sol\":1922:1941  address public pool */\n    tag_27:\n      and(sub(shl(0xa0, 0x01), 0x01), sload(0x00))\n      dup2\n      jump\t// out\n        /* \"contracts/core/VeloDeposit.sol\":3505:3849  function getTicks () public view returns (int24 lowTick, int24 highTick){\r... */\n    tag_31:\n        /* \"contracts/core/VeloDeposit.sol\":3547:3560  int24 lowTick */\n      0x00\n        /* \"contracts/core/VeloDeposit.sol\":3562:3576  int24 highTick */\n      dup1\n        /* \"contracts/core/VeloDeposit.sol\":3591:3608  int24 currentTick */\n      0x00\n        /* \"contracts/core/VeloDeposit.sol\":3628:3632  pool */\n      dup1\n      0x00\n      swap1\n      sload\n      swap1\n      0x0100\n      exp\n      swap1\n      div\n      sub(shl(0xa0, 0x01), 0x01)\n      and\n      sub(shl(0xa0, 0x01), 0x01)\n        /* \"contracts/core/VeloDeposit.sol\":3620:3639  ICLPool(pool).slot0 */\n      and\n      0x3850c7bd\n        /* \"contracts/core/VeloDeposit.sol\":3620:3641  ICLPool(pool).slot0() */\n      mload(0x40)\n      dup2\n      0xffffffff\n      and\n      0xe0\n      shl\n      dup2\n      mstore\n      0x04\n      add\n      0xc0\n      mload(0x40)\n      dup1\n      dup4\n      sub\n      dup2\n      dup7\n      dup1\n      extcodesize\n      iszero\n      dup1\n      iszero\n      tag_88\n      jumpi\n      0x00\n      dup1\n      revert\n    tag_88:\n      pop\n      gas\n      staticcall\n      iszero\n      dup1\n      iszero\n      tag_90\n      jumpi\n      returndatasize\n      0x00\n      dup1\n      returndatacopy\n      revert(0x00, returndatasize)\n    tag_90:\n      pop\n      pop\n      pop\n      pop\n      mload(0x40)\n      returndatasize\n      not(0x1f)\n      0x1f\n      dup3\n      add\n      and\n      dup3\n      add\n      dup1\n      0x40\n      mstore\n      pop\n      dup2\n      add\n      swap1\n      tag_91\n      swap2\n      swap1\n      tag_92\n      jump\t// in\n    tag_91:\n      pop\n      pop\n        /* \"contracts/core/VeloDeposit.sol\":3696:3707  tickSpacing */\n      sload(0x04)\n        /* \"contracts/core/VeloDeposit.sol\":3588:3641  (, int24 currentTick, , , , ) = ICLPool(pool).slot0() */\n      swap3\n      swap5\n      pop\n      pop\n      pop\n      shl(0xa0, 0x01)\n        /* \"contracts/core/VeloDeposit.sol\":3696:3707  tickSpacing */\n      swap1\n      div\n      0x02\n      swap1\n      dup2\n      signextend\n      swap2\n      pop\n        /* \"contracts/core/VeloDeposit.sol\":3667:3692  currentTick / tickSpacing */\n      dup2\n      dup2\n      signextend\n      swap1\n      dup4\n      swap1\n      signextend\n      dup2\n      tag_93\n      jumpi\n      invalid\n    tag_93:\n        /* \"contracts/core/VeloDeposit.sol\":3742:3753  tickSpacing */\n      sload(0x04)\n      shl(0xa0, 0x01)\n      swap1\n      div\n      0x02\n      signextend\n        /* \"contracts/core/VeloDeposit.sol\":3667:3692  currentTick / tickSpacing */\n      swap2\n      swap1\n      sdiv\n        /* \"contracts/core/VeloDeposit.sol\":3666:3707  (currentTick / tickSpacing) * tickSpacing */\n      swap2\n      swap1\n      swap2\n      mul\n        /* \"contracts/core/VeloDeposit.sol\":3728:3753  currentTick - tickSpacing */\n      dup2\n      dup2\n      sub\n      swap5\n      pop\n        /* \"contracts/core/VeloDeposit.sol\":3775:3800  currentTick + tickSpacing */\n      add\n      swap2\n      pop\n      pop\n        /* \"contracts/core/VeloDeposit.sol\":3505:3849  function getTicks () public view returns (int24 lowTick, int24 highTick){\r... */\n      swap1\n      swap2\n      jump\t// out\n        /* \"contracts/core/VeloDeposit.sol\":3855:5481  function addLiquidity(uint256 token0Amount) public payable {\r... */\n    tag_37:\n        /* \"contracts/core/VeloDeposit.sol\":3959:3974  int24 tickLower */\n      0x00\n        /* \"contracts/core/VeloDeposit.sol\":3975:3990  int24 tickUpper */\n      dup1\n        /* \"contracts/core/VeloDeposit.sol\":3994:4004  getTicks() */\n      tag_95\n        /* \"contracts/core/VeloDeposit.sol\":3994:4002  getTicks */\n      tag_31\n        /* \"contracts/core/VeloDeposit.sol\":3994:4004  getTicks() */\n      jump\t// in\n    tag_95:\n        /* \"contracts/core/VeloDeposit.sol\":3958:4004  (int24 tickLower,int24 tickUpper) = getTicks() */\n      swap2\n      pop\n      swap2\n      pop\n        /* \"contracts/core/VeloDeposit.sol\":4055:4077  uint160 sqrtPriceLower */\n      0x00\n        /* \"contracts/core/VeloDeposit.sol\":4080:4118  TickMath.getSqrtRatioAtTick(tickLower) */\n      tag_96\n        /* \"contracts/core/VeloDeposit.sol\":4108:4117  tickLower */\n      dup4\n        /* \"contracts/core/VeloDeposit.sol\":4080:4107  TickMath.getSqrtRatioAtTick */\n      tag_97\n        /* \"contracts/core/VeloDeposit.sol\":4080:4118  TickMath.getSqrtRatioAtTick(tickLower) */\n      jump\t// in\n    tag_96:\n        /* \"contracts/core/VeloDeposit.sol\":4055:4118  uint160 sqrtPriceLower = TickMath.getSqrtRatioAtTick(tickLower) */\n      swap1\n      pop\n        /* \"contracts/core/VeloDeposit.sol\":4125:4147  uint160 sqrtPriceUpper */\n      0x00\n        /* \"contracts/core/VeloDeposit.sol\":4150:4188  TickMath.getSqrtRatioAtTick(tickUpper) */\n      tag_98\n        /* \"contracts/core/VeloDeposit.sol\":4178:4187  tickUpper */\n      dup4\n        /* \"contracts/core/VeloDeposit.sol\":4150:4177  TickMath.getSqrtRatioAtTick */\n      tag_97\n        /* \"contracts/core/VeloDeposit.sol\":4150:4188  TickMath.getSqrtRatioAtTick(tickUpper) */\n      jump\t// in\n    tag_98:\n        /* \"contracts/core/VeloDeposit.sol\":4125:4188  uint160 sqrtPriceUpper = TickMath.getSqrtRatioAtTick(tickUpper) */\n      swap1\n      pop\n        /* \"contracts/core/VeloDeposit.sol\":4201:4216  uint _liquidity */\n      0x00\n        /* \"contracts/core/VeloDeposit.sol\":4219:4304  LiquidityAmounts.getLiquidityForAmount0(sqrtPriceLower, sqrtPriceUpper, token0Amount) */\n      tag_99\n        /* \"contracts/core/VeloDeposit.sol\":4259:4273  sqrtPriceLower */\n      dup4\n        /* \"contracts/core/VeloDeposit.sol\":4275:4289  sqrtPriceUpper */\n      dup4\n        /* \"contracts/core/VeloDeposit.sol\":4291:4303  token0Amount */\n      dup9\n        /* \"contracts/core/VeloDeposit.sol\":4219:4258  LiquidityAmounts.getLiquidityForAmount0 */\n      tag_100\n        /* \"contracts/core/VeloDeposit.sol\":4219:4304  LiquidityAmounts.getLiquidityForAmount0(sqrtPriceLower, sqrtPriceUpper, token0Amount) */\n      jump\t// in\n    tag_99:\n        /* \"contracts/core/VeloDeposit.sol\":4363:4369  oracle */\n      sload(0x05)\n        /* \"contracts/core/VeloDeposit.sol\":4314:4332  uint amount0ToMint */\n      0x00\n        /* \"contracts/core/VeloDeposit.sol\":4394:4398  pool */\n      dup1\n      sload\n        /* \"contracts/core/VeloDeposit.sol\":4356:4411  Oracle(oracle).getAmountsforLiquidity(pool, _liquidity) */\n      mload(0x40)\n      shl(0xe3, 0x1283c1d7)\n      dup2\n      mstore\n      sub(shl(0x80, 0x01), 0x01)\n        /* \"contracts/core/VeloDeposit.sol\":4201:4304  uint _liquidity = LiquidityAmounts.getLiquidityForAmount0(sqrtPriceLower, sqrtPriceUpper, token0Amount) */\n      swap5\n      swap1\n      swap5\n      and\n      swap5\n      pop\n        /* \"contracts/core/VeloDeposit.sol\":4314:4332  uint amount0ToMint */\n      swap1\n      swap3\n      dup4\n      swap3\n      sub(shl(0xa0, 0x01), 0x01)\n        /* \"contracts/core/VeloDeposit.sol\":4363:4369  oracle */\n      swap1\n      dup2\n      and\n      swap3\n        /* \"contracts/core/VeloDeposit.sol\":4356:4393  Oracle(oracle).getAmountsforLiquidity */\n      0x941e0eb8\n      swap3\n        /* \"contracts/core/VeloDeposit.sol\":4356:4411  Oracle(oracle).getAmountsforLiquidity(pool, _liquidity) */\n      tag_101\n      swap3\n        /* \"contracts/core/VeloDeposit.sol\":4394:4398  pool */\n      swap1\n      swap2\n      and\n      swap1\n        /* \"contracts/core/VeloDeposit.sol\":4201:4304  uint _liquidity = LiquidityAmounts.getLiquidityForAmount0(sqrtPriceLower, sqrtPriceUpper, token0Amount) */\n      dup8\n      swap1\n        /* \"contracts/core/VeloDeposit.sol\":4356:4411  Oracle(oracle).getAmountsforLiquidity(pool, _liquidity) */\n      0x04\n      add\n      tag_102\n      jump\t// in\n    tag_101:\n      0x40\n      dup1\n      mload\n      dup1\n      dup4\n      sub\n      dup2\n      dup7\n      dup1\n      extcodesize\n      iszero\n      dup1\n      iszero\n      tag_103\n      jumpi\n      0x00\n      dup1\n      revert\n    tag_103:\n      pop\n      gas\n      staticcall\n      iszero\n      dup1\n      iszero\n      tag_105\n      jumpi\n      returndatasize\n      0x00\n      dup1\n      returndatacopy\n      revert(0x00, returndatasize)\n    tag_105:\n      pop\n      pop\n      pop\n      pop\n      mload(0x40)\n      returndatasize\n      not(0x1f)\n      0x1f\n      dup3\n      add\n      and\n      dup3\n      add\n      dup1\n      0x40\n      mstore\n      pop\n      dup2\n      add\n      swap1\n      tag_106\n      swap2\n      swap1\n      tag_107\n      jump\t// in\n    tag_106:\n        /* \"contracts/core/VeloDeposit.sol\":4453:4459  token0 */\n      sload(0x01)\n        /* \"contracts/core/VeloDeposit.sol\":4446:4515  IERC20(token0).transferFrom(msg.sender, address(this), amount0ToMint) */\n      mload(0x40)\n      shl(0xe0, 0x23b872dd)\n      dup2\n      mstore\n        /* \"contracts/core/VeloDeposit.sol\":4313:4411  (uint amount0ToMint, uint amount1ToMint) = Oracle(oracle).getAmountsforLiquidity(pool, _liquidity) */\n      swap3\n      swap5\n      pop\n      swap1\n      swap3\n      pop\n      sub(shl(0xa0, 0x01), 0x01)\n        /* \"contracts/core/VeloDeposit.sol\":4453:4459  token0 */\n      and\n      swap1\n        /* \"contracts/core/VeloDeposit.sol\":4446:4473  IERC20(token0).transferFrom */\n      0x23b872dd\n      swap1\n        /* \"contracts/core/VeloDeposit.sol\":4446:4515  IERC20(token0).transferFrom(msg.sender, address(this), amount0ToMint) */\n      tag_108\n      swap1\n        /* \"contracts/core/VeloDeposit.sol\":4474:4484  msg.sender */\n      caller\n      swap1\n        /* \"contracts/core/VeloDeposit.sol\":4494:4498  this */\n      address\n      swap1\n        /* \"contracts/core/VeloDeposit.sol\":4313:4411  (uint amount0ToMint, uint amount1ToMint) = Oracle(oracle).getAmountsforLiquidity(pool, _liquidity) */\n      dup8\n      swap1\n        /* \"contracts/core/VeloDeposit.sol\":4446:4515  IERC20(token0).transferFrom(msg.sender, address(this), amount0ToMint) */\n      0x04\n      add\n      tag_109\n      jump\t// in\n    tag_108:\n      0x20\n      mload(0x40)\n      dup1\n      dup4\n      sub\n      dup2\n      0x00\n      dup8\n      dup1\n      extcodesize\n      iszero\n      dup1\n      iszero\n      tag_110\n      jumpi\n      0x00\n      dup1\n      revert\n    tag_110:\n      pop\n      gas\n      call\n      iszero\n      dup1\n      iszero\n      tag_112\n      jumpi\n      returndatasize\n      0x00\n      dup1\n      returndatacopy\n      revert(0x00, returndatasize)\n    tag_112:\n      pop\n      pop\n      pop\n      pop\n      mload(0x40)\n      returndatasize\n      not(0x1f)\n      0x1f\n      dup3\n      add\n      and\n      dup3\n      add\n      dup1\n      0x40\n      mstore\n      pop\n      dup2\n      add\n      swap1\n      tag_113\n      swap2\n      swap1\n      tag_114\n      jump\t// in\n    tag_113:\n      pop\n        /* \"contracts/core/VeloDeposit.sol\":4533:4539  token1 */\n      sload(0x02)\n        /* \"contracts/core/VeloDeposit.sol\":4526:4595  IERC20(token1).transferFrom(msg.sender, address(this), amount1ToMint) */\n      mload(0x40)\n      shl(0xe0, 0x23b872dd)\n      dup2\n      mstore\n      sub(shl(0xa0, 0x01), 0x01)\n        /* \"contracts/core/VeloDeposit.sol\":4533:4539  token1 */\n      swap1\n      swap2\n      and\n      swap1\n        /* \"contracts/core/VeloDeposit.sol\":4526:4553  IERC20(token1).transferFrom */\n      0x23b872dd\n      swap1\n        /* \"contracts/core/VeloDeposit.sol\":4526:4595  IERC20(token1).transferFrom(msg.sender, address(this), amount1ToMint) */\n      tag_115\n      swap1\n        /* \"contracts/core/VeloDeposit.sol\":4554:4564  msg.sender */\n      caller\n      swap1\n        /* \"contracts/core/VeloDeposit.sol\":4574:4578  this */\n      address\n      swap1\n        /* \"contracts/core/VeloDeposit.sol\":4581:4594  amount1ToMint */\n      dup7\n      swap1\n        /* \"contracts/core/VeloDeposit.sol\":4526:4595  IERC20(token1).transferFrom(msg.sender, address(this), amount1ToMint) */\n      0x04\n      add\n      tag_109\n      jump\t// in\n    tag_115:\n      0x20\n      mload(0x40)\n      dup1\n      dup4\n      sub\n      dup2\n      0x00\n      dup8\n      dup1\n      extcodesize\n      iszero\n      dup1\n      iszero\n      tag_116\n      jumpi\n      0x00\n      dup1\n      revert\n    tag_116:\n      pop\n      gas\n      call\n      iszero\n      dup1\n      iszero\n      tag_118\n      jumpi\n      returndatasize\n      0x00\n      dup1\n      returndatacopy\n      revert(0x00, returndatasize)\n    tag_118:\n      pop\n      pop\n      pop\n      pop\n      mload(0x40)\n      returndatasize\n      not(0x1f)\n      0x1f\n      dup3\n      add\n      and\n      dup3\n      add\n      dup1\n      0x40\n      mstore\n      pop\n      dup2\n      add\n      swap1\n      tag_119\n      swap2\n      swap1\n      tag_114\n      jump\t// in\n    tag_119:\n      pop\n        /* \"contracts/core/VeloDeposit.sol\":4615:4621  token0 */\n      sload(0x01)\n        /* \"contracts/core/VeloDeposit.sol\":4631:4638  farmNFT */\n      sload(0x03)\n        /* \"contracts/core/VeloDeposit.sol\":4608:4654  IERC20(token0).approve(farmNFT, amount0ToMint) */\n      mload(0x40)\n      shl(0xe0, 0x095ea7b3)\n      dup2\n      mstore\n      sub(shl(0xa0, 0x01), 0x01)\n        /* \"contracts/core/VeloDeposit.sol\":4615:4621  token0 */\n      swap3\n      dup4\n      and\n      swap3\n        /* \"contracts/core/VeloDeposit.sol\":4608:4630  IERC20(token0).approve */\n      0x095ea7b3\n      swap3\n        /* \"contracts/core/VeloDeposit.sol\":4608:4654  IERC20(token0).approve(farmNFT, amount0ToMint) */\n      tag_120\n      swap3\n        /* \"contracts/core/VeloDeposit.sol\":4631:4638  farmNFT */\n      swap2\n      and\n      swap1\n        /* \"contracts/core/VeloDeposit.sol\":4640:4653  amount0ToMint */\n      dup7\n      swap1\n        /* \"contracts/core/VeloDeposit.sol\":4608:4654  IERC20(token0).approve(farmNFT, amount0ToMint) */\n      0x04\n      add\n      tag_102\n      jump\t// in\n    tag_120:\n      0x20\n      mload(0x40)\n      dup1\n      dup4\n      sub\n      dup2\n      0x00\n      dup8\n      dup1\n      extcodesize\n      iszero\n      dup1\n      iszero\n      tag_121\n      jumpi\n      0x00\n      dup1\n      revert\n    tag_121:\n      pop\n      gas\n      call\n      iszero\n      dup1\n      iszero\n      tag_123\n      jumpi\n      returndatasize\n      0x00\n      dup1\n      returndatacopy\n      revert(0x00, returndatasize)\n    tag_123:\n      pop\n      pop\n      pop\n      pop\n      mload(0x40)\n      returndatasize\n      not(0x1f)\n      0x1f\n      dup3\n      add\n      and\n      dup3\n      add\n      dup1\n      0x40\n      mstore\n      pop\n      dup2\n      add\n      swap1\n      tag_124\n      swap2\n      swap1\n      tag_114\n      jump\t// in\n    tag_124:\n      pop\n        /* \"contracts/core/VeloDeposit.sol\":4672:4678  token1 */\n      sload(0x02)\n        /* \"contracts/core/VeloDeposit.sol\":4688:4695  farmNFT */\n      sload(0x03)\n        /* \"contracts/core/VeloDeposit.sol\":4665:4711  IERC20(token1).approve(farmNFT, amount1ToMint) */\n      mload(0x40)\n      shl(0xe0, 0x095ea7b3)\n      dup2\n      mstore\n      sub(shl(0xa0, 0x01), 0x01)\n        /* \"contracts/core/VeloDeposit.sol\":4672:4678  token1 */\n      swap3\n      dup4\n      and\n      swap3\n        /* \"contracts/core/VeloDeposit.sol\":4665:4687  IERC20(token1).approve */\n      0x095ea7b3\n      swap3\n        /* \"contracts/core/VeloDeposit.sol\":4665:4711  IERC20(token1).approve(farmNFT, amount1ToMint) */\n      tag_125\n      swap3\n        /* \"contracts/core/VeloDeposit.sol\":4688:4695  farmNFT */\n      swap2\n      and\n      swap1\n        /* \"contracts/core/VeloDeposit.sol\":4697:4710  amount1ToMint */\n      dup6\n      swap1\n        /* \"contracts/core/VeloDeposit.sol\":4665:4711  IERC20(token1).approve(farmNFT, amount1ToMint) */\n      0x04\n      add\n      tag_102\n      jump\t// in\n    tag_125:\n      0x20\n      mload(0x40)\n      dup1\n      dup4\n      sub\n      dup2\n      0x00\n      dup8\n      dup1\n      extcodesize\n      iszero\n      dup1\n      iszero\n      tag_126\n      jumpi\n      0x00\n      dup1\n      revert\n    tag_126:\n      pop\n      gas\n      call\n      iszero\n      dup1\n      iszero\n      tag_128\n      jumpi\n      returndatasize\n      0x00\n      dup1\n      returndatacopy\n      revert(0x00, returndatasize)\n    tag_128:\n      pop\n      pop\n      pop\n      pop\n      mload(0x40)\n      returndatasize\n      not(0x1f)\n      0x1f\n      dup3\n      add\n      and\n      dup3\n      add\n      dup1\n      0x40\n      mstore\n      pop\n      dup2\n      add\n      swap1\n      tag_129\n      swap2\n      swap1\n      tag_114\n      jump\t// in\n    tag_129:\n      pop\n        /* \"contracts/core/VeloDeposit.sol\":4845:5413  INonfungiblePositionManager.MintParams({\r... */\n      0x40\n      dup1\n      mload\n      0x0180\n      dup2\n      add\n      dup3\n      mstore\n        /* \"contracts/core/VeloDeposit.sol\":4911:4917  token0 */\n      sload(0x01)\n      sub(shl(0xa0, 0x01), 0x01)\n      swap1\n      dup2\n      and\n        /* \"contracts/core/VeloDeposit.sol\":4845:5413  INonfungiblePositionManager.MintParams({\r... */\n      dup3\n      mstore\n        /* \"contracts/core/VeloDeposit.sol\":4944:4950  token1 */\n      0x02\n      dup1\n      sload\n      dup3\n      and\n        /* \"contracts/core/VeloDeposit.sol\":4845:5413  INonfungiblePositionManager.MintParams({\r... */\n      0x20\n      dup5\n      add\n      mstore\n        /* \"contracts/core/VeloDeposit.sol\":4982:4993  tickSpacing */\n      0x04\n      dup1\n      sload\n      shl(0xa0, 0x01)\n      swap1\n      div\n      dup3\n      signextend\n        /* \"contracts/core/VeloDeposit.sol\":4845:5413  INonfungiblePositionManager.MintParams({\r... */\n      dup3\n      signextend\n      dup5\n      dup7\n      add\n      mstore\n      dup12\n      dup3\n      signextend\n      0x60\n      dup6\n      add\n      mstore\n      swap1\n      dup11\n      swap1\n      signextend\n      0x80\n      dup5\n      add\n      mstore\n      0xa0\n      dup4\n      add\n      dup7\n      swap1\n      mstore\n      0xc0\n      dup4\n      add\n      dup6\n      swap1\n      mstore\n        /* \"contracts/core/VeloDeposit.sol\":4777:4829  INonfungiblePositionManager.MintParams memory params */\n      0x00\n        /* \"contracts/core/VeloDeposit.sol\":4845:5413  INonfungiblePositionManager.MintParams({\r... */\n      0xe0\n      dup5\n      add\n      dup2\n      swap1\n      mstore\n        /* \"contracts/core/VeloDeposit.sol\":4911:4917  token0 */\n      0x0100\n        /* \"contracts/core/VeloDeposit.sol\":4845:5413  INonfungiblePositionManager.MintParams({\r... */\n      dup5\n      add\n      dup2\n      swap1\n      mstore\n        /* \"contracts/core/VeloDeposit.sol\":5299:5309  msg.sender */\n      caller\n        /* \"contracts/core/VeloDeposit.sol\":4845:5413  INonfungiblePositionManager.MintParams({\r... */\n      0x0120\n      dup6\n      add\n      mstore\n        /* \"contracts/core/VeloDeposit.sol\":5356:5363  1500000 */\n      0x16e360\n        /* \"contracts/core/VeloDeposit.sol\":5338:5353  block.timestamp */\n      timestamp\n        /* \"contracts/core/VeloDeposit.sol\":5338:5363  block.timestamp + 1500000 */\n      add\n        /* \"contracts/core/VeloDeposit.sol\":4845:5413  INonfungiblePositionManager.MintParams({\r... */\n      0x0140\n      dup6\n      add\n      mstore\n      0x0160\n      dup5\n      add\n      mstore\n        /* \"contracts/core/VeloDeposit.sol\":5456:5463  farmNFT */\n      sload(0x03)\n        /* \"contracts/core/VeloDeposit.sol\":5428:5477  INonfungiblePositionManager(farmNFT).mint(params) */\n      swap4\n      mload\n      shl(0xe0, 0xb5007d1f)\n      dup2\n      mstore\n        /* \"contracts/core/VeloDeposit.sol\":4845:5413  INonfungiblePositionManager.MintParams({\r... */\n      swap3\n      swap4\n        /* \"contracts/core/VeloDeposit.sol\":5456:5463  farmNFT */\n      swap1\n      swap2\n      and\n      swap2\n        /* \"contracts/core/VeloDeposit.sol\":5428:5469  INonfungiblePositionManager(farmNFT).mint */\n      0xb5007d1f\n      swap2\n        /* \"contracts/core/VeloDeposit.sol\":5428:5477  INonfungiblePositionManager(farmNFT).mint(params) */\n      tag_130\n      swap2\n        /* \"contracts/core/VeloDeposit.sol\":4845:5413  INonfungiblePositionManager.MintParams({\r... */\n      dup6\n      swap2\n        /* \"contracts/core/VeloDeposit.sol\":5428:5477  INonfungiblePositionManager(farmNFT).mint(params) */\n      add\n      tag_131\n      jump\t// in\n    tag_130:\n      0x80\n      mload(0x40)\n      dup1\n      dup4\n      sub\n      dup2\n      0x00\n      dup8\n      dup1\n      extcodesize\n      iszero\n      dup1\n      iszero\n      tag_132\n      jumpi\n      0x00\n      dup1\n      revert\n    tag_132:\n      pop\n      gas\n      call\n      iszero\n      dup1\n      iszero\n      tag_134\n      jumpi\n      returndatasize\n      0x00\n      dup1\n      returndatacopy\n      revert(0x00, returndatasize)\n    tag_134:\n      pop\n      pop\n      pop\n      pop\n      mload(0x40)\n      returndatasize\n      not(0x1f)\n      0x1f\n      dup3\n      add\n      and\n      dup3\n      add\n      dup1\n      0x40\n      mstore\n      pop\n      dup2\n      add\n      swap1\n      tag_135\n      swap2\n      swap1\n      tag_136\n      jump\t// in\n    tag_135:\n      pop\n      pop\n      pop\n      pop\n        /* \"contracts/core/VeloDeposit.sol\":3855:5481  function addLiquidity(uint256 token0Amount) public payable {\r... */\n      pop\n      pop\n      pop\n      pop\n      pop\n      pop\n      pop\n      pop\n      pop\n      jump\t// out\n        /* \"contracts/core/VeloDeposit.sol\":2759:2943  function _newSpaceMultiplier(int24 newSpaceMultiplier) external {\r... */\n    tag_42:\n        /* \"contracts/core/VeloDeposit.sol\":2856:2861  admin */\n      and(sub(shl(0xa0, 0x01), 0x01), sload(0x04))\n        /* \"contracts/core/VeloDeposit.sol\":2842:2852  msg.sender */\n      caller\n        /* \"contracts/core/VeloDeposit.sol\":2842:2861  msg.sender == admin */\n      eq\n        /* \"contracts/core/VeloDeposit.sol\":2834:2888  require(msg.sender == admin, \"Only owner can do this\") */\n      tag_138\n      jumpi\n      mload(0x40)\n      shl(0xe5, 0x461bcd)\n      dup2\n      mstore\n      0x04\n      add\n      tag_139\n      swap1\n      tag_140\n      jump\t// in\n    tag_139:\n      mload(0x40)\n      dup1\n      swap2\n      sub\n      swap1\n      revert\n    tag_138:\n        /* \"contracts/core/VeloDeposit.sol\":2899:2914  spaceMultiplier */\n      0x04\n        /* \"contracts/core/VeloDeposit.sol\":2899:2935  spaceMultiplier = newSpaceMultiplier */\n      dup1\n      sload\n      0x02\n      swap3\n      swap1\n      swap3\n      signextend\n      0xffffff\n      and\n      shl(0xb8, 0x01)\n      mul\n      not(shl(0xb8, 0xffffff))\n      swap1\n      swap3\n      and\n      swap2\n      swap1\n      swap2\n      or\n      swap1\n      sstore\n        /* \"contracts/core/VeloDeposit.sol\":2759:2943  function _newSpaceMultiplier(int24 newSpaceMultiplier) external {\r... */\n      jump\t// out\n        /* \"contracts/core/VeloDeposit.sol\":3313:3497  function _transferToAdmin(address Token) external {\r... */\n    tag_47:\n        /* \"contracts/core/VeloDeposit.sol\":3390:3435  IERC20Minimal(Token).balanceOf(address(this)) */\n      mload(0x40)\n      shl(0xe0, 0x70a08231)\n      dup2\n      mstore\n        /* \"contracts/core/VeloDeposit.sol\":3374:3387  uint256 value */\n      0x00\n      swap1\n      sub(shl(0xa0, 0x01), 0x01)\n        /* \"contracts/core/VeloDeposit.sol\":3390:3420  IERC20Minimal(Token).balanceOf */\n      dup4\n      and\n      swap1\n      0x70a08231\n      swap1\n        /* \"contracts/core/VeloDeposit.sol\":3390:3435  IERC20Minimal(Token).balanceOf(address(this)) */\n      tag_142\n      swap1\n        /* \"contracts/core/VeloDeposit.sol\":3429:3433  this */\n      address\n      swap1\n        /* \"contracts/core/VeloDeposit.sol\":3390:3435  IERC20Minimal(Token).balanceOf(address(this)) */\n      0x04\n      add\n      tag_24\n      jump\t// in\n    tag_142:\n      0x20\n      mload(0x40)\n      dup1\n      dup4\n      sub\n      dup2\n      dup7\n      dup1\n      extcodesize\n      iszero\n      dup1\n      iszero\n      tag_143\n      jumpi\n      0x00\n      dup1\n      revert\n    tag_143:\n      pop\n      gas\n      staticcall\n      iszero\n      dup1\n      iszero\n      tag_145\n      jumpi\n      returndatasize\n      0x00\n      dup1\n      returndatacopy\n      revert(0x00, returndatasize)\n    tag_145:\n      pop\n      pop\n      pop\n      pop\n      mload(0x40)\n      returndatasize\n      not(0x1f)\n      0x1f\n      dup3\n      add\n      and\n      dup3\n      add\n      dup1\n      0x40\n      mstore\n      pop\n      dup2\n      add\n      swap1\n      tag_146\n      swap2\n      swap1\n      tag_147\n      jump\t// in\n    tag_146:\n        /* \"contracts/core/VeloDeposit.sol\":3476:3481  admin */\n      0x04\n      dup1\n      sload\n        /* \"contracts/core/VeloDeposit.sol\":3446:3489  IERC20Minimal(Token).transfer(admin, value) */\n      mload(0x40)\n      shl(0xe0, 0xa9059cbb)\n      dup2\n      mstore\n        /* \"contracts/core/VeloDeposit.sol\":3374:3435  uint256 value = IERC20Minimal(Token).balanceOf(address(this)) */\n      swap3\n      swap4\n      pop\n      sub(shl(0xa0, 0x01), 0x01)\n        /* \"contracts/core/VeloDeposit.sol\":3446:3475  IERC20Minimal(Token).transfer */\n      dup1\n      dup7\n      and\n      swap4\n      0xa9059cbb\n      swap4\n        /* \"contracts/core/VeloDeposit.sol\":3446:3489  IERC20Minimal(Token).transfer(admin, value) */\n      tag_148\n      swap4\n        /* \"contracts/core/VeloDeposit.sol\":3476:3481  admin */\n      swap1\n      swap3\n      and\n      swap2\n        /* \"contracts/core/VeloDeposit.sol\":3374:3435  uint256 value = IERC20Minimal(Token).balanceOf(address(this)) */\n      dup7\n      swap2\n        /* \"contracts/core/VeloDeposit.sol\":3446:3489  IERC20Minimal(Token).transfer(admin, value) */\n      add\n      tag_102\n      jump\t// in\n    tag_148:\n      0x20\n      mload(0x40)\n      dup1\n      dup4\n      sub\n      dup2\n      0x00\n      dup8\n      dup1\n      extcodesize\n      iszero\n      dup1\n      iszero\n      tag_149\n      jumpi\n      0x00\n      dup1\n      revert\n    tag_149:\n      pop\n      gas\n      call\n      iszero\n      dup1\n      iszero\n      tag_151\n      jumpi\n      returndatasize\n      0x00\n      dup1\n      returndatacopy\n      revert(0x00, returndatasize)\n    tag_151:\n      pop\n      pop\n      pop\n      pop\n      mload(0x40)\n      returndatasize\n      not(0x1f)\n      0x1f\n      dup3\n      add\n      and\n      dup3\n      add\n      dup1\n      0x40\n      mstore\n      pop\n      dup2\n      add\n      swap1\n      tag_152\n      swap2\n      swap1\n      tag_114\n      jump\t// in\n    tag_152:\n      pop\n        /* \"contracts/core/VeloDeposit.sol\":3313:3497  function _transferToAdmin(address Token) external {\r... */\n      pop\n      pop\n      jump\t// out\n        /* \"contracts/core/VeloDeposit.sol\":2200:2266  address public oracle = 0x9465eD15b70E8A534663530C4fCc92E22B8F6032 */\n    tag_50:\n      and(sub(shl(0xa0, 0x01), 0x01), sload(0x05))\n      dup2\n      jump\t// out\n        /* \"contracts/core/VeloDeposit.sol\":2408:2451  mapping(uint256 => Deposit) public deposits */\n    tag_55:\n      mstore(0x20, 0x06)\n      0x00\n      swap1\n      dup2\n      mstore\n      0x40\n      swap1\n      keccak256\n      dup1\n      sload\n      0x01\n      dup3\n      add\n      sload\n      0x02\n      dup4\n      add\n      sload\n      0x03\n      swap1\n      swap4\n      add\n      sload\n      sub(shl(0xa0, 0x01), 0x01)\n      swap3\n      dup4\n      and\n      swap4\n      sub(shl(0x80, 0x01), 0x01)\n      swap1\n      swap3\n      and\n      swap3\n      swap2\n      dup3\n      and\n      swap2\n      and\n      dup5\n      jump\t// out\n        /* \"contracts/core/VeloDeposit.sol\":2134:2158  int24 public tickSpacing */\n    tag_60:\n      sload(0x04)\n      shl(0xa0, 0x01)\n      swap1\n      div\n      0x02\n      signextend\n      dup2\n      jump\t// out\n        /* \"contracts/core/VeloDeposit.sol\":2028:2049  address public token1 */\n    tag_65:\n      and(sub(shl(0xa0, 0x01), 0x01), sload(0x02))\n      dup2\n      jump\t// out\n        /* \"contracts/core/VeloDeposit.sol\":2951:3305  function _newPool(address newPool) external {\r... */\n    tag_70:\n        /* \"contracts/core/VeloDeposit.sol\":3028:3033  admin */\n      and(sub(shl(0xa0, 0x01), 0x01), sload(0x04))\n        /* \"contracts/core/VeloDeposit.sol\":3014:3024  msg.sender */\n      caller\n        /* \"contracts/core/VeloDeposit.sol\":3014:3033  msg.sender == admin */\n      eq\n        /* \"contracts/core/VeloDeposit.sol\":3006:3060  require(msg.sender == admin, \"Only owner can do this\") */\n      tag_154\n      jumpi\n      mload(0x40)\n      shl(0xe5, 0x461bcd)\n      dup2\n      mstore\n      0x04\n      add\n      tag_139\n      swap1\n      tag_140\n      jump\t// in\n    tag_154:\n        /* \"contracts/core/VeloDeposit.sol\":3071:3075  pool */\n      0x00\n        /* \"contracts/core/VeloDeposit.sol\":3071:3085  pool = newPool */\n      dup1\n      sload\n      not(sub(shl(0xa0, 0x01), 0x01))\n      and\n      sub(shl(0xa0, 0x01), 0x01)\n      dup4\n      dup2\n      and\n      swap2\n      swap1\n      swap2\n      or\n      swap2\n      dup3\n      swap1\n      sstore\n        /* \"contracts/core/VeloDeposit.sol\":3105:3136  ICLPoolConstants(pool).token0() */\n      0x40\n      dup1\n      mload\n      shl(0xe0, 0x0dfe1681)\n      dup2\n      mstore\n      swap1\n      mload\n        /* \"contracts/core/VeloDeposit.sol\":3122:3126  pool */\n      swap3\n      swap1\n      swap2\n      and\n      swap2\n        /* \"contracts/core/VeloDeposit.sol\":3105:3134  ICLPoolConstants(pool).token0 */\n      0x0dfe1681\n      swap2\n        /* \"contracts/core/VeloDeposit.sol\":3105:3136  ICLPoolConstants(pool).token0() */\n      0x04\n      dup1\n      dup3\n      add\n      swap3\n      0x20\n      swap3\n      swap1\n      swap2\n      swap1\n      dup3\n      swap1\n      sub\n      add\n      dup2\n        /* \"contracts/core/VeloDeposit.sol\":3122:3126  pool */\n      dup7\n        /* \"contracts/core/VeloDeposit.sol\":3105:3136  ICLPoolConstants(pool).token0() */\n      dup1\n      extcodesize\n      iszero\n      dup1\n      iszero\n      tag_156\n      jumpi\n      0x00\n      dup1\n      revert\n    tag_156:\n      pop\n      gas\n      staticcall\n      iszero\n      dup1\n      iszero\n      tag_158\n      jumpi\n      returndatasize\n      0x00\n      dup1\n      returndatacopy\n      revert(0x00, returndatasize)\n    tag_158:\n      pop\n      pop\n      pop\n      pop\n      mload(0x40)\n      returndatasize\n      not(0x1f)\n      0x1f\n      dup3\n      add\n      and\n      dup3\n      add\n      dup1\n      0x40\n      mstore\n      pop\n      dup2\n      add\n      swap1\n      tag_159\n      swap2\n      swap1\n      tag_160\n      jump\t// in\n    tag_159:\n        /* \"contracts/core/VeloDeposit.sol\":3096:3102  token0 */\n      0x01\n        /* \"contracts/core/VeloDeposit.sol\":3096:3136  token0 = ICLPoolConstants(pool).token0() */\n      dup1\n      sload\n      not(sub(shl(0xa0, 0x01), 0x01))\n      and\n      sub(shl(0xa0, 0x01), 0x01)\n      swap3\n      dup4\n      and\n      or\n      swap1\n      sstore\n      0x00\n        /* \"contracts/core/VeloDeposit.sol\":3173:3177  pool */\n      sload\n        /* \"contracts/core/VeloDeposit.sol\":3156:3187  ICLPoolConstants(pool).token1() */\n      0x40\n      dup1\n      mload\n      shl(0xe0, 0xd21220a7)\n      dup2\n      mstore\n      swap1\n      mload\n        /* \"contracts/core/VeloDeposit.sol\":3173:3177  pool */\n      swap2\n      swap1\n      swap3\n      and\n      swap2\n        /* \"contracts/core/VeloDeposit.sol\":3156:3185  ICLPoolConstants(pool).token1 */\n      0xd21220a7\n      swap2\n        /* \"contracts/core/VeloDeposit.sol\":3156:3187  ICLPoolConstants(pool).token1() */\n      0x04\n      dup1\n      dup4\n      add\n      swap3\n      0x20\n      swap3\n      swap2\n      swap1\n      dup3\n      swap1\n      sub\n      add\n      dup2\n        /* \"contracts/core/VeloDeposit.sol\":3173:3177  pool */\n      dup7\n        /* \"contracts/core/VeloDeposit.sol\":3156:3187  ICLPoolConstants(pool).token1() */\n      dup1\n      extcodesize\n      iszero\n      dup1\n      iszero\n      tag_161\n      jumpi\n      0x00\n      dup1\n      revert\n    tag_161:\n      pop\n      gas\n      staticcall\n      iszero\n      dup1\n      iszero\n      tag_163\n      jumpi\n      returndatasize\n      0x00\n      dup1\n      returndatacopy\n      revert(0x00, returndatasize)\n    tag_163:\n      pop\n      pop\n      pop\n      pop\n      mload(0x40)\n      returndatasize\n      not(0x1f)\n      0x1f\n      dup3\n      add\n      and\n      dup3\n      add\n      dup1\n      0x40\n      mstore\n      pop\n      dup2\n      add\n      swap1\n      tag_164\n      swap2\n      swap1\n      tag_160\n      jump\t// in\n    tag_164:\n        /* \"contracts/core/VeloDeposit.sol\":3147:3153  token1 */\n      0x02\n        /* \"contracts/core/VeloDeposit.sol\":3147:3187  token1 = ICLPoolConstants(pool).token1() */\n      dup1\n      sload\n      not(sub(shl(0xa0, 0x01), 0x01))\n      and\n      sub(shl(0xa0, 0x01), 0x01)\n      swap3\n      dup4\n      and\n      or\n      swap1\n      sstore\n      0x00\n        /* \"contracts/core/VeloDeposit.sol\":3225:3229  pool */\n      sload\n        /* \"contracts/core/VeloDeposit.sol\":3208:3236  ICLPoolConstants(pool).nft() */\n      0x40\n      dup1\n      mload\n      shl(0xe1, 0x23e66501)\n      dup2\n      mstore\n      swap1\n      mload\n        /* \"contracts/core/VeloDeposit.sol\":3225:3229  pool */\n      swap2\n      swap1\n      swap3\n      and\n      swap2\n        /* \"contracts/core/VeloDeposit.sol\":3208:3234  ICLPoolConstants(pool).nft */\n      0x47ccca02\n      swap2\n        /* \"contracts/core/VeloDeposit.sol\":3208:3236  ICLPoolConstants(pool).nft() */\n      0x04\n      dup1\n      dup4\n      add\n      swap3\n      0x20\n      swap3\n      swap2\n      swap1\n      dup3\n      swap1\n      sub\n      add\n      dup2\n        /* \"contracts/core/VeloDeposit.sol\":3225:3229  pool */\n      dup7\n        /* \"contracts/core/VeloDeposit.sol\":3208:3236  ICLPoolConstants(pool).nft() */\n      dup1\n      extcodesize\n      iszero\n      dup1\n      iszero\n      tag_165\n      jumpi\n      0x00\n      dup1\n      revert\n    tag_165:\n      pop\n      gas\n      staticcall\n      iszero\n      dup1\n      iszero\n      tag_167\n      jumpi\n      returndatasize\n      0x00\n      dup1\n      returndatacopy\n      revert(0x00, returndatasize)\n    tag_167:\n      pop\n      pop\n      pop\n      pop\n      mload(0x40)\n      returndatasize\n      not(0x1f)\n      0x1f\n      dup3\n      add\n      and\n      dup3\n      add\n      dup1\n      0x40\n      mstore\n      pop\n      dup2\n      add\n      swap1\n      tag_168\n      swap2\n      swap1\n      tag_160\n      jump\t// in\n    tag_168:\n        /* \"contracts/core/VeloDeposit.sol\":3198:3205  farmNFT */\n      0x03\n        /* \"contracts/core/VeloDeposit.sol\":3198:3236  farmNFT = ICLPoolConstants(pool).nft() */\n      dup1\n      sload\n      not(sub(shl(0xa0, 0x01), 0x01))\n      and\n      sub(shl(0xa0, 0x01), 0x01)\n      swap3\n      dup4\n      and\n      or\n      swap1\n      sstore\n      0x00\n        /* \"contracts/core/VeloDeposit.sol\":3278:3282  pool */\n      sload\n        /* \"contracts/core/VeloDeposit.sol\":3261:3297  ICLPoolConstants(pool).tickSpacing() */\n      0x40\n      dup1\n      mload\n      shl(0xe2, 0x34324e9f)\n      dup2\n      mstore\n      swap1\n      mload\n        /* \"contracts/core/VeloDeposit.sol\":3278:3282  pool */\n      swap2\n      swap1\n      swap3\n      and\n      swap2\n        /* \"contracts/core/VeloDeposit.sol\":3261:3295  ICLPoolConstants(pool).tickSpacing */\n      0xd0c93a7c\n      swap2\n        /* \"contracts/core/VeloDeposit.sol\":3261:3297  ICLPoolConstants(pool).tickSpacing() */\n      0x04\n      dup1\n      dup4\n      add\n      swap3\n      0x20\n      swap3\n      swap2\n      swap1\n      dup3\n      swap1\n      sub\n      add\n      dup2\n        /* \"contracts/core/VeloDeposit.sol\":3278:3282  pool */\n      dup7\n        /* \"contracts/core/VeloDeposit.sol\":3261:3297  ICLPoolConstants(pool).tickSpacing() */\n      dup1\n      extcodesize\n      iszero\n      dup1\n      iszero\n      tag_169\n      jumpi\n      0x00\n      dup1\n      revert\n    tag_169:\n      pop\n      gas\n      staticcall\n      iszero\n      dup1\n      iszero\n      tag_171\n      jumpi\n      returndatasize\n      0x00\n      dup1\n      returndatacopy\n      revert(0x00, returndatasize)\n    tag_171:\n      pop\n      pop\n      pop\n      pop\n      mload(0x40)\n      returndatasize\n      not(0x1f)\n      0x1f\n      dup3\n      add\n      and\n      dup3\n      add\n      dup1\n      0x40\n      mstore\n      pop\n      dup2\n      add\n      swap1\n      tag_172\n      swap2\n      swap1\n      tag_173\n      jump\t// in\n    tag_172:\n        /* \"contracts/core/VeloDeposit.sol\":3247:3258  tickSpacing */\n      0x04\n      0x14\n        /* \"contracts/core/VeloDeposit.sol\":3247:3297  tickSpacing = ICLPoolConstants(pool).tickSpacing() */\n      0x0100\n      exp\n      dup2\n      sload\n      dup2\n      0xffffff\n      mul\n      not\n      and\n      swap1\n      dup4\n      0x02\n      signextend\n      0xffffff\n      and\n      mul\n      or\n      swap1\n      sstore\n      pop\n        /* \"contracts/core/VeloDeposit.sol\":2951:3305  function _newPool(address newPool) external {\r... */\n      pop\n      jump\t// out\n        /* \"contracts/core/VeloDeposit.sol\":2078:2100  address public farmNFT */\n    tag_73:\n      and(sub(shl(0xa0, 0x01), 0x01), sload(0x03))\n      dup2\n      jump\t// out\n        /* \"contracts/core/VeloDeposit.sol\":2605:2751  function _newAdmin(address newAdmin) external {\r... */\n    tag_78:\n        /* \"contracts/core/VeloDeposit.sol\":2684:2689  admin */\n      and(sub(shl(0xa0, 0x01), 0x01), sload(0x04))\n        /* \"contracts/core/VeloDeposit.sol\":2670:2680  msg.sender */\n      caller\n        /* \"contracts/core/VeloDeposit.sol\":2670:2689  msg.sender == admin */\n      eq\n        /* \"contracts/core/VeloDeposit.sol\":2662:2716  require(msg.sender == admin, \"Only owner can do this\") */\n      tag_175\n      jumpi\n      mload(0x40)\n      shl(0xe5, 0x461bcd)\n      dup2\n      mstore\n      0x04\n      add\n      tag_139\n      swap1\n      tag_140\n      jump\t// in\n    tag_175:\n        /* \"contracts/core/VeloDeposit.sol\":2727:2732  admin */\n      0x04\n        /* \"contracts/core/VeloDeposit.sol\":2727:2743  admin = newAdmin */\n      dup1\n      sload\n      not(sub(shl(0xa0, 0x01), 0x01))\n      and\n      sub(shl(0xa0, 0x01), 0x01)\n      swap3\n      swap1\n      swap3\n      and\n      swap2\n      swap1\n      swap2\n      or\n      swap1\n      sstore\n        /* \"contracts/core/VeloDeposit.sol\":2605:2751  function _newAdmin(address newAdmin) external {\r... */\n      jump\t// out\n        /* \"contracts/core/VeloDeposit.sol\":2107:2127  address public admin */\n    tag_81:\n      and(sub(shl(0xa0, 0x01), 0x01), sload(0x04))\n      dup2\n      jump\t// out\n        /* \"contracts/core/VeloDeposit.sol\":2165:2193  int24 public spaceMultiplier */\n    tag_85:\n      sload(0x04)\n      shl(0xb8, 0x01)\n      swap1\n      div\n      0x02\n      signextend\n      dup2\n      jump\t// out\n        /* \"contracts/core/libraries/TickMath.sol\":1362:3942  function getSqrtRatioAtTick(int24 tick) internal pure returns (uint160 sqrtPriceX96) {... */\n    tag_97:\n        /* \"contracts/core/libraries/TickMath.sol\":1425:1445  uint160 sqrtPriceX96 */\n      0x00\n        /* \"contracts/core/libraries/TickMath.sol\":1457:1472  uint256 absTick */\n      dup1\n        /* \"contracts/core/libraries/TickMath.sol\":1482:1483  0 */\n      0x00\n        /* \"contracts/core/libraries/TickMath.sol\":1475:1479  tick */\n      dup4\n        /* \"contracts/core/libraries/TickMath.sol\":1475:1483  tick < 0 */\n      0x02\n      signextend\n      slt\n        /* \"contracts/core/libraries/TickMath.sol\":1475:1532  tick < 0 ? uint256(-int256(tick)) : uint256(int256(tick)) */\n      tag_178\n      jumpi\n        /* \"contracts/core/libraries/TickMath.sol\":1526:1530  tick */\n      dup3\n        /* \"contracts/core/libraries/TickMath.sol\":1519:1531  int256(tick) */\n      0x02\n      signextend\n        /* \"contracts/core/libraries/TickMath.sol\":1475:1532  tick < 0 ? uint256(-int256(tick)) : uint256(int256(tick)) */\n      jump(tag_179)\n    tag_178:\n        /* \"contracts/core/libraries/TickMath.sol\":1502:1506  tick */\n      dup3\n        /* \"contracts/core/libraries/TickMath.sol\":1495:1507  int256(tick) */\n      0x02\n      signextend\n        /* \"contracts/core/libraries/TickMath.sol\":1494:1507  -int256(tick) */\n      0x00\n      sub\n        /* \"contracts/core/libraries/TickMath.sol\":1475:1532  tick < 0 ? uint256(-int256(tick)) : uint256(int256(tick)) */\n    tag_179:\n        /* \"contracts/core/libraries/TickMath.sol\":1457:1532  uint256 absTick = tick < 0 ? uint256(-int256(tick)) : uint256(int256(tick)) */\n      swap1\n      pop\n        /* \"contracts/core/libraries/TickMath.sol\":644:653  -MIN_TICK */\n      0x0d89e8\n        /* \"contracts/core/libraries/TickMath.sol\":1550:1578  absTick <= uint256(MAX_TICK) */\n      dup2\n      gt\n      iszero\n        /* \"contracts/core/libraries/TickMath.sol\":1542:1584  require(absTick <= uint256(MAX_TICK), \"T\") */\n      tag_180\n      jumpi\n      0x40\n      dup1\n      mload\n      shl(0xe5, 0x461bcd)\n      dup2\n      mstore\n      0x20\n      0x04\n      dup3\n      add\n      mstore\n      0x01\n      0x24\n      dup3\n      add\n      mstore\n      shl(0xfa, 0x15)\n      0x44\n      dup3\n      add\n      mstore\n      swap1\n      mload\n      swap1\n      dup2\n      swap1\n      sub\n      0x64\n      add\n      swap1\n      revert\n    tag_180:\n        /* \"contracts/core/libraries/TickMath.sol\":1595:1608  uint256 ratio */\n      0x00\n        /* \"contracts/core/libraries/TickMath.sol\":1621:1624  0x1 */\n      0x01\n        /* \"contracts/core/libraries/TickMath.sol\":1611:1624  absTick & 0x1 */\n      dup3\n      and\n        /* \"contracts/core/libraries/TickMath.sol\":1611:1704  absTick & 0x1 != 0 ? 0xfffcb933bd6fad37aa2d162d1a594001 : 0x100000000000000000000000000000000 */\n      tag_181\n      jumpi\n      shl(0x80, 0x01)\n      jump(tag_182)\n    tag_181:\n        /* \"contracts/core/libraries/TickMath.sol\":1632:1666  0xfffcb933bd6fad37aa2d162d1a594001 */\n      0xfffcb933bd6fad37aa2d162d1a594001\n        /* \"contracts/core/libraries/TickMath.sol\":1611:1704  absTick & 0x1 != 0 ? 0xfffcb933bd6fad37aa2d162d1a594001 : 0x100000000000000000000000000000000 */\n    tag_182:\n        /* \"contracts/core/libraries/TickMath.sol\":1595:1704  uint256 ratio = absTick & 0x1 != 0 ? 0xfffcb933bd6fad37aa2d162d1a594001 : 0x100000000000000000000000000000000 */\n      0xffffffffffffffffffffffffffffffffff\n      and\n      swap1\n      pop\n        /* \"contracts/core/libraries/TickMath.sol\":1728:1731  0x2 */\n      0x02\n        /* \"contracts/core/libraries/TickMath.sol\":1718:1731  absTick & 0x2 */\n      dup3\n      and\n        /* \"contracts/core/libraries/TickMath.sol\":1718:1736  absTick & 0x2 != 0 */\n      iszero\n        /* \"contracts/core/libraries/TickMath.sol\":1714:1797  if (absTick & 0x2 != 0) ratio = (ratio * 0xfff97272373d413259a46990580e213a) >> 128 */\n      tag_183\n      jumpi\n        /* \"contracts/core/libraries/TickMath.sol\":1755:1789  0xfff97272373d413259a46990580e213a */\n      0xfff97272373d413259a46990580e213a\n        /* \"contracts/core/libraries/TickMath.sol\":1747:1789  ratio * 0xfff97272373d413259a46990580e213a */\n      mul\n        /* \"contracts/core/libraries/TickMath.sol\":1794:1797  128 */\n      0x80\n        /* \"contracts/core/libraries/TickMath.sol\":1746:1797  (ratio * 0xfff97272373d413259a46990580e213a) >> 128 */\n      shr\n        /* \"contracts/core/libraries/TickMath.sol\":1714:1797  if (absTick & 0x2 != 0) ratio = (ratio * 0xfff97272373d413259a46990580e213a) >> 128 */\n    tag_183:\n        /* \"contracts/core/libraries/TickMath.sol\":1821:1824  0x4 */\n      0x04\n        /* \"contracts/core/libraries/TickMath.sol\":1811:1824  absTick & 0x4 */\n      dup3\n      and\n        /* \"contracts/core/libraries/TickMath.sol\":1811:1829  absTick & 0x4 != 0 */\n      iszero\n        /* \"contracts/core/libraries/TickMath.sol\":1807:1890  if (absTick & 0x4 != 0) ratio = (ratio * 0xfff2e50f5f656932ef12357cf3c7fdcc) >> 128 */\n      tag_184\n      jumpi\n        /* \"contracts/core/libraries/TickMath.sol\":1848:1882  0xfff2e50f5f656932ef12357cf3c7fdcc */\n      0xfff2e50f5f656932ef12357cf3c7fdcc\n        /* \"contracts/core/libraries/TickMath.sol\":1840:1882  ratio * 0xfff2e50f5f656932ef12357cf3c7fdcc */\n      mul\n        /* \"contracts/core/libraries/TickMath.sol\":1887:1890  128 */\n      0x80\n        /* \"contracts/core/libraries/TickMath.sol\":1839:1890  (ratio * 0xfff2e50f5f656932ef12357cf3c7fdcc) >> 128 */\n      shr\n        /* \"contracts/core/libraries/TickMath.sol\":1807:1890  if (absTick & 0x4 != 0) ratio = (ratio * 0xfff2e50f5f656932ef12357cf3c7fdcc) >> 128 */\n    tag_184:\n        /* \"contracts/core/libraries/TickMath.sol\":1914:1917  0x8 */\n      0x08\n        /* \"contracts/core/libraries/TickMath.sol\":1904:1917  absTick & 0x8 */\n      dup3\n      and\n        /* \"contracts/core/libraries/TickMath.sol\":1904:1922  absTick & 0x8 != 0 */\n      iszero\n        /* \"contracts/core/libraries/TickMath.sol\":1900:1983  if (absTick & 0x8 != 0) ratio = (ratio * 0xffe5caca7e10e4e61c3624eaa0941cd0) >> 128 */\n      tag_185\n      jumpi\n        /* \"contracts/core/libraries/TickMath.sol\":1941:1975  0xffe5caca7e10e4e61c3624eaa0941cd0 */\n      0xffe5caca7e10e4e61c3624eaa0941cd0\n        /* \"contracts/core/libraries/TickMath.sol\":1933:1975  ratio * 0xffe5caca7e10e4e61c3624eaa0941cd0 */\n      mul\n        /* \"contracts/core/libraries/TickMath.sol\":1980:1983  128 */\n      0x80\n        /* \"contracts/core/libraries/TickMath.sol\":1932:1983  (ratio * 0xffe5caca7e10e4e61c3624eaa0941cd0) >> 128 */\n      shr\n        /* \"contracts/core/libraries/TickMath.sol\":1900:1983  if (absTick & 0x8 != 0) ratio = (ratio * 0xffe5caca7e10e4e61c3624eaa0941cd0) >> 128 */\n    tag_185:\n        /* \"contracts/core/libraries/TickMath.sol\":2007:2011  0x10 */\n      0x10\n        /* \"contracts/core/libraries/TickMath.sol\":1997:2011  absTick & 0x10 */\n      dup3\n      and\n        /* \"contracts/core/libraries/TickMath.sol\":1997:2016  absTick & 0x10 != 0 */\n      iszero\n        /* \"contracts/core/libraries/TickMath.sol\":1993:2077  if (absTick & 0x10 != 0) ratio = (ratio * 0xffcb9843d60f6159c9db58835c926644) >> 128 */\n      tag_186\n      jumpi\n        /* \"contracts/core/libraries/TickMath.sol\":2035:2069  0xffcb9843d60f6159c9db58835c926644 */\n      0xffcb9843d60f6159c9db58835c926644\n        /* \"contracts/core/libraries/TickMath.sol\":2027:2069  ratio * 0xffcb9843d60f6159c9db58835c926644 */\n      mul\n        /* \"contracts/core/libraries/TickMath.sol\":2074:2077  128 */\n      0x80\n        /* \"contracts/core/libraries/TickMath.sol\":2026:2077  (ratio * 0xffcb9843d60f6159c9db58835c926644) >> 128 */\n      shr\n        /* \"contracts/core/libraries/TickMath.sol\":1993:2077  if (absTick & 0x10 != 0) ratio = (ratio * 0xffcb9843d60f6159c9db58835c926644) >> 128 */\n    tag_186:\n        /* \"contracts/core/libraries/TickMath.sol\":2101:2105  0x20 */\n      0x20\n        /* \"contracts/core/libraries/TickMath.sol\":2091:2105  absTick & 0x20 */\n      dup3\n      and\n        /* \"contracts/core/libraries/TickMath.sol\":2091:2110  absTick & 0x20 != 0 */\n      iszero\n        /* \"contracts/core/libraries/TickMath.sol\":2087:2171  if (absTick & 0x20 != 0) ratio = (ratio * 0xff973b41fa98c081472e6896dfb254c0) >> 128 */\n      tag_187\n      jumpi\n        /* \"contracts/core/libraries/TickMath.sol\":2129:2163  0xff973b41fa98c081472e6896dfb254c0 */\n      0xff973b41fa98c081472e6896dfb254c0\n        /* \"contracts/core/libraries/TickMath.sol\":2121:2163  ratio * 0xff973b41fa98c081472e6896dfb254c0 */\n      mul\n        /* \"contracts/core/libraries/TickMath.sol\":2168:2171  128 */\n      0x80\n        /* \"contracts/core/libraries/TickMath.sol\":2120:2171  (ratio * 0xff973b41fa98c081472e6896dfb254c0) >> 128 */\n      shr\n        /* \"contracts/core/libraries/TickMath.sol\":2087:2171  if (absTick & 0x20 != 0) ratio = (ratio * 0xff973b41fa98c081472e6896dfb254c0) >> 128 */\n    tag_187:\n        /* \"contracts/core/libraries/TickMath.sol\":2195:2199  0x40 */\n      0x40\n        /* \"contracts/core/libraries/TickMath.sol\":2185:2199  absTick & 0x40 */\n      dup3\n      and\n        /* \"contracts/core/libraries/TickMath.sol\":2185:2204  absTick & 0x40 != 0 */\n      iszero\n        /* \"contracts/core/libraries/TickMath.sol\":2181:2265  if (absTick & 0x40 != 0) ratio = (ratio * 0xff2ea16466c96a3843ec78b326b52861) >> 128 */\n      tag_188\n      jumpi\n        /* \"contracts/core/libraries/TickMath.sol\":2223:2257  0xff2ea16466c96a3843ec78b326b52861 */\n      0xff2ea16466c96a3843ec78b326b52861\n        /* \"contracts/core/libraries/TickMath.sol\":2215:2257  ratio * 0xff2ea16466c96a3843ec78b326b52861 */\n      mul\n        /* \"contracts/core/libraries/TickMath.sol\":2262:2265  128 */\n      0x80\n        /* \"contracts/core/libraries/TickMath.sol\":2214:2265  (ratio * 0xff2ea16466c96a3843ec78b326b52861) >> 128 */\n      shr\n        /* \"contracts/core/libraries/TickMath.sol\":2181:2265  if (absTick & 0x40 != 0) ratio = (ratio * 0xff2ea16466c96a3843ec78b326b52861) >> 128 */\n    tag_188:\n        /* \"contracts/core/libraries/TickMath.sol\":2289:2293  0x80 */\n      0x80\n        /* \"contracts/core/libraries/TickMath.sol\":2279:2293  absTick & 0x80 */\n      dup3\n      and\n        /* \"contracts/core/libraries/TickMath.sol\":2279:2298  absTick & 0x80 != 0 */\n      iszero\n        /* \"contracts/core/libraries/TickMath.sol\":2275:2359  if (absTick & 0x80 != 0) ratio = (ratio * 0xfe5dee046a99a2a811c461f1969c3053) >> 128 */\n      tag_189\n      jumpi\n        /* \"contracts/core/libraries/TickMath.sol\":2317:2351  0xfe5dee046a99a2a811c461f1969c3053 */\n      0xfe5dee046a99a2a811c461f1969c3053\n        /* \"contracts/core/libraries/TickMath.sol\":2309:2351  ratio * 0xfe5dee046a99a2a811c461f1969c3053 */\n      mul\n        /* \"contracts/core/libraries/TickMath.sol\":2356:2359  128 */\n      0x80\n        /* \"contracts/core/libraries/TickMath.sol\":2308:2359  (ratio * 0xfe5dee046a99a2a811c461f1969c3053) >> 128 */\n      shr\n        /* \"contracts/core/libraries/TickMath.sol\":2275:2359  if (absTick & 0x80 != 0) ratio = (ratio * 0xfe5dee046a99a2a811c461f1969c3053) >> 128 */\n    tag_189:\n        /* \"contracts/core/libraries/TickMath.sol\":2383:2388  0x100 */\n      0x0100\n        /* \"contracts/core/libraries/TickMath.sol\":2373:2388  absTick & 0x100 */\n      dup3\n      and\n        /* \"contracts/core/libraries/TickMath.sol\":2373:2393  absTick & 0x100 != 0 */\n      iszero\n        /* \"contracts/core/libraries/TickMath.sol\":2369:2454  if (absTick & 0x100 != 0) ratio = (ratio * 0xfcbe86c7900a88aedcffc83b479aa3a4) >> 128 */\n      tag_190\n      jumpi\n        /* \"contracts/core/libraries/TickMath.sol\":2412:2446  0xfcbe86c7900a88aedcffc83b479aa3a4 */\n      0xfcbe86c7900a88aedcffc83b479aa3a4\n        /* \"contracts/core/libraries/TickMath.sol\":2404:2446  ratio * 0xfcbe86c7900a88aedcffc83b479aa3a4 */\n      mul\n        /* \"contracts/core/libraries/TickMath.sol\":2451:2454  128 */\n      0x80\n        /* \"contracts/core/libraries/TickMath.sol\":2403:2454  (ratio * 0xfcbe86c7900a88aedcffc83b479aa3a4) >> 128 */\n      shr\n        /* \"contracts/core/libraries/TickMath.sol\":2369:2454  if (absTick & 0x100 != 0) ratio = (ratio * 0xfcbe86c7900a88aedcffc83b479aa3a4) >> 128 */\n    tag_190:\n        /* \"contracts/core/libraries/TickMath.sol\":2478:2483  0x200 */\n      0x0200\n        /* \"contracts/core/libraries/TickMath.sol\":2468:2483  absTick & 0x200 */\n      dup3\n      and\n        /* \"contracts/core/libraries/TickMath.sol\":2468:2488  absTick & 0x200 != 0 */\n      iszero\n        /* \"contracts/core/libraries/TickMath.sol\":2464:2549  if (absTick & 0x200 != 0) ratio = (ratio * 0xf987a7253ac413176f2b074cf7815e54) >> 128 */\n      tag_191\n      jumpi\n        /* \"contracts/core/libraries/TickMath.sol\":2507:2541  0xf987a7253ac413176f2b074cf7815e54 */\n      0xf987a7253ac413176f2b074cf7815e54\n        /* \"contracts/core/libraries/TickMath.sol\":2499:2541  ratio * 0xf987a7253ac413176f2b074cf7815e54 */\n      mul\n        /* \"contracts/core/libraries/TickMath.sol\":2546:2549  128 */\n      0x80\n        /* \"contracts/core/libraries/TickMath.sol\":2498:2549  (ratio * 0xf987a7253ac413176f2b074cf7815e54) >> 128 */\n      shr\n        /* \"contracts/core/libraries/TickMath.sol\":2464:2549  if (absTick & 0x200 != 0) ratio = (ratio * 0xf987a7253ac413176f2b074cf7815e54) >> 128 */\n    tag_191:\n        /* \"contracts/core/libraries/TickMath.sol\":2573:2578  0x400 */\n      0x0400\n        /* \"contracts/core/libraries/TickMath.sol\":2563:2578  absTick & 0x400 */\n      dup3\n      and\n        /* \"contracts/core/libraries/TickMath.sol\":2563:2583  absTick & 0x400 != 0 */\n      iszero\n        /* \"contracts/core/libraries/TickMath.sol\":2559:2644  if (absTick & 0x400 != 0) ratio = (ratio * 0xf3392b0822b70005940c7a398e4b70f3) >> 128 */\n      tag_192\n      jumpi\n        /* \"contracts/core/libraries/TickMath.sol\":2602:2636  0xf3392b0822b70005940c7a398e4b70f3 */\n      0xf3392b0822b70005940c7a398e4b70f3\n        /* \"contracts/core/libraries/TickMath.sol\":2594:2636  ratio * 0xf3392b0822b70005940c7a398e4b70f3 */\n      mul\n        /* \"contracts/core/libraries/TickMath.sol\":2641:2644  128 */\n      0x80\n        /* \"contracts/core/libraries/TickMath.sol\":2593:2644  (ratio * 0xf3392b0822b70005940c7a398e4b70f3) >> 128 */\n      shr\n        /* \"contracts/core/libraries/TickMath.sol\":2559:2644  if (absTick & 0x400 != 0) ratio = (ratio * 0xf3392b0822b70005940c7a398e4b70f3) >> 128 */\n    tag_192:\n        /* \"contracts/core/libraries/TickMath.sol\":2668:2673  0x800 */\n      0x0800\n        /* \"contracts/core/libraries/TickMath.sol\":2658:2673  absTick & 0x800 */\n      dup3\n      and\n        /* \"contracts/core/libraries/TickMath.sol\":2658:2678  absTick & 0x800 != 0 */\n      iszero\n        /* \"contracts/core/libraries/TickMath.sol\":2654:2739  if (absTick & 0x800 != 0) ratio = (ratio * 0xe7159475a2c29b7443b29c7fa6e889d9) >> 128 */\n      tag_193\n      jumpi\n        /* \"contracts/core/libraries/TickMath.sol\":2697:2731  0xe7159475a2c29b7443b29c7fa6e889d9 */\n      0xe7159475a2c29b7443b29c7fa6e889d9\n        /* \"contracts/core/libraries/TickMath.sol\":2689:2731  ratio * 0xe7159475a2c29b7443b29c7fa6e889d9 */\n      mul\n        /* \"contracts/core/libraries/TickMath.sol\":2736:2739  128 */\n      0x80\n        /* \"contracts/core/libraries/TickMath.sol\":2688:2739  (ratio * 0xe7159475a2c29b7443b29c7fa6e889d9) >> 128 */\n      shr\n        /* \"contracts/core/libraries/TickMath.sol\":2654:2739  if (absTick & 0x800 != 0) ratio = (ratio * 0xe7159475a2c29b7443b29c7fa6e889d9) >> 128 */\n    tag_193:\n        /* \"contracts/core/libraries/TickMath.sol\":2763:2769  0x1000 */\n      0x1000\n        /* \"contracts/core/libraries/TickMath.sol\":2753:2769  absTick & 0x1000 */\n      dup3\n      and\n        /* \"contracts/core/libraries/TickMath.sol\":2753:2774  absTick & 0x1000 != 0 */\n      iszero\n        /* \"contracts/core/libraries/TickMath.sol\":2749:2835  if (absTick & 0x1000 != 0) ratio = (ratio * 0xd097f3bdfd2022b8845ad8f792aa5825) >> 128 */\n      tag_194\n      jumpi\n        /* \"contracts/core/libraries/TickMath.sol\":2793:2827  0xd097f3bdfd2022b8845ad8f792aa5825 */\n      0xd097f3bdfd2022b8845ad8f792aa5825\n        /* \"contracts/core/libraries/TickMath.sol\":2785:2827  ratio * 0xd097f3bdfd2022b8845ad8f792aa5825 */\n      mul\n        /* \"contracts/core/libraries/TickMath.sol\":2832:2835  128 */\n      0x80\n        /* \"contracts/core/libraries/TickMath.sol\":2784:2835  (ratio * 0xd097f3bdfd2022b8845ad8f792aa5825) >> 128 */\n      shr\n        /* \"contracts/core/libraries/TickMath.sol\":2749:2835  if (absTick & 0x1000 != 0) ratio = (ratio * 0xd097f3bdfd2022b8845ad8f792aa5825) >> 128 */\n    tag_194:\n        /* \"contracts/core/libraries/TickMath.sol\":2859:2865  0x2000 */\n      0x2000\n        /* \"contracts/core/libraries/TickMath.sol\":2849:2865  absTick & 0x2000 */\n      dup3\n      and\n        /* \"contracts/core/libraries/TickMath.sol\":2849:2870  absTick & 0x2000 != 0 */\n      iszero\n        /* \"contracts/core/libraries/TickMath.sol\":2845:2931  if (absTick & 0x2000 != 0) ratio = (ratio * 0xa9f746462d870fdf8a65dc1f90e061e5) >> 128 */\n      tag_195\n      jumpi\n        /* \"contracts/core/libraries/TickMath.sol\":2889:2923  0xa9f746462d870fdf8a65dc1f90e061e5 */\n      0xa9f746462d870fdf8a65dc1f90e061e5\n        /* \"contracts/core/libraries/TickMath.sol\":2881:2923  ratio * 0xa9f746462d870fdf8a65dc1f90e061e5 */\n      mul\n        /* \"contracts/core/libraries/TickMath.sol\":2928:2931  128 */\n      0x80\n        /* \"contracts/core/libraries/TickMath.sol\":2880:2931  (ratio * 0xa9f746462d870fdf8a65dc1f90e061e5) >> 128 */\n      shr\n        /* \"contracts/core/libraries/TickMath.sol\":2845:2931  if (absTick & 0x2000 != 0) ratio = (ratio * 0xa9f746462d870fdf8a65dc1f90e061e5) >> 128 */\n    tag_195:\n        /* \"contracts/core/libraries/TickMath.sol\":2955:2961  0x4000 */\n      0x4000\n        /* \"contracts/core/libraries/TickMath.sol\":2945:2961  absTick & 0x4000 */\n      dup3\n      and\n        /* \"contracts/core/libraries/TickMath.sol\":2945:2966  absTick & 0x4000 != 0 */\n      iszero\n        /* \"contracts/core/libraries/TickMath.sol\":2941:3027  if (absTick & 0x4000 != 0) ratio = (ratio * 0x70d869a156d2a1b890bb3df62baf32f7) >> 128 */\n      tag_196\n      jumpi\n        /* \"contracts/core/libraries/TickMath.sol\":2985:3019  0x70d869a156d2a1b890bb3df62baf32f7 */\n      0x70d869a156d2a1b890bb3df62baf32f7\n        /* \"contracts/core/libraries/TickMath.sol\":2977:3019  ratio * 0x70d869a156d2a1b890bb3df62baf32f7 */\n      mul\n        /* \"contracts/core/libraries/TickMath.sol\":3024:3027  128 */\n      0x80\n        /* \"contracts/core/libraries/TickMath.sol\":2976:3027  (ratio * 0x70d869a156d2a1b890bb3df62baf32f7) >> 128 */\n      shr\n        /* \"contracts/core/libraries/TickMath.sol\":2941:3027  if (absTick & 0x4000 != 0) ratio = (ratio * 0x70d869a156d2a1b890bb3df62baf32f7) >> 128 */\n    tag_196:\n        /* \"contracts/core/libraries/TickMath.sol\":3051:3057  0x8000 */\n      0x8000\n        /* \"contracts/core/libraries/TickMath.sol\":3041:3057  absTick & 0x8000 */\n      dup3\n      and\n        /* \"contracts/core/libraries/TickMath.sol\":3041:3062  absTick & 0x8000 != 0 */\n      iszero\n        /* \"contracts/core/libraries/TickMath.sol\":3037:3123  if (absTick & 0x8000 != 0) ratio = (ratio * 0x31be135f97d08fd981231505542fcfa6) >> 128 */\n      tag_197\n      jumpi\n        /* \"contracts/core/libraries/TickMath.sol\":3081:3115  0x31be135f97d08fd981231505542fcfa6 */\n      0x31be135f97d08fd981231505542fcfa6\n        /* \"contracts/core/libraries/TickMath.sol\":3073:3115  ratio * 0x31be135f97d08fd981231505542fcfa6 */\n      mul\n        /* \"contracts/core/libraries/TickMath.sol\":3120:3123  128 */\n      0x80\n        /* \"contracts/core/libraries/TickMath.sol\":3072:3123  (ratio * 0x31be135f97d08fd981231505542fcfa6) >> 128 */\n      shr\n        /* \"contracts/core/libraries/TickMath.sol\":3037:3123  if (absTick & 0x8000 != 0) ratio = (ratio * 0x31be135f97d08fd981231505542fcfa6) >> 128 */\n    tag_197:\n        /* \"contracts/core/libraries/TickMath.sol\":3147:3154  0x10000 */\n      0x010000\n        /* \"contracts/core/libraries/TickMath.sol\":3137:3154  absTick & 0x10000 */\n      dup3\n      and\n        /* \"contracts/core/libraries/TickMath.sol\":3137:3159  absTick & 0x10000 != 0 */\n      iszero\n        /* \"contracts/core/libraries/TickMath.sol\":3133:3219  if (absTick & 0x10000 != 0) ratio = (ratio * 0x9aa508b5b7a84e1c677de54f3e99bc9) >> 128 */\n      tag_198\n      jumpi\n        /* \"contracts/core/libraries/TickMath.sol\":3178:3211  0x9aa508b5b7a84e1c677de54f3e99bc9 */\n      0x09aa508b5b7a84e1c677de54f3e99bc9\n        /* \"contracts/core/libraries/TickMath.sol\":3170:3211  ratio * 0x9aa508b5b7a84e1c677de54f3e99bc9 */\n      mul\n        /* \"contracts/core/libraries/TickMath.sol\":3216:3219  128 */\n      0x80\n        /* \"contracts/core/libraries/TickMath.sol\":3169:3219  (ratio * 0x9aa508b5b7a84e1c677de54f3e99bc9) >> 128 */\n      shr\n        /* \"contracts/core/libraries/TickMath.sol\":3133:3219  if (absTick & 0x10000 != 0) ratio = (ratio * 0x9aa508b5b7a84e1c677de54f3e99bc9) >> 128 */\n    tag_198:\n        /* \"contracts/core/libraries/TickMath.sol\":3243:3250  0x20000 */\n      0x020000\n        /* \"contracts/core/libraries/TickMath.sol\":3233:3250  absTick & 0x20000 */\n      dup3\n      and\n        /* \"contracts/core/libraries/TickMath.sol\":3233:3255  absTick & 0x20000 != 0 */\n      iszero\n        /* \"contracts/core/libraries/TickMath.sol\":3229:3314  if (absTick & 0x20000 != 0) ratio = (ratio * 0x5d6af8dedb81196699c329225ee604) >> 128 */\n      tag_199\n      jumpi\n        /* \"contracts/core/libraries/TickMath.sol\":3274:3306  0x5d6af8dedb81196699c329225ee604 */\n      0x5d6af8dedb81196699c329225ee604\n        /* \"contracts/core/libraries/TickMath.sol\":3266:3306  ratio * 0x5d6af8dedb81196699c329225ee604 */\n      mul\n        /* \"contracts/core/libraries/TickMath.sol\":3311:3314  128 */\n      0x80\n        /* \"contracts/core/libraries/TickMath.sol\":3265:3314  (ratio * 0x5d6af8dedb81196699c329225ee604) >> 128 */\n      shr\n        /* \"contracts/core/libraries/TickMath.sol\":3229:3314  if (absTick & 0x20000 != 0) ratio = (ratio * 0x5d6af8dedb81196699c329225ee604) >> 128 */\n    tag_199:\n        /* \"contracts/core/libraries/TickMath.sol\":3338:3345  0x40000 */\n      0x040000\n        /* \"contracts/core/libraries/TickMath.sol\":3328:3345  absTick & 0x40000 */\n      dup3\n      and\n        /* \"contracts/core/libraries/TickMath.sol\":3328:3350  absTick & 0x40000 != 0 */\n      iszero\n        /* \"contracts/core/libraries/TickMath.sol\":3324:3407  if (absTick & 0x40000 != 0) ratio = (ratio * 0x2216e584f5fa1ea926041bedfe98) >> 128 */\n      tag_200\n      jumpi\n        /* \"contracts/core/libraries/TickMath.sol\":3369:3399  0x2216e584f5fa1ea926041bedfe98 */\n      0x2216e584f5fa1ea926041bedfe98\n        /* \"contracts/core/libraries/TickMath.sol\":3361:3399  ratio * 0x2216e584f5fa1ea926041bedfe98 */\n      mul\n        /* \"contracts/core/libraries/TickMath.sol\":3404:3407  128 */\n      0x80\n        /* \"contracts/core/libraries/TickMath.sol\":3360:3407  (ratio * 0x2216e584f5fa1ea926041bedfe98) >> 128 */\n      shr\n        /* \"contracts/core/libraries/TickMath.sol\":3324:3407  if (absTick & 0x40000 != 0) ratio = (ratio * 0x2216e584f5fa1ea926041bedfe98) >> 128 */\n    tag_200:\n        /* \"contracts/core/libraries/TickMath.sol\":3431:3438  0x80000 */\n      0x080000\n        /* \"contracts/core/libraries/TickMath.sol\":3421:3438  absTick & 0x80000 */\n      dup3\n      and\n        /* \"contracts/core/libraries/TickMath.sol\":3421:3443  absTick & 0x80000 != 0 */\n      iszero\n        /* \"contracts/core/libraries/TickMath.sol\":3417:3495  if (absTick & 0x80000 != 0) ratio = (ratio * 0x48a170391f7dc42444e8fa2) >> 128 */\n      tag_201\n      jumpi\n        /* \"contracts/core/libraries/TickMath.sol\":3462:3487  0x48a170391f7dc42444e8fa2 */\n      0x048a170391f7dc42444e8fa2\n        /* \"contracts/core/libraries/TickMath.sol\":3454:3487  ratio * 0x48a170391f7dc42444e8fa2 */\n      mul\n        /* \"contracts/core/libraries/TickMath.sol\":3492:3495  128 */\n      0x80\n        /* \"contracts/core/libraries/TickMath.sol\":3453:3495  (ratio * 0x48a170391f7dc42444e8fa2) >> 128 */\n      shr\n        /* \"contracts/core/libraries/TickMath.sol\":3417:3495  if (absTick & 0x80000 != 0) ratio = (ratio * 0x48a170391f7dc42444e8fa2) >> 128 */\n    tag_201:\n        /* \"contracts/core/libraries/TickMath.sol\":3517:3518  0 */\n      0x00\n        /* \"contracts/core/libraries/TickMath.sol\":3510:3514  tick */\n      dup5\n        /* \"contracts/core/libraries/TickMath.sol\":3510:3518  tick > 0 */\n      0x02\n      signextend\n      sgt\n        /* \"contracts/core/libraries/TickMath.sol\":3506:3553  if (tick > 0) ratio = type(uint256).max / ratio */\n      iszero\n      tag_202\n      jumpi\n        /* \"contracts/core/libraries/TickMath.sol\":3548:3553  ratio */\n      dup1\n      not(0x00)\n        /* \"contracts/core/libraries/TickMath.sol\":3528:3553  type(uint256).max / ratio */\n      dup2\n      tag_203\n      jumpi\n      invalid\n    tag_203:\n      div\n        /* \"contracts/core/libraries/TickMath.sol\":3520:3553  ratio = type(uint256).max / ratio */\n      swap1\n      pop\n        /* \"contracts/core/libraries/TickMath.sol\":3506:3553  if (tick > 0) ratio = type(uint256).max / ratio */\n    tag_202:\n        /* \"contracts/core/libraries/TickMath.sol\":3912:3919  1 << 32 */\n      0x0100000000\n        /* \"contracts/core/libraries/TickMath.sol\":3903:3908  ratio */\n      dup2\n        /* \"contracts/core/libraries/TickMath.sol\":3903:3920  ratio % (1 << 32) */\n      mod\n        /* \"contracts/core/libraries/TickMath.sol\":3903:3925  ratio % (1 << 32) == 0 */\n      iszero\n        /* \"contracts/core/libraries/TickMath.sol\":3903:3933  ratio % (1 << 32) == 0 ? 0 : 1 */\n      tag_205\n      jumpi\n        /* \"contracts/core/libraries/TickMath.sol\":3932:3933  1 */\n      0x01\n        /* \"contracts/core/libraries/TickMath.sol\":3903:3933  ratio % (1 << 32) == 0 ? 0 : 1 */\n      jump(tag_206)\n    tag_205:\n        /* \"contracts/core/libraries/TickMath.sol\":3928:3929  0 */\n      0x00\n        /* \"contracts/core/libraries/TickMath.sol\":3903:3933  ratio % (1 << 32) == 0 ? 0 : 1 */\n    tag_206:\n        /* \"contracts/core/libraries/TickMath.sol\":3886:3934  (ratio >> 32) + (ratio % (1 << 32) == 0 ? 0 : 1) */\n      0xff\n      and\n        /* \"contracts/core/libraries/TickMath.sol\":3896:3898  32 */\n      0x20\n        /* \"contracts/core/libraries/TickMath.sol\":3887:3892  ratio */\n      dup3\n        /* \"contracts/core/libraries/TickMath.sol\":3887:3898  ratio >> 32 */\n      swap1\n      shr\n        /* \"contracts/core/libraries/TickMath.sol\":3886:3934  (ratio >> 32) + (ratio % (1 << 32) == 0 ? 0 : 1) */\n      add\n        /* \"contracts/core/libraries/TickMath.sol\":3863:3935  sqrtPriceX96 = uint160((ratio >> 32) + (ratio % (1 << 32) == 0 ? 0 : 1)) */\n      swap3\n      pop\n        /* \"contracts/core/libraries/TickMath.sol\":1362:3942  function getSqrtRatioAtTick(int24 tick) internal pure returns (uint160 sqrtPriceX96) {... */\n      pop\n      pop\n      swap2\n      swap1\n      pop\n      jump\t// out\n        /* \"contracts/core/libraries/LiquidityAmounts.sol\":1083:1564  function getLiquidityForAmount0(uint160 sqrtRatioAX96, uint160 sqrtRatioBX96, uint256 amount0)\r... */\n    tag_100:\n        /* \"contracts/core/libraries/LiquidityAmounts.sol\":1228:1245  uint128 liquidity */\n      0x00\n        /* \"contracts/core/libraries/LiquidityAmounts.sol\":1283:1296  sqrtRatioBX96 */\n      dup3\n      sub(shl(0xa0, 0x01), 0x01)\n        /* \"contracts/core/libraries/LiquidityAmounts.sol\":1267:1296  sqrtRatioAX96 > sqrtRatioBX96 */\n      and\n        /* \"contracts/core/libraries/LiquidityAmounts.sol\":1267:1280  sqrtRatioAX96 */\n      dup5\n      sub(shl(0xa0, 0x01), 0x01)\n        /* \"contracts/core/libraries/LiquidityAmounts.sol\":1267:1296  sqrtRatioAX96 > sqrtRatioBX96 */\n      and\n      gt\n        /* \"contracts/core/libraries/LiquidityAmounts.sol\":1263:1361  if (sqrtRatioAX96 > sqrtRatioBX96) (sqrtRatioAX96, sqrtRatioBX96) = (sqrtRatioBX96, sqrtRatioAX96) */\n      iszero\n      tag_208\n      jumpi\n        /* \"contracts/core/libraries/LiquidityAmounts.sol\":1332:1345  sqrtRatioBX96 */\n      swap2\n      swap3\n        /* \"contracts/core/libraries/LiquidityAmounts.sol\":1347:1360  sqrtRatioAX96 */\n      swap2\n        /* \"contracts/core/libraries/LiquidityAmounts.sol\":1263:1361  if (sqrtRatioAX96 > sqrtRatioBX96) (sqrtRatioAX96, sqrtRatioBX96) = (sqrtRatioBX96, sqrtRatioAX96) */\n    tag_208:\n        /* \"contracts/core/libraries/LiquidityAmounts.sol\":1372:1392  uint256 intermediate */\n      0x00\n        /* \"contracts/core/libraries/LiquidityAmounts.sol\":1395:1458  FullMath.mulDiv(sqrtRatioAX96, sqrtRatioBX96, FixedPoint96.Q96) */\n      tag_209\n        /* \"contracts/core/libraries/LiquidityAmounts.sol\":1411:1424  sqrtRatioAX96 */\n      dup6\n      sub(shl(0xa0, 0x01), 0x01)\n        /* \"contracts/core/libraries/LiquidityAmounts.sol\":1395:1458  FullMath.mulDiv(sqrtRatioAX96, sqrtRatioBX96, FixedPoint96.Q96) */\n      and\n        /* \"contracts/core/libraries/LiquidityAmounts.sol\":1426:1439  sqrtRatioBX96 */\n      dup6\n      sub(shl(0xa0, 0x01), 0x01)\n        /* \"contracts/core/libraries/LiquidityAmounts.sol\":1395:1458  FullMath.mulDiv(sqrtRatioAX96, sqrtRatioBX96, FixedPoint96.Q96) */\n      and\n      shl(0x60, 0x01)\n        /* \"contracts/core/libraries/LiquidityAmounts.sol\":1395:1410  FullMath.mulDiv */\n      tag_210\n        /* \"contracts/core/libraries/LiquidityAmounts.sol\":1395:1458  FullMath.mulDiv(sqrtRatioAX96, sqrtRatioBX96, FixedPoint96.Q96) */\n      jump\t// in\n    tag_209:\n        /* \"contracts/core/libraries/LiquidityAmounts.sol\":1372:1458  uint256 intermediate = FullMath.mulDiv(sqrtRatioAX96, sqrtRatioBX96, FixedPoint96.Q96) */\n      swap1\n      pop\n        /* \"contracts/core/libraries/LiquidityAmounts.sol\":1476:1556  toUint128(FullMath.mulDiv(amount0, intermediate, sqrtRatioBX96 - sqrtRatioAX96)) */\n      tag_211\n        /* \"contracts/core/libraries/LiquidityAmounts.sol\":1486:1555  FullMath.mulDiv(amount0, intermediate, sqrtRatioBX96 - sqrtRatioAX96) */\n      tag_212\n        /* \"contracts/core/libraries/LiquidityAmounts.sol\":1502:1509  amount0 */\n      dup5\n        /* \"contracts/core/libraries/LiquidityAmounts.sol\":1511:1523  intermediate */\n      dup4\n        /* \"contracts/core/libraries/LiquidityAmounts.sol\":1541:1554  sqrtRatioAX96 */\n      dup9\n        /* \"contracts/core/libraries/LiquidityAmounts.sol\":1525:1538  sqrtRatioBX96 */\n      dup9\n        /* \"contracts/core/libraries/LiquidityAmounts.sol\":1525:1554  sqrtRatioBX96 - sqrtRatioAX96 */\n      sub\n      sub(shl(0xa0, 0x01), 0x01)\n        /* \"contracts/core/libraries/LiquidityAmounts.sol\":1486:1555  FullMath.mulDiv(amount0, intermediate, sqrtRatioBX96 - sqrtRatioAX96) */\n      and\n        /* \"contracts/core/libraries/LiquidityAmounts.sol\":1486:1501  FullMath.mulDiv */\n      tag_210\n        /* \"contracts/core/libraries/LiquidityAmounts.sol\":1486:1555  FullMath.mulDiv(amount0, intermediate, sqrtRatioBX96 - sqrtRatioAX96) */\n      jump\t// in\n    tag_212:\n        /* \"contracts/core/libraries/LiquidityAmounts.sol\":1476:1485  toUint128 */\n      tag_213\n        /* \"contracts/core/libraries/LiquidityAmounts.sol\":1476:1556  toUint128(FullMath.mulDiv(amount0, intermediate, sqrtRatioBX96 - sqrtRatioAX96)) */\n      jump\t// in\n    tag_211:\n        /* \"contracts/core/libraries/LiquidityAmounts.sol\":1469:1556  return toUint128(FullMath.mulDiv(amount0, intermediate, sqrtRatioBX96 - sqrtRatioAX96)) */\n      swap2\n      pop\n      pop\n        /* \"contracts/core/libraries/LiquidityAmounts.sol\":1083:1564  function getLiquidityForAmount0(uint160 sqrtRatioAX96, uint160 sqrtRatioBX96, uint256 amount0)\r... */\n    tag_207:\n      swap4\n      swap3\n      pop\n      pop\n      pop\n      jump\t// out\n        /* \"contracts/core/libraries/FullMath.sol\":749:4495  function mulDiv(uint256 a, uint256 b, uint256 denominator) internal pure returns (uint256 result) {... */\n    tag_210:\n        /* \"contracts/core/libraries/FullMath.sol\":831:845  uint256 result */\n      0x00\n      dup1\n      dup1\n      not(0x00)\n        /* \"contracts/core/libraries/FullMath.sol\":1338:1339  b */\n      dup6\n        /* \"contracts/core/libraries/FullMath.sol\":1335:1336  a */\n      dup8\n        /* \"contracts/core/libraries/FullMath.sol\":1328:1348  mulmod(a, b, not(0)) */\n      mulmod\n        /* \"contracts/core/libraries/FullMath.sol\":1370:1379  mul(a, b) */\n      dup7\n      dup7\n      mul\n      swap3\n      pop\n        /* \"contracts/core/libraries/FullMath.sol\":1421:1434  lt(mm, prod0) */\n      dup3\n      dup2\n      lt\n        /* \"contracts/core/libraries/FullMath.sol\":1405:1419  sub(mm, prod0) */\n      swap1\n      dup4\n      swap1\n      sub\n        /* \"contracts/core/libraries/FullMath.sol\":1401:1435  sub(sub(mm, prod0), lt(mm, prod0)) */\n      sub\n      swap1\n      pop\n        /* \"contracts/core/libraries/FullMath.sol\":1517:1527  prod1 == 0 */\n      dup1\n        /* \"contracts/core/libraries/FullMath.sol\":1513:1692  if (prod1 == 0) {... */\n      tag_215\n      jumpi\n        /* \"contracts/core/libraries/FullMath.sol\":1565:1566  0 */\n      0x00\n        /* \"contracts/core/libraries/FullMath.sol\":1551:1562  denominator */\n      dup5\n        /* \"contracts/core/libraries/FullMath.sol\":1551:1566  denominator > 0 */\n      gt\n        /* \"contracts/core/libraries/FullMath.sol\":1543:1567  require(denominator > 0) */\n      tag_216\n      jumpi\n      0x00\n      dup1\n      revert\n    tag_216:\n      pop\n        /* \"contracts/core/libraries/FullMath.sol\":1618:1641  div(prod0, denominator) */\n      dup3\n      swap1\n      div\n      swap1\n      pop\n        /* \"contracts/core/libraries/FullMath.sol\":1668:1681  return result */\n      jump(tag_207)\n        /* \"contracts/core/libraries/FullMath.sol\":1513:1692  if (prod1 == 0) {... */\n    tag_215:\n        /* \"contracts/core/libraries/FullMath.sol\":1819:1824  prod1 */\n      dup1\n        /* \"contracts/core/libraries/FullMath.sol\":1805:1816  denominator */\n      dup5\n        /* \"contracts/core/libraries/FullMath.sol\":1805:1824  denominator > prod1 */\n      gt\n        /* \"contracts/core/libraries/FullMath.sol\":1797:1825  require(denominator > prod1) */\n      tag_217\n      jumpi\n      0x00\n      dup1\n      revert\n    tag_217:\n        /* \"contracts/core/libraries/FullMath.sol\":2102:2119  uint256 remainder */\n      0x00\n        /* \"contracts/core/libraries/FullMath.sol\":2178:2189  denominator */\n      dup5\n        /* \"contracts/core/libraries/FullMath.sol\":2175:2176  b */\n      dup7\n        /* \"contracts/core/libraries/FullMath.sol\":2172:2173  a */\n      dup9\n        /* \"contracts/core/libraries/FullMath.sol\":2165:2190  mulmod(a, b, denominator) */\n      mulmod\n        /* \"contracts/core/libraries/FullMath.sol\":2530:2542  uint256 twos */\n      0x00\n        /* \"contracts/core/libraries/FullMath.sol\":2545:2557  -denominator */\n      dup7\n      dup2\n      sub\n        /* \"contracts/core/libraries/FullMath.sol\":2545:2571  -denominator & denominator */\n      dup8\n      and\n        /* \"contracts/core/libraries/FullMath.sol\":2665:2687  div(denominator, twos) */\n      swap7\n      dup8\n      swap1\n      div\n      swap7\n        /* \"contracts/core/libraries/FullMath.sol\":3468:3469  2 */\n      0x02\n        /* \"contracts/core/libraries/FullMath.sol\":3449:3450  3 */\n      0x03\n        /* \"contracts/core/libraries/FullMath.sol\":3449:3464  3 * denominator */\n      dup10\n      mul\n        /* \"contracts/core/libraries/FullMath.sol\":3448:3469  (3 * denominator) ^ 2 */\n      dup2\n      xor\n        /* \"contracts/core/libraries/FullMath.sol\":3695:3712  denominator * inv */\n      dup1\n      dup11\n      mul\n        /* \"contracts/core/libraries/FullMath.sol\":3691:3712  2 - denominator * inv */\n      dup3\n      sub\n        /* \"contracts/core/libraries/FullMath.sol\":3684:3712  inv *= 2 - denominator * inv */\n      mul\n        /* \"contracts/core/libraries/FullMath.sol\":3753:3770  denominator * inv */\n      dup1\n      dup11\n      mul\n        /* \"contracts/core/libraries/FullMath.sol\":3749:3770  2 - denominator * inv */\n      dup3\n      sub\n        /* \"contracts/core/libraries/FullMath.sol\":3742:3770  inv *= 2 - denominator * inv */\n      mul\n        /* \"contracts/core/libraries/FullMath.sol\":3812:3829  denominator * inv */\n      dup1\n      dup11\n      mul\n        /* \"contracts/core/libraries/FullMath.sol\":3808:3829  2 - denominator * inv */\n      dup3\n      sub\n        /* \"contracts/core/libraries/FullMath.sol\":3801:3829  inv *= 2 - denominator * inv */\n      mul\n        /* \"contracts/core/libraries/FullMath.sol\":3871:3888  denominator * inv */\n      dup1\n      dup11\n      mul\n        /* \"contracts/core/libraries/FullMath.sol\":3867:3888  2 - denominator * inv */\n      dup3\n      sub\n        /* \"contracts/core/libraries/FullMath.sol\":3860:3888  inv *= 2 - denominator * inv */\n      mul\n        /* \"contracts/core/libraries/FullMath.sol\":3930:3947  denominator * inv */\n      dup1\n      dup11\n      mul\n        /* \"contracts/core/libraries/FullMath.sol\":3926:3947  2 - denominator * inv */\n      dup3\n      sub\n        /* \"contracts/core/libraries/FullMath.sol\":3919:3947  inv *= 2 - denominator * inv */\n      mul\n        /* \"contracts/core/libraries/FullMath.sol\":3990:4007  denominator * inv */\n      dup1\n      dup11\n      mul\n        /* \"contracts/core/libraries/FullMath.sol\":3986:4007  2 - denominator * inv */\n      swap1\n      swap2\n      sub\n        /* \"contracts/core/libraries/FullMath.sol\":3979:4007  inv *= 2 - denominator * inv */\n      mul\n        /* \"contracts/core/libraries/FullMath.sol\":3037:3049  sub(0, twos) */\n      swap2\n      dup2\n      swap1\n      sub\n        /* \"contracts/core/libraries/FullMath.sol\":3033:3056  div(sub(0, twos), twos) */\n      dup2\n      swap1\n      div\n        /* \"contracts/core/libraries/FullMath.sol\":3058:3059  1 */\n      0x01\n        /* \"contracts/core/libraries/FullMath.sol\":3029:3060  add(div(sub(0, twos), twos), 1) */\n      add\n        /* \"contracts/core/libraries/FullMath.sol\":2307:2327  gt(remainder, prod0) */\n      dup7\n      dup5\n      gt\n        /* \"contracts/core/libraries/FullMath.sol\":2296:2328  sub(prod1, gt(remainder, prod0)) */\n      swap1\n      swap6\n      sub\n        /* \"contracts/core/libraries/FullMath.sol\":3088:3100  prod1 * twos */\n      swap5\n      swap1\n      swap5\n      mul\n        /* \"contracts/core/libraries/FullMath.sol\":2350:2371  sub(prod0, remainder) */\n      swap2\n      swap1\n      swap5\n      sub\n        /* \"contracts/core/libraries/FullMath.sol\":2793:2809  div(prod0, twos) */\n      swap3\n      swap1\n      swap3\n      div\n        /* \"contracts/core/libraries/FullMath.sol\":3079:3100  prod0 |= prod1 * twos */\n      swap2\n      swap1\n      swap2\n      or\n        /* \"contracts/core/libraries/FullMath.sol\":4454:4465  prod0 * inv */\n      swap2\n      swap1\n      swap2\n      mul\n      swap2\n      pop\n      pop\n        /* \"contracts/core/libraries/FullMath.sol\":749:4495  function mulDiv(uint256 a, uint256 b, uint256 denominator) internal pure returns (uint256 result) {... */\n      swap4\n      swap3\n      pop\n      pop\n      pop\n      jump\t// out\n        /* \"contracts/core/libraries/LiquidityAmounts.sol\":495:607  function toUint128(uint256 x) private pure returns (uint128 y) {\r... */\n    tag_213:\n        /* \"contracts/core/libraries/LiquidityAmounts.sol\":597:598  x */\n      dup1\n      sub(shl(0x80, 0x01), 0x01)\n        /* \"contracts/core/libraries/LiquidityAmounts.sol\":577:598  (y = uint128(x)) == x */\n      dup2\n      and\n      dup2\n      eq\n        /* \"contracts/core/libraries/LiquidityAmounts.sol\":569:599  require((y = uint128(x)) == x) */\n      tag_219\n      jumpi\n      0x00\n      dup1\n      revert\n    tag_219:\n        /* \"contracts/core/libraries/LiquidityAmounts.sol\":495:607  function toUint128(uint256 x) private pure returns (uint128 y) {\r... */\n      swap2\n      swap1\n      pop\n      jump\t// out\n        /* \"#utility.yul\":14:180   */\n    tag_221:\n        /* \"#utility.yul\":92:105   */\n      dup1\n      mload\n        /* \"#utility.yul\":141:154   */\n      dup1\n      iszero\n        /* \"#utility.yul\":134:155   */\n      iszero\n        /* \"#utility.yul\":124:156   */\n      dup2\n      eq\n        /* \"#utility.yul\":114:116   */\n      tag_219\n      jumpi\n        /* \"#utility.yul\":170:171   */\n      0x00\n        /* \"#utility.yul\":167:168   */\n      dup1\n        /* \"#utility.yul\":160:172   */\n      revert\n        /* \"#utility.yul\":185:350   */\n    tag_224:\n        /* \"#utility.yul\":265:278   */\n      dup1\n      mload\n        /* \"#utility.yul\":318:324   */\n      0xffff\n        /* \"#utility.yul\":307:325   */\n      dup2\n      and\n        /* \"#utility.yul\":297:326   */\n      dup2\n      eq\n        /* \"#utility.yul\":287:289   */\n      tag_219\n      jumpi\n        /* \"#utility.yul\":340:341   */\n      0x00\n        /* \"#utility.yul\":337:338   */\n      dup1\n        /* \"#utility.yul\":330:342   */\n      revert\n        /* \"#utility.yul\":355:614   */\n    tag_46:\n      0x00\n        /* \"#utility.yul\":467:469   */\n      0x20\n        /* \"#utility.yul\":455:464   */\n      dup3\n        /* \"#utility.yul\":446:453   */\n      dup5\n        /* \"#utility.yul\":442:465   */\n      sub\n        /* \"#utility.yul\":438:470   */\n      slt\n        /* \"#utility.yul\":435:437   */\n      iszero\n      tag_228\n      jumpi\n        /* \"#utility.yul\":488:494   */\n      dup1\n        /* \"#utility.yul\":480:486   */\n      dup2\n        /* \"#utility.yul\":473:495   */\n      revert\n        /* \"#utility.yul\":435:437   */\n    tag_228:\n        /* \"#utility.yul\":532:541   */\n      dup2\n        /* \"#utility.yul\":519:542   */\n      calldataload\n        /* \"#utility.yul\":551:584   */\n      tag_207\n        /* \"#utility.yul\":578:583   */\n      dup2\n        /* \"#utility.yul\":551:584   */\n      tag_230\n      jump\t// in\n        /* \"#utility.yul\":619:882   */\n    tag_160:\n      0x00\n        /* \"#utility.yul\":742:744   */\n      0x20\n        /* \"#utility.yul\":730:739   */\n      dup3\n        /* \"#utility.yul\":721:728   */\n      dup5\n        /* \"#utility.yul\":717:740   */\n      sub\n        /* \"#utility.yul\":713:745   */\n      slt\n        /* \"#utility.yul\":710:712   */\n      iszero\n      tag_232\n      jumpi\n        /* \"#utility.yul\":763:769   */\n      dup1\n        /* \"#utility.yul\":755:761   */\n      dup2\n        /* \"#utility.yul\":748:770   */\n      revert\n        /* \"#utility.yul\":710:712   */\n    tag_232:\n        /* \"#utility.yul\":800:809   */\n      dup2\n        /* \"#utility.yul\":794:810   */\n      mload\n        /* \"#utility.yul\":819:852   */\n      tag_207\n        /* \"#utility.yul\":846:851   */\n      dup2\n        /* \"#utility.yul\":819:852   */\n      tag_230\n      jump\t// in\n        /* \"#utility.yul\":887:1101   */\n    tag_114:\n      0x00\n        /* \"#utility.yul\":1007:1009   */\n      0x20\n        /* \"#utility.yul\":995:1004   */\n      dup3\n        /* \"#utility.yul\":986:993   */\n      dup5\n        /* \"#utility.yul\":982:1005   */\n      sub\n        /* \"#utility.yul\":978:1010   */\n      slt\n        /* \"#utility.yul\":975:977   */\n      iszero\n      tag_235\n      jumpi\n        /* \"#utility.yul\":1028:1034   */\n      dup1\n        /* \"#utility.yul\":1020:1026   */\n      dup2\n        /* \"#utility.yul\":1013:1035   */\n      revert\n        /* \"#utility.yul\":975:977   */\n    tag_235:\n        /* \"#utility.yul\":1056:1095   */\n      tag_207\n        /* \"#utility.yul\":1085:1094   */\n      dup3\n        /* \"#utility.yul\":1056:1095   */\n      tag_221\n      jump\t// in\n        /* \"#utility.yul\":1106:1361   */\n    tag_41:\n      0x00\n        /* \"#utility.yul\":1216:1218   */\n      0x20\n        /* \"#utility.yul\":1204:1213   */\n      dup3\n        /* \"#utility.yul\":1195:1202   */\n      dup5\n        /* \"#utility.yul\":1191:1214   */\n      sub\n        /* \"#utility.yul\":1187:1219   */\n      slt\n        /* \"#utility.yul\":1184:1186   */\n      iszero\n      tag_238\n      jumpi\n        /* \"#utility.yul\":1237:1243   */\n      dup1\n        /* \"#utility.yul\":1229:1235   */\n      dup2\n        /* \"#utility.yul\":1222:1244   */\n      revert\n        /* \"#utility.yul\":1184:1186   */\n    tag_238:\n        /* \"#utility.yul\":1281:1290   */\n      dup2\n        /* \"#utility.yul\":1268:1291   */\n      calldataload\n        /* \"#utility.yul\":1300:1331   */\n      tag_207\n        /* \"#utility.yul\":1325:1330   */\n      dup2\n        /* \"#utility.yul\":1300:1331   */\n      tag_240\n      jump\t// in\n        /* \"#utility.yul\":1366:1625   */\n    tag_173:\n      0x00\n        /* \"#utility.yul\":1487:1489   */\n      0x20\n        /* \"#utility.yul\":1475:1484   */\n      dup3\n        /* \"#utility.yul\":1466:1473   */\n      dup5\n        /* \"#utility.yul\":1462:1485   */\n      sub\n        /* \"#utility.yul\":1458:1490   */\n      slt\n        /* \"#utility.yul\":1455:1457   */\n      iszero\n      tag_242\n      jumpi\n        /* \"#utility.yul\":1508:1514   */\n      dup1\n        /* \"#utility.yul\":1500:1506   */\n      dup2\n        /* \"#utility.yul\":1493:1515   */\n      revert\n        /* \"#utility.yul\":1455:1457   */\n    tag_242:\n        /* \"#utility.yul\":1545:1554   */\n      dup2\n        /* \"#utility.yul\":1539:1555   */\n      mload\n        /* \"#utility.yul\":1564:1595   */\n      tag_207\n        /* \"#utility.yul\":1589:1594   */\n      dup2\n        /* \"#utility.yul\":1564:1595   */\n      tag_240\n      jump\t// in\n        /* \"#utility.yul\":1630:2364   */\n    tag_92:\n      0x00\n      dup1\n      0x00\n      dup1\n      0x00\n      dup1\n        /* \"#utility.yul\":1830:1833   */\n      0xc0\n        /* \"#utility.yul\":1818:1827   */\n      dup8\n        /* \"#utility.yul\":1809:1816   */\n      dup10\n        /* \"#utility.yul\":1805:1828   */\n      sub\n        /* \"#utility.yul\":1801:1834   */\n      slt\n        /* \"#utility.yul\":1798:1800   */\n      iszero\n      tag_245\n      jumpi\n        /* \"#utility.yul\":1852:1858   */\n      dup2\n        /* \"#utility.yul\":1844:1850   */\n      dup3\n        /* \"#utility.yul\":1837:1859   */\n      revert\n        /* \"#utility.yul\":1798:1800   */\n    tag_245:\n        /* \"#utility.yul\":1889:1898   */\n      dup7\n        /* \"#utility.yul\":1883:1899   */\n      mload\n        /* \"#utility.yul\":1908:1941   */\n      tag_246\n        /* \"#utility.yul\":1935:1940   */\n      dup2\n        /* \"#utility.yul\":1908:1941   */\n      tag_230\n      jump\t// in\n    tag_246:\n        /* \"#utility.yul\":2010:2012   */\n      0x20\n        /* \"#utility.yul\":1995:2013   */\n      dup9\n      add\n        /* \"#utility.yul\":1989:2014   */\n      mload\n        /* \"#utility.yul\":1960:1965   */\n      swap1\n      swap7\n      pop\n        /* \"#utility.yul\":2023:2056   */\n      tag_247\n        /* \"#utility.yul\":1989:2014   */\n      dup2\n        /* \"#utility.yul\":2023:2056   */\n      tag_240\n      jump\t// in\n    tag_247:\n        /* \"#utility.yul\":2075:2082   */\n      swap5\n      pop\n        /* \"#utility.yul\":2101:2151   */\n      tag_248\n        /* \"#utility.yul\":2147:2149   */\n      0x40\n        /* \"#utility.yul\":2132:2150   */\n      dup9\n      add\n        /* \"#utility.yul\":2101:2151   */\n      tag_224\n      jump\t// in\n    tag_248:\n        /* \"#utility.yul\":2091:2151   */\n      swap4\n      pop\n        /* \"#utility.yul\":2170:2220   */\n      tag_249\n        /* \"#utility.yul\":2216:2218   */\n      0x60\n        /* \"#utility.yul\":2205:2214   */\n      dup9\n        /* \"#utility.yul\":2201:2219   */\n      add\n        /* \"#utility.yul\":2170:2220   */\n      tag_224\n      jump\t// in\n    tag_249:\n        /* \"#utility.yul\":2160:2220   */\n      swap3\n      pop\n        /* \"#utility.yul\":2239:2290   */\n      tag_250\n        /* \"#utility.yul\":2285:2288   */\n      0x80\n        /* \"#utility.yul\":2274:2283   */\n      dup9\n        /* \"#utility.yul\":2270:2289   */\n      add\n        /* \"#utility.yul\":2239:2290   */\n      tag_224\n      jump\t// in\n    tag_250:\n        /* \"#utility.yul\":2229:2290   */\n      swap2\n      pop\n        /* \"#utility.yul\":2309:2358   */\n      tag_251\n        /* \"#utility.yul\":2353:2356   */\n      0xa0\n        /* \"#utility.yul\":2342:2351   */\n      dup9\n        /* \"#utility.yul\":2338:2357   */\n      add\n        /* \"#utility.yul\":2309:2358   */\n      tag_221\n      jump\t// in\n    tag_251:\n        /* \"#utility.yul\":2299:2358   */\n      swap1\n      pop\n        /* \"#utility.yul\":1788:2364   */\n      swap3\n      swap6\n      pop\n      swap3\n      swap6\n      pop\n      swap3\n      swap6\n      jump\t// out\n        /* \"#utility.yul\":2369:2559   */\n    tag_36:\n      0x00\n        /* \"#utility.yul\":2481:2483   */\n      0x20\n        /* \"#utility.yul\":2469:2478   */\n      dup3\n        /* \"#utility.yul\":2460:2467   */\n      dup5\n        /* \"#utility.yul\":2456:2479   */\n      sub\n        /* \"#utility.yul\":2452:2484   */\n      slt\n        /* \"#utility.yul\":2449:2451   */\n      iszero\n      tag_253\n      jumpi\n        /* \"#utility.yul\":2502:2508   */\n      dup1\n        /* \"#utility.yul\":2494:2500   */\n      dup2\n        /* \"#utility.yul\":2487:2509   */\n      revert\n        /* \"#utility.yul\":2449:2451   */\n    tag_253:\n      pop\n        /* \"#utility.yul\":2530:2553   */\n      calldataload\n      swap2\n        /* \"#utility.yul\":2439:2559   */\n      swap1\n      pop\n      jump\t// out\n        /* \"#utility.yul\":2564:2758   */\n    tag_147:\n      0x00\n        /* \"#utility.yul\":2687:2689   */\n      0x20\n        /* \"#utility.yul\":2675:2684   */\n      dup3\n        /* \"#utility.yul\":2666:2673   */\n      dup5\n        /* \"#utility.yul\":2662:2685   */\n      sub\n        /* \"#utility.yul\":2658:2690   */\n      slt\n        /* \"#utility.yul\":2655:2657   */\n      iszero\n      tag_255\n      jumpi\n        /* \"#utility.yul\":2708:2714   */\n      dup1\n        /* \"#utility.yul\":2700:2706   */\n      dup2\n        /* \"#utility.yul\":2693:2715   */\n      revert\n        /* \"#utility.yul\":2655:2657   */\n    tag_255:\n      pop\n        /* \"#utility.yul\":2736:2752   */\n      mload\n      swap2\n        /* \"#utility.yul\":2645:2758   */\n      swap1\n      pop\n      jump\t// out\n        /* \"#utility.yul\":2763:3272   */\n    tag_136:\n      0x00\n      dup1\n      0x00\n      dup1\n        /* \"#utility.yul\":2937:2940   */\n      0x80\n        /* \"#utility.yul\":2925:2934   */\n      dup6\n        /* \"#utility.yul\":2916:2923   */\n      dup8\n        /* \"#utility.yul\":2912:2935   */\n      sub\n        /* \"#utility.yul\":2908:2941   */\n      slt\n        /* \"#utility.yul\":2905:2907   */\n      iszero\n      tag_257\n      jumpi\n        /* \"#utility.yul\":2959:2965   */\n      dup4\n        /* \"#utility.yul\":2951:2957   */\n      dup5\n        /* \"#utility.yul\":2944:2966   */\n      revert\n        /* \"#utility.yul\":2905:2907   */\n    tag_257:\n        /* \"#utility.yul\":2993:3002   */\n      dup5\n        /* \"#utility.yul\":2987:3003   */\n      mload\n        /* \"#utility.yul\":2977:3003   */\n      swap4\n      pop\n        /* \"#utility.yul\":3046:3048   */\n      0x20\n        /* \"#utility.yul\":3035:3044   */\n      dup6\n        /* \"#utility.yul\":3031:3049   */\n      add\n        /* \"#utility.yul\":3025:3050   */\n      mload\n      sub(shl(0x80, 0x01), 0x01)\n        /* \"#utility.yul\":3083:3088   */\n      dup2\n        /* \"#utility.yul\":3079:3125   */\n      and\n        /* \"#utility.yul\":3072:3077   */\n      dup2\n        /* \"#utility.yul\":3069:3126   */\n      eq\n        /* \"#utility.yul\":3059:3061   */\n      tag_258\n      jumpi\n        /* \"#utility.yul\":3145:3151   */\n      dup4\n        /* \"#utility.yul\":3137:3143   */\n      dup5\n        /* \"#utility.yul\":3130:3152   */\n      revert\n        /* \"#utility.yul\":3059:3061   */\n    tag_258:\n        /* \"#utility.yul\":3218:3220   */\n      0x40\n        /* \"#utility.yul\":3203:3221   */\n      dup7\n      add\n        /* \"#utility.yul\":3197:3222   */\n      mload\n        /* \"#utility.yul\":3262:3264   */\n      0x60\n        /* \"#utility.yul\":3247:3265   */\n      swap1\n      swap7\n      add\n        /* \"#utility.yul\":3241:3266   */\n      mload\n        /* \"#utility.yul\":2895:3272   */\n      swap5\n      swap8\n        /* \"#utility.yul\":3173:3178   */\n      swap1\n      swap7\n      pop\n        /* \"#utility.yul\":2895:3272   */\n      swap3\n      pop\n      pop\n      pop\n      jump\t// out\n        /* \"#utility.yul\":3277:3532   */\n    tag_107:\n      0x00\n      dup1\n        /* \"#utility.yul\":3417:3419   */\n      0x40\n        /* \"#utility.yul\":3405:3414   */\n      dup4\n        /* \"#utility.yul\":3396:3403   */\n      dup6\n        /* \"#utility.yul\":3392:3415   */\n      sub\n        /* \"#utility.yul\":3388:3420   */\n      slt\n        /* \"#utility.yul\":3385:3387   */\n      iszero\n      tag_260\n      jumpi\n        /* \"#utility.yul\":3438:3444   */\n      dup2\n        /* \"#utility.yul\":3430:3436   */\n      dup3\n        /* \"#utility.yul\":3423:3445   */\n      revert\n        /* \"#utility.yul\":3385:3387   */\n    tag_260:\n      pop\n      pop\n        /* \"#utility.yul\":3466:3482   */\n      dup1\n      mload\n        /* \"#utility.yul\":3522:3524   */\n      0x20\n        /* \"#utility.yul\":3507:3525   */\n      swap1\n      swap2\n      add\n        /* \"#utility.yul\":3501:3526   */\n      mload\n        /* \"#utility.yul\":3466:3482   */\n      swap1\n      swap3\n        /* \"#utility.yul\":3501:3526   */\n      swap1\n      swap2\n      pop\n        /* \"#utility.yul\":3375:3532   */\n      jump\t// out\n        /* \"#utility.yul\":3537:3643   */\n    tag_261:\n      sub(shl(0xa0, 0x01), 0x01)\n        /* \"#utility.yul\":3605:3636   */\n      and\n        /* \"#utility.yul\":3593:3637   */\n      swap1\n      mstore\n        /* \"#utility.yul\":3583:3643   */\n      jump\t// out\n        /* \"#utility.yul\":3648:3741   */\n    tag_263:\n        /* \"#utility.yul\":3725:3726   */\n      0x02\n        /* \"#utility.yul\":3714:3734   */\n      signextend\n        /* \"#utility.yul\":3702:3735   */\n      swap1\n      mstore\n        /* \"#utility.yul\":3692:3741   */\n      jump\t// out\n        /* \"#utility.yul\":3746:3949   */\n    tag_24:\n      sub(shl(0xa0, 0x01), 0x01)\n        /* \"#utility.yul\":3910:3942   */\n      swap2\n      swap1\n      swap2\n      and\n        /* \"#utility.yul\":3892:3943   */\n      dup2\n      mstore\n        /* \"#utility.yul\":3880:3882   */\n      0x20\n        /* \"#utility.yul\":3865:3883   */\n      add\n      swap1\n        /* \"#utility.yul\":3847:3949   */\n      jump\t// out\n        /* \"#utility.yul\":3954:4337   */\n    tag_109:\n      sub(shl(0xa0, 0x01), 0x01)\n        /* \"#utility.yul\":4220:4235   */\n      swap4\n      dup5\n      and\n        /* \"#utility.yul\":4202:4236   */\n      dup2\n      mstore\n        /* \"#utility.yul\":4272:4287   */\n      swap2\n      swap1\n      swap3\n      and\n        /* \"#utility.yul\":4267:4269   */\n      0x20\n        /* \"#utility.yul\":4252:4270   */\n      dup3\n      add\n        /* \"#utility.yul\":4245:4288   */\n      mstore\n        /* \"#utility.yul\":4319:4321   */\n      0x40\n        /* \"#utility.yul\":4304:4322   */\n      dup2\n      add\n        /* \"#utility.yul\":4297:4331   */\n      swap2\n      swap1\n      swap2\n      mstore\n        /* \"#utility.yul\":4152:4154   */\n      0x60\n        /* \"#utility.yul\":4137:4155   */\n      add\n      swap1\n        /* \"#utility.yul\":4119:4337   */\n      jump\t// out\n        /* \"#utility.yul\":4342:4839   */\n    tag_57:\n      sub(shl(0xa0, 0x01), 0x01)\n        /* \"#utility.yul\":4629:4644   */\n      swap5\n      dup6\n      and\n        /* \"#utility.yul\":4611:4645   */\n      dup2\n      mstore\n      sub(shl(0x80, 0x01), 0x01)\n        /* \"#utility.yul\":4681:4728   */\n      swap4\n      swap1\n      swap4\n      and\n        /* \"#utility.yul\":4676:4678   */\n      0x20\n        /* \"#utility.yul\":4661:4679   */\n      dup5\n      add\n        /* \"#utility.yul\":4654:4729   */\n      mstore\n        /* \"#utility.yul\":4765:4780   */\n      swap1\n      dup4\n      and\n        /* \"#utility.yul\":4760:4762   */\n      0x40\n        /* \"#utility.yul\":4745:4763   */\n      dup4\n      add\n        /* \"#utility.yul\":4738:4781   */\n      mstore\n        /* \"#utility.yul\":4817:4832   */\n      swap1\n      swap2\n      and\n        /* \"#utility.yul\":4812:4814   */\n      0x60\n        /* \"#utility.yul\":4797:4815   */\n      dup3\n      add\n        /* \"#utility.yul\":4790:4833   */\n      mstore\n        /* \"#utility.yul\":4560:4563   */\n      0x80\n        /* \"#utility.yul\":4545:4564   */\n      add\n      swap1\n        /* \"#utility.yul\":4527:4839   */\n      jump\t// out\n        /* \"#utility.yul\":4844:5118   */\n    tag_102:\n      sub(shl(0xa0, 0x01), 0x01)\n        /* \"#utility.yul\":5036:5068   */\n      swap3\n      swap1\n      swap3\n      and\n        /* \"#utility.yul\":5018:5069   */\n      dup3\n      mstore\n        /* \"#utility.yul\":5100:5102   */\n      0x20\n        /* \"#utility.yul\":5085:5103   */\n      dup3\n      add\n        /* \"#utility.yul\":5078:5112   */\n      mstore\n        /* \"#utility.yul\":5006:5008   */\n      0x40\n        /* \"#utility.yul\":4991:5009   */\n      add\n      swap1\n        /* \"#utility.yul\":4973:5118   */\n      jump\t// out\n        /* \"#utility.yul\":5123:5311   */\n    tag_62:\n        /* \"#utility.yul\":5294:5295   */\n      0x02\n        /* \"#utility.yul\":5283:5304   */\n      swap2\n      swap1\n      swap2\n      signextend\n        /* \"#utility.yul\":5265:5305   */\n      dup2\n      mstore\n        /* \"#utility.yul\":5253:5255   */\n      0x20\n        /* \"#utility.yul\":5238:5256   */\n      add\n      swap1\n        /* \"#utility.yul\":5220:5311   */\n      jump\t// out\n        /* \"#utility.yul\":5316:5586   */\n    tag_33:\n        /* \"#utility.yul\":5511:5512   */\n      0x02\n        /* \"#utility.yul\":5500:5521   */\n      swap3\n      dup4\n      signextend\n        /* \"#utility.yul\":5482:5522   */\n      dup2\n      mstore\n        /* \"#utility.yul\":5558:5579   */\n      swap2\n      signextend\n        /* \"#utility.yul\":5553:5555   */\n      0x20\n        /* \"#utility.yul\":5538:5556   */\n      dup3\n      add\n        /* \"#utility.yul\":5531:5580   */\n      mstore\n        /* \"#utility.yul\":5470:5472   */\n      0x40\n        /* \"#utility.yul\":5455:5473   */\n      add\n      swap1\n        /* \"#utility.yul\":5437:5586   */\n      jump\t// out\n        /* \"#utility.yul\":5591:5937   */\n    tag_140:\n        /* \"#utility.yul\":5793:5795   */\n      0x20\n        /* \"#utility.yul\":5775:5796   */\n      dup1\n      dup3\n      mstore\n        /* \"#utility.yul\":5832:5834   */\n      0x16\n        /* \"#utility.yul\":5812:5830   */\n      swap1\n      dup3\n      add\n        /* \"#utility.yul\":5805:5835   */\n      mstore\n      shl(0x50, 0x4f6e6c79206f776e65722063616e20646f2074686973)\n        /* \"#utility.yul\":5866:5868   */\n      0x40\n        /* \"#utility.yul\":5851:5869   */\n      dup3\n      add\n        /* \"#utility.yul\":5844:5896   */\n      mstore\n        /* \"#utility.yul\":5928:5930   */\n      0x60\n        /* \"#utility.yul\":5913:5931   */\n      add\n      swap1\n        /* \"#utility.yul\":5765:5937   */\n      jump\t// out\n        /* \"#utility.yul\":5942:7316   */\n    tag_131:\n      0x00\n        /* \"#utility.yul\":6130:6133   */\n      0x0180\n        /* \"#utility.yul\":6119:6128   */\n      dup3\n        /* \"#utility.yul\":6115:6134   */\n      add\n        /* \"#utility.yul\":6107:6134   */\n      swap1\n      pop\n        /* \"#utility.yul\":6143:6189   */\n      tag_273\n        /* \"#utility.yul\":6179:6188   */\n      dup3\n        /* \"#utility.yul\":6170:6176   */\n      dup5\n        /* \"#utility.yul\":6164:6177   */\n      mload\n        /* \"#utility.yul\":6143:6189   */\n      tag_261\n      jump\t// in\n    tag_273:\n        /* \"#utility.yul\":6236:6240   */\n      0x20\n        /* \"#utility.yul\":6228:6234   */\n      dup4\n        /* \"#utility.yul\":6224:6241   */\n      add\n        /* \"#utility.yul\":6218:6242   */\n      mload\n        /* \"#utility.yul\":6251:6307   */\n      tag_274\n        /* \"#utility.yul\":6301:6305   */\n      0x20\n        /* \"#utility.yul\":6290:6299   */\n      dup5\n        /* \"#utility.yul\":6286:6306   */\n      add\n        /* \"#utility.yul\":6272:6284   */\n      dup3\n        /* \"#utility.yul\":6251:6307   */\n      tag_261\n      jump\t// in\n    tag_274:\n      pop\n        /* \"#utility.yul\":6356:6360   */\n      0x40\n        /* \"#utility.yul\":6348:6354   */\n      dup4\n        /* \"#utility.yul\":6344:6361   */\n      add\n        /* \"#utility.yul\":6338:6362   */\n      mload\n        /* \"#utility.yul\":6371:6427   */\n      tag_275\n        /* \"#utility.yul\":6421:6425   */\n      0x40\n        /* \"#utility.yul\":6410:6419   */\n      dup5\n        /* \"#utility.yul\":6406:6426   */\n      add\n        /* \"#utility.yul\":6390:6404   */\n      dup3\n        /* \"#utility.yul\":6371:6427   */\n      tag_263\n      jump\t// in\n    tag_275:\n      pop\n        /* \"#utility.yul\":6476:6480   */\n      0x60\n        /* \"#utility.yul\":6468:6474   */\n      dup4\n        /* \"#utility.yul\":6464:6481   */\n      add\n        /* \"#utility.yul\":6458:6482   */\n      mload\n        /* \"#utility.yul\":6491:6547   */\n      tag_276\n        /* \"#utility.yul\":6541:6545   */\n      0x60\n        /* \"#utility.yul\":6530:6539   */\n      dup5\n        /* \"#utility.yul\":6526:6546   */\n      add\n        /* \"#utility.yul\":6510:6524   */\n      dup3\n        /* \"#utility.yul\":6491:6547   */\n      tag_263\n      jump\t// in\n    tag_276:\n      pop\n        /* \"#utility.yul\":6596:6600   */\n      0x80\n        /* \"#utility.yul\":6588:6594   */\n      dup4\n        /* \"#utility.yul\":6584:6601   */\n      add\n        /* \"#utility.yul\":6578:6602   */\n      mload\n        /* \"#utility.yul\":6611:6667   */\n      tag_277\n        /* \"#utility.yul\":6661:6665   */\n      0x80\n        /* \"#utility.yul\":6650:6659   */\n      dup5\n        /* \"#utility.yul\":6646:6666   */\n      add\n        /* \"#utility.yul\":6630:6644   */\n      dup3\n        /* \"#utility.yul\":6611:6667   */\n      tag_263\n      jump\t// in\n    tag_277:\n      pop\n        /* \"#utility.yul\":6723:6727   */\n      0xa0\n        /* \"#utility.yul\":6715:6721   */\n      dup4\n        /* \"#utility.yul\":6711:6728   */\n      add\n        /* \"#utility.yul\":6705:6729   */\n      mload\n        /* \"#utility.yul\":6698:6702   */\n      0xa0\n        /* \"#utility.yul\":6687:6696   */\n      dup4\n        /* \"#utility.yul\":6683:6703   */\n      add\n        /* \"#utility.yul\":6676:6730   */\n      mstore\n        /* \"#utility.yul\":6786:6790   */\n      0xc0\n        /* \"#utility.yul\":6778:6784   */\n      dup4\n        /* \"#utility.yul\":6774:6791   */\n      add\n        /* \"#utility.yul\":6768:6792   */\n      mload\n        /* \"#utility.yul\":6761:6765   */\n      0xc0\n        /* \"#utility.yul\":6750:6759   */\n      dup4\n        /* \"#utility.yul\":6746:6766   */\n      add\n        /* \"#utility.yul\":6739:6793   */\n      mstore\n        /* \"#utility.yul\":6849:6853   */\n      0xe0\n        /* \"#utility.yul\":6841:6847   */\n      dup4\n        /* \"#utility.yul\":6837:6854   */\n      add\n        /* \"#utility.yul\":6831:6855   */\n      mload\n        /* \"#utility.yul\":6824:6828   */\n      0xe0\n        /* \"#utility.yul\":6813:6822   */\n      dup4\n        /* \"#utility.yul\":6809:6829   */\n      add\n        /* \"#utility.yul\":6802:6856   */\n      mstore\n        /* \"#utility.yul\":6875:6881   */\n      0x0100\n        /* \"#utility.yul\":6935:6937   */\n      dup1\n        /* \"#utility.yul\":6927:6933   */\n      dup5\n        /* \"#utility.yul\":6923:6938   */\n      add\n        /* \"#utility.yul\":6917:6939   */\n      mload\n        /* \"#utility.yul\":6912:6914   */\n      dup2\n        /* \"#utility.yul\":6901:6910   */\n      dup5\n        /* \"#utility.yul\":6897:6915   */\n      add\n        /* \"#utility.yul\":6890:6940   */\n      mstore\n      pop\n        /* \"#utility.yul\":6959:6965   */\n      0x0120\n        /* \"#utility.yul\":7014:7016   */\n      dup1\n        /* \"#utility.yul\":7006:7012   */\n      dup5\n        /* \"#utility.yul\":7002:7017   */\n      add\n        /* \"#utility.yul\":6996:7018   */\n      mload\n        /* \"#utility.yul\":7027:7083   */\n      tag_278\n        /* \"#utility.yul\":7079:7081   */\n      dup3\n        /* \"#utility.yul\":7068:7077   */\n      dup6\n        /* \"#utility.yul\":7064:7082   */\n      add\n        /* \"#utility.yul\":7048:7062   */\n      dup3\n        /* \"#utility.yul\":7027:7083   */\n      tag_261\n      jump\t// in\n    tag_278:\n      pop\n      pop\n        /* \"#utility.yul\":7102:7108   */\n      0x0140\n        /* \"#utility.yul\":7150:7165   */\n      dup4\n      dup2\n      add\n        /* \"#utility.yul\":7144:7166   */\n      mload\n        /* \"#utility.yul\":7124:7142   */\n      swap1\n      dup4\n      add\n        /* \"#utility.yul\":7117:7167   */\n      mstore\n        /* \"#utility.yul\":7186:7192   */\n      0x0160\n        /* \"#utility.yul\":7229:7244   */\n      dup1\n      dup5\n      add\n        /* \"#utility.yul\":7223:7245   */\n      mload\n        /* \"#utility.yul\":7254:7310   */\n      tag_279\n        /* \"#utility.yul\":7291:7309   */\n      dup3\n      dup6\n      add\n        /* \"#utility.yul\":7223:7245   */\n      dup3\n        /* \"#utility.yul\":7254:7310   */\n      tag_261\n      jump\t// in\n    tag_279:\n      pop\n      pop\n        /* \"#utility.yul\":6097:7316   */\n      swap3\n      swap2\n      pop\n      pop\n      jump\t// out\n        /* \"#utility.yul\":7321:7454   */\n    tag_230:\n      sub(shl(0xa0, 0x01), 0x01)\n        /* \"#utility.yul\":7398:7429   */\n      dup2\n      and\n        /* \"#utility.yul\":7388:7430   */\n      dup2\n      eq\n        /* \"#utility.yul\":7378:7380   */\n      tag_281\n      jumpi\n        /* \"#utility.yul\":7444:7445   */\n      0x00\n        /* \"#utility.yul\":7441:7442   */\n      dup1\n        /* \"#utility.yul\":7434:7446   */\n      revert\n        /* \"#utility.yul\":7378:7380   */\n    tag_281:\n        /* \"#utility.yul\":7368:7454   */\n      pop\n      jump\t// out\n        /* \"#utility.yul\":7459:7579   */\n    tag_240:\n        /* \"#utility.yul\":7548:7553   */\n      dup1\n        /* \"#utility.yul\":7545:7546   */\n      0x02\n        /* \"#utility.yul\":7534:7554   */\n      signextend\n        /* \"#utility.yul\":7527:7532   */\n      dup2\n        /* \"#utility.yul\":7524:7555   */\n      eq\n        /* \"#utility.yul\":7514:7516   */\n      tag_281\n      jumpi\n        /* \"#utility.yul\":7569:7570   */\n      0x00\n        /* \"#utility.yul\":7566:7567   */\n      dup1\n        /* \"#utility.yul\":7559:7571   */\n      revert\n\n    auxdata: 0xa264697066735822122072f1e44edad323baf9451dbb821cb003c940340dc6700c43cd1ddd68bb0dc72164736f6c63430007060033\n}\n",
				"bytecode": {
					"linkReferences": {},
					"object": "6080604052600580546001600160a01b031916739465ed15b70e8a534663530c4fcc92e22b8f603217905534801561003657600080fd5b50600480546001600160a01b031916331790556114a6806100586000396000f3fe6080604052600436106100e85760003560e01c8063b02c43d01161008a578063da802f8011610059578063da802f8014610241578063e6f4d0aa14610256578063f851a44014610276578063fd1c15181461028b576100e8565b8063b02c43d0146101ba578063d0c93a7c146101ea578063d21220a71461020c578063d2aca8cd14610221576100e8565b806351c6590a116100c657806351c6590a146101505780636f053890146101655780637210468a146101855780637dc0d1d0146101a5576100e8565b80630dfe1681146100ed57806316f0115b146101185780633d1c387b1461012d575b600080fd5b3480156100f957600080fd5b506101026102a0565b60405161010f91906112ad565b60405180910390f35b34801561012457600080fd5b506101026102af565b34801561013957600080fd5b506101426102be565b60405161010f929190611340565b61016361015e3660046111fe565b61038f565b005b34801561017157600080fd5b5061016361018036600461114e565b61078c565b34801561019157600080fd5b506101636101a03660046110fc565b6107e7565b3480156101b157600080fd5b506101026108f3565b3480156101c657600080fd5b506101da6101d53660046111fe565b610902565b60405161010f94939291906112e5565b3480156101f657600080fd5b506101ff610942565b60405161010f9190611332565b34801561021857600080fd5b50610102610952565b34801561022d57600080fd5b5061016361023c3660046110fc565b610961565b34801561024d57600080fd5b50610102610bf6565b34801561026257600080fd5b506101636102713660046110fc565b610c05565b34801561028257600080fd5b50610102610c51565b34801561029757600080fd5b506101ff610c60565b6001546001600160a01b031681565b6000546001600160a01b031681565b60008060008060009054906101000a90046001600160a01b03166001600160a01b0316633850c7bd6040518163ffffffff1660e01b815260040160c06040518083038186803b15801561031057600080fd5b505afa158015610324573d6000803e3d6000fd5b505050506040513d601f19601f820116820180604052508101906103489190611186565b50506004549294505050600160a01b9004600290810b915081810b9083900b8161036e57fe5b600454600160a01b900460020b919005919091028181039450019150509091565b60008061039a6102be565b9150915060006103a983610c70565b905060006103b683610c70565b905060006103c5838388610fa2565b60055460008054604051631283c1d760e31b81526001600160801b03949094169450909283926001600160a01b039081169263941e0eb89261040f92909116908790600401611319565b604080518083038186803b15801561042657600080fd5b505afa15801561043a573d6000803e3d6000fd5b505050506040513d601f19601f8201168201806040525081019061045e9190611276565b6001546040516323b872dd60e01b81529294509092506001600160a01b0316906323b872dd90610496903390309087906004016112c1565b602060405180830381600087803b1580156104b057600080fd5b505af11580156104c4573d6000803e3d6000fd5b505050506040513d601f19601f820116820180604052508101906104e89190611134565b506002546040516323b872dd60e01b81526001600160a01b03909116906323b872dd9061051d903390309086906004016112c1565b602060405180830381600087803b15801561053757600080fd5b505af115801561054b573d6000803e3d6000fd5b505050506040513d601f19601f8201168201806040525081019061056f9190611134565b5060015460035460405163095ea7b360e01b81526001600160a01b039283169263095ea7b3926105a6929116908690600401611319565b602060405180830381600087803b1580156105c057600080fd5b505af11580156105d4573d6000803e3d6000fd5b505050506040513d601f19601f820116820180604052508101906105f89190611134565b5060025460035460405163095ea7b360e01b81526001600160a01b039283169263095ea7b39261062f929116908590600401611319565b602060405180830381600087803b15801561064957600080fd5b505af115801561065d573d6000803e3d6000fd5b505050506040513d601f19601f820116820180604052508101906106819190611134565b5060408051610180810182526001546001600160a01b039081168252600280548216602084015260048054600160a01b9004820b820b848601528b820b6060850152908a900b608084015260a0830186905260c08301859052600060e084018190526101008401819052336101208501526216e3604201610140850152610160840152600354935163b5007d1f60e01b815292939091169163b5007d1f9161072b91859101611384565b608060405180830381600087803b15801561074557600080fd5b505af1158015610759573d6000803e3d6000fd5b505050506040513d601f19601f8201168201806040525081019061077d919061122e565b50505050505050505050505050565b6004546001600160a01b031633146107bf5760405162461bcd60e51b81526004016107b690611354565b60405180910390fd5b6004805460029290920b62ffffff16600160b81b0262ffffff60b81b19909216919091179055565b6040516370a0823160e01b81526000906001600160a01b038316906370a08231906108169030906004016112ad565b60206040518083038186803b15801561082e57600080fd5b505afa158015610842573d6000803e3d6000fd5b505050506040513d601f19601f820116820180604052508101906108669190611216565b6004805460405163a9059cbb60e01b81529293506001600160a01b038086169363a9059cbb9361089c9390921691869101611319565b602060405180830381600087803b1580156108b657600080fd5b505af11580156108ca573d6000803e3d6000fd5b505050506040513d601f19601f820116820180604052508101906108ee9190611134565b505050565b6005546001600160a01b031681565b60066020526000908152604090208054600182015460028301546003909301546001600160a01b03928316936001600160801b0390921692918216911684565b600454600160a01b900460020b81565b6002546001600160a01b031681565b6004546001600160a01b0316331461098b5760405162461bcd60e51b81526004016107b690611354565b600080546001600160a01b0319166001600160a01b03838116919091179182905560408051630dfe168160e01b815290519290911691630dfe168191600480820192602092909190829003018186803b1580156109e757600080fd5b505afa1580156109fb573d6000803e3d6000fd5b505050506040513d601f19601f82011682018060405250810190610a1f9190611118565b600180546001600160a01b0319166001600160a01b039283161790556000546040805163d21220a760e01b81529051919092169163d21220a7916004808301926020929190829003018186803b158015610a7857600080fd5b505afa158015610a8c573d6000803e3d6000fd5b505050506040513d601f19601f82011682018060405250810190610ab09190611118565b600280546001600160a01b0319166001600160a01b03928316179055600054604080516323e6650160e11b8152905191909216916347ccca02916004808301926020929190829003018186803b158015610b0957600080fd5b505afa158015610b1d573d6000803e3d6000fd5b505050506040513d601f19601f82011682018060405250810190610b419190611118565b600380546001600160a01b0319166001600160a01b03928316179055600054604080516334324e9f60e21b81529051919092169163d0c93a7c916004808301926020929190829003018186803b158015610b9a57600080fd5b505afa158015610bae573d6000803e3d6000fd5b505050506040513d601f19601f82011682018060405250810190610bd2919061116a565b600460146101000a81548162ffffff021916908360020b62ffffff16021790555050565b6003546001600160a01b031681565b6004546001600160a01b03163314610c2f5760405162461bcd60e51b81526004016107b690611354565b600480546001600160a01b0319166001600160a01b0392909216919091179055565b6004546001600160a01b031681565b600454600160b81b900460020b81565b60008060008360020b12610c87578260020b610c8f565b8260020b6000035b9050620d89e8811115610ccd576040805162461bcd60e51b81526020600482015260016024820152601560fa1b604482015290519081900360640190fd5b600060018216610ce157600160801b610cf3565b6ffffcb933bd6fad37aa2d162d1a5940015b70ffffffffffffffffffffffffffffffffff1690506002821615610d27576ffff97272373d413259a46990580e213a0260801c5b6004821615610d46576ffff2e50f5f656932ef12357cf3c7fdcc0260801c5b6008821615610d65576fffe5caca7e10e4e61c3624eaa0941cd00260801c5b6010821615610d84576fffcb9843d60f6159c9db58835c9266440260801c5b6020821615610da3576fff973b41fa98c081472e6896dfb254c00260801c5b6040821615610dc2576fff2ea16466c96a3843ec78b326b528610260801c5b6080821615610de1576ffe5dee046a99a2a811c461f1969c30530260801c5b610100821615610e01576ffcbe86c7900a88aedcffc83b479aa3a40260801c5b610200821615610e21576ff987a7253ac413176f2b074cf7815e540260801c5b610400821615610e41576ff3392b0822b70005940c7a398e4b70f30260801c5b610800821615610e61576fe7159475a2c29b7443b29c7fa6e889d90260801c5b611000821615610e81576fd097f3bdfd2022b8845ad8f792aa58250260801c5b612000821615610ea1576fa9f746462d870fdf8a65dc1f90e061e50260801c5b614000821615610ec1576f70d869a156d2a1b890bb3df62baf32f70260801c5b618000821615610ee1576f31be135f97d08fd981231505542fcfa60260801c5b62010000821615610f02576f09aa508b5b7a84e1c677de54f3e99bc90260801c5b62020000821615610f22576e5d6af8dedb81196699c329225ee6040260801c5b62040000821615610f41576d2216e584f5fa1ea926041bedfe980260801c5b62080000821615610f5e576b048a170391f7dc42444e8fa20260801c5b60008460020b1315610f79578060001981610f7557fe5b0490505b640100000000810615610f8d576001610f90565b60005b60ff16602082901c0192505050919050565b6000826001600160a01b0316846001600160a01b03161115610fc2579192915b6000610fe5856001600160a01b0316856001600160a01b0316600160601b611010565b905061100561100084838888036001600160a01b0316611010565b6110bf565b9150505b9392505050565b6000808060001985870986860292508281109083900303905080611046576000841161103b57600080fd5b508290049050611009565b80841161105257600080fd5b6000848688096000868103871696879004966002600389028118808a02820302808a02820302808a02820302808a02820302808a02820302808a02909103029181900381900460010186841190950394909402919094039290920491909117919091029150509392505050565b806001600160801b03811681146110d557600080fd5b919050565b805180151581146110d557600080fd5b805161ffff811681146110d557600080fd5b60006020828403121561110d578081fd5b813561100981611449565b600060208284031215611129578081fd5b815161100981611449565b600060208284031215611145578081fd5b611009826110da565b60006020828403121561115f578081fd5b813561100981611461565b60006020828403121561117b578081fd5b815161100981611461565b60008060008060008060c0878903121561119e578182fd5b86516111a981611449565b60208801519096506111ba81611461565b94506111c8604088016110ea565b93506111d6606088016110ea565b92506111e4608088016110ea565b91506111f260a088016110da565b90509295509295509295565b60006020828403121561120f578081fd5b5035919050565b600060208284031215611227578081fd5b5051919050565b60008060008060808587031215611243578384fd5b8451935060208501516001600160801b0381168114611260578384fd5b6040860151606090960151949790965092505050565b60008060408385031215611288578182fd5b505080516020909101519092909150565b6001600160a01b03169052565b60020b9052565b6001600160a01b0391909116815260200190565b6001600160a01b039384168152919092166020820152604081019190915260600190565b6001600160a01b0394851681526001600160801b039390931660208401529083166040830152909116606082015260800190565b6001600160a01b03929092168252602082015260400190565b60029190910b815260200190565b600292830b8152910b602082015260400190565b6020808252601690820152754f6e6c79206f776e65722063616e20646f207468697360501b604082015260600190565b600061018082019050611398828451611299565b60208301516113aa6020840182611299565b5060408301516113bd60408401826112a6565b5060608301516113d060608401826112a6565b5060808301516113e360808401826112a6565b5060a083015160a083015260c083015160c083015260e083015160e08301526101008084015181840152506101208084015161142182850182611299565b505061014083810151908301526101608084015161144182850182611299565b505092915050565b6001600160a01b038116811461145e57600080fd5b50565b8060020b811461145e57600080fdfea264697066735822122072f1e44edad323baf9451dbb821cb003c940340dc6700c43cd1ddd68bb0dc72164736f6c63430007060033",
					"opcodes": "PUSH1 0x80 PUSH1 0x40 MSTORE PUSH1 0x5 DUP1 SLOAD PUSH1 0x1 PUSH1 0x1 PUSH1 0xA0 SHL SUB NOT AND PUSH20 0x9465ED15B70E8A534663530C4FCC92E22B8F6032 OR SWAP1 SSTORE CALLVALUE DUP1 ISZERO PUSH2 0x36 JUMPI PUSH1 0x0 DUP1 REVERT JUMPDEST POP PUSH1 0x4 DUP1 SLOAD PUSH1 0x1 PUSH1 0x1 PUSH1 0xA0 SHL SUB NOT AND CALLER OR SWAP1 SSTORE PUSH2 0x14A6 DUP1 PUSH2 0x58 PUSH1 0x0 CODECOPY PUSH1 0x0 RETURN INVALID PUSH1 0x80 PUSH1 0x40 MSTORE PUSH1 0x4 CALLDATASIZE LT PUSH2 0xE8 JUMPI PUSH1 0x0 CALLDATALOAD PUSH1 0xE0 SHR DUP1 PUSH4 0xB02C43D0 GT PUSH2 0x8A JUMPI DUP1 PUSH4 0xDA802F80 GT PUSH2 0x59 JUMPI DUP1 PUSH4 0xDA802F80 EQ PUSH2 0x241 JUMPI DUP1 PUSH4 0xE6F4D0AA EQ PUSH2 0x256 JUMPI DUP1 PUSH4 0xF851A440 EQ PUSH2 0x276 JUMPI DUP1 PUSH4 0xFD1C1518 EQ PUSH2 0x28B JUMPI PUSH2 0xE8 JUMP JUMPDEST DUP1 PUSH4 0xB02C43D0 EQ PUSH2 0x1BA JUMPI DUP1 PUSH4 0xD0C93A7C EQ PUSH2 0x1EA JUMPI DUP1 PUSH4 0xD21220A7 EQ PUSH2 0x20C JUMPI DUP1 PUSH4 0xD2ACA8CD EQ PUSH2 0x221 JUMPI PUSH2 0xE8 JUMP JUMPDEST DUP1 PUSH4 0x51C6590A GT PUSH2 0xC6 JUMPI DUP1 PUSH4 0x51C6590A EQ PUSH2 0x150 JUMPI DUP1 PUSH4 0x6F053890 EQ PUSH2 0x165 JUMPI DUP1 PUSH4 0x7210468A EQ PUSH2 0x185 JUMPI DUP1 PUSH4 0x7DC0D1D0 EQ PUSH2 0x1A5 JUMPI PUSH2 0xE8 JUMP JUMPDEST DUP1 PUSH4 0xDFE1681 EQ PUSH2 0xED JUMPI DUP1 PUSH4 0x16F0115B EQ PUSH2 0x118 JUMPI DUP1 PUSH4 0x3D1C387B EQ PUSH2 0x12D JUMPI JUMPDEST PUSH1 0x0 DUP1 REVERT JUMPDEST CALLVALUE DUP1 ISZERO PUSH2 0xF9 JUMPI PUSH1 0x0 DUP1 REVERT JUMPDEST POP PUSH2 0x102 PUSH2 0x2A0 JUMP JUMPDEST PUSH1 0x40 MLOAD PUSH2 0x10F SWAP2 SWAP1 PUSH2 0x12AD JUMP JUMPDEST PUSH1 0x40 MLOAD DUP1 SWAP2 SUB SWAP1 RETURN JUMPDEST CALLVALUE DUP1 ISZERO PUSH2 0x124 JUMPI PUSH1 0x0 DUP1 REVERT JUMPDEST POP PUSH2 0x102 PUSH2 0x2AF JUMP JUMPDEST CALLVALUE DUP1 ISZERO PUSH2 0x139 JUMPI PUSH1 0x0 DUP1 REVERT JUMPDEST POP PUSH2 0x142 PUSH2 0x2BE JUMP JUMPDEST PUSH1 0x40 MLOAD PUSH2 0x10F SWAP3 SWAP2 SWAP1 PUSH2 0x1340 JUMP JUMPDEST PUSH2 0x163 PUSH2 0x15E CALLDATASIZE PUSH1 0x4 PUSH2 0x11FE JUMP JUMPDEST PUSH2 0x38F JUMP JUMPDEST STOP JUMPDEST CALLVALUE DUP1 ISZERO PUSH2 0x171 JUMPI PUSH1 0x0 DUP1 REVERT JUMPDEST POP PUSH2 0x163 PUSH2 0x180 CALLDATASIZE PUSH1 0x4 PUSH2 0x114E JUMP JUMPDEST PUSH2 0x78C JUMP JUMPDEST CALLVALUE DUP1 ISZERO PUSH2 0x191 JUMPI PUSH1 0x0 DUP1 REVERT JUMPDEST POP PUSH2 0x163 PUSH2 0x1A0 CALLDATASIZE PUSH1 0x4 PUSH2 0x10FC JUMP JUMPDEST PUSH2 0x7E7 JUMP JUMPDEST CALLVALUE DUP1 ISZERO PUSH2 0x1B1 JUMPI PUSH1 0x0 DUP1 REVERT JUMPDEST POP PUSH2 0x102 PUSH2 0x8F3 JUMP JUMPDEST CALLVALUE DUP1 ISZERO PUSH2 0x1C6 JUMPI PUSH1 0x0 DUP1 REVERT JUMPDEST POP PUSH2 0x1DA PUSH2 0x1D5 CALLDATASIZE PUSH1 0x4 PUSH2 0x11FE JUMP JUMPDEST PUSH2 0x902 JUMP JUMPDEST PUSH1 0x40 MLOAD PUSH2 0x10F SWAP5 SWAP4 SWAP3 SWAP2 SWAP1 PUSH2 0x12E5 JUMP JUMPDEST CALLVALUE DUP1 ISZERO PUSH2 0x1F6 JUMPI PUSH1 0x0 DUP1 REVERT JUMPDEST POP PUSH2 0x1FF PUSH2 0x942 JUMP JUMPDEST PUSH1 0x40 MLOAD PUSH2 0x10F SWAP2 SWAP1 PUSH2 0x1332 JUMP JUMPDEST CALLVALUE DUP1 ISZERO PUSH2 0x218 JUMPI PUSH1 0x0 DUP1 REVERT JUMPDEST POP PUSH2 0x102 PUSH2 0x952 JUMP JUMPDEST CALLVALUE DUP1 ISZERO PUSH2 0x22D JUMPI PUSH1 0x0 DUP1 REVERT JUMPDEST POP PUSH2 0x163 PUSH2 0x23C CALLDATASIZE PUSH1 0x4 PUSH2 0x10FC JUMP JUMPDEST PUSH2 0x961 JUMP JUMPDEST CALLVALUE DUP1 ISZERO PUSH2 0x24D JUMPI PUSH1 0x0 DUP1 REVERT JUMPDEST POP PUSH2 0x102 PUSH2 0xBF6 JUMP JUMPDEST CALLVALUE DUP1 ISZERO PUSH2 0x262 JUMPI PUSH1 0x0 DUP1 REVERT JUMPDEST POP PUSH2 0x163 PUSH2 0x271 CALLDATASIZE PUSH1 0x4 PUSH2 0x10FC JUMP JUMPDEST PUSH2 0xC05 JUMP JUMPDEST CALLVALUE DUP1 ISZERO PUSH2 0x282 JUMPI PUSH1 0x0 DUP1 REVERT JUMPDEST POP PUSH2 0x102 PUSH2 0xC51 JUMP JUMPDEST CALLVALUE DUP1 ISZERO PUSH2 0x297 JUMPI PUSH1 0x0 DUP1 REVERT JUMPDEST POP PUSH2 0x1FF PUSH2 0xC60 JUMP JUMPDEST PUSH1 0x1 SLOAD PUSH1 0x1 PUSH1 0x1 PUSH1 0xA0 SHL SUB AND DUP2 JUMP JUMPDEST PUSH1 0x0 SLOAD PUSH1 0x1 PUSH1 0x1 PUSH1 0xA0 SHL SUB AND DUP2 JUMP JUMPDEST PUSH1 0x0 DUP1 PUSH1 0x0 DUP1 PUSH1 0x0 SWAP1 SLOAD SWAP1 PUSH2 0x100 EXP SWAP1 DIV PUSH1 0x1 PUSH1 0x1 PUSH1 0xA0 SHL SUB AND PUSH1 0x1 PUSH1 0x1 PUSH1 0xA0 SHL SUB AND PUSH4 0x3850C7BD PUSH1 0x40 MLOAD DUP2 PUSH4 0xFFFFFFFF AND PUSH1 0xE0 SHL DUP2 MSTORE PUSH1 0x4 ADD PUSH1 0xC0 PUSH1 0x40 MLOAD DUP1 DUP4 SUB DUP2 DUP7 DUP1 EXTCODESIZE ISZERO DUP1 ISZERO PUSH2 0x310 JUMPI PUSH1 0x0 DUP1 REVERT JUMPDEST POP GAS STATICCALL ISZERO DUP1 ISZERO PUSH2 0x324 JUMPI RETURNDATASIZE PUSH1 0x0 DUP1 RETURNDATACOPY RETURNDATASIZE PUSH1 0x0 REVERT JUMPDEST POP POP POP POP PUSH1 0x40 MLOAD RETURNDATASIZE PUSH1 0x1F NOT PUSH1 0x1F DUP3 ADD AND DUP3 ADD DUP1 PUSH1 0x40 MSTORE POP DUP2 ADD SWAP1 PUSH2 0x348 SWAP2 SWAP1 PUSH2 0x1186 JUMP JUMPDEST POP POP PUSH1 0x4 SLOAD SWAP3 SWAP5 POP POP POP PUSH1 0x1 PUSH1 0xA0 SHL SWAP1 DIV PUSH1 0x2 SWAP1 DUP2 SIGNEXTEND SWAP2 POP DUP2 DUP2 SIGNEXTEND SWAP1 DUP4 SWAP1 SIGNEXTEND DUP2 PUSH2 0x36E JUMPI INVALID JUMPDEST PUSH1 0x4 SLOAD PUSH1 0x1 PUSH1 0xA0 SHL SWAP1 DIV PUSH1 0x2 SIGNEXTEND SWAP2 SWAP1 SDIV SWAP2 SWAP1 SWAP2 MUL DUP2 DUP2 SUB SWAP5 POP ADD SWAP2 POP POP SWAP1 SWAP2 JUMP JUMPDEST PUSH1 0x0 DUP1 PUSH2 0x39A PUSH2 0x2BE JUMP JUMPDEST SWAP2 POP SWAP2 POP PUSH1 0x0 PUSH2 0x3A9 DUP4 PUSH2 0xC70 JUMP JUMPDEST SWAP1 POP PUSH1 0x0 PUSH2 0x3B6 DUP4 PUSH2 0xC70 JUMP JUMPDEST SWAP1 POP PUSH1 0x0 PUSH2 0x3C5 DUP4 DUP4 DUP9 PUSH2 0xFA2 JUMP JUMPDEST PUSH1 0x5 SLOAD PUSH1 0x0 DUP1 SLOAD PUSH1 0x40 MLOAD PUSH4 0x1283C1D7 PUSH1 0xE3 SHL DUP2 MSTORE PUSH1 0x1 PUSH1 0x1 PUSH1 0x80 SHL SUB SWAP5 SWAP1 SWAP5 AND SWAP5 POP SWAP1 SWAP3 DUP4 SWAP3 PUSH1 0x1 PUSH1 0x1 PUSH1 0xA0 SHL SUB SWAP1 DUP2 AND SWAP3 PUSH4 0x941E0EB8 SWAP3 PUSH2 0x40F SWAP3 SWAP1 SWAP2 AND SWAP1 DUP8 SWAP1 PUSH1 0x4 ADD PUSH2 0x1319 JUMP JUMPDEST PUSH1 0x40 DUP1 MLOAD DUP1 DUP4 SUB DUP2 DUP7 DUP1 EXTCODESIZE ISZERO DUP1 ISZERO PUSH2 0x426 JUMPI PUSH1 0x0 DUP1 REVERT JUMPDEST POP GAS STATICCALL ISZERO DUP1 ISZERO PUSH2 0x43A JUMPI RETURNDATASIZE PUSH1 0x0 DUP1 RETURNDATACOPY RETURNDATASIZE PUSH1 0x0 REVERT JUMPDEST POP POP POP POP PUSH1 0x40 MLOAD RETURNDATASIZE PUSH1 0x1F NOT PUSH1 0x1F DUP3 ADD AND DUP3 ADD DUP1 PUSH1 0x40 MSTORE POP DUP2 ADD SWAP1 PUSH2 0x45E SWAP2 SWAP1 PUSH2 0x1276 JUMP JUMPDEST PUSH1 0x1 SLOAD PUSH1 0x40 MLOAD PUSH4 0x23B872DD PUSH1 0xE0 SHL DUP2 MSTORE SWAP3 SWAP5 POP SWAP1 SWAP3 POP PUSH1 0x1 PUSH1 0x1 PUSH1 0xA0 SHL SUB AND SWAP1 PUSH4 0x23B872DD SWAP1 PUSH2 0x496 SWAP1 CALLER SWAP1 ADDRESS SWAP1 DUP8 SWAP1 PUSH1 0x4 ADD PUSH2 0x12C1 JUMP JUMPDEST PUSH1 0x20 PUSH1 0x40 MLOAD DUP1 DUP4 SUB DUP2 PUSH1 0x0 DUP8 DUP1 EXTCODESIZE ISZERO DUP1 ISZERO PUSH2 0x4B0 JUMPI PUSH1 0x0 DUP1 REVERT JUMPDEST POP GAS CALL ISZERO DUP1 ISZERO PUSH2 0x4C4 JUMPI RETURNDATASIZE PUSH1 0x0 DUP1 RETURNDATACOPY RETURNDATASIZE PUSH1 0x0 REVERT JUMPDEST POP POP POP POP PUSH1 0x40 MLOAD RETURNDATASIZE PUSH1 0x1F NOT PUSH1 0x1F DUP3 ADD AND DUP3 ADD DUP1 PUSH1 0x40 MSTORE POP DUP2 ADD SWAP1 PUSH2 0x4E8 SWAP2 SWAP1 PUSH2 0x1134 JUMP JUMPDEST POP PUSH1 0x2 SLOAD PUSH1 0x40 MLOAD PUSH4 0x23B872DD PUSH1 0xE0 SHL DUP2 MSTORE PUSH1 0x1 PUSH1 0x1 PUSH1 0xA0 SHL SUB SWAP1 SWAP2 AND SWAP1 PUSH4 0x23B872DD SWAP1 PUSH2 0x51D SWAP1 CALLER SWAP1 ADDRESS SWAP1 DUP7 SWAP1 PUSH1 0x4 ADD PUSH2 0x12C1 JUMP JUMPDEST PUSH1 0x20 PUSH1 0x40 MLOAD DUP1 DUP4 SUB DUP2 PUSH1 0x0 DUP8 DUP1 EXTCODESIZE ISZERO DUP1 ISZERO PUSH2 0x537 JUMPI PUSH1 0x0 DUP1 REVERT JUMPDEST POP GAS CALL ISZERO DUP1 ISZERO PUSH2 0x54B JUMPI RETURNDATASIZE PUSH1 0x0 DUP1 RETURNDATACOPY RETURNDATASIZE PUSH1 0x0 REVERT JUMPDEST POP POP POP POP PUSH1 0x40 MLOAD RETURNDATASIZE PUSH1 0x1F NOT PUSH1 0x1F DUP3 ADD AND DUP3 ADD DUP1 PUSH1 0x40 MSTORE POP DUP2 ADD SWAP1 PUSH2 0x56F SWAP2 SWAP1 PUSH2 0x1134 JUMP JUMPDEST POP PUSH1 0x1 SLOAD PUSH1 0x3 SLOAD PUSH1 0x40 MLOAD PUSH4 0x95EA7B3 PUSH1 0xE0 SHL DUP2 MSTORE PUSH1 0x1 PUSH1 0x1 PUSH1 0xA0 SHL SUB SWAP3 DUP4 AND SWAP3 PUSH4 0x95EA7B3 SWAP3 PUSH2 0x5A6 SWAP3 SWAP2 AND SWAP1 DUP7 SWAP1 PUSH1 0x4 ADD PUSH2 0x1319 JUMP JUMPDEST PUSH1 0x20 PUSH1 0x40 MLOAD DUP1 DUP4 SUB DUP2 PUSH1 0x0 DUP8 DUP1 EXTCODESIZE ISZERO DUP1 ISZERO PUSH2 0x5C0 JUMPI PUSH1 0x0 DUP1 REVERT JUMPDEST POP GAS CALL ISZERO DUP1 ISZERO PUSH2 0x5D4 JUMPI RETURNDATASIZE PUSH1 0x0 DUP1 RETURNDATACOPY RETURNDATASIZE PUSH1 0x0 REVERT JUMPDEST POP POP POP POP PUSH1 0x40 MLOAD RETURNDATASIZE PUSH1 0x1F NOT PUSH1 0x1F DUP3 ADD AND DUP3 ADD DUP1 PUSH1 0x40 MSTORE POP DUP2 ADD SWAP1 PUSH2 0x5F8 SWAP2 SWAP1 PUSH2 0x1134 JUMP JUMPDEST POP PUSH1 0x2 SLOAD PUSH1 0x3 SLOAD PUSH1 0x40 MLOAD PUSH4 0x95EA7B3 PUSH1 0xE0 SHL DUP2 MSTORE PUSH1 0x1 PUSH1 0x1 PUSH1 0xA0 SHL SUB SWAP3 DUP4 AND SWAP3 PUSH4 0x95EA7B3 SWAP3 PUSH2 0x62F SWAP3 SWAP2 AND SWAP1 DUP6 SWAP1 PUSH1 0x4 ADD PUSH2 0x1319 JUMP JUMPDEST PUSH1 0x20 PUSH1 0x40 MLOAD DUP1 DUP4 SUB DUP2 PUSH1 0x0 DUP8 DUP1 EXTCODESIZE ISZERO DUP1 ISZERO PUSH2 0x649 JUMPI PUSH1 0x0 DUP1 REVERT JUMPDEST POP GAS CALL ISZERO DUP1 ISZERO PUSH2 0x65D JUMPI RETURNDATASIZE PUSH1 0x0 DUP1 RETURNDATACOPY RETURNDATASIZE PUSH1 0x0 REVERT JUMPDEST POP POP POP POP PUSH1 0x40 MLOAD RETURNDATASIZE PUSH1 0x1F NOT PUSH1 0x1F DUP3 ADD AND DUP3 ADD DUP1 PUSH1 0x40 MSTORE POP DUP2 ADD SWAP1 PUSH2 0x681 SWAP2 SWAP1 PUSH2 0x1134 JUMP JUMPDEST POP PUSH1 0x40 DUP1 MLOAD PUSH2 0x180 DUP2 ADD DUP3 MSTORE PUSH1 0x1 SLOAD PUSH1 0x1 PUSH1 0x1 PUSH1 0xA0 SHL SUB SWAP1 DUP2 AND DUP3 MSTORE PUSH1 0x2 DUP1 SLOAD DUP3 AND PUSH1 0x20 DUP5 ADD MSTORE PUSH1 0x4 DUP1 SLOAD PUSH1 0x1 PUSH1 0xA0 SHL SWAP1 DIV DUP3 SIGNEXTEND DUP3 SIGNEXTEND DUP5 DUP7 ADD MSTORE DUP12 DUP3 SIGNEXTEND PUSH1 0x60 DUP6 ADD MSTORE SWAP1 DUP11 SWAP1 SIGNEXTEND PUSH1 0x80 DUP5 ADD MSTORE PUSH1 0xA0 DUP4 ADD DUP7 SWAP1 MSTORE PUSH1 0xC0 DUP4 ADD DUP6 SWAP1 MSTORE PUSH1 0x0 PUSH1 0xE0 DUP5 ADD DUP2 SWAP1 MSTORE PUSH2 0x100 DUP5 ADD DUP2 SWAP1 MSTORE CALLER PUSH2 0x120 DUP6 ADD MSTORE PUSH3 0x16E360 TIMESTAMP ADD PUSH2 0x140 DUP6 ADD MSTORE PUSH2 0x160 DUP5 ADD MSTORE PUSH1 0x3 SLOAD SWAP4 MLOAD PUSH4 0xB5007D1F PUSH1 0xE0 SHL DUP2 MSTORE SWAP3 SWAP4 SWAP1 SWAP2 AND SWAP2 PUSH4 0xB5007D1F SWAP2 PUSH2 0x72B SWAP2 DUP6 SWAP2 ADD PUSH2 0x1384 JUMP JUMPDEST PUSH1 0x80 PUSH1 0x40 MLOAD DUP1 DUP4 SUB DUP2 PUSH1 0x0 DUP8 DUP1 EXTCODESIZE ISZERO DUP1 ISZERO PUSH2 0x745 JUMPI PUSH1 0x0 DUP1 REVERT JUMPDEST POP GAS CALL ISZERO DUP1 ISZERO PUSH2 0x759 JUMPI RETURNDATASIZE PUSH1 0x0 DUP1 RETURNDATACOPY RETURNDATASIZE PUSH1 0x0 REVERT JUMPDEST POP POP POP POP PUSH1 0x40 MLOAD RETURNDATASIZE PUSH1 0x1F NOT PUSH1 0x1F DUP3 ADD AND DUP3 ADD DUP1 PUSH1 0x40 MSTORE POP DUP2 ADD SWAP1 PUSH2 0x77D SWAP2 SWAP1 PUSH2 0x122E JUMP JUMPDEST POP POP POP POP POP POP POP POP POP POP POP POP POP JUMP JUMPDEST PUSH1 0x4 SLOAD PUSH1 0x1 PUSH1 0x1 PUSH1 0xA0 SHL SUB AND CALLER EQ PUSH2 0x7BF JUMPI PUSH1 0x40 MLOAD PUSH3 0x461BCD PUSH1 0xE5 SHL DUP2 MSTORE PUSH1 0x4 ADD PUSH2 0x7B6 SWAP1 PUSH2 0x1354 JUMP JUMPDEST PUSH1 0x40 MLOAD DUP1 SWAP2 SUB SWAP1 REVERT JUMPDEST PUSH1 0x4 DUP1 SLOAD PUSH1 0x2 SWAP3 SWAP1 SWAP3 SIGNEXTEND PUSH3 0xFFFFFF AND PUSH1 0x1 PUSH1 0xB8 SHL MUL PUSH3 0xFFFFFF PUSH1 0xB8 SHL NOT SWAP1 SWAP3 AND SWAP2 SWAP1 SWAP2 OR SWAP1 SSTORE JUMP JUMPDEST PUSH1 0x40 MLOAD PUSH4 0x70A08231 PUSH1 0xE0 SHL DUP2 MSTORE PUSH1 0x0 SWAP1 PUSH1 0x1 PUSH1 0x1 PUSH1 0xA0 SHL SUB DUP4 AND SWAP1 PUSH4 0x70A08231 SWAP1 PUSH2 0x816 SWAP1 ADDRESS SWAP1 PUSH1 0x4 ADD PUSH2 0x12AD JUMP JUMPDEST PUSH1 0x20 PUSH1 0x40 MLOAD DUP1 DUP4 SUB DUP2 DUP7 DUP1 EXTCODESIZE ISZERO DUP1 ISZERO PUSH2 0x82E JUMPI PUSH1 0x0 DUP1 REVERT JUMPDEST POP GAS STATICCALL ISZERO DUP1 ISZERO PUSH2 0x842 JUMPI RETURNDATASIZE PUSH1 0x0 DUP1 RETURNDATACOPY RETURNDATASIZE PUSH1 0x0 REVERT JUMPDEST POP POP POP POP PUSH1 0x40 MLOAD RETURNDATASIZE PUSH1 0x1F NOT PUSH1 0x1F DUP3 ADD AND DUP3 ADD DUP1 PUSH1 0x40 MSTORE POP DUP2 ADD SWAP1 PUSH2 0x866 SWAP2 SWAP1 PUSH2 0x1216 JUMP JUMPDEST PUSH1 0x4 DUP1 SLOAD PUSH1 0x40 MLOAD PUSH4 0xA9059CBB PUSH1 0xE0 SHL DUP2 MSTORE SWAP3 SWAP4 POP PUSH1 0x1 PUSH1 0x1 PUSH1 0xA0 SHL SUB DUP1 DUP7 AND SWAP4 PUSH4 0xA9059CBB SWAP4 PUSH2 0x89C SWAP4 SWAP1 SWAP3 AND SWAP2 DUP7 SWAP2 ADD PUSH2 0x1319 JUMP JUMPDEST PUSH1 0x20 PUSH1 0x40 MLOAD DUP1 DUP4 SUB DUP2 PUSH1 0x0 DUP8 DUP1 EXTCODESIZE ISZERO DUP1 ISZERO PUSH2 0x8B6 JUMPI PUSH1 0x0 DUP1 REVERT JUMPDEST POP GAS CALL ISZERO DUP1 ISZERO PUSH2 0x8CA JUMPI RETURNDATASIZE PUSH1 0x0 DUP1 RETURNDATACOPY RETURNDATASIZE PUSH1 0x0 REVERT JUMPDEST POP POP POP POP PUSH1 0x40 MLOAD RETURNDATASIZE PUSH1 0x1F NOT PUSH1 0x1F DUP3 ADD AND DUP3 ADD DUP1 PUSH1 0x40 MSTORE POP DUP2 ADD SWAP1 PUSH2 0x8EE SWAP2 SWAP1 PUSH2 0x1134 JUMP JUMPDEST POP POP POP JUMP JUMPDEST PUSH1 0x5 SLOAD PUSH1 0x1 PUSH1 0x1 PUSH1 0xA0 SHL SUB AND DUP2 JUMP JUMPDEST PUSH1 0x6 PUSH1 0x20 MSTORE PUSH1 0x0 SWAP1 DUP2 MSTORE PUSH1 0x40 SWAP1 KECCAK256 DUP1 SLOAD PUSH1 0x1 DUP3 ADD SLOAD PUSH1 0x2 DUP4 ADD SLOAD PUSH1 0x3 SWAP1 SWAP4 ADD SLOAD PUSH1 0x1 PUSH1 0x1 PUSH1 0xA0 SHL SUB SWAP3 DUP4 AND SWAP4 PUSH1 0x1 PUSH1 0x1 PUSH1 0x80 SHL SUB SWAP1 SWAP3 AND SWAP3 SWAP2 DUP3 AND SWAP2 AND DUP5 JUMP JUMPDEST PUSH1 0x4 SLOAD PUSH1 0x1 PUSH1 0xA0 SHL SWAP1 DIV PUSH1 0x2 SIGNEXTEND DUP2 JUMP JUMPDEST PUSH1 0x2 SLOAD PUSH1 0x1 PUSH1 0x1 PUSH1 0xA0 SHL SUB AND DUP2 JUMP JUMPDEST PUSH1 0x4 SLOAD PUSH1 0x1 PUSH1 0x1 PUSH1 0xA0 SHL SUB AND CALLER EQ PUSH2 0x98B JUMPI PUSH1 0x40 MLOAD PUSH3 0x461BCD PUSH1 0xE5 SHL DUP2 MSTORE PUSH1 0x4 ADD PUSH2 0x7B6 SWAP1 PUSH2 0x1354 JUMP JUMPDEST PUSH1 0x0 DUP1 SLOAD PUSH1 0x1 PUSH1 0x1 PUSH1 0xA0 SHL SUB NOT AND PUSH1 0x1 PUSH1 0x1 PUSH1 0xA0 SHL SUB DUP4 DUP2 AND SWAP2 SWAP1 SWAP2 OR SWAP2 DUP3 SWAP1 SSTORE PUSH1 0x40 DUP1 MLOAD PUSH4 0xDFE1681 PUSH1 0xE0 SHL DUP2 MSTORE SWAP1 MLOAD SWAP3 SWAP1 SWAP2 AND SWAP2 PUSH4 0xDFE1681 SWAP2 PUSH1 0x4 DUP1 DUP3 ADD SWAP3 PUSH1 0x20 SWAP3 SWAP1 SWAP2 SWAP1 DUP3 SWAP1 SUB ADD DUP2 DUP7 DUP1 EXTCODESIZE ISZERO DUP1 ISZERO PUSH2 0x9E7 JUMPI PUSH1 0x0 DUP1 REVERT JUMPDEST POP GAS STATICCALL ISZERO DUP1 ISZERO PUSH2 0x9FB JUMPI RETURNDATASIZE PUSH1 0x0 DUP1 RETURNDATACOPY RETURNDATASIZE PUSH1 0x0 REVERT JUMPDEST POP POP POP POP PUSH1 0x40 MLOAD RETURNDATASIZE PUSH1 0x1F NOT PUSH1 0x1F DUP3 ADD AND DUP3 ADD DUP1 PUSH1 0x40 MSTORE POP DUP2 ADD SWAP1 PUSH2 0xA1F SWAP2 SWAP1 PUSH2 0x1118 JUMP JUMPDEST PUSH1 0x1 DUP1 SLOAD PUSH1 0x1 PUSH1 0x1 PUSH1 0xA0 SHL SUB NOT AND PUSH1 0x1 PUSH1 0x1 PUSH1 0xA0 SHL SUB SWAP3 DUP4 AND OR SWAP1 SSTORE PUSH1 0x0 SLOAD PUSH1 0x40 DUP1 MLOAD PUSH4 0xD21220A7 PUSH1 0xE0 SHL DUP2 MSTORE SWAP1 MLOAD SWAP2 SWAP1 SWAP3 AND SWAP2 PUSH4 0xD21220A7 SWAP2 PUSH1 0x4 DUP1 DUP4 ADD SWAP3 PUSH1 0x20 SWAP3 SWAP2 SWAP1 DUP3 SWAP1 SUB ADD DUP2 DUP7 DUP1 EXTCODESIZE ISZERO DUP1 ISZERO PUSH2 0xA78 JUMPI PUSH1 0x0 DUP1 REVERT JUMPDEST POP GAS STATICCALL ISZERO DUP1 ISZERO PUSH2 0xA8C JUMPI RETURNDATASIZE PUSH1 0x0 DUP1 RETURNDATACOPY RETURNDATASIZE PUSH1 0x0 REVERT JUMPDEST POP POP POP POP PUSH1 0x40 MLOAD RETURNDATASIZE PUSH1 0x1F NOT PUSH1 0x1F DUP3 ADD AND DUP3 ADD DUP1 PUSH1 0x40 MSTORE POP DUP2 ADD SWAP1 PUSH2 0xAB0 SWAP2 SWAP1 PUSH2 0x1118 JUMP JUMPDEST PUSH1 0x2 DUP1 SLOAD PUSH1 0x1 PUSH1 0x1 PUSH1 0xA0 SHL SUB NOT AND PUSH1 0x1 PUSH1 0x1 PUSH1 0xA0 SHL SUB SWAP3 DUP4 AND OR SWAP1 SSTORE PUSH1 0x0 SLOAD PUSH1 0x40 DUP1 MLOAD PUSH4 0x23E66501 PUSH1 0xE1 SHL DUP2 MSTORE SWAP1 MLOAD SWAP2 SWAP1 SWAP3 AND SWAP2 PUSH4 0x47CCCA02 SWAP2 PUSH1 0x4 DUP1 DUP4 ADD SWAP3 PUSH1 0x20 SWAP3 SWAP2 SWAP1 DUP3 SWAP1 SUB ADD DUP2 DUP7 DUP1 EXTCODESIZE ISZERO DUP1 ISZERO PUSH2 0xB09 JUMPI PUSH1 0x0 DUP1 REVERT JUMPDEST POP GAS STATICCALL ISZERO DUP1 ISZERO PUSH2 0xB1D JUMPI RETURNDATASIZE PUSH1 0x0 DUP1 RETURNDATACOPY RETURNDATASIZE PUSH1 0x0 REVERT JUMPDEST POP POP POP POP PUSH1 0x40 MLOAD RETURNDATASIZE PUSH1 0x1F NOT PUSH1 0x1F DUP3 ADD AND DUP3 ADD DUP1 PUSH1 0x40 MSTORE POP DUP2 ADD SWAP1 PUSH2 0xB41 SWAP2 SWAP1 PUSH2 0x1118 JUMP JUMPDEST PUSH1 0x3 DUP1 SLOAD PUSH1 0x1 PUSH1 0x1 PUSH1 0xA0 SHL SUB NOT AND PUSH1 0x1 PUSH1 0x1 PUSH1 0xA0 SHL SUB SWAP3 DUP4 AND OR SWAP1 SSTORE PUSH1 0x0 SLOAD PUSH1 0x40 DUP1 MLOAD PUSH4 0x34324E9F PUSH1 0xE2 SHL DUP2 MSTORE SWAP1 MLOAD SWAP2 SWAP1 SWAP3 AND SWAP2 PUSH4 0xD0C93A7C SWAP2 PUSH1 0x4 DUP1 DUP4 ADD SWAP3 PUSH1 0x20 SWAP3 SWAP2 SWAP1 DUP3 SWAP1 SUB ADD DUP2 DUP7 DUP1 EXTCODESIZE ISZERO DUP1 ISZERO PUSH2 0xB9A JUMPI PUSH1 0x0 DUP1 REVERT JUMPDEST POP GAS STATICCALL ISZERO DUP1 ISZERO PUSH2 0xBAE JUMPI RETURNDATASIZE PUSH1 0x0 DUP1 RETURNDATACOPY RETURNDATASIZE PUSH1 0x0 REVERT JUMPDEST POP POP POP POP PUSH1 0x40 MLOAD RETURNDATASIZE PUSH1 0x1F NOT PUSH1 0x1F DUP3 ADD AND DUP3 ADD DUP1 PUSH1 0x40 MSTORE POP DUP2 ADD SWAP1 PUSH2 0xBD2 SWAP2 SWAP1 PUSH2 0x116A JUMP JUMPDEST PUSH1 0x4 PUSH1 0x14 PUSH2 0x100 EXP DUP2 SLOAD DUP2 PUSH3 0xFFFFFF MUL NOT AND SWAP1 DUP4 PUSH1 0x2 SIGNEXTEND PUSH3 0xFFFFFF AND MUL OR SWAP1 SSTORE POP POP JUMP JUMPDEST PUSH1 0x3 SLOAD PUSH1 0x1 PUSH1 0x1 PUSH1 0xA0 SHL SUB AND DUP2 JUMP JUMPDEST PUSH1 0x4 SLOAD PUSH1 0x1 PUSH1 0x1 PUSH1 0xA0 SHL SUB AND CALLER EQ PUSH2 0xC2F JUMPI PUSH1 0x40 MLOAD PUSH3 0x461BCD PUSH1 0xE5 SHL DUP2 MSTORE PUSH1 0x4 ADD PUSH2 0x7B6 SWAP1 PUSH2 0x1354 JUMP JUMPDEST PUSH1 0x4 DUP1 SLOAD PUSH1 0x1 PUSH1 0x1 PUSH1 0xA0 SHL SUB NOT AND PUSH1 0x1 PUSH1 0x1 PUSH1 0xA0 SHL SUB SWAP3 SWAP1 SWAP3 AND SWAP2 SWAP1 SWAP2 OR SWAP1 SSTORE JUMP JUMPDEST PUSH1 0x4 SLOAD PUSH1 0x1 PUSH1 0x1 PUSH1 0xA0 SHL SUB AND DUP2 JUMP JUMPDEST PUSH1 0x4 SLOAD PUSH1 0x1 PUSH1 0xB8 SHL SWAP1 DIV PUSH1 0x2 SIGNEXTEND DUP2 JUMP JUMPDEST PUSH1 0x0 DUP1 PUSH1 0x0 DUP4 PUSH1 0x2 SIGNEXTEND SLT PUSH2 0xC87 JUMPI DUP3 PUSH1 0x2 SIGNEXTEND PUSH2 0xC8F JUMP JUMPDEST DUP3 PUSH1 0x2 SIGNEXTEND PUSH1 0x0 SUB JUMPDEST SWAP1 POP PUSH3 0xD89E8 DUP2 GT ISZERO PUSH2 0xCCD JUMPI PUSH1 0x40 DUP1 MLOAD PUSH3 0x461BCD PUSH1 0xE5 SHL DUP2 MSTORE PUSH1 0x20 PUSH1 0x4 DUP3 ADD MSTORE PUSH1 0x1 PUSH1 0x24 DUP3 ADD MSTORE PUSH1 0x15 PUSH1 0xFA SHL PUSH1 0x44 DUP3 ADD MSTORE SWAP1 MLOAD SWAP1 DUP2 SWAP1 SUB PUSH1 0x64 ADD SWAP1 REVERT JUMPDEST PUSH1 0x0 PUSH1 0x1 DUP3 AND PUSH2 0xCE1 JUMPI PUSH1 0x1 PUSH1 0x80 SHL PUSH2 0xCF3 JUMP JUMPDEST PUSH16 0xFFFCB933BD6FAD37AA2D162D1A594001 JUMPDEST PUSH17 0xFFFFFFFFFFFFFFFFFFFFFFFFFFFFFFFFFF AND SWAP1 POP PUSH1 0x2 DUP3 AND ISZERO PUSH2 0xD27 JUMPI PUSH16 0xFFF97272373D413259A46990580E213A MUL PUSH1 0x80 SHR JUMPDEST PUSH1 0x4 DUP3 AND ISZERO PUSH2 0xD46 JUMPI PUSH16 0xFFF2E50F5F656932EF12357CF3C7FDCC MUL PUSH1 0x80 SHR JUMPDEST PUSH1 0x8 DUP3 AND ISZERO PUSH2 0xD65 JUMPI PUSH16 0xFFE5CACA7E10E4E61C3624EAA0941CD0 MUL PUSH1 0x80 SHR JUMPDEST PUSH1 0x10 DUP3 AND ISZERO PUSH2 0xD84 JUMPI PUSH16 0xFFCB9843D60F6159C9DB58835C926644 MUL PUSH1 0x80 SHR JUMPDEST PUSH1 0x20 DUP3 AND ISZERO PUSH2 0xDA3 JUMPI PUSH16 0xFF973B41FA98C081472E6896DFB254C0 MUL PUSH1 0x80 SHR JUMPDEST PUSH1 0x40 DUP3 AND ISZERO PUSH2 0xDC2 JUMPI PUSH16 0xFF2EA16466C96A3843EC78B326B52861 MUL PUSH1 0x80 SHR JUMPDEST PUSH1 0x80 DUP3 AND ISZERO PUSH2 0xDE1 JUMPI PUSH16 0xFE5DEE046A99A2A811C461F1969C3053 MUL PUSH1 0x80 SHR JUMPDEST PUSH2 0x100 DUP3 AND ISZERO PUSH2 0xE01 JUMPI PUSH16 0xFCBE86C7900A88AEDCFFC83B479AA3A4 MUL PUSH1 0x80 SHR JUMPDEST PUSH2 0x200 DUP3 AND ISZERO PUSH2 0xE21 JUMPI PUSH16 0xF987A7253AC413176F2B074CF7815E54 MUL PUSH1 0x80 SHR JUMPDEST PUSH2 0x400 DUP3 AND ISZERO PUSH2 0xE41 JUMPI PUSH16 0xF3392B0822B70005940C7A398E4B70F3 MUL PUSH1 0x80 SHR JUMPDEST PUSH2 0x800 DUP3 AND ISZERO PUSH2 0xE61 JUMPI PUSH16 0xE7159475A2C29B7443B29C7FA6E889D9 MUL PUSH1 0x80 SHR JUMPDEST PUSH2 0x1000 DUP3 AND ISZERO PUSH2 0xE81 JUMPI PUSH16 0xD097F3BDFD2022B8845AD8F792AA5825 MUL PUSH1 0x80 SHR JUMPDEST PUSH2 0x2000 DUP3 AND ISZERO PUSH2 0xEA1 JUMPI PUSH16 0xA9F746462D870FDF8A65DC1F90E061E5 MUL PUSH1 0x80 SHR JUMPDEST PUSH2 0x4000 DUP3 AND ISZERO PUSH2 0xEC1 JUMPI PUSH16 0x70D869A156D2A1B890BB3DF62BAF32F7 MUL PUSH1 0x80 SHR JUMPDEST PUSH2 0x8000 DUP3 AND ISZERO PUSH2 0xEE1 JUMPI PUSH16 0x31BE135F97D08FD981231505542FCFA6 MUL PUSH1 0x80 SHR JUMPDEST PUSH3 0x10000 DUP3 AND ISZERO PUSH2 0xF02 JUMPI PUSH16 0x9AA508B5B7A84E1C677DE54F3E99BC9 MUL PUSH1 0x80 SHR JUMPDEST PUSH3 0x20000 DUP3 AND ISZERO PUSH2 0xF22 JUMPI PUSH15 0x5D6AF8DEDB81196699C329225EE604 MUL PUSH1 0x80 SHR JUMPDEST PUSH3 0x40000 DUP3 AND ISZERO PUSH2 0xF41 JUMPI PUSH14 0x2216E584F5FA1EA926041BEDFE98 MUL PUSH1 0x80 SHR JUMPDEST PUSH3 0x80000 DUP3 AND ISZERO PUSH2 0xF5E JUMPI PUSH12 0x48A170391F7DC42444E8FA2 MUL PUSH1 0x80 SHR JUMPDEST PUSH1 0x0 DUP5 PUSH1 0x2 SIGNEXTEND SGT ISZERO PUSH2 0xF79 JUMPI DUP1 PUSH1 0x0 NOT DUP2 PUSH2 0xF75 JUMPI INVALID JUMPDEST DIV SWAP1 POP JUMPDEST PUSH5 0x100000000 DUP2 MOD ISZERO PUSH2 0xF8D JUMPI PUSH1 0x1 PUSH2 0xF90 JUMP JUMPDEST PUSH1 0x0 JUMPDEST PUSH1 0xFF AND PUSH1 0x20 DUP3 SWAP1 SHR ADD SWAP3 POP POP POP SWAP2 SWAP1 POP JUMP JUMPDEST PUSH1 0x0 DUP3 PUSH1 0x1 PUSH1 0x1 PUSH1 0xA0 SHL SUB AND DUP5 PUSH1 0x1 PUSH1 0x1 PUSH1 0xA0 SHL SUB AND GT ISZERO PUSH2 0xFC2 JUMPI SWAP2 SWAP3 SWAP2 JUMPDEST PUSH1 0x0 PUSH2 0xFE5 DUP6 PUSH1 0x1 PUSH1 0x1 PUSH1 0xA0 SHL SUB AND DUP6 PUSH1 0x1 PUSH1 0x1 PUSH1 0xA0 SHL SUB AND PUSH1 0x1 PUSH1 0x60 SHL PUSH2 0x1010 JUMP JUMPDEST SWAP1 POP PUSH2 0x1005 PUSH2 0x1000 DUP5 DUP4 DUP9 DUP9 SUB PUSH1 0x1 PUSH1 0x1 PUSH1 0xA0 SHL SUB AND PUSH2 0x1010 JUMP JUMPDEST PUSH2 0x10BF JUMP JUMPDEST SWAP2 POP POP JUMPDEST SWAP4 SWAP3 POP POP POP JUMP JUMPDEST PUSH1 0x0 DUP1 DUP1 PUSH1 0x0 NOT DUP6 DUP8 MULMOD DUP7 DUP7 MUL SWAP3 POP DUP3 DUP2 LT SWAP1 DUP4 SWAP1 SUB SUB SWAP1 POP DUP1 PUSH2 0x1046 JUMPI PUSH1 0x0 DUP5 GT PUSH2 0x103B JUMPI PUSH1 0x0 DUP1 REVERT JUMPDEST POP DUP3 SWAP1 DIV SWAP1 POP PUSH2 0x1009 JUMP JUMPDEST DUP1 DUP5 GT PUSH2 0x1052 JUMPI PUSH1 0x0 DUP1 REVERT JUMPDEST PUSH1 0x0 DUP5 DUP7 DUP9 MULMOD PUSH1 0x0 DUP7 DUP2 SUB DUP8 AND SWAP7 DUP8 SWAP1 DIV SWAP7 PUSH1 0x2 PUSH1 0x3 DUP10 MUL DUP2 XOR DUP1 DUP11 MUL DUP3 SUB MUL DUP1 DUP11 MUL DUP3 SUB MUL DUP1 DUP11 MUL DUP3 SUB MUL DUP1 DUP11 MUL DUP3 SUB MUL DUP1 DUP11 MUL DUP3 SUB MUL DUP1 DUP11 MUL SWAP1 SWAP2 SUB MUL SWAP2 DUP2 SWAP1 SUB DUP2 SWAP1 DIV PUSH1 0x1 ADD DUP7 DUP5 GT SWAP1 SWAP6 SUB SWAP5 SWAP1 SWAP5 MUL SWAP2 SWAP1 SWAP5 SUB SWAP3 SWAP1 SWAP3 DIV SWAP2 SWAP1 SWAP2 OR SWAP2 SWAP1 SWAP2 MUL SWAP2 POP POP SWAP4 SWAP3 POP POP POP JUMP JUMPDEST DUP1 PUSH1 0x1 PUSH1 0x1 PUSH1 0x80 SHL SUB DUP2 AND DUP2 EQ PUSH2 0x10D5 JUMPI PUSH1 0x0 DUP1 REVERT JUMPDEST SWAP2 SWAP1 POP JUMP JUMPDEST DUP1 MLOAD DUP1 ISZERO ISZERO DUP2 EQ PUSH2 0x10D5 JUMPI PUSH1 0x0 DUP1 REVERT JUMPDEST DUP1 MLOAD PUSH2 0xFFFF DUP2 AND DUP2 EQ PUSH2 0x10D5 JUMPI PUSH1 0x0 DUP1 REVERT JUMPDEST PUSH1 0x0 PUSH1 0x20 DUP3 DUP5 SUB SLT ISZERO PUSH2 0x110D JUMPI DUP1 DUP2 REVERT JUMPDEST DUP2 CALLDATALOAD PUSH2 0x1009 DUP2 PUSH2 0x1449 JUMP JUMPDEST PUSH1 0x0 PUSH1 0x20 DUP3 DUP5 SUB SLT ISZERO PUSH2 0x1129 JUMPI DUP1 DUP2 REVERT JUMPDEST DUP2 MLOAD PUSH2 0x1009 DUP2 PUSH2 0x1449 JUMP JUMPDEST PUSH1 0x0 PUSH1 0x20 DUP3 DUP5 SUB SLT ISZERO PUSH2 0x1145 JUMPI DUP1 DUP2 REVERT JUMPDEST PUSH2 0x1009 DUP3 PUSH2 0x10DA JUMP JUMPDEST PUSH1 0x0 PUSH1 0x20 DUP3 DUP5 SUB SLT ISZERO PUSH2 0x115F JUMPI DUP1 DUP2 REVERT JUMPDEST DUP2 CALLDATALOAD PUSH2 0x1009 DUP2 PUSH2 0x1461 JUMP JUMPDEST PUSH1 0x0 PUSH1 0x20 DUP3 DUP5 SUB SLT ISZERO PUSH2 0x117B JUMPI DUP1 DUP2 REVERT JUMPDEST DUP2 MLOAD PUSH2 0x1009 DUP2 PUSH2 0x1461 JUMP JUMPDEST PUSH1 0x0 DUP1 PUSH1 0x0 DUP1 PUSH1 0x0 DUP1 PUSH1 0xC0 DUP8 DUP10 SUB SLT ISZERO PUSH2 0x119E JUMPI DUP2 DUP3 REVERT JUMPDEST DUP7 MLOAD PUSH2 0x11A9 DUP2 PUSH2 0x1449 JUMP JUMPDEST PUSH1 0x20 DUP9 ADD MLOAD SWAP1 SWAP7 POP PUSH2 0x11BA DUP2 PUSH2 0x1461 JUMP JUMPDEST SWAP5 POP PUSH2 0x11C8 PUSH1 0x40 DUP9 ADD PUSH2 0x10EA JUMP JUMPDEST SWAP4 POP PUSH2 0x11D6 PUSH1 0x60 DUP9 ADD PUSH2 0x10EA JUMP JUMPDEST SWAP3 POP PUSH2 0x11E4 PUSH1 0x80 DUP9 ADD PUSH2 0x10EA JUMP JUMPDEST SWAP2 POP PUSH2 0x11F2 PUSH1 0xA0 DUP9 ADD PUSH2 0x10DA JUMP JUMPDEST SWAP1 POP SWAP3 SWAP6 POP SWAP3 SWAP6 POP SWAP3 SWAP6 JUMP JUMPDEST PUSH1 0x0 PUSH1 0x20 DUP3 DUP5 SUB SLT ISZERO PUSH2 0x120F JUMPI DUP1 DUP2 REVERT JUMPDEST POP CALLDATALOAD SWAP2 SWAP1 POP JUMP JUMPDEST PUSH1 0x0 PUSH1 0x20 DUP3 DUP5 SUB SLT ISZERO PUSH2 0x1227 JUMPI DUP1 DUP2 REVERT JUMPDEST POP MLOAD SWAP2 SWAP1 POP JUMP JUMPDEST PUSH1 0x0 DUP1 PUSH1 0x0 DUP1 PUSH1 0x80 DUP6 DUP8 SUB SLT ISZERO PUSH2 0x1243 JUMPI DUP4 DUP5 REVERT JUMPDEST DUP5 MLOAD SWAP4 POP PUSH1 0x20 DUP6 ADD MLOAD PUSH1 0x1 PUSH1 0x1 PUSH1 0x80 SHL SUB DUP2 AND DUP2 EQ PUSH2 0x1260 JUMPI DUP4 DUP5 REVERT JUMPDEST PUSH1 0x40 DUP7 ADD MLOAD PUSH1 0x60 SWAP1 SWAP7 ADD MLOAD SWAP5 SWAP8 SWAP1 SWAP7 POP SWAP3 POP POP POP JUMP JUMPDEST PUSH1 0x0 DUP1 PUSH1 0x40 DUP4 DUP6 SUB SLT ISZERO PUSH2 0x1288 JUMPI DUP2 DUP3 REVERT JUMPDEST POP POP DUP1 MLOAD PUSH1 0x20 SWAP1 SWAP2 ADD MLOAD SWAP1 SWAP3 SWAP1 SWAP2 POP JUMP JUMPDEST PUSH1 0x1 PUSH1 0x1 PUSH1 0xA0 SHL SUB AND SWAP1 MSTORE JUMP JUMPDEST PUSH1 0x2 SIGNEXTEND SWAP1 MSTORE JUMP JUMPDEST PUSH1 0x1 PUSH1 0x1 PUSH1 0xA0 SHL SUB SWAP2 SWAP1 SWAP2 AND DUP2 MSTORE PUSH1 0x20 ADD SWAP1 JUMP JUMPDEST PUSH1 0x1 PUSH1 0x1 PUSH1 0xA0 SHL SUB SWAP4 DUP5 AND DUP2 MSTORE SWAP2 SWAP1 SWAP3 AND PUSH1 0x20 DUP3 ADD MSTORE PUSH1 0x40 DUP2 ADD SWAP2 SWAP1 SWAP2 MSTORE PUSH1 0x60 ADD SWAP1 JUMP JUMPDEST PUSH1 0x1 PUSH1 0x1 PUSH1 0xA0 SHL SUB SWAP5 DUP6 AND DUP2 MSTORE PUSH1 0x1 PUSH1 0x1 PUSH1 0x80 SHL SUB SWAP4 SWAP1 SWAP4 AND PUSH1 0x20 DUP5 ADD MSTORE SWAP1 DUP4 AND PUSH1 0x40 DUP4 ADD MSTORE SWAP1 SWAP2 AND PUSH1 0x60 DUP3 ADD MSTORE PUSH1 0x80 ADD SWAP1 JUMP JUMPDEST PUSH1 0x1 PUSH1 0x1 PUSH1 0xA0 SHL SUB SWAP3 SWAP1 SWAP3 AND DUP3 MSTORE PUSH1 0x20 DUP3 ADD MSTORE PUSH1 0x40 ADD SWAP1 JUMP JUMPDEST PUSH1 0x2 SWAP2 SWAP1 SWAP2 SIGNEXTEND DUP2 MSTORE PUSH1 0x20 ADD SWAP1 JUMP JUMPDEST PUSH1 0x2 SWAP3 DUP4 SIGNEXTEND DUP2 MSTORE SWAP2 SIGNEXTEND PUSH1 0x20 DUP3 ADD MSTORE PUSH1 0x40 ADD SWAP1 JUMP JUMPDEST PUSH1 0x20 DUP1 DUP3 MSTORE PUSH1 0x16 SWAP1 DUP3 ADD MSTORE PUSH22 0x4F6E6C79206F776E65722063616E20646F2074686973 PUSH1 0x50 SHL PUSH1 0x40 DUP3 ADD MSTORE PUSH1 0x60 ADD SWAP1 JUMP JUMPDEST PUSH1 0x0 PUSH2 0x180 DUP3 ADD SWAP1 POP PUSH2 0x1398 DUP3 DUP5 MLOAD PUSH2 0x1299 JUMP JUMPDEST PUSH1 0x20 DUP4 ADD MLOAD PUSH2 0x13AA PUSH1 0x20 DUP5 ADD DUP3 PUSH2 0x1299 JUMP JUMPDEST POP PUSH1 0x40 DUP4 ADD MLOAD PUSH2 0x13BD PUSH1 0x40 DUP5 ADD DUP3 PUSH2 0x12A6 JUMP JUMPDEST POP PUSH1 0x60 DUP4 ADD MLOAD PUSH2 0x13D0 PUSH1 0x60 DUP5 ADD DUP3 PUSH2 0x12A6 JUMP JUMPDEST POP PUSH1 0x80 DUP4 ADD MLOAD PUSH2 0x13E3 PUSH1 0x80 DUP5 ADD DUP3 PUSH2 0x12A6 JUMP JUMPDEST POP PUSH1 0xA0 DUP4 ADD MLOAD PUSH1 0xA0 DUP4 ADD MSTORE PUSH1 0xC0 DUP4 ADD MLOAD PUSH1 0xC0 DUP4 ADD MSTORE PUSH1 0xE0 DUP4 ADD MLOAD PUSH1 0xE0 DUP4 ADD MSTORE PUSH2 0x100 DUP1 DUP5 ADD MLOAD DUP2 DUP5 ADD MSTORE POP PUSH2 0x120 DUP1 DUP5 ADD MLOAD PUSH2 0x1421 DUP3 DUP6 ADD DUP3 PUSH2 0x1299 JUMP JUMPDEST POP POP PUSH2 0x140 DUP4 DUP2 ADD MLOAD SWAP1 DUP4 ADD MSTORE PUSH2 0x160 DUP1 DUP5 ADD MLOAD PUSH2 0x1441 DUP3 DUP6 ADD DUP3 PUSH2 0x1299 JUMP JUMPDEST POP POP SWAP3 SWAP2 POP POP JUMP JUMPDEST PUSH1 0x1 PUSH1 0x1 PUSH1 0xA0 SHL SUB DUP2 AND DUP2 EQ PUSH2 0x145E JUMPI PUSH1 0x0 DUP1 REVERT JUMPDEST POP JUMP JUMPDEST DUP1 PUSH1 0x2 SIGNEXTEND DUP2 EQ PUSH2 0x145E JUMPI PUSH1 0x0 DUP1 REVERT INVALID LOG2 PUSH5 0x6970667358 0x22 SLT KECCAK256 PUSH19 0xF1E44EDAD323BAF9451DBB821CB003C940340D 0xC6 PUSH17 0xC43CD1DDD68BB0DC72164736F6C634300 SMOD MOD STOP CALLER "
				},
				"gasEstimates": {
					"creation": {
						"codeDepositCost": "1057200",
						"executionCost": "42771",
						"totalCost": "1099971"
					},
					"external": {
						"_newAdmin(address)": "22049",
						"_newPool(address)": "infinite",
						"_newSpaceMultiplier(int24)": "22050",
						"_transferToAdmin(address)": "infinite",
						"addLiquidity(uint256)": "infinite",
						"admin()": "1136",
						"deposits(uint256)": "3816",
						"farmNFT()": "1092",
						"getTicks()": "infinite",
						"oracle()": "1159",
						"pool()": "1116",
						"spaceMultiplier()": "1155",
						"tickSpacing()": "1112",
						"token0()": "1094",
						"token1()": "1137"
					}
				},
				"methodIdentifiers": {
					"_newAdmin(address)": "e6f4d0aa",
					"_newPool(address)": "d2aca8cd",
					"_newSpaceMultiplier(int24)": "6f053890",
					"_transferToAdmin(address)": "7210468a",
					"addLiquidity(uint256)": "51c6590a",
					"admin()": "f851a440",
					"deposits(uint256)": "b02c43d0",
					"farmNFT()": "da802f80",
					"getTicks()": "3d1c387b",
					"oracle()": "7dc0d1d0",
					"pool()": "16f0115b",
					"spaceMultiplier()": "fd1c1518",
					"tickSpacing()": "d0c93a7c",
					"token0()": "0dfe1681",
					"token1()": "d21220a7"
				}
			},
			"storageLayout": {
				"storage": [
					{
						"astId": 441,
						"contract": "contracts/core/VeloDeposit.sol:V3Bot",
						"label": "pool",
						"offset": 0,
						"slot": "0",
						"type": "t_address"
					},
					{
						"astId": 443,
						"contract": "contracts/core/VeloDeposit.sol:V3Bot",
						"label": "token0",
						"offset": 0,
						"slot": "1",
						"type": "t_address"
					},
					{
						"astId": 445,
						"contract": "contracts/core/VeloDeposit.sol:V3Bot",
						"label": "token1",
						"offset": 0,
						"slot": "2",
						"type": "t_address"
					},
					{
						"astId": 447,
						"contract": "contracts/core/VeloDeposit.sol:V3Bot",
						"label": "farmNFT",
						"offset": 0,
						"slot": "3",
						"type": "t_address"
					},
					{
						"astId": 449,
						"contract": "contracts/core/VeloDeposit.sol:V3Bot",
						"label": "admin",
						"offset": 0,
						"slot": "4",
						"type": "t_address"
					},
					{
						"astId": 451,
						"contract": "contracts/core/VeloDeposit.sol:V3Bot",
						"label": "tickSpacing",
						"offset": 20,
						"slot": "4",
						"type": "t_int24"
					},
					{
						"astId": 453,
						"contract": "contracts/core/VeloDeposit.sol:V3Bot",
						"label": "spaceMultiplier",
						"offset": 23,
						"slot": "4",
						"type": "t_int24"
					},
					{
						"astId": 456,
						"contract": "contracts/core/VeloDeposit.sol:V3Bot",
						"label": "oracle",
						"offset": 0,
						"slot": "5",
						"type": "t_address"
					},
					{
						"astId": 469,
						"contract": "contracts/core/VeloDeposit.sol:V3Bot",
						"label": "deposits",
						"offset": 0,
						"slot": "6",
						"type": "t_mapping(t_uint256,t_struct(Deposit)465_storage)"
					}
				],
				"types": {
					"t_address": {
						"encoding": "inplace",
						"label": "address",
						"numberOfBytes": "20"
					},
					"t_int24": {
						"encoding": "inplace",
						"label": "int24",
						"numberOfBytes": "3"
					},
					"t_mapping(t_uint256,t_struct(Deposit)465_storage)": {
						"encoding": "mapping",
						"key": "t_uint256",
						"label": "mapping(uint256 => struct V3Bot.Deposit)",
						"numberOfBytes": "32",
						"value": "t_struct(Deposit)465_storage"
					},
					"t_struct(Deposit)465_storage": {
						"encoding": "inplace",
						"label": "struct V3Bot.Deposit",
						"members": [
							{
								"astId": 458,
								"contract": "contracts/core/VeloDeposit.sol:V3Bot",
								"label": "owner",
								"offset": 0,
								"slot": "0",
								"type": "t_address"
							},
							{
								"astId": 460,
								"contract": "contracts/core/VeloDeposit.sol:V3Bot",
								"label": "liquidity",
								"offset": 0,
								"slot": "1",
								"type": "t_uint128"
							},
							{
								"astId": 462,
								"contract": "contracts/core/VeloDeposit.sol:V3Bot",
								"label": "token0",
								"offset": 0,
								"slot": "2",
								"type": "t_address"
							},
							{
								"astId": 464,
								"contract": "contracts/core/VeloDeposit.sol:V3Bot",
								"label": "token1",
								"offset": 0,
								"slot": "3",
								"type": "t_address"
							}
						],
						"numberOfBytes": "128"
					},
					"t_uint128": {
						"encoding": "inplace",
						"label": "uint128",
						"numberOfBytes": "16"
					},
					"t_uint256": {
						"encoding": "inplace",
						"label": "uint256",
						"numberOfBytes": "32"
					}
				}
			},
			"userdoc": {
				"kind": "user",
				"methods": {},
				"version": 1
			}
		}
	}
}