{
	"contracts/core/VeloOracle.sol": {
		"VeloOracle": {
			"abi": [
				{
					"inputs": [
						{
							"internalType": "address",
							"name": "pool",
							"type": "address"
						}
					],
					"name": "GetPrice",
					"outputs": [
						{
							"internalType": "uint256",
							"name": "price",
							"type": "uint256"
						}
					],
					"stateMutability": "view",
					"type": "function"
				},
				{
					"inputs": [],
					"name": "V3Pool",
					"outputs": [
						{
							"internalType": "contract ICLPoolDerivedState",
							"name": "",
							"type": "address"
						}
					],
					"stateMutability": "view",
					"type": "function"
				},
				{
					"inputs": [
						{
							"internalType": "address",
							"name": "pool",
							"type": "address"
						}
					],
					"name": "getTicks",
					"outputs": [
						{
							"internalType": "int24",
							"name": "lowTick",
							"type": "int24"
						},
						{
							"internalType": "int24",
							"name": "highTick",
							"type": "int24"
						}
					],
					"stateMutability": "view",
					"type": "function"
				}
			],
			"devdoc": {
				"kind": "dev",
				"methods": {},
				"version": 1
			},
			"evm": {
				"assembly": "    /* \"contracts/core/VeloOracle.sol\":1473:4242  contract VeloOracle {\r... */\n  mstore(0x40, 0x80)\n  callvalue\n  dup1\n  iszero\n  tag_1\n  jumpi\n  0x00\n  dup1\n  revert\ntag_1:\n  pop\n  dataSize(sub_0)\n  dup1\n  dataOffset(sub_0)\n  0x00\n  codecopy\n  0x00\n  return\nstop\n\nsub_0: assembly {\n        /* \"contracts/core/VeloOracle.sol\":1473:4242  contract VeloOracle {\r... */\n      mstore(0x40, 0x80)\n      callvalue\n      dup1\n      iszero\n      tag_1\n      jumpi\n      0x00\n      dup1\n      revert\n    tag_1:\n      pop\n      jumpi(tag_2, lt(calldatasize, 0x04))\n      shr(0xe0, calldataload(0x00))\n      dup1\n      0x11ea5441\n      eq\n      tag_3\n      jumpi\n      dup1\n      0x802036f5\n      eq\n      tag_4\n      jumpi\n      dup1\n      0xf29d0040\n      eq\n      tag_5\n      jumpi\n    tag_2:\n      0x00\n      dup1\n      revert\n        /* \"contracts/core/VeloOracle.sol\":1498:1531  ICLPoolDerivedState public V3Pool */\n    tag_3:\n      tag_6\n      tag_7\n      jump\t// in\n    tag_6:\n      mload(0x40)\n      dup1\n      dup3\n      0xffffffffffffffffffffffffffffffffffffffff\n      and\n      dup2\n      mstore\n      0x20\n      add\n      swap2\n      pop\n      pop\n      mload(0x40)\n      dup1\n      swap2\n      sub\n      swap1\n      return\n        /* \"contracts/core/VeloOracle.sol\":2599:3022  function getTicks (address pool) public view returns (int24 lowTick, int24 highTick){\r... */\n    tag_4:\n      tag_8\n      0x04\n      dup1\n      calldatasize\n      sub\n      0x20\n      dup2\n      lt\n      iszero\n      tag_9\n      jumpi\n      0x00\n      dup1\n      revert\n    tag_9:\n      dup2\n      add\n      swap1\n      dup1\n      dup1\n      calldataload\n      0xffffffffffffffffffffffffffffffffffffffff\n      and\n      swap1\n      0x20\n      add\n      swap1\n      swap3\n      swap2\n      swap1\n      pop\n      pop\n      pop\n      tag_10\n      jump\t// in\n    tag_8:\n      mload(0x40)\n      dup1\n      dup4\n      0x02\n      signextend\n      dup2\n      mstore\n      0x20\n      add\n      dup3\n      0x02\n      signextend\n      dup2\n      mstore\n      0x20\n      add\n      swap3\n      pop\n      pop\n      pop\n      mload(0x40)\n      dup1\n      swap2\n      sub\n      swap1\n      return\n        /* \"contracts/core/VeloOracle.sol\":1538:2591  function GetPrice(address pool) public view returns (uint256 price) {\r... */\n    tag_5:\n      tag_11\n      0x04\n      dup1\n      calldatasize\n      sub\n      0x20\n      dup2\n      lt\n      iszero\n      tag_12\n      jumpi\n      0x00\n      dup1\n      revert\n    tag_12:\n      dup2\n      add\n      swap1\n      dup1\n      dup1\n      calldataload\n      0xffffffffffffffffffffffffffffffffffffffff\n      and\n      swap1\n      0x20\n      add\n      swap1\n      swap3\n      swap2\n      swap1\n      pop\n      pop\n      pop\n      tag_13\n      jump\t// in\n    tag_11:\n      mload(0x40)\n      dup1\n      dup3\n      dup2\n      mstore\n      0x20\n      add\n      swap2\n      pop\n      pop\n      mload(0x40)\n      dup1\n      swap2\n      sub\n      swap1\n      return\n        /* \"contracts/core/VeloOracle.sol\":1498:1531  ICLPoolDerivedState public V3Pool */\n    tag_7:\n      0x00\n      dup1\n      sload\n      swap1\n      0x0100\n      exp\n      swap1\n      div\n      0xffffffffffffffffffffffffffffffffffffffff\n      and\n      dup2\n      jump\t// out\n        /* \"contracts/core/VeloOracle.sol\":2599:3022  function getTicks (address pool) public view returns (int24 lowTick, int24 highTick){\r... */\n    tag_10:\n        /* \"contracts/core/VeloOracle.sol\":2653:2666  int24 lowTick */\n      0x00\n        /* \"contracts/core/VeloOracle.sol\":2668:2682  int24 highTick */\n      dup1\n        /* \"contracts/core/VeloOracle.sol\":2694:2711  int24 tickSpacing */\n      0x00\n        /* \"contracts/core/VeloOracle.sol\":2731:2735  pool */\n      dup4\n        /* \"contracts/core/VeloOracle.sol\":2714:2748  ICLPoolConstants(pool).tickSpacing */\n      0xffffffffffffffffffffffffffffffffffffffff\n      and\n      0xd0c93a7c\n        /* \"contracts/core/VeloOracle.sol\":2714:2750  ICLPoolConstants(pool).tickSpacing() */\n      mload(0x40)\n      dup2\n      0xffffffff\n      and\n      0xe0\n      shl\n      dup2\n      mstore\n      0x04\n      add\n      0x20\n      mload(0x40)\n      dup1\n      dup4\n      sub\n      dup2\n      dup7\n      dup1\n      extcodesize\n      iszero\n      dup1\n      iszero\n      tag_15\n      jumpi\n      0x00\n      dup1\n      revert\n    tag_15:\n      pop\n      gas\n      staticcall\n      iszero\n      dup1\n      iszero\n      tag_17\n      jumpi\n      returndatasize\n      0x00\n      dup1\n      returndatacopy\n      revert(0x00, returndatasize)\n    tag_17:\n      pop\n      pop\n      pop\n      pop\n      mload(0x40)\n      returndatasize\n      0x20\n      dup2\n      lt\n      iszero\n      tag_18\n      jumpi\n      0x00\n      dup1\n      revert\n    tag_18:\n      dup2\n      add\n      swap1\n      dup1\n      dup1\n      mload\n      swap1\n      0x20\n      add\n      swap1\n      swap3\n      swap2\n      swap1\n      pop\n      pop\n      pop\n        /* \"contracts/core/VeloOracle.sol\":2694:2750  int24 tickSpacing = ICLPoolConstants(pool).tickSpacing() */\n      swap1\n      pop\n        /* \"contracts/core/VeloOracle.sol\":2764:2781  int24 currentTick */\n      0x00\n        /* \"contracts/core/VeloOracle.sol\":2801:2805  pool */\n      dup5\n        /* \"contracts/core/VeloOracle.sol\":2793:2812  ICLPool(pool).slot0 */\n      0xffffffffffffffffffffffffffffffffffffffff\n      and\n      0x3850c7bd\n        /* \"contracts/core/VeloOracle.sol\":2793:2814  ICLPool(pool).slot0() */\n      mload(0x40)\n      dup2\n      0xffffffff\n      and\n      0xe0\n      shl\n      dup2\n      mstore\n      0x04\n      add\n      0xc0\n      mload(0x40)\n      dup1\n      dup4\n      sub\n      dup2\n      dup7\n      dup1\n      extcodesize\n      iszero\n      dup1\n      iszero\n      tag_19\n      jumpi\n      0x00\n      dup1\n      revert\n    tag_19:\n      pop\n      gas\n      staticcall\n      iszero\n      dup1\n      iszero\n      tag_21\n      jumpi\n      returndatasize\n      0x00\n      dup1\n      returndatacopy\n      revert(0x00, returndatasize)\n    tag_21:\n      pop\n      pop\n      pop\n      pop\n      mload(0x40)\n      returndatasize\n      0xc0\n      dup2\n      lt\n      iszero\n      tag_22\n      jumpi\n      0x00\n      dup1\n      revert\n    tag_22:\n      dup2\n      add\n      swap1\n      dup1\n      dup1\n      mload\n      swap1\n      0x20\n      add\n      swap1\n      swap3\n      swap2\n      swap1\n      dup1\n      mload\n      swap1\n      0x20\n      add\n      swap1\n      swap3\n      swap2\n      swap1\n      dup1\n      mload\n      swap1\n      0x20\n      add\n      swap1\n      swap3\n      swap2\n      swap1\n      dup1\n      mload\n      swap1\n      0x20\n      add\n      swap1\n      swap3\n      swap2\n      swap1\n      dup1\n      mload\n      swap1\n      0x20\n      add\n      swap1\n      swap3\n      swap2\n      swap1\n      dup1\n      mload\n      swap1\n      0x20\n      add\n      swap1\n      swap3\n      swap2\n      swap1\n      pop\n      pop\n      pop\n        /* \"contracts/core/VeloOracle.sol\":2761:2814  (, int24 currentTick, , , , ) = ICLPool(pool).slot0() */\n      pop\n      pop\n      pop\n      pop\n      swap2\n      pop\n      pop\n        /* \"contracts/core/VeloOracle.sol\":2869:2880  tickSpacing */\n      dup2\n        /* \"contracts/core/VeloOracle.sol\":2854:2865  tickSpacing */\n      dup3\n        /* \"contracts/core/VeloOracle.sol\":2840:2865  currentTick / tickSpacing */\n      0x02\n      signextend\n        /* \"contracts/core/VeloOracle.sol\":2840:2851  currentTick */\n      dup3\n        /* \"contracts/core/VeloOracle.sol\":2840:2865  currentTick / tickSpacing */\n      0x02\n      signextend\n      dup2\n      tag_23\n      jumpi\n      invalid\n    tag_23:\n      sdiv\n        /* \"contracts/core/VeloOracle.sol\":2839:2880  (currentTick / tickSpacing) * tickSpacing */\n      mul\n        /* \"contracts/core/VeloOracle.sol\":2825:2880  currentTick = (currentTick / tickSpacing) * tickSpacing */\n      swap1\n      pop\n        /* \"contracts/core/VeloOracle.sol\":2915:2926  tickSpacing */\n      dup2\n        /* \"contracts/core/VeloOracle.sol\":2901:2912  currentTick */\n      dup2\n        /* \"contracts/core/VeloOracle.sol\":2901:2926  currentTick - tickSpacing */\n      sub\n        /* \"contracts/core/VeloOracle.sol\":2891:2926  lowTick = currentTick - tickSpacing */\n      swap4\n      pop\n        /* \"contracts/core/VeloOracle.sol\":2962:2973  tickSpacing */\n      dup2\n        /* \"contracts/core/VeloOracle.sol\":2948:2959  currentTick */\n      dup2\n        /* \"contracts/core/VeloOracle.sol\":2948:2973  currentTick + tickSpacing */\n      add\n        /* \"contracts/core/VeloOracle.sol\":2937:2973  highTick = currentTick + tickSpacing */\n      swap3\n      pop\n        /* \"contracts/core/VeloOracle.sol\":2984:3010  return (lowTick, highTick) */\n      pop\n      pop\n        /* \"contracts/core/VeloOracle.sol\":2599:3022  function getTicks (address pool) public view returns (int24 lowTick, int24 highTick){\r... */\n      swap2\n      pop\n      swap2\n      jump\t// out\n        /* \"contracts/core/VeloOracle.sol\":1538:2591  function GetPrice(address pool) public view returns (uint256 price) {\r... */\n    tag_13:\n        /* \"contracts/core/VeloOracle.sol\":1591:1604  uint256 price */\n      0x00\n        /* \"contracts/core/VeloOracle.sol\":1637:1638  0 */\n      dup1\n        /* \"contracts/core/VeloOracle.sol\":1621:1639  pool != address(0) */\n      0xffffffffffffffffffffffffffffffffffffffff\n      and\n        /* \"contracts/core/VeloOracle.sol\":1621:1625  pool */\n      dup3\n        /* \"contracts/core/VeloOracle.sol\":1621:1639  pool != address(0) */\n      0xffffffffffffffffffffffffffffffffffffffff\n      and\n      eq\n      iszero\n        /* \"contracts/core/VeloOracle.sol\":1613:1664  require(pool != address(0), \"Invalid pool address\") */\n      tag_25\n      jumpi\n      mload(0x40)\n      0x08c379a000000000000000000000000000000000000000000000000000000000\n      dup2\n      mstore\n      0x04\n      add\n      dup1\n      dup1\n      0x20\n      add\n      dup3\n      dup2\n      sub\n      dup3\n      mstore\n      0x14\n      dup2\n      mstore\n      0x20\n      add\n      dup1\n      0x496e76616c696420706f6f6c2061646472657373000000000000000000000000\n      dup2\n      mstore\n      pop\n      0x20\n      add\n      swap2\n      pop\n      pop\n      mload(0x40)\n      dup1\n      swap2\n      sub\n      swap1\n      revert\n    tag_25:\n        /* \"contracts/core/VeloOracle.sol\":1703:1717  address token0 */\n      0x00\n        /* \"contracts/core/VeloOracle.sol\":1737:1741  pool */\n      dup3\n        /* \"contracts/core/VeloOracle.sol\":1720:1749  ICLPoolConstants(pool).token0 */\n      0xffffffffffffffffffffffffffffffffffffffff\n      and\n      0x0dfe1681\n        /* \"contracts/core/VeloOracle.sol\":1720:1751  ICLPoolConstants(pool).token0() */\n      mload(0x40)\n      dup2\n      0xffffffff\n      and\n      0xe0\n      shl\n      dup2\n      mstore\n      0x04\n      add\n      0x20\n      mload(0x40)\n      dup1\n      dup4\n      sub\n      dup2\n      dup7\n      dup1\n      extcodesize\n      iszero\n      dup1\n      iszero\n      tag_26\n      jumpi\n      0x00\n      dup1\n      revert\n    tag_26:\n      pop\n      gas\n      staticcall\n      iszero\n      dup1\n      iszero\n      tag_28\n      jumpi\n      returndatasize\n      0x00\n      dup1\n      returndatacopy\n      revert(0x00, returndatasize)\n    tag_28:\n      pop\n      pop\n      pop\n      pop\n      mload(0x40)\n      returndatasize\n      0x20\n      dup2\n      lt\n      iszero\n      tag_29\n      jumpi\n      0x00\n      dup1\n      revert\n    tag_29:\n      dup2\n      add\n      swap1\n      dup1\n      dup1\n      mload\n      swap1\n      0x20\n      add\n      swap1\n      swap3\n      swap2\n      swap1\n      pop\n      pop\n      pop\n        /* \"contracts/core/VeloOracle.sol\":1703:1751  address token0 = ICLPoolConstants(pool).token0() */\n      swap1\n      pop\n        /* \"contracts/core/VeloOracle.sol\":1758:1772  address token1 */\n      0x00\n        /* \"contracts/core/VeloOracle.sol\":1792:1796  pool */\n      dup4\n        /* \"contracts/core/VeloOracle.sol\":1775:1804  ICLPoolConstants(pool).token1 */\n      0xffffffffffffffffffffffffffffffffffffffff\n      and\n      0xd21220a7\n        /* \"contracts/core/VeloOracle.sol\":1775:1806  ICLPoolConstants(pool).token1() */\n      mload(0x40)\n      dup2\n      0xffffffff\n      and\n      0xe0\n      shl\n      dup2\n      mstore\n      0x04\n      add\n      0x20\n      mload(0x40)\n      dup1\n      dup4\n      sub\n      dup2\n      dup7\n      dup1\n      extcodesize\n      iszero\n      dup1\n      iszero\n      tag_30\n      jumpi\n      0x00\n      dup1\n      revert\n    tag_30:\n      pop\n      gas\n      staticcall\n      iszero\n      dup1\n      iszero\n      tag_32\n      jumpi\n      returndatasize\n      0x00\n      dup1\n      returndatacopy\n      revert(0x00, returndatasize)\n    tag_32:\n      pop\n      pop\n      pop\n      pop\n      mload(0x40)\n      returndatasize\n      0x20\n      dup2\n      lt\n      iszero\n      tag_33\n      jumpi\n      0x00\n      dup1\n      revert\n    tag_33:\n      dup2\n      add\n      swap1\n      dup1\n      dup1\n      mload\n      swap1\n      0x20\n      add\n      swap1\n      swap3\n      swap2\n      swap1\n      pop\n      pop\n      pop\n        /* \"contracts/core/VeloOracle.sol\":1758:1806  address token1 = ICLPoolConstants(pool).token1() */\n      swap1\n      pop\n        /* \"contracts/core/VeloOracle.sol\":1839:1840  0 */\n      0x00\n        /* \"contracts/core/VeloOracle.sol\":1821:1841  token0 != address(0) */\n      0xffffffffffffffffffffffffffffffffffffffff\n      and\n        /* \"contracts/core/VeloOracle.sol\":1821:1827  token0 */\n      dup3\n        /* \"contracts/core/VeloOracle.sol\":1821:1841  token0 != address(0) */\n      0xffffffffffffffffffffffffffffffffffffffff\n      and\n      eq\n      iszero\n        /* \"contracts/core/VeloOracle.sol\":1821:1865  token0 != address(0) && token1 != address(0) */\n      dup1\n      iszero\n      tag_34\n      jumpi\n      pop\n        /* \"contracts/core/VeloOracle.sol\":1863:1864  0 */\n      0x00\n        /* \"contracts/core/VeloOracle.sol\":1845:1865  token1 != address(0) */\n      0xffffffffffffffffffffffffffffffffffffffff\n      and\n        /* \"contracts/core/VeloOracle.sol\":1845:1851  token1 */\n      dup2\n        /* \"contracts/core/VeloOracle.sol\":1845:1865  token1 != address(0) */\n      0xffffffffffffffffffffffffffffffffffffffff\n      and\n      eq\n      iszero\n        /* \"contracts/core/VeloOracle.sol\":1821:1865  token0 != address(0) && token1 != address(0) */\n    tag_34:\n        /* \"contracts/core/VeloOracle.sol\":1813:1884  require(token0 != address(0) && token1 != address(0), \"Invalid tokens\") */\n      tag_35\n      jumpi\n      mload(0x40)\n      0x08c379a000000000000000000000000000000000000000000000000000000000\n      dup2\n      mstore\n      0x04\n      add\n      dup1\n      dup1\n      0x20\n      add\n      dup3\n      dup2\n      sub\n      dup3\n      mstore\n      0x0e\n      dup2\n      mstore\n      0x20\n      add\n      dup1\n      0x496e76616c696420746f6b656e73000000000000000000000000000000000000\n      dup2\n      mstore\n      pop\n      0x20\n      add\n      swap2\n      pop\n      pop\n      mload(0x40)\n      dup1\n      swap2\n      sub\n      swap1\n      revert\n    tag_35:\n        /* \"contracts/core/VeloOracle.sol\":1950:1960  uint8 dec0 */\n      0x00\n        /* \"contracts/core/VeloOracle.sol\":1970:1976  token0 */\n      dup3\n        /* \"contracts/core/VeloOracle.sol\":1963:1986  IERC20(token0).decimals */\n      0xffffffffffffffffffffffffffffffffffffffff\n      and\n      0x313ce567\n        /* \"contracts/core/VeloOracle.sol\":1963:1988  IERC20(token0).decimals() */\n      mload(0x40)\n      dup2\n      0xffffffff\n      and\n      0xe0\n      shl\n      dup2\n      mstore\n      0x04\n      add\n      0x20\n      mload(0x40)\n      dup1\n      dup4\n      sub\n      dup2\n      dup7\n      dup1\n      extcodesize\n      iszero\n      dup1\n      iszero\n      tag_36\n      jumpi\n      0x00\n      dup1\n      revert\n    tag_36:\n      pop\n      gas\n      staticcall\n      iszero\n      dup1\n      iszero\n      tag_38\n      jumpi\n      returndatasize\n      0x00\n      dup1\n      returndatacopy\n      revert(0x00, returndatasize)\n    tag_38:\n      pop\n      pop\n      pop\n      pop\n      mload(0x40)\n      returndatasize\n      0x20\n      dup2\n      lt\n      iszero\n      tag_39\n      jumpi\n      0x00\n      dup1\n      revert\n    tag_39:\n      dup2\n      add\n      swap1\n      dup1\n      dup1\n      mload\n      swap1\n      0x20\n      add\n      swap1\n      swap3\n      swap2\n      swap1\n      pop\n      pop\n      pop\n        /* \"contracts/core/VeloOracle.sol\":1950:1988  uint8 dec0 = IERC20(token0).decimals() */\n      swap1\n      pop\n        /* \"contracts/core/VeloOracle.sol\":2039:2049  int24 tick */\n      0x00\n        /* \"contracts/core/VeloOracle.sol\":2074:2078  pool */\n      dup6\n        /* \"contracts/core/VeloOracle.sol\":2061:2085  ICLPoolState(pool).slot0 */\n      0xffffffffffffffffffffffffffffffffffffffff\n      and\n      0x3850c7bd\n        /* \"contracts/core/VeloOracle.sol\":2061:2087  ICLPoolState(pool).slot0() */\n      mload(0x40)\n      dup2\n      0xffffffff\n      and\n      0xe0\n      shl\n      dup2\n      mstore\n      0x04\n      add\n      0xc0\n      mload(0x40)\n      dup1\n      dup4\n      sub\n      dup2\n      dup7\n      dup1\n      extcodesize\n      iszero\n      dup1\n      iszero\n      tag_40\n      jumpi\n      0x00\n      dup1\n      revert\n    tag_40:\n      pop\n      gas\n      staticcall\n      iszero\n      dup1\n      iszero\n      tag_42\n      jumpi\n      returndatasize\n      0x00\n      dup1\n      returndatacopy\n      revert(0x00, returndatasize)\n    tag_42:\n      pop\n      pop\n      pop\n      pop\n      mload(0x40)\n      returndatasize\n      0xc0\n      dup2\n      lt\n      iszero\n      tag_43\n      jumpi\n      0x00\n      dup1\n      revert\n    tag_43:\n      dup2\n      add\n      swap1\n      dup1\n      dup1\n      mload\n      swap1\n      0x20\n      add\n      swap1\n      swap3\n      swap2\n      swap1\n      dup1\n      mload\n      swap1\n      0x20\n      add\n      swap1\n      swap3\n      swap2\n      swap1\n      dup1\n      mload\n      swap1\n      0x20\n      add\n      swap1\n      swap3\n      swap2\n      swap1\n      dup1\n      mload\n      swap1\n      0x20\n      add\n      swap1\n      swap3\n      swap2\n      swap1\n      dup1\n      mload\n      swap1\n      0x20\n      add\n      swap1\n      swap3\n      swap2\n      swap1\n      dup1\n      mload\n      swap1\n      0x20\n      add\n      swap1\n      swap3\n      swap2\n      swap1\n      pop\n      pop\n      pop\n        /* \"contracts/core/VeloOracle.sol\":2036:2087  (, int24 tick, , , , ) = ICLPoolState(pool).slot0() */\n      pop\n      pop\n      pop\n      pop\n      swap2\n      pop\n      pop\n        /* \"contracts/core/VeloOracle.sol\":2119:2139  uint160 sqrtRatioX96 */\n      0x00\n        /* \"contracts/core/VeloOracle.sol\":2142:2175  TickMath.getSqrtRatioAtTick(tick) */\n      tag_44\n        /* \"contracts/core/VeloOracle.sol\":2170:2174  tick */\n      dup3\n        /* \"contracts/core/VeloOracle.sol\":2142:2169  TickMath.getSqrtRatioAtTick */\n      tag_45\n        /* \"contracts/core/VeloOracle.sol\":2142:2175  TickMath.getSqrtRatioAtTick(tick) */\n      jump\t// in\n    tag_44:\n        /* \"contracts/core/VeloOracle.sol\":2119:2175  uint160 sqrtRatioX96 = TickMath.getSqrtRatioAtTick(tick) */\n      swap1\n      pop\n        /* \"contracts/core/VeloOracle.sol\":2182:2199  uint256 sqrtPrice */\n      0x00\n        /* \"contracts/core/VeloOracle.sol\":2210:2222  sqrtRatioX96 */\n      dup2\n        /* \"contracts/core/VeloOracle.sol\":2202:2223  uint256(sqrtRatioX96) */\n      0xffffffffffffffffffffffffffffffffffffffff\n      and\n        /* \"contracts/core/VeloOracle.sol\":2182:2223  uint256 sqrtPrice = uint256(sqrtRatioX96) */\n      swap1\n      pop\n        /* \"contracts/core/VeloOracle.sol\":2283:2299  uint256 priceRaw */\n      0x00\n        /* \"contracts/core/VeloOracle.sol\":2302:2351  FullMath.mulDiv(sqrtPrice * sqrtPrice, 1, 2**192) */\n      tag_46\n        /* \"contracts/core/VeloOracle.sol\":2330:2339  sqrtPrice */\n      dup3\n        /* \"contracts/core/VeloOracle.sol\":2318:2327  sqrtPrice */\n      dup4\n        /* \"contracts/core/VeloOracle.sol\":2318:2339  sqrtPrice * sqrtPrice */\n      mul\n        /* \"contracts/core/VeloOracle.sol\":2341:2342  1 */\n      0x01\n        /* \"contracts/core/VeloOracle.sol\":2344:2350  2**192 */\n      0x01000000000000000000000000000000000000000000000000\n        /* \"contracts/core/VeloOracle.sol\":2302:2317  FullMath.mulDiv */\n      tag_47\n        /* \"contracts/core/VeloOracle.sol\":2302:2351  FullMath.mulDiv(sqrtPrice * sqrtPrice, 1, 2**192) */\n      jump\t// in\n    tag_46:\n        /* \"contracts/core/VeloOracle.sol\":2283:2351  uint256 priceRaw = FullMath.mulDiv(sqrtPrice * sqrtPrice, 1, 2**192) */\n      swap1\n      pop\n        /* \"contracts/core/VeloOracle.sol\":2379:2380  0 */\n      0x00\n        /* \"contracts/core/VeloOracle.sol\":2368:2376  priceRaw */\n      dup2\n        /* \"contracts/core/VeloOracle.sol\":2368:2380  priceRaw > 0 */\n      gt\n        /* \"contracts/core/VeloOracle.sol\":2368:2428  priceRaw > 0 ? FullMath.mulDiv(10**18, 10**18, priceRaw) : 0 */\n      tag_48\n      jumpi\n        /* \"contracts/core/VeloOracle.sol\":2427:2428  0 */\n      0x00\n        /* \"contracts/core/VeloOracle.sol\":2368:2428  priceRaw > 0 ? FullMath.mulDiv(10**18, 10**18, priceRaw) : 0 */\n      jump(tag_49)\n    tag_48:\n        /* \"contracts/core/VeloOracle.sol\":2383:2424  FullMath.mulDiv(10**18, 10**18, priceRaw) */\n      tag_50\n        /* \"contracts/core/VeloOracle.sol\":2399:2405  10**18 */\n      0x0de0b6b3a7640000\n        /* \"contracts/core/VeloOracle.sol\":2407:2413  10**18 */\n      dup1\n        /* \"contracts/core/VeloOracle.sol\":2415:2423  priceRaw */\n      dup4\n        /* \"contracts/core/VeloOracle.sol\":2383:2398  FullMath.mulDiv */\n      tag_47\n        /* \"contracts/core/VeloOracle.sol\":2383:2424  FullMath.mulDiv(10**18, 10**18, priceRaw) */\n      jump\t// in\n    tag_50:\n        /* \"contracts/core/VeloOracle.sol\":2368:2428  priceRaw > 0 ? FullMath.mulDiv(10**18, 10**18, priceRaw) : 0 */\n    tag_49:\n        /* \"contracts/core/VeloOracle.sol\":2360:2428  price = priceRaw > 0 ? FullMath.mulDiv(10**18, 10**18, priceRaw) : 0 */\n      swap8\n      pop\n        /* \"contracts/core/VeloOracle.sol\":2560:2562  12 */\n      0x0c\n        /* \"contracts/core/VeloOracle.sol\":2553:2557  dec0 */\n      dup6\n        /* \"contracts/core/VeloOracle.sol\":2553:2562  dec0 + 12 */\n      add\n        /* \"contracts/core/VeloOracle.sol\":2546:2563  10 ** (dec0 + 12) */\n      0xff\n      and\n        /* \"contracts/core/VeloOracle.sol\":2546:2548  10 */\n      0x0a\n        /* \"contracts/core/VeloOracle.sol\":2546:2563  10 ** (dec0 + 12) */\n      exp\n        /* \"contracts/core/VeloOracle.sol\":2537:2542  price */\n      dup9\n        /* \"contracts/core/VeloOracle.sol\":2537:2564  price / (10 ** (dec0 + 12)) */\n      dup2\n      tag_51\n      jumpi\n      invalid\n    tag_51:\n      div\n        /* \"contracts/core/VeloOracle.sol\":2529:2564  price = price / (10 ** (dec0 + 12)) */\n      swap8\n      pop\n        /* \"contracts/core/VeloOracle.sol\":2573:2587  return (price) */\n      pop\n      pop\n      pop\n      pop\n      pop\n      pop\n      pop\n        /* \"contracts/core/VeloOracle.sol\":1538:2591  function GetPrice(address pool) public view returns (uint256 price) {\r... */\n      swap2\n      swap1\n      pop\n      jump\t// out\n        /* \"contracts/core/libraries/TickMath.sol\":1362:3942  function getSqrtRatioAtTick(int24 tick) internal pure returns (uint160 sqrtPriceX96) {... */\n    tag_45:\n        /* \"contracts/core/libraries/TickMath.sol\":1425:1445  uint160 sqrtPriceX96 */\n      0x00\n        /* \"contracts/core/libraries/TickMath.sol\":1457:1472  uint256 absTick */\n      dup1\n        /* \"contracts/core/libraries/TickMath.sol\":1482:1483  0 */\n      0x00\n        /* \"contracts/core/libraries/TickMath.sol\":1475:1479  tick */\n      dup4\n        /* \"contracts/core/libraries/TickMath.sol\":1475:1483  tick < 0 */\n      0x02\n      signextend\n      slt\n        /* \"contracts/core/libraries/TickMath.sol\":1475:1532  tick < 0 ? uint256(-int256(tick)) : uint256(int256(tick)) */\n      tag_53\n      jumpi\n        /* \"contracts/core/libraries/TickMath.sol\":1526:1530  tick */\n      dup3\n        /* \"contracts/core/libraries/TickMath.sol\":1519:1531  int256(tick) */\n      0x02\n      signextend\n        /* \"contracts/core/libraries/TickMath.sol\":1475:1532  tick < 0 ? uint256(-int256(tick)) : uint256(int256(tick)) */\n      jump(tag_54)\n    tag_53:\n        /* \"contracts/core/libraries/TickMath.sol\":1502:1506  tick */\n      dup3\n        /* \"contracts/core/libraries/TickMath.sol\":1495:1507  int256(tick) */\n      0x02\n      signextend\n        /* \"contracts/core/libraries/TickMath.sol\":1494:1507  -int256(tick) */\n      0x00\n      sub\n        /* \"contracts/core/libraries/TickMath.sol\":1475:1532  tick < 0 ? uint256(-int256(tick)) : uint256(int256(tick)) */\n    tag_54:\n        /* \"contracts/core/libraries/TickMath.sol\":1457:1532  uint256 absTick = tick < 0 ? uint256(-int256(tick)) : uint256(int256(tick)) */\n      swap1\n      pop\n        /* \"contracts/core/libraries/TickMath.sol\":484:491  -887272 */\n      0xfffffffffffffffffffffffffffffffffffffffffffffffffffffffffff27618\n        /* \"contracts/core/libraries/TickMath.sol\":644:653  -MIN_TICK */\n      0x00\n      sub\n        /* \"contracts/core/libraries/TickMath.sol\":1561:1578  uint256(MAX_TICK) */\n      0x02\n      signextend\n        /* \"contracts/core/libraries/TickMath.sol\":1550:1557  absTick */\n      dup2\n        /* \"contracts/core/libraries/TickMath.sol\":1550:1578  absTick <= uint256(MAX_TICK) */\n      gt\n      iszero\n        /* \"contracts/core/libraries/TickMath.sol\":1542:1584  require(absTick <= uint256(MAX_TICK), \"T\") */\n      tag_55\n      jumpi\n      mload(0x40)\n      0x08c379a000000000000000000000000000000000000000000000000000000000\n      dup2\n      mstore\n      0x04\n      add\n      dup1\n      dup1\n      0x20\n      add\n      dup3\n      dup2\n      sub\n      dup3\n      mstore\n      0x01\n      dup2\n      mstore\n      0x20\n      add\n      dup1\n      0x5400000000000000000000000000000000000000000000000000000000000000\n      dup2\n      mstore\n      pop\n      0x20\n      add\n      swap2\n      pop\n      pop\n      mload(0x40)\n      dup1\n      swap2\n      sub\n      swap1\n      revert\n    tag_55:\n        /* \"contracts/core/libraries/TickMath.sol\":1595:1608  uint256 ratio */\n      0x00\n        /* \"contracts/core/libraries/TickMath.sol\":1628:1629  0 */\n      dup1\n        /* \"contracts/core/libraries/TickMath.sol\":1621:1624  0x1 */\n      0x01\n        /* \"contracts/core/libraries/TickMath.sol\":1611:1618  absTick */\n      dup4\n        /* \"contracts/core/libraries/TickMath.sol\":1611:1624  absTick & 0x1 */\n      and\n        /* \"contracts/core/libraries/TickMath.sol\":1611:1629  absTick & 0x1 != 0 */\n      eq\n      iszero\n        /* \"contracts/core/libraries/TickMath.sol\":1611:1704  absTick & 0x1 != 0 ? 0xfffcb933bd6fad37aa2d162d1a594001 : 0x100000000000000000000000000000000 */\n      tag_56\n      jumpi\n        /* \"contracts/core/libraries/TickMath.sol\":1669:1704  0x100000000000000000000000000000000 */\n      0x0100000000000000000000000000000000\n        /* \"contracts/core/libraries/TickMath.sol\":1611:1704  absTick & 0x1 != 0 ? 0xfffcb933bd6fad37aa2d162d1a594001 : 0x100000000000000000000000000000000 */\n      jump(tag_57)\n    tag_56:\n        /* \"contracts/core/libraries/TickMath.sol\":1632:1666  0xfffcb933bd6fad37aa2d162d1a594001 */\n      0xfffcb933bd6fad37aa2d162d1a594001\n        /* \"contracts/core/libraries/TickMath.sol\":1611:1704  absTick & 0x1 != 0 ? 0xfffcb933bd6fad37aa2d162d1a594001 : 0x100000000000000000000000000000000 */\n    tag_57:\n        /* \"contracts/core/libraries/TickMath.sol\":1595:1704  uint256 ratio = absTick & 0x1 != 0 ? 0xfffcb933bd6fad37aa2d162d1a594001 : 0x100000000000000000000000000000000 */\n      0xffffffffffffffffffffffffffffffffff\n      and\n      swap1\n      pop\n        /* \"contracts/core/libraries/TickMath.sol\":1735:1736  0 */\n      0x00\n        /* \"contracts/core/libraries/TickMath.sol\":1728:1731  0x2 */\n      0x02\n        /* \"contracts/core/libraries/TickMath.sol\":1718:1725  absTick */\n      dup4\n        /* \"contracts/core/libraries/TickMath.sol\":1718:1731  absTick & 0x2 */\n      and\n        /* \"contracts/core/libraries/TickMath.sol\":1718:1736  absTick & 0x2 != 0 */\n      eq\n        /* \"contracts/core/libraries/TickMath.sol\":1714:1797  if (absTick & 0x2 != 0) ratio = (ratio * 0xfff97272373d413259a46990580e213a) >> 128 */\n      tag_58\n      jumpi\n        /* \"contracts/core/libraries/TickMath.sol\":1794:1797  128 */\n      0x80\n        /* \"contracts/core/libraries/TickMath.sol\":1755:1789  0xfff97272373d413259a46990580e213a */\n      0xfff97272373d413259a46990580e213a\n        /* \"contracts/core/libraries/TickMath.sol\":1747:1752  ratio */\n      dup3\n        /* \"contracts/core/libraries/TickMath.sol\":1747:1789  ratio * 0xfff97272373d413259a46990580e213a */\n      mul\n        /* \"contracts/core/libraries/TickMath.sol\":1746:1797  (ratio * 0xfff97272373d413259a46990580e213a) >> 128 */\n      swap1\n      shr\n        /* \"contracts/core/libraries/TickMath.sol\":1738:1797  ratio = (ratio * 0xfff97272373d413259a46990580e213a) >> 128 */\n      swap1\n      pop\n        /* \"contracts/core/libraries/TickMath.sol\":1714:1797  if (absTick & 0x2 != 0) ratio = (ratio * 0xfff97272373d413259a46990580e213a) >> 128 */\n    tag_58:\n        /* \"contracts/core/libraries/TickMath.sol\":1828:1829  0 */\n      0x00\n        /* \"contracts/core/libraries/TickMath.sol\":1821:1824  0x4 */\n      0x04\n        /* \"contracts/core/libraries/TickMath.sol\":1811:1818  absTick */\n      dup4\n        /* \"contracts/core/libraries/TickMath.sol\":1811:1824  absTick & 0x4 */\n      and\n        /* \"contracts/core/libraries/TickMath.sol\":1811:1829  absTick & 0x4 != 0 */\n      eq\n        /* \"contracts/core/libraries/TickMath.sol\":1807:1890  if (absTick & 0x4 != 0) ratio = (ratio * 0xfff2e50f5f656932ef12357cf3c7fdcc) >> 128 */\n      tag_59\n      jumpi\n        /* \"contracts/core/libraries/TickMath.sol\":1887:1890  128 */\n      0x80\n        /* \"contracts/core/libraries/TickMath.sol\":1848:1882  0xfff2e50f5f656932ef12357cf3c7fdcc */\n      0xfff2e50f5f656932ef12357cf3c7fdcc\n        /* \"contracts/core/libraries/TickMath.sol\":1840:1845  ratio */\n      dup3\n        /* \"contracts/core/libraries/TickMath.sol\":1840:1882  ratio * 0xfff2e50f5f656932ef12357cf3c7fdcc */\n      mul\n        /* \"contracts/core/libraries/TickMath.sol\":1839:1890  (ratio * 0xfff2e50f5f656932ef12357cf3c7fdcc) >> 128 */\n      swap1\n      shr\n        /* \"contracts/core/libraries/TickMath.sol\":1831:1890  ratio = (ratio * 0xfff2e50f5f656932ef12357cf3c7fdcc) >> 128 */\n      swap1\n      pop\n        /* \"contracts/core/libraries/TickMath.sol\":1807:1890  if (absTick & 0x4 != 0) ratio = (ratio * 0xfff2e50f5f656932ef12357cf3c7fdcc) >> 128 */\n    tag_59:\n        /* \"contracts/core/libraries/TickMath.sol\":1921:1922  0 */\n      0x00\n        /* \"contracts/core/libraries/TickMath.sol\":1914:1917  0x8 */\n      0x08\n        /* \"contracts/core/libraries/TickMath.sol\":1904:1911  absTick */\n      dup4\n        /* \"contracts/core/libraries/TickMath.sol\":1904:1917  absTick & 0x8 */\n      and\n        /* \"contracts/core/libraries/TickMath.sol\":1904:1922  absTick & 0x8 != 0 */\n      eq\n        /* \"contracts/core/libraries/TickMath.sol\":1900:1983  if (absTick & 0x8 != 0) ratio = (ratio * 0xffe5caca7e10e4e61c3624eaa0941cd0) >> 128 */\n      tag_60\n      jumpi\n        /* \"contracts/core/libraries/TickMath.sol\":1980:1983  128 */\n      0x80\n        /* \"contracts/core/libraries/TickMath.sol\":1941:1975  0xffe5caca7e10e4e61c3624eaa0941cd0 */\n      0xffe5caca7e10e4e61c3624eaa0941cd0\n        /* \"contracts/core/libraries/TickMath.sol\":1933:1938  ratio */\n      dup3\n        /* \"contracts/core/libraries/TickMath.sol\":1933:1975  ratio * 0xffe5caca7e10e4e61c3624eaa0941cd0 */\n      mul\n        /* \"contracts/core/libraries/TickMath.sol\":1932:1983  (ratio * 0xffe5caca7e10e4e61c3624eaa0941cd0) >> 128 */\n      swap1\n      shr\n        /* \"contracts/core/libraries/TickMath.sol\":1924:1983  ratio = (ratio * 0xffe5caca7e10e4e61c3624eaa0941cd0) >> 128 */\n      swap1\n      pop\n        /* \"contracts/core/libraries/TickMath.sol\":1900:1983  if (absTick & 0x8 != 0) ratio = (ratio * 0xffe5caca7e10e4e61c3624eaa0941cd0) >> 128 */\n    tag_60:\n        /* \"contracts/core/libraries/TickMath.sol\":2015:2016  0 */\n      0x00\n        /* \"contracts/core/libraries/TickMath.sol\":2007:2011  0x10 */\n      0x10\n        /* \"contracts/core/libraries/TickMath.sol\":1997:2004  absTick */\n      dup4\n        /* \"contracts/core/libraries/TickMath.sol\":1997:2011  absTick & 0x10 */\n      and\n        /* \"contracts/core/libraries/TickMath.sol\":1997:2016  absTick & 0x10 != 0 */\n      eq\n        /* \"contracts/core/libraries/TickMath.sol\":1993:2077  if (absTick & 0x10 != 0) ratio = (ratio * 0xffcb9843d60f6159c9db58835c926644) >> 128 */\n      tag_61\n      jumpi\n        /* \"contracts/core/libraries/TickMath.sol\":2074:2077  128 */\n      0x80\n        /* \"contracts/core/libraries/TickMath.sol\":2035:2069  0xffcb9843d60f6159c9db58835c926644 */\n      0xffcb9843d60f6159c9db58835c926644\n        /* \"contracts/core/libraries/TickMath.sol\":2027:2032  ratio */\n      dup3\n        /* \"contracts/core/libraries/TickMath.sol\":2027:2069  ratio * 0xffcb9843d60f6159c9db58835c926644 */\n      mul\n        /* \"contracts/core/libraries/TickMath.sol\":2026:2077  (ratio * 0xffcb9843d60f6159c9db58835c926644) >> 128 */\n      swap1\n      shr\n        /* \"contracts/core/libraries/TickMath.sol\":2018:2077  ratio = (ratio * 0xffcb9843d60f6159c9db58835c926644) >> 128 */\n      swap1\n      pop\n        /* \"contracts/core/libraries/TickMath.sol\":1993:2077  if (absTick & 0x10 != 0) ratio = (ratio * 0xffcb9843d60f6159c9db58835c926644) >> 128 */\n    tag_61:\n        /* \"contracts/core/libraries/TickMath.sol\":2109:2110  0 */\n      0x00\n        /* \"contracts/core/libraries/TickMath.sol\":2101:2105  0x20 */\n      0x20\n        /* \"contracts/core/libraries/TickMath.sol\":2091:2098  absTick */\n      dup4\n        /* \"contracts/core/libraries/TickMath.sol\":2091:2105  absTick & 0x20 */\n      and\n        /* \"contracts/core/libraries/TickMath.sol\":2091:2110  absTick & 0x20 != 0 */\n      eq\n        /* \"contracts/core/libraries/TickMath.sol\":2087:2171  if (absTick & 0x20 != 0) ratio = (ratio * 0xff973b41fa98c081472e6896dfb254c0) >> 128 */\n      tag_62\n      jumpi\n        /* \"contracts/core/libraries/TickMath.sol\":2168:2171  128 */\n      0x80\n        /* \"contracts/core/libraries/TickMath.sol\":2129:2163  0xff973b41fa98c081472e6896dfb254c0 */\n      0xff973b41fa98c081472e6896dfb254c0\n        /* \"contracts/core/libraries/TickMath.sol\":2121:2126  ratio */\n      dup3\n        /* \"contracts/core/libraries/TickMath.sol\":2121:2163  ratio * 0xff973b41fa98c081472e6896dfb254c0 */\n      mul\n        /* \"contracts/core/libraries/TickMath.sol\":2120:2171  (ratio * 0xff973b41fa98c081472e6896dfb254c0) >> 128 */\n      swap1\n      shr\n        /* \"contracts/core/libraries/TickMath.sol\":2112:2171  ratio = (ratio * 0xff973b41fa98c081472e6896dfb254c0) >> 128 */\n      swap1\n      pop\n        /* \"contracts/core/libraries/TickMath.sol\":2087:2171  if (absTick & 0x20 != 0) ratio = (ratio * 0xff973b41fa98c081472e6896dfb254c0) >> 128 */\n    tag_62:\n        /* \"contracts/core/libraries/TickMath.sol\":2203:2204  0 */\n      0x00\n        /* \"contracts/core/libraries/TickMath.sol\":2195:2199  0x40 */\n      0x40\n        /* \"contracts/core/libraries/TickMath.sol\":2185:2192  absTick */\n      dup4\n        /* \"contracts/core/libraries/TickMath.sol\":2185:2199  absTick & 0x40 */\n      and\n        /* \"contracts/core/libraries/TickMath.sol\":2185:2204  absTick & 0x40 != 0 */\n      eq\n        /* \"contracts/core/libraries/TickMath.sol\":2181:2265  if (absTick & 0x40 != 0) ratio = (ratio * 0xff2ea16466c96a3843ec78b326b52861) >> 128 */\n      tag_63\n      jumpi\n        /* \"contracts/core/libraries/TickMath.sol\":2262:2265  128 */\n      0x80\n        /* \"contracts/core/libraries/TickMath.sol\":2223:2257  0xff2ea16466c96a3843ec78b326b52861 */\n      0xff2ea16466c96a3843ec78b326b52861\n        /* \"contracts/core/libraries/TickMath.sol\":2215:2220  ratio */\n      dup3\n        /* \"contracts/core/libraries/TickMath.sol\":2215:2257  ratio * 0xff2ea16466c96a3843ec78b326b52861 */\n      mul\n        /* \"contracts/core/libraries/TickMath.sol\":2214:2265  (ratio * 0xff2ea16466c96a3843ec78b326b52861) >> 128 */\n      swap1\n      shr\n        /* \"contracts/core/libraries/TickMath.sol\":2206:2265  ratio = (ratio * 0xff2ea16466c96a3843ec78b326b52861) >> 128 */\n      swap1\n      pop\n        /* \"contracts/core/libraries/TickMath.sol\":2181:2265  if (absTick & 0x40 != 0) ratio = (ratio * 0xff2ea16466c96a3843ec78b326b52861) >> 128 */\n    tag_63:\n        /* \"contracts/core/libraries/TickMath.sol\":2297:2298  0 */\n      0x00\n        /* \"contracts/core/libraries/TickMath.sol\":2289:2293  0x80 */\n      0x80\n        /* \"contracts/core/libraries/TickMath.sol\":2279:2286  absTick */\n      dup4\n        /* \"contracts/core/libraries/TickMath.sol\":2279:2293  absTick & 0x80 */\n      and\n        /* \"contracts/core/libraries/TickMath.sol\":2279:2298  absTick & 0x80 != 0 */\n      eq\n        /* \"contracts/core/libraries/TickMath.sol\":2275:2359  if (absTick & 0x80 != 0) ratio = (ratio * 0xfe5dee046a99a2a811c461f1969c3053) >> 128 */\n      tag_64\n      jumpi\n        /* \"contracts/core/libraries/TickMath.sol\":2356:2359  128 */\n      0x80\n        /* \"contracts/core/libraries/TickMath.sol\":2317:2351  0xfe5dee046a99a2a811c461f1969c3053 */\n      0xfe5dee046a99a2a811c461f1969c3053\n        /* \"contracts/core/libraries/TickMath.sol\":2309:2314  ratio */\n      dup3\n        /* \"contracts/core/libraries/TickMath.sol\":2309:2351  ratio * 0xfe5dee046a99a2a811c461f1969c3053 */\n      mul\n        /* \"contracts/core/libraries/TickMath.sol\":2308:2359  (ratio * 0xfe5dee046a99a2a811c461f1969c3053) >> 128 */\n      swap1\n      shr\n        /* \"contracts/core/libraries/TickMath.sol\":2300:2359  ratio = (ratio * 0xfe5dee046a99a2a811c461f1969c3053) >> 128 */\n      swap1\n      pop\n        /* \"contracts/core/libraries/TickMath.sol\":2275:2359  if (absTick & 0x80 != 0) ratio = (ratio * 0xfe5dee046a99a2a811c461f1969c3053) >> 128 */\n    tag_64:\n        /* \"contracts/core/libraries/TickMath.sol\":2392:2393  0 */\n      0x00\n        /* \"contracts/core/libraries/TickMath.sol\":2383:2388  0x100 */\n      0x0100\n        /* \"contracts/core/libraries/TickMath.sol\":2373:2380  absTick */\n      dup4\n        /* \"contracts/core/libraries/TickMath.sol\":2373:2388  absTick & 0x100 */\n      and\n        /* \"contracts/core/libraries/TickMath.sol\":2373:2393  absTick & 0x100 != 0 */\n      eq\n        /* \"contracts/core/libraries/TickMath.sol\":2369:2454  if (absTick & 0x100 != 0) ratio = (ratio * 0xfcbe86c7900a88aedcffc83b479aa3a4) >> 128 */\n      tag_65\n      jumpi\n        /* \"contracts/core/libraries/TickMath.sol\":2451:2454  128 */\n      0x80\n        /* \"contracts/core/libraries/TickMath.sol\":2412:2446  0xfcbe86c7900a88aedcffc83b479aa3a4 */\n      0xfcbe86c7900a88aedcffc83b479aa3a4\n        /* \"contracts/core/libraries/TickMath.sol\":2404:2409  ratio */\n      dup3\n        /* \"contracts/core/libraries/TickMath.sol\":2404:2446  ratio * 0xfcbe86c7900a88aedcffc83b479aa3a4 */\n      mul\n        /* \"contracts/core/libraries/TickMath.sol\":2403:2454  (ratio * 0xfcbe86c7900a88aedcffc83b479aa3a4) >> 128 */\n      swap1\n      shr\n        /* \"contracts/core/libraries/TickMath.sol\":2395:2454  ratio = (ratio * 0xfcbe86c7900a88aedcffc83b479aa3a4) >> 128 */\n      swap1\n      pop\n        /* \"contracts/core/libraries/TickMath.sol\":2369:2454  if (absTick & 0x100 != 0) ratio = (ratio * 0xfcbe86c7900a88aedcffc83b479aa3a4) >> 128 */\n    tag_65:\n        /* \"contracts/core/libraries/TickMath.sol\":2487:2488  0 */\n      0x00\n        /* \"contracts/core/libraries/TickMath.sol\":2478:2483  0x200 */\n      0x0200\n        /* \"contracts/core/libraries/TickMath.sol\":2468:2475  absTick */\n      dup4\n        /* \"contracts/core/libraries/TickMath.sol\":2468:2483  absTick & 0x200 */\n      and\n        /* \"contracts/core/libraries/TickMath.sol\":2468:2488  absTick & 0x200 != 0 */\n      eq\n        /* \"contracts/core/libraries/TickMath.sol\":2464:2549  if (absTick & 0x200 != 0) ratio = (ratio * 0xf987a7253ac413176f2b074cf7815e54) >> 128 */\n      tag_66\n      jumpi\n        /* \"contracts/core/libraries/TickMath.sol\":2546:2549  128 */\n      0x80\n        /* \"contracts/core/libraries/TickMath.sol\":2507:2541  0xf987a7253ac413176f2b074cf7815e54 */\n      0xf987a7253ac413176f2b074cf7815e54\n        /* \"contracts/core/libraries/TickMath.sol\":2499:2504  ratio */\n      dup3\n        /* \"contracts/core/libraries/TickMath.sol\":2499:2541  ratio * 0xf987a7253ac413176f2b074cf7815e54 */\n      mul\n        /* \"contracts/core/libraries/TickMath.sol\":2498:2549  (ratio * 0xf987a7253ac413176f2b074cf7815e54) >> 128 */\n      swap1\n      shr\n        /* \"contracts/core/libraries/TickMath.sol\":2490:2549  ratio = (ratio * 0xf987a7253ac413176f2b074cf7815e54) >> 128 */\n      swap1\n      pop\n        /* \"contracts/core/libraries/TickMath.sol\":2464:2549  if (absTick & 0x200 != 0) ratio = (ratio * 0xf987a7253ac413176f2b074cf7815e54) >> 128 */\n    tag_66:\n        /* \"contracts/core/libraries/TickMath.sol\":2582:2583  0 */\n      0x00\n        /* \"contracts/core/libraries/TickMath.sol\":2573:2578  0x400 */\n      0x0400\n        /* \"contracts/core/libraries/TickMath.sol\":2563:2570  absTick */\n      dup4\n        /* \"contracts/core/libraries/TickMath.sol\":2563:2578  absTick & 0x400 */\n      and\n        /* \"contracts/core/libraries/TickMath.sol\":2563:2583  absTick & 0x400 != 0 */\n      eq\n        /* \"contracts/core/libraries/TickMath.sol\":2559:2644  if (absTick & 0x400 != 0) ratio = (ratio * 0xf3392b0822b70005940c7a398e4b70f3) >> 128 */\n      tag_67\n      jumpi\n        /* \"contracts/core/libraries/TickMath.sol\":2641:2644  128 */\n      0x80\n        /* \"contracts/core/libraries/TickMath.sol\":2602:2636  0xf3392b0822b70005940c7a398e4b70f3 */\n      0xf3392b0822b70005940c7a398e4b70f3\n        /* \"contracts/core/libraries/TickMath.sol\":2594:2599  ratio */\n      dup3\n        /* \"contracts/core/libraries/TickMath.sol\":2594:2636  ratio * 0xf3392b0822b70005940c7a398e4b70f3 */\n      mul\n        /* \"contracts/core/libraries/TickMath.sol\":2593:2644  (ratio * 0xf3392b0822b70005940c7a398e4b70f3) >> 128 */\n      swap1\n      shr\n        /* \"contracts/core/libraries/TickMath.sol\":2585:2644  ratio = (ratio * 0xf3392b0822b70005940c7a398e4b70f3) >> 128 */\n      swap1\n      pop\n        /* \"contracts/core/libraries/TickMath.sol\":2559:2644  if (absTick & 0x400 != 0) ratio = (ratio * 0xf3392b0822b70005940c7a398e4b70f3) >> 128 */\n    tag_67:\n        /* \"contracts/core/libraries/TickMath.sol\":2677:2678  0 */\n      0x00\n        /* \"contracts/core/libraries/TickMath.sol\":2668:2673  0x800 */\n      0x0800\n        /* \"contracts/core/libraries/TickMath.sol\":2658:2665  absTick */\n      dup4\n        /* \"contracts/core/libraries/TickMath.sol\":2658:2673  absTick & 0x800 */\n      and\n        /* \"contracts/core/libraries/TickMath.sol\":2658:2678  absTick & 0x800 != 0 */\n      eq\n        /* \"contracts/core/libraries/TickMath.sol\":2654:2739  if (absTick & 0x800 != 0) ratio = (ratio * 0xe7159475a2c29b7443b29c7fa6e889d9) >> 128 */\n      tag_68\n      jumpi\n        /* \"contracts/core/libraries/TickMath.sol\":2736:2739  128 */\n      0x80\n        /* \"contracts/core/libraries/TickMath.sol\":2697:2731  0xe7159475a2c29b7443b29c7fa6e889d9 */\n      0xe7159475a2c29b7443b29c7fa6e889d9\n        /* \"contracts/core/libraries/TickMath.sol\":2689:2694  ratio */\n      dup3\n        /* \"contracts/core/libraries/TickMath.sol\":2689:2731  ratio * 0xe7159475a2c29b7443b29c7fa6e889d9 */\n      mul\n        /* \"contracts/core/libraries/TickMath.sol\":2688:2739  (ratio * 0xe7159475a2c29b7443b29c7fa6e889d9) >> 128 */\n      swap1\n      shr\n        /* \"contracts/core/libraries/TickMath.sol\":2680:2739  ratio = (ratio * 0xe7159475a2c29b7443b29c7fa6e889d9) >> 128 */\n      swap1\n      pop\n        /* \"contracts/core/libraries/TickMath.sol\":2654:2739  if (absTick & 0x800 != 0) ratio = (ratio * 0xe7159475a2c29b7443b29c7fa6e889d9) >> 128 */\n    tag_68:\n        /* \"contracts/core/libraries/TickMath.sol\":2773:2774  0 */\n      0x00\n        /* \"contracts/core/libraries/TickMath.sol\":2763:2769  0x1000 */\n      0x1000\n        /* \"contracts/core/libraries/TickMath.sol\":2753:2760  absTick */\n      dup4\n        /* \"contracts/core/libraries/TickMath.sol\":2753:2769  absTick & 0x1000 */\n      and\n        /* \"contracts/core/libraries/TickMath.sol\":2753:2774  absTick & 0x1000 != 0 */\n      eq\n        /* \"contracts/core/libraries/TickMath.sol\":2749:2835  if (absTick & 0x1000 != 0) ratio = (ratio * 0xd097f3bdfd2022b8845ad8f792aa5825) >> 128 */\n      tag_69\n      jumpi\n        /* \"contracts/core/libraries/TickMath.sol\":2832:2835  128 */\n      0x80\n        /* \"contracts/core/libraries/TickMath.sol\":2793:2827  0xd097f3bdfd2022b8845ad8f792aa5825 */\n      0xd097f3bdfd2022b8845ad8f792aa5825\n        /* \"contracts/core/libraries/TickMath.sol\":2785:2790  ratio */\n      dup3\n        /* \"contracts/core/libraries/TickMath.sol\":2785:2827  ratio * 0xd097f3bdfd2022b8845ad8f792aa5825 */\n      mul\n        /* \"contracts/core/libraries/TickMath.sol\":2784:2835  (ratio * 0xd097f3bdfd2022b8845ad8f792aa5825) >> 128 */\n      swap1\n      shr\n        /* \"contracts/core/libraries/TickMath.sol\":2776:2835  ratio = (ratio * 0xd097f3bdfd2022b8845ad8f792aa5825) >> 128 */\n      swap1\n      pop\n        /* \"contracts/core/libraries/TickMath.sol\":2749:2835  if (absTick & 0x1000 != 0) ratio = (ratio * 0xd097f3bdfd2022b8845ad8f792aa5825) >> 128 */\n    tag_69:\n        /* \"contracts/core/libraries/TickMath.sol\":2869:2870  0 */\n      0x00\n        /* \"contracts/core/libraries/TickMath.sol\":2859:2865  0x2000 */\n      0x2000\n        /* \"contracts/core/libraries/TickMath.sol\":2849:2856  absTick */\n      dup4\n        /* \"contracts/core/libraries/TickMath.sol\":2849:2865  absTick & 0x2000 */\n      and\n        /* \"contracts/core/libraries/TickMath.sol\":2849:2870  absTick & 0x2000 != 0 */\n      eq\n        /* \"contracts/core/libraries/TickMath.sol\":2845:2931  if (absTick & 0x2000 != 0) ratio = (ratio * 0xa9f746462d870fdf8a65dc1f90e061e5) >> 128 */\n      tag_70\n      jumpi\n        /* \"contracts/core/libraries/TickMath.sol\":2928:2931  128 */\n      0x80\n        /* \"contracts/core/libraries/TickMath.sol\":2889:2923  0xa9f746462d870fdf8a65dc1f90e061e5 */\n      0xa9f746462d870fdf8a65dc1f90e061e5\n        /* \"contracts/core/libraries/TickMath.sol\":2881:2886  ratio */\n      dup3\n        /* \"contracts/core/libraries/TickMath.sol\":2881:2923  ratio * 0xa9f746462d870fdf8a65dc1f90e061e5 */\n      mul\n        /* \"contracts/core/libraries/TickMath.sol\":2880:2931  (ratio * 0xa9f746462d870fdf8a65dc1f90e061e5) >> 128 */\n      swap1\n      shr\n        /* \"contracts/core/libraries/TickMath.sol\":2872:2931  ratio = (ratio * 0xa9f746462d870fdf8a65dc1f90e061e5) >> 128 */\n      swap1\n      pop\n        /* \"contracts/core/libraries/TickMath.sol\":2845:2931  if (absTick & 0x2000 != 0) ratio = (ratio * 0xa9f746462d870fdf8a65dc1f90e061e5) >> 128 */\n    tag_70:\n        /* \"contracts/core/libraries/TickMath.sol\":2965:2966  0 */\n      0x00\n        /* \"contracts/core/libraries/TickMath.sol\":2955:2961  0x4000 */\n      0x4000\n        /* \"contracts/core/libraries/TickMath.sol\":2945:2952  absTick */\n      dup4\n        /* \"contracts/core/libraries/TickMath.sol\":2945:2961  absTick & 0x4000 */\n      and\n        /* \"contracts/core/libraries/TickMath.sol\":2945:2966  absTick & 0x4000 != 0 */\n      eq\n        /* \"contracts/core/libraries/TickMath.sol\":2941:3027  if (absTick & 0x4000 != 0) ratio = (ratio * 0x70d869a156d2a1b890bb3df62baf32f7) >> 128 */\n      tag_71\n      jumpi\n        /* \"contracts/core/libraries/TickMath.sol\":3024:3027  128 */\n      0x80\n        /* \"contracts/core/libraries/TickMath.sol\":2985:3019  0x70d869a156d2a1b890bb3df62baf32f7 */\n      0x70d869a156d2a1b890bb3df62baf32f7\n        /* \"contracts/core/libraries/TickMath.sol\":2977:2982  ratio */\n      dup3\n        /* \"contracts/core/libraries/TickMath.sol\":2977:3019  ratio * 0x70d869a156d2a1b890bb3df62baf32f7 */\n      mul\n        /* \"contracts/core/libraries/TickMath.sol\":2976:3027  (ratio * 0x70d869a156d2a1b890bb3df62baf32f7) >> 128 */\n      swap1\n      shr\n        /* \"contracts/core/libraries/TickMath.sol\":2968:3027  ratio = (ratio * 0x70d869a156d2a1b890bb3df62baf32f7) >> 128 */\n      swap1\n      pop\n        /* \"contracts/core/libraries/TickMath.sol\":2941:3027  if (absTick & 0x4000 != 0) ratio = (ratio * 0x70d869a156d2a1b890bb3df62baf32f7) >> 128 */\n    tag_71:\n        /* \"contracts/core/libraries/TickMath.sol\":3061:3062  0 */\n      0x00\n        /* \"contracts/core/libraries/TickMath.sol\":3051:3057  0x8000 */\n      0x8000\n        /* \"contracts/core/libraries/TickMath.sol\":3041:3048  absTick */\n      dup4\n        /* \"contracts/core/libraries/TickMath.sol\":3041:3057  absTick & 0x8000 */\n      and\n        /* \"contracts/core/libraries/TickMath.sol\":3041:3062  absTick & 0x8000 != 0 */\n      eq\n        /* \"contracts/core/libraries/TickMath.sol\":3037:3123  if (absTick & 0x8000 != 0) ratio = (ratio * 0x31be135f97d08fd981231505542fcfa6) >> 128 */\n      tag_72\n      jumpi\n        /* \"contracts/core/libraries/TickMath.sol\":3120:3123  128 */\n      0x80\n        /* \"contracts/core/libraries/TickMath.sol\":3081:3115  0x31be135f97d08fd981231505542fcfa6 */\n      0x31be135f97d08fd981231505542fcfa6\n        /* \"contracts/core/libraries/TickMath.sol\":3073:3078  ratio */\n      dup3\n        /* \"contracts/core/libraries/TickMath.sol\":3073:3115  ratio * 0x31be135f97d08fd981231505542fcfa6 */\n      mul\n        /* \"contracts/core/libraries/TickMath.sol\":3072:3123  (ratio * 0x31be135f97d08fd981231505542fcfa6) >> 128 */\n      swap1\n      shr\n        /* \"contracts/core/libraries/TickMath.sol\":3064:3123  ratio = (ratio * 0x31be135f97d08fd981231505542fcfa6) >> 128 */\n      swap1\n      pop\n        /* \"contracts/core/libraries/TickMath.sol\":3037:3123  if (absTick & 0x8000 != 0) ratio = (ratio * 0x31be135f97d08fd981231505542fcfa6) >> 128 */\n    tag_72:\n        /* \"contracts/core/libraries/TickMath.sol\":3158:3159  0 */\n      0x00\n        /* \"contracts/core/libraries/TickMath.sol\":3147:3154  0x10000 */\n      0x010000\n        /* \"contracts/core/libraries/TickMath.sol\":3137:3144  absTick */\n      dup4\n        /* \"contracts/core/libraries/TickMath.sol\":3137:3154  absTick & 0x10000 */\n      and\n        /* \"contracts/core/libraries/TickMath.sol\":3137:3159  absTick & 0x10000 != 0 */\n      eq\n        /* \"contracts/core/libraries/TickMath.sol\":3133:3219  if (absTick & 0x10000 != 0) ratio = (ratio * 0x9aa508b5b7a84e1c677de54f3e99bc9) >> 128 */\n      tag_73\n      jumpi\n        /* \"contracts/core/libraries/TickMath.sol\":3216:3219  128 */\n      0x80\n        /* \"contracts/core/libraries/TickMath.sol\":3178:3211  0x9aa508b5b7a84e1c677de54f3e99bc9 */\n      0x09aa508b5b7a84e1c677de54f3e99bc9\n        /* \"contracts/core/libraries/TickMath.sol\":3170:3175  ratio */\n      dup3\n        /* \"contracts/core/libraries/TickMath.sol\":3170:3211  ratio * 0x9aa508b5b7a84e1c677de54f3e99bc9 */\n      mul\n        /* \"contracts/core/libraries/TickMath.sol\":3169:3219  (ratio * 0x9aa508b5b7a84e1c677de54f3e99bc9) >> 128 */\n      swap1\n      shr\n        /* \"contracts/core/libraries/TickMath.sol\":3161:3219  ratio = (ratio * 0x9aa508b5b7a84e1c677de54f3e99bc9) >> 128 */\n      swap1\n      pop\n        /* \"contracts/core/libraries/TickMath.sol\":3133:3219  if (absTick & 0x10000 != 0) ratio = (ratio * 0x9aa508b5b7a84e1c677de54f3e99bc9) >> 128 */\n    tag_73:\n        /* \"contracts/core/libraries/TickMath.sol\":3254:3255  0 */\n      0x00\n        /* \"contracts/core/libraries/TickMath.sol\":3243:3250  0x20000 */\n      0x020000\n        /* \"contracts/core/libraries/TickMath.sol\":3233:3240  absTick */\n      dup4\n        /* \"contracts/core/libraries/TickMath.sol\":3233:3250  absTick & 0x20000 */\n      and\n        /* \"contracts/core/libraries/TickMath.sol\":3233:3255  absTick & 0x20000 != 0 */\n      eq\n        /* \"contracts/core/libraries/TickMath.sol\":3229:3314  if (absTick & 0x20000 != 0) ratio = (ratio * 0x5d6af8dedb81196699c329225ee604) >> 128 */\n      tag_74\n      jumpi\n        /* \"contracts/core/libraries/TickMath.sol\":3311:3314  128 */\n      0x80\n        /* \"contracts/core/libraries/TickMath.sol\":3274:3306  0x5d6af8dedb81196699c329225ee604 */\n      0x5d6af8dedb81196699c329225ee604\n        /* \"contracts/core/libraries/TickMath.sol\":3266:3271  ratio */\n      dup3\n        /* \"contracts/core/libraries/TickMath.sol\":3266:3306  ratio * 0x5d6af8dedb81196699c329225ee604 */\n      mul\n        /* \"contracts/core/libraries/TickMath.sol\":3265:3314  (ratio * 0x5d6af8dedb81196699c329225ee604) >> 128 */\n      swap1\n      shr\n        /* \"contracts/core/libraries/TickMath.sol\":3257:3314  ratio = (ratio * 0x5d6af8dedb81196699c329225ee604) >> 128 */\n      swap1\n      pop\n        /* \"contracts/core/libraries/TickMath.sol\":3229:3314  if (absTick & 0x20000 != 0) ratio = (ratio * 0x5d6af8dedb81196699c329225ee604) >> 128 */\n    tag_74:\n        /* \"contracts/core/libraries/TickMath.sol\":3349:3350  0 */\n      0x00\n        /* \"contracts/core/libraries/TickMath.sol\":3338:3345  0x40000 */\n      0x040000\n        /* \"contracts/core/libraries/TickMath.sol\":3328:3335  absTick */\n      dup4\n        /* \"contracts/core/libraries/TickMath.sol\":3328:3345  absTick & 0x40000 */\n      and\n        /* \"contracts/core/libraries/TickMath.sol\":3328:3350  absTick & 0x40000 != 0 */\n      eq\n        /* \"contracts/core/libraries/TickMath.sol\":3324:3407  if (absTick & 0x40000 != 0) ratio = (ratio * 0x2216e584f5fa1ea926041bedfe98) >> 128 */\n      tag_75\n      jumpi\n        /* \"contracts/core/libraries/TickMath.sol\":3404:3407  128 */\n      0x80\n        /* \"contracts/core/libraries/TickMath.sol\":3369:3399  0x2216e584f5fa1ea926041bedfe98 */\n      0x2216e584f5fa1ea926041bedfe98\n        /* \"contracts/core/libraries/TickMath.sol\":3361:3366  ratio */\n      dup3\n        /* \"contracts/core/libraries/TickMath.sol\":3361:3399  ratio * 0x2216e584f5fa1ea926041bedfe98 */\n      mul\n        /* \"contracts/core/libraries/TickMath.sol\":3360:3407  (ratio * 0x2216e584f5fa1ea926041bedfe98) >> 128 */\n      swap1\n      shr\n        /* \"contracts/core/libraries/TickMath.sol\":3352:3407  ratio = (ratio * 0x2216e584f5fa1ea926041bedfe98) >> 128 */\n      swap1\n      pop\n        /* \"contracts/core/libraries/TickMath.sol\":3324:3407  if (absTick & 0x40000 != 0) ratio = (ratio * 0x2216e584f5fa1ea926041bedfe98) >> 128 */\n    tag_75:\n        /* \"contracts/core/libraries/TickMath.sol\":3442:3443  0 */\n      0x00\n        /* \"contracts/core/libraries/TickMath.sol\":3431:3438  0x80000 */\n      0x080000\n        /* \"contracts/core/libraries/TickMath.sol\":3421:3428  absTick */\n      dup4\n        /* \"contracts/core/libraries/TickMath.sol\":3421:3438  absTick & 0x80000 */\n      and\n        /* \"contracts/core/libraries/TickMath.sol\":3421:3443  absTick & 0x80000 != 0 */\n      eq\n        /* \"contracts/core/libraries/TickMath.sol\":3417:3495  if (absTick & 0x80000 != 0) ratio = (ratio * 0x48a170391f7dc42444e8fa2) >> 128 */\n      tag_76\n      jumpi\n        /* \"contracts/core/libraries/TickMath.sol\":3492:3495  128 */\n      0x80\n        /* \"contracts/core/libraries/TickMath.sol\":3462:3487  0x48a170391f7dc42444e8fa2 */\n      0x048a170391f7dc42444e8fa2\n        /* \"contracts/core/libraries/TickMath.sol\":3454:3459  ratio */\n      dup3\n        /* \"contracts/core/libraries/TickMath.sol\":3454:3487  ratio * 0x48a170391f7dc42444e8fa2 */\n      mul\n        /* \"contracts/core/libraries/TickMath.sol\":3453:3495  (ratio * 0x48a170391f7dc42444e8fa2) >> 128 */\n      swap1\n      shr\n        /* \"contracts/core/libraries/TickMath.sol\":3445:3495  ratio = (ratio * 0x48a170391f7dc42444e8fa2) >> 128 */\n      swap1\n      pop\n        /* \"contracts/core/libraries/TickMath.sol\":3417:3495  if (absTick & 0x80000 != 0) ratio = (ratio * 0x48a170391f7dc42444e8fa2) >> 128 */\n    tag_76:\n        /* \"contracts/core/libraries/TickMath.sol\":3517:3518  0 */\n      0x00\n        /* \"contracts/core/libraries/TickMath.sol\":3510:3514  tick */\n      dup5\n        /* \"contracts/core/libraries/TickMath.sol\":3510:3518  tick > 0 */\n      0x02\n      signextend\n      sgt\n        /* \"contracts/core/libraries/TickMath.sol\":3506:3553  if (tick > 0) ratio = type(uint256).max / ratio */\n      iszero\n      tag_77\n      jumpi\n        /* \"contracts/core/libraries/TickMath.sol\":3548:3553  ratio */\n      dup1\n        /* \"contracts/core/libraries/TickMath.sol\":3528:3545  type(uint256).max */\n      0xffffffffffffffffffffffffffffffffffffffffffffffffffffffffffffffff\n        /* \"contracts/core/libraries/TickMath.sol\":3528:3553  type(uint256).max / ratio */\n      dup2\n      tag_78\n      jumpi\n      invalid\n    tag_78:\n      div\n        /* \"contracts/core/libraries/TickMath.sol\":3520:3553  ratio = type(uint256).max / ratio */\n      swap1\n      pop\n        /* \"contracts/core/libraries/TickMath.sol\":3506:3553  if (tick > 0) ratio = type(uint256).max / ratio */\n    tag_77:\n        /* \"contracts/core/libraries/TickMath.sol\":3924:3925  0 */\n      0x00\n        /* \"contracts/core/libraries/TickMath.sol\":3912:3919  1 << 32 */\n      0x0100000000\n        /* \"contracts/core/libraries/TickMath.sol\":3903:3908  ratio */\n      dup3\n        /* \"contracts/core/libraries/TickMath.sol\":3903:3920  ratio % (1 << 32) */\n      dup2\n      tag_79\n      jumpi\n      invalid\n    tag_79:\n      mod\n        /* \"contracts/core/libraries/TickMath.sol\":3903:3925  ratio % (1 << 32) == 0 */\n      eq\n        /* \"contracts/core/libraries/TickMath.sol\":3903:3933  ratio % (1 << 32) == 0 ? 0 : 1 */\n      tag_80\n      jumpi\n        /* \"contracts/core/libraries/TickMath.sol\":3932:3933  1 */\n      0x01\n        /* \"contracts/core/libraries/TickMath.sol\":3903:3933  ratio % (1 << 32) == 0 ? 0 : 1 */\n      jump(tag_81)\n    tag_80:\n        /* \"contracts/core/libraries/TickMath.sol\":3928:3929  0 */\n      0x00\n        /* \"contracts/core/libraries/TickMath.sol\":3903:3933  ratio % (1 << 32) == 0 ? 0 : 1 */\n    tag_81:\n        /* \"contracts/core/libraries/TickMath.sol\":3886:3934  (ratio >> 32) + (ratio % (1 << 32) == 0 ? 0 : 1) */\n      0xff\n      and\n        /* \"contracts/core/libraries/TickMath.sol\":3896:3898  32 */\n      0x20\n        /* \"contracts/core/libraries/TickMath.sol\":3887:3892  ratio */\n      dup3\n        /* \"contracts/core/libraries/TickMath.sol\":3887:3898  ratio >> 32 */\n      swap1\n      shr\n        /* \"contracts/core/libraries/TickMath.sol\":3886:3934  (ratio >> 32) + (ratio % (1 << 32) == 0 ? 0 : 1) */\n      add\n        /* \"contracts/core/libraries/TickMath.sol\":3863:3935  sqrtPriceX96 = uint160((ratio >> 32) + (ratio % (1 << 32) == 0 ? 0 : 1)) */\n      swap3\n      pop\n        /* \"contracts/core/libraries/TickMath.sol\":1362:3942  function getSqrtRatioAtTick(int24 tick) internal pure returns (uint160 sqrtPriceX96) {... */\n      pop\n      pop\n      swap2\n      swap1\n      pop\n      jump\t// out\n        /* \"contracts/core/libraries/FullMath.sol\":749:4495  function mulDiv(uint256 a, uint256 b, uint256 denominator) internal pure returns (uint256 result) {... */\n    tag_47:\n        /* \"contracts/core/libraries/FullMath.sol\":831:845  uint256 result */\n      0x00\n        /* \"contracts/core/libraries/FullMath.sol\":1160:1173  uint256 prod0 */\n      dup1\n        /* \"contracts/core/libraries/FullMath.sol\":1228:1241  uint256 prod1 */\n      0x00\n        /* \"contracts/core/libraries/FullMath.sol\":1345:1346  0 */\n      dup1\n        /* \"contracts/core/libraries/FullMath.sol\":1341:1347  not(0) */\n      not\n        /* \"contracts/core/libraries/FullMath.sol\":1338:1339  b */\n      dup6\n        /* \"contracts/core/libraries/FullMath.sol\":1335:1336  a */\n      dup8\n        /* \"contracts/core/libraries/FullMath.sol\":1328:1348  mulmod(a, b, not(0)) */\n      mulmod\n        /* \"contracts/core/libraries/FullMath.sol\":1377:1378  b */\n      dup6\n        /* \"contracts/core/libraries/FullMath.sol\":1374:1375  a */\n      dup8\n        /* \"contracts/core/libraries/FullMath.sol\":1370:1379  mul(a, b) */\n      mul\n        /* \"contracts/core/libraries/FullMath.sol\":1361:1379  prod0 := mul(a, b) */\n      swap3\n      pop\n        /* \"contracts/core/libraries/FullMath.sol\":1428:1433  prod0 */\n      dup3\n        /* \"contracts/core/libraries/FullMath.sol\":1424:1426  mm */\n      dup2\n        /* \"contracts/core/libraries/FullMath.sol\":1421:1434  lt(mm, prod0) */\n      lt\n        /* \"contracts/core/libraries/FullMath.sol\":1413:1418  prod0 */\n      dup4\n        /* \"contracts/core/libraries/FullMath.sol\":1409:1411  mm */\n      dup3\n        /* \"contracts/core/libraries/FullMath.sol\":1405:1419  sub(mm, prod0) */\n      sub\n        /* \"contracts/core/libraries/FullMath.sol\":1401:1435  sub(sub(mm, prod0), lt(mm, prod0)) */\n      sub\n        /* \"contracts/core/libraries/FullMath.sol\":1392:1435  prod1 := sub(sub(mm, prod0), lt(mm, prod0)) */\n      swap2\n      pop\n        /* \"contracts/core/libraries/FullMath.sol\":1304:1445  {... */\n      pop\n        /* \"contracts/core/libraries/FullMath.sol\":1526:1527  0 */\n      0x00\n        /* \"contracts/core/libraries/FullMath.sol\":1517:1522  prod1 */\n      dup2\n        /* \"contracts/core/libraries/FullMath.sol\":1517:1527  prod1 == 0 */\n      eq\n        /* \"contracts/core/libraries/FullMath.sol\":1513:1692  if (prod1 == 0) {... */\n      iszero\n      tag_83\n      jumpi\n        /* \"contracts/core/libraries/FullMath.sol\":1565:1566  0 */\n      0x00\n        /* \"contracts/core/libraries/FullMath.sol\":1551:1562  denominator */\n      dup5\n        /* \"contracts/core/libraries/FullMath.sol\":1551:1566  denominator > 0 */\n      gt\n        /* \"contracts/core/libraries/FullMath.sol\":1543:1567  require(denominator > 0) */\n      tag_84\n      jumpi\n      0x00\n      dup1\n      revert\n    tag_84:\n        /* \"contracts/core/libraries/FullMath.sol\":1629:1640  denominator */\n      dup4\n        /* \"contracts/core/libraries/FullMath.sol\":1622:1627  prod0 */\n      dup3\n        /* \"contracts/core/libraries/FullMath.sol\":1618:1641  div(prod0, denominator) */\n      div\n        /* \"contracts/core/libraries/FullMath.sol\":1608:1641  result := div(prod0, denominator) */\n      swap3\n      pop\n        /* \"contracts/core/libraries/FullMath.sol\":1668:1681  return result */\n      pop\n      pop\n      jump(tag_82)\n        /* \"contracts/core/libraries/FullMath.sol\":1513:1692  if (prod1 == 0) {... */\n    tag_83:\n        /* \"contracts/core/libraries/FullMath.sol\":1819:1824  prod1 */\n      dup1\n        /* \"contracts/core/libraries/FullMath.sol\":1805:1816  denominator */\n      dup5\n        /* \"contracts/core/libraries/FullMath.sol\":1805:1824  denominator > prod1 */\n      gt\n        /* \"contracts/core/libraries/FullMath.sol\":1797:1825  require(denominator > prod1) */\n      tag_85\n      jumpi\n      0x00\n      dup1\n      revert\n    tag_85:\n        /* \"contracts/core/libraries/FullMath.sol\":2102:2119  uint256 remainder */\n      0x00\n        /* \"contracts/core/libraries/FullMath.sol\":2178:2189  denominator */\n      dup5\n        /* \"contracts/core/libraries/FullMath.sol\":2175:2176  b */\n      dup7\n        /* \"contracts/core/libraries/FullMath.sol\":2172:2173  a */\n      dup9\n        /* \"contracts/core/libraries/FullMath.sol\":2165:2190  mulmod(a, b, denominator) */\n      mulmod\n        /* \"contracts/core/libraries/FullMath.sol\":2152:2190  remainder := mulmod(a, b, denominator) */\n      swap1\n      pop\n        /* \"contracts/core/libraries/FullMath.sol\":2321:2326  prod0 */\n      dup3\n        /* \"contracts/core/libraries/FullMath.sol\":2310:2319  remainder */\n      dup2\n        /* \"contracts/core/libraries/FullMath.sol\":2307:2327  gt(remainder, prod0) */\n      gt\n        /* \"contracts/core/libraries/FullMath.sol\":2300:2305  prod1 */\n      dup3\n        /* \"contracts/core/libraries/FullMath.sol\":2296:2328  sub(prod1, gt(remainder, prod0)) */\n      sub\n        /* \"contracts/core/libraries/FullMath.sol\":2287:2328  prod1 := sub(prod1, gt(remainder, prod0)) */\n      swap2\n      pop\n        /* \"contracts/core/libraries/FullMath.sol\":2361:2370  remainder */\n      dup1\n        /* \"contracts/core/libraries/FullMath.sol\":2354:2359  prod0 */\n      dup4\n        /* \"contracts/core/libraries/FullMath.sol\":2350:2371  sub(prod0, remainder) */\n      sub\n        /* \"contracts/core/libraries/FullMath.sol\":2341:2371  prod0 := sub(prod0, remainder) */\n      swap3\n      pop\n        /* \"contracts/core/libraries/FullMath.sol\":2530:2542  uint256 twos */\n      0x00\n        /* \"contracts/core/libraries/FullMath.sol\":2560:2571  denominator */\n      dup6\n        /* \"contracts/core/libraries/FullMath.sol\":2546:2557  denominator */\n      dup7\n        /* \"contracts/core/libraries/FullMath.sol\":2545:2557  -denominator */\n      0x00\n      sub\n        /* \"contracts/core/libraries/FullMath.sol\":2545:2571  -denominator & denominator */\n      and\n        /* \"contracts/core/libraries/FullMath.sol\":2530:2571  uint256 twos = -denominator & denominator */\n      swap1\n      pop\n        /* \"contracts/core/libraries/FullMath.sol\":2682:2686  twos */\n      dup1\n        /* \"contracts/core/libraries/FullMath.sol\":2669:2680  denominator */\n      dup7\n        /* \"contracts/core/libraries/FullMath.sol\":2665:2687  div(denominator, twos) */\n      div\n        /* \"contracts/core/libraries/FullMath.sol\":2650:2687  denominator := div(denominator, twos) */\n      swap6\n      pop\n        /* \"contracts/core/libraries/FullMath.sol\":2804:2808  twos */\n      dup1\n        /* \"contracts/core/libraries/FullMath.sol\":2797:2802  prod0 */\n      dup5\n        /* \"contracts/core/libraries/FullMath.sol\":2793:2809  div(prod0, twos) */\n      div\n        /* \"contracts/core/libraries/FullMath.sol\":2784:2809  prod0 := div(prod0, twos) */\n      swap4\n      pop\n        /* \"contracts/core/libraries/FullMath.sol\":3058:3059  1 */\n      0x01\n        /* \"contracts/core/libraries/FullMath.sol\":3051:3055  twos */\n      dup2\n        /* \"contracts/core/libraries/FullMath.sol\":3044:3048  twos */\n      dup3\n        /* \"contracts/core/libraries/FullMath.sol\":3041:3042  0 */\n      0x00\n        /* \"contracts/core/libraries/FullMath.sol\":3037:3049  sub(0, twos) */\n      sub\n        /* \"contracts/core/libraries/FullMath.sol\":3033:3056  div(sub(0, twos), twos) */\n      div\n        /* \"contracts/core/libraries/FullMath.sol\":3029:3060  add(div(sub(0, twos), twos), 1) */\n      add\n        /* \"contracts/core/libraries/FullMath.sol\":3021:3060  twos := add(div(sub(0, twos), twos), 1) */\n      swap1\n      pop\n        /* \"contracts/core/libraries/FullMath.sol\":3096:3100  twos */\n      dup1\n        /* \"contracts/core/libraries/FullMath.sol\":3088:3093  prod1 */\n      dup4\n        /* \"contracts/core/libraries/FullMath.sol\":3088:3100  prod1 * twos */\n      mul\n        /* \"contracts/core/libraries/FullMath.sol\":3079:3100  prod0 |= prod1 * twos */\n      dup5\n      or\n      swap4\n      pop\n        /* \"contracts/core/libraries/FullMath.sol\":3434:3445  uint256 inv */\n      0x00\n        /* \"contracts/core/libraries/FullMath.sol\":3468:3469  2 */\n      0x02\n        /* \"contracts/core/libraries/FullMath.sol\":3453:3464  denominator */\n      dup8\n        /* \"contracts/core/libraries/FullMath.sol\":3449:3450  3 */\n      0x03\n        /* \"contracts/core/libraries/FullMath.sol\":3449:3464  3 * denominator */\n      mul\n        /* \"contracts/core/libraries/FullMath.sol\":3448:3469  (3 * denominator) ^ 2 */\n      xor\n        /* \"contracts/core/libraries/FullMath.sol\":3434:3469  uint256 inv = (3 * denominator) ^ 2 */\n      swap1\n      pop\n        /* \"contracts/core/libraries/FullMath.sol\":3709:3712  inv */\n      dup1\n        /* \"contracts/core/libraries/FullMath.sol\":3695:3706  denominator */\n      dup8\n        /* \"contracts/core/libraries/FullMath.sol\":3695:3712  denominator * inv */\n      mul\n        /* \"contracts/core/libraries/FullMath.sol\":3691:3692  2 */\n      0x02\n        /* \"contracts/core/libraries/FullMath.sol\":3691:3712  2 - denominator * inv */\n      sub\n        /* \"contracts/core/libraries/FullMath.sol\":3684:3712  inv *= 2 - denominator * inv */\n      dup2\n      mul\n      swap1\n      pop\n        /* \"contracts/core/libraries/FullMath.sol\":3767:3770  inv */\n      dup1\n        /* \"contracts/core/libraries/FullMath.sol\":3753:3764  denominator */\n      dup8\n        /* \"contracts/core/libraries/FullMath.sol\":3753:3770  denominator * inv */\n      mul\n        /* \"contracts/core/libraries/FullMath.sol\":3749:3750  2 */\n      0x02\n        /* \"contracts/core/libraries/FullMath.sol\":3749:3770  2 - denominator * inv */\n      sub\n        /* \"contracts/core/libraries/FullMath.sol\":3742:3770  inv *= 2 - denominator * inv */\n      dup2\n      mul\n      swap1\n      pop\n        /* \"contracts/core/libraries/FullMath.sol\":3826:3829  inv */\n      dup1\n        /* \"contracts/core/libraries/FullMath.sol\":3812:3823  denominator */\n      dup8\n        /* \"contracts/core/libraries/FullMath.sol\":3812:3829  denominator * inv */\n      mul\n        /* \"contracts/core/libraries/FullMath.sol\":3808:3809  2 */\n      0x02\n        /* \"contracts/core/libraries/FullMath.sol\":3808:3829  2 - denominator * inv */\n      sub\n        /* \"contracts/core/libraries/FullMath.sol\":3801:3829  inv *= 2 - denominator * inv */\n      dup2\n      mul\n      swap1\n      pop\n        /* \"contracts/core/libraries/FullMath.sol\":3885:3888  inv */\n      dup1\n        /* \"contracts/core/libraries/FullMath.sol\":3871:3882  denominator */\n      dup8\n        /* \"contracts/core/libraries/FullMath.sol\":3871:3888  denominator * inv */\n      mul\n        /* \"contracts/core/libraries/FullMath.sol\":3867:3868  2 */\n      0x02\n        /* \"contracts/core/libraries/FullMath.sol\":3867:3888  2 - denominator * inv */\n      sub\n        /* \"contracts/core/libraries/FullMath.sol\":3860:3888  inv *= 2 - denominator * inv */\n      dup2\n      mul\n      swap1\n      pop\n        /* \"contracts/core/libraries/FullMath.sol\":3944:3947  inv */\n      dup1\n        /* \"contracts/core/libraries/FullMath.sol\":3930:3941  denominator */\n      dup8\n        /* \"contracts/core/libraries/FullMath.sol\":3930:3947  denominator * inv */\n      mul\n        /* \"contracts/core/libraries/FullMath.sol\":3926:3927  2 */\n      0x02\n        /* \"contracts/core/libraries/FullMath.sol\":3926:3947  2 - denominator * inv */\n      sub\n        /* \"contracts/core/libraries/FullMath.sol\":3919:3947  inv *= 2 - denominator * inv */\n      dup2\n      mul\n      swap1\n      pop\n        /* \"contracts/core/libraries/FullMath.sol\":4004:4007  inv */\n      dup1\n        /* \"contracts/core/libraries/FullMath.sol\":3990:4001  denominator */\n      dup8\n        /* \"contracts/core/libraries/FullMath.sol\":3990:4007  denominator * inv */\n      mul\n        /* \"contracts/core/libraries/FullMath.sol\":3986:3987  2 */\n      0x02\n        /* \"contracts/core/libraries/FullMath.sol\":3986:4007  2 - denominator * inv */\n      sub\n        /* \"contracts/core/libraries/FullMath.sol\":3979:4007  inv *= 2 - denominator * inv */\n      dup2\n      mul\n      swap1\n      pop\n        /* \"contracts/core/libraries/FullMath.sol\":4462:4465  inv */\n      dup1\n        /* \"contracts/core/libraries/FullMath.sol\":4454:4459  prod0 */\n      dup6\n        /* \"contracts/core/libraries/FullMath.sol\":4454:4465  prod0 * inv */\n      mul\n        /* \"contracts/core/libraries/FullMath.sol\":4445:4465  result = prod0 * inv */\n      swap6\n      pop\n        /* \"contracts/core/libraries/FullMath.sol\":4475:4488  return result */\n      pop\n      pop\n      pop\n      pop\n      pop\n        /* \"contracts/core/libraries/FullMath.sol\":749:4495  function mulDiv(uint256 a, uint256 b, uint256 denominator) internal pure returns (uint256 result) {... */\n    tag_82:\n      swap4\n      swap3\n      pop\n      pop\n      pop\n      jump\t// out\n\n    auxdata: 0xa2646970667358221220fe80c552fd55334b39d086d9f8344f17cff447e88f8039c97c5994652a94f37564736f6c63430007060033\n}\n",
				"bytecode": {
					"linkReferences": {},
					"object": "608060405234801561001057600080fd5b50610c73806100206000396000f3fe608060405234801561001057600080fd5b50600436106100415760003560e01c806311ea544114610046578063802036f51461007a578063f29d0040146100df575b600080fd5b61004e610137565b604051808273ffffffffffffffffffffffffffffffffffffffff16815260200191505060405180910390f35b6100bc6004803603602081101561009057600080fd5b81019080803573ffffffffffffffffffffffffffffffffffffffff16906020019092919050505061015b565b604051808360020b81526020018260020b81526020019250505060405180910390f35b610121600480360360208110156100f557600080fd5b81019080803573ffffffffffffffffffffffffffffffffffffffff1690602001909291905050506102c4565b6040518082815260200191505060405180910390f35b60008054906101000a900473ffffffffffffffffffffffffffffffffffffffff1681565b60008060008373ffffffffffffffffffffffffffffffffffffffff1663d0c93a7c6040518163ffffffff1660e01b815260040160206040518083038186803b1580156101a657600080fd5b505afa1580156101ba573d6000803e3d6000fd5b505050506040513d60208110156101d057600080fd5b8101908080519060200190929190505050905060008473ffffffffffffffffffffffffffffffffffffffff16633850c7bd6040518163ffffffff1660e01b815260040160c06040518083038186803b15801561022b57600080fd5b505afa15801561023f573d6000803e3d6000fd5b505050506040513d60c081101561025557600080fd5b8101908080519060200190929190805190602001909291908051906020019092919080519060200190929190805190602001909291908051906020019092919050505050505050915050818260020b8260020b816102af57fe5b05029050818103935081810192505050915091565b60008073ffffffffffffffffffffffffffffffffffffffff168273ffffffffffffffffffffffffffffffffffffffff161415610368576040517f08c379a00000000000000000000000000000000000000000000000000000000081526004018080602001828103825260148152602001807f496e76616c696420706f6f6c206164647265737300000000000000000000000081525060200191505060405180910390fd5b60008273ffffffffffffffffffffffffffffffffffffffff16630dfe16816040518163ffffffff1660e01b815260040160206040518083038186803b1580156103b057600080fd5b505afa1580156103c4573d6000803e3d6000fd5b505050506040513d60208110156103da57600080fd5b8101908080519060200190929190505050905060008373ffffffffffffffffffffffffffffffffffffffff1663d21220a76040518163ffffffff1660e01b815260040160206040518083038186803b15801561043557600080fd5b505afa158015610449573d6000803e3d6000fd5b505050506040513d602081101561045f57600080fd5b81019080805190602001909291905050509050600073ffffffffffffffffffffffffffffffffffffffff168273ffffffffffffffffffffffffffffffffffffffff16141580156104dc5750600073ffffffffffffffffffffffffffffffffffffffff168173ffffffffffffffffffffffffffffffffffffffff1614155b61054e576040517f08c379a000000000000000000000000000000000000000000000000000000000815260040180806020018281038252600e8152602001807f496e76616c696420746f6b656e7300000000000000000000000000000000000081525060200191505060405180910390fd5b60008273ffffffffffffffffffffffffffffffffffffffff1663313ce5676040518163ffffffff1660e01b815260040160206040518083038186803b15801561059657600080fd5b505afa1580156105aa573d6000803e3d6000fd5b505050506040513d60208110156105c057600080fd5b8101908080519060200190929190505050905060008573ffffffffffffffffffffffffffffffffffffffff16633850c7bd6040518163ffffffff1660e01b815260040160c06040518083038186803b15801561061b57600080fd5b505afa15801561062f573d6000803e3d6000fd5b505050506040513d60c081101561064557600080fd5b8101908080519060200190929190805190602001909291908051906020019092919080519060200190929190805190602001909291908051906020019092919050505050505050915050600061069a82610728565b905060008173ffffffffffffffffffffffffffffffffffffffff16905060006106e082830260017801000000000000000000000000000000000000000000000000610b63565b9050600081116106f1576000610705565b610704670de0b6b3a76400008083610b63565b5b9750600c850160ff16600a0a888161071957fe5b04975050505050505050919050565b60008060008360020b1261073f578260020b610747565b8260020b6000035b90507ffffffffffffffffffffffffffffffffffffffffffffffffffffffffffff2761860000360020b8111156107e5576040517f08c379a00000000000000000000000000000000000000000000000000000000081526004018080602001828103825260018152602001807f540000000000000000000000000000000000000000000000000000000000000081525060200191505060405180910390fd5b6000806001831614156108095770010000000000000000000000000000000061081b565b6ffffcb933bd6fad37aa2d162d1a5940015b70ffffffffffffffffffffffffffffffffff169050600060028316146108555760806ffff97272373d413259a46990580e213a8202901c90505b6000600483161461087a5760806ffff2e50f5f656932ef12357cf3c7fdcc8202901c90505b6000600883161461089f5760806fffe5caca7e10e4e61c3624eaa0941cd08202901c90505b600060108316146108c45760806fffcb9843d60f6159c9db58835c9266448202901c90505b600060208316146108e95760806fff973b41fa98c081472e6896dfb254c08202901c90505b6000604083161461090e5760806fff2ea16466c96a3843ec78b326b528618202901c90505b600060808316146109335760806ffe5dee046a99a2a811c461f1969c30538202901c90505b60006101008316146109595760806ffcbe86c7900a88aedcffc83b479aa3a48202901c90505b600061020083161461097f5760806ff987a7253ac413176f2b074cf7815e548202901c90505b60006104008316146109a55760806ff3392b0822b70005940c7a398e4b70f38202901c90505b60006108008316146109cb5760806fe7159475a2c29b7443b29c7fa6e889d98202901c90505b60006110008316146109f15760806fd097f3bdfd2022b8845ad8f792aa58258202901c90505b6000612000831614610a175760806fa9f746462d870fdf8a65dc1f90e061e58202901c90505b6000614000831614610a3d5760806f70d869a156d2a1b890bb3df62baf32f78202901c90505b6000618000831614610a635760806f31be135f97d08fd981231505542fcfa68202901c90505b600062010000831614610a8a5760806f09aa508b5b7a84e1c677de54f3e99bc98202901c90505b600062020000831614610ab05760806e5d6af8dedb81196699c329225ee6048202901c90505b600062040000831614610ad55760806d2216e584f5fa1ea926041bedfe988202901c90505b600062080000831614610af85760806b048a170391f7dc42444e8fa28202901c90505b60008460020b1315610b3157807fffffffffffffffffffffffffffffffffffffffffffffffffffffffffffffffff81610b2d57fe5b0490505b60006401000000008281610b4157fe5b0614610b4e576001610b51565b60005b60ff16602082901c0192505050919050565b600080600080198587098587029250828110838203039150506000811415610b9e5760008411610b9257600080fd5b83820492505050610c36565b808411610baa57600080fd5b600084868809905082811182039150808303925060008586600003169050808604955080840493506001818260000304019050808302841793506000600287600302189050808702600203810290508087026002038102905080870260020381029050808702600203810290508087026002038102905080870260020381029050808502955050505050505b939250505056fea2646970667358221220fe80c552fd55334b39d086d9f8344f17cff447e88f8039c97c5994652a94f37564736f6c63430007060033",
					"opcodes": "PUSH1 0x80 PUSH1 0x40 MSTORE CALLVALUE DUP1 ISZERO PUSH2 0x10 JUMPI PUSH1 0x0 DUP1 REVERT JUMPDEST POP PUSH2 0xC73 DUP1 PUSH2 0x20 PUSH1 0x0 CODECOPY PUSH1 0x0 RETURN INVALID PUSH1 0x80 PUSH1 0x40 MSTORE CALLVALUE DUP1 ISZERO PUSH2 0x10 JUMPI PUSH1 0x0 DUP1 REVERT JUMPDEST POP PUSH1 0x4 CALLDATASIZE LT PUSH2 0x41 JUMPI PUSH1 0x0 CALLDATALOAD PUSH1 0xE0 SHR DUP1 PUSH4 0x11EA5441 EQ PUSH2 0x46 JUMPI DUP1 PUSH4 0x802036F5 EQ PUSH2 0x7A JUMPI DUP1 PUSH4 0xF29D0040 EQ PUSH2 0xDF JUMPI JUMPDEST PUSH1 0x0 DUP1 REVERT JUMPDEST PUSH2 0x4E PUSH2 0x137 JUMP JUMPDEST PUSH1 0x40 MLOAD DUP1 DUP3 PUSH20 0xFFFFFFFFFFFFFFFFFFFFFFFFFFFFFFFFFFFFFFFF AND DUP2 MSTORE PUSH1 0x20 ADD SWAP2 POP POP PUSH1 0x40 MLOAD DUP1 SWAP2 SUB SWAP1 RETURN JUMPDEST PUSH2 0xBC PUSH1 0x4 DUP1 CALLDATASIZE SUB PUSH1 0x20 DUP2 LT ISZERO PUSH2 0x90 JUMPI PUSH1 0x0 DUP1 REVERT JUMPDEST DUP2 ADD SWAP1 DUP1 DUP1 CALLDATALOAD PUSH20 0xFFFFFFFFFFFFFFFFFFFFFFFFFFFFFFFFFFFFFFFF AND SWAP1 PUSH1 0x20 ADD SWAP1 SWAP3 SWAP2 SWAP1 POP POP POP PUSH2 0x15B JUMP JUMPDEST PUSH1 0x40 MLOAD DUP1 DUP4 PUSH1 0x2 SIGNEXTEND DUP2 MSTORE PUSH1 0x20 ADD DUP3 PUSH1 0x2 SIGNEXTEND DUP2 MSTORE PUSH1 0x20 ADD SWAP3 POP POP POP PUSH1 0x40 MLOAD DUP1 SWAP2 SUB SWAP1 RETURN JUMPDEST PUSH2 0x121 PUSH1 0x4 DUP1 CALLDATASIZE SUB PUSH1 0x20 DUP2 LT ISZERO PUSH2 0xF5 JUMPI PUSH1 0x0 DUP1 REVERT JUMPDEST DUP2 ADD SWAP1 DUP1 DUP1 CALLDATALOAD PUSH20 0xFFFFFFFFFFFFFFFFFFFFFFFFFFFFFFFFFFFFFFFF AND SWAP1 PUSH1 0x20 ADD SWAP1 SWAP3 SWAP2 SWAP1 POP POP POP PUSH2 0x2C4 JUMP JUMPDEST PUSH1 0x40 MLOAD DUP1 DUP3 DUP2 MSTORE PUSH1 0x20 ADD SWAP2 POP POP PUSH1 0x40 MLOAD DUP1 SWAP2 SUB SWAP1 RETURN JUMPDEST PUSH1 0x0 DUP1 SLOAD SWAP1 PUSH2 0x100 EXP SWAP1 DIV PUSH20 0xFFFFFFFFFFFFFFFFFFFFFFFFFFFFFFFFFFFFFFFF AND DUP2 JUMP JUMPDEST PUSH1 0x0 DUP1 PUSH1 0x0 DUP4 PUSH20 0xFFFFFFFFFFFFFFFFFFFFFFFFFFFFFFFFFFFFFFFF AND PUSH4 0xD0C93A7C PUSH1 0x40 MLOAD DUP2 PUSH4 0xFFFFFFFF AND PUSH1 0xE0 SHL DUP2 MSTORE PUSH1 0x4 ADD PUSH1 0x20 PUSH1 0x40 MLOAD DUP1 DUP4 SUB DUP2 DUP7 DUP1 EXTCODESIZE ISZERO DUP1 ISZERO PUSH2 0x1A6 JUMPI PUSH1 0x0 DUP1 REVERT JUMPDEST POP GAS STATICCALL ISZERO DUP1 ISZERO PUSH2 0x1BA JUMPI RETURNDATASIZE PUSH1 0x0 DUP1 RETURNDATACOPY RETURNDATASIZE PUSH1 0x0 REVERT JUMPDEST POP POP POP POP PUSH1 0x40 MLOAD RETURNDATASIZE PUSH1 0x20 DUP2 LT ISZERO PUSH2 0x1D0 JUMPI PUSH1 0x0 DUP1 REVERT JUMPDEST DUP2 ADD SWAP1 DUP1 DUP1 MLOAD SWAP1 PUSH1 0x20 ADD SWAP1 SWAP3 SWAP2 SWAP1 POP POP POP SWAP1 POP PUSH1 0x0 DUP5 PUSH20 0xFFFFFFFFFFFFFFFFFFFFFFFFFFFFFFFFFFFFFFFF AND PUSH4 0x3850C7BD PUSH1 0x40 MLOAD DUP2 PUSH4 0xFFFFFFFF AND PUSH1 0xE0 SHL DUP2 MSTORE PUSH1 0x4 ADD PUSH1 0xC0 PUSH1 0x40 MLOAD DUP1 DUP4 SUB DUP2 DUP7 DUP1 EXTCODESIZE ISZERO DUP1 ISZERO PUSH2 0x22B JUMPI PUSH1 0x0 DUP1 REVERT JUMPDEST POP GAS STATICCALL ISZERO DUP1 ISZERO PUSH2 0x23F JUMPI RETURNDATASIZE PUSH1 0x0 DUP1 RETURNDATACOPY RETURNDATASIZE PUSH1 0x0 REVERT JUMPDEST POP POP POP POP PUSH1 0x40 MLOAD RETURNDATASIZE PUSH1 0xC0 DUP2 LT ISZERO PUSH2 0x255 JUMPI PUSH1 0x0 DUP1 REVERT JUMPDEST DUP2 ADD SWAP1 DUP1 DUP1 MLOAD SWAP1 PUSH1 0x20 ADD SWAP1 SWAP3 SWAP2 SWAP1 DUP1 MLOAD SWAP1 PUSH1 0x20 ADD SWAP1 SWAP3 SWAP2 SWAP1 DUP1 MLOAD SWAP1 PUSH1 0x20 ADD SWAP1 SWAP3 SWAP2 SWAP1 DUP1 MLOAD SWAP1 PUSH1 0x20 ADD SWAP1 SWAP3 SWAP2 SWAP1 DUP1 MLOAD SWAP1 PUSH1 0x20 ADD SWAP1 SWAP3 SWAP2 SWAP1 DUP1 MLOAD SWAP1 PUSH1 0x20 ADD SWAP1 SWAP3 SWAP2 SWAP1 POP POP POP POP POP POP POP SWAP2 POP POP DUP2 DUP3 PUSH1 0x2 SIGNEXTEND DUP3 PUSH1 0x2 SIGNEXTEND DUP2 PUSH2 0x2AF JUMPI INVALID JUMPDEST SDIV MUL SWAP1 POP DUP2 DUP2 SUB SWAP4 POP DUP2 DUP2 ADD SWAP3 POP POP POP SWAP2 POP SWAP2 JUMP JUMPDEST PUSH1 0x0 DUP1 PUSH20 0xFFFFFFFFFFFFFFFFFFFFFFFFFFFFFFFFFFFFFFFF AND DUP3 PUSH20 0xFFFFFFFFFFFFFFFFFFFFFFFFFFFFFFFFFFFFFFFF AND EQ ISZERO PUSH2 0x368 JUMPI PUSH1 0x40 MLOAD PUSH32 0x8C379A000000000000000000000000000000000000000000000000000000000 DUP2 MSTORE PUSH1 0x4 ADD DUP1 DUP1 PUSH1 0x20 ADD DUP3 DUP2 SUB DUP3 MSTORE PUSH1 0x14 DUP2 MSTORE PUSH1 0x20 ADD DUP1 PUSH32 0x496E76616C696420706F6F6C2061646472657373000000000000000000000000 DUP2 MSTORE POP PUSH1 0x20 ADD SWAP2 POP POP PUSH1 0x40 MLOAD DUP1 SWAP2 SUB SWAP1 REVERT JUMPDEST PUSH1 0x0 DUP3 PUSH20 0xFFFFFFFFFFFFFFFFFFFFFFFFFFFFFFFFFFFFFFFF AND PUSH4 0xDFE1681 PUSH1 0x40 MLOAD DUP2 PUSH4 0xFFFFFFFF AND PUSH1 0xE0 SHL DUP2 MSTORE PUSH1 0x4 ADD PUSH1 0x20 PUSH1 0x40 MLOAD DUP1 DUP4 SUB DUP2 DUP7 DUP1 EXTCODESIZE ISZERO DUP1 ISZERO PUSH2 0x3B0 JUMPI PUSH1 0x0 DUP1 REVERT JUMPDEST POP GAS STATICCALL ISZERO DUP1 ISZERO PUSH2 0x3C4 JUMPI RETURNDATASIZE PUSH1 0x0 DUP1 RETURNDATACOPY RETURNDATASIZE PUSH1 0x0 REVERT JUMPDEST POP POP POP POP PUSH1 0x40 MLOAD RETURNDATASIZE PUSH1 0x20 DUP2 LT ISZERO PUSH2 0x3DA JUMPI PUSH1 0x0 DUP1 REVERT JUMPDEST DUP2 ADD SWAP1 DUP1 DUP1 MLOAD SWAP1 PUSH1 0x20 ADD SWAP1 SWAP3 SWAP2 SWAP1 POP POP POP SWAP1 POP PUSH1 0x0 DUP4 PUSH20 0xFFFFFFFFFFFFFFFFFFFFFFFFFFFFFFFFFFFFFFFF AND PUSH4 0xD21220A7 PUSH1 0x40 MLOAD DUP2 PUSH4 0xFFFFFFFF AND PUSH1 0xE0 SHL DUP2 MSTORE PUSH1 0x4 ADD PUSH1 0x20 PUSH1 0x40 MLOAD DUP1 DUP4 SUB DUP2 DUP7 DUP1 EXTCODESIZE ISZERO DUP1 ISZERO PUSH2 0x435 JUMPI PUSH1 0x0 DUP1 REVERT JUMPDEST POP GAS STATICCALL ISZERO DUP1 ISZERO PUSH2 0x449 JUMPI RETURNDATASIZE PUSH1 0x0 DUP1 RETURNDATACOPY RETURNDATASIZE PUSH1 0x0 REVERT JUMPDEST POP POP POP POP PUSH1 0x40 MLOAD RETURNDATASIZE PUSH1 0x20 DUP2 LT ISZERO PUSH2 0x45F JUMPI PUSH1 0x0 DUP1 REVERT JUMPDEST DUP2 ADD SWAP1 DUP1 DUP1 MLOAD SWAP1 PUSH1 0x20 ADD SWAP1 SWAP3 SWAP2 SWAP1 POP POP POP SWAP1 POP PUSH1 0x0 PUSH20 0xFFFFFFFFFFFFFFFFFFFFFFFFFFFFFFFFFFFFFFFF AND DUP3 PUSH20 0xFFFFFFFFFFFFFFFFFFFFFFFFFFFFFFFFFFFFFFFF AND EQ ISZERO DUP1 ISZERO PUSH2 0x4DC JUMPI POP PUSH1 0x0 PUSH20 0xFFFFFFFFFFFFFFFFFFFFFFFFFFFFFFFFFFFFFFFF AND DUP2 PUSH20 0xFFFFFFFFFFFFFFFFFFFFFFFFFFFFFFFFFFFFFFFF AND EQ ISZERO JUMPDEST PUSH2 0x54E JUMPI PUSH1 0x40 MLOAD PUSH32 0x8C379A000000000000000000000000000000000000000000000000000000000 DUP2 MSTORE PUSH1 0x4 ADD DUP1 DUP1 PUSH1 0x20 ADD DUP3 DUP2 SUB DUP3 MSTORE PUSH1 0xE DUP2 MSTORE PUSH1 0x20 ADD DUP1 PUSH32 0x496E76616C696420746F6B656E73000000000000000000000000000000000000 DUP2 MSTORE POP PUSH1 0x20 ADD SWAP2 POP POP PUSH1 0x40 MLOAD DUP1 SWAP2 SUB SWAP1 REVERT JUMPDEST PUSH1 0x0 DUP3 PUSH20 0xFFFFFFFFFFFFFFFFFFFFFFFFFFFFFFFFFFFFFFFF AND PUSH4 0x313CE567 PUSH1 0x40 MLOAD DUP2 PUSH4 0xFFFFFFFF AND PUSH1 0xE0 SHL DUP2 MSTORE PUSH1 0x4 ADD PUSH1 0x20 PUSH1 0x40 MLOAD DUP1 DUP4 SUB DUP2 DUP7 DUP1 EXTCODESIZE ISZERO DUP1 ISZERO PUSH2 0x596 JUMPI PUSH1 0x0 DUP1 REVERT JUMPDEST POP GAS STATICCALL ISZERO DUP1 ISZERO PUSH2 0x5AA JUMPI RETURNDATASIZE PUSH1 0x0 DUP1 RETURNDATACOPY RETURNDATASIZE PUSH1 0x0 REVERT JUMPDEST POP POP POP POP PUSH1 0x40 MLOAD RETURNDATASIZE PUSH1 0x20 DUP2 LT ISZERO PUSH2 0x5C0 JUMPI PUSH1 0x0 DUP1 REVERT JUMPDEST DUP2 ADD SWAP1 DUP1 DUP1 MLOAD SWAP1 PUSH1 0x20 ADD SWAP1 SWAP3 SWAP2 SWAP1 POP POP POP SWAP1 POP PUSH1 0x0 DUP6 PUSH20 0xFFFFFFFFFFFFFFFFFFFFFFFFFFFFFFFFFFFFFFFF AND PUSH4 0x3850C7BD PUSH1 0x40 MLOAD DUP2 PUSH4 0xFFFFFFFF AND PUSH1 0xE0 SHL DUP2 MSTORE PUSH1 0x4 ADD PUSH1 0xC0 PUSH1 0x40 MLOAD DUP1 DUP4 SUB DUP2 DUP7 DUP1 EXTCODESIZE ISZERO DUP1 ISZERO PUSH2 0x61B JUMPI PUSH1 0x0 DUP1 REVERT JUMPDEST POP GAS STATICCALL ISZERO DUP1 ISZERO PUSH2 0x62F JUMPI RETURNDATASIZE PUSH1 0x0 DUP1 RETURNDATACOPY RETURNDATASIZE PUSH1 0x0 REVERT JUMPDEST POP POP POP POP PUSH1 0x40 MLOAD RETURNDATASIZE PUSH1 0xC0 DUP2 LT ISZERO PUSH2 0x645 JUMPI PUSH1 0x0 DUP1 REVERT JUMPDEST DUP2 ADD SWAP1 DUP1 DUP1 MLOAD SWAP1 PUSH1 0x20 ADD SWAP1 SWAP3 SWAP2 SWAP1 DUP1 MLOAD SWAP1 PUSH1 0x20 ADD SWAP1 SWAP3 SWAP2 SWAP1 DUP1 MLOAD SWAP1 PUSH1 0x20 ADD SWAP1 SWAP3 SWAP2 SWAP1 DUP1 MLOAD SWAP1 PUSH1 0x20 ADD SWAP1 SWAP3 SWAP2 SWAP1 DUP1 MLOAD SWAP1 PUSH1 0x20 ADD SWAP1 SWAP3 SWAP2 SWAP1 DUP1 MLOAD SWAP1 PUSH1 0x20 ADD SWAP1 SWAP3 SWAP2 SWAP1 POP POP POP POP POP POP POP SWAP2 POP POP PUSH1 0x0 PUSH2 0x69A DUP3 PUSH2 0x728 JUMP JUMPDEST SWAP1 POP PUSH1 0x0 DUP2 PUSH20 0xFFFFFFFFFFFFFFFFFFFFFFFFFFFFFFFFFFFFFFFF AND SWAP1 POP PUSH1 0x0 PUSH2 0x6E0 DUP3 DUP4 MUL PUSH1 0x1 PUSH25 0x1000000000000000000000000000000000000000000000000 PUSH2 0xB63 JUMP JUMPDEST SWAP1 POP PUSH1 0x0 DUP2 GT PUSH2 0x6F1 JUMPI PUSH1 0x0 PUSH2 0x705 JUMP JUMPDEST PUSH2 0x704 PUSH8 0xDE0B6B3A7640000 DUP1 DUP4 PUSH2 0xB63 JUMP JUMPDEST JUMPDEST SWAP8 POP PUSH1 0xC DUP6 ADD PUSH1 0xFF AND PUSH1 0xA EXP DUP9 DUP2 PUSH2 0x719 JUMPI INVALID JUMPDEST DIV SWAP8 POP POP POP POP POP POP POP POP SWAP2 SWAP1 POP JUMP JUMPDEST PUSH1 0x0 DUP1 PUSH1 0x0 DUP4 PUSH1 0x2 SIGNEXTEND SLT PUSH2 0x73F JUMPI DUP3 PUSH1 0x2 SIGNEXTEND PUSH2 0x747 JUMP JUMPDEST DUP3 PUSH1 0x2 SIGNEXTEND PUSH1 0x0 SUB JUMPDEST SWAP1 POP PUSH32 0xFFFFFFFFFFFFFFFFFFFFFFFFFFFFFFFFFFFFFFFFFFFFFFFFFFFFFFFFFFF27618 PUSH1 0x0 SUB PUSH1 0x2 SIGNEXTEND DUP2 GT ISZERO PUSH2 0x7E5 JUMPI PUSH1 0x40 MLOAD PUSH32 0x8C379A000000000000000000000000000000000000000000000000000000000 DUP2 MSTORE PUSH1 0x4 ADD DUP1 DUP1 PUSH1 0x20 ADD DUP3 DUP2 SUB DUP3 MSTORE PUSH1 0x1 DUP2 MSTORE PUSH1 0x20 ADD DUP1 PUSH32 0x5400000000000000000000000000000000000000000000000000000000000000 DUP2 MSTORE POP PUSH1 0x20 ADD SWAP2 POP POP PUSH1 0x40 MLOAD DUP1 SWAP2 SUB SWAP1 REVERT JUMPDEST PUSH1 0x0 DUP1 PUSH1 0x1 DUP4 AND EQ ISZERO PUSH2 0x809 JUMPI PUSH17 0x100000000000000000000000000000000 PUSH2 0x81B JUMP JUMPDEST PUSH16 0xFFFCB933BD6FAD37AA2D162D1A594001 JUMPDEST PUSH17 0xFFFFFFFFFFFFFFFFFFFFFFFFFFFFFFFFFF AND SWAP1 POP PUSH1 0x0 PUSH1 0x2 DUP4 AND EQ PUSH2 0x855 JUMPI PUSH1 0x80 PUSH16 0xFFF97272373D413259A46990580E213A DUP3 MUL SWAP1 SHR SWAP1 POP JUMPDEST PUSH1 0x0 PUSH1 0x4 DUP4 AND EQ PUSH2 0x87A JUMPI PUSH1 0x80 PUSH16 0xFFF2E50F5F656932EF12357CF3C7FDCC DUP3 MUL SWAP1 SHR SWAP1 POP JUMPDEST PUSH1 0x0 PUSH1 0x8 DUP4 AND EQ PUSH2 0x89F JUMPI PUSH1 0x80 PUSH16 0xFFE5CACA7E10E4E61C3624EAA0941CD0 DUP3 MUL SWAP1 SHR SWAP1 POP JUMPDEST PUSH1 0x0 PUSH1 0x10 DUP4 AND EQ PUSH2 0x8C4 JUMPI PUSH1 0x80 PUSH16 0xFFCB9843D60F6159C9DB58835C926644 DUP3 MUL SWAP1 SHR SWAP1 POP JUMPDEST PUSH1 0x0 PUSH1 0x20 DUP4 AND EQ PUSH2 0x8E9 JUMPI PUSH1 0x80 PUSH16 0xFF973B41FA98C081472E6896DFB254C0 DUP3 MUL SWAP1 SHR SWAP1 POP JUMPDEST PUSH1 0x0 PUSH1 0x40 DUP4 AND EQ PUSH2 0x90E JUMPI PUSH1 0x80 PUSH16 0xFF2EA16466C96A3843EC78B326B52861 DUP3 MUL SWAP1 SHR SWAP1 POP JUMPDEST PUSH1 0x0 PUSH1 0x80 DUP4 AND EQ PUSH2 0x933 JUMPI PUSH1 0x80 PUSH16 0xFE5DEE046A99A2A811C461F1969C3053 DUP3 MUL SWAP1 SHR SWAP1 POP JUMPDEST PUSH1 0x0 PUSH2 0x100 DUP4 AND EQ PUSH2 0x959 JUMPI PUSH1 0x80 PUSH16 0xFCBE86C7900A88AEDCFFC83B479AA3A4 DUP3 MUL SWAP1 SHR SWAP1 POP JUMPDEST PUSH1 0x0 PUSH2 0x200 DUP4 AND EQ PUSH2 0x97F JUMPI PUSH1 0x80 PUSH16 0xF987A7253AC413176F2B074CF7815E54 DUP3 MUL SWAP1 SHR SWAP1 POP JUMPDEST PUSH1 0x0 PUSH2 0x400 DUP4 AND EQ PUSH2 0x9A5 JUMPI PUSH1 0x80 PUSH16 0xF3392B0822B70005940C7A398E4B70F3 DUP3 MUL SWAP1 SHR SWAP1 POP JUMPDEST PUSH1 0x0 PUSH2 0x800 DUP4 AND EQ PUSH2 0x9CB JUMPI PUSH1 0x80 PUSH16 0xE7159475A2C29B7443B29C7FA6E889D9 DUP3 MUL SWAP1 SHR SWAP1 POP JUMPDEST PUSH1 0x0 PUSH2 0x1000 DUP4 AND EQ PUSH2 0x9F1 JUMPI PUSH1 0x80 PUSH16 0xD097F3BDFD2022B8845AD8F792AA5825 DUP3 MUL SWAP1 SHR SWAP1 POP JUMPDEST PUSH1 0x0 PUSH2 0x2000 DUP4 AND EQ PUSH2 0xA17 JUMPI PUSH1 0x80 PUSH16 0xA9F746462D870FDF8A65DC1F90E061E5 DUP3 MUL SWAP1 SHR SWAP1 POP JUMPDEST PUSH1 0x0 PUSH2 0x4000 DUP4 AND EQ PUSH2 0xA3D JUMPI PUSH1 0x80 PUSH16 0x70D869A156D2A1B890BB3DF62BAF32F7 DUP3 MUL SWAP1 SHR SWAP1 POP JUMPDEST PUSH1 0x0 PUSH2 0x8000 DUP4 AND EQ PUSH2 0xA63 JUMPI PUSH1 0x80 PUSH16 0x31BE135F97D08FD981231505542FCFA6 DUP3 MUL SWAP1 SHR SWAP1 POP JUMPDEST PUSH1 0x0 PUSH3 0x10000 DUP4 AND EQ PUSH2 0xA8A JUMPI PUSH1 0x80 PUSH16 0x9AA508B5B7A84E1C677DE54F3E99BC9 DUP3 MUL SWAP1 SHR SWAP1 POP JUMPDEST PUSH1 0x0 PUSH3 0x20000 DUP4 AND EQ PUSH2 0xAB0 JUMPI PUSH1 0x80 PUSH15 0x5D6AF8DEDB81196699C329225EE604 DUP3 MUL SWAP1 SHR SWAP1 POP JUMPDEST PUSH1 0x0 PUSH3 0x40000 DUP4 AND EQ PUSH2 0xAD5 JUMPI PUSH1 0x80 PUSH14 0x2216E584F5FA1EA926041BEDFE98 DUP3 MUL SWAP1 SHR SWAP1 POP JUMPDEST PUSH1 0x0 PUSH3 0x80000 DUP4 AND EQ PUSH2 0xAF8 JUMPI PUSH1 0x80 PUSH12 0x48A170391F7DC42444E8FA2 DUP3 MUL SWAP1 SHR SWAP1 POP JUMPDEST PUSH1 0x0 DUP5 PUSH1 0x2 SIGNEXTEND SGT ISZERO PUSH2 0xB31 JUMPI DUP1 PUSH32 0xFFFFFFFFFFFFFFFFFFFFFFFFFFFFFFFFFFFFFFFFFFFFFFFFFFFFFFFFFFFFFFFF DUP2 PUSH2 0xB2D JUMPI INVALID JUMPDEST DIV SWAP1 POP JUMPDEST PUSH1 0x0 PUSH5 0x100000000 DUP3 DUP2 PUSH2 0xB41 JUMPI INVALID JUMPDEST MOD EQ PUSH2 0xB4E JUMPI PUSH1 0x1 PUSH2 0xB51 JUMP JUMPDEST PUSH1 0x0 JUMPDEST PUSH1 0xFF AND PUSH1 0x20 DUP3 SWAP1 SHR ADD SWAP3 POP POP POP SWAP2 SWAP1 POP JUMP JUMPDEST PUSH1 0x0 DUP1 PUSH1 0x0 DUP1 NOT DUP6 DUP8 MULMOD DUP6 DUP8 MUL SWAP3 POP DUP3 DUP2 LT DUP4 DUP3 SUB SUB SWAP2 POP POP PUSH1 0x0 DUP2 EQ ISZERO PUSH2 0xB9E JUMPI PUSH1 0x0 DUP5 GT PUSH2 0xB92 JUMPI PUSH1 0x0 DUP1 REVERT JUMPDEST DUP4 DUP3 DIV SWAP3 POP POP POP PUSH2 0xC36 JUMP JUMPDEST DUP1 DUP5 GT PUSH2 0xBAA JUMPI PUSH1 0x0 DUP1 REVERT JUMPDEST PUSH1 0x0 DUP5 DUP7 DUP9 MULMOD SWAP1 POP DUP3 DUP2 GT DUP3 SUB SWAP2 POP DUP1 DUP4 SUB SWAP3 POP PUSH1 0x0 DUP6 DUP7 PUSH1 0x0 SUB AND SWAP1 POP DUP1 DUP7 DIV SWAP6 POP DUP1 DUP5 DIV SWAP4 POP PUSH1 0x1 DUP2 DUP3 PUSH1 0x0 SUB DIV ADD SWAP1 POP DUP1 DUP4 MUL DUP5 OR SWAP4 POP PUSH1 0x0 PUSH1 0x2 DUP8 PUSH1 0x3 MUL XOR SWAP1 POP DUP1 DUP8 MUL PUSH1 0x2 SUB DUP2 MUL SWAP1 POP DUP1 DUP8 MUL PUSH1 0x2 SUB DUP2 MUL SWAP1 POP DUP1 DUP8 MUL PUSH1 0x2 SUB DUP2 MUL SWAP1 POP DUP1 DUP8 MUL PUSH1 0x2 SUB DUP2 MUL SWAP1 POP DUP1 DUP8 MUL PUSH1 0x2 SUB DUP2 MUL SWAP1 POP DUP1 DUP8 MUL PUSH1 0x2 SUB DUP2 MUL SWAP1 POP DUP1 DUP6 MUL SWAP6 POP POP POP POP POP POP JUMPDEST SWAP4 SWAP3 POP POP POP JUMP INVALID LOG2 PUSH5 0x6970667358 0x22 SLT KECCAK256 INVALID DUP1 0xC5 MSTORE REVERT SSTORE CALLER 0x4B CODECOPY 0xD0 DUP7 0xD9 0xF8 CALLVALUE 0x4F OR 0xCF DELEGATECALL SELFBALANCE 0xE8 DUP16 DUP1 CODECOPY 0xC9 PUSH29 0x5994652A94F37564736F6C634300070600330000000000000000000000 "
				},
				"gasEstimates": {
					"creation": {
						"codeDepositCost": "637400",
						"executionCost": "670",
						"totalCost": "638070"
					},
					"external": {
						"GetPrice(address)": "infinite",
						"V3Pool()": "1022",
						"getTicks(address)": "infinite"
					},
					"internal": {
						"getAmount0ForLiquidity(uint160,uint160,uint128)": "infinite",
						"getAmount1ForLiquidity(uint160,uint160,uint128)": "infinite"
					}
				},
				"methodIdentifiers": {
					"GetPrice(address)": "f29d0040",
					"V3Pool()": "11ea5441",
					"getTicks(address)": "802036f5"
				}
			},
			"storageLayout": {
				"storage": [
					{
						"astId": 418,
						"contract": "contracts/core/VeloOracle.sol:VeloOracle",
						"label": "V3Pool",
						"offset": 0,
						"slot": "0",
						"type": "t_contract(ICLPoolDerivedState)1026"
					}
				],
				"types": {
					"t_contract(ICLPoolDerivedState)1026": {
						"encoding": "inplace",
						"label": "contract ICLPoolDerivedState",
						"numberOfBytes": "20"
					}
				}
			},
			"userdoc": {
				"kind": "user",
				"methods": {},
				"version": 1
			}
		}
	}
}