{
	"contracts/core/veloex.sol": {
		"LiquidityCalculator": {
			"abi": [
				{
					"inputs": [
						{
							"internalType": "address",
							"name": "_pool",
							"type": "address"
						}
					],
					"stateMutability": "nonpayable",
					"type": "constructor"
				},
				{
					"inputs": [
						{
							"internalType": "uint256",
							"name": "usdAmount",
							"type": "uint256"
						}
					],
					"name": "getLiquidityForAmounts",
					"outputs": [
						{
							"internalType": "uint256",
							"name": "amount0",
							"type": "uint256"
						},
						{
							"internalType": "uint256",
							"name": "amount1",
							"type": "uint256"
						}
					],
					"stateMutability": "view",
					"type": "function"
				},
				{
					"inputs": [],
					"name": "getTicks",
					"outputs": [
						{
							"internalType": "int24",
							"name": "lowTick",
							"type": "int24"
						},
						{
							"internalType": "int24",
							"name": "highTick",
							"type": "int24"
						}
					],
					"stateMutability": "view",
					"type": "function"
				},
				{
					"inputs": [],
					"name": "pool",
					"outputs": [
						{
							"internalType": "contract ICLPool",
							"name": "",
							"type": "address"
						}
					],
					"stateMutability": "view",
					"type": "function"
				}
			],
			"devdoc": {
				"kind": "dev",
				"methods": {},
				"version": 1
			},
			"evm": {
				"assembly": "    /* \"contracts/core/veloex.sol\":948:4568  contract LiquidityCalculator {\r... */\n  mstore(0x40, 0xa0)\n    /* \"contracts/core/veloex.sol\":1065:1132  constructor(address _pool) {\r... */\n  callvalue\n  dup1\n  iszero\n  tag_1\n  jumpi\n  0x00\n  dup1\n  revert\ntag_1:\n  pop\n  mload(0x40)\n  sub(codesize, bytecodeSize)\n  dup1\n  bytecodeSize\n  dup4\n  codecopy\n  dup2\n  dup2\n  add\n  0x40\n  mstore\n  dup2\n  add\n  swap1\n  tag_2\n  swap2\n  swap1\n  tag_3\n  jump\t// in\ntag_2:\n    /* \"contracts/core/veloex.sol\":1118:1123  _pool */\n  dup1\n    /* \"contracts/core/veloex.sol\":1103:1124  pool = ICLPool(_pool) */\n  0xffffffffffffffffffffffffffffffffffffffff\n  and\n  0x80\n  dup2\n  0xffffffffffffffffffffffffffffffffffffffff\n  and\n  0x60\n  shl\n  dup2\n  mstore\n  pop\n  pop\n    /* \"contracts/core/veloex.sol\":1065:1132  constructor(address _pool) {\r... */\n  pop\n    /* \"contracts/core/veloex.sol\":948:4568  contract LiquidityCalculator {\r... */\n  jump(tag_6)\n    /* \"#utility.yul\":7:150   */\ntag_8:\n  0x00\n    /* \"#utility.yul\":95:101   */\n  dup2\n    /* \"#utility.yul\":89:102   */\n  mload\n    /* \"#utility.yul\":80:102   */\n  swap1\n  pop\n    /* \"#utility.yul\":111:144   */\n  tag_10\n    /* \"#utility.yul\":138:143   */\n  dup2\n    /* \"#utility.yul\":111:144   */\n  tag_11\n  jump\t// in\ntag_10:\n    /* \"#utility.yul\":70:150   */\n  swap3\n  swap2\n  pop\n  pop\n  jump\t// out\n    /* \"#utility.yul\":156:440   */\ntag_3:\n  0x00\n    /* \"#utility.yul\":275:277   */\n  0x20\n    /* \"#utility.yul\":263:272   */\n  dup3\n    /* \"#utility.yul\":254:261   */\n  dup5\n    /* \"#utility.yul\":250:273   */\n  sub\n    /* \"#utility.yul\":246:278   */\n  slt\n    /* \"#utility.yul\":243:245   */\n  iszero\n  tag_13\n  jumpi\n    /* \"#utility.yul\":291:292   */\n  0x00\n    /* \"#utility.yul\":288:289   */\n  dup1\n    /* \"#utility.yul\":281:293   */\n  revert\n    /* \"#utility.yul\":243:245   */\ntag_13:\n    /* \"#utility.yul\":334:335   */\n  0x00\n    /* \"#utility.yul\":359:423   */\n  tag_14\n    /* \"#utility.yul\":415:422   */\n  dup5\n    /* \"#utility.yul\":406:412   */\n  dup3\n    /* \"#utility.yul\":395:404   */\n  dup6\n    /* \"#utility.yul\":391:413   */\n  add\n    /* \"#utility.yul\":359:423   */\n  tag_8\n  jump\t// in\ntag_14:\n    /* \"#utility.yul\":349:423   */\n  swap2\n  pop\n    /* \"#utility.yul\":305:433   */\n  pop\n    /* \"#utility.yul\":233:440   */\n  swap3\n  swap2\n  pop\n  pop\n  jump\t// out\n    /* \"#utility.yul\":446:542   */\ntag_15:\n  0x00\n    /* \"#utility.yul\":512:536   */\n  tag_17\n    /* \"#utility.yul\":530:535   */\n  dup3\n    /* \"#utility.yul\":512:536   */\n  tag_18\n  jump\t// in\ntag_17:\n    /* \"#utility.yul\":501:536   */\n  swap1\n  pop\n    /* \"#utility.yul\":491:542   */\n  swap2\n  swap1\n  pop\n  jump\t// out\n    /* \"#utility.yul\":548:674   */\ntag_18:\n  0x00\n    /* \"#utility.yul\":625:667   */\n  0xffffffffffffffffffffffffffffffffffffffff\n    /* \"#utility.yul\":618:623   */\n  dup3\n    /* \"#utility.yul\":614:668   */\n  and\n    /* \"#utility.yul\":603:668   */\n  swap1\n  pop\n    /* \"#utility.yul\":593:674   */\n  swap2\n  swap1\n  pop\n  jump\t// out\n    /* \"#utility.yul\":680:802   */\ntag_11:\n    /* \"#utility.yul\":753:777   */\n  tag_21\n    /* \"#utility.yul\":771:776   */\n  dup2\n    /* \"#utility.yul\":753:777   */\n  tag_15\n  jump\t// in\ntag_21:\n    /* \"#utility.yul\":746:751   */\n  dup2\n    /* \"#utility.yul\":743:778   */\n  eq\n    /* \"#utility.yul\":733:735   */\n  tag_22\n  jumpi\n    /* \"#utility.yul\":792:793   */\n  0x00\n    /* \"#utility.yul\":789:790   */\n  dup1\n    /* \"#utility.yul\":782:794   */\n  revert\n    /* \"#utility.yul\":733:735   */\ntag_22:\n    /* \"#utility.yul\":723:802   */\n  pop\n  jump\t// out\n    /* \"contracts/core/veloex.sol\":948:4568  contract LiquidityCalculator {\r... */\ntag_6:\n  shr(0x60, mload(0x80))\n  codecopy(0x00, dataOffset(sub_0), dataSize(sub_0))\n  assignImmutable(\"0x364e9b08a14858b89b3a439c4e8189e12066b190e8b525df358f5de0c25c218a\")\n  return(0x00, dataSize(sub_0))\nstop\n\nsub_0: assembly {\n        /* \"contracts/core/veloex.sol\":948:4568  contract LiquidityCalculator {\r... */\n      mstore(0x40, 0x80)\n      callvalue\n      dup1\n      iszero\n      tag_1\n      jumpi\n      0x00\n      dup1\n      revert\n    tag_1:\n      pop\n      jumpi(tag_2, lt(calldatasize, 0x04))\n      shr(0xe0, calldataload(0x00))\n      dup1\n      0x16f0115b\n      eq\n      tag_3\n      jumpi\n      dup1\n      0x3d1c387b\n      eq\n      tag_4\n      jumpi\n      dup1\n      0x55912288\n      eq\n      tag_5\n      jumpi\n    tag_2:\n      0x00\n      dup1\n      revert\n        /* \"contracts/core/veloex.sol\":1027:1056  ICLPool public immutable pool */\n    tag_3:\n      tag_6\n      tag_7\n      jump\t// in\n    tag_6:\n      mload(0x40)\n      tag_8\n      swap2\n      swap1\n      tag_9\n      jump\t// in\n    tag_8:\n      mload(0x40)\n      dup1\n      swap2\n      sub\n      swap1\n      return\n        /* \"contracts/core/veloex.sol\":1142:1553  function getTicks () public view returns (int24 lowTick, int24 highTick){\r... */\n    tag_4:\n      tag_10\n      tag_11\n      jump\t// in\n    tag_10:\n      mload(0x40)\n      tag_12\n      swap3\n      swap2\n      swap1\n      tag_13\n      jump\t// in\n    tag_12:\n      mload(0x40)\n      dup1\n      swap2\n      sub\n      swap1\n      return\n        /* \"contracts/core/veloex.sol\":1634:3354  function getLiquidityForAmounts(\r... */\n    tag_5:\n      tag_14\n      0x04\n      dup1\n      calldatasize\n      sub\n      dup2\n      add\n      swap1\n      tag_15\n      swap2\n      swap1\n      tag_16\n      jump\t// in\n    tag_15:\n      tag_17\n      jump\t// in\n    tag_14:\n      mload(0x40)\n      tag_18\n      swap3\n      swap2\n      swap1\n      tag_19\n      jump\t// in\n    tag_18:\n      mload(0x40)\n      dup1\n      swap2\n      sub\n      swap1\n      return\n        /* \"contracts/core/veloex.sol\":1027:1056  ICLPool public immutable pool */\n    tag_7:\n      immutable(\"0x364e9b08a14858b89b3a439c4e8189e12066b190e8b525df358f5de0c25c218a\")\n      dup2\n      jump\t// out\n        /* \"contracts/core/veloex.sol\":1142:1553  function getTicks () public view returns (int24 lowTick, int24 highTick){\r... */\n    tag_11:\n        /* \"contracts/core/veloex.sol\":1184:1197  int24 lowTick */\n      0x00\n        /* \"contracts/core/veloex.sol\":1199:1213  int24 highTick */\n      dup1\n        /* \"contracts/core/veloex.sol\":1225:1242  int24 tickSpacing */\n      0x00\n        /* \"contracts/core/veloex.sol\":1262:1266  pool */\n      immutable(\"0x364e9b08a14858b89b3a439c4e8189e12066b190e8b525df358f5de0c25c218a\")\n        /* \"contracts/core/veloex.sol\":1245:1279  ICLPoolConstants(pool).tickSpacing */\n      0xffffffffffffffffffffffffffffffffffffffff\n      and\n      0xd0c93a7c\n        /* \"contracts/core/veloex.sol\":1245:1281  ICLPoolConstants(pool).tickSpacing() */\n      mload(0x40)\n      dup2\n      0xffffffff\n      and\n      0xe0\n      shl\n      dup2\n      mstore\n      0x04\n      add\n      0x20\n      mload(0x40)\n      dup1\n      dup4\n      sub\n      dup2\n      dup7\n      dup1\n      extcodesize\n      iszero\n      dup1\n      iszero\n      tag_21\n      jumpi\n      0x00\n      dup1\n      revert\n    tag_21:\n      pop\n      gas\n      staticcall\n      iszero\n      dup1\n      iszero\n      tag_23\n      jumpi\n      returndatasize\n      0x00\n      dup1\n      returndatacopy\n      revert(0x00, returndatasize)\n    tag_23:\n      pop\n      pop\n      pop\n      pop\n      mload(0x40)\n      returndatasize\n      not(0x1f)\n      0x1f\n      dup3\n      add\n      and\n      dup3\n      add\n      dup1\n      0x40\n      mstore\n      pop\n      dup2\n      add\n      swap1\n      tag_24\n      swap2\n      swap1\n      tag_25\n      jump\t// in\n    tag_24:\n        /* \"contracts/core/veloex.sol\":1225:1281  int24 tickSpacing = ICLPoolConstants(pool).tickSpacing() */\n      swap1\n      pop\n        /* \"contracts/core/veloex.sol\":1295:1312  int24 currentTick */\n      0x00\n        /* \"contracts/core/veloex.sol\":1332:1336  pool */\n      immutable(\"0x364e9b08a14858b89b3a439c4e8189e12066b190e8b525df358f5de0c25c218a\")\n        /* \"contracts/core/veloex.sol\":1324:1343  ICLPool(pool).slot0 */\n      0xffffffffffffffffffffffffffffffffffffffff\n      and\n      0x3850c7bd\n        /* \"contracts/core/veloex.sol\":1324:1345  ICLPool(pool).slot0() */\n      mload(0x40)\n      dup2\n      0xffffffff\n      and\n      0xe0\n      shl\n      dup2\n      mstore\n      0x04\n      add\n      0xc0\n      mload(0x40)\n      dup1\n      dup4\n      sub\n      dup2\n      dup7\n      dup1\n      extcodesize\n      iszero\n      dup1\n      iszero\n      tag_26\n      jumpi\n      0x00\n      dup1\n      revert\n    tag_26:\n      pop\n      gas\n      staticcall\n      iszero\n      dup1\n      iszero\n      tag_28\n      jumpi\n      returndatasize\n      0x00\n      dup1\n      returndatacopy\n      revert(0x00, returndatasize)\n    tag_28:\n      pop\n      pop\n      pop\n      pop\n      mload(0x40)\n      returndatasize\n      not(0x1f)\n      0x1f\n      dup3\n      add\n      and\n      dup3\n      add\n      dup1\n      0x40\n      mstore\n      pop\n      dup2\n      add\n      swap1\n      tag_29\n      swap2\n      swap1\n      tag_30\n      jump\t// in\n    tag_29:\n        /* \"contracts/core/veloex.sol\":1292:1345  (, int24 currentTick, , , , ) = ICLPool(pool).slot0() */\n      pop\n      pop\n      pop\n      pop\n      swap2\n      pop\n      pop\n        /* \"contracts/core/veloex.sol\":1400:1411  tickSpacing */\n      dup2\n        /* \"contracts/core/veloex.sol\":1385:1396  tickSpacing */\n      dup3\n        /* \"contracts/core/veloex.sol\":1371:1396  currentTick / tickSpacing */\n      0x02\n      signextend\n        /* \"contracts/core/veloex.sol\":1371:1382  currentTick */\n      dup3\n        /* \"contracts/core/veloex.sol\":1371:1396  currentTick / tickSpacing */\n      0x02\n      signextend\n      dup2\n      tag_31\n      jumpi\n      invalid\n    tag_31:\n      sdiv\n        /* \"contracts/core/veloex.sol\":1370:1411  (currentTick / tickSpacing) * tickSpacing */\n      mul\n        /* \"contracts/core/veloex.sol\":1356:1411  currentTick = (currentTick / tickSpacing) * tickSpacing */\n      swap1\n      pop\n        /* \"contracts/core/veloex.sol\":1446:1457  tickSpacing */\n      dup2\n        /* \"contracts/core/veloex.sol\":1432:1443  currentTick */\n      dup2\n        /* \"contracts/core/veloex.sol\":1432:1457  currentTick - tickSpacing */\n      sub\n        /* \"contracts/core/veloex.sol\":1422:1457  lowTick = currentTick - tickSpacing */\n      swap4\n      pop\n        /* \"contracts/core/veloex.sol\":1493:1504  tickSpacing */\n      dup2\n        /* \"contracts/core/veloex.sol\":1479:1490  currentTick */\n      dup2\n        /* \"contracts/core/veloex.sol\":1479:1504  currentTick + tickSpacing */\n      add\n        /* \"contracts/core/veloex.sol\":1468:1504  highTick = currentTick + tickSpacing */\n      swap3\n      pop\n        /* \"contracts/core/veloex.sol\":1515:1541  return (lowTick, highTick) */\n      pop\n      pop\n        /* \"contracts/core/veloex.sol\":1142:1553  function getTicks () public view returns (int24 lowTick, int24 highTick){\r... */\n      swap1\n      swap2\n      jump\t// out\n        /* \"contracts/core/veloex.sol\":1634:3354  function getLiquidityForAmounts(\r... */\n    tag_17:\n        /* \"contracts/core/veloex.sol\":1781:1793  uint amount0 */\n      0x00\n        /* \"contracts/core/veloex.sol\":1795:1807  uint amount1 */\n      dup1\n        /* \"contracts/core/veloex.sol\":1831:1846  int24 tickLower */\n      0x00\n        /* \"contracts/core/veloex.sol\":1847:1862  int24 tickUpper */\n      dup1\n        /* \"contracts/core/veloex.sol\":1866:1876  getTicks() */\n      tag_33\n        /* \"contracts/core/veloex.sol\":1866:1874  getTicks */\n      tag_11\n        /* \"contracts/core/veloex.sol\":1866:1876  getTicks() */\n      jump\t// in\n    tag_33:\n        /* \"contracts/core/veloex.sol\":1830:1876  (int24 tickLower,int24 tickUpper) = getTicks() */\n      swap2\n      pop\n      swap2\n      pop\n        /* \"contracts/core/veloex.sol\":1934:1956  uint160 sqrtPriceLower */\n      0x00\n        /* \"contracts/core/veloex.sol\":1959:1997  TickMath.getSqrtRatioAtTick(tickLower) */\n      tag_34\n        /* \"contracts/core/veloex.sol\":1987:1996  tickLower */\n      dup4\n        /* \"contracts/core/veloex.sol\":1959:1986  TickMath.getSqrtRatioAtTick */\n      tag_35\n        /* \"contracts/core/veloex.sol\":1959:1997  TickMath.getSqrtRatioAtTick(tickLower) */\n      jump\t// in\n    tag_34:\n        /* \"contracts/core/veloex.sol\":1934:1997  uint160 sqrtPriceLower = TickMath.getSqrtRatioAtTick(tickLower) */\n      swap1\n      pop\n        /* \"contracts/core/veloex.sol\":2008:2030  uint160 sqrtPriceUpper */\n      0x00\n        /* \"contracts/core/veloex.sol\":2033:2071  TickMath.getSqrtRatioAtTick(tickUpper) */\n      tag_36\n        /* \"contracts/core/veloex.sol\":2061:2070  tickUpper */\n      dup4\n        /* \"contracts/core/veloex.sol\":2033:2060  TickMath.getSqrtRatioAtTick */\n      tag_35\n        /* \"contracts/core/veloex.sol\":2033:2071  TickMath.getSqrtRatioAtTick(tickUpper) */\n      jump\t// in\n    tag_36:\n        /* \"contracts/core/veloex.sol\":2008:2071  uint160 sqrtPriceUpper = TickMath.getSqrtRatioAtTick(tickUpper) */\n      swap1\n      pop\n        /* \"contracts/core/veloex.sol\":2177:2202  uint256 deltaInvSqrtPrice */\n      0x00\n        /* \"contracts/core/veloex.sol\":2330:2376  FullMath.mulDiv(1e18, 1 << 96, sqrtPriceUpper) */\n      tag_37\n        /* \"contracts/core/veloex.sol\":2346:2350  1e18 */\n      0x0de0b6b3a7640000\n        /* \"contracts/core/veloex.sol\":2352:2359  1 << 96 */\n      0x01000000000000000000000000\n        /* \"contracts/core/veloex.sol\":2361:2375  sqrtPriceUpper */\n      dup5\n        /* \"contracts/core/veloex.sol\":2330:2376  FullMath.mulDiv(1e18, 1 << 96, sqrtPriceUpper) */\n      0xffffffffffffffffffffffffffffffffffffffff\n      and\n        /* \"contracts/core/veloex.sol\":2330:2345  FullMath.mulDiv */\n      tag_38\n        /* \"contracts/core/veloex.sol\":2330:2376  FullMath.mulDiv(1e18, 1 << 96, sqrtPriceUpper) */\n      jump\t// in\n    tag_37:\n        /* \"contracts/core/veloex.sol\":2248:2294  FullMath.mulDiv(1e18, 1 << 96, sqrtPriceLower) */\n      tag_39\n        /* \"contracts/core/veloex.sol\":2264:2268  1e18 */\n      0x0de0b6b3a7640000\n        /* \"contracts/core/veloex.sol\":2270:2277  1 << 96 */\n      0x01000000000000000000000000\n        /* \"contracts/core/veloex.sol\":2279:2293  sqrtPriceLower */\n      dup7\n        /* \"contracts/core/veloex.sol\":2248:2294  FullMath.mulDiv(1e18, 1 << 96, sqrtPriceLower) */\n      0xffffffffffffffffffffffffffffffffffffffff\n      and\n        /* \"contracts/core/veloex.sol\":2248:2263  FullMath.mulDiv */\n      tag_38\n        /* \"contracts/core/veloex.sol\":2248:2294  FullMath.mulDiv(1e18, 1 << 96, sqrtPriceLower) */\n      jump\t// in\n    tag_39:\n        /* \"contracts/core/veloex.sol\":2248:2376  FullMath.mulDiv(1e18, 1 << 96, sqrtPriceLower) -\r... */\n      sub\n        /* \"contracts/core/veloex.sol\":2228:2376  deltaInvSqrtPrice = FullMath.mulDiv(1e18, 1 << 96, sqrtPriceLower) -\r... */\n      swap1\n      pop\n        /* \"contracts/core/veloex.sol\":2445:2467  uint256 deltaSqrtPrice */\n      0x00\n        /* \"contracts/core/veloex.sol\":2504:2518  sqrtPriceLower */\n      dup4\n        /* \"contracts/core/veloex.sol\":2496:2519  uint256(sqrtPriceLower) */\n      0xffffffffffffffffffffffffffffffffffffffff\n      and\n        /* \"contracts/core/veloex.sol\":2478:2492  sqrtPriceUpper */\n      dup4\n        /* \"contracts/core/veloex.sol\":2470:2493  uint256(sqrtPriceUpper) */\n      0xffffffffffffffffffffffffffffffffffffffff\n      and\n        /* \"contracts/core/veloex.sol\":2470:2519  uint256(sqrtPriceUpper) - uint256(sqrtPriceLower) */\n      sub\n        /* \"contracts/core/veloex.sol\":2445:2519  uint256 deltaSqrtPrice = uint256(sqrtPriceUpper) - uint256(sqrtPriceLower) */\n      swap1\n      pop\n        /* \"contracts/core/veloex.sol\":2999:3018  uint256 denominator */\n      0x00\n        /* \"contracts/core/veloex.sol\":3041:3087  FullMath.mulDiv(deltaSqrtPrice, 1e12, 1 << 96) */\n      tag_40\n        /* \"contracts/core/veloex.sol\":3057:3071  deltaSqrtPrice */\n      dup3\n        /* \"contracts/core/veloex.sol\":3073:3077  1e12 */\n      0xe8d4a51000\n        /* \"contracts/core/veloex.sol\":3079:3086  1 << 96 */\n      0x01000000000000000000000000\n        /* \"contracts/core/veloex.sol\":3041:3056  FullMath.mulDiv */\n      tag_38\n        /* \"contracts/core/veloex.sol\":3041:3087  FullMath.mulDiv(deltaSqrtPrice, 1e12, 1 << 96) */\n      jump\t// in\n    tag_40:\n        /* \"contracts/core/veloex.sol\":3021:3038  deltaInvSqrtPrice */\n      dup4\n        /* \"contracts/core/veloex.sol\":3021:3087  deltaInvSqrtPrice + FullMath.mulDiv(deltaSqrtPrice, 1e12, 1 << 96) */\n      add\n        /* \"contracts/core/veloex.sol\":2999:3087  uint256 denominator = deltaInvSqrtPrice + FullMath.mulDiv(deltaSqrtPrice, 1e12, 1 << 96) */\n      swap1\n      pop\n        /* \"contracts/core/veloex.sol\":3098:3115  uint128 liquidity */\n      0x00\n        /* \"contracts/core/veloex.sol\":3126:3171  FullMath.mulDiv(usdAmount, 1e18, denominator) */\n      tag_41\n        /* \"contracts/core/veloex.sol\":3142:3151  usdAmount */\n      dup12\n        /* \"contracts/core/veloex.sol\":3153:3157  1e18 */\n      0x0de0b6b3a7640000\n        /* \"contracts/core/veloex.sol\":3159:3170  denominator */\n      dup5\n        /* \"contracts/core/veloex.sol\":3126:3141  FullMath.mulDiv */\n      tag_38\n        /* \"contracts/core/veloex.sol\":3126:3171  FullMath.mulDiv(usdAmount, 1e18, denominator) */\n      jump\t// in\n    tag_41:\n        /* \"contracts/core/veloex.sol\":3098:3172  uint128 liquidity = uint128(FullMath.mulDiv(usdAmount, 1e18, denominator)) */\n      swap1\n      pop\n        /* \"contracts/core/veloex.sol\":3195:3260  getAmount0ForLiquidity(sqrtPriceLower, sqrtPriceUpper, liquidity) */\n      tag_42\n        /* \"contracts/core/veloex.sol\":3218:3232  sqrtPriceLower */\n      dup7\n        /* \"contracts/core/veloex.sol\":3234:3248  sqrtPriceUpper */\n      dup7\n        /* \"contracts/core/veloex.sol\":3250:3259  liquidity */\n      dup4\n        /* \"contracts/core/veloex.sol\":3195:3217  getAmount0ForLiquidity */\n      tag_43\n        /* \"contracts/core/veloex.sol\":3195:3260  getAmount0ForLiquidity(sqrtPriceLower, sqrtPriceUpper, liquidity) */\n      jump\t// in\n    tag_42:\n        /* \"contracts/core/veloex.sol\":3185:3260  amount0 = getAmount0ForLiquidity(sqrtPriceLower, sqrtPriceUpper, liquidity) */\n      swap10\n      pop\n        /* \"contracts/core/veloex.sol\":3281:3346  getAmount1ForLiquidity(sqrtPriceLower, sqrtPriceUpper, liquidity) */\n      tag_44\n        /* \"contracts/core/veloex.sol\":3304:3318  sqrtPriceLower */\n      dup7\n        /* \"contracts/core/veloex.sol\":3320:3334  sqrtPriceUpper */\n      dup7\n        /* \"contracts/core/veloex.sol\":3336:3345  liquidity */\n      dup4\n        /* \"contracts/core/veloex.sol\":3281:3303  getAmount1ForLiquidity */\n      tag_45\n        /* \"contracts/core/veloex.sol\":3281:3346  getAmount1ForLiquidity(sqrtPriceLower, sqrtPriceUpper, liquidity) */\n      jump\t// in\n    tag_44:\n        /* \"contracts/core/veloex.sol\":3271:3346  amount1 = getAmount1ForLiquidity(sqrtPriceLower, sqrtPriceUpper, liquidity) */\n      swap9\n      pop\n        /* \"contracts/core/veloex.sol\":1634:3354  function getLiquidityForAmounts(\r... */\n      pop\n      pop\n      pop\n      pop\n      pop\n      pop\n      pop\n      pop\n      swap2\n      pop\n      swap2\n      jump\t// out\n        /* \"contracts/core/libraries/TickMath.sol\":1362:3942  function getSqrtRatioAtTick(int24 tick) internal pure returns (uint160 sqrtPriceX96) {... */\n    tag_35:\n        /* \"contracts/core/libraries/TickMath.sol\":1425:1445  uint160 sqrtPriceX96 */\n      0x00\n        /* \"contracts/core/libraries/TickMath.sol\":1457:1472  uint256 absTick */\n      dup1\n        /* \"contracts/core/libraries/TickMath.sol\":1482:1483  0 */\n      0x00\n        /* \"contracts/core/libraries/TickMath.sol\":1475:1479  tick */\n      dup4\n        /* \"contracts/core/libraries/TickMath.sol\":1475:1483  tick < 0 */\n      0x02\n      signextend\n      slt\n        /* \"contracts/core/libraries/TickMath.sol\":1475:1532  tick < 0 ? uint256(-int256(tick)) : uint256(int256(tick)) */\n      tag_47\n      jumpi\n        /* \"contracts/core/libraries/TickMath.sol\":1526:1530  tick */\n      dup3\n        /* \"contracts/core/libraries/TickMath.sol\":1519:1531  int256(tick) */\n      0x02\n      signextend\n        /* \"contracts/core/libraries/TickMath.sol\":1475:1532  tick < 0 ? uint256(-int256(tick)) : uint256(int256(tick)) */\n      jump(tag_48)\n    tag_47:\n        /* \"contracts/core/libraries/TickMath.sol\":1502:1506  tick */\n      dup3\n        /* \"contracts/core/libraries/TickMath.sol\":1495:1507  int256(tick) */\n      0x02\n      signextend\n        /* \"contracts/core/libraries/TickMath.sol\":1494:1507  -int256(tick) */\n      0x00\n      sub\n        /* \"contracts/core/libraries/TickMath.sol\":1475:1532  tick < 0 ? uint256(-int256(tick)) : uint256(int256(tick)) */\n    tag_48:\n        /* \"contracts/core/libraries/TickMath.sol\":1457:1532  uint256 absTick = tick < 0 ? uint256(-int256(tick)) : uint256(int256(tick)) */\n      swap1\n      pop\n        /* \"contracts/core/libraries/TickMath.sol\":484:491  -887272 */\n      0xfffffffffffffffffffffffffffffffffffffffffffffffffffffffffff27618\n        /* \"contracts/core/libraries/TickMath.sol\":644:653  -MIN_TICK */\n      0x00\n      sub\n        /* \"contracts/core/libraries/TickMath.sol\":1561:1578  uint256(MAX_TICK) */\n      0x02\n      signextend\n        /* \"contracts/core/libraries/TickMath.sol\":1550:1557  absTick */\n      dup2\n        /* \"contracts/core/libraries/TickMath.sol\":1550:1578  absTick <= uint256(MAX_TICK) */\n      gt\n      iszero\n        /* \"contracts/core/libraries/TickMath.sol\":1542:1584  require(absTick <= uint256(MAX_TICK), \"T\") */\n      tag_49\n      jumpi\n      mload(0x40)\n      0x08c379a000000000000000000000000000000000000000000000000000000000\n      dup2\n      mstore\n      0x04\n      add\n      dup1\n      dup1\n      0x20\n      add\n      dup3\n      dup2\n      sub\n      dup3\n      mstore\n      0x01\n      dup2\n      mstore\n      0x20\n      add\n      dup1\n      0x5400000000000000000000000000000000000000000000000000000000000000\n      dup2\n      mstore\n      pop\n      0x20\n      add\n      swap2\n      pop\n      pop\n      mload(0x40)\n      dup1\n      swap2\n      sub\n      swap1\n      revert\n    tag_49:\n        /* \"contracts/core/libraries/TickMath.sol\":1595:1608  uint256 ratio */\n      0x00\n        /* \"contracts/core/libraries/TickMath.sol\":1628:1629  0 */\n      dup1\n        /* \"contracts/core/libraries/TickMath.sol\":1621:1624  0x1 */\n      0x01\n        /* \"contracts/core/libraries/TickMath.sol\":1611:1618  absTick */\n      dup4\n        /* \"contracts/core/libraries/TickMath.sol\":1611:1624  absTick & 0x1 */\n      and\n        /* \"contracts/core/libraries/TickMath.sol\":1611:1629  absTick & 0x1 != 0 */\n      eq\n      iszero\n        /* \"contracts/core/libraries/TickMath.sol\":1611:1704  absTick & 0x1 != 0 ? 0xfffcb933bd6fad37aa2d162d1a594001 : 0x100000000000000000000000000000000 */\n      tag_50\n      jumpi\n        /* \"contracts/core/libraries/TickMath.sol\":1669:1704  0x100000000000000000000000000000000 */\n      0x0100000000000000000000000000000000\n        /* \"contracts/core/libraries/TickMath.sol\":1611:1704  absTick & 0x1 != 0 ? 0xfffcb933bd6fad37aa2d162d1a594001 : 0x100000000000000000000000000000000 */\n      jump(tag_51)\n    tag_50:\n        /* \"contracts/core/libraries/TickMath.sol\":1632:1666  0xfffcb933bd6fad37aa2d162d1a594001 */\n      0xfffcb933bd6fad37aa2d162d1a594001\n        /* \"contracts/core/libraries/TickMath.sol\":1611:1704  absTick & 0x1 != 0 ? 0xfffcb933bd6fad37aa2d162d1a594001 : 0x100000000000000000000000000000000 */\n    tag_51:\n        /* \"contracts/core/libraries/TickMath.sol\":1595:1704  uint256 ratio = absTick & 0x1 != 0 ? 0xfffcb933bd6fad37aa2d162d1a594001 : 0x100000000000000000000000000000000 */\n      0xffffffffffffffffffffffffffffffffff\n      and\n      swap1\n      pop\n        /* \"contracts/core/libraries/TickMath.sol\":1735:1736  0 */\n      0x00\n        /* \"contracts/core/libraries/TickMath.sol\":1728:1731  0x2 */\n      0x02\n        /* \"contracts/core/libraries/TickMath.sol\":1718:1725  absTick */\n      dup4\n        /* \"contracts/core/libraries/TickMath.sol\":1718:1731  absTick & 0x2 */\n      and\n        /* \"contracts/core/libraries/TickMath.sol\":1718:1736  absTick & 0x2 != 0 */\n      eq\n        /* \"contracts/core/libraries/TickMath.sol\":1714:1797  if (absTick & 0x2 != 0) ratio = (ratio * 0xfff97272373d413259a46990580e213a) >> 128 */\n      tag_52\n      jumpi\n        /* \"contracts/core/libraries/TickMath.sol\":1794:1797  128 */\n      0x80\n        /* \"contracts/core/libraries/TickMath.sol\":1755:1789  0xfff97272373d413259a46990580e213a */\n      0xfff97272373d413259a46990580e213a\n        /* \"contracts/core/libraries/TickMath.sol\":1747:1752  ratio */\n      dup3\n        /* \"contracts/core/libraries/TickMath.sol\":1747:1789  ratio * 0xfff97272373d413259a46990580e213a */\n      mul\n        /* \"contracts/core/libraries/TickMath.sol\":1746:1797  (ratio * 0xfff97272373d413259a46990580e213a) >> 128 */\n      swap1\n      shr\n        /* \"contracts/core/libraries/TickMath.sol\":1738:1797  ratio = (ratio * 0xfff97272373d413259a46990580e213a) >> 128 */\n      swap1\n      pop\n        /* \"contracts/core/libraries/TickMath.sol\":1714:1797  if (absTick & 0x2 != 0) ratio = (ratio * 0xfff97272373d413259a46990580e213a) >> 128 */\n    tag_52:\n        /* \"contracts/core/libraries/TickMath.sol\":1828:1829  0 */\n      0x00\n        /* \"contracts/core/libraries/TickMath.sol\":1821:1824  0x4 */\n      0x04\n        /* \"contracts/core/libraries/TickMath.sol\":1811:1818  absTick */\n      dup4\n        /* \"contracts/core/libraries/TickMath.sol\":1811:1824  absTick & 0x4 */\n      and\n        /* \"contracts/core/libraries/TickMath.sol\":1811:1829  absTick & 0x4 != 0 */\n      eq\n        /* \"contracts/core/libraries/TickMath.sol\":1807:1890  if (absTick & 0x4 != 0) ratio = (ratio * 0xfff2e50f5f656932ef12357cf3c7fdcc) >> 128 */\n      tag_53\n      jumpi\n        /* \"contracts/core/libraries/TickMath.sol\":1887:1890  128 */\n      0x80\n        /* \"contracts/core/libraries/TickMath.sol\":1848:1882  0xfff2e50f5f656932ef12357cf3c7fdcc */\n      0xfff2e50f5f656932ef12357cf3c7fdcc\n        /* \"contracts/core/libraries/TickMath.sol\":1840:1845  ratio */\n      dup3\n        /* \"contracts/core/libraries/TickMath.sol\":1840:1882  ratio * 0xfff2e50f5f656932ef12357cf3c7fdcc */\n      mul\n        /* \"contracts/core/libraries/TickMath.sol\":1839:1890  (ratio * 0xfff2e50f5f656932ef12357cf3c7fdcc) >> 128 */\n      swap1\n      shr\n        /* \"contracts/core/libraries/TickMath.sol\":1831:1890  ratio = (ratio * 0xfff2e50f5f656932ef12357cf3c7fdcc) >> 128 */\n      swap1\n      pop\n        /* \"contracts/core/libraries/TickMath.sol\":1807:1890  if (absTick & 0x4 != 0) ratio = (ratio * 0xfff2e50f5f656932ef12357cf3c7fdcc) >> 128 */\n    tag_53:\n        /* \"contracts/core/libraries/TickMath.sol\":1921:1922  0 */\n      0x00\n        /* \"contracts/core/libraries/TickMath.sol\":1914:1917  0x8 */\n      0x08\n        /* \"contracts/core/libraries/TickMath.sol\":1904:1911  absTick */\n      dup4\n        /* \"contracts/core/libraries/TickMath.sol\":1904:1917  absTick & 0x8 */\n      and\n        /* \"contracts/core/libraries/TickMath.sol\":1904:1922  absTick & 0x8 != 0 */\n      eq\n        /* \"contracts/core/libraries/TickMath.sol\":1900:1983  if (absTick & 0x8 != 0) ratio = (ratio * 0xffe5caca7e10e4e61c3624eaa0941cd0) >> 128 */\n      tag_54\n      jumpi\n        /* \"contracts/core/libraries/TickMath.sol\":1980:1983  128 */\n      0x80\n        /* \"contracts/core/libraries/TickMath.sol\":1941:1975  0xffe5caca7e10e4e61c3624eaa0941cd0 */\n      0xffe5caca7e10e4e61c3624eaa0941cd0\n        /* \"contracts/core/libraries/TickMath.sol\":1933:1938  ratio */\n      dup3\n        /* \"contracts/core/libraries/TickMath.sol\":1933:1975  ratio * 0xffe5caca7e10e4e61c3624eaa0941cd0 */\n      mul\n        /* \"contracts/core/libraries/TickMath.sol\":1932:1983  (ratio * 0xffe5caca7e10e4e61c3624eaa0941cd0) >> 128 */\n      swap1\n      shr\n        /* \"contracts/core/libraries/TickMath.sol\":1924:1983  ratio = (ratio * 0xffe5caca7e10e4e61c3624eaa0941cd0) >> 128 */\n      swap1\n      pop\n        /* \"contracts/core/libraries/TickMath.sol\":1900:1983  if (absTick & 0x8 != 0) ratio = (ratio * 0xffe5caca7e10e4e61c3624eaa0941cd0) >> 128 */\n    tag_54:\n        /* \"contracts/core/libraries/TickMath.sol\":2015:2016  0 */\n      0x00\n        /* \"contracts/core/libraries/TickMath.sol\":2007:2011  0x10 */\n      0x10\n        /* \"contracts/core/libraries/TickMath.sol\":1997:2004  absTick */\n      dup4\n        /* \"contracts/core/libraries/TickMath.sol\":1997:2011  absTick & 0x10 */\n      and\n        /* \"contracts/core/libraries/TickMath.sol\":1997:2016  absTick & 0x10 != 0 */\n      eq\n        /* \"contracts/core/libraries/TickMath.sol\":1993:2077  if (absTick & 0x10 != 0) ratio = (ratio * 0xffcb9843d60f6159c9db58835c926644) >> 128 */\n      tag_55\n      jumpi\n        /* \"contracts/core/libraries/TickMath.sol\":2074:2077  128 */\n      0x80\n        /* \"contracts/core/libraries/TickMath.sol\":2035:2069  0xffcb9843d60f6159c9db58835c926644 */\n      0xffcb9843d60f6159c9db58835c926644\n        /* \"contracts/core/libraries/TickMath.sol\":2027:2032  ratio */\n      dup3\n        /* \"contracts/core/libraries/TickMath.sol\":2027:2069  ratio * 0xffcb9843d60f6159c9db58835c926644 */\n      mul\n        /* \"contracts/core/libraries/TickMath.sol\":2026:2077  (ratio * 0xffcb9843d60f6159c9db58835c926644) >> 128 */\n      swap1\n      shr\n        /* \"contracts/core/libraries/TickMath.sol\":2018:2077  ratio = (ratio * 0xffcb9843d60f6159c9db58835c926644) >> 128 */\n      swap1\n      pop\n        /* \"contracts/core/libraries/TickMath.sol\":1993:2077  if (absTick & 0x10 != 0) ratio = (ratio * 0xffcb9843d60f6159c9db58835c926644) >> 128 */\n    tag_55:\n        /* \"contracts/core/libraries/TickMath.sol\":2109:2110  0 */\n      0x00\n        /* \"contracts/core/libraries/TickMath.sol\":2101:2105  0x20 */\n      0x20\n        /* \"contracts/core/libraries/TickMath.sol\":2091:2098  absTick */\n      dup4\n        /* \"contracts/core/libraries/TickMath.sol\":2091:2105  absTick & 0x20 */\n      and\n        /* \"contracts/core/libraries/TickMath.sol\":2091:2110  absTick & 0x20 != 0 */\n      eq\n        /* \"contracts/core/libraries/TickMath.sol\":2087:2171  if (absTick & 0x20 != 0) ratio = (ratio * 0xff973b41fa98c081472e6896dfb254c0) >> 128 */\n      tag_56\n      jumpi\n        /* \"contracts/core/libraries/TickMath.sol\":2168:2171  128 */\n      0x80\n        /* \"contracts/core/libraries/TickMath.sol\":2129:2163  0xff973b41fa98c081472e6896dfb254c0 */\n      0xff973b41fa98c081472e6896dfb254c0\n        /* \"contracts/core/libraries/TickMath.sol\":2121:2126  ratio */\n      dup3\n        /* \"contracts/core/libraries/TickMath.sol\":2121:2163  ratio * 0xff973b41fa98c081472e6896dfb254c0 */\n      mul\n        /* \"contracts/core/libraries/TickMath.sol\":2120:2171  (ratio * 0xff973b41fa98c081472e6896dfb254c0) >> 128 */\n      swap1\n      shr\n        /* \"contracts/core/libraries/TickMath.sol\":2112:2171  ratio = (ratio * 0xff973b41fa98c081472e6896dfb254c0) >> 128 */\n      swap1\n      pop\n        /* \"contracts/core/libraries/TickMath.sol\":2087:2171  if (absTick & 0x20 != 0) ratio = (ratio * 0xff973b41fa98c081472e6896dfb254c0) >> 128 */\n    tag_56:\n        /* \"contracts/core/libraries/TickMath.sol\":2203:2204  0 */\n      0x00\n        /* \"contracts/core/libraries/TickMath.sol\":2195:2199  0x40 */\n      0x40\n        /* \"contracts/core/libraries/TickMath.sol\":2185:2192  absTick */\n      dup4\n        /* \"contracts/core/libraries/TickMath.sol\":2185:2199  absTick & 0x40 */\n      and\n        /* \"contracts/core/libraries/TickMath.sol\":2185:2204  absTick & 0x40 != 0 */\n      eq\n        /* \"contracts/core/libraries/TickMath.sol\":2181:2265  if (absTick & 0x40 != 0) ratio = (ratio * 0xff2ea16466c96a3843ec78b326b52861) >> 128 */\n      tag_57\n      jumpi\n        /* \"contracts/core/libraries/TickMath.sol\":2262:2265  128 */\n      0x80\n        /* \"contracts/core/libraries/TickMath.sol\":2223:2257  0xff2ea16466c96a3843ec78b326b52861 */\n      0xff2ea16466c96a3843ec78b326b52861\n        /* \"contracts/core/libraries/TickMath.sol\":2215:2220  ratio */\n      dup3\n        /* \"contracts/core/libraries/TickMath.sol\":2215:2257  ratio * 0xff2ea16466c96a3843ec78b326b52861 */\n      mul\n        /* \"contracts/core/libraries/TickMath.sol\":2214:2265  (ratio * 0xff2ea16466c96a3843ec78b326b52861) >> 128 */\n      swap1\n      shr\n        /* \"contracts/core/libraries/TickMath.sol\":2206:2265  ratio = (ratio * 0xff2ea16466c96a3843ec78b326b52861) >> 128 */\n      swap1\n      pop\n        /* \"contracts/core/libraries/TickMath.sol\":2181:2265  if (absTick & 0x40 != 0) ratio = (ratio * 0xff2ea16466c96a3843ec78b326b52861) >> 128 */\n    tag_57:\n        /* \"contracts/core/libraries/TickMath.sol\":2297:2298  0 */\n      0x00\n        /* \"contracts/core/libraries/TickMath.sol\":2289:2293  0x80 */\n      0x80\n        /* \"contracts/core/libraries/TickMath.sol\":2279:2286  absTick */\n      dup4\n        /* \"contracts/core/libraries/TickMath.sol\":2279:2293  absTick & 0x80 */\n      and\n        /* \"contracts/core/libraries/TickMath.sol\":2279:2298  absTick & 0x80 != 0 */\n      eq\n        /* \"contracts/core/libraries/TickMath.sol\":2275:2359  if (absTick & 0x80 != 0) ratio = (ratio * 0xfe5dee046a99a2a811c461f1969c3053) >> 128 */\n      tag_58\n      jumpi\n        /* \"contracts/core/libraries/TickMath.sol\":2356:2359  128 */\n      0x80\n        /* \"contracts/core/libraries/TickMath.sol\":2317:2351  0xfe5dee046a99a2a811c461f1969c3053 */\n      0xfe5dee046a99a2a811c461f1969c3053\n        /* \"contracts/core/libraries/TickMath.sol\":2309:2314  ratio */\n      dup3\n        /* \"contracts/core/libraries/TickMath.sol\":2309:2351  ratio * 0xfe5dee046a99a2a811c461f1969c3053 */\n      mul\n        /* \"contracts/core/libraries/TickMath.sol\":2308:2359  (ratio * 0xfe5dee046a99a2a811c461f1969c3053) >> 128 */\n      swap1\n      shr\n        /* \"contracts/core/libraries/TickMath.sol\":2300:2359  ratio = (ratio * 0xfe5dee046a99a2a811c461f1969c3053) >> 128 */\n      swap1\n      pop\n        /* \"contracts/core/libraries/TickMath.sol\":2275:2359  if (absTick & 0x80 != 0) ratio = (ratio * 0xfe5dee046a99a2a811c461f1969c3053) >> 128 */\n    tag_58:\n        /* \"contracts/core/libraries/TickMath.sol\":2392:2393  0 */\n      0x00\n        /* \"contracts/core/libraries/TickMath.sol\":2383:2388  0x100 */\n      0x0100\n        /* \"contracts/core/libraries/TickMath.sol\":2373:2380  absTick */\n      dup4\n        /* \"contracts/core/libraries/TickMath.sol\":2373:2388  absTick & 0x100 */\n      and\n        /* \"contracts/core/libraries/TickMath.sol\":2373:2393  absTick & 0x100 != 0 */\n      eq\n        /* \"contracts/core/libraries/TickMath.sol\":2369:2454  if (absTick & 0x100 != 0) ratio = (ratio * 0xfcbe86c7900a88aedcffc83b479aa3a4) >> 128 */\n      tag_59\n      jumpi\n        /* \"contracts/core/libraries/TickMath.sol\":2451:2454  128 */\n      0x80\n        /* \"contracts/core/libraries/TickMath.sol\":2412:2446  0xfcbe86c7900a88aedcffc83b479aa3a4 */\n      0xfcbe86c7900a88aedcffc83b479aa3a4\n        /* \"contracts/core/libraries/TickMath.sol\":2404:2409  ratio */\n      dup3\n        /* \"contracts/core/libraries/TickMath.sol\":2404:2446  ratio * 0xfcbe86c7900a88aedcffc83b479aa3a4 */\n      mul\n        /* \"contracts/core/libraries/TickMath.sol\":2403:2454  (ratio * 0xfcbe86c7900a88aedcffc83b479aa3a4) >> 128 */\n      swap1\n      shr\n        /* \"contracts/core/libraries/TickMath.sol\":2395:2454  ratio = (ratio * 0xfcbe86c7900a88aedcffc83b479aa3a4) >> 128 */\n      swap1\n      pop\n        /* \"contracts/core/libraries/TickMath.sol\":2369:2454  if (absTick & 0x100 != 0) ratio = (ratio * 0xfcbe86c7900a88aedcffc83b479aa3a4) >> 128 */\n    tag_59:\n        /* \"contracts/core/libraries/TickMath.sol\":2487:2488  0 */\n      0x00\n        /* \"contracts/core/libraries/TickMath.sol\":2478:2483  0x200 */\n      0x0200\n        /* \"contracts/core/libraries/TickMath.sol\":2468:2475  absTick */\n      dup4\n        /* \"contracts/core/libraries/TickMath.sol\":2468:2483  absTick & 0x200 */\n      and\n        /* \"contracts/core/libraries/TickMath.sol\":2468:2488  absTick & 0x200 != 0 */\n      eq\n        /* \"contracts/core/libraries/TickMath.sol\":2464:2549  if (absTick & 0x200 != 0) ratio = (ratio * 0xf987a7253ac413176f2b074cf7815e54) >> 128 */\n      tag_60\n      jumpi\n        /* \"contracts/core/libraries/TickMath.sol\":2546:2549  128 */\n      0x80\n        /* \"contracts/core/libraries/TickMath.sol\":2507:2541  0xf987a7253ac413176f2b074cf7815e54 */\n      0xf987a7253ac413176f2b074cf7815e54\n        /* \"contracts/core/libraries/TickMath.sol\":2499:2504  ratio */\n      dup3\n        /* \"contracts/core/libraries/TickMath.sol\":2499:2541  ratio * 0xf987a7253ac413176f2b074cf7815e54 */\n      mul\n        /* \"contracts/core/libraries/TickMath.sol\":2498:2549  (ratio * 0xf987a7253ac413176f2b074cf7815e54) >> 128 */\n      swap1\n      shr\n        /* \"contracts/core/libraries/TickMath.sol\":2490:2549  ratio = (ratio * 0xf987a7253ac413176f2b074cf7815e54) >> 128 */\n      swap1\n      pop\n        /* \"contracts/core/libraries/TickMath.sol\":2464:2549  if (absTick & 0x200 != 0) ratio = (ratio * 0xf987a7253ac413176f2b074cf7815e54) >> 128 */\n    tag_60:\n        /* \"contracts/core/libraries/TickMath.sol\":2582:2583  0 */\n      0x00\n        /* \"contracts/core/libraries/TickMath.sol\":2573:2578  0x400 */\n      0x0400\n        /* \"contracts/core/libraries/TickMath.sol\":2563:2570  absTick */\n      dup4\n        /* \"contracts/core/libraries/TickMath.sol\":2563:2578  absTick & 0x400 */\n      and\n        /* \"contracts/core/libraries/TickMath.sol\":2563:2583  absTick & 0x400 != 0 */\n      eq\n        /* \"contracts/core/libraries/TickMath.sol\":2559:2644  if (absTick & 0x400 != 0) ratio = (ratio * 0xf3392b0822b70005940c7a398e4b70f3) >> 128 */\n      tag_61\n      jumpi\n        /* \"contracts/core/libraries/TickMath.sol\":2641:2644  128 */\n      0x80\n        /* \"contracts/core/libraries/TickMath.sol\":2602:2636  0xf3392b0822b70005940c7a398e4b70f3 */\n      0xf3392b0822b70005940c7a398e4b70f3\n        /* \"contracts/core/libraries/TickMath.sol\":2594:2599  ratio */\n      dup3\n        /* \"contracts/core/libraries/TickMath.sol\":2594:2636  ratio * 0xf3392b0822b70005940c7a398e4b70f3 */\n      mul\n        /* \"contracts/core/libraries/TickMath.sol\":2593:2644  (ratio * 0xf3392b0822b70005940c7a398e4b70f3) >> 128 */\n      swap1\n      shr\n        /* \"contracts/core/libraries/TickMath.sol\":2585:2644  ratio = (ratio * 0xf3392b0822b70005940c7a398e4b70f3) >> 128 */\n      swap1\n      pop\n        /* \"contracts/core/libraries/TickMath.sol\":2559:2644  if (absTick & 0x400 != 0) ratio = (ratio * 0xf3392b0822b70005940c7a398e4b70f3) >> 128 */\n    tag_61:\n        /* \"contracts/core/libraries/TickMath.sol\":2677:2678  0 */\n      0x00\n        /* \"contracts/core/libraries/TickMath.sol\":2668:2673  0x800 */\n      0x0800\n        /* \"contracts/core/libraries/TickMath.sol\":2658:2665  absTick */\n      dup4\n        /* \"contracts/core/libraries/TickMath.sol\":2658:2673  absTick & 0x800 */\n      and\n        /* \"contracts/core/libraries/TickMath.sol\":2658:2678  absTick & 0x800 != 0 */\n      eq\n        /* \"contracts/core/libraries/TickMath.sol\":2654:2739  if (absTick & 0x800 != 0) ratio = (ratio * 0xe7159475a2c29b7443b29c7fa6e889d9) >> 128 */\n      tag_62\n      jumpi\n        /* \"contracts/core/libraries/TickMath.sol\":2736:2739  128 */\n      0x80\n        /* \"contracts/core/libraries/TickMath.sol\":2697:2731  0xe7159475a2c29b7443b29c7fa6e889d9 */\n      0xe7159475a2c29b7443b29c7fa6e889d9\n        /* \"contracts/core/libraries/TickMath.sol\":2689:2694  ratio */\n      dup3\n        /* \"contracts/core/libraries/TickMath.sol\":2689:2731  ratio * 0xe7159475a2c29b7443b29c7fa6e889d9 */\n      mul\n        /* \"contracts/core/libraries/TickMath.sol\":2688:2739  (ratio * 0xe7159475a2c29b7443b29c7fa6e889d9) >> 128 */\n      swap1\n      shr\n        /* \"contracts/core/libraries/TickMath.sol\":2680:2739  ratio = (ratio * 0xe7159475a2c29b7443b29c7fa6e889d9) >> 128 */\n      swap1\n      pop\n        /* \"contracts/core/libraries/TickMath.sol\":2654:2739  if (absTick & 0x800 != 0) ratio = (ratio * 0xe7159475a2c29b7443b29c7fa6e889d9) >> 128 */\n    tag_62:\n        /* \"contracts/core/libraries/TickMath.sol\":2773:2774  0 */\n      0x00\n        /* \"contracts/core/libraries/TickMath.sol\":2763:2769  0x1000 */\n      0x1000\n        /* \"contracts/core/libraries/TickMath.sol\":2753:2760  absTick */\n      dup4\n        /* \"contracts/core/libraries/TickMath.sol\":2753:2769  absTick & 0x1000 */\n      and\n        /* \"contracts/core/libraries/TickMath.sol\":2753:2774  absTick & 0x1000 != 0 */\n      eq\n        /* \"contracts/core/libraries/TickMath.sol\":2749:2835  if (absTick & 0x1000 != 0) ratio = (ratio * 0xd097f3bdfd2022b8845ad8f792aa5825) >> 128 */\n      tag_63\n      jumpi\n        /* \"contracts/core/libraries/TickMath.sol\":2832:2835  128 */\n      0x80\n        /* \"contracts/core/libraries/TickMath.sol\":2793:2827  0xd097f3bdfd2022b8845ad8f792aa5825 */\n      0xd097f3bdfd2022b8845ad8f792aa5825\n        /* \"contracts/core/libraries/TickMath.sol\":2785:2790  ratio */\n      dup3\n        /* \"contracts/core/libraries/TickMath.sol\":2785:2827  ratio * 0xd097f3bdfd2022b8845ad8f792aa5825 */\n      mul\n        /* \"contracts/core/libraries/TickMath.sol\":2784:2835  (ratio * 0xd097f3bdfd2022b8845ad8f792aa5825) >> 128 */\n      swap1\n      shr\n        /* \"contracts/core/libraries/TickMath.sol\":2776:2835  ratio = (ratio * 0xd097f3bdfd2022b8845ad8f792aa5825) >> 128 */\n      swap1\n      pop\n        /* \"contracts/core/libraries/TickMath.sol\":2749:2835  if (absTick & 0x1000 != 0) ratio = (ratio * 0xd097f3bdfd2022b8845ad8f792aa5825) >> 128 */\n    tag_63:\n        /* \"contracts/core/libraries/TickMath.sol\":2869:2870  0 */\n      0x00\n        /* \"contracts/core/libraries/TickMath.sol\":2859:2865  0x2000 */\n      0x2000\n        /* \"contracts/core/libraries/TickMath.sol\":2849:2856  absTick */\n      dup4\n        /* \"contracts/core/libraries/TickMath.sol\":2849:2865  absTick & 0x2000 */\n      and\n        /* \"contracts/core/libraries/TickMath.sol\":2849:2870  absTick & 0x2000 != 0 */\n      eq\n        /* \"contracts/core/libraries/TickMath.sol\":2845:2931  if (absTick & 0x2000 != 0) ratio = (ratio * 0xa9f746462d870fdf8a65dc1f90e061e5) >> 128 */\n      tag_64\n      jumpi\n        /* \"contracts/core/libraries/TickMath.sol\":2928:2931  128 */\n      0x80\n        /* \"contracts/core/libraries/TickMath.sol\":2889:2923  0xa9f746462d870fdf8a65dc1f90e061e5 */\n      0xa9f746462d870fdf8a65dc1f90e061e5\n        /* \"contracts/core/libraries/TickMath.sol\":2881:2886  ratio */\n      dup3\n        /* \"contracts/core/libraries/TickMath.sol\":2881:2923  ratio * 0xa9f746462d870fdf8a65dc1f90e061e5 */\n      mul\n        /* \"contracts/core/libraries/TickMath.sol\":2880:2931  (ratio * 0xa9f746462d870fdf8a65dc1f90e061e5) >> 128 */\n      swap1\n      shr\n        /* \"contracts/core/libraries/TickMath.sol\":2872:2931  ratio = (ratio * 0xa9f746462d870fdf8a65dc1f90e061e5) >> 128 */\n      swap1\n      pop\n        /* \"contracts/core/libraries/TickMath.sol\":2845:2931  if (absTick & 0x2000 != 0) ratio = (ratio * 0xa9f746462d870fdf8a65dc1f90e061e5) >> 128 */\n    tag_64:\n        /* \"contracts/core/libraries/TickMath.sol\":2965:2966  0 */\n      0x00\n        /* \"contracts/core/libraries/TickMath.sol\":2955:2961  0x4000 */\n      0x4000\n        /* \"contracts/core/libraries/TickMath.sol\":2945:2952  absTick */\n      dup4\n        /* \"contracts/core/libraries/TickMath.sol\":2945:2961  absTick & 0x4000 */\n      and\n        /* \"contracts/core/libraries/TickMath.sol\":2945:2966  absTick & 0x4000 != 0 */\n      eq\n        /* \"contracts/core/libraries/TickMath.sol\":2941:3027  if (absTick & 0x4000 != 0) ratio = (ratio * 0x70d869a156d2a1b890bb3df62baf32f7) >> 128 */\n      tag_65\n      jumpi\n        /* \"contracts/core/libraries/TickMath.sol\":3024:3027  128 */\n      0x80\n        /* \"contracts/core/libraries/TickMath.sol\":2985:3019  0x70d869a156d2a1b890bb3df62baf32f7 */\n      0x70d869a156d2a1b890bb3df62baf32f7\n        /* \"contracts/core/libraries/TickMath.sol\":2977:2982  ratio */\n      dup3\n        /* \"contracts/core/libraries/TickMath.sol\":2977:3019  ratio * 0x70d869a156d2a1b890bb3df62baf32f7 */\n      mul\n        /* \"contracts/core/libraries/TickMath.sol\":2976:3027  (ratio * 0x70d869a156d2a1b890bb3df62baf32f7) >> 128 */\n      swap1\n      shr\n        /* \"contracts/core/libraries/TickMath.sol\":2968:3027  ratio = (ratio * 0x70d869a156d2a1b890bb3df62baf32f7) >> 128 */\n      swap1\n      pop\n        /* \"contracts/core/libraries/TickMath.sol\":2941:3027  if (absTick & 0x4000 != 0) ratio = (ratio * 0x70d869a156d2a1b890bb3df62baf32f7) >> 128 */\n    tag_65:\n        /* \"contracts/core/libraries/TickMath.sol\":3061:3062  0 */\n      0x00\n        /* \"contracts/core/libraries/TickMath.sol\":3051:3057  0x8000 */\n      0x8000\n        /* \"contracts/core/libraries/TickMath.sol\":3041:3048  absTick */\n      dup4\n        /* \"contracts/core/libraries/TickMath.sol\":3041:3057  absTick & 0x8000 */\n      and\n        /* \"contracts/core/libraries/TickMath.sol\":3041:3062  absTick & 0x8000 != 0 */\n      eq\n        /* \"contracts/core/libraries/TickMath.sol\":3037:3123  if (absTick & 0x8000 != 0) ratio = (ratio * 0x31be135f97d08fd981231505542fcfa6) >> 128 */\n      tag_66\n      jumpi\n        /* \"contracts/core/libraries/TickMath.sol\":3120:3123  128 */\n      0x80\n        /* \"contracts/core/libraries/TickMath.sol\":3081:3115  0x31be135f97d08fd981231505542fcfa6 */\n      0x31be135f97d08fd981231505542fcfa6\n        /* \"contracts/core/libraries/TickMath.sol\":3073:3078  ratio */\n      dup3\n        /* \"contracts/core/libraries/TickMath.sol\":3073:3115  ratio * 0x31be135f97d08fd981231505542fcfa6 */\n      mul\n        /* \"contracts/core/libraries/TickMath.sol\":3072:3123  (ratio * 0x31be135f97d08fd981231505542fcfa6) >> 128 */\n      swap1\n      shr\n        /* \"contracts/core/libraries/TickMath.sol\":3064:3123  ratio = (ratio * 0x31be135f97d08fd981231505542fcfa6) >> 128 */\n      swap1\n      pop\n        /* \"contracts/core/libraries/TickMath.sol\":3037:3123  if (absTick & 0x8000 != 0) ratio = (ratio * 0x31be135f97d08fd981231505542fcfa6) >> 128 */\n    tag_66:\n        /* \"contracts/core/libraries/TickMath.sol\":3158:3159  0 */\n      0x00\n        /* \"contracts/core/libraries/TickMath.sol\":3147:3154  0x10000 */\n      0x010000\n        /* \"contracts/core/libraries/TickMath.sol\":3137:3144  absTick */\n      dup4\n        /* \"contracts/core/libraries/TickMath.sol\":3137:3154  absTick & 0x10000 */\n      and\n        /* \"contracts/core/libraries/TickMath.sol\":3137:3159  absTick & 0x10000 != 0 */\n      eq\n        /* \"contracts/core/libraries/TickMath.sol\":3133:3219  if (absTick & 0x10000 != 0) ratio = (ratio * 0x9aa508b5b7a84e1c677de54f3e99bc9) >> 128 */\n      tag_67\n      jumpi\n        /* \"contracts/core/libraries/TickMath.sol\":3216:3219  128 */\n      0x80\n        /* \"contracts/core/libraries/TickMath.sol\":3178:3211  0x9aa508b5b7a84e1c677de54f3e99bc9 */\n      0x09aa508b5b7a84e1c677de54f3e99bc9\n        /* \"contracts/core/libraries/TickMath.sol\":3170:3175  ratio */\n      dup3\n        /* \"contracts/core/libraries/TickMath.sol\":3170:3211  ratio * 0x9aa508b5b7a84e1c677de54f3e99bc9 */\n      mul\n        /* \"contracts/core/libraries/TickMath.sol\":3169:3219  (ratio * 0x9aa508b5b7a84e1c677de54f3e99bc9) >> 128 */\n      swap1\n      shr\n        /* \"contracts/core/libraries/TickMath.sol\":3161:3219  ratio = (ratio * 0x9aa508b5b7a84e1c677de54f3e99bc9) >> 128 */\n      swap1\n      pop\n        /* \"contracts/core/libraries/TickMath.sol\":3133:3219  if (absTick & 0x10000 != 0) ratio = (ratio * 0x9aa508b5b7a84e1c677de54f3e99bc9) >> 128 */\n    tag_67:\n        /* \"contracts/core/libraries/TickMath.sol\":3254:3255  0 */\n      0x00\n        /* \"contracts/core/libraries/TickMath.sol\":3243:3250  0x20000 */\n      0x020000\n        /* \"contracts/core/libraries/TickMath.sol\":3233:3240  absTick */\n      dup4\n        /* \"contracts/core/libraries/TickMath.sol\":3233:3250  absTick & 0x20000 */\n      and\n        /* \"contracts/core/libraries/TickMath.sol\":3233:3255  absTick & 0x20000 != 0 */\n      eq\n        /* \"contracts/core/libraries/TickMath.sol\":3229:3314  if (absTick & 0x20000 != 0) ratio = (ratio * 0x5d6af8dedb81196699c329225ee604) >> 128 */\n      tag_68\n      jumpi\n        /* \"contracts/core/libraries/TickMath.sol\":3311:3314  128 */\n      0x80\n        /* \"contracts/core/libraries/TickMath.sol\":3274:3306  0x5d6af8dedb81196699c329225ee604 */\n      0x5d6af8dedb81196699c329225ee604\n        /* \"contracts/core/libraries/TickMath.sol\":3266:3271  ratio */\n      dup3\n        /* \"contracts/core/libraries/TickMath.sol\":3266:3306  ratio * 0x5d6af8dedb81196699c329225ee604 */\n      mul\n        /* \"contracts/core/libraries/TickMath.sol\":3265:3314  (ratio * 0x5d6af8dedb81196699c329225ee604) >> 128 */\n      swap1\n      shr\n        /* \"contracts/core/libraries/TickMath.sol\":3257:3314  ratio = (ratio * 0x5d6af8dedb81196699c329225ee604) >> 128 */\n      swap1\n      pop\n        /* \"contracts/core/libraries/TickMath.sol\":3229:3314  if (absTick & 0x20000 != 0) ratio = (ratio * 0x5d6af8dedb81196699c329225ee604) >> 128 */\n    tag_68:\n        /* \"contracts/core/libraries/TickMath.sol\":3349:3350  0 */\n      0x00\n        /* \"contracts/core/libraries/TickMath.sol\":3338:3345  0x40000 */\n      0x040000\n        /* \"contracts/core/libraries/TickMath.sol\":3328:3335  absTick */\n      dup4\n        /* \"contracts/core/libraries/TickMath.sol\":3328:3345  absTick & 0x40000 */\n      and\n        /* \"contracts/core/libraries/TickMath.sol\":3328:3350  absTick & 0x40000 != 0 */\n      eq\n        /* \"contracts/core/libraries/TickMath.sol\":3324:3407  if (absTick & 0x40000 != 0) ratio = (ratio * 0x2216e584f5fa1ea926041bedfe98) >> 128 */\n      tag_69\n      jumpi\n        /* \"contracts/core/libraries/TickMath.sol\":3404:3407  128 */\n      0x80\n        /* \"contracts/core/libraries/TickMath.sol\":3369:3399  0x2216e584f5fa1ea926041bedfe98 */\n      0x2216e584f5fa1ea926041bedfe98\n        /* \"contracts/core/libraries/TickMath.sol\":3361:3366  ratio */\n      dup3\n        /* \"contracts/core/libraries/TickMath.sol\":3361:3399  ratio * 0x2216e584f5fa1ea926041bedfe98 */\n      mul\n        /* \"contracts/core/libraries/TickMath.sol\":3360:3407  (ratio * 0x2216e584f5fa1ea926041bedfe98) >> 128 */\n      swap1\n      shr\n        /* \"contracts/core/libraries/TickMath.sol\":3352:3407  ratio = (ratio * 0x2216e584f5fa1ea926041bedfe98) >> 128 */\n      swap1\n      pop\n        /* \"contracts/core/libraries/TickMath.sol\":3324:3407  if (absTick & 0x40000 != 0) ratio = (ratio * 0x2216e584f5fa1ea926041bedfe98) >> 128 */\n    tag_69:\n        /* \"contracts/core/libraries/TickMath.sol\":3442:3443  0 */\n      0x00\n        /* \"contracts/core/libraries/TickMath.sol\":3431:3438  0x80000 */\n      0x080000\n        /* \"contracts/core/libraries/TickMath.sol\":3421:3428  absTick */\n      dup4\n        /* \"contracts/core/libraries/TickMath.sol\":3421:3438  absTick & 0x80000 */\n      and\n        /* \"contracts/core/libraries/TickMath.sol\":3421:3443  absTick & 0x80000 != 0 */\n      eq\n        /* \"contracts/core/libraries/TickMath.sol\":3417:3495  if (absTick & 0x80000 != 0) ratio = (ratio * 0x48a170391f7dc42444e8fa2) >> 128 */\n      tag_70\n      jumpi\n        /* \"contracts/core/libraries/TickMath.sol\":3492:3495  128 */\n      0x80\n        /* \"contracts/core/libraries/TickMath.sol\":3462:3487  0x48a170391f7dc42444e8fa2 */\n      0x048a170391f7dc42444e8fa2\n        /* \"contracts/core/libraries/TickMath.sol\":3454:3459  ratio */\n      dup3\n        /* \"contracts/core/libraries/TickMath.sol\":3454:3487  ratio * 0x48a170391f7dc42444e8fa2 */\n      mul\n        /* \"contracts/core/libraries/TickMath.sol\":3453:3495  (ratio * 0x48a170391f7dc42444e8fa2) >> 128 */\n      swap1\n      shr\n        /* \"contracts/core/libraries/TickMath.sol\":3445:3495  ratio = (ratio * 0x48a170391f7dc42444e8fa2) >> 128 */\n      swap1\n      pop\n        /* \"contracts/core/libraries/TickMath.sol\":3417:3495  if (absTick & 0x80000 != 0) ratio = (ratio * 0x48a170391f7dc42444e8fa2) >> 128 */\n    tag_70:\n        /* \"contracts/core/libraries/TickMath.sol\":3517:3518  0 */\n      0x00\n        /* \"contracts/core/libraries/TickMath.sol\":3510:3514  tick */\n      dup5\n        /* \"contracts/core/libraries/TickMath.sol\":3510:3518  tick > 0 */\n      0x02\n      signextend\n      sgt\n        /* \"contracts/core/libraries/TickMath.sol\":3506:3553  if (tick > 0) ratio = type(uint256).max / ratio */\n      iszero\n      tag_71\n      jumpi\n        /* \"contracts/core/libraries/TickMath.sol\":3548:3553  ratio */\n      dup1\n        /* \"contracts/core/libraries/TickMath.sol\":3528:3545  type(uint256).max */\n      0xffffffffffffffffffffffffffffffffffffffffffffffffffffffffffffffff\n        /* \"contracts/core/libraries/TickMath.sol\":3528:3553  type(uint256).max / ratio */\n      dup2\n      tag_72\n      jumpi\n      invalid\n    tag_72:\n      div\n        /* \"contracts/core/libraries/TickMath.sol\":3520:3553  ratio = type(uint256).max / ratio */\n      swap1\n      pop\n        /* \"contracts/core/libraries/TickMath.sol\":3506:3553  if (tick > 0) ratio = type(uint256).max / ratio */\n    tag_71:\n        /* \"contracts/core/libraries/TickMath.sol\":3924:3925  0 */\n      0x00\n        /* \"contracts/core/libraries/TickMath.sol\":3912:3919  1 << 32 */\n      0x0100000000\n        /* \"contracts/core/libraries/TickMath.sol\":3903:3908  ratio */\n      dup3\n        /* \"contracts/core/libraries/TickMath.sol\":3903:3920  ratio % (1 << 32) */\n      dup2\n      tag_73\n      jumpi\n      invalid\n    tag_73:\n      mod\n        /* \"contracts/core/libraries/TickMath.sol\":3903:3925  ratio % (1 << 32) == 0 */\n      eq\n        /* \"contracts/core/libraries/TickMath.sol\":3903:3933  ratio % (1 << 32) == 0 ? 0 : 1 */\n      tag_74\n      jumpi\n        /* \"contracts/core/libraries/TickMath.sol\":3932:3933  1 */\n      0x01\n        /* \"contracts/core/libraries/TickMath.sol\":3903:3933  ratio % (1 << 32) == 0 ? 0 : 1 */\n      jump(tag_75)\n    tag_74:\n        /* \"contracts/core/libraries/TickMath.sol\":3928:3929  0 */\n      0x00\n        /* \"contracts/core/libraries/TickMath.sol\":3903:3933  ratio % (1 << 32) == 0 ? 0 : 1 */\n    tag_75:\n        /* \"contracts/core/libraries/TickMath.sol\":3886:3934  (ratio >> 32) + (ratio % (1 << 32) == 0 ? 0 : 1) */\n      0xff\n      and\n        /* \"contracts/core/libraries/TickMath.sol\":3896:3898  32 */\n      0x20\n        /* \"contracts/core/libraries/TickMath.sol\":3887:3892  ratio */\n      dup3\n        /* \"contracts/core/libraries/TickMath.sol\":3887:3898  ratio >> 32 */\n      swap1\n      shr\n        /* \"contracts/core/libraries/TickMath.sol\":3886:3934  (ratio >> 32) + (ratio % (1 << 32) == 0 ? 0 : 1) */\n      add\n        /* \"contracts/core/libraries/TickMath.sol\":3863:3935  sqrtPriceX96 = uint160((ratio >> 32) + (ratio % (1 << 32) == 0 ? 0 : 1)) */\n      swap3\n      pop\n        /* \"contracts/core/libraries/TickMath.sol\":1362:3942  function getSqrtRatioAtTick(int24 tick) internal pure returns (uint160 sqrtPriceX96) {... */\n      pop\n      pop\n      swap2\n      swap1\n      pop\n      jump\t// out\n        /* \"contracts/core/libraries/FullMath.sol\":749:4495  function mulDiv(uint256 a, uint256 b, uint256 denominator) internal pure returns (uint256 result) {... */\n    tag_38:\n        /* \"contracts/core/libraries/FullMath.sol\":831:845  uint256 result */\n      0x00\n        /* \"contracts/core/libraries/FullMath.sol\":1160:1173  uint256 prod0 */\n      dup1\n        /* \"contracts/core/libraries/FullMath.sol\":1228:1241  uint256 prod1 */\n      0x00\n        /* \"contracts/core/libraries/FullMath.sol\":1345:1346  0 */\n      dup1\n        /* \"contracts/core/libraries/FullMath.sol\":1341:1347  not(0) */\n      not\n        /* \"contracts/core/libraries/FullMath.sol\":1338:1339  b */\n      dup6\n        /* \"contracts/core/libraries/FullMath.sol\":1335:1336  a */\n      dup8\n        /* \"contracts/core/libraries/FullMath.sol\":1328:1348  mulmod(a, b, not(0)) */\n      mulmod\n        /* \"contracts/core/libraries/FullMath.sol\":1377:1378  b */\n      dup6\n        /* \"contracts/core/libraries/FullMath.sol\":1374:1375  a */\n      dup8\n        /* \"contracts/core/libraries/FullMath.sol\":1370:1379  mul(a, b) */\n      mul\n        /* \"contracts/core/libraries/FullMath.sol\":1361:1379  prod0 := mul(a, b) */\n      swap3\n      pop\n        /* \"contracts/core/libraries/FullMath.sol\":1428:1433  prod0 */\n      dup3\n        /* \"contracts/core/libraries/FullMath.sol\":1424:1426  mm */\n      dup2\n        /* \"contracts/core/libraries/FullMath.sol\":1421:1434  lt(mm, prod0) */\n      lt\n        /* \"contracts/core/libraries/FullMath.sol\":1413:1418  prod0 */\n      dup4\n        /* \"contracts/core/libraries/FullMath.sol\":1409:1411  mm */\n      dup3\n        /* \"contracts/core/libraries/FullMath.sol\":1405:1419  sub(mm, prod0) */\n      sub\n        /* \"contracts/core/libraries/FullMath.sol\":1401:1435  sub(sub(mm, prod0), lt(mm, prod0)) */\n      sub\n        /* \"contracts/core/libraries/FullMath.sol\":1392:1435  prod1 := sub(sub(mm, prod0), lt(mm, prod0)) */\n      swap2\n      pop\n        /* \"contracts/core/libraries/FullMath.sol\":1304:1445  {... */\n      pop\n        /* \"contracts/core/libraries/FullMath.sol\":1526:1527  0 */\n      0x00\n        /* \"contracts/core/libraries/FullMath.sol\":1517:1522  prod1 */\n      dup2\n        /* \"contracts/core/libraries/FullMath.sol\":1517:1527  prod1 == 0 */\n      eq\n        /* \"contracts/core/libraries/FullMath.sol\":1513:1692  if (prod1 == 0) {... */\n      iszero\n      tag_77\n      jumpi\n        /* \"contracts/core/libraries/FullMath.sol\":1565:1566  0 */\n      0x00\n        /* \"contracts/core/libraries/FullMath.sol\":1551:1562  denominator */\n      dup5\n        /* \"contracts/core/libraries/FullMath.sol\":1551:1566  denominator > 0 */\n      gt\n        /* \"contracts/core/libraries/FullMath.sol\":1543:1567  require(denominator > 0) */\n      tag_78\n      jumpi\n      0x00\n      dup1\n      revert\n    tag_78:\n        /* \"contracts/core/libraries/FullMath.sol\":1629:1640  denominator */\n      dup4\n        /* \"contracts/core/libraries/FullMath.sol\":1622:1627  prod0 */\n      dup3\n        /* \"contracts/core/libraries/FullMath.sol\":1618:1641  div(prod0, denominator) */\n      div\n        /* \"contracts/core/libraries/FullMath.sol\":1608:1641  result := div(prod0, denominator) */\n      swap3\n      pop\n        /* \"contracts/core/libraries/FullMath.sol\":1668:1681  return result */\n      pop\n      pop\n      jump(tag_76)\n        /* \"contracts/core/libraries/FullMath.sol\":1513:1692  if (prod1 == 0) {... */\n    tag_77:\n        /* \"contracts/core/libraries/FullMath.sol\":1819:1824  prod1 */\n      dup1\n        /* \"contracts/core/libraries/FullMath.sol\":1805:1816  denominator */\n      dup5\n        /* \"contracts/core/libraries/FullMath.sol\":1805:1824  denominator > prod1 */\n      gt\n        /* \"contracts/core/libraries/FullMath.sol\":1797:1825  require(denominator > prod1) */\n      tag_79\n      jumpi\n      0x00\n      dup1\n      revert\n    tag_79:\n        /* \"contracts/core/libraries/FullMath.sol\":2102:2119  uint256 remainder */\n      0x00\n        /* \"contracts/core/libraries/FullMath.sol\":2178:2189  denominator */\n      dup5\n        /* \"contracts/core/libraries/FullMath.sol\":2175:2176  b */\n      dup7\n        /* \"contracts/core/libraries/FullMath.sol\":2172:2173  a */\n      dup9\n        /* \"contracts/core/libraries/FullMath.sol\":2165:2190  mulmod(a, b, denominator) */\n      mulmod\n        /* \"contracts/core/libraries/FullMath.sol\":2152:2190  remainder := mulmod(a, b, denominator) */\n      swap1\n      pop\n        /* \"contracts/core/libraries/FullMath.sol\":2321:2326  prod0 */\n      dup3\n        /* \"contracts/core/libraries/FullMath.sol\":2310:2319  remainder */\n      dup2\n        /* \"contracts/core/libraries/FullMath.sol\":2307:2327  gt(remainder, prod0) */\n      gt\n        /* \"contracts/core/libraries/FullMath.sol\":2300:2305  prod1 */\n      dup3\n        /* \"contracts/core/libraries/FullMath.sol\":2296:2328  sub(prod1, gt(remainder, prod0)) */\n      sub\n        /* \"contracts/core/libraries/FullMath.sol\":2287:2328  prod1 := sub(prod1, gt(remainder, prod0)) */\n      swap2\n      pop\n        /* \"contracts/core/libraries/FullMath.sol\":2361:2370  remainder */\n      dup1\n        /* \"contracts/core/libraries/FullMath.sol\":2354:2359  prod0 */\n      dup4\n        /* \"contracts/core/libraries/FullMath.sol\":2350:2371  sub(prod0, remainder) */\n      sub\n        /* \"contracts/core/libraries/FullMath.sol\":2341:2371  prod0 := sub(prod0, remainder) */\n      swap3\n      pop\n        /* \"contracts/core/libraries/FullMath.sol\":2530:2542  uint256 twos */\n      0x00\n        /* \"contracts/core/libraries/FullMath.sol\":2560:2571  denominator */\n      dup6\n        /* \"contracts/core/libraries/FullMath.sol\":2546:2557  denominator */\n      dup7\n        /* \"contracts/core/libraries/FullMath.sol\":2545:2557  -denominator */\n      0x00\n      sub\n        /* \"contracts/core/libraries/FullMath.sol\":2545:2571  -denominator & denominator */\n      and\n        /* \"contracts/core/libraries/FullMath.sol\":2530:2571  uint256 twos = -denominator & denominator */\n      swap1\n      pop\n        /* \"contracts/core/libraries/FullMath.sol\":2682:2686  twos */\n      dup1\n        /* \"contracts/core/libraries/FullMath.sol\":2669:2680  denominator */\n      dup7\n        /* \"contracts/core/libraries/FullMath.sol\":2665:2687  div(denominator, twos) */\n      div\n        /* \"contracts/core/libraries/FullMath.sol\":2650:2687  denominator := div(denominator, twos) */\n      swap6\n      pop\n        /* \"contracts/core/libraries/FullMath.sol\":2804:2808  twos */\n      dup1\n        /* \"contracts/core/libraries/FullMath.sol\":2797:2802  prod0 */\n      dup5\n        /* \"contracts/core/libraries/FullMath.sol\":2793:2809  div(prod0, twos) */\n      div\n        /* \"contracts/core/libraries/FullMath.sol\":2784:2809  prod0 := div(prod0, twos) */\n      swap4\n      pop\n        /* \"contracts/core/libraries/FullMath.sol\":3058:3059  1 */\n      0x01\n        /* \"contracts/core/libraries/FullMath.sol\":3051:3055  twos */\n      dup2\n        /* \"contracts/core/libraries/FullMath.sol\":3044:3048  twos */\n      dup3\n        /* \"contracts/core/libraries/FullMath.sol\":3041:3042  0 */\n      0x00\n        /* \"contracts/core/libraries/FullMath.sol\":3037:3049  sub(0, twos) */\n      sub\n        /* \"contracts/core/libraries/FullMath.sol\":3033:3056  div(sub(0, twos), twos) */\n      div\n        /* \"contracts/core/libraries/FullMath.sol\":3029:3060  add(div(sub(0, twos), twos), 1) */\n      add\n        /* \"contracts/core/libraries/FullMath.sol\":3021:3060  twos := add(div(sub(0, twos), twos), 1) */\n      swap1\n      pop\n        /* \"contracts/core/libraries/FullMath.sol\":3096:3100  twos */\n      dup1\n        /* \"contracts/core/libraries/FullMath.sol\":3088:3093  prod1 */\n      dup4\n        /* \"contracts/core/libraries/FullMath.sol\":3088:3100  prod1 * twos */\n      mul\n        /* \"contracts/core/libraries/FullMath.sol\":3079:3100  prod0 |= prod1 * twos */\n      dup5\n      or\n      swap4\n      pop\n        /* \"contracts/core/libraries/FullMath.sol\":3434:3445  uint256 inv */\n      0x00\n        /* \"contracts/core/libraries/FullMath.sol\":3468:3469  2 */\n      0x02\n        /* \"contracts/core/libraries/FullMath.sol\":3453:3464  denominator */\n      dup8\n        /* \"contracts/core/libraries/FullMath.sol\":3449:3450  3 */\n      0x03\n        /* \"contracts/core/libraries/FullMath.sol\":3449:3464  3 * denominator */\n      mul\n        /* \"contracts/core/libraries/FullMath.sol\":3448:3469  (3 * denominator) ^ 2 */\n      xor\n        /* \"contracts/core/libraries/FullMath.sol\":3434:3469  uint256 inv = (3 * denominator) ^ 2 */\n      swap1\n      pop\n        /* \"contracts/core/libraries/FullMath.sol\":3709:3712  inv */\n      dup1\n        /* \"contracts/core/libraries/FullMath.sol\":3695:3706  denominator */\n      dup8\n        /* \"contracts/core/libraries/FullMath.sol\":3695:3712  denominator * inv */\n      mul\n        /* \"contracts/core/libraries/FullMath.sol\":3691:3692  2 */\n      0x02\n        /* \"contracts/core/libraries/FullMath.sol\":3691:3712  2 - denominator * inv */\n      sub\n        /* \"contracts/core/libraries/FullMath.sol\":3684:3712  inv *= 2 - denominator * inv */\n      dup2\n      mul\n      swap1\n      pop\n        /* \"contracts/core/libraries/FullMath.sol\":3767:3770  inv */\n      dup1\n        /* \"contracts/core/libraries/FullMath.sol\":3753:3764  denominator */\n      dup8\n        /* \"contracts/core/libraries/FullMath.sol\":3753:3770  denominator * inv */\n      mul\n        /* \"contracts/core/libraries/FullMath.sol\":3749:3750  2 */\n      0x02\n        /* \"contracts/core/libraries/FullMath.sol\":3749:3770  2 - denominator * inv */\n      sub\n        /* \"contracts/core/libraries/FullMath.sol\":3742:3770  inv *= 2 - denominator * inv */\n      dup2\n      mul\n      swap1\n      pop\n        /* \"contracts/core/libraries/FullMath.sol\":3826:3829  inv */\n      dup1\n        /* \"contracts/core/libraries/FullMath.sol\":3812:3823  denominator */\n      dup8\n        /* \"contracts/core/libraries/FullMath.sol\":3812:3829  denominator * inv */\n      mul\n        /* \"contracts/core/libraries/FullMath.sol\":3808:3809  2 */\n      0x02\n        /* \"contracts/core/libraries/FullMath.sol\":3808:3829  2 - denominator * inv */\n      sub\n        /* \"contracts/core/libraries/FullMath.sol\":3801:3829  inv *= 2 - denominator * inv */\n      dup2\n      mul\n      swap1\n      pop\n        /* \"contracts/core/libraries/FullMath.sol\":3885:3888  inv */\n      dup1\n        /* \"contracts/core/libraries/FullMath.sol\":3871:3882  denominator */\n      dup8\n        /* \"contracts/core/libraries/FullMath.sol\":3871:3888  denominator * inv */\n      mul\n        /* \"contracts/core/libraries/FullMath.sol\":3867:3868  2 */\n      0x02\n        /* \"contracts/core/libraries/FullMath.sol\":3867:3888  2 - denominator * inv */\n      sub\n        /* \"contracts/core/libraries/FullMath.sol\":3860:3888  inv *= 2 - denominator * inv */\n      dup2\n      mul\n      swap1\n      pop\n        /* \"contracts/core/libraries/FullMath.sol\":3944:3947  inv */\n      dup1\n        /* \"contracts/core/libraries/FullMath.sol\":3930:3941  denominator */\n      dup8\n        /* \"contracts/core/libraries/FullMath.sol\":3930:3947  denominator * inv */\n      mul\n        /* \"contracts/core/libraries/FullMath.sol\":3926:3927  2 */\n      0x02\n        /* \"contracts/core/libraries/FullMath.sol\":3926:3947  2 - denominator * inv */\n      sub\n        /* \"contracts/core/libraries/FullMath.sol\":3919:3947  inv *= 2 - denominator * inv */\n      dup2\n      mul\n      swap1\n      pop\n        /* \"contracts/core/libraries/FullMath.sol\":4004:4007  inv */\n      dup1\n        /* \"contracts/core/libraries/FullMath.sol\":3990:4001  denominator */\n      dup8\n        /* \"contracts/core/libraries/FullMath.sol\":3990:4007  denominator * inv */\n      mul\n        /* \"contracts/core/libraries/FullMath.sol\":3986:3987  2 */\n      0x02\n        /* \"contracts/core/libraries/FullMath.sol\":3986:4007  2 - denominator * inv */\n      sub\n        /* \"contracts/core/libraries/FullMath.sol\":3979:4007  inv *= 2 - denominator * inv */\n      dup2\n      mul\n      swap1\n      pop\n        /* \"contracts/core/libraries/FullMath.sol\":4462:4465  inv */\n      dup1\n        /* \"contracts/core/libraries/FullMath.sol\":4454:4459  prod0 */\n      dup6\n        /* \"contracts/core/libraries/FullMath.sol\":4454:4465  prod0 * inv */\n      mul\n        /* \"contracts/core/libraries/FullMath.sol\":4445:4465  result = prod0 * inv */\n      swap6\n      pop\n        /* \"contracts/core/libraries/FullMath.sol\":4475:4488  return result */\n      pop\n      pop\n      pop\n      pop\n      pop\n        /* \"contracts/core/libraries/FullMath.sol\":749:4495  function mulDiv(uint256 a, uint256 b, uint256 denominator) internal pure returns (uint256 result) {... */\n    tag_76:\n      swap4\n      swap3\n      pop\n      pop\n      pop\n      jump\t// out\n        /* \"contracts/core/veloex.sol\":3365:3819  function getAmount0ForLiquidity(uint160 sqrtRatioAX96, uint160 sqrtRatioBX96, uint128 liquidity)\r... */\n    tag_43:\n        /* \"contracts/core/veloex.sol\":3512:3527  uint256 amount0 */\n      0x00\n        /* \"contracts/core/veloex.sol\":3565:3578  sqrtRatioBX96 */\n      dup3\n        /* \"contracts/core/veloex.sol\":3549:3578  sqrtRatioAX96 > sqrtRatioBX96 */\n      0xffffffffffffffffffffffffffffffffffffffff\n      and\n        /* \"contracts/core/veloex.sol\":3549:3562  sqrtRatioAX96 */\n      dup5\n        /* \"contracts/core/veloex.sol\":3549:3578  sqrtRatioAX96 > sqrtRatioBX96 */\n      0xffffffffffffffffffffffffffffffffffffffff\n      and\n      gt\n        /* \"contracts/core/veloex.sol\":3545:3643  if (sqrtRatioAX96 > sqrtRatioBX96) (sqrtRatioAX96, sqrtRatioBX96) = (sqrtRatioBX96, sqrtRatioAX96) */\n      iszero\n      tag_81\n      jumpi\n        /* \"contracts/core/veloex.sol\":3614:3627  sqrtRatioBX96 */\n      dup3\n        /* \"contracts/core/veloex.sol\":3629:3642  sqrtRatioAX96 */\n      dup5\n        /* \"contracts/core/veloex.sol\":3580:3643  (sqrtRatioAX96, sqrtRatioBX96) = (sqrtRatioBX96, sqrtRatioAX96) */\n      dup1\n      swap5\n      pop\n      dup2\n      swap6\n      pop\n      pop\n      pop\n        /* \"contracts/core/veloex.sol\":3545:3643  if (sqrtRatioAX96 > sqrtRatioBX96) (sqrtRatioAX96, sqrtRatioBX96) = (sqrtRatioBX96, sqrtRatioAX96) */\n    tag_81:\n        /* \"contracts/core/veloex.sol\":3798:3811  sqrtRatioAX96 */\n      dup4\n        /* \"contracts/core/veloex.sol\":3663:3811  FullMath.mulDiv(\r... */\n      0xffffffffffffffffffffffffffffffffffffffff\n      and\n        /* \"contracts/core/veloex.sol\":3663:3795  FullMath.mulDiv(\r... */\n      tag_82\n        /* \"contracts/core/libraries/FixedPoint96.sol\":309:311  96 */\n      0x60\n        /* \"contracts/core/veloex.sol\":3693:3738  uint256(liquidity) << FixedPoint96.RESOLUTION */\n      0xff\n      and\n        /* \"contracts/core/veloex.sol\":3701:3710  liquidity */\n      dup5\n        /* \"contracts/core/veloex.sol\":3693:3711  uint256(liquidity) */\n      0xffffffffffffffffffffffffffffffff\n      and\n        /* \"contracts/core/veloex.sol\":3693:3738  uint256(liquidity) << FixedPoint96.RESOLUTION */\n      swap1\n      shl\n        /* \"contracts/core/veloex.sol\":3756:3769  sqrtRatioAX96 */\n      dup7\n        /* \"contracts/core/veloex.sol\":3740:3753  sqrtRatioBX96 */\n      dup7\n        /* \"contracts/core/veloex.sol\":3740:3769  sqrtRatioBX96 - sqrtRatioAX96 */\n      sub\n        /* \"contracts/core/veloex.sol\":3663:3795  FullMath.mulDiv(\r... */\n      0xffffffffffffffffffffffffffffffffffffffff\n      and\n        /* \"contracts/core/veloex.sol\":3771:3784  sqrtRatioBX96 */\n      dup7\n        /* \"contracts/core/veloex.sol\":3663:3795  FullMath.mulDiv(\r... */\n      0xffffffffffffffffffffffffffffffffffffffff\n      and\n        /* \"contracts/core/veloex.sol\":3663:3678  FullMath.mulDiv */\n      tag_38\n        /* \"contracts/core/veloex.sol\":3663:3795  FullMath.mulDiv(\r... */\n      jump\t// in\n    tag_82:\n        /* \"contracts/core/veloex.sol\":3663:3811  FullMath.mulDiv(\r... */\n      dup2\n      tag_83\n      jumpi\n      invalid\n    tag_83:\n      div\n        /* \"contracts/core/veloex.sol\":3656:3811  return FullMath.mulDiv(\r... */\n      swap1\n      pop\n        /* \"contracts/core/veloex.sol\":3365:3819  function getAmount0ForLiquidity(uint160 sqrtRatioAX96, uint160 sqrtRatioBX96, uint128 liquidity)\r... */\n      swap4\n      swap3\n      pop\n      pop\n      pop\n      jump\t// out\n        /* \"contracts/core/veloex.sol\":4184:4565  function getAmount1ForLiquidity(uint160 sqrtRatioAX96, uint160 sqrtRatioBX96, uint128 liquidity)\r... */\n    tag_45:\n        /* \"contracts/core/veloex.sol\":4331:4346  uint256 amount1 */\n      0x00\n        /* \"contracts/core/veloex.sol\":4384:4397  sqrtRatioBX96 */\n      dup3\n        /* \"contracts/core/veloex.sol\":4368:4397  sqrtRatioAX96 > sqrtRatioBX96 */\n      0xffffffffffffffffffffffffffffffffffffffff\n      and\n        /* \"contracts/core/veloex.sol\":4368:4381  sqrtRatioAX96 */\n      dup5\n        /* \"contracts/core/veloex.sol\":4368:4397  sqrtRatioAX96 > sqrtRatioBX96 */\n      0xffffffffffffffffffffffffffffffffffffffff\n      and\n      gt\n        /* \"contracts/core/veloex.sol\":4364:4462  if (sqrtRatioAX96 > sqrtRatioBX96) (sqrtRatioAX96, sqrtRatioBX96) = (sqrtRatioBX96, sqrtRatioAX96) */\n      iszero\n      tag_85\n      jumpi\n        /* \"contracts/core/veloex.sol\":4433:4446  sqrtRatioBX96 */\n      dup3\n        /* \"contracts/core/veloex.sol\":4448:4461  sqrtRatioAX96 */\n      dup5\n        /* \"contracts/core/veloex.sol\":4399:4462  (sqrtRatioAX96, sqrtRatioBX96) = (sqrtRatioBX96, sqrtRatioAX96) */\n      dup1\n      swap5\n      pop\n      dup2\n      swap6\n      pop\n      pop\n      pop\n        /* \"contracts/core/veloex.sol\":4364:4462  if (sqrtRatioAX96 > sqrtRatioBX96) (sqrtRatioAX96, sqrtRatioBX96) = (sqrtRatioBX96, sqrtRatioAX96) */\n    tag_85:\n        /* \"contracts/core/veloex.sol\":4482:4557  FullMath.mulDiv(liquidity, sqrtRatioBX96 - sqrtRatioAX96, FixedPoint96.Q96) */\n      tag_86\n        /* \"contracts/core/veloex.sol\":4498:4507  liquidity */\n      dup3\n        /* \"contracts/core/veloex.sol\":4482:4557  FullMath.mulDiv(liquidity, sqrtRatioBX96 - sqrtRatioAX96, FixedPoint96.Q96) */\n      0xffffffffffffffffffffffffffffffff\n      and\n        /* \"contracts/core/veloex.sol\":4525:4538  sqrtRatioAX96 */\n      dup6\n        /* \"contracts/core/veloex.sol\":4509:4522  sqrtRatioBX96 */\n      dup6\n        /* \"contracts/core/veloex.sol\":4509:4538  sqrtRatioBX96 - sqrtRatioAX96 */\n      sub\n        /* \"contracts/core/veloex.sol\":4482:4557  FullMath.mulDiv(liquidity, sqrtRatioBX96 - sqrtRatioAX96, FixedPoint96.Q96) */\n      0xffffffffffffffffffffffffffffffffffffffff\n      and\n        /* \"contracts/core/libraries/FixedPoint96.sol\":349:376  0x1000000000000000000000000 */\n      0x01000000000000000000000000\n        /* \"contracts/core/veloex.sol\":4482:4497  FullMath.mulDiv */\n      tag_38\n        /* \"contracts/core/veloex.sol\":4482:4557  FullMath.mulDiv(liquidity, sqrtRatioBX96 - sqrtRatioAX96, FixedPoint96.Q96) */\n      jump\t// in\n    tag_86:\n        /* \"contracts/core/veloex.sol\":4475:4557  return FullMath.mulDiv(liquidity, sqrtRatioBX96 - sqrtRatioAX96, FixedPoint96.Q96) */\n      swap1\n      pop\n        /* \"contracts/core/veloex.sol\":4184:4565  function getAmount1ForLiquidity(uint160 sqrtRatioAX96, uint160 sqrtRatioBX96, uint128 liquidity)\r... */\n      swap4\n      swap3\n      pop\n      pop\n      pop\n      jump\t// out\n        /* \"#utility.yul\":7:144   */\n    tag_88:\n      0x00\n        /* \"#utility.yul\":92:98   */\n      dup2\n        /* \"#utility.yul\":86:99   */\n      mload\n        /* \"#utility.yul\":77:99   */\n      swap1\n      pop\n        /* \"#utility.yul\":108:138   */\n      tag_90\n        /* \"#utility.yul\":132:137   */\n      dup2\n        /* \"#utility.yul\":108:138   */\n      tag_91\n      jump\t// in\n    tag_90:\n        /* \"#utility.yul\":67:144   */\n      swap3\n      swap2\n      pop\n      pop\n      jump\t// out\n        /* \"#utility.yul\":150:289   */\n    tag_92:\n      0x00\n        /* \"#utility.yul\":236:242   */\n      dup2\n        /* \"#utility.yul\":230:243   */\n      mload\n        /* \"#utility.yul\":221:243   */\n      swap1\n      pop\n        /* \"#utility.yul\":252:283   */\n      tag_94\n        /* \"#utility.yul\":277:282   */\n      dup2\n        /* \"#utility.yul\":252:283   */\n      tag_95\n      jump\t// in\n    tag_94:\n        /* \"#utility.yul\":211:289   */\n      swap3\n      swap2\n      pop\n      pop\n      jump\t// out\n        /* \"#utility.yul\":295:438   */\n    tag_96:\n      0x00\n        /* \"#utility.yul\":383:389   */\n      dup2\n        /* \"#utility.yul\":377:390   */\n      mload\n        /* \"#utility.yul\":368:390   */\n      swap1\n      pop\n        /* \"#utility.yul\":399:432   */\n      tag_98\n        /* \"#utility.yul\":426:431   */\n      dup2\n        /* \"#utility.yul\":399:432   */\n      tag_99\n      jump\t// in\n    tag_98:\n        /* \"#utility.yul\":358:438   */\n      swap3\n      swap2\n      pop\n      pop\n      jump\t// out\n        /* \"#utility.yul\":444:585   */\n    tag_100:\n      0x00\n        /* \"#utility.yul\":531:537   */\n      dup2\n        /* \"#utility.yul\":525:538   */\n      mload\n        /* \"#utility.yul\":516:538   */\n      swap1\n      pop\n        /* \"#utility.yul\":547:579   */\n      tag_102\n        /* \"#utility.yul\":573:578   */\n      dup2\n        /* \"#utility.yul\":547:579   */\n      tag_103\n      jump\t// in\n    tag_102:\n        /* \"#utility.yul\":506:585   */\n      swap3\n      swap2\n      pop\n      pop\n      jump\t// out\n        /* \"#utility.yul\":591:730   */\n    tag_104:\n      0x00\n        /* \"#utility.yul\":675:681   */\n      dup2\n        /* \"#utility.yul\":662:682   */\n      calldataload\n        /* \"#utility.yul\":653:682   */\n      swap1\n      pop\n        /* \"#utility.yul\":691:724   */\n      tag_106\n        /* \"#utility.yul\":718:723   */\n      dup2\n        /* \"#utility.yul\":691:724   */\n      tag_107\n      jump\t// in\n    tag_106:\n        /* \"#utility.yul\":643:730   */\n      swap3\n      swap2\n      pop\n      pop\n      jump\t// out\n        /* \"#utility.yul\":736:1016   */\n    tag_25:\n      0x00\n        /* \"#utility.yul\":853:855   */\n      0x20\n        /* \"#utility.yul\":841:850   */\n      dup3\n        /* \"#utility.yul\":832:839   */\n      dup5\n        /* \"#utility.yul\":828:851   */\n      sub\n        /* \"#utility.yul\":824:856   */\n      slt\n        /* \"#utility.yul\":821:823   */\n      iszero\n      tag_109\n      jumpi\n        /* \"#utility.yul\":869:870   */\n      0x00\n        /* \"#utility.yul\":866:867   */\n      dup1\n        /* \"#utility.yul\":859:871   */\n      revert\n        /* \"#utility.yul\":821:823   */\n    tag_109:\n        /* \"#utility.yul\":912:913   */\n      0x00\n        /* \"#utility.yul\":937:999   */\n      tag_110\n        /* \"#utility.yul\":991:998   */\n      dup5\n        /* \"#utility.yul\":982:988   */\n      dup3\n        /* \"#utility.yul\":971:980   */\n      dup6\n        /* \"#utility.yul\":967:989   */\n      add\n        /* \"#utility.yul\":937:999   */\n      tag_92\n      jump\t// in\n    tag_110:\n        /* \"#utility.yul\":927:999   */\n      swap2\n      pop\n        /* \"#utility.yul\":883:1009   */\n      pop\n        /* \"#utility.yul\":811:1016   */\n      swap3\n      swap2\n      pop\n      pop\n      jump\t// out\n        /* \"#utility.yul\":1022:2073   */\n    tag_30:\n      0x00\n      dup1\n      0x00\n      dup1\n      0x00\n      dup1\n        /* \"#utility.yul\":1218:1221   */\n      0xc0\n        /* \"#utility.yul\":1206:1215   */\n      dup8\n        /* \"#utility.yul\":1197:1204   */\n      dup10\n        /* \"#utility.yul\":1193:1216   */\n      sub\n        /* \"#utility.yul\":1189:1222   */\n      slt\n        /* \"#utility.yul\":1186:1188   */\n      iszero\n      tag_112\n      jumpi\n        /* \"#utility.yul\":1235:1236   */\n      0x00\n        /* \"#utility.yul\":1232:1233   */\n      dup1\n        /* \"#utility.yul\":1225:1237   */\n      revert\n        /* \"#utility.yul\":1186:1188   */\n    tag_112:\n        /* \"#utility.yul\":1278:1279   */\n      0x00\n        /* \"#utility.yul\":1303:1367   */\n      tag_113\n        /* \"#utility.yul\":1359:1366   */\n      dup10\n        /* \"#utility.yul\":1350:1356   */\n      dup3\n        /* \"#utility.yul\":1339:1348   */\n      dup11\n        /* \"#utility.yul\":1335:1357   */\n      add\n        /* \"#utility.yul\":1303:1367   */\n      tag_96\n      jump\t// in\n    tag_113:\n        /* \"#utility.yul\":1293:1367   */\n      swap7\n      pop\n        /* \"#utility.yul\":1249:1377   */\n      pop\n        /* \"#utility.yul\":1416:1418   */\n      0x20\n        /* \"#utility.yul\":1442:1504   */\n      tag_114\n        /* \"#utility.yul\":1496:1503   */\n      dup10\n        /* \"#utility.yul\":1487:1493   */\n      dup3\n        /* \"#utility.yul\":1476:1485   */\n      dup11\n        /* \"#utility.yul\":1472:1494   */\n      add\n        /* \"#utility.yul\":1442:1504   */\n      tag_92\n      jump\t// in\n    tag_114:\n        /* \"#utility.yul\":1432:1504   */\n      swap6\n      pop\n        /* \"#utility.yul\":1387:1514   */\n      pop\n        /* \"#utility.yul\":1553:1555   */\n      0x40\n        /* \"#utility.yul\":1579:1642   */\n      tag_115\n        /* \"#utility.yul\":1634:1641   */\n      dup10\n        /* \"#utility.yul\":1625:1631   */\n      dup3\n        /* \"#utility.yul\":1614:1623   */\n      dup11\n        /* \"#utility.yul\":1610:1632   */\n      add\n        /* \"#utility.yul\":1579:1642   */\n      tag_100\n      jump\t// in\n    tag_115:\n        /* \"#utility.yul\":1569:1642   */\n      swap5\n      pop\n        /* \"#utility.yul\":1524:1652   */\n      pop\n        /* \"#utility.yul\":1691:1693   */\n      0x60\n        /* \"#utility.yul\":1717:1780   */\n      tag_116\n        /* \"#utility.yul\":1772:1779   */\n      dup10\n        /* \"#utility.yul\":1763:1769   */\n      dup3\n        /* \"#utility.yul\":1752:1761   */\n      dup11\n        /* \"#utility.yul\":1748:1770   */\n      add\n        /* \"#utility.yul\":1717:1780   */\n      tag_100\n      jump\t// in\n    tag_116:\n        /* \"#utility.yul\":1707:1780   */\n      swap4\n      pop\n        /* \"#utility.yul\":1662:1790   */\n      pop\n        /* \"#utility.yul\":1829:1832   */\n      0x80\n        /* \"#utility.yul\":1856:1919   */\n      tag_117\n        /* \"#utility.yul\":1911:1918   */\n      dup10\n        /* \"#utility.yul\":1902:1908   */\n      dup3\n        /* \"#utility.yul\":1891:1900   */\n      dup11\n        /* \"#utility.yul\":1887:1909   */\n      add\n        /* \"#utility.yul\":1856:1919   */\n      tag_100\n      jump\t// in\n    tag_117:\n        /* \"#utility.yul\":1846:1919   */\n      swap3\n      pop\n        /* \"#utility.yul\":1800:1929   */\n      pop\n        /* \"#utility.yul\":1968:1971   */\n      0xa0\n        /* \"#utility.yul\":1995:2056   */\n      tag_118\n        /* \"#utility.yul\":2048:2055   */\n      dup10\n        /* \"#utility.yul\":2039:2045   */\n      dup3\n        /* \"#utility.yul\":2028:2037   */\n      dup11\n        /* \"#utility.yul\":2024:2046   */\n      add\n        /* \"#utility.yul\":1995:2056   */\n      tag_88\n      jump\t// in\n    tag_118:\n        /* \"#utility.yul\":1985:2056   */\n      swap2\n      pop\n        /* \"#utility.yul\":1939:2066   */\n      pop\n        /* \"#utility.yul\":1176:2073   */\n      swap3\n      swap6\n      pop\n      swap3\n      swap6\n      pop\n      swap3\n      swap6\n      jump\t// out\n        /* \"#utility.yul\":2079:2341   */\n    tag_16:\n      0x00\n        /* \"#utility.yul\":2187:2189   */\n      0x20\n        /* \"#utility.yul\":2175:2184   */\n      dup3\n        /* \"#utility.yul\":2166:2173   */\n      dup5\n        /* \"#utility.yul\":2162:2185   */\n      sub\n        /* \"#utility.yul\":2158:2190   */\n      slt\n        /* \"#utility.yul\":2155:2157   */\n      iszero\n      tag_120\n      jumpi\n        /* \"#utility.yul\":2203:2204   */\n      0x00\n        /* \"#utility.yul\":2200:2201   */\n      dup1\n        /* \"#utility.yul\":2193:2205   */\n      revert\n        /* \"#utility.yul\":2155:2157   */\n    tag_120:\n        /* \"#utility.yul\":2246:2247   */\n      0x00\n        /* \"#utility.yul\":2271:2324   */\n      tag_121\n        /* \"#utility.yul\":2316:2323   */\n      dup5\n        /* \"#utility.yul\":2307:2313   */\n      dup3\n        /* \"#utility.yul\":2296:2305   */\n      dup6\n        /* \"#utility.yul\":2292:2314   */\n      add\n        /* \"#utility.yul\":2271:2324   */\n      tag_104\n      jump\t// in\n    tag_121:\n        /* \"#utility.yul\":2261:2324   */\n      swap2\n      pop\n        /* \"#utility.yul\":2217:2334   */\n      pop\n        /* \"#utility.yul\":2145:2341   */\n      swap3\n      swap2\n      pop\n      pop\n      jump\t// out\n        /* \"#utility.yul\":2347:2508   */\n    tag_122:\n        /* \"#utility.yul\":2449:2501   */\n      tag_124\n        /* \"#utility.yul\":2495:2500   */\n      dup2\n        /* \"#utility.yul\":2449:2501   */\n      tag_125\n      jump\t// in\n    tag_124:\n        /* \"#utility.yul\":2444:2447   */\n      dup3\n        /* \"#utility.yul\":2437:2502   */\n      mstore\n        /* \"#utility.yul\":2427:2508   */\n      pop\n      pop\n      jump\t// out\n        /* \"#utility.yul\":2514:2626   */\n    tag_126:\n        /* \"#utility.yul\":2597:2619   */\n      tag_128\n        /* \"#utility.yul\":2613:2618   */\n      dup2\n        /* \"#utility.yul\":2597:2619   */\n      tag_129\n      jump\t// in\n    tag_128:\n        /* \"#utility.yul\":2592:2595   */\n      dup3\n        /* \"#utility.yul\":2585:2620   */\n      mstore\n        /* \"#utility.yul\":2575:2626   */\n      pop\n      pop\n      jump\t// out\n        /* \"#utility.yul\":2632:2750   */\n    tag_130:\n        /* \"#utility.yul\":2719:2743   */\n      tag_132\n        /* \"#utility.yul\":2737:2742   */\n      dup2\n        /* \"#utility.yul\":2719:2743   */\n      tag_133\n      jump\t// in\n    tag_132:\n        /* \"#utility.yul\":2714:2717   */\n      dup3\n        /* \"#utility.yul\":2707:2744   */\n      mstore\n        /* \"#utility.yul\":2697:2750   */\n      pop\n      pop\n      jump\t// out\n        /* \"#utility.yul\":2756:3008   */\n    tag_9:\n      0x00\n        /* \"#utility.yul\":2902:2904   */\n      0x20\n        /* \"#utility.yul\":2891:2900   */\n      dup3\n        /* \"#utility.yul\":2887:2905   */\n      add\n        /* \"#utility.yul\":2879:2905   */\n      swap1\n      pop\n        /* \"#utility.yul\":2915:3001   */\n      tag_135\n        /* \"#utility.yul\":2998:2999   */\n      0x00\n        /* \"#utility.yul\":2987:2996   */\n      dup4\n        /* \"#utility.yul\":2983:3000   */\n      add\n        /* \"#utility.yul\":2974:2980   */\n      dup5\n        /* \"#utility.yul\":2915:3001   */\n      tag_122\n      jump\t// in\n    tag_135:\n        /* \"#utility.yul\":2869:3008   */\n      swap3\n      swap2\n      pop\n      pop\n      jump\t// out\n        /* \"#utility.yul\":3014:3330   */\n    tag_13:\n      0x00\n        /* \"#utility.yul\":3165:3167   */\n      0x40\n        /* \"#utility.yul\":3154:3163   */\n      dup3\n        /* \"#utility.yul\":3150:3168   */\n      add\n        /* \"#utility.yul\":3142:3168   */\n      swap1\n      pop\n        /* \"#utility.yul\":3178:3245   */\n      tag_137\n        /* \"#utility.yul\":3242:3243   */\n      0x00\n        /* \"#utility.yul\":3231:3240   */\n      dup4\n        /* \"#utility.yul\":3227:3244   */\n      add\n        /* \"#utility.yul\":3218:3224   */\n      dup6\n        /* \"#utility.yul\":3178:3245   */\n      tag_126\n      jump\t// in\n    tag_137:\n        /* \"#utility.yul\":3255:3323   */\n      tag_138\n        /* \"#utility.yul\":3319:3321   */\n      0x20\n        /* \"#utility.yul\":3308:3317   */\n      dup4\n        /* \"#utility.yul\":3304:3322   */\n      add\n        /* \"#utility.yul\":3295:3301   */\n      dup5\n        /* \"#utility.yul\":3255:3323   */\n      tag_126\n      jump\t// in\n    tag_138:\n        /* \"#utility.yul\":3132:3330   */\n      swap4\n      swap3\n      pop\n      pop\n      pop\n      jump\t// out\n        /* \"#utility.yul\":3336:3668   */\n    tag_19:\n      0x00\n        /* \"#utility.yul\":3495:3497   */\n      0x40\n        /* \"#utility.yul\":3484:3493   */\n      dup3\n        /* \"#utility.yul\":3480:3498   */\n      add\n        /* \"#utility.yul\":3472:3498   */\n      swap1\n      pop\n        /* \"#utility.yul\":3508:3579   */\n      tag_140\n        /* \"#utility.yul\":3576:3577   */\n      0x00\n        /* \"#utility.yul\":3565:3574   */\n      dup4\n        /* \"#utility.yul\":3561:3578   */\n      add\n        /* \"#utility.yul\":3552:3558   */\n      dup6\n        /* \"#utility.yul\":3508:3579   */\n      tag_130\n      jump\t// in\n    tag_140:\n        /* \"#utility.yul\":3589:3661   */\n      tag_141\n        /* \"#utility.yul\":3657:3659   */\n      0x20\n        /* \"#utility.yul\":3646:3655   */\n      dup4\n        /* \"#utility.yul\":3642:3660   */\n      add\n        /* \"#utility.yul\":3633:3639   */\n      dup5\n        /* \"#utility.yul\":3589:3661   */\n      tag_130\n      jump\t// in\n    tag_141:\n        /* \"#utility.yul\":3462:3668   */\n      swap4\n      swap3\n      pop\n      pop\n      pop\n      jump\t// out\n        /* \"#utility.yul\":3674:3764   */\n    tag_142:\n      0x00\n        /* \"#utility.yul\":3751:3756   */\n      dup2\n        /* \"#utility.yul\":3744:3757   */\n      iszero\n        /* \"#utility.yul\":3737:3758   */\n      iszero\n        /* \"#utility.yul\":3726:3758   */\n      swap1\n      pop\n        /* \"#utility.yul\":3716:3764   */\n      swap2\n      swap1\n      pop\n      jump\t// out\n        /* \"#utility.yul\":3770:3860   */\n    tag_129:\n      0x00\n        /* \"#utility.yul\":3848:3853   */\n      dup2\n        /* \"#utility.yul\":3845:3846   */\n      0x02\n        /* \"#utility.yul\":3834:3854   */\n      signextend\n        /* \"#utility.yul\":3823:3854   */\n      swap1\n      pop\n        /* \"#utility.yul\":3813:3860   */\n      swap2\n      swap1\n      pop\n      jump\t// out\n        /* \"#utility.yul\":3866:3955   */\n    tag_145:\n      0x00\n        /* \"#utility.yul\":3942:3948   */\n      0xffff\n        /* \"#utility.yul\":3935:3940   */\n      dup3\n        /* \"#utility.yul\":3931:3949   */\n      and\n        /* \"#utility.yul\":3920:3949   */\n      swap1\n      pop\n        /* \"#utility.yul\":3910:3955   */\n      swap2\n      swap1\n      pop\n      jump\t// out\n        /* \"#utility.yul\":3961:4087   */\n    tag_147:\n      0x00\n        /* \"#utility.yul\":4038:4080   */\n      0xffffffffffffffffffffffffffffffffffffffff\n        /* \"#utility.yul\":4031:4036   */\n      dup3\n        /* \"#utility.yul\":4027:4081   */\n      and\n        /* \"#utility.yul\":4016:4081   */\n      swap1\n      pop\n        /* \"#utility.yul\":4006:4087   */\n      swap2\n      swap1\n      pop\n      jump\t// out\n        /* \"#utility.yul\":4093:4170   */\n    tag_133:\n      0x00\n        /* \"#utility.yul\":4159:4164   */\n      dup2\n        /* \"#utility.yul\":4148:4164   */\n      swap1\n      pop\n        /* \"#utility.yul\":4138:4170   */\n      swap2\n      swap1\n      pop\n      jump\t// out\n        /* \"#utility.yul\":4176:4332   */\n    tag_125:\n      0x00\n        /* \"#utility.yul\":4274:4326   */\n      tag_151\n        /* \"#utility.yul\":4320:4325   */\n      dup3\n        /* \"#utility.yul\":4274:4326   */\n      tag_152\n      jump\t// in\n    tag_151:\n        /* \"#utility.yul\":4261:4326   */\n      swap1\n      pop\n        /* \"#utility.yul\":4251:4332   */\n      swap2\n      swap1\n      pop\n      jump\t// out\n        /* \"#utility.yul\":4338:4466   */\n    tag_152:\n      0x00\n        /* \"#utility.yul\":4436:4460   */\n      tag_154\n        /* \"#utility.yul\":4454:4459   */\n      dup3\n        /* \"#utility.yul\":4436:4460   */\n      tag_147\n      jump\t// in\n    tag_154:\n        /* \"#utility.yul\":4423:4460   */\n      swap1\n      pop\n        /* \"#utility.yul\":4413:4466   */\n      swap2\n      swap1\n      pop\n      jump\t// out\n        /* \"#utility.yul\":4472:4588   */\n    tag_91:\n        /* \"#utility.yul\":4542:4563   */\n      tag_156\n        /* \"#utility.yul\":4557:4562   */\n      dup2\n        /* \"#utility.yul\":4542:4563   */\n      tag_142\n      jump\t// in\n    tag_156:\n        /* \"#utility.yul\":4535:4540   */\n      dup2\n        /* \"#utility.yul\":4532:4564   */\n      eq\n        /* \"#utility.yul\":4522:4524   */\n      tag_157\n      jumpi\n        /* \"#utility.yul\":4578:4579   */\n      0x00\n        /* \"#utility.yul\":4575:4576   */\n      dup1\n        /* \"#utility.yul\":4568:4580   */\n      revert\n        /* \"#utility.yul\":4522:4524   */\n    tag_157:\n        /* \"#utility.yul\":4512:4588   */\n      pop\n      jump\t// out\n        /* \"#utility.yul\":4594:4712   */\n    tag_95:\n        /* \"#utility.yul\":4665:4687   */\n      tag_159\n        /* \"#utility.yul\":4681:4686   */\n      dup2\n        /* \"#utility.yul\":4665:4687   */\n      tag_129\n      jump\t// in\n    tag_159:\n        /* \"#utility.yul\":4658:4663   */\n      dup2\n        /* \"#utility.yul\":4655:4688   */\n      eq\n        /* \"#utility.yul\":4645:4647   */\n      tag_160\n      jumpi\n        /* \"#utility.yul\":4702:4703   */\n      0x00\n        /* \"#utility.yul\":4699:4700   */\n      dup1\n        /* \"#utility.yul\":4692:4704   */\n      revert\n        /* \"#utility.yul\":4645:4647   */\n    tag_160:\n        /* \"#utility.yul\":4635:4712   */\n      pop\n      jump\t// out\n        /* \"#utility.yul\":4718:4838   */\n    tag_103:\n        /* \"#utility.yul\":4790:4813   */\n      tag_162\n        /* \"#utility.yul\":4807:4812   */\n      dup2\n        /* \"#utility.yul\":4790:4813   */\n      tag_145\n      jump\t// in\n    tag_162:\n        /* \"#utility.yul\":4783:4788   */\n      dup2\n        /* \"#utility.yul\":4780:4814   */\n      eq\n        /* \"#utility.yul\":4770:4772   */\n      tag_163\n      jumpi\n        /* \"#utility.yul\":4828:4829   */\n      0x00\n        /* \"#utility.yul\":4825:4826   */\n      dup1\n        /* \"#utility.yul\":4818:4830   */\n      revert\n        /* \"#utility.yul\":4770:4772   */\n    tag_163:\n        /* \"#utility.yul\":4760:4838   */\n      pop\n      jump\t// out\n        /* \"#utility.yul\":4844:4966   */\n    tag_99:\n        /* \"#utility.yul\":4917:4941   */\n      tag_165\n        /* \"#utility.yul\":4935:4940   */\n      dup2\n        /* \"#utility.yul\":4917:4941   */\n      tag_147\n      jump\t// in\n    tag_165:\n        /* \"#utility.yul\":4910:4915   */\n      dup2\n        /* \"#utility.yul\":4907:4942   */\n      eq\n        /* \"#utility.yul\":4897:4899   */\n      tag_166\n      jumpi\n        /* \"#utility.yul\":4956:4957   */\n      0x00\n        /* \"#utility.yul\":4953:4954   */\n      dup1\n        /* \"#utility.yul\":4946:4958   */\n      revert\n        /* \"#utility.yul\":4897:4899   */\n    tag_166:\n        /* \"#utility.yul\":4887:4966   */\n      pop\n      jump\t// out\n        /* \"#utility.yul\":4972:5094   */\n    tag_107:\n        /* \"#utility.yul\":5045:5069   */\n      tag_168\n        /* \"#utility.yul\":5063:5068   */\n      dup2\n        /* \"#utility.yul\":5045:5069   */\n      tag_133\n      jump\t// in\n    tag_168:\n        /* \"#utility.yul\":5038:5043   */\n      dup2\n        /* \"#utility.yul\":5035:5070   */\n      eq\n        /* \"#utility.yul\":5025:5027   */\n      tag_169\n      jumpi\n        /* \"#utility.yul\":5084:5085   */\n      0x00\n        /* \"#utility.yul\":5081:5082   */\n      dup1\n        /* \"#utility.yul\":5074:5086   */\n      revert\n        /* \"#utility.yul\":5025:5027   */\n    tag_169:\n        /* \"#utility.yul\":5015:5094   */\n      pop\n      jump\t// out\n\n    auxdata: 0xa264697066735822122018e0ca5c9b95f966658171286b62fa37d261b2bbb23492b8a41f795aca5594a164736f6c63430007060033\n}\n",
				"bytecode": {
					"linkReferences": {},
					"object": "60a060405234801561001057600080fd5b50604051610dec380380610dec83398181016040528101906100329190610084565b8073ffffffffffffffffffffffffffffffffffffffff1660808173ffffffffffffffffffffffffffffffffffffffff1660601b81525050506100f6565b60008151905061007e816100df565b92915050565b60006020828403121561009657600080fd5b60006100a48482850161006f565b91505092915050565b60006100b8826100bf565b9050919050565b600073ffffffffffffffffffffffffffffffffffffffff82169050919050565b6100e8816100ad565b81146100f357600080fd5b50565b60805160601c610cd161011b6000398060b6528060df52806101815250610cd16000f3fe608060405234801561001057600080fd5b50600436106100415760003560e01c806316f0115b146100465780633d1c387b146100645780635591228814610083575b600080fd5b61004e6100b4565b60405161005b9190610b46565b60405180910390f35b61006c6100d8565b60405161007a929190610b61565b60405180910390f35b61009d60048036038101906100989190610af0565b610248565b6040516100ab929190610b8a565b60405180910390f35b7f000000000000000000000000000000000000000000000000000000000000000081565b60008060007f000000000000000000000000000000000000000000000000000000000000000073ffffffffffffffffffffffffffffffffffffffff1663d0c93a7c6040518163ffffffff1660e01b815260040160206040518083038186803b15801561014357600080fd5b505afa158015610157573d6000803e3d6000fd5b505050506040513d601f19601f8201168201806040525081019061017b9190610a3e565b905060007f000000000000000000000000000000000000000000000000000000000000000073ffffffffffffffffffffffffffffffffffffffff16633850c7bd6040518163ffffffff1660e01b815260040160c06040518083038186803b1580156101e557600080fd5b505afa1580156101f9573d6000803e3d6000fd5b505050506040513d601f19601f8201168201806040525081019061021d9190610a67565b50505050915050818260020b8260020b8161023457fe5b050290508181039350818101925050509091565b6000806000806102566100d8565b91509150600061026583610379565b9050600061027283610379565b905060006102ac670de0b6b3a76400006c010000000000000000000000008473ffffffffffffffffffffffffffffffffffffffff166107b4565b6102e2670de0b6b3a76400006c010000000000000000000000008673ffffffffffffffffffffffffffffffffffffffff166107b4565b03905060008373ffffffffffffffffffffffffffffffffffffffff168373ffffffffffffffffffffffffffffffffffffffff1603905060006103378264e8d4a510006c010000000000000000000000006107b4565b8301905060006103508b670de0b6b3a7640000846107b4565b905061035d86868361088e565b995061036a868683610949565b98505050505050505050915091565b60008060008360020b12610390578260020b610398565b8260020b6000035b90507ffffffffffffffffffffffffffffffffffffffffffffffffffffffffffff2761860000360020b811115610436576040517f08c379a00000000000000000000000000000000000000000000000000000000081526004018080602001828103825260018152602001807f540000000000000000000000000000000000000000000000000000000000000081525060200191505060405180910390fd5b60008060018316141561045a5770010000000000000000000000000000000061046c565b6ffffcb933bd6fad37aa2d162d1a5940015b70ffffffffffffffffffffffffffffffffff169050600060028316146104a65760806ffff97272373d413259a46990580e213a8202901c90505b600060048316146104cb5760806ffff2e50f5f656932ef12357cf3c7fdcc8202901c90505b600060088316146104f05760806fffe5caca7e10e4e61c3624eaa0941cd08202901c90505b600060108316146105155760806fffcb9843d60f6159c9db58835c9266448202901c90505b6000602083161461053a5760806fff973b41fa98c081472e6896dfb254c08202901c90505b6000604083161461055f5760806fff2ea16466c96a3843ec78b326b528618202901c90505b600060808316146105845760806ffe5dee046a99a2a811c461f1969c30538202901c90505b60006101008316146105aa5760806ffcbe86c7900a88aedcffc83b479aa3a48202901c90505b60006102008316146105d05760806ff987a7253ac413176f2b074cf7815e548202901c90505b60006104008316146105f65760806ff3392b0822b70005940c7a398e4b70f38202901c90505b600061080083161461061c5760806fe7159475a2c29b7443b29c7fa6e889d98202901c90505b60006110008316146106425760806fd097f3bdfd2022b8845ad8f792aa58258202901c90505b60006120008316146106685760806fa9f746462d870fdf8a65dc1f90e061e58202901c90505b600061400083161461068e5760806f70d869a156d2a1b890bb3df62baf32f78202901c90505b60006180008316146106b45760806f31be135f97d08fd981231505542fcfa68202901c90505b6000620100008316146106db5760806f09aa508b5b7a84e1c677de54f3e99bc98202901c90505b6000620200008316146107015760806e5d6af8dedb81196699c329225ee6048202901c90505b6000620400008316146107265760806d2216e584f5fa1ea926041bedfe988202901c90505b6000620800008316146107495760806b048a170391f7dc42444e8fa28202901c90505b60008460020b131561078257807fffffffffffffffffffffffffffffffffffffffffffffffffffffffffffffffff8161077e57fe5b0490505b6000640100000000828161079257fe5b061461079f5760016107a2565b60005b60ff16602082901c0192505050919050565b6000806000801985870985870292508281108382030391505060008114156107ef57600084116107e357600080fd5b83820492505050610887565b8084116107fb57600080fd5b600084868809905082811182039150808303925060008586600003169050808604955080840493506001818260000304019050808302841793506000600287600302189050808702600203810290508087026002038102905080870260020381029050808702600203810290508087026002038102905080870260020381029050808502955050505050505b9392505050565b60008273ffffffffffffffffffffffffffffffffffffffff168473ffffffffffffffffffffffffffffffffffffffff1611156108cf57828480945081955050505b8373ffffffffffffffffffffffffffffffffffffffff16610938606060ff16846fffffffffffffffffffffffffffffffff16901b86860373ffffffffffffffffffffffffffffffffffffffff168673ffffffffffffffffffffffffffffffffffffffff166107b4565b8161093f57fe5b0490509392505050565b60008273ffffffffffffffffffffffffffffffffffffffff168473ffffffffffffffffffffffffffffffffffffffff16111561098a57828480945081955050505b6109cc826fffffffffffffffffffffffffffffffff1685850373ffffffffffffffffffffffffffffffffffffffff166c010000000000000000000000006107b4565b90509392505050565b6000815190506109e481610c28565b92915050565b6000815190506109f981610c3f565b92915050565b600081519050610a0e81610c6d565b92915050565b600081519050610a2381610c56565b92915050565b600081359050610a3881610c84565b92915050565b600060208284031215610a5057600080fd5b6000610a5e848285016109ea565b91505092915050565b60008060008060008060c08789031215610a8057600080fd5b6000610a8e89828a016109ff565b9650506020610a9f89828a016109ea565b9550506040610ab089828a01610a14565b9450506060610ac189828a01610a14565b9350506080610ad289828a01610a14565b92505060a0610ae389828a016109d5565b9150509295509295509295565b600060208284031215610b0257600080fd5b6000610b1084828501610a29565b91505092915050565b610b2281610c04565b82525050565b610b3181610bbf565b82525050565b610b4081610bfa565b82525050565b6000602082019050610b5b6000830184610b19565b92915050565b6000604082019050610b766000830185610b28565b610b836020830184610b28565b9392505050565b6000604082019050610b9f6000830185610b37565b610bac6020830184610b37565b9392505050565b60008115159050919050565b60008160020b9050919050565b600061ffff82169050919050565b600073ffffffffffffffffffffffffffffffffffffffff82169050919050565b6000819050919050565b6000610c0f82610c16565b9050919050565b6000610c2182610bda565b9050919050565b610c3181610bb3565b8114610c3c57600080fd5b50565b610c4881610bbf565b8114610c5357600080fd5b50565b610c5f81610bcc565b8114610c6a57600080fd5b50565b610c7681610bda565b8114610c8157600080fd5b50565b610c8d81610bfa565b8114610c9857600080fd5b5056fea264697066735822122018e0ca5c9b95f966658171286b62fa37d261b2bbb23492b8a41f795aca5594a164736f6c63430007060033",
					"opcodes": "PUSH1 0xA0 PUSH1 0x40 MSTORE CALLVALUE DUP1 ISZERO PUSH2 0x10 JUMPI PUSH1 0x0 DUP1 REVERT JUMPDEST POP PUSH1 0x40 MLOAD PUSH2 0xDEC CODESIZE SUB DUP1 PUSH2 0xDEC DUP4 CODECOPY DUP2 DUP2 ADD PUSH1 0x40 MSTORE DUP2 ADD SWAP1 PUSH2 0x32 SWAP2 SWAP1 PUSH2 0x84 JUMP JUMPDEST DUP1 PUSH20 0xFFFFFFFFFFFFFFFFFFFFFFFFFFFFFFFFFFFFFFFF AND PUSH1 0x80 DUP2 PUSH20 0xFFFFFFFFFFFFFFFFFFFFFFFFFFFFFFFFFFFFFFFF AND PUSH1 0x60 SHL DUP2 MSTORE POP POP POP PUSH2 0xF6 JUMP JUMPDEST PUSH1 0x0 DUP2 MLOAD SWAP1 POP PUSH2 0x7E DUP2 PUSH2 0xDF JUMP JUMPDEST SWAP3 SWAP2 POP POP JUMP JUMPDEST PUSH1 0x0 PUSH1 0x20 DUP3 DUP5 SUB SLT ISZERO PUSH2 0x96 JUMPI PUSH1 0x0 DUP1 REVERT JUMPDEST PUSH1 0x0 PUSH2 0xA4 DUP5 DUP3 DUP6 ADD PUSH2 0x6F JUMP JUMPDEST SWAP2 POP POP SWAP3 SWAP2 POP POP JUMP JUMPDEST PUSH1 0x0 PUSH2 0xB8 DUP3 PUSH2 0xBF JUMP JUMPDEST SWAP1 POP SWAP2 SWAP1 POP JUMP JUMPDEST PUSH1 0x0 PUSH20 0xFFFFFFFFFFFFFFFFFFFFFFFFFFFFFFFFFFFFFFFF DUP3 AND SWAP1 POP SWAP2 SWAP1 POP JUMP JUMPDEST PUSH2 0xE8 DUP2 PUSH2 0xAD JUMP JUMPDEST DUP2 EQ PUSH2 0xF3 JUMPI PUSH1 0x0 DUP1 REVERT JUMPDEST POP JUMP JUMPDEST PUSH1 0x80 MLOAD PUSH1 0x60 SHR PUSH2 0xCD1 PUSH2 0x11B PUSH1 0x0 CODECOPY DUP1 PUSH1 0xB6 MSTORE DUP1 PUSH1 0xDF MSTORE DUP1 PUSH2 0x181 MSTORE POP PUSH2 0xCD1 PUSH1 0x0 RETURN INVALID PUSH1 0x80 PUSH1 0x40 MSTORE CALLVALUE DUP1 ISZERO PUSH2 0x10 JUMPI PUSH1 0x0 DUP1 REVERT JUMPDEST POP PUSH1 0x4 CALLDATASIZE LT PUSH2 0x41 JUMPI PUSH1 0x0 CALLDATALOAD PUSH1 0xE0 SHR DUP1 PUSH4 0x16F0115B EQ PUSH2 0x46 JUMPI DUP1 PUSH4 0x3D1C387B EQ PUSH2 0x64 JUMPI DUP1 PUSH4 0x55912288 EQ PUSH2 0x83 JUMPI JUMPDEST PUSH1 0x0 DUP1 REVERT JUMPDEST PUSH2 0x4E PUSH2 0xB4 JUMP JUMPDEST PUSH1 0x40 MLOAD PUSH2 0x5B SWAP2 SWAP1 PUSH2 0xB46 JUMP JUMPDEST PUSH1 0x40 MLOAD DUP1 SWAP2 SUB SWAP1 RETURN JUMPDEST PUSH2 0x6C PUSH2 0xD8 JUMP JUMPDEST PUSH1 0x40 MLOAD PUSH2 0x7A SWAP3 SWAP2 SWAP1 PUSH2 0xB61 JUMP JUMPDEST PUSH1 0x40 MLOAD DUP1 SWAP2 SUB SWAP1 RETURN JUMPDEST PUSH2 0x9D PUSH1 0x4 DUP1 CALLDATASIZE SUB DUP2 ADD SWAP1 PUSH2 0x98 SWAP2 SWAP1 PUSH2 0xAF0 JUMP JUMPDEST PUSH2 0x248 JUMP JUMPDEST PUSH1 0x40 MLOAD PUSH2 0xAB SWAP3 SWAP2 SWAP1 PUSH2 0xB8A JUMP JUMPDEST PUSH1 0x40 MLOAD DUP1 SWAP2 SUB SWAP1 RETURN JUMPDEST PUSH32 0x0 DUP2 JUMP JUMPDEST PUSH1 0x0 DUP1 PUSH1 0x0 PUSH32 0x0 PUSH20 0xFFFFFFFFFFFFFFFFFFFFFFFFFFFFFFFFFFFFFFFF AND PUSH4 0xD0C93A7C PUSH1 0x40 MLOAD DUP2 PUSH4 0xFFFFFFFF AND PUSH1 0xE0 SHL DUP2 MSTORE PUSH1 0x4 ADD PUSH1 0x20 PUSH1 0x40 MLOAD DUP1 DUP4 SUB DUP2 DUP7 DUP1 EXTCODESIZE ISZERO DUP1 ISZERO PUSH2 0x143 JUMPI PUSH1 0x0 DUP1 REVERT JUMPDEST POP GAS STATICCALL ISZERO DUP1 ISZERO PUSH2 0x157 JUMPI RETURNDATASIZE PUSH1 0x0 DUP1 RETURNDATACOPY RETURNDATASIZE PUSH1 0x0 REVERT JUMPDEST POP POP POP POP PUSH1 0x40 MLOAD RETURNDATASIZE PUSH1 0x1F NOT PUSH1 0x1F DUP3 ADD AND DUP3 ADD DUP1 PUSH1 0x40 MSTORE POP DUP2 ADD SWAP1 PUSH2 0x17B SWAP2 SWAP1 PUSH2 0xA3E JUMP JUMPDEST SWAP1 POP PUSH1 0x0 PUSH32 0x0 PUSH20 0xFFFFFFFFFFFFFFFFFFFFFFFFFFFFFFFFFFFFFFFF AND PUSH4 0x3850C7BD PUSH1 0x40 MLOAD DUP2 PUSH4 0xFFFFFFFF AND PUSH1 0xE0 SHL DUP2 MSTORE PUSH1 0x4 ADD PUSH1 0xC0 PUSH1 0x40 MLOAD DUP1 DUP4 SUB DUP2 DUP7 DUP1 EXTCODESIZE ISZERO DUP1 ISZERO PUSH2 0x1E5 JUMPI PUSH1 0x0 DUP1 REVERT JUMPDEST POP GAS STATICCALL ISZERO DUP1 ISZERO PUSH2 0x1F9 JUMPI RETURNDATASIZE PUSH1 0x0 DUP1 RETURNDATACOPY RETURNDATASIZE PUSH1 0x0 REVERT JUMPDEST POP POP POP POP PUSH1 0x40 MLOAD RETURNDATASIZE PUSH1 0x1F NOT PUSH1 0x1F DUP3 ADD AND DUP3 ADD DUP1 PUSH1 0x40 MSTORE POP DUP2 ADD SWAP1 PUSH2 0x21D SWAP2 SWAP1 PUSH2 0xA67 JUMP JUMPDEST POP POP POP POP SWAP2 POP POP DUP2 DUP3 PUSH1 0x2 SIGNEXTEND DUP3 PUSH1 0x2 SIGNEXTEND DUP2 PUSH2 0x234 JUMPI INVALID JUMPDEST SDIV MUL SWAP1 POP DUP2 DUP2 SUB SWAP4 POP DUP2 DUP2 ADD SWAP3 POP POP POP SWAP1 SWAP2 JUMP JUMPDEST PUSH1 0x0 DUP1 PUSH1 0x0 DUP1 PUSH2 0x256 PUSH2 0xD8 JUMP JUMPDEST SWAP2 POP SWAP2 POP PUSH1 0x0 PUSH2 0x265 DUP4 PUSH2 0x379 JUMP JUMPDEST SWAP1 POP PUSH1 0x0 PUSH2 0x272 DUP4 PUSH2 0x379 JUMP JUMPDEST SWAP1 POP PUSH1 0x0 PUSH2 0x2AC PUSH8 0xDE0B6B3A7640000 PUSH13 0x1000000000000000000000000 DUP5 PUSH20 0xFFFFFFFFFFFFFFFFFFFFFFFFFFFFFFFFFFFFFFFF AND PUSH2 0x7B4 JUMP JUMPDEST PUSH2 0x2E2 PUSH8 0xDE0B6B3A7640000 PUSH13 0x1000000000000000000000000 DUP7 PUSH20 0xFFFFFFFFFFFFFFFFFFFFFFFFFFFFFFFFFFFFFFFF AND PUSH2 0x7B4 JUMP JUMPDEST SUB SWAP1 POP PUSH1 0x0 DUP4 PUSH20 0xFFFFFFFFFFFFFFFFFFFFFFFFFFFFFFFFFFFFFFFF AND DUP4 PUSH20 0xFFFFFFFFFFFFFFFFFFFFFFFFFFFFFFFFFFFFFFFF AND SUB SWAP1 POP PUSH1 0x0 PUSH2 0x337 DUP3 PUSH5 0xE8D4A51000 PUSH13 0x1000000000000000000000000 PUSH2 0x7B4 JUMP JUMPDEST DUP4 ADD SWAP1 POP PUSH1 0x0 PUSH2 0x350 DUP12 PUSH8 0xDE0B6B3A7640000 DUP5 PUSH2 0x7B4 JUMP JUMPDEST SWAP1 POP PUSH2 0x35D DUP7 DUP7 DUP4 PUSH2 0x88E JUMP JUMPDEST SWAP10 POP PUSH2 0x36A DUP7 DUP7 DUP4 PUSH2 0x949 JUMP JUMPDEST SWAP9 POP POP POP POP POP POP POP POP POP SWAP2 POP SWAP2 JUMP JUMPDEST PUSH1 0x0 DUP1 PUSH1 0x0 DUP4 PUSH1 0x2 SIGNEXTEND SLT PUSH2 0x390 JUMPI DUP3 PUSH1 0x2 SIGNEXTEND PUSH2 0x398 JUMP JUMPDEST DUP3 PUSH1 0x2 SIGNEXTEND PUSH1 0x0 SUB JUMPDEST SWAP1 POP PUSH32 0xFFFFFFFFFFFFFFFFFFFFFFFFFFFFFFFFFFFFFFFFFFFFFFFFFFFFFFFFFFF27618 PUSH1 0x0 SUB PUSH1 0x2 SIGNEXTEND DUP2 GT ISZERO PUSH2 0x436 JUMPI PUSH1 0x40 MLOAD PUSH32 0x8C379A000000000000000000000000000000000000000000000000000000000 DUP2 MSTORE PUSH1 0x4 ADD DUP1 DUP1 PUSH1 0x20 ADD DUP3 DUP2 SUB DUP3 MSTORE PUSH1 0x1 DUP2 MSTORE PUSH1 0x20 ADD DUP1 PUSH32 0x5400000000000000000000000000000000000000000000000000000000000000 DUP2 MSTORE POP PUSH1 0x20 ADD SWAP2 POP POP PUSH1 0x40 MLOAD DUP1 SWAP2 SUB SWAP1 REVERT JUMPDEST PUSH1 0x0 DUP1 PUSH1 0x1 DUP4 AND EQ ISZERO PUSH2 0x45A JUMPI PUSH17 0x100000000000000000000000000000000 PUSH2 0x46C JUMP JUMPDEST PUSH16 0xFFFCB933BD6FAD37AA2D162D1A594001 JUMPDEST PUSH17 0xFFFFFFFFFFFFFFFFFFFFFFFFFFFFFFFFFF AND SWAP1 POP PUSH1 0x0 PUSH1 0x2 DUP4 AND EQ PUSH2 0x4A6 JUMPI PUSH1 0x80 PUSH16 0xFFF97272373D413259A46990580E213A DUP3 MUL SWAP1 SHR SWAP1 POP JUMPDEST PUSH1 0x0 PUSH1 0x4 DUP4 AND EQ PUSH2 0x4CB JUMPI PUSH1 0x80 PUSH16 0xFFF2E50F5F656932EF12357CF3C7FDCC DUP3 MUL SWAP1 SHR SWAP1 POP JUMPDEST PUSH1 0x0 PUSH1 0x8 DUP4 AND EQ PUSH2 0x4F0 JUMPI PUSH1 0x80 PUSH16 0xFFE5CACA7E10E4E61C3624EAA0941CD0 DUP3 MUL SWAP1 SHR SWAP1 POP JUMPDEST PUSH1 0x0 PUSH1 0x10 DUP4 AND EQ PUSH2 0x515 JUMPI PUSH1 0x80 PUSH16 0xFFCB9843D60F6159C9DB58835C926644 DUP3 MUL SWAP1 SHR SWAP1 POP JUMPDEST PUSH1 0x0 PUSH1 0x20 DUP4 AND EQ PUSH2 0x53A JUMPI PUSH1 0x80 PUSH16 0xFF973B41FA98C081472E6896DFB254C0 DUP3 MUL SWAP1 SHR SWAP1 POP JUMPDEST PUSH1 0x0 PUSH1 0x40 DUP4 AND EQ PUSH2 0x55F JUMPI PUSH1 0x80 PUSH16 0xFF2EA16466C96A3843EC78B326B52861 DUP3 MUL SWAP1 SHR SWAP1 POP JUMPDEST PUSH1 0x0 PUSH1 0x80 DUP4 AND EQ PUSH2 0x584 JUMPI PUSH1 0x80 PUSH16 0xFE5DEE046A99A2A811C461F1969C3053 DUP3 MUL SWAP1 SHR SWAP1 POP JUMPDEST PUSH1 0x0 PUSH2 0x100 DUP4 AND EQ PUSH2 0x5AA JUMPI PUSH1 0x80 PUSH16 0xFCBE86C7900A88AEDCFFC83B479AA3A4 DUP3 MUL SWAP1 SHR SWAP1 POP JUMPDEST PUSH1 0x0 PUSH2 0x200 DUP4 AND EQ PUSH2 0x5D0 JUMPI PUSH1 0x80 PUSH16 0xF987A7253AC413176F2B074CF7815E54 DUP3 MUL SWAP1 SHR SWAP1 POP JUMPDEST PUSH1 0x0 PUSH2 0x400 DUP4 AND EQ PUSH2 0x5F6 JUMPI PUSH1 0x80 PUSH16 0xF3392B0822B70005940C7A398E4B70F3 DUP3 MUL SWAP1 SHR SWAP1 POP JUMPDEST PUSH1 0x0 PUSH2 0x800 DUP4 AND EQ PUSH2 0x61C JUMPI PUSH1 0x80 PUSH16 0xE7159475A2C29B7443B29C7FA6E889D9 DUP3 MUL SWAP1 SHR SWAP1 POP JUMPDEST PUSH1 0x0 PUSH2 0x1000 DUP4 AND EQ PUSH2 0x642 JUMPI PUSH1 0x80 PUSH16 0xD097F3BDFD2022B8845AD8F792AA5825 DUP3 MUL SWAP1 SHR SWAP1 POP JUMPDEST PUSH1 0x0 PUSH2 0x2000 DUP4 AND EQ PUSH2 0x668 JUMPI PUSH1 0x80 PUSH16 0xA9F746462D870FDF8A65DC1F90E061E5 DUP3 MUL SWAP1 SHR SWAP1 POP JUMPDEST PUSH1 0x0 PUSH2 0x4000 DUP4 AND EQ PUSH2 0x68E JUMPI PUSH1 0x80 PUSH16 0x70D869A156D2A1B890BB3DF62BAF32F7 DUP3 MUL SWAP1 SHR SWAP1 POP JUMPDEST PUSH1 0x0 PUSH2 0x8000 DUP4 AND EQ PUSH2 0x6B4 JUMPI PUSH1 0x80 PUSH16 0x31BE135F97D08FD981231505542FCFA6 DUP3 MUL SWAP1 SHR SWAP1 POP JUMPDEST PUSH1 0x0 PUSH3 0x10000 DUP4 AND EQ PUSH2 0x6DB JUMPI PUSH1 0x80 PUSH16 0x9AA508B5B7A84E1C677DE54F3E99BC9 DUP3 MUL SWAP1 SHR SWAP1 POP JUMPDEST PUSH1 0x0 PUSH3 0x20000 DUP4 AND EQ PUSH2 0x701 JUMPI PUSH1 0x80 PUSH15 0x5D6AF8DEDB81196699C329225EE604 DUP3 MUL SWAP1 SHR SWAP1 POP JUMPDEST PUSH1 0x0 PUSH3 0x40000 DUP4 AND EQ PUSH2 0x726 JUMPI PUSH1 0x80 PUSH14 0x2216E584F5FA1EA926041BEDFE98 DUP3 MUL SWAP1 SHR SWAP1 POP JUMPDEST PUSH1 0x0 PUSH3 0x80000 DUP4 AND EQ PUSH2 0x749 JUMPI PUSH1 0x80 PUSH12 0x48A170391F7DC42444E8FA2 DUP3 MUL SWAP1 SHR SWAP1 POP JUMPDEST PUSH1 0x0 DUP5 PUSH1 0x2 SIGNEXTEND SGT ISZERO PUSH2 0x782 JUMPI DUP1 PUSH32 0xFFFFFFFFFFFFFFFFFFFFFFFFFFFFFFFFFFFFFFFFFFFFFFFFFFFFFFFFFFFFFFFF DUP2 PUSH2 0x77E JUMPI INVALID JUMPDEST DIV SWAP1 POP JUMPDEST PUSH1 0x0 PUSH5 0x100000000 DUP3 DUP2 PUSH2 0x792 JUMPI INVALID JUMPDEST MOD EQ PUSH2 0x79F JUMPI PUSH1 0x1 PUSH2 0x7A2 JUMP JUMPDEST PUSH1 0x0 JUMPDEST PUSH1 0xFF AND PUSH1 0x20 DUP3 SWAP1 SHR ADD SWAP3 POP POP POP SWAP2 SWAP1 POP JUMP JUMPDEST PUSH1 0x0 DUP1 PUSH1 0x0 DUP1 NOT DUP6 DUP8 MULMOD DUP6 DUP8 MUL SWAP3 POP DUP3 DUP2 LT DUP4 DUP3 SUB SUB SWAP2 POP POP PUSH1 0x0 DUP2 EQ ISZERO PUSH2 0x7EF JUMPI PUSH1 0x0 DUP5 GT PUSH2 0x7E3 JUMPI PUSH1 0x0 DUP1 REVERT JUMPDEST DUP4 DUP3 DIV SWAP3 POP POP POP PUSH2 0x887 JUMP JUMPDEST DUP1 DUP5 GT PUSH2 0x7FB JUMPI PUSH1 0x0 DUP1 REVERT JUMPDEST PUSH1 0x0 DUP5 DUP7 DUP9 MULMOD SWAP1 POP DUP3 DUP2 GT DUP3 SUB SWAP2 POP DUP1 DUP4 SUB SWAP3 POP PUSH1 0x0 DUP6 DUP7 PUSH1 0x0 SUB AND SWAP1 POP DUP1 DUP7 DIV SWAP6 POP DUP1 DUP5 DIV SWAP4 POP PUSH1 0x1 DUP2 DUP3 PUSH1 0x0 SUB DIV ADD SWAP1 POP DUP1 DUP4 MUL DUP5 OR SWAP4 POP PUSH1 0x0 PUSH1 0x2 DUP8 PUSH1 0x3 MUL XOR SWAP1 POP DUP1 DUP8 MUL PUSH1 0x2 SUB DUP2 MUL SWAP1 POP DUP1 DUP8 MUL PUSH1 0x2 SUB DUP2 MUL SWAP1 POP DUP1 DUP8 MUL PUSH1 0x2 SUB DUP2 MUL SWAP1 POP DUP1 DUP8 MUL PUSH1 0x2 SUB DUP2 MUL SWAP1 POP DUP1 DUP8 MUL PUSH1 0x2 SUB DUP2 MUL SWAP1 POP DUP1 DUP8 MUL PUSH1 0x2 SUB DUP2 MUL SWAP1 POP DUP1 DUP6 MUL SWAP6 POP POP POP POP POP POP JUMPDEST SWAP4 SWAP3 POP POP POP JUMP JUMPDEST PUSH1 0x0 DUP3 PUSH20 0xFFFFFFFFFFFFFFFFFFFFFFFFFFFFFFFFFFFFFFFF AND DUP5 PUSH20 0xFFFFFFFFFFFFFFFFFFFFFFFFFFFFFFFFFFFFFFFF AND GT ISZERO PUSH2 0x8CF JUMPI DUP3 DUP5 DUP1 SWAP5 POP DUP2 SWAP6 POP POP POP JUMPDEST DUP4 PUSH20 0xFFFFFFFFFFFFFFFFFFFFFFFFFFFFFFFFFFFFFFFF AND PUSH2 0x938 PUSH1 0x60 PUSH1 0xFF AND DUP5 PUSH16 0xFFFFFFFFFFFFFFFFFFFFFFFFFFFFFFFF AND SWAP1 SHL DUP7 DUP7 SUB PUSH20 0xFFFFFFFFFFFFFFFFFFFFFFFFFFFFFFFFFFFFFFFF AND DUP7 PUSH20 0xFFFFFFFFFFFFFFFFFFFFFFFFFFFFFFFFFFFFFFFF AND PUSH2 0x7B4 JUMP JUMPDEST DUP2 PUSH2 0x93F JUMPI INVALID JUMPDEST DIV SWAP1 POP SWAP4 SWAP3 POP POP POP JUMP JUMPDEST PUSH1 0x0 DUP3 PUSH20 0xFFFFFFFFFFFFFFFFFFFFFFFFFFFFFFFFFFFFFFFF AND DUP5 PUSH20 0xFFFFFFFFFFFFFFFFFFFFFFFFFFFFFFFFFFFFFFFF AND GT ISZERO PUSH2 0x98A JUMPI DUP3 DUP5 DUP1 SWAP5 POP DUP2 SWAP6 POP POP POP JUMPDEST PUSH2 0x9CC DUP3 PUSH16 0xFFFFFFFFFFFFFFFFFFFFFFFFFFFFFFFF AND DUP6 DUP6 SUB PUSH20 0xFFFFFFFFFFFFFFFFFFFFFFFFFFFFFFFFFFFFFFFF AND PUSH13 0x1000000000000000000000000 PUSH2 0x7B4 JUMP JUMPDEST SWAP1 POP SWAP4 SWAP3 POP POP POP JUMP JUMPDEST PUSH1 0x0 DUP2 MLOAD SWAP1 POP PUSH2 0x9E4 DUP2 PUSH2 0xC28 JUMP JUMPDEST SWAP3 SWAP2 POP POP JUMP JUMPDEST PUSH1 0x0 DUP2 MLOAD SWAP1 POP PUSH2 0x9F9 DUP2 PUSH2 0xC3F JUMP JUMPDEST SWAP3 SWAP2 POP POP JUMP JUMPDEST PUSH1 0x0 DUP2 MLOAD SWAP1 POP PUSH2 0xA0E DUP2 PUSH2 0xC6D JUMP JUMPDEST SWAP3 SWAP2 POP POP JUMP JUMPDEST PUSH1 0x0 DUP2 MLOAD SWAP1 POP PUSH2 0xA23 DUP2 PUSH2 0xC56 JUMP JUMPDEST SWAP3 SWAP2 POP POP JUMP JUMPDEST PUSH1 0x0 DUP2 CALLDATALOAD SWAP1 POP PUSH2 0xA38 DUP2 PUSH2 0xC84 JUMP JUMPDEST SWAP3 SWAP2 POP POP JUMP JUMPDEST PUSH1 0x0 PUSH1 0x20 DUP3 DUP5 SUB SLT ISZERO PUSH2 0xA50 JUMPI PUSH1 0x0 DUP1 REVERT JUMPDEST PUSH1 0x0 PUSH2 0xA5E DUP5 DUP3 DUP6 ADD PUSH2 0x9EA JUMP JUMPDEST SWAP2 POP POP SWAP3 SWAP2 POP POP JUMP JUMPDEST PUSH1 0x0 DUP1 PUSH1 0x0 DUP1 PUSH1 0x0 DUP1 PUSH1 0xC0 DUP8 DUP10 SUB SLT ISZERO PUSH2 0xA80 JUMPI PUSH1 0x0 DUP1 REVERT JUMPDEST PUSH1 0x0 PUSH2 0xA8E DUP10 DUP3 DUP11 ADD PUSH2 0x9FF JUMP JUMPDEST SWAP7 POP POP PUSH1 0x20 PUSH2 0xA9F DUP10 DUP3 DUP11 ADD PUSH2 0x9EA JUMP JUMPDEST SWAP6 POP POP PUSH1 0x40 PUSH2 0xAB0 DUP10 DUP3 DUP11 ADD PUSH2 0xA14 JUMP JUMPDEST SWAP5 POP POP PUSH1 0x60 PUSH2 0xAC1 DUP10 DUP3 DUP11 ADD PUSH2 0xA14 JUMP JUMPDEST SWAP4 POP POP PUSH1 0x80 PUSH2 0xAD2 DUP10 DUP3 DUP11 ADD PUSH2 0xA14 JUMP JUMPDEST SWAP3 POP POP PUSH1 0xA0 PUSH2 0xAE3 DUP10 DUP3 DUP11 ADD PUSH2 0x9D5 JUMP JUMPDEST SWAP2 POP POP SWAP3 SWAP6 POP SWAP3 SWAP6 POP SWAP3 SWAP6 JUMP JUMPDEST PUSH1 0x0 PUSH1 0x20 DUP3 DUP5 SUB SLT ISZERO PUSH2 0xB02 JUMPI PUSH1 0x0 DUP1 REVERT JUMPDEST PUSH1 0x0 PUSH2 0xB10 DUP5 DUP3 DUP6 ADD PUSH2 0xA29 JUMP JUMPDEST SWAP2 POP POP SWAP3 SWAP2 POP POP JUMP JUMPDEST PUSH2 0xB22 DUP2 PUSH2 0xC04 JUMP JUMPDEST DUP3 MSTORE POP POP JUMP JUMPDEST PUSH2 0xB31 DUP2 PUSH2 0xBBF JUMP JUMPDEST DUP3 MSTORE POP POP JUMP JUMPDEST PUSH2 0xB40 DUP2 PUSH2 0xBFA JUMP JUMPDEST DUP3 MSTORE POP POP JUMP JUMPDEST PUSH1 0x0 PUSH1 0x20 DUP3 ADD SWAP1 POP PUSH2 0xB5B PUSH1 0x0 DUP4 ADD DUP5 PUSH2 0xB19 JUMP JUMPDEST SWAP3 SWAP2 POP POP JUMP JUMPDEST PUSH1 0x0 PUSH1 0x40 DUP3 ADD SWAP1 POP PUSH2 0xB76 PUSH1 0x0 DUP4 ADD DUP6 PUSH2 0xB28 JUMP JUMPDEST PUSH2 0xB83 PUSH1 0x20 DUP4 ADD DUP5 PUSH2 0xB28 JUMP JUMPDEST SWAP4 SWAP3 POP POP POP JUMP JUMPDEST PUSH1 0x0 PUSH1 0x40 DUP3 ADD SWAP1 POP PUSH2 0xB9F PUSH1 0x0 DUP4 ADD DUP6 PUSH2 0xB37 JUMP JUMPDEST PUSH2 0xBAC PUSH1 0x20 DUP4 ADD DUP5 PUSH2 0xB37 JUMP JUMPDEST SWAP4 SWAP3 POP POP POP JUMP JUMPDEST PUSH1 0x0 DUP2 ISZERO ISZERO SWAP1 POP SWAP2 SWAP1 POP JUMP JUMPDEST PUSH1 0x0 DUP2 PUSH1 0x2 SIGNEXTEND SWAP1 POP SWAP2 SWAP1 POP JUMP JUMPDEST PUSH1 0x0 PUSH2 0xFFFF DUP3 AND SWAP1 POP SWAP2 SWAP1 POP JUMP JUMPDEST PUSH1 0x0 PUSH20 0xFFFFFFFFFFFFFFFFFFFFFFFFFFFFFFFFFFFFFFFF DUP3 AND SWAP1 POP SWAP2 SWAP1 POP JUMP JUMPDEST PUSH1 0x0 DUP2 SWAP1 POP SWAP2 SWAP1 POP JUMP JUMPDEST PUSH1 0x0 PUSH2 0xC0F DUP3 PUSH2 0xC16 JUMP JUMPDEST SWAP1 POP SWAP2 SWAP1 POP JUMP JUMPDEST PUSH1 0x0 PUSH2 0xC21 DUP3 PUSH2 0xBDA JUMP JUMPDEST SWAP1 POP SWAP2 SWAP1 POP JUMP JUMPDEST PUSH2 0xC31 DUP2 PUSH2 0xBB3 JUMP JUMPDEST DUP2 EQ PUSH2 0xC3C JUMPI PUSH1 0x0 DUP1 REVERT JUMPDEST POP JUMP JUMPDEST PUSH2 0xC48 DUP2 PUSH2 0xBBF JUMP JUMPDEST DUP2 EQ PUSH2 0xC53 JUMPI PUSH1 0x0 DUP1 REVERT JUMPDEST POP JUMP JUMPDEST PUSH2 0xC5F DUP2 PUSH2 0xBCC JUMP JUMPDEST DUP2 EQ PUSH2 0xC6A JUMPI PUSH1 0x0 DUP1 REVERT JUMPDEST POP JUMP JUMPDEST PUSH2 0xC76 DUP2 PUSH2 0xBDA JUMP JUMPDEST DUP2 EQ PUSH2 0xC81 JUMPI PUSH1 0x0 DUP1 REVERT JUMPDEST POP JUMP JUMPDEST PUSH2 0xC8D DUP2 PUSH2 0xBFA JUMP JUMPDEST DUP2 EQ PUSH2 0xC98 JUMPI PUSH1 0x0 DUP1 REVERT JUMPDEST POP JUMP INVALID LOG2 PUSH5 0x6970667358 0x22 SLT KECCAK256 XOR 0xE0 0xCA 0x5C SWAP12 SWAP6 0xF9 PUSH7 0x658171286B62FA CALLDATACOPY 0xD2 PUSH2 0xB2BB 0xB2 CALLVALUE SWAP3 0xB8 LOG4 0x1F PUSH26 0x5ACA5594A164736F6C6343000706003300000000000000000000 "
				},
				"gasEstimates": {
					"creation": {
						"codeDepositCost": "656200",
						"executionCost": "infinite",
						"totalCost": "infinite"
					},
					"external": {
						"getLiquidityForAmounts(uint256)": "infinite",
						"getTicks()": "infinite",
						"pool()": "infinite"
					},
					"internal": {
						"getAmount0ForLiquidity(uint160,uint160,uint128)": "726",
						"getAmount1ForLiquidity(uint160,uint160,uint128)": "674"
					}
				},
				"methodIdentifiers": {
					"getLiquidityForAmounts(uint256)": "55912288",
					"getTicks()": "3d1c387b",
					"pool()": "16f0115b"
				}
			},
			"storageLayout": {
				"storage": [],
				"types": null
			},
			"userdoc": {
				"kind": "user",
				"methods": {},
				"version": 1
			}
		}
	}
}