{
	"contracts/core/veloex.sol": {
		"LiquidityCalculator": {
			"abi": [
				{
					"inputs": [
						{
							"internalType": "address",
							"name": "_pool",
							"type": "address"
						}
					],
					"stateMutability": "nonpayable",
					"type": "constructor"
				},
				{
					"inputs": [
						{
							"internalType": "uint128",
							"name": "liquidity",
							"type": "uint128"
						}
					],
					"name": "getTicks",
					"outputs": [
						{
							"internalType": "uint256",
							"name": "amount0",
							"type": "uint256"
						},
						{
							"internalType": "uint256",
							"name": "amount1",
							"type": "uint256"
						}
					],
					"stateMutability": "view",
					"type": "function"
				},
				{
					"inputs": [],
					"name": "pool",
					"outputs": [
						{
							"internalType": "contract ICLPool",
							"name": "",
							"type": "address"
						}
					],
					"stateMutability": "view",
					"type": "function"
				}
			],
			"devdoc": {
				"kind": "dev",
				"methods": {},
				"version": 1
			},
			"evm": {
				"assembly": "    /* \"contracts/core/veloex.sol\":588:3014  contract LiquidityCalculator {\r... */\n  mstore(0x40, 0xa0)\n    /* \"contracts/core/veloex.sol\":705:772  constructor(address _pool) {\r... */\n  callvalue\n  dup1\n  iszero\n  tag_1\n  jumpi\n  0x00\n  dup1\n  revert\ntag_1:\n  pop\n  mload(0x40)\n  sub(codesize, bytecodeSize)\n  dup1\n  bytecodeSize\n  dup4\n  codecopy\n  dup2\n  add\n  0x40\n  dup2\n  swap1\n  mstore\n  tag_2\n  swap2\n  tag_3\n  jump\t// in\ntag_2:\n    /* \"contracts/core/veloex.sol\":743:764  pool = ICLPool(_pool) */\n  0x60\n  shl\n  not(sub(shl(0x60, 0x01), 0x01))\n  and\n  0x80\n  mstore\n    /* \"contracts/core/veloex.sol\":588:3014  contract LiquidityCalculator {\r... */\n  jump(tag_7)\n    /* \"#utility.yul\":14:324   */\ntag_3:\n  0x00\n    /* \"#utility.yul\":137:139   */\n  0x20\n    /* \"#utility.yul\":125:134   */\n  dup3\n    /* \"#utility.yul\":116:123   */\n  dup5\n    /* \"#utility.yul\":112:135   */\n  sub\n    /* \"#utility.yul\":108:140   */\n  slt\n    /* \"#utility.yul\":105:107   */\n  iszero\n  tag_9\n  jumpi\n    /* \"#utility.yul\":158:164   */\n  dup1\n    /* \"#utility.yul\":150:156   */\n  dup2\n    /* \"#utility.yul\":143:165   */\n  revert\n    /* \"#utility.yul\":105:107   */\ntag_9:\n    /* \"#utility.yul\":189:205   */\n  dup2\n  mload\n  sub(shl(0xa0, 0x01), 0x01)\n    /* \"#utility.yul\":234:265   */\n  dup2\n  and\n    /* \"#utility.yul\":224:266   */\n  dup2\n  eq\n    /* \"#utility.yul\":214:216   */\n  tag_10\n  jumpi\n    /* \"#utility.yul\":285:291   */\n  dup2\n    /* \"#utility.yul\":277:283   */\n  dup3\n    /* \"#utility.yul\":270:292   */\n  revert\n    /* \"#utility.yul\":214:216   */\ntag_10:\n    /* \"#utility.yul\":313:318   */\n  swap4\n    /* \"#utility.yul\":95:324   */\n  swap3\n  pop\n  pop\n  pop\n  jump\t// out\ntag_7:\n    /* \"contracts/core/veloex.sol\":588:3014  contract LiquidityCalculator {\r... */\n  shr(0x60, mload(0x80))\n  codecopy(0x00, dataOffset(sub_0), dataSize(sub_0))\n  assignImmutable(\"0x235ea506f8f24891cbde253597b1f7d3e9bed6487402e80c8133808b8f9f2e70\")\n  return(0x00, dataSize(sub_0))\nstop\n\nsub_0: assembly {\n        /* \"contracts/core/veloex.sol\":588:3014  contract LiquidityCalculator {\r... */\n      mstore(0x40, 0x80)\n      callvalue\n      dup1\n      iszero\n      tag_1\n      jumpi\n      0x00\n      dup1\n      revert\n    tag_1:\n      pop\n      jumpi(tag_2, lt(calldatasize, 0x04))\n      shr(0xe0, calldataload(0x00))\n      dup1\n      0x16f0115b\n      eq\n      tag_3\n      jumpi\n      dup1\n      0xdd28c5c6\n      eq\n      tag_4\n      jumpi\n    tag_2:\n      0x00\n      dup1\n      revert\n        /* \"contracts/core/veloex.sol\":667:696  ICLPool public immutable pool */\n    tag_3:\n      tag_5\n      tag_6\n      jump\t// in\n    tag_5:\n      mload(0x40)\n      tag_7\n      swap2\n      swap1\n      tag_8\n      jump\t// in\n    tag_7:\n      mload(0x40)\n      dup1\n      swap2\n      sub\n      swap1\n      return\n        /* \"contracts/core/veloex.sol\":782:1803  function getTicks (uint128 liquidity) external view returns (uint amount0, uint amount1){\r... */\n    tag_4:\n      tag_9\n      tag_10\n      calldatasize\n      0x04\n      tag_11\n      jump\t// in\n    tag_10:\n      tag_12\n      jump\t// in\n    tag_9:\n      mload(0x40)\n      tag_7\n      swap3\n      swap2\n      swap1\n      tag_14\n      jump\t// in\n        /* \"contracts/core/veloex.sol\":667:696  ICLPool public immutable pool */\n    tag_6:\n      immutable(\"0x235ea506f8f24891cbde253597b1f7d3e9bed6487402e80c8133808b8f9f2e70\")\n      dup2\n      jump\t// out\n        /* \"contracts/core/veloex.sol\":782:1803  function getTicks (uint128 liquidity) external view returns (uint amount0, uint amount1){\r... */\n    tag_12:\n        /* \"contracts/core/veloex.sol\":843:855  uint amount0 */\n      0x00\n        /* \"contracts/core/veloex.sol\":857:869  uint amount1 */\n      dup1\n        /* \"contracts/core/veloex.sol\":1062:1079  int24 tickSpacing */\n      0x00\n        /* \"contracts/core/veloex.sol\":1099:1103  pool */\n      immutable(\"0x235ea506f8f24891cbde253597b1f7d3e9bed6487402e80c8133808b8f9f2e70\")\n      sub(shl(0xa0, 0x01), 0x01)\n        /* \"contracts/core/veloex.sol\":1082:1116  ICLPoolConstants(pool).tickSpacing */\n      and\n      0xd0c93a7c\n        /* \"contracts/core/veloex.sol\":1082:1118  ICLPoolConstants(pool).tickSpacing() */\n      mload(0x40)\n      dup2\n      0xffffffff\n      and\n      0xe0\n      shl\n      dup2\n      mstore\n      0x04\n      add\n      0x20\n      mload(0x40)\n      dup1\n      dup4\n      sub\n      dup2\n      dup7\n      dup1\n      extcodesize\n      iszero\n      dup1\n      iszero\n      tag_16\n      jumpi\n      0x00\n      dup1\n      revert\n    tag_16:\n      pop\n      gas\n      staticcall\n      iszero\n      dup1\n      iszero\n      tag_18\n      jumpi\n      returndatasize\n      0x00\n      dup1\n      returndatacopy\n      revert(0x00, returndatasize)\n    tag_18:\n      pop\n      pop\n      pop\n      pop\n      mload(0x40)\n      returndatasize\n      not(0x1f)\n      0x1f\n      dup3\n      add\n      and\n      dup3\n      add\n      dup1\n      0x40\n      mstore\n      pop\n      dup2\n      add\n      swap1\n      tag_19\n      swap2\n      swap1\n      tag_20\n      jump\t// in\n    tag_19:\n        /* \"contracts/core/veloex.sol\":1062:1118  int24 tickSpacing = ICLPoolConstants(pool).tickSpacing() */\n      swap1\n      pop\n        /* \"contracts/core/veloex.sol\":1130:1150  uint160 sqrtPriceX96 */\n      0x00\n        /* \"contracts/core/veloex.sol\":1152:1169  int24 currentTick */\n      dup1\n        /* \"contracts/core/veloex.sol\":1189:1193  pool */\n      immutable(\"0x235ea506f8f24891cbde253597b1f7d3e9bed6487402e80c8133808b8f9f2e70\")\n      sub(shl(0xa0, 0x01), 0x01)\n        /* \"contracts/core/veloex.sol\":1181:1200  ICLPool(pool).slot0 */\n      and\n      0x3850c7bd\n        /* \"contracts/core/veloex.sol\":1181:1202  ICLPool(pool).slot0() */\n      mload(0x40)\n      dup2\n      0xffffffff\n      and\n      0xe0\n      shl\n      dup2\n      mstore\n      0x04\n      add\n      0xc0\n      mload(0x40)\n      dup1\n      dup4\n      sub\n      dup2\n      dup7\n      dup1\n      extcodesize\n      iszero\n      dup1\n      iszero\n      tag_21\n      jumpi\n      0x00\n      dup1\n      revert\n    tag_21:\n      pop\n      gas\n      staticcall\n      iszero\n      dup1\n      iszero\n      tag_23\n      jumpi\n      returndatasize\n      0x00\n      dup1\n      returndatacopy\n      revert(0x00, returndatasize)\n    tag_23:\n      pop\n      pop\n      pop\n      pop\n      mload(0x40)\n      returndatasize\n      not(0x1f)\n      0x1f\n      dup3\n      add\n      and\n      dup3\n      add\n      dup1\n      0x40\n      mstore\n      pop\n      dup2\n      add\n      swap1\n      tag_24\n      swap2\n      swap1\n      tag_25\n      jump\t// in\n    tag_24:\n        /* \"contracts/core/veloex.sol\":1129:1202  (uint160 sqrtPriceX96, int24 currentTick, , , , ) = ICLPool(pool).slot0() */\n      pop\n      pop\n      pop\n      pop\n      swap2\n      pop\n      swap2\n      pop\n        /* \"contracts/core/veloex.sol\":1257:1268  tickSpacing */\n      dup3\n        /* \"contracts/core/veloex.sol\":1242:1253  tickSpacing */\n      dup4\n        /* \"contracts/core/veloex.sol\":1228:1253  currentTick / tickSpacing */\n      0x02\n      signextend\n        /* \"contracts/core/veloex.sol\":1228:1239  currentTick */\n      dup3\n        /* \"contracts/core/veloex.sol\":1228:1253  currentTick / tickSpacing */\n      0x02\n      signextend\n      dup2\n      tag_26\n      jumpi\n      invalid\n    tag_26:\n      sdiv\n        /* \"contracts/core/veloex.sol\":1227:1268  (currentTick / tickSpacing) * tickSpacing */\n      mul\n      swap1\n      pop\n        /* \"contracts/core/veloex.sol\":1295:1320  currentTick - tickSpacing */\n      dup3\n      dup2\n      sub\n        /* \"contracts/core/veloex.sol\":1348:1373  currentTick + tickSpacing */\n      dup4\n      dup3\n      add\n        /* \"contracts/core/veloex.sol\":1279:1292  int24 lowTick */\n      0x00\n        /* \"contracts/core/veloex.sol\":1409:1445  TickMath.getSqrtRatioAtTick(lowTick) */\n      tag_27\n        /* \"contracts/core/veloex.sol\":1295:1320  currentTick - tickSpacing */\n      dup4\n        /* \"contracts/core/veloex.sol\":1409:1436  TickMath.getSqrtRatioAtTick */\n      tag_28\n        /* \"contracts/core/veloex.sol\":1409:1445  TickMath.getSqrtRatioAtTick(lowTick) */\n      jump\t// in\n    tag_27:\n        /* \"contracts/core/veloex.sol\":1384:1445  uint160 sqrtPriceLower = TickMath.getSqrtRatioAtTick(lowTick) */\n      swap1\n      pop\n        /* \"contracts/core/veloex.sol\":1456:1478  uint160 sqrtPriceUpper */\n      0x00\n        /* \"contracts/core/veloex.sol\":1481:1518  TickMath.getSqrtRatioAtTick(highTick) */\n      tag_29\n        /* \"contracts/core/veloex.sol\":1509:1517  highTick */\n      dup4\n        /* \"contracts/core/veloex.sol\":1481:1508  TickMath.getSqrtRatioAtTick */\n      tag_28\n        /* \"contracts/core/veloex.sol\":1481:1518  TickMath.getSqrtRatioAtTick(highTick) */\n      jump\t// in\n    tag_29:\n        /* \"contracts/core/veloex.sol\":1456:1518  uint160 sqrtPriceUpper = TickMath.getSqrtRatioAtTick(highTick) */\n      swap1\n      pop\n        /* \"contracts/core/veloex.sol\":1594:1659  getAmount0ForLiquidity(sqrtPriceLower, sqrtPriceUpper, liquidity) */\n      tag_30\n        /* \"contracts/core/veloex.sol\":1617:1631  sqrtPriceLower */\n      dup3\n        /* \"contracts/core/veloex.sol\":1633:1647  sqrtPriceUpper */\n      dup3\n        /* \"contracts/core/veloex.sol\":1649:1658  liquidity */\n      dup13\n        /* \"contracts/core/veloex.sol\":1594:1616  getAmount0ForLiquidity */\n      tag_31\n        /* \"contracts/core/veloex.sol\":1594:1659  getAmount0ForLiquidity(sqrtPriceLower, sqrtPriceUpper, liquidity) */\n      jump\t// in\n    tag_30:\n        /* \"contracts/core/veloex.sol\":1584:1659  amount0 = getAmount0ForLiquidity(sqrtPriceLower, sqrtPriceUpper, liquidity) */\n      swap9\n      pop\n        /* \"contracts/core/veloex.sol\":1680:1745  getAmount1ForLiquidity(sqrtPriceLower, sqrtPriceUpper, liquidity) */\n      tag_32\n        /* \"contracts/core/veloex.sol\":1703:1717  sqrtPriceLower */\n      dup3\n        /* \"contracts/core/veloex.sol\":1719:1733  sqrtPriceUpper */\n      dup3\n        /* \"contracts/core/veloex.sol\":1735:1744  liquidity */\n      dup13\n        /* \"contracts/core/veloex.sol\":1680:1702  getAmount1ForLiquidity */\n      tag_33\n        /* \"contracts/core/veloex.sol\":1680:1745  getAmount1ForLiquidity(sqrtPriceLower, sqrtPriceUpper, liquidity) */\n      jump\t// in\n    tag_32:\n        /* \"contracts/core/veloex.sol\":1670:1745  amount1 = getAmount1ForLiquidity(sqrtPriceLower, sqrtPriceUpper, liquidity) */\n      swap8\n      pop\n        /* \"contracts/core/veloex.sol\":1766:1791  return (amount0, amount1) */\n      pop\n      pop\n      pop\n      pop\n      pop\n      pop\n      pop\n        /* \"contracts/core/veloex.sol\":782:1803  function getTicks (uint128 liquidity) external view returns (uint amount0, uint amount1){\r... */\n      swap2\n      pop\n      swap2\n      jump\t// out\n        /* \"contracts/core/libraries/TickMath.sol\":1362:3942  function getSqrtRatioAtTick(int24 tick) internal pure returns (uint160 sqrtPriceX96) {... */\n    tag_28:\n        /* \"contracts/core/libraries/TickMath.sol\":1425:1445  uint160 sqrtPriceX96 */\n      0x00\n        /* \"contracts/core/libraries/TickMath.sol\":1457:1472  uint256 absTick */\n      dup1\n        /* \"contracts/core/libraries/TickMath.sol\":1482:1483  0 */\n      0x00\n        /* \"contracts/core/libraries/TickMath.sol\":1475:1479  tick */\n      dup4\n        /* \"contracts/core/libraries/TickMath.sol\":1475:1483  tick < 0 */\n      0x02\n      signextend\n      slt\n        /* \"contracts/core/libraries/TickMath.sol\":1475:1532  tick < 0 ? uint256(-int256(tick)) : uint256(int256(tick)) */\n      tag_35\n      jumpi\n        /* \"contracts/core/libraries/TickMath.sol\":1526:1530  tick */\n      dup3\n        /* \"contracts/core/libraries/TickMath.sol\":1519:1531  int256(tick) */\n      0x02\n      signextend\n        /* \"contracts/core/libraries/TickMath.sol\":1475:1532  tick < 0 ? uint256(-int256(tick)) : uint256(int256(tick)) */\n      jump(tag_36)\n    tag_35:\n        /* \"contracts/core/libraries/TickMath.sol\":1502:1506  tick */\n      dup3\n        /* \"contracts/core/libraries/TickMath.sol\":1495:1507  int256(tick) */\n      0x02\n      signextend\n        /* \"contracts/core/libraries/TickMath.sol\":1494:1507  -int256(tick) */\n      0x00\n      sub\n        /* \"contracts/core/libraries/TickMath.sol\":1475:1532  tick < 0 ? uint256(-int256(tick)) : uint256(int256(tick)) */\n    tag_36:\n        /* \"contracts/core/libraries/TickMath.sol\":1457:1532  uint256 absTick = tick < 0 ? uint256(-int256(tick)) : uint256(int256(tick)) */\n      swap1\n      pop\n        /* \"contracts/core/libraries/TickMath.sol\":644:653  -MIN_TICK */\n      0x0d89e8\n        /* \"contracts/core/libraries/TickMath.sol\":1550:1578  absTick <= uint256(MAX_TICK) */\n      dup2\n      gt\n      iszero\n        /* \"contracts/core/libraries/TickMath.sol\":1542:1584  require(absTick <= uint256(MAX_TICK), \"T\") */\n      tag_37\n      jumpi\n      0x40\n      dup1\n      mload\n      shl(0xe5, 0x461bcd)\n      dup2\n      mstore\n      0x20\n      0x04\n      dup3\n      add\n      mstore\n      0x01\n      0x24\n      dup3\n      add\n      mstore\n      shl(0xfa, 0x15)\n      0x44\n      dup3\n      add\n      mstore\n      swap1\n      mload\n      swap1\n      dup2\n      swap1\n      sub\n      0x64\n      add\n      swap1\n      revert\n    tag_37:\n        /* \"contracts/core/libraries/TickMath.sol\":1595:1608  uint256 ratio */\n      0x00\n        /* \"contracts/core/libraries/TickMath.sol\":1621:1624  0x1 */\n      0x01\n        /* \"contracts/core/libraries/TickMath.sol\":1611:1624  absTick & 0x1 */\n      dup3\n      and\n        /* \"contracts/core/libraries/TickMath.sol\":1611:1704  absTick & 0x1 != 0 ? 0xfffcb933bd6fad37aa2d162d1a594001 : 0x100000000000000000000000000000000 */\n      tag_38\n      jumpi\n      shl(0x80, 0x01)\n      jump(tag_39)\n    tag_38:\n        /* \"contracts/core/libraries/TickMath.sol\":1632:1666  0xfffcb933bd6fad37aa2d162d1a594001 */\n      0xfffcb933bd6fad37aa2d162d1a594001\n        /* \"contracts/core/libraries/TickMath.sol\":1611:1704  absTick & 0x1 != 0 ? 0xfffcb933bd6fad37aa2d162d1a594001 : 0x100000000000000000000000000000000 */\n    tag_39:\n        /* \"contracts/core/libraries/TickMath.sol\":1595:1704  uint256 ratio = absTick & 0x1 != 0 ? 0xfffcb933bd6fad37aa2d162d1a594001 : 0x100000000000000000000000000000000 */\n      0xffffffffffffffffffffffffffffffffff\n      and\n      swap1\n      pop\n        /* \"contracts/core/libraries/TickMath.sol\":1728:1731  0x2 */\n      0x02\n        /* \"contracts/core/libraries/TickMath.sol\":1718:1731  absTick & 0x2 */\n      dup3\n      and\n        /* \"contracts/core/libraries/TickMath.sol\":1718:1736  absTick & 0x2 != 0 */\n      iszero\n        /* \"contracts/core/libraries/TickMath.sol\":1714:1797  if (absTick & 0x2 != 0) ratio = (ratio * 0xfff97272373d413259a46990580e213a) >> 128 */\n      tag_40\n      jumpi\n        /* \"contracts/core/libraries/TickMath.sol\":1755:1789  0xfff97272373d413259a46990580e213a */\n      0xfff97272373d413259a46990580e213a\n        /* \"contracts/core/libraries/TickMath.sol\":1747:1789  ratio * 0xfff97272373d413259a46990580e213a */\n      mul\n        /* \"contracts/core/libraries/TickMath.sol\":1794:1797  128 */\n      0x80\n        /* \"contracts/core/libraries/TickMath.sol\":1746:1797  (ratio * 0xfff97272373d413259a46990580e213a) >> 128 */\n      shr\n        /* \"contracts/core/libraries/TickMath.sol\":1714:1797  if (absTick & 0x2 != 0) ratio = (ratio * 0xfff97272373d413259a46990580e213a) >> 128 */\n    tag_40:\n        /* \"contracts/core/libraries/TickMath.sol\":1821:1824  0x4 */\n      0x04\n        /* \"contracts/core/libraries/TickMath.sol\":1811:1824  absTick & 0x4 */\n      dup3\n      and\n        /* \"contracts/core/libraries/TickMath.sol\":1811:1829  absTick & 0x4 != 0 */\n      iszero\n        /* \"contracts/core/libraries/TickMath.sol\":1807:1890  if (absTick & 0x4 != 0) ratio = (ratio * 0xfff2e50f5f656932ef12357cf3c7fdcc) >> 128 */\n      tag_41\n      jumpi\n        /* \"contracts/core/libraries/TickMath.sol\":1848:1882  0xfff2e50f5f656932ef12357cf3c7fdcc */\n      0xfff2e50f5f656932ef12357cf3c7fdcc\n        /* \"contracts/core/libraries/TickMath.sol\":1840:1882  ratio * 0xfff2e50f5f656932ef12357cf3c7fdcc */\n      mul\n        /* \"contracts/core/libraries/TickMath.sol\":1887:1890  128 */\n      0x80\n        /* \"contracts/core/libraries/TickMath.sol\":1839:1890  (ratio * 0xfff2e50f5f656932ef12357cf3c7fdcc) >> 128 */\n      shr\n        /* \"contracts/core/libraries/TickMath.sol\":1807:1890  if (absTick & 0x4 != 0) ratio = (ratio * 0xfff2e50f5f656932ef12357cf3c7fdcc) >> 128 */\n    tag_41:\n        /* \"contracts/core/libraries/TickMath.sol\":1914:1917  0x8 */\n      0x08\n        /* \"contracts/core/libraries/TickMath.sol\":1904:1917  absTick & 0x8 */\n      dup3\n      and\n        /* \"contracts/core/libraries/TickMath.sol\":1904:1922  absTick & 0x8 != 0 */\n      iszero\n        /* \"contracts/core/libraries/TickMath.sol\":1900:1983  if (absTick & 0x8 != 0) ratio = (ratio * 0xffe5caca7e10e4e61c3624eaa0941cd0) >> 128 */\n      tag_42\n      jumpi\n        /* \"contracts/core/libraries/TickMath.sol\":1941:1975  0xffe5caca7e10e4e61c3624eaa0941cd0 */\n      0xffe5caca7e10e4e61c3624eaa0941cd0\n        /* \"contracts/core/libraries/TickMath.sol\":1933:1975  ratio * 0xffe5caca7e10e4e61c3624eaa0941cd0 */\n      mul\n        /* \"contracts/core/libraries/TickMath.sol\":1980:1983  128 */\n      0x80\n        /* \"contracts/core/libraries/TickMath.sol\":1932:1983  (ratio * 0xffe5caca7e10e4e61c3624eaa0941cd0) >> 128 */\n      shr\n        /* \"contracts/core/libraries/TickMath.sol\":1900:1983  if (absTick & 0x8 != 0) ratio = (ratio * 0xffe5caca7e10e4e61c3624eaa0941cd0) >> 128 */\n    tag_42:\n        /* \"contracts/core/libraries/TickMath.sol\":2007:2011  0x10 */\n      0x10\n        /* \"contracts/core/libraries/TickMath.sol\":1997:2011  absTick & 0x10 */\n      dup3\n      and\n        /* \"contracts/core/libraries/TickMath.sol\":1997:2016  absTick & 0x10 != 0 */\n      iszero\n        /* \"contracts/core/libraries/TickMath.sol\":1993:2077  if (absTick & 0x10 != 0) ratio = (ratio * 0xffcb9843d60f6159c9db58835c926644) >> 128 */\n      tag_43\n      jumpi\n        /* \"contracts/core/libraries/TickMath.sol\":2035:2069  0xffcb9843d60f6159c9db58835c926644 */\n      0xffcb9843d60f6159c9db58835c926644\n        /* \"contracts/core/libraries/TickMath.sol\":2027:2069  ratio * 0xffcb9843d60f6159c9db58835c926644 */\n      mul\n        /* \"contracts/core/libraries/TickMath.sol\":2074:2077  128 */\n      0x80\n        /* \"contracts/core/libraries/TickMath.sol\":2026:2077  (ratio * 0xffcb9843d60f6159c9db58835c926644) >> 128 */\n      shr\n        /* \"contracts/core/libraries/TickMath.sol\":1993:2077  if (absTick & 0x10 != 0) ratio = (ratio * 0xffcb9843d60f6159c9db58835c926644) >> 128 */\n    tag_43:\n        /* \"contracts/core/libraries/TickMath.sol\":2101:2105  0x20 */\n      0x20\n        /* \"contracts/core/libraries/TickMath.sol\":2091:2105  absTick & 0x20 */\n      dup3\n      and\n        /* \"contracts/core/libraries/TickMath.sol\":2091:2110  absTick & 0x20 != 0 */\n      iszero\n        /* \"contracts/core/libraries/TickMath.sol\":2087:2171  if (absTick & 0x20 != 0) ratio = (ratio * 0xff973b41fa98c081472e6896dfb254c0) >> 128 */\n      tag_44\n      jumpi\n        /* \"contracts/core/libraries/TickMath.sol\":2129:2163  0xff973b41fa98c081472e6896dfb254c0 */\n      0xff973b41fa98c081472e6896dfb254c0\n        /* \"contracts/core/libraries/TickMath.sol\":2121:2163  ratio * 0xff973b41fa98c081472e6896dfb254c0 */\n      mul\n        /* \"contracts/core/libraries/TickMath.sol\":2168:2171  128 */\n      0x80\n        /* \"contracts/core/libraries/TickMath.sol\":2120:2171  (ratio * 0xff973b41fa98c081472e6896dfb254c0) >> 128 */\n      shr\n        /* \"contracts/core/libraries/TickMath.sol\":2087:2171  if (absTick & 0x20 != 0) ratio = (ratio * 0xff973b41fa98c081472e6896dfb254c0) >> 128 */\n    tag_44:\n        /* \"contracts/core/libraries/TickMath.sol\":2195:2199  0x40 */\n      0x40\n        /* \"contracts/core/libraries/TickMath.sol\":2185:2199  absTick & 0x40 */\n      dup3\n      and\n        /* \"contracts/core/libraries/TickMath.sol\":2185:2204  absTick & 0x40 != 0 */\n      iszero\n        /* \"contracts/core/libraries/TickMath.sol\":2181:2265  if (absTick & 0x40 != 0) ratio = (ratio * 0xff2ea16466c96a3843ec78b326b52861) >> 128 */\n      tag_45\n      jumpi\n        /* \"contracts/core/libraries/TickMath.sol\":2223:2257  0xff2ea16466c96a3843ec78b326b52861 */\n      0xff2ea16466c96a3843ec78b326b52861\n        /* \"contracts/core/libraries/TickMath.sol\":2215:2257  ratio * 0xff2ea16466c96a3843ec78b326b52861 */\n      mul\n        /* \"contracts/core/libraries/TickMath.sol\":2262:2265  128 */\n      0x80\n        /* \"contracts/core/libraries/TickMath.sol\":2214:2265  (ratio * 0xff2ea16466c96a3843ec78b326b52861) >> 128 */\n      shr\n        /* \"contracts/core/libraries/TickMath.sol\":2181:2265  if (absTick & 0x40 != 0) ratio = (ratio * 0xff2ea16466c96a3843ec78b326b52861) >> 128 */\n    tag_45:\n        /* \"contracts/core/libraries/TickMath.sol\":2289:2293  0x80 */\n      0x80\n        /* \"contracts/core/libraries/TickMath.sol\":2279:2293  absTick & 0x80 */\n      dup3\n      and\n        /* \"contracts/core/libraries/TickMath.sol\":2279:2298  absTick & 0x80 != 0 */\n      iszero\n        /* \"contracts/core/libraries/TickMath.sol\":2275:2359  if (absTick & 0x80 != 0) ratio = (ratio * 0xfe5dee046a99a2a811c461f1969c3053) >> 128 */\n      tag_46\n      jumpi\n        /* \"contracts/core/libraries/TickMath.sol\":2317:2351  0xfe5dee046a99a2a811c461f1969c3053 */\n      0xfe5dee046a99a2a811c461f1969c3053\n        /* \"contracts/core/libraries/TickMath.sol\":2309:2351  ratio * 0xfe5dee046a99a2a811c461f1969c3053 */\n      mul\n        /* \"contracts/core/libraries/TickMath.sol\":2356:2359  128 */\n      0x80\n        /* \"contracts/core/libraries/TickMath.sol\":2308:2359  (ratio * 0xfe5dee046a99a2a811c461f1969c3053) >> 128 */\n      shr\n        /* \"contracts/core/libraries/TickMath.sol\":2275:2359  if (absTick & 0x80 != 0) ratio = (ratio * 0xfe5dee046a99a2a811c461f1969c3053) >> 128 */\n    tag_46:\n        /* \"contracts/core/libraries/TickMath.sol\":2383:2388  0x100 */\n      0x0100\n        /* \"contracts/core/libraries/TickMath.sol\":2373:2388  absTick & 0x100 */\n      dup3\n      and\n        /* \"contracts/core/libraries/TickMath.sol\":2373:2393  absTick & 0x100 != 0 */\n      iszero\n        /* \"contracts/core/libraries/TickMath.sol\":2369:2454  if (absTick & 0x100 != 0) ratio = (ratio * 0xfcbe86c7900a88aedcffc83b479aa3a4) >> 128 */\n      tag_47\n      jumpi\n        /* \"contracts/core/libraries/TickMath.sol\":2412:2446  0xfcbe86c7900a88aedcffc83b479aa3a4 */\n      0xfcbe86c7900a88aedcffc83b479aa3a4\n        /* \"contracts/core/libraries/TickMath.sol\":2404:2446  ratio * 0xfcbe86c7900a88aedcffc83b479aa3a4 */\n      mul\n        /* \"contracts/core/libraries/TickMath.sol\":2451:2454  128 */\n      0x80\n        /* \"contracts/core/libraries/TickMath.sol\":2403:2454  (ratio * 0xfcbe86c7900a88aedcffc83b479aa3a4) >> 128 */\n      shr\n        /* \"contracts/core/libraries/TickMath.sol\":2369:2454  if (absTick & 0x100 != 0) ratio = (ratio * 0xfcbe86c7900a88aedcffc83b479aa3a4) >> 128 */\n    tag_47:\n        /* \"contracts/core/libraries/TickMath.sol\":2478:2483  0x200 */\n      0x0200\n        /* \"contracts/core/libraries/TickMath.sol\":2468:2483  absTick & 0x200 */\n      dup3\n      and\n        /* \"contracts/core/libraries/TickMath.sol\":2468:2488  absTick & 0x200 != 0 */\n      iszero\n        /* \"contracts/core/libraries/TickMath.sol\":2464:2549  if (absTick & 0x200 != 0) ratio = (ratio * 0xf987a7253ac413176f2b074cf7815e54) >> 128 */\n      tag_48\n      jumpi\n        /* \"contracts/core/libraries/TickMath.sol\":2507:2541  0xf987a7253ac413176f2b074cf7815e54 */\n      0xf987a7253ac413176f2b074cf7815e54\n        /* \"contracts/core/libraries/TickMath.sol\":2499:2541  ratio * 0xf987a7253ac413176f2b074cf7815e54 */\n      mul\n        /* \"contracts/core/libraries/TickMath.sol\":2546:2549  128 */\n      0x80\n        /* \"contracts/core/libraries/TickMath.sol\":2498:2549  (ratio * 0xf987a7253ac413176f2b074cf7815e54) >> 128 */\n      shr\n        /* \"contracts/core/libraries/TickMath.sol\":2464:2549  if (absTick & 0x200 != 0) ratio = (ratio * 0xf987a7253ac413176f2b074cf7815e54) >> 128 */\n    tag_48:\n        /* \"contracts/core/libraries/TickMath.sol\":2573:2578  0x400 */\n      0x0400\n        /* \"contracts/core/libraries/TickMath.sol\":2563:2578  absTick & 0x400 */\n      dup3\n      and\n        /* \"contracts/core/libraries/TickMath.sol\":2563:2583  absTick & 0x400 != 0 */\n      iszero\n        /* \"contracts/core/libraries/TickMath.sol\":2559:2644  if (absTick & 0x400 != 0) ratio = (ratio * 0xf3392b0822b70005940c7a398e4b70f3) >> 128 */\n      tag_49\n      jumpi\n        /* \"contracts/core/libraries/TickMath.sol\":2602:2636  0xf3392b0822b70005940c7a398e4b70f3 */\n      0xf3392b0822b70005940c7a398e4b70f3\n        /* \"contracts/core/libraries/TickMath.sol\":2594:2636  ratio * 0xf3392b0822b70005940c7a398e4b70f3 */\n      mul\n        /* \"contracts/core/libraries/TickMath.sol\":2641:2644  128 */\n      0x80\n        /* \"contracts/core/libraries/TickMath.sol\":2593:2644  (ratio * 0xf3392b0822b70005940c7a398e4b70f3) >> 128 */\n      shr\n        /* \"contracts/core/libraries/TickMath.sol\":2559:2644  if (absTick & 0x400 != 0) ratio = (ratio * 0xf3392b0822b70005940c7a398e4b70f3) >> 128 */\n    tag_49:\n        /* \"contracts/core/libraries/TickMath.sol\":2668:2673  0x800 */\n      0x0800\n        /* \"contracts/core/libraries/TickMath.sol\":2658:2673  absTick & 0x800 */\n      dup3\n      and\n        /* \"contracts/core/libraries/TickMath.sol\":2658:2678  absTick & 0x800 != 0 */\n      iszero\n        /* \"contracts/core/libraries/TickMath.sol\":2654:2739  if (absTick & 0x800 != 0) ratio = (ratio * 0xe7159475a2c29b7443b29c7fa6e889d9) >> 128 */\n      tag_50\n      jumpi\n        /* \"contracts/core/libraries/TickMath.sol\":2697:2731  0xe7159475a2c29b7443b29c7fa6e889d9 */\n      0xe7159475a2c29b7443b29c7fa6e889d9\n        /* \"contracts/core/libraries/TickMath.sol\":2689:2731  ratio * 0xe7159475a2c29b7443b29c7fa6e889d9 */\n      mul\n        /* \"contracts/core/libraries/TickMath.sol\":2736:2739  128 */\n      0x80\n        /* \"contracts/core/libraries/TickMath.sol\":2688:2739  (ratio * 0xe7159475a2c29b7443b29c7fa6e889d9) >> 128 */\n      shr\n        /* \"contracts/core/libraries/TickMath.sol\":2654:2739  if (absTick & 0x800 != 0) ratio = (ratio * 0xe7159475a2c29b7443b29c7fa6e889d9) >> 128 */\n    tag_50:\n        /* \"contracts/core/libraries/TickMath.sol\":2763:2769  0x1000 */\n      0x1000\n        /* \"contracts/core/libraries/TickMath.sol\":2753:2769  absTick & 0x1000 */\n      dup3\n      and\n        /* \"contracts/core/libraries/TickMath.sol\":2753:2774  absTick & 0x1000 != 0 */\n      iszero\n        /* \"contracts/core/libraries/TickMath.sol\":2749:2835  if (absTick & 0x1000 != 0) ratio = (ratio * 0xd097f3bdfd2022b8845ad8f792aa5825) >> 128 */\n      tag_51\n      jumpi\n        /* \"contracts/core/libraries/TickMath.sol\":2793:2827  0xd097f3bdfd2022b8845ad8f792aa5825 */\n      0xd097f3bdfd2022b8845ad8f792aa5825\n        /* \"contracts/core/libraries/TickMath.sol\":2785:2827  ratio * 0xd097f3bdfd2022b8845ad8f792aa5825 */\n      mul\n        /* \"contracts/core/libraries/TickMath.sol\":2832:2835  128 */\n      0x80\n        /* \"contracts/core/libraries/TickMath.sol\":2784:2835  (ratio * 0xd097f3bdfd2022b8845ad8f792aa5825) >> 128 */\n      shr\n        /* \"contracts/core/libraries/TickMath.sol\":2749:2835  if (absTick & 0x1000 != 0) ratio = (ratio * 0xd097f3bdfd2022b8845ad8f792aa5825) >> 128 */\n    tag_51:\n        /* \"contracts/core/libraries/TickMath.sol\":2859:2865  0x2000 */\n      0x2000\n        /* \"contracts/core/libraries/TickMath.sol\":2849:2865  absTick & 0x2000 */\n      dup3\n      and\n        /* \"contracts/core/libraries/TickMath.sol\":2849:2870  absTick & 0x2000 != 0 */\n      iszero\n        /* \"contracts/core/libraries/TickMath.sol\":2845:2931  if (absTick & 0x2000 != 0) ratio = (ratio * 0xa9f746462d870fdf8a65dc1f90e061e5) >> 128 */\n      tag_52\n      jumpi\n        /* \"contracts/core/libraries/TickMath.sol\":2889:2923  0xa9f746462d870fdf8a65dc1f90e061e5 */\n      0xa9f746462d870fdf8a65dc1f90e061e5\n        /* \"contracts/core/libraries/TickMath.sol\":2881:2923  ratio * 0xa9f746462d870fdf8a65dc1f90e061e5 */\n      mul\n        /* \"contracts/core/libraries/TickMath.sol\":2928:2931  128 */\n      0x80\n        /* \"contracts/core/libraries/TickMath.sol\":2880:2931  (ratio * 0xa9f746462d870fdf8a65dc1f90e061e5) >> 128 */\n      shr\n        /* \"contracts/core/libraries/TickMath.sol\":2845:2931  if (absTick & 0x2000 != 0) ratio = (ratio * 0xa9f746462d870fdf8a65dc1f90e061e5) >> 128 */\n    tag_52:\n        /* \"contracts/core/libraries/TickMath.sol\":2955:2961  0x4000 */\n      0x4000\n        /* \"contracts/core/libraries/TickMath.sol\":2945:2961  absTick & 0x4000 */\n      dup3\n      and\n        /* \"contracts/core/libraries/TickMath.sol\":2945:2966  absTick & 0x4000 != 0 */\n      iszero\n        /* \"contracts/core/libraries/TickMath.sol\":2941:3027  if (absTick & 0x4000 != 0) ratio = (ratio * 0x70d869a156d2a1b890bb3df62baf32f7) >> 128 */\n      tag_53\n      jumpi\n        /* \"contracts/core/libraries/TickMath.sol\":2985:3019  0x70d869a156d2a1b890bb3df62baf32f7 */\n      0x70d869a156d2a1b890bb3df62baf32f7\n        /* \"contracts/core/libraries/TickMath.sol\":2977:3019  ratio * 0x70d869a156d2a1b890bb3df62baf32f7 */\n      mul\n        /* \"contracts/core/libraries/TickMath.sol\":3024:3027  128 */\n      0x80\n        /* \"contracts/core/libraries/TickMath.sol\":2976:3027  (ratio * 0x70d869a156d2a1b890bb3df62baf32f7) >> 128 */\n      shr\n        /* \"contracts/core/libraries/TickMath.sol\":2941:3027  if (absTick & 0x4000 != 0) ratio = (ratio * 0x70d869a156d2a1b890bb3df62baf32f7) >> 128 */\n    tag_53:\n        /* \"contracts/core/libraries/TickMath.sol\":3051:3057  0x8000 */\n      0x8000\n        /* \"contracts/core/libraries/TickMath.sol\":3041:3057  absTick & 0x8000 */\n      dup3\n      and\n        /* \"contracts/core/libraries/TickMath.sol\":3041:3062  absTick & 0x8000 != 0 */\n      iszero\n        /* \"contracts/core/libraries/TickMath.sol\":3037:3123  if (absTick & 0x8000 != 0) ratio = (ratio * 0x31be135f97d08fd981231505542fcfa6) >> 128 */\n      tag_54\n      jumpi\n        /* \"contracts/core/libraries/TickMath.sol\":3081:3115  0x31be135f97d08fd981231505542fcfa6 */\n      0x31be135f97d08fd981231505542fcfa6\n        /* \"contracts/core/libraries/TickMath.sol\":3073:3115  ratio * 0x31be135f97d08fd981231505542fcfa6 */\n      mul\n        /* \"contracts/core/libraries/TickMath.sol\":3120:3123  128 */\n      0x80\n        /* \"contracts/core/libraries/TickMath.sol\":3072:3123  (ratio * 0x31be135f97d08fd981231505542fcfa6) >> 128 */\n      shr\n        /* \"contracts/core/libraries/TickMath.sol\":3037:3123  if (absTick & 0x8000 != 0) ratio = (ratio * 0x31be135f97d08fd981231505542fcfa6) >> 128 */\n    tag_54:\n        /* \"contracts/core/libraries/TickMath.sol\":3147:3154  0x10000 */\n      0x010000\n        /* \"contracts/core/libraries/TickMath.sol\":3137:3154  absTick & 0x10000 */\n      dup3\n      and\n        /* \"contracts/core/libraries/TickMath.sol\":3137:3159  absTick & 0x10000 != 0 */\n      iszero\n        /* \"contracts/core/libraries/TickMath.sol\":3133:3219  if (absTick & 0x10000 != 0) ratio = (ratio * 0x9aa508b5b7a84e1c677de54f3e99bc9) >> 128 */\n      tag_55\n      jumpi\n        /* \"contracts/core/libraries/TickMath.sol\":3178:3211  0x9aa508b5b7a84e1c677de54f3e99bc9 */\n      0x09aa508b5b7a84e1c677de54f3e99bc9\n        /* \"contracts/core/libraries/TickMath.sol\":3170:3211  ratio * 0x9aa508b5b7a84e1c677de54f3e99bc9 */\n      mul\n        /* \"contracts/core/libraries/TickMath.sol\":3216:3219  128 */\n      0x80\n        /* \"contracts/core/libraries/TickMath.sol\":3169:3219  (ratio * 0x9aa508b5b7a84e1c677de54f3e99bc9) >> 128 */\n      shr\n        /* \"contracts/core/libraries/TickMath.sol\":3133:3219  if (absTick & 0x10000 != 0) ratio = (ratio * 0x9aa508b5b7a84e1c677de54f3e99bc9) >> 128 */\n    tag_55:\n        /* \"contracts/core/libraries/TickMath.sol\":3243:3250  0x20000 */\n      0x020000\n        /* \"contracts/core/libraries/TickMath.sol\":3233:3250  absTick & 0x20000 */\n      dup3\n      and\n        /* \"contracts/core/libraries/TickMath.sol\":3233:3255  absTick & 0x20000 != 0 */\n      iszero\n        /* \"contracts/core/libraries/TickMath.sol\":3229:3314  if (absTick & 0x20000 != 0) ratio = (ratio * 0x5d6af8dedb81196699c329225ee604) >> 128 */\n      tag_56\n      jumpi\n        /* \"contracts/core/libraries/TickMath.sol\":3274:3306  0x5d6af8dedb81196699c329225ee604 */\n      0x5d6af8dedb81196699c329225ee604\n        /* \"contracts/core/libraries/TickMath.sol\":3266:3306  ratio * 0x5d6af8dedb81196699c329225ee604 */\n      mul\n        /* \"contracts/core/libraries/TickMath.sol\":3311:3314  128 */\n      0x80\n        /* \"contracts/core/libraries/TickMath.sol\":3265:3314  (ratio * 0x5d6af8dedb81196699c329225ee604) >> 128 */\n      shr\n        /* \"contracts/core/libraries/TickMath.sol\":3229:3314  if (absTick & 0x20000 != 0) ratio = (ratio * 0x5d6af8dedb81196699c329225ee604) >> 128 */\n    tag_56:\n        /* \"contracts/core/libraries/TickMath.sol\":3338:3345  0x40000 */\n      0x040000\n        /* \"contracts/core/libraries/TickMath.sol\":3328:3345  absTick & 0x40000 */\n      dup3\n      and\n        /* \"contracts/core/libraries/TickMath.sol\":3328:3350  absTick & 0x40000 != 0 */\n      iszero\n        /* \"contracts/core/libraries/TickMath.sol\":3324:3407  if (absTick & 0x40000 != 0) ratio = (ratio * 0x2216e584f5fa1ea926041bedfe98) >> 128 */\n      tag_57\n      jumpi\n        /* \"contracts/core/libraries/TickMath.sol\":3369:3399  0x2216e584f5fa1ea926041bedfe98 */\n      0x2216e584f5fa1ea926041bedfe98\n        /* \"contracts/core/libraries/TickMath.sol\":3361:3399  ratio * 0x2216e584f5fa1ea926041bedfe98 */\n      mul\n        /* \"contracts/core/libraries/TickMath.sol\":3404:3407  128 */\n      0x80\n        /* \"contracts/core/libraries/TickMath.sol\":3360:3407  (ratio * 0x2216e584f5fa1ea926041bedfe98) >> 128 */\n      shr\n        /* \"contracts/core/libraries/TickMath.sol\":3324:3407  if (absTick & 0x40000 != 0) ratio = (ratio * 0x2216e584f5fa1ea926041bedfe98) >> 128 */\n    tag_57:\n        /* \"contracts/core/libraries/TickMath.sol\":3431:3438  0x80000 */\n      0x080000\n        /* \"contracts/core/libraries/TickMath.sol\":3421:3438  absTick & 0x80000 */\n      dup3\n      and\n        /* \"contracts/core/libraries/TickMath.sol\":3421:3443  absTick & 0x80000 != 0 */\n      iszero\n        /* \"contracts/core/libraries/TickMath.sol\":3417:3495  if (absTick & 0x80000 != 0) ratio = (ratio * 0x48a170391f7dc42444e8fa2) >> 128 */\n      tag_58\n      jumpi\n        /* \"contracts/core/libraries/TickMath.sol\":3462:3487  0x48a170391f7dc42444e8fa2 */\n      0x048a170391f7dc42444e8fa2\n        /* \"contracts/core/libraries/TickMath.sol\":3454:3487  ratio * 0x48a170391f7dc42444e8fa2 */\n      mul\n        /* \"contracts/core/libraries/TickMath.sol\":3492:3495  128 */\n      0x80\n        /* \"contracts/core/libraries/TickMath.sol\":3453:3495  (ratio * 0x48a170391f7dc42444e8fa2) >> 128 */\n      shr\n        /* \"contracts/core/libraries/TickMath.sol\":3417:3495  if (absTick & 0x80000 != 0) ratio = (ratio * 0x48a170391f7dc42444e8fa2) >> 128 */\n    tag_58:\n        /* \"contracts/core/libraries/TickMath.sol\":3517:3518  0 */\n      0x00\n        /* \"contracts/core/libraries/TickMath.sol\":3510:3514  tick */\n      dup5\n        /* \"contracts/core/libraries/TickMath.sol\":3510:3518  tick > 0 */\n      0x02\n      signextend\n      sgt\n        /* \"contracts/core/libraries/TickMath.sol\":3506:3553  if (tick > 0) ratio = type(uint256).max / ratio */\n      iszero\n      tag_59\n      jumpi\n        /* \"contracts/core/libraries/TickMath.sol\":3548:3553  ratio */\n      dup1\n      not(0x00)\n        /* \"contracts/core/libraries/TickMath.sol\":3528:3553  type(uint256).max / ratio */\n      dup2\n      tag_60\n      jumpi\n      invalid\n    tag_60:\n      div\n        /* \"contracts/core/libraries/TickMath.sol\":3520:3553  ratio = type(uint256).max / ratio */\n      swap1\n      pop\n        /* \"contracts/core/libraries/TickMath.sol\":3506:3553  if (tick > 0) ratio = type(uint256).max / ratio */\n    tag_59:\n        /* \"contracts/core/libraries/TickMath.sol\":3912:3919  1 << 32 */\n      0x0100000000\n        /* \"contracts/core/libraries/TickMath.sol\":3903:3908  ratio */\n      dup2\n        /* \"contracts/core/libraries/TickMath.sol\":3903:3920  ratio % (1 << 32) */\n      mod\n        /* \"contracts/core/libraries/TickMath.sol\":3903:3925  ratio % (1 << 32) == 0 */\n      iszero\n        /* \"contracts/core/libraries/TickMath.sol\":3903:3933  ratio % (1 << 32) == 0 ? 0 : 1 */\n      tag_62\n      jumpi\n        /* \"contracts/core/libraries/TickMath.sol\":3932:3933  1 */\n      0x01\n        /* \"contracts/core/libraries/TickMath.sol\":3903:3933  ratio % (1 << 32) == 0 ? 0 : 1 */\n      jump(tag_63)\n    tag_62:\n        /* \"contracts/core/libraries/TickMath.sol\":3928:3929  0 */\n      0x00\n        /* \"contracts/core/libraries/TickMath.sol\":3903:3933  ratio % (1 << 32) == 0 ? 0 : 1 */\n    tag_63:\n        /* \"contracts/core/libraries/TickMath.sol\":3886:3934  (ratio >> 32) + (ratio % (1 << 32) == 0 ? 0 : 1) */\n      0xff\n      and\n        /* \"contracts/core/libraries/TickMath.sol\":3896:3898  32 */\n      0x20\n        /* \"contracts/core/libraries/TickMath.sol\":3887:3892  ratio */\n      dup3\n        /* \"contracts/core/libraries/TickMath.sol\":3887:3898  ratio >> 32 */\n      swap1\n      shr\n        /* \"contracts/core/libraries/TickMath.sol\":3886:3934  (ratio >> 32) + (ratio % (1 << 32) == 0 ? 0 : 1) */\n      add\n        /* \"contracts/core/libraries/TickMath.sol\":3863:3935  sqrtPriceX96 = uint160((ratio >> 32) + (ratio % (1 << 32) == 0 ? 0 : 1)) */\n      swap3\n      pop\n        /* \"contracts/core/libraries/TickMath.sol\":1362:3942  function getSqrtRatioAtTick(int24 tick) internal pure returns (uint160 sqrtPriceX96) {... */\n      pop\n      pop\n      swap2\n      swap1\n      pop\n      jump\t// out\n        /* \"contracts/core/veloex.sol\":1811:2265  function getAmount0ForLiquidity(uint160 sqrtRatioAX96, uint160 sqrtRatioBX96, uint128 liquidity)\r... */\n    tag_31:\n        /* \"contracts/core/veloex.sol\":1958:1973  uint256 amount0 */\n      0x00\n        /* \"contracts/core/veloex.sol\":2011:2024  sqrtRatioBX96 */\n      dup3\n      sub(shl(0xa0, 0x01), 0x01)\n        /* \"contracts/core/veloex.sol\":1995:2024  sqrtRatioAX96 > sqrtRatioBX96 */\n      and\n        /* \"contracts/core/veloex.sol\":1995:2008  sqrtRatioAX96 */\n      dup5\n      sub(shl(0xa0, 0x01), 0x01)\n        /* \"contracts/core/veloex.sol\":1995:2024  sqrtRatioAX96 > sqrtRatioBX96 */\n      and\n      gt\n        /* \"contracts/core/veloex.sol\":1991:2089  if (sqrtRatioAX96 > sqrtRatioBX96) (sqrtRatioAX96, sqrtRatioBX96) = (sqrtRatioBX96, sqrtRatioAX96) */\n      iszero\n      tag_65\n      jumpi\n        /* \"contracts/core/veloex.sol\":2060:2073  sqrtRatioBX96 */\n      swap2\n      swap3\n        /* \"contracts/core/veloex.sol\":2075:2088  sqrtRatioAX96 */\n      swap2\n        /* \"contracts/core/veloex.sol\":1991:2089  if (sqrtRatioAX96 > sqrtRatioBX96) (sqrtRatioAX96, sqrtRatioBX96) = (sqrtRatioBX96, sqrtRatioAX96) */\n    tag_65:\n        /* \"contracts/core/veloex.sol\":2244:2257  sqrtRatioAX96 */\n      dup4\n      sub(shl(0xa0, 0x01), 0x01)\n        /* \"contracts/core/veloex.sol\":2109:2257  FullMath.mulDiv(\r... */\n      and\n        /* \"contracts/core/veloex.sol\":2109:2241  FullMath.mulDiv(\r... */\n      tag_66\n        /* \"contracts/core/libraries/FixedPoint96.sol\":309:311  96 */\n      0x60\n        /* \"contracts/core/veloex.sol\":2139:2184  uint256(liquidity) << FixedPoint96.RESOLUTION */\n      0xff\n      and\n        /* \"contracts/core/veloex.sol\":2147:2156  liquidity */\n      dup5\n      sub(shl(0x80, 0x01), 0x01)\n        /* \"contracts/core/veloex.sol\":2139:2157  uint256(liquidity) */\n      and\n        /* \"contracts/core/veloex.sol\":2139:2184  uint256(liquidity) << FixedPoint96.RESOLUTION */\n      swap1\n      shl\n        /* \"contracts/core/veloex.sol\":2202:2215  sqrtRatioAX96 */\n      dup7\n        /* \"contracts/core/veloex.sol\":2186:2199  sqrtRatioBX96 */\n      dup7\n        /* \"contracts/core/veloex.sol\":2186:2215  sqrtRatioBX96 - sqrtRatioAX96 */\n      sub\n      sub(shl(0xa0, 0x01), 0x01)\n        /* \"contracts/core/veloex.sol\":2109:2241  FullMath.mulDiv(\r... */\n      and\n        /* \"contracts/core/veloex.sol\":2217:2230  sqrtRatioBX96 */\n      dup7\n      sub(shl(0xa0, 0x01), 0x01)\n        /* \"contracts/core/veloex.sol\":2109:2241  FullMath.mulDiv(\r... */\n      and\n        /* \"contracts/core/veloex.sol\":2109:2124  FullMath.mulDiv */\n      tag_67\n        /* \"contracts/core/veloex.sol\":2109:2241  FullMath.mulDiv(\r... */\n      jump\t// in\n    tag_66:\n        /* \"contracts/core/veloex.sol\":2109:2257  FullMath.mulDiv(\r... */\n      dup2\n      tag_68\n      jumpi\n      invalid\n    tag_68:\n      div\n        /* \"contracts/core/veloex.sol\":2102:2257  return FullMath.mulDiv(\r... */\n      swap1\n      pop\n        /* \"contracts/core/veloex.sol\":1811:2265  function getAmount0ForLiquidity(uint160 sqrtRatioAX96, uint160 sqrtRatioBX96, uint128 liquidity)\r... */\n    tag_64:\n      swap4\n      swap3\n      pop\n      pop\n      pop\n      jump\t// out\n        /* \"contracts/core/veloex.sol\":2630:3011  function getAmount1ForLiquidity(uint160 sqrtRatioAX96, uint160 sqrtRatioBX96, uint128 liquidity)\r... */\n    tag_33:\n        /* \"contracts/core/veloex.sol\":2777:2792  uint256 amount1 */\n      0x00\n        /* \"contracts/core/veloex.sol\":2830:2843  sqrtRatioBX96 */\n      dup3\n      sub(shl(0xa0, 0x01), 0x01)\n        /* \"contracts/core/veloex.sol\":2814:2843  sqrtRatioAX96 > sqrtRatioBX96 */\n      and\n        /* \"contracts/core/veloex.sol\":2814:2827  sqrtRatioAX96 */\n      dup5\n      sub(shl(0xa0, 0x01), 0x01)\n        /* \"contracts/core/veloex.sol\":2814:2843  sqrtRatioAX96 > sqrtRatioBX96 */\n      and\n      gt\n        /* \"contracts/core/veloex.sol\":2810:2908  if (sqrtRatioAX96 > sqrtRatioBX96) (sqrtRatioAX96, sqrtRatioBX96) = (sqrtRatioBX96, sqrtRatioAX96) */\n      iszero\n      tag_70\n      jumpi\n        /* \"contracts/core/veloex.sol\":2879:2892  sqrtRatioBX96 */\n      swap2\n      swap3\n        /* \"contracts/core/veloex.sol\":2894:2907  sqrtRatioAX96 */\n      swap2\n        /* \"contracts/core/veloex.sol\":2810:2908  if (sqrtRatioAX96 > sqrtRatioBX96) (sqrtRatioAX96, sqrtRatioBX96) = (sqrtRatioBX96, sqrtRatioAX96) */\n    tag_70:\n        /* \"contracts/core/veloex.sol\":2928:3003  FullMath.mulDiv(liquidity, sqrtRatioBX96 - sqrtRatioAX96, FixedPoint96.Q96) */\n      tag_71\n        /* \"contracts/core/veloex.sol\":2944:2953  liquidity */\n      dup3\n      sub(shl(0x80, 0x01), 0x01)\n        /* \"contracts/core/veloex.sol\":2928:3003  FullMath.mulDiv(liquidity, sqrtRatioBX96 - sqrtRatioAX96, FixedPoint96.Q96) */\n      and\n        /* \"contracts/core/veloex.sol\":2971:2984  sqrtRatioAX96 */\n      dup6\n        /* \"contracts/core/veloex.sol\":2955:2968  sqrtRatioBX96 */\n      dup6\n        /* \"contracts/core/veloex.sol\":2955:2984  sqrtRatioBX96 - sqrtRatioAX96 */\n      sub\n      sub(shl(0xa0, 0x01), 0x01)\n        /* \"contracts/core/veloex.sol\":2928:3003  FullMath.mulDiv(liquidity, sqrtRatioBX96 - sqrtRatioAX96, FixedPoint96.Q96) */\n      and\n      shl(0x60, 0x01)\n        /* \"contracts/core/veloex.sol\":2928:2943  FullMath.mulDiv */\n      tag_67\n        /* \"contracts/core/veloex.sol\":2928:3003  FullMath.mulDiv(liquidity, sqrtRatioBX96 - sqrtRatioAX96, FixedPoint96.Q96) */\n      jump\t// in\n    tag_71:\n        /* \"contracts/core/veloex.sol\":2921:3003  return FullMath.mulDiv(liquidity, sqrtRatioBX96 - sqrtRatioAX96, FixedPoint96.Q96) */\n      swap5\n        /* \"contracts/core/veloex.sol\":2630:3011  function getAmount1ForLiquidity(uint160 sqrtRatioAX96, uint160 sqrtRatioBX96, uint128 liquidity)\r... */\n      swap4\n      pop\n      pop\n      pop\n      pop\n      jump\t// out\n        /* \"contracts/core/libraries/FullMath.sol\":749:4495  function mulDiv(uint256 a, uint256 b, uint256 denominator) internal pure returns (uint256 result) {... */\n    tag_67:\n        /* \"contracts/core/libraries/FullMath.sol\":831:845  uint256 result */\n      0x00\n      dup1\n      dup1\n      not(0x00)\n        /* \"contracts/core/libraries/FullMath.sol\":1338:1339  b */\n      dup6\n        /* \"contracts/core/libraries/FullMath.sol\":1335:1336  a */\n      dup8\n        /* \"contracts/core/libraries/FullMath.sol\":1328:1348  mulmod(a, b, not(0)) */\n      mulmod\n        /* \"contracts/core/libraries/FullMath.sol\":1370:1379  mul(a, b) */\n      dup7\n      dup7\n      mul\n      swap3\n      pop\n        /* \"contracts/core/libraries/FullMath.sol\":1421:1434  lt(mm, prod0) */\n      dup3\n      dup2\n      lt\n        /* \"contracts/core/libraries/FullMath.sol\":1405:1419  sub(mm, prod0) */\n      swap1\n      dup4\n      swap1\n      sub\n        /* \"contracts/core/libraries/FullMath.sol\":1401:1435  sub(sub(mm, prod0), lt(mm, prod0)) */\n      sub\n      swap1\n      pop\n        /* \"contracts/core/libraries/FullMath.sol\":1517:1527  prod1 == 0 */\n      dup1\n        /* \"contracts/core/libraries/FullMath.sol\":1513:1692  if (prod1 == 0) {... */\n      tag_73\n      jumpi\n        /* \"contracts/core/libraries/FullMath.sol\":1565:1566  0 */\n      0x00\n        /* \"contracts/core/libraries/FullMath.sol\":1551:1562  denominator */\n      dup5\n        /* \"contracts/core/libraries/FullMath.sol\":1551:1566  denominator > 0 */\n      gt\n        /* \"contracts/core/libraries/FullMath.sol\":1543:1567  require(denominator > 0) */\n      tag_74\n      jumpi\n      0x00\n      dup1\n      revert\n    tag_74:\n      pop\n        /* \"contracts/core/libraries/FullMath.sol\":1618:1641  div(prod0, denominator) */\n      dup3\n      swap1\n      div\n      swap1\n      pop\n        /* \"contracts/core/libraries/FullMath.sol\":1668:1681  return result */\n      jump(tag_64)\n        /* \"contracts/core/libraries/FullMath.sol\":1513:1692  if (prod1 == 0) {... */\n    tag_73:\n        /* \"contracts/core/libraries/FullMath.sol\":1819:1824  prod1 */\n      dup1\n        /* \"contracts/core/libraries/FullMath.sol\":1805:1816  denominator */\n      dup5\n        /* \"contracts/core/libraries/FullMath.sol\":1805:1824  denominator > prod1 */\n      gt\n        /* \"contracts/core/libraries/FullMath.sol\":1797:1825  require(denominator > prod1) */\n      tag_75\n      jumpi\n      0x00\n      dup1\n      revert\n    tag_75:\n        /* \"contracts/core/libraries/FullMath.sol\":2102:2119  uint256 remainder */\n      0x00\n        /* \"contracts/core/libraries/FullMath.sol\":2178:2189  denominator */\n      dup5\n        /* \"contracts/core/libraries/FullMath.sol\":2175:2176  b */\n      dup7\n        /* \"contracts/core/libraries/FullMath.sol\":2172:2173  a */\n      dup9\n        /* \"contracts/core/libraries/FullMath.sol\":2165:2190  mulmod(a, b, denominator) */\n      mulmod\n        /* \"contracts/core/libraries/FullMath.sol\":2530:2542  uint256 twos */\n      0x00\n        /* \"contracts/core/libraries/FullMath.sol\":2545:2557  -denominator */\n      dup7\n      dup2\n      sub\n        /* \"contracts/core/libraries/FullMath.sol\":2545:2571  -denominator & denominator */\n      dup8\n      and\n        /* \"contracts/core/libraries/FullMath.sol\":2665:2687  div(denominator, twos) */\n      swap7\n      dup8\n      swap1\n      div\n      swap7\n        /* \"contracts/core/libraries/FullMath.sol\":3468:3469  2 */\n      0x02\n        /* \"contracts/core/libraries/FullMath.sol\":3449:3450  3 */\n      0x03\n        /* \"contracts/core/libraries/FullMath.sol\":3449:3464  3 * denominator */\n      dup10\n      mul\n        /* \"contracts/core/libraries/FullMath.sol\":3448:3469  (3 * denominator) ^ 2 */\n      dup2\n      xor\n        /* \"contracts/core/libraries/FullMath.sol\":3695:3712  denominator * inv */\n      dup1\n      dup11\n      mul\n        /* \"contracts/core/libraries/FullMath.sol\":3691:3712  2 - denominator * inv */\n      dup3\n      sub\n        /* \"contracts/core/libraries/FullMath.sol\":3684:3712  inv *= 2 - denominator * inv */\n      mul\n        /* \"contracts/core/libraries/FullMath.sol\":3753:3770  denominator * inv */\n      dup1\n      dup11\n      mul\n        /* \"contracts/core/libraries/FullMath.sol\":3749:3770  2 - denominator * inv */\n      dup3\n      sub\n        /* \"contracts/core/libraries/FullMath.sol\":3742:3770  inv *= 2 - denominator * inv */\n      mul\n        /* \"contracts/core/libraries/FullMath.sol\":3812:3829  denominator * inv */\n      dup1\n      dup11\n      mul\n        /* \"contracts/core/libraries/FullMath.sol\":3808:3829  2 - denominator * inv */\n      dup3\n      sub\n        /* \"contracts/core/libraries/FullMath.sol\":3801:3829  inv *= 2 - denominator * inv */\n      mul\n        /* \"contracts/core/libraries/FullMath.sol\":3871:3888  denominator * inv */\n      dup1\n      dup11\n      mul\n        /* \"contracts/core/libraries/FullMath.sol\":3867:3888  2 - denominator * inv */\n      dup3\n      sub\n        /* \"contracts/core/libraries/FullMath.sol\":3860:3888  inv *= 2 - denominator * inv */\n      mul\n        /* \"contracts/core/libraries/FullMath.sol\":3930:3947  denominator * inv */\n      dup1\n      dup11\n      mul\n        /* \"contracts/core/libraries/FullMath.sol\":3926:3947  2 - denominator * inv */\n      dup3\n      sub\n        /* \"contracts/core/libraries/FullMath.sol\":3919:3947  inv *= 2 - denominator * inv */\n      mul\n        /* \"contracts/core/libraries/FullMath.sol\":3990:4007  denominator * inv */\n      dup1\n      dup11\n      mul\n        /* \"contracts/core/libraries/FullMath.sol\":3986:4007  2 - denominator * inv */\n      swap1\n      swap2\n      sub\n        /* \"contracts/core/libraries/FullMath.sol\":3979:4007  inv *= 2 - denominator * inv */\n      mul\n        /* \"contracts/core/libraries/FullMath.sol\":3037:3049  sub(0, twos) */\n      swap2\n      dup2\n      swap1\n      sub\n        /* \"contracts/core/libraries/FullMath.sol\":3033:3056  div(sub(0, twos), twos) */\n      dup2\n      swap1\n      div\n        /* \"contracts/core/libraries/FullMath.sol\":3058:3059  1 */\n      0x01\n        /* \"contracts/core/libraries/FullMath.sol\":3029:3060  add(div(sub(0, twos), twos), 1) */\n      add\n        /* \"contracts/core/libraries/FullMath.sol\":2307:2327  gt(remainder, prod0) */\n      dup7\n      dup5\n      gt\n        /* \"contracts/core/libraries/FullMath.sol\":2296:2328  sub(prod1, gt(remainder, prod0)) */\n      swap1\n      swap6\n      sub\n        /* \"contracts/core/libraries/FullMath.sol\":3088:3100  prod1 * twos */\n      swap5\n      swap1\n      swap5\n      mul\n        /* \"contracts/core/libraries/FullMath.sol\":2350:2371  sub(prod0, remainder) */\n      swap2\n      swap1\n      swap5\n      sub\n        /* \"contracts/core/libraries/FullMath.sol\":2793:2809  div(prod0, twos) */\n      swap3\n      swap1\n      swap3\n      div\n        /* \"contracts/core/libraries/FullMath.sol\":3079:3100  prod0 |= prod1 * twos */\n      swap2\n      swap1\n      swap2\n      or\n        /* \"contracts/core/libraries/FullMath.sol\":4454:4465  prod0 * inv */\n      swap2\n      swap1\n      swap2\n      mul\n      swap2\n      pop\n      pop\n        /* \"contracts/core/libraries/FullMath.sol\":749:4495  function mulDiv(uint256 a, uint256 b, uint256 denominator) internal pure returns (uint256 result) {... */\n      swap4\n      swap3\n      pop\n      pop\n      pop\n      jump\t// out\n        /* \"#utility.yul\":14:180   */\n    tag_77:\n        /* \"#utility.yul\":93:106   */\n      dup1\n      mload\n        /* \"#utility.yul\":146:147   */\n      0x02\n        /* \"#utility.yul\":135:155   */\n      dup2\n      swap1\n      signextend\n        /* \"#utility.yul\":125:156   */\n      dup2\n      eq\n        /* \"#utility.yul\":115:117   */\n      tag_79\n      jumpi\n        /* \"#utility.yul\":170:171   */\n      0x00\n        /* \"#utility.yul\":167:168   */\n      dup1\n        /* \"#utility.yul\":160:172   */\n      revert\n        /* \"#utility.yul\":115:117   */\n    tag_79:\n        /* \"#utility.yul\":74:180   */\n      swap2\n      swap1\n      pop\n      jump\t// out\n        /* \"#utility.yul\":185:350   */\n    tag_80:\n        /* \"#utility.yul\":265:278   */\n      dup1\n      mload\n        /* \"#utility.yul\":318:324   */\n      0xffff\n        /* \"#utility.yul\":307:325   */\n      dup2\n      and\n        /* \"#utility.yul\":297:326   */\n      dup2\n      eq\n        /* \"#utility.yul\":287:289   */\n      tag_79\n      jumpi\n        /* \"#utility.yul\":340:341   */\n      0x00\n        /* \"#utility.yul\":337:338   */\n      dup1\n        /* \"#utility.yul\":330:342   */\n      revert\n        /* \"#utility.yul\":355:571   */\n    tag_20:\n      0x00\n        /* \"#utility.yul\":476:478   */\n      0x20\n        /* \"#utility.yul\":464:473   */\n      dup3\n        /* \"#utility.yul\":455:462   */\n      dup5\n        /* \"#utility.yul\":451:474   */\n      sub\n        /* \"#utility.yul\":447:479   */\n      slt\n        /* \"#utility.yul\":444:446   */\n      iszero\n      tag_84\n      jumpi\n        /* \"#utility.yul\":497:503   */\n      dup1\n        /* \"#utility.yul\":489:495   */\n      dup2\n        /* \"#utility.yul\":482:504   */\n      revert\n        /* \"#utility.yul\":444:446   */\n    tag_84:\n        /* \"#utility.yul\":525:565   */\n      tag_64\n        /* \"#utility.yul\":555:564   */\n      dup3\n        /* \"#utility.yul\":525:565   */\n      tag_77\n      jump\t// in\n        /* \"#utility.yul\":576:897   */\n    tag_11:\n      0x00\n        /* \"#utility.yul\":688:690   */\n      0x20\n        /* \"#utility.yul\":676:685   */\n      dup3\n        /* \"#utility.yul\":667:674   */\n      dup5\n        /* \"#utility.yul\":663:686   */\n      sub\n        /* \"#utility.yul\":659:691   */\n      slt\n        /* \"#utility.yul\":656:658   */\n      iszero\n      tag_87\n      jumpi\n        /* \"#utility.yul\":709:715   */\n      dup1\n        /* \"#utility.yul\":701:707   */\n      dup2\n        /* \"#utility.yul\":694:716   */\n      revert\n        /* \"#utility.yul\":656:658   */\n    tag_87:\n        /* \"#utility.yul\":753:762   */\n      dup2\n        /* \"#utility.yul\":740:763   */\n      calldataload\n      sub(shl(0x80, 0x01), 0x01)\n        /* \"#utility.yul\":796:801   */\n      dup2\n        /* \"#utility.yul\":792:838   */\n      and\n        /* \"#utility.yul\":785:790   */\n      dup2\n        /* \"#utility.yul\":782:839   */\n      eq\n        /* \"#utility.yul\":772:774   */\n      tag_64\n      jumpi\n        /* \"#utility.yul\":858:864   */\n      dup2\n        /* \"#utility.yul\":850:856   */\n      dup3\n        /* \"#utility.yul\":843:865   */\n      revert\n        /* \"#utility.yul\":902:1725   */\n    tag_25:\n      0x00\n      dup1\n      0x00\n      dup1\n      0x00\n      dup1\n        /* \"#utility.yul\":1102:1105   */\n      0xc0\n        /* \"#utility.yul\":1090:1099   */\n      dup8\n        /* \"#utility.yul\":1081:1088   */\n      dup10\n        /* \"#utility.yul\":1077:1100   */\n      sub\n        /* \"#utility.yul\":1073:1106   */\n      slt\n        /* \"#utility.yul\":1070:1072   */\n      iszero\n      tag_90\n      jumpi\n        /* \"#utility.yul\":1124:1130   */\n      dup2\n        /* \"#utility.yul\":1116:1122   */\n      dup3\n        /* \"#utility.yul\":1109:1131   */\n      revert\n        /* \"#utility.yul\":1070:1072   */\n    tag_90:\n        /* \"#utility.yul\":1155:1171   */\n      dup7\n      mload\n      sub(shl(0xa0, 0x01), 0x01)\n        /* \"#utility.yul\":1200:1231   */\n      dup2\n      and\n        /* \"#utility.yul\":1190:1232   */\n      dup2\n      eq\n        /* \"#utility.yul\":1180:1182   */\n      tag_91\n      jumpi\n        /* \"#utility.yul\":1251:1257   */\n      dup3\n        /* \"#utility.yul\":1243:1249   */\n      dup4\n        /* \"#utility.yul\":1236:1258   */\n      revert\n        /* \"#utility.yul\":1180:1182   */\n    tag_91:\n        /* \"#utility.yul\":1279:1284   */\n      swap6\n      pop\n        /* \"#utility.yul\":1303:1352   */\n      tag_92\n        /* \"#utility.yul\":1348:1350   */\n      0x20\n        /* \"#utility.yul\":1333:1351   */\n      dup9\n      add\n        /* \"#utility.yul\":1303:1352   */\n      tag_77\n      jump\t// in\n    tag_92:\n        /* \"#utility.yul\":1293:1352   */\n      swap5\n      pop\n        /* \"#utility.yul\":1371:1421   */\n      tag_93\n        /* \"#utility.yul\":1417:1419   */\n      0x40\n        /* \"#utility.yul\":1406:1415   */\n      dup9\n        /* \"#utility.yul\":1402:1420   */\n      add\n        /* \"#utility.yul\":1371:1421   */\n      tag_80\n      jump\t// in\n    tag_93:\n        /* \"#utility.yul\":1361:1421   */\n      swap4\n      pop\n        /* \"#utility.yul\":1440:1490   */\n      tag_94\n        /* \"#utility.yul\":1486:1488   */\n      0x60\n        /* \"#utility.yul\":1475:1484   */\n      dup9\n        /* \"#utility.yul\":1471:1489   */\n      add\n        /* \"#utility.yul\":1440:1490   */\n      tag_80\n      jump\t// in\n    tag_94:\n        /* \"#utility.yul\":1430:1490   */\n      swap3\n      pop\n        /* \"#utility.yul\":1509:1560   */\n      tag_95\n        /* \"#utility.yul\":1555:1558   */\n      0x80\n        /* \"#utility.yul\":1544:1553   */\n      dup9\n        /* \"#utility.yul\":1540:1559   */\n      add\n        /* \"#utility.yul\":1509:1560   */\n      tag_80\n      jump\t// in\n    tag_95:\n        /* \"#utility.yul\":1499:1560   */\n      swap2\n      pop\n        /* \"#utility.yul\":1605:1608   */\n      0xa0\n        /* \"#utility.yul\":1594:1603   */\n      dup8\n        /* \"#utility.yul\":1590:1609   */\n      add\n        /* \"#utility.yul\":1584:1610   */\n      mload\n        /* \"#utility.yul\":1655:1662   */\n      dup1\n        /* \"#utility.yul\":1648:1663   */\n      iszero\n        /* \"#utility.yul\":1641:1664   */\n      iszero\n        /* \"#utility.yul\":1632:1639   */\n      dup2\n        /* \"#utility.yul\":1629:1665   */\n      eq\n        /* \"#utility.yul\":1619:1621   */\n      tag_96\n      jumpi\n        /* \"#utility.yul\":1684:1690   */\n      dup2\n        /* \"#utility.yul\":1676:1682   */\n      dup3\n        /* \"#utility.yul\":1669:1691   */\n      revert\n        /* \"#utility.yul\":1619:1621   */\n    tag_96:\n        /* \"#utility.yul\":1712:1719   */\n      dup1\n        /* \"#utility.yul\":1702:1719   */\n      swap2\n      pop\n      pop\n        /* \"#utility.yul\":1060:1725   */\n      swap3\n      swap6\n      pop\n      swap3\n      swap6\n      pop\n      swap3\n      swap6\n      jump\t// out\n        /* \"#utility.yul\":1730:1947   */\n    tag_8:\n      sub(shl(0xa0, 0x01), 0x01)\n        /* \"#utility.yul\":1908:1940   */\n      swap2\n      swap1\n      swap2\n      and\n        /* \"#utility.yul\":1890:1941   */\n      dup2\n      mstore\n        /* \"#utility.yul\":1878:1880   */\n      0x20\n        /* \"#utility.yul\":1863:1881   */\n      add\n      swap1\n        /* \"#utility.yul\":1845:1947   */\n      jump\t// out\n        /* \"#utility.yul\":1952:2200   */\n    tag_14:\n        /* \"#utility.yul\":2126:2151   */\n      swap2\n      dup3\n      mstore\n        /* \"#utility.yul\":2182:2184   */\n      0x20\n        /* \"#utility.yul\":2167:2185   */\n      dup3\n      add\n        /* \"#utility.yul\":2160:2194   */\n      mstore\n        /* \"#utility.yul\":2114:2116   */\n      0x40\n        /* \"#utility.yul\":2099:2117   */\n      add\n      swap1\n        /* \"#utility.yul\":2081:2200   */\n      jump\t// out\n\n    auxdata: 0xa2646970667358221220ca787d2b849abc419481e15e2cb328d87625f8c805fc403bc7206407e484628364736f6c63430007060033\n}\n",
				"bytecode": {
					"linkReferences": {},
					"object": "60a060405234801561001057600080fd5b506040516108a43803806108a483398101604081905261002f91610044565b60601b6001600160601b031916608052610072565b600060208284031215610055578081fd5b81516001600160a01b038116811461006b578182fd5b9392505050565b60805160601c61080d61009760003980607c528060a5528061013b525061080d6000f3fe608060405234801561001057600080fd5b50600436106100365760003560e01c806316f0115b1461003b578063dd28c5c614610059575b600080fd5b61004361007a565b60405161005091906107b5565b60405180910390f35b61006c610067366004610706565b61009e565b6040516100509291906107c9565b7f000000000000000000000000000000000000000000000000000000000000000081565b60008060007f00000000000000000000000000000000000000000000000000000000000000006001600160a01b031663d0c93a7c6040518163ffffffff1660e01b815260040160206040518083038186803b1580156100fc57600080fd5b505afa158015610110573d6000803e3d6000fd5b505050506040513d601f19601f8201168201806040525081019061013491906106ec565b90506000807f00000000000000000000000000000000000000000000000000000000000000006001600160a01b0316633850c7bd6040518163ffffffff1660e01b815260040160c06040518083038186803b15801561019257600080fd5b505afa1580156101a6573d6000803e3d6000fd5b505050506040513d601f19601f820116820180604052508101906101ca919061072d565b5050505091509150828360020b8260020b816101e257fe5b0502905082810383820160006101f78361022c565b905060006102048361022c565b905061021182828c61055e565b985061021e82828c6105c9565b975050505050505050915091565b60008060008360020b12610243578260020b61024b565b8260020b6000035b9050620d89e8811115610289576040805162461bcd60e51b81526020600482015260016024820152601560fa1b604482015290519081900360640190fd5b60006001821661029d57600160801b6102af565b6ffffcb933bd6fad37aa2d162d1a5940015b70ffffffffffffffffffffffffffffffffff16905060028216156102e3576ffff97272373d413259a46990580e213a0260801c5b6004821615610302576ffff2e50f5f656932ef12357cf3c7fdcc0260801c5b6008821615610321576fffe5caca7e10e4e61c3624eaa0941cd00260801c5b6010821615610340576fffcb9843d60f6159c9db58835c9266440260801c5b602082161561035f576fff973b41fa98c081472e6896dfb254c00260801c5b604082161561037e576fff2ea16466c96a3843ec78b326b528610260801c5b608082161561039d576ffe5dee046a99a2a811c461f1969c30530260801c5b6101008216156103bd576ffcbe86c7900a88aedcffc83b479aa3a40260801c5b6102008216156103dd576ff987a7253ac413176f2b074cf7815e540260801c5b6104008216156103fd576ff3392b0822b70005940c7a398e4b70f30260801c5b61080082161561041d576fe7159475a2c29b7443b29c7fa6e889d90260801c5b61100082161561043d576fd097f3bdfd2022b8845ad8f792aa58250260801c5b61200082161561045d576fa9f746462d870fdf8a65dc1f90e061e50260801c5b61400082161561047d576f70d869a156d2a1b890bb3df62baf32f70260801c5b61800082161561049d576f31be135f97d08fd981231505542fcfa60260801c5b620100008216156104be576f09aa508b5b7a84e1c677de54f3e99bc90260801c5b620200008216156104de576e5d6af8dedb81196699c329225ee6040260801c5b620400008216156104fd576d2216e584f5fa1ea926041bedfe980260801c5b6208000082161561051a576b048a170391f7dc42444e8fa20260801c5b60008460020b131561053557806000198161053157fe5b0490505b64010000000081061561054957600161054c565b60005b60ff16602082901c0192505050919050565b6000826001600160a01b0316846001600160a01b0316111561057e579192915b836001600160a01b03166105b7606060ff16846001600160801b0316901b8686036001600160a01b0316866001600160a01b0316610614565b816105be57fe5b0490505b9392505050565b6000826001600160a01b0316846001600160a01b031611156105e9579192915b61060c826001600160801b03168585036001600160a01b0316600160601b610614565b949350505050565b600080806000198587098686029250828110908390030390508061064a576000841161063f57600080fd5b5082900490506105c2565b80841161065657600080fd5b6000848688096000868103871696879004966002600389028118808a02820302808a02820302808a02820302808a02820302808a02820302808a02909103029181900381900460010186841190950394909402919094039290920491909117919091029150509392505050565b8051600281900b81146106d557600080fd5b919050565b805161ffff811681146106d557600080fd5b6000602082840312156106fd578081fd5b6105c2826106c3565b600060208284031215610717578081fd5b81356001600160801b03811681146105c2578182fd5b60008060008060008060c08789031215610745578182fd5b86516001600160a01b038116811461075b578283fd5b9550610769602088016106c3565b9450610777604088016106da565b9350610785606088016106da565b9250610793608088016106da565b915060a087015180151581146107a7578182fd5b809150509295509295509295565b6001600160a01b0391909116815260200190565b91825260208201526040019056fea2646970667358221220ca787d2b849abc419481e15e2cb328d87625f8c805fc403bc7206407e484628364736f6c63430007060033",
					"opcodes": "PUSH1 0xA0 PUSH1 0x40 MSTORE CALLVALUE DUP1 ISZERO PUSH2 0x10 JUMPI PUSH1 0x0 DUP1 REVERT JUMPDEST POP PUSH1 0x40 MLOAD PUSH2 0x8A4 CODESIZE SUB DUP1 PUSH2 0x8A4 DUP4 CODECOPY DUP2 ADD PUSH1 0x40 DUP2 SWAP1 MSTORE PUSH2 0x2F SWAP2 PUSH2 0x44 JUMP JUMPDEST PUSH1 0x60 SHL PUSH1 0x1 PUSH1 0x1 PUSH1 0x60 SHL SUB NOT AND PUSH1 0x80 MSTORE PUSH2 0x72 JUMP JUMPDEST PUSH1 0x0 PUSH1 0x20 DUP3 DUP5 SUB SLT ISZERO PUSH2 0x55 JUMPI DUP1 DUP2 REVERT JUMPDEST DUP2 MLOAD PUSH1 0x1 PUSH1 0x1 PUSH1 0xA0 SHL SUB DUP2 AND DUP2 EQ PUSH2 0x6B JUMPI DUP2 DUP3 REVERT JUMPDEST SWAP4 SWAP3 POP POP POP JUMP JUMPDEST PUSH1 0x80 MLOAD PUSH1 0x60 SHR PUSH2 0x80D PUSH2 0x97 PUSH1 0x0 CODECOPY DUP1 PUSH1 0x7C MSTORE DUP1 PUSH1 0xA5 MSTORE DUP1 PUSH2 0x13B MSTORE POP PUSH2 0x80D PUSH1 0x0 RETURN INVALID PUSH1 0x80 PUSH1 0x40 MSTORE CALLVALUE DUP1 ISZERO PUSH2 0x10 JUMPI PUSH1 0x0 DUP1 REVERT JUMPDEST POP PUSH1 0x4 CALLDATASIZE LT PUSH2 0x36 JUMPI PUSH1 0x0 CALLDATALOAD PUSH1 0xE0 SHR DUP1 PUSH4 0x16F0115B EQ PUSH2 0x3B JUMPI DUP1 PUSH4 0xDD28C5C6 EQ PUSH2 0x59 JUMPI JUMPDEST PUSH1 0x0 DUP1 REVERT JUMPDEST PUSH2 0x43 PUSH2 0x7A JUMP JUMPDEST PUSH1 0x40 MLOAD PUSH2 0x50 SWAP2 SWAP1 PUSH2 0x7B5 JUMP JUMPDEST PUSH1 0x40 MLOAD DUP1 SWAP2 SUB SWAP1 RETURN JUMPDEST PUSH2 0x6C PUSH2 0x67 CALLDATASIZE PUSH1 0x4 PUSH2 0x706 JUMP JUMPDEST PUSH2 0x9E JUMP JUMPDEST PUSH1 0x40 MLOAD PUSH2 0x50 SWAP3 SWAP2 SWAP1 PUSH2 0x7C9 JUMP JUMPDEST PUSH32 0x0 DUP2 JUMP JUMPDEST PUSH1 0x0 DUP1 PUSH1 0x0 PUSH32 0x0 PUSH1 0x1 PUSH1 0x1 PUSH1 0xA0 SHL SUB AND PUSH4 0xD0C93A7C PUSH1 0x40 MLOAD DUP2 PUSH4 0xFFFFFFFF AND PUSH1 0xE0 SHL DUP2 MSTORE PUSH1 0x4 ADD PUSH1 0x20 PUSH1 0x40 MLOAD DUP1 DUP4 SUB DUP2 DUP7 DUP1 EXTCODESIZE ISZERO DUP1 ISZERO PUSH2 0xFC JUMPI PUSH1 0x0 DUP1 REVERT JUMPDEST POP GAS STATICCALL ISZERO DUP1 ISZERO PUSH2 0x110 JUMPI RETURNDATASIZE PUSH1 0x0 DUP1 RETURNDATACOPY RETURNDATASIZE PUSH1 0x0 REVERT JUMPDEST POP POP POP POP PUSH1 0x40 MLOAD RETURNDATASIZE PUSH1 0x1F NOT PUSH1 0x1F DUP3 ADD AND DUP3 ADD DUP1 PUSH1 0x40 MSTORE POP DUP2 ADD SWAP1 PUSH2 0x134 SWAP2 SWAP1 PUSH2 0x6EC JUMP JUMPDEST SWAP1 POP PUSH1 0x0 DUP1 PUSH32 0x0 PUSH1 0x1 PUSH1 0x1 PUSH1 0xA0 SHL SUB AND PUSH4 0x3850C7BD PUSH1 0x40 MLOAD DUP2 PUSH4 0xFFFFFFFF AND PUSH1 0xE0 SHL DUP2 MSTORE PUSH1 0x4 ADD PUSH1 0xC0 PUSH1 0x40 MLOAD DUP1 DUP4 SUB DUP2 DUP7 DUP1 EXTCODESIZE ISZERO DUP1 ISZERO PUSH2 0x192 JUMPI PUSH1 0x0 DUP1 REVERT JUMPDEST POP GAS STATICCALL ISZERO DUP1 ISZERO PUSH2 0x1A6 JUMPI RETURNDATASIZE PUSH1 0x0 DUP1 RETURNDATACOPY RETURNDATASIZE PUSH1 0x0 REVERT JUMPDEST POP POP POP POP PUSH1 0x40 MLOAD RETURNDATASIZE PUSH1 0x1F NOT PUSH1 0x1F DUP3 ADD AND DUP3 ADD DUP1 PUSH1 0x40 MSTORE POP DUP2 ADD SWAP1 PUSH2 0x1CA SWAP2 SWAP1 PUSH2 0x72D JUMP JUMPDEST POP POP POP POP SWAP2 POP SWAP2 POP DUP3 DUP4 PUSH1 0x2 SIGNEXTEND DUP3 PUSH1 0x2 SIGNEXTEND DUP2 PUSH2 0x1E2 JUMPI INVALID JUMPDEST SDIV MUL SWAP1 POP DUP3 DUP2 SUB DUP4 DUP3 ADD PUSH1 0x0 PUSH2 0x1F7 DUP4 PUSH2 0x22C JUMP JUMPDEST SWAP1 POP PUSH1 0x0 PUSH2 0x204 DUP4 PUSH2 0x22C JUMP JUMPDEST SWAP1 POP PUSH2 0x211 DUP3 DUP3 DUP13 PUSH2 0x55E JUMP JUMPDEST SWAP9 POP PUSH2 0x21E DUP3 DUP3 DUP13 PUSH2 0x5C9 JUMP JUMPDEST SWAP8 POP POP POP POP POP POP POP POP SWAP2 POP SWAP2 JUMP JUMPDEST PUSH1 0x0 DUP1 PUSH1 0x0 DUP4 PUSH1 0x2 SIGNEXTEND SLT PUSH2 0x243 JUMPI DUP3 PUSH1 0x2 SIGNEXTEND PUSH2 0x24B JUMP JUMPDEST DUP3 PUSH1 0x2 SIGNEXTEND PUSH1 0x0 SUB JUMPDEST SWAP1 POP PUSH3 0xD89E8 DUP2 GT ISZERO PUSH2 0x289 JUMPI PUSH1 0x40 DUP1 MLOAD PUSH3 0x461BCD PUSH1 0xE5 SHL DUP2 MSTORE PUSH1 0x20 PUSH1 0x4 DUP3 ADD MSTORE PUSH1 0x1 PUSH1 0x24 DUP3 ADD MSTORE PUSH1 0x15 PUSH1 0xFA SHL PUSH1 0x44 DUP3 ADD MSTORE SWAP1 MLOAD SWAP1 DUP2 SWAP1 SUB PUSH1 0x64 ADD SWAP1 REVERT JUMPDEST PUSH1 0x0 PUSH1 0x1 DUP3 AND PUSH2 0x29D JUMPI PUSH1 0x1 PUSH1 0x80 SHL PUSH2 0x2AF JUMP JUMPDEST PUSH16 0xFFFCB933BD6FAD37AA2D162D1A594001 JUMPDEST PUSH17 0xFFFFFFFFFFFFFFFFFFFFFFFFFFFFFFFFFF AND SWAP1 POP PUSH1 0x2 DUP3 AND ISZERO PUSH2 0x2E3 JUMPI PUSH16 0xFFF97272373D413259A46990580E213A MUL PUSH1 0x80 SHR JUMPDEST PUSH1 0x4 DUP3 AND ISZERO PUSH2 0x302 JUMPI PUSH16 0xFFF2E50F5F656932EF12357CF3C7FDCC MUL PUSH1 0x80 SHR JUMPDEST PUSH1 0x8 DUP3 AND ISZERO PUSH2 0x321 JUMPI PUSH16 0xFFE5CACA7E10E4E61C3624EAA0941CD0 MUL PUSH1 0x80 SHR JUMPDEST PUSH1 0x10 DUP3 AND ISZERO PUSH2 0x340 JUMPI PUSH16 0xFFCB9843D60F6159C9DB58835C926644 MUL PUSH1 0x80 SHR JUMPDEST PUSH1 0x20 DUP3 AND ISZERO PUSH2 0x35F JUMPI PUSH16 0xFF973B41FA98C081472E6896DFB254C0 MUL PUSH1 0x80 SHR JUMPDEST PUSH1 0x40 DUP3 AND ISZERO PUSH2 0x37E JUMPI PUSH16 0xFF2EA16466C96A3843EC78B326B52861 MUL PUSH1 0x80 SHR JUMPDEST PUSH1 0x80 DUP3 AND ISZERO PUSH2 0x39D JUMPI PUSH16 0xFE5DEE046A99A2A811C461F1969C3053 MUL PUSH1 0x80 SHR JUMPDEST PUSH2 0x100 DUP3 AND ISZERO PUSH2 0x3BD JUMPI PUSH16 0xFCBE86C7900A88AEDCFFC83B479AA3A4 MUL PUSH1 0x80 SHR JUMPDEST PUSH2 0x200 DUP3 AND ISZERO PUSH2 0x3DD JUMPI PUSH16 0xF987A7253AC413176F2B074CF7815E54 MUL PUSH1 0x80 SHR JUMPDEST PUSH2 0x400 DUP3 AND ISZERO PUSH2 0x3FD JUMPI PUSH16 0xF3392B0822B70005940C7A398E4B70F3 MUL PUSH1 0x80 SHR JUMPDEST PUSH2 0x800 DUP3 AND ISZERO PUSH2 0x41D JUMPI PUSH16 0xE7159475A2C29B7443B29C7FA6E889D9 MUL PUSH1 0x80 SHR JUMPDEST PUSH2 0x1000 DUP3 AND ISZERO PUSH2 0x43D JUMPI PUSH16 0xD097F3BDFD2022B8845AD8F792AA5825 MUL PUSH1 0x80 SHR JUMPDEST PUSH2 0x2000 DUP3 AND ISZERO PUSH2 0x45D JUMPI PUSH16 0xA9F746462D870FDF8A65DC1F90E061E5 MUL PUSH1 0x80 SHR JUMPDEST PUSH2 0x4000 DUP3 AND ISZERO PUSH2 0x47D JUMPI PUSH16 0x70D869A156D2A1B890BB3DF62BAF32F7 MUL PUSH1 0x80 SHR JUMPDEST PUSH2 0x8000 DUP3 AND ISZERO PUSH2 0x49D JUMPI PUSH16 0x31BE135F97D08FD981231505542FCFA6 MUL PUSH1 0x80 SHR JUMPDEST PUSH3 0x10000 DUP3 AND ISZERO PUSH2 0x4BE JUMPI PUSH16 0x9AA508B5B7A84E1C677DE54F3E99BC9 MUL PUSH1 0x80 SHR JUMPDEST PUSH3 0x20000 DUP3 AND ISZERO PUSH2 0x4DE JUMPI PUSH15 0x5D6AF8DEDB81196699C329225EE604 MUL PUSH1 0x80 SHR JUMPDEST PUSH3 0x40000 DUP3 AND ISZERO PUSH2 0x4FD JUMPI PUSH14 0x2216E584F5FA1EA926041BEDFE98 MUL PUSH1 0x80 SHR JUMPDEST PUSH3 0x80000 DUP3 AND ISZERO PUSH2 0x51A JUMPI PUSH12 0x48A170391F7DC42444E8FA2 MUL PUSH1 0x80 SHR JUMPDEST PUSH1 0x0 DUP5 PUSH1 0x2 SIGNEXTEND SGT ISZERO PUSH2 0x535 JUMPI DUP1 PUSH1 0x0 NOT DUP2 PUSH2 0x531 JUMPI INVALID JUMPDEST DIV SWAP1 POP JUMPDEST PUSH5 0x100000000 DUP2 MOD ISZERO PUSH2 0x549 JUMPI PUSH1 0x1 PUSH2 0x54C JUMP JUMPDEST PUSH1 0x0 JUMPDEST PUSH1 0xFF AND PUSH1 0x20 DUP3 SWAP1 SHR ADD SWAP3 POP POP POP SWAP2 SWAP1 POP JUMP JUMPDEST PUSH1 0x0 DUP3 PUSH1 0x1 PUSH1 0x1 PUSH1 0xA0 SHL SUB AND DUP5 PUSH1 0x1 PUSH1 0x1 PUSH1 0xA0 SHL SUB AND GT ISZERO PUSH2 0x57E JUMPI SWAP2 SWAP3 SWAP2 JUMPDEST DUP4 PUSH1 0x1 PUSH1 0x1 PUSH1 0xA0 SHL SUB AND PUSH2 0x5B7 PUSH1 0x60 PUSH1 0xFF AND DUP5 PUSH1 0x1 PUSH1 0x1 PUSH1 0x80 SHL SUB AND SWAP1 SHL DUP7 DUP7 SUB PUSH1 0x1 PUSH1 0x1 PUSH1 0xA0 SHL SUB AND DUP7 PUSH1 0x1 PUSH1 0x1 PUSH1 0xA0 SHL SUB AND PUSH2 0x614 JUMP JUMPDEST DUP2 PUSH2 0x5BE JUMPI INVALID JUMPDEST DIV SWAP1 POP JUMPDEST SWAP4 SWAP3 POP POP POP JUMP JUMPDEST PUSH1 0x0 DUP3 PUSH1 0x1 PUSH1 0x1 PUSH1 0xA0 SHL SUB AND DUP5 PUSH1 0x1 PUSH1 0x1 PUSH1 0xA0 SHL SUB AND GT ISZERO PUSH2 0x5E9 JUMPI SWAP2 SWAP3 SWAP2 JUMPDEST PUSH2 0x60C DUP3 PUSH1 0x1 PUSH1 0x1 PUSH1 0x80 SHL SUB AND DUP6 DUP6 SUB PUSH1 0x1 PUSH1 0x1 PUSH1 0xA0 SHL SUB AND PUSH1 0x1 PUSH1 0x60 SHL PUSH2 0x614 JUMP JUMPDEST SWAP5 SWAP4 POP POP POP POP JUMP JUMPDEST PUSH1 0x0 DUP1 DUP1 PUSH1 0x0 NOT DUP6 DUP8 MULMOD DUP7 DUP7 MUL SWAP3 POP DUP3 DUP2 LT SWAP1 DUP4 SWAP1 SUB SUB SWAP1 POP DUP1 PUSH2 0x64A JUMPI PUSH1 0x0 DUP5 GT PUSH2 0x63F JUMPI PUSH1 0x0 DUP1 REVERT JUMPDEST POP DUP3 SWAP1 DIV SWAP1 POP PUSH2 0x5C2 JUMP JUMPDEST DUP1 DUP5 GT PUSH2 0x656 JUMPI PUSH1 0x0 DUP1 REVERT JUMPDEST PUSH1 0x0 DUP5 DUP7 DUP9 MULMOD PUSH1 0x0 DUP7 DUP2 SUB DUP8 AND SWAP7 DUP8 SWAP1 DIV SWAP7 PUSH1 0x2 PUSH1 0x3 DUP10 MUL DUP2 XOR DUP1 DUP11 MUL DUP3 SUB MUL DUP1 DUP11 MUL DUP3 SUB MUL DUP1 DUP11 MUL DUP3 SUB MUL DUP1 DUP11 MUL DUP3 SUB MUL DUP1 DUP11 MUL DUP3 SUB MUL DUP1 DUP11 MUL SWAP1 SWAP2 SUB MUL SWAP2 DUP2 SWAP1 SUB DUP2 SWAP1 DIV PUSH1 0x1 ADD DUP7 DUP5 GT SWAP1 SWAP6 SUB SWAP5 SWAP1 SWAP5 MUL SWAP2 SWAP1 SWAP5 SUB SWAP3 SWAP1 SWAP3 DIV SWAP2 SWAP1 SWAP2 OR SWAP2 SWAP1 SWAP2 MUL SWAP2 POP POP SWAP4 SWAP3 POP POP POP JUMP JUMPDEST DUP1 MLOAD PUSH1 0x2 DUP2 SWAP1 SIGNEXTEND DUP2 EQ PUSH2 0x6D5 JUMPI PUSH1 0x0 DUP1 REVERT JUMPDEST SWAP2 SWAP1 POP JUMP JUMPDEST DUP1 MLOAD PUSH2 0xFFFF DUP2 AND DUP2 EQ PUSH2 0x6D5 JUMPI PUSH1 0x0 DUP1 REVERT JUMPDEST PUSH1 0x0 PUSH1 0x20 DUP3 DUP5 SUB SLT ISZERO PUSH2 0x6FD JUMPI DUP1 DUP2 REVERT JUMPDEST PUSH2 0x5C2 DUP3 PUSH2 0x6C3 JUMP JUMPDEST PUSH1 0x0 PUSH1 0x20 DUP3 DUP5 SUB SLT ISZERO PUSH2 0x717 JUMPI DUP1 DUP2 REVERT JUMPDEST DUP2 CALLDATALOAD PUSH1 0x1 PUSH1 0x1 PUSH1 0x80 SHL SUB DUP2 AND DUP2 EQ PUSH2 0x5C2 JUMPI DUP2 DUP3 REVERT JUMPDEST PUSH1 0x0 DUP1 PUSH1 0x0 DUP1 PUSH1 0x0 DUP1 PUSH1 0xC0 DUP8 DUP10 SUB SLT ISZERO PUSH2 0x745 JUMPI DUP2 DUP3 REVERT JUMPDEST DUP7 MLOAD PUSH1 0x1 PUSH1 0x1 PUSH1 0xA0 SHL SUB DUP2 AND DUP2 EQ PUSH2 0x75B JUMPI DUP3 DUP4 REVERT JUMPDEST SWAP6 POP PUSH2 0x769 PUSH1 0x20 DUP9 ADD PUSH2 0x6C3 JUMP JUMPDEST SWAP5 POP PUSH2 0x777 PUSH1 0x40 DUP9 ADD PUSH2 0x6DA JUMP JUMPDEST SWAP4 POP PUSH2 0x785 PUSH1 0x60 DUP9 ADD PUSH2 0x6DA JUMP JUMPDEST SWAP3 POP PUSH2 0x793 PUSH1 0x80 DUP9 ADD PUSH2 0x6DA JUMP JUMPDEST SWAP2 POP PUSH1 0xA0 DUP8 ADD MLOAD DUP1 ISZERO ISZERO DUP2 EQ PUSH2 0x7A7 JUMPI DUP2 DUP3 REVERT JUMPDEST DUP1 SWAP2 POP POP SWAP3 SWAP6 POP SWAP3 SWAP6 POP SWAP3 SWAP6 JUMP JUMPDEST PUSH1 0x1 PUSH1 0x1 PUSH1 0xA0 SHL SUB SWAP2 SWAP1 SWAP2 AND DUP2 MSTORE PUSH1 0x20 ADD SWAP1 JUMP JUMPDEST SWAP2 DUP3 MSTORE PUSH1 0x20 DUP3 ADD MSTORE PUSH1 0x40 ADD SWAP1 JUMP INVALID LOG2 PUSH5 0x6970667358 0x22 SLT KECCAK256 0xCA PUSH25 0x7D2B849ABC419481E15E2CB328D87625F8C805FC403BC72064 SMOD 0xE4 DUP5 PUSH3 0x836473 PUSH16 0x6C634300070600330000000000000000 "
				},
				"gasEstimates": {
					"creation": {
						"codeDepositCost": "412200",
						"executionCost": "infinite",
						"totalCost": "infinite"
					},
					"external": {
						"getTicks(uint128)": "infinite",
						"pool()": "infinite"
					},
					"internal": {
						"getAmount0ForLiquidity(uint160,uint160,uint128)": "708",
						"getAmount1ForLiquidity(uint160,uint160,uint128)": "634"
					}
				},
				"methodIdentifiers": {
					"getTicks(uint128)": "dd28c5c6",
					"pool()": "16f0115b"
				}
			},
			"storageLayout": {
				"storage": [],
				"types": null
			},
			"userdoc": {
				"kind": "user",
				"methods": {},
				"version": 1
			}
		}
	}
}