{
	"contracts/core/VeloBot.sol": {
		"V3Bot": {
			"abi": [
				{
					"inputs": [],
					"stateMutability": "nonpayable",
					"type": "constructor"
				},
				{
					"anonymous": false,
					"inputs": [
						{
							"indexed": true,
							"internalType": "address",
							"name": "user",
							"type": "address"
						},
						{
							"indexed": false,
							"internalType": "uint256",
							"name": "amountIn",
							"type": "uint256"
						},
						{
							"indexed": false,
							"internalType": "uint256",
							"name": "amountOut",
							"type": "uint256"
						}
					],
					"name": "SwapExecuted",
					"type": "event"
				},
				{
					"inputs": [
						{
							"internalType": "uint256",
							"name": "amountIn",
							"type": "uint256"
						}
					],
					"name": "Swap0for1",
					"outputs": [],
					"stateMutability": "nonpayable",
					"type": "function"
				},
				{
					"inputs": [
						{
							"internalType": "uint256",
							"name": "amountIn",
							"type": "uint256"
						}
					],
					"name": "V3Swap1for0",
					"outputs": [],
					"stateMutability": "nonpayable",
					"type": "function"
				},
				{
					"inputs": [
						{
							"internalType": "address",
							"name": "newAdmin",
							"type": "address"
						}
					],
					"name": "_newAdmin",
					"outputs": [],
					"stateMutability": "nonpayable",
					"type": "function"
				},
				{
					"inputs": [
						{
							"internalType": "address",
							"name": "newPool",
							"type": "address"
						}
					],
					"name": "_newPool",
					"outputs": [],
					"stateMutability": "nonpayable",
					"type": "function"
				},
				{
					"inputs": [
						{
							"internalType": "address",
							"name": "Token",
							"type": "address"
						}
					],
					"name": "_transferToAdmin",
					"outputs": [],
					"stateMutability": "nonpayable",
					"type": "function"
				},
				{
					"inputs": [
						{
							"internalType": "uint256",
							"name": "amount0ToMint",
							"type": "uint256"
						},
						{
							"internalType": "uint256",
							"name": "amount1ToMint",
							"type": "uint256"
						}
					],
					"name": "addLiquidity",
					"outputs": [
						{
							"internalType": "uint256",
							"name": "tokenId",
							"type": "uint256"
						},
						{
							"internalType": "uint128",
							"name": "liquidity",
							"type": "uint128"
						},
						{
							"internalType": "uint256",
							"name": "amount0",
							"type": "uint256"
						},
						{
							"internalType": "uint256",
							"name": "amount1",
							"type": "uint256"
						}
					],
					"stateMutability": "payable",
					"type": "function"
				},
				{
					"inputs": [],
					"name": "admin",
					"outputs": [
						{
							"internalType": "address",
							"name": "",
							"type": "address"
						}
					],
					"stateMutability": "view",
					"type": "function"
				},
				{
					"inputs": [
						{
							"internalType": "uint256",
							"name": "",
							"type": "uint256"
						}
					],
					"name": "deposits",
					"outputs": [
						{
							"internalType": "address",
							"name": "owner",
							"type": "address"
						},
						{
							"internalType": "uint128",
							"name": "liquidity",
							"type": "uint128"
						},
						{
							"internalType": "address",
							"name": "token0",
							"type": "address"
						},
						{
							"internalType": "address",
							"name": "token1",
							"type": "address"
						}
					],
					"stateMutability": "view",
					"type": "function"
				},
				{
					"inputs": [],
					"name": "farmNFT",
					"outputs": [
						{
							"internalType": "address",
							"name": "",
							"type": "address"
						}
					],
					"stateMutability": "view",
					"type": "function"
				},
				{
					"inputs": [
						{
							"internalType": "address",
							"name": "operator",
							"type": "address"
						},
						{
							"internalType": "address",
							"name": "",
							"type": "address"
						},
						{
							"internalType": "uint256",
							"name": "tokenId",
							"type": "uint256"
						},
						{
							"internalType": "bytes",
							"name": "",
							"type": "bytes"
						}
					],
					"name": "onERC721Received",
					"outputs": [
						{
							"internalType": "bytes4",
							"name": "",
							"type": "bytes4"
						}
					],
					"stateMutability": "nonpayable",
					"type": "function"
				},
				{
					"inputs": [],
					"name": "pool",
					"outputs": [
						{
							"internalType": "address",
							"name": "",
							"type": "address"
						}
					],
					"stateMutability": "view",
					"type": "function"
				},
				{
					"inputs": [],
					"name": "tickSpacing",
					"outputs": [
						{
							"internalType": "int24",
							"name": "",
							"type": "int24"
						}
					],
					"stateMutability": "view",
					"type": "function"
				},
				{
					"inputs": [],
					"name": "token0",
					"outputs": [
						{
							"internalType": "address",
							"name": "",
							"type": "address"
						}
					],
					"stateMutability": "view",
					"type": "function"
				},
				{
					"inputs": [],
					"name": "token1",
					"outputs": [
						{
							"internalType": "address",
							"name": "",
							"type": "address"
						}
					],
					"stateMutability": "view",
					"type": "function"
				},
				{
					"inputs": [
						{
							"internalType": "int256",
							"name": "amount0Delta",
							"type": "int256"
						},
						{
							"internalType": "int256",
							"name": "amount1Delta",
							"type": "int256"
						},
						{
							"internalType": "bytes",
							"name": "",
							"type": "bytes"
						}
					],
					"name": "uniswapV3SwapCallback",
					"outputs": [],
					"stateMutability": "nonpayable",
					"type": "function"
				}
			],
			"devdoc": {
				"kind": "dev",
				"methods": {},
				"version": 1
			},
			"evm": {
				"assembly": "    /* \"contracts/core/VeloBot.sol\":1014:7259  contract V3Bot is ICLSwapCallback {\r... */\n  mstore(0x40, 0x80)\n    /* \"contracts/core/VeloBot.sol\":1571:1622  constructor() {\r... */\n  callvalue\n  dup1\n  iszero\n  tag_1\n  jumpi\n  0x00\n  dup1\n  revert\ntag_1:\n  pop\n    /* \"contracts/core/VeloBot.sol\":1596:1601  admin */\n  0x04\n    /* \"contracts/core/VeloBot.sol\":1596:1614  admin = msg.sender */\n  dup1\n  sload\n  not(sub(shl(0xa0, 0x01), 0x01))\n  and\n    /* \"contracts/core/VeloBot.sol\":1604:1614  msg.sender */\n  caller\n    /* \"contracts/core/VeloBot.sol\":1596:1614  admin = msg.sender */\n  or\n  swap1\n  sstore\n    /* \"contracts/core/VeloBot.sol\":1014:7259  contract V3Bot is ICLSwapCallback {\r... */\n  dataSize(sub_0)\n  dup1\n  dataOffset(sub_0)\n  0x00\n  codecopy\n  0x00\n  return\nstop\n\nsub_0: assembly {\n        /* \"contracts/core/VeloBot.sol\":1014:7259  contract V3Bot is ICLSwapCallback {\r... */\n      mstore(0x40, 0x80)\n      jumpi(tag_1, lt(calldatasize, 0x04))\n      shr(0xe0, calldataload(0x00))\n      dup1\n      0xd21220a7\n      gt\n      tag_17\n      jumpi\n      dup1\n      0xe6f4d0aa\n      gt\n      tag_18\n      jumpi\n      dup1\n      0xe6f4d0aa\n      eq\n      tag_13\n      jumpi\n      dup1\n      0xf851a440\n      eq\n      tag_14\n      jumpi\n      dup1\n      0xfa461e33\n      eq\n      tag_15\n      jumpi\n      dup1\n      0xfdde416f\n      eq\n      tag_16\n      jumpi\n      jump(tag_1)\n    tag_18:\n      dup1\n      0xd21220a7\n      eq\n      tag_9\n      jumpi\n      dup1\n      0xd2aca8cd\n      eq\n      tag_10\n      jumpi\n      dup1\n      0xda802f80\n      eq\n      tag_11\n      jumpi\n      dup1\n      0xdb638298\n      eq\n      tag_12\n      jumpi\n      jump(tag_1)\n    tag_17:\n      dup1\n      0x7210468a\n      gt\n      tag_19\n      jumpi\n      dup1\n      0x7210468a\n      eq\n      tag_5\n      jumpi\n      dup1\n      0x9cd441da\n      eq\n      tag_6\n      jumpi\n      dup1\n      0xb02c43d0\n      eq\n      tag_7\n      jumpi\n      dup1\n      0xd0c93a7c\n      eq\n      tag_8\n      jumpi\n      jump(tag_1)\n    tag_19:\n      dup1\n      0x0dfe1681\n      eq\n      tag_2\n      jumpi\n      dup1\n      0x150b7a02\n      eq\n      tag_3\n      jumpi\n      dup1\n      0x16f0115b\n      eq\n      tag_4\n      jumpi\n    tag_1:\n      0x00\n      dup1\n      revert\n        /* \"contracts/core/VeloBot.sol\":1111:1132  address public token0 */\n    tag_2:\n      callvalue\n      dup1\n      iszero\n      tag_20\n      jumpi\n      0x00\n      dup1\n      revert\n    tag_20:\n      pop\n      tag_21\n      tag_22\n      jump\t// in\n    tag_21:\n      mload(0x40)\n      tag_23\n      swap2\n      swap1\n      tag_24\n      jump\t// in\n    tag_23:\n      mload(0x40)\n      dup1\n      swap2\n      sub\n      swap1\n      return\n        /* \"contracts/core/VeloBot.sol\":6527:6819  function onERC721Received(\r... */\n    tag_3:\n      callvalue\n      dup1\n      iszero\n      tag_25\n      jumpi\n      0x00\n      dup1\n      revert\n    tag_25:\n      pop\n      tag_26\n      tag_27\n      calldatasize\n      0x04\n      tag_28\n      jump\t// in\n    tag_27:\n      tag_29\n      jump\t// in\n    tag_26:\n      mload(0x40)\n      tag_23\n      swap2\n      swap1\n      tag_31\n      jump\t// in\n        /* \"contracts/core/VeloBot.sol\":1055:1074  address public pool */\n    tag_4:\n      callvalue\n      dup1\n      iszero\n      tag_32\n      jumpi\n      0x00\n      dup1\n      revert\n    tag_32:\n      pop\n      tag_21\n      tag_34\n      jump\t// in\n        /* \"contracts/core/VeloBot.sol\":2146:2330  function _transferToAdmin(address Token) external {\r... */\n    tag_5:\n      callvalue\n      dup1\n      iszero\n      tag_36\n      jumpi\n      0x00\n      dup1\n      revert\n    tag_36:\n      pop\n      tag_37\n      tag_38\n      calldatasize\n      0x04\n      tag_39\n      jump\t// in\n    tag_38:\n      tag_40\n      jump\t// in\n    tag_37:\n      stop\n        /* \"contracts/core/VeloBot.sol\":5261:6519  function addLiquidity(uint256 amount0ToMint, uint256 amount1ToMint) external payable returns (uint256 tokenId, uint128 liquidity, uint256 amount0, uint256 amount1){\r... */\n    tag_6:\n      tag_41\n      tag_42\n      calldatasize\n      0x04\n      tag_43\n      jump\t// in\n    tag_42:\n      tag_44\n      jump\t// in\n    tag_41:\n      mload(0x40)\n      tag_23\n      swap5\n      swap4\n      swap3\n      swap2\n      swap1\n      tag_46\n      jump\t// in\n        /* \"contracts/core/VeloBot.sol\":1433:1476  mapping(uint256 => Deposit) public deposits */\n    tag_7:\n      callvalue\n      dup1\n      iszero\n      tag_47\n      jumpi\n      0x00\n      dup1\n      revert\n    tag_47:\n      pop\n      tag_48\n      tag_49\n      calldatasize\n      0x04\n      tag_50\n      jump\t// in\n    tag_49:\n      tag_51\n      jump\t// in\n    tag_48:\n      mload(0x40)\n      tag_23\n      swap5\n      swap4\n      swap3\n      swap2\n      swap1\n      tag_53\n      jump\t// in\n        /* \"contracts/core/VeloBot.sol\":1267:1291  int24 public tickSpacing */\n    tag_8:\n      callvalue\n      dup1\n      iszero\n      tag_54\n      jumpi\n      0x00\n      dup1\n      revert\n    tag_54:\n      pop\n      tag_55\n      tag_56\n      jump\t// in\n    tag_55:\n      mload(0x40)\n      tag_23\n      swap2\n      swap1\n      tag_58\n      jump\t// in\n        /* \"contracts/core/VeloBot.sol\":1161:1182  address public token1 */\n    tag_9:\n      callvalue\n      dup1\n      iszero\n      tag_59\n      jumpi\n      0x00\n      dup1\n      revert\n    tag_59:\n      pop\n      tag_21\n      tag_61\n      jump\t// in\n        /* \"contracts/core/VeloBot.sol\":1784:2138  function _newPool(address newPool) external {\r... */\n    tag_10:\n      callvalue\n      dup1\n      iszero\n      tag_63\n      jumpi\n      0x00\n      dup1\n      revert\n    tag_63:\n      pop\n      tag_37\n      tag_65\n      calldatasize\n      0x04\n      tag_39\n      jump\t// in\n    tag_65:\n      tag_66\n      jump\t// in\n        /* \"contracts/core/VeloBot.sol\":1211:1233  address public farmNFT */\n    tag_11:\n      callvalue\n      dup1\n      iszero\n      tag_67\n      jumpi\n      0x00\n      dup1\n      revert\n    tag_67:\n      pop\n      tag_21\n      tag_69\n      jump\t// in\n        /* \"contracts/core/VeloBot.sol\":2338:3423  function Swap0for1(uint256 amountIn) external {\r... */\n    tag_12:\n      callvalue\n      dup1\n      iszero\n      tag_71\n      jumpi\n      0x00\n      dup1\n      revert\n    tag_71:\n      pop\n      tag_37\n      tag_73\n      calldatasize\n      0x04\n      tag_50\n      jump\t// in\n    tag_73:\n      tag_74\n      jump\t// in\n        /* \"contracts/core/VeloBot.sol\":1630:1776  function _newAdmin(address newAdmin) external {\r... */\n    tag_13:\n      callvalue\n      dup1\n      iszero\n      tag_75\n      jumpi\n      0x00\n      dup1\n      revert\n    tag_75:\n      pop\n      tag_37\n      tag_77\n      calldatasize\n      0x04\n      tag_39\n      jump\t// in\n    tag_77:\n      tag_78\n      jump\t// in\n        /* \"contracts/core/VeloBot.sol\":1240:1260  address public admin */\n    tag_14:\n      callvalue\n      dup1\n      iszero\n      tag_79\n      jumpi\n      0x00\n      dup1\n      revert\n    tag_79:\n      pop\n      tag_21\n      tag_81\n      jump\t// in\n        /* \"contracts/core/VeloBot.sol\":4598:5257  function uniswapV3SwapCallback(\r... */\n    tag_15:\n      callvalue\n      dup1\n      iszero\n      tag_83\n      jumpi\n      0x00\n      dup1\n      revert\n    tag_83:\n      pop\n      tag_37\n      tag_85\n      calldatasize\n      0x04\n      tag_86\n      jump\t// in\n    tag_85:\n      tag_87\n      jump\t// in\n        /* \"contracts/core/VeloBot.sol\":3431:4520  function V3Swap1for0(uint256 amountIn) external {\r... */\n    tag_16:\n      callvalue\n      dup1\n      iszero\n      tag_88\n      jumpi\n      0x00\n      dup1\n      revert\n    tag_88:\n      pop\n      tag_37\n      tag_90\n      calldatasize\n      0x04\n      tag_50\n      jump\t// in\n    tag_90:\n      tag_91\n      jump\t// in\n        /* \"contracts/core/VeloBot.sol\":1111:1132  address public token0 */\n    tag_22:\n      and(sub(shl(0xa0, 0x01), 0x01), sload(0x01))\n      dup2\n      jump\t// out\n        /* \"contracts/core/VeloBot.sol\":6527:6819  function onERC721Received(\r... */\n    tag_29:\n        /* \"contracts/core/VeloBot.sol\":6674:6680  bytes4 */\n      0x00\n        /* \"contracts/core/VeloBot.sol\":6730:6763  _createDeposit(operator, tokenId) */\n      tag_93\n        /* \"contracts/core/VeloBot.sol\":6745:6753  operator */\n      dup7\n        /* \"contracts/core/VeloBot.sol\":6755:6762  tokenId */\n      dup6\n        /* \"contracts/core/VeloBot.sol\":6730:6744  _createDeposit */\n      tag_94\n        /* \"contracts/core/VeloBot.sol\":6730:6763  _createDeposit(operator, tokenId) */\n      jump\t// in\n    tag_93:\n      pop\n      shl(0xe1, 0x0a85bd01)\n        /* \"contracts/core/VeloBot.sol\":6527:6819  function onERC721Received(\r... */\n      swap6\n      swap5\n      pop\n      pop\n      pop\n      pop\n      pop\n      jump\t// out\n        /* \"contracts/core/VeloBot.sol\":1055:1074  address public pool */\n    tag_34:\n      and(sub(shl(0xa0, 0x01), 0x01), sload(0x00))\n      dup2\n      jump\t// out\n        /* \"contracts/core/VeloBot.sol\":2146:2330  function _transferToAdmin(address Token) external {\r... */\n    tag_40:\n        /* \"contracts/core/VeloBot.sol\":2223:2268  IERC20Minimal(Token).balanceOf(address(this)) */\n      mload(0x40)\n      shl(0xe0, 0x70a08231)\n      dup2\n      mstore\n        /* \"contracts/core/VeloBot.sol\":2207:2220  uint256 value */\n      0x00\n      swap1\n      sub(shl(0xa0, 0x01), 0x01)\n        /* \"contracts/core/VeloBot.sol\":2223:2253  IERC20Minimal(Token).balanceOf */\n      dup4\n      and\n      swap1\n      0x70a08231\n      swap1\n        /* \"contracts/core/VeloBot.sol\":2223:2268  IERC20Minimal(Token).balanceOf(address(this)) */\n      tag_96\n      swap1\n        /* \"contracts/core/VeloBot.sol\":2262:2266  this */\n      address\n      swap1\n        /* \"contracts/core/VeloBot.sol\":2223:2268  IERC20Minimal(Token).balanceOf(address(this)) */\n      0x04\n      add\n      tag_24\n      jump\t// in\n    tag_96:\n      0x20\n      mload(0x40)\n      dup1\n      dup4\n      sub\n      dup2\n      dup7\n      dup1\n      extcodesize\n      iszero\n      dup1\n      iszero\n      tag_97\n      jumpi\n      0x00\n      dup1\n      revert\n    tag_97:\n      pop\n      gas\n      staticcall\n      iszero\n      dup1\n      iszero\n      tag_99\n      jumpi\n      returndatasize\n      0x00\n      dup1\n      returndatacopy\n      revert(0x00, returndatasize)\n    tag_99:\n      pop\n      pop\n      pop\n      pop\n      mload(0x40)\n      returndatasize\n      not(0x1f)\n      0x1f\n      dup3\n      add\n      and\n      dup3\n      add\n      dup1\n      0x40\n      mstore\n      pop\n      dup2\n      add\n      swap1\n      tag_100\n      swap2\n      swap1\n      tag_101\n      jump\t// in\n    tag_100:\n        /* \"contracts/core/VeloBot.sol\":2309:2314  admin */\n      0x04\n      dup1\n      sload\n        /* \"contracts/core/VeloBot.sol\":2279:2322  IERC20Minimal(Token).transfer(admin, value) */\n      mload(0x40)\n      shl(0xe0, 0xa9059cbb)\n      dup2\n      mstore\n        /* \"contracts/core/VeloBot.sol\":2207:2268  uint256 value = IERC20Minimal(Token).balanceOf(address(this)) */\n      swap3\n      swap4\n      pop\n      sub(shl(0xa0, 0x01), 0x01)\n        /* \"contracts/core/VeloBot.sol\":2279:2308  IERC20Minimal(Token).transfer */\n      dup1\n      dup7\n      and\n      swap4\n      0xa9059cbb\n      swap4\n        /* \"contracts/core/VeloBot.sol\":2279:2322  IERC20Minimal(Token).transfer(admin, value) */\n      tag_102\n      swap4\n        /* \"contracts/core/VeloBot.sol\":2309:2314  admin */\n      swap1\n      swap3\n      and\n      swap2\n        /* \"contracts/core/VeloBot.sol\":2207:2268  uint256 value = IERC20Minimal(Token).balanceOf(address(this)) */\n      dup7\n      swap2\n        /* \"contracts/core/VeloBot.sol\":2279:2322  IERC20Minimal(Token).transfer(admin, value) */\n      add\n      tag_103\n      jump\t// in\n    tag_102:\n      0x20\n      mload(0x40)\n      dup1\n      dup4\n      sub\n      dup2\n      0x00\n      dup8\n      dup1\n      extcodesize\n      iszero\n      dup1\n      iszero\n      tag_104\n      jumpi\n      0x00\n      dup1\n      revert\n    tag_104:\n      pop\n      gas\n      call\n      iszero\n      dup1\n      iszero\n      tag_106\n      jumpi\n      returndatasize\n      0x00\n      dup1\n      returndatacopy\n      revert(0x00, returndatasize)\n    tag_106:\n      pop\n      pop\n      pop\n      pop\n      mload(0x40)\n      returndatasize\n      not(0x1f)\n      0x1f\n      dup3\n      add\n      and\n      dup3\n      add\n      dup1\n      0x40\n      mstore\n      pop\n      dup2\n      add\n      swap1\n      tag_107\n      swap2\n      swap1\n      tag_108\n      jump\t// in\n    tag_107:\n      pop\n        /* \"contracts/core/VeloBot.sol\":2146:2330  function _transferToAdmin(address Token) external {\r... */\n      pop\n      pop\n      jump\t// out\n        /* \"contracts/core/VeloBot.sol\":5261:6519  function addLiquidity(uint256 amount0ToMint, uint256 amount1ToMint) external payable returns (uint256 tokenId, uint128 liquidity, uint256 amount0, uint256 amount1){\r... */\n    tag_44:\n        /* \"contracts/core/VeloBot.sol\":5508:5514  token0 */\n      sload(0x01)\n        /* \"contracts/core/VeloBot.sol\":5524:5531  farmNFT */\n      sload(0x03)\n        /* \"contracts/core/VeloBot.sol\":5494:5547  IERC20Minimal(token0).approve(farmNFT, amount0ToMint) */\n      mload(0x40)\n      shl(0xe0, 0x095ea7b3)\n      dup2\n      mstore\n        /* \"contracts/core/VeloBot.sol\":5355:5370  uint256 tokenId */\n      0x00\n      swap3\n      dup4\n      swap3\n      dup4\n      swap3\n      dup4\n      swap3\n      sub(shl(0xa0, 0x01), 0x01)\n        /* \"contracts/core/VeloBot.sol\":5508:5514  token0 */\n      swap1\n      dup2\n      and\n      swap3\n        /* \"contracts/core/VeloBot.sol\":5494:5523  IERC20Minimal(token0).approve */\n      0x095ea7b3\n      swap3\n        /* \"contracts/core/VeloBot.sol\":5494:5547  IERC20Minimal(token0).approve(farmNFT, amount0ToMint) */\n      tag_110\n      swap3\n        /* \"contracts/core/VeloBot.sol\":5524:5531  farmNFT */\n      swap1\n      swap2\n      and\n      swap1\n        /* \"contracts/core/VeloBot.sol\":5533:5546  amount0ToMint */\n      dup11\n      swap1\n        /* \"contracts/core/VeloBot.sol\":5494:5547  IERC20Minimal(token0).approve(farmNFT, amount0ToMint) */\n      0x04\n      add\n      tag_103\n      jump\t// in\n    tag_110:\n      0x20\n      mload(0x40)\n      dup1\n      dup4\n      sub\n      dup2\n      0x00\n      dup8\n      dup1\n      extcodesize\n      iszero\n      dup1\n      iszero\n      tag_111\n      jumpi\n      0x00\n      dup1\n      revert\n    tag_111:\n      pop\n      gas\n      call\n      iszero\n      dup1\n      iszero\n      tag_113\n      jumpi\n      returndatasize\n      0x00\n      dup1\n      returndatacopy\n      revert(0x00, returndatasize)\n    tag_113:\n      pop\n      pop\n      pop\n      pop\n      mload(0x40)\n      returndatasize\n      not(0x1f)\n      0x1f\n      dup3\n      add\n      and\n      dup3\n      add\n      dup1\n      0x40\n      mstore\n      pop\n      dup2\n      add\n      swap1\n      tag_114\n      swap2\n      swap1\n      tag_108\n      jump\t// in\n    tag_114:\n      pop\n        /* \"contracts/core/VeloBot.sol\":5572:5578  token1 */\n      sload(0x02)\n        /* \"contracts/core/VeloBot.sol\":5588:5595  farmNFT */\n      sload(0x03)\n        /* \"contracts/core/VeloBot.sol\":5558:5611  IERC20Minimal(token1).approve(farmNFT, amount1ToMint) */\n      mload(0x40)\n      shl(0xe0, 0x095ea7b3)\n      dup2\n      mstore\n      sub(shl(0xa0, 0x01), 0x01)\n        /* \"contracts/core/VeloBot.sol\":5572:5578  token1 */\n      swap3\n      dup4\n      and\n      swap3\n        /* \"contracts/core/VeloBot.sol\":5558:5587  IERC20Minimal(token1).approve */\n      0x095ea7b3\n      swap3\n        /* \"contracts/core/VeloBot.sol\":5558:5611  IERC20Minimal(token1).approve(farmNFT, amount1ToMint) */\n      tag_115\n      swap3\n        /* \"contracts/core/VeloBot.sol\":5588:5595  farmNFT */\n      swap2\n      and\n      swap1\n        /* \"contracts/core/VeloBot.sol\":5597:5610  amount1ToMint */\n      dup10\n      swap1\n        /* \"contracts/core/VeloBot.sol\":5558:5611  IERC20Minimal(token1).approve(farmNFT, amount1ToMint) */\n      0x04\n      add\n      tag_103\n      jump\t// in\n    tag_115:\n      0x20\n      mload(0x40)\n      dup1\n      dup4\n      sub\n      dup2\n      0x00\n      dup8\n      dup1\n      extcodesize\n      iszero\n      dup1\n      iszero\n      tag_116\n      jumpi\n      0x00\n      dup1\n      revert\n    tag_116:\n      pop\n      gas\n      call\n      iszero\n      dup1\n      iszero\n      tag_118\n      jumpi\n      returndatasize\n      0x00\n      dup1\n      returndatacopy\n      revert(0x00, returndatasize)\n    tag_118:\n      pop\n      pop\n      pop\n      pop\n      mload(0x40)\n      returndatasize\n      not(0x1f)\n      0x1f\n      dup3\n      add\n      and\n      dup3\n      add\n      dup1\n      0x40\n      mstore\n      pop\n      dup2\n      add\n      swap1\n      tag_119\n      swap2\n      swap1\n      tag_108\n      jump\t// in\n    tag_119:\n      pop\n        /* \"contracts/core/VeloBot.sol\":5623:5643  uint160 sqrtPriceX96 */\n      0x00\n        /* \"contracts/core/VeloBot.sol\":5665:5669  pool */\n      dup1\n      0x00\n      swap1\n      sload\n      swap1\n      0x0100\n      exp\n      swap1\n      div\n      sub(shl(0xa0, 0x01), 0x01)\n      and\n      sub(shl(0xa0, 0x01), 0x01)\n        /* \"contracts/core/VeloBot.sol\":5652:5676  ICLPoolState(pool).slot0 */\n      and\n      0x3850c7bd\n        /* \"contracts/core/VeloBot.sol\":5652:5678  ICLPoolState(pool).slot0() */\n      mload(0x40)\n      dup2\n      0xffffffff\n      and\n      0xe0\n      shl\n      dup2\n      mstore\n      0x04\n      add\n      0xc0\n      mload(0x40)\n      dup1\n      dup4\n      sub\n      dup2\n      dup7\n      dup1\n      extcodesize\n      iszero\n      dup1\n      iszero\n      tag_120\n      jumpi\n      0x00\n      dup1\n      revert\n    tag_120:\n      pop\n      gas\n      staticcall\n      iszero\n      dup1\n      iszero\n      tag_122\n      jumpi\n      returndatasize\n      0x00\n      dup1\n      returndatacopy\n      revert(0x00, returndatasize)\n    tag_122:\n      pop\n      pop\n      pop\n      pop\n      mload(0x40)\n      returndatasize\n      not(0x1f)\n      0x1f\n      dup3\n      add\n      and\n      dup3\n      add\n      dup1\n      0x40\n      mstore\n      pop\n      dup2\n      add\n      swap1\n      tag_123\n      swap2\n      swap1\n      tag_124\n      jump\t// in\n    tag_123:\n      pop\n      pop\n        /* \"contracts/core/VeloBot.sol\":5759:6347  INonfungiblePositionManager.MintParams({\r... */\n      0x40\n      dup1\n      mload\n      0x0180\n      dup2\n      add\n      dup3\n      mstore\n        /* \"contracts/core/VeloBot.sol\":5825:5831  token0 */\n      sload(0x01)\n      sub(shl(0xa0, 0x01), 0x01)\n      swap1\n      dup2\n      and\n        /* \"contracts/core/VeloBot.sol\":5759:6347  INonfungiblePositionManager.MintParams({\r... */\n      dup3\n      mstore\n        /* \"contracts/core/VeloBot.sol\":5858:5864  token1 */\n      0x02\n      dup1\n      sload\n      dup3\n      and\n        /* \"contracts/core/VeloBot.sol\":5759:6347  INonfungiblePositionManager.MintParams({\r... */\n      0x20\n      dup5\n      add\n      mstore\n        /* \"contracts/core/VeloBot.sol\":5896:5907  tickSpacing */\n      0x04\n      dup1\n      sload\n      shl(0xa0, 0x01)\n      swap1\n      div\n      dup3\n      signextend\n        /* \"contracts/core/VeloBot.sol\":5759:6347  INonfungiblePositionManager.MintParams({\r... */\n      swap1\n      swap2\n      signextend\n      dup4\n      dup6\n      add\n      mstore\n      not(0x0d89e7)\n      0x60\n      dup5\n      add\n      mstore\n        /* \"contracts/core/libraries/TickMath.sol\":644:653  -MIN_TICK */\n      0x0d89e8\n        /* \"contracts/core/VeloBot.sol\":5759:6347  INonfungiblePositionManager.MintParams({\r... */\n      0x80\n      dup5\n      add\n      mstore\n      0xa0\n      dup4\n      add\n      dup16\n      swap1\n      mstore\n      0xc0\n      dup4\n      add\n      dup15\n      swap1\n      mstore\n        /* \"contracts/core/VeloBot.sol\":5691:5743  INonfungiblePositionManager.MintParams memory params */\n      0x00\n        /* \"contracts/core/VeloBot.sol\":5759:6347  INonfungiblePositionManager.MintParams({\r... */\n      0xe0\n      dup5\n      add\n      dup2\n      swap1\n      mstore\n        /* \"contracts/core/VeloBot.sol\":5825:5831  token0 */\n      0x0100\n        /* \"contracts/core/VeloBot.sol\":5759:6347  INonfungiblePositionManager.MintParams({\r... */\n      dup5\n      add\n      mstore\n        /* \"contracts/core/VeloBot.sol\":6237:6241  this */\n      address\n        /* \"contracts/core/VeloBot.sol\":5759:6347  INonfungiblePositionManager.MintParams({\r... */\n      0x0120\n      dup5\n      add\n      mstore\n        /* \"contracts/core/VeloBot.sol\":6271:6286  block.timestamp */\n      timestamp\n        /* \"contracts/core/VeloBot.sol\":5759:6347  INonfungiblePositionManager.MintParams({\r... */\n      0x0140\n      dup5\n      add\n      mstore\n      dup2\n      dup9\n      and\n      0x0160\n      dup5\n      add\n      mstore\n        /* \"contracts/core/VeloBot.sol\":6431:6438  farmNFT */\n      sload(0x03)\n        /* \"contracts/core/VeloBot.sol\":6403:6452  INonfungiblePositionManager(farmNFT).mint(params) */\n      swap4\n      mload\n      shl(0xe0, 0xb5007d1f)\n      dup2\n      mstore\n        /* \"contracts/core/VeloBot.sol\":5622:5678  (uint160 sqrtPriceX96,,,,,) = ICLPoolState(pool).slot0() */\n      swap8\n      swap9\n      pop\n        /* \"contracts/core/VeloBot.sol\":5759:6347  INonfungiblePositionManager.MintParams({\r... */\n      swap2\n      swap7\n        /* \"contracts/core/VeloBot.sol\":6431:6438  farmNFT */\n      swap3\n      and\n      swap5\n      pop\n        /* \"contracts/core/VeloBot.sol\":6403:6444  INonfungiblePositionManager(farmNFT).mint */\n      0xb5007d1f\n      swap4\n      pop\n        /* \"contracts/core/VeloBot.sol\":6403:6452  INonfungiblePositionManager(farmNFT).mint(params) */\n      tag_125\n      swap3\n      pop\n        /* \"contracts/core/VeloBot.sol\":5759:6347  INonfungiblePositionManager.MintParams({\r... */\n      dup6\n      swap2\n        /* \"contracts/core/VeloBot.sol\":6403:6452  INonfungiblePositionManager(farmNFT).mint(params) */\n      add\n      tag_126\n      jump\t// in\n    tag_125:\n      0x80\n      mload(0x40)\n      dup1\n      dup4\n      sub\n      dup2\n      0x00\n      dup8\n      dup1\n      extcodesize\n      iszero\n      dup1\n      iszero\n      tag_127\n      jumpi\n      0x00\n      dup1\n      revert\n    tag_127:\n      pop\n      gas\n      call\n      iszero\n      dup1\n      iszero\n      tag_129\n      jumpi\n      returndatasize\n      0x00\n      dup1\n      returndatacopy\n      revert(0x00, returndatasize)\n    tag_129:\n      pop\n      pop\n      pop\n      pop\n      mload(0x40)\n      returndatasize\n      not(0x1f)\n      0x1f\n      dup3\n      add\n      and\n      dup3\n      add\n      dup1\n      0x40\n      mstore\n      pop\n      dup2\n      add\n      swap1\n      tag_130\n      swap2\n      swap1\n      tag_131\n      jump\t// in\n    tag_130:\n        /* \"contracts/core/VeloBot.sol\":6362:6452  (tokenId, liquidity, amount0, amount1) = INonfungiblePositionManager(farmNFT).mint(params) */\n      swap3\n      swap9\n      pop\n      swap1\n      swap7\n      pop\n      swap5\n      pop\n      swap3\n      pop\n        /* \"contracts/core/VeloBot.sol\":6475:6513  _createDeposit(address(this), tokenId) */\n      tag_132\n        /* \"contracts/core/VeloBot.sol\":6498:6502  this */\n      address\n        /* \"contracts/core/VeloBot.sol\":6362:6452  (tokenId, liquidity, amount0, amount1) = INonfungiblePositionManager(farmNFT).mint(params) */\n      dup8\n        /* \"contracts/core/VeloBot.sol\":6475:6489  _createDeposit */\n      tag_94\n        /* \"contracts/core/VeloBot.sol\":6475:6513  _createDeposit(address(this), tokenId) */\n      jump\t// in\n    tag_132:\n        /* \"contracts/core/VeloBot.sol\":5261:6519  function addLiquidity(uint256 amount0ToMint, uint256 amount1ToMint) external payable returns (uint256 tokenId, uint128 liquidity, uint256 amount0, uint256 amount1){\r... */\n      pop\n      pop\n      swap3\n      swap6\n      swap2\n      swap5\n      pop\n      swap3\n      pop\n      jump\t// out\n        /* \"contracts/core/VeloBot.sol\":1433:1476  mapping(uint256 => Deposit) public deposits */\n    tag_51:\n      mstore(0x20, 0x05)\n      0x00\n      swap1\n      dup2\n      mstore\n      0x40\n      swap1\n      keccak256\n      dup1\n      sload\n      0x01\n      dup3\n      add\n      sload\n      0x02\n      dup4\n      add\n      sload\n      0x03\n      swap1\n      swap4\n      add\n      sload\n      sub(shl(0xa0, 0x01), 0x01)\n      swap3\n      dup4\n      and\n      swap4\n      sub(shl(0x80, 0x01), 0x01)\n      swap1\n      swap3\n      and\n      swap3\n      swap2\n      dup3\n      and\n      swap2\n      and\n      dup5\n      jump\t// out\n        /* \"contracts/core/VeloBot.sol\":1267:1291  int24 public tickSpacing */\n    tag_56:\n      sload(0x04)\n      shl(0xa0, 0x01)\n      swap1\n      div\n      0x02\n      signextend\n      dup2\n      jump\t// out\n        /* \"contracts/core/VeloBot.sol\":1161:1182  address public token1 */\n    tag_61:\n      and(sub(shl(0xa0, 0x01), 0x01), sload(0x02))\n      dup2\n      jump\t// out\n        /* \"contracts/core/VeloBot.sol\":1784:2138  function _newPool(address newPool) external {\r... */\n    tag_66:\n        /* \"contracts/core/VeloBot.sol\":1861:1866  admin */\n      and(sub(shl(0xa0, 0x01), 0x01), sload(0x04))\n        /* \"contracts/core/VeloBot.sol\":1847:1857  msg.sender */\n      caller\n        /* \"contracts/core/VeloBot.sol\":1847:1866  msg.sender == admin */\n      eq\n        /* \"contracts/core/VeloBot.sol\":1839:1893  require(msg.sender == admin, \"Only owner can do this\") */\n      tag_134\n      jumpi\n      mload(0x40)\n      shl(0xe5, 0x461bcd)\n      dup2\n      mstore\n      0x04\n      add\n      tag_135\n      swap1\n      tag_136\n      jump\t// in\n    tag_135:\n      mload(0x40)\n      dup1\n      swap2\n      sub\n      swap1\n      revert\n    tag_134:\n        /* \"contracts/core/VeloBot.sol\":1904:1908  pool */\n      0x00\n        /* \"contracts/core/VeloBot.sol\":1904:1918  pool = newPool */\n      dup1\n      sload\n      not(sub(shl(0xa0, 0x01), 0x01))\n      and\n      sub(shl(0xa0, 0x01), 0x01)\n      dup4\n      dup2\n      and\n      swap2\n      swap1\n      swap2\n      or\n      swap2\n      dup3\n      swap1\n      sstore\n        /* \"contracts/core/VeloBot.sol\":1938:1969  ICLPoolConstants(pool).token0() */\n      0x40\n      dup1\n      mload\n      shl(0xe0, 0x0dfe1681)\n      dup2\n      mstore\n      swap1\n      mload\n        /* \"contracts/core/VeloBot.sol\":1955:1959  pool */\n      swap3\n      swap1\n      swap2\n      and\n      swap2\n        /* \"contracts/core/VeloBot.sol\":1938:1967  ICLPoolConstants(pool).token0 */\n      0x0dfe1681\n      swap2\n        /* \"contracts/core/VeloBot.sol\":1938:1969  ICLPoolConstants(pool).token0() */\n      0x04\n      dup1\n      dup3\n      add\n      swap3\n      0x20\n      swap3\n      swap1\n      swap2\n      swap1\n      dup3\n      swap1\n      sub\n      add\n      dup2\n        /* \"contracts/core/VeloBot.sol\":1955:1959  pool */\n      dup7\n        /* \"contracts/core/VeloBot.sol\":1938:1969  ICLPoolConstants(pool).token0() */\n      dup1\n      extcodesize\n      iszero\n      dup1\n      iszero\n      tag_137\n      jumpi\n      0x00\n      dup1\n      revert\n    tag_137:\n      pop\n      gas\n      staticcall\n      iszero\n      dup1\n      iszero\n      tag_139\n      jumpi\n      returndatasize\n      0x00\n      dup1\n      returndatacopy\n      revert(0x00, returndatasize)\n    tag_139:\n      pop\n      pop\n      pop\n      pop\n      mload(0x40)\n      returndatasize\n      not(0x1f)\n      0x1f\n      dup3\n      add\n      and\n      dup3\n      add\n      dup1\n      0x40\n      mstore\n      pop\n      dup2\n      add\n      swap1\n      tag_140\n      swap2\n      swap1\n      tag_141\n      jump\t// in\n    tag_140:\n        /* \"contracts/core/VeloBot.sol\":1929:1935  token0 */\n      0x01\n        /* \"contracts/core/VeloBot.sol\":1929:1969  token0 = ICLPoolConstants(pool).token0() */\n      dup1\n      sload\n      not(sub(shl(0xa0, 0x01), 0x01))\n      and\n      sub(shl(0xa0, 0x01), 0x01)\n      swap3\n      dup4\n      and\n      or\n      swap1\n      sstore\n      0x00\n        /* \"contracts/core/VeloBot.sol\":2006:2010  pool */\n      sload\n        /* \"contracts/core/VeloBot.sol\":1989:2020  ICLPoolConstants(pool).token1() */\n      0x40\n      dup1\n      mload\n      shl(0xe0, 0xd21220a7)\n      dup2\n      mstore\n      swap1\n      mload\n        /* \"contracts/core/VeloBot.sol\":2006:2010  pool */\n      swap2\n      swap1\n      swap3\n      and\n      swap2\n        /* \"contracts/core/VeloBot.sol\":1989:2018  ICLPoolConstants(pool).token1 */\n      0xd21220a7\n      swap2\n        /* \"contracts/core/VeloBot.sol\":1989:2020  ICLPoolConstants(pool).token1() */\n      0x04\n      dup1\n      dup4\n      add\n      swap3\n      0x20\n      swap3\n      swap2\n      swap1\n      dup3\n      swap1\n      sub\n      add\n      dup2\n        /* \"contracts/core/VeloBot.sol\":2006:2010  pool */\n      dup7\n        /* \"contracts/core/VeloBot.sol\":1989:2020  ICLPoolConstants(pool).token1() */\n      dup1\n      extcodesize\n      iszero\n      dup1\n      iszero\n      tag_142\n      jumpi\n      0x00\n      dup1\n      revert\n    tag_142:\n      pop\n      gas\n      staticcall\n      iszero\n      dup1\n      iszero\n      tag_144\n      jumpi\n      returndatasize\n      0x00\n      dup1\n      returndatacopy\n      revert(0x00, returndatasize)\n    tag_144:\n      pop\n      pop\n      pop\n      pop\n      mload(0x40)\n      returndatasize\n      not(0x1f)\n      0x1f\n      dup3\n      add\n      and\n      dup3\n      add\n      dup1\n      0x40\n      mstore\n      pop\n      dup2\n      add\n      swap1\n      tag_145\n      swap2\n      swap1\n      tag_141\n      jump\t// in\n    tag_145:\n        /* \"contracts/core/VeloBot.sol\":1980:1986  token1 */\n      0x02\n        /* \"contracts/core/VeloBot.sol\":1980:2020  token1 = ICLPoolConstants(pool).token1() */\n      dup1\n      sload\n      not(sub(shl(0xa0, 0x01), 0x01))\n      and\n      sub(shl(0xa0, 0x01), 0x01)\n      swap3\n      dup4\n      and\n      or\n      swap1\n      sstore\n      0x00\n        /* \"contracts/core/VeloBot.sol\":2058:2062  pool */\n      sload\n        /* \"contracts/core/VeloBot.sol\":2041:2069  ICLPoolConstants(pool).nft() */\n      0x40\n      dup1\n      mload\n      shl(0xe1, 0x23e66501)\n      dup2\n      mstore\n      swap1\n      mload\n        /* \"contracts/core/VeloBot.sol\":2058:2062  pool */\n      swap2\n      swap1\n      swap3\n      and\n      swap2\n        /* \"contracts/core/VeloBot.sol\":2041:2067  ICLPoolConstants(pool).nft */\n      0x47ccca02\n      swap2\n        /* \"contracts/core/VeloBot.sol\":2041:2069  ICLPoolConstants(pool).nft() */\n      0x04\n      dup1\n      dup4\n      add\n      swap3\n      0x20\n      swap3\n      swap2\n      swap1\n      dup3\n      swap1\n      sub\n      add\n      dup2\n        /* \"contracts/core/VeloBot.sol\":2058:2062  pool */\n      dup7\n        /* \"contracts/core/VeloBot.sol\":2041:2069  ICLPoolConstants(pool).nft() */\n      dup1\n      extcodesize\n      iszero\n      dup1\n      iszero\n      tag_146\n      jumpi\n      0x00\n      dup1\n      revert\n    tag_146:\n      pop\n      gas\n      staticcall\n      iszero\n      dup1\n      iszero\n      tag_148\n      jumpi\n      returndatasize\n      0x00\n      dup1\n      returndatacopy\n      revert(0x00, returndatasize)\n    tag_148:\n      pop\n      pop\n      pop\n      pop\n      mload(0x40)\n      returndatasize\n      not(0x1f)\n      0x1f\n      dup3\n      add\n      and\n      dup3\n      add\n      dup1\n      0x40\n      mstore\n      pop\n      dup2\n      add\n      swap1\n      tag_149\n      swap2\n      swap1\n      tag_141\n      jump\t// in\n    tag_149:\n        /* \"contracts/core/VeloBot.sol\":2031:2038  farmNFT */\n      0x03\n        /* \"contracts/core/VeloBot.sol\":2031:2069  farmNFT = ICLPoolConstants(pool).nft() */\n      dup1\n      sload\n      not(sub(shl(0xa0, 0x01), 0x01))\n      and\n      sub(shl(0xa0, 0x01), 0x01)\n      swap3\n      dup4\n      and\n      or\n      swap1\n      sstore\n      0x00\n        /* \"contracts/core/VeloBot.sol\":2111:2115  pool */\n      sload\n        /* \"contracts/core/VeloBot.sol\":2094:2130  ICLPoolConstants(pool).tickSpacing() */\n      0x40\n      dup1\n      mload\n      shl(0xe2, 0x34324e9f)\n      dup2\n      mstore\n      swap1\n      mload\n        /* \"contracts/core/VeloBot.sol\":2111:2115  pool */\n      swap2\n      swap1\n      swap3\n      and\n      swap2\n        /* \"contracts/core/VeloBot.sol\":2094:2128  ICLPoolConstants(pool).tickSpacing */\n      0xd0c93a7c\n      swap2\n        /* \"contracts/core/VeloBot.sol\":2094:2130  ICLPoolConstants(pool).tickSpacing() */\n      0x04\n      dup1\n      dup4\n      add\n      swap3\n      0x20\n      swap3\n      swap2\n      swap1\n      dup3\n      swap1\n      sub\n      add\n      dup2\n        /* \"contracts/core/VeloBot.sol\":2111:2115  pool */\n      dup7\n        /* \"contracts/core/VeloBot.sol\":2094:2130  ICLPoolConstants(pool).tickSpacing() */\n      dup1\n      extcodesize\n      iszero\n      dup1\n      iszero\n      tag_150\n      jumpi\n      0x00\n      dup1\n      revert\n    tag_150:\n      pop\n      gas\n      staticcall\n      iszero\n      dup1\n      iszero\n      tag_152\n      jumpi\n      returndatasize\n      0x00\n      dup1\n      returndatacopy\n      revert(0x00, returndatasize)\n    tag_152:\n      pop\n      pop\n      pop\n      pop\n      mload(0x40)\n      returndatasize\n      not(0x1f)\n      0x1f\n      dup3\n      add\n      and\n      dup3\n      add\n      dup1\n      0x40\n      mstore\n      pop\n      dup2\n      add\n      swap1\n      tag_153\n      swap2\n      swap1\n      tag_154\n      jump\t// in\n    tag_153:\n        /* \"contracts/core/VeloBot.sol\":2080:2091  tickSpacing */\n      0x04\n      0x14\n        /* \"contracts/core/VeloBot.sol\":2080:2130  tickSpacing = ICLPoolConstants(pool).tickSpacing() */\n      0x0100\n      exp\n      dup2\n      sload\n      dup2\n      0xffffff\n      mul\n      not\n      and\n      swap1\n      dup4\n      0x02\n      signextend\n      0xffffff\n      and\n      mul\n      or\n      swap1\n      sstore\n      pop\n        /* \"contracts/core/VeloBot.sol\":1784:2138  function _newPool(address newPool) external {\r... */\n      pop\n      jump\t// out\n        /* \"contracts/core/VeloBot.sol\":1211:1233  address public farmNFT */\n    tag_69:\n      and(sub(shl(0xa0, 0x01), 0x01), sload(0x03))\n      dup2\n      jump\t// out\n        /* \"contracts/core/VeloBot.sol\":2338:3423  function Swap0for1(uint256 amountIn) external {\r... */\n    tag_74:\n        /* \"contracts/core/VeloBot.sol\":2414:2415  0 */\n      0x00\n        /* \"contracts/core/VeloBot.sol\":2403:2411  amountIn */\n      dup2\n        /* \"contracts/core/VeloBot.sol\":2403:2415  amountIn > 0 */\n      gt\n        /* \"contracts/core/VeloBot.sol\":2395:2440  require(amountIn > 0, \"Invalid input amount\") */\n      tag_156\n      jumpi\n      mload(0x40)\n      shl(0xe5, 0x461bcd)\n      dup2\n      mstore\n      0x04\n      add\n      tag_135\n      swap1\n      tag_158\n      jump\t// in\n    tag_156:\n        /* \"contracts/core/VeloBot.sol\":2505:2525  uint160 sqrtPriceX96 */\n      0x00\n        /* \"contracts/core/VeloBot.sol\":2552:2556  pool */\n      dup1\n      0x00\n      swap1\n      sload\n      swap1\n      0x0100\n      exp\n      swap1\n      div\n      sub(shl(0xa0, 0x01), 0x01)\n      and\n      sub(shl(0xa0, 0x01), 0x01)\n        /* \"contracts/core/VeloBot.sol\":2539:2563  ICLPoolState(pool).slot0 */\n      and\n      0x3850c7bd\n        /* \"contracts/core/VeloBot.sol\":2539:2565  ICLPoolState(pool).slot0() */\n      mload(0x40)\n      dup2\n      0xffffffff\n      and\n      0xe0\n      shl\n      dup2\n      mstore\n      0x04\n      add\n      0xc0\n      mload(0x40)\n      dup1\n      dup4\n      sub\n      dup2\n      dup7\n      dup1\n      extcodesize\n      iszero\n      dup1\n      iszero\n      tag_159\n      jumpi\n      0x00\n      dup1\n      revert\n    tag_159:\n      pop\n      gas\n      staticcall\n      iszero\n      dup1\n      iszero\n      tag_161\n      jumpi\n      returndatasize\n      0x00\n      dup1\n      returndatacopy\n      revert(0x00, returndatasize)\n    tag_161:\n      pop\n      pop\n      pop\n      pop\n      mload(0x40)\n      returndatasize\n      not(0x1f)\n      0x1f\n      dup3\n      add\n      and\n      dup3\n      add\n      dup1\n      0x40\n      mstore\n      pop\n      dup2\n      add\n      swap1\n      tag_162\n      swap2\n      swap1\n      tag_124\n      jump\t// in\n    tag_162:\n        /* \"contracts/core/VeloBot.sol\":2504:2565  (uint160 sqrtPriceX96, , , , , ) = ICLPoolState(pool).slot0() */\n      pop\n      pop\n      pop\n      pop\n      pop\n      swap1\n      pop\n        /* \"contracts/core/VeloBot.sol\":2576:2601  uint160 sqrtPriceLimitX96 */\n      0x00\n        /* \"contracts/core/VeloBot.sol\":2632:2635  100 */\n      0x64\n        /* \"contracts/core/VeloBot.sol\":2612:2624  sqrtPriceX96 */\n      dup3\n        /* \"contracts/core/VeloBot.sol\":2627:2629  99 */\n      0x63\n        /* \"contracts/core/VeloBot.sol\":2612:2629  sqrtPriceX96 * 99 */\n      mul\n      sub(shl(0xa0, 0x01), 0x01)\n        /* \"contracts/core/VeloBot.sol\":2612:2635  sqrtPriceX96 * 99 / 100 */\n      and\n      dup2\n      tag_163\n      jumpi\n      invalid\n    tag_163:\n      div\n      swap1\n      pop\n        /* \"contracts/core/libraries/TickMath.sol\":824:834  4295128739 */\n      0x01000276a3\n      sub(shl(0xa0, 0x01), 0x01)\n        /* \"contracts/core/VeloBot.sol\":2699:2743  sqrtPriceLimitX96 <= TickMath.MIN_SQRT_RATIO */\n      dup3\n      and\n      gt\n        /* \"contracts/core/VeloBot.sol\":2695:2819  if (sqrtPriceLimitX96 <= TickMath.MIN_SQRT_RATIO) {\r... */\n      tag_164\n      jumpi\n      pop\n        /* \"contracts/core/VeloBot.sol\":2780:2807  TickMath.MIN_SQRT_RATIO + 1 */\n      0x01000276a4\n        /* \"contracts/core/VeloBot.sol\":2695:2819  if (sqrtPriceLimitX96 <= TickMath.MIN_SQRT_RATIO) {\r... */\n    tag_164:\n        /* \"contracts/core/VeloBot.sol\":2886:2892  token0 */\n      sload(0x01)\n      0x00\n        /* \"contracts/core/VeloBot.sol\":2902:2906  pool */\n      sload\n        /* \"contracts/core/VeloBot.sol\":2872:2917  IERC20Minimal(token0).approve(pool, amountIn) */\n      mload(0x40)\n      shl(0xe0, 0x095ea7b3)\n      dup2\n      mstore\n      sub(shl(0xa0, 0x01), 0x01)\n        /* \"contracts/core/VeloBot.sol\":2886:2892  token0 */\n      swap3\n      dup4\n      and\n      swap3\n        /* \"contracts/core/VeloBot.sol\":2872:2901  IERC20Minimal(token0).approve */\n      0x095ea7b3\n      swap3\n        /* \"contracts/core/VeloBot.sol\":2872:2917  IERC20Minimal(token0).approve(pool, amountIn) */\n      tag_165\n      swap3\n        /* \"contracts/core/VeloBot.sol\":2902:2906  pool */\n      swap2\n      and\n      swap1\n        /* \"contracts/core/VeloBot.sol\":2908:2916  amountIn */\n      dup8\n      swap1\n        /* \"contracts/core/VeloBot.sol\":2872:2917  IERC20Minimal(token0).approve(pool, amountIn) */\n      0x04\n      add\n      tag_103\n      jump\t// in\n    tag_165:\n      0x20\n      mload(0x40)\n      dup1\n      dup4\n      sub\n      dup2\n      0x00\n      dup8\n      dup1\n      extcodesize\n      iszero\n      dup1\n      iszero\n      tag_166\n      jumpi\n      0x00\n      dup1\n      revert\n    tag_166:\n      pop\n      gas\n      call\n      iszero\n      dup1\n      iszero\n      tag_168\n      jumpi\n      returndatasize\n      0x00\n      dup1\n      returndatacopy\n      revert(0x00, returndatasize)\n    tag_168:\n      pop\n      pop\n      pop\n      pop\n      mload(0x40)\n      returndatasize\n      not(0x1f)\n      0x1f\n      dup3\n      add\n      and\n      dup3\n      add\n      dup1\n      0x40\n      mstore\n      pop\n      dup2\n      add\n      swap1\n      tag_169\n      swap2\n      swap1\n      tag_108\n      jump\t// in\n    tag_169:\n      pop\n        /* \"contracts/core/VeloBot.sol\":3026:3043  bytes memory data */\n      0x00\n        /* \"contracts/core/VeloBot.sol\":3065:3069  this */\n      address\n        /* \"contracts/core/VeloBot.sol\":3046:3071  abi.encode(address(this)) */\n      add(0x20, mload(0x40))\n      tag_170\n      swap2\n      swap1\n      tag_24\n      jump\t// in\n    tag_170:\n      0x40\n      dup1\n      mload\n      not(0x1f)\n      dup2\n      dup5\n      sub\n      add\n      dup2\n      mstore\n      swap1\n      dup3\n      swap1\n      mstore\n        /* \"contracts/core/VeloBot.sol\":3141:3145  pool */\n      sload(0x00)\n      shl(0xe3, 0x02515961)\n        /* \"contracts/core/VeloBot.sol\":3126:3415  ICLPoolActions(pool).swap(\r... */\n      dup4\n      mstore\n        /* \"contracts/core/VeloBot.sol\":3046:3071  abi.encode(address(this)) */\n      swap1\n      swap3\n      pop\n      sub(shl(0xa0, 0x01), 0x01)\n        /* \"contracts/core/VeloBot.sol\":3141:3145  pool */\n      and\n      swap1\n        /* \"contracts/core/VeloBot.sol\":3126:3151  ICLPoolActions(pool).swap */\n      0x128acb08\n      swap1\n        /* \"contracts/core/VeloBot.sol\":3126:3415  ICLPoolActions(pool).swap(\r... */\n      tag_171\n      swap1\n        /* \"contracts/core/VeloBot.sol\":3174:3178  this */\n      address\n      swap1\n        /* \"contracts/core/VeloBot.sol\":3141:3145  pool */\n      0x01\n      swap1\n        /* \"contracts/core/VeloBot.sol\":3282:3290  amountIn */\n      dup10\n      swap1\n        /* \"contracts/core/VeloBot.sol\":3322:3339  sqrtPriceLimitX96 */\n      dup9\n      swap1\n        /* \"contracts/core/VeloBot.sol\":3046:3071  abi.encode(address(this)) */\n      dup9\n      swap1\n        /* \"contracts/core/VeloBot.sol\":3126:3415  ICLPoolActions(pool).swap(\r... */\n      0x04\n      add\n      tag_172\n      jump\t// in\n    tag_171:\n      0x40\n      dup1\n      mload\n      dup1\n      dup4\n      sub\n      dup2\n      0x00\n      dup8\n      dup1\n      extcodesize\n      iszero\n      dup1\n      iszero\n      tag_173\n      jumpi\n      0x00\n      dup1\n      revert\n    tag_173:\n      pop\n      gas\n      call\n      iszero\n      dup1\n      iszero\n      tag_175\n      jumpi\n      returndatasize\n      0x00\n      dup1\n      returndatacopy\n      revert(0x00, returndatasize)\n    tag_175:\n      pop\n      pop\n      pop\n      pop\n      mload(0x40)\n      returndatasize\n      not(0x1f)\n      0x1f\n      dup3\n      add\n      and\n      dup3\n      add\n      dup1\n      0x40\n      mstore\n      pop\n      dup2\n      add\n      swap1\n      tag_176\n      swap2\n      swap1\n      tag_177\n      jump\t// in\n    tag_176:\n      pop\n      pop\n        /* \"contracts/core/VeloBot.sol\":2338:3423  function Swap0for1(uint256 amountIn) external {\r... */\n      pop\n      pop\n      pop\n      pop\n      jump\t// out\n        /* \"contracts/core/VeloBot.sol\":1630:1776  function _newAdmin(address newAdmin) external {\r... */\n    tag_78:\n        /* \"contracts/core/VeloBot.sol\":1709:1714  admin */\n      and(sub(shl(0xa0, 0x01), 0x01), sload(0x04))\n        /* \"contracts/core/VeloBot.sol\":1695:1705  msg.sender */\n      caller\n        /* \"contracts/core/VeloBot.sol\":1695:1714  msg.sender == admin */\n      eq\n        /* \"contracts/core/VeloBot.sol\":1687:1741  require(msg.sender == admin, \"Only owner can do this\") */\n      tag_179\n      jumpi\n      mload(0x40)\n      shl(0xe5, 0x461bcd)\n      dup2\n      mstore\n      0x04\n      add\n      tag_135\n      swap1\n      tag_136\n      jump\t// in\n    tag_179:\n        /* \"contracts/core/VeloBot.sol\":1752:1757  admin */\n      0x04\n        /* \"contracts/core/VeloBot.sol\":1752:1768  admin = newAdmin */\n      dup1\n      sload\n      not(sub(shl(0xa0, 0x01), 0x01))\n      and\n      sub(shl(0xa0, 0x01), 0x01)\n      swap3\n      swap1\n      swap3\n      and\n      swap2\n      swap1\n      swap2\n      or\n      swap1\n      sstore\n        /* \"contracts/core/VeloBot.sol\":1630:1776  function _newAdmin(address newAdmin) external {\r... */\n      jump\t// out\n        /* \"contracts/core/VeloBot.sol\":1240:1260  address public admin */\n    tag_81:\n      and(sub(shl(0xa0, 0x01), 0x01), sload(0x04))\n      dup2\n      jump\t// out\n        /* \"contracts/core/VeloBot.sol\":4598:5257  function uniswapV3SwapCallback(\r... */\n    tag_87:\n        /* \"contracts/core/VeloBot.sol\":4783:4787  pool */\n      and(sub(shl(0xa0, 0x01), 0x01), sload(0x00))\n        /* \"contracts/core/VeloBot.sol\":4769:4779  msg.sender */\n      caller\n        /* \"contracts/core/VeloBot.sol\":4769:4787  msg.sender == pool */\n      eq\n        /* \"contracts/core/VeloBot.sol\":4761:4815  require(msg.sender == pool, \"Callback only from pool\") */\n      tag_182\n      jumpi\n      mload(0x40)\n      shl(0xe5, 0x461bcd)\n      dup2\n      mstore\n      0x04\n      add\n      tag_135\n      swap1\n      tag_184\n      jump\t// in\n    tag_182:\n        /* \"contracts/core/VeloBot.sol\":4926:4927  0 */\n      0x00\n        /* \"contracts/core/VeloBot.sol\":4911:4923  amount0Delta */\n      dup5\n        /* \"contracts/core/VeloBot.sol\":4911:4927  amount0Delta > 0 */\n      sgt\n        /* \"contracts/core/VeloBot.sol\":4907:5015  if (amount0Delta > 0) {\r... */\n      iszero\n      tag_185\n      jumpi\n        /* \"contracts/core/VeloBot.sol\":4958:4964  token0 */\n      sload(0x01)\n      0x00\n        /* \"contracts/core/VeloBot.sol\":4975:4979  pool */\n      sload\n        /* \"contracts/core/VeloBot.sol\":4944:5003  IERC20Minimal(token0).transfer(pool, uint256(amount0Delta)) */\n      mload(0x40)\n      shl(0xe0, 0xa9059cbb)\n      dup2\n      mstore\n      sub(shl(0xa0, 0x01), 0x01)\n        /* \"contracts/core/VeloBot.sol\":4958:4964  token0 */\n      swap3\n      dup4\n      and\n      swap3\n        /* \"contracts/core/VeloBot.sol\":4944:4974  IERC20Minimal(token0).transfer */\n      0xa9059cbb\n      swap3\n        /* \"contracts/core/VeloBot.sol\":4944:5003  IERC20Minimal(token0).transfer(pool, uint256(amount0Delta)) */\n      tag_186\n      swap3\n        /* \"contracts/core/VeloBot.sol\":4975:4979  pool */\n      swap2\n      and\n      swap1\n        /* \"contracts/core/VeloBot.sol\":4989:5001  amount0Delta */\n      dup9\n      swap1\n        /* \"contracts/core/VeloBot.sol\":4944:5003  IERC20Minimal(token0).transfer(pool, uint256(amount0Delta)) */\n      0x04\n      add\n      tag_103\n      jump\t// in\n    tag_186:\n      0x20\n      mload(0x40)\n      dup1\n      dup4\n      sub\n      dup2\n      0x00\n      dup8\n      dup1\n      extcodesize\n      iszero\n      dup1\n      iszero\n      tag_187\n      jumpi\n      0x00\n      dup1\n      revert\n    tag_187:\n      pop\n      gas\n      call\n      iszero\n      dup1\n      iszero\n      tag_189\n      jumpi\n      returndatasize\n      0x00\n      dup1\n      returndatacopy\n      revert(0x00, returndatasize)\n    tag_189:\n      pop\n      pop\n      pop\n      pop\n      mload(0x40)\n      returndatasize\n      not(0x1f)\n      0x1f\n      dup3\n      add\n      and\n      dup3\n      add\n      dup1\n      0x40\n      mstore\n      pop\n      dup2\n      add\n      swap1\n      tag_190\n      swap2\n      swap1\n      tag_108\n      jump\t// in\n    tag_190:\n      pop\n        /* \"contracts/core/VeloBot.sol\":4907:5015  if (amount0Delta > 0) {\r... */\n    tag_185:\n        /* \"contracts/core/VeloBot.sol\":5161:5162  0 */\n      0x00\n        /* \"contracts/core/VeloBot.sol\":5146:5158  amount1Delta */\n      dup4\n        /* \"contracts/core/VeloBot.sol\":5146:5162  amount1Delta > 0 */\n      sgt\n        /* \"contracts/core/VeloBot.sol\":5142:5250  if (amount1Delta > 0) {\r... */\n      iszero\n      tag_191\n      jumpi\n        /* \"contracts/core/VeloBot.sol\":5193:5199  token1 */\n      sload(0x02)\n      0x00\n        /* \"contracts/core/VeloBot.sol\":5210:5214  pool */\n      sload\n        /* \"contracts/core/VeloBot.sol\":5179:5238  IERC20Minimal(token1).transfer(pool, uint256(amount1Delta)) */\n      mload(0x40)\n      shl(0xe0, 0xa9059cbb)\n      dup2\n      mstore\n      sub(shl(0xa0, 0x01), 0x01)\n        /* \"contracts/core/VeloBot.sol\":5193:5199  token1 */\n      swap3\n      dup4\n      and\n      swap3\n        /* \"contracts/core/VeloBot.sol\":5179:5209  IERC20Minimal(token1).transfer */\n      0xa9059cbb\n      swap3\n        /* \"contracts/core/VeloBot.sol\":5179:5238  IERC20Minimal(token1).transfer(pool, uint256(amount1Delta)) */\n      tag_192\n      swap3\n        /* \"contracts/core/VeloBot.sol\":5210:5214  pool */\n      swap2\n      and\n      swap1\n        /* \"contracts/core/VeloBot.sol\":5224:5236  amount1Delta */\n      dup8\n      swap1\n        /* \"contracts/core/VeloBot.sol\":5179:5238  IERC20Minimal(token1).transfer(pool, uint256(amount1Delta)) */\n      0x04\n      add\n      tag_103\n      jump\t// in\n    tag_192:\n      0x20\n      mload(0x40)\n      dup1\n      dup4\n      sub\n      dup2\n      0x00\n      dup8\n      dup1\n      extcodesize\n      iszero\n      dup1\n      iszero\n      tag_193\n      jumpi\n      0x00\n      dup1\n      revert\n    tag_193:\n      pop\n      gas\n      call\n      iszero\n      dup1\n      iszero\n      tag_195\n      jumpi\n      returndatasize\n      0x00\n      dup1\n      returndatacopy\n      revert(0x00, returndatasize)\n    tag_195:\n      pop\n      pop\n      pop\n      pop\n      mload(0x40)\n      returndatasize\n      not(0x1f)\n      0x1f\n      dup3\n      add\n      and\n      dup3\n      add\n      dup1\n      0x40\n      mstore\n      pop\n      dup2\n      add\n      swap1\n      tag_196\n      swap2\n      swap1\n      tag_108\n      jump\t// in\n    tag_196:\n      pop\n        /* \"contracts/core/VeloBot.sol\":5142:5250  if (amount1Delta > 0) {\r... */\n    tag_191:\n        /* \"contracts/core/VeloBot.sol\":4598:5257  function uniswapV3SwapCallback(\r... */\n      pop\n      pop\n      pop\n      pop\n      jump\t// out\n        /* \"contracts/core/VeloBot.sol\":3431:4520  function V3Swap1for0(uint256 amountIn) external {\r... */\n    tag_91:\n        /* \"contracts/core/VeloBot.sol\":3509:3510  0 */\n      0x00\n        /* \"contracts/core/VeloBot.sol\":3498:3506  amountIn */\n      dup2\n        /* \"contracts/core/VeloBot.sol\":3498:3510  amountIn > 0 */\n      gt\n        /* \"contracts/core/VeloBot.sol\":3490:3535  require(amountIn > 0, \"Invalid input amount\") */\n      tag_198\n      jumpi\n      mload(0x40)\n      shl(0xe5, 0x461bcd)\n      dup2\n      mstore\n      0x04\n      add\n      tag_135\n      swap1\n      tag_158\n      jump\t// in\n    tag_198:\n        /* \"contracts/core/VeloBot.sol\":3600:3620  uint160 sqrtPriceX96 */\n      0x00\n        /* \"contracts/core/VeloBot.sol\":3647:3651  pool */\n      dup1\n      0x00\n      swap1\n      sload\n      swap1\n      0x0100\n      exp\n      swap1\n      div\n      sub(shl(0xa0, 0x01), 0x01)\n      and\n      sub(shl(0xa0, 0x01), 0x01)\n        /* \"contracts/core/VeloBot.sol\":3634:3658  ICLPoolState(pool).slot0 */\n      and\n      0x3850c7bd\n        /* \"contracts/core/VeloBot.sol\":3634:3660  ICLPoolState(pool).slot0() */\n      mload(0x40)\n      dup2\n      0xffffffff\n      and\n      0xe0\n      shl\n      dup2\n      mstore\n      0x04\n      add\n      0xc0\n      mload(0x40)\n      dup1\n      dup4\n      sub\n      dup2\n      dup7\n      dup1\n      extcodesize\n      iszero\n      dup1\n      iszero\n      tag_200\n      jumpi\n      0x00\n      dup1\n      revert\n    tag_200:\n      pop\n      gas\n      staticcall\n      iszero\n      dup1\n      iszero\n      tag_202\n      jumpi\n      returndatasize\n      0x00\n      dup1\n      returndatacopy\n      revert(0x00, returndatasize)\n    tag_202:\n      pop\n      pop\n      pop\n      pop\n      mload(0x40)\n      returndatasize\n      not(0x1f)\n      0x1f\n      dup3\n      add\n      and\n      dup3\n      add\n      dup1\n      0x40\n      mstore\n      pop\n      dup2\n      add\n      swap1\n      tag_203\n      swap2\n      swap1\n      tag_124\n      jump\t// in\n    tag_203:\n        /* \"contracts/core/VeloBot.sol\":3599:3660  (uint160 sqrtPriceX96, , , , , ) = ICLPoolState(pool).slot0() */\n      pop\n      pop\n      pop\n      pop\n      pop\n      swap1\n      pop\n        /* \"contracts/core/VeloBot.sol\":3671:3696  uint160 sqrtPriceLimitX96 */\n      0x00\n        /* \"contracts/core/VeloBot.sol\":3728:3731  100 */\n      0x64\n        /* \"contracts/core/VeloBot.sol\":3707:3719  sqrtPriceX96 */\n      dup3\n        /* \"contracts/core/VeloBot.sol\":3722:3725  101 */\n      0x65\n        /* \"contracts/core/VeloBot.sol\":3707:3725  sqrtPriceX96 * 101 */\n      mul\n      sub(shl(0xa0, 0x01), 0x01)\n        /* \"contracts/core/VeloBot.sol\":3707:3731  sqrtPriceX96 * 101 / 100 */\n      and\n      dup2\n      tag_204\n      jumpi\n      invalid\n    tag_204:\n      div\n      swap1\n      pop\n        /* \"contracts/core/libraries/TickMath.sol\":824:834  4295128739 */\n      0x01000276a3\n      sub(shl(0xa0, 0x01), 0x01)\n        /* \"contracts/core/VeloBot.sol\":3795:3839  sqrtPriceLimitX96 <= TickMath.MIN_SQRT_RATIO */\n      dup3\n      and\n      gt\n        /* \"contracts/core/VeloBot.sol\":3791:3915  if (sqrtPriceLimitX96 <= TickMath.MIN_SQRT_RATIO) {\r... */\n      tag_205\n      jumpi\n      pop\n        /* \"contracts/core/VeloBot.sol\":3876:3903  TickMath.MIN_SQRT_RATIO - 1 */\n      0x01000276a2\n        /* \"contracts/core/VeloBot.sol\":3791:3915  if (sqrtPriceLimitX96 <= TickMath.MIN_SQRT_RATIO) {\r... */\n    tag_205:\n        /* \"contracts/core/VeloBot.sol\":3982:3988  token1 */\n      sload(0x02)\n      0x00\n        /* \"contracts/core/VeloBot.sol\":3998:4002  pool */\n      sload\n        /* \"contracts/core/VeloBot.sol\":3968:4013  IERC20Minimal(token1).approve(pool, amountIn) */\n      mload(0x40)\n      shl(0xe0, 0x095ea7b3)\n      dup2\n      mstore\n      sub(shl(0xa0, 0x01), 0x01)\n        /* \"contracts/core/VeloBot.sol\":3982:3988  token1 */\n      swap3\n      dup4\n      and\n      swap3\n        /* \"contracts/core/VeloBot.sol\":3968:3997  IERC20Minimal(token1).approve */\n      0x095ea7b3\n      swap3\n        /* \"contracts/core/VeloBot.sol\":3968:4013  IERC20Minimal(token1).approve(pool, amountIn) */\n      tag_206\n      swap3\n        /* \"contracts/core/VeloBot.sol\":3998:4002  pool */\n      swap2\n      and\n      swap1\n        /* \"contracts/core/VeloBot.sol\":4004:4012  amountIn */\n      dup8\n      swap1\n        /* \"contracts/core/VeloBot.sol\":3968:4013  IERC20Minimal(token1).approve(pool, amountIn) */\n      0x04\n      add\n      tag_103\n      jump\t// in\n    tag_206:\n      0x20\n      mload(0x40)\n      dup1\n      dup4\n      sub\n      dup2\n      0x00\n      dup8\n      dup1\n      extcodesize\n      iszero\n      dup1\n      iszero\n      tag_207\n      jumpi\n      0x00\n      dup1\n      revert\n    tag_207:\n      pop\n      gas\n      call\n      iszero\n      dup1\n      iszero\n      tag_209\n      jumpi\n      returndatasize\n      0x00\n      dup1\n      returndatacopy\n      revert(0x00, returndatasize)\n    tag_209:\n      pop\n      pop\n      pop\n      pop\n      mload(0x40)\n      returndatasize\n      not(0x1f)\n      0x1f\n      dup3\n      add\n      and\n      dup3\n      add\n      dup1\n      0x40\n      mstore\n      pop\n      dup2\n      add\n      swap1\n      tag_210\n      swap2\n      swap1\n      tag_108\n      jump\t// in\n    tag_210:\n      pop\n        /* \"contracts/core/VeloBot.sol\":4122:4139  bytes memory data */\n      0x00\n        /* \"contracts/core/VeloBot.sol\":4161:4165  this */\n      address\n        /* \"contracts/core/VeloBot.sol\":4142:4167  abi.encode(address(this)) */\n      add(0x20, mload(0x40))\n      tag_211\n      swap2\n      swap1\n      tag_24\n      jump\t// in\n    tag_211:\n      0x40\n      dup1\n      mload\n      not(0x1f)\n      dup2\n      dup5\n      sub\n      add\n      dup2\n      mstore\n      swap1\n      dup3\n      swap1\n      mstore\n        /* \"contracts/core/VeloBot.sol\":4237:4241  pool */\n      0x00\n      dup1\n      sload\n      shl(0xe3, 0x02515961)\n        /* \"contracts/core/VeloBot.sol\":4222:4512  ICLPoolActions(pool).swap(\r... */\n      dup5\n      mstore\n        /* \"contracts/core/VeloBot.sol\":4142:4167  abi.encode(address(this)) */\n      swap2\n      swap4\n      pop\n      sub(shl(0xa0, 0x01), 0x01)\n        /* \"contracts/core/VeloBot.sol\":4237:4241  pool */\n      swap1\n      swap2\n      and\n      swap2\n        /* \"contracts/core/VeloBot.sol\":4222:4247  ICLPoolActions(pool).swap */\n      0x128acb08\n      swap2\n        /* \"contracts/core/VeloBot.sol\":4222:4512  ICLPoolActions(pool).swap(\r... */\n      tag_171\n      swap2\n        /* \"contracts/core/VeloBot.sol\":4270:4274  this */\n      address\n      swap2\n        /* \"contracts/core/VeloBot.sol\":4237:4241  pool */\n      swap1\n        /* \"contracts/core/VeloBot.sol\":4379:4387  amountIn */\n      dup10\n      swap1\n        /* \"contracts/core/VeloBot.sol\":4419:4436  sqrtPriceLimitX96 */\n      dup9\n      swap1\n        /* \"contracts/core/VeloBot.sol\":4142:4167  abi.encode(address(this)) */\n      dup9\n      swap1\n        /* \"contracts/core/VeloBot.sol\":4222:4512  ICLPoolActions(pool).swap(\r... */\n      0x04\n      add\n      tag_172\n      jump\t// in\n        /* \"contracts/core/VeloBot.sol\":6831:7252  function _createDeposit(address owner, uint256 tokenId) internal {\r... */\n    tag_94:\n        /* \"contracts/core/VeloBot.sol\":7022:7029  farmNFT */\n      sload(0x03)\n        /* \"contracts/core/VeloBot.sol\":6994:7049  INonfungiblePositionManager(farmNFT).positions(tokenId) */\n      mload(0x40)\n      shl(0xe3, 0x133f7571)\n      dup2\n      mstore\n        /* \"contracts/core/VeloBot.sol\":6912:6927  address _token0 */\n      0x00\n      swap2\n      dup3\n      swap2\n      dup3\n      swap2\n      sub(shl(0xa0, 0x01), 0x01)\n        /* \"contracts/core/VeloBot.sol\":7022:7029  farmNFT */\n      and\n      swap1\n        /* \"contracts/core/VeloBot.sol\":6994:7040  INonfungiblePositionManager(farmNFT).positions */\n      0x99fbab88\n      swap1\n        /* \"contracts/core/VeloBot.sol\":6994:7049  INonfungiblePositionManager(farmNFT).positions(tokenId) */\n      tag_218\n      swap1\n        /* \"contracts/core/VeloBot.sol\":7041:7048  tokenId */\n      dup8\n      swap1\n        /* \"contracts/core/VeloBot.sol\":6994:7049  INonfungiblePositionManager(farmNFT).positions(tokenId) */\n      0x04\n      add\n      tag_219\n      jump\t// in\n    tag_218:\n      0x0180\n      mload(0x40)\n      dup1\n      dup4\n      sub\n      dup2\n      dup7\n      dup1\n      extcodesize\n      iszero\n      dup1\n      iszero\n      tag_220\n      jumpi\n      0x00\n      dup1\n      revert\n    tag_220:\n      pop\n      gas\n      staticcall\n      iszero\n      dup1\n      iszero\n      tag_222\n      jumpi\n      returndatasize\n      0x00\n      dup1\n      returndatacopy\n      revert(0x00, returndatasize)\n    tag_222:\n      pop\n      pop\n      pop\n      pop\n      mload(0x40)\n      returndatasize\n      not(0x1f)\n      0x1f\n      dup3\n      add\n      and\n      dup3\n      add\n      dup1\n      0x40\n      mstore\n      pop\n      dup2\n      add\n      swap1\n      tag_223\n      swap2\n      swap1\n      tag_224\n      jump\t// in\n    tag_223:\n        /* \"contracts/core/VeloBot.sol\":6907:7049  (, , address _token0, address _token1, , , , uint128 liquidity, , , , ) =\r... */\n      pop\n      pop\n      pop\n      pop\n      swap8\n      pop\n      pop\n      pop\n      pop\n      swap5\n      pop\n      swap5\n      pop\n      pop\n      pop\n        /* \"contracts/core/VeloBot.sol\":7165:7244  Deposit({owner: owner, liquidity: liquidity, token0: _token0, token1: _token1}) */\n      mload(0x40)\n      dup1\n      0x80\n      add\n      0x40\n      mstore\n      dup1\n        /* \"contracts/core/VeloBot.sol\":7181:7186  owner */\n      dup7\n      sub(shl(0xa0, 0x01), 0x01)\n        /* \"contracts/core/VeloBot.sol\":7165:7244  Deposit({owner: owner, liquidity: liquidity, token0: _token0, token1: _token1}) */\n      and\n      dup2\n      mstore\n      0x20\n      add\n        /* \"contracts/core/VeloBot.sol\":7199:7208  liquidity */\n      dup3\n      sub(shl(0x80, 0x01), 0x01)\n        /* \"contracts/core/VeloBot.sol\":7165:7244  Deposit({owner: owner, liquidity: liquidity, token0: _token0, token1: _token1}) */\n      and\n      dup2\n      mstore\n      0x20\n      add\n        /* \"contracts/core/VeloBot.sol\":7218:7225  _token0 */\n      dup5\n      sub(shl(0xa0, 0x01), 0x01)\n        /* \"contracts/core/VeloBot.sol\":7165:7244  Deposit({owner: owner, liquidity: liquidity, token0: _token0, token1: _token1}) */\n      and\n      dup2\n      mstore\n      0x20\n      add\n        /* \"contracts/core/VeloBot.sol\":7235:7242  _token1 */\n      dup4\n      sub(shl(0xa0, 0x01), 0x01)\n        /* \"contracts/core/VeloBot.sol\":7165:7244  Deposit({owner: owner, liquidity: liquidity, token0: _token0, token1: _token1}) */\n      and\n      dup2\n      mstore\n      pop\n        /* \"contracts/core/VeloBot.sol\":7145:7153  deposits */\n      0x05\n        /* \"contracts/core/VeloBot.sol\":7145:7162  deposits[tokenId] */\n      0x00\n        /* \"contracts/core/VeloBot.sol\":7154:7161  tokenId */\n      dup7\n        /* \"contracts/core/VeloBot.sol\":7145:7162  deposits[tokenId] */\n      dup2\n      mstore\n      0x20\n      add\n      swap1\n      dup2\n      mstore\n      0x20\n      add\n      0x00\n      keccak256\n        /* \"contracts/core/VeloBot.sol\":7145:7244  deposits[tokenId] = Deposit({owner: owner, liquidity: liquidity, token0: _token0, token1: _token1}) */\n      0x00\n      dup3\n      add\n      mload\n      dup2\n      0x00\n      add\n      exp(0x0100, 0x00)\n      dup2\n      sload\n      dup2\n      sub(shl(0xa0, 0x01), 0x01)\n      mul\n      not\n      and\n      swap1\n      dup4\n      sub(shl(0xa0, 0x01), 0x01)\n      and\n      mul\n      or\n      swap1\n      sstore\n      pop\n      0x20\n      dup3\n      add\n      mload\n      dup2\n      0x01\n      add\n      exp(0x0100, 0x00)\n      dup2\n      sload\n      dup2\n      sub(shl(0x80, 0x01), 0x01)\n      mul\n      not\n      and\n      swap1\n      dup4\n      sub(shl(0x80, 0x01), 0x01)\n      and\n      mul\n      or\n      swap1\n      sstore\n      pop\n      0x40\n      dup3\n      add\n      mload\n      dup2\n      0x02\n      add\n      exp(0x0100, 0x00)\n      dup2\n      sload\n      dup2\n      sub(shl(0xa0, 0x01), 0x01)\n      mul\n      not\n      and\n      swap1\n      dup4\n      sub(shl(0xa0, 0x01), 0x01)\n      and\n      mul\n      or\n      swap1\n      sstore\n      pop\n      0x60\n      dup3\n      add\n      mload\n      dup2\n      0x03\n      add\n      exp(0x0100, 0x00)\n      dup2\n      sload\n      dup2\n      sub(shl(0xa0, 0x01), 0x01)\n      mul\n      not\n      and\n      swap1\n      dup4\n      sub(shl(0xa0, 0x01), 0x01)\n      and\n      mul\n      or\n      swap1\n      sstore\n      pop\n      swap1\n      pop\n      pop\n        /* \"contracts/core/VeloBot.sol\":6831:7252  function _createDeposit(address owner, uint256 tokenId) internal {\r... */\n      pop\n      pop\n      pop\n      pop\n      pop\n      jump\t// out\n        /* \"#utility.yul\":14:156   */\n    tag_226:\n        /* \"#utility.yul\":95:108   */\n      dup1\n      mload\n        /* \"#utility.yul\":117:150   */\n      tag_228\n        /* \"#utility.yul\":95:108   */\n      dup2\n        /* \"#utility.yul\":117:150   */\n      tag_229\n      jump\t// in\n    tag_228:\n        /* \"#utility.yul\":76:156   */\n      swap2\n      swap1\n      pop\n      jump\t// out\n        /* \"#utility.yul\":161:327   */\n    tag_230:\n        /* \"#utility.yul\":239:252   */\n      dup1\n      mload\n        /* \"#utility.yul\":288:301   */\n      dup1\n      iszero\n        /* \"#utility.yul\":281:302   */\n      iszero\n        /* \"#utility.yul\":271:303   */\n      dup2\n      eq\n        /* \"#utility.yul\":261:263   */\n      tag_228\n      jumpi\n        /* \"#utility.yul\":317:318   */\n      0x00\n        /* \"#utility.yul\":314:315   */\n      dup1\n        /* \"#utility.yul\":307:319   */\n      revert\n        /* \"#utility.yul\":332:709   */\n    tag_233:\n      0x00\n      dup1\n        /* \"#utility.yul\":449:452   */\n      dup4\n        /* \"#utility.yul\":442:446   */\n      0x1f\n        /* \"#utility.yul\":434:440   */\n      dup5\n        /* \"#utility.yul\":430:447   */\n      add\n        /* \"#utility.yul\":426:453   */\n      slt\n        /* \"#utility.yul\":416:418   */\n      tag_235\n      jumpi\n        /* \"#utility.yul\":474:482   */\n      dup2\n        /* \"#utility.yul\":464:472   */\n      dup3\n        /* \"#utility.yul\":457:483   */\n      revert\n        /* \"#utility.yul\":416:418   */\n    tag_235:\n      pop\n        /* \"#utility.yul\":504:524   */\n      dup2\n      calldataload\n        /* \"#utility.yul\":547:565   */\n      0xffffffffffffffff\n        /* \"#utility.yul\":536:566   */\n      dup2\n      gt\n        /* \"#utility.yul\":533:535   */\n      iszero\n      tag_236\n      jumpi\n        /* \"#utility.yul\":586:594   */\n      dup2\n        /* \"#utility.yul\":576:584   */\n      dup3\n        /* \"#utility.yul\":569:595   */\n      revert\n        /* \"#utility.yul\":533:535   */\n    tag_236:\n        /* \"#utility.yul\":630:634   */\n      0x20\n        /* \"#utility.yul\":622:628   */\n      dup4\n        /* \"#utility.yul\":618:635   */\n      add\n        /* \"#utility.yul\":606:635   */\n      swap2\n      pop\n        /* \"#utility.yul\":682:685   */\n      dup4\n        /* \"#utility.yul\":675:679   */\n      0x20\n        /* \"#utility.yul\":666:672   */\n      dup3\n        /* \"#utility.yul\":658:664   */\n      dup6\n        /* \"#utility.yul\":654:673   */\n      add\n        /* \"#utility.yul\":650:680   */\n      add\n        /* \"#utility.yul\":647:686   */\n      gt\n        /* \"#utility.yul\":644:646   */\n      iszero\n      tag_237\n      jumpi\n        /* \"#utility.yul\":699:700   */\n      0x00\n        /* \"#utility.yul\":696:697   */\n      dup1\n        /* \"#utility.yul\":689:701   */\n      revert\n        /* \"#utility.yul\":644:646   */\n    tag_237:\n        /* \"#utility.yul\":406:709   */\n      swap3\n      pop\n      swap3\n      swap1\n      pop\n      jump\t// out\n        /* \"#utility.yul\":714:880   */\n    tag_238:\n        /* \"#utility.yul\":793:806   */\n      dup1\n      mload\n        /* \"#utility.yul\":846:847   */\n      0x02\n        /* \"#utility.yul\":835:855   */\n      dup2\n      swap1\n      signextend\n        /* \"#utility.yul\":825:856   */\n      dup2\n      eq\n        /* \"#utility.yul\":815:817   */\n      tag_228\n      jumpi\n        /* \"#utility.yul\":870:871   */\n      0x00\n        /* \"#utility.yul\":867:868   */\n      dup1\n        /* \"#utility.yul\":860:872   */\n      revert\n        /* \"#utility.yul\":885:1079   */\n    tag_241:\n        /* \"#utility.yul\":966:979   */\n      dup1\n      mload\n      sub(shl(0x80, 0x01), 0x01)\n        /* \"#utility.yul\":1008:1054   */\n      dup2\n      and\n        /* \"#utility.yul\":998:1055   */\n      dup2\n      eq\n        /* \"#utility.yul\":988:990   */\n      tag_228\n      jumpi\n        /* \"#utility.yul\":1069:1070   */\n      0x00\n        /* \"#utility.yul\":1066:1067   */\n      dup1\n        /* \"#utility.yul\":1059:1071   */\n      revert\n        /* \"#utility.yul\":1084:1249   */\n    tag_244:\n        /* \"#utility.yul\":1164:1177   */\n      dup1\n      mload\n        /* \"#utility.yul\":1217:1223   */\n      0xffff\n        /* \"#utility.yul\":1206:1224   */\n      dup2\n      and\n        /* \"#utility.yul\":1196:1225   */\n      dup2\n      eq\n        /* \"#utility.yul\":1186:1188   */\n      tag_228\n      jumpi\n        /* \"#utility.yul\":1239:1240   */\n      0x00\n        /* \"#utility.yul\":1236:1237   */\n      dup1\n        /* \"#utility.yul\":1229:1241   */\n      revert\n        /* \"#utility.yul\":1254:1513   */\n    tag_39:\n      0x00\n        /* \"#utility.yul\":1366:1368   */\n      0x20\n        /* \"#utility.yul\":1354:1363   */\n      dup3\n        /* \"#utility.yul\":1345:1352   */\n      dup5\n        /* \"#utility.yul\":1341:1364   */\n      sub\n        /* \"#utility.yul\":1337:1369   */\n      slt\n        /* \"#utility.yul\":1334:1336   */\n      iszero\n      tag_248\n      jumpi\n        /* \"#utility.yul\":1387:1393   */\n      dup1\n        /* \"#utility.yul\":1379:1385   */\n      dup2\n        /* \"#utility.yul\":1372:1394   */\n      revert\n        /* \"#utility.yul\":1334:1336   */\n    tag_248:\n        /* \"#utility.yul\":1431:1440   */\n      dup2\n        /* \"#utility.yul\":1418:1441   */\n      calldataload\n        /* \"#utility.yul\":1450:1483   */\n      tag_249\n        /* \"#utility.yul\":1477:1482   */\n      dup2\n        /* \"#utility.yul\":1450:1483   */\n      tag_229\n      jump\t// in\n    tag_249:\n        /* \"#utility.yul\":1502:1507   */\n      swap4\n        /* \"#utility.yul\":1324:1513   */\n      swap3\n      pop\n      pop\n      pop\n      jump\t// out\n        /* \"#utility.yul\":1518:1781   */\n    tag_141:\n      0x00\n        /* \"#utility.yul\":1641:1643   */\n      0x20\n        /* \"#utility.yul\":1629:1638   */\n      dup3\n        /* \"#utility.yul\":1620:1627   */\n      dup5\n        /* \"#utility.yul\":1616:1639   */\n      sub\n        /* \"#utility.yul\":1612:1644   */\n      slt\n        /* \"#utility.yul\":1609:1611   */\n      iszero\n      tag_251\n      jumpi\n        /* \"#utility.yul\":1662:1668   */\n      dup1\n        /* \"#utility.yul\":1654:1660   */\n      dup2\n        /* \"#utility.yul\":1647:1669   */\n      revert\n        /* \"#utility.yul\":1609:1611   */\n    tag_251:\n        /* \"#utility.yul\":1699:1708   */\n      dup2\n        /* \"#utility.yul\":1693:1709   */\n      mload\n        /* \"#utility.yul\":1718:1751   */\n      tag_249\n        /* \"#utility.yul\":1745:1750   */\n      dup2\n        /* \"#utility.yul\":1718:1751   */\n      tag_229\n      jump\t// in\n        /* \"#utility.yul\":1786:2566   */\n    tag_28:\n      0x00\n      dup1\n      0x00\n      dup1\n      0x00\n        /* \"#utility.yul\":1968:1971   */\n      0x80\n        /* \"#utility.yul\":1956:1965   */\n      dup7\n        /* \"#utility.yul\":1947:1954   */\n      dup9\n        /* \"#utility.yul\":1943:1966   */\n      sub\n        /* \"#utility.yul\":1939:1972   */\n      slt\n        /* \"#utility.yul\":1936:1938   */\n      iszero\n      tag_254\n      jumpi\n        /* \"#utility.yul\":1990:1996   */\n      dup1\n        /* \"#utility.yul\":1982:1988   */\n      dup2\n        /* \"#utility.yul\":1975:1997   */\n      revert\n        /* \"#utility.yul\":1936:1938   */\n    tag_254:\n        /* \"#utility.yul\":2034:2043   */\n      dup6\n        /* \"#utility.yul\":2021:2044   */\n      calldataload\n        /* \"#utility.yul\":2053:2086   */\n      tag_255\n        /* \"#utility.yul\":2080:2085   */\n      dup2\n        /* \"#utility.yul\":2053:2086   */\n      tag_229\n      jump\t// in\n    tag_255:\n        /* \"#utility.yul\":2105:2110   */\n      swap5\n      pop\n        /* \"#utility.yul\":2162:2164   */\n      0x20\n        /* \"#utility.yul\":2147:2165   */\n      dup7\n      add\n        /* \"#utility.yul\":2134:2166   */\n      calldataload\n        /* \"#utility.yul\":2175:2210   */\n      tag_256\n        /* \"#utility.yul\":2134:2166   */\n      dup2\n        /* \"#utility.yul\":2175:2210   */\n      tag_229\n      jump\t// in\n    tag_256:\n        /* \"#utility.yul\":2229:2236   */\n      swap4\n      pop\n        /* \"#utility.yul\":2283:2285   */\n      0x40\n        /* \"#utility.yul\":2268:2286   */\n      dup7\n      add\n        /* \"#utility.yul\":2255:2287   */\n      calldataload\n      swap3\n      pop\n        /* \"#utility.yul\":2338:2340   */\n      0x60\n        /* \"#utility.yul\":2323:2341   */\n      dup7\n      add\n        /* \"#utility.yul\":2310:2342   */\n      calldataload\n        /* \"#utility.yul\":2365:2383   */\n      0xffffffffffffffff\n        /* \"#utility.yul\":2354:2384   */\n      dup2\n      gt\n        /* \"#utility.yul\":2351:2353   */\n      iszero\n      tag_257\n      jumpi\n        /* \"#utility.yul\":2402:2408   */\n      dup2\n        /* \"#utility.yul\":2394:2400   */\n      dup3\n        /* \"#utility.yul\":2387:2409   */\n      revert\n        /* \"#utility.yul\":2351:2353   */\n    tag_257:\n        /* \"#utility.yul\":2446:2506   */\n      tag_258\n        /* \"#utility.yul\":2498:2505   */\n      dup9\n        /* \"#utility.yul\":2489:2495   */\n      dup3\n        /* \"#utility.yul\":2478:2487   */\n      dup10\n        /* \"#utility.yul\":2474:2496   */\n      add\n        /* \"#utility.yul\":2446:2506   */\n      tag_233\n      jump\t// in\n    tag_258:\n        /* \"#utility.yul\":1926:2566   */\n      swap7\n      swap10\n      swap6\n      swap9\n      pop\n      swap4\n      swap7\n      pop\n        /* \"#utility.yul\":2525:2533   */\n      swap3\n      swap5\n        /* \"#utility.yul\":2420:2506   */\n      swap4\n        /* \"#utility.yul\":1926:2566   */\n      swap3\n      pop\n      pop\n      pop\n      jump\t// out\n        /* \"#utility.yul\":2571:2785   */\n    tag_108:\n      0x00\n        /* \"#utility.yul\":2691:2693   */\n      0x20\n        /* \"#utility.yul\":2679:2688   */\n      dup3\n        /* \"#utility.yul\":2670:2677   */\n      dup5\n        /* \"#utility.yul\":2666:2689   */\n      sub\n        /* \"#utility.yul\":2662:2694   */\n      slt\n        /* \"#utility.yul\":2659:2661   */\n      iszero\n      tag_260\n      jumpi\n        /* \"#utility.yul\":2712:2718   */\n      dup1\n        /* \"#utility.yul\":2704:2710   */\n      dup2\n        /* \"#utility.yul\":2697:2719   */\n      revert\n        /* \"#utility.yul\":2659:2661   */\n    tag_260:\n        /* \"#utility.yul\":2740:2779   */\n      tag_249\n        /* \"#utility.yul\":2769:2778   */\n      dup3\n        /* \"#utility.yul\":2740:2779   */\n      tag_230\n      jump\t// in\n        /* \"#utility.yul\":2790:3006   */\n    tag_154:\n      0x00\n        /* \"#utility.yul\":2911:2913   */\n      0x20\n        /* \"#utility.yul\":2899:2908   */\n      dup3\n        /* \"#utility.yul\":2890:2897   */\n      dup5\n        /* \"#utility.yul\":2886:2909   */\n      sub\n        /* \"#utility.yul\":2882:2914   */\n      slt\n        /* \"#utility.yul\":2879:2881   */\n      iszero\n      tag_263\n      jumpi\n        /* \"#utility.yul\":2932:2938   */\n      dup1\n        /* \"#utility.yul\":2924:2930   */\n      dup2\n        /* \"#utility.yul\":2917:2939   */\n      revert\n        /* \"#utility.yul\":2879:2881   */\n    tag_263:\n        /* \"#utility.yul\":2960:3000   */\n      tag_249\n        /* \"#utility.yul\":2990:2999   */\n      dup3\n        /* \"#utility.yul\":2960:3000   */\n      tag_238\n      jump\t// in\n        /* \"#utility.yul\":3011:3264   */\n    tag_177:\n      0x00\n      dup1\n        /* \"#utility.yul\":3149:3151   */\n      0x40\n        /* \"#utility.yul\":3137:3146   */\n      dup4\n        /* \"#utility.yul\":3128:3135   */\n      dup6\n        /* \"#utility.yul\":3124:3147   */\n      sub\n        /* \"#utility.yul\":3120:3152   */\n      slt\n        /* \"#utility.yul\":3117:3119   */\n      iszero\n      tag_266\n      jumpi\n        /* \"#utility.yul\":3170:3176   */\n      dup2\n        /* \"#utility.yul\":3162:3168   */\n      dup3\n        /* \"#utility.yul\":3155:3177   */\n      revert\n        /* \"#utility.yul\":3117:3119   */\n    tag_266:\n      pop\n      pop\n        /* \"#utility.yul\":3198:3214   */\n      dup1\n      mload\n        /* \"#utility.yul\":3254:3256   */\n      0x20\n        /* \"#utility.yul\":3239:3257   */\n      swap1\n      swap2\n      add\n        /* \"#utility.yul\":3233:3258   */\n      mload\n        /* \"#utility.yul\":3198:3214   */\n      swap1\n      swap3\n        /* \"#utility.yul\":3233:3258   */\n      swap1\n      swap2\n      pop\n        /* \"#utility.yul\":3107:3264   */\n      jump\t// out\n        /* \"#utility.yul\":3269:3834   */\n    tag_86:\n      0x00\n      dup1\n      0x00\n      dup1\n        /* \"#utility.yul\":3432:3434   */\n      0x60\n        /* \"#utility.yul\":3420:3429   */\n      dup6\n        /* \"#utility.yul\":3411:3418   */\n      dup8\n        /* \"#utility.yul\":3407:3430   */\n      sub\n        /* \"#utility.yul\":3403:3435   */\n      slt\n        /* \"#utility.yul\":3400:3402   */\n      iszero\n      tag_268\n      jumpi\n        /* \"#utility.yul\":3453:3459   */\n      dup4\n        /* \"#utility.yul\":3445:3451   */\n      dup5\n        /* \"#utility.yul\":3438:3460   */\n      revert\n        /* \"#utility.yul\":3400:3402   */\n    tag_268:\n        /* \"#utility.yul\":3494:3503   */\n      dup5\n        /* \"#utility.yul\":3481:3504   */\n      calldataload\n        /* \"#utility.yul\":3471:3504   */\n      swap4\n      pop\n        /* \"#utility.yul\":3551:3553   */\n      0x20\n        /* \"#utility.yul\":3540:3549   */\n      dup6\n        /* \"#utility.yul\":3536:3554   */\n      add\n        /* \"#utility.yul\":3523:3555   */\n      calldataload\n        /* \"#utility.yul\":3513:3555   */\n      swap3\n      pop\n        /* \"#utility.yul\":3606:3608   */\n      0x40\n        /* \"#utility.yul\":3595:3604   */\n      dup6\n        /* \"#utility.yul\":3591:3609   */\n      add\n        /* \"#utility.yul\":3578:3610   */\n      calldataload\n        /* \"#utility.yul\":3633:3651   */\n      0xffffffffffffffff\n        /* \"#utility.yul\":3625:3631   */\n      dup2\n        /* \"#utility.yul\":3622:3652   */\n      gt\n        /* \"#utility.yul\":3619:3621   */\n      iszero\n      tag_269\n      jumpi\n        /* \"#utility.yul\":3670:3676   */\n      dup3\n        /* \"#utility.yul\":3662:3668   */\n      dup4\n        /* \"#utility.yul\":3655:3677   */\n      revert\n        /* \"#utility.yul\":3619:3621   */\n    tag_269:\n        /* \"#utility.yul\":3714:3774   */\n      tag_270\n        /* \"#utility.yul\":3766:3773   */\n      dup8\n        /* \"#utility.yul\":3757:3763   */\n      dup3\n        /* \"#utility.yul\":3746:3755   */\n      dup9\n        /* \"#utility.yul\":3742:3764   */\n      add\n        /* \"#utility.yul\":3714:3774   */\n      tag_233\n      jump\t// in\n    tag_270:\n        /* \"#utility.yul\":3390:3834   */\n      swap6\n      swap9\n      swap5\n      swap8\n      pop\n        /* \"#utility.yul\":3793:3801   */\n      swap6\n      pop\n      pop\n      pop\n      pop\n        /* \"#utility.yul\":3390:3834   */\n      jump\t// out\n        /* \"#utility.yul\":3839:4524   */\n    tag_124:\n      0x00\n      dup1\n      0x00\n      dup1\n      0x00\n      dup1\n        /* \"#utility.yul\":4039:4042   */\n      0xc0\n        /* \"#utility.yul\":4027:4036   */\n      dup8\n        /* \"#utility.yul\":4018:4025   */\n      dup10\n        /* \"#utility.yul\":4014:4037   */\n      sub\n        /* \"#utility.yul\":4010:4043   */\n      slt\n        /* \"#utility.yul\":4007:4009   */\n      iszero\n      tag_272\n      jumpi\n        /* \"#utility.yul\":4061:4067   */\n      dup1\n        /* \"#utility.yul\":4053:4059   */\n      dup2\n        /* \"#utility.yul\":4046:4068   */\n      revert\n        /* \"#utility.yul\":4007:4009   */\n    tag_272:\n        /* \"#utility.yul\":4098:4107   */\n      dup7\n        /* \"#utility.yul\":4092:4108   */\n      mload\n        /* \"#utility.yul\":4117:4150   */\n      tag_273\n        /* \"#utility.yul\":4144:4149   */\n      dup2\n        /* \"#utility.yul\":4117:4150   */\n      tag_229\n      jump\t// in\n    tag_273:\n        /* \"#utility.yul\":4169:4174   */\n      swap6\n      pop\n        /* \"#utility.yul\":4193:4242   */\n      tag_274\n        /* \"#utility.yul\":4238:4240   */\n      0x20\n        /* \"#utility.yul\":4223:4241   */\n      dup9\n      add\n        /* \"#utility.yul\":4193:4242   */\n      tag_238\n      jump\t// in\n    tag_274:\n        /* \"#utility.yul\":4183:4242   */\n      swap5\n      pop\n        /* \"#utility.yul\":4261:4311   */\n      tag_275\n        /* \"#utility.yul\":4307:4309   */\n      0x40\n        /* \"#utility.yul\":4296:4305   */\n      dup9\n        /* \"#utility.yul\":4292:4310   */\n      add\n        /* \"#utility.yul\":4261:4311   */\n      tag_244\n      jump\t// in\n    tag_275:\n        /* \"#utility.yul\":4251:4311   */\n      swap4\n      pop\n        /* \"#utility.yul\":4330:4380   */\n      tag_276\n        /* \"#utility.yul\":4376:4378   */\n      0x60\n        /* \"#utility.yul\":4365:4374   */\n      dup9\n        /* \"#utility.yul\":4361:4379   */\n      add\n        /* \"#utility.yul\":4330:4380   */\n      tag_244\n      jump\t// in\n    tag_276:\n        /* \"#utility.yul\":4320:4380   */\n      swap3\n      pop\n        /* \"#utility.yul\":4399:4450   */\n      tag_277\n        /* \"#utility.yul\":4445:4448   */\n      0x80\n        /* \"#utility.yul\":4434:4443   */\n      dup9\n        /* \"#utility.yul\":4430:4449   */\n      add\n        /* \"#utility.yul\":4399:4450   */\n      tag_244\n      jump\t// in\n    tag_277:\n        /* \"#utility.yul\":4389:4450   */\n      swap2\n      pop\n        /* \"#utility.yul\":4469:4518   */\n      tag_278\n        /* \"#utility.yul\":4513:4516   */\n      0xa0\n        /* \"#utility.yul\":4502:4511   */\n      dup9\n        /* \"#utility.yul\":4498:4517   */\n      add\n        /* \"#utility.yul\":4469:4518   */\n      tag_230\n      jump\t// in\n    tag_278:\n        /* \"#utility.yul\":4459:4518   */\n      swap1\n      pop\n        /* \"#utility.yul\":3997:4524   */\n      swap3\n      swap6\n      pop\n      swap3\n      swap6\n      pop\n      swap3\n      swap6\n      jump\t// out\n        /* \"#utility.yul\":4529:4719   */\n    tag_50:\n      0x00\n        /* \"#utility.yul\":4641:4643   */\n      0x20\n        /* \"#utility.yul\":4629:4638   */\n      dup3\n        /* \"#utility.yul\":4620:4627   */\n      dup5\n        /* \"#utility.yul\":4616:4639   */\n      sub\n        /* \"#utility.yul\":4612:4644   */\n      slt\n        /* \"#utility.yul\":4609:4611   */\n      iszero\n      tag_280\n      jumpi\n        /* \"#utility.yul\":4662:4668   */\n      dup1\n        /* \"#utility.yul\":4654:4660   */\n      dup2\n        /* \"#utility.yul\":4647:4669   */\n      revert\n        /* \"#utility.yul\":4609:4611   */\n    tag_280:\n      pop\n        /* \"#utility.yul\":4690:4713   */\n      calldataload\n      swap2\n        /* \"#utility.yul\":4599:4719   */\n      swap1\n      pop\n      jump\t// out\n        /* \"#utility.yul\":4724:4918   */\n    tag_101:\n      0x00\n        /* \"#utility.yul\":4847:4849   */\n      0x20\n        /* \"#utility.yul\":4835:4844   */\n      dup3\n        /* \"#utility.yul\":4826:4833   */\n      dup5\n        /* \"#utility.yul\":4822:4845   */\n      sub\n        /* \"#utility.yul\":4818:4850   */\n      slt\n        /* \"#utility.yul\":4815:4817   */\n      iszero\n      tag_282\n      jumpi\n        /* \"#utility.yul\":4868:4874   */\n      dup1\n        /* \"#utility.yul\":4860:4866   */\n      dup2\n        /* \"#utility.yul\":4853:4875   */\n      revert\n        /* \"#utility.yul\":4815:4817   */\n    tag_282:\n      pop\n        /* \"#utility.yul\":4896:4912   */\n      mload\n      swap2\n        /* \"#utility.yul\":4805:4918   */\n      swap1\n      pop\n      jump\t// out\n        /* \"#utility.yul\":4923:5327   */\n    tag_131:\n      0x00\n      dup1\n      0x00\n      dup1\n        /* \"#utility.yul\":5097:5100   */\n      0x80\n        /* \"#utility.yul\":5085:5094   */\n      dup6\n        /* \"#utility.yul\":5076:5083   */\n      dup8\n        /* \"#utility.yul\":5072:5095   */\n      sub\n        /* \"#utility.yul\":5068:5101   */\n      slt\n        /* \"#utility.yul\":5065:5067   */\n      iszero\n      tag_284\n      jumpi\n        /* \"#utility.yul\":5119:5125   */\n      dup4\n        /* \"#utility.yul\":5111:5117   */\n      dup5\n        /* \"#utility.yul\":5104:5126   */\n      revert\n        /* \"#utility.yul\":5065:5067   */\n    tag_284:\n        /* \"#utility.yul\":5153:5162   */\n      dup5\n        /* \"#utility.yul\":5147:5163   */\n      mload\n        /* \"#utility.yul\":5137:5163   */\n      swap4\n      pop\n        /* \"#utility.yul\":5182:5233   */\n      tag_285\n        /* \"#utility.yul\":5229:5231   */\n      0x20\n        /* \"#utility.yul\":5218:5227   */\n      dup7\n        /* \"#utility.yul\":5214:5232   */\n      add\n        /* \"#utility.yul\":5182:5233   */\n      tag_241\n      jump\t// in\n    tag_285:\n        /* \"#utility.yul\":5273:5275   */\n      0x40\n        /* \"#utility.yul\":5258:5276   */\n      dup7\n      add\n        /* \"#utility.yul\":5252:5277   */\n      mload\n        /* \"#utility.yul\":5317:5319   */\n      0x60\n        /* \"#utility.yul\":5302:5320   */\n      swap1\n      swap7\n      add\n        /* \"#utility.yul\":5296:5321   */\n      mload\n        /* \"#utility.yul\":5055:5327   */\n      swap5\n      swap8\n        /* \"#utility.yul\":5172:5233   */\n      swap1\n      swap7\n      pop\n        /* \"#utility.yul\":5055:5327   */\n      swap3\n      pop\n      pop\n      pop\n      jump\t// out\n        /* \"#utility.yul\":5332:5590   */\n    tag_43:\n      0x00\n      dup1\n        /* \"#utility.yul\":5461:5463   */\n      0x40\n        /* \"#utility.yul\":5449:5458   */\n      dup4\n        /* \"#utility.yul\":5440:5447   */\n      dup6\n        /* \"#utility.yul\":5436:5459   */\n      sub\n        /* \"#utility.yul\":5432:5464   */\n      slt\n        /* \"#utility.yul\":5429:5431   */\n      iszero\n      tag_287\n      jumpi\n        /* \"#utility.yul\":5482:5488   */\n      dup2\n        /* \"#utility.yul\":5474:5480   */\n      dup3\n        /* \"#utility.yul\":5467:5489   */\n      revert\n        /* \"#utility.yul\":5429:5431   */\n    tag_287:\n      pop\n      pop\n        /* \"#utility.yul\":5510:5533   */\n      dup1\n      calldataload\n      swap3\n        /* \"#utility.yul\":5580:5582   */\n      0x20\n        /* \"#utility.yul\":5565:5583   */\n      swap1\n      swap2\n      add\n        /* \"#utility.yul\":5552:5584   */\n      calldataload\n      swap2\n      pop\n        /* \"#utility.yul\":5419:5590   */\n      jump\t// out\n        /* \"#utility.yul\":5595:6817   */\n    tag_224:\n      0x00\n      dup1\n      0x00\n      dup1\n      0x00\n      dup1\n      0x00\n      dup1\n      0x00\n      dup1\n      0x00\n      dup1\n        /* \"#utility.yul\":5900:5903   */\n      0x0180\n        /* \"#utility.yul\":5888:5897   */\n      dup14\n        /* \"#utility.yul\":5879:5886   */\n      dup16\n        /* \"#utility.yul\":5875:5898   */\n      sub\n        /* \"#utility.yul\":5871:5904   */\n      slt\n        /* \"#utility.yul\":5868:5870   */\n      iszero\n      tag_289\n      jumpi\n        /* \"#utility.yul\":5922:5928   */\n      dup10\n        /* \"#utility.yul\":5914:5920   */\n      dup11\n        /* \"#utility.yul\":5907:5929   */\n      revert\n        /* \"#utility.yul\":5868:5870   */\n    tag_289:\n        /* \"#utility.yul\":5959:5968   */\n      dup13\n        /* \"#utility.yul\":5953:5969   */\n      mload\n        /* \"#utility.yul\":6009:6035   */\n      0xffffffffffffffffffffffff\n        /* \"#utility.yul\":6002:6007   */\n      dup2\n        /* \"#utility.yul\":5998:6036   */\n      and\n        /* \"#utility.yul\":5991:5996   */\n      dup2\n        /* \"#utility.yul\":5988:6037   */\n      eq\n        /* \"#utility.yul\":5978:5980   */\n      tag_290\n      jumpi\n        /* \"#utility.yul\":6056:6062   */\n      dup11\n        /* \"#utility.yul\":6048:6054   */\n      dup12\n        /* \"#utility.yul\":6041:6063   */\n      revert\n        /* \"#utility.yul\":5978:5980   */\n    tag_290:\n        /* \"#utility.yul\":6084:6089   */\n      swap12\n      pop\n        /* \"#utility.yul\":6108:6159   */\n      tag_291\n        /* \"#utility.yul\":6155:6157   */\n      0x20\n        /* \"#utility.yul\":6140:6158   */\n      dup15\n      add\n        /* \"#utility.yul\":6108:6159   */\n      tag_226\n      jump\t// in\n    tag_291:\n        /* \"#utility.yul\":6098:6159   */\n      swap11\n      pop\n        /* \"#utility.yul\":6178:6229   */\n      tag_292\n        /* \"#utility.yul\":6225:6227   */\n      0x40\n        /* \"#utility.yul\":6214:6223   */\n      dup15\n        /* \"#utility.yul\":6210:6228   */\n      add\n        /* \"#utility.yul\":6178:6229   */\n      tag_226\n      jump\t// in\n    tag_292:\n        /* \"#utility.yul\":6168:6229   */\n      swap10\n      pop\n        /* \"#utility.yul\":6248:6299   */\n      tag_293\n        /* \"#utility.yul\":6295:6297   */\n      0x60\n        /* \"#utility.yul\":6284:6293   */\n      dup15\n        /* \"#utility.yul\":6280:6298   */\n      add\n        /* \"#utility.yul\":6248:6299   */\n      tag_226\n      jump\t// in\n    tag_293:\n        /* \"#utility.yul\":6238:6299   */\n      swap9\n      pop\n        /* \"#utility.yul\":6318:6368   */\n      tag_294\n        /* \"#utility.yul\":6363:6366   */\n      0x80\n        /* \"#utility.yul\":6352:6361   */\n      dup15\n        /* \"#utility.yul\":6348:6367   */\n      add\n        /* \"#utility.yul\":6318:6368   */\n      tag_238\n      jump\t// in\n    tag_294:\n        /* \"#utility.yul\":6308:6368   */\n      swap8\n      pop\n        /* \"#utility.yul\":6387:6437   */\n      tag_295\n        /* \"#utility.yul\":6432:6435   */\n      0xa0\n        /* \"#utility.yul\":6421:6430   */\n      dup15\n        /* \"#utility.yul\":6417:6436   */\n      add\n        /* \"#utility.yul\":6387:6437   */\n      tag_238\n      jump\t// in\n    tag_295:\n        /* \"#utility.yul\":6377:6437   */\n      swap7\n      pop\n        /* \"#utility.yul\":6456:6506   */\n      tag_296\n        /* \"#utility.yul\":6501:6504   */\n      0xc0\n        /* \"#utility.yul\":6490:6499   */\n      dup15\n        /* \"#utility.yul\":6486:6505   */\n      add\n        /* \"#utility.yul\":6456:6506   */\n      tag_238\n      jump\t// in\n    tag_296:\n        /* \"#utility.yul\":6446:6506   */\n      swap6\n      pop\n        /* \"#utility.yul\":6525:6577   */\n      tag_297\n        /* \"#utility.yul\":6572:6575   */\n      0xe0\n        /* \"#utility.yul\":6561:6570   */\n      dup15\n        /* \"#utility.yul\":6557:6576   */\n      add\n        /* \"#utility.yul\":6525:6577   */\n      tag_241\n      jump\t// in\n    tag_297:\n        /* \"#utility.yul\":6515:6577   */\n      swap5\n      pop\n        /* \"#utility.yul\":6617:6620   */\n      0x0100\n        /* \"#utility.yul\":6606:6615   */\n      dup14\n        /* \"#utility.yul\":6602:6621   */\n      add\n        /* \"#utility.yul\":6596:6622   */\n      mload\n        /* \"#utility.yul\":6586:6622   */\n      swap4\n      pop\n        /* \"#utility.yul\":6662:6665   */\n      0x0120\n        /* \"#utility.yul\":6651:6660   */\n      dup14\n        /* \"#utility.yul\":6647:6666   */\n      add\n        /* \"#utility.yul\":6641:6667   */\n      mload\n        /* \"#utility.yul\":6631:6667   */\n      swap3\n      pop\n        /* \"#utility.yul\":6687:6739   */\n      tag_298\n        /* \"#utility.yul\":6734:6737   */\n      0x0140\n        /* \"#utility.yul\":6723:6732   */\n      dup15\n        /* \"#utility.yul\":6719:6738   */\n      add\n        /* \"#utility.yul\":6687:6739   */\n      tag_241\n      jump\t// in\n    tag_298:\n        /* \"#utility.yul\":6676:6739   */\n      swap2\n      pop\n        /* \"#utility.yul\":6759:6811   */\n      tag_299\n        /* \"#utility.yul\":6806:6809   */\n      0x0160\n        /* \"#utility.yul\":6795:6804   */\n      dup15\n        /* \"#utility.yul\":6791:6810   */\n      add\n        /* \"#utility.yul\":6759:6811   */\n      tag_241\n      jump\t// in\n    tag_299:\n        /* \"#utility.yul\":6748:6811   */\n      swap1\n      pop\n        /* \"#utility.yul\":5858:6817   */\n      swap3\n      swap6\n      swap9\n      swap12\n      pop\n      swap3\n      swap6\n      swap9\n      swap12\n      pop\n      swap3\n      swap6\n      swap9\n      swap12\n      jump\t// out\n        /* \"#utility.yul\":6822:6928   */\n    tag_300:\n      sub(shl(0xa0, 0x01), 0x01)\n        /* \"#utility.yul\":6890:6921   */\n      and\n        /* \"#utility.yul\":6878:6922   */\n      swap1\n      mstore\n        /* \"#utility.yul\":6868:6928   */\n      jump\t// out\n        /* \"#utility.yul\":6933:7026   */\n    tag_302:\n        /* \"#utility.yul\":7010:7011   */\n      0x02\n        /* \"#utility.yul\":6999:7019   */\n      signextend\n        /* \"#utility.yul\":6987:7020   */\n      swap1\n      mstore\n        /* \"#utility.yul\":6977:7026   */\n      jump\t// out\n        /* \"#utility.yul\":7031:7234   */\n    tag_24:\n      sub(shl(0xa0, 0x01), 0x01)\n        /* \"#utility.yul\":7195:7227   */\n      swap2\n      swap1\n      swap2\n      and\n        /* \"#utility.yul\":7177:7228   */\n      dup2\n      mstore\n        /* \"#utility.yul\":7165:7167   */\n      0x20\n        /* \"#utility.yul\":7150:7168   */\n      add\n      swap1\n        /* \"#utility.yul\":7132:7234   */\n      jump\t// out\n        /* \"#utility.yul\":7239:8194   */\n    tag_172:\n      0x00\n        /* \"#utility.yul\":7499:7500   */\n      0x01\n        /* \"#utility.yul\":7495:7496   */\n      dup1\n        /* \"#utility.yul\":7490:7493   */\n      0xa0\n        /* \"#utility.yul\":7486:7497   */\n      shl\n        /* \"#utility.yul\":7482:7501   */\n      sub\n        /* \"#utility.yul\":7540:7542   */\n      dup1\n        /* \"#utility.yul\":7532:7538   */\n      dup9\n        /* \"#utility.yul\":7528:7543   */\n      and\n        /* \"#utility.yul\":7517:7526   */\n      dup4\n        /* \"#utility.yul\":7510:7544   */\n      mstore\n        /* \"#utility.yul\":7563:7565   */\n      0x20\n        /* \"#utility.yul\":7615:7621   */\n      dup8\n        /* \"#utility.yul\":7608:7622   */\n      iszero\n        /* \"#utility.yul\":7601:7623   */\n      iszero\n        /* \"#utility.yul\":7596:7598   */\n      dup2\n        /* \"#utility.yul\":7585:7594   */\n      dup6\n        /* \"#utility.yul\":7581:7599   */\n      add\n        /* \"#utility.yul\":7574:7624   */\n      mstore\n        /* \"#utility.yul\":7660:7666   */\n      dup7\n        /* \"#utility.yul\":7655:7657   */\n      0x40\n        /* \"#utility.yul\":7644:7653   */\n      dup6\n        /* \"#utility.yul\":7640:7658   */\n      add\n        /* \"#utility.yul\":7633:7667   */\n      mstore\n        /* \"#utility.yul\":7715:7717   */\n      dup2\n        /* \"#utility.yul\":7707:7713   */\n      dup7\n        /* \"#utility.yul\":7703:7718   */\n      and\n        /* \"#utility.yul\":7698:7700   */\n      0x60\n        /* \"#utility.yul\":7687:7696   */\n      dup6\n        /* \"#utility.yul\":7683:7701   */\n      add\n        /* \"#utility.yul\":7676:7719   */\n      mstore\n        /* \"#utility.yul\":7756:7759   */\n      0xa0\n        /* \"#utility.yul\":7750:7753   */\n      0x80\n        /* \"#utility.yul\":7739:7748   */\n      dup6\n        /* \"#utility.yul\":7735:7754   */\n      add\n        /* \"#utility.yul\":7728:7760   */\n      mstore\n        /* \"#utility.yul\":7789:7795   */\n      dup5\n        /* \"#utility.yul\":7783:7796   */\n      mload\n        /* \"#utility.yul\":7769:7796   */\n      swap2\n      pop\n        /* \"#utility.yul\":7833:7839   */\n      dup2\n        /* \"#utility.yul\":7827:7830   */\n      0xa0\n        /* \"#utility.yul\":7816:7825   */\n      dup6\n        /* \"#utility.yul\":7812:7831   */\n      add\n        /* \"#utility.yul\":7805:7840   */\n      mstore\n        /* \"#utility.yul\":7858:7862   */\n      dup3\n        /* \"#utility.yul\":7871:8012   */\n    tag_306:\n        /* \"#utility.yul\":7885:7891   */\n      dup3\n        /* \"#utility.yul\":7882:7883   */\n      dup2\n        /* \"#utility.yul\":7879:7892   */\n      lt\n        /* \"#utility.yul\":7871:8012   */\n      iszero\n      tag_308\n      jumpi\n        /* \"#utility.yul\":7981:7995   */\n      dup6\n      dup2\n      add\n        /* \"#utility.yul\":7977:8000   */\n      dup3\n      add\n        /* \"#utility.yul\":7971:8001   */\n      mload\n        /* \"#utility.yul\":7946:7963   */\n      dup6\n      dup3\n      add\n        /* \"#utility.yul\":7965:7968   */\n      0xc0\n        /* \"#utility.yul\":7942:7969   */\n      add\n        /* \"#utility.yul\":7935:8002   */\n      mstore\n        /* \"#utility.yul\":7900:7910   */\n      dup2\n      add\n        /* \"#utility.yul\":7871:8012   */\n      jump(tag_306)\n    tag_308:\n        /* \"#utility.yul\":8030:8036   */\n      dup3\n        /* \"#utility.yul\":8027:8028   */\n      dup2\n        /* \"#utility.yul\":8024:8037   */\n      gt\n        /* \"#utility.yul\":8021:8023   */\n      iszero\n      tag_309\n      jumpi\n        /* \"#utility.yul\":8101:8105   */\n      dup4\n        /* \"#utility.yul\":8095:8098   */\n      0xc0\n        /* \"#utility.yul\":8086:8092   */\n      dup5\n        /* \"#utility.yul\":8075:8084   */\n      dup8\n        /* \"#utility.yul\":8071:8093   */\n      add\n        /* \"#utility.yul\":8067:8099   */\n      add\n        /* \"#utility.yul\":8060:8106   */\n      mstore\n        /* \"#utility.yul\":8021:8023   */\n    tag_309:\n      pop\n      pop\n        /* \"#utility.yul\":8177:8179   */\n      0x1f\n        /* \"#utility.yul\":8156:8171   */\n      add\n      not(0x1f)\n        /* \"#utility.yul\":8152:8181   */\n      and\n        /* \"#utility.yul\":8137:8182   */\n      swap2\n      swap1\n      swap2\n      add\n        /* \"#utility.yul\":8184:8187   */\n      0xc0\n        /* \"#utility.yul\":8133:8188   */\n      add\n      swap7\n        /* \"#utility.yul\":7462:8194   */\n      swap6\n      pop\n      pop\n      pop\n      pop\n      pop\n      pop\n      jump\t// out\n        /* \"#utility.yul\":8199:8696   */\n    tag_53:\n      sub(shl(0xa0, 0x01), 0x01)\n        /* \"#utility.yul\":8486:8501   */\n      swap5\n      dup6\n      and\n        /* \"#utility.yul\":8468:8502   */\n      dup2\n      mstore\n      sub(shl(0x80, 0x01), 0x01)\n        /* \"#utility.yul\":8538:8585   */\n      swap4\n      swap1\n      swap4\n      and\n        /* \"#utility.yul\":8533:8535   */\n      0x20\n        /* \"#utility.yul\":8518:8536   */\n      dup5\n      add\n        /* \"#utility.yul\":8511:8586   */\n      mstore\n        /* \"#utility.yul\":8622:8637   */\n      swap1\n      dup4\n      and\n        /* \"#utility.yul\":8617:8619   */\n      0x40\n        /* \"#utility.yul\":8602:8620   */\n      dup4\n      add\n        /* \"#utility.yul\":8595:8638   */\n      mstore\n        /* \"#utility.yul\":8674:8689   */\n      swap1\n      swap2\n      and\n        /* \"#utility.yul\":8669:8671   */\n      0x60\n        /* \"#utility.yul\":8654:8672   */\n      dup3\n      add\n        /* \"#utility.yul\":8647:8690   */\n      mstore\n        /* \"#utility.yul\":8417:8420   */\n      0x80\n        /* \"#utility.yul\":8402:8421   */\n      add\n      swap1\n        /* \"#utility.yul\":8384:8696   */\n      jump\t// out\n        /* \"#utility.yul\":8701:8975   */\n    tag_103:\n      sub(shl(0xa0, 0x01), 0x01)\n        /* \"#utility.yul\":8893:8925   */\n      swap3\n      swap1\n      swap3\n      and\n        /* \"#utility.yul\":8875:8926   */\n      dup3\n      mstore\n        /* \"#utility.yul\":8957:8959   */\n      0x20\n        /* \"#utility.yul\":8942:8960   */\n      dup3\n      add\n        /* \"#utility.yul\":8935:8969   */\n      mstore\n        /* \"#utility.yul\":8863:8865   */\n      0x40\n        /* \"#utility.yul\":8848:8866   */\n      add\n      swap1\n        /* \"#utility.yul\":8830:8975   */\n      jump\t// out\n        /* \"#utility.yul\":8980:9182   */\n    tag_31:\n      not(sub(shl(0xe0, 0x01), 0x01))\n        /* \"#utility.yul\":9142:9175   */\n      swap2\n      swap1\n      swap2\n      and\n        /* \"#utility.yul\":9124:9176   */\n      dup2\n      mstore\n        /* \"#utility.yul\":9112:9114   */\n      0x20\n        /* \"#utility.yul\":9097:9115   */\n      add\n      swap1\n        /* \"#utility.yul\":9079:9182   */\n      jump\t// out\n        /* \"#utility.yul\":9187:9375   */\n    tag_58:\n        /* \"#utility.yul\":9358:9359   */\n      0x02\n        /* \"#utility.yul\":9347:9368   */\n      swap2\n      swap1\n      swap2\n      signextend\n        /* \"#utility.yul\":9329:9369   */\n      dup2\n      mstore\n        /* \"#utility.yul\":9317:9319   */\n      0x20\n        /* \"#utility.yul\":9302:9320   */\n      add\n      swap1\n        /* \"#utility.yul\":9284:9375   */\n      jump\t// out\n        /* \"#utility.yul\":9380:9726   */\n    tag_136:\n        /* \"#utility.yul\":9582:9584   */\n      0x20\n        /* \"#utility.yul\":9564:9585   */\n      dup1\n      dup3\n      mstore\n        /* \"#utility.yul\":9621:9623   */\n      0x16\n        /* \"#utility.yul\":9601:9619   */\n      swap1\n      dup3\n      add\n        /* \"#utility.yul\":9594:9624   */\n      mstore\n      shl(0x50, 0x4f6e6c79206f776e65722063616e20646f2074686973)\n        /* \"#utility.yul\":9655:9657   */\n      0x40\n        /* \"#utility.yul\":9640:9658   */\n      dup3\n      add\n        /* \"#utility.yul\":9633:9685   */\n      mstore\n        /* \"#utility.yul\":9717:9719   */\n      0x60\n        /* \"#utility.yul\":9702:9720   */\n      add\n      swap1\n        /* \"#utility.yul\":9554:9726   */\n      jump\t// out\n        /* \"#utility.yul\":9731:10075   */\n    tag_158:\n        /* \"#utility.yul\":9933:9935   */\n      0x20\n        /* \"#utility.yul\":9915:9936   */\n      dup1\n      dup3\n      mstore\n        /* \"#utility.yul\":9972:9974   */\n      0x14\n        /* \"#utility.yul\":9952:9970   */\n      swap1\n      dup3\n      add\n        /* \"#utility.yul\":9945:9975   */\n      mstore\n      shl(0x62, 0x125b9d985b1a59081a5b9c1d5d08185b5bdd5b9d)\n        /* \"#utility.yul\":10006:10008   */\n      0x40\n        /* \"#utility.yul\":9991:10009   */\n      dup3\n      add\n        /* \"#utility.yul\":9984:10034   */\n      mstore\n        /* \"#utility.yul\":10066:10068   */\n      0x60\n        /* \"#utility.yul\":10051:10069   */\n      add\n      swap1\n        /* \"#utility.yul\":9905:10075   */\n      jump\t// out\n        /* \"#utility.yul\":10080:10427   */\n    tag_184:\n        /* \"#utility.yul\":10282:10284   */\n      0x20\n        /* \"#utility.yul\":10264:10285   */\n      dup1\n      dup3\n      mstore\n        /* \"#utility.yul\":10321:10323   */\n      0x17\n        /* \"#utility.yul\":10301:10319   */\n      swap1\n      dup3\n      add\n        /* \"#utility.yul\":10294:10324   */\n      mstore\n        /* \"#utility.yul\":10360:10385   */\n      0x43616c6c6261636b206f6e6c792066726f6d20706f6f6c000000000000000000\n        /* \"#utility.yul\":10355:10357   */\n      0x40\n        /* \"#utility.yul\":10340:10358   */\n      dup3\n      add\n        /* \"#utility.yul\":10333:10386   */\n      mstore\n        /* \"#utility.yul\":10418:10420   */\n      0x60\n        /* \"#utility.yul\":10403:10421   */\n      add\n      swap1\n        /* \"#utility.yul\":10254:10427   */\n      jump\t// out\n        /* \"#utility.yul\":10432:11806   */\n    tag_126:\n      0x00\n        /* \"#utility.yul\":10620:10623   */\n      0x0180\n        /* \"#utility.yul\":10609:10618   */\n      dup3\n        /* \"#utility.yul\":10605:10624   */\n      add\n        /* \"#utility.yul\":10597:10624   */\n      swap1\n      pop\n        /* \"#utility.yul\":10633:10679   */\n      tag_318\n        /* \"#utility.yul\":10669:10678   */\n      dup3\n        /* \"#utility.yul\":10660:10666   */\n      dup5\n        /* \"#utility.yul\":10654:10667   */\n      mload\n        /* \"#utility.yul\":10633:10679   */\n      tag_300\n      jump\t// in\n    tag_318:\n        /* \"#utility.yul\":10726:10730   */\n      0x20\n        /* \"#utility.yul\":10718:10724   */\n      dup4\n        /* \"#utility.yul\":10714:10731   */\n      add\n        /* \"#utility.yul\":10708:10732   */\n      mload\n        /* \"#utility.yul\":10741:10797   */\n      tag_319\n        /* \"#utility.yul\":10791:10795   */\n      0x20\n        /* \"#utility.yul\":10780:10789   */\n      dup5\n        /* \"#utility.yul\":10776:10796   */\n      add\n        /* \"#utility.yul\":10762:10774   */\n      dup3\n        /* \"#utility.yul\":10741:10797   */\n      tag_300\n      jump\t// in\n    tag_319:\n      pop\n        /* \"#utility.yul\":10846:10850   */\n      0x40\n        /* \"#utility.yul\":10838:10844   */\n      dup4\n        /* \"#utility.yul\":10834:10851   */\n      add\n        /* \"#utility.yul\":10828:10852   */\n      mload\n        /* \"#utility.yul\":10861:10917   */\n      tag_320\n        /* \"#utility.yul\":10911:10915   */\n      0x40\n        /* \"#utility.yul\":10900:10909   */\n      dup5\n        /* \"#utility.yul\":10896:10916   */\n      add\n        /* \"#utility.yul\":10880:10894   */\n      dup3\n        /* \"#utility.yul\":10861:10917   */\n      tag_302\n      jump\t// in\n    tag_320:\n      pop\n        /* \"#utility.yul\":10966:10970   */\n      0x60\n        /* \"#utility.yul\":10958:10964   */\n      dup4\n        /* \"#utility.yul\":10954:10971   */\n      add\n        /* \"#utility.yul\":10948:10972   */\n      mload\n        /* \"#utility.yul\":10981:11037   */\n      tag_321\n        /* \"#utility.yul\":11031:11035   */\n      0x60\n        /* \"#utility.yul\":11020:11029   */\n      dup5\n        /* \"#utility.yul\":11016:11036   */\n      add\n        /* \"#utility.yul\":11000:11014   */\n      dup3\n        /* \"#utility.yul\":10981:11037   */\n      tag_302\n      jump\t// in\n    tag_321:\n      pop\n        /* \"#utility.yul\":11086:11090   */\n      0x80\n        /* \"#utility.yul\":11078:11084   */\n      dup4\n        /* \"#utility.yul\":11074:11091   */\n      add\n        /* \"#utility.yul\":11068:11092   */\n      mload\n        /* \"#utility.yul\":11101:11157   */\n      tag_322\n        /* \"#utility.yul\":11151:11155   */\n      0x80\n        /* \"#utility.yul\":11140:11149   */\n      dup5\n        /* \"#utility.yul\":11136:11156   */\n      add\n        /* \"#utility.yul\":11120:11134   */\n      dup3\n        /* \"#utility.yul\":11101:11157   */\n      tag_302\n      jump\t// in\n    tag_322:\n      pop\n        /* \"#utility.yul\":11213:11217   */\n      0xa0\n        /* \"#utility.yul\":11205:11211   */\n      dup4\n        /* \"#utility.yul\":11201:11218   */\n      add\n        /* \"#utility.yul\":11195:11219   */\n      mload\n        /* \"#utility.yul\":11188:11192   */\n      0xa0\n        /* \"#utility.yul\":11177:11186   */\n      dup4\n        /* \"#utility.yul\":11173:11193   */\n      add\n        /* \"#utility.yul\":11166:11220   */\n      mstore\n        /* \"#utility.yul\":11276:11280   */\n      0xc0\n        /* \"#utility.yul\":11268:11274   */\n      dup4\n        /* \"#utility.yul\":11264:11281   */\n      add\n        /* \"#utility.yul\":11258:11282   */\n      mload\n        /* \"#utility.yul\":11251:11255   */\n      0xc0\n        /* \"#utility.yul\":11240:11249   */\n      dup4\n        /* \"#utility.yul\":11236:11256   */\n      add\n        /* \"#utility.yul\":11229:11283   */\n      mstore\n        /* \"#utility.yul\":11339:11343   */\n      0xe0\n        /* \"#utility.yul\":11331:11337   */\n      dup4\n        /* \"#utility.yul\":11327:11344   */\n      add\n        /* \"#utility.yul\":11321:11345   */\n      mload\n        /* \"#utility.yul\":11314:11318   */\n      0xe0\n        /* \"#utility.yul\":11303:11312   */\n      dup4\n        /* \"#utility.yul\":11299:11319   */\n      add\n        /* \"#utility.yul\":11292:11346   */\n      mstore\n        /* \"#utility.yul\":11365:11371   */\n      0x0100\n        /* \"#utility.yul\":11425:11427   */\n      dup1\n        /* \"#utility.yul\":11417:11423   */\n      dup5\n        /* \"#utility.yul\":11413:11428   */\n      add\n        /* \"#utility.yul\":11407:11429   */\n      mload\n        /* \"#utility.yul\":11402:11404   */\n      dup2\n        /* \"#utility.yul\":11391:11400   */\n      dup5\n        /* \"#utility.yul\":11387:11405   */\n      add\n        /* \"#utility.yul\":11380:11430   */\n      mstore\n      pop\n        /* \"#utility.yul\":11449:11455   */\n      0x0120\n        /* \"#utility.yul\":11504:11506   */\n      dup1\n        /* \"#utility.yul\":11496:11502   */\n      dup5\n        /* \"#utility.yul\":11492:11507   */\n      add\n        /* \"#utility.yul\":11486:11508   */\n      mload\n        /* \"#utility.yul\":11517:11573   */\n      tag_323\n        /* \"#utility.yul\":11569:11571   */\n      dup3\n        /* \"#utility.yul\":11558:11567   */\n      dup6\n        /* \"#utility.yul\":11554:11572   */\n      add\n        /* \"#utility.yul\":11538:11552   */\n      dup3\n        /* \"#utility.yul\":11517:11573   */\n      tag_300\n      jump\t// in\n    tag_323:\n      pop\n      pop\n        /* \"#utility.yul\":11592:11598   */\n      0x0140\n        /* \"#utility.yul\":11640:11655   */\n      dup4\n      dup2\n      add\n        /* \"#utility.yul\":11634:11656   */\n      mload\n        /* \"#utility.yul\":11614:11632   */\n      swap1\n      dup4\n      add\n        /* \"#utility.yul\":11607:11657   */\n      mstore\n        /* \"#utility.yul\":11676:11682   */\n      0x0160\n        /* \"#utility.yul\":11719:11734   */\n      dup1\n      dup5\n      add\n        /* \"#utility.yul\":11713:11735   */\n      mload\n        /* \"#utility.yul\":11744:11800   */\n      tag_324\n        /* \"#utility.yul\":11781:11799   */\n      dup3\n      dup6\n      add\n        /* \"#utility.yul\":11713:11735   */\n      dup3\n        /* \"#utility.yul\":11744:11800   */\n      tag_300\n      jump\t// in\n    tag_324:\n      pop\n      pop\n        /* \"#utility.yul\":10587:11806   */\n      swap3\n      swap2\n      pop\n      pop\n      jump\t// out\n        /* \"#utility.yul\":11811:11988   */\n    tag_219:\n        /* \"#utility.yul\":11957:11982   */\n      swap1\n      dup2\n      mstore\n        /* \"#utility.yul\":11945:11947   */\n      0x20\n        /* \"#utility.yul\":11930:11948   */\n      add\n      swap1\n        /* \"#utility.yul\":11912:11988   */\n      jump\t// out\n        /* \"#utility.yul\":11993:12425   */\n    tag_46:\n        /* \"#utility.yul\":12224:12249   */\n      swap4\n      dup5\n      mstore\n      sub(shl(0x80, 0x01), 0x01)\n        /* \"#utility.yul\":12285:12332   */\n      swap3\n      swap1\n      swap3\n      and\n        /* \"#utility.yul\":12280:12282   */\n      0x20\n        /* \"#utility.yul\":12265:12283   */\n      dup5\n      add\n        /* \"#utility.yul\":12258:12333   */\n      mstore\n        /* \"#utility.yul\":12364:12366   */\n      0x40\n        /* \"#utility.yul\":12349:12367   */\n      dup4\n      add\n        /* \"#utility.yul\":12342:12376   */\n      mstore\n        /* \"#utility.yul\":12407:12409   */\n      0x60\n        /* \"#utility.yul\":12392:12410   */\n      dup3\n      add\n        /* \"#utility.yul\":12385:12419   */\n      mstore\n        /* \"#utility.yul\":12211:12214   */\n      0x80\n        /* \"#utility.yul\":12196:12215   */\n      add\n      swap1\n        /* \"#utility.yul\":12178:12425   */\n      jump\t// out\n        /* \"#utility.yul\":12430:12563   */\n    tag_229:\n      sub(shl(0xa0, 0x01), 0x01)\n        /* \"#utility.yul\":12507:12538   */\n      dup2\n      and\n        /* \"#utility.yul\":12497:12539   */\n      dup2\n      eq\n        /* \"#utility.yul\":12487:12489   */\n      tag_328\n      jumpi\n        /* \"#utility.yul\":12553:12554   */\n      0x00\n        /* \"#utility.yul\":12550:12551   */\n      dup1\n        /* \"#utility.yul\":12543:12555   */\n      revert\n        /* \"#utility.yul\":12487:12489   */\n    tag_328:\n        /* \"#utility.yul\":12477:12563   */\n      pop\n      jump\t// out\n\n    auxdata: 0xa2646970667358221220b6fd4252aa5b807a1a50029340de3b25f3c1ad69c72bb1303ce164122fbad75564736f6c63430007060033\n}\n",
				"bytecode": {
					"linkReferences": {},
					"object": "608060405234801561001057600080fd5b50600480546001600160a01b031916331790556117f7806100326000396000f3fe6080604052600436106100e85760003560e01c8063d21220a71161008a578063e6f4d0aa11610059578063e6f4d0aa1461025b578063f851a4401461027b578063fa461e3314610290578063fdde416f146102b0576100e8565b8063d21220a7146101f1578063d2aca8cd14610206578063da802f8014610226578063db6382981461023b576100e8565b80637210468a116100c65780637210468a1461015a5780639cd441da1461017c578063b02c43d01461019f578063d0c93a7c146101cf576100e8565b80630dfe1681146100ed578063150b7a021461011857806316f0115b14610145575b600080fd5b3480156100f957600080fd5b506101026102d0565b60405161010f919061151f565b60405180910390f35b34801561012457600080fd5b50610138610133366004611212565b6102df565b60405161010f91906115ff565b34801561015157600080fd5b506101026102fd565b34801561016657600080fd5b5061017a6101753660046111d3565b61030c565b005b61018f61018a36600461140b565b610418565b60405161010f9493929190611785565b3480156101ab57600080fd5b506101bf6101ba3660046113a0565b6106db565b60405161010f94939291906115b2565b3480156101db57600080fd5b506101e461071b565b60405161010f9190611614565b3480156101fd57600080fd5b5061010261072b565b34801561021257600080fd5b5061017a6102213660046111d3565b61073a565b34801561023257600080fd5b506101026109d8565b34801561024757600080fd5b5061017a6102563660046113a0565b6109e7565b34801561026757600080fd5b5061017a6102763660046111d3565b610c0a565b34801561028757600080fd5b50610102610c56565b34801561029c57600080fd5b5061017a6102ab3660046112da565b610c65565b3480156102bc57600080fd5b5061017a6102cb3660046113a0565b610dbb565b6001546001600160a01b031681565b60006102eb8685610f86565b50630a85bd0160e11b95945050505050565b6000546001600160a01b031681565b6040516370a0823160e01b81526000906001600160a01b038316906370a082319061033b90309060040161151f565b60206040518083038186803b15801561035357600080fd5b505afa158015610367573d6000803e3d6000fd5b505050506040513d601f19601f8201168201806040525081019061038b91906113b8565b6004805460405163a9059cbb60e01b81529293506001600160a01b038086169363a9059cbb936103c193909216918691016115e6565b602060405180830381600087803b1580156103db57600080fd5b505af11580156103ef573d6000803e3d6000fd5b505050506040513d601f19601f820116820180604052508101906104139190611283565b505050565b60015460035460405163095ea7b360e01b81526000928392839283926001600160a01b039081169263095ea7b39261045892909116908a906004016115e6565b602060405180830381600087803b15801561047257600080fd5b505af1158015610486573d6000803e3d6000fd5b505050506040513d601f19601f820116820180604052508101906104aa9190611283565b5060025460035460405163095ea7b360e01b81526001600160a01b039283169263095ea7b3926104e19291169089906004016115e6565b602060405180830381600087803b1580156104fb57600080fd5b505af115801561050f573d6000803e3d6000fd5b505050506040513d601f19601f820116820180604052508101906105339190611283565b5060008060009054906101000a90046001600160a01b03166001600160a01b0316633850c7bd6040518163ffffffff1660e01b815260040160c06040518083038186803b15801561058357600080fd5b505afa158015610597573d6000803e3d6000fd5b505050506040513d601f19601f820116820180604052508101906105bb919061132b565b505060408051610180810182526001546001600160a01b039081168252600280548216602084015260048054600160a01b9004820b90910b83850152620d89e7196060840152620d89e8608084015260a083018f905260c083018e9052600060e084018190526101008401523061012084015242610140840152818816610160840152600354935163b5007d1f60e01b815297985091969216945063b5007d1f935061066a92508591016116b7565b608060405180830381600087803b15801561068457600080fd5b505af1158015610698573d6000803e3d6000fd5b505050506040513d601f19601f820116820180604052508101906106bc91906113d0565b929850909650945092506106d03087610f86565b505092959194509250565b60056020526000908152604090208054600182015460028301546003909301546001600160a01b03928316936001600160801b0390921692918216911684565b600454600160a01b900460020b81565b6002546001600160a01b031681565b6004546001600160a01b0316331461076d5760405162461bcd60e51b815260040161076490611622565b60405180910390fd5b600080546001600160a01b0319166001600160a01b03838116919091179182905560408051630dfe168160e01b815290519290911691630dfe168191600480820192602092909190829003018186803b1580156107c957600080fd5b505afa1580156107dd573d6000803e3d6000fd5b505050506040513d601f19601f8201168201806040525081019061080191906111f6565b600180546001600160a01b0319166001600160a01b039283161790556000546040805163d21220a760e01b81529051919092169163d21220a7916004808301926020929190829003018186803b15801561085a57600080fd5b505afa15801561086e573d6000803e3d6000fd5b505050506040513d601f19601f8201168201806040525081019061089291906111f6565b600280546001600160a01b0319166001600160a01b03928316179055600054604080516323e6650160e11b8152905191909216916347ccca02916004808301926020929190829003018186803b1580156108eb57600080fd5b505afa1580156108ff573d6000803e3d6000fd5b505050506040513d601f19601f8201168201806040525081019061092391906111f6565b600380546001600160a01b0319166001600160a01b03928316179055600054604080516334324e9f60e21b81529051919092169163d0c93a7c916004808301926020929190829003018186803b15801561097c57600080fd5b505afa158015610990573d6000803e3d6000fd5b505050506040513d601f19601f820116820180604052508101906109b4919061129d565b600460146101000a81548162ffffff021916908360020b62ffffff16021790555050565b6003546001600160a01b031681565b60008111610a075760405162461bcd60e51b815260040161076490611652565b60008060009054906101000a90046001600160a01b03166001600160a01b0316633850c7bd6040518163ffffffff1660e01b815260040160c06040518083038186803b158015610a5657600080fd5b505afa158015610a6a573d6000803e3d6000fd5b505050506040513d601f19601f82011682018060405250810190610a8e919061132b565b5050505050905060006064826063026001600160a01b031681610aad57fe5b0490506401000276a36001600160a01b03821611610acd57506401000276a45b60015460005460405163095ea7b360e01b81526001600160a01b039283169263095ea7b392610b039291169087906004016115e6565b602060405180830381600087803b158015610b1d57600080fd5b505af1158015610b31573d6000803e3d6000fd5b505050506040513d601f19601f82011682018060405250810190610b559190611283565b50600030604051602001610b69919061151f565b60408051601f1981840301815290829052600054630251596160e31b83529092506001600160a01b03169063128acb0890610bb1903090600190899088908890600401611533565b6040805180830381600087803b158015610bca57600080fd5b505af1158015610bde573d6000803e3d6000fd5b505050506040513d601f19601f82011682018060405250810190610c0291906112b7565b505050505050565b6004546001600160a01b03163314610c345760405162461bcd60e51b815260040161076490611622565b600480546001600160a01b0319166001600160a01b0392909216919091179055565b6004546001600160a01b031681565b6000546001600160a01b03163314610c8f5760405162461bcd60e51b815260040161076490611680565b6000841315610d225760015460005460405163a9059cbb60e01b81526001600160a01b039283169263a9059cbb92610cce9291169088906004016115e6565b602060405180830381600087803b158015610ce857600080fd5b505af1158015610cfc573d6000803e3d6000fd5b505050506040513d601f19601f82011682018060405250810190610d209190611283565b505b6000831315610db55760025460005460405163a9059cbb60e01b81526001600160a01b039283169263a9059cbb92610d619291169087906004016115e6565b602060405180830381600087803b158015610d7b57600080fd5b505af1158015610d8f573d6000803e3d6000fd5b505050506040513d601f19601f82011682018060405250810190610db39190611283565b505b50505050565b60008111610ddb5760405162461bcd60e51b815260040161076490611652565b60008060009054906101000a90046001600160a01b03166001600160a01b0316633850c7bd6040518163ffffffff1660e01b815260040160c06040518083038186803b158015610e2a57600080fd5b505afa158015610e3e573d6000803e3d6000fd5b505050506040513d601f19601f82011682018060405250810190610e62919061132b565b5050505050905060006064826065026001600160a01b031681610e8157fe5b0490506401000276a36001600160a01b03821611610ea157506401000276a25b60025460005460405163095ea7b360e01b81526001600160a01b039283169263095ea7b392610ed79291169087906004016115e6565b602060405180830381600087803b158015610ef157600080fd5b505af1158015610f05573d6000803e3d6000fd5b505050506040513d601f19601f82011682018060405250810190610f299190611283565b50600030604051602001610f3d919061151f565b60408051601f198184030181529082905260008054630251596160e31b84529193506001600160a01b039091169163128acb0891610bb191309190899088908890600401611533565b60035460405163133f757160e31b8152600091829182916001600160a01b0316906399fbab8890610fbb90879060040161177c565b6101806040518083038186803b158015610fd457600080fd5b505afa158015610fe8573d6000803e3d6000fd5b505050506040513d601f19601f8201168201806040525081019061100c919061142c565b5050505097505050509450945050506040518060800160405280866001600160a01b03168152602001826001600160801b03168152602001846001600160a01b03168152602001836001600160a01b03168152506005600086815260200190815260200160002060008201518160000160006101000a8154816001600160a01b0302191690836001600160a01b0316021790555060208201518160010160006101000a8154816001600160801b0302191690836001600160801b0316021790555060408201518160020160006101000a8154816001600160a01b0302191690836001600160a01b0316021790555060608201518160030160006101000a8154816001600160a01b0302191690836001600160a01b031602179055509050505050505050565b805161113c816117a9565b919050565b8051801515811461113c57600080fd5b60008083601f840112611162578182fd5b50813567ffffffffffffffff811115611179578182fd5b60208301915083602082850101111561119157600080fd5b9250929050565b8051600281900b811461113c57600080fd5b80516001600160801b038116811461113c57600080fd5b805161ffff8116811461113c57600080fd5b6000602082840312156111e4578081fd5b81356111ef816117a9565b9392505050565b600060208284031215611207578081fd5b81516111ef816117a9565b600080600080600060808688031215611229578081fd5b8535611234816117a9565b94506020860135611244816117a9565b935060408601359250606086013567ffffffffffffffff811115611266578182fd5b61127288828901611151565b969995985093965092949392505050565b600060208284031215611294578081fd5b6111ef82611141565b6000602082840312156112ae578081fd5b6111ef82611198565b600080604083850312156112c9578182fd5b505080516020909101519092909150565b600080600080606085870312156112ef578384fd5b8435935060208501359250604085013567ffffffffffffffff811115611313578283fd5b61131f87828801611151565b95989497509550505050565b60008060008060008060c08789031215611343578081fd5b865161134e816117a9565b955061135c60208801611198565b945061136a604088016111c1565b9350611378606088016111c1565b9250611386608088016111c1565b915061139460a08801611141565b90509295509295509295565b6000602082840312156113b1578081fd5b5035919050565b6000602082840312156113c9578081fd5b5051919050565b600080600080608085870312156113e5578384fd5b845193506113f5602086016111aa565b6040860151606090960151949790965092505050565b6000806040838503121561141d578182fd5b50508035926020909101359150565b6000806000806000806000806000806000806101808d8f03121561144e57898afd5b8c516bffffffffffffffffffffffff81168114611469578a8bfd5b9b5061147760208e01611131565b9a5061148560408e01611131565b995061149360608e01611131565b98506114a160808e01611198565b97506114af60a08e01611198565b96506114bd60c08e01611198565b95506114cb60e08e016111aa565b94506101008d015193506101208d015192506114ea6101408e016111aa565b91506114f96101608e016111aa565b90509295989b509295989b509295989b565b6001600160a01b03169052565b60020b9052565b6001600160a01b0391909116815260200190565b600060018060a01b038088168352602087151581850152866040850152818616606085015260a06080850152845191508160a0850152825b828110156115875785810182015185820160c00152810161156b565b82811115611598578360c084870101525b5050601f01601f19169190910160c0019695505050505050565b6001600160a01b0394851681526001600160801b039390931660208401529083166040830152909116606082015260800190565b6001600160a01b03929092168252602082015260400190565b6001600160e01b031991909116815260200190565b60029190910b815260200190565b6020808252601690820152754f6e6c79206f776e65722063616e20646f207468697360501b604082015260600190565b602080825260149082015273125b9d985b1a59081a5b9c1d5d08185b5bdd5b9d60621b604082015260600190565b60208082526017908201527f43616c6c6261636b206f6e6c792066726f6d20706f6f6c000000000000000000604082015260600190565b6000610180820190506116cb82845161150b565b60208301516116dd602084018261150b565b5060408301516116f06040840182611518565b5060608301516117036060840182611518565b5060808301516117166080840182611518565b5060a083015160a083015260c083015160c083015260e083015160e0830152610100808401518184015250610120808401516117548285018261150b565b50506101408381015190830152610160808401516117748285018261150b565b505092915050565b90815260200190565b9384526001600160801b039290921660208401526040830152606082015260800190565b6001600160a01b03811681146117be57600080fd5b5056fea2646970667358221220b6fd4252aa5b807a1a50029340de3b25f3c1ad69c72bb1303ce164122fbad75564736f6c63430007060033",
					"opcodes": "PUSH1 0x80 PUSH1 0x40 MSTORE CALLVALUE DUP1 ISZERO PUSH2 0x10 JUMPI PUSH1 0x0 DUP1 REVERT JUMPDEST POP PUSH1 0x4 DUP1 SLOAD PUSH1 0x1 PUSH1 0x1 PUSH1 0xA0 SHL SUB NOT AND CALLER OR SWAP1 SSTORE PUSH2 0x17F7 DUP1 PUSH2 0x32 PUSH1 0x0 CODECOPY PUSH1 0x0 RETURN INVALID PUSH1 0x80 PUSH1 0x40 MSTORE PUSH1 0x4 CALLDATASIZE LT PUSH2 0xE8 JUMPI PUSH1 0x0 CALLDATALOAD PUSH1 0xE0 SHR DUP1 PUSH4 0xD21220A7 GT PUSH2 0x8A JUMPI DUP1 PUSH4 0xE6F4D0AA GT PUSH2 0x59 JUMPI DUP1 PUSH4 0xE6F4D0AA EQ PUSH2 0x25B JUMPI DUP1 PUSH4 0xF851A440 EQ PUSH2 0x27B JUMPI DUP1 PUSH4 0xFA461E33 EQ PUSH2 0x290 JUMPI DUP1 PUSH4 0xFDDE416F EQ PUSH2 0x2B0 JUMPI PUSH2 0xE8 JUMP JUMPDEST DUP1 PUSH4 0xD21220A7 EQ PUSH2 0x1F1 JUMPI DUP1 PUSH4 0xD2ACA8CD EQ PUSH2 0x206 JUMPI DUP1 PUSH4 0xDA802F80 EQ PUSH2 0x226 JUMPI DUP1 PUSH4 0xDB638298 EQ PUSH2 0x23B JUMPI PUSH2 0xE8 JUMP JUMPDEST DUP1 PUSH4 0x7210468A GT PUSH2 0xC6 JUMPI DUP1 PUSH4 0x7210468A EQ PUSH2 0x15A JUMPI DUP1 PUSH4 0x9CD441DA EQ PUSH2 0x17C JUMPI DUP1 PUSH4 0xB02C43D0 EQ PUSH2 0x19F JUMPI DUP1 PUSH4 0xD0C93A7C EQ PUSH2 0x1CF JUMPI PUSH2 0xE8 JUMP JUMPDEST DUP1 PUSH4 0xDFE1681 EQ PUSH2 0xED JUMPI DUP1 PUSH4 0x150B7A02 EQ PUSH2 0x118 JUMPI DUP1 PUSH4 0x16F0115B EQ PUSH2 0x145 JUMPI JUMPDEST PUSH1 0x0 DUP1 REVERT JUMPDEST CALLVALUE DUP1 ISZERO PUSH2 0xF9 JUMPI PUSH1 0x0 DUP1 REVERT JUMPDEST POP PUSH2 0x102 PUSH2 0x2D0 JUMP JUMPDEST PUSH1 0x40 MLOAD PUSH2 0x10F SWAP2 SWAP1 PUSH2 0x151F JUMP JUMPDEST PUSH1 0x40 MLOAD DUP1 SWAP2 SUB SWAP1 RETURN JUMPDEST CALLVALUE DUP1 ISZERO PUSH2 0x124 JUMPI PUSH1 0x0 DUP1 REVERT JUMPDEST POP PUSH2 0x138 PUSH2 0x133 CALLDATASIZE PUSH1 0x4 PUSH2 0x1212 JUMP JUMPDEST PUSH2 0x2DF JUMP JUMPDEST PUSH1 0x40 MLOAD PUSH2 0x10F SWAP2 SWAP1 PUSH2 0x15FF JUMP JUMPDEST CALLVALUE DUP1 ISZERO PUSH2 0x151 JUMPI PUSH1 0x0 DUP1 REVERT JUMPDEST POP PUSH2 0x102 PUSH2 0x2FD JUMP JUMPDEST CALLVALUE DUP1 ISZERO PUSH2 0x166 JUMPI PUSH1 0x0 DUP1 REVERT JUMPDEST POP PUSH2 0x17A PUSH2 0x175 CALLDATASIZE PUSH1 0x4 PUSH2 0x11D3 JUMP JUMPDEST PUSH2 0x30C JUMP JUMPDEST STOP JUMPDEST PUSH2 0x18F PUSH2 0x18A CALLDATASIZE PUSH1 0x4 PUSH2 0x140B JUMP JUMPDEST PUSH2 0x418 JUMP JUMPDEST PUSH1 0x40 MLOAD PUSH2 0x10F SWAP5 SWAP4 SWAP3 SWAP2 SWAP1 PUSH2 0x1785 JUMP JUMPDEST CALLVALUE DUP1 ISZERO PUSH2 0x1AB JUMPI PUSH1 0x0 DUP1 REVERT JUMPDEST POP PUSH2 0x1BF PUSH2 0x1BA CALLDATASIZE PUSH1 0x4 PUSH2 0x13A0 JUMP JUMPDEST PUSH2 0x6DB JUMP JUMPDEST PUSH1 0x40 MLOAD PUSH2 0x10F SWAP5 SWAP4 SWAP3 SWAP2 SWAP1 PUSH2 0x15B2 JUMP JUMPDEST CALLVALUE DUP1 ISZERO PUSH2 0x1DB JUMPI PUSH1 0x0 DUP1 REVERT JUMPDEST POP PUSH2 0x1E4 PUSH2 0x71B JUMP JUMPDEST PUSH1 0x40 MLOAD PUSH2 0x10F SWAP2 SWAP1 PUSH2 0x1614 JUMP JUMPDEST CALLVALUE DUP1 ISZERO PUSH2 0x1FD JUMPI PUSH1 0x0 DUP1 REVERT JUMPDEST POP PUSH2 0x102 PUSH2 0x72B JUMP JUMPDEST CALLVALUE DUP1 ISZERO PUSH2 0x212 JUMPI PUSH1 0x0 DUP1 REVERT JUMPDEST POP PUSH2 0x17A PUSH2 0x221 CALLDATASIZE PUSH1 0x4 PUSH2 0x11D3 JUMP JUMPDEST PUSH2 0x73A JUMP JUMPDEST CALLVALUE DUP1 ISZERO PUSH2 0x232 JUMPI PUSH1 0x0 DUP1 REVERT JUMPDEST POP PUSH2 0x102 PUSH2 0x9D8 JUMP JUMPDEST CALLVALUE DUP1 ISZERO PUSH2 0x247 JUMPI PUSH1 0x0 DUP1 REVERT JUMPDEST POP PUSH2 0x17A PUSH2 0x256 CALLDATASIZE PUSH1 0x4 PUSH2 0x13A0 JUMP JUMPDEST PUSH2 0x9E7 JUMP JUMPDEST CALLVALUE DUP1 ISZERO PUSH2 0x267 JUMPI PUSH1 0x0 DUP1 REVERT JUMPDEST POP PUSH2 0x17A PUSH2 0x276 CALLDATASIZE PUSH1 0x4 PUSH2 0x11D3 JUMP JUMPDEST PUSH2 0xC0A JUMP JUMPDEST CALLVALUE DUP1 ISZERO PUSH2 0x287 JUMPI PUSH1 0x0 DUP1 REVERT JUMPDEST POP PUSH2 0x102 PUSH2 0xC56 JUMP JUMPDEST CALLVALUE DUP1 ISZERO PUSH2 0x29C JUMPI PUSH1 0x0 DUP1 REVERT JUMPDEST POP PUSH2 0x17A PUSH2 0x2AB CALLDATASIZE PUSH1 0x4 PUSH2 0x12DA JUMP JUMPDEST PUSH2 0xC65 JUMP JUMPDEST CALLVALUE DUP1 ISZERO PUSH2 0x2BC JUMPI PUSH1 0x0 DUP1 REVERT JUMPDEST POP PUSH2 0x17A PUSH2 0x2CB CALLDATASIZE PUSH1 0x4 PUSH2 0x13A0 JUMP JUMPDEST PUSH2 0xDBB JUMP JUMPDEST PUSH1 0x1 SLOAD PUSH1 0x1 PUSH1 0x1 PUSH1 0xA0 SHL SUB AND DUP2 JUMP JUMPDEST PUSH1 0x0 PUSH2 0x2EB DUP7 DUP6 PUSH2 0xF86 JUMP JUMPDEST POP PUSH4 0xA85BD01 PUSH1 0xE1 SHL SWAP6 SWAP5 POP POP POP POP POP JUMP JUMPDEST PUSH1 0x0 SLOAD PUSH1 0x1 PUSH1 0x1 PUSH1 0xA0 SHL SUB AND DUP2 JUMP JUMPDEST PUSH1 0x40 MLOAD PUSH4 0x70A08231 PUSH1 0xE0 SHL DUP2 MSTORE PUSH1 0x0 SWAP1 PUSH1 0x1 PUSH1 0x1 PUSH1 0xA0 SHL SUB DUP4 AND SWAP1 PUSH4 0x70A08231 SWAP1 PUSH2 0x33B SWAP1 ADDRESS SWAP1 PUSH1 0x4 ADD PUSH2 0x151F JUMP JUMPDEST PUSH1 0x20 PUSH1 0x40 MLOAD DUP1 DUP4 SUB DUP2 DUP7 DUP1 EXTCODESIZE ISZERO DUP1 ISZERO PUSH2 0x353 JUMPI PUSH1 0x0 DUP1 REVERT JUMPDEST POP GAS STATICCALL ISZERO DUP1 ISZERO PUSH2 0x367 JUMPI RETURNDATASIZE PUSH1 0x0 DUP1 RETURNDATACOPY RETURNDATASIZE PUSH1 0x0 REVERT JUMPDEST POP POP POP POP PUSH1 0x40 MLOAD RETURNDATASIZE PUSH1 0x1F NOT PUSH1 0x1F DUP3 ADD AND DUP3 ADD DUP1 PUSH1 0x40 MSTORE POP DUP2 ADD SWAP1 PUSH2 0x38B SWAP2 SWAP1 PUSH2 0x13B8 JUMP JUMPDEST PUSH1 0x4 DUP1 SLOAD PUSH1 0x40 MLOAD PUSH4 0xA9059CBB PUSH1 0xE0 SHL DUP2 MSTORE SWAP3 SWAP4 POP PUSH1 0x1 PUSH1 0x1 PUSH1 0xA0 SHL SUB DUP1 DUP7 AND SWAP4 PUSH4 0xA9059CBB SWAP4 PUSH2 0x3C1 SWAP4 SWAP1 SWAP3 AND SWAP2 DUP7 SWAP2 ADD PUSH2 0x15E6 JUMP JUMPDEST PUSH1 0x20 PUSH1 0x40 MLOAD DUP1 DUP4 SUB DUP2 PUSH1 0x0 DUP8 DUP1 EXTCODESIZE ISZERO DUP1 ISZERO PUSH2 0x3DB JUMPI PUSH1 0x0 DUP1 REVERT JUMPDEST POP GAS CALL ISZERO DUP1 ISZERO PUSH2 0x3EF JUMPI RETURNDATASIZE PUSH1 0x0 DUP1 RETURNDATACOPY RETURNDATASIZE PUSH1 0x0 REVERT JUMPDEST POP POP POP POP PUSH1 0x40 MLOAD RETURNDATASIZE PUSH1 0x1F NOT PUSH1 0x1F DUP3 ADD AND DUP3 ADD DUP1 PUSH1 0x40 MSTORE POP DUP2 ADD SWAP1 PUSH2 0x413 SWAP2 SWAP1 PUSH2 0x1283 JUMP JUMPDEST POP POP POP JUMP JUMPDEST PUSH1 0x1 SLOAD PUSH1 0x3 SLOAD PUSH1 0x40 MLOAD PUSH4 0x95EA7B3 PUSH1 0xE0 SHL DUP2 MSTORE PUSH1 0x0 SWAP3 DUP4 SWAP3 DUP4 SWAP3 DUP4 SWAP3 PUSH1 0x1 PUSH1 0x1 PUSH1 0xA0 SHL SUB SWAP1 DUP2 AND SWAP3 PUSH4 0x95EA7B3 SWAP3 PUSH2 0x458 SWAP3 SWAP1 SWAP2 AND SWAP1 DUP11 SWAP1 PUSH1 0x4 ADD PUSH2 0x15E6 JUMP JUMPDEST PUSH1 0x20 PUSH1 0x40 MLOAD DUP1 DUP4 SUB DUP2 PUSH1 0x0 DUP8 DUP1 EXTCODESIZE ISZERO DUP1 ISZERO PUSH2 0x472 JUMPI PUSH1 0x0 DUP1 REVERT JUMPDEST POP GAS CALL ISZERO DUP1 ISZERO PUSH2 0x486 JUMPI RETURNDATASIZE PUSH1 0x0 DUP1 RETURNDATACOPY RETURNDATASIZE PUSH1 0x0 REVERT JUMPDEST POP POP POP POP PUSH1 0x40 MLOAD RETURNDATASIZE PUSH1 0x1F NOT PUSH1 0x1F DUP3 ADD AND DUP3 ADD DUP1 PUSH1 0x40 MSTORE POP DUP2 ADD SWAP1 PUSH2 0x4AA SWAP2 SWAP1 PUSH2 0x1283 JUMP JUMPDEST POP PUSH1 0x2 SLOAD PUSH1 0x3 SLOAD PUSH1 0x40 MLOAD PUSH4 0x95EA7B3 PUSH1 0xE0 SHL DUP2 MSTORE PUSH1 0x1 PUSH1 0x1 PUSH1 0xA0 SHL SUB SWAP3 DUP4 AND SWAP3 PUSH4 0x95EA7B3 SWAP3 PUSH2 0x4E1 SWAP3 SWAP2 AND SWAP1 DUP10 SWAP1 PUSH1 0x4 ADD PUSH2 0x15E6 JUMP JUMPDEST PUSH1 0x20 PUSH1 0x40 MLOAD DUP1 DUP4 SUB DUP2 PUSH1 0x0 DUP8 DUP1 EXTCODESIZE ISZERO DUP1 ISZERO PUSH2 0x4FB JUMPI PUSH1 0x0 DUP1 REVERT JUMPDEST POP GAS CALL ISZERO DUP1 ISZERO PUSH2 0x50F JUMPI RETURNDATASIZE PUSH1 0x0 DUP1 RETURNDATACOPY RETURNDATASIZE PUSH1 0x0 REVERT JUMPDEST POP POP POP POP PUSH1 0x40 MLOAD RETURNDATASIZE PUSH1 0x1F NOT PUSH1 0x1F DUP3 ADD AND DUP3 ADD DUP1 PUSH1 0x40 MSTORE POP DUP2 ADD SWAP1 PUSH2 0x533 SWAP2 SWAP1 PUSH2 0x1283 JUMP JUMPDEST POP PUSH1 0x0 DUP1 PUSH1 0x0 SWAP1 SLOAD SWAP1 PUSH2 0x100 EXP SWAP1 DIV PUSH1 0x1 PUSH1 0x1 PUSH1 0xA0 SHL SUB AND PUSH1 0x1 PUSH1 0x1 PUSH1 0xA0 SHL SUB AND PUSH4 0x3850C7BD PUSH1 0x40 MLOAD DUP2 PUSH4 0xFFFFFFFF AND PUSH1 0xE0 SHL DUP2 MSTORE PUSH1 0x4 ADD PUSH1 0xC0 PUSH1 0x40 MLOAD DUP1 DUP4 SUB DUP2 DUP7 DUP1 EXTCODESIZE ISZERO DUP1 ISZERO PUSH2 0x583 JUMPI PUSH1 0x0 DUP1 REVERT JUMPDEST POP GAS STATICCALL ISZERO DUP1 ISZERO PUSH2 0x597 JUMPI RETURNDATASIZE PUSH1 0x0 DUP1 RETURNDATACOPY RETURNDATASIZE PUSH1 0x0 REVERT JUMPDEST POP POP POP POP PUSH1 0x40 MLOAD RETURNDATASIZE PUSH1 0x1F NOT PUSH1 0x1F DUP3 ADD AND DUP3 ADD DUP1 PUSH1 0x40 MSTORE POP DUP2 ADD SWAP1 PUSH2 0x5BB SWAP2 SWAP1 PUSH2 0x132B JUMP JUMPDEST POP POP PUSH1 0x40 DUP1 MLOAD PUSH2 0x180 DUP2 ADD DUP3 MSTORE PUSH1 0x1 SLOAD PUSH1 0x1 PUSH1 0x1 PUSH1 0xA0 SHL SUB SWAP1 DUP2 AND DUP3 MSTORE PUSH1 0x2 DUP1 SLOAD DUP3 AND PUSH1 0x20 DUP5 ADD MSTORE PUSH1 0x4 DUP1 SLOAD PUSH1 0x1 PUSH1 0xA0 SHL SWAP1 DIV DUP3 SIGNEXTEND SWAP1 SWAP2 SIGNEXTEND DUP4 DUP6 ADD MSTORE PUSH3 0xD89E7 NOT PUSH1 0x60 DUP5 ADD MSTORE PUSH3 0xD89E8 PUSH1 0x80 DUP5 ADD MSTORE PUSH1 0xA0 DUP4 ADD DUP16 SWAP1 MSTORE PUSH1 0xC0 DUP4 ADD DUP15 SWAP1 MSTORE PUSH1 0x0 PUSH1 0xE0 DUP5 ADD DUP2 SWAP1 MSTORE PUSH2 0x100 DUP5 ADD MSTORE ADDRESS PUSH2 0x120 DUP5 ADD MSTORE TIMESTAMP PUSH2 0x140 DUP5 ADD MSTORE DUP2 DUP9 AND PUSH2 0x160 DUP5 ADD MSTORE PUSH1 0x3 SLOAD SWAP4 MLOAD PUSH4 0xB5007D1F PUSH1 0xE0 SHL DUP2 MSTORE SWAP8 SWAP9 POP SWAP2 SWAP7 SWAP3 AND SWAP5 POP PUSH4 0xB5007D1F SWAP4 POP PUSH2 0x66A SWAP3 POP DUP6 SWAP2 ADD PUSH2 0x16B7 JUMP JUMPDEST PUSH1 0x80 PUSH1 0x40 MLOAD DUP1 DUP4 SUB DUP2 PUSH1 0x0 DUP8 DUP1 EXTCODESIZE ISZERO DUP1 ISZERO PUSH2 0x684 JUMPI PUSH1 0x0 DUP1 REVERT JUMPDEST POP GAS CALL ISZERO DUP1 ISZERO PUSH2 0x698 JUMPI RETURNDATASIZE PUSH1 0x0 DUP1 RETURNDATACOPY RETURNDATASIZE PUSH1 0x0 REVERT JUMPDEST POP POP POP POP PUSH1 0x40 MLOAD RETURNDATASIZE PUSH1 0x1F NOT PUSH1 0x1F DUP3 ADD AND DUP3 ADD DUP1 PUSH1 0x40 MSTORE POP DUP2 ADD SWAP1 PUSH2 0x6BC SWAP2 SWAP1 PUSH2 0x13D0 JUMP JUMPDEST SWAP3 SWAP9 POP SWAP1 SWAP7 POP SWAP5 POP SWAP3 POP PUSH2 0x6D0 ADDRESS DUP8 PUSH2 0xF86 JUMP JUMPDEST POP POP SWAP3 SWAP6 SWAP2 SWAP5 POP SWAP3 POP JUMP JUMPDEST PUSH1 0x5 PUSH1 0x20 MSTORE PUSH1 0x0 SWAP1 DUP2 MSTORE PUSH1 0x40 SWAP1 KECCAK256 DUP1 SLOAD PUSH1 0x1 DUP3 ADD SLOAD PUSH1 0x2 DUP4 ADD SLOAD PUSH1 0x3 SWAP1 SWAP4 ADD SLOAD PUSH1 0x1 PUSH1 0x1 PUSH1 0xA0 SHL SUB SWAP3 DUP4 AND SWAP4 PUSH1 0x1 PUSH1 0x1 PUSH1 0x80 SHL SUB SWAP1 SWAP3 AND SWAP3 SWAP2 DUP3 AND SWAP2 AND DUP5 JUMP JUMPDEST PUSH1 0x4 SLOAD PUSH1 0x1 PUSH1 0xA0 SHL SWAP1 DIV PUSH1 0x2 SIGNEXTEND DUP2 JUMP JUMPDEST PUSH1 0x2 SLOAD PUSH1 0x1 PUSH1 0x1 PUSH1 0xA0 SHL SUB AND DUP2 JUMP JUMPDEST PUSH1 0x4 SLOAD PUSH1 0x1 PUSH1 0x1 PUSH1 0xA0 SHL SUB AND CALLER EQ PUSH2 0x76D JUMPI PUSH1 0x40 MLOAD PUSH3 0x461BCD PUSH1 0xE5 SHL DUP2 MSTORE PUSH1 0x4 ADD PUSH2 0x764 SWAP1 PUSH2 0x1622 JUMP JUMPDEST PUSH1 0x40 MLOAD DUP1 SWAP2 SUB SWAP1 REVERT JUMPDEST PUSH1 0x0 DUP1 SLOAD PUSH1 0x1 PUSH1 0x1 PUSH1 0xA0 SHL SUB NOT AND PUSH1 0x1 PUSH1 0x1 PUSH1 0xA0 SHL SUB DUP4 DUP2 AND SWAP2 SWAP1 SWAP2 OR SWAP2 DUP3 SWAP1 SSTORE PUSH1 0x40 DUP1 MLOAD PUSH4 0xDFE1681 PUSH1 0xE0 SHL DUP2 MSTORE SWAP1 MLOAD SWAP3 SWAP1 SWAP2 AND SWAP2 PUSH4 0xDFE1681 SWAP2 PUSH1 0x4 DUP1 DUP3 ADD SWAP3 PUSH1 0x20 SWAP3 SWAP1 SWAP2 SWAP1 DUP3 SWAP1 SUB ADD DUP2 DUP7 DUP1 EXTCODESIZE ISZERO DUP1 ISZERO PUSH2 0x7C9 JUMPI PUSH1 0x0 DUP1 REVERT JUMPDEST POP GAS STATICCALL ISZERO DUP1 ISZERO PUSH2 0x7DD JUMPI RETURNDATASIZE PUSH1 0x0 DUP1 RETURNDATACOPY RETURNDATASIZE PUSH1 0x0 REVERT JUMPDEST POP POP POP POP PUSH1 0x40 MLOAD RETURNDATASIZE PUSH1 0x1F NOT PUSH1 0x1F DUP3 ADD AND DUP3 ADD DUP1 PUSH1 0x40 MSTORE POP DUP2 ADD SWAP1 PUSH2 0x801 SWAP2 SWAP1 PUSH2 0x11F6 JUMP JUMPDEST PUSH1 0x1 DUP1 SLOAD PUSH1 0x1 PUSH1 0x1 PUSH1 0xA0 SHL SUB NOT AND PUSH1 0x1 PUSH1 0x1 PUSH1 0xA0 SHL SUB SWAP3 DUP4 AND OR SWAP1 SSTORE PUSH1 0x0 SLOAD PUSH1 0x40 DUP1 MLOAD PUSH4 0xD21220A7 PUSH1 0xE0 SHL DUP2 MSTORE SWAP1 MLOAD SWAP2 SWAP1 SWAP3 AND SWAP2 PUSH4 0xD21220A7 SWAP2 PUSH1 0x4 DUP1 DUP4 ADD SWAP3 PUSH1 0x20 SWAP3 SWAP2 SWAP1 DUP3 SWAP1 SUB ADD DUP2 DUP7 DUP1 EXTCODESIZE ISZERO DUP1 ISZERO PUSH2 0x85A JUMPI PUSH1 0x0 DUP1 REVERT JUMPDEST POP GAS STATICCALL ISZERO DUP1 ISZERO PUSH2 0x86E JUMPI RETURNDATASIZE PUSH1 0x0 DUP1 RETURNDATACOPY RETURNDATASIZE PUSH1 0x0 REVERT JUMPDEST POP POP POP POP PUSH1 0x40 MLOAD RETURNDATASIZE PUSH1 0x1F NOT PUSH1 0x1F DUP3 ADD AND DUP3 ADD DUP1 PUSH1 0x40 MSTORE POP DUP2 ADD SWAP1 PUSH2 0x892 SWAP2 SWAP1 PUSH2 0x11F6 JUMP JUMPDEST PUSH1 0x2 DUP1 SLOAD PUSH1 0x1 PUSH1 0x1 PUSH1 0xA0 SHL SUB NOT AND PUSH1 0x1 PUSH1 0x1 PUSH1 0xA0 SHL SUB SWAP3 DUP4 AND OR SWAP1 SSTORE PUSH1 0x0 SLOAD PUSH1 0x40 DUP1 MLOAD PUSH4 0x23E66501 PUSH1 0xE1 SHL DUP2 MSTORE SWAP1 MLOAD SWAP2 SWAP1 SWAP3 AND SWAP2 PUSH4 0x47CCCA02 SWAP2 PUSH1 0x4 DUP1 DUP4 ADD SWAP3 PUSH1 0x20 SWAP3 SWAP2 SWAP1 DUP3 SWAP1 SUB ADD DUP2 DUP7 DUP1 EXTCODESIZE ISZERO DUP1 ISZERO PUSH2 0x8EB JUMPI PUSH1 0x0 DUP1 REVERT JUMPDEST POP GAS STATICCALL ISZERO DUP1 ISZERO PUSH2 0x8FF JUMPI RETURNDATASIZE PUSH1 0x0 DUP1 RETURNDATACOPY RETURNDATASIZE PUSH1 0x0 REVERT JUMPDEST POP POP POP POP PUSH1 0x40 MLOAD RETURNDATASIZE PUSH1 0x1F NOT PUSH1 0x1F DUP3 ADD AND DUP3 ADD DUP1 PUSH1 0x40 MSTORE POP DUP2 ADD SWAP1 PUSH2 0x923 SWAP2 SWAP1 PUSH2 0x11F6 JUMP JUMPDEST PUSH1 0x3 DUP1 SLOAD PUSH1 0x1 PUSH1 0x1 PUSH1 0xA0 SHL SUB NOT AND PUSH1 0x1 PUSH1 0x1 PUSH1 0xA0 SHL SUB SWAP3 DUP4 AND OR SWAP1 SSTORE PUSH1 0x0 SLOAD PUSH1 0x40 DUP1 MLOAD PUSH4 0x34324E9F PUSH1 0xE2 SHL DUP2 MSTORE SWAP1 MLOAD SWAP2 SWAP1 SWAP3 AND SWAP2 PUSH4 0xD0C93A7C SWAP2 PUSH1 0x4 DUP1 DUP4 ADD SWAP3 PUSH1 0x20 SWAP3 SWAP2 SWAP1 DUP3 SWAP1 SUB ADD DUP2 DUP7 DUP1 EXTCODESIZE ISZERO DUP1 ISZERO PUSH2 0x97C JUMPI PUSH1 0x0 DUP1 REVERT JUMPDEST POP GAS STATICCALL ISZERO DUP1 ISZERO PUSH2 0x990 JUMPI RETURNDATASIZE PUSH1 0x0 DUP1 RETURNDATACOPY RETURNDATASIZE PUSH1 0x0 REVERT JUMPDEST POP POP POP POP PUSH1 0x40 MLOAD RETURNDATASIZE PUSH1 0x1F NOT PUSH1 0x1F DUP3 ADD AND DUP3 ADD DUP1 PUSH1 0x40 MSTORE POP DUP2 ADD SWAP1 PUSH2 0x9B4 SWAP2 SWAP1 PUSH2 0x129D JUMP JUMPDEST PUSH1 0x4 PUSH1 0x14 PUSH2 0x100 EXP DUP2 SLOAD DUP2 PUSH3 0xFFFFFF MUL NOT AND SWAP1 DUP4 PUSH1 0x2 SIGNEXTEND PUSH3 0xFFFFFF AND MUL OR SWAP1 SSTORE POP POP JUMP JUMPDEST PUSH1 0x3 SLOAD PUSH1 0x1 PUSH1 0x1 PUSH1 0xA0 SHL SUB AND DUP2 JUMP JUMPDEST PUSH1 0x0 DUP2 GT PUSH2 0xA07 JUMPI PUSH1 0x40 MLOAD PUSH3 0x461BCD PUSH1 0xE5 SHL DUP2 MSTORE PUSH1 0x4 ADD PUSH2 0x764 SWAP1 PUSH2 0x1652 JUMP JUMPDEST PUSH1 0x0 DUP1 PUSH1 0x0 SWAP1 SLOAD SWAP1 PUSH2 0x100 EXP SWAP1 DIV PUSH1 0x1 PUSH1 0x1 PUSH1 0xA0 SHL SUB AND PUSH1 0x1 PUSH1 0x1 PUSH1 0xA0 SHL SUB AND PUSH4 0x3850C7BD PUSH1 0x40 MLOAD DUP2 PUSH4 0xFFFFFFFF AND PUSH1 0xE0 SHL DUP2 MSTORE PUSH1 0x4 ADD PUSH1 0xC0 PUSH1 0x40 MLOAD DUP1 DUP4 SUB DUP2 DUP7 DUP1 EXTCODESIZE ISZERO DUP1 ISZERO PUSH2 0xA56 JUMPI PUSH1 0x0 DUP1 REVERT JUMPDEST POP GAS STATICCALL ISZERO DUP1 ISZERO PUSH2 0xA6A JUMPI RETURNDATASIZE PUSH1 0x0 DUP1 RETURNDATACOPY RETURNDATASIZE PUSH1 0x0 REVERT JUMPDEST POP POP POP POP PUSH1 0x40 MLOAD RETURNDATASIZE PUSH1 0x1F NOT PUSH1 0x1F DUP3 ADD AND DUP3 ADD DUP1 PUSH1 0x40 MSTORE POP DUP2 ADD SWAP1 PUSH2 0xA8E SWAP2 SWAP1 PUSH2 0x132B JUMP JUMPDEST POP POP POP POP POP SWAP1 POP PUSH1 0x0 PUSH1 0x64 DUP3 PUSH1 0x63 MUL PUSH1 0x1 PUSH1 0x1 PUSH1 0xA0 SHL SUB AND DUP2 PUSH2 0xAAD JUMPI INVALID JUMPDEST DIV SWAP1 POP PUSH5 0x1000276A3 PUSH1 0x1 PUSH1 0x1 PUSH1 0xA0 SHL SUB DUP3 AND GT PUSH2 0xACD JUMPI POP PUSH5 0x1000276A4 JUMPDEST PUSH1 0x1 SLOAD PUSH1 0x0 SLOAD PUSH1 0x40 MLOAD PUSH4 0x95EA7B3 PUSH1 0xE0 SHL DUP2 MSTORE PUSH1 0x1 PUSH1 0x1 PUSH1 0xA0 SHL SUB SWAP3 DUP4 AND SWAP3 PUSH4 0x95EA7B3 SWAP3 PUSH2 0xB03 SWAP3 SWAP2 AND SWAP1 DUP8 SWAP1 PUSH1 0x4 ADD PUSH2 0x15E6 JUMP JUMPDEST PUSH1 0x20 PUSH1 0x40 MLOAD DUP1 DUP4 SUB DUP2 PUSH1 0x0 DUP8 DUP1 EXTCODESIZE ISZERO DUP1 ISZERO PUSH2 0xB1D JUMPI PUSH1 0x0 DUP1 REVERT JUMPDEST POP GAS CALL ISZERO DUP1 ISZERO PUSH2 0xB31 JUMPI RETURNDATASIZE PUSH1 0x0 DUP1 RETURNDATACOPY RETURNDATASIZE PUSH1 0x0 REVERT JUMPDEST POP POP POP POP PUSH1 0x40 MLOAD RETURNDATASIZE PUSH1 0x1F NOT PUSH1 0x1F DUP3 ADD AND DUP3 ADD DUP1 PUSH1 0x40 MSTORE POP DUP2 ADD SWAP1 PUSH2 0xB55 SWAP2 SWAP1 PUSH2 0x1283 JUMP JUMPDEST POP PUSH1 0x0 ADDRESS PUSH1 0x40 MLOAD PUSH1 0x20 ADD PUSH2 0xB69 SWAP2 SWAP1 PUSH2 0x151F JUMP JUMPDEST PUSH1 0x40 DUP1 MLOAD PUSH1 0x1F NOT DUP2 DUP5 SUB ADD DUP2 MSTORE SWAP1 DUP3 SWAP1 MSTORE PUSH1 0x0 SLOAD PUSH4 0x2515961 PUSH1 0xE3 SHL DUP4 MSTORE SWAP1 SWAP3 POP PUSH1 0x1 PUSH1 0x1 PUSH1 0xA0 SHL SUB AND SWAP1 PUSH4 0x128ACB08 SWAP1 PUSH2 0xBB1 SWAP1 ADDRESS SWAP1 PUSH1 0x1 SWAP1 DUP10 SWAP1 DUP9 SWAP1 DUP9 SWAP1 PUSH1 0x4 ADD PUSH2 0x1533 JUMP JUMPDEST PUSH1 0x40 DUP1 MLOAD DUP1 DUP4 SUB DUP2 PUSH1 0x0 DUP8 DUP1 EXTCODESIZE ISZERO DUP1 ISZERO PUSH2 0xBCA JUMPI PUSH1 0x0 DUP1 REVERT JUMPDEST POP GAS CALL ISZERO DUP1 ISZERO PUSH2 0xBDE JUMPI RETURNDATASIZE PUSH1 0x0 DUP1 RETURNDATACOPY RETURNDATASIZE PUSH1 0x0 REVERT JUMPDEST POP POP POP POP PUSH1 0x40 MLOAD RETURNDATASIZE PUSH1 0x1F NOT PUSH1 0x1F DUP3 ADD AND DUP3 ADD DUP1 PUSH1 0x40 MSTORE POP DUP2 ADD SWAP1 PUSH2 0xC02 SWAP2 SWAP1 PUSH2 0x12B7 JUMP JUMPDEST POP POP POP POP POP POP JUMP JUMPDEST PUSH1 0x4 SLOAD PUSH1 0x1 PUSH1 0x1 PUSH1 0xA0 SHL SUB AND CALLER EQ PUSH2 0xC34 JUMPI PUSH1 0x40 MLOAD PUSH3 0x461BCD PUSH1 0xE5 SHL DUP2 MSTORE PUSH1 0x4 ADD PUSH2 0x764 SWAP1 PUSH2 0x1622 JUMP JUMPDEST PUSH1 0x4 DUP1 SLOAD PUSH1 0x1 PUSH1 0x1 PUSH1 0xA0 SHL SUB NOT AND PUSH1 0x1 PUSH1 0x1 PUSH1 0xA0 SHL SUB SWAP3 SWAP1 SWAP3 AND SWAP2 SWAP1 SWAP2 OR SWAP1 SSTORE JUMP JUMPDEST PUSH1 0x4 SLOAD PUSH1 0x1 PUSH1 0x1 PUSH1 0xA0 SHL SUB AND DUP2 JUMP JUMPDEST PUSH1 0x0 SLOAD PUSH1 0x1 PUSH1 0x1 PUSH1 0xA0 SHL SUB AND CALLER EQ PUSH2 0xC8F JUMPI PUSH1 0x40 MLOAD PUSH3 0x461BCD PUSH1 0xE5 SHL DUP2 MSTORE PUSH1 0x4 ADD PUSH2 0x764 SWAP1 PUSH2 0x1680 JUMP JUMPDEST PUSH1 0x0 DUP5 SGT ISZERO PUSH2 0xD22 JUMPI PUSH1 0x1 SLOAD PUSH1 0x0 SLOAD PUSH1 0x40 MLOAD PUSH4 0xA9059CBB PUSH1 0xE0 SHL DUP2 MSTORE PUSH1 0x1 PUSH1 0x1 PUSH1 0xA0 SHL SUB SWAP3 DUP4 AND SWAP3 PUSH4 0xA9059CBB SWAP3 PUSH2 0xCCE SWAP3 SWAP2 AND SWAP1 DUP9 SWAP1 PUSH1 0x4 ADD PUSH2 0x15E6 JUMP JUMPDEST PUSH1 0x20 PUSH1 0x40 MLOAD DUP1 DUP4 SUB DUP2 PUSH1 0x0 DUP8 DUP1 EXTCODESIZE ISZERO DUP1 ISZERO PUSH2 0xCE8 JUMPI PUSH1 0x0 DUP1 REVERT JUMPDEST POP GAS CALL ISZERO DUP1 ISZERO PUSH2 0xCFC JUMPI RETURNDATASIZE PUSH1 0x0 DUP1 RETURNDATACOPY RETURNDATASIZE PUSH1 0x0 REVERT JUMPDEST POP POP POP POP PUSH1 0x40 MLOAD RETURNDATASIZE PUSH1 0x1F NOT PUSH1 0x1F DUP3 ADD AND DUP3 ADD DUP1 PUSH1 0x40 MSTORE POP DUP2 ADD SWAP1 PUSH2 0xD20 SWAP2 SWAP1 PUSH2 0x1283 JUMP JUMPDEST POP JUMPDEST PUSH1 0x0 DUP4 SGT ISZERO PUSH2 0xDB5 JUMPI PUSH1 0x2 SLOAD PUSH1 0x0 SLOAD PUSH1 0x40 MLOAD PUSH4 0xA9059CBB PUSH1 0xE0 SHL DUP2 MSTORE PUSH1 0x1 PUSH1 0x1 PUSH1 0xA0 SHL SUB SWAP3 DUP4 AND SWAP3 PUSH4 0xA9059CBB SWAP3 PUSH2 0xD61 SWAP3 SWAP2 AND SWAP1 DUP8 SWAP1 PUSH1 0x4 ADD PUSH2 0x15E6 JUMP JUMPDEST PUSH1 0x20 PUSH1 0x40 MLOAD DUP1 DUP4 SUB DUP2 PUSH1 0x0 DUP8 DUP1 EXTCODESIZE ISZERO DUP1 ISZERO PUSH2 0xD7B JUMPI PUSH1 0x0 DUP1 REVERT JUMPDEST POP GAS CALL ISZERO DUP1 ISZERO PUSH2 0xD8F JUMPI RETURNDATASIZE PUSH1 0x0 DUP1 RETURNDATACOPY RETURNDATASIZE PUSH1 0x0 REVERT JUMPDEST POP POP POP POP PUSH1 0x40 MLOAD RETURNDATASIZE PUSH1 0x1F NOT PUSH1 0x1F DUP3 ADD AND DUP3 ADD DUP1 PUSH1 0x40 MSTORE POP DUP2 ADD SWAP1 PUSH2 0xDB3 SWAP2 SWAP1 PUSH2 0x1283 JUMP JUMPDEST POP JUMPDEST POP POP POP POP JUMP JUMPDEST PUSH1 0x0 DUP2 GT PUSH2 0xDDB JUMPI PUSH1 0x40 MLOAD PUSH3 0x461BCD PUSH1 0xE5 SHL DUP2 MSTORE PUSH1 0x4 ADD PUSH2 0x764 SWAP1 PUSH2 0x1652 JUMP JUMPDEST PUSH1 0x0 DUP1 PUSH1 0x0 SWAP1 SLOAD SWAP1 PUSH2 0x100 EXP SWAP1 DIV PUSH1 0x1 PUSH1 0x1 PUSH1 0xA0 SHL SUB AND PUSH1 0x1 PUSH1 0x1 PUSH1 0xA0 SHL SUB AND PUSH4 0x3850C7BD PUSH1 0x40 MLOAD DUP2 PUSH4 0xFFFFFFFF AND PUSH1 0xE0 SHL DUP2 MSTORE PUSH1 0x4 ADD PUSH1 0xC0 PUSH1 0x40 MLOAD DUP1 DUP4 SUB DUP2 DUP7 DUP1 EXTCODESIZE ISZERO DUP1 ISZERO PUSH2 0xE2A JUMPI PUSH1 0x0 DUP1 REVERT JUMPDEST POP GAS STATICCALL ISZERO DUP1 ISZERO PUSH2 0xE3E JUMPI RETURNDATASIZE PUSH1 0x0 DUP1 RETURNDATACOPY RETURNDATASIZE PUSH1 0x0 REVERT JUMPDEST POP POP POP POP PUSH1 0x40 MLOAD RETURNDATASIZE PUSH1 0x1F NOT PUSH1 0x1F DUP3 ADD AND DUP3 ADD DUP1 PUSH1 0x40 MSTORE POP DUP2 ADD SWAP1 PUSH2 0xE62 SWAP2 SWAP1 PUSH2 0x132B JUMP JUMPDEST POP POP POP POP POP SWAP1 POP PUSH1 0x0 PUSH1 0x64 DUP3 PUSH1 0x65 MUL PUSH1 0x1 PUSH1 0x1 PUSH1 0xA0 SHL SUB AND DUP2 PUSH2 0xE81 JUMPI INVALID JUMPDEST DIV SWAP1 POP PUSH5 0x1000276A3 PUSH1 0x1 PUSH1 0x1 PUSH1 0xA0 SHL SUB DUP3 AND GT PUSH2 0xEA1 JUMPI POP PUSH5 0x1000276A2 JUMPDEST PUSH1 0x2 SLOAD PUSH1 0x0 SLOAD PUSH1 0x40 MLOAD PUSH4 0x95EA7B3 PUSH1 0xE0 SHL DUP2 MSTORE PUSH1 0x1 PUSH1 0x1 PUSH1 0xA0 SHL SUB SWAP3 DUP4 AND SWAP3 PUSH4 0x95EA7B3 SWAP3 PUSH2 0xED7 SWAP3 SWAP2 AND SWAP1 DUP8 SWAP1 PUSH1 0x4 ADD PUSH2 0x15E6 JUMP JUMPDEST PUSH1 0x20 PUSH1 0x40 MLOAD DUP1 DUP4 SUB DUP2 PUSH1 0x0 DUP8 DUP1 EXTCODESIZE ISZERO DUP1 ISZERO PUSH2 0xEF1 JUMPI PUSH1 0x0 DUP1 REVERT JUMPDEST POP GAS CALL ISZERO DUP1 ISZERO PUSH2 0xF05 JUMPI RETURNDATASIZE PUSH1 0x0 DUP1 RETURNDATACOPY RETURNDATASIZE PUSH1 0x0 REVERT JUMPDEST POP POP POP POP PUSH1 0x40 MLOAD RETURNDATASIZE PUSH1 0x1F NOT PUSH1 0x1F DUP3 ADD AND DUP3 ADD DUP1 PUSH1 0x40 MSTORE POP DUP2 ADD SWAP1 PUSH2 0xF29 SWAP2 SWAP1 PUSH2 0x1283 JUMP JUMPDEST POP PUSH1 0x0 ADDRESS PUSH1 0x40 MLOAD PUSH1 0x20 ADD PUSH2 0xF3D SWAP2 SWAP1 PUSH2 0x151F JUMP JUMPDEST PUSH1 0x40 DUP1 MLOAD PUSH1 0x1F NOT DUP2 DUP5 SUB ADD DUP2 MSTORE SWAP1 DUP3 SWAP1 MSTORE PUSH1 0x0 DUP1 SLOAD PUSH4 0x2515961 PUSH1 0xE3 SHL DUP5 MSTORE SWAP2 SWAP4 POP PUSH1 0x1 PUSH1 0x1 PUSH1 0xA0 SHL SUB SWAP1 SWAP2 AND SWAP2 PUSH4 0x128ACB08 SWAP2 PUSH2 0xBB1 SWAP2 ADDRESS SWAP2 SWAP1 DUP10 SWAP1 DUP9 SWAP1 DUP9 SWAP1 PUSH1 0x4 ADD PUSH2 0x1533 JUMP JUMPDEST PUSH1 0x3 SLOAD PUSH1 0x40 MLOAD PUSH4 0x133F7571 PUSH1 0xE3 SHL DUP2 MSTORE PUSH1 0x0 SWAP2 DUP3 SWAP2 DUP3 SWAP2 PUSH1 0x1 PUSH1 0x1 PUSH1 0xA0 SHL SUB AND SWAP1 PUSH4 0x99FBAB88 SWAP1 PUSH2 0xFBB SWAP1 DUP8 SWAP1 PUSH1 0x4 ADD PUSH2 0x177C JUMP JUMPDEST PUSH2 0x180 PUSH1 0x40 MLOAD DUP1 DUP4 SUB DUP2 DUP7 DUP1 EXTCODESIZE ISZERO DUP1 ISZERO PUSH2 0xFD4 JUMPI PUSH1 0x0 DUP1 REVERT JUMPDEST POP GAS STATICCALL ISZERO DUP1 ISZERO PUSH2 0xFE8 JUMPI RETURNDATASIZE PUSH1 0x0 DUP1 RETURNDATACOPY RETURNDATASIZE PUSH1 0x0 REVERT JUMPDEST POP POP POP POP PUSH1 0x40 MLOAD RETURNDATASIZE PUSH1 0x1F NOT PUSH1 0x1F DUP3 ADD AND DUP3 ADD DUP1 PUSH1 0x40 MSTORE POP DUP2 ADD SWAP1 PUSH2 0x100C SWAP2 SWAP1 PUSH2 0x142C JUMP JUMPDEST POP POP POP POP SWAP8 POP POP POP POP SWAP5 POP SWAP5 POP POP POP PUSH1 0x40 MLOAD DUP1 PUSH1 0x80 ADD PUSH1 0x40 MSTORE DUP1 DUP7 PUSH1 0x1 PUSH1 0x1 PUSH1 0xA0 SHL SUB AND DUP2 MSTORE PUSH1 0x20 ADD DUP3 PUSH1 0x1 PUSH1 0x1 PUSH1 0x80 SHL SUB AND DUP2 MSTORE PUSH1 0x20 ADD DUP5 PUSH1 0x1 PUSH1 0x1 PUSH1 0xA0 SHL SUB AND DUP2 MSTORE PUSH1 0x20 ADD DUP4 PUSH1 0x1 PUSH1 0x1 PUSH1 0xA0 SHL SUB AND DUP2 MSTORE POP PUSH1 0x5 PUSH1 0x0 DUP7 DUP2 MSTORE PUSH1 0x20 ADD SWAP1 DUP2 MSTORE PUSH1 0x20 ADD PUSH1 0x0 KECCAK256 PUSH1 0x0 DUP3 ADD MLOAD DUP2 PUSH1 0x0 ADD PUSH1 0x0 PUSH2 0x100 EXP DUP2 SLOAD DUP2 PUSH1 0x1 PUSH1 0x1 PUSH1 0xA0 SHL SUB MUL NOT AND SWAP1 DUP4 PUSH1 0x1 PUSH1 0x1 PUSH1 0xA0 SHL SUB AND MUL OR SWAP1 SSTORE POP PUSH1 0x20 DUP3 ADD MLOAD DUP2 PUSH1 0x1 ADD PUSH1 0x0 PUSH2 0x100 EXP DUP2 SLOAD DUP2 PUSH1 0x1 PUSH1 0x1 PUSH1 0x80 SHL SUB MUL NOT AND SWAP1 DUP4 PUSH1 0x1 PUSH1 0x1 PUSH1 0x80 SHL SUB AND MUL OR SWAP1 SSTORE POP PUSH1 0x40 DUP3 ADD MLOAD DUP2 PUSH1 0x2 ADD PUSH1 0x0 PUSH2 0x100 EXP DUP2 SLOAD DUP2 PUSH1 0x1 PUSH1 0x1 PUSH1 0xA0 SHL SUB MUL NOT AND SWAP1 DUP4 PUSH1 0x1 PUSH1 0x1 PUSH1 0xA0 SHL SUB AND MUL OR SWAP1 SSTORE POP PUSH1 0x60 DUP3 ADD MLOAD DUP2 PUSH1 0x3 ADD PUSH1 0x0 PUSH2 0x100 EXP DUP2 SLOAD DUP2 PUSH1 0x1 PUSH1 0x1 PUSH1 0xA0 SHL SUB MUL NOT AND SWAP1 DUP4 PUSH1 0x1 PUSH1 0x1 PUSH1 0xA0 SHL SUB AND MUL OR SWAP1 SSTORE POP SWAP1 POP POP POP POP POP POP POP JUMP JUMPDEST DUP1 MLOAD PUSH2 0x113C DUP2 PUSH2 0x17A9 JUMP JUMPDEST SWAP2 SWAP1 POP JUMP JUMPDEST DUP1 MLOAD DUP1 ISZERO ISZERO DUP2 EQ PUSH2 0x113C JUMPI PUSH1 0x0 DUP1 REVERT JUMPDEST PUSH1 0x0 DUP1 DUP4 PUSH1 0x1F DUP5 ADD SLT PUSH2 0x1162 JUMPI DUP2 DUP3 REVERT JUMPDEST POP DUP2 CALLDATALOAD PUSH8 0xFFFFFFFFFFFFFFFF DUP2 GT ISZERO PUSH2 0x1179 JUMPI DUP2 DUP3 REVERT JUMPDEST PUSH1 0x20 DUP4 ADD SWAP2 POP DUP4 PUSH1 0x20 DUP3 DUP6 ADD ADD GT ISZERO PUSH2 0x1191 JUMPI PUSH1 0x0 DUP1 REVERT JUMPDEST SWAP3 POP SWAP3 SWAP1 POP JUMP JUMPDEST DUP1 MLOAD PUSH1 0x2 DUP2 SWAP1 SIGNEXTEND DUP2 EQ PUSH2 0x113C JUMPI PUSH1 0x0 DUP1 REVERT JUMPDEST DUP1 MLOAD PUSH1 0x1 PUSH1 0x1 PUSH1 0x80 SHL SUB DUP2 AND DUP2 EQ PUSH2 0x113C JUMPI PUSH1 0x0 DUP1 REVERT JUMPDEST DUP1 MLOAD PUSH2 0xFFFF DUP2 AND DUP2 EQ PUSH2 0x113C JUMPI PUSH1 0x0 DUP1 REVERT JUMPDEST PUSH1 0x0 PUSH1 0x20 DUP3 DUP5 SUB SLT ISZERO PUSH2 0x11E4 JUMPI DUP1 DUP2 REVERT JUMPDEST DUP2 CALLDATALOAD PUSH2 0x11EF DUP2 PUSH2 0x17A9 JUMP JUMPDEST SWAP4 SWAP3 POP POP POP JUMP JUMPDEST PUSH1 0x0 PUSH1 0x20 DUP3 DUP5 SUB SLT ISZERO PUSH2 0x1207 JUMPI DUP1 DUP2 REVERT JUMPDEST DUP2 MLOAD PUSH2 0x11EF DUP2 PUSH2 0x17A9 JUMP JUMPDEST PUSH1 0x0 DUP1 PUSH1 0x0 DUP1 PUSH1 0x0 PUSH1 0x80 DUP7 DUP9 SUB SLT ISZERO PUSH2 0x1229 JUMPI DUP1 DUP2 REVERT JUMPDEST DUP6 CALLDATALOAD PUSH2 0x1234 DUP2 PUSH2 0x17A9 JUMP JUMPDEST SWAP5 POP PUSH1 0x20 DUP7 ADD CALLDATALOAD PUSH2 0x1244 DUP2 PUSH2 0x17A9 JUMP JUMPDEST SWAP4 POP PUSH1 0x40 DUP7 ADD CALLDATALOAD SWAP3 POP PUSH1 0x60 DUP7 ADD CALLDATALOAD PUSH8 0xFFFFFFFFFFFFFFFF DUP2 GT ISZERO PUSH2 0x1266 JUMPI DUP2 DUP3 REVERT JUMPDEST PUSH2 0x1272 DUP9 DUP3 DUP10 ADD PUSH2 0x1151 JUMP JUMPDEST SWAP7 SWAP10 SWAP6 SWAP9 POP SWAP4 SWAP7 POP SWAP3 SWAP5 SWAP4 SWAP3 POP POP POP JUMP JUMPDEST PUSH1 0x0 PUSH1 0x20 DUP3 DUP5 SUB SLT ISZERO PUSH2 0x1294 JUMPI DUP1 DUP2 REVERT JUMPDEST PUSH2 0x11EF DUP3 PUSH2 0x1141 JUMP JUMPDEST PUSH1 0x0 PUSH1 0x20 DUP3 DUP5 SUB SLT ISZERO PUSH2 0x12AE JUMPI DUP1 DUP2 REVERT JUMPDEST PUSH2 0x11EF DUP3 PUSH2 0x1198 JUMP JUMPDEST PUSH1 0x0 DUP1 PUSH1 0x40 DUP4 DUP6 SUB SLT ISZERO PUSH2 0x12C9 JUMPI DUP2 DUP3 REVERT JUMPDEST POP POP DUP1 MLOAD PUSH1 0x20 SWAP1 SWAP2 ADD MLOAD SWAP1 SWAP3 SWAP1 SWAP2 POP JUMP JUMPDEST PUSH1 0x0 DUP1 PUSH1 0x0 DUP1 PUSH1 0x60 DUP6 DUP8 SUB SLT ISZERO PUSH2 0x12EF JUMPI DUP4 DUP5 REVERT JUMPDEST DUP5 CALLDATALOAD SWAP4 POP PUSH1 0x20 DUP6 ADD CALLDATALOAD SWAP3 POP PUSH1 0x40 DUP6 ADD CALLDATALOAD PUSH8 0xFFFFFFFFFFFFFFFF DUP2 GT ISZERO PUSH2 0x1313 JUMPI DUP3 DUP4 REVERT JUMPDEST PUSH2 0x131F DUP8 DUP3 DUP9 ADD PUSH2 0x1151 JUMP JUMPDEST SWAP6 SWAP9 SWAP5 SWAP8 POP SWAP6 POP POP POP POP JUMP JUMPDEST PUSH1 0x0 DUP1 PUSH1 0x0 DUP1 PUSH1 0x0 DUP1 PUSH1 0xC0 DUP8 DUP10 SUB SLT ISZERO PUSH2 0x1343 JUMPI DUP1 DUP2 REVERT JUMPDEST DUP7 MLOAD PUSH2 0x134E DUP2 PUSH2 0x17A9 JUMP JUMPDEST SWAP6 POP PUSH2 0x135C PUSH1 0x20 DUP9 ADD PUSH2 0x1198 JUMP JUMPDEST SWAP5 POP PUSH2 0x136A PUSH1 0x40 DUP9 ADD PUSH2 0x11C1 JUMP JUMPDEST SWAP4 POP PUSH2 0x1378 PUSH1 0x60 DUP9 ADD PUSH2 0x11C1 JUMP JUMPDEST SWAP3 POP PUSH2 0x1386 PUSH1 0x80 DUP9 ADD PUSH2 0x11C1 JUMP JUMPDEST SWAP2 POP PUSH2 0x1394 PUSH1 0xA0 DUP9 ADD PUSH2 0x1141 JUMP JUMPDEST SWAP1 POP SWAP3 SWAP6 POP SWAP3 SWAP6 POP SWAP3 SWAP6 JUMP JUMPDEST PUSH1 0x0 PUSH1 0x20 DUP3 DUP5 SUB SLT ISZERO PUSH2 0x13B1 JUMPI DUP1 DUP2 REVERT JUMPDEST POP CALLDATALOAD SWAP2 SWAP1 POP JUMP JUMPDEST PUSH1 0x0 PUSH1 0x20 DUP3 DUP5 SUB SLT ISZERO PUSH2 0x13C9 JUMPI DUP1 DUP2 REVERT JUMPDEST POP MLOAD SWAP2 SWAP1 POP JUMP JUMPDEST PUSH1 0x0 DUP1 PUSH1 0x0 DUP1 PUSH1 0x80 DUP6 DUP8 SUB SLT ISZERO PUSH2 0x13E5 JUMPI DUP4 DUP5 REVERT JUMPDEST DUP5 MLOAD SWAP4 POP PUSH2 0x13F5 PUSH1 0x20 DUP7 ADD PUSH2 0x11AA JUMP JUMPDEST PUSH1 0x40 DUP7 ADD MLOAD PUSH1 0x60 SWAP1 SWAP7 ADD MLOAD SWAP5 SWAP8 SWAP1 SWAP7 POP SWAP3 POP POP POP JUMP JUMPDEST PUSH1 0x0 DUP1 PUSH1 0x40 DUP4 DUP6 SUB SLT ISZERO PUSH2 0x141D JUMPI DUP2 DUP3 REVERT JUMPDEST POP POP DUP1 CALLDATALOAD SWAP3 PUSH1 0x20 SWAP1 SWAP2 ADD CALLDATALOAD SWAP2 POP JUMP JUMPDEST PUSH1 0x0 DUP1 PUSH1 0x0 DUP1 PUSH1 0x0 DUP1 PUSH1 0x0 DUP1 PUSH1 0x0 DUP1 PUSH1 0x0 DUP1 PUSH2 0x180 DUP14 DUP16 SUB SLT ISZERO PUSH2 0x144E JUMPI DUP10 DUP11 REVERT JUMPDEST DUP13 MLOAD PUSH12 0xFFFFFFFFFFFFFFFFFFFFFFFF DUP2 AND DUP2 EQ PUSH2 0x1469 JUMPI DUP11 DUP12 REVERT JUMPDEST SWAP12 POP PUSH2 0x1477 PUSH1 0x20 DUP15 ADD PUSH2 0x1131 JUMP JUMPDEST SWAP11 POP PUSH2 0x1485 PUSH1 0x40 DUP15 ADD PUSH2 0x1131 JUMP JUMPDEST SWAP10 POP PUSH2 0x1493 PUSH1 0x60 DUP15 ADD PUSH2 0x1131 JUMP JUMPDEST SWAP9 POP PUSH2 0x14A1 PUSH1 0x80 DUP15 ADD PUSH2 0x1198 JUMP JUMPDEST SWAP8 POP PUSH2 0x14AF PUSH1 0xA0 DUP15 ADD PUSH2 0x1198 JUMP JUMPDEST SWAP7 POP PUSH2 0x14BD PUSH1 0xC0 DUP15 ADD PUSH2 0x1198 JUMP JUMPDEST SWAP6 POP PUSH2 0x14CB PUSH1 0xE0 DUP15 ADD PUSH2 0x11AA JUMP JUMPDEST SWAP5 POP PUSH2 0x100 DUP14 ADD MLOAD SWAP4 POP PUSH2 0x120 DUP14 ADD MLOAD SWAP3 POP PUSH2 0x14EA PUSH2 0x140 DUP15 ADD PUSH2 0x11AA JUMP JUMPDEST SWAP2 POP PUSH2 0x14F9 PUSH2 0x160 DUP15 ADD PUSH2 0x11AA JUMP JUMPDEST SWAP1 POP SWAP3 SWAP6 SWAP9 SWAP12 POP SWAP3 SWAP6 SWAP9 SWAP12 POP SWAP3 SWAP6 SWAP9 SWAP12 JUMP JUMPDEST PUSH1 0x1 PUSH1 0x1 PUSH1 0xA0 SHL SUB AND SWAP1 MSTORE JUMP JUMPDEST PUSH1 0x2 SIGNEXTEND SWAP1 MSTORE JUMP JUMPDEST PUSH1 0x1 PUSH1 0x1 PUSH1 0xA0 SHL SUB SWAP2 SWAP1 SWAP2 AND DUP2 MSTORE PUSH1 0x20 ADD SWAP1 JUMP JUMPDEST PUSH1 0x0 PUSH1 0x1 DUP1 PUSH1 0xA0 SHL SUB DUP1 DUP9 AND DUP4 MSTORE PUSH1 0x20 DUP8 ISZERO ISZERO DUP2 DUP6 ADD MSTORE DUP7 PUSH1 0x40 DUP6 ADD MSTORE DUP2 DUP7 AND PUSH1 0x60 DUP6 ADD MSTORE PUSH1 0xA0 PUSH1 0x80 DUP6 ADD MSTORE DUP5 MLOAD SWAP2 POP DUP2 PUSH1 0xA0 DUP6 ADD MSTORE DUP3 JUMPDEST DUP3 DUP2 LT ISZERO PUSH2 0x1587 JUMPI DUP6 DUP2 ADD DUP3 ADD MLOAD DUP6 DUP3 ADD PUSH1 0xC0 ADD MSTORE DUP2 ADD PUSH2 0x156B JUMP JUMPDEST DUP3 DUP2 GT ISZERO PUSH2 0x1598 JUMPI DUP4 PUSH1 0xC0 DUP5 DUP8 ADD ADD MSTORE JUMPDEST POP POP PUSH1 0x1F ADD PUSH1 0x1F NOT AND SWAP2 SWAP1 SWAP2 ADD PUSH1 0xC0 ADD SWAP7 SWAP6 POP POP POP POP POP POP JUMP JUMPDEST PUSH1 0x1 PUSH1 0x1 PUSH1 0xA0 SHL SUB SWAP5 DUP6 AND DUP2 MSTORE PUSH1 0x1 PUSH1 0x1 PUSH1 0x80 SHL SUB SWAP4 SWAP1 SWAP4 AND PUSH1 0x20 DUP5 ADD MSTORE SWAP1 DUP4 AND PUSH1 0x40 DUP4 ADD MSTORE SWAP1 SWAP2 AND PUSH1 0x60 DUP3 ADD MSTORE PUSH1 0x80 ADD SWAP1 JUMP JUMPDEST PUSH1 0x1 PUSH1 0x1 PUSH1 0xA0 SHL SUB SWAP3 SWAP1 SWAP3 AND DUP3 MSTORE PUSH1 0x20 DUP3 ADD MSTORE PUSH1 0x40 ADD SWAP1 JUMP JUMPDEST PUSH1 0x1 PUSH1 0x1 PUSH1 0xE0 SHL SUB NOT SWAP2 SWAP1 SWAP2 AND DUP2 MSTORE PUSH1 0x20 ADD SWAP1 JUMP JUMPDEST PUSH1 0x2 SWAP2 SWAP1 SWAP2 SIGNEXTEND DUP2 MSTORE PUSH1 0x20 ADD SWAP1 JUMP JUMPDEST PUSH1 0x20 DUP1 DUP3 MSTORE PUSH1 0x16 SWAP1 DUP3 ADD MSTORE PUSH22 0x4F6E6C79206F776E65722063616E20646F2074686973 PUSH1 0x50 SHL PUSH1 0x40 DUP3 ADD MSTORE PUSH1 0x60 ADD SWAP1 JUMP JUMPDEST PUSH1 0x20 DUP1 DUP3 MSTORE PUSH1 0x14 SWAP1 DUP3 ADD MSTORE PUSH20 0x125B9D985B1A59081A5B9C1D5D08185B5BDD5B9D PUSH1 0x62 SHL PUSH1 0x40 DUP3 ADD MSTORE PUSH1 0x60 ADD SWAP1 JUMP JUMPDEST PUSH1 0x20 DUP1 DUP3 MSTORE PUSH1 0x17 SWAP1 DUP3 ADD MSTORE PUSH32 0x43616C6C6261636B206F6E6C792066726F6D20706F6F6C000000000000000000 PUSH1 0x40 DUP3 ADD MSTORE PUSH1 0x60 ADD SWAP1 JUMP JUMPDEST PUSH1 0x0 PUSH2 0x180 DUP3 ADD SWAP1 POP PUSH2 0x16CB DUP3 DUP5 MLOAD PUSH2 0x150B JUMP JUMPDEST PUSH1 0x20 DUP4 ADD MLOAD PUSH2 0x16DD PUSH1 0x20 DUP5 ADD DUP3 PUSH2 0x150B JUMP JUMPDEST POP PUSH1 0x40 DUP4 ADD MLOAD PUSH2 0x16F0 PUSH1 0x40 DUP5 ADD DUP3 PUSH2 0x1518 JUMP JUMPDEST POP PUSH1 0x60 DUP4 ADD MLOAD PUSH2 0x1703 PUSH1 0x60 DUP5 ADD DUP3 PUSH2 0x1518 JUMP JUMPDEST POP PUSH1 0x80 DUP4 ADD MLOAD PUSH2 0x1716 PUSH1 0x80 DUP5 ADD DUP3 PUSH2 0x1518 JUMP JUMPDEST POP PUSH1 0xA0 DUP4 ADD MLOAD PUSH1 0xA0 DUP4 ADD MSTORE PUSH1 0xC0 DUP4 ADD MLOAD PUSH1 0xC0 DUP4 ADD MSTORE PUSH1 0xE0 DUP4 ADD MLOAD PUSH1 0xE0 DUP4 ADD MSTORE PUSH2 0x100 DUP1 DUP5 ADD MLOAD DUP2 DUP5 ADD MSTORE POP PUSH2 0x120 DUP1 DUP5 ADD MLOAD PUSH2 0x1754 DUP3 DUP6 ADD DUP3 PUSH2 0x150B JUMP JUMPDEST POP POP PUSH2 0x140 DUP4 DUP2 ADD MLOAD SWAP1 DUP4 ADD MSTORE PUSH2 0x160 DUP1 DUP5 ADD MLOAD PUSH2 0x1774 DUP3 DUP6 ADD DUP3 PUSH2 0x150B JUMP JUMPDEST POP POP SWAP3 SWAP2 POP POP JUMP JUMPDEST SWAP1 DUP2 MSTORE PUSH1 0x20 ADD SWAP1 JUMP JUMPDEST SWAP4 DUP5 MSTORE PUSH1 0x1 PUSH1 0x1 PUSH1 0x80 SHL SUB SWAP3 SWAP1 SWAP3 AND PUSH1 0x20 DUP5 ADD MSTORE PUSH1 0x40 DUP4 ADD MSTORE PUSH1 0x60 DUP3 ADD MSTORE PUSH1 0x80 ADD SWAP1 JUMP JUMPDEST PUSH1 0x1 PUSH1 0x1 PUSH1 0xA0 SHL SUB DUP2 AND DUP2 EQ PUSH2 0x17BE JUMPI PUSH1 0x0 DUP1 REVERT JUMPDEST POP JUMP INVALID LOG2 PUSH5 0x6970667358 0x22 SLT KECCAK256 0xB6 REVERT TIMESTAMP MSTORE 0xAA JUMPDEST DUP1 PUSH27 0x1A50029340DE3B25F3C1AD69C72BB1303CE164122FBAD75564736F PUSH13 0x63430007060033000000000000 "
				},
				"gasEstimates": {
					"creation": {
						"codeDepositCost": "1227000",
						"executionCost": "22110",
						"totalCost": "1249110"
					},
					"external": {
						"Swap0for1(uint256)": "infinite",
						"V3Swap1for0(uint256)": "infinite",
						"_newAdmin(address)": "22027",
						"_newPool(address)": "infinite",
						"_transferToAdmin(address)": "infinite",
						"addLiquidity(uint256,uint256)": "infinite",
						"admin()": "1114",
						"deposits(uint256)": "3860",
						"farmNFT()": "1137",
						"onERC721Received(address,address,uint256,bytes)": "infinite",
						"pool()": "1138",
						"tickSpacing()": "1156",
						"token0()": "1094",
						"token1()": "1093",
						"uniswapV3SwapCallback(int256,int256,bytes)": "infinite"
					},
					"internal": {
						"_createDeposit(address,uint256)": "infinite"
					}
				},
				"methodIdentifiers": {
					"Swap0for1(uint256)": "db638298",
					"V3Swap1for0(uint256)": "fdde416f",
					"_newAdmin(address)": "e6f4d0aa",
					"_newPool(address)": "d2aca8cd",
					"_transferToAdmin(address)": "7210468a",
					"addLiquidity(uint256,uint256)": "9cd441da",
					"admin()": "f851a440",
					"deposits(uint256)": "b02c43d0",
					"farmNFT()": "da802f80",
					"onERC721Received(address,address,uint256,bytes)": "150b7a02",
					"pool()": "16f0115b",
					"tickSpacing()": "d0c93a7c",
					"token0()": "0dfe1681",
					"token1()": "d21220a7",
					"uniswapV3SwapCallback(int256,int256,bytes)": "fa461e33"
				}
			},
			"storageLayout": {
				"storage": [
					{
						"astId": 359,
						"contract": "contracts/core/VeloBot.sol:V3Bot",
						"label": "pool",
						"offset": 0,
						"slot": "0",
						"type": "t_address"
					},
					{
						"astId": 361,
						"contract": "contracts/core/VeloBot.sol:V3Bot",
						"label": "token0",
						"offset": 0,
						"slot": "1",
						"type": "t_address"
					},
					{
						"astId": 363,
						"contract": "contracts/core/VeloBot.sol:V3Bot",
						"label": "token1",
						"offset": 0,
						"slot": "2",
						"type": "t_address"
					},
					{
						"astId": 365,
						"contract": "contracts/core/VeloBot.sol:V3Bot",
						"label": "farmNFT",
						"offset": 0,
						"slot": "3",
						"type": "t_address"
					},
					{
						"astId": 367,
						"contract": "contracts/core/VeloBot.sol:V3Bot",
						"label": "admin",
						"offset": 0,
						"slot": "4",
						"type": "t_address"
					},
					{
						"astId": 369,
						"contract": "contracts/core/VeloBot.sol:V3Bot",
						"label": "tickSpacing",
						"offset": 20,
						"slot": "4",
						"type": "t_int24"
					},
					{
						"astId": 382,
						"contract": "contracts/core/VeloBot.sol:V3Bot",
						"label": "deposits",
						"offset": 0,
						"slot": "5",
						"type": "t_mapping(t_uint256,t_struct(Deposit)378_storage)"
					}
				],
				"types": {
					"t_address": {
						"encoding": "inplace",
						"label": "address",
						"numberOfBytes": "20"
					},
					"t_int24": {
						"encoding": "inplace",
						"label": "int24",
						"numberOfBytes": "3"
					},
					"t_mapping(t_uint256,t_struct(Deposit)378_storage)": {
						"encoding": "mapping",
						"key": "t_uint256",
						"label": "mapping(uint256 => struct V3Bot.Deposit)",
						"numberOfBytes": "32",
						"value": "t_struct(Deposit)378_storage"
					},
					"t_struct(Deposit)378_storage": {
						"encoding": "inplace",
						"label": "struct V3Bot.Deposit",
						"members": [
							{
								"astId": 371,
								"contract": "contracts/core/VeloBot.sol:V3Bot",
								"label": "owner",
								"offset": 0,
								"slot": "0",
								"type": "t_address"
							},
							{
								"astId": 373,
								"contract": "contracts/core/VeloBot.sol:V3Bot",
								"label": "liquidity",
								"offset": 0,
								"slot": "1",
								"type": "t_uint128"
							},
							{
								"astId": 375,
								"contract": "contracts/core/VeloBot.sol:V3Bot",
								"label": "token0",
								"offset": 0,
								"slot": "2",
								"type": "t_address"
							},
							{
								"astId": 377,
								"contract": "contracts/core/VeloBot.sol:V3Bot",
								"label": "token1",
								"offset": 0,
								"slot": "3",
								"type": "t_address"
							}
						],
						"numberOfBytes": "128"
					},
					"t_uint128": {
						"encoding": "inplace",
						"label": "uint128",
						"numberOfBytes": "16"
					},
					"t_uint256": {
						"encoding": "inplace",
						"label": "uint256",
						"numberOfBytes": "32"
					}
				}
			},
			"userdoc": {
				"kind": "user",
				"methods": {},
				"version": 1
			}
		}
	}
}