{
	"contracts/core/VeloStake.sol": {
		"V3BotStaking": {
			"abi": [
				{
					"inputs": [],
					"stateMutability": "nonpayable",
					"type": "constructor"
				},
				{
					"inputs": [
						{
							"internalType": "address",
							"name": "newAdmin",
							"type": "address"
						}
					],
					"name": "_newAdmin",
					"outputs": [],
					"stateMutability": "nonpayable",
					"type": "function"
				},
				{
					"inputs": [
						{
							"internalType": "uint256",
							"name": "newTokenId",
							"type": "uint256"
						}
					],
					"name": "_newtokenID",
					"outputs": [],
					"stateMutability": "nonpayable",
					"type": "function"
				},
				{
					"inputs": [
						{
							"internalType": "address",
							"name": "Token",
							"type": "address"
						}
					],
					"name": "_transferToAdmin",
					"outputs": [],
					"stateMutability": "nonpayable",
					"type": "function"
				},
				{
					"inputs": [],
					"name": "admin",
					"outputs": [
						{
							"internalType": "address",
							"name": "",
							"type": "address"
						}
					],
					"stateMutability": "view",
					"type": "function"
				},
				{
					"inputs": [
						{
							"internalType": "uint256",
							"name": "",
							"type": "uint256"
						}
					],
					"name": "deposits",
					"outputs": [
						{
							"internalType": "address",
							"name": "owner",
							"type": "address"
						},
						{
							"internalType": "uint128",
							"name": "liquidity",
							"type": "uint128"
						},
						{
							"internalType": "address",
							"name": "token0",
							"type": "address"
						},
						{
							"internalType": "address",
							"name": "token1",
							"type": "address"
						}
					],
					"stateMutability": "view",
					"type": "function"
				},
				{
					"inputs": [],
					"name": "farmNFT",
					"outputs": [
						{
							"internalType": "address",
							"name": "",
							"type": "address"
						}
					],
					"stateMutability": "view",
					"type": "function"
				},
				{
					"inputs": [
						{
							"internalType": "address",
							"name": "",
							"type": "address"
						},
						{
							"internalType": "address",
							"name": "",
							"type": "address"
						},
						{
							"internalType": "uint256",
							"name": "",
							"type": "uint256"
						},
						{
							"internalType": "bytes",
							"name": "",
							"type": "bytes"
						}
					],
					"name": "onERC721Received",
					"outputs": [
						{
							"internalType": "bytes4",
							"name": "",
							"type": "bytes4"
						}
					],
					"stateMutability": "nonpayable",
					"type": "function"
				},
				{
					"inputs": [],
					"name": "oracle",
					"outputs": [
						{
							"internalType": "address",
							"name": "",
							"type": "address"
						}
					],
					"stateMutability": "view",
					"type": "function"
				},
				{
					"inputs": [],
					"name": "pool",
					"outputs": [
						{
							"internalType": "address",
							"name": "",
							"type": "address"
						}
					],
					"stateMutability": "view",
					"type": "function"
				},
				{
					"inputs": [],
					"name": "sendNFTBack",
					"outputs": [],
					"stateMutability": "payable",
					"type": "function"
				},
				{
					"inputs": [],
					"name": "spaceMultiplier",
					"outputs": [
						{
							"internalType": "int24",
							"name": "",
							"type": "int24"
						}
					],
					"stateMutability": "view",
					"type": "function"
				},
				{
					"inputs": [],
					"name": "stake",
					"outputs": [],
					"stateMutability": "payable",
					"type": "function"
				},
				{
					"inputs": [],
					"name": "tickSpacing",
					"outputs": [
						{
							"internalType": "int24",
							"name": "",
							"type": "int24"
						}
					],
					"stateMutability": "view",
					"type": "function"
				},
				{
					"inputs": [],
					"name": "token0",
					"outputs": [
						{
							"internalType": "address",
							"name": "",
							"type": "address"
						}
					],
					"stateMutability": "view",
					"type": "function"
				},
				{
					"inputs": [],
					"name": "token1",
					"outputs": [
						{
							"internalType": "address",
							"name": "",
							"type": "address"
						}
					],
					"stateMutability": "view",
					"type": "function"
				},
				{
					"inputs": [],
					"name": "tokenId",
					"outputs": [
						{
							"internalType": "uint256",
							"name": "",
							"type": "uint256"
						}
					],
					"stateMutability": "view",
					"type": "function"
				},
				{
					"inputs": [],
					"name": "withdraw",
					"outputs": [],
					"stateMutability": "payable",
					"type": "function"
				}
			],
			"devdoc": {
				"kind": "dev",
				"methods": {
					"onERC721Received(address,address,uint256,bytes)": {
						"details": "See {IERC721Receiver-onERC721Received}. Always returns `IERC721Receiver.onERC721Received.selector`."
					}
				},
				"stateVariables": {
					"deposits": {
						"details": "deposits[tokenId] => Deposit"
					}
				},
				"version": 1
			},
			"evm": {
				"assembly": "    /* \"contracts/core/VeloStake.sol\":5334:7365  contract V3BotStaking is ERC721Holder{\r... */\n  mstore(0x40, 0x80)\n    /* \"contracts/core/VeloStake.sol\":5685:5751  address public oracle = 0x9465eD15b70E8A534663530C4fCc92E22B8F6032 */\n  0x06\n  dup1\n  sload\n  not(sub(shl(0xa0, 0x01), 0x01))\n  and\n    /* \"contracts/core/VeloStake.sol\":5709:5751  0x9465eD15b70E8A534663530C4fCc92E22B8F6032 */\n  0x9465ed15b70e8a534663530c4fcc92e22b8f6032\n    /* \"contracts/core/VeloStake.sol\":5685:5751  address public oracle = 0x9465eD15b70E8A534663530C4fCc92E22B8F6032 */\n  or\n  swap1\n  sstore\n    /* \"contracts/core/VeloStake.sol\":5992:6043  constructor() {\r... */\n  callvalue\n  dup1\n  iszero\n  tag_1\n  jumpi\n  0x00\n  dup1\n  revert\ntag_1:\n  pop\n    /* \"contracts/core/VeloStake.sol\":6017:6022  admin */\n  0x05\n    /* \"contracts/core/VeloStake.sol\":6017:6035  admin = msg.sender */\n  dup1\n  sload\n  not(sub(shl(0xa0, 0x01), 0x01))\n  and\n    /* \"contracts/core/VeloStake.sol\":6025:6035  msg.sender */\n  caller\n    /* \"contracts/core/VeloStake.sol\":6017:6035  admin = msg.sender */\n  or\n  swap1\n  sstore\n    /* \"contracts/core/VeloStake.sol\":5334:7365  contract V3BotStaking is ERC721Holder{\r... */\n  dataSize(sub_0)\n  dup1\n  dataOffset(sub_0)\n  0x00\n  codecopy\n  0x00\n  return\nstop\n\nsub_0: assembly {\n        /* \"contracts/core/VeloStake.sol\":5334:7365  contract V3BotStaking is ERC721Holder{\r... */\n      mstore(0x40, 0x80)\n      jumpi(tag_1, lt(calldatasize, 0x04))\n      shr(0xe0, calldataload(0x00))\n      dup1\n      0x7dc0d1d0\n      gt\n      tag_19\n      jumpi\n      dup1\n      0xda802f80\n      gt\n      tag_20\n      jumpi\n      dup1\n      0xda802f80\n      eq\n      tag_14\n      jumpi\n      dup1\n      0xe58d539e\n      eq\n      tag_15\n      jumpi\n      dup1\n      0xe6f4d0aa\n      eq\n      tag_16\n      jumpi\n      dup1\n      0xf851a440\n      eq\n      tag_17\n      jumpi\n      dup1\n      0xfd1c1518\n      eq\n      tag_18\n      jumpi\n      jump(tag_1)\n    tag_20:\n      dup1\n      0x7dc0d1d0\n      eq\n      tag_10\n      jumpi\n      dup1\n      0xb02c43d0\n      eq\n      tag_11\n      jumpi\n      dup1\n      0xd0c93a7c\n      eq\n      tag_12\n      jumpi\n      dup1\n      0xd21220a7\n      eq\n      tag_13\n      jumpi\n      jump(tag_1)\n    tag_19:\n      dup1\n      0x3a4b66f1\n      gt\n      tag_21\n      jumpi\n      dup1\n      0x3a4b66f1\n      eq\n      tag_6\n      jumpi\n      dup1\n      0x3ccfd60b\n      eq\n      tag_7\n      jumpi\n      dup1\n      0x6020159d\n      eq\n      tag_8\n      jumpi\n      dup1\n      0x7210468a\n      eq\n      tag_9\n      jumpi\n      jump(tag_1)\n    tag_21:\n      dup1\n      0x0dfe1681\n      eq\n      tag_2\n      jumpi\n      dup1\n      0x150b7a02\n      eq\n      tag_3\n      jumpi\n      dup1\n      0x16f0115b\n      eq\n      tag_4\n      jumpi\n      dup1\n      0x17d70f7c\n      eq\n      tag_5\n      jumpi\n    tag_1:\n      0x00\n      dup1\n      revert\n        /* \"contracts/core/VeloStake.sol\":5434:5455  address public token0 */\n    tag_2:\n      callvalue\n      dup1\n      iszero\n      tag_22\n      jumpi\n      0x00\n      dup1\n      revert\n    tag_22:\n      pop\n      tag_23\n      tag_24\n      jump\t// in\n    tag_23:\n      mload(0x40)\n      tag_25\n      swap2\n      swap1\n      tag_26\n      jump\t// in\n    tag_25:\n      mload(0x40)\n      dup1\n      swap2\n      sub\n      swap1\n      return\n        /* \"@openzeppelin/contracts/token/ERC721/ERC721Holder.sol\":538:700  function onERC721Received(address, address, uint256, bytes memory) public virtual override returns (bytes4) {... */\n    tag_3:\n      callvalue\n      dup1\n      iszero\n      tag_27\n      jumpi\n      0x00\n      dup1\n      revert\n    tag_27:\n      pop\n      tag_28\n      tag_29\n      calldatasize\n      0x04\n      tag_30\n      jump\t// in\n    tag_29:\n      tag_31\n      jump\t// in\n    tag_28:\n      mload(0x40)\n      tag_25\n      swap2\n      swap1\n      tag_33\n      jump\t// in\n        /* \"contracts/core/VeloStake.sol\":5378:5397  address public pool */\n    tag_4:\n      callvalue\n      dup1\n      iszero\n      tag_34\n      jumpi\n      0x00\n      dup1\n      revert\n    tag_34:\n      pop\n      tag_23\n      tag_36\n      jump\t// in\n        /* \"contracts/core/VeloStake.sol\":5563:5585  uint256 public tokenId */\n    tag_5:\n      callvalue\n      dup1\n      iszero\n      tag_38\n      jumpi\n      0x00\n      dup1\n      revert\n    tag_38:\n      pop\n      tag_39\n      tag_40\n      jump\t// in\n    tag_39:\n      mload(0x40)\n      tag_25\n      swap2\n      swap1\n      tag_42\n      jump\t// in\n        /* \"contracts/core/VeloStake.sol\":6412:6857  function stake() public payable {\r... */\n    tag_6:\n      tag_43\n      tag_44\n      jump\t// in\n    tag_43:\n      stop\n        /* \"contracts/core/VeloStake.sol\":6867:6991  function withdraw() public payable {\r... */\n    tag_7:\n      tag_43\n      tag_46\n      jump\t// in\n        /* \"contracts/core/VeloStake.sol\":6205:6359  function _newtokenID(uint256 newTokenId) external {\r... */\n    tag_8:\n      callvalue\n      dup1\n      iszero\n      tag_47\n      jumpi\n      0x00\n      dup1\n      revert\n    tag_47:\n      pop\n      tag_43\n      tag_49\n      calldatasize\n      0x04\n      tag_50\n      jump\t// in\n    tag_49:\n      tag_51\n      jump\t// in\n        /* \"contracts/core/VeloStake.sol\":7164:7348  function _transferToAdmin(address Token) external {\r... */\n    tag_9:\n      callvalue\n      dup1\n      iszero\n      tag_52\n      jumpi\n      0x00\n      dup1\n      revert\n    tag_52:\n      pop\n      tag_43\n      tag_54\n      calldatasize\n      0x04\n      tag_55\n      jump\t// in\n    tag_54:\n      tag_56\n      jump\t// in\n        /* \"contracts/core/VeloStake.sol\":5685:5751  address public oracle = 0x9465eD15b70E8A534663530C4fCc92E22B8F6032 */\n    tag_10:\n      callvalue\n      dup1\n      iszero\n      tag_57\n      jumpi\n      0x00\n      dup1\n      revert\n    tag_57:\n      pop\n      tag_23\n      tag_59\n      jump\t// in\n        /* \"contracts/core/VeloStake.sol\":5936:5979  mapping(uint256 => Deposit) public deposits */\n    tag_11:\n      callvalue\n      dup1\n      iszero\n      tag_61\n      jumpi\n      0x00\n      dup1\n      revert\n    tag_61:\n      pop\n      tag_62\n      tag_63\n      calldatasize\n      0x04\n      tag_50\n      jump\t// in\n    tag_63:\n      tag_64\n      jump\t// in\n    tag_62:\n      mload(0x40)\n      tag_25\n      swap5\n      swap4\n      swap3\n      swap2\n      swap1\n      tag_66\n      jump\t// in\n        /* \"contracts/core/VeloStake.sol\":5619:5643  int24 public tickSpacing */\n    tag_12:\n      callvalue\n      dup1\n      iszero\n      tag_67\n      jumpi\n      0x00\n      dup1\n      revert\n    tag_67:\n      pop\n      tag_68\n      tag_69\n      jump\t// in\n    tag_68:\n      mload(0x40)\n      tag_25\n      swap2\n      swap1\n      tag_71\n      jump\t// in\n        /* \"contracts/core/VeloStake.sol\":5484:5505  address public token1 */\n    tag_13:\n      callvalue\n      dup1\n      iszero\n      tag_72\n      jumpi\n      0x00\n      dup1\n      revert\n    tag_72:\n      pop\n      tag_23\n      tag_74\n      jump\t// in\n        /* \"contracts/core/VeloStake.sol\":5534:5556  address public farmNFT */\n    tag_14:\n      callvalue\n      dup1\n      iszero\n      tag_76\n      jumpi\n      0x00\n      dup1\n      revert\n    tag_76:\n      pop\n      tag_23\n      tag_78\n      jump\t// in\n        /* \"contracts/core/VeloStake.sol\":6999:7156  function sendNFTBack() public payable {\r... */\n    tag_15:\n      tag_43\n      tag_81\n      jump\t// in\n        /* \"contracts/core/VeloStake.sol\":6051:6197  function _newAdmin(address newAdmin) external {\r... */\n    tag_16:\n      callvalue\n      dup1\n      iszero\n      tag_82\n      jumpi\n      0x00\n      dup1\n      revert\n    tag_82:\n      pop\n      tag_43\n      tag_84\n      calldatasize\n      0x04\n      tag_55\n      jump\t// in\n    tag_84:\n      tag_85\n      jump\t// in\n        /* \"contracts/core/VeloStake.sol\":5592:5612  address public admin */\n    tag_17:\n      callvalue\n      dup1\n      iszero\n      tag_86\n      jumpi\n      0x00\n      dup1\n      revert\n    tag_86:\n      pop\n      tag_23\n      tag_88\n      jump\t// in\n        /* \"contracts/core/VeloStake.sol\":5650:5678  int24 public spaceMultiplier */\n    tag_18:\n      callvalue\n      dup1\n      iszero\n      tag_90\n      jumpi\n      0x00\n      dup1\n      revert\n    tag_90:\n      pop\n      tag_68\n      tag_92\n      jump\t// in\n        /* \"contracts/core/VeloStake.sol\":5434:5455  address public token0 */\n    tag_24:\n      and(sub(shl(0xa0, 0x01), 0x01), sload(0x01))\n      dup2\n      jump\t// out\n        /* \"@openzeppelin/contracts/token/ERC721/ERC721Holder.sol\":538:700  function onERC721Received(address, address, uint256, bytes memory) public virtual override returns (bytes4) {... */\n    tag_31:\n      shl(0xe1, 0x0a85bd01)\n      swap5\n      swap4\n      pop\n      pop\n      pop\n      pop\n      jump\t// out\n        /* \"contracts/core/VeloStake.sol\":5378:5397  address public pool */\n    tag_36:\n      and(sub(shl(0xa0, 0x01), 0x01), sload(0x00))\n      dup2\n      jump\t// out\n        /* \"contracts/core/VeloStake.sol\":5563:5585  uint256 public tokenId */\n    tag_40:\n      sload(0x04)\n      dup2\n      jump\t// out\n        /* \"contracts/core/VeloStake.sol\":6412:6857  function stake() public payable {\r... */\n    tag_44:\n        /* \"contracts/core/VeloStake.sol\":6547:6554  tokenId */\n      0x04\n      dup1\n      sload\n        /* \"contracts/core/VeloStake.sol\":6455:6555  IERC721(0x416b433906b1B72FA758e166e239c43d68dC6F29).transferFrom(msg.sender, address(this), tokenId) */\n      mload(0x40)\n      shl(0xe0, 0x23b872dd)\n      dup2\n      mstore\n        /* \"contracts/core/VeloStake.sol\":6463:6505  0x416b433906b1B72FA758e166e239c43d68dC6F29 */\n      0x416b433906b1b72fa758e166e239c43d68dc6f29\n      swap3\n        /* \"contracts/core/VeloStake.sol\":6455:6519  IERC721(0x416b433906b1B72FA758e166e239c43d68dC6F29).transferFrom */\n      0x23b872dd\n      swap3\n        /* \"contracts/core/VeloStake.sol\":6455:6555  IERC721(0x416b433906b1B72FA758e166e239c43d68dC6F29).transferFrom(msg.sender, address(this), tokenId) */\n      tag_96\n      swap3\n        /* \"contracts/core/VeloStake.sol\":6520:6530  msg.sender */\n      caller\n      swap3\n        /* \"contracts/core/VeloStake.sol\":6540:6544  this */\n      address\n      swap3\n        /* \"contracts/core/VeloStake.sol\":6547:6554  tokenId */\n      swap2\n        /* \"contracts/core/VeloStake.sol\":6455:6555  IERC721(0x416b433906b1B72FA758e166e239c43d68dC6F29).transferFrom(msg.sender, address(this), tokenId) */\n      add\n      tag_97\n      jump\t// in\n    tag_96:\n      0x00\n      mload(0x40)\n      dup1\n      dup4\n      sub\n      dup2\n      0x00\n      dup8\n      dup1\n      extcodesize\n      iszero\n      dup1\n      iszero\n      tag_98\n      jumpi\n      0x00\n      dup1\n      revert\n    tag_98:\n      pop\n      gas\n      call\n      iszero\n      dup1\n      iszero\n      tag_100\n      jumpi\n      returndatasize\n      0x00\n      dup1\n      returndatacopy\n      revert(0x00, returndatasize)\n    tag_100:\n      pop\n      pop\n        /* \"contracts/core/VeloStake.sol\":6638:6645  tokenId */\n      0x04\n      dup1\n      sload\n        /* \"contracts/core/VeloStake.sol\":6566:6646  IERC721(0x416b433906b1B72FA758e166e239c43d68dC6F29).approve(msg.sender, tokenId) */\n      mload(0x40)\n      shl(0xe0, 0x095ea7b3)\n      dup2\n      mstore\n        /* \"contracts/core/VeloStake.sol\":6574:6616  0x416b433906b1B72FA758e166e239c43d68dC6F29 */\n      0x416b433906b1b72fa758e166e239c43d68dc6f29\n      swap5\n      pop\n        /* \"contracts/core/VeloStake.sol\":6566:6625  IERC721(0x416b433906b1B72FA758e166e239c43d68dC6F29).approve */\n      0x095ea7b3\n      swap4\n      pop\n        /* \"contracts/core/VeloStake.sol\":6566:6646  IERC721(0x416b433906b1B72FA758e166e239c43d68dC6F29).approve(msg.sender, tokenId) */\n      tag_101\n      swap3\n        /* \"contracts/core/VeloStake.sol\":6626:6636  msg.sender */\n      caller\n      swap3\n        /* \"contracts/core/VeloStake.sol\":6638:6645  tokenId */\n      swap2\n        /* \"contracts/core/VeloStake.sol\":6566:6646  IERC721(0x416b433906b1B72FA758e166e239c43d68dC6F29).approve(msg.sender, tokenId) */\n      add\n      tag_102\n      jump\t// in\n    tag_101:\n      0x00\n      mload(0x40)\n      dup1\n      dup4\n      sub\n      dup2\n      0x00\n      dup8\n      dup1\n      extcodesize\n      iszero\n      dup1\n      iszero\n      tag_103\n      jumpi\n      0x00\n      dup1\n      revert\n    tag_103:\n      pop\n      gas\n      call\n      iszero\n      dup1\n      iszero\n      tag_105\n      jumpi\n      returndatasize\n      0x00\n      dup1\n      returndatacopy\n      revert(0x00, returndatasize)\n    tag_105:\n      pop\n      pop\n        /* \"contracts/core/VeloStake.sol\":6761:6768  tokenId */\n      0x04\n      dup1\n      sload\n        /* \"contracts/core/VeloStake.sol\":6657:6769  IERC721(0x416b433906b1B72FA758e166e239c43d68dC6F29).approve(0xC8c7b5aE61d97Be7d02d606629059487066DC9CF, tokenId) */\n      mload(0x40)\n      shl(0xe0, 0x095ea7b3)\n      dup2\n      mstore\n        /* \"contracts/core/VeloStake.sol\":6665:6707  0x416b433906b1B72FA758e166e239c43d68dC6F29 */\n      0x416b433906b1b72fa758e166e239c43d68dc6f29\n      swap5\n      pop\n        /* \"contracts/core/VeloStake.sol\":6657:6716  IERC721(0x416b433906b1B72FA758e166e239c43d68dC6F29).approve */\n      0x095ea7b3\n      swap4\n      pop\n        /* \"contracts/core/VeloStake.sol\":6657:6769  IERC721(0x416b433906b1B72FA758e166e239c43d68dC6F29).approve(0xC8c7b5aE61d97Be7d02d606629059487066DC9CF, tokenId) */\n      tag_106\n      swap3\n        /* \"contracts/core/VeloStake.sol\":6717:6759  0xC8c7b5aE61d97Be7d02d606629059487066DC9CF */\n      0xc8c7b5ae61d97be7d02d606629059487066dc9cf\n      swap3\n        /* \"contracts/core/VeloStake.sol\":6761:6768  tokenId */\n      swap2\n        /* \"contracts/core/VeloStake.sol\":6657:6769  IERC721(0x416b433906b1B72FA758e166e239c43d68dC6F29).approve(0xC8c7b5aE61d97Be7d02d606629059487066DC9CF, tokenId) */\n      add\n      tag_102\n      jump\t// in\n    tag_106:\n      0x00\n      mload(0x40)\n      dup1\n      dup4\n      sub\n      dup2\n      0x00\n      dup8\n      dup1\n      extcodesize\n      iszero\n      dup1\n      iszero\n      tag_107\n      jumpi\n      0x00\n      dup1\n      revert\n    tag_107:\n      pop\n      gas\n      call\n      iszero\n      dup1\n      iszero\n      tag_109\n      jumpi\n      returndatasize\n      0x00\n      dup1\n      returndatacopy\n      revert(0x00, returndatasize)\n    tag_109:\n      pop\n      pop\n        /* \"contracts/core/VeloStake.sol\":6841:6848  tokenId */\n      0x04\n      dup1\n      sload\n        /* \"contracts/core/VeloStake.sol\":6780:6849  ICLGauge(0xC8c7b5aE61d97Be7d02d606629059487066DC9CF).deposit(tokenId) */\n      mload(0x40)\n      shl(0xe0, 0xb6b55f25)\n      dup2\n      mstore\n        /* \"contracts/core/VeloStake.sol\":6789:6831  0xC8c7b5aE61d97Be7d02d606629059487066DC9CF */\n      0xc8c7b5ae61d97be7d02d606629059487066dc9cf\n      swap5\n      pop\n        /* \"contracts/core/VeloStake.sol\":6780:6840  ICLGauge(0xC8c7b5aE61d97Be7d02d606629059487066DC9CF).deposit */\n      0xb6b55f25\n      swap4\n      pop\n        /* \"contracts/core/VeloStake.sol\":6780:6849  ICLGauge(0xC8c7b5aE61d97Be7d02d606629059487066DC9CF).deposit(tokenId) */\n      tag_110\n      swap3\n      add\n      tag_42\n      jump\t// in\n    tag_110:\n      0x00\n      mload(0x40)\n      dup1\n      dup4\n      sub\n      dup2\n      0x00\n      dup8\n      dup1\n      extcodesize\n      iszero\n      dup1\n      iszero\n      tag_111\n      jumpi\n      0x00\n      dup1\n      revert\n    tag_111:\n      pop\n      gas\n      call\n      iszero\n      dup1\n      iszero\n      tag_113\n      jumpi\n      returndatasize\n      0x00\n      dup1\n      returndatacopy\n      revert(0x00, returndatasize)\n    tag_113:\n      pop\n      pop\n      pop\n      pop\n        /* \"contracts/core/VeloStake.sol\":6412:6857  function stake() public payable {\r... */\n      jump\t// out\n        /* \"contracts/core/VeloStake.sol\":6867:6991  function withdraw() public payable {\r... */\n    tag_46:\n        /* \"contracts/core/VeloStake.sol\":6975:6982  tokenId */\n      0x04\n      dup1\n      sload\n        /* \"contracts/core/VeloStake.sol\":6913:6983  ICLGauge(0xC8c7b5aE61d97Be7d02d606629059487066DC9CF).withdraw(tokenId) */\n      mload(0x40)\n      shl(0xe0, 0x2e1a7d4d)\n      dup2\n      mstore\n        /* \"contracts/core/VeloStake.sol\":6922:6964  0xC8c7b5aE61d97Be7d02d606629059487066DC9CF */\n      0xc8c7b5ae61d97be7d02d606629059487066dc9cf\n      swap3\n        /* \"contracts/core/VeloStake.sol\":6913:6974  ICLGauge(0xC8c7b5aE61d97Be7d02d606629059487066DC9CF).withdraw */\n      0x2e1a7d4d\n      swap3\n        /* \"contracts/core/VeloStake.sol\":6913:6983  ICLGauge(0xC8c7b5aE61d97Be7d02d606629059487066DC9CF).withdraw(tokenId) */\n      tag_110\n      swap3\n        /* \"contracts/core/VeloStake.sol\":6975:6982  tokenId */\n      swap1\n      swap2\n        /* \"contracts/core/VeloStake.sol\":6913:6983  ICLGauge(0xC8c7b5aE61d97Be7d02d606629059487066DC9CF).withdraw(tokenId) */\n      add\n      tag_42\n      jump\t// in\n        /* \"contracts/core/VeloStake.sol\":6205:6359  function _newtokenID(uint256 newTokenId) external {\r... */\n    tag_51:\n        /* \"contracts/core/VeloStake.sol\":6288:6293  admin */\n      and(sub(shl(0xa0, 0x01), 0x01), sload(0x05))\n        /* \"contracts/core/VeloStake.sol\":6274:6284  msg.sender */\n      caller\n        /* \"contracts/core/VeloStake.sol\":6274:6293  msg.sender == admin */\n      eq\n        /* \"contracts/core/VeloStake.sol\":6266:6320  require(msg.sender == admin, \"Only owner can do this\") */\n      tag_120\n      jumpi\n      mload(0x40)\n      shl(0xe5, 0x461bcd)\n      dup2\n      mstore\n      0x04\n      add\n      tag_121\n      swap1\n      tag_122\n      jump\t// in\n    tag_121:\n      mload(0x40)\n      dup1\n      swap2\n      sub\n      swap1\n      revert\n    tag_120:\n        /* \"contracts/core/VeloStake.sol\":6331:6338  tokenId */\n      0x04\n        /* \"contracts/core/VeloStake.sol\":6331:6351  tokenId = newTokenId */\n      sstore\n        /* \"contracts/core/VeloStake.sol\":6205:6359  function _newtokenID(uint256 newTokenId) external {\r... */\n      jump\t// out\n        /* \"contracts/core/VeloStake.sol\":7164:7348  function _transferToAdmin(address Token) external {\r... */\n    tag_56:\n        /* \"contracts/core/VeloStake.sol\":7241:7286  IERC20Minimal(Token).balanceOf(address(this)) */\n      mload(0x40)\n      shl(0xe0, 0x70a08231)\n      dup2\n      mstore\n        /* \"contracts/core/VeloStake.sol\":7225:7238  uint256 value */\n      0x00\n      swap1\n      sub(shl(0xa0, 0x01), 0x01)\n        /* \"contracts/core/VeloStake.sol\":7241:7271  IERC20Minimal(Token).balanceOf */\n      dup4\n      and\n      swap1\n      0x70a08231\n      swap1\n        /* \"contracts/core/VeloStake.sol\":7241:7286  IERC20Minimal(Token).balanceOf(address(this)) */\n      tag_124\n      swap1\n        /* \"contracts/core/VeloStake.sol\":7280:7284  this */\n      address\n      swap1\n        /* \"contracts/core/VeloStake.sol\":7241:7286  IERC20Minimal(Token).balanceOf(address(this)) */\n      0x04\n      add\n      tag_26\n      jump\t// in\n    tag_124:\n      0x20\n      mload(0x40)\n      dup1\n      dup4\n      sub\n      dup2\n      dup7\n      dup1\n      extcodesize\n      iszero\n      dup1\n      iszero\n      tag_125\n      jumpi\n      0x00\n      dup1\n      revert\n    tag_125:\n      pop\n      gas\n      staticcall\n      iszero\n      dup1\n      iszero\n      tag_127\n      jumpi\n      returndatasize\n      0x00\n      dup1\n      returndatacopy\n      revert(0x00, returndatasize)\n    tag_127:\n      pop\n      pop\n      pop\n      pop\n      mload(0x40)\n      returndatasize\n      not(0x1f)\n      0x1f\n      dup3\n      add\n      and\n      dup3\n      add\n      dup1\n      0x40\n      mstore\n      pop\n      dup2\n      add\n      swap1\n      tag_128\n      swap2\n      swap1\n      tag_129\n      jump\t// in\n    tag_128:\n        /* \"contracts/core/VeloStake.sol\":7327:7332  admin */\n      sload(0x05)\n        /* \"contracts/core/VeloStake.sol\":7297:7340  IERC20Minimal(Token).transfer(admin, value) */\n      mload(0x40)\n      shl(0xe0, 0xa9059cbb)\n      dup2\n      mstore\n        /* \"contracts/core/VeloStake.sol\":7225:7286  uint256 value = IERC20Minimal(Token).balanceOf(address(this)) */\n      swap2\n      swap3\n      pop\n      sub(shl(0xa0, 0x01), 0x01)\n        /* \"contracts/core/VeloStake.sol\":7297:7326  IERC20Minimal(Token).transfer */\n      dup1\n      dup6\n      and\n      swap3\n      0xa9059cbb\n      swap3\n        /* \"contracts/core/VeloStake.sol\":7297:7340  IERC20Minimal(Token).transfer(admin, value) */\n      tag_130\n      swap3\n        /* \"contracts/core/VeloStake.sol\":7327:7332  admin */\n      and\n      swap1\n        /* \"contracts/core/VeloStake.sol\":7225:7286  uint256 value = IERC20Minimal(Token).balanceOf(address(this)) */\n      dup6\n      swap1\n        /* \"contracts/core/VeloStake.sol\":7297:7340  IERC20Minimal(Token).transfer(admin, value) */\n      0x04\n      add\n      tag_102\n      jump\t// in\n    tag_130:\n      0x20\n      mload(0x40)\n      dup1\n      dup4\n      sub\n      dup2\n      0x00\n      dup8\n      dup1\n      extcodesize\n      iszero\n      dup1\n      iszero\n      tag_132\n      jumpi\n      0x00\n      dup1\n      revert\n    tag_132:\n      pop\n      gas\n      call\n      iszero\n      dup1\n      iszero\n      tag_134\n      jumpi\n      returndatasize\n      0x00\n      dup1\n      returndatacopy\n      revert(0x00, returndatasize)\n    tag_134:\n      pop\n      pop\n      pop\n      pop\n      mload(0x40)\n      returndatasize\n      not(0x1f)\n      0x1f\n      dup3\n      add\n      and\n      dup3\n      add\n      dup1\n      0x40\n      mstore\n      pop\n      dup2\n      add\n      swap1\n      tag_135\n      swap2\n      swap1\n      tag_136\n      jump\t// in\n    tag_135:\n      pop\n        /* \"contracts/core/VeloStake.sol\":7164:7348  function _transferToAdmin(address Token) external {\r... */\n      pop\n      pop\n      jump\t// out\n        /* \"contracts/core/VeloStake.sol\":5685:5751  address public oracle = 0x9465eD15b70E8A534663530C4fCc92E22B8F6032 */\n    tag_59:\n      and(sub(shl(0xa0, 0x01), 0x01), sload(0x06))\n      dup2\n      jump\t// out\n        /* \"contracts/core/VeloStake.sol\":5936:5979  mapping(uint256 => Deposit) public deposits */\n    tag_64:\n      mstore(0x20, 0x07)\n      0x00\n      swap1\n      dup2\n      mstore\n      0x40\n      swap1\n      keccak256\n      dup1\n      sload\n      0x01\n      dup3\n      add\n      sload\n      0x02\n      dup4\n      add\n      sload\n      0x03\n      swap1\n      swap4\n      add\n      sload\n      sub(shl(0xa0, 0x01), 0x01)\n      swap3\n      dup4\n      and\n      swap4\n      sub(shl(0x80, 0x01), 0x01)\n      swap1\n      swap3\n      and\n      swap3\n      swap2\n      dup3\n      and\n      swap2\n      and\n      dup5\n      jump\t// out\n        /* \"contracts/core/VeloStake.sol\":5619:5643  int24 public tickSpacing */\n    tag_69:\n      sload(0x05)\n      shl(0xa0, 0x01)\n      swap1\n      div\n      0x02\n      signextend\n      dup2\n      jump\t// out\n        /* \"contracts/core/VeloStake.sol\":5484:5505  address public token1 */\n    tag_74:\n      and(sub(shl(0xa0, 0x01), 0x01), sload(0x02))\n      dup2\n      jump\t// out\n        /* \"contracts/core/VeloStake.sol\":5534:5556  address public farmNFT */\n    tag_78:\n      and(sub(shl(0xa0, 0x01), 0x01), sload(0x03))\n      dup2\n      jump\t// out\n        /* \"contracts/core/VeloStake.sol\":6999:7156  function sendNFTBack() public payable {\r... */\n    tag_81:\n        /* \"contracts/core/VeloStake.sol\":7140:7147  tokenId */\n      0x04\n      dup1\n      sload\n        /* \"contracts/core/VeloStake.sol\":7048:7148  IERC721(0x416b433906b1B72FA758e166e239c43d68dC6F29).transferFrom(address(this), msg.sender, tokenId) */\n      mload(0x40)\n      shl(0xe0, 0x23b872dd)\n      dup2\n      mstore\n        /* \"contracts/core/VeloStake.sol\":7056:7098  0x416b433906b1B72FA758e166e239c43d68dC6F29 */\n      0x416b433906b1b72fa758e166e239c43d68dc6f29\n      swap3\n        /* \"contracts/core/VeloStake.sol\":7048:7112  IERC721(0x416b433906b1B72FA758e166e239c43d68dC6F29).transferFrom */\n      0x23b872dd\n      swap3\n        /* \"contracts/core/VeloStake.sol\":7048:7148  IERC721(0x416b433906b1B72FA758e166e239c43d68dC6F29).transferFrom(address(this), msg.sender, tokenId) */\n      tag_110\n      swap3\n        /* \"contracts/core/VeloStake.sol\":7121:7125  this */\n      address\n      swap3\n        /* \"contracts/core/VeloStake.sol\":7128:7138  msg.sender */\n      caller\n      swap3\n        /* \"contracts/core/VeloStake.sol\":7140:7147  tokenId */\n      swap2\n        /* \"contracts/core/VeloStake.sol\":7048:7148  IERC721(0x416b433906b1B72FA758e166e239c43d68dC6F29).transferFrom(address(this), msg.sender, tokenId) */\n      add\n      tag_97\n      jump\t// in\n        /* \"contracts/core/VeloStake.sol\":6051:6197  function _newAdmin(address newAdmin) external {\r... */\n    tag_85:\n        /* \"contracts/core/VeloStake.sol\":6130:6135  admin */\n      and(sub(shl(0xa0, 0x01), 0x01), sload(0x05))\n        /* \"contracts/core/VeloStake.sol\":6116:6126  msg.sender */\n      caller\n        /* \"contracts/core/VeloStake.sol\":6116:6135  msg.sender == admin */\n      eq\n        /* \"contracts/core/VeloStake.sol\":6108:6162  require(msg.sender == admin, \"Only owner can do this\") */\n      tag_144\n      jumpi\n      mload(0x40)\n      shl(0xe5, 0x461bcd)\n      dup2\n      mstore\n      0x04\n      add\n      tag_121\n      swap1\n      tag_122\n      jump\t// in\n    tag_144:\n        /* \"contracts/core/VeloStake.sol\":6173:6178  admin */\n      0x05\n        /* \"contracts/core/VeloStake.sol\":6173:6189  admin = newAdmin */\n      dup1\n      sload\n      not(sub(shl(0xa0, 0x01), 0x01))\n      and\n      sub(shl(0xa0, 0x01), 0x01)\n      swap3\n      swap1\n      swap3\n      and\n      swap2\n      swap1\n      swap2\n      or\n      swap1\n      sstore\n        /* \"contracts/core/VeloStake.sol\":6051:6197  function _newAdmin(address newAdmin) external {\r... */\n      jump\t// out\n        /* \"contracts/core/VeloStake.sol\":5592:5612  address public admin */\n    tag_88:\n      and(sub(shl(0xa0, 0x01), 0x01), sload(0x05))\n      dup2\n      jump\t// out\n        /* \"contracts/core/VeloStake.sol\":5650:5678  int24 public spaceMultiplier */\n    tag_92:\n      sload(0x05)\n      shl(0xb8, 0x01)\n      swap1\n      div\n      0x02\n      signextend\n      dup2\n      jump\t// out\n        /* \"#utility.yul\":14:189   */\n    tag_147:\n        /* \"#utility.yul\":84:104   */\n      dup1\n      calldataload\n      sub(shl(0xa0, 0x01), 0x01)\n        /* \"#utility.yul\":133:164   */\n      dup2\n      and\n        /* \"#utility.yul\":123:165   */\n      dup2\n      eq\n        /* \"#utility.yul\":113:115   */\n      tag_149\n      jumpi\n        /* \"#utility.yul\":179:180   */\n      0x00\n        /* \"#utility.yul\":176:177   */\n      dup1\n        /* \"#utility.yul\":169:181   */\n      revert\n        /* \"#utility.yul\":113:115   */\n    tag_149:\n        /* \"#utility.yul\":65:189   */\n      swap2\n      swap1\n      pop\n      jump\t// out\n        /* \"#utility.yul\":194:392   */\n    tag_55:\n      0x00\n        /* \"#utility.yul\":306:308   */\n      0x20\n        /* \"#utility.yul\":294:303   */\n      dup3\n        /* \"#utility.yul\":285:292   */\n      dup5\n        /* \"#utility.yul\":281:304   */\n      sub\n        /* \"#utility.yul\":277:309   */\n      slt\n        /* \"#utility.yul\":274:276   */\n      iszero\n      tag_151\n      jumpi\n        /* \"#utility.yul\":327:333   */\n      dup1\n        /* \"#utility.yul\":319:325   */\n      dup2\n        /* \"#utility.yul\":312:334   */\n      revert\n        /* \"#utility.yul\":274:276   */\n    tag_151:\n        /* \"#utility.yul\":355:386   */\n      tag_152\n        /* \"#utility.yul\":376:385   */\n      dup3\n        /* \"#utility.yul\":355:386   */\n      tag_147\n      jump\t// in\n    tag_152:\n        /* \"#utility.yul\":345:386   */\n      swap4\n        /* \"#utility.yul\":264:392   */\n      swap3\n      pop\n      pop\n      pop\n      jump\t// out\n        /* \"#utility.yul\":397:1557   */\n    tag_30:\n      0x00\n      dup1\n      0x00\n      dup1\n        /* \"#utility.yul\":569:572   */\n      0x80\n        /* \"#utility.yul\":557:566   */\n      dup6\n        /* \"#utility.yul\":548:555   */\n      dup8\n        /* \"#utility.yul\":544:567   */\n      sub\n        /* \"#utility.yul\":540:573   */\n      slt\n        /* \"#utility.yul\":537:539   */\n      iszero\n      tag_154\n      jumpi\n        /* \"#utility.yul\":591:597   */\n      dup3\n        /* \"#utility.yul\":583:589   */\n      dup4\n        /* \"#utility.yul\":576:598   */\n      revert\n        /* \"#utility.yul\":537:539   */\n    tag_154:\n        /* \"#utility.yul\":619:650   */\n      tag_155\n        /* \"#utility.yul\":640:649   */\n      dup6\n        /* \"#utility.yul\":619:650   */\n      tag_147\n      jump\t// in\n    tag_155:\n        /* \"#utility.yul\":609:650   */\n      swap4\n      pop\n        /* \"#utility.yul\":669:671   */\n      0x20\n        /* \"#utility.yul\":690:730   */\n      tag_156\n        /* \"#utility.yul\":726:728   */\n      dup2\n        /* \"#utility.yul\":715:724   */\n      dup8\n        /* \"#utility.yul\":711:729   */\n      add\n        /* \"#utility.yul\":690:730   */\n      tag_147\n      jump\t// in\n    tag_156:\n        /* \"#utility.yul\":680:730   */\n      swap4\n      pop\n        /* \"#utility.yul\":777:779   */\n      0x40\n        /* \"#utility.yul\":766:775   */\n      dup7\n        /* \"#utility.yul\":762:780   */\n      add\n        /* \"#utility.yul\":749:781   */\n      calldataload\n        /* \"#utility.yul\":739:781   */\n      swap3\n      pop\n        /* \"#utility.yul\":832:834   */\n      0x60\n        /* \"#utility.yul\":821:830   */\n      dup7\n        /* \"#utility.yul\":817:835   */\n      add\n        /* \"#utility.yul\":804:836   */\n      calldataload\n        /* \"#utility.yul\":855:873   */\n      0xffffffffffffffff\n        /* \"#utility.yul\":896:898   */\n      dup1\n        /* \"#utility.yul\":888:894   */\n      dup3\n        /* \"#utility.yul\":885:899   */\n      gt\n        /* \"#utility.yul\":882:884   */\n      iszero\n      tag_157\n      jumpi\n        /* \"#utility.yul\":917:923   */\n      dup4\n        /* \"#utility.yul\":909:915   */\n      dup5\n        /* \"#utility.yul\":902:924   */\n      revert\n        /* \"#utility.yul\":882:884   */\n    tag_157:\n        /* \"#utility.yul\":960:966   */\n      dup2\n        /* \"#utility.yul\":949:958   */\n      dup9\n        /* \"#utility.yul\":945:967   */\n      add\n        /* \"#utility.yul\":935:967   */\n      swap2\n      pop\n        /* \"#utility.yul\":1005:1012   */\n      dup9\n        /* \"#utility.yul\":998:1002   */\n      0x1f\n        /* \"#utility.yul\":994:996   */\n      dup4\n        /* \"#utility.yul\":990:1003   */\n      add\n        /* \"#utility.yul\":986:1013   */\n      slt\n        /* \"#utility.yul\":976:978   */\n      tag_158\n      jumpi\n        /* \"#utility.yul\":1032:1038   */\n      dup4\n        /* \"#utility.yul\":1024:1030   */\n      dup5\n        /* \"#utility.yul\":1017:1039   */\n      revert\n        /* \"#utility.yul\":976:978   */\n    tag_158:\n        /* \"#utility.yul\":1073:1075   */\n      dup2\n        /* \"#utility.yul\":1060:1076   */\n      calldataload\n        /* \"#utility.yul\":1095:1097   */\n      dup2\n        /* \"#utility.yul\":1091:1093   */\n      dup2\n        /* \"#utility.yul\":1088:1098   */\n      gt\n        /* \"#utility.yul\":1085:1087   */\n      iszero\n      tag_159\n      jumpi\n        /* \"#utility.yul\":1101:1110   */\n      invalid\n        /* \"#utility.yul\":1085:1087   */\n    tag_159:\n        /* \"#utility.yul\":1141:1143   */\n      0x40\n        /* \"#utility.yul\":1135:1144   */\n      mload\n        /* \"#utility.yul\":1210:1212   */\n      0x1f\n        /* \"#utility.yul\":1191:1204   */\n      dup3\n      add\n      not(0x1f)\n        /* \"#utility.yul\":1187:1214   */\n      and\n        /* \"#utility.yul\":1175:1215   */\n      dup2\n      add\n        /* \"#utility.yul\":1171:1220   */\n      dup6\n      add\n        /* \"#utility.yul\":1235:1253   */\n      dup4\n      dup2\n      gt\n        /* \"#utility.yul\":1255:1277   */\n      dup3\n      dup3\n      lt\n        /* \"#utility.yul\":1232:1278   */\n      or\n        /* \"#utility.yul\":1229:1231   */\n      iszero\n      tag_160\n      jumpi\n        /* \"#utility.yul\":1281:1290   */\n      invalid\n        /* \"#utility.yul\":1229:1231   */\n    tag_160:\n        /* \"#utility.yul\":1308:1310   */\n      0x40\n        /* \"#utility.yul\":1301:1323   */\n      mstore\n        /* \"#utility.yul\":1332:1350   */\n      dup2\n      dup2\n      mstore\n        /* \"#utility.yul\":1369:1380   */\n      dup4\n      dup3\n      add\n        /* \"#utility.yul\":1365:1385   */\n      dup6\n      add\n        /* \"#utility.yul\":1362:1395   */\n      dup12\n      lt\n        /* \"#utility.yul\":1359:1361   */\n      iszero\n      tag_161\n      jumpi\n        /* \"#utility.yul\":1413:1419   */\n      dup6\n        /* \"#utility.yul\":1405:1411   */\n      dup7\n        /* \"#utility.yul\":1398:1420   */\n      revert\n        /* \"#utility.yul\":1359:1361   */\n    tag_161:\n        /* \"#utility.yul\":1474:1476   */\n      dup2\n        /* \"#utility.yul\":1469:1471   */\n      dup6\n        /* \"#utility.yul\":1465:1467   */\n      dup6\n        /* \"#utility.yul\":1461:1472   */\n      add\n        /* \"#utility.yul\":1456:1458   */\n      dup7\n        /* \"#utility.yul\":1448:1454   */\n      dup4\n        /* \"#utility.yul\":1444:1459   */\n      add\n        /* \"#utility.yul\":1431:1477   */\n      calldatacopy\n        /* \"#utility.yul\":1497:1512   */\n      swap1\n      dup2\n      add\n        /* \"#utility.yul\":1493:1517   */\n      swap1\n      swap4\n      add\n        /* \"#utility.yul\":1486:1526   */\n      swap4\n      swap1\n      swap4\n      mstore\n      pop\n        /* \"#utility.yul\":527:1557   */\n      swap4\n      swap7\n      swap3\n      swap6\n      pop\n      swap1\n      swap4\n      pop\n      pop\n      jump\t// out\n        /* \"#utility.yul\":1562:1859   */\n    tag_136:\n      0x00\n        /* \"#utility.yul\":1682:1684   */\n      0x20\n        /* \"#utility.yul\":1670:1679   */\n      dup3\n        /* \"#utility.yul\":1661:1668   */\n      dup5\n        /* \"#utility.yul\":1657:1680   */\n      sub\n        /* \"#utility.yul\":1653:1685   */\n      slt\n        /* \"#utility.yul\":1650:1652   */\n      iszero\n      tag_163\n      jumpi\n        /* \"#utility.yul\":1703:1709   */\n      dup1\n        /* \"#utility.yul\":1695:1701   */\n      dup2\n        /* \"#utility.yul\":1688:1710   */\n      revert\n        /* \"#utility.yul\":1650:1652   */\n    tag_163:\n        /* \"#utility.yul\":1740:1749   */\n      dup2\n        /* \"#utility.yul\":1734:1750   */\n      mload\n        /* \"#utility.yul\":1793:1798   */\n      dup1\n        /* \"#utility.yul\":1786:1799   */\n      iszero\n        /* \"#utility.yul\":1779:1800   */\n      iszero\n        /* \"#utility.yul\":1772:1777   */\n      dup2\n        /* \"#utility.yul\":1769:1801   */\n      eq\n        /* \"#utility.yul\":1759:1761   */\n      tag_152\n      jumpi\n        /* \"#utility.yul\":1820:1826   */\n      dup2\n        /* \"#utility.yul\":1812:1818   */\n      dup3\n        /* \"#utility.yul\":1805:1827   */\n      revert\n        /* \"#utility.yul\":1864:2054   */\n    tag_50:\n      0x00\n        /* \"#utility.yul\":1976:1978   */\n      0x20\n        /* \"#utility.yul\":1964:1973   */\n      dup3\n        /* \"#utility.yul\":1955:1962   */\n      dup5\n        /* \"#utility.yul\":1951:1974   */\n      sub\n        /* \"#utility.yul\":1947:1979   */\n      slt\n        /* \"#utility.yul\":1944:1946   */\n      iszero\n      tag_166\n      jumpi\n        /* \"#utility.yul\":1997:2003   */\n      dup1\n        /* \"#utility.yul\":1989:1995   */\n      dup2\n        /* \"#utility.yul\":1982:2004   */\n      revert\n        /* \"#utility.yul\":1944:1946   */\n    tag_166:\n      pop\n        /* \"#utility.yul\":2025:2048   */\n      calldataload\n      swap2\n        /* \"#utility.yul\":1934:2054   */\n      swap1\n      pop\n      jump\t// out\n        /* \"#utility.yul\":2059:2253   */\n    tag_129:\n      0x00\n        /* \"#utility.yul\":2182:2184   */\n      0x20\n        /* \"#utility.yul\":2170:2179   */\n      dup3\n        /* \"#utility.yul\":2161:2168   */\n      dup5\n        /* \"#utility.yul\":2157:2180   */\n      sub\n        /* \"#utility.yul\":2153:2185   */\n      slt\n        /* \"#utility.yul\":2150:2152   */\n      iszero\n      tag_168\n      jumpi\n        /* \"#utility.yul\":2203:2209   */\n      dup1\n        /* \"#utility.yul\":2195:2201   */\n      dup2\n        /* \"#utility.yul\":2188:2210   */\n      revert\n        /* \"#utility.yul\":2150:2152   */\n    tag_168:\n      pop\n        /* \"#utility.yul\":2231:2247   */\n      mload\n      swap2\n        /* \"#utility.yul\":2140:2253   */\n      swap1\n      pop\n      jump\t// out\n        /* \"#utility.yul\":2258:2461   */\n    tag_26:\n      sub(shl(0xa0, 0x01), 0x01)\n        /* \"#utility.yul\":2422:2454   */\n      swap2\n      swap1\n      swap2\n      and\n        /* \"#utility.yul\":2404:2455   */\n      dup2\n      mstore\n        /* \"#utility.yul\":2392:2394   */\n      0x20\n        /* \"#utility.yul\":2377:2395   */\n      add\n      swap1\n        /* \"#utility.yul\":2359:2461   */\n      jump\t// out\n        /* \"#utility.yul\":2466:2849   */\n    tag_97:\n      sub(shl(0xa0, 0x01), 0x01)\n        /* \"#utility.yul\":2732:2747   */\n      swap4\n      dup5\n      and\n        /* \"#utility.yul\":2714:2748   */\n      dup2\n      mstore\n        /* \"#utility.yul\":2784:2799   */\n      swap2\n      swap1\n      swap3\n      and\n        /* \"#utility.yul\":2779:2781   */\n      0x20\n        /* \"#utility.yul\":2764:2782   */\n      dup3\n      add\n        /* \"#utility.yul\":2757:2800   */\n      mstore\n        /* \"#utility.yul\":2831:2833   */\n      0x40\n        /* \"#utility.yul\":2816:2834   */\n      dup2\n      add\n        /* \"#utility.yul\":2809:2843   */\n      swap2\n      swap1\n      swap2\n      mstore\n        /* \"#utility.yul\":2664:2666   */\n      0x60\n        /* \"#utility.yul\":2649:2667   */\n      add\n      swap1\n        /* \"#utility.yul\":2631:2849   */\n      jump\t// out\n        /* \"#utility.yul\":2854:3136   */\n    tag_102:\n      sub(shl(0xa0, 0x01), 0x01)\n        /* \"#utility.yul\":3054:3086   */\n      swap3\n      swap1\n      swap3\n      and\n        /* \"#utility.yul\":3036:3087   */\n      dup3\n      mstore\n        /* \"#utility.yul\":3118:3120   */\n      0x20\n        /* \"#utility.yul\":3103:3121   */\n      dup3\n      add\n        /* \"#utility.yul\":3096:3130   */\n      mstore\n        /* \"#utility.yul\":3024:3026   */\n      0x40\n        /* \"#utility.yul\":3009:3027   */\n      add\n      swap1\n        /* \"#utility.yul\":2991:3136   */\n      jump\t// out\n        /* \"#utility.yul\":3529:4026   */\n    tag_66:\n      sub(shl(0xa0, 0x01), 0x01)\n        /* \"#utility.yul\":3816:3831   */\n      swap5\n      dup6\n      and\n        /* \"#utility.yul\":3798:3832   */\n      dup2\n      mstore\n      sub(shl(0x80, 0x01), 0x01)\n        /* \"#utility.yul\":3868:3915   */\n      swap4\n      swap1\n      swap4\n      and\n        /* \"#utility.yul\":3863:3865   */\n      0x20\n        /* \"#utility.yul\":3848:3866   */\n      dup5\n      add\n        /* \"#utility.yul\":3841:3916   */\n      mstore\n        /* \"#utility.yul\":3952:3967   */\n      swap1\n      dup4\n      and\n        /* \"#utility.yul\":3947:3949   */\n      0x40\n        /* \"#utility.yul\":3932:3950   */\n      dup4\n      add\n        /* \"#utility.yul\":3925:3968   */\n      mstore\n        /* \"#utility.yul\":4004:4019   */\n      swap1\n      swap2\n      and\n        /* \"#utility.yul\":3999:4001   */\n      0x60\n        /* \"#utility.yul\":3984:4002   */\n      dup3\n      add\n        /* \"#utility.yul\":3977:4020   */\n      mstore\n        /* \"#utility.yul\":3747:3750   */\n      0x80\n        /* \"#utility.yul\":3732:3751   */\n      add\n      swap1\n        /* \"#utility.yul\":3714:4026   */\n      jump\t// out\n        /* \"#utility.yul\":4310:4512   */\n    tag_33:\n      not(sub(shl(0xe0, 0x01), 0x01))\n        /* \"#utility.yul\":4472:4505   */\n      swap2\n      swap1\n      swap2\n      and\n        /* \"#utility.yul\":4454:4506   */\n      dup2\n      mstore\n        /* \"#utility.yul\":4442:4444   */\n      0x20\n        /* \"#utility.yul\":4427:4445   */\n      add\n      swap1\n        /* \"#utility.yul\":4409:4512   */\n      jump\t// out\n        /* \"#utility.yul\":4517:4705   */\n    tag_71:\n        /* \"#utility.yul\":4688:4689   */\n      0x02\n        /* \"#utility.yul\":4677:4698   */\n      swap2\n      swap1\n      swap2\n      signextend\n        /* \"#utility.yul\":4659:4699   */\n      dup2\n      mstore\n        /* \"#utility.yul\":4647:4649   */\n      0x20\n        /* \"#utility.yul\":4632:4650   */\n      add\n      swap1\n        /* \"#utility.yul\":4614:4705   */\n      jump\t// out\n        /* \"#utility.yul\":4710:5056   */\n    tag_122:\n        /* \"#utility.yul\":4912:4914   */\n      0x20\n        /* \"#utility.yul\":4894:4915   */\n      dup1\n      dup3\n      mstore\n        /* \"#utility.yul\":4951:4953   */\n      0x16\n        /* \"#utility.yul\":4931:4949   */\n      swap1\n      dup3\n      add\n        /* \"#utility.yul\":4924:4954   */\n      mstore\n      shl(0x50, 0x4f6e6c79206f776e65722063616e20646f2074686973)\n        /* \"#utility.yul\":4985:4987   */\n      0x40\n        /* \"#utility.yul\":4970:4988   */\n      dup3\n      add\n        /* \"#utility.yul\":4963:5015   */\n      mstore\n        /* \"#utility.yul\":5047:5049   */\n      0x60\n        /* \"#utility.yul\":5032:5050   */\n      add\n      swap1\n        /* \"#utility.yul\":4884:5056   */\n      jump\t// out\n        /* \"#utility.yul\":5061:5238   */\n    tag_42:\n        /* \"#utility.yul\":5207:5232   */\n      swap1\n      dup2\n      mstore\n        /* \"#utility.yul\":5195:5197   */\n      0x20\n        /* \"#utility.yul\":5180:5198   */\n      add\n      swap1\n        /* \"#utility.yul\":5162:5238   */\n      jump\t// out\n\n    auxdata: 0xa26469706673582212202b36e0980b3acfcc7d6db9fc2ad6f6c9a9bec3541842c69123eb8361cc63d02364736f6c63430007060033\n}\n",
				"bytecode": {
					"linkReferences": {},
					"object": "6080604052600680546001600160a01b031916739465ed15b70e8a534663530c4fcc92e22b8f603217905534801561003657600080fd5b50600580546001600160a01b031916331790556109c4806100586000396000f3fe6080604052600436106100fe5760003560e01c80637dc0d1d011610095578063da802f8011610064578063da802f8014610260578063e58d539e14610275578063e6f4d0aa1461027d578063f851a4401461029d578063fd1c1518146102b2576100fe565b80637dc0d1d0146101e4578063b02c43d0146101f9578063d0c93a7c14610229578063d21220a71461024b576100fe565b80633a4b66f1116100d15780633a4b66f1146101925780633ccfd60b1461019c5780636020159d146101a45780637210468a146101c4576100fe565b80630dfe168114610103578063150b7a021461012e57806316f0115b1461015b57806317d70f7c14610170575b600080fd5b34801561010f57600080fd5b506101186102c7565b60405161012591906108ad565b60405180910390f35b34801561013a57600080fd5b5061014e61014936600461079d565b6102d6565b6040516101259190610932565b34801561016757600080fd5b506101186102e6565b34801561017c57600080fd5b506101856102f5565b6040516101259190610985565b61019a6102fb565b005b61019a6104c0565b3480156101b057600080fd5b5061019a6101bf36600461087d565b6104f9565b3480156101d057600080fd5b5061019a6101df36600461077c565b610531565b3480156101f057600080fd5b5061011861063c565b34801561020557600080fd5b5061021961021436600461087d565b61064b565b60405161012594939291906108fe565b34801561023557600080fd5b5061023e61068b565b6040516101259190610947565b34801561025757600080fd5b5061011861069b565b34801561026c57600080fd5b506101186106aa565b61019a6106b9565b34801561028957600080fd5b5061019a61029836600461077c565b6106f5565b3480156102a957600080fd5b50610118610741565b3480156102be57600080fd5b5061023e610750565b6001546001600160a01b031681565b630a85bd0160e11b949350505050565b6000546001600160a01b031681565b60045481565b600480546040516323b872dd60e01b815273416b433906b1b72fa758e166e239c43d68dc6f29926323b872dd92610337923392309291016108c1565b600060405180830381600087803b15801561035157600080fd5b505af1158015610365573d6000803e3d6000fd5b50506004805460405163095ea7b360e01b815273416b433906b1b72fa758e166e239c43d68dc6f29945063095ea7b393506103a392339291016108e5565b600060405180830381600087803b1580156103bd57600080fd5b505af11580156103d1573d6000803e3d6000fd5b50506004805460405163095ea7b360e01b815273416b433906b1b72fa758e166e239c43d68dc6f29945063095ea7b393506104239273c8c7b5ae61d97be7d02d606629059487066dc9cf9291016108e5565b600060405180830381600087803b15801561043d57600080fd5b505af1158015610451573d6000803e3d6000fd5b50506004805460405163b6b55f2560e01b815273c8c7b5ae61d97be7d02d606629059487066dc9cf945063b6b55f25935061048c9201610985565b600060405180830381600087803b1580156104a657600080fd5b505af11580156104ba573d6000803e3d6000fd5b50505050565b60048054604051632e1a7d4d60e01b815273c8c7b5ae61d97be7d02d606629059487066dc9cf92632e1a7d4d9261048c92909101610985565b6005546001600160a01b0316331461052c5760405162461bcd60e51b815260040161052390610955565b60405180910390fd5b600455565b6040516370a0823160e01b81526000906001600160a01b038316906370a08231906105609030906004016108ad565b60206040518083038186803b15801561057857600080fd5b505afa15801561058c573d6000803e3d6000fd5b505050506040513d601f19601f820116820180604052508101906105b09190610895565b60055460405163a9059cbb60e01b81529192506001600160a01b038085169263a9059cbb926105e592169085906004016108e5565b602060405180830381600087803b1580156105ff57600080fd5b505af1158015610613573d6000803e3d6000fd5b505050506040513d601f19601f82011682018060405250810190610637919061085d565b505050565b6006546001600160a01b031681565b60076020526000908152604090208054600182015460028301546003909301546001600160a01b03928316936001600160801b0390921692918216911684565b600554600160a01b900460020b81565b6002546001600160a01b031681565b6003546001600160a01b031681565b600480546040516323b872dd60e01b815273416b433906b1b72fa758e166e239c43d68dc6f29926323b872dd9261048c923092339291016108c1565b6005546001600160a01b0316331461071f5760405162461bcd60e51b815260040161052390610955565b600580546001600160a01b0319166001600160a01b0392909216919091179055565b6005546001600160a01b031681565b600554600160b81b900460020b81565b80356001600160a01b038116811461077757600080fd5b919050565b60006020828403121561078d578081fd5b61079682610760565b9392505050565b600080600080608085870312156107b2578283fd5b6107bb85610760565b935060206107ca818701610760565b935060408601359250606086013567ffffffffffffffff808211156107ed578384fd5b818801915088601f830112610800578384fd5b81358181111561080c57fe5b604051601f8201601f191681018501838111828210171561082957fe5b60405281815283820185018b101561083f578586fd5b81858501868301379081019093019390935250939692955090935050565b60006020828403121561086e578081fd5b81518015158114610796578182fd5b60006020828403121561088e578081fd5b5035919050565b6000602082840312156108a6578081fd5b5051919050565b6001600160a01b0391909116815260200190565b6001600160a01b039384168152919092166020820152604081019190915260600190565b6001600160a01b03929092168252602082015260400190565b6001600160a01b0394851681526001600160801b039390931660208401529083166040830152909116606082015260800190565b6001600160e01b031991909116815260200190565b60029190910b815260200190565b6020808252601690820152754f6e6c79206f776e65722063616e20646f207468697360501b604082015260600190565b9081526020019056fea26469706673582212202b36e0980b3acfcc7d6db9fc2ad6f6c9a9bec3541842c69123eb8361cc63d02364736f6c63430007060033",
					"opcodes": "PUSH1 0x80 PUSH1 0x40 MSTORE PUSH1 0x6 DUP1 SLOAD PUSH1 0x1 PUSH1 0x1 PUSH1 0xA0 SHL SUB NOT AND PUSH20 0x9465ED15B70E8A534663530C4FCC92E22B8F6032 OR SWAP1 SSTORE CALLVALUE DUP1 ISZERO PUSH2 0x36 JUMPI PUSH1 0x0 DUP1 REVERT JUMPDEST POP PUSH1 0x5 DUP1 SLOAD PUSH1 0x1 PUSH1 0x1 PUSH1 0xA0 SHL SUB NOT AND CALLER OR SWAP1 SSTORE PUSH2 0x9C4 DUP1 PUSH2 0x58 PUSH1 0x0 CODECOPY PUSH1 0x0 RETURN INVALID PUSH1 0x80 PUSH1 0x40 MSTORE PUSH1 0x4 CALLDATASIZE LT PUSH2 0xFE JUMPI PUSH1 0x0 CALLDATALOAD PUSH1 0xE0 SHR DUP1 PUSH4 0x7DC0D1D0 GT PUSH2 0x95 JUMPI DUP1 PUSH4 0xDA802F80 GT PUSH2 0x64 JUMPI DUP1 PUSH4 0xDA802F80 EQ PUSH2 0x260 JUMPI DUP1 PUSH4 0xE58D539E EQ PUSH2 0x275 JUMPI DUP1 PUSH4 0xE6F4D0AA EQ PUSH2 0x27D JUMPI DUP1 PUSH4 0xF851A440 EQ PUSH2 0x29D JUMPI DUP1 PUSH4 0xFD1C1518 EQ PUSH2 0x2B2 JUMPI PUSH2 0xFE JUMP JUMPDEST DUP1 PUSH4 0x7DC0D1D0 EQ PUSH2 0x1E4 JUMPI DUP1 PUSH4 0xB02C43D0 EQ PUSH2 0x1F9 JUMPI DUP1 PUSH4 0xD0C93A7C EQ PUSH2 0x229 JUMPI DUP1 PUSH4 0xD21220A7 EQ PUSH2 0x24B JUMPI PUSH2 0xFE JUMP JUMPDEST DUP1 PUSH4 0x3A4B66F1 GT PUSH2 0xD1 JUMPI DUP1 PUSH4 0x3A4B66F1 EQ PUSH2 0x192 JUMPI DUP1 PUSH4 0x3CCFD60B EQ PUSH2 0x19C JUMPI DUP1 PUSH4 0x6020159D EQ PUSH2 0x1A4 JUMPI DUP1 PUSH4 0x7210468A EQ PUSH2 0x1C4 JUMPI PUSH2 0xFE JUMP JUMPDEST DUP1 PUSH4 0xDFE1681 EQ PUSH2 0x103 JUMPI DUP1 PUSH4 0x150B7A02 EQ PUSH2 0x12E JUMPI DUP1 PUSH4 0x16F0115B EQ PUSH2 0x15B JUMPI DUP1 PUSH4 0x17D70F7C EQ PUSH2 0x170 JUMPI JUMPDEST PUSH1 0x0 DUP1 REVERT JUMPDEST CALLVALUE DUP1 ISZERO PUSH2 0x10F JUMPI PUSH1 0x0 DUP1 REVERT JUMPDEST POP PUSH2 0x118 PUSH2 0x2C7 JUMP JUMPDEST PUSH1 0x40 MLOAD PUSH2 0x125 SWAP2 SWAP1 PUSH2 0x8AD JUMP JUMPDEST PUSH1 0x40 MLOAD DUP1 SWAP2 SUB SWAP1 RETURN JUMPDEST CALLVALUE DUP1 ISZERO PUSH2 0x13A JUMPI PUSH1 0x0 DUP1 REVERT JUMPDEST POP PUSH2 0x14E PUSH2 0x149 CALLDATASIZE PUSH1 0x4 PUSH2 0x79D JUMP JUMPDEST PUSH2 0x2D6 JUMP JUMPDEST PUSH1 0x40 MLOAD PUSH2 0x125 SWAP2 SWAP1 PUSH2 0x932 JUMP JUMPDEST CALLVALUE DUP1 ISZERO PUSH2 0x167 JUMPI PUSH1 0x0 DUP1 REVERT JUMPDEST POP PUSH2 0x118 PUSH2 0x2E6 JUMP JUMPDEST CALLVALUE DUP1 ISZERO PUSH2 0x17C JUMPI PUSH1 0x0 DUP1 REVERT JUMPDEST POP PUSH2 0x185 PUSH2 0x2F5 JUMP JUMPDEST PUSH1 0x40 MLOAD PUSH2 0x125 SWAP2 SWAP1 PUSH2 0x985 JUMP JUMPDEST PUSH2 0x19A PUSH2 0x2FB JUMP JUMPDEST STOP JUMPDEST PUSH2 0x19A PUSH2 0x4C0 JUMP JUMPDEST CALLVALUE DUP1 ISZERO PUSH2 0x1B0 JUMPI PUSH1 0x0 DUP1 REVERT JUMPDEST POP PUSH2 0x19A PUSH2 0x1BF CALLDATASIZE PUSH1 0x4 PUSH2 0x87D JUMP JUMPDEST PUSH2 0x4F9 JUMP JUMPDEST CALLVALUE DUP1 ISZERO PUSH2 0x1D0 JUMPI PUSH1 0x0 DUP1 REVERT JUMPDEST POP PUSH2 0x19A PUSH2 0x1DF CALLDATASIZE PUSH1 0x4 PUSH2 0x77C JUMP JUMPDEST PUSH2 0x531 JUMP JUMPDEST CALLVALUE DUP1 ISZERO PUSH2 0x1F0 JUMPI PUSH1 0x0 DUP1 REVERT JUMPDEST POP PUSH2 0x118 PUSH2 0x63C JUMP JUMPDEST CALLVALUE DUP1 ISZERO PUSH2 0x205 JUMPI PUSH1 0x0 DUP1 REVERT JUMPDEST POP PUSH2 0x219 PUSH2 0x214 CALLDATASIZE PUSH1 0x4 PUSH2 0x87D JUMP JUMPDEST PUSH2 0x64B JUMP JUMPDEST PUSH1 0x40 MLOAD PUSH2 0x125 SWAP5 SWAP4 SWAP3 SWAP2 SWAP1 PUSH2 0x8FE JUMP JUMPDEST CALLVALUE DUP1 ISZERO PUSH2 0x235 JUMPI PUSH1 0x0 DUP1 REVERT JUMPDEST POP PUSH2 0x23E PUSH2 0x68B JUMP JUMPDEST PUSH1 0x40 MLOAD PUSH2 0x125 SWAP2 SWAP1 PUSH2 0x947 JUMP JUMPDEST CALLVALUE DUP1 ISZERO PUSH2 0x257 JUMPI PUSH1 0x0 DUP1 REVERT JUMPDEST POP PUSH2 0x118 PUSH2 0x69B JUMP JUMPDEST CALLVALUE DUP1 ISZERO PUSH2 0x26C JUMPI PUSH1 0x0 DUP1 REVERT JUMPDEST POP PUSH2 0x118 PUSH2 0x6AA JUMP JUMPDEST PUSH2 0x19A PUSH2 0x6B9 JUMP JUMPDEST CALLVALUE DUP1 ISZERO PUSH2 0x289 JUMPI PUSH1 0x0 DUP1 REVERT JUMPDEST POP PUSH2 0x19A PUSH2 0x298 CALLDATASIZE PUSH1 0x4 PUSH2 0x77C JUMP JUMPDEST PUSH2 0x6F5 JUMP JUMPDEST CALLVALUE DUP1 ISZERO PUSH2 0x2A9 JUMPI PUSH1 0x0 DUP1 REVERT JUMPDEST POP PUSH2 0x118 PUSH2 0x741 JUMP JUMPDEST CALLVALUE DUP1 ISZERO PUSH2 0x2BE JUMPI PUSH1 0x0 DUP1 REVERT JUMPDEST POP PUSH2 0x23E PUSH2 0x750 JUMP JUMPDEST PUSH1 0x1 SLOAD PUSH1 0x1 PUSH1 0x1 PUSH1 0xA0 SHL SUB AND DUP2 JUMP JUMPDEST PUSH4 0xA85BD01 PUSH1 0xE1 SHL SWAP5 SWAP4 POP POP POP POP JUMP JUMPDEST PUSH1 0x0 SLOAD PUSH1 0x1 PUSH1 0x1 PUSH1 0xA0 SHL SUB AND DUP2 JUMP JUMPDEST PUSH1 0x4 SLOAD DUP2 JUMP JUMPDEST PUSH1 0x4 DUP1 SLOAD PUSH1 0x40 MLOAD PUSH4 0x23B872DD PUSH1 0xE0 SHL DUP2 MSTORE PUSH20 0x416B433906B1B72FA758E166E239C43D68DC6F29 SWAP3 PUSH4 0x23B872DD SWAP3 PUSH2 0x337 SWAP3 CALLER SWAP3 ADDRESS SWAP3 SWAP2 ADD PUSH2 0x8C1 JUMP JUMPDEST PUSH1 0x0 PUSH1 0x40 MLOAD DUP1 DUP4 SUB DUP2 PUSH1 0x0 DUP8 DUP1 EXTCODESIZE ISZERO DUP1 ISZERO PUSH2 0x351 JUMPI PUSH1 0x0 DUP1 REVERT JUMPDEST POP GAS CALL ISZERO DUP1 ISZERO PUSH2 0x365 JUMPI RETURNDATASIZE PUSH1 0x0 DUP1 RETURNDATACOPY RETURNDATASIZE PUSH1 0x0 REVERT JUMPDEST POP POP PUSH1 0x4 DUP1 SLOAD PUSH1 0x40 MLOAD PUSH4 0x95EA7B3 PUSH1 0xE0 SHL DUP2 MSTORE PUSH20 0x416B433906B1B72FA758E166E239C43D68DC6F29 SWAP5 POP PUSH4 0x95EA7B3 SWAP4 POP PUSH2 0x3A3 SWAP3 CALLER SWAP3 SWAP2 ADD PUSH2 0x8E5 JUMP JUMPDEST PUSH1 0x0 PUSH1 0x40 MLOAD DUP1 DUP4 SUB DUP2 PUSH1 0x0 DUP8 DUP1 EXTCODESIZE ISZERO DUP1 ISZERO PUSH2 0x3BD JUMPI PUSH1 0x0 DUP1 REVERT JUMPDEST POP GAS CALL ISZERO DUP1 ISZERO PUSH2 0x3D1 JUMPI RETURNDATASIZE PUSH1 0x0 DUP1 RETURNDATACOPY RETURNDATASIZE PUSH1 0x0 REVERT JUMPDEST POP POP PUSH1 0x4 DUP1 SLOAD PUSH1 0x40 MLOAD PUSH4 0x95EA7B3 PUSH1 0xE0 SHL DUP2 MSTORE PUSH20 0x416B433906B1B72FA758E166E239C43D68DC6F29 SWAP5 POP PUSH4 0x95EA7B3 SWAP4 POP PUSH2 0x423 SWAP3 PUSH20 0xC8C7B5AE61D97BE7D02D606629059487066DC9CF SWAP3 SWAP2 ADD PUSH2 0x8E5 JUMP JUMPDEST PUSH1 0x0 PUSH1 0x40 MLOAD DUP1 DUP4 SUB DUP2 PUSH1 0x0 DUP8 DUP1 EXTCODESIZE ISZERO DUP1 ISZERO PUSH2 0x43D JUMPI PUSH1 0x0 DUP1 REVERT JUMPDEST POP GAS CALL ISZERO DUP1 ISZERO PUSH2 0x451 JUMPI RETURNDATASIZE PUSH1 0x0 DUP1 RETURNDATACOPY RETURNDATASIZE PUSH1 0x0 REVERT JUMPDEST POP POP PUSH1 0x4 DUP1 SLOAD PUSH1 0x40 MLOAD PUSH4 0xB6B55F25 PUSH1 0xE0 SHL DUP2 MSTORE PUSH20 0xC8C7B5AE61D97BE7D02D606629059487066DC9CF SWAP5 POP PUSH4 0xB6B55F25 SWAP4 POP PUSH2 0x48C SWAP3 ADD PUSH2 0x985 JUMP JUMPDEST PUSH1 0x0 PUSH1 0x40 MLOAD DUP1 DUP4 SUB DUP2 PUSH1 0x0 DUP8 DUP1 EXTCODESIZE ISZERO DUP1 ISZERO PUSH2 0x4A6 JUMPI PUSH1 0x0 DUP1 REVERT JUMPDEST POP GAS CALL ISZERO DUP1 ISZERO PUSH2 0x4BA JUMPI RETURNDATASIZE PUSH1 0x0 DUP1 RETURNDATACOPY RETURNDATASIZE PUSH1 0x0 REVERT JUMPDEST POP POP POP POP JUMP JUMPDEST PUSH1 0x4 DUP1 SLOAD PUSH1 0x40 MLOAD PUSH4 0x2E1A7D4D PUSH1 0xE0 SHL DUP2 MSTORE PUSH20 0xC8C7B5AE61D97BE7D02D606629059487066DC9CF SWAP3 PUSH4 0x2E1A7D4D SWAP3 PUSH2 0x48C SWAP3 SWAP1 SWAP2 ADD PUSH2 0x985 JUMP JUMPDEST PUSH1 0x5 SLOAD PUSH1 0x1 PUSH1 0x1 PUSH1 0xA0 SHL SUB AND CALLER EQ PUSH2 0x52C JUMPI PUSH1 0x40 MLOAD PUSH3 0x461BCD PUSH1 0xE5 SHL DUP2 MSTORE PUSH1 0x4 ADD PUSH2 0x523 SWAP1 PUSH2 0x955 JUMP JUMPDEST PUSH1 0x40 MLOAD DUP1 SWAP2 SUB SWAP1 REVERT JUMPDEST PUSH1 0x4 SSTORE JUMP JUMPDEST PUSH1 0x40 MLOAD PUSH4 0x70A08231 PUSH1 0xE0 SHL DUP2 MSTORE PUSH1 0x0 SWAP1 PUSH1 0x1 PUSH1 0x1 PUSH1 0xA0 SHL SUB DUP4 AND SWAP1 PUSH4 0x70A08231 SWAP1 PUSH2 0x560 SWAP1 ADDRESS SWAP1 PUSH1 0x4 ADD PUSH2 0x8AD JUMP JUMPDEST PUSH1 0x20 PUSH1 0x40 MLOAD DUP1 DUP4 SUB DUP2 DUP7 DUP1 EXTCODESIZE ISZERO DUP1 ISZERO PUSH2 0x578 JUMPI PUSH1 0x0 DUP1 REVERT JUMPDEST POP GAS STATICCALL ISZERO DUP1 ISZERO PUSH2 0x58C JUMPI RETURNDATASIZE PUSH1 0x0 DUP1 RETURNDATACOPY RETURNDATASIZE PUSH1 0x0 REVERT JUMPDEST POP POP POP POP PUSH1 0x40 MLOAD RETURNDATASIZE PUSH1 0x1F NOT PUSH1 0x1F DUP3 ADD AND DUP3 ADD DUP1 PUSH1 0x40 MSTORE POP DUP2 ADD SWAP1 PUSH2 0x5B0 SWAP2 SWAP1 PUSH2 0x895 JUMP JUMPDEST PUSH1 0x5 SLOAD PUSH1 0x40 MLOAD PUSH4 0xA9059CBB PUSH1 0xE0 SHL DUP2 MSTORE SWAP2 SWAP3 POP PUSH1 0x1 PUSH1 0x1 PUSH1 0xA0 SHL SUB DUP1 DUP6 AND SWAP3 PUSH4 0xA9059CBB SWAP3 PUSH2 0x5E5 SWAP3 AND SWAP1 DUP6 SWAP1 PUSH1 0x4 ADD PUSH2 0x8E5 JUMP JUMPDEST PUSH1 0x20 PUSH1 0x40 MLOAD DUP1 DUP4 SUB DUP2 PUSH1 0x0 DUP8 DUP1 EXTCODESIZE ISZERO DUP1 ISZERO PUSH2 0x5FF JUMPI PUSH1 0x0 DUP1 REVERT JUMPDEST POP GAS CALL ISZERO DUP1 ISZERO PUSH2 0x613 JUMPI RETURNDATASIZE PUSH1 0x0 DUP1 RETURNDATACOPY RETURNDATASIZE PUSH1 0x0 REVERT JUMPDEST POP POP POP POP PUSH1 0x40 MLOAD RETURNDATASIZE PUSH1 0x1F NOT PUSH1 0x1F DUP3 ADD AND DUP3 ADD DUP1 PUSH1 0x40 MSTORE POP DUP2 ADD SWAP1 PUSH2 0x637 SWAP2 SWAP1 PUSH2 0x85D JUMP JUMPDEST POP POP POP JUMP JUMPDEST PUSH1 0x6 SLOAD PUSH1 0x1 PUSH1 0x1 PUSH1 0xA0 SHL SUB AND DUP2 JUMP JUMPDEST PUSH1 0x7 PUSH1 0x20 MSTORE PUSH1 0x0 SWAP1 DUP2 MSTORE PUSH1 0x40 SWAP1 KECCAK256 DUP1 SLOAD PUSH1 0x1 DUP3 ADD SLOAD PUSH1 0x2 DUP4 ADD SLOAD PUSH1 0x3 SWAP1 SWAP4 ADD SLOAD PUSH1 0x1 PUSH1 0x1 PUSH1 0xA0 SHL SUB SWAP3 DUP4 AND SWAP4 PUSH1 0x1 PUSH1 0x1 PUSH1 0x80 SHL SUB SWAP1 SWAP3 AND SWAP3 SWAP2 DUP3 AND SWAP2 AND DUP5 JUMP JUMPDEST PUSH1 0x5 SLOAD PUSH1 0x1 PUSH1 0xA0 SHL SWAP1 DIV PUSH1 0x2 SIGNEXTEND DUP2 JUMP JUMPDEST PUSH1 0x2 SLOAD PUSH1 0x1 PUSH1 0x1 PUSH1 0xA0 SHL SUB AND DUP2 JUMP JUMPDEST PUSH1 0x3 SLOAD PUSH1 0x1 PUSH1 0x1 PUSH1 0xA0 SHL SUB AND DUP2 JUMP JUMPDEST PUSH1 0x4 DUP1 SLOAD PUSH1 0x40 MLOAD PUSH4 0x23B872DD PUSH1 0xE0 SHL DUP2 MSTORE PUSH20 0x416B433906B1B72FA758E166E239C43D68DC6F29 SWAP3 PUSH4 0x23B872DD SWAP3 PUSH2 0x48C SWAP3 ADDRESS SWAP3 CALLER SWAP3 SWAP2 ADD PUSH2 0x8C1 JUMP JUMPDEST PUSH1 0x5 SLOAD PUSH1 0x1 PUSH1 0x1 PUSH1 0xA0 SHL SUB AND CALLER EQ PUSH2 0x71F JUMPI PUSH1 0x40 MLOAD PUSH3 0x461BCD PUSH1 0xE5 SHL DUP2 MSTORE PUSH1 0x4 ADD PUSH2 0x523 SWAP1 PUSH2 0x955 JUMP JUMPDEST PUSH1 0x5 DUP1 SLOAD PUSH1 0x1 PUSH1 0x1 PUSH1 0xA0 SHL SUB NOT AND PUSH1 0x1 PUSH1 0x1 PUSH1 0xA0 SHL SUB SWAP3 SWAP1 SWAP3 AND SWAP2 SWAP1 SWAP2 OR SWAP1 SSTORE JUMP JUMPDEST PUSH1 0x5 SLOAD PUSH1 0x1 PUSH1 0x1 PUSH1 0xA0 SHL SUB AND DUP2 JUMP JUMPDEST PUSH1 0x5 SLOAD PUSH1 0x1 PUSH1 0xB8 SHL SWAP1 DIV PUSH1 0x2 SIGNEXTEND DUP2 JUMP JUMPDEST DUP1 CALLDATALOAD PUSH1 0x1 PUSH1 0x1 PUSH1 0xA0 SHL SUB DUP2 AND DUP2 EQ PUSH2 0x777 JUMPI PUSH1 0x0 DUP1 REVERT JUMPDEST SWAP2 SWAP1 POP JUMP JUMPDEST PUSH1 0x0 PUSH1 0x20 DUP3 DUP5 SUB SLT ISZERO PUSH2 0x78D JUMPI DUP1 DUP2 REVERT JUMPDEST PUSH2 0x796 DUP3 PUSH2 0x760 JUMP JUMPDEST SWAP4 SWAP3 POP POP POP JUMP JUMPDEST PUSH1 0x0 DUP1 PUSH1 0x0 DUP1 PUSH1 0x80 DUP6 DUP8 SUB SLT ISZERO PUSH2 0x7B2 JUMPI DUP3 DUP4 REVERT JUMPDEST PUSH2 0x7BB DUP6 PUSH2 0x760 JUMP JUMPDEST SWAP4 POP PUSH1 0x20 PUSH2 0x7CA DUP2 DUP8 ADD PUSH2 0x760 JUMP JUMPDEST SWAP4 POP PUSH1 0x40 DUP7 ADD CALLDATALOAD SWAP3 POP PUSH1 0x60 DUP7 ADD CALLDATALOAD PUSH8 0xFFFFFFFFFFFFFFFF DUP1 DUP3 GT ISZERO PUSH2 0x7ED JUMPI DUP4 DUP5 REVERT JUMPDEST DUP2 DUP9 ADD SWAP2 POP DUP9 PUSH1 0x1F DUP4 ADD SLT PUSH2 0x800 JUMPI DUP4 DUP5 REVERT JUMPDEST DUP2 CALLDATALOAD DUP2 DUP2 GT ISZERO PUSH2 0x80C JUMPI INVALID JUMPDEST PUSH1 0x40 MLOAD PUSH1 0x1F DUP3 ADD PUSH1 0x1F NOT AND DUP2 ADD DUP6 ADD DUP4 DUP2 GT DUP3 DUP3 LT OR ISZERO PUSH2 0x829 JUMPI INVALID JUMPDEST PUSH1 0x40 MSTORE DUP2 DUP2 MSTORE DUP4 DUP3 ADD DUP6 ADD DUP12 LT ISZERO PUSH2 0x83F JUMPI DUP6 DUP7 REVERT JUMPDEST DUP2 DUP6 DUP6 ADD DUP7 DUP4 ADD CALLDATACOPY SWAP1 DUP2 ADD SWAP1 SWAP4 ADD SWAP4 SWAP1 SWAP4 MSTORE POP SWAP4 SWAP7 SWAP3 SWAP6 POP SWAP1 SWAP4 POP POP JUMP JUMPDEST PUSH1 0x0 PUSH1 0x20 DUP3 DUP5 SUB SLT ISZERO PUSH2 0x86E JUMPI DUP1 DUP2 REVERT JUMPDEST DUP2 MLOAD DUP1 ISZERO ISZERO DUP2 EQ PUSH2 0x796 JUMPI DUP2 DUP3 REVERT JUMPDEST PUSH1 0x0 PUSH1 0x20 DUP3 DUP5 SUB SLT ISZERO PUSH2 0x88E JUMPI DUP1 DUP2 REVERT JUMPDEST POP CALLDATALOAD SWAP2 SWAP1 POP JUMP JUMPDEST PUSH1 0x0 PUSH1 0x20 DUP3 DUP5 SUB SLT ISZERO PUSH2 0x8A6 JUMPI DUP1 DUP2 REVERT JUMPDEST POP MLOAD SWAP2 SWAP1 POP JUMP JUMPDEST PUSH1 0x1 PUSH1 0x1 PUSH1 0xA0 SHL SUB SWAP2 SWAP1 SWAP2 AND DUP2 MSTORE PUSH1 0x20 ADD SWAP1 JUMP JUMPDEST PUSH1 0x1 PUSH1 0x1 PUSH1 0xA0 SHL SUB SWAP4 DUP5 AND DUP2 MSTORE SWAP2 SWAP1 SWAP3 AND PUSH1 0x20 DUP3 ADD MSTORE PUSH1 0x40 DUP2 ADD SWAP2 SWAP1 SWAP2 MSTORE PUSH1 0x60 ADD SWAP1 JUMP JUMPDEST PUSH1 0x1 PUSH1 0x1 PUSH1 0xA0 SHL SUB SWAP3 SWAP1 SWAP3 AND DUP3 MSTORE PUSH1 0x20 DUP3 ADD MSTORE PUSH1 0x40 ADD SWAP1 JUMP JUMPDEST PUSH1 0x1 PUSH1 0x1 PUSH1 0xA0 SHL SUB SWAP5 DUP6 AND DUP2 MSTORE PUSH1 0x1 PUSH1 0x1 PUSH1 0x80 SHL SUB SWAP4 SWAP1 SWAP4 AND PUSH1 0x20 DUP5 ADD MSTORE SWAP1 DUP4 AND PUSH1 0x40 DUP4 ADD MSTORE SWAP1 SWAP2 AND PUSH1 0x60 DUP3 ADD MSTORE PUSH1 0x80 ADD SWAP1 JUMP JUMPDEST PUSH1 0x1 PUSH1 0x1 PUSH1 0xE0 SHL SUB NOT SWAP2 SWAP1 SWAP2 AND DUP2 MSTORE PUSH1 0x20 ADD SWAP1 JUMP JUMPDEST PUSH1 0x2 SWAP2 SWAP1 SWAP2 SIGNEXTEND DUP2 MSTORE PUSH1 0x20 ADD SWAP1 JUMP JUMPDEST PUSH1 0x20 DUP1 DUP3 MSTORE PUSH1 0x16 SWAP1 DUP3 ADD MSTORE PUSH22 0x4F6E6C79206F776E65722063616E20646F2074686973 PUSH1 0x50 SHL PUSH1 0x40 DUP3 ADD MSTORE PUSH1 0x60 ADD SWAP1 JUMP JUMPDEST SWAP1 DUP2 MSTORE PUSH1 0x20 ADD SWAP1 JUMP INVALID LOG2 PUSH5 0x6970667358 0x22 SLT KECCAK256 0x2B CALLDATASIZE 0xE0 SWAP9 SIGNEXTEND GASPRICE 0xCF 0xCC PUSH30 0x6DB9FC2AD6F6C9A9BEC3541842C69123EB8361CC63D02364736F6C634300 SMOD MOD STOP CALLER "
				},
				"gasEstimates": {
					"creation": {
						"codeDepositCost": "500000",
						"executionCost": "42208",
						"totalCost": "542208"
					},
					"external": {
						"_newAdmin(address)": "22077",
						"_newtokenID(uint256)": "21131",
						"_transferToAdmin(address)": "infinite",
						"admin()": "1158",
						"deposits(uint256)": "3838",
						"farmNFT()": "1092",
						"onERC721Received(address,address,uint256,bytes)": "infinite",
						"oracle()": "1093",
						"pool()": "1138",
						"sendNFTBack()": "infinite",
						"spaceMultiplier()": "1177",
						"stake()": "infinite",
						"tickSpacing()": "1134",
						"token0()": "1094",
						"token1()": "1159",
						"tokenId()": "1118",
						"withdraw()": "infinite"
					}
				},
				"methodIdentifiers": {
					"_newAdmin(address)": "e6f4d0aa",
					"_newtokenID(uint256)": "6020159d",
					"_transferToAdmin(address)": "7210468a",
					"admin()": "f851a440",
					"deposits(uint256)": "b02c43d0",
					"farmNFT()": "da802f80",
					"onERC721Received(address,address,uint256,bytes)": "150b7a02",
					"oracle()": "7dc0d1d0",
					"pool()": "16f0115b",
					"sendNFTBack()": "e58d539e",
					"spaceMultiplier()": "fd1c1518",
					"stake()": "3a4b66f1",
					"tickSpacing()": "d0c93a7c",
					"token0()": "0dfe1681",
					"token1()": "d21220a7",
					"tokenId()": "17d70f7c",
					"withdraw()": "3ccfd60b"
				}
			},
			"storageLayout": {
				"storage": [
					{
						"astId": 681,
						"contract": "contracts/core/VeloStake.sol:V3BotStaking",
						"label": "pool",
						"offset": 0,
						"slot": "0",
						"type": "t_address"
					},
					{
						"astId": 683,
						"contract": "contracts/core/VeloStake.sol:V3BotStaking",
						"label": "token0",
						"offset": 0,
						"slot": "1",
						"type": "t_address"
					},
					{
						"astId": 685,
						"contract": "contracts/core/VeloStake.sol:V3BotStaking",
						"label": "token1",
						"offset": 0,
						"slot": "2",
						"type": "t_address"
					},
					{
						"astId": 687,
						"contract": "contracts/core/VeloStake.sol:V3BotStaking",
						"label": "farmNFT",
						"offset": 0,
						"slot": "3",
						"type": "t_address"
					},
					{
						"astId": 689,
						"contract": "contracts/core/VeloStake.sol:V3BotStaking",
						"label": "tokenId",
						"offset": 0,
						"slot": "4",
						"type": "t_uint256"
					},
					{
						"astId": 691,
						"contract": "contracts/core/VeloStake.sol:V3BotStaking",
						"label": "admin",
						"offset": 0,
						"slot": "5",
						"type": "t_address"
					},
					{
						"astId": 693,
						"contract": "contracts/core/VeloStake.sol:V3BotStaking",
						"label": "tickSpacing",
						"offset": 20,
						"slot": "5",
						"type": "t_int24"
					},
					{
						"astId": 695,
						"contract": "contracts/core/VeloStake.sol:V3BotStaking",
						"label": "spaceMultiplier",
						"offset": 23,
						"slot": "5",
						"type": "t_int24"
					},
					{
						"astId": 698,
						"contract": "contracts/core/VeloStake.sol:V3BotStaking",
						"label": "oracle",
						"offset": 0,
						"slot": "6",
						"type": "t_address"
					},
					{
						"astId": 712,
						"contract": "contracts/core/VeloStake.sol:V3BotStaking",
						"label": "deposits",
						"offset": 0,
						"slot": "7",
						"type": "t_mapping(t_uint256,t_struct(Deposit)707_storage)"
					}
				],
				"types": {
					"t_address": {
						"encoding": "inplace",
						"label": "address",
						"numberOfBytes": "20"
					},
					"t_int24": {
						"encoding": "inplace",
						"label": "int24",
						"numberOfBytes": "3"
					},
					"t_mapping(t_uint256,t_struct(Deposit)707_storage)": {
						"encoding": "mapping",
						"key": "t_uint256",
						"label": "mapping(uint256 => struct V3BotStaking.Deposit)",
						"numberOfBytes": "32",
						"value": "t_struct(Deposit)707_storage"
					},
					"t_struct(Deposit)707_storage": {
						"encoding": "inplace",
						"label": "struct V3BotStaking.Deposit",
						"members": [
							{
								"astId": 700,
								"contract": "contracts/core/VeloStake.sol:V3BotStaking",
								"label": "owner",
								"offset": 0,
								"slot": "0",
								"type": "t_address"
							},
							{
								"astId": 702,
								"contract": "contracts/core/VeloStake.sol:V3BotStaking",
								"label": "liquidity",
								"offset": 0,
								"slot": "1",
								"type": "t_uint128"
							},
							{
								"astId": 704,
								"contract": "contracts/core/VeloStake.sol:V3BotStaking",
								"label": "token0",
								"offset": 0,
								"slot": "2",
								"type": "t_address"
							},
							{
								"astId": 706,
								"contract": "contracts/core/VeloStake.sol:V3BotStaking",
								"label": "token1",
								"offset": 0,
								"slot": "3",
								"type": "t_address"
							}
						],
						"numberOfBytes": "128"
					},
					"t_uint128": {
						"encoding": "inplace",
						"label": "uint128",
						"numberOfBytes": "16"
					},
					"t_uint256": {
						"encoding": "inplace",
						"label": "uint256",
						"numberOfBytes": "32"
					}
				}
			},
			"userdoc": {
				"kind": "user",
				"methods": {},
				"version": 1
			}
		}
	}
}