{
	"contracts/core/VeloBrain.sol": {
		"Proxy": {
			"abi": [
				{
					"inputs": [
						{
							"internalType": "address",
							"name": "_implementation",
							"type": "address"
						}
					],
					"stateMutability": "nonpayable",
					"type": "constructor"
				},
				{
					"stateMutability": "payable",
					"type": "fallback"
				},
				{
					"inputs": [],
					"name": "admin",
					"outputs": [
						{
							"internalType": "address",
							"name": "",
							"type": "address"
						}
					],
					"stateMutability": "view",
					"type": "function"
				},
				{
					"inputs": [],
					"name": "implementation",
					"outputs": [
						{
							"internalType": "address",
							"name": "",
							"type": "address"
						}
					],
					"stateMutability": "view",
					"type": "function"
				},
				{
					"inputs": [
						{
							"internalType": "address",
							"name": "_newImplementation",
							"type": "address"
						}
					],
					"name": "upgrade",
					"outputs": [],
					"stateMutability": "nonpayable",
					"type": "function"
				},
				{
					"stateMutability": "payable",
					"type": "receive"
				}
			],
			"devdoc": {
				"kind": "dev",
				"methods": {},
				"version": 1
			},
			"evm": {
				"assembly": "    /* \"contracts/core/VeloBrain.sol\":60:1313  contract Proxy {... */\n  mstore(0x40, 0x80)\n    /* \"contracts/core/VeloBrain.sol\":254:371  constructor(address _implementation) {... */\n  callvalue\n  dup1\n  iszero\n  tag_1\n  jumpi\n  0x00\n  dup1\n  revert\ntag_1:\n  pop\n  mload(0x40)\n  sub(codesize, bytecodeSize)\n  dup1\n  bytecodeSize\n  dup4\n  codecopy\n  dup2\n  add\n  0x40\n  dup2\n  swap1\n  mstore\n  tag_2\n  swap2\n  tag_3\n  jump\t// in\ntag_2:\n    /* \"contracts/core/VeloBrain.sol\":302:307  admin */\n  0x01\n    /* \"contracts/core/VeloBrain.sol\":302:320  admin = msg.sender */\n  dup1\n  sload\n    /* \"contracts/core/VeloBrain.sol\":310:320  msg.sender */\n  caller\n  not(sub(shl(0xa0, 0x01), 0x01))\n    /* \"contracts/core/VeloBrain.sol\":302:320  admin = msg.sender */\n  swap2\n  dup3\n  and\n  or\n  swap1\n  swap2\n  sstore\n  0x00\n    /* \"contracts/core/VeloBrain.sol\":331:363  implementation = _implementation */\n  dup1\n  sload\n  swap1\n  swap2\n  and\n  sub(shl(0xa0, 0x01), 0x01)\n  swap3\n  swap1\n  swap3\n  and\n  swap2\n  swap1\n  swap2\n  or\n  swap1\n  sstore\n    /* \"contracts/core/VeloBrain.sol\":60:1313  contract Proxy {... */\n  jump(tag_7)\n    /* \"#utility.yul\":14:304   */\ntag_3:\n    /* \"#utility.yul\":84:90   */\n  0x00\n    /* \"#utility.yul\":137:139   */\n  0x20\n    /* \"#utility.yul\":125:134   */\n  dup3\n    /* \"#utility.yul\":116:123   */\n  dup5\n    /* \"#utility.yul\":112:135   */\n  sub\n    /* \"#utility.yul\":108:140   */\n  slt\n    /* \"#utility.yul\":105:157   */\n  iszero\n  tag_9\n  jumpi\n    /* \"#utility.yul\":153:154   */\n  0x00\n    /* \"#utility.yul\":150:151   */\n  dup1\n    /* \"#utility.yul\":143:155   */\n  revert\n    /* \"#utility.yul\":105:157   */\ntag_9:\n    /* \"#utility.yul\":179:195   */\n  dup2\n  mload\n  sub(shl(0xa0, 0x01), 0x01)\n    /* \"#utility.yul\":224:255   */\n  dup2\n  and\n    /* \"#utility.yul\":214:256   */\n  dup2\n  eq\n    /* \"#utility.yul\":204:274   */\n  tag_10\n  jumpi\n    /* \"#utility.yul\":270:271   */\n  0x00\n    /* \"#utility.yul\":267:268   */\n  dup1\n    /* \"#utility.yul\":260:272   */\n  revert\n    /* \"#utility.yul\":204:274   */\ntag_10:\n    /* \"#utility.yul\":293:298   */\n  swap4\n    /* \"#utility.yul\":14:304   */\n  swap3\n  pop\n  pop\n  pop\n  jump\t// out\ntag_7:\n    /* \"contracts/core/VeloBrain.sol\":60:1313  contract Proxy {... */\n  dataSize(sub_0)\n  dup1\n  dataOffset(sub_0)\n  0x00\n  codecopy\n  0x00\n  return\nstop\n\nsub_0: assembly {\n        /* \"contracts/core/VeloBrain.sol\":60:1313  contract Proxy {... */\n      mstore(0x40, 0x80)\n      jumpi(tag_1, lt(calldatasize, 0x04))\n      shr(0xe0, calldataload(0x00))\n      dup1\n      0x0900f010\n      eq\n      tag_3\n      jumpi\n      dup1\n      0x5c60da1b\n      eq\n      tag_4\n      jumpi\n      dup1\n      0xf851a440\n      eq\n      tag_5\n      jumpi\n      jump(tag_2)\n    tag_1:\n      jumpi(tag_2, calldatasize)\n      stop\n    tag_2:\n        /* \"contracts/core/VeloBrain.sol\":811:823  address impl */\n      0x00\n        /* \"contracts/core/VeloBrain.sol\":826:840  implementation */\n      sload\n      sub(shl(0xa0, 0x01), 0x01)\n      and\n      dup1\n        /* \"contracts/core/VeloBrain.sol\":851:904  require(impl != address(0), \"Implementation not set\") */\n      tag_10\n      jumpi\n      mload(0x40)\n      shl(0xe5, 0x461bcd)\n      dup2\n      mstore\n        /* \"#utility.yul\":216:218   */\n      0x20\n        /* \"contracts/core/VeloBrain.sol\":851:904  require(impl != address(0), \"Implementation not set\") */\n      0x04\n      dup3\n      add\n        /* \"#utility.yul\":198:219   */\n      mstore\n        /* \"#utility.yul\":255:257   */\n      0x16\n        /* \"#utility.yul\":235:253   */\n      0x24\n      dup3\n      add\n        /* \"#utility.yul\":228:258   */\n      mstore\n      shl(0x52, 0x125b5c1b195b595b9d185d1a5bdb881b9bdd081cd95d)\n        /* \"#utility.yul\":274:292   */\n      0x44\n      dup3\n      add\n        /* \"#utility.yul\":267:319   */\n      mstore\n        /* \"#utility.yul\":336:354   */\n      0x64\n      add\n        /* \"contracts/core/VeloBrain.sol\":851:904  require(impl != address(0), \"Implementation not set\") */\n    tag_11:\n      mload(0x40)\n      dup1\n      swap2\n      sub\n      swap1\n      revert\n    tag_10:\n        /* \"contracts/core/VeloBrain.sol\":975:987  bool success */\n      0x00\n        /* \"contracts/core/VeloBrain.sol\":989:1006  bytes memory data */\n      dup1\n        /* \"contracts/core/VeloBrain.sol\":1010:1014  impl */\n      dup3\n      sub(shl(0xa0, 0x01), 0x01)\n        /* \"contracts/core/VeloBrain.sol\":1010:1027  impl.delegatecall */\n      and\n        /* \"contracts/core/VeloBrain.sol\":1028:1036  msg.data */\n      0x00\n      calldatasize\n        /* \"contracts/core/VeloBrain.sol\":1010:1037  impl.delegatecall(msg.data) */\n      mload(0x40)\n      tag_13\n      swap3\n      swap2\n      swap1\n      tag_14\n      jump\t// in\n    tag_13:\n      0x00\n      mload(0x40)\n      dup1\n      dup4\n      sub\n      dup2\n      dup6\n      gas\n      delegatecall\n      swap2\n      pop\n      pop\n      returndatasize\n      dup1\n      0x00\n      dup2\n      eq\n      tag_17\n      jumpi\n      mload(0x40)\n      swap2\n      pop\n      and(add(returndatasize, 0x3f), not(0x1f))\n      dup3\n      add\n      0x40\n      mstore\n      returndatasize\n      dup3\n      mstore\n      returndatasize\n      0x00\n      0x20\n      dup5\n      add\n      returndatacopy\n      jump(tag_16)\n    tag_17:\n      0x60\n      swap2\n      pop\n    tag_16:\n      pop\n        /* \"contracts/core/VeloBrain.sol\":974:1037  (bool success, bytes memory data) = impl.delegatecall(msg.data) */\n      swap2\n      pop\n      swap2\n      pop\n        /* \"contracts/core/VeloBrain.sol\":1056:1063  success */\n      dup2\n        /* \"contracts/core/VeloBrain.sol\":1048:1087  require(success, \"Delegatecall failed\") */\n      tag_18\n      jumpi\n      mload(0x40)\n      shl(0xe5, 0x461bcd)\n      dup2\n      mstore\n        /* \"#utility.yul\":843:845   */\n      0x20\n        /* \"contracts/core/VeloBrain.sol\":1048:1087  require(success, \"Delegatecall failed\") */\n      0x04\n      dup3\n      add\n        /* \"#utility.yul\":825:846   */\n      mstore\n        /* \"#utility.yul\":882:884   */\n      0x13\n        /* \"#utility.yul\":862:880   */\n      0x24\n      dup3\n      add\n        /* \"#utility.yul\":855:885   */\n      mstore\n      shl(0x6a, 0x11195b1959d85d1958d85b1b0819985a5b1959)\n        /* \"#utility.yul\":901:919   */\n      0x44\n      dup3\n      add\n        /* \"#utility.yul\":894:943   */\n      mstore\n        /* \"#utility.yul\":960:978   */\n      0x64\n      add\n        /* \"contracts/core/VeloBrain.sol\":1048:1087  require(success, \"Delegatecall failed\") */\n      tag_11\n        /* \"#utility.yul\":641:984   */\n      jump\n        /* \"contracts/core/VeloBrain.sol\":1048:1087  require(success, \"Delegatecall failed\") */\n    tag_18:\n        /* \"contracts/core/VeloBrain.sol\":1196:1200  data */\n      dup1\n        /* \"contracts/core/VeloBrain.sol\":1190:1201  mload(data) */\n      mload\n        /* \"contracts/core/VeloBrain.sol\":1183:1187  0x20 */\n      0x20\n        /* \"contracts/core/VeloBrain.sol\":1177:1181  data */\n      dup3\n        /* \"contracts/core/VeloBrain.sol\":1173:1188  add(data, 0x20) */\n      add\n        /* \"contracts/core/VeloBrain.sol\":1166:1202  return(add(data, 0x20), mload(data)) */\n      return\n        /* \"contracts/core/VeloBrain.sol\":580:698  function upgrade(address _newImplementation) external onlyAdmin {... */\n    tag_3:\n      callvalue\n      dup1\n      iszero\n      tag_21\n      jumpi\n      0x00\n      dup1\n      revert\n    tag_21:\n      pop\n      tag_22\n      tag_23\n      calldatasize\n      0x04\n      tag_24\n      jump\t// in\n    tag_23:\n      tag_25\n      jump\t// in\n    tag_22:\n      stop\n        /* \"contracts/core/VeloBrain.sol\":144:173  address public implementation */\n    tag_4:\n      callvalue\n      dup1\n      iszero\n      tag_26\n      jumpi\n      0x00\n      dup1\n      revert\n    tag_26:\n      pop\n      sload(0x00)\n      tag_27\n      swap1\n      sub(shl(0xa0, 0x01), 0x01)\n      and\n      dup2\n      jump\n    tag_27:\n      mload(0x40)\n      sub(shl(0xa0, 0x01), 0x01)\n        /* \"#utility.yul\":1444:1476   */\n      swap1\n      swap2\n      and\n        /* \"#utility.yul\":1426:1477   */\n      dup2\n      mstore\n        /* \"#utility.yul\":1414:1416   */\n      0x20\n        /* \"#utility.yul\":1399:1417   */\n      add\n        /* \"contracts/core/VeloBrain.sol\":144:173  address public implementation */\n      mload(0x40)\n      dup1\n      swap2\n      sub\n      swap1\n      return\n        /* \"contracts/core/VeloBrain.sol\":180:200  address public admin */\n    tag_5:\n      callvalue\n      dup1\n      iszero\n      tag_31\n      jumpi\n      0x00\n      dup1\n      revert\n    tag_31:\n      pop\n      sload(0x01)\n      tag_27\n      swap1\n      sub(shl(0xa0, 0x01), 0x01)\n      and\n      dup2\n      jump\n        /* \"contracts/core/VeloBrain.sol\":580:698  function upgrade(address _newImplementation) external onlyAdmin {... */\n    tag_25:\n        /* \"contracts/core/VeloBrain.sol\":481:486  admin */\n      and(sub(shl(0xa0, 0x01), 0x01), sload(0x01))\n        /* \"contracts/core/VeloBrain.sol\":467:477  msg.sender */\n      caller\n        /* \"contracts/core/VeloBrain.sol\":467:486  msg.sender == admin */\n      eq\n        /* \"contracts/core/VeloBrain.sol\":459:500  require(msg.sender == admin, \"Not admin\") */\n      tag_36\n      jumpi\n      mload(0x40)\n      shl(0xe5, 0x461bcd)\n      dup2\n      mstore\n        /* \"#utility.yul\":1690:1692   */\n      0x20\n        /* \"contracts/core/VeloBrain.sol\":459:500  require(msg.sender == admin, \"Not admin\") */\n      0x04\n      dup3\n      add\n        /* \"#utility.yul\":1672:1693   */\n      mstore\n        /* \"#utility.yul\":1729:1730   */\n      0x09\n        /* \"#utility.yul\":1709:1727   */\n      0x24\n      dup3\n      add\n        /* \"#utility.yul\":1702:1731   */\n      mstore\n      shl(0xb9, 0x2737ba1030b236b4b7)\n        /* \"#utility.yul\":1747:1765   */\n      0x44\n      dup3\n      add\n        /* \"#utility.yul\":1740:1779   */\n      mstore\n        /* \"#utility.yul\":1796:1814   */\n      0x64\n      add\n        /* \"contracts/core/VeloBrain.sol\":459:500  require(msg.sender == admin, \"Not admin\") */\n      tag_11\n        /* \"#utility.yul\":1488:1820   */\n      jump\n        /* \"contracts/core/VeloBrain.sol\":459:500  require(msg.sender == admin, \"Not admin\") */\n    tag_36:\n        /* \"contracts/core/VeloBrain.sol\":655:669  implementation */\n      0x00\n        /* \"contracts/core/VeloBrain.sol\":655:690  implementation = _newImplementation */\n      dup1\n      sload\n      not(sub(shl(0xa0, 0x01), 0x01))\n      and\n      sub(shl(0xa0, 0x01), 0x01)\n      swap3\n      swap1\n      swap3\n      and\n      swap2\n      swap1\n      swap2\n      or\n      swap1\n      sstore\n        /* \"contracts/core/VeloBrain.sol\":580:698  function upgrade(address _newImplementation) external onlyAdmin {... */\n      jump\t// out\n        /* \"#utility.yul\":365:636   */\n    tag_14:\n        /* \"#utility.yul\":548:554   */\n      dup2\n        /* \"#utility.yul\":540:546   */\n      dup4\n        /* \"#utility.yul\":535:538   */\n      dup3\n        /* \"#utility.yul\":522:555   */\n      calldatacopy\n        /* \"#utility.yul\":504:507   */\n      0x00\n        /* \"#utility.yul\":574:590   */\n      swap2\n      add\n        /* \"#utility.yul\":599:612   */\n      swap1\n      dup2\n      mstore\n        /* \"#utility.yul\":574:590   */\n      swap2\n        /* \"#utility.yul\":365:636   */\n      swap1\n      pop\n      jump\t// out\n        /* \"#utility.yul\":989:1275   */\n    tag_24:\n        /* \"#utility.yul\":1048:1054   */\n      0x00\n        /* \"#utility.yul\":1101:1103   */\n      0x20\n        /* \"#utility.yul\":1089:1098   */\n      dup3\n        /* \"#utility.yul\":1080:1087   */\n      dup5\n        /* \"#utility.yul\":1076:1099   */\n      sub\n        /* \"#utility.yul\":1072:1104   */\n      slt\n        /* \"#utility.yul\":1069:1121   */\n      iszero\n      tag_45\n      jumpi\n        /* \"#utility.yul\":1117:1118   */\n      0x00\n        /* \"#utility.yul\":1114:1115   */\n      dup1\n        /* \"#utility.yul\":1107:1119   */\n      revert\n        /* \"#utility.yul\":1069:1121   */\n    tag_45:\n        /* \"#utility.yul\":1143:1166   */\n      dup2\n      calldataload\n      sub(shl(0xa0, 0x01), 0x01)\n        /* \"#utility.yul\":1195:1226   */\n      dup2\n      and\n        /* \"#utility.yul\":1185:1227   */\n      dup2\n      eq\n        /* \"#utility.yul\":1175:1245   */\n      tag_46\n      jumpi\n        /* \"#utility.yul\":1241:1242   */\n      0x00\n        /* \"#utility.yul\":1238:1239   */\n      dup1\n        /* \"#utility.yul\":1231:1243   */\n      revert\n        /* \"#utility.yul\":1175:1245   */\n    tag_46:\n        /* \"#utility.yul\":1264:1269   */\n      swap4\n        /* \"#utility.yul\":989:1275   */\n      swap3\n      pop\n      pop\n      pop\n      jump\t// out\n\n    auxdata: 0xa2646970667358221220daccf9150e2213b80a31c99ddd72aea6914d1ba4aba3251fe258de2a844f400164736f6c634300081e0033\n}\n",
				"bytecode": {
					"linkReferences": {},
					"object": "6080604052348015600f57600080fd5b5060405161033b38038061033b833981016040819052602c91605e565b60018054336001600160a01b031991821617909155600080549091166001600160a01b0392909216919091179055608c565b600060208284031215606f57600080fd5b81516001600160a01b0381168114608557600080fd5b9392505050565b6102a08061009b6000396000f3fe6080604052600436106100385760003560e01c80630900f010146101445780635c60da1b14610166578063f851a440146101a25761003f565b3661003f57005b6000546001600160a01b0316806100965760405162461bcd60e51b8152602060048201526016602482015275125b5c1b195b595b9d185d1a5bdb881b9bdd081cd95d60521b60448201526064015b60405180910390fd5b600080826001600160a01b03166000366040516100b492919061022a565b600060405180830381855af49150503d80600081146100ef576040519150601f19603f3d011682016040523d82523d6000602084013e6100f4565b606091505b50915091508161013c5760405162461bcd60e51b815260206004820152601360248201527211195b1959d85d1958d85b1b0819985a5b1959606a1b604482015260640161008d565b805160208201f35b34801561015057600080fd5b5061016461015f36600461023a565b6101c2565b005b34801561017257600080fd5b50600054610186906001600160a01b031681565b6040516001600160a01b03909116815260200160405180910390f35b3480156101ae57600080fd5b50600154610186906001600160a01b031681565b6001546001600160a01b031633146102085760405162461bcd60e51b81526020600482015260096024820152682737ba1030b236b4b760b91b604482015260640161008d565b600080546001600160a01b0319166001600160a01b0392909216919091179055565b8183823760009101908152919050565b60006020828403121561024c57600080fd5b81356001600160a01b038116811461026357600080fd5b939250505056fea2646970667358221220daccf9150e2213b80a31c99ddd72aea6914d1ba4aba3251fe258de2a844f400164736f6c634300081e0033",
					"opcodes": "PUSH1 0x80 PUSH1 0x40 MSTORE CALLVALUE DUP1 ISZERO PUSH1 0xF JUMPI PUSH1 0x0 DUP1 REVERT JUMPDEST POP PUSH1 0x40 MLOAD PUSH2 0x33B CODESIZE SUB DUP1 PUSH2 0x33B DUP4 CODECOPY DUP2 ADD PUSH1 0x40 DUP2 SWAP1 MSTORE PUSH1 0x2C SWAP2 PUSH1 0x5E JUMP JUMPDEST PUSH1 0x1 DUP1 SLOAD CALLER PUSH1 0x1 PUSH1 0x1 PUSH1 0xA0 SHL SUB NOT SWAP2 DUP3 AND OR SWAP1 SWAP2 SSTORE PUSH1 0x0 DUP1 SLOAD SWAP1 SWAP2 AND PUSH1 0x1 PUSH1 0x1 PUSH1 0xA0 SHL SUB SWAP3 SWAP1 SWAP3 AND SWAP2 SWAP1 SWAP2 OR SWAP1 SSTORE PUSH1 0x8C JUMP JUMPDEST PUSH1 0x0 PUSH1 0x20 DUP3 DUP5 SUB SLT ISZERO PUSH1 0x6F JUMPI PUSH1 0x0 DUP1 REVERT JUMPDEST DUP2 MLOAD PUSH1 0x1 PUSH1 0x1 PUSH1 0xA0 SHL SUB DUP2 AND DUP2 EQ PUSH1 0x85 JUMPI PUSH1 0x0 DUP1 REVERT JUMPDEST SWAP4 SWAP3 POP POP POP JUMP JUMPDEST PUSH2 0x2A0 DUP1 PUSH2 0x9B PUSH1 0x0 CODECOPY PUSH1 0x0 RETURN INVALID PUSH1 0x80 PUSH1 0x40 MSTORE PUSH1 0x4 CALLDATASIZE LT PUSH2 0x38 JUMPI PUSH1 0x0 CALLDATALOAD PUSH1 0xE0 SHR DUP1 PUSH4 0x900F010 EQ PUSH2 0x144 JUMPI DUP1 PUSH4 0x5C60DA1B EQ PUSH2 0x166 JUMPI DUP1 PUSH4 0xF851A440 EQ PUSH2 0x1A2 JUMPI PUSH2 0x3F JUMP JUMPDEST CALLDATASIZE PUSH2 0x3F JUMPI STOP JUMPDEST PUSH1 0x0 SLOAD PUSH1 0x1 PUSH1 0x1 PUSH1 0xA0 SHL SUB AND DUP1 PUSH2 0x96 JUMPI PUSH1 0x40 MLOAD PUSH3 0x461BCD PUSH1 0xE5 SHL DUP2 MSTORE PUSH1 0x20 PUSH1 0x4 DUP3 ADD MSTORE PUSH1 0x16 PUSH1 0x24 DUP3 ADD MSTORE PUSH22 0x125B5C1B195B595B9D185D1A5BDB881B9BDD081CD95D PUSH1 0x52 SHL PUSH1 0x44 DUP3 ADD MSTORE PUSH1 0x64 ADD JUMPDEST PUSH1 0x40 MLOAD DUP1 SWAP2 SUB SWAP1 REVERT JUMPDEST PUSH1 0x0 DUP1 DUP3 PUSH1 0x1 PUSH1 0x1 PUSH1 0xA0 SHL SUB AND PUSH1 0x0 CALLDATASIZE PUSH1 0x40 MLOAD PUSH2 0xB4 SWAP3 SWAP2 SWAP1 PUSH2 0x22A JUMP JUMPDEST PUSH1 0x0 PUSH1 0x40 MLOAD DUP1 DUP4 SUB DUP2 DUP6 GAS DELEGATECALL SWAP2 POP POP RETURNDATASIZE DUP1 PUSH1 0x0 DUP2 EQ PUSH2 0xEF JUMPI PUSH1 0x40 MLOAD SWAP2 POP PUSH1 0x1F NOT PUSH1 0x3F RETURNDATASIZE ADD AND DUP3 ADD PUSH1 0x40 MSTORE RETURNDATASIZE DUP3 MSTORE RETURNDATASIZE PUSH1 0x0 PUSH1 0x20 DUP5 ADD RETURNDATACOPY PUSH2 0xF4 JUMP JUMPDEST PUSH1 0x60 SWAP2 POP JUMPDEST POP SWAP2 POP SWAP2 POP DUP2 PUSH2 0x13C JUMPI PUSH1 0x40 MLOAD PUSH3 0x461BCD PUSH1 0xE5 SHL DUP2 MSTORE PUSH1 0x20 PUSH1 0x4 DUP3 ADD MSTORE PUSH1 0x13 PUSH1 0x24 DUP3 ADD MSTORE PUSH19 0x11195B1959D85D1958D85B1B0819985A5B1959 PUSH1 0x6A SHL PUSH1 0x44 DUP3 ADD MSTORE PUSH1 0x64 ADD PUSH2 0x8D JUMP JUMPDEST DUP1 MLOAD PUSH1 0x20 DUP3 ADD RETURN JUMPDEST CALLVALUE DUP1 ISZERO PUSH2 0x150 JUMPI PUSH1 0x0 DUP1 REVERT JUMPDEST POP PUSH2 0x164 PUSH2 0x15F CALLDATASIZE PUSH1 0x4 PUSH2 0x23A JUMP JUMPDEST PUSH2 0x1C2 JUMP JUMPDEST STOP JUMPDEST CALLVALUE DUP1 ISZERO PUSH2 0x172 JUMPI PUSH1 0x0 DUP1 REVERT JUMPDEST POP PUSH1 0x0 SLOAD PUSH2 0x186 SWAP1 PUSH1 0x1 PUSH1 0x1 PUSH1 0xA0 SHL SUB AND DUP2 JUMP JUMPDEST PUSH1 0x40 MLOAD PUSH1 0x1 PUSH1 0x1 PUSH1 0xA0 SHL SUB SWAP1 SWAP2 AND DUP2 MSTORE PUSH1 0x20 ADD PUSH1 0x40 MLOAD DUP1 SWAP2 SUB SWAP1 RETURN JUMPDEST CALLVALUE DUP1 ISZERO PUSH2 0x1AE JUMPI PUSH1 0x0 DUP1 REVERT JUMPDEST POP PUSH1 0x1 SLOAD PUSH2 0x186 SWAP1 PUSH1 0x1 PUSH1 0x1 PUSH1 0xA0 SHL SUB AND DUP2 JUMP JUMPDEST PUSH1 0x1 SLOAD PUSH1 0x1 PUSH1 0x1 PUSH1 0xA0 SHL SUB AND CALLER EQ PUSH2 0x208 JUMPI PUSH1 0x40 MLOAD PUSH3 0x461BCD PUSH1 0xE5 SHL DUP2 MSTORE PUSH1 0x20 PUSH1 0x4 DUP3 ADD MSTORE PUSH1 0x9 PUSH1 0x24 DUP3 ADD MSTORE PUSH9 0x2737BA1030B236B4B7 PUSH1 0xB9 SHL PUSH1 0x44 DUP3 ADD MSTORE PUSH1 0x64 ADD PUSH2 0x8D JUMP JUMPDEST PUSH1 0x0 DUP1 SLOAD PUSH1 0x1 PUSH1 0x1 PUSH1 0xA0 SHL SUB NOT AND PUSH1 0x1 PUSH1 0x1 PUSH1 0xA0 SHL SUB SWAP3 SWAP1 SWAP3 AND SWAP2 SWAP1 SWAP2 OR SWAP1 SSTORE JUMP JUMPDEST DUP2 DUP4 DUP3 CALLDATACOPY PUSH1 0x0 SWAP2 ADD SWAP1 DUP2 MSTORE SWAP2 SWAP1 POP JUMP JUMPDEST PUSH1 0x0 PUSH1 0x20 DUP3 DUP5 SUB SLT ISZERO PUSH2 0x24C JUMPI PUSH1 0x0 DUP1 REVERT JUMPDEST DUP2 CALLDATALOAD PUSH1 0x1 PUSH1 0x1 PUSH1 0xA0 SHL SUB DUP2 AND DUP2 EQ PUSH2 0x263 JUMPI PUSH1 0x0 DUP1 REVERT JUMPDEST SWAP4 SWAP3 POP POP POP JUMP INVALID LOG2 PUSH5 0x6970667358 0x22 SLT KECCAK256 0xDA 0xCC EXTDELEGATECALL ISZERO 0xE 0x22 SGT 0xB8 EXP BALANCE 0xC9 SWAP14 0xDD PUSH19 0xAEA6914D1BA4ABA3251FE258DE2A844F400164 PUSH20 0x6F6C634300081E00330000000000000000000000 "
				},
				"gasEstimates": {
					"creation": {
						"codeDepositCost": "134400",
						"executionCost": "infinite",
						"totalCost": "infinite"
					},
					"external": {
						"": "infinite",
						"admin()": "2347",
						"implementation()": "2325",
						"upgrade(address)": "26654"
					}
				},
				"methodIdentifiers": {
					"admin()": "f851a440",
					"implementation()": "5c60da1b",
					"upgrade(address)": "0900f010"
				}
			},
			"storageLayout": {
				"storage": [
					{
						"astId": 3,
						"contract": "contracts/core/VeloBrain.sol:Proxy",
						"label": "implementation",
						"offset": 0,
						"slot": "0",
						"type": "t_address"
					},
					{
						"astId": 5,
						"contract": "contracts/core/VeloBrain.sol:Proxy",
						"label": "admin",
						"offset": 0,
						"slot": "1",
						"type": "t_address"
					}
				],
				"types": {
					"t_address": {
						"encoding": "inplace",
						"label": "address",
						"numberOfBytes": "20"
					}
				}
			},
			"userdoc": {
				"kind": "user",
				"methods": {},
				"version": 1
			}
		}
	}
}