{
	"contracts/core/VeloSwapV3.sol": {
		"V3Swap": {
			"abi": [
				{
					"inputs": [],
					"stateMutability": "nonpayable",
					"type": "constructor"
				},
				{
					"anonymous": false,
					"inputs": [
						{
							"indexed": true,
							"internalType": "address",
							"name": "user",
							"type": "address"
						},
						{
							"indexed": false,
							"internalType": "uint256",
							"name": "amountIn",
							"type": "uint256"
						},
						{
							"indexed": false,
							"internalType": "uint256",
							"name": "amountOut",
							"type": "uint256"
						}
					],
					"name": "SwapExecuted",
					"type": "event"
				},
				{
					"inputs": [
						{
							"internalType": "uint256",
							"name": "amountIn",
							"type": "uint256"
						}
					],
					"name": "Swap0for1",
					"outputs": [],
					"stateMutability": "payable",
					"type": "function"
				},
				{
					"inputs": [
						{
							"internalType": "uint256",
							"name": "amountIn",
							"type": "uint256"
						}
					],
					"name": "Swap1for0",
					"outputs": [],
					"stateMutability": "payable",
					"type": "function"
				},
				{
					"inputs": [
						{
							"internalType": "address",
							"name": "newAdmin",
							"type": "address"
						}
					],
					"name": "_newAdmin",
					"outputs": [],
					"stateMutability": "nonpayable",
					"type": "function"
				},
				{
					"inputs": [
						{
							"internalType": "address",
							"name": "newPool",
							"type": "address"
						}
					],
					"name": "_newPool",
					"outputs": [],
					"stateMutability": "nonpayable",
					"type": "function"
				},
				{
					"inputs": [],
					"name": "admin",
					"outputs": [
						{
							"internalType": "address",
							"name": "",
							"type": "address"
						}
					],
					"stateMutability": "view",
					"type": "function"
				},
				{
					"inputs": [
						{
							"internalType": "uint256",
							"name": "approve0",
							"type": "uint256"
						},
						{
							"internalType": "uint256",
							"name": "approve1",
							"type": "uint256"
						}
					],
					"name": "approveTokens",
					"outputs": [],
					"stateMutability": "payable",
					"type": "function"
				},
				{
					"inputs": [
						{
							"internalType": "uint256",
							"name": "",
							"type": "uint256"
						}
					],
					"name": "deposits",
					"outputs": [
						{
							"internalType": "address",
							"name": "owner",
							"type": "address"
						},
						{
							"internalType": "uint128",
							"name": "liquidity",
							"type": "uint128"
						},
						{
							"internalType": "address",
							"name": "token0",
							"type": "address"
						},
						{
							"internalType": "address",
							"name": "token1",
							"type": "address"
						}
					],
					"stateMutability": "view",
					"type": "function"
				},
				{
					"inputs": [],
					"name": "farmNFT",
					"outputs": [
						{
							"internalType": "address",
							"name": "",
							"type": "address"
						}
					],
					"stateMutability": "view",
					"type": "function"
				},
				{
					"inputs": [],
					"name": "oracle",
					"outputs": [
						{
							"internalType": "address",
							"name": "",
							"type": "address"
						}
					],
					"stateMutability": "view",
					"type": "function"
				},
				{
					"inputs": [],
					"name": "pool",
					"outputs": [
						{
							"internalType": "address",
							"name": "",
							"type": "address"
						}
					],
					"stateMutability": "view",
					"type": "function"
				},
				{
					"inputs": [],
					"name": "spaceMultiplier",
					"outputs": [
						{
							"internalType": "int24",
							"name": "",
							"type": "int24"
						}
					],
					"stateMutability": "view",
					"type": "function"
				},
				{
					"inputs": [],
					"name": "tickSpacing",
					"outputs": [
						{
							"internalType": "int24",
							"name": "",
							"type": "int24"
						}
					],
					"stateMutability": "view",
					"type": "function"
				},
				{
					"inputs": [],
					"name": "token0",
					"outputs": [
						{
							"internalType": "address",
							"name": "",
							"type": "address"
						}
					],
					"stateMutability": "view",
					"type": "function"
				},
				{
					"inputs": [],
					"name": "token1",
					"outputs": [
						{
							"internalType": "address",
							"name": "",
							"type": "address"
						}
					],
					"stateMutability": "view",
					"type": "function"
				},
				{
					"inputs": [
						{
							"internalType": "int256",
							"name": "amount0Delta",
							"type": "int256"
						},
						{
							"internalType": "int256",
							"name": "amount1Delta",
							"type": "int256"
						},
						{
							"internalType": "bytes",
							"name": "",
							"type": "bytes"
						}
					],
					"name": "uniswapV3SwapCallback",
					"outputs": [],
					"stateMutability": "nonpayable",
					"type": "function"
				}
			],
			"devdoc": {
				"kind": "dev",
				"methods": {},
				"version": 1
			},
			"evm": {
				"assembly": "    /* \"contracts/core/VeloSwapV3.sol\":1900:6427  contract V3Swap is ICLSwapCallback {\r... */\n  mstore(0x40, 0x80)\n    /* \"contracts/core/VeloSwapV3.sol\":2220:2286  address public oracle = 0xf0F8249cA6493AaEbBF971B3a2FD8A2e6736981E */\n  0x05\n  dup1\n  sload\n  not(sub(shl(0xa0, 0x01), 0x01))\n  and\n    /* \"contracts/core/VeloSwapV3.sol\":2244:2286  0xf0F8249cA6493AaEbBF971B3a2FD8A2e6736981E */\n  0xf0f8249ca6493aaebbf971b3a2fd8a2e6736981e\n    /* \"contracts/core/VeloSwapV3.sol\":2220:2286  address public oracle = 0xf0F8249cA6493AaEbBF971B3a2FD8A2e6736981E */\n  or\n  swap1\n  sstore\n    /* \"contracts/core/VeloSwapV3.sol\":2566:2617  constructor() {\r... */\n  callvalue\n  dup1\n  iszero\n  tag_1\n  jumpi\n  0x00\n  dup1\n  revert\ntag_1:\n  pop\n    /* \"contracts/core/VeloSwapV3.sol\":2591:2596  admin */\n  0x04\n    /* \"contracts/core/VeloSwapV3.sol\":2591:2609  admin = msg.sender */\n  dup1\n  sload\n  not(sub(shl(0xa0, 0x01), 0x01))\n  and\n    /* \"contracts/core/VeloSwapV3.sol\":2599:2609  msg.sender */\n  caller\n    /* \"contracts/core/VeloSwapV3.sol\":2591:2609  admin = msg.sender */\n  or\n  swap1\n  sstore\n    /* \"contracts/core/VeloSwapV3.sol\":1900:6427  contract V3Swap is ICLSwapCallback {\r... */\n  dataSize(sub_0)\n  dup1\n  dataOffset(sub_0)\n  0x00\n  codecopy\n  0x00\n  return\nstop\n\nsub_0: assembly {\n        /* \"contracts/core/VeloSwapV3.sol\":1900:6427  contract V3Swap is ICLSwapCallback {\r... */\n      mstore(0x40, 0x80)\n      jumpi(tag_1, lt(calldatasize, 0x04))\n      shr(0xe0, calldataload(0x00))\n      dup1\n      0xd2aca8cd\n      gt\n      tag_17\n      jumpi\n      dup1\n      0xeb20ad47\n      gt\n      tag_18\n      jumpi\n      dup1\n      0xeb20ad47\n      eq\n      tag_13\n      jumpi\n      dup1\n      0xf851a440\n      eq\n      tag_14\n      jumpi\n      dup1\n      0xfa461e33\n      eq\n      tag_15\n      jumpi\n      dup1\n      0xfd1c1518\n      eq\n      tag_16\n      jumpi\n      jump(tag_1)\n    tag_18:\n      dup1\n      0xd2aca8cd\n      eq\n      tag_9\n      jumpi\n      dup1\n      0xda802f80\n      eq\n      tag_10\n      jumpi\n      dup1\n      0xdb638298\n      eq\n      tag_11\n      jumpi\n      dup1\n      0xe6f4d0aa\n      eq\n      tag_12\n      jumpi\n      jump(tag_1)\n    tag_17:\n      dup1\n      0x7dc0d1d0\n      gt\n      tag_19\n      jumpi\n      dup1\n      0x7dc0d1d0\n      eq\n      tag_5\n      jumpi\n      dup1\n      0xb02c43d0\n      eq\n      tag_6\n      jumpi\n      dup1\n      0xd0c93a7c\n      eq\n      tag_7\n      jumpi\n      dup1\n      0xd21220a7\n      eq\n      tag_8\n      jumpi\n      jump(tag_1)\n    tag_19:\n      dup1\n      0x0dfe1681\n      eq\n      tag_2\n      jumpi\n      dup1\n      0x16f0115b\n      eq\n      tag_3\n      jumpi\n      dup1\n      0x1c335703\n      eq\n      tag_4\n      jumpi\n    tag_1:\n      0x00\n      dup1\n      revert\n        /* \"contracts/core/VeloSwapV3.sol\":1998:2019  address public token0 */\n    tag_2:\n      callvalue\n      dup1\n      iszero\n      tag_20\n      jumpi\n      0x00\n      dup1\n      revert\n    tag_20:\n      pop\n      tag_21\n      tag_22\n      jump\t// in\n    tag_21:\n      mload(0x40)\n      tag_23\n      swap2\n      swap1\n      tag_24\n      jump\t// in\n    tag_23:\n      mload(0x40)\n      dup1\n      swap2\n      sub\n      swap1\n      return\n        /* \"contracts/core/VeloSwapV3.sol\":1942:1961  address public pool */\n    tag_3:\n      callvalue\n      dup1\n      iszero\n      tag_25\n      jumpi\n      0x00\n      dup1\n      revert\n    tag_25:\n      pop\n      tag_21\n      tag_27\n      jump\t// in\n        /* \"contracts/core/VeloSwapV3.sol\":6226:6422  function approveTokens(uint approve0, uint approve1) external payable {\r... */\n    tag_4:\n      tag_29\n      tag_30\n      calldatasize\n      0x04\n      tag_31\n      jump\t// in\n    tag_30:\n      tag_32\n      jump\t// in\n    tag_29:\n      stop\n        /* \"contracts/core/VeloSwapV3.sol\":2220:2286  address public oracle = 0xf0F8249cA6493AaEbBF971B3a2FD8A2e6736981E */\n    tag_5:\n      callvalue\n      dup1\n      iszero\n      tag_33\n      jumpi\n      0x00\n      dup1\n      revert\n    tag_33:\n      pop\n      tag_21\n      tag_35\n      jump\t// in\n        /* \"contracts/core/VeloSwapV3.sol\":2428:2471  mapping(uint256 => Deposit) public deposits */\n    tag_6:\n      callvalue\n      dup1\n      iszero\n      tag_37\n      jumpi\n      0x00\n      dup1\n      revert\n    tag_37:\n      pop\n      tag_38\n      tag_39\n      calldatasize\n      0x04\n      tag_40\n      jump\t// in\n    tag_39:\n      tag_41\n      jump\t// in\n    tag_38:\n      mload(0x40)\n      tag_23\n      swap5\n      swap4\n      swap3\n      swap2\n      swap1\n      tag_43\n      jump\t// in\n        /* \"contracts/core/VeloSwapV3.sol\":2154:2178  int24 public tickSpacing */\n    tag_7:\n      callvalue\n      dup1\n      iszero\n      tag_44\n      jumpi\n      0x00\n      dup1\n      revert\n    tag_44:\n      pop\n      tag_45\n      tag_46\n      jump\t// in\n    tag_45:\n      mload(0x40)\n      tag_23\n      swap2\n      swap1\n      tag_48\n      jump\t// in\n        /* \"contracts/core/VeloSwapV3.sol\":2048:2069  address public token1 */\n    tag_8:\n      callvalue\n      dup1\n      iszero\n      tag_49\n      jumpi\n      0x00\n      dup1\n      revert\n    tag_49:\n      pop\n      tag_21\n      tag_51\n      jump\t// in\n        /* \"contracts/core/VeloSwapV3.sol\":2779:3133  function _newPool(address newPool) external {\r... */\n    tag_9:\n      callvalue\n      dup1\n      iszero\n      tag_53\n      jumpi\n      0x00\n      dup1\n      revert\n    tag_53:\n      pop\n      tag_29\n      tag_55\n      calldatasize\n      0x04\n      tag_56\n      jump\t// in\n    tag_55:\n      tag_57\n      jump\t// in\n        /* \"contracts/core/VeloSwapV3.sol\":2098:2120  address public farmNFT */\n    tag_10:\n      callvalue\n      dup1\n      iszero\n      tag_58\n      jumpi\n      0x00\n      dup1\n      revert\n    tag_58:\n      pop\n      tag_21\n      tag_60\n      jump\t// in\n        /* \"contracts/core/VeloSwapV3.sol\":3141:4306  function Swap0for1(uint256 amountIn) public payable {\r... */\n    tag_11:\n      tag_29\n      tag_63\n      calldatasize\n      0x04\n      tag_40\n      jump\t// in\n    tag_63:\n      tag_64\n      jump\t// in\n        /* \"contracts/core/VeloSwapV3.sol\":2625:2771  function _newAdmin(address newAdmin) external {\r... */\n    tag_12:\n      callvalue\n      dup1\n      iszero\n      tag_65\n      jumpi\n      0x00\n      dup1\n      revert\n    tag_65:\n      pop\n      tag_29\n      tag_67\n      calldatasize\n      0x04\n      tag_56\n      jump\t// in\n    tag_67:\n      tag_68\n      jump\t// in\n        /* \"contracts/core/VeloSwapV3.sol\":4314:5481  function Swap1for0(uint256 amountIn) public payable {\r... */\n    tag_13:\n      tag_29\n      tag_70\n      calldatasize\n      0x04\n      tag_40\n      jump\t// in\n    tag_70:\n      tag_71\n      jump\t// in\n        /* \"contracts/core/VeloSwapV3.sol\":2127:2147  address public admin */\n    tag_14:\n      callvalue\n      dup1\n      iszero\n      tag_72\n      jumpi\n      0x00\n      dup1\n      revert\n    tag_72:\n      pop\n      tag_21\n      tag_74\n      jump\t// in\n        /* \"contracts/core/VeloSwapV3.sol\":5559:6218  function uniswapV3SwapCallback(\r... */\n    tag_15:\n      callvalue\n      dup1\n      iszero\n      tag_76\n      jumpi\n      0x00\n      dup1\n      revert\n    tag_76:\n      pop\n      tag_29\n      tag_78\n      calldatasize\n      0x04\n      tag_79\n      jump\t// in\n    tag_78:\n      tag_80\n      jump\t// in\n        /* \"contracts/core/VeloSwapV3.sol\":2185:2213  int24 public spaceMultiplier */\n    tag_16:\n      callvalue\n      dup1\n      iszero\n      tag_81\n      jumpi\n      0x00\n      dup1\n      revert\n    tag_81:\n      pop\n      tag_45\n      tag_83\n      jump\t// in\n        /* \"contracts/core/VeloSwapV3.sol\":1998:2019  address public token0 */\n    tag_22:\n      and(sub(shl(0xa0, 0x01), 0x01), sload(0x01))\n      dup2\n      jump\t// out\n        /* \"contracts/core/VeloSwapV3.sol\":1942:1961  address public pool */\n    tag_27:\n      and(sub(shl(0xa0, 0x01), 0x01), sload(0x00))\n      dup2\n      jump\t// out\n        /* \"contracts/core/VeloSwapV3.sol\":6226:6422  function approveTokens(uint approve0, uint approve1) external payable {\r... */\n    tag_32:\n        /* \"contracts/core/VeloSwapV3.sol\":6321:6327  token0 */\n      sload(0x01)\n        /* \"contracts/core/VeloSwapV3.sol\":6337:6344  farmNFT */\n      sload(0x03)\n        /* \"contracts/core/VeloSwapV3.sol\":6307:6355  IERC20Minimal(token0).approve(farmNFT, approve0) */\n      mload(0x40)\n      shl(0xe0, 0x095ea7b3)\n      dup2\n      mstore\n      sub(shl(0xa0, 0x01), 0x01)\n        /* \"contracts/core/VeloSwapV3.sol\":6321:6327  token0 */\n      swap3\n      dup4\n      and\n      swap3\n        /* \"contracts/core/VeloSwapV3.sol\":6307:6336  IERC20Minimal(token0).approve */\n      0x095ea7b3\n      swap3\n        /* \"contracts/core/VeloSwapV3.sol\":6307:6355  IERC20Minimal(token0).approve(farmNFT, approve0) */\n      tag_86\n      swap3\n        /* \"contracts/core/VeloSwapV3.sol\":6337:6344  farmNFT */\n      swap2\n      and\n      swap1\n        /* \"contracts/core/VeloSwapV3.sol\":6346:6354  approve0 */\n      dup7\n      swap1\n        /* \"contracts/core/VeloSwapV3.sol\":6307:6355  IERC20Minimal(token0).approve(farmNFT, approve0) */\n      0x04\n      add\n      tag_87\n      jump\t// in\n    tag_86:\n      0x20\n      mload(0x40)\n      dup1\n      dup4\n      sub\n      dup2\n      0x00\n      dup8\n      dup1\n      extcodesize\n      iszero\n      dup1\n      iszero\n      tag_88\n      jumpi\n      0x00\n      dup1\n      revert\n    tag_88:\n      pop\n      gas\n      call\n      iszero\n      dup1\n      iszero\n      tag_90\n      jumpi\n      returndatasize\n      0x00\n      dup1\n      returndatacopy\n      revert(0x00, returndatasize)\n    tag_90:\n      pop\n      pop\n      pop\n      pop\n      mload(0x40)\n      returndatasize\n      not(0x1f)\n      0x1f\n      dup3\n      add\n      and\n      dup3\n      add\n      dup1\n      0x40\n      mstore\n      pop\n      dup2\n      add\n      swap1\n      tag_91\n      swap2\n      swap1\n      tag_92\n      jump\t// in\n    tag_91:\n      pop\n        /* \"contracts/core/VeloSwapV3.sol\":6380:6386  token1 */\n      sload(0x02)\n        /* \"contracts/core/VeloSwapV3.sol\":6396:6403  farmNFT */\n      sload(0x03)\n        /* \"contracts/core/VeloSwapV3.sol\":6366:6414  IERC20Minimal(token1).approve(farmNFT, approve1) */\n      mload(0x40)\n      shl(0xe0, 0x095ea7b3)\n      dup2\n      mstore\n      sub(shl(0xa0, 0x01), 0x01)\n        /* \"contracts/core/VeloSwapV3.sol\":6380:6386  token1 */\n      swap3\n      dup4\n      and\n      swap3\n        /* \"contracts/core/VeloSwapV3.sol\":6366:6395  IERC20Minimal(token1).approve */\n      0x095ea7b3\n      swap3\n        /* \"contracts/core/VeloSwapV3.sol\":6366:6414  IERC20Minimal(token1).approve(farmNFT, approve1) */\n      tag_93\n      swap3\n        /* \"contracts/core/VeloSwapV3.sol\":6396:6403  farmNFT */\n      swap2\n      and\n      swap1\n        /* \"contracts/core/VeloSwapV3.sol\":6405:6413  approve1 */\n      dup6\n      swap1\n        /* \"contracts/core/VeloSwapV3.sol\":6366:6414  IERC20Minimal(token1).approve(farmNFT, approve1) */\n      0x04\n      add\n      tag_87\n      jump\t// in\n    tag_93:\n      0x20\n      mload(0x40)\n      dup1\n      dup4\n      sub\n      dup2\n      0x00\n      dup8\n      dup1\n      extcodesize\n      iszero\n      dup1\n      iszero\n      tag_94\n      jumpi\n      0x00\n      dup1\n      revert\n    tag_94:\n      pop\n      gas\n      call\n      iszero\n      dup1\n      iszero\n      tag_96\n      jumpi\n      returndatasize\n      0x00\n      dup1\n      returndatacopy\n      revert(0x00, returndatasize)\n    tag_96:\n      pop\n      pop\n      pop\n      pop\n      mload(0x40)\n      returndatasize\n      not(0x1f)\n      0x1f\n      dup3\n      add\n      and\n      dup3\n      add\n      dup1\n      0x40\n      mstore\n      pop\n      dup2\n      add\n      swap1\n      tag_97\n      swap2\n      swap1\n      tag_92\n      jump\t// in\n    tag_97:\n      pop\n        /* \"contracts/core/VeloSwapV3.sol\":6226:6422  function approveTokens(uint approve0, uint approve1) external payable {\r... */\n      pop\n      pop\n      jump\t// out\n        /* \"contracts/core/VeloSwapV3.sol\":2220:2286  address public oracle = 0xf0F8249cA6493AaEbBF971B3a2FD8A2e6736981E */\n    tag_35:\n      and(sub(shl(0xa0, 0x01), 0x01), sload(0x05))\n      dup2\n      jump\t// out\n        /* \"contracts/core/VeloSwapV3.sol\":2428:2471  mapping(uint256 => Deposit) public deposits */\n    tag_41:\n      mstore(0x20, 0x06)\n      0x00\n      swap1\n      dup2\n      mstore\n      0x40\n      swap1\n      keccak256\n      dup1\n      sload\n      0x01\n      dup3\n      add\n      sload\n      0x02\n      dup4\n      add\n      sload\n      0x03\n      swap1\n      swap4\n      add\n      sload\n      sub(shl(0xa0, 0x01), 0x01)\n      swap3\n      dup4\n      and\n      swap4\n      sub(shl(0x80, 0x01), 0x01)\n      swap1\n      swap3\n      and\n      swap3\n      swap2\n      dup3\n      and\n      swap2\n      and\n      dup5\n      jump\t// out\n        /* \"contracts/core/VeloSwapV3.sol\":2154:2178  int24 public tickSpacing */\n    tag_46:\n      sload(0x04)\n      shl(0xa0, 0x01)\n      swap1\n      div\n      0x02\n      signextend\n      dup2\n      jump\t// out\n        /* \"contracts/core/VeloSwapV3.sol\":2048:2069  address public token1 */\n    tag_51:\n      and(sub(shl(0xa0, 0x01), 0x01), sload(0x02))\n      dup2\n      jump\t// out\n        /* \"contracts/core/VeloSwapV3.sol\":2779:3133  function _newPool(address newPool) external {\r... */\n    tag_57:\n        /* \"contracts/core/VeloSwapV3.sol\":2856:2861  admin */\n      and(sub(shl(0xa0, 0x01), 0x01), sload(0x04))\n        /* \"contracts/core/VeloSwapV3.sol\":2842:2852  msg.sender */\n      caller\n        /* \"contracts/core/VeloSwapV3.sol\":2842:2861  msg.sender == admin */\n      eq\n        /* \"contracts/core/VeloSwapV3.sol\":2834:2888  require(msg.sender == admin, \"Only owner can do this\") */\n      tag_99\n      jumpi\n      mload(0x40)\n      shl(0xe5, 0x461bcd)\n      dup2\n      mstore\n      0x04\n      add\n      tag_100\n      swap1\n      tag_101\n      jump\t// in\n    tag_100:\n      mload(0x40)\n      dup1\n      swap2\n      sub\n      swap1\n      revert\n    tag_99:\n        /* \"contracts/core/VeloSwapV3.sol\":2899:2903  pool */\n      0x00\n        /* \"contracts/core/VeloSwapV3.sol\":2899:2913  pool = newPool */\n      dup1\n      sload\n      not(sub(shl(0xa0, 0x01), 0x01))\n      and\n      sub(shl(0xa0, 0x01), 0x01)\n      dup4\n      dup2\n      and\n      swap2\n      swap1\n      swap2\n      or\n      swap2\n      dup3\n      swap1\n      sstore\n        /* \"contracts/core/VeloSwapV3.sol\":2933:2964  ICLPoolConstants(pool).token0() */\n      0x40\n      dup1\n      mload\n      shl(0xe0, 0x0dfe1681)\n      dup2\n      mstore\n      swap1\n      mload\n        /* \"contracts/core/VeloSwapV3.sol\":2950:2954  pool */\n      swap3\n      swap1\n      swap2\n      and\n      swap2\n        /* \"contracts/core/VeloSwapV3.sol\":2933:2962  ICLPoolConstants(pool).token0 */\n      0x0dfe1681\n      swap2\n        /* \"contracts/core/VeloSwapV3.sol\":2933:2964  ICLPoolConstants(pool).token0() */\n      0x04\n      dup1\n      dup3\n      add\n      swap3\n      0x20\n      swap3\n      swap1\n      swap2\n      swap1\n      dup3\n      swap1\n      sub\n      add\n      dup2\n        /* \"contracts/core/VeloSwapV3.sol\":2950:2954  pool */\n      dup7\n        /* \"contracts/core/VeloSwapV3.sol\":2933:2964  ICLPoolConstants(pool).token0() */\n      dup1\n      extcodesize\n      iszero\n      dup1\n      iszero\n      tag_102\n      jumpi\n      0x00\n      dup1\n      revert\n    tag_102:\n      pop\n      gas\n      staticcall\n      iszero\n      dup1\n      iszero\n      tag_104\n      jumpi\n      returndatasize\n      0x00\n      dup1\n      returndatacopy\n      revert(0x00, returndatasize)\n    tag_104:\n      pop\n      pop\n      pop\n      pop\n      mload(0x40)\n      returndatasize\n      not(0x1f)\n      0x1f\n      dup3\n      add\n      and\n      dup3\n      add\n      dup1\n      0x40\n      mstore\n      pop\n      dup2\n      add\n      swap1\n      tag_105\n      swap2\n      swap1\n      tag_106\n      jump\t// in\n    tag_105:\n        /* \"contracts/core/VeloSwapV3.sol\":2924:2930  token0 */\n      0x01\n        /* \"contracts/core/VeloSwapV3.sol\":2924:2964  token0 = ICLPoolConstants(pool).token0() */\n      dup1\n      sload\n      not(sub(shl(0xa0, 0x01), 0x01))\n      and\n      sub(shl(0xa0, 0x01), 0x01)\n      swap3\n      dup4\n      and\n      or\n      swap1\n      sstore\n      0x00\n        /* \"contracts/core/VeloSwapV3.sol\":3001:3005  pool */\n      sload\n        /* \"contracts/core/VeloSwapV3.sol\":2984:3015  ICLPoolConstants(pool).token1() */\n      0x40\n      dup1\n      mload\n      shl(0xe0, 0xd21220a7)\n      dup2\n      mstore\n      swap1\n      mload\n        /* \"contracts/core/VeloSwapV3.sol\":3001:3005  pool */\n      swap2\n      swap1\n      swap3\n      and\n      swap2\n        /* \"contracts/core/VeloSwapV3.sol\":2984:3013  ICLPoolConstants(pool).token1 */\n      0xd21220a7\n      swap2\n        /* \"contracts/core/VeloSwapV3.sol\":2984:3015  ICLPoolConstants(pool).token1() */\n      0x04\n      dup1\n      dup4\n      add\n      swap3\n      0x20\n      swap3\n      swap2\n      swap1\n      dup3\n      swap1\n      sub\n      add\n      dup2\n        /* \"contracts/core/VeloSwapV3.sol\":3001:3005  pool */\n      dup7\n        /* \"contracts/core/VeloSwapV3.sol\":2984:3015  ICLPoolConstants(pool).token1() */\n      dup1\n      extcodesize\n      iszero\n      dup1\n      iszero\n      tag_107\n      jumpi\n      0x00\n      dup1\n      revert\n    tag_107:\n      pop\n      gas\n      staticcall\n      iszero\n      dup1\n      iszero\n      tag_109\n      jumpi\n      returndatasize\n      0x00\n      dup1\n      returndatacopy\n      revert(0x00, returndatasize)\n    tag_109:\n      pop\n      pop\n      pop\n      pop\n      mload(0x40)\n      returndatasize\n      not(0x1f)\n      0x1f\n      dup3\n      add\n      and\n      dup3\n      add\n      dup1\n      0x40\n      mstore\n      pop\n      dup2\n      add\n      swap1\n      tag_110\n      swap2\n      swap1\n      tag_106\n      jump\t// in\n    tag_110:\n        /* \"contracts/core/VeloSwapV3.sol\":2975:2981  token1 */\n      0x02\n        /* \"contracts/core/VeloSwapV3.sol\":2975:3015  token1 = ICLPoolConstants(pool).token1() */\n      dup1\n      sload\n      not(sub(shl(0xa0, 0x01), 0x01))\n      and\n      sub(shl(0xa0, 0x01), 0x01)\n      swap3\n      dup4\n      and\n      or\n      swap1\n      sstore\n      0x00\n        /* \"contracts/core/VeloSwapV3.sol\":3053:3057  pool */\n      sload\n        /* \"contracts/core/VeloSwapV3.sol\":3036:3064  ICLPoolConstants(pool).nft() */\n      0x40\n      dup1\n      mload\n      shl(0xe1, 0x23e66501)\n      dup2\n      mstore\n      swap1\n      mload\n        /* \"contracts/core/VeloSwapV3.sol\":3053:3057  pool */\n      swap2\n      swap1\n      swap3\n      and\n      swap2\n        /* \"contracts/core/VeloSwapV3.sol\":3036:3062  ICLPoolConstants(pool).nft */\n      0x47ccca02\n      swap2\n        /* \"contracts/core/VeloSwapV3.sol\":3036:3064  ICLPoolConstants(pool).nft() */\n      0x04\n      dup1\n      dup4\n      add\n      swap3\n      0x20\n      swap3\n      swap2\n      swap1\n      dup3\n      swap1\n      sub\n      add\n      dup2\n        /* \"contracts/core/VeloSwapV3.sol\":3053:3057  pool */\n      dup7\n        /* \"contracts/core/VeloSwapV3.sol\":3036:3064  ICLPoolConstants(pool).nft() */\n      dup1\n      extcodesize\n      iszero\n      dup1\n      iszero\n      tag_111\n      jumpi\n      0x00\n      dup1\n      revert\n    tag_111:\n      pop\n      gas\n      staticcall\n      iszero\n      dup1\n      iszero\n      tag_113\n      jumpi\n      returndatasize\n      0x00\n      dup1\n      returndatacopy\n      revert(0x00, returndatasize)\n    tag_113:\n      pop\n      pop\n      pop\n      pop\n      mload(0x40)\n      returndatasize\n      not(0x1f)\n      0x1f\n      dup3\n      add\n      and\n      dup3\n      add\n      dup1\n      0x40\n      mstore\n      pop\n      dup2\n      add\n      swap1\n      tag_114\n      swap2\n      swap1\n      tag_106\n      jump\t// in\n    tag_114:\n        /* \"contracts/core/VeloSwapV3.sol\":3026:3033  farmNFT */\n      0x03\n        /* \"contracts/core/VeloSwapV3.sol\":3026:3064  farmNFT = ICLPoolConstants(pool).nft() */\n      dup1\n      sload\n      not(sub(shl(0xa0, 0x01), 0x01))\n      and\n      sub(shl(0xa0, 0x01), 0x01)\n      swap3\n      dup4\n      and\n      or\n      swap1\n      sstore\n      0x00\n        /* \"contracts/core/VeloSwapV3.sol\":3106:3110  pool */\n      sload\n        /* \"contracts/core/VeloSwapV3.sol\":3089:3125  ICLPoolConstants(pool).tickSpacing() */\n      0x40\n      dup1\n      mload\n      shl(0xe2, 0x34324e9f)\n      dup2\n      mstore\n      swap1\n      mload\n        /* \"contracts/core/VeloSwapV3.sol\":3106:3110  pool */\n      swap2\n      swap1\n      swap3\n      and\n      swap2\n        /* \"contracts/core/VeloSwapV3.sol\":3089:3123  ICLPoolConstants(pool).tickSpacing */\n      0xd0c93a7c\n      swap2\n        /* \"contracts/core/VeloSwapV3.sol\":3089:3125  ICLPoolConstants(pool).tickSpacing() */\n      0x04\n      dup1\n      dup4\n      add\n      swap3\n      0x20\n      swap3\n      swap2\n      swap1\n      dup3\n      swap1\n      sub\n      add\n      dup2\n        /* \"contracts/core/VeloSwapV3.sol\":3106:3110  pool */\n      dup7\n        /* \"contracts/core/VeloSwapV3.sol\":3089:3125  ICLPoolConstants(pool).tickSpacing() */\n      dup1\n      extcodesize\n      iszero\n      dup1\n      iszero\n      tag_115\n      jumpi\n      0x00\n      dup1\n      revert\n    tag_115:\n      pop\n      gas\n      staticcall\n      iszero\n      dup1\n      iszero\n      tag_117\n      jumpi\n      returndatasize\n      0x00\n      dup1\n      returndatacopy\n      revert(0x00, returndatasize)\n    tag_117:\n      pop\n      pop\n      pop\n      pop\n      mload(0x40)\n      returndatasize\n      not(0x1f)\n      0x1f\n      dup3\n      add\n      and\n      dup3\n      add\n      dup1\n      0x40\n      mstore\n      pop\n      dup2\n      add\n      swap1\n      tag_118\n      swap2\n      swap1\n      tag_119\n      jump\t// in\n    tag_118:\n        /* \"contracts/core/VeloSwapV3.sol\":3075:3086  tickSpacing */\n      0x04\n      0x14\n        /* \"contracts/core/VeloSwapV3.sol\":3075:3125  tickSpacing = ICLPoolConstants(pool).tickSpacing() */\n      0x0100\n      exp\n      dup2\n      sload\n      dup2\n      0xffffff\n      mul\n      not\n      and\n      swap1\n      dup4\n      0x02\n      signextend\n      0xffffff\n      and\n      mul\n      or\n      swap1\n      sstore\n      pop\n        /* \"contracts/core/VeloSwapV3.sol\":2779:3133  function _newPool(address newPool) external {\r... */\n      pop\n      jump\t// out\n        /* \"contracts/core/VeloSwapV3.sol\":2098:2120  address public farmNFT */\n    tag_60:\n      and(sub(shl(0xa0, 0x01), 0x01), sload(0x03))\n      dup2\n      jump\t// out\n        /* \"contracts/core/VeloSwapV3.sol\":3141:4306  function Swap0for1(uint256 amountIn) public payable {\r... */\n    tag_64:\n        /* \"contracts/core/VeloSwapV3.sol\":3223:3224  0 */\n      0x00\n        /* \"contracts/core/VeloSwapV3.sol\":3212:3220  amountIn */\n      dup2\n        /* \"contracts/core/VeloSwapV3.sol\":3212:3224  amountIn > 0 */\n      gt\n        /* \"contracts/core/VeloSwapV3.sol\":3204:3249  require(amountIn > 0, \"Invalid input amount\") */\n      tag_121\n      jumpi\n      mload(0x40)\n      shl(0xe5, 0x461bcd)\n      dup2\n      mstore\n      0x04\n      add\n      tag_100\n      swap1\n      tag_123\n      jump\t// in\n    tag_121:\n        /* \"contracts/core/VeloSwapV3.sol\":3269:3275  token0 */\n      sload(0x01)\n        /* \"contracts/core/VeloSwapV3.sol\":3262:3326  IERC20(token0).transferFrom(msg.sender, address(this), amountIn) */\n      mload(0x40)\n      shl(0xe0, 0x23b872dd)\n      dup2\n      mstore\n      sub(shl(0xa0, 0x01), 0x01)\n        /* \"contracts/core/VeloSwapV3.sol\":3269:3275  token0 */\n      swap1\n      swap2\n      and\n      swap1\n        /* \"contracts/core/VeloSwapV3.sol\":3262:3289  IERC20(token0).transferFrom */\n      0x23b872dd\n      swap1\n        /* \"contracts/core/VeloSwapV3.sol\":3262:3326  IERC20(token0).transferFrom(msg.sender, address(this), amountIn) */\n      tag_124\n      swap1\n        /* \"contracts/core/VeloSwapV3.sol\":3290:3300  msg.sender */\n      caller\n      swap1\n        /* \"contracts/core/VeloSwapV3.sol\":3310:3314  this */\n      address\n      swap1\n        /* \"contracts/core/VeloSwapV3.sol\":3317:3325  amountIn */\n      dup7\n      swap1\n        /* \"contracts/core/VeloSwapV3.sol\":3262:3326  IERC20(token0).transferFrom(msg.sender, address(this), amountIn) */\n      0x04\n      add\n      tag_125\n      jump\t// in\n    tag_124:\n      0x20\n      mload(0x40)\n      dup1\n      dup4\n      sub\n      dup2\n      0x00\n      dup8\n      dup1\n      extcodesize\n      iszero\n      dup1\n      iszero\n      tag_126\n      jumpi\n      0x00\n      dup1\n      revert\n    tag_126:\n      pop\n      gas\n      call\n      iszero\n      dup1\n      iszero\n      tag_128\n      jumpi\n      returndatasize\n      0x00\n      dup1\n      returndatacopy\n      revert(0x00, returndatasize)\n    tag_128:\n      pop\n      pop\n      pop\n      pop\n      mload(0x40)\n      returndatasize\n      not(0x1f)\n      0x1f\n      dup3\n      add\n      and\n      dup3\n      add\n      dup1\n      0x40\n      mstore\n      pop\n      dup2\n      add\n      swap1\n      tag_129\n      swap2\n      swap1\n      tag_92\n      jump\t// in\n    tag_129:\n      pop\n        /* \"contracts/core/VeloSwapV3.sol\":3391:3411  uint160 sqrtPriceX96 */\n      0x00\n        /* \"contracts/core/VeloSwapV3.sol\":3438:3442  pool */\n      dup1\n      0x00\n      swap1\n      sload\n      swap1\n      0x0100\n      exp\n      swap1\n      div\n      sub(shl(0xa0, 0x01), 0x01)\n      and\n      sub(shl(0xa0, 0x01), 0x01)\n        /* \"contracts/core/VeloSwapV3.sol\":3425:3449  ICLPoolState(pool).slot0 */\n      and\n      0x3850c7bd\n        /* \"contracts/core/VeloSwapV3.sol\":3425:3451  ICLPoolState(pool).slot0() */\n      mload(0x40)\n      dup2\n      0xffffffff\n      and\n      0xe0\n      shl\n      dup2\n      mstore\n      0x04\n      add\n      0xc0\n      mload(0x40)\n      dup1\n      dup4\n      sub\n      dup2\n      dup7\n      dup1\n      extcodesize\n      iszero\n      dup1\n      iszero\n      tag_130\n      jumpi\n      0x00\n      dup1\n      revert\n    tag_130:\n      pop\n      gas\n      staticcall\n      iszero\n      dup1\n      iszero\n      tag_132\n      jumpi\n      returndatasize\n      0x00\n      dup1\n      returndatacopy\n      revert(0x00, returndatasize)\n    tag_132:\n      pop\n      pop\n      pop\n      pop\n      mload(0x40)\n      returndatasize\n      not(0x1f)\n      0x1f\n      dup3\n      add\n      and\n      dup3\n      add\n      dup1\n      0x40\n      mstore\n      pop\n      dup2\n      add\n      swap1\n      tag_133\n      swap2\n      swap1\n      tag_134\n      jump\t// in\n    tag_133:\n        /* \"contracts/core/VeloSwapV3.sol\":3390:3451  (uint160 sqrtPriceX96, , , , , ) = ICLPoolState(pool).slot0() */\n      pop\n      pop\n      pop\n      pop\n      pop\n      swap1\n      pop\n        /* \"contracts/core/VeloSwapV3.sol\":3462:3487  uint160 sqrtPriceLimitX96 */\n      0x00\n        /* \"contracts/core/VeloSwapV3.sol\":3518:3521  100 */\n      0x64\n        /* \"contracts/core/VeloSwapV3.sol\":3498:3510  sqrtPriceX96 */\n      dup3\n        /* \"contracts/core/VeloSwapV3.sol\":3513:3515  99 */\n      0x63\n        /* \"contracts/core/VeloSwapV3.sol\":3498:3515  sqrtPriceX96 * 99 */\n      mul\n      sub(shl(0xa0, 0x01), 0x01)\n        /* \"contracts/core/VeloSwapV3.sol\":3498:3521  sqrtPriceX96 * 99 / 100 */\n      and\n      dup2\n      tag_135\n      jumpi\n      invalid\n    tag_135:\n      div\n      swap1\n      pop\n        /* \"contracts/core/libraries/TickMath.sol\":824:834  4295128739 */\n      0x01000276a3\n      sub(shl(0xa0, 0x01), 0x01)\n        /* \"contracts/core/VeloSwapV3.sol\":3585:3629  sqrtPriceLimitX96 <= TickMath.MIN_SQRT_RATIO */\n      dup3\n      and\n      gt\n        /* \"contracts/core/VeloSwapV3.sol\":3581:3705  if (sqrtPriceLimitX96 <= TickMath.MIN_SQRT_RATIO) {\r... */\n      tag_136\n      jumpi\n      pop\n        /* \"contracts/core/VeloSwapV3.sol\":3666:3693  TickMath.MIN_SQRT_RATIO + 1 */\n      0x01000276a4\n        /* \"contracts/core/VeloSwapV3.sol\":3581:3705  if (sqrtPriceLimitX96 <= TickMath.MIN_SQRT_RATIO) {\r... */\n    tag_136:\n        /* \"contracts/core/VeloSwapV3.sol\":3772:3778  token0 */\n      sload(0x01)\n      0x00\n        /* \"contracts/core/VeloSwapV3.sol\":3788:3792  pool */\n      sload\n        /* \"contracts/core/VeloSwapV3.sol\":3758:3803  IERC20Minimal(token0).approve(pool, amountIn) */\n      mload(0x40)\n      shl(0xe0, 0x095ea7b3)\n      dup2\n      mstore\n      sub(shl(0xa0, 0x01), 0x01)\n        /* \"contracts/core/VeloSwapV3.sol\":3772:3778  token0 */\n      swap3\n      dup4\n      and\n      swap3\n        /* \"contracts/core/VeloSwapV3.sol\":3758:3787  IERC20Minimal(token0).approve */\n      0x095ea7b3\n      swap3\n        /* \"contracts/core/VeloSwapV3.sol\":3758:3803  IERC20Minimal(token0).approve(pool, amountIn) */\n      tag_137\n      swap3\n        /* \"contracts/core/VeloSwapV3.sol\":3788:3792  pool */\n      swap2\n      and\n      swap1\n        /* \"contracts/core/VeloSwapV3.sol\":3794:3802  amountIn */\n      dup8\n      swap1\n        /* \"contracts/core/VeloSwapV3.sol\":3758:3803  IERC20Minimal(token0).approve(pool, amountIn) */\n      0x04\n      add\n      tag_87\n      jump\t// in\n    tag_137:\n      0x20\n      mload(0x40)\n      dup1\n      dup4\n      sub\n      dup2\n      0x00\n      dup8\n      dup1\n      extcodesize\n      iszero\n      dup1\n      iszero\n      tag_138\n      jumpi\n      0x00\n      dup1\n      revert\n    tag_138:\n      pop\n      gas\n      call\n      iszero\n      dup1\n      iszero\n      tag_140\n      jumpi\n      returndatasize\n      0x00\n      dup1\n      returndatacopy\n      revert(0x00, returndatasize)\n    tag_140:\n      pop\n      pop\n      pop\n      pop\n      mload(0x40)\n      returndatasize\n      not(0x1f)\n      0x1f\n      dup3\n      add\n      and\n      dup3\n      add\n      dup1\n      0x40\n      mstore\n      pop\n      dup2\n      add\n      swap1\n      tag_141\n      swap2\n      swap1\n      tag_92\n      jump\t// in\n    tag_141:\n      pop\n        /* \"contracts/core/VeloSwapV3.sol\":3912:3929  bytes memory data */\n      0x00\n        /* \"contracts/core/VeloSwapV3.sol\":3951:3955  this */\n      address\n        /* \"contracts/core/VeloSwapV3.sol\":3932:3957  abi.encode(address(this)) */\n      add(0x20, mload(0x40))\n      tag_142\n      swap2\n      swap1\n      tag_24\n      jump\t// in\n    tag_142:\n      0x40\n      dup1\n      mload\n      not(0x1f)\n      dup2\n      dup5\n      sub\n      add\n      dup2\n      mstore\n      swap1\n      dup3\n      swap1\n      mstore\n        /* \"contracts/core/VeloSwapV3.sol\":4027:4031  pool */\n      sload(0x00)\n      shl(0xe3, 0x02515961)\n        /* \"contracts/core/VeloSwapV3.sol\":4012:4298  ICLPoolActions(pool).swap(\r... */\n      dup4\n      mstore\n        /* \"contracts/core/VeloSwapV3.sol\":3932:3957  abi.encode(address(this)) */\n      swap1\n      swap3\n      pop\n      sub(shl(0xa0, 0x01), 0x01)\n        /* \"contracts/core/VeloSwapV3.sol\":4027:4031  pool */\n      and\n      swap1\n        /* \"contracts/core/VeloSwapV3.sol\":4012:4037  ICLPoolActions(pool).swap */\n      0x128acb08\n      swap1\n        /* \"contracts/core/VeloSwapV3.sol\":4012:4298  ICLPoolActions(pool).swap(\r... */\n      tag_143\n      swap1\n        /* \"contracts/core/VeloSwapV3.sol\":4052:4062  msg.sender */\n      caller\n      swap1\n        /* \"contracts/core/VeloSwapV3.sol\":4027:4031  pool */\n      0x01\n      swap1\n        /* \"contracts/core/VeloSwapV3.sol\":4165:4173  amountIn */\n      dup10\n      swap1\n        /* \"contracts/core/VeloSwapV3.sol\":4205:4222  sqrtPriceLimitX96 */\n      dup9\n      swap1\n        /* \"contracts/core/VeloSwapV3.sol\":3932:3957  abi.encode(address(this)) */\n      dup9\n      swap1\n        /* \"contracts/core/VeloSwapV3.sol\":4012:4298  ICLPoolActions(pool).swap(\r... */\n      0x04\n      add\n      tag_144\n      jump\t// in\n    tag_143:\n      0x40\n      dup1\n      mload\n      dup1\n      dup4\n      sub\n      dup2\n      0x00\n      dup8\n      dup1\n      extcodesize\n      iszero\n      dup1\n      iszero\n      tag_145\n      jumpi\n      0x00\n      dup1\n      revert\n    tag_145:\n      pop\n      gas\n      call\n      iszero\n      dup1\n      iszero\n      tag_147\n      jumpi\n      returndatasize\n      0x00\n      dup1\n      returndatacopy\n      revert(0x00, returndatasize)\n    tag_147:\n      pop\n      pop\n      pop\n      pop\n      mload(0x40)\n      returndatasize\n      not(0x1f)\n      0x1f\n      dup3\n      add\n      and\n      dup3\n      add\n      dup1\n      0x40\n      mstore\n      pop\n      dup2\n      add\n      swap1\n      tag_148\n      swap2\n      swap1\n      tag_149\n      jump\t// in\n    tag_148:\n      pop\n      pop\n        /* \"contracts/core/VeloSwapV3.sol\":3141:4306  function Swap0for1(uint256 amountIn) public payable {\r... */\n      pop\n      pop\n      pop\n      pop\n      jump\t// out\n        /* \"contracts/core/VeloSwapV3.sol\":2625:2771  function _newAdmin(address newAdmin) external {\r... */\n    tag_68:\n        /* \"contracts/core/VeloSwapV3.sol\":2704:2709  admin */\n      and(sub(shl(0xa0, 0x01), 0x01), sload(0x04))\n        /* \"contracts/core/VeloSwapV3.sol\":2690:2700  msg.sender */\n      caller\n        /* \"contracts/core/VeloSwapV3.sol\":2690:2709  msg.sender == admin */\n      eq\n        /* \"contracts/core/VeloSwapV3.sol\":2682:2736  require(msg.sender == admin, \"Only owner can do this\") */\n      tag_151\n      jumpi\n      mload(0x40)\n      shl(0xe5, 0x461bcd)\n      dup2\n      mstore\n      0x04\n      add\n      tag_100\n      swap1\n      tag_101\n      jump\t// in\n    tag_151:\n        /* \"contracts/core/VeloSwapV3.sol\":2747:2752  admin */\n      0x04\n        /* \"contracts/core/VeloSwapV3.sol\":2747:2763  admin = newAdmin */\n      dup1\n      sload\n      not(sub(shl(0xa0, 0x01), 0x01))\n      and\n      sub(shl(0xa0, 0x01), 0x01)\n      swap3\n      swap1\n      swap3\n      and\n      swap2\n      swap1\n      swap2\n      or\n      swap1\n      sstore\n        /* \"contracts/core/VeloSwapV3.sol\":2625:2771  function _newAdmin(address newAdmin) external {\r... */\n      jump\t// out\n        /* \"contracts/core/VeloSwapV3.sol\":4314:5481  function Swap1for0(uint256 amountIn) public payable {\r... */\n    tag_71:\n        /* \"contracts/core/VeloSwapV3.sol\":4396:4397  0 */\n      0x00\n        /* \"contracts/core/VeloSwapV3.sol\":4385:4393  amountIn */\n      dup2\n        /* \"contracts/core/VeloSwapV3.sol\":4385:4397  amountIn > 0 */\n      gt\n        /* \"contracts/core/VeloSwapV3.sol\":4377:4422  require(amountIn > 0, \"Invalid input amount\") */\n      tag_154\n      jumpi\n      mload(0x40)\n      shl(0xe5, 0x461bcd)\n      dup2\n      mstore\n      0x04\n      add\n      tag_100\n      swap1\n      tag_123\n      jump\t// in\n    tag_154:\n        /* \"contracts/core/VeloSwapV3.sol\":4442:4448  token1 */\n      sload(0x02)\n        /* \"contracts/core/VeloSwapV3.sol\":4435:4499  IERC20(token1).transferFrom(msg.sender, address(this), amountIn) */\n      mload(0x40)\n      shl(0xe0, 0x23b872dd)\n      dup2\n      mstore\n      sub(shl(0xa0, 0x01), 0x01)\n        /* \"contracts/core/VeloSwapV3.sol\":4442:4448  token1 */\n      swap1\n      swap2\n      and\n      swap1\n        /* \"contracts/core/VeloSwapV3.sol\":4435:4462  IERC20(token1).transferFrom */\n      0x23b872dd\n      swap1\n        /* \"contracts/core/VeloSwapV3.sol\":4435:4499  IERC20(token1).transferFrom(msg.sender, address(this), amountIn) */\n      tag_156\n      swap1\n        /* \"contracts/core/VeloSwapV3.sol\":4463:4473  msg.sender */\n      caller\n      swap1\n        /* \"contracts/core/VeloSwapV3.sol\":4483:4487  this */\n      address\n      swap1\n        /* \"contracts/core/VeloSwapV3.sol\":4490:4498  amountIn */\n      dup7\n      swap1\n        /* \"contracts/core/VeloSwapV3.sol\":4435:4499  IERC20(token1).transferFrom(msg.sender, address(this), amountIn) */\n      0x04\n      add\n      tag_125\n      jump\t// in\n    tag_156:\n      0x20\n      mload(0x40)\n      dup1\n      dup4\n      sub\n      dup2\n      0x00\n      dup8\n      dup1\n      extcodesize\n      iszero\n      dup1\n      iszero\n      tag_157\n      jumpi\n      0x00\n      dup1\n      revert\n    tag_157:\n      pop\n      gas\n      call\n      iszero\n      dup1\n      iszero\n      tag_159\n      jumpi\n      returndatasize\n      0x00\n      dup1\n      returndatacopy\n      revert(0x00, returndatasize)\n    tag_159:\n      pop\n      pop\n      pop\n      pop\n      mload(0x40)\n      returndatasize\n      not(0x1f)\n      0x1f\n      dup3\n      add\n      and\n      dup3\n      add\n      dup1\n      0x40\n      mstore\n      pop\n      dup2\n      add\n      swap1\n      tag_160\n      swap2\n      swap1\n      tag_92\n      jump\t// in\n    tag_160:\n      pop\n        /* \"contracts/core/VeloSwapV3.sol\":4564:4584  uint160 sqrtPriceX96 */\n      0x00\n        /* \"contracts/core/VeloSwapV3.sol\":4611:4615  pool */\n      dup1\n      0x00\n      swap1\n      sload\n      swap1\n      0x0100\n      exp\n      swap1\n      div\n      sub(shl(0xa0, 0x01), 0x01)\n      and\n      sub(shl(0xa0, 0x01), 0x01)\n        /* \"contracts/core/VeloSwapV3.sol\":4598:4622  ICLPoolState(pool).slot0 */\n      and\n      0x3850c7bd\n        /* \"contracts/core/VeloSwapV3.sol\":4598:4624  ICLPoolState(pool).slot0() */\n      mload(0x40)\n      dup2\n      0xffffffff\n      and\n      0xe0\n      shl\n      dup2\n      mstore\n      0x04\n      add\n      0xc0\n      mload(0x40)\n      dup1\n      dup4\n      sub\n      dup2\n      dup7\n      dup1\n      extcodesize\n      iszero\n      dup1\n      iszero\n      tag_161\n      jumpi\n      0x00\n      dup1\n      revert\n    tag_161:\n      pop\n      gas\n      staticcall\n      iszero\n      dup1\n      iszero\n      tag_163\n      jumpi\n      returndatasize\n      0x00\n      dup1\n      returndatacopy\n      revert(0x00, returndatasize)\n    tag_163:\n      pop\n      pop\n      pop\n      pop\n      mload(0x40)\n      returndatasize\n      not(0x1f)\n      0x1f\n      dup3\n      add\n      and\n      dup3\n      add\n      dup1\n      0x40\n      mstore\n      pop\n      dup2\n      add\n      swap1\n      tag_164\n      swap2\n      swap1\n      tag_134\n      jump\t// in\n    tag_164:\n        /* \"contracts/core/VeloSwapV3.sol\":4563:4624  (uint160 sqrtPriceX96, , , , , ) = ICLPoolState(pool).slot0() */\n      pop\n      pop\n      pop\n      pop\n      pop\n      swap1\n      pop\n        /* \"contracts/core/VeloSwapV3.sol\":4635:4660  uint160 sqrtPriceLimitX96 */\n      0x00\n        /* \"contracts/core/VeloSwapV3.sol\":4692:4695  100 */\n      0x64\n        /* \"contracts/core/VeloSwapV3.sol\":4671:4683  sqrtPriceX96 */\n      dup3\n        /* \"contracts/core/VeloSwapV3.sol\":4686:4689  101 */\n      0x65\n        /* \"contracts/core/VeloSwapV3.sol\":4671:4689  sqrtPriceX96 * 101 */\n      mul\n      sub(shl(0xa0, 0x01), 0x01)\n        /* \"contracts/core/VeloSwapV3.sol\":4671:4695  sqrtPriceX96 * 101 / 100 */\n      and\n      dup2\n      tag_165\n      jumpi\n      invalid\n    tag_165:\n      div\n      swap1\n      pop\n        /* \"contracts/core/libraries/TickMath.sol\":824:834  4295128739 */\n      0x01000276a3\n      sub(shl(0xa0, 0x01), 0x01)\n        /* \"contracts/core/VeloSwapV3.sol\":4759:4803  sqrtPriceLimitX96 <= TickMath.MIN_SQRT_RATIO */\n      dup3\n      and\n      gt\n        /* \"contracts/core/VeloSwapV3.sol\":4755:4879  if (sqrtPriceLimitX96 <= TickMath.MIN_SQRT_RATIO) {\r... */\n      tag_166\n      jumpi\n      pop\n        /* \"contracts/core/VeloSwapV3.sol\":4840:4867  TickMath.MIN_SQRT_RATIO - 1 */\n      0x01000276a2\n        /* \"contracts/core/VeloSwapV3.sol\":4755:4879  if (sqrtPriceLimitX96 <= TickMath.MIN_SQRT_RATIO) {\r... */\n    tag_166:\n        /* \"contracts/core/VeloSwapV3.sol\":4946:4952  token1 */\n      sload(0x02)\n      0x00\n        /* \"contracts/core/VeloSwapV3.sol\":4962:4966  pool */\n      sload\n        /* \"contracts/core/VeloSwapV3.sol\":4932:4977  IERC20Minimal(token1).approve(pool, amountIn) */\n      mload(0x40)\n      shl(0xe0, 0x095ea7b3)\n      dup2\n      mstore\n      sub(shl(0xa0, 0x01), 0x01)\n        /* \"contracts/core/VeloSwapV3.sol\":4946:4952  token1 */\n      swap3\n      dup4\n      and\n      swap3\n        /* \"contracts/core/VeloSwapV3.sol\":4932:4961  IERC20Minimal(token1).approve */\n      0x095ea7b3\n      swap3\n        /* \"contracts/core/VeloSwapV3.sol\":4932:4977  IERC20Minimal(token1).approve(pool, amountIn) */\n      tag_167\n      swap3\n        /* \"contracts/core/VeloSwapV3.sol\":4962:4966  pool */\n      swap2\n      and\n      swap1\n        /* \"contracts/core/VeloSwapV3.sol\":4968:4976  amountIn */\n      dup8\n      swap1\n        /* \"contracts/core/VeloSwapV3.sol\":4932:4977  IERC20Minimal(token1).approve(pool, amountIn) */\n      0x04\n      add\n      tag_87\n      jump\t// in\n    tag_167:\n      0x20\n      mload(0x40)\n      dup1\n      dup4\n      sub\n      dup2\n      0x00\n      dup8\n      dup1\n      extcodesize\n      iszero\n      dup1\n      iszero\n      tag_168\n      jumpi\n      0x00\n      dup1\n      revert\n    tag_168:\n      pop\n      gas\n      call\n      iszero\n      dup1\n      iszero\n      tag_170\n      jumpi\n      returndatasize\n      0x00\n      dup1\n      returndatacopy\n      revert(0x00, returndatasize)\n    tag_170:\n      pop\n      pop\n      pop\n      pop\n      mload(0x40)\n      returndatasize\n      not(0x1f)\n      0x1f\n      dup3\n      add\n      and\n      dup3\n      add\n      dup1\n      0x40\n      mstore\n      pop\n      dup2\n      add\n      swap1\n      tag_171\n      swap2\n      swap1\n      tag_92\n      jump\t// in\n    tag_171:\n      pop\n        /* \"contracts/core/VeloSwapV3.sol\":5086:5103  bytes memory data */\n      0x00\n        /* \"contracts/core/VeloSwapV3.sol\":5125:5129  this */\n      address\n        /* \"contracts/core/VeloSwapV3.sol\":5106:5131  abi.encode(address(this)) */\n      add(0x20, mload(0x40))\n      tag_172\n      swap2\n      swap1\n      tag_24\n      jump\t// in\n    tag_172:\n      0x40\n      dup1\n      mload\n      not(0x1f)\n      dup2\n      dup5\n      sub\n      add\n      dup2\n      mstore\n      swap1\n      dup3\n      swap1\n      mstore\n        /* \"contracts/core/VeloSwapV3.sol\":5201:5205  pool */\n      0x00\n      dup1\n      sload\n      shl(0xe3, 0x02515961)\n        /* \"contracts/core/VeloSwapV3.sol\":5186:5473  ICLPoolActions(pool).swap(\r... */\n      dup5\n      mstore\n        /* \"contracts/core/VeloSwapV3.sol\":5106:5131  abi.encode(address(this)) */\n      swap2\n      swap4\n      pop\n      sub(shl(0xa0, 0x01), 0x01)\n        /* \"contracts/core/VeloSwapV3.sol\":5201:5205  pool */\n      swap1\n      swap2\n      and\n      swap2\n        /* \"contracts/core/VeloSwapV3.sol\":5186:5211  ICLPoolActions(pool).swap */\n      0x128acb08\n      swap2\n        /* \"contracts/core/VeloSwapV3.sol\":5186:5473  ICLPoolActions(pool).swap(\r... */\n      tag_143\n      swap2\n        /* \"contracts/core/VeloSwapV3.sol\":5226:5236  msg.sender */\n      caller\n      swap2\n        /* \"contracts/core/VeloSwapV3.sol\":5201:5205  pool */\n      swap1\n        /* \"contracts/core/VeloSwapV3.sol\":5340:5348  amountIn */\n      dup10\n      swap1\n        /* \"contracts/core/VeloSwapV3.sol\":5380:5397  sqrtPriceLimitX96 */\n      dup9\n      swap1\n        /* \"contracts/core/VeloSwapV3.sol\":5106:5131  abi.encode(address(this)) */\n      dup9\n      swap1\n        /* \"contracts/core/VeloSwapV3.sol\":5186:5473  ICLPoolActions(pool).swap(\r... */\n      0x04\n      add\n      tag_144\n      jump\t// in\n        /* \"contracts/core/VeloSwapV3.sol\":2127:2147  address public admin */\n    tag_74:\n      and(sub(shl(0xa0, 0x01), 0x01), sload(0x04))\n      dup2\n      jump\t// out\n        /* \"contracts/core/VeloSwapV3.sol\":5559:6218  function uniswapV3SwapCallback(\r... */\n    tag_80:\n        /* \"contracts/core/VeloSwapV3.sol\":5744:5748  pool */\n      and(sub(shl(0xa0, 0x01), 0x01), sload(0x00))\n        /* \"contracts/core/VeloSwapV3.sol\":5730:5740  msg.sender */\n      caller\n        /* \"contracts/core/VeloSwapV3.sol\":5730:5748  msg.sender == pool */\n      eq\n        /* \"contracts/core/VeloSwapV3.sol\":5722:5776  require(msg.sender == pool, \"Callback only from pool\") */\n      tag_179\n      jumpi\n      mload(0x40)\n      shl(0xe5, 0x461bcd)\n      dup2\n      mstore\n      0x04\n      add\n      tag_100\n      swap1\n      tag_181\n      jump\t// in\n    tag_179:\n        /* \"contracts/core/VeloSwapV3.sol\":5887:5888  0 */\n      0x00\n        /* \"contracts/core/VeloSwapV3.sol\":5872:5884  amount0Delta */\n      dup5\n        /* \"contracts/core/VeloSwapV3.sol\":5872:5888  amount0Delta > 0 */\n      sgt\n        /* \"contracts/core/VeloSwapV3.sol\":5868:5976  if (amount0Delta > 0) {\r... */\n      iszero\n      tag_182\n      jumpi\n        /* \"contracts/core/VeloSwapV3.sol\":5919:5925  token0 */\n      sload(0x01)\n      0x00\n        /* \"contracts/core/VeloSwapV3.sol\":5936:5940  pool */\n      sload\n        /* \"contracts/core/VeloSwapV3.sol\":5905:5964  IERC20Minimal(token0).transfer(pool, uint256(amount0Delta)) */\n      mload(0x40)\n      shl(0xe0, 0xa9059cbb)\n      dup2\n      mstore\n      sub(shl(0xa0, 0x01), 0x01)\n        /* \"contracts/core/VeloSwapV3.sol\":5919:5925  token0 */\n      swap3\n      dup4\n      and\n      swap3\n        /* \"contracts/core/VeloSwapV3.sol\":5905:5935  IERC20Minimal(token0).transfer */\n      0xa9059cbb\n      swap3\n        /* \"contracts/core/VeloSwapV3.sol\":5905:5964  IERC20Minimal(token0).transfer(pool, uint256(amount0Delta)) */\n      tag_183\n      swap3\n        /* \"contracts/core/VeloSwapV3.sol\":5936:5940  pool */\n      swap2\n      and\n      swap1\n        /* \"contracts/core/VeloSwapV3.sol\":5950:5962  amount0Delta */\n      dup9\n      swap1\n        /* \"contracts/core/VeloSwapV3.sol\":5905:5964  IERC20Minimal(token0).transfer(pool, uint256(amount0Delta)) */\n      0x04\n      add\n      tag_87\n      jump\t// in\n    tag_183:\n      0x20\n      mload(0x40)\n      dup1\n      dup4\n      sub\n      dup2\n      0x00\n      dup8\n      dup1\n      extcodesize\n      iszero\n      dup1\n      iszero\n      tag_184\n      jumpi\n      0x00\n      dup1\n      revert\n    tag_184:\n      pop\n      gas\n      call\n      iszero\n      dup1\n      iszero\n      tag_186\n      jumpi\n      returndatasize\n      0x00\n      dup1\n      returndatacopy\n      revert(0x00, returndatasize)\n    tag_186:\n      pop\n      pop\n      pop\n      pop\n      mload(0x40)\n      returndatasize\n      not(0x1f)\n      0x1f\n      dup3\n      add\n      and\n      dup3\n      add\n      dup1\n      0x40\n      mstore\n      pop\n      dup2\n      add\n      swap1\n      tag_187\n      swap2\n      swap1\n      tag_92\n      jump\t// in\n    tag_187:\n      pop\n        /* \"contracts/core/VeloSwapV3.sol\":5868:5976  if (amount0Delta > 0) {\r... */\n    tag_182:\n        /* \"contracts/core/VeloSwapV3.sol\":6122:6123  0 */\n      0x00\n        /* \"contracts/core/VeloSwapV3.sol\":6107:6119  amount1Delta */\n      dup4\n        /* \"contracts/core/VeloSwapV3.sol\":6107:6123  amount1Delta > 0 */\n      sgt\n        /* \"contracts/core/VeloSwapV3.sol\":6103:6211  if (amount1Delta > 0) {\r... */\n      iszero\n      tag_188\n      jumpi\n        /* \"contracts/core/VeloSwapV3.sol\":6154:6160  token1 */\n      sload(0x02)\n      0x00\n        /* \"contracts/core/VeloSwapV3.sol\":6171:6175  pool */\n      sload\n        /* \"contracts/core/VeloSwapV3.sol\":6140:6199  IERC20Minimal(token1).transfer(pool, uint256(amount1Delta)) */\n      mload(0x40)\n      shl(0xe0, 0xa9059cbb)\n      dup2\n      mstore\n      sub(shl(0xa0, 0x01), 0x01)\n        /* \"contracts/core/VeloSwapV3.sol\":6154:6160  token1 */\n      swap3\n      dup4\n      and\n      swap3\n        /* \"contracts/core/VeloSwapV3.sol\":6140:6170  IERC20Minimal(token1).transfer */\n      0xa9059cbb\n      swap3\n        /* \"contracts/core/VeloSwapV3.sol\":6140:6199  IERC20Minimal(token1).transfer(pool, uint256(amount1Delta)) */\n      tag_189\n      swap3\n        /* \"contracts/core/VeloSwapV3.sol\":6171:6175  pool */\n      swap2\n      and\n      swap1\n        /* \"contracts/core/VeloSwapV3.sol\":6185:6197  amount1Delta */\n      dup8\n      swap1\n        /* \"contracts/core/VeloSwapV3.sol\":6140:6199  IERC20Minimal(token1).transfer(pool, uint256(amount1Delta)) */\n      0x04\n      add\n      tag_87\n      jump\t// in\n    tag_189:\n      0x20\n      mload(0x40)\n      dup1\n      dup4\n      sub\n      dup2\n      0x00\n      dup8\n      dup1\n      extcodesize\n      iszero\n      dup1\n      iszero\n      tag_190\n      jumpi\n      0x00\n      dup1\n      revert\n    tag_190:\n      pop\n      gas\n      call\n      iszero\n      dup1\n      iszero\n      tag_192\n      jumpi\n      returndatasize\n      0x00\n      dup1\n      returndatacopy\n      revert(0x00, returndatasize)\n    tag_192:\n      pop\n      pop\n      pop\n      pop\n      mload(0x40)\n      returndatasize\n      not(0x1f)\n      0x1f\n      dup3\n      add\n      and\n      dup3\n      add\n      dup1\n      0x40\n      mstore\n      pop\n      dup2\n      add\n      swap1\n      tag_193\n      swap2\n      swap1\n      tag_92\n      jump\t// in\n    tag_193:\n      pop\n        /* \"contracts/core/VeloSwapV3.sol\":6103:6211  if (amount1Delta > 0) {\r... */\n    tag_188:\n        /* \"contracts/core/VeloSwapV3.sol\":5559:6218  function uniswapV3SwapCallback(\r... */\n      pop\n      pop\n      pop\n      pop\n      jump\t// out\n        /* \"contracts/core/VeloSwapV3.sol\":2185:2213  int24 public spaceMultiplier */\n    tag_83:\n      sload(0x04)\n      shl(0xb8, 0x01)\n      swap1\n      div\n      0x02\n      signextend\n      dup2\n      jump\t// out\n        /* \"#utility.yul\":14:180   */\n    tag_195:\n        /* \"#utility.yul\":92:105   */\n      dup1\n      mload\n        /* \"#utility.yul\":141:154   */\n      dup1\n      iszero\n        /* \"#utility.yul\":134:155   */\n      iszero\n        /* \"#utility.yul\":124:156   */\n      dup2\n      eq\n        /* \"#utility.yul\":114:116   */\n      tag_197\n      jumpi\n        /* \"#utility.yul\":170:171   */\n      0x00\n        /* \"#utility.yul\":167:168   */\n      dup1\n        /* \"#utility.yul\":160:172   */\n      revert\n        /* \"#utility.yul\":114:116   */\n    tag_197:\n        /* \"#utility.yul\":73:180   */\n      swap2\n      swap1\n      pop\n      jump\t// out\n        /* \"#utility.yul\":185:351   */\n    tag_198:\n        /* \"#utility.yul\":264:277   */\n      dup1\n      mload\n        /* \"#utility.yul\":317:318   */\n      0x02\n        /* \"#utility.yul\":306:326   */\n      dup2\n      swap1\n      signextend\n        /* \"#utility.yul\":296:327   */\n      dup2\n      eq\n        /* \"#utility.yul\":286:288   */\n      tag_197\n      jumpi\n        /* \"#utility.yul\":341:342   */\n      0x00\n        /* \"#utility.yul\":338:339   */\n      dup1\n        /* \"#utility.yul\":331:343   */\n      revert\n        /* \"#utility.yul\":356:521   */\n    tag_201:\n        /* \"#utility.yul\":436:449   */\n      dup1\n      mload\n        /* \"#utility.yul\":489:495   */\n      0xffff\n        /* \"#utility.yul\":478:496   */\n      dup2\n      and\n        /* \"#utility.yul\":468:497   */\n      dup2\n      eq\n        /* \"#utility.yul\":458:460   */\n      tag_197\n      jumpi\n        /* \"#utility.yul\":511:512   */\n      0x00\n        /* \"#utility.yul\":508:509   */\n      dup1\n        /* \"#utility.yul\":501:513   */\n      revert\n        /* \"#utility.yul\":526:785   */\n    tag_56:\n      0x00\n        /* \"#utility.yul\":638:640   */\n      0x20\n        /* \"#utility.yul\":626:635   */\n      dup3\n        /* \"#utility.yul\":617:624   */\n      dup5\n        /* \"#utility.yul\":613:636   */\n      sub\n        /* \"#utility.yul\":609:641   */\n      slt\n        /* \"#utility.yul\":606:608   */\n      iszero\n      tag_205\n      jumpi\n        /* \"#utility.yul\":659:665   */\n      dup1\n        /* \"#utility.yul\":651:657   */\n      dup2\n        /* \"#utility.yul\":644:666   */\n      revert\n        /* \"#utility.yul\":606:608   */\n    tag_205:\n        /* \"#utility.yul\":703:712   */\n      dup2\n        /* \"#utility.yul\":690:713   */\n      calldataload\n        /* \"#utility.yul\":722:755   */\n      tag_206\n        /* \"#utility.yul\":749:754   */\n      dup2\n        /* \"#utility.yul\":722:755   */\n      tag_207\n      jump\t// in\n    tag_206:\n        /* \"#utility.yul\":774:779   */\n      swap4\n        /* \"#utility.yul\":596:785   */\n      swap3\n      pop\n      pop\n      pop\n      jump\t// out\n        /* \"#utility.yul\":790:1053   */\n    tag_106:\n      0x00\n        /* \"#utility.yul\":913:915   */\n      0x20\n        /* \"#utility.yul\":901:910   */\n      dup3\n        /* \"#utility.yul\":892:899   */\n      dup5\n        /* \"#utility.yul\":888:911   */\n      sub\n        /* \"#utility.yul\":884:916   */\n      slt\n        /* \"#utility.yul\":881:883   */\n      iszero\n      tag_209\n      jumpi\n        /* \"#utility.yul\":934:940   */\n      dup1\n        /* \"#utility.yul\":926:932   */\n      dup2\n        /* \"#utility.yul\":919:941   */\n      revert\n        /* \"#utility.yul\":881:883   */\n    tag_209:\n        /* \"#utility.yul\":971:980   */\n      dup2\n        /* \"#utility.yul\":965:981   */\n      mload\n        /* \"#utility.yul\":990:1023   */\n      tag_206\n        /* \"#utility.yul\":1017:1022   */\n      dup2\n        /* \"#utility.yul\":990:1023   */\n      tag_207\n      jump\t// in\n        /* \"#utility.yul\":1058:1272   */\n    tag_92:\n      0x00\n        /* \"#utility.yul\":1178:1180   */\n      0x20\n        /* \"#utility.yul\":1166:1175   */\n      dup3\n        /* \"#utility.yul\":1157:1164   */\n      dup5\n        /* \"#utility.yul\":1153:1176   */\n      sub\n        /* \"#utility.yul\":1149:1181   */\n      slt\n        /* \"#utility.yul\":1146:1148   */\n      iszero\n      tag_212\n      jumpi\n        /* \"#utility.yul\":1199:1205   */\n      dup1\n        /* \"#utility.yul\":1191:1197   */\n      dup2\n        /* \"#utility.yul\":1184:1206   */\n      revert\n        /* \"#utility.yul\":1146:1148   */\n    tag_212:\n        /* \"#utility.yul\":1227:1266   */\n      tag_206\n        /* \"#utility.yul\":1256:1265   */\n      dup3\n        /* \"#utility.yul\":1227:1266   */\n      tag_195\n      jump\t// in\n        /* \"#utility.yul\":1277:1493   */\n    tag_119:\n      0x00\n        /* \"#utility.yul\":1398:1400   */\n      0x20\n        /* \"#utility.yul\":1386:1395   */\n      dup3\n        /* \"#utility.yul\":1377:1384   */\n      dup5\n        /* \"#utility.yul\":1373:1396   */\n      sub\n        /* \"#utility.yul\":1369:1401   */\n      slt\n        /* \"#utility.yul\":1366:1368   */\n      iszero\n      tag_215\n      jumpi\n        /* \"#utility.yul\":1419:1425   */\n      dup1\n        /* \"#utility.yul\":1411:1417   */\n      dup2\n        /* \"#utility.yul\":1404:1426   */\n      revert\n        /* \"#utility.yul\":1366:1368   */\n    tag_215:\n        /* \"#utility.yul\":1447:1487   */\n      tag_206\n        /* \"#utility.yul\":1477:1486   */\n      dup3\n        /* \"#utility.yul\":1447:1487   */\n      tag_198\n      jump\t// in\n        /* \"#utility.yul\":1498:1751   */\n    tag_149:\n      0x00\n      dup1\n        /* \"#utility.yul\":1636:1638   */\n      0x40\n        /* \"#utility.yul\":1624:1633   */\n      dup4\n        /* \"#utility.yul\":1615:1622   */\n      dup6\n        /* \"#utility.yul\":1611:1634   */\n      sub\n        /* \"#utility.yul\":1607:1639   */\n      slt\n        /* \"#utility.yul\":1604:1606   */\n      iszero\n      tag_218\n      jumpi\n        /* \"#utility.yul\":1657:1663   */\n      dup1\n        /* \"#utility.yul\":1649:1655   */\n      dup2\n        /* \"#utility.yul\":1642:1664   */\n      revert\n        /* \"#utility.yul\":1604:1606   */\n    tag_218:\n      pop\n      pop\n        /* \"#utility.yul\":1685:1701   */\n      dup1\n      mload\n        /* \"#utility.yul\":1741:1743   */\n      0x20\n        /* \"#utility.yul\":1726:1744   */\n      swap1\n      swap2\n      add\n        /* \"#utility.yul\":1720:1745   */\n      mload\n        /* \"#utility.yul\":1685:1701   */\n      swap1\n      swap3\n        /* \"#utility.yul\":1720:1745   */\n      swap1\n      swap2\n      pop\n        /* \"#utility.yul\":1594:1751   */\n      jump\t// out\n        /* \"#utility.yul\":1756:2531   */\n    tag_79:\n      0x00\n      dup1\n      0x00\n      dup1\n        /* \"#utility.yul\":1919:1921   */\n      0x60\n        /* \"#utility.yul\":1907:1916   */\n      dup6\n        /* \"#utility.yul\":1898:1905   */\n      dup8\n        /* \"#utility.yul\":1894:1917   */\n      sub\n        /* \"#utility.yul\":1890:1922   */\n      slt\n        /* \"#utility.yul\":1887:1889   */\n      iszero\n      tag_220\n      jumpi\n        /* \"#utility.yul\":1940:1946   */\n      dup2\n        /* \"#utility.yul\":1932:1938   */\n      dup3\n        /* \"#utility.yul\":1925:1947   */\n      revert\n        /* \"#utility.yul\":1887:1889   */\n    tag_220:\n        /* \"#utility.yul\":1981:1990   */\n      dup5\n        /* \"#utility.yul\":1968:1991   */\n      calldataload\n        /* \"#utility.yul\":1958:1991   */\n      swap4\n      pop\n        /* \"#utility.yul\":2038:2040   */\n      0x20\n        /* \"#utility.yul\":2027:2036   */\n      dup6\n        /* \"#utility.yul\":2023:2041   */\n      add\n        /* \"#utility.yul\":2010:2042   */\n      calldataload\n        /* \"#utility.yul\":2000:2042   */\n      swap3\n      pop\n        /* \"#utility.yul\":2093:2095   */\n      0x40\n        /* \"#utility.yul\":2082:2091   */\n      dup6\n        /* \"#utility.yul\":2078:2096   */\n      add\n        /* \"#utility.yul\":2065:2097   */\n      calldataload\n        /* \"#utility.yul\":2116:2134   */\n      0xffffffffffffffff\n        /* \"#utility.yul\":2157:2159   */\n      dup1\n        /* \"#utility.yul\":2149:2155   */\n      dup3\n        /* \"#utility.yul\":2146:2160   */\n      gt\n        /* \"#utility.yul\":2143:2145   */\n      iszero\n      tag_221\n      jumpi\n        /* \"#utility.yul\":2178:2184   */\n      dup4\n        /* \"#utility.yul\":2170:2176   */\n      dup5\n        /* \"#utility.yul\":2163:2185   */\n      revert\n        /* \"#utility.yul\":2143:2145   */\n    tag_221:\n        /* \"#utility.yul\":2221:2227   */\n      dup2\n        /* \"#utility.yul\":2210:2219   */\n      dup8\n        /* \"#utility.yul\":2206:2228   */\n      add\n        /* \"#utility.yul\":2196:2228   */\n      swap2\n      pop\n        /* \"#utility.yul\":2266:2273   */\n      dup8\n        /* \"#utility.yul\":2259:2263   */\n      0x1f\n        /* \"#utility.yul\":2255:2257   */\n      dup4\n        /* \"#utility.yul\":2251:2264   */\n      add\n        /* \"#utility.yul\":2247:2274   */\n      slt\n        /* \"#utility.yul\":2237:2239   */\n      tag_222\n      jumpi\n        /* \"#utility.yul\":2293:2299   */\n      dup4\n        /* \"#utility.yul\":2285:2291   */\n      dup5\n        /* \"#utility.yul\":2278:2300   */\n      revert\n        /* \"#utility.yul\":2237:2239   */\n    tag_222:\n        /* \"#utility.yul\":2338:2340   */\n      dup2\n        /* \"#utility.yul\":2325:2341   */\n      calldataload\n        /* \"#utility.yul\":2364:2366   */\n      dup2\n        /* \"#utility.yul\":2356:2362   */\n      dup2\n        /* \"#utility.yul\":2353:2367   */\n      gt\n        /* \"#utility.yul\":2350:2352   */\n      iszero\n      tag_223\n      jumpi\n        /* \"#utility.yul\":2385:2391   */\n      dup5\n        /* \"#utility.yul\":2377:2383   */\n      dup6\n        /* \"#utility.yul\":2370:2392   */\n      revert\n        /* \"#utility.yul\":2350:2352   */\n    tag_223:\n        /* \"#utility.yul\":2435:2442   */\n      dup9\n        /* \"#utility.yul\":2430:2432   */\n      0x20\n        /* \"#utility.yul\":2421:2427   */\n      dup3\n        /* \"#utility.yul\":2417:2419   */\n      dup6\n        /* \"#utility.yul\":2413:2428   */\n      add\n        /* \"#utility.yul\":2409:2433   */\n      add\n        /* \"#utility.yul\":2406:2443   */\n      gt\n        /* \"#utility.yul\":2403:2405   */\n      iszero\n      tag_224\n      jumpi\n        /* \"#utility.yul\":2461:2467   */\n      dup5\n        /* \"#utility.yul\":2453:2459   */\n      dup6\n        /* \"#utility.yul\":2446:2468   */\n      revert\n        /* \"#utility.yul\":2403:2405   */\n    tag_224:\n        /* \"#utility.yul\":1877:2531   */\n      swap6\n      swap9\n      swap5\n      swap8\n      pop\n      pop\n        /* \"#utility.yul\":2497:2499   */\n      0x20\n        /* \"#utility.yul\":2489:2500   */\n      add\n      swap5\n      pop\n      pop\n      pop\n        /* \"#utility.yul\":1877:2531   */\n      jump\t// out\n        /* \"#utility.yul\":2536:3221   */\n    tag_134:\n      0x00\n      dup1\n      0x00\n      dup1\n      0x00\n      dup1\n        /* \"#utility.yul\":2736:2739   */\n      0xc0\n        /* \"#utility.yul\":2724:2733   */\n      dup8\n        /* \"#utility.yul\":2715:2722   */\n      dup10\n        /* \"#utility.yul\":2711:2734   */\n      sub\n        /* \"#utility.yul\":2707:2740   */\n      slt\n        /* \"#utility.yul\":2704:2706   */\n      iszero\n      tag_226\n      jumpi\n        /* \"#utility.yul\":2758:2764   */\n      dup2\n        /* \"#utility.yul\":2750:2756   */\n      dup3\n        /* \"#utility.yul\":2743:2765   */\n      revert\n        /* \"#utility.yul\":2704:2706   */\n    tag_226:\n        /* \"#utility.yul\":2795:2804   */\n      dup7\n        /* \"#utility.yul\":2789:2805   */\n      mload\n        /* \"#utility.yul\":2814:2847   */\n      tag_227\n        /* \"#utility.yul\":2841:2846   */\n      dup2\n        /* \"#utility.yul\":2814:2847   */\n      tag_207\n      jump\t// in\n    tag_227:\n        /* \"#utility.yul\":2866:2871   */\n      swap6\n      pop\n        /* \"#utility.yul\":2890:2939   */\n      tag_228\n        /* \"#utility.yul\":2935:2937   */\n      0x20\n        /* \"#utility.yul\":2920:2938   */\n      dup9\n      add\n        /* \"#utility.yul\":2890:2939   */\n      tag_198\n      jump\t// in\n    tag_228:\n        /* \"#utility.yul\":2880:2939   */\n      swap5\n      pop\n        /* \"#utility.yul\":2958:3008   */\n      tag_229\n        /* \"#utility.yul\":3004:3006   */\n      0x40\n        /* \"#utility.yul\":2993:3002   */\n      dup9\n        /* \"#utility.yul\":2989:3007   */\n      add\n        /* \"#utility.yul\":2958:3008   */\n      tag_201\n      jump\t// in\n    tag_229:\n        /* \"#utility.yul\":2948:3008   */\n      swap4\n      pop\n        /* \"#utility.yul\":3027:3077   */\n      tag_230\n        /* \"#utility.yul\":3073:3075   */\n      0x60\n        /* \"#utility.yul\":3062:3071   */\n      dup9\n        /* \"#utility.yul\":3058:3076   */\n      add\n        /* \"#utility.yul\":3027:3077   */\n      tag_201\n      jump\t// in\n    tag_230:\n        /* \"#utility.yul\":3017:3077   */\n      swap3\n      pop\n        /* \"#utility.yul\":3096:3147   */\n      tag_231\n        /* \"#utility.yul\":3142:3145   */\n      0x80\n        /* \"#utility.yul\":3131:3140   */\n      dup9\n        /* \"#utility.yul\":3127:3146   */\n      add\n        /* \"#utility.yul\":3096:3147   */\n      tag_201\n      jump\t// in\n    tag_231:\n        /* \"#utility.yul\":3086:3147   */\n      swap2\n      pop\n        /* \"#utility.yul\":3166:3215   */\n      tag_232\n        /* \"#utility.yul\":3210:3213   */\n      0xa0\n        /* \"#utility.yul\":3199:3208   */\n      dup9\n        /* \"#utility.yul\":3195:3214   */\n      add\n        /* \"#utility.yul\":3166:3215   */\n      tag_195\n      jump\t// in\n    tag_232:\n        /* \"#utility.yul\":3156:3215   */\n      swap1\n      pop\n        /* \"#utility.yul\":2694:3221   */\n      swap3\n      swap6\n      pop\n      swap3\n      swap6\n      pop\n      swap3\n      swap6\n      jump\t// out\n        /* \"#utility.yul\":3226:3416   */\n    tag_40:\n      0x00\n        /* \"#utility.yul\":3338:3340   */\n      0x20\n        /* \"#utility.yul\":3326:3335   */\n      dup3\n        /* \"#utility.yul\":3317:3324   */\n      dup5\n        /* \"#utility.yul\":3313:3336   */\n      sub\n        /* \"#utility.yul\":3309:3341   */\n      slt\n        /* \"#utility.yul\":3306:3308   */\n      iszero\n      tag_234\n      jumpi\n        /* \"#utility.yul\":3359:3365   */\n      dup1\n        /* \"#utility.yul\":3351:3357   */\n      dup2\n        /* \"#utility.yul\":3344:3366   */\n      revert\n        /* \"#utility.yul\":3306:3308   */\n    tag_234:\n      pop\n        /* \"#utility.yul\":3387:3410   */\n      calldataload\n      swap2\n        /* \"#utility.yul\":3296:3416   */\n      swap1\n      pop\n      jump\t// out\n        /* \"#utility.yul\":3421:3679   */\n    tag_31:\n      0x00\n      dup1\n        /* \"#utility.yul\":3550:3552   */\n      0x40\n        /* \"#utility.yul\":3538:3547   */\n      dup4\n        /* \"#utility.yul\":3529:3536   */\n      dup6\n        /* \"#utility.yul\":3525:3548   */\n      sub\n        /* \"#utility.yul\":3521:3553   */\n      slt\n        /* \"#utility.yul\":3518:3520   */\n      iszero\n      tag_236\n      jumpi\n        /* \"#utility.yul\":3571:3577   */\n      dup2\n        /* \"#utility.yul\":3563:3569   */\n      dup3\n        /* \"#utility.yul\":3556:3578   */\n      revert\n        /* \"#utility.yul\":3518:3520   */\n    tag_236:\n      pop\n      pop\n        /* \"#utility.yul\":3599:3622   */\n      dup1\n      calldataload\n      swap3\n        /* \"#utility.yul\":3669:3671   */\n      0x20\n        /* \"#utility.yul\":3654:3672   */\n      swap1\n      swap2\n      add\n        /* \"#utility.yul\":3641:3673   */\n      calldataload\n      swap2\n      pop\n        /* \"#utility.yul\":3508:3679   */\n      jump\t// out\n        /* \"#utility.yul\":3684:3887   */\n    tag_24:\n      sub(shl(0xa0, 0x01), 0x01)\n        /* \"#utility.yul\":3848:3880   */\n      swap2\n      swap1\n      swap2\n      and\n        /* \"#utility.yul\":3830:3881   */\n      dup2\n      mstore\n        /* \"#utility.yul\":3818:3820   */\n      0x20\n        /* \"#utility.yul\":3803:3821   */\n      add\n      swap1\n        /* \"#utility.yul\":3785:3887   */\n      jump\t// out\n        /* \"#utility.yul\":3892:4275   */\n    tag_125:\n      sub(shl(0xa0, 0x01), 0x01)\n        /* \"#utility.yul\":4158:4173   */\n      swap4\n      dup5\n      and\n        /* \"#utility.yul\":4140:4174   */\n      dup2\n      mstore\n        /* \"#utility.yul\":4210:4225   */\n      swap2\n      swap1\n      swap3\n      and\n        /* \"#utility.yul\":4205:4207   */\n      0x20\n        /* \"#utility.yul\":4190:4208   */\n      dup3\n      add\n        /* \"#utility.yul\":4183:4226   */\n      mstore\n        /* \"#utility.yul\":4257:4259   */\n      0x40\n        /* \"#utility.yul\":4242:4260   */\n      dup2\n      add\n        /* \"#utility.yul\":4235:4269   */\n      swap2\n      swap1\n      swap2\n      mstore\n        /* \"#utility.yul\":4090:4092   */\n      0x60\n        /* \"#utility.yul\":4075:4093   */\n      add\n      swap1\n        /* \"#utility.yul\":4057:4275   */\n      jump\t// out\n        /* \"#utility.yul\":4280:5243   */\n    tag_144:\n      0x00\n        /* \"#utility.yul\":4548:4549   */\n      0x01\n        /* \"#utility.yul\":4544:4545   */\n      dup1\n        /* \"#utility.yul\":4539:4542   */\n      0xa0\n        /* \"#utility.yul\":4535:4546   */\n      shl\n        /* \"#utility.yul\":4531:4550   */\n      sub\n        /* \"#utility.yul\":4589:4591   */\n      dup1\n        /* \"#utility.yul\":4581:4587   */\n      dup9\n        /* \"#utility.yul\":4577:4592   */\n      and\n        /* \"#utility.yul\":4566:4575   */\n      dup4\n        /* \"#utility.yul\":4559:4593   */\n      mstore\n        /* \"#utility.yul\":4612:4614   */\n      0x20\n        /* \"#utility.yul\":4664:4670   */\n      dup8\n        /* \"#utility.yul\":4657:4671   */\n      iszero\n        /* \"#utility.yul\":4650:4672   */\n      iszero\n        /* \"#utility.yul\":4645:4647   */\n      dup2\n        /* \"#utility.yul\":4634:4643   */\n      dup6\n        /* \"#utility.yul\":4630:4648   */\n      add\n        /* \"#utility.yul\":4623:4673   */\n      mstore\n        /* \"#utility.yul\":4709:4715   */\n      dup7\n        /* \"#utility.yul\":4704:4706   */\n      0x40\n        /* \"#utility.yul\":4693:4702   */\n      dup6\n        /* \"#utility.yul\":4689:4707   */\n      add\n        /* \"#utility.yul\":4682:4716   */\n      mstore\n        /* \"#utility.yul\":4764:4766   */\n      dup2\n        /* \"#utility.yul\":4756:4762   */\n      dup7\n        /* \"#utility.yul\":4752:4767   */\n      and\n        /* \"#utility.yul\":4747:4749   */\n      0x60\n        /* \"#utility.yul\":4736:4745   */\n      dup6\n        /* \"#utility.yul\":4732:4750   */\n      add\n        /* \"#utility.yul\":4725:4768   */\n      mstore\n        /* \"#utility.yul\":4805:4808   */\n      0xa0\n        /* \"#utility.yul\":4799:4802   */\n      0x80\n        /* \"#utility.yul\":4788:4797   */\n      dup6\n        /* \"#utility.yul\":4784:4803   */\n      add\n        /* \"#utility.yul\":4777:4809   */\n      mstore\n        /* \"#utility.yul\":4838:4844   */\n      dup5\n        /* \"#utility.yul\":4832:4845   */\n      mload\n        /* \"#utility.yul\":4818:4845   */\n      swap2\n      pop\n        /* \"#utility.yul\":4882:4888   */\n      dup2\n        /* \"#utility.yul\":4876:4879   */\n      0xa0\n        /* \"#utility.yul\":4865:4874   */\n      dup6\n        /* \"#utility.yul\":4861:4880   */\n      add\n        /* \"#utility.yul\":4854:4889   */\n      mstore\n        /* \"#utility.yul\":4907:4911   */\n      dup3\n        /* \"#utility.yul\":4920:5061   */\n    tag_240:\n        /* \"#utility.yul\":4934:4940   */\n      dup3\n        /* \"#utility.yul\":4931:4932   */\n      dup2\n        /* \"#utility.yul\":4928:4941   */\n      lt\n        /* \"#utility.yul\":4920:5061   */\n      iszero\n      tag_242\n      jumpi\n        /* \"#utility.yul\":5030:5044   */\n      dup6\n      dup2\n      add\n        /* \"#utility.yul\":5026:5049   */\n      dup3\n      add\n        /* \"#utility.yul\":5020:5050   */\n      mload\n        /* \"#utility.yul\":4995:5012   */\n      dup6\n      dup3\n      add\n        /* \"#utility.yul\":5014:5017   */\n      0xc0\n        /* \"#utility.yul\":4991:5018   */\n      add\n        /* \"#utility.yul\":4984:5051   */\n      mstore\n        /* \"#utility.yul\":4949:4959   */\n      dup2\n      add\n        /* \"#utility.yul\":4920:5061   */\n      jump(tag_240)\n    tag_242:\n        /* \"#utility.yul\":5079:5085   */\n      dup3\n        /* \"#utility.yul\":5076:5077   */\n      dup2\n        /* \"#utility.yul\":5073:5086   */\n      gt\n        /* \"#utility.yul\":5070:5072   */\n      iszero\n      tag_243\n      jumpi\n        /* \"#utility.yul\":5150:5154   */\n      dup4\n        /* \"#utility.yul\":5144:5147   */\n      0xc0\n        /* \"#utility.yul\":5135:5141   */\n      dup5\n        /* \"#utility.yul\":5124:5133   */\n      dup8\n        /* \"#utility.yul\":5120:5142   */\n      add\n        /* \"#utility.yul\":5116:5148   */\n      add\n        /* \"#utility.yul\":5109:5155   */\n      mstore\n        /* \"#utility.yul\":5070:5072   */\n    tag_243:\n      pop\n      pop\n        /* \"#utility.yul\":5226:5228   */\n      0x1f\n        /* \"#utility.yul\":5205:5220   */\n      add\n      not(0x1f)\n        /* \"#utility.yul\":5201:5230   */\n      and\n        /* \"#utility.yul\":5186:5231   */\n      swap2\n      swap1\n      swap2\n      add\n        /* \"#utility.yul\":5233:5236   */\n      0xc0\n        /* \"#utility.yul\":5182:5237   */\n      add\n      swap7\n        /* \"#utility.yul\":4511:5243   */\n      swap6\n      pop\n      pop\n      pop\n      pop\n      pop\n      pop\n      jump\t// out\n        /* \"#utility.yul\":5248:5745   */\n    tag_43:\n      sub(shl(0xa0, 0x01), 0x01)\n        /* \"#utility.yul\":5535:5550   */\n      swap5\n      dup6\n      and\n        /* \"#utility.yul\":5517:5551   */\n      dup2\n      mstore\n      sub(shl(0x80, 0x01), 0x01)\n        /* \"#utility.yul\":5587:5634   */\n      swap4\n      swap1\n      swap4\n      and\n        /* \"#utility.yul\":5582:5584   */\n      0x20\n        /* \"#utility.yul\":5567:5585   */\n      dup5\n      add\n        /* \"#utility.yul\":5560:5635   */\n      mstore\n        /* \"#utility.yul\":5671:5686   */\n      swap1\n      dup4\n      and\n        /* \"#utility.yul\":5666:5668   */\n      0x40\n        /* \"#utility.yul\":5651:5669   */\n      dup4\n      add\n        /* \"#utility.yul\":5644:5687   */\n      mstore\n        /* \"#utility.yul\":5723:5738   */\n      swap1\n      swap2\n      and\n        /* \"#utility.yul\":5718:5720   */\n      0x60\n        /* \"#utility.yul\":5703:5721   */\n      dup3\n      add\n        /* \"#utility.yul\":5696:5739   */\n      mstore\n        /* \"#utility.yul\":5466:5469   */\n      0x80\n        /* \"#utility.yul\":5451:5470   */\n      add\n      swap1\n        /* \"#utility.yul\":5433:5745   */\n      jump\t// out\n        /* \"#utility.yul\":5750:6024   */\n    tag_87:\n      sub(shl(0xa0, 0x01), 0x01)\n        /* \"#utility.yul\":5942:5974   */\n      swap3\n      swap1\n      swap3\n      and\n        /* \"#utility.yul\":5924:5975   */\n      dup3\n      mstore\n        /* \"#utility.yul\":6006:6008   */\n      0x20\n        /* \"#utility.yul\":5991:6009   */\n      dup3\n      add\n        /* \"#utility.yul\":5984:6018   */\n      mstore\n        /* \"#utility.yul\":5912:5914   */\n      0x40\n        /* \"#utility.yul\":5897:5915   */\n      add\n      swap1\n        /* \"#utility.yul\":5879:6024   */\n      jump\t// out\n        /* \"#utility.yul\":6029:6217   */\n    tag_48:\n        /* \"#utility.yul\":6200:6201   */\n      0x02\n        /* \"#utility.yul\":6189:6210   */\n      swap2\n      swap1\n      swap2\n      signextend\n        /* \"#utility.yul\":6171:6211   */\n      dup2\n      mstore\n        /* \"#utility.yul\":6159:6161   */\n      0x20\n        /* \"#utility.yul\":6144:6162   */\n      add\n      swap1\n        /* \"#utility.yul\":6126:6217   */\n      jump\t// out\n        /* \"#utility.yul\":6222:6568   */\n    tag_101:\n        /* \"#utility.yul\":6424:6426   */\n      0x20\n        /* \"#utility.yul\":6406:6427   */\n      dup1\n      dup3\n      mstore\n        /* \"#utility.yul\":6463:6465   */\n      0x16\n        /* \"#utility.yul\":6443:6461   */\n      swap1\n      dup3\n      add\n        /* \"#utility.yul\":6436:6466   */\n      mstore\n      shl(0x50, 0x4f6e6c79206f776e65722063616e20646f2074686973)\n        /* \"#utility.yul\":6497:6499   */\n      0x40\n        /* \"#utility.yul\":6482:6500   */\n      dup3\n      add\n        /* \"#utility.yul\":6475:6527   */\n      mstore\n        /* \"#utility.yul\":6559:6561   */\n      0x60\n        /* \"#utility.yul\":6544:6562   */\n      add\n      swap1\n        /* \"#utility.yul\":6396:6568   */\n      jump\t// out\n        /* \"#utility.yul\":6573:6917   */\n    tag_123:\n        /* \"#utility.yul\":6775:6777   */\n      0x20\n        /* \"#utility.yul\":6757:6778   */\n      dup1\n      dup3\n      mstore\n        /* \"#utility.yul\":6814:6816   */\n      0x14\n        /* \"#utility.yul\":6794:6812   */\n      swap1\n      dup3\n      add\n        /* \"#utility.yul\":6787:6817   */\n      mstore\n      shl(0x62, 0x125b9d985b1a59081a5b9c1d5d08185b5bdd5b9d)\n        /* \"#utility.yul\":6848:6850   */\n      0x40\n        /* \"#utility.yul\":6833:6851   */\n      dup3\n      add\n        /* \"#utility.yul\":6826:6876   */\n      mstore\n        /* \"#utility.yul\":6908:6910   */\n      0x60\n        /* \"#utility.yul\":6893:6911   */\n      add\n      swap1\n        /* \"#utility.yul\":6747:6917   */\n      jump\t// out\n        /* \"#utility.yul\":6922:7269   */\n    tag_181:\n        /* \"#utility.yul\":7124:7126   */\n      0x20\n        /* \"#utility.yul\":7106:7127   */\n      dup1\n      dup3\n      mstore\n        /* \"#utility.yul\":7163:7165   */\n      0x17\n        /* \"#utility.yul\":7143:7161   */\n      swap1\n      dup3\n      add\n        /* \"#utility.yul\":7136:7166   */\n      mstore\n        /* \"#utility.yul\":7202:7227   */\n      0x43616c6c6261636b206f6e6c792066726f6d20706f6f6c000000000000000000\n        /* \"#utility.yul\":7197:7199   */\n      0x40\n        /* \"#utility.yul\":7182:7200   */\n      dup3\n      add\n        /* \"#utility.yul\":7175:7228   */\n      mstore\n        /* \"#utility.yul\":7260:7262   */\n      0x60\n        /* \"#utility.yul\":7245:7263   */\n      add\n      swap1\n        /* \"#utility.yul\":7096:7269   */\n      jump\t// out\n        /* \"#utility.yul\":7274:7407   */\n    tag_207:\n      sub(shl(0xa0, 0x01), 0x01)\n        /* \"#utility.yul\":7351:7382   */\n      dup2\n      and\n        /* \"#utility.yul\":7341:7383   */\n      dup2\n      eq\n        /* \"#utility.yul\":7331:7333   */\n      tag_251\n      jumpi\n        /* \"#utility.yul\":7397:7398   */\n      0x00\n        /* \"#utility.yul\":7394:7395   */\n      dup1\n        /* \"#utility.yul\":7387:7399   */\n      revert\n        /* \"#utility.yul\":7331:7333   */\n    tag_251:\n        /* \"#utility.yul\":7321:7407   */\n      pop\n      jump\t// out\n\n    auxdata: 0xa26469706673582212203b6da2c5c478044f5c9d331b24e2836e4daa1aa0d49e90027d1b3adbc8b67c8f64736f6c63430007060033\n}\n",
				"bytecode": {
					"linkReferences": {},
					"object": "6080604052600580546001600160a01b03191673f0f8249ca6493aaebbf971b3a2fd8a2e6736981e17905534801561003657600080fd5b50600480546001600160a01b0319163317905561117c806100586000396000f3fe6080604052600436106100e85760003560e01c8063d2aca8cd1161008a578063eb20ad4711610059578063eb20ad4714610226578063f851a44014610239578063fa461e331461024e578063fd1c15181461026e576100e8565b8063d2aca8cd146101be578063da802f80146101de578063db638298146101f3578063e6f4d0aa14610206576100e8565b80637dc0d1d0116100c65780637dc0d1d014610142578063b02c43d014610157578063d0c93a7c14610187578063d21220a7146101a9576100e8565b80630dfe1681146100ed57806316f0115b146101185780631c3357031461012d575b600080fd5b3480156100f957600080fd5b50610102610283565b60405161010f9190610f87565b60405180910390f35b34801561012457600080fd5b50610102610292565b61014061013b366004610f66565b6102a1565b005b34801561014e57600080fd5b506101026103b7565b34801561016357600080fd5b50610177610172366004610f4e565b6103c6565b60405161010f949392919061103e565b34801561019357600080fd5b5061019c610406565b60405161010f919061108b565b3480156101b557600080fd5b50610102610416565b3480156101ca57600080fd5b506101406101d9366004610dc8565b610425565b3480156101ea57600080fd5b506101026106c3565b610140610201366004610f4e565b6106d2565b34801561021257600080fd5b50610140610221366004610dc8565b61097c565b610140610234366004610f4e565b6109c8565b34801561024557600080fd5b50610102610c1a565b34801561025a57600080fd5b50610140610269366004610e5e565b610c29565b34801561027a57600080fd5b5061019c610d7f565b6001546001600160a01b031681565b6000546001600160a01b031681565b60015460035460405163095ea7b360e01b81526001600160a01b039283169263095ea7b3926102d7929116908690600401611072565b602060405180830381600087803b1580156102f157600080fd5b505af1158015610305573d6000803e3d6000fd5b505050506040513d601f19601f820116820180604052508101906103299190610e07565b5060025460035460405163095ea7b360e01b81526001600160a01b039283169263095ea7b392610360929116908590600401611072565b602060405180830381600087803b15801561037a57600080fd5b505af115801561038e573d6000803e3d6000fd5b505050506040513d601f19601f820116820180604052508101906103b29190610e07565b505050565b6005546001600160a01b031681565b60066020526000908152604090208054600182015460028301546003909301546001600160a01b03928316936001600160801b0390921692918216911684565b600454600160a01b900460020b81565b6002546001600160a01b031681565b6004546001600160a01b031633146104585760405162461bcd60e51b815260040161044f90611099565b60405180910390fd5b600080546001600160a01b0319166001600160a01b03838116919091179182905560408051630dfe168160e01b815290519290911691630dfe168191600480820192602092909190829003018186803b1580156104b457600080fd5b505afa1580156104c8573d6000803e3d6000fd5b505050506040513d601f19601f820116820180604052508101906104ec9190610deb565b600180546001600160a01b0319166001600160a01b039283161790556000546040805163d21220a760e01b81529051919092169163d21220a7916004808301926020929190829003018186803b15801561054557600080fd5b505afa158015610559573d6000803e3d6000fd5b505050506040513d601f19601f8201168201806040525081019061057d9190610deb565b600280546001600160a01b0319166001600160a01b03928316179055600054604080516323e6650160e11b8152905191909216916347ccca02916004808301926020929190829003018186803b1580156105d657600080fd5b505afa1580156105ea573d6000803e3d6000fd5b505050506040513d601f19601f8201168201806040525081019061060e9190610deb565b600380546001600160a01b0319166001600160a01b03928316179055600054604080516334324e9f60e21b81529051919092169163d0c93a7c916004808301926020929190829003018186803b15801561066757600080fd5b505afa15801561067b573d6000803e3d6000fd5b505050506040513d601f19601f8201168201806040525081019061069f9190610e21565b600460146101000a81548162ffffff021916908360020b62ffffff16021790555050565b6003546001600160a01b031681565b600081116106f25760405162461bcd60e51b815260040161044f906110c9565b6001546040516323b872dd60e01b81526001600160a01b03909116906323b872dd9061072690339030908690600401610f9b565b602060405180830381600087803b15801561074057600080fd5b505af1158015610754573d6000803e3d6000fd5b505050506040513d601f19601f820116820180604052508101906107789190610e07565b5060008060009054906101000a90046001600160a01b03166001600160a01b0316633850c7bd6040518163ffffffff1660e01b815260040160c06040518083038186803b1580156107c857600080fd5b505afa1580156107dc573d6000803e3d6000fd5b505050506040513d601f19601f820116820180604052508101906108009190610ed9565b5050505050905060006064826063026001600160a01b03168161081f57fe5b0490506401000276a36001600160a01b0382161161083f57506401000276a45b60015460005460405163095ea7b360e01b81526001600160a01b039283169263095ea7b392610875929116908790600401611072565b602060405180830381600087803b15801561088f57600080fd5b505af11580156108a3573d6000803e3d6000fd5b505050506040513d601f19601f820116820180604052508101906108c79190610e07565b506000306040516020016108db9190610f87565b60408051601f1981840301815290829052600054630251596160e31b83529092506001600160a01b03169063128acb0890610923903390600190899088908890600401610fbf565b6040805180830381600087803b15801561093c57600080fd5b505af1158015610950573d6000803e3d6000fd5b505050506040513d601f19601f820116820180604052508101906109749190610e3b565b505050505050565b6004546001600160a01b031633146109a65760405162461bcd60e51b815260040161044f90611099565b600480546001600160a01b0319166001600160a01b0392909216919091179055565b600081116109e85760405162461bcd60e51b815260040161044f906110c9565b6002546040516323b872dd60e01b81526001600160a01b03909116906323b872dd90610a1c90339030908690600401610f9b565b602060405180830381600087803b158015610a3657600080fd5b505af1158015610a4a573d6000803e3d6000fd5b505050506040513d601f19601f82011682018060405250810190610a6e9190610e07565b5060008060009054906101000a90046001600160a01b03166001600160a01b0316633850c7bd6040518163ffffffff1660e01b815260040160c06040518083038186803b158015610abe57600080fd5b505afa158015610ad2573d6000803e3d6000fd5b505050506040513d601f19601f82011682018060405250810190610af69190610ed9565b5050505050905060006064826065026001600160a01b031681610b1557fe5b0490506401000276a36001600160a01b03821611610b3557506401000276a25b60025460005460405163095ea7b360e01b81526001600160a01b039283169263095ea7b392610b6b929116908790600401611072565b602060405180830381600087803b158015610b8557600080fd5b505af1158015610b99573d6000803e3d6000fd5b505050506040513d601f19601f82011682018060405250810190610bbd9190610e07565b50600030604051602001610bd19190610f87565b60408051601f198184030181529082905260008054630251596160e31b84529193506001600160a01b039091169163128acb089161092391339190899088908890600401610fbf565b6004546001600160a01b031681565b6000546001600160a01b03163314610c535760405162461bcd60e51b815260040161044f906110f7565b6000841315610ce65760015460005460405163a9059cbb60e01b81526001600160a01b039283169263a9059cbb92610c92929116908890600401611072565b602060405180830381600087803b158015610cac57600080fd5b505af1158015610cc0573d6000803e3d6000fd5b505050506040513d601f19601f82011682018060405250810190610ce49190610e07565b505b6000831315610d795760025460005460405163a9059cbb60e01b81526001600160a01b039283169263a9059cbb92610d25929116908790600401611072565b602060405180830381600087803b158015610d3f57600080fd5b505af1158015610d53573d6000803e3d6000fd5b505050506040513d601f19601f82011682018060405250810190610d779190610e07565b505b50505050565b600454600160b81b900460020b81565b80518015158114610d9f57600080fd5b919050565b8051600281900b8114610d9f57600080fd5b805161ffff81168114610d9f57600080fd5b600060208284031215610dd9578081fd5b8135610de48161112e565b9392505050565b600060208284031215610dfc578081fd5b8151610de48161112e565b600060208284031215610e18578081fd5b610de482610d8f565b600060208284031215610e32578081fd5b610de482610da4565b60008060408385031215610e4d578081fd5b505080516020909101519092909150565b60008060008060608587031215610e73578182fd5b8435935060208501359250604085013567ffffffffffffffff80821115610e98578384fd5b818701915087601f830112610eab578384fd5b813581811115610eb9578485fd5b886020828501011115610eca578485fd5b95989497505060200194505050565b60008060008060008060c08789031215610ef1578182fd5b8651610efc8161112e565b9550610f0a60208801610da4565b9450610f1860408801610db6565b9350610f2660608801610db6565b9250610f3460808801610db6565b9150610f4260a08801610d8f565b90509295509295509295565b600060208284031215610f5f578081fd5b5035919050565b60008060408385031215610f78578182fd5b50508035926020909101359150565b6001600160a01b0391909116815260200190565b6001600160a01b039384168152919092166020820152604081019190915260600190565b600060018060a01b038088168352602087151581850152866040850152818616606085015260a06080850152845191508160a0850152825b828110156110135785810182015185820160c001528101610ff7565b82811115611024578360c084870101525b5050601f01601f19169190910160c0019695505050505050565b6001600160a01b0394851681526001600160801b039390931660208401529083166040830152909116606082015260800190565b6001600160a01b03929092168252602082015260400190565b60029190910b815260200190565b6020808252601690820152754f6e6c79206f776e65722063616e20646f207468697360501b604082015260600190565b602080825260149082015273125b9d985b1a59081a5b9c1d5d08185b5bdd5b9d60621b604082015260600190565b60208082526017908201527f43616c6c6261636b206f6e6c792066726f6d20706f6f6c000000000000000000604082015260600190565b6001600160a01b038116811461114357600080fd5b5056fea26469706673582212203b6da2c5c478044f5c9d331b24e2836e4daa1aa0d49e90027d1b3adbc8b67c8f64736f6c63430007060033",
					"opcodes": "PUSH1 0x80 PUSH1 0x40 MSTORE PUSH1 0x5 DUP1 SLOAD PUSH1 0x1 PUSH1 0x1 PUSH1 0xA0 SHL SUB NOT AND PUSH20 0xF0F8249CA6493AAEBBF971B3A2FD8A2E6736981E OR SWAP1 SSTORE CALLVALUE DUP1 ISZERO PUSH2 0x36 JUMPI PUSH1 0x0 DUP1 REVERT JUMPDEST POP PUSH1 0x4 DUP1 SLOAD PUSH1 0x1 PUSH1 0x1 PUSH1 0xA0 SHL SUB NOT AND CALLER OR SWAP1 SSTORE PUSH2 0x117C DUP1 PUSH2 0x58 PUSH1 0x0 CODECOPY PUSH1 0x0 RETURN INVALID PUSH1 0x80 PUSH1 0x40 MSTORE PUSH1 0x4 CALLDATASIZE LT PUSH2 0xE8 JUMPI PUSH1 0x0 CALLDATALOAD PUSH1 0xE0 SHR DUP1 PUSH4 0xD2ACA8CD GT PUSH2 0x8A JUMPI DUP1 PUSH4 0xEB20AD47 GT PUSH2 0x59 JUMPI DUP1 PUSH4 0xEB20AD47 EQ PUSH2 0x226 JUMPI DUP1 PUSH4 0xF851A440 EQ PUSH2 0x239 JUMPI DUP1 PUSH4 0xFA461E33 EQ PUSH2 0x24E JUMPI DUP1 PUSH4 0xFD1C1518 EQ PUSH2 0x26E JUMPI PUSH2 0xE8 JUMP JUMPDEST DUP1 PUSH4 0xD2ACA8CD EQ PUSH2 0x1BE JUMPI DUP1 PUSH4 0xDA802F80 EQ PUSH2 0x1DE JUMPI DUP1 PUSH4 0xDB638298 EQ PUSH2 0x1F3 JUMPI DUP1 PUSH4 0xE6F4D0AA EQ PUSH2 0x206 JUMPI PUSH2 0xE8 JUMP JUMPDEST DUP1 PUSH4 0x7DC0D1D0 GT PUSH2 0xC6 JUMPI DUP1 PUSH4 0x7DC0D1D0 EQ PUSH2 0x142 JUMPI DUP1 PUSH4 0xB02C43D0 EQ PUSH2 0x157 JUMPI DUP1 PUSH4 0xD0C93A7C EQ PUSH2 0x187 JUMPI DUP1 PUSH4 0xD21220A7 EQ PUSH2 0x1A9 JUMPI PUSH2 0xE8 JUMP JUMPDEST DUP1 PUSH4 0xDFE1681 EQ PUSH2 0xED JUMPI DUP1 PUSH4 0x16F0115B EQ PUSH2 0x118 JUMPI DUP1 PUSH4 0x1C335703 EQ PUSH2 0x12D JUMPI JUMPDEST PUSH1 0x0 DUP1 REVERT JUMPDEST CALLVALUE DUP1 ISZERO PUSH2 0xF9 JUMPI PUSH1 0x0 DUP1 REVERT JUMPDEST POP PUSH2 0x102 PUSH2 0x283 JUMP JUMPDEST PUSH1 0x40 MLOAD PUSH2 0x10F SWAP2 SWAP1 PUSH2 0xF87 JUMP JUMPDEST PUSH1 0x40 MLOAD DUP1 SWAP2 SUB SWAP1 RETURN JUMPDEST CALLVALUE DUP1 ISZERO PUSH2 0x124 JUMPI PUSH1 0x0 DUP1 REVERT JUMPDEST POP PUSH2 0x102 PUSH2 0x292 JUMP JUMPDEST PUSH2 0x140 PUSH2 0x13B CALLDATASIZE PUSH1 0x4 PUSH2 0xF66 JUMP JUMPDEST PUSH2 0x2A1 JUMP JUMPDEST STOP JUMPDEST CALLVALUE DUP1 ISZERO PUSH2 0x14E JUMPI PUSH1 0x0 DUP1 REVERT JUMPDEST POP PUSH2 0x102 PUSH2 0x3B7 JUMP JUMPDEST CALLVALUE DUP1 ISZERO PUSH2 0x163 JUMPI PUSH1 0x0 DUP1 REVERT JUMPDEST POP PUSH2 0x177 PUSH2 0x172 CALLDATASIZE PUSH1 0x4 PUSH2 0xF4E JUMP JUMPDEST PUSH2 0x3C6 JUMP JUMPDEST PUSH1 0x40 MLOAD PUSH2 0x10F SWAP5 SWAP4 SWAP3 SWAP2 SWAP1 PUSH2 0x103E JUMP JUMPDEST CALLVALUE DUP1 ISZERO PUSH2 0x193 JUMPI PUSH1 0x0 DUP1 REVERT JUMPDEST POP PUSH2 0x19C PUSH2 0x406 JUMP JUMPDEST PUSH1 0x40 MLOAD PUSH2 0x10F SWAP2 SWAP1 PUSH2 0x108B JUMP JUMPDEST CALLVALUE DUP1 ISZERO PUSH2 0x1B5 JUMPI PUSH1 0x0 DUP1 REVERT JUMPDEST POP PUSH2 0x102 PUSH2 0x416 JUMP JUMPDEST CALLVALUE DUP1 ISZERO PUSH2 0x1CA JUMPI PUSH1 0x0 DUP1 REVERT JUMPDEST POP PUSH2 0x140 PUSH2 0x1D9 CALLDATASIZE PUSH1 0x4 PUSH2 0xDC8 JUMP JUMPDEST PUSH2 0x425 JUMP JUMPDEST CALLVALUE DUP1 ISZERO PUSH2 0x1EA JUMPI PUSH1 0x0 DUP1 REVERT JUMPDEST POP PUSH2 0x102 PUSH2 0x6C3 JUMP JUMPDEST PUSH2 0x140 PUSH2 0x201 CALLDATASIZE PUSH1 0x4 PUSH2 0xF4E JUMP JUMPDEST PUSH2 0x6D2 JUMP JUMPDEST CALLVALUE DUP1 ISZERO PUSH2 0x212 JUMPI PUSH1 0x0 DUP1 REVERT JUMPDEST POP PUSH2 0x140 PUSH2 0x221 CALLDATASIZE PUSH1 0x4 PUSH2 0xDC8 JUMP JUMPDEST PUSH2 0x97C JUMP JUMPDEST PUSH2 0x140 PUSH2 0x234 CALLDATASIZE PUSH1 0x4 PUSH2 0xF4E JUMP JUMPDEST PUSH2 0x9C8 JUMP JUMPDEST CALLVALUE DUP1 ISZERO PUSH2 0x245 JUMPI PUSH1 0x0 DUP1 REVERT JUMPDEST POP PUSH2 0x102 PUSH2 0xC1A JUMP JUMPDEST CALLVALUE DUP1 ISZERO PUSH2 0x25A JUMPI PUSH1 0x0 DUP1 REVERT JUMPDEST POP PUSH2 0x140 PUSH2 0x269 CALLDATASIZE PUSH1 0x4 PUSH2 0xE5E JUMP JUMPDEST PUSH2 0xC29 JUMP JUMPDEST CALLVALUE DUP1 ISZERO PUSH2 0x27A JUMPI PUSH1 0x0 DUP1 REVERT JUMPDEST POP PUSH2 0x19C PUSH2 0xD7F JUMP JUMPDEST PUSH1 0x1 SLOAD PUSH1 0x1 PUSH1 0x1 PUSH1 0xA0 SHL SUB AND DUP2 JUMP JUMPDEST PUSH1 0x0 SLOAD PUSH1 0x1 PUSH1 0x1 PUSH1 0xA0 SHL SUB AND DUP2 JUMP JUMPDEST PUSH1 0x1 SLOAD PUSH1 0x3 SLOAD PUSH1 0x40 MLOAD PUSH4 0x95EA7B3 PUSH1 0xE0 SHL DUP2 MSTORE PUSH1 0x1 PUSH1 0x1 PUSH1 0xA0 SHL SUB SWAP3 DUP4 AND SWAP3 PUSH4 0x95EA7B3 SWAP3 PUSH2 0x2D7 SWAP3 SWAP2 AND SWAP1 DUP7 SWAP1 PUSH1 0x4 ADD PUSH2 0x1072 JUMP JUMPDEST PUSH1 0x20 PUSH1 0x40 MLOAD DUP1 DUP4 SUB DUP2 PUSH1 0x0 DUP8 DUP1 EXTCODESIZE ISZERO DUP1 ISZERO PUSH2 0x2F1 JUMPI PUSH1 0x0 DUP1 REVERT JUMPDEST POP GAS CALL ISZERO DUP1 ISZERO PUSH2 0x305 JUMPI RETURNDATASIZE PUSH1 0x0 DUP1 RETURNDATACOPY RETURNDATASIZE PUSH1 0x0 REVERT JUMPDEST POP POP POP POP PUSH1 0x40 MLOAD RETURNDATASIZE PUSH1 0x1F NOT PUSH1 0x1F DUP3 ADD AND DUP3 ADD DUP1 PUSH1 0x40 MSTORE POP DUP2 ADD SWAP1 PUSH2 0x329 SWAP2 SWAP1 PUSH2 0xE07 JUMP JUMPDEST POP PUSH1 0x2 SLOAD PUSH1 0x3 SLOAD PUSH1 0x40 MLOAD PUSH4 0x95EA7B3 PUSH1 0xE0 SHL DUP2 MSTORE PUSH1 0x1 PUSH1 0x1 PUSH1 0xA0 SHL SUB SWAP3 DUP4 AND SWAP3 PUSH4 0x95EA7B3 SWAP3 PUSH2 0x360 SWAP3 SWAP2 AND SWAP1 DUP6 SWAP1 PUSH1 0x4 ADD PUSH2 0x1072 JUMP JUMPDEST PUSH1 0x20 PUSH1 0x40 MLOAD DUP1 DUP4 SUB DUP2 PUSH1 0x0 DUP8 DUP1 EXTCODESIZE ISZERO DUP1 ISZERO PUSH2 0x37A JUMPI PUSH1 0x0 DUP1 REVERT JUMPDEST POP GAS CALL ISZERO DUP1 ISZERO PUSH2 0x38E JUMPI RETURNDATASIZE PUSH1 0x0 DUP1 RETURNDATACOPY RETURNDATASIZE PUSH1 0x0 REVERT JUMPDEST POP POP POP POP PUSH1 0x40 MLOAD RETURNDATASIZE PUSH1 0x1F NOT PUSH1 0x1F DUP3 ADD AND DUP3 ADD DUP1 PUSH1 0x40 MSTORE POP DUP2 ADD SWAP1 PUSH2 0x3B2 SWAP2 SWAP1 PUSH2 0xE07 JUMP JUMPDEST POP POP POP JUMP JUMPDEST PUSH1 0x5 SLOAD PUSH1 0x1 PUSH1 0x1 PUSH1 0xA0 SHL SUB AND DUP2 JUMP JUMPDEST PUSH1 0x6 PUSH1 0x20 MSTORE PUSH1 0x0 SWAP1 DUP2 MSTORE PUSH1 0x40 SWAP1 KECCAK256 DUP1 SLOAD PUSH1 0x1 DUP3 ADD SLOAD PUSH1 0x2 DUP4 ADD SLOAD PUSH1 0x3 SWAP1 SWAP4 ADD SLOAD PUSH1 0x1 PUSH1 0x1 PUSH1 0xA0 SHL SUB SWAP3 DUP4 AND SWAP4 PUSH1 0x1 PUSH1 0x1 PUSH1 0x80 SHL SUB SWAP1 SWAP3 AND SWAP3 SWAP2 DUP3 AND SWAP2 AND DUP5 JUMP JUMPDEST PUSH1 0x4 SLOAD PUSH1 0x1 PUSH1 0xA0 SHL SWAP1 DIV PUSH1 0x2 SIGNEXTEND DUP2 JUMP JUMPDEST PUSH1 0x2 SLOAD PUSH1 0x1 PUSH1 0x1 PUSH1 0xA0 SHL SUB AND DUP2 JUMP JUMPDEST PUSH1 0x4 SLOAD PUSH1 0x1 PUSH1 0x1 PUSH1 0xA0 SHL SUB AND CALLER EQ PUSH2 0x458 JUMPI PUSH1 0x40 MLOAD PUSH3 0x461BCD PUSH1 0xE5 SHL DUP2 MSTORE PUSH1 0x4 ADD PUSH2 0x44F SWAP1 PUSH2 0x1099 JUMP JUMPDEST PUSH1 0x40 MLOAD DUP1 SWAP2 SUB SWAP1 REVERT JUMPDEST PUSH1 0x0 DUP1 SLOAD PUSH1 0x1 PUSH1 0x1 PUSH1 0xA0 SHL SUB NOT AND PUSH1 0x1 PUSH1 0x1 PUSH1 0xA0 SHL SUB DUP4 DUP2 AND SWAP2 SWAP1 SWAP2 OR SWAP2 DUP3 SWAP1 SSTORE PUSH1 0x40 DUP1 MLOAD PUSH4 0xDFE1681 PUSH1 0xE0 SHL DUP2 MSTORE SWAP1 MLOAD SWAP3 SWAP1 SWAP2 AND SWAP2 PUSH4 0xDFE1681 SWAP2 PUSH1 0x4 DUP1 DUP3 ADD SWAP3 PUSH1 0x20 SWAP3 SWAP1 SWAP2 SWAP1 DUP3 SWAP1 SUB ADD DUP2 DUP7 DUP1 EXTCODESIZE ISZERO DUP1 ISZERO PUSH2 0x4B4 JUMPI PUSH1 0x0 DUP1 REVERT JUMPDEST POP GAS STATICCALL ISZERO DUP1 ISZERO PUSH2 0x4C8 JUMPI RETURNDATASIZE PUSH1 0x0 DUP1 RETURNDATACOPY RETURNDATASIZE PUSH1 0x0 REVERT JUMPDEST POP POP POP POP PUSH1 0x40 MLOAD RETURNDATASIZE PUSH1 0x1F NOT PUSH1 0x1F DUP3 ADD AND DUP3 ADD DUP1 PUSH1 0x40 MSTORE POP DUP2 ADD SWAP1 PUSH2 0x4EC SWAP2 SWAP1 PUSH2 0xDEB JUMP JUMPDEST PUSH1 0x1 DUP1 SLOAD PUSH1 0x1 PUSH1 0x1 PUSH1 0xA0 SHL SUB NOT AND PUSH1 0x1 PUSH1 0x1 PUSH1 0xA0 SHL SUB SWAP3 DUP4 AND OR SWAP1 SSTORE PUSH1 0x0 SLOAD PUSH1 0x40 DUP1 MLOAD PUSH4 0xD21220A7 PUSH1 0xE0 SHL DUP2 MSTORE SWAP1 MLOAD SWAP2 SWAP1 SWAP3 AND SWAP2 PUSH4 0xD21220A7 SWAP2 PUSH1 0x4 DUP1 DUP4 ADD SWAP3 PUSH1 0x20 SWAP3 SWAP2 SWAP1 DUP3 SWAP1 SUB ADD DUP2 DUP7 DUP1 EXTCODESIZE ISZERO DUP1 ISZERO PUSH2 0x545 JUMPI PUSH1 0x0 DUP1 REVERT JUMPDEST POP GAS STATICCALL ISZERO DUP1 ISZERO PUSH2 0x559 JUMPI RETURNDATASIZE PUSH1 0x0 DUP1 RETURNDATACOPY RETURNDATASIZE PUSH1 0x0 REVERT JUMPDEST POP POP POP POP PUSH1 0x40 MLOAD RETURNDATASIZE PUSH1 0x1F NOT PUSH1 0x1F DUP3 ADD AND DUP3 ADD DUP1 PUSH1 0x40 MSTORE POP DUP2 ADD SWAP1 PUSH2 0x57D SWAP2 SWAP1 PUSH2 0xDEB JUMP JUMPDEST PUSH1 0x2 DUP1 SLOAD PUSH1 0x1 PUSH1 0x1 PUSH1 0xA0 SHL SUB NOT AND PUSH1 0x1 PUSH1 0x1 PUSH1 0xA0 SHL SUB SWAP3 DUP4 AND OR SWAP1 SSTORE PUSH1 0x0 SLOAD PUSH1 0x40 DUP1 MLOAD PUSH4 0x23E66501 PUSH1 0xE1 SHL DUP2 MSTORE SWAP1 MLOAD SWAP2 SWAP1 SWAP3 AND SWAP2 PUSH4 0x47CCCA02 SWAP2 PUSH1 0x4 DUP1 DUP4 ADD SWAP3 PUSH1 0x20 SWAP3 SWAP2 SWAP1 DUP3 SWAP1 SUB ADD DUP2 DUP7 DUP1 EXTCODESIZE ISZERO DUP1 ISZERO PUSH2 0x5D6 JUMPI PUSH1 0x0 DUP1 REVERT JUMPDEST POP GAS STATICCALL ISZERO DUP1 ISZERO PUSH2 0x5EA JUMPI RETURNDATASIZE PUSH1 0x0 DUP1 RETURNDATACOPY RETURNDATASIZE PUSH1 0x0 REVERT JUMPDEST POP POP POP POP PUSH1 0x40 MLOAD RETURNDATASIZE PUSH1 0x1F NOT PUSH1 0x1F DUP3 ADD AND DUP3 ADD DUP1 PUSH1 0x40 MSTORE POP DUP2 ADD SWAP1 PUSH2 0x60E SWAP2 SWAP1 PUSH2 0xDEB JUMP JUMPDEST PUSH1 0x3 DUP1 SLOAD PUSH1 0x1 PUSH1 0x1 PUSH1 0xA0 SHL SUB NOT AND PUSH1 0x1 PUSH1 0x1 PUSH1 0xA0 SHL SUB SWAP3 DUP4 AND OR SWAP1 SSTORE PUSH1 0x0 SLOAD PUSH1 0x40 DUP1 MLOAD PUSH4 0x34324E9F PUSH1 0xE2 SHL DUP2 MSTORE SWAP1 MLOAD SWAP2 SWAP1 SWAP3 AND SWAP2 PUSH4 0xD0C93A7C SWAP2 PUSH1 0x4 DUP1 DUP4 ADD SWAP3 PUSH1 0x20 SWAP3 SWAP2 SWAP1 DUP3 SWAP1 SUB ADD DUP2 DUP7 DUP1 EXTCODESIZE ISZERO DUP1 ISZERO PUSH2 0x667 JUMPI PUSH1 0x0 DUP1 REVERT JUMPDEST POP GAS STATICCALL ISZERO DUP1 ISZERO PUSH2 0x67B JUMPI RETURNDATASIZE PUSH1 0x0 DUP1 RETURNDATACOPY RETURNDATASIZE PUSH1 0x0 REVERT JUMPDEST POP POP POP POP PUSH1 0x40 MLOAD RETURNDATASIZE PUSH1 0x1F NOT PUSH1 0x1F DUP3 ADD AND DUP3 ADD DUP1 PUSH1 0x40 MSTORE POP DUP2 ADD SWAP1 PUSH2 0x69F SWAP2 SWAP1 PUSH2 0xE21 JUMP JUMPDEST PUSH1 0x4 PUSH1 0x14 PUSH2 0x100 EXP DUP2 SLOAD DUP2 PUSH3 0xFFFFFF MUL NOT AND SWAP1 DUP4 PUSH1 0x2 SIGNEXTEND PUSH3 0xFFFFFF AND MUL OR SWAP1 SSTORE POP POP JUMP JUMPDEST PUSH1 0x3 SLOAD PUSH1 0x1 PUSH1 0x1 PUSH1 0xA0 SHL SUB AND DUP2 JUMP JUMPDEST PUSH1 0x0 DUP2 GT PUSH2 0x6F2 JUMPI PUSH1 0x40 MLOAD PUSH3 0x461BCD PUSH1 0xE5 SHL DUP2 MSTORE PUSH1 0x4 ADD PUSH2 0x44F SWAP1 PUSH2 0x10C9 JUMP JUMPDEST PUSH1 0x1 SLOAD PUSH1 0x40 MLOAD PUSH4 0x23B872DD PUSH1 0xE0 SHL DUP2 MSTORE PUSH1 0x1 PUSH1 0x1 PUSH1 0xA0 SHL SUB SWAP1 SWAP2 AND SWAP1 PUSH4 0x23B872DD SWAP1 PUSH2 0x726 SWAP1 CALLER SWAP1 ADDRESS SWAP1 DUP7 SWAP1 PUSH1 0x4 ADD PUSH2 0xF9B JUMP JUMPDEST PUSH1 0x20 PUSH1 0x40 MLOAD DUP1 DUP4 SUB DUP2 PUSH1 0x0 DUP8 DUP1 EXTCODESIZE ISZERO DUP1 ISZERO PUSH2 0x740 JUMPI PUSH1 0x0 DUP1 REVERT JUMPDEST POP GAS CALL ISZERO DUP1 ISZERO PUSH2 0x754 JUMPI RETURNDATASIZE PUSH1 0x0 DUP1 RETURNDATACOPY RETURNDATASIZE PUSH1 0x0 REVERT JUMPDEST POP POP POP POP PUSH1 0x40 MLOAD RETURNDATASIZE PUSH1 0x1F NOT PUSH1 0x1F DUP3 ADD AND DUP3 ADD DUP1 PUSH1 0x40 MSTORE POP DUP2 ADD SWAP1 PUSH2 0x778 SWAP2 SWAP1 PUSH2 0xE07 JUMP JUMPDEST POP PUSH1 0x0 DUP1 PUSH1 0x0 SWAP1 SLOAD SWAP1 PUSH2 0x100 EXP SWAP1 DIV PUSH1 0x1 PUSH1 0x1 PUSH1 0xA0 SHL SUB AND PUSH1 0x1 PUSH1 0x1 PUSH1 0xA0 SHL SUB AND PUSH4 0x3850C7BD PUSH1 0x40 MLOAD DUP2 PUSH4 0xFFFFFFFF AND PUSH1 0xE0 SHL DUP2 MSTORE PUSH1 0x4 ADD PUSH1 0xC0 PUSH1 0x40 MLOAD DUP1 DUP4 SUB DUP2 DUP7 DUP1 EXTCODESIZE ISZERO DUP1 ISZERO PUSH2 0x7C8 JUMPI PUSH1 0x0 DUP1 REVERT JUMPDEST POP GAS STATICCALL ISZERO DUP1 ISZERO PUSH2 0x7DC JUMPI RETURNDATASIZE PUSH1 0x0 DUP1 RETURNDATACOPY RETURNDATASIZE PUSH1 0x0 REVERT JUMPDEST POP POP POP POP PUSH1 0x40 MLOAD RETURNDATASIZE PUSH1 0x1F NOT PUSH1 0x1F DUP3 ADD AND DUP3 ADD DUP1 PUSH1 0x40 MSTORE POP DUP2 ADD SWAP1 PUSH2 0x800 SWAP2 SWAP1 PUSH2 0xED9 JUMP JUMPDEST POP POP POP POP POP SWAP1 POP PUSH1 0x0 PUSH1 0x64 DUP3 PUSH1 0x63 MUL PUSH1 0x1 PUSH1 0x1 PUSH1 0xA0 SHL SUB AND DUP2 PUSH2 0x81F JUMPI INVALID JUMPDEST DIV SWAP1 POP PUSH5 0x1000276A3 PUSH1 0x1 PUSH1 0x1 PUSH1 0xA0 SHL SUB DUP3 AND GT PUSH2 0x83F JUMPI POP PUSH5 0x1000276A4 JUMPDEST PUSH1 0x1 SLOAD PUSH1 0x0 SLOAD PUSH1 0x40 MLOAD PUSH4 0x95EA7B3 PUSH1 0xE0 SHL DUP2 MSTORE PUSH1 0x1 PUSH1 0x1 PUSH1 0xA0 SHL SUB SWAP3 DUP4 AND SWAP3 PUSH4 0x95EA7B3 SWAP3 PUSH2 0x875 SWAP3 SWAP2 AND SWAP1 DUP8 SWAP1 PUSH1 0x4 ADD PUSH2 0x1072 JUMP JUMPDEST PUSH1 0x20 PUSH1 0x40 MLOAD DUP1 DUP4 SUB DUP2 PUSH1 0x0 DUP8 DUP1 EXTCODESIZE ISZERO DUP1 ISZERO PUSH2 0x88F JUMPI PUSH1 0x0 DUP1 REVERT JUMPDEST POP GAS CALL ISZERO DUP1 ISZERO PUSH2 0x8A3 JUMPI RETURNDATASIZE PUSH1 0x0 DUP1 RETURNDATACOPY RETURNDATASIZE PUSH1 0x0 REVERT JUMPDEST POP POP POP POP PUSH1 0x40 MLOAD RETURNDATASIZE PUSH1 0x1F NOT PUSH1 0x1F DUP3 ADD AND DUP3 ADD DUP1 PUSH1 0x40 MSTORE POP DUP2 ADD SWAP1 PUSH2 0x8C7 SWAP2 SWAP1 PUSH2 0xE07 JUMP JUMPDEST POP PUSH1 0x0 ADDRESS PUSH1 0x40 MLOAD PUSH1 0x20 ADD PUSH2 0x8DB SWAP2 SWAP1 PUSH2 0xF87 JUMP JUMPDEST PUSH1 0x40 DUP1 MLOAD PUSH1 0x1F NOT DUP2 DUP5 SUB ADD DUP2 MSTORE SWAP1 DUP3 SWAP1 MSTORE PUSH1 0x0 SLOAD PUSH4 0x2515961 PUSH1 0xE3 SHL DUP4 MSTORE SWAP1 SWAP3 POP PUSH1 0x1 PUSH1 0x1 PUSH1 0xA0 SHL SUB AND SWAP1 PUSH4 0x128ACB08 SWAP1 PUSH2 0x923 SWAP1 CALLER SWAP1 PUSH1 0x1 SWAP1 DUP10 SWAP1 DUP9 SWAP1 DUP9 SWAP1 PUSH1 0x4 ADD PUSH2 0xFBF JUMP JUMPDEST PUSH1 0x40 DUP1 MLOAD DUP1 DUP4 SUB DUP2 PUSH1 0x0 DUP8 DUP1 EXTCODESIZE ISZERO DUP1 ISZERO PUSH2 0x93C JUMPI PUSH1 0x0 DUP1 REVERT JUMPDEST POP GAS CALL ISZERO DUP1 ISZERO PUSH2 0x950 JUMPI RETURNDATASIZE PUSH1 0x0 DUP1 RETURNDATACOPY RETURNDATASIZE PUSH1 0x0 REVERT JUMPDEST POP POP POP POP PUSH1 0x40 MLOAD RETURNDATASIZE PUSH1 0x1F NOT PUSH1 0x1F DUP3 ADD AND DUP3 ADD DUP1 PUSH1 0x40 MSTORE POP DUP2 ADD SWAP1 PUSH2 0x974 SWAP2 SWAP1 PUSH2 0xE3B JUMP JUMPDEST POP POP POP POP POP POP JUMP JUMPDEST PUSH1 0x4 SLOAD PUSH1 0x1 PUSH1 0x1 PUSH1 0xA0 SHL SUB AND CALLER EQ PUSH2 0x9A6 JUMPI PUSH1 0x40 MLOAD PUSH3 0x461BCD PUSH1 0xE5 SHL DUP2 MSTORE PUSH1 0x4 ADD PUSH2 0x44F SWAP1 PUSH2 0x1099 JUMP JUMPDEST PUSH1 0x4 DUP1 SLOAD PUSH1 0x1 PUSH1 0x1 PUSH1 0xA0 SHL SUB NOT AND PUSH1 0x1 PUSH1 0x1 PUSH1 0xA0 SHL SUB SWAP3 SWAP1 SWAP3 AND SWAP2 SWAP1 SWAP2 OR SWAP1 SSTORE JUMP JUMPDEST PUSH1 0x0 DUP2 GT PUSH2 0x9E8 JUMPI PUSH1 0x40 MLOAD PUSH3 0x461BCD PUSH1 0xE5 SHL DUP2 MSTORE PUSH1 0x4 ADD PUSH2 0x44F SWAP1 PUSH2 0x10C9 JUMP JUMPDEST PUSH1 0x2 SLOAD PUSH1 0x40 MLOAD PUSH4 0x23B872DD PUSH1 0xE0 SHL DUP2 MSTORE PUSH1 0x1 PUSH1 0x1 PUSH1 0xA0 SHL SUB SWAP1 SWAP2 AND SWAP1 PUSH4 0x23B872DD SWAP1 PUSH2 0xA1C SWAP1 CALLER SWAP1 ADDRESS SWAP1 DUP7 SWAP1 PUSH1 0x4 ADD PUSH2 0xF9B JUMP JUMPDEST PUSH1 0x20 PUSH1 0x40 MLOAD DUP1 DUP4 SUB DUP2 PUSH1 0x0 DUP8 DUP1 EXTCODESIZE ISZERO DUP1 ISZERO PUSH2 0xA36 JUMPI PUSH1 0x0 DUP1 REVERT JUMPDEST POP GAS CALL ISZERO DUP1 ISZERO PUSH2 0xA4A JUMPI RETURNDATASIZE PUSH1 0x0 DUP1 RETURNDATACOPY RETURNDATASIZE PUSH1 0x0 REVERT JUMPDEST POP POP POP POP PUSH1 0x40 MLOAD RETURNDATASIZE PUSH1 0x1F NOT PUSH1 0x1F DUP3 ADD AND DUP3 ADD DUP1 PUSH1 0x40 MSTORE POP DUP2 ADD SWAP1 PUSH2 0xA6E SWAP2 SWAP1 PUSH2 0xE07 JUMP JUMPDEST POP PUSH1 0x0 DUP1 PUSH1 0x0 SWAP1 SLOAD SWAP1 PUSH2 0x100 EXP SWAP1 DIV PUSH1 0x1 PUSH1 0x1 PUSH1 0xA0 SHL SUB AND PUSH1 0x1 PUSH1 0x1 PUSH1 0xA0 SHL SUB AND PUSH4 0x3850C7BD PUSH1 0x40 MLOAD DUP2 PUSH4 0xFFFFFFFF AND PUSH1 0xE0 SHL DUP2 MSTORE PUSH1 0x4 ADD PUSH1 0xC0 PUSH1 0x40 MLOAD DUP1 DUP4 SUB DUP2 DUP7 DUP1 EXTCODESIZE ISZERO DUP1 ISZERO PUSH2 0xABE JUMPI PUSH1 0x0 DUP1 REVERT JUMPDEST POP GAS STATICCALL ISZERO DUP1 ISZERO PUSH2 0xAD2 JUMPI RETURNDATASIZE PUSH1 0x0 DUP1 RETURNDATACOPY RETURNDATASIZE PUSH1 0x0 REVERT JUMPDEST POP POP POP POP PUSH1 0x40 MLOAD RETURNDATASIZE PUSH1 0x1F NOT PUSH1 0x1F DUP3 ADD AND DUP3 ADD DUP1 PUSH1 0x40 MSTORE POP DUP2 ADD SWAP1 PUSH2 0xAF6 SWAP2 SWAP1 PUSH2 0xED9 JUMP JUMPDEST POP POP POP POP POP SWAP1 POP PUSH1 0x0 PUSH1 0x64 DUP3 PUSH1 0x65 MUL PUSH1 0x1 PUSH1 0x1 PUSH1 0xA0 SHL SUB AND DUP2 PUSH2 0xB15 JUMPI INVALID JUMPDEST DIV SWAP1 POP PUSH5 0x1000276A3 PUSH1 0x1 PUSH1 0x1 PUSH1 0xA0 SHL SUB DUP3 AND GT PUSH2 0xB35 JUMPI POP PUSH5 0x1000276A2 JUMPDEST PUSH1 0x2 SLOAD PUSH1 0x0 SLOAD PUSH1 0x40 MLOAD PUSH4 0x95EA7B3 PUSH1 0xE0 SHL DUP2 MSTORE PUSH1 0x1 PUSH1 0x1 PUSH1 0xA0 SHL SUB SWAP3 DUP4 AND SWAP3 PUSH4 0x95EA7B3 SWAP3 PUSH2 0xB6B SWAP3 SWAP2 AND SWAP1 DUP8 SWAP1 PUSH1 0x4 ADD PUSH2 0x1072 JUMP JUMPDEST PUSH1 0x20 PUSH1 0x40 MLOAD DUP1 DUP4 SUB DUP2 PUSH1 0x0 DUP8 DUP1 EXTCODESIZE ISZERO DUP1 ISZERO PUSH2 0xB85 JUMPI PUSH1 0x0 DUP1 REVERT JUMPDEST POP GAS CALL ISZERO DUP1 ISZERO PUSH2 0xB99 JUMPI RETURNDATASIZE PUSH1 0x0 DUP1 RETURNDATACOPY RETURNDATASIZE PUSH1 0x0 REVERT JUMPDEST POP POP POP POP PUSH1 0x40 MLOAD RETURNDATASIZE PUSH1 0x1F NOT PUSH1 0x1F DUP3 ADD AND DUP3 ADD DUP1 PUSH1 0x40 MSTORE POP DUP2 ADD SWAP1 PUSH2 0xBBD SWAP2 SWAP1 PUSH2 0xE07 JUMP JUMPDEST POP PUSH1 0x0 ADDRESS PUSH1 0x40 MLOAD PUSH1 0x20 ADD PUSH2 0xBD1 SWAP2 SWAP1 PUSH2 0xF87 JUMP JUMPDEST PUSH1 0x40 DUP1 MLOAD PUSH1 0x1F NOT DUP2 DUP5 SUB ADD DUP2 MSTORE SWAP1 DUP3 SWAP1 MSTORE PUSH1 0x0 DUP1 SLOAD PUSH4 0x2515961 PUSH1 0xE3 SHL DUP5 MSTORE SWAP2 SWAP4 POP PUSH1 0x1 PUSH1 0x1 PUSH1 0xA0 SHL SUB SWAP1 SWAP2 AND SWAP2 PUSH4 0x128ACB08 SWAP2 PUSH2 0x923 SWAP2 CALLER SWAP2 SWAP1 DUP10 SWAP1 DUP9 SWAP1 DUP9 SWAP1 PUSH1 0x4 ADD PUSH2 0xFBF JUMP JUMPDEST PUSH1 0x4 SLOAD PUSH1 0x1 PUSH1 0x1 PUSH1 0xA0 SHL SUB AND DUP2 JUMP JUMPDEST PUSH1 0x0 SLOAD PUSH1 0x1 PUSH1 0x1 PUSH1 0xA0 SHL SUB AND CALLER EQ PUSH2 0xC53 JUMPI PUSH1 0x40 MLOAD PUSH3 0x461BCD PUSH1 0xE5 SHL DUP2 MSTORE PUSH1 0x4 ADD PUSH2 0x44F SWAP1 PUSH2 0x10F7 JUMP JUMPDEST PUSH1 0x0 DUP5 SGT ISZERO PUSH2 0xCE6 JUMPI PUSH1 0x1 SLOAD PUSH1 0x0 SLOAD PUSH1 0x40 MLOAD PUSH4 0xA9059CBB PUSH1 0xE0 SHL DUP2 MSTORE PUSH1 0x1 PUSH1 0x1 PUSH1 0xA0 SHL SUB SWAP3 DUP4 AND SWAP3 PUSH4 0xA9059CBB SWAP3 PUSH2 0xC92 SWAP3 SWAP2 AND SWAP1 DUP9 SWAP1 PUSH1 0x4 ADD PUSH2 0x1072 JUMP JUMPDEST PUSH1 0x20 PUSH1 0x40 MLOAD DUP1 DUP4 SUB DUP2 PUSH1 0x0 DUP8 DUP1 EXTCODESIZE ISZERO DUP1 ISZERO PUSH2 0xCAC JUMPI PUSH1 0x0 DUP1 REVERT JUMPDEST POP GAS CALL ISZERO DUP1 ISZERO PUSH2 0xCC0 JUMPI RETURNDATASIZE PUSH1 0x0 DUP1 RETURNDATACOPY RETURNDATASIZE PUSH1 0x0 REVERT JUMPDEST POP POP POP POP PUSH1 0x40 MLOAD RETURNDATASIZE PUSH1 0x1F NOT PUSH1 0x1F DUP3 ADD AND DUP3 ADD DUP1 PUSH1 0x40 MSTORE POP DUP2 ADD SWAP1 PUSH2 0xCE4 SWAP2 SWAP1 PUSH2 0xE07 JUMP JUMPDEST POP JUMPDEST PUSH1 0x0 DUP4 SGT ISZERO PUSH2 0xD79 JUMPI PUSH1 0x2 SLOAD PUSH1 0x0 SLOAD PUSH1 0x40 MLOAD PUSH4 0xA9059CBB PUSH1 0xE0 SHL DUP2 MSTORE PUSH1 0x1 PUSH1 0x1 PUSH1 0xA0 SHL SUB SWAP3 DUP4 AND SWAP3 PUSH4 0xA9059CBB SWAP3 PUSH2 0xD25 SWAP3 SWAP2 AND SWAP1 DUP8 SWAP1 PUSH1 0x4 ADD PUSH2 0x1072 JUMP JUMPDEST PUSH1 0x20 PUSH1 0x40 MLOAD DUP1 DUP4 SUB DUP2 PUSH1 0x0 DUP8 DUP1 EXTCODESIZE ISZERO DUP1 ISZERO PUSH2 0xD3F JUMPI PUSH1 0x0 DUP1 REVERT JUMPDEST POP GAS CALL ISZERO DUP1 ISZERO PUSH2 0xD53 JUMPI RETURNDATASIZE PUSH1 0x0 DUP1 RETURNDATACOPY RETURNDATASIZE PUSH1 0x0 REVERT JUMPDEST POP POP POP POP PUSH1 0x40 MLOAD RETURNDATASIZE PUSH1 0x1F NOT PUSH1 0x1F DUP3 ADD AND DUP3 ADD DUP1 PUSH1 0x40 MSTORE POP DUP2 ADD SWAP1 PUSH2 0xD77 SWAP2 SWAP1 PUSH2 0xE07 JUMP JUMPDEST POP JUMPDEST POP POP POP POP JUMP JUMPDEST PUSH1 0x4 SLOAD PUSH1 0x1 PUSH1 0xB8 SHL SWAP1 DIV PUSH1 0x2 SIGNEXTEND DUP2 JUMP JUMPDEST DUP1 MLOAD DUP1 ISZERO ISZERO DUP2 EQ PUSH2 0xD9F JUMPI PUSH1 0x0 DUP1 REVERT JUMPDEST SWAP2 SWAP1 POP JUMP JUMPDEST DUP1 MLOAD PUSH1 0x2 DUP2 SWAP1 SIGNEXTEND DUP2 EQ PUSH2 0xD9F JUMPI PUSH1 0x0 DUP1 REVERT JUMPDEST DUP1 MLOAD PUSH2 0xFFFF DUP2 AND DUP2 EQ PUSH2 0xD9F JUMPI PUSH1 0x0 DUP1 REVERT JUMPDEST PUSH1 0x0 PUSH1 0x20 DUP3 DUP5 SUB SLT ISZERO PUSH2 0xDD9 JUMPI DUP1 DUP2 REVERT JUMPDEST DUP2 CALLDATALOAD PUSH2 0xDE4 DUP2 PUSH2 0x112E JUMP JUMPDEST SWAP4 SWAP3 POP POP POP JUMP JUMPDEST PUSH1 0x0 PUSH1 0x20 DUP3 DUP5 SUB SLT ISZERO PUSH2 0xDFC JUMPI DUP1 DUP2 REVERT JUMPDEST DUP2 MLOAD PUSH2 0xDE4 DUP2 PUSH2 0x112E JUMP JUMPDEST PUSH1 0x0 PUSH1 0x20 DUP3 DUP5 SUB SLT ISZERO PUSH2 0xE18 JUMPI DUP1 DUP2 REVERT JUMPDEST PUSH2 0xDE4 DUP3 PUSH2 0xD8F JUMP JUMPDEST PUSH1 0x0 PUSH1 0x20 DUP3 DUP5 SUB SLT ISZERO PUSH2 0xE32 JUMPI DUP1 DUP2 REVERT JUMPDEST PUSH2 0xDE4 DUP3 PUSH2 0xDA4 JUMP JUMPDEST PUSH1 0x0 DUP1 PUSH1 0x40 DUP4 DUP6 SUB SLT ISZERO PUSH2 0xE4D JUMPI DUP1 DUP2 REVERT JUMPDEST POP POP DUP1 MLOAD PUSH1 0x20 SWAP1 SWAP2 ADD MLOAD SWAP1 SWAP3 SWAP1 SWAP2 POP JUMP JUMPDEST PUSH1 0x0 DUP1 PUSH1 0x0 DUP1 PUSH1 0x60 DUP6 DUP8 SUB SLT ISZERO PUSH2 0xE73 JUMPI DUP2 DUP3 REVERT JUMPDEST DUP5 CALLDATALOAD SWAP4 POP PUSH1 0x20 DUP6 ADD CALLDATALOAD SWAP3 POP PUSH1 0x40 DUP6 ADD CALLDATALOAD PUSH8 0xFFFFFFFFFFFFFFFF DUP1 DUP3 GT ISZERO PUSH2 0xE98 JUMPI DUP4 DUP5 REVERT JUMPDEST DUP2 DUP8 ADD SWAP2 POP DUP8 PUSH1 0x1F DUP4 ADD SLT PUSH2 0xEAB JUMPI DUP4 DUP5 REVERT JUMPDEST DUP2 CALLDATALOAD DUP2 DUP2 GT ISZERO PUSH2 0xEB9 JUMPI DUP5 DUP6 REVERT JUMPDEST DUP9 PUSH1 0x20 DUP3 DUP6 ADD ADD GT ISZERO PUSH2 0xECA JUMPI DUP5 DUP6 REVERT JUMPDEST SWAP6 SWAP9 SWAP5 SWAP8 POP POP PUSH1 0x20 ADD SWAP5 POP POP POP JUMP JUMPDEST PUSH1 0x0 DUP1 PUSH1 0x0 DUP1 PUSH1 0x0 DUP1 PUSH1 0xC0 DUP8 DUP10 SUB SLT ISZERO PUSH2 0xEF1 JUMPI DUP2 DUP3 REVERT JUMPDEST DUP7 MLOAD PUSH2 0xEFC DUP2 PUSH2 0x112E JUMP JUMPDEST SWAP6 POP PUSH2 0xF0A PUSH1 0x20 DUP9 ADD PUSH2 0xDA4 JUMP JUMPDEST SWAP5 POP PUSH2 0xF18 PUSH1 0x40 DUP9 ADD PUSH2 0xDB6 JUMP JUMPDEST SWAP4 POP PUSH2 0xF26 PUSH1 0x60 DUP9 ADD PUSH2 0xDB6 JUMP JUMPDEST SWAP3 POP PUSH2 0xF34 PUSH1 0x80 DUP9 ADD PUSH2 0xDB6 JUMP JUMPDEST SWAP2 POP PUSH2 0xF42 PUSH1 0xA0 DUP9 ADD PUSH2 0xD8F JUMP JUMPDEST SWAP1 POP SWAP3 SWAP6 POP SWAP3 SWAP6 POP SWAP3 SWAP6 JUMP JUMPDEST PUSH1 0x0 PUSH1 0x20 DUP3 DUP5 SUB SLT ISZERO PUSH2 0xF5F JUMPI DUP1 DUP2 REVERT JUMPDEST POP CALLDATALOAD SWAP2 SWAP1 POP JUMP JUMPDEST PUSH1 0x0 DUP1 PUSH1 0x40 DUP4 DUP6 SUB SLT ISZERO PUSH2 0xF78 JUMPI DUP2 DUP3 REVERT JUMPDEST POP POP DUP1 CALLDATALOAD SWAP3 PUSH1 0x20 SWAP1 SWAP2 ADD CALLDATALOAD SWAP2 POP JUMP JUMPDEST PUSH1 0x1 PUSH1 0x1 PUSH1 0xA0 SHL SUB SWAP2 SWAP1 SWAP2 AND DUP2 MSTORE PUSH1 0x20 ADD SWAP1 JUMP JUMPDEST PUSH1 0x1 PUSH1 0x1 PUSH1 0xA0 SHL SUB SWAP4 DUP5 AND DUP2 MSTORE SWAP2 SWAP1 SWAP3 AND PUSH1 0x20 DUP3 ADD MSTORE PUSH1 0x40 DUP2 ADD SWAP2 SWAP1 SWAP2 MSTORE PUSH1 0x60 ADD SWAP1 JUMP JUMPDEST PUSH1 0x0 PUSH1 0x1 DUP1 PUSH1 0xA0 SHL SUB DUP1 DUP9 AND DUP4 MSTORE PUSH1 0x20 DUP8 ISZERO ISZERO DUP2 DUP6 ADD MSTORE DUP7 PUSH1 0x40 DUP6 ADD MSTORE DUP2 DUP7 AND PUSH1 0x60 DUP6 ADD MSTORE PUSH1 0xA0 PUSH1 0x80 DUP6 ADD MSTORE DUP5 MLOAD SWAP2 POP DUP2 PUSH1 0xA0 DUP6 ADD MSTORE DUP3 JUMPDEST DUP3 DUP2 LT ISZERO PUSH2 0x1013 JUMPI DUP6 DUP2 ADD DUP3 ADD MLOAD DUP6 DUP3 ADD PUSH1 0xC0 ADD MSTORE DUP2 ADD PUSH2 0xFF7 JUMP JUMPDEST DUP3 DUP2 GT ISZERO PUSH2 0x1024 JUMPI DUP4 PUSH1 0xC0 DUP5 DUP8 ADD ADD MSTORE JUMPDEST POP POP PUSH1 0x1F ADD PUSH1 0x1F NOT AND SWAP2 SWAP1 SWAP2 ADD PUSH1 0xC0 ADD SWAP7 SWAP6 POP POP POP POP POP POP JUMP JUMPDEST PUSH1 0x1 PUSH1 0x1 PUSH1 0xA0 SHL SUB SWAP5 DUP6 AND DUP2 MSTORE PUSH1 0x1 PUSH1 0x1 PUSH1 0x80 SHL SUB SWAP4 SWAP1 SWAP4 AND PUSH1 0x20 DUP5 ADD MSTORE SWAP1 DUP4 AND PUSH1 0x40 DUP4 ADD MSTORE SWAP1 SWAP2 AND PUSH1 0x60 DUP3 ADD MSTORE PUSH1 0x80 ADD SWAP1 JUMP JUMPDEST PUSH1 0x1 PUSH1 0x1 PUSH1 0xA0 SHL SUB SWAP3 SWAP1 SWAP3 AND DUP3 MSTORE PUSH1 0x20 DUP3 ADD MSTORE PUSH1 0x40 ADD SWAP1 JUMP JUMPDEST PUSH1 0x2 SWAP2 SWAP1 SWAP2 SIGNEXTEND DUP2 MSTORE PUSH1 0x20 ADD SWAP1 JUMP JUMPDEST PUSH1 0x20 DUP1 DUP3 MSTORE PUSH1 0x16 SWAP1 DUP3 ADD MSTORE PUSH22 0x4F6E6C79206F776E65722063616E20646F2074686973 PUSH1 0x50 SHL PUSH1 0x40 DUP3 ADD MSTORE PUSH1 0x60 ADD SWAP1 JUMP JUMPDEST PUSH1 0x20 DUP1 DUP3 MSTORE PUSH1 0x14 SWAP1 DUP3 ADD MSTORE PUSH20 0x125B9D985B1A59081A5B9C1D5D08185B5BDD5B9D PUSH1 0x62 SHL PUSH1 0x40 DUP3 ADD MSTORE PUSH1 0x60 ADD SWAP1 JUMP JUMPDEST PUSH1 0x20 DUP1 DUP3 MSTORE PUSH1 0x17 SWAP1 DUP3 ADD MSTORE PUSH32 0x43616C6C6261636B206F6E6C792066726F6D20706F6F6C000000000000000000 PUSH1 0x40 DUP3 ADD MSTORE PUSH1 0x60 ADD SWAP1 JUMP JUMPDEST PUSH1 0x1 PUSH1 0x1 PUSH1 0xA0 SHL SUB DUP2 AND DUP2 EQ PUSH2 0x1143 JUMPI PUSH1 0x0 DUP1 REVERT JUMPDEST POP JUMP INVALID LOG2 PUSH5 0x6970667358 0x22 SLT KECCAK256 EXTCODESIZE PUSH14 0xA2C5C478044F5C9D331B24E2836E 0x4D 0xAA BYTE LOG0 0xD4 SWAP15 SWAP1 MUL PUSH30 0x1B3ADBC8B67C8F64736F6C63430007060033000000000000000000000000 "
				},
				"gasEstimates": {
					"creation": {
						"codeDepositCost": "895200",
						"executionCost": "42600",
						"totalCost": "937800"
					},
					"external": {
						"Swap0for1(uint256)": "infinite",
						"Swap1for0(uint256)": "infinite",
						"_newAdmin(address)": "22094",
						"_newPool(address)": "infinite",
						"admin()": "1114",
						"approveTokens(uint256,uint256)": "infinite",
						"deposits(uint256)": "3838",
						"farmNFT()": "1115",
						"oracle()": "1093",
						"pool()": "1116",
						"spaceMultiplier()": "1155",
						"tickSpacing()": "1134",
						"token0()": "1094",
						"token1()": "1159",
						"uniswapV3SwapCallback(int256,int256,bytes)": "infinite"
					}
				},
				"methodIdentifiers": {
					"Swap0for1(uint256)": "db638298",
					"Swap1for0(uint256)": "eb20ad47",
					"_newAdmin(address)": "e6f4d0aa",
					"_newPool(address)": "d2aca8cd",
					"admin()": "f851a440",
					"approveTokens(uint256,uint256)": "1c335703",
					"deposits(uint256)": "b02c43d0",
					"farmNFT()": "da802f80",
					"oracle()": "7dc0d1d0",
					"pool()": "16f0115b",
					"spaceMultiplier()": "fd1c1518",
					"tickSpacing()": "d0c93a7c",
					"token0()": "0dfe1681",
					"token1()": "d21220a7",
					"uniswapV3SwapCallback(int256,int256,bytes)": "fa461e33"
				}
			},
			"storageLayout": {
				"storage": [
					{
						"astId": 443,
						"contract": "contracts/core/VeloSwapV3.sol:V3Swap",
						"label": "pool",
						"offset": 0,
						"slot": "0",
						"type": "t_address"
					},
					{
						"astId": 445,
						"contract": "contracts/core/VeloSwapV3.sol:V3Swap",
						"label": "token0",
						"offset": 0,
						"slot": "1",
						"type": "t_address"
					},
					{
						"astId": 447,
						"contract": "contracts/core/VeloSwapV3.sol:V3Swap",
						"label": "token1",
						"offset": 0,
						"slot": "2",
						"type": "t_address"
					},
					{
						"astId": 449,
						"contract": "contracts/core/VeloSwapV3.sol:V3Swap",
						"label": "farmNFT",
						"offset": 0,
						"slot": "3",
						"type": "t_address"
					},
					{
						"astId": 451,
						"contract": "contracts/core/VeloSwapV3.sol:V3Swap",
						"label": "admin",
						"offset": 0,
						"slot": "4",
						"type": "t_address"
					},
					{
						"astId": 453,
						"contract": "contracts/core/VeloSwapV3.sol:V3Swap",
						"label": "tickSpacing",
						"offset": 20,
						"slot": "4",
						"type": "t_int24"
					},
					{
						"astId": 455,
						"contract": "contracts/core/VeloSwapV3.sol:V3Swap",
						"label": "spaceMultiplier",
						"offset": 23,
						"slot": "4",
						"type": "t_int24"
					},
					{
						"astId": 458,
						"contract": "contracts/core/VeloSwapV3.sol:V3Swap",
						"label": "oracle",
						"offset": 0,
						"slot": "5",
						"type": "t_address"
					},
					{
						"astId": 471,
						"contract": "contracts/core/VeloSwapV3.sol:V3Swap",
						"label": "deposits",
						"offset": 0,
						"slot": "6",
						"type": "t_mapping(t_uint256,t_struct(Deposit)467_storage)"
					}
				],
				"types": {
					"t_address": {
						"encoding": "inplace",
						"label": "address",
						"numberOfBytes": "20"
					},
					"t_int24": {
						"encoding": "inplace",
						"label": "int24",
						"numberOfBytes": "3"
					},
					"t_mapping(t_uint256,t_struct(Deposit)467_storage)": {
						"encoding": "mapping",
						"key": "t_uint256",
						"label": "mapping(uint256 => struct V3Swap.Deposit)",
						"numberOfBytes": "32",
						"value": "t_struct(Deposit)467_storage"
					},
					"t_struct(Deposit)467_storage": {
						"encoding": "inplace",
						"label": "struct V3Swap.Deposit",
						"members": [
							{
								"astId": 460,
								"contract": "contracts/core/VeloSwapV3.sol:V3Swap",
								"label": "owner",
								"offset": 0,
								"slot": "0",
								"type": "t_address"
							},
							{
								"astId": 462,
								"contract": "contracts/core/VeloSwapV3.sol:V3Swap",
								"label": "liquidity",
								"offset": 0,
								"slot": "1",
								"type": "t_uint128"
							},
							{
								"astId": 464,
								"contract": "contracts/core/VeloSwapV3.sol:V3Swap",
								"label": "token0",
								"offset": 0,
								"slot": "2",
								"type": "t_address"
							},
							{
								"astId": 466,
								"contract": "contracts/core/VeloSwapV3.sol:V3Swap",
								"label": "token1",
								"offset": 0,
								"slot": "3",
								"type": "t_address"
							}
						],
						"numberOfBytes": "128"
					},
					"t_uint128": {
						"encoding": "inplace",
						"label": "uint128",
						"numberOfBytes": "16"
					},
					"t_uint256": {
						"encoding": "inplace",
						"label": "uint256",
						"numberOfBytes": "32"
					}
				}
			},
			"userdoc": {
				"kind": "user",
				"methods": {},
				"version": 1
			}
		}
	}
}