{
	"contracts/core/VeloBrain.sol": {
		"BRAIN": {
			"abi": [
				{
					"inputs": [],
					"stateMutability": "nonpayable",
					"type": "constructor"
				},
				{
					"inputs": [
						{
							"internalType": "address",
							"name": "newAdmin",
							"type": "address"
						}
					],
					"name": "_newAdmin",
					"outputs": [],
					"stateMutability": "nonpayable",
					"type": "function"
				},
				{
					"inputs": [
						{
							"internalType": "address",
							"name": "newBot",
							"type": "address"
						}
					],
					"name": "_newBot",
					"outputs": [],
					"stateMutability": "nonpayable",
					"type": "function"
				},
				{
					"inputs": [
						{
							"internalType": "address",
							"name": "newOracle",
							"type": "address"
						}
					],
					"name": "_newOracle",
					"outputs": [],
					"stateMutability": "nonpayable",
					"type": "function"
				},
				{
					"inputs": [],
					"name": "admin",
					"outputs": [
						{
							"internalType": "address",
							"name": "",
							"type": "address"
						}
					],
					"stateMutability": "view",
					"type": "function"
				},
				{
					"inputs": [],
					"name": "bot",
					"outputs": [
						{
							"internalType": "address",
							"name": "",
							"type": "address"
						}
					],
					"stateMutability": "view",
					"type": "function"
				},
				{
					"inputs": [],
					"name": "farmNFT",
					"outputs": [
						{
							"internalType": "address",
							"name": "",
							"type": "address"
						}
					],
					"stateMutability": "view",
					"type": "function"
				},
				{
					"inputs": [],
					"name": "oracle",
					"outputs": [
						{
							"internalType": "address",
							"name": "",
							"type": "address"
						}
					],
					"stateMutability": "view",
					"type": "function"
				},
				{
					"inputs": [],
					"name": "tickSpacing",
					"outputs": [
						{
							"internalType": "int24",
							"name": "",
							"type": "int24"
						}
					],
					"stateMutability": "view",
					"type": "function"
				},
				{
					"inputs": [],
					"name": "token0",
					"outputs": [
						{
							"internalType": "address",
							"name": "",
							"type": "address"
						}
					],
					"stateMutability": "view",
					"type": "function"
				},
				{
					"inputs": [],
					"name": "token1",
					"outputs": [
						{
							"internalType": "address",
							"name": "",
							"type": "address"
						}
					],
					"stateMutability": "view",
					"type": "function"
				},
				{
					"inputs": [],
					"name": "tokenId",
					"outputs": [
						{
							"internalType": "uint256",
							"name": "",
							"type": "uint256"
						}
					],
					"stateMutability": "view",
					"type": "function"
				}
			],
			"devdoc": {
				"kind": "dev",
				"methods": {},
				"version": 1
			},
			"evm": {
				"assembly": "    /* \"contracts/core/VeloBrain.sol\":1334:2311  contract BRAIN {\r... */\n  mstore(0x40, 0x80)\n    /* \"contracts/core/VeloBrain.sol\":1629:1680  constructor() {\r... */\n  callvalue\n  dup1\n  iszero\n  tag_1\n  jumpi\n  0x00\n  dup1\n  revert\ntag_1:\n  pop\n    /* \"contracts/core/VeloBrain.sol\":1654:1659  admin */\n  0x00\n    /* \"contracts/core/VeloBrain.sol\":1654:1672  admin = msg.sender */\n  dup1\n  sload\n  not(sub(shl(0xa0, 0x01), 0x01))\n  and\n    /* \"contracts/core/VeloBrain.sol\":1662:1672  msg.sender */\n  caller\n    /* \"contracts/core/VeloBrain.sol\":1654:1672  admin = msg.sender */\n  or\n  swap1\n  sstore\n    /* \"contracts/core/VeloBrain.sol\":1334:2311  contract BRAIN {\r... */\n  dataSize(sub_0)\n  dup1\n  dataOffset(sub_0)\n  0x00\n  codecopy\n  0x00\n  return\nstop\n\nsub_0: assembly {\n        /* \"contracts/core/VeloBrain.sol\":1334:2311  contract BRAIN {\r... */\n      mstore(0x40, 0x80)\n      callvalue\n      dup1\n      iszero\n      tag_1\n      jumpi\n      0x00\n      dup1\n      revert\n    tag_1:\n      pop\n      jumpi(tag_2, lt(calldatasize, 0x04))\n      shr(0xe0, calldataload(0x00))\n      dup1\n      0xcb41970c\n      gt\n      tag_14\n      jumpi\n      dup1\n      0xcb41970c\n      eq\n      tag_8\n      jumpi\n      dup1\n      0xd0c93a7c\n      eq\n      tag_9\n      jumpi\n      dup1\n      0xd21220a7\n      eq\n      tag_10\n      jumpi\n      dup1\n      0xda802f80\n      eq\n      tag_11\n      jumpi\n      dup1\n      0xe6f4d0aa\n      eq\n      tag_12\n      jumpi\n      dup1\n      0xf851a440\n      eq\n      tag_13\n      jumpi\n      jump(tag_2)\n    tag_14:\n      dup1\n      0x0dfe1681\n      eq\n      tag_3\n      jumpi\n      dup1\n      0x10814c37\n      eq\n      tag_4\n      jumpi\n      dup1\n      0x17d70f7c\n      eq\n      tag_5\n      jumpi\n      dup1\n      0x7dc0d1d0\n      eq\n      tag_6\n      jumpi\n      dup1\n      0xc0b84195\n      eq\n      tag_7\n      jumpi\n    tag_2:\n      0x00\n      dup1\n      revert\n        /* \"contracts/core/VeloBrain.sol\":1438:1459  address public token0 */\n    tag_3:\n      tag_15\n      tag_16\n      jump\t// in\n    tag_15:\n      mload(0x40)\n      tag_17\n      swap2\n      swap1\n      tag_18\n      jump\t// in\n    tag_17:\n      mload(0x40)\n      dup1\n      swap2\n      sub\n      swap1\n      return\n        /* \"contracts/core/VeloBrain.sol\":1413:1431  address public bot */\n    tag_4:\n      tag_15\n      tag_20\n      jump\t// in\n        /* \"contracts/core/VeloBrain.sol\":1567:1589  uint256 public tokenId */\n    tag_5:\n      tag_22\n      tag_23\n      jump\t// in\n    tag_22:\n      mload(0x40)\n      tag_17\n      swap2\n      swap1\n      tag_25\n      jump\t// in\n        /* \"contracts/core/VeloBrain.sol\":1385:1406  address public oracle */\n    tag_6:\n      tag_15\n      tag_27\n      jump\t// in\n        /* \"contracts/core/VeloBrain.sol\":2152:2302  function _newOracle(address newOracle) external {\r... */\n    tag_7:\n      tag_29\n      tag_30\n      calldatasize\n      0x04\n      tag_31\n      jump\t// in\n    tag_30:\n      tag_32\n      jump\t// in\n    tag_29:\n      stop\n        /* \"contracts/core/VeloBrain.sol\":1846:2144  function _newBot(address newBot) external {\r... */\n    tag_8:\n      tag_29\n      tag_34\n      calldatasize\n      0x04\n      tag_31\n      jump\t// in\n    tag_34:\n      tag_35\n      jump\t// in\n        /* \"contracts/core/VeloBrain.sol\":1596:1620  int24 public tickSpacing */\n    tag_9:\n      tag_36\n      tag_37\n      jump\t// in\n    tag_36:\n      mload(0x40)\n      tag_17\n      swap2\n      swap1\n      tag_39\n      jump\t// in\n        /* \"contracts/core/VeloBrain.sol\":1488:1509  address public token1 */\n    tag_10:\n      tag_15\n      tag_41\n      jump\t// in\n        /* \"contracts/core/VeloBrain.sol\":1538:1560  address public farmNFT */\n    tag_11:\n      tag_15\n      tag_44\n      jump\t// in\n        /* \"contracts/core/VeloBrain.sol\":1690:1836  function _newAdmin(address newAdmin) external {\r... */\n    tag_12:\n      tag_29\n      tag_47\n      calldatasize\n      0x04\n      tag_31\n      jump\t// in\n    tag_47:\n      tag_48\n      jump\t// in\n        /* \"contracts/core/VeloBrain.sol\":1358:1378  address public admin */\n    tag_13:\n      tag_15\n      tag_50\n      jump\t// in\n        /* \"contracts/core/VeloBrain.sol\":1438:1459  address public token0 */\n    tag_16:\n      and(sub(shl(0xa0, 0x01), 0x01), sload(0x03))\n      dup2\n      jump\t// out\n        /* \"contracts/core/VeloBrain.sol\":1413:1431  address public bot */\n    tag_20:\n      and(sub(shl(0xa0, 0x01), 0x01), sload(0x02))\n      dup2\n      jump\t// out\n        /* \"contracts/core/VeloBrain.sol\":1567:1589  uint256 public tokenId */\n    tag_23:\n      sload(0x06)\n      dup2\n      jump\t// out\n        /* \"contracts/core/VeloBrain.sol\":1385:1406  address public oracle */\n    tag_27:\n      and(sub(shl(0xa0, 0x01), 0x01), sload(0x01))\n      dup2\n      jump\t// out\n        /* \"contracts/core/VeloBrain.sol\":2152:2302  function _newOracle(address newOracle) external {\r... */\n    tag_32:\n        /* \"contracts/core/VeloBrain.sol\":2233:2238  admin */\n      and(sub(shl(0xa0, 0x01), 0x01), sload(0x00))\n        /* \"contracts/core/VeloBrain.sol\":2219:2229  msg.sender */\n      caller\n        /* \"contracts/core/VeloBrain.sol\":2219:2238  msg.sender == admin */\n      eq\n        /* \"contracts/core/VeloBrain.sol\":2211:2265  require(msg.sender == admin, \"Only owner can do this\") */\n      tag_53\n      jumpi\n      mload(0x40)\n      shl(0xe5, 0x461bcd)\n      dup2\n      mstore\n      0x04\n      add\n      tag_54\n      swap1\n      tag_55\n      jump\t// in\n    tag_54:\n      mload(0x40)\n      dup1\n      swap2\n      sub\n      swap1\n      revert\n    tag_53:\n        /* \"contracts/core/VeloBrain.sol\":2276:2282  oracle */\n      0x01\n        /* \"contracts/core/VeloBrain.sol\":2276:2294  oracle = newOracle */\n      dup1\n      sload\n      not(sub(shl(0xa0, 0x01), 0x01))\n      and\n      sub(shl(0xa0, 0x01), 0x01)\n      swap3\n      swap1\n      swap3\n      and\n      swap2\n      swap1\n      swap2\n      or\n      swap1\n      sstore\n        /* \"contracts/core/VeloBrain.sol\":2152:2302  function _newOracle(address newOracle) external {\r... */\n      jump\t// out\n        /* \"contracts/core/VeloBrain.sol\":1846:2144  function _newBot(address newBot) external {\r... */\n    tag_35:\n        /* \"contracts/core/VeloBrain.sol\":1921:1926  admin */\n      and(sub(shl(0xa0, 0x01), 0x01), sload(0x00))\n        /* \"contracts/core/VeloBrain.sol\":1907:1917  msg.sender */\n      caller\n        /* \"contracts/core/VeloBrain.sol\":1907:1926  msg.sender == admin */\n      eq\n        /* \"contracts/core/VeloBrain.sol\":1899:1953  require(msg.sender == admin, \"Only owner can do this\") */\n      tag_57\n      jumpi\n      mload(0x40)\n      shl(0xe5, 0x461bcd)\n      dup2\n      mstore\n      0x04\n      add\n      tag_54\n      swap1\n      tag_55\n      jump\t// in\n    tag_57:\n        /* \"contracts/core/VeloBrain.sol\":1964:1967  bot */\n      0x02\n        /* \"contracts/core/VeloBrain.sol\":1964:1976  bot = newBot */\n      dup1\n      sload\n      not(sub(shl(0xa0, 0x01), 0x01))\n      and\n      sub(shl(0xa0, 0x01), 0x01)\n      dup4\n      dup2\n      and\n      swap2\n      swap1\n      swap2\n      or\n      swap2\n      dup3\n      swap1\n      sstore\n        /* \"contracts/core/VeloBrain.sol\":1996:2013  Bot(bot).token0() */\n      0x40\n      dup1\n      mload\n      shl(0xe0, 0x0dfe1681)\n      dup2\n      mstore\n      swap1\n      mload\n        /* \"contracts/core/VeloBrain.sol\":2000:2003  bot */\n      swap3\n      swap1\n      swap2\n      and\n      swap2\n        /* \"contracts/core/VeloBrain.sol\":1996:2011  Bot(bot).token0 */\n      0x0dfe1681\n      swap2\n        /* \"contracts/core/VeloBrain.sol\":1996:2013  Bot(bot).token0() */\n      0x04\n      dup1\n      dup3\n      add\n      swap3\n      0x20\n      swap3\n      swap1\n      swap2\n      swap1\n      dup3\n      swap1\n      sub\n      add\n      dup2\n        /* \"contracts/core/VeloBrain.sol\":2000:2003  bot */\n      dup7\n        /* \"contracts/core/VeloBrain.sol\":1996:2013  Bot(bot).token0() */\n      dup1\n      extcodesize\n      iszero\n      dup1\n      iszero\n      tag_59\n      jumpi\n      0x00\n      dup1\n      revert\n    tag_59:\n      pop\n      gas\n      staticcall\n      iszero\n      dup1\n      iszero\n      tag_61\n      jumpi\n      returndatasize\n      0x00\n      dup1\n      returndatacopy\n      revert(0x00, returndatasize)\n    tag_61:\n      pop\n      pop\n      pop\n      pop\n      mload(0x40)\n      returndatasize\n      not(0x1f)\n      0x1f\n      dup3\n      add\n      and\n      dup3\n      add\n      dup1\n      0x40\n      mstore\n      pop\n      dup2\n      add\n      swap1\n      tag_62\n      swap2\n      swap1\n      tag_63\n      jump\t// in\n    tag_62:\n        /* \"contracts/core/VeloBrain.sol\":1987:1993  token0 */\n      0x03\n        /* \"contracts/core/VeloBrain.sol\":1987:2013  token0 = Bot(bot).token0() */\n      dup1\n      sload\n      not(sub(shl(0xa0, 0x01), 0x01))\n      and\n      sub(shl(0xa0, 0x01), 0x01)\n      swap3\n      dup4\n      and\n      or\n      swap1\n      sstore\n        /* \"contracts/core/VeloBrain.sol\":2037:2040  bot */\n      sload(0x02)\n        /* \"contracts/core/VeloBrain.sol\":2033:2050  Bot(bot).token1() */\n      0x40\n      dup1\n      mload\n      shl(0xe0, 0xd21220a7)\n      dup2\n      mstore\n      swap1\n      mload\n        /* \"contracts/core/VeloBrain.sol\":2037:2040  bot */\n      swap2\n      swap1\n      swap3\n      and\n      swap2\n        /* \"contracts/core/VeloBrain.sol\":2033:2048  Bot(bot).token1 */\n      0xd21220a7\n      swap2\n        /* \"contracts/core/VeloBrain.sol\":2033:2050  Bot(bot).token1() */\n      0x04\n      dup1\n      dup4\n      add\n      swap3\n      0x20\n      swap3\n      swap2\n      swap1\n      dup3\n      swap1\n      sub\n      add\n      dup2\n        /* \"contracts/core/VeloBrain.sol\":2037:2040  bot */\n      dup7\n        /* \"contracts/core/VeloBrain.sol\":2033:2050  Bot(bot).token1() */\n      dup1\n      extcodesize\n      iszero\n      dup1\n      iszero\n      tag_64\n      jumpi\n      0x00\n      dup1\n      revert\n    tag_64:\n      pop\n      gas\n      staticcall\n      iszero\n      dup1\n      iszero\n      tag_66\n      jumpi\n      returndatasize\n      0x00\n      dup1\n      returndatacopy\n      revert(0x00, returndatasize)\n    tag_66:\n      pop\n      pop\n      pop\n      pop\n      mload(0x40)\n      returndatasize\n      not(0x1f)\n      0x1f\n      dup3\n      add\n      and\n      dup3\n      add\n      dup1\n      0x40\n      mstore\n      pop\n      dup2\n      add\n      swap1\n      tag_67\n      swap2\n      swap1\n      tag_63\n      jump\t// in\n    tag_67:\n        /* \"contracts/core/VeloBrain.sol\":2024:2030  token1 */\n      0x04\n        /* \"contracts/core/VeloBrain.sol\":2024:2050  token1 = Bot(bot).token1() */\n      dup1\n      sload\n      not(sub(shl(0xa0, 0x01), 0x01))\n      and\n      sub(shl(0xa0, 0x01), 0x01)\n      swap3\n      dup4\n      and\n      or\n      dup2\n      sstore\n        /* \"contracts/core/VeloBrain.sol\":2075:2078  bot */\n      sload(0x02)\n        /* \"contracts/core/VeloBrain.sol\":2071:2089  Bot(bot).farmNFT() */\n      0x40\n      dup1\n      mload\n      shl(0xe7, 0x01b5005f)\n      dup2\n      mstore\n      swap1\n      mload\n        /* \"contracts/core/VeloBrain.sol\":2075:2078  bot */\n      swap2\n      swap1\n      swap4\n      and\n      swap3\n        /* \"contracts/core/VeloBrain.sol\":2071:2087  Bot(bot).farmNFT */\n      0xda802f80\n      swap3\n        /* \"contracts/core/VeloBrain.sol\":2071:2089  Bot(bot).farmNFT() */\n      dup2\n      dup2\n      add\n      swap3\n      0x20\n      swap3\n      swap1\n      swap2\n      swap1\n      dup3\n      swap1\n      sub\n      add\n      dup2\n        /* \"contracts/core/VeloBrain.sol\":2075:2078  bot */\n      dup7\n        /* \"contracts/core/VeloBrain.sol\":2071:2089  Bot(bot).farmNFT() */\n      dup1\n      extcodesize\n      iszero\n      dup1\n      iszero\n      tag_68\n      jumpi\n      0x00\n      dup1\n      revert\n    tag_68:\n      pop\n      gas\n      staticcall\n      iszero\n      dup1\n      iszero\n      tag_70\n      jumpi\n      returndatasize\n      0x00\n      dup1\n      returndatacopy\n      revert(0x00, returndatasize)\n    tag_70:\n      pop\n      pop\n      pop\n      pop\n      mload(0x40)\n      returndatasize\n      not(0x1f)\n      0x1f\n      dup3\n      add\n      and\n      dup3\n      add\n      dup1\n      0x40\n      mstore\n      pop\n      dup2\n      add\n      swap1\n      tag_71\n      swap2\n      swap1\n      tag_63\n      jump\t// in\n    tag_71:\n        /* \"contracts/core/VeloBrain.sol\":2061:2068  farmNFT */\n      0x05\n        /* \"contracts/core/VeloBrain.sol\":2061:2089  farmNFT = Bot(bot).farmNFT() */\n      dup1\n      sload\n      not(sub(shl(0xa0, 0x01), 0x01))\n      and\n      sub(shl(0xa0, 0x01), 0x01)\n      swap3\n      dup4\n      and\n      or\n      swap1\n      sstore\n        /* \"contracts/core/VeloBrain.sol\":2118:2121  bot */\n      sload(0x02)\n        /* \"contracts/core/VeloBrain.sol\":2114:2136  Bot(bot).tickSpacing() */\n      0x40\n      dup1\n      mload\n      shl(0xe2, 0x34324e9f)\n      dup2\n      mstore\n      swap1\n      mload\n        /* \"contracts/core/VeloBrain.sol\":2118:2121  bot */\n      swap2\n      swap1\n      swap3\n      and\n      swap2\n        /* \"contracts/core/VeloBrain.sol\":2114:2134  Bot(bot).tickSpacing */\n      0xd0c93a7c\n      swap2\n        /* \"contracts/core/VeloBrain.sol\":2114:2136  Bot(bot).tickSpacing() */\n      0x04\n      dup1\n      dup4\n      add\n      swap3\n      0x20\n      swap3\n      swap2\n      swap1\n      dup3\n      swap1\n      sub\n      add\n      dup2\n        /* \"contracts/core/VeloBrain.sol\":2118:2121  bot */\n      dup7\n        /* \"contracts/core/VeloBrain.sol\":2114:2136  Bot(bot).tickSpacing() */\n      dup1\n      extcodesize\n      iszero\n      dup1\n      iszero\n      tag_72\n      jumpi\n      0x00\n      dup1\n      revert\n    tag_72:\n      pop\n      gas\n      staticcall\n      iszero\n      dup1\n      iszero\n      tag_74\n      jumpi\n      returndatasize\n      0x00\n      dup1\n      returndatacopy\n      revert(0x00, returndatasize)\n    tag_74:\n      pop\n      pop\n      pop\n      pop\n      mload(0x40)\n      returndatasize\n      not(0x1f)\n      0x1f\n      dup3\n      add\n      and\n      dup3\n      add\n      dup1\n      0x40\n      mstore\n      pop\n      dup2\n      add\n      swap1\n      tag_75\n      swap2\n      swap1\n      tag_76\n      jump\t// in\n    tag_75:\n        /* \"contracts/core/VeloBrain.sol\":2100:2111  tickSpacing */\n      0x07\n        /* \"contracts/core/VeloBrain.sol\":2100:2136  tickSpacing = Bot(bot).tickSpacing() */\n      dup1\n      sload\n      0x02\n      swap3\n      swap1\n      swap3\n      signextend\n      0xffffff\n      and\n      not(0xffffff)\n      swap1\n      swap3\n      and\n      swap2\n      swap1\n      swap2\n      or\n      swap1\n      sstore\n      pop\n        /* \"contracts/core/VeloBrain.sol\":1846:2144  function _newBot(address newBot) external {\r... */\n      jump\t// out\n        /* \"contracts/core/VeloBrain.sol\":1596:1620  int24 public tickSpacing */\n    tag_37:\n      signextend(0x02, sload(0x07))\n      dup2\n      jump\t// out\n        /* \"contracts/core/VeloBrain.sol\":1488:1509  address public token1 */\n    tag_41:\n      and(sub(shl(0xa0, 0x01), 0x01), sload(0x04))\n      dup2\n      jump\t// out\n        /* \"contracts/core/VeloBrain.sol\":1538:1560  address public farmNFT */\n    tag_44:\n      and(sub(shl(0xa0, 0x01), 0x01), sload(0x05))\n      dup2\n      jump\t// out\n        /* \"contracts/core/VeloBrain.sol\":1690:1836  function _newAdmin(address newAdmin) external {\r... */\n    tag_48:\n        /* \"contracts/core/VeloBrain.sol\":1769:1774  admin */\n      and(sub(shl(0xa0, 0x01), 0x01), sload(0x00))\n        /* \"contracts/core/VeloBrain.sol\":1755:1765  msg.sender */\n      caller\n        /* \"contracts/core/VeloBrain.sol\":1755:1774  msg.sender == admin */\n      eq\n        /* \"contracts/core/VeloBrain.sol\":1747:1801  require(msg.sender == admin, \"Only owner can do this\") */\n      tag_78\n      jumpi\n      mload(0x40)\n      shl(0xe5, 0x461bcd)\n      dup2\n      mstore\n      0x04\n      add\n      tag_54\n      swap1\n      tag_55\n      jump\t// in\n    tag_78:\n        /* \"contracts/core/VeloBrain.sol\":1812:1817  admin */\n      0x00\n        /* \"contracts/core/VeloBrain.sol\":1812:1828  admin = newAdmin */\n      dup1\n      sload\n      not(sub(shl(0xa0, 0x01), 0x01))\n      and\n      sub(shl(0xa0, 0x01), 0x01)\n      swap3\n      swap1\n      swap3\n      and\n      swap2\n      swap1\n      swap2\n      or\n      swap1\n      sstore\n        /* \"contracts/core/VeloBrain.sol\":1690:1836  function _newAdmin(address newAdmin) external {\r... */\n      jump\t// out\n        /* \"contracts/core/VeloBrain.sol\":1358:1378  address public admin */\n    tag_50:\n      and(sub(shl(0xa0, 0x01), 0x01), sload(0x00))\n      dup2\n      jump\t// out\n        /* \"#utility.yul\":14:273   */\n    tag_31:\n      0x00\n        /* \"#utility.yul\":126:128   */\n      0x20\n        /* \"#utility.yul\":114:123   */\n      dup3\n        /* \"#utility.yul\":105:112   */\n      dup5\n        /* \"#utility.yul\":101:124   */\n      sub\n        /* \"#utility.yul\":97:129   */\n      slt\n        /* \"#utility.yul\":94:96   */\n      iszero\n      tag_82\n      jumpi\n        /* \"#utility.yul\":147:153   */\n      dup1\n        /* \"#utility.yul\":139:145   */\n      dup2\n        /* \"#utility.yul\":132:154   */\n      revert\n        /* \"#utility.yul\":94:96   */\n    tag_82:\n        /* \"#utility.yul\":191:200   */\n      dup2\n        /* \"#utility.yul\":178:201   */\n      calldataload\n        /* \"#utility.yul\":210:243   */\n      tag_83\n        /* \"#utility.yul\":237:242   */\n      dup2\n        /* \"#utility.yul\":210:243   */\n      tag_84\n      jump\t// in\n    tag_83:\n        /* \"#utility.yul\":262:267   */\n      swap4\n        /* \"#utility.yul\":84:273   */\n      swap3\n      pop\n      pop\n      pop\n      jump\t// out\n        /* \"#utility.yul\":278:541   */\n    tag_63:\n      0x00\n        /* \"#utility.yul\":401:403   */\n      0x20\n        /* \"#utility.yul\":389:398   */\n      dup3\n        /* \"#utility.yul\":380:387   */\n      dup5\n        /* \"#utility.yul\":376:399   */\n      sub\n        /* \"#utility.yul\":372:404   */\n      slt\n        /* \"#utility.yul\":369:371   */\n      iszero\n      tag_86\n      jumpi\n        /* \"#utility.yul\":422:428   */\n      dup1\n        /* \"#utility.yul\":414:420   */\n      dup2\n        /* \"#utility.yul\":407:429   */\n      revert\n        /* \"#utility.yul\":369:371   */\n    tag_86:\n        /* \"#utility.yul\":459:468   */\n      dup2\n        /* \"#utility.yul\":453:469   */\n      mload\n        /* \"#utility.yul\":478:511   */\n      tag_83\n        /* \"#utility.yul\":505:510   */\n      dup2\n        /* \"#utility.yul\":478:511   */\n      tag_84\n      jump\t// in\n        /* \"#utility.yul\":546:843   */\n    tag_76:\n      0x00\n        /* \"#utility.yul\":667:669   */\n      0x20\n        /* \"#utility.yul\":655:664   */\n      dup3\n        /* \"#utility.yul\":646:653   */\n      dup5\n        /* \"#utility.yul\":642:665   */\n      sub\n        /* \"#utility.yul\":638:670   */\n      slt\n        /* \"#utility.yul\":635:637   */\n      iszero\n      tag_89\n      jumpi\n        /* \"#utility.yul\":688:694   */\n      dup1\n        /* \"#utility.yul\":680:686   */\n      dup2\n        /* \"#utility.yul\":673:695   */\n      revert\n        /* \"#utility.yul\":635:637   */\n    tag_89:\n        /* \"#utility.yul\":725:734   */\n      dup2\n        /* \"#utility.yul\":719:735   */\n      mload\n        /* \"#utility.yul\":778:783   */\n      dup1\n        /* \"#utility.yul\":775:776   */\n      0x02\n        /* \"#utility.yul\":764:784   */\n      signextend\n        /* \"#utility.yul\":757:762   */\n      dup2\n        /* \"#utility.yul\":754:785   */\n      eq\n        /* \"#utility.yul\":744:746   */\n      tag_83\n      jumpi\n        /* \"#utility.yul\":804:810   */\n      dup2\n        /* \"#utility.yul\":796:802   */\n      dup3\n        /* \"#utility.yul\":789:811   */\n      revert\n        /* \"#utility.yul\":848:1051   */\n    tag_18:\n      sub(shl(0xa0, 0x01), 0x01)\n        /* \"#utility.yul\":1012:1044   */\n      swap2\n      swap1\n      swap2\n      and\n        /* \"#utility.yul\":994:1045   */\n      dup2\n      mstore\n        /* \"#utility.yul\":982:984   */\n      0x20\n        /* \"#utility.yul\":967:985   */\n      add\n      swap1\n        /* \"#utility.yul\":949:1051   */\n      jump\t// out\n        /* \"#utility.yul\":1056:1244   */\n    tag_39:\n        /* \"#utility.yul\":1227:1228   */\n      0x02\n        /* \"#utility.yul\":1216:1237   */\n      swap2\n      swap1\n      swap2\n      signextend\n        /* \"#utility.yul\":1198:1238   */\n      dup2\n      mstore\n        /* \"#utility.yul\":1186:1188   */\n      0x20\n        /* \"#utility.yul\":1171:1189   */\n      add\n      swap1\n        /* \"#utility.yul\":1153:1244   */\n      jump\t// out\n        /* \"#utility.yul\":1249:1595   */\n    tag_55:\n        /* \"#utility.yul\":1451:1453   */\n      0x20\n        /* \"#utility.yul\":1433:1454   */\n      dup1\n      dup3\n      mstore\n        /* \"#utility.yul\":1490:1492   */\n      0x16\n        /* \"#utility.yul\":1470:1488   */\n      swap1\n      dup3\n      add\n        /* \"#utility.yul\":1463:1493   */\n      mstore\n      shl(0x50, 0x4f6e6c79206f776e65722063616e20646f2074686973)\n        /* \"#utility.yul\":1524:1526   */\n      0x40\n        /* \"#utility.yul\":1509:1527   */\n      dup3\n      add\n        /* \"#utility.yul\":1502:1554   */\n      mstore\n        /* \"#utility.yul\":1586:1588   */\n      0x60\n        /* \"#utility.yul\":1571:1589   */\n      add\n      swap1\n        /* \"#utility.yul\":1423:1595   */\n      jump\t// out\n        /* \"#utility.yul\":1600:1777   */\n    tag_25:\n        /* \"#utility.yul\":1746:1771   */\n      swap1\n      dup2\n      mstore\n        /* \"#utility.yul\":1734:1736   */\n      0x20\n        /* \"#utility.yul\":1719:1737   */\n      add\n      swap1\n        /* \"#utility.yul\":1701:1777   */\n      jump\t// out\n        /* \"#utility.yul\":1782:1915   */\n    tag_84:\n      sub(shl(0xa0, 0x01), 0x01)\n        /* \"#utility.yul\":1859:1890   */\n      dup2\n      and\n        /* \"#utility.yul\":1849:1891   */\n      dup2\n      eq\n        /* \"#utility.yul\":1839:1841   */\n      tag_96\n      jumpi\n        /* \"#utility.yul\":1905:1906   */\n      0x00\n        /* \"#utility.yul\":1902:1903   */\n      dup1\n        /* \"#utility.yul\":1895:1907   */\n      revert\n        /* \"#utility.yul\":1839:1841   */\n    tag_96:\n        /* \"#utility.yul\":1829:1915   */\n      pop\n      jump\t// out\n\n    auxdata: 0xa2646970667358221220de0b74ae0377deb8054650fd0effce82ed2ee427d8f7aff8ee926058414efb8664736f6c63430007060033\n}\n",
				"bytecode": {
					"linkReferences": {},
					"object": "608060405234801561001057600080fd5b50600080546001600160a01b031916331790556105fc806100326000396000f3fe608060405234801561001057600080fd5b50600436106100a95760003560e01c8063cb41970c11610071578063cb41970c14610106578063d0c93a7c14610119578063d21220a71461012e578063da802f8014610136578063e6f4d0aa1461013e578063f851a44014610151576100a9565b80630dfe1681146100ae57806310814c37146100cc57806317d70f7c146100d45780637dc0d1d0146100e9578063c0b84195146100f1575b600080fd5b6100b6610159565b6040516100c39190610553565b60405180910390f35b6100b6610168565b6100dc610177565b6040516100c391906105a5565b6100b661017d565b6101046100ff3660046104f3565b61018c565b005b6101046101143660046104f3565b6101e1565b610121610471565b6040516100c39190610567565b6100b661047a565b6100b6610489565b61010461014c3660046104f3565b610498565b6100b66104e4565b6003546001600160a01b031681565b6002546001600160a01b031681565b60065481565b6001546001600160a01b031681565b6000546001600160a01b031633146101bf5760405162461bcd60e51b81526004016101b690610575565b60405180910390fd5b600180546001600160a01b0319166001600160a01b0392909216919091179055565b6000546001600160a01b0316331461020b5760405162461bcd60e51b81526004016101b690610575565b600280546001600160a01b0319166001600160a01b03838116919091179182905560408051630dfe168160e01b815290519290911691630dfe168191600480820192602092909190829003018186803b15801561026757600080fd5b505afa15801561027b573d6000803e3d6000fd5b505050506040513d601f19601f8201168201806040525081019061029f9190610516565b600380546001600160a01b0319166001600160a01b039283161790556002546040805163d21220a760e01b81529051919092169163d21220a7916004808301926020929190829003018186803b1580156102f857600080fd5b505afa15801561030c573d6000803e3d6000fd5b505050506040513d601f19601f820116820180604052508101906103309190610516565b600480546001600160a01b0319166001600160a01b03928316178155600254604080516301b5005f60e71b81529051919093169263da802f809281810192602092909190829003018186803b15801561038857600080fd5b505afa15801561039c573d6000803e3d6000fd5b505050506040513d601f19601f820116820180604052508101906103c09190610516565b600580546001600160a01b0319166001600160a01b03928316179055600254604080516334324e9f60e21b81529051919092169163d0c93a7c916004808301926020929190829003018186803b15801561041957600080fd5b505afa15801561042d573d6000803e3d6000fd5b505050506040513d601f19601f820116820180604052508101906104519190610532565b6007805460029290920b62ffffff1662ffffff1990921691909117905550565b60075460020b81565b6004546001600160a01b031681565b6005546001600160a01b031681565b6000546001600160a01b031633146104c25760405162461bcd60e51b81526004016101b690610575565b600080546001600160a01b0319166001600160a01b0392909216919091179055565b6000546001600160a01b031681565b600060208284031215610504578081fd5b813561050f816105ae565b9392505050565b600060208284031215610527578081fd5b815161050f816105ae565b600060208284031215610543578081fd5b81518060020b811461050f578182fd5b6001600160a01b0391909116815260200190565b60029190910b815260200190565b6020808252601690820152754f6e6c79206f776e65722063616e20646f207468697360501b604082015260600190565b90815260200190565b6001600160a01b03811681146105c357600080fd5b5056fea2646970667358221220de0b74ae0377deb8054650fd0effce82ed2ee427d8f7aff8ee926058414efb8664736f6c63430007060033",
					"opcodes": "PUSH1 0x80 PUSH1 0x40 MSTORE CALLVALUE DUP1 ISZERO PUSH2 0x10 JUMPI PUSH1 0x0 DUP1 REVERT JUMPDEST POP PUSH1 0x0 DUP1 SLOAD PUSH1 0x1 PUSH1 0x1 PUSH1 0xA0 SHL SUB NOT AND CALLER OR SWAP1 SSTORE PUSH2 0x5FC DUP1 PUSH2 0x32 PUSH1 0x0 CODECOPY PUSH1 0x0 RETURN INVALID PUSH1 0x80 PUSH1 0x40 MSTORE CALLVALUE DUP1 ISZERO PUSH2 0x10 JUMPI PUSH1 0x0 DUP1 REVERT JUMPDEST POP PUSH1 0x4 CALLDATASIZE LT PUSH2 0xA9 JUMPI PUSH1 0x0 CALLDATALOAD PUSH1 0xE0 SHR DUP1 PUSH4 0xCB41970C GT PUSH2 0x71 JUMPI DUP1 PUSH4 0xCB41970C EQ PUSH2 0x106 JUMPI DUP1 PUSH4 0xD0C93A7C EQ PUSH2 0x119 JUMPI DUP1 PUSH4 0xD21220A7 EQ PUSH2 0x12E JUMPI DUP1 PUSH4 0xDA802F80 EQ PUSH2 0x136 JUMPI DUP1 PUSH4 0xE6F4D0AA EQ PUSH2 0x13E JUMPI DUP1 PUSH4 0xF851A440 EQ PUSH2 0x151 JUMPI PUSH2 0xA9 JUMP JUMPDEST DUP1 PUSH4 0xDFE1681 EQ PUSH2 0xAE JUMPI DUP1 PUSH4 0x10814C37 EQ PUSH2 0xCC JUMPI DUP1 PUSH4 0x17D70F7C EQ PUSH2 0xD4 JUMPI DUP1 PUSH4 0x7DC0D1D0 EQ PUSH2 0xE9 JUMPI DUP1 PUSH4 0xC0B84195 EQ PUSH2 0xF1 JUMPI JUMPDEST PUSH1 0x0 DUP1 REVERT JUMPDEST PUSH2 0xB6 PUSH2 0x159 JUMP JUMPDEST PUSH1 0x40 MLOAD PUSH2 0xC3 SWAP2 SWAP1 PUSH2 0x553 JUMP JUMPDEST PUSH1 0x40 MLOAD DUP1 SWAP2 SUB SWAP1 RETURN JUMPDEST PUSH2 0xB6 PUSH2 0x168 JUMP JUMPDEST PUSH2 0xDC PUSH2 0x177 JUMP JUMPDEST PUSH1 0x40 MLOAD PUSH2 0xC3 SWAP2 SWAP1 PUSH2 0x5A5 JUMP JUMPDEST PUSH2 0xB6 PUSH2 0x17D JUMP JUMPDEST PUSH2 0x104 PUSH2 0xFF CALLDATASIZE PUSH1 0x4 PUSH2 0x4F3 JUMP JUMPDEST PUSH2 0x18C JUMP JUMPDEST STOP JUMPDEST PUSH2 0x104 PUSH2 0x114 CALLDATASIZE PUSH1 0x4 PUSH2 0x4F3 JUMP JUMPDEST PUSH2 0x1E1 JUMP JUMPDEST PUSH2 0x121 PUSH2 0x471 JUMP JUMPDEST PUSH1 0x40 MLOAD PUSH2 0xC3 SWAP2 SWAP1 PUSH2 0x567 JUMP JUMPDEST PUSH2 0xB6 PUSH2 0x47A JUMP JUMPDEST PUSH2 0xB6 PUSH2 0x489 JUMP JUMPDEST PUSH2 0x104 PUSH2 0x14C CALLDATASIZE PUSH1 0x4 PUSH2 0x4F3 JUMP JUMPDEST PUSH2 0x498 JUMP JUMPDEST PUSH2 0xB6 PUSH2 0x4E4 JUMP JUMPDEST PUSH1 0x3 SLOAD PUSH1 0x1 PUSH1 0x1 PUSH1 0xA0 SHL SUB AND DUP2 JUMP JUMPDEST PUSH1 0x2 SLOAD PUSH1 0x1 PUSH1 0x1 PUSH1 0xA0 SHL SUB AND DUP2 JUMP JUMPDEST PUSH1 0x6 SLOAD DUP2 JUMP JUMPDEST PUSH1 0x1 SLOAD PUSH1 0x1 PUSH1 0x1 PUSH1 0xA0 SHL SUB AND DUP2 JUMP JUMPDEST PUSH1 0x0 SLOAD PUSH1 0x1 PUSH1 0x1 PUSH1 0xA0 SHL SUB AND CALLER EQ PUSH2 0x1BF JUMPI PUSH1 0x40 MLOAD PUSH3 0x461BCD PUSH1 0xE5 SHL DUP2 MSTORE PUSH1 0x4 ADD PUSH2 0x1B6 SWAP1 PUSH2 0x575 JUMP JUMPDEST PUSH1 0x40 MLOAD DUP1 SWAP2 SUB SWAP1 REVERT JUMPDEST PUSH1 0x1 DUP1 SLOAD PUSH1 0x1 PUSH1 0x1 PUSH1 0xA0 SHL SUB NOT AND PUSH1 0x1 PUSH1 0x1 PUSH1 0xA0 SHL SUB SWAP3 SWAP1 SWAP3 AND SWAP2 SWAP1 SWAP2 OR SWAP1 SSTORE JUMP JUMPDEST PUSH1 0x0 SLOAD PUSH1 0x1 PUSH1 0x1 PUSH1 0xA0 SHL SUB AND CALLER EQ PUSH2 0x20B JUMPI PUSH1 0x40 MLOAD PUSH3 0x461BCD PUSH1 0xE5 SHL DUP2 MSTORE PUSH1 0x4 ADD PUSH2 0x1B6 SWAP1 PUSH2 0x575 JUMP JUMPDEST PUSH1 0x2 DUP1 SLOAD PUSH1 0x1 PUSH1 0x1 PUSH1 0xA0 SHL SUB NOT AND PUSH1 0x1 PUSH1 0x1 PUSH1 0xA0 SHL SUB DUP4 DUP2 AND SWAP2 SWAP1 SWAP2 OR SWAP2 DUP3 SWAP1 SSTORE PUSH1 0x40 DUP1 MLOAD PUSH4 0xDFE1681 PUSH1 0xE0 SHL DUP2 MSTORE SWAP1 MLOAD SWAP3 SWAP1 SWAP2 AND SWAP2 PUSH4 0xDFE1681 SWAP2 PUSH1 0x4 DUP1 DUP3 ADD SWAP3 PUSH1 0x20 SWAP3 SWAP1 SWAP2 SWAP1 DUP3 SWAP1 SUB ADD DUP2 DUP7 DUP1 EXTCODESIZE ISZERO DUP1 ISZERO PUSH2 0x267 JUMPI PUSH1 0x0 DUP1 REVERT JUMPDEST POP GAS STATICCALL ISZERO DUP1 ISZERO PUSH2 0x27B JUMPI RETURNDATASIZE PUSH1 0x0 DUP1 RETURNDATACOPY RETURNDATASIZE PUSH1 0x0 REVERT JUMPDEST POP POP POP POP PUSH1 0x40 MLOAD RETURNDATASIZE PUSH1 0x1F NOT PUSH1 0x1F DUP3 ADD AND DUP3 ADD DUP1 PUSH1 0x40 MSTORE POP DUP2 ADD SWAP1 PUSH2 0x29F SWAP2 SWAP1 PUSH2 0x516 JUMP JUMPDEST PUSH1 0x3 DUP1 SLOAD PUSH1 0x1 PUSH1 0x1 PUSH1 0xA0 SHL SUB NOT AND PUSH1 0x1 PUSH1 0x1 PUSH1 0xA0 SHL SUB SWAP3 DUP4 AND OR SWAP1 SSTORE PUSH1 0x2 SLOAD PUSH1 0x40 DUP1 MLOAD PUSH4 0xD21220A7 PUSH1 0xE0 SHL DUP2 MSTORE SWAP1 MLOAD SWAP2 SWAP1 SWAP3 AND SWAP2 PUSH4 0xD21220A7 SWAP2 PUSH1 0x4 DUP1 DUP4 ADD SWAP3 PUSH1 0x20 SWAP3 SWAP2 SWAP1 DUP3 SWAP1 SUB ADD DUP2 DUP7 DUP1 EXTCODESIZE ISZERO DUP1 ISZERO PUSH2 0x2F8 JUMPI PUSH1 0x0 DUP1 REVERT JUMPDEST POP GAS STATICCALL ISZERO DUP1 ISZERO PUSH2 0x30C JUMPI RETURNDATASIZE PUSH1 0x0 DUP1 RETURNDATACOPY RETURNDATASIZE PUSH1 0x0 REVERT JUMPDEST POP POP POP POP PUSH1 0x40 MLOAD RETURNDATASIZE PUSH1 0x1F NOT PUSH1 0x1F DUP3 ADD AND DUP3 ADD DUP1 PUSH1 0x40 MSTORE POP DUP2 ADD SWAP1 PUSH2 0x330 SWAP2 SWAP1 PUSH2 0x516 JUMP JUMPDEST PUSH1 0x4 DUP1 SLOAD PUSH1 0x1 PUSH1 0x1 PUSH1 0xA0 SHL SUB NOT AND PUSH1 0x1 PUSH1 0x1 PUSH1 0xA0 SHL SUB SWAP3 DUP4 AND OR DUP2 SSTORE PUSH1 0x2 SLOAD PUSH1 0x40 DUP1 MLOAD PUSH4 0x1B5005F PUSH1 0xE7 SHL DUP2 MSTORE SWAP1 MLOAD SWAP2 SWAP1 SWAP4 AND SWAP3 PUSH4 0xDA802F80 SWAP3 DUP2 DUP2 ADD SWAP3 PUSH1 0x20 SWAP3 SWAP1 SWAP2 SWAP1 DUP3 SWAP1 SUB ADD DUP2 DUP7 DUP1 EXTCODESIZE ISZERO DUP1 ISZERO PUSH2 0x388 JUMPI PUSH1 0x0 DUP1 REVERT JUMPDEST POP GAS STATICCALL ISZERO DUP1 ISZERO PUSH2 0x39C JUMPI RETURNDATASIZE PUSH1 0x0 DUP1 RETURNDATACOPY RETURNDATASIZE PUSH1 0x0 REVERT JUMPDEST POP POP POP POP PUSH1 0x40 MLOAD RETURNDATASIZE PUSH1 0x1F NOT PUSH1 0x1F DUP3 ADD AND DUP3 ADD DUP1 PUSH1 0x40 MSTORE POP DUP2 ADD SWAP1 PUSH2 0x3C0 SWAP2 SWAP1 PUSH2 0x516 JUMP JUMPDEST PUSH1 0x5 DUP1 SLOAD PUSH1 0x1 PUSH1 0x1 PUSH1 0xA0 SHL SUB NOT AND PUSH1 0x1 PUSH1 0x1 PUSH1 0xA0 SHL SUB SWAP3 DUP4 AND OR SWAP1 SSTORE PUSH1 0x2 SLOAD PUSH1 0x40 DUP1 MLOAD PUSH4 0x34324E9F PUSH1 0xE2 SHL DUP2 MSTORE SWAP1 MLOAD SWAP2 SWAP1 SWAP3 AND SWAP2 PUSH4 0xD0C93A7C SWAP2 PUSH1 0x4 DUP1 DUP4 ADD SWAP3 PUSH1 0x20 SWAP3 SWAP2 SWAP1 DUP3 SWAP1 SUB ADD DUP2 DUP7 DUP1 EXTCODESIZE ISZERO DUP1 ISZERO PUSH2 0x419 JUMPI PUSH1 0x0 DUP1 REVERT JUMPDEST POP GAS STATICCALL ISZERO DUP1 ISZERO PUSH2 0x42D JUMPI RETURNDATASIZE PUSH1 0x0 DUP1 RETURNDATACOPY RETURNDATASIZE PUSH1 0x0 REVERT JUMPDEST POP POP POP POP PUSH1 0x40 MLOAD RETURNDATASIZE PUSH1 0x1F NOT PUSH1 0x1F DUP3 ADD AND DUP3 ADD DUP1 PUSH1 0x40 MSTORE POP DUP2 ADD SWAP1 PUSH2 0x451 SWAP2 SWAP1 PUSH2 0x532 JUMP JUMPDEST PUSH1 0x7 DUP1 SLOAD PUSH1 0x2 SWAP3 SWAP1 SWAP3 SIGNEXTEND PUSH3 0xFFFFFF AND PUSH3 0xFFFFFF NOT SWAP1 SWAP3 AND SWAP2 SWAP1 SWAP2 OR SWAP1 SSTORE POP JUMP JUMPDEST PUSH1 0x7 SLOAD PUSH1 0x2 SIGNEXTEND DUP2 JUMP JUMPDEST PUSH1 0x4 SLOAD PUSH1 0x1 PUSH1 0x1 PUSH1 0xA0 SHL SUB AND DUP2 JUMP JUMPDEST PUSH1 0x5 SLOAD PUSH1 0x1 PUSH1 0x1 PUSH1 0xA0 SHL SUB AND DUP2 JUMP JUMPDEST PUSH1 0x0 SLOAD PUSH1 0x1 PUSH1 0x1 PUSH1 0xA0 SHL SUB AND CALLER EQ PUSH2 0x4C2 JUMPI PUSH1 0x40 MLOAD PUSH3 0x461BCD PUSH1 0xE5 SHL DUP2 MSTORE PUSH1 0x4 ADD PUSH2 0x1B6 SWAP1 PUSH2 0x575 JUMP JUMPDEST PUSH1 0x0 DUP1 SLOAD PUSH1 0x1 PUSH1 0x1 PUSH1 0xA0 SHL SUB NOT AND PUSH1 0x1 PUSH1 0x1 PUSH1 0xA0 SHL SUB SWAP3 SWAP1 SWAP3 AND SWAP2 SWAP1 SWAP2 OR SWAP1 SSTORE JUMP JUMPDEST PUSH1 0x0 SLOAD PUSH1 0x1 PUSH1 0x1 PUSH1 0xA0 SHL SUB AND DUP2 JUMP JUMPDEST PUSH1 0x0 PUSH1 0x20 DUP3 DUP5 SUB SLT ISZERO PUSH2 0x504 JUMPI DUP1 DUP2 REVERT JUMPDEST DUP2 CALLDATALOAD PUSH2 0x50F DUP2 PUSH2 0x5AE JUMP JUMPDEST SWAP4 SWAP3 POP POP POP JUMP JUMPDEST PUSH1 0x0 PUSH1 0x20 DUP3 DUP5 SUB SLT ISZERO PUSH2 0x527 JUMPI DUP1 DUP2 REVERT JUMPDEST DUP2 MLOAD PUSH2 0x50F DUP2 PUSH2 0x5AE JUMP JUMPDEST PUSH1 0x0 PUSH1 0x20 DUP3 DUP5 SUB SLT ISZERO PUSH2 0x543 JUMPI DUP1 DUP2 REVERT JUMPDEST DUP2 MLOAD DUP1 PUSH1 0x2 SIGNEXTEND DUP2 EQ PUSH2 0x50F JUMPI DUP2 DUP3 REVERT JUMPDEST PUSH1 0x1 PUSH1 0x1 PUSH1 0xA0 SHL SUB SWAP2 SWAP1 SWAP2 AND DUP2 MSTORE PUSH1 0x20 ADD SWAP1 JUMP JUMPDEST PUSH1 0x2 SWAP2 SWAP1 SWAP2 SIGNEXTEND DUP2 MSTORE PUSH1 0x20 ADD SWAP1 JUMP JUMPDEST PUSH1 0x20 DUP1 DUP3 MSTORE PUSH1 0x16 SWAP1 DUP3 ADD MSTORE PUSH22 0x4F6E6C79206F776E65722063616E20646F2074686973 PUSH1 0x50 SHL PUSH1 0x40 DUP3 ADD MSTORE PUSH1 0x60 ADD SWAP1 JUMP JUMPDEST SWAP1 DUP2 MSTORE PUSH1 0x20 ADD SWAP1 JUMP JUMPDEST PUSH1 0x1 PUSH1 0x1 PUSH1 0xA0 SHL SUB DUP2 AND DUP2 EQ PUSH2 0x5C3 JUMPI PUSH1 0x0 DUP1 REVERT JUMPDEST POP JUMP INVALID LOG2 PUSH5 0x6970667358 0x22 SLT KECCAK256 0xDE SIGNEXTEND PUSH21 0xAE0377DEB8054650FD0EFFCE82ED2EE427D8F7AFF8 0xEE SWAP3 PUSH1 0x58 COINBASE 0x4E 0xFB DUP7 PUSH5 0x736F6C6343 STOP SMOD MOD STOP CALLER "
				},
				"gasEstimates": {
					"creation": {
						"codeDepositCost": "306400",
						"executionCost": "21178",
						"totalCost": "327578"
					},
					"external": {
						"_newAdmin(address)": "22093",
						"_newBot(address)": "infinite",
						"_newOracle(address)": "22094",
						"admin()": "1180",
						"bot()": "1093",
						"farmNFT()": "1136",
						"oracle()": "1137",
						"tickSpacing()": "1072",
						"token0()": "1071",
						"token1()": "1114",
						"tokenId()": "1073"
					}
				},
				"methodIdentifiers": {
					"_newAdmin(address)": "e6f4d0aa",
					"_newBot(address)": "cb41970c",
					"_newOracle(address)": "c0b84195",
					"admin()": "f851a440",
					"bot()": "10814c37",
					"farmNFT()": "da802f80",
					"oracle()": "7dc0d1d0",
					"tickSpacing()": "d0c93a7c",
					"token0()": "0dfe1681",
					"token1()": "d21220a7",
					"tokenId()": "17d70f7c"
				}
			},
			"storageLayout": {
				"storage": [
					{
						"astId": 121,
						"contract": "contracts/core/VeloBrain.sol:BRAIN",
						"label": "admin",
						"offset": 0,
						"slot": "0",
						"type": "t_address"
					},
					{
						"astId": 123,
						"contract": "contracts/core/VeloBrain.sol:BRAIN",
						"label": "oracle",
						"offset": 0,
						"slot": "1",
						"type": "t_address"
					},
					{
						"astId": 125,
						"contract": "contracts/core/VeloBrain.sol:BRAIN",
						"label": "bot",
						"offset": 0,
						"slot": "2",
						"type": "t_address"
					},
					{
						"astId": 127,
						"contract": "contracts/core/VeloBrain.sol:BRAIN",
						"label": "token0",
						"offset": 0,
						"slot": "3",
						"type": "t_address"
					},
					{
						"astId": 129,
						"contract": "contracts/core/VeloBrain.sol:BRAIN",
						"label": "token1",
						"offset": 0,
						"slot": "4",
						"type": "t_address"
					},
					{
						"astId": 131,
						"contract": "contracts/core/VeloBrain.sol:BRAIN",
						"label": "farmNFT",
						"offset": 0,
						"slot": "5",
						"type": "t_address"
					},
					{
						"astId": 133,
						"contract": "contracts/core/VeloBrain.sol:BRAIN",
						"label": "tokenId",
						"offset": 0,
						"slot": "6",
						"type": "t_uint256"
					},
					{
						"astId": 135,
						"contract": "contracts/core/VeloBrain.sol:BRAIN",
						"label": "tickSpacing",
						"offset": 0,
						"slot": "7",
						"type": "t_int24"
					}
				],
				"types": {
					"t_address": {
						"encoding": "inplace",
						"label": "address",
						"numberOfBytes": "20"
					},
					"t_int24": {
						"encoding": "inplace",
						"label": "int24",
						"numberOfBytes": "3"
					},
					"t_uint256": {
						"encoding": "inplace",
						"label": "uint256",
						"numberOfBytes": "32"
					}
				}
			},
			"userdoc": {
				"kind": "user",
				"methods": {},
				"version": 1
			}
		}
	}
}