{
	"data": {
		"bytecode": {
			"linkReferences": {},
			"object": "608060405234801561001057600080fd5b50600580546001600160a01b031916331790556128dd806100326000396000f3fe6080604052600436106101f95760003560e01c8063bc7dc1ca1161010d578063dd480bf1116100a0578063e8078d941161006f578063e8078d94146104b4578063eb20ad47146104bc578063f851a440146104cf578063fa461e33146104e4578063fd1c151814610504576101f9565b8063dd480bf114610462578063e0842e9614610484578063e58d539e1461048c578063e6f4d0aa14610494576101f9565b8063d2aca8cd116100dc578063d2aca8cd14610412578063d589854614610432578063da802f801461043a578063db6382981461044f576101f9565b8063bc7dc1ca146103a8578063c0b84195146103bb578063d0c93a7c146103db578063d21220a7146103fd576101f9565b80633efa3e6e116101905780637210468a1161015f5780637210468a146103195780637d7c2a1c146103395780637dc0d1d01461034157806385cd14ba14610356578063b02c43d014610378576101f9565b80633efa3e6e146102d6578063491e91ee146102e95780636020159d146102f157806370bb45b314610311576101f9565b80631c335703116101cc5780631c3357031461028d5780633a4b66f1146102a25780633ccfd60b146102aa5780633d1c387b146102b2576101f9565b80630dfe1681146101fe578063150b7a021461022957806316f0115b1461025657806317d70f7c1461026b575b600080fd5b34801561020a57600080fd5b50610213610519565b6040516102209190612412565b60405180910390f35b34801561023557600080fd5b50610249610244366004612088565b610528565b6040516102209190612521565b34801561026257600080fd5b50610213610538565b34801561027757600080fd5b50610280610547565b6040516102209190612889565b6102a061029b3660046122fe565b61054d565b005b6102a0610663565b6102a06107c6565b3480156102be57600080fd5b506102c76107ff565b60405161022093929190612544565b6102a06102e4366004612293565b6108d2565b6102a0610975565b3480156102fd57600080fd5b506102a061030c366004612293565b610b95565b6102a0610bc4565b34801561032557600080fd5b506102a0610334366004612050565b610bfd565b6102a0610cb1565b34801561034d57600080fd5b50610213611021565b34801561036257600080fd5b5061036b611030565b6040516102209190612516565b34801561038457600080fd5b50610398610393366004612293565b61111b565b60405161022094939291906124e2565b6102a06103b6366004612293565b61115b565b3480156103c757600080fd5b506102a06103d6366004612050565b611192565b3480156103e757600080fd5b506103f06111de565b6040516102209190612536565b34801561040957600080fd5b506102136111ee565b34801561041e57600080fd5b506102a061042d366004612050565b6111fd565b6102a0611492565b34801561044657600080fd5b506102136114d7565b6102a061045d366004612293565b6114e6565b34801561046e57600080fd5b50610477611709565b6040516102209190612875565b6102a06117a9565b6102a06117fa565b3480156104a057600080fd5b506102a06104af366004612050565b611860565b6102806118ac565b6102a06104ca366004612293565b611be7565b3480156104db57600080fd5b50610213611db2565b3480156104f057600080fd5b506102a06104ff3660046121a3565b611dc1565b34801561051057600080fd5b506103f0611f0f565b6001546001600160a01b031681565b630a85bd0160e11b949350505050565b6000546001600160a01b031681565b60045481565b60015460035460405163095ea7b360e01b81526001600160a01b039283169263095ea7b392610583929116908690600401612426565b602060405180830381600087803b15801561059d57600080fd5b505af11580156105b1573d6000803e3d6000fd5b505050506040513d601f19601f820116820180604052508101906105d5919061214c565b5060025460035460405163095ea7b360e01b81526001600160a01b039283169263095ea7b39261060c929116908590600401612426565b602060405180830381600087803b15801561062657600080fd5b505af115801561063a573d6000803e3d6000fd5b505050506040513d601f19601f8201168201806040525081019061065e919061214c565b505050565b6005546004805460405163095ea7b360e01b815273416b433906b1b72fa758e166e239c43d68dc6f299363095ea7b3936106a9936001600160a01b039092169201612426565b600060405180830381600087803b1580156106c357600080fd5b505af11580156106d7573d6000803e3d6000fd5b50506004805460405163095ea7b360e01b815273416b433906b1b72fa758e166e239c43d68dc6f29945063095ea7b393506107299273c8c7b5ae61d97be7d02d606629059487066dc9cf929101612426565b600060405180830381600087803b15801561074357600080fd5b505af1158015610757573d6000803e3d6000fd5b50506004805460405163b6b55f2560e01b815273c8c7b5ae61d97be7d02d606629059487066dc9cf945063b6b55f2593506107929201612889565b600060405180830381600087803b1580156107ac57600080fd5b505af11580156107c0573d6000803e3d6000fd5b50505050565b60048054604051632e1a7d4d60e01b815273c8c7b5ae61d97be7d02d606629059487066dc9cf92632e1a7d4d9261079292909101612889565b60008060008060009054906101000a90046001600160a01b03166001600160a01b0316633850c7bd6040518163ffffffff1660e01b815260040160c06040518083038186803b15801561085157600080fd5b505afa158015610865573d6000803e3d6000fd5b505050506040513d601f19601f82011682018060405250810190610889919061221e565b5050600554929450600093505050600160a01b9004600290810b9081810b9084900b816108b257fe5b600554919005919091029450600160a01b900460020b8401925050909192565b6005546001600160a01b031633146109055760405162461bcd60e51b81526004016108fc90612667565b60405180910390fd5b6040516323b872dd60e01b815273416b433906b1b72fa758e166e239c43d68dc6f29906323b872dd906109409030903390869060040161243f565b600060405180830381600087803b15801561095a57600080fd5b505af115801561096e573d6000803e3d6000fd5b5050505050565b6004805460405163133f757160e31b815260009273416b433906b1b72fa758e166e239c43d68dc6f29926399fbab88926109af9201612889565b6101806040518083038186803b1580156109c857600080fd5b505afa1580156109dc573d6000803e3d6000fd5b505050506040513d601f19601f82011682018060405250810190610a00919061231f565b5050505097505050505050505060006040518060a001604052806004548152602001836001600160801b031681526020016000815260200160008152602001426216e36001815250905073416b433906b1b72fa758e166e239c43d68dc6f296001600160a01b0316630c49ccbe826040518263ffffffff1660e01b8152600401610a8a919061276d565b6040805180830381600087803b158015610aa357600080fd5b505af1158015610ab7573d6000803e3d6000fd5b505050506040513d601f19601f82011682018060405250810190610adb9190612180565b5050604080516080810182526004805482523060208301526e01bc16d674ec7ff21f494c589c00008284018190526060830152915163fc6f786560e01b8152909173416b433906b1b72fa758e166e239c43d68dc6f299163fc6f786591610b449185910161272a565b6040805180830381600087803b158015610b5d57600080fd5b505af1158015610b71573d6000803e3d6000fd5b505050506040513d601f19601f8201168201806040525081019061096e9190612180565b6005546001600160a01b03163314610bbf5760405162461bcd60e51b81526004016108fc90612667565b600455565b60048054604051631c4b774b60e01b815273c8c7b5ae61d97be7d02d606629059487066dc9cf92631c4b774b9261079292909101612889565b6040516370a0823160e01b81526000906001600160a01b038316906370a0823190610c2c903090600401612412565b60206040518083038186803b158015610c4457600080fd5b505afa158015610c58573d6000803e3d6000fd5b505050506040513d601f19601f82011682018060405250810190610c7c91906122ab565b60055460405163a9059cbb60e01b81529192506001600160a01b038085169263a9059cbb9261060c9216908590600401612426565b600080610cbc6107ff565b92505091508160020b8160020b1215610ce75760405162461bcd60e51b81526004016108fc906125bc565b600654600080546040516303ca740160e61b815291926001600160a01b039081169263f29d004092610d1d921690600401612412565b60206040518083038186803b158015610d3557600080fd5b505afa158015610d49573d6000803e3d6000fd5b505050506040513d601f19601f82011682018060405250810190610d6d91906122ab565b905060008111610d8f5760405162461bcd60e51b81526004016108fc906126c5565b6000610da384840360020b606460c8611f1f565b90506064811115610db2575060645b6001546040516370a0823160e01b81526000916001600160a01b0316906370a0823190610de3903090600401612412565b60206040518083038186803b158015610dfb57600080fd5b505afa158015610e0f573d6000803e3d6000fd5b505050506040513d601f19601f82011682018060405250810190610e3391906122ab565b6002546040516370a0823160e01b81529192506000916001600160a01b03909116906370a0823190610e69903090600401612412565b60206040518083038186803b158015610e8157600080fd5b505afa158015610e95573d6000803e3d6000fd5b505050506040513d601f19601f82011682018060405250810190610eb991906122ab565b90506000821180610eca5750600081115b610ee65760405162461bcd60e51b81526004016108fc90612561565b6000610efb828667016345785d8a0000611f1f565b90506000610f098483611fcf565b905060008111610f2b5760405162461bcd60e51b81526004016108fc90612612565b6000610f3982876064611f1f565b90506000610f478383611fe5565b90508086038285036000821315610fa8578188811115610f795760405162461bcd60e51b81526004016108fc9061263c565b60008111610f995760405162461bcd60e51b81526004016108fc906125e8565b610fa2816114e6565b50611013565b6000811315611013576000610fc68267016345785d8a00008d611f1f565b905087811115610fe85760405162461bcd60e51b81526004016108fc90612591565b600081116110085760405162461bcd60e51b81526004016108fc906125e8565b61101181611be7565b505b505050505050505050505050565b6006546001600160a01b031681565b60008061103b6107ff565b6004805460405163133f757160e31b81529295506000945084935073416b433906b1b72fa758e166e239c43d68dc6f29926399fbab889261107d929101612889565b6101806040518083038186803b15801561109657600080fd5b505afa1580156110aa573d6000803e3d6000fd5b505050506040513d601f19601f820116820180604052508101906110ce919061231f565b50505050509650965050505050508160020b8360020b12156110f65760009350505050611118565b8060020b8360020b13156111105760009350505050611118565b600193505050505b90565b60076020526000908152604090208054600182015460028301546003909301546001600160a01b03928316936001600160801b0390921692918216911684565b604051632e1a7d4d60e01b815273c8c7b5ae61d97be7d02d606629059487066dc9cf90632e1a7d4d90610940908490600401612889565b6005546001600160a01b031633146111bc5760405162461bcd60e51b81526004016108fc90612667565b600680546001600160a01b0319166001600160a01b0392909216919091179055565b600554600160a01b900460020b81565b6002546001600160a01b031681565b6005546001600160a01b031633146112275760405162461bcd60e51b81526004016108fc90612667565b600080546001600160a01b0319166001600160a01b03838116919091179182905560408051630dfe168160e01b815290519290911691630dfe168191600480820192602092909190829003018186803b15801561128357600080fd5b505afa158015611297573d6000803e3d6000fd5b505050506040513d601f19601f820116820180604052508101906112bb919061206c565b600180546001600160a01b0319166001600160a01b039283161790556000546040805163d21220a760e01b81529051919092169163d21220a7916004808301926020929190829003018186803b15801561131457600080fd5b505afa158015611328573d6000803e3d6000fd5b505050506040513d601f19601f8201168201806040525081019061134c919061206c565b600280546001600160a01b0319166001600160a01b03928316179055600054604080516323e6650160e11b8152905191909216916347ccca02916004808301926020929190829003018186803b1580156113a557600080fd5b505afa1580156113b9573d6000803e3d6000fd5b505050506040513d601f19601f820116820180604052508101906113dd919061206c565b600380546001600160a01b0319166001600160a01b03928316179055600054604080516334324e9f60e21b81529051919092169163d0c93a7c916004808301926020929190829003018186803b15801561143657600080fd5b505afa15801561144a573d6000803e3d6000fd5b505050506040513d601f19601f8201168201806040525081019061146e9190612166565b600560146101000a81548162ffffff021916908360020b62ffffff16021790555050565b6005546001600160a01b031633146114bc5760405162461bcd60e51b81526004016108fc90612667565b6114c4610cb1565b6114cc6118ac565b506114d5610663565b565b6003546001600160a01b031681565b600081116115065760405162461bcd60e51b81526004016108fc90612697565b60008060009054906101000a90046001600160a01b03166001600160a01b0316633850c7bd6040518163ffffffff1660e01b815260040160c06040518083038186803b15801561155557600080fd5b505afa158015611569573d6000803e3d6000fd5b505050506040513d601f19601f8201168201806040525081019061158d919061221e565b5050505050905060006064826063026001600160a01b0316816115ac57fe5b0490506401000276a36001600160a01b038216116115cc57506401000276a45b60015460005460405163095ea7b360e01b81526001600160a01b039283169263095ea7b392611602929116908790600401612426565b602060405180830381600087803b15801561161c57600080fd5b505af1158015611630573d6000803e3d6000fd5b505050506040513d601f19601f82011682018060405250810190611654919061214c565b506000306040516020016116689190612412565b60408051601f1981840301815290829052600054630251596160e31b83529092506001600160a01b03169063128acb08906116b0903090600190899088908890600401612463565b6040805180830381600087803b1580156116c957600080fd5b505af11580156116dd573d6000803e3d6000fd5b505050506040513d601f19601f820116820180604052508101906117019190612180565b505050505050565b6004805460405163133f757160e31b8152600092839273416b433906b1b72fa758e166e239c43d68dc6f29926399fbab8892611746929101612889565b6101806040518083038186803b15801561175f57600080fd5b505afa158015611773573d6000803e3d6000fd5b505050506040513d601f19601f82011682018060405250810190611797919061231f565b50929b50505050505050505050505090565b60006117b3611030565b9050600181151514156117c657506114d5565b6117ce6107c6565b6117d6610bc4565b6117de610975565b6117e6610cb1565b6117ee6118ac565b506117f7610663565b50565b6005546001600160a01b031633146118245760405162461bcd60e51b81526004016108fc90612667565b600480546040516323b872dd60e01b815273416b433906b1b72fa758e166e239c43d68dc6f29926323b872dd926107929230923392910161243f565b6005546001600160a01b0316331461188a5760405162461bcd60e51b81526004016108fc90612667565b600580546001600160a01b0319166001600160a01b0392909216919091179055565b6001546040516370a0823160e01b815260009182916001600160a01b03909116906370a08231906118e1903090600401612412565b60206040518083038186803b1580156118f957600080fd5b505afa15801561190d573d6000803e3d6000fd5b505050506040513d601f19601f8201168201806040525081019061193191906122ab565b6002546040516370a0823160e01b81529192506000916001600160a01b03909116906370a0823190611967903090600401612412565b60206040518083038186803b15801561197f57600080fd5b505afa158015611993573d6000803e3d6000fd5b505050506040513d601f19601f820116820180604052508101906119b791906122ab565b90506000806119c46107ff565b5060015460035460405163095ea7b360e01b81529395509193506001600160a01b039081169263095ea7b392611a009216908890600401612426565b602060405180830381600087803b158015611a1a57600080fd5b505af1158015611a2e573d6000803e3d6000fd5b505050506040513d601f19601f82011682018060405250810190611a52919061214c565b5060025460035460405163095ea7b360e01b81526001600160a01b039283169263095ea7b392611a89929116908790600401612426565b602060405180830381600087803b158015611aa357600080fd5b505af1158015611ab7573d6000803e3d6000fd5b505050506040513d601f19601f82011682018060405250810190611adb919061214c565b5060408051610180810182526001546001600160a01b0390811682526002805482166020840152600554600160a01b9004810b810b8385015285810b606084015284900b608083015260a0820187905260c08201869052600060e083018190526101008301819052306101208401526216e3604201610140840152610160830152600354925163b5007d1f60e01b81529192169063b5007d1f90611b839084906004016127b0565b608060405180830381600087803b158015611b9d57600080fd5b505af1158015611bb1573d6000803e3d6000fd5b505050506040513d601f19601f82011682018060405250810190611bd591906122c3565b50505060048190559550505050505090565b60008111611c075760405162461bcd60e51b81526004016108fc90612697565b60008060009054906101000a90046001600160a01b03166001600160a01b0316633850c7bd6040518163ffffffff1660e01b815260040160c06040518083038186803b158015611c5657600080fd5b505afa158015611c6a573d6000803e3d6000fd5b505050506040513d601f19601f82011682018060405250810190611c8e919061221e565b5050505050905060006064826065026001600160a01b031681611cad57fe5b0490506401000276a36001600160a01b03821611611ccd57506401000276a25b60025460005460405163095ea7b360e01b81526001600160a01b039283169263095ea7b392611d03929116908790600401612426565b602060405180830381600087803b158015611d1d57600080fd5b505af1158015611d31573d6000803e3d6000fd5b505050506040513d601f19601f82011682018060405250810190611d55919061214c565b50600030604051602001611d699190612412565b60408051601f198184030181529082905260008054630251596160e31b84529193506001600160a01b039091169163128acb08916116b091309190899088908890600401612463565b6005546001600160a01b031681565b6000546001600160a01b03163314611deb5760405162461bcd60e51b81526004016108fc906126f3565b6000841315611e7e5760015460005460405163a9059cbb60e01b81526001600160a01b039283169263a9059cbb92611e2a929116908890600401612426565b602060405180830381600087803b158015611e4457600080fd5b505af1158015611e58573d6000803e3d6000fd5b505050506040513d601f19601f82011682018060405250810190611e7c919061214c565b505b60008313156107c05760025460005460405163a9059cbb60e01b81526001600160a01b039283169263a9059cbb92611ebd929116908790600401612426565b602060405180830381600087803b158015611ed757600080fd5b505af1158015611eeb573d6000803e3d6000fd5b505050506040513d601f19601f8201168201806040525081019061096e919061214c565b600554600160b81b900460020b81565b6000808060001985870986860292508281109083900303905080611f555760008411611f4a57600080fd5b508290049050611fc8565b808411611f6157600080fd5b6000848688096000868103871696879004966002600389028118808a02820302808a02820302808a02820302808a02820302808a02820302808a02909103029181900381900460010186841190950394909402919094039290920491909117919091029150505b9392505050565b80820182811015611fdf57600080fd5b92915050565b80820382811115611fdf57600080fd5b805161200081612892565b919050565b8051801515811461200057600080fd5b8051600281900b811461200057600080fd5b80516001600160801b038116811461200057600080fd5b805161ffff8116811461200057600080fd5b600060208284031215612061578081fd5b8135611fc881612892565b60006020828403121561207d578081fd5b8151611fc881612892565b6000806000806080858703121561209d578283fd5b84356120a881612892565b93506020858101356120b981612892565b935060408601359250606086013567ffffffffffffffff808211156120dc578384fd5b818801915088601f8301126120ef578384fd5b8135818111156120fb57fe5b604051601f8201601f191681018501838111828210171561211857fe5b60405281815283820185018b101561212e578586fd5b81858501868301379081019093019390935250939692955090935050565b60006020828403121561215d578081fd5b611fc882612005565b600060208284031215612177578081fd5b611fc882612015565b60008060408385031215612192578182fd5b505080516020909101519092909150565b600080600080606085870312156121b8578384fd5b8435935060208501359250604085013567ffffffffffffffff808211156121dd578384fd5b818701915087601f8301126121f0578384fd5b8135818111156121fe578485fd5b88602082850101111561220f578485fd5b95989497505060200194505050565b60008060008060008060c08789031215612236578182fd5b865161224181612892565b955061224f60208801612015565b945061225d6040880161203e565b935061226b6060880161203e565b92506122796080880161203e565b915061228760a08801612005565b90509295509295509295565b6000602082840312156122a4578081fd5b5035919050565b6000602082840312156122bc578081fd5b5051919050565b600080600080608085870312156122d8578182fd5b845193506122e860208601612027565b6040860151606090960151949790965092505050565b60008060408385031215612310578182fd5b50508035926020909101359150565b6000806000806000806000806000806000806101808d8f03121561234157898afd5b8c516bffffffffffffffffffffffff8116811461235c578a8bfd5b9b5061236a60208e01611ff5565b9a5061237860408e01611ff5565b995061238660608e01611ff5565b985061239460808e01612015565b97506123a260a08e01612015565b96506123b060c08e01612015565b95506123be60e08e01612027565b94506101008d015193506101208d015192506123dd6101408e01612027565b91506123ec6101608e01612027565b90509295989b509295989b509295989b565b6001600160a01b03169052565b60020b9052565b6001600160a01b0391909116815260200190565b6001600160a01b03929092168252602082015260400190565b6001600160a01b039384168152919092166020820152604081019190915260600190565b600060018060a01b038088168352602087151581850152866040850152818616606085015260a06080850152845191508160a0850152825b828110156124b75785810182015185820160c00152810161249b565b828111156124c8578360c084870101525b5050601f01601f19169190910160c0019695505050505050565b6001600160a01b0394851681526001600160801b039390931660208401529083166040830152909116606082015260800190565b901515815260200190565b6001600160e01b031991909116815260200190565b60029190910b815260200190565b600293840b815291830b602083015290910b604082015260600190565b6020808252601690820152754e6f20746f6b656e7320746f20726562616c616e636560501b604082015260600190565b602080825260119082015270496e73756666696369656e742056454c4f60781b604082015260600190565b602080825260129082015271496e76616c6964207469636b2072616e676560701b604082015260600190565b60208082526010908201526f16995c9bc81cddd85c08185b5bdd5b9d60821b604082015260600190565b60208082526010908201526f5a65726f20746f74616c2076616c756560801b604082015260600190565b602080825260119082015270496e73756666696369656e74205553444360781b604082015260600190565b6020808252601690820152754f6e6c79206f776e65722063616e20646f207468697360501b604082015260600190565b602080825260149082015273125b9d985b1a59081a5b9c1d5d08185b5bdd5b9d60621b604082015260600190565b602080825260149082015273496e76616c6964206f7261636c6520707269636560601b604082015260600190565b60208082526017908201527f43616c6c6261636b206f6e6c792066726f6d20706f6f6c000000000000000000604082015260600190565b815181526020808301516001600160a01b0316908201526040808301516001600160801b0390811691830191909152606092830151169181019190915260800190565b600060a082019050825182526001600160801b03602084015116602083015260408301516040830152606083015160608301526080830151608083015292915050565b6000610180820190506127c48284516123fe565b60208301516127d660208401826123fe565b5060408301516127e9604084018261240b565b5060608301516127fc606084018261240b565b50608083015161280f608084018261240b565b5060a083015160a083015260c083015160c083015260e083015160e08301526101008084015181840152506101208084015161284d828501826123fe565b505061014083810151908301526101608084015161286d828501826123fe565b505092915050565b6001600160801b0391909116815260200190565b90815260200190565b6001600160a01b03811681146117f757600080fdfea26469706673582212204f3a50feb5f71228d5ec277065890684c966bfa2dd612b695206fa87df0ce1d064736f6c63430007060033",
			"opcodes": "PUSH1 0x80 PUSH1 0x40 MSTORE CALLVALUE DUP1 ISZERO PUSH2 0x10 JUMPI PUSH1 0x0 DUP1 REVERT JUMPDEST POP PUSH1 0x5 DUP1 SLOAD PUSH1 0x1 PUSH1 0x1 PUSH1 0xA0 SHL SUB NOT AND CALLER OR SWAP1 SSTORE PUSH2 0x28DD DUP1 PUSH2 0x32 PUSH1 0x0 CODECOPY PUSH1 0x0 RETURN INVALID PUSH1 0x80 PUSH1 0x40 MSTORE PUSH1 0x4 CALLDATASIZE LT PUSH2 0x1F9 JUMPI PUSH1 0x0 CALLDATALOAD PUSH1 0xE0 SHR DUP1 PUSH4 0xBC7DC1CA GT PUSH2 0x10D JUMPI DUP1 PUSH4 0xDD480BF1 GT PUSH2 0xA0 JUMPI DUP1 PUSH4 0xE8078D94 GT PUSH2 0x6F JUMPI DUP1 PUSH4 0xE8078D94 EQ PUSH2 0x4B4 JUMPI DUP1 PUSH4 0xEB20AD47 EQ PUSH2 0x4BC JUMPI DUP1 PUSH4 0xF851A440 EQ PUSH2 0x4CF JUMPI DUP1 PUSH4 0xFA461E33 EQ PUSH2 0x4E4 JUMPI DUP1 PUSH4 0xFD1C1518 EQ PUSH2 0x504 JUMPI PUSH2 0x1F9 JUMP JUMPDEST DUP1 PUSH4 0xDD480BF1 EQ PUSH2 0x462 JUMPI DUP1 PUSH4 0xE0842E96 EQ PUSH2 0x484 JUMPI DUP1 PUSH4 0xE58D539E EQ PUSH2 0x48C JUMPI DUP1 PUSH4 0xE6F4D0AA EQ PUSH2 0x494 JUMPI PUSH2 0x1F9 JUMP JUMPDEST DUP1 PUSH4 0xD2ACA8CD GT PUSH2 0xDC JUMPI DUP1 PUSH4 0xD2ACA8CD EQ PUSH2 0x412 JUMPI DUP1 PUSH4 0xD5898546 EQ PUSH2 0x432 JUMPI DUP1 PUSH4 0xDA802F80 EQ PUSH2 0x43A JUMPI DUP1 PUSH4 0xDB638298 EQ PUSH2 0x44F JUMPI PUSH2 0x1F9 JUMP JUMPDEST DUP1 PUSH4 0xBC7DC1CA EQ PUSH2 0x3A8 JUMPI DUP1 PUSH4 0xC0B84195 EQ PUSH2 0x3BB JUMPI DUP1 PUSH4 0xD0C93A7C EQ PUSH2 0x3DB JUMPI DUP1 PUSH4 0xD21220A7 EQ PUSH2 0x3FD JUMPI PUSH2 0x1F9 JUMP JUMPDEST DUP1 PUSH4 0x3EFA3E6E GT PUSH2 0x190 JUMPI DUP1 PUSH4 0x7210468A GT PUSH2 0x15F JUMPI DUP1 PUSH4 0x7210468A EQ PUSH2 0x319 JUMPI DUP1 PUSH4 0x7D7C2A1C EQ PUSH2 0x339 JUMPI DUP1 PUSH4 0x7DC0D1D0 EQ PUSH2 0x341 JUMPI DUP1 PUSH4 0x85CD14BA EQ PUSH2 0x356 JUMPI DUP1 PUSH4 0xB02C43D0 EQ PUSH2 0x378 JUMPI PUSH2 0x1F9 JUMP JUMPDEST DUP1 PUSH4 0x3EFA3E6E EQ PUSH2 0x2D6 JUMPI DUP1 PUSH4 0x491E91EE EQ PUSH2 0x2E9 JUMPI DUP1 PUSH4 0x6020159D EQ PUSH2 0x2F1 JUMPI DUP1 PUSH4 0x70BB45B3 EQ PUSH2 0x311 JUMPI PUSH2 0x1F9 JUMP JUMPDEST DUP1 PUSH4 0x1C335703 GT PUSH2 0x1CC JUMPI DUP1 PUSH4 0x1C335703 EQ PUSH2 0x28D JUMPI DUP1 PUSH4 0x3A4B66F1 EQ PUSH2 0x2A2 JUMPI DUP1 PUSH4 0x3CCFD60B EQ PUSH2 0x2AA JUMPI DUP1 PUSH4 0x3D1C387B EQ PUSH2 0x2B2 JUMPI PUSH2 0x1F9 JUMP JUMPDEST DUP1 PUSH4 0xDFE1681 EQ PUSH2 0x1FE JUMPI DUP1 PUSH4 0x150B7A02 EQ PUSH2 0x229 JUMPI DUP1 PUSH4 0x16F0115B EQ PUSH2 0x256 JUMPI DUP1 PUSH4 0x17D70F7C EQ PUSH2 0x26B JUMPI JUMPDEST PUSH1 0x0 DUP1 REVERT JUMPDEST CALLVALUE DUP1 ISZERO PUSH2 0x20A JUMPI PUSH1 0x0 DUP1 REVERT JUMPDEST POP PUSH2 0x213 PUSH2 0x519 JUMP JUMPDEST PUSH1 0x40 MLOAD PUSH2 0x220 SWAP2 SWAP1 PUSH2 0x2412 JUMP JUMPDEST PUSH1 0x40 MLOAD DUP1 SWAP2 SUB SWAP1 RETURN JUMPDEST CALLVALUE DUP1 ISZERO PUSH2 0x235 JUMPI PUSH1 0x0 DUP1 REVERT JUMPDEST POP PUSH2 0x249 PUSH2 0x244 CALLDATASIZE PUSH1 0x4 PUSH2 0x2088 JUMP JUMPDEST PUSH2 0x528 JUMP JUMPDEST PUSH1 0x40 MLOAD PUSH2 0x220 SWAP2 SWAP1 PUSH2 0x2521 JUMP JUMPDEST CALLVALUE DUP1 ISZERO PUSH2 0x262 JUMPI PUSH1 0x0 DUP1 REVERT JUMPDEST POP PUSH2 0x213 PUSH2 0x538 JUMP JUMPDEST CALLVALUE DUP1 ISZERO PUSH2 0x277 JUMPI PUSH1 0x0 DUP1 REVERT JUMPDEST POP PUSH2 0x280 PUSH2 0x547 JUMP JUMPDEST PUSH1 0x40 MLOAD PUSH2 0x220 SWAP2 SWAP1 PUSH2 0x2889 JUMP JUMPDEST PUSH2 0x2A0 PUSH2 0x29B CALLDATASIZE PUSH1 0x4 PUSH2 0x22FE JUMP JUMPDEST PUSH2 0x54D JUMP JUMPDEST STOP JUMPDEST PUSH2 0x2A0 PUSH2 0x663 JUMP JUMPDEST PUSH2 0x2A0 PUSH2 0x7C6 JUMP JUMPDEST CALLVALUE DUP1 ISZERO PUSH2 0x2BE JUMPI PUSH1 0x0 DUP1 REVERT JUMPDEST POP PUSH2 0x2C7 PUSH2 0x7FF JUMP JUMPDEST PUSH1 0x40 MLOAD PUSH2 0x220 SWAP4 SWAP3 SWAP2 SWAP1 PUSH2 0x2544 JUMP JUMPDEST PUSH2 0x2A0 PUSH2 0x2E4 CALLDATASIZE PUSH1 0x4 PUSH2 0x2293 JUMP JUMPDEST PUSH2 0x8D2 JUMP JUMPDEST PUSH2 0x2A0 PUSH2 0x975 JUMP JUMPDEST CALLVALUE DUP1 ISZERO PUSH2 0x2FD JUMPI PUSH1 0x0 DUP1 REVERT JUMPDEST POP PUSH2 0x2A0 PUSH2 0x30C CALLDATASIZE PUSH1 0x4 PUSH2 0x2293 JUMP JUMPDEST PUSH2 0xB95 JUMP JUMPDEST PUSH2 0x2A0 PUSH2 0xBC4 JUMP JUMPDEST CALLVALUE DUP1 ISZERO PUSH2 0x325 JUMPI PUSH1 0x0 DUP1 REVERT JUMPDEST POP PUSH2 0x2A0 PUSH2 0x334 CALLDATASIZE PUSH1 0x4 PUSH2 0x2050 JUMP JUMPDEST PUSH2 0xBFD JUMP JUMPDEST PUSH2 0x2A0 PUSH2 0xCB1 JUMP JUMPDEST CALLVALUE DUP1 ISZERO PUSH2 0x34D JUMPI PUSH1 0x0 DUP1 REVERT JUMPDEST POP PUSH2 0x213 PUSH2 0x1021 JUMP JUMPDEST CALLVALUE DUP1 ISZERO PUSH2 0x362 JUMPI PUSH1 0x0 DUP1 REVERT JUMPDEST POP PUSH2 0x36B PUSH2 0x1030 JUMP JUMPDEST PUSH1 0x40 MLOAD PUSH2 0x220 SWAP2 SWAP1 PUSH2 0x2516 JUMP JUMPDEST CALLVALUE DUP1 ISZERO PUSH2 0x384 JUMPI PUSH1 0x0 DUP1 REVERT JUMPDEST POP PUSH2 0x398 PUSH2 0x393 CALLDATASIZE PUSH1 0x4 PUSH2 0x2293 JUMP JUMPDEST PUSH2 0x111B JUMP JUMPDEST PUSH1 0x40 MLOAD PUSH2 0x220 SWAP5 SWAP4 SWAP3 SWAP2 SWAP1 PUSH2 0x24E2 JUMP JUMPDEST PUSH2 0x2A0 PUSH2 0x3B6 CALLDATASIZE PUSH1 0x4 PUSH2 0x2293 JUMP JUMPDEST PUSH2 0x115B JUMP JUMPDEST CALLVALUE DUP1 ISZERO PUSH2 0x3C7 JUMPI PUSH1 0x0 DUP1 REVERT JUMPDEST POP PUSH2 0x2A0 PUSH2 0x3D6 CALLDATASIZE PUSH1 0x4 PUSH2 0x2050 JUMP JUMPDEST PUSH2 0x1192 JUMP JUMPDEST CALLVALUE DUP1 ISZERO PUSH2 0x3E7 JUMPI PUSH1 0x0 DUP1 REVERT JUMPDEST POP PUSH2 0x3F0 PUSH2 0x11DE JUMP JUMPDEST PUSH1 0x40 MLOAD PUSH2 0x220 SWAP2 SWAP1 PUSH2 0x2536 JUMP JUMPDEST CALLVALUE DUP1 ISZERO PUSH2 0x409 JUMPI PUSH1 0x0 DUP1 REVERT JUMPDEST POP PUSH2 0x213 PUSH2 0x11EE JUMP JUMPDEST CALLVALUE DUP1 ISZERO PUSH2 0x41E JUMPI PUSH1 0x0 DUP1 REVERT JUMPDEST POP PUSH2 0x2A0 PUSH2 0x42D CALLDATASIZE PUSH1 0x4 PUSH2 0x2050 JUMP JUMPDEST PUSH2 0x11FD JUMP JUMPDEST PUSH2 0x2A0 PUSH2 0x1492 JUMP JUMPDEST CALLVALUE DUP1 ISZERO PUSH2 0x446 JUMPI PUSH1 0x0 DUP1 REVERT JUMPDEST POP PUSH2 0x213 PUSH2 0x14D7 JUMP JUMPDEST PUSH2 0x2A0 PUSH2 0x45D CALLDATASIZE PUSH1 0x4 PUSH2 0x2293 JUMP JUMPDEST PUSH2 0x14E6 JUMP JUMPDEST CALLVALUE DUP1 ISZERO PUSH2 0x46E JUMPI PUSH1 0x0 DUP1 REVERT JUMPDEST POP PUSH2 0x477 PUSH2 0x1709 JUMP JUMPDEST PUSH1 0x40 MLOAD PUSH2 0x220 SWAP2 SWAP1 PUSH2 0x2875 JUMP JUMPDEST PUSH2 0x2A0 PUSH2 0x17A9 JUMP JUMPDEST PUSH2 0x2A0 PUSH2 0x17FA JUMP JUMPDEST CALLVALUE DUP1 ISZERO PUSH2 0x4A0 JUMPI PUSH1 0x0 DUP1 REVERT JUMPDEST POP PUSH2 0x2A0 PUSH2 0x4AF CALLDATASIZE PUSH1 0x4 PUSH2 0x2050 JUMP JUMPDEST PUSH2 0x1860 JUMP JUMPDEST PUSH2 0x280 PUSH2 0x18AC JUMP JUMPDEST PUSH2 0x2A0 PUSH2 0x4CA CALLDATASIZE PUSH1 0x4 PUSH2 0x2293 JUMP JUMPDEST PUSH2 0x1BE7 JUMP JUMPDEST CALLVALUE DUP1 ISZERO PUSH2 0x4DB JUMPI PUSH1 0x0 DUP1 REVERT JUMPDEST POP PUSH2 0x213 PUSH2 0x1DB2 JUMP JUMPDEST CALLVALUE DUP1 ISZERO PUSH2 0x4F0 JUMPI PUSH1 0x0 DUP1 REVERT JUMPDEST POP PUSH2 0x2A0 PUSH2 0x4FF CALLDATASIZE PUSH1 0x4 PUSH2 0x21A3 JUMP JUMPDEST PUSH2 0x1DC1 JUMP JUMPDEST CALLVALUE DUP1 ISZERO PUSH2 0x510 JUMPI PUSH1 0x0 DUP1 REVERT JUMPDEST POP PUSH2 0x3F0 PUSH2 0x1F0F JUMP JUMPDEST PUSH1 0x1 SLOAD PUSH1 0x1 PUSH1 0x1 PUSH1 0xA0 SHL SUB AND DUP2 JUMP JUMPDEST PUSH4 0xA85BD01 PUSH1 0xE1 SHL SWAP5 SWAP4 POP POP POP POP JUMP JUMPDEST PUSH1 0x0 SLOAD PUSH1 0x1 PUSH1 0x1 PUSH1 0xA0 SHL SUB AND DUP2 JUMP JUMPDEST PUSH1 0x4 SLOAD DUP2 JUMP JUMPDEST PUSH1 0x1 SLOAD PUSH1 0x3 SLOAD PUSH1 0x40 MLOAD PUSH4 0x95EA7B3 PUSH1 0xE0 SHL DUP2 MSTORE PUSH1 0x1 PUSH1 0x1 PUSH1 0xA0 SHL SUB SWAP3 DUP4 AND SWAP3 PUSH4 0x95EA7B3 SWAP3 PUSH2 0x583 SWAP3 SWAP2 AND SWAP1 DUP7 SWAP1 PUSH1 0x4 ADD PUSH2 0x2426 JUMP JUMPDEST PUSH1 0x20 PUSH1 0x40 MLOAD DUP1 DUP4 SUB DUP2 PUSH1 0x0 DUP8 DUP1 EXTCODESIZE ISZERO DUP1 ISZERO PUSH2 0x59D JUMPI PUSH1 0x0 DUP1 REVERT JUMPDEST POP GAS CALL ISZERO DUP1 ISZERO PUSH2 0x5B1 JUMPI RETURNDATASIZE PUSH1 0x0 DUP1 RETURNDATACOPY RETURNDATASIZE PUSH1 0x0 REVERT JUMPDEST POP POP POP POP PUSH1 0x40 MLOAD RETURNDATASIZE PUSH1 0x1F NOT PUSH1 0x1F DUP3 ADD AND DUP3 ADD DUP1 PUSH1 0x40 MSTORE POP DUP2 ADD SWAP1 PUSH2 0x5D5 SWAP2 SWAP1 PUSH2 0x214C JUMP JUMPDEST POP PUSH1 0x2 SLOAD PUSH1 0x3 SLOAD PUSH1 0x40 MLOAD PUSH4 0x95EA7B3 PUSH1 0xE0 SHL DUP2 MSTORE PUSH1 0x1 PUSH1 0x1 PUSH1 0xA0 SHL SUB SWAP3 DUP4 AND SWAP3 PUSH4 0x95EA7B3 SWAP3 PUSH2 0x60C SWAP3 SWAP2 AND SWAP1 DUP6 SWAP1 PUSH1 0x4 ADD PUSH2 0x2426 JUMP JUMPDEST PUSH1 0x20 PUSH1 0x40 MLOAD DUP1 DUP4 SUB DUP2 PUSH1 0x0 DUP8 DUP1 EXTCODESIZE ISZERO DUP1 ISZERO PUSH2 0x626 JUMPI PUSH1 0x0 DUP1 REVERT JUMPDEST POP GAS CALL ISZERO DUP1 ISZERO PUSH2 0x63A JUMPI RETURNDATASIZE PUSH1 0x0 DUP1 RETURNDATACOPY RETURNDATASIZE PUSH1 0x0 REVERT JUMPDEST POP POP POP POP PUSH1 0x40 MLOAD RETURNDATASIZE PUSH1 0x1F NOT PUSH1 0x1F DUP3 ADD AND DUP3 ADD DUP1 PUSH1 0x40 MSTORE POP DUP2 ADD SWAP1 PUSH2 0x65E SWAP2 SWAP1 PUSH2 0x214C JUMP JUMPDEST POP POP POP JUMP JUMPDEST PUSH1 0x5 SLOAD PUSH1 0x4 DUP1 SLOAD PUSH1 0x40 MLOAD PUSH4 0x95EA7B3 PUSH1 0xE0 SHL DUP2 MSTORE PUSH20 0x416B433906B1B72FA758E166E239C43D68DC6F29 SWAP4 PUSH4 0x95EA7B3 SWAP4 PUSH2 0x6A9 SWAP4 PUSH1 0x1 PUSH1 0x1 PUSH1 0xA0 SHL SUB SWAP1 SWAP3 AND SWAP3 ADD PUSH2 0x2426 JUMP JUMPDEST PUSH1 0x0 PUSH1 0x40 MLOAD DUP1 DUP4 SUB DUP2 PUSH1 0x0 DUP8 DUP1 EXTCODESIZE ISZERO DUP1 ISZERO PUSH2 0x6C3 JUMPI PUSH1 0x0 DUP1 REVERT JUMPDEST POP GAS CALL ISZERO DUP1 ISZERO PUSH2 0x6D7 JUMPI RETURNDATASIZE PUSH1 0x0 DUP1 RETURNDATACOPY RETURNDATASIZE PUSH1 0x0 REVERT JUMPDEST POP POP PUSH1 0x4 DUP1 SLOAD PUSH1 0x40 MLOAD PUSH4 0x95EA7B3 PUSH1 0xE0 SHL DUP2 MSTORE PUSH20 0x416B433906B1B72FA758E166E239C43D68DC6F29 SWAP5 POP PUSH4 0x95EA7B3 SWAP4 POP PUSH2 0x729 SWAP3 PUSH20 0xC8C7B5AE61D97BE7D02D606629059487066DC9CF SWAP3 SWAP2 ADD PUSH2 0x2426 JUMP JUMPDEST PUSH1 0x0 PUSH1 0x40 MLOAD DUP1 DUP4 SUB DUP2 PUSH1 0x0 DUP8 DUP1 EXTCODESIZE ISZERO DUP1 ISZERO PUSH2 0x743 JUMPI PUSH1 0x0 DUP1 REVERT JUMPDEST POP GAS CALL ISZERO DUP1 ISZERO PUSH2 0x757 JUMPI RETURNDATASIZE PUSH1 0x0 DUP1 RETURNDATACOPY RETURNDATASIZE PUSH1 0x0 REVERT JUMPDEST POP POP PUSH1 0x4 DUP1 SLOAD PUSH1 0x40 MLOAD PUSH4 0xB6B55F25 PUSH1 0xE0 SHL DUP2 MSTORE PUSH20 0xC8C7B5AE61D97BE7D02D606629059487066DC9CF SWAP5 POP PUSH4 0xB6B55F25 SWAP4 POP PUSH2 0x792 SWAP3 ADD PUSH2 0x2889 JUMP JUMPDEST PUSH1 0x0 PUSH1 0x40 MLOAD DUP1 DUP4 SUB DUP2 PUSH1 0x0 DUP8 DUP1 EXTCODESIZE ISZERO DUP1 ISZERO PUSH2 0x7AC JUMPI PUSH1 0x0 DUP1 REVERT JUMPDEST POP GAS CALL ISZERO DUP1 ISZERO PUSH2 0x7C0 JUMPI RETURNDATASIZE PUSH1 0x0 DUP1 RETURNDATACOPY RETURNDATASIZE PUSH1 0x0 REVERT JUMPDEST POP POP POP POP JUMP JUMPDEST PUSH1 0x4 DUP1 SLOAD PUSH1 0x40 MLOAD PUSH4 0x2E1A7D4D PUSH1 0xE0 SHL DUP2 MSTORE PUSH20 0xC8C7B5AE61D97BE7D02D606629059487066DC9CF SWAP3 PUSH4 0x2E1A7D4D SWAP3 PUSH2 0x792 SWAP3 SWAP1 SWAP2 ADD PUSH2 0x2889 JUMP JUMPDEST PUSH1 0x0 DUP1 PUSH1 0x0 DUP1 PUSH1 0x0 SWAP1 SLOAD SWAP1 PUSH2 0x100 EXP SWAP1 DIV PUSH1 0x1 PUSH1 0x1 PUSH1 0xA0 SHL SUB AND PUSH1 0x1 PUSH1 0x1 PUSH1 0xA0 SHL SUB AND PUSH4 0x3850C7BD PUSH1 0x40 MLOAD DUP2 PUSH4 0xFFFFFFFF AND PUSH1 0xE0 SHL DUP2 MSTORE PUSH1 0x4 ADD PUSH1 0xC0 PUSH1 0x40 MLOAD DUP1 DUP4 SUB DUP2 DUP7 DUP1 EXTCODESIZE ISZERO DUP1 ISZERO PUSH2 0x851 JUMPI PUSH1 0x0 DUP1 REVERT JUMPDEST POP GAS STATICCALL ISZERO DUP1 ISZERO PUSH2 0x865 JUMPI RETURNDATASIZE PUSH1 0x0 DUP1 RETURNDATACOPY RETURNDATASIZE PUSH1 0x0 REVERT JUMPDEST POP POP POP POP PUSH1 0x40 MLOAD RETURNDATASIZE PUSH1 0x1F NOT PUSH1 0x1F DUP3 ADD AND DUP3 ADD DUP1 PUSH1 0x40 MSTORE POP DUP2 ADD SWAP1 PUSH2 0x889 SWAP2 SWAP1 PUSH2 0x221E JUMP JUMPDEST POP POP PUSH1 0x5 SLOAD SWAP3 SWAP5 POP PUSH1 0x0 SWAP4 POP POP POP PUSH1 0x1 PUSH1 0xA0 SHL SWAP1 DIV PUSH1 0x2 SWAP1 DUP2 SIGNEXTEND SWAP1 DUP2 DUP2 SIGNEXTEND SWAP1 DUP5 SWAP1 SIGNEXTEND DUP2 PUSH2 0x8B2 JUMPI INVALID JUMPDEST PUSH1 0x5 SLOAD SWAP2 SWAP1 SDIV SWAP2 SWAP1 SWAP2 MUL SWAP5 POP PUSH1 0x1 PUSH1 0xA0 SHL SWAP1 DIV PUSH1 0x2 SIGNEXTEND DUP5 ADD SWAP3 POP POP SWAP1 SWAP2 SWAP3 JUMP JUMPDEST PUSH1 0x5 SLOAD PUSH1 0x1 PUSH1 0x1 PUSH1 0xA0 SHL SUB AND CALLER EQ PUSH2 0x905 JUMPI PUSH1 0x40 MLOAD PUSH3 0x461BCD PUSH1 0xE5 SHL DUP2 MSTORE PUSH1 0x4 ADD PUSH2 0x8FC SWAP1 PUSH2 0x2667 JUMP JUMPDEST PUSH1 0x40 MLOAD DUP1 SWAP2 SUB SWAP1 REVERT JUMPDEST PUSH1 0x40 MLOAD PUSH4 0x23B872DD PUSH1 0xE0 SHL DUP2 MSTORE PUSH20 0x416B433906B1B72FA758E166E239C43D68DC6F29 SWAP1 PUSH4 0x23B872DD SWAP1 PUSH2 0x940 SWAP1 ADDRESS SWAP1 CALLER SWAP1 DUP7 SWAP1 PUSH1 0x4 ADD PUSH2 0x243F JUMP JUMPDEST PUSH1 0x0 PUSH1 0x40 MLOAD DUP1 DUP4 SUB DUP2 PUSH1 0x0 DUP8 DUP1 EXTCODESIZE ISZERO DUP1 ISZERO PUSH2 0x95A JUMPI PUSH1 0x0 DUP1 REVERT JUMPDEST POP GAS CALL ISZERO DUP1 ISZERO PUSH2 0x96E JUMPI RETURNDATASIZE PUSH1 0x0 DUP1 RETURNDATACOPY RETURNDATASIZE PUSH1 0x0 REVERT JUMPDEST POP POP POP POP POP JUMP JUMPDEST PUSH1 0x4 DUP1 SLOAD PUSH1 0x40 MLOAD PUSH4 0x133F7571 PUSH1 0xE3 SHL DUP2 MSTORE PUSH1 0x0 SWAP3 PUSH20 0x416B433906B1B72FA758E166E239C43D68DC6F29 SWAP3 PUSH4 0x99FBAB88 SWAP3 PUSH2 0x9AF SWAP3 ADD PUSH2 0x2889 JUMP JUMPDEST PUSH2 0x180 PUSH1 0x40 MLOAD DUP1 DUP4 SUB DUP2 DUP7 DUP1 EXTCODESIZE ISZERO DUP1 ISZERO PUSH2 0x9C8 JUMPI PUSH1 0x0 DUP1 REVERT JUMPDEST POP GAS STATICCALL ISZERO DUP1 ISZERO PUSH2 0x9DC JUMPI RETURNDATASIZE PUSH1 0x0 DUP1 RETURNDATACOPY RETURNDATASIZE PUSH1 0x0 REVERT JUMPDEST POP POP POP POP PUSH1 0x40 MLOAD RETURNDATASIZE PUSH1 0x1F NOT PUSH1 0x1F DUP3 ADD AND DUP3 ADD DUP1 PUSH1 0x40 MSTORE POP DUP2 ADD SWAP1 PUSH2 0xA00 SWAP2 SWAP1 PUSH2 0x231F JUMP JUMPDEST POP POP POP POP SWAP8 POP POP POP POP POP POP POP POP PUSH1 0x0 PUSH1 0x40 MLOAD DUP1 PUSH1 0xA0 ADD PUSH1 0x40 MSTORE DUP1 PUSH1 0x4 SLOAD DUP2 MSTORE PUSH1 0x20 ADD DUP4 PUSH1 0x1 PUSH1 0x1 PUSH1 0x80 SHL SUB AND DUP2 MSTORE PUSH1 0x20 ADD PUSH1 0x0 DUP2 MSTORE PUSH1 0x20 ADD PUSH1 0x0 DUP2 MSTORE PUSH1 0x20 ADD TIMESTAMP PUSH3 0x16E360 ADD DUP2 MSTORE POP SWAP1 POP PUSH20 0x416B433906B1B72FA758E166E239C43D68DC6F29 PUSH1 0x1 PUSH1 0x1 PUSH1 0xA0 SHL SUB AND PUSH4 0xC49CCBE DUP3 PUSH1 0x40 MLOAD DUP3 PUSH4 0xFFFFFFFF AND PUSH1 0xE0 SHL DUP2 MSTORE PUSH1 0x4 ADD PUSH2 0xA8A SWAP2 SWAP1 PUSH2 0x276D JUMP JUMPDEST PUSH1 0x40 DUP1 MLOAD DUP1 DUP4 SUB DUP2 PUSH1 0x0 DUP8 DUP1 EXTCODESIZE ISZERO DUP1 ISZERO PUSH2 0xAA3 JUMPI PUSH1 0x0 DUP1 REVERT JUMPDEST POP GAS CALL ISZERO DUP1 ISZERO PUSH2 0xAB7 JUMPI RETURNDATASIZE PUSH1 0x0 DUP1 RETURNDATACOPY RETURNDATASIZE PUSH1 0x0 REVERT JUMPDEST POP POP POP POP PUSH1 0x40 MLOAD RETURNDATASIZE PUSH1 0x1F NOT PUSH1 0x1F DUP3 ADD AND DUP3 ADD DUP1 PUSH1 0x40 MSTORE POP DUP2 ADD SWAP1 PUSH2 0xADB SWAP2 SWAP1 PUSH2 0x2180 JUMP JUMPDEST POP POP PUSH1 0x40 DUP1 MLOAD PUSH1 0x80 DUP2 ADD DUP3 MSTORE PUSH1 0x4 DUP1 SLOAD DUP3 MSTORE ADDRESS PUSH1 0x20 DUP4 ADD MSTORE PUSH15 0x1BC16D674EC7FF21F494C589C0000 DUP3 DUP5 ADD DUP2 SWAP1 MSTORE PUSH1 0x60 DUP4 ADD MSTORE SWAP2 MLOAD PUSH4 0xFC6F7865 PUSH1 0xE0 SHL DUP2 MSTORE SWAP1 SWAP2 PUSH20 0x416B433906B1B72FA758E166E239C43D68DC6F29 SWAP2 PUSH4 0xFC6F7865 SWAP2 PUSH2 0xB44 SWAP2 DUP6 SWAP2 ADD PUSH2 0x272A JUMP JUMPDEST PUSH1 0x40 DUP1 MLOAD DUP1 DUP4 SUB DUP2 PUSH1 0x0 DUP8 DUP1 EXTCODESIZE ISZERO DUP1 ISZERO PUSH2 0xB5D JUMPI PUSH1 0x0 DUP1 REVERT JUMPDEST POP GAS CALL ISZERO DUP1 ISZERO PUSH2 0xB71 JUMPI RETURNDATASIZE PUSH1 0x0 DUP1 RETURNDATACOPY RETURNDATASIZE PUSH1 0x0 REVERT JUMPDEST POP POP POP POP PUSH1 0x40 MLOAD RETURNDATASIZE PUSH1 0x1F NOT PUSH1 0x1F DUP3 ADD AND DUP3 ADD DUP1 PUSH1 0x40 MSTORE POP DUP2 ADD SWAP1 PUSH2 0x96E SWAP2 SWAP1 PUSH2 0x2180 JUMP JUMPDEST PUSH1 0x5 SLOAD PUSH1 0x1 PUSH1 0x1 PUSH1 0xA0 SHL SUB AND CALLER EQ PUSH2 0xBBF JUMPI PUSH1 0x40 MLOAD PUSH3 0x461BCD PUSH1 0xE5 SHL DUP2 MSTORE PUSH1 0x4 ADD PUSH2 0x8FC SWAP1 PUSH2 0x2667 JUMP JUMPDEST PUSH1 0x4 SSTORE JUMP JUMPDEST PUSH1 0x4 DUP1 SLOAD PUSH1 0x40 MLOAD PUSH4 0x1C4B774B PUSH1 0xE0 SHL DUP2 MSTORE PUSH20 0xC8C7B5AE61D97BE7D02D606629059487066DC9CF SWAP3 PUSH4 0x1C4B774B SWAP3 PUSH2 0x792 SWAP3 SWAP1 SWAP2 ADD PUSH2 0x2889 JUMP JUMPDEST PUSH1 0x40 MLOAD PUSH4 0x70A08231 PUSH1 0xE0 SHL DUP2 MSTORE PUSH1 0x0 SWAP1 PUSH1 0x1 PUSH1 0x1 PUSH1 0xA0 SHL SUB DUP4 AND SWAP1 PUSH4 0x70A08231 SWAP1 PUSH2 0xC2C SWAP1 ADDRESS SWAP1 PUSH1 0x4 ADD PUSH2 0x2412 JUMP JUMPDEST PUSH1 0x20 PUSH1 0x40 MLOAD DUP1 DUP4 SUB DUP2 DUP7 DUP1 EXTCODESIZE ISZERO DUP1 ISZERO PUSH2 0xC44 JUMPI PUSH1 0x0 DUP1 REVERT JUMPDEST POP GAS STATICCALL ISZERO DUP1 ISZERO PUSH2 0xC58 JUMPI RETURNDATASIZE PUSH1 0x0 DUP1 RETURNDATACOPY RETURNDATASIZE PUSH1 0x0 REVERT JUMPDEST POP POP POP POP PUSH1 0x40 MLOAD RETURNDATASIZE PUSH1 0x1F NOT PUSH1 0x1F DUP3 ADD AND DUP3 ADD DUP1 PUSH1 0x40 MSTORE POP DUP2 ADD SWAP1 PUSH2 0xC7C SWAP2 SWAP1 PUSH2 0x22AB JUMP JUMPDEST PUSH1 0x5 SLOAD PUSH1 0x40 MLOAD PUSH4 0xA9059CBB PUSH1 0xE0 SHL DUP2 MSTORE SWAP2 SWAP3 POP PUSH1 0x1 PUSH1 0x1 PUSH1 0xA0 SHL SUB DUP1 DUP6 AND SWAP3 PUSH4 0xA9059CBB SWAP3 PUSH2 0x60C SWAP3 AND SWAP1 DUP6 SWAP1 PUSH1 0x4 ADD PUSH2 0x2426 JUMP JUMPDEST PUSH1 0x0 DUP1 PUSH2 0xCBC PUSH2 0x7FF JUMP JUMPDEST SWAP3 POP POP SWAP2 POP DUP2 PUSH1 0x2 SIGNEXTEND DUP2 PUSH1 0x2 SIGNEXTEND SLT ISZERO PUSH2 0xCE7 JUMPI PUSH1 0x40 MLOAD PUSH3 0x461BCD PUSH1 0xE5 SHL DUP2 MSTORE PUSH1 0x4 ADD PUSH2 0x8FC SWAP1 PUSH2 0x25BC JUMP JUMPDEST PUSH1 0x6 SLOAD PUSH1 0x0 DUP1 SLOAD PUSH1 0x40 MLOAD PUSH4 0x3CA7401 PUSH1 0xE6 SHL DUP2 MSTORE SWAP2 SWAP3 PUSH1 0x1 PUSH1 0x1 PUSH1 0xA0 SHL SUB SWAP1 DUP2 AND SWAP3 PUSH4 0xF29D0040 SWAP3 PUSH2 0xD1D SWAP3 AND SWAP1 PUSH1 0x4 ADD PUSH2 0x2412 JUMP JUMPDEST PUSH1 0x20 PUSH1 0x40 MLOAD DUP1 DUP4 SUB DUP2 DUP7 DUP1 EXTCODESIZE ISZERO DUP1 ISZERO PUSH2 0xD35 JUMPI PUSH1 0x0 DUP1 REVERT JUMPDEST POP GAS STATICCALL ISZERO DUP1 ISZERO PUSH2 0xD49 JUMPI RETURNDATASIZE PUSH1 0x0 DUP1 RETURNDATACOPY RETURNDATASIZE PUSH1 0x0 REVERT JUMPDEST POP POP POP POP PUSH1 0x40 MLOAD RETURNDATASIZE PUSH1 0x1F NOT PUSH1 0x1F DUP3 ADD AND DUP3 ADD DUP1 PUSH1 0x40 MSTORE POP DUP2 ADD SWAP1 PUSH2 0xD6D SWAP2 SWAP1 PUSH2 0x22AB JUMP JUMPDEST SWAP1 POP PUSH1 0x0 DUP2 GT PUSH2 0xD8F JUMPI PUSH1 0x40 MLOAD PUSH3 0x461BCD PUSH1 0xE5 SHL DUP2 MSTORE PUSH1 0x4 ADD PUSH2 0x8FC SWAP1 PUSH2 0x26C5 JUMP JUMPDEST PUSH1 0x0 PUSH2 0xDA3 DUP5 DUP5 SUB PUSH1 0x2 SIGNEXTEND PUSH1 0x64 PUSH1 0xC8 PUSH2 0x1F1F JUMP JUMPDEST SWAP1 POP PUSH1 0x64 DUP2 GT ISZERO PUSH2 0xDB2 JUMPI POP PUSH1 0x64 JUMPDEST PUSH1 0x1 SLOAD PUSH1 0x40 MLOAD PUSH4 0x70A08231 PUSH1 0xE0 SHL DUP2 MSTORE PUSH1 0x0 SWAP2 PUSH1 0x1 PUSH1 0x1 PUSH1 0xA0 SHL SUB AND SWAP1 PUSH4 0x70A08231 SWAP1 PUSH2 0xDE3 SWAP1 ADDRESS SWAP1 PUSH1 0x4 ADD PUSH2 0x2412 JUMP JUMPDEST PUSH1 0x20 PUSH1 0x40 MLOAD DUP1 DUP4 SUB DUP2 DUP7 DUP1 EXTCODESIZE ISZERO DUP1 ISZERO PUSH2 0xDFB JUMPI PUSH1 0x0 DUP1 REVERT JUMPDEST POP GAS STATICCALL ISZERO DUP1 ISZERO PUSH2 0xE0F JUMPI RETURNDATASIZE PUSH1 0x0 DUP1 RETURNDATACOPY RETURNDATASIZE PUSH1 0x0 REVERT JUMPDEST POP POP POP POP PUSH1 0x40 MLOAD RETURNDATASIZE PUSH1 0x1F NOT PUSH1 0x1F DUP3 ADD AND DUP3 ADD DUP1 PUSH1 0x40 MSTORE POP DUP2 ADD SWAP1 PUSH2 0xE33 SWAP2 SWAP1 PUSH2 0x22AB JUMP JUMPDEST PUSH1 0x2 SLOAD PUSH1 0x40 MLOAD PUSH4 0x70A08231 PUSH1 0xE0 SHL DUP2 MSTORE SWAP2 SWAP3 POP PUSH1 0x0 SWAP2 PUSH1 0x1 PUSH1 0x1 PUSH1 0xA0 SHL SUB SWAP1 SWAP2 AND SWAP1 PUSH4 0x70A08231 SWAP1 PUSH2 0xE69 SWAP1 ADDRESS SWAP1 PUSH1 0x4 ADD PUSH2 0x2412 JUMP JUMPDEST PUSH1 0x20 PUSH1 0x40 MLOAD DUP1 DUP4 SUB DUP2 DUP7 DUP1 EXTCODESIZE ISZERO DUP1 ISZERO PUSH2 0xE81 JUMPI PUSH1 0x0 DUP1 REVERT JUMPDEST POP GAS STATICCALL ISZERO DUP1 ISZERO PUSH2 0xE95 JUMPI RETURNDATASIZE PUSH1 0x0 DUP1 RETURNDATACOPY RETURNDATASIZE PUSH1 0x0 REVERT JUMPDEST POP POP POP POP PUSH1 0x40 MLOAD RETURNDATASIZE PUSH1 0x1F NOT PUSH1 0x1F DUP3 ADD AND DUP3 ADD DUP1 PUSH1 0x40 MSTORE POP DUP2 ADD SWAP1 PUSH2 0xEB9 SWAP2 SWAP1 PUSH2 0x22AB JUMP JUMPDEST SWAP1 POP PUSH1 0x0 DUP3 GT DUP1 PUSH2 0xECA JUMPI POP PUSH1 0x0 DUP2 GT JUMPDEST PUSH2 0xEE6 JUMPI PUSH1 0x40 MLOAD PUSH3 0x461BCD PUSH1 0xE5 SHL DUP2 MSTORE PUSH1 0x4 ADD PUSH2 0x8FC SWAP1 PUSH2 0x2561 JUMP JUMPDEST PUSH1 0x0 PUSH2 0xEFB DUP3 DUP7 PUSH8 0x16345785D8A0000 PUSH2 0x1F1F JUMP JUMPDEST SWAP1 POP PUSH1 0x0 PUSH2 0xF09 DUP5 DUP4 PUSH2 0x1FCF JUMP JUMPDEST SWAP1 POP PUSH1 0x0 DUP2 GT PUSH2 0xF2B JUMPI PUSH1 0x40 MLOAD PUSH3 0x461BCD PUSH1 0xE5 SHL DUP2 MSTORE PUSH1 0x4 ADD PUSH2 0x8FC SWAP1 PUSH2 0x2612 JUMP JUMPDEST PUSH1 0x0 PUSH2 0xF39 DUP3 DUP8 PUSH1 0x64 PUSH2 0x1F1F JUMP JUMPDEST SWAP1 POP PUSH1 0x0 PUSH2 0xF47 DUP4 DUP4 PUSH2 0x1FE5 JUMP JUMPDEST SWAP1 POP DUP1 DUP7 SUB DUP3 DUP6 SUB PUSH1 0x0 DUP3 SGT ISZERO PUSH2 0xFA8 JUMPI DUP2 DUP9 DUP2 GT ISZERO PUSH2 0xF79 JUMPI PUSH1 0x40 MLOAD PUSH3 0x461BCD PUSH1 0xE5 SHL DUP2 MSTORE PUSH1 0x4 ADD PUSH2 0x8FC SWAP1 PUSH2 0x263C JUMP JUMPDEST PUSH1 0x0 DUP2 GT PUSH2 0xF99 JUMPI PUSH1 0x40 MLOAD PUSH3 0x461BCD PUSH1 0xE5 SHL DUP2 MSTORE PUSH1 0x4 ADD PUSH2 0x8FC SWAP1 PUSH2 0x25E8 JUMP JUMPDEST PUSH2 0xFA2 DUP2 PUSH2 0x14E6 JUMP JUMPDEST POP PUSH2 0x1013 JUMP JUMPDEST PUSH1 0x0 DUP2 SGT ISZERO PUSH2 0x1013 JUMPI PUSH1 0x0 PUSH2 0xFC6 DUP3 PUSH8 0x16345785D8A0000 DUP14 PUSH2 0x1F1F JUMP JUMPDEST SWAP1 POP DUP8 DUP2 GT ISZERO PUSH2 0xFE8 JUMPI PUSH1 0x40 MLOAD PUSH3 0x461BCD PUSH1 0xE5 SHL DUP2 MSTORE PUSH1 0x4 ADD PUSH2 0x8FC SWAP1 PUSH2 0x2591 JUMP JUMPDEST PUSH1 0x0 DUP2 GT PUSH2 0x1008 JUMPI PUSH1 0x40 MLOAD PUSH3 0x461BCD PUSH1 0xE5 SHL DUP2 MSTORE PUSH1 0x4 ADD PUSH2 0x8FC SWAP1 PUSH2 0x25E8 JUMP JUMPDEST PUSH2 0x1011 DUP2 PUSH2 0x1BE7 JUMP JUMPDEST POP JUMPDEST POP POP POP POP POP POP POP POP POP POP POP POP JUMP JUMPDEST PUSH1 0x6 SLOAD PUSH1 0x1 PUSH1 0x1 PUSH1 0xA0 SHL SUB AND DUP2 JUMP JUMPDEST PUSH1 0x0 DUP1 PUSH2 0x103B PUSH2 0x7FF JUMP JUMPDEST PUSH1 0x4 DUP1 SLOAD PUSH1 0x40 MLOAD PUSH4 0x133F7571 PUSH1 0xE3 SHL DUP2 MSTORE SWAP3 SWAP6 POP PUSH1 0x0 SWAP5 POP DUP5 SWAP4 POP PUSH20 0x416B433906B1B72FA758E166E239C43D68DC6F29 SWAP3 PUSH4 0x99FBAB88 SWAP3 PUSH2 0x107D SWAP3 SWAP2 ADD PUSH2 0x2889 JUMP JUMPDEST PUSH2 0x180 PUSH1 0x40 MLOAD DUP1 DUP4 SUB DUP2 DUP7 DUP1 EXTCODESIZE ISZERO DUP1 ISZERO PUSH2 0x1096 JUMPI PUSH1 0x0 DUP1 REVERT JUMPDEST POP GAS STATICCALL ISZERO DUP1 ISZERO PUSH2 0x10AA JUMPI RETURNDATASIZE PUSH1 0x0 DUP1 RETURNDATACOPY RETURNDATASIZE PUSH1 0x0 REVERT JUMPDEST POP POP POP POP PUSH1 0x40 MLOAD RETURNDATASIZE PUSH1 0x1F NOT PUSH1 0x1F DUP3 ADD AND DUP3 ADD DUP1 PUSH1 0x40 MSTORE POP DUP2 ADD SWAP1 PUSH2 0x10CE SWAP2 SWAP1 PUSH2 0x231F JUMP JUMPDEST POP POP POP POP POP SWAP7 POP SWAP7 POP POP POP POP POP POP DUP2 PUSH1 0x2 SIGNEXTEND DUP4 PUSH1 0x2 SIGNEXTEND SLT ISZERO PUSH2 0x10F6 JUMPI PUSH1 0x0 SWAP4 POP POP POP POP PUSH2 0x1118 JUMP JUMPDEST DUP1 PUSH1 0x2 SIGNEXTEND DUP4 PUSH1 0x2 SIGNEXTEND SGT ISZERO PUSH2 0x1110 JUMPI PUSH1 0x0 SWAP4 POP POP POP POP PUSH2 0x1118 JUMP JUMPDEST PUSH1 0x1 SWAP4 POP POP POP POP JUMPDEST SWAP1 JUMP JUMPDEST PUSH1 0x7 PUSH1 0x20 MSTORE PUSH1 0x0 SWAP1 DUP2 MSTORE PUSH1 0x40 SWAP1 KECCAK256 DUP1 SLOAD PUSH1 0x1 DUP3 ADD SLOAD PUSH1 0x2 DUP4 ADD SLOAD PUSH1 0x3 SWAP1 SWAP4 ADD SLOAD PUSH1 0x1 PUSH1 0x1 PUSH1 0xA0 SHL SUB SWAP3 DUP4 AND SWAP4 PUSH1 0x1 PUSH1 0x1 PUSH1 0x80 SHL SUB SWAP1 SWAP3 AND SWAP3 SWAP2 DUP3 AND SWAP2 AND DUP5 JUMP JUMPDEST PUSH1 0x40 MLOAD PUSH4 0x2E1A7D4D PUSH1 0xE0 SHL DUP2 MSTORE PUSH20 0xC8C7B5AE61D97BE7D02D606629059487066DC9CF SWAP1 PUSH4 0x2E1A7D4D SWAP1 PUSH2 0x940 SWAP1 DUP5 SWAP1 PUSH1 0x4 ADD PUSH2 0x2889 JUMP JUMPDEST PUSH1 0x5 SLOAD PUSH1 0x1 PUSH1 0x1 PUSH1 0xA0 SHL SUB AND CALLER EQ PUSH2 0x11BC JUMPI PUSH1 0x40 MLOAD PUSH3 0x461BCD PUSH1 0xE5 SHL DUP2 MSTORE PUSH1 0x4 ADD PUSH2 0x8FC SWAP1 PUSH2 0x2667 JUMP JUMPDEST PUSH1 0x6 DUP1 SLOAD PUSH1 0x1 PUSH1 0x1 PUSH1 0xA0 SHL SUB NOT AND PUSH1 0x1 PUSH1 0x1 PUSH1 0xA0 SHL SUB SWAP3 SWAP1 SWAP3 AND SWAP2 SWAP1 SWAP2 OR SWAP1 SSTORE JUMP JUMPDEST PUSH1 0x5 SLOAD PUSH1 0x1 PUSH1 0xA0 SHL SWAP1 DIV PUSH1 0x2 SIGNEXTEND DUP2 JUMP JUMPDEST PUSH1 0x2 SLOAD PUSH1 0x1 PUSH1 0x1 PUSH1 0xA0 SHL SUB AND DUP2 JUMP JUMPDEST PUSH1 0x5 SLOAD PUSH1 0x1 PUSH1 0x1 PUSH1 0xA0 SHL SUB AND CALLER EQ PUSH2 0x1227 JUMPI PUSH1 0x40 MLOAD PUSH3 0x461BCD PUSH1 0xE5 SHL DUP2 MSTORE PUSH1 0x4 ADD PUSH2 0x8FC SWAP1 PUSH2 0x2667 JUMP JUMPDEST PUSH1 0x0 DUP1 SLOAD PUSH1 0x1 PUSH1 0x1 PUSH1 0xA0 SHL SUB NOT AND PUSH1 0x1 PUSH1 0x1 PUSH1 0xA0 SHL SUB DUP4 DUP2 AND SWAP2 SWAP1 SWAP2 OR SWAP2 DUP3 SWAP1 SSTORE PUSH1 0x40 DUP1 MLOAD PUSH4 0xDFE1681 PUSH1 0xE0 SHL DUP2 MSTORE SWAP1 MLOAD SWAP3 SWAP1 SWAP2 AND SWAP2 PUSH4 0xDFE1681 SWAP2 PUSH1 0x4 DUP1 DUP3 ADD SWAP3 PUSH1 0x20 SWAP3 SWAP1 SWAP2 SWAP1 DUP3 SWAP1 SUB ADD DUP2 DUP7 DUP1 EXTCODESIZE ISZERO DUP1 ISZERO PUSH2 0x1283 JUMPI PUSH1 0x0 DUP1 REVERT JUMPDEST POP GAS STATICCALL ISZERO DUP1 ISZERO PUSH2 0x1297 JUMPI RETURNDATASIZE PUSH1 0x0 DUP1 RETURNDATACOPY RETURNDATASIZE PUSH1 0x0 REVERT JUMPDEST POP POP POP POP PUSH1 0x40 MLOAD RETURNDATASIZE PUSH1 0x1F NOT PUSH1 0x1F DUP3 ADD AND DUP3 ADD DUP1 PUSH1 0x40 MSTORE POP DUP2 ADD SWAP1 PUSH2 0x12BB SWAP2 SWAP1 PUSH2 0x206C JUMP JUMPDEST PUSH1 0x1 DUP1 SLOAD PUSH1 0x1 PUSH1 0x1 PUSH1 0xA0 SHL SUB NOT AND PUSH1 0x1 PUSH1 0x1 PUSH1 0xA0 SHL SUB SWAP3 DUP4 AND OR SWAP1 SSTORE PUSH1 0x0 SLOAD PUSH1 0x40 DUP1 MLOAD PUSH4 0xD21220A7 PUSH1 0xE0 SHL DUP2 MSTORE SWAP1 MLOAD SWAP2 SWAP1 SWAP3 AND SWAP2 PUSH4 0xD21220A7 SWAP2 PUSH1 0x4 DUP1 DUP4 ADD SWAP3 PUSH1 0x20 SWAP3 SWAP2 SWAP1 DUP3 SWAP1 SUB ADD DUP2 DUP7 DUP1 EXTCODESIZE ISZERO DUP1 ISZERO PUSH2 0x1314 JUMPI PUSH1 0x0 DUP1 REVERT JUMPDEST POP GAS STATICCALL ISZERO DUP1 ISZERO PUSH2 0x1328 JUMPI RETURNDATASIZE PUSH1 0x0 DUP1 RETURNDATACOPY RETURNDATASIZE PUSH1 0x0 REVERT JUMPDEST POP POP POP POP PUSH1 0x40 MLOAD RETURNDATASIZE PUSH1 0x1F NOT PUSH1 0x1F DUP3 ADD AND DUP3 ADD DUP1 PUSH1 0x40 MSTORE POP DUP2 ADD SWAP1 PUSH2 0x134C SWAP2 SWAP1 PUSH2 0x206C JUMP JUMPDEST PUSH1 0x2 DUP1 SLOAD PUSH1 0x1 PUSH1 0x1 PUSH1 0xA0 SHL SUB NOT AND PUSH1 0x1 PUSH1 0x1 PUSH1 0xA0 SHL SUB SWAP3 DUP4 AND OR SWAP1 SSTORE PUSH1 0x0 SLOAD PUSH1 0x40 DUP1 MLOAD PUSH4 0x23E66501 PUSH1 0xE1 SHL DUP2 MSTORE SWAP1 MLOAD SWAP2 SWAP1 SWAP3 AND SWAP2 PUSH4 0x47CCCA02 SWAP2 PUSH1 0x4 DUP1 DUP4 ADD SWAP3 PUSH1 0x20 SWAP3 SWAP2 SWAP1 DUP3 SWAP1 SUB ADD DUP2 DUP7 DUP1 EXTCODESIZE ISZERO DUP1 ISZERO PUSH2 0x13A5 JUMPI PUSH1 0x0 DUP1 REVERT JUMPDEST POP GAS STATICCALL ISZERO DUP1 ISZERO PUSH2 0x13B9 JUMPI RETURNDATASIZE PUSH1 0x0 DUP1 RETURNDATACOPY RETURNDATASIZE PUSH1 0x0 REVERT JUMPDEST POP POP POP POP PUSH1 0x40 MLOAD RETURNDATASIZE PUSH1 0x1F NOT PUSH1 0x1F DUP3 ADD AND DUP3 ADD DUP1 PUSH1 0x40 MSTORE POP DUP2 ADD SWAP1 PUSH2 0x13DD SWAP2 SWAP1 PUSH2 0x206C JUMP JUMPDEST PUSH1 0x3 DUP1 SLOAD PUSH1 0x1 PUSH1 0x1 PUSH1 0xA0 SHL SUB NOT AND PUSH1 0x1 PUSH1 0x1 PUSH1 0xA0 SHL SUB SWAP3 DUP4 AND OR SWAP1 SSTORE PUSH1 0x0 SLOAD PUSH1 0x40 DUP1 MLOAD PUSH4 0x34324E9F PUSH1 0xE2 SHL DUP2 MSTORE SWAP1 MLOAD SWAP2 SWAP1 SWAP3 AND SWAP2 PUSH4 0xD0C93A7C SWAP2 PUSH1 0x4 DUP1 DUP4 ADD SWAP3 PUSH1 0x20 SWAP3 SWAP2 SWAP1 DUP3 SWAP1 SUB ADD DUP2 DUP7 DUP1 EXTCODESIZE ISZERO DUP1 ISZERO PUSH2 0x1436 JUMPI PUSH1 0x0 DUP1 REVERT JUMPDEST POP GAS STATICCALL ISZERO DUP1 ISZERO PUSH2 0x144A JUMPI RETURNDATASIZE PUSH1 0x0 DUP1 RETURNDATACOPY RETURNDATASIZE PUSH1 0x0 REVERT JUMPDEST POP POP POP POP PUSH1 0x40 MLOAD RETURNDATASIZE PUSH1 0x1F NOT PUSH1 0x1F DUP3 ADD AND DUP3 ADD DUP1 PUSH1 0x40 MSTORE POP DUP2 ADD SWAP1 PUSH2 0x146E SWAP2 SWAP1 PUSH2 0x2166 JUMP JUMPDEST PUSH1 0x5 PUSH1 0x14 PUSH2 0x100 EXP DUP2 SLOAD DUP2 PUSH3 0xFFFFFF MUL NOT AND SWAP1 DUP4 PUSH1 0x2 SIGNEXTEND PUSH3 0xFFFFFF AND MUL OR SWAP1 SSTORE POP POP JUMP JUMPDEST PUSH1 0x5 SLOAD PUSH1 0x1 PUSH1 0x1 PUSH1 0xA0 SHL SUB AND CALLER EQ PUSH2 0x14BC JUMPI PUSH1 0x40 MLOAD PUSH3 0x461BCD PUSH1 0xE5 SHL DUP2 MSTORE PUSH1 0x4 ADD PUSH2 0x8FC SWAP1 PUSH2 0x2667 JUMP JUMPDEST PUSH2 0x14C4 PUSH2 0xCB1 JUMP JUMPDEST PUSH2 0x14CC PUSH2 0x18AC JUMP JUMPDEST POP PUSH2 0x14D5 PUSH2 0x663 JUMP JUMPDEST JUMP JUMPDEST PUSH1 0x3 SLOAD PUSH1 0x1 PUSH1 0x1 PUSH1 0xA0 SHL SUB AND DUP2 JUMP JUMPDEST PUSH1 0x0 DUP2 GT PUSH2 0x1506 JUMPI PUSH1 0x40 MLOAD PUSH3 0x461BCD PUSH1 0xE5 SHL DUP2 MSTORE PUSH1 0x4 ADD PUSH2 0x8FC SWAP1 PUSH2 0x2697 JUMP JUMPDEST PUSH1 0x0 DUP1 PUSH1 0x0 SWAP1 SLOAD SWAP1 PUSH2 0x100 EXP SWAP1 DIV PUSH1 0x1 PUSH1 0x1 PUSH1 0xA0 SHL SUB AND PUSH1 0x1 PUSH1 0x1 PUSH1 0xA0 SHL SUB AND PUSH4 0x3850C7BD PUSH1 0x40 MLOAD DUP2 PUSH4 0xFFFFFFFF AND PUSH1 0xE0 SHL DUP2 MSTORE PUSH1 0x4 ADD PUSH1 0xC0 PUSH1 0x40 MLOAD DUP1 DUP4 SUB DUP2 DUP7 DUP1 EXTCODESIZE ISZERO DUP1 ISZERO PUSH2 0x1555 JUMPI PUSH1 0x0 DUP1 REVERT JUMPDEST POP GAS STATICCALL ISZERO DUP1 ISZERO PUSH2 0x1569 JUMPI RETURNDATASIZE PUSH1 0x0 DUP1 RETURNDATACOPY RETURNDATASIZE PUSH1 0x0 REVERT JUMPDEST POP POP POP POP PUSH1 0x40 MLOAD RETURNDATASIZE PUSH1 0x1F NOT PUSH1 0x1F DUP3 ADD AND DUP3 ADD DUP1 PUSH1 0x40 MSTORE POP DUP2 ADD SWAP1 PUSH2 0x158D SWAP2 SWAP1 PUSH2 0x221E JUMP JUMPDEST POP POP POP POP POP SWAP1 POP PUSH1 0x0 PUSH1 0x64 DUP3 PUSH1 0x63 MUL PUSH1 0x1 PUSH1 0x1 PUSH1 0xA0 SHL SUB AND DUP2 PUSH2 0x15AC JUMPI INVALID JUMPDEST DIV SWAP1 POP PUSH5 0x1000276A3 PUSH1 0x1 PUSH1 0x1 PUSH1 0xA0 SHL SUB DUP3 AND GT PUSH2 0x15CC JUMPI POP PUSH5 0x1000276A4 JUMPDEST PUSH1 0x1 SLOAD PUSH1 0x0 SLOAD PUSH1 0x40 MLOAD PUSH4 0x95EA7B3 PUSH1 0xE0 SHL DUP2 MSTORE PUSH1 0x1 PUSH1 0x1 PUSH1 0xA0 SHL SUB SWAP3 DUP4 AND SWAP3 PUSH4 0x95EA7B3 SWAP3 PUSH2 0x1602 SWAP3 SWAP2 AND SWAP1 DUP8 SWAP1 PUSH1 0x4 ADD PUSH2 0x2426 JUMP JUMPDEST PUSH1 0x20 PUSH1 0x40 MLOAD DUP1 DUP4 SUB DUP2 PUSH1 0x0 DUP8 DUP1 EXTCODESIZE ISZERO DUP1 ISZERO PUSH2 0x161C JUMPI PUSH1 0x0 DUP1 REVERT JUMPDEST POP GAS CALL ISZERO DUP1 ISZERO PUSH2 0x1630 JUMPI RETURNDATASIZE PUSH1 0x0 DUP1 RETURNDATACOPY RETURNDATASIZE PUSH1 0x0 REVERT JUMPDEST POP POP POP POP PUSH1 0x40 MLOAD RETURNDATASIZE PUSH1 0x1F NOT PUSH1 0x1F DUP3 ADD AND DUP3 ADD DUP1 PUSH1 0x40 MSTORE POP DUP2 ADD SWAP1 PUSH2 0x1654 SWAP2 SWAP1 PUSH2 0x214C JUMP JUMPDEST POP PUSH1 0x0 ADDRESS PUSH1 0x40 MLOAD PUSH1 0x20 ADD PUSH2 0x1668 SWAP2 SWAP1 PUSH2 0x2412 JUMP JUMPDEST PUSH1 0x40 DUP1 MLOAD PUSH1 0x1F NOT DUP2 DUP5 SUB ADD DUP2 MSTORE SWAP1 DUP3 SWAP1 MSTORE PUSH1 0x0 SLOAD PUSH4 0x2515961 PUSH1 0xE3 SHL DUP4 MSTORE SWAP1 SWAP3 POP PUSH1 0x1 PUSH1 0x1 PUSH1 0xA0 SHL SUB AND SWAP1 PUSH4 0x128ACB08 SWAP1 PUSH2 0x16B0 SWAP1 ADDRESS SWAP1 PUSH1 0x1 SWAP1 DUP10 SWAP1 DUP9 SWAP1 DUP9 SWAP1 PUSH1 0x4 ADD PUSH2 0x2463 JUMP JUMPDEST PUSH1 0x40 DUP1 MLOAD DUP1 DUP4 SUB DUP2 PUSH1 0x0 DUP8 DUP1 EXTCODESIZE ISZERO DUP1 ISZERO PUSH2 0x16C9 JUMPI PUSH1 0x0 DUP1 REVERT JUMPDEST POP GAS CALL ISZERO DUP1 ISZERO PUSH2 0x16DD JUMPI RETURNDATASIZE PUSH1 0x0 DUP1 RETURNDATACOPY RETURNDATASIZE PUSH1 0x0 REVERT JUMPDEST POP POP POP POP PUSH1 0x40 MLOAD RETURNDATASIZE PUSH1 0x1F NOT PUSH1 0x1F DUP3 ADD AND DUP3 ADD DUP1 PUSH1 0x40 MSTORE POP DUP2 ADD SWAP1 PUSH2 0x1701 SWAP2 SWAP1 PUSH2 0x2180 JUMP JUMPDEST POP POP POP POP POP POP JUMP JUMPDEST PUSH1 0x4 DUP1 SLOAD PUSH1 0x40 MLOAD PUSH4 0x133F7571 PUSH1 0xE3 SHL DUP2 MSTORE PUSH1 0x0 SWAP3 DUP4 SWAP3 PUSH20 0x416B433906B1B72FA758E166E239C43D68DC6F29 SWAP3 PUSH4 0x99FBAB88 SWAP3 PUSH2 0x1746 SWAP3 SWAP2 ADD PUSH2 0x2889 JUMP JUMPDEST PUSH2 0x180 PUSH1 0x40 MLOAD DUP1 DUP4 SUB DUP2 DUP7 DUP1 EXTCODESIZE ISZERO DUP1 ISZERO PUSH2 0x175F JUMPI PUSH1 0x0 DUP1 REVERT JUMPDEST POP GAS STATICCALL ISZERO DUP1 ISZERO PUSH2 0x1773 JUMPI RETURNDATASIZE PUSH1 0x0 DUP1 RETURNDATACOPY RETURNDATASIZE PUSH1 0x0 REVERT JUMPDEST POP POP POP POP PUSH1 0x40 MLOAD RETURNDATASIZE PUSH1 0x1F NOT PUSH1 0x1F DUP3 ADD AND DUP3 ADD DUP1 PUSH1 0x40 MSTORE POP DUP2 ADD SWAP1 PUSH2 0x1797 SWAP2 SWAP1 PUSH2 0x231F JUMP JUMPDEST POP SWAP3 SWAP12 POP POP POP POP POP POP POP POP POP POP POP POP SWAP1 JUMP JUMPDEST PUSH1 0x0 PUSH2 0x17B3 PUSH2 0x1030 JUMP JUMPDEST SWAP1 POP PUSH1 0x1 DUP2 ISZERO ISZERO EQ ISZERO PUSH2 0x17C6 JUMPI POP PUSH2 0x14D5 JUMP JUMPDEST PUSH2 0x17CE PUSH2 0x7C6 JUMP JUMPDEST PUSH2 0x17D6 PUSH2 0xBC4 JUMP JUMPDEST PUSH2 0x17DE PUSH2 0x975 JUMP JUMPDEST PUSH2 0x17E6 PUSH2 0xCB1 JUMP JUMPDEST PUSH2 0x17EE PUSH2 0x18AC JUMP JUMPDEST POP PUSH2 0x17F7 PUSH2 0x663 JUMP JUMPDEST POP JUMP JUMPDEST PUSH1 0x5 SLOAD PUSH1 0x1 PUSH1 0x1 PUSH1 0xA0 SHL SUB AND CALLER EQ PUSH2 0x1824 JUMPI PUSH1 0x40 MLOAD PUSH3 0x461BCD PUSH1 0xE5 SHL DUP2 MSTORE PUSH1 0x4 ADD PUSH2 0x8FC SWAP1 PUSH2 0x2667 JUMP JUMPDEST PUSH1 0x4 DUP1 SLOAD PUSH1 0x40 MLOAD PUSH4 0x23B872DD PUSH1 0xE0 SHL DUP2 MSTORE PUSH20 0x416B433906B1B72FA758E166E239C43D68DC6F29 SWAP3 PUSH4 0x23B872DD SWAP3 PUSH2 0x792 SWAP3 ADDRESS SWAP3 CALLER SWAP3 SWAP2 ADD PUSH2 0x243F JUMP JUMPDEST PUSH1 0x5 SLOAD PUSH1 0x1 PUSH1 0x1 PUSH1 0xA0 SHL SUB AND CALLER EQ PUSH2 0x188A JUMPI PUSH1 0x40 MLOAD PUSH3 0x461BCD PUSH1 0xE5 SHL DUP2 MSTORE PUSH1 0x4 ADD PUSH2 0x8FC SWAP1 PUSH2 0x2667 JUMP JUMPDEST PUSH1 0x5 DUP1 SLOAD PUSH1 0x1 PUSH1 0x1 PUSH1 0xA0 SHL SUB NOT AND PUSH1 0x1 PUSH1 0x1 PUSH1 0xA0 SHL SUB SWAP3 SWAP1 SWAP3 AND SWAP2 SWAP1 SWAP2 OR SWAP1 SSTORE JUMP JUMPDEST PUSH1 0x1 SLOAD PUSH1 0x40 MLOAD PUSH4 0x70A08231 PUSH1 0xE0 SHL DUP2 MSTORE PUSH1 0x0 SWAP2 DUP3 SWAP2 PUSH1 0x1 PUSH1 0x1 PUSH1 0xA0 SHL SUB SWAP1 SWAP2 AND SWAP1 PUSH4 0x70A08231 SWAP1 PUSH2 0x18E1 SWAP1 ADDRESS SWAP1 PUSH1 0x4 ADD PUSH2 0x2412 JUMP JUMPDEST PUSH1 0x20 PUSH1 0x40 MLOAD DUP1 DUP4 SUB DUP2 DUP7 DUP1 EXTCODESIZE ISZERO DUP1 ISZERO PUSH2 0x18F9 JUMPI PUSH1 0x0 DUP1 REVERT JUMPDEST POP GAS STATICCALL ISZERO DUP1 ISZERO PUSH2 0x190D JUMPI RETURNDATASIZE PUSH1 0x0 DUP1 RETURNDATACOPY RETURNDATASIZE PUSH1 0x0 REVERT JUMPDEST POP POP POP POP PUSH1 0x40 MLOAD RETURNDATASIZE PUSH1 0x1F NOT PUSH1 0x1F DUP3 ADD AND DUP3 ADD DUP1 PUSH1 0x40 MSTORE POP DUP2 ADD SWAP1 PUSH2 0x1931 SWAP2 SWAP1 PUSH2 0x22AB JUMP JUMPDEST PUSH1 0x2 SLOAD PUSH1 0x40 MLOAD PUSH4 0x70A08231 PUSH1 0xE0 SHL DUP2 MSTORE SWAP2 SWAP3 POP PUSH1 0x0 SWAP2 PUSH1 0x1 PUSH1 0x1 PUSH1 0xA0 SHL SUB SWAP1 SWAP2 AND SWAP1 PUSH4 0x70A08231 SWAP1 PUSH2 0x1967 SWAP1 ADDRESS SWAP1 PUSH1 0x4 ADD PUSH2 0x2412 JUMP JUMPDEST PUSH1 0x20 PUSH1 0x40 MLOAD DUP1 DUP4 SUB DUP2 DUP7 DUP1 EXTCODESIZE ISZERO DUP1 ISZERO PUSH2 0x197F JUMPI PUSH1 0x0 DUP1 REVERT JUMPDEST POP GAS STATICCALL ISZERO DUP1 ISZERO PUSH2 0x1993 JUMPI RETURNDATASIZE PUSH1 0x0 DUP1 RETURNDATACOPY RETURNDATASIZE PUSH1 0x0 REVERT JUMPDEST POP POP POP POP PUSH1 0x40 MLOAD RETURNDATASIZE PUSH1 0x1F NOT PUSH1 0x1F DUP3 ADD AND DUP3 ADD DUP1 PUSH1 0x40 MSTORE POP DUP2 ADD SWAP1 PUSH2 0x19B7 SWAP2 SWAP1 PUSH2 0x22AB JUMP JUMPDEST SWAP1 POP PUSH1 0x0 DUP1 PUSH2 0x19C4 PUSH2 0x7FF JUMP JUMPDEST POP PUSH1 0x1 SLOAD PUSH1 0x3 SLOAD PUSH1 0x40 MLOAD PUSH4 0x95EA7B3 PUSH1 0xE0 SHL DUP2 MSTORE SWAP4 SWAP6 POP SWAP2 SWAP4 POP PUSH1 0x1 PUSH1 0x1 PUSH1 0xA0 SHL SUB SWAP1 DUP2 AND SWAP3 PUSH4 0x95EA7B3 SWAP3 PUSH2 0x1A00 SWAP3 AND SWAP1 DUP9 SWAP1 PUSH1 0x4 ADD PUSH2 0x2426 JUMP JUMPDEST PUSH1 0x20 PUSH1 0x40 MLOAD DUP1 DUP4 SUB DUP2 PUSH1 0x0 DUP8 DUP1 EXTCODESIZE ISZERO DUP1 ISZERO PUSH2 0x1A1A JUMPI PUSH1 0x0 DUP1 REVERT JUMPDEST POP GAS CALL ISZERO DUP1 ISZERO PUSH2 0x1A2E JUMPI RETURNDATASIZE PUSH1 0x0 DUP1 RETURNDATACOPY RETURNDATASIZE PUSH1 0x0 REVERT JUMPDEST POP POP POP POP PUSH1 0x40 MLOAD RETURNDATASIZE PUSH1 0x1F NOT PUSH1 0x1F DUP3 ADD AND DUP3 ADD DUP1 PUSH1 0x40 MSTORE POP DUP2 ADD SWAP1 PUSH2 0x1A52 SWAP2 SWAP1 PUSH2 0x214C JUMP JUMPDEST POP PUSH1 0x2 SLOAD PUSH1 0x3 SLOAD PUSH1 0x40 MLOAD PUSH4 0x95EA7B3 PUSH1 0xE0 SHL DUP2 MSTORE PUSH1 0x1 PUSH1 0x1 PUSH1 0xA0 SHL SUB SWAP3 DUP4 AND SWAP3 PUSH4 0x95EA7B3 SWAP3 PUSH2 0x1A89 SWAP3 SWAP2 AND SWAP1 DUP8 SWAP1 PUSH1 0x4 ADD PUSH2 0x2426 JUMP JUMPDEST PUSH1 0x20 PUSH1 0x40 MLOAD DUP1 DUP4 SUB DUP2 PUSH1 0x0 DUP8 DUP1 EXTCODESIZE ISZERO DUP1 ISZERO PUSH2 0x1AA3 JUMPI PUSH1 0x0 DUP1 REVERT JUMPDEST POP GAS CALL ISZERO DUP1 ISZERO PUSH2 0x1AB7 JUMPI RETURNDATASIZE PUSH1 0x0 DUP1 RETURNDATACOPY RETURNDATASIZE PUSH1 0x0 REVERT JUMPDEST POP POP POP POP PUSH1 0x40 MLOAD RETURNDATASIZE PUSH1 0x1F NOT PUSH1 0x1F DUP3 ADD AND DUP3 ADD DUP1 PUSH1 0x40 MSTORE POP DUP2 ADD SWAP1 PUSH2 0x1ADB SWAP2 SWAP1 PUSH2 0x214C JUMP JUMPDEST POP PUSH1 0x40 DUP1 MLOAD PUSH2 0x180 DUP2 ADD DUP3 MSTORE PUSH1 0x1 SLOAD PUSH1 0x1 PUSH1 0x1 PUSH1 0xA0 SHL SUB SWAP1 DUP2 AND DUP3 MSTORE PUSH1 0x2 DUP1 SLOAD DUP3 AND PUSH1 0x20 DUP5 ADD MSTORE PUSH1 0x5 SLOAD PUSH1 0x1 PUSH1 0xA0 SHL SWAP1 DIV DUP2 SIGNEXTEND DUP2 SIGNEXTEND DUP4 DUP6 ADD MSTORE DUP6 DUP2 SIGNEXTEND PUSH1 0x60 DUP5 ADD MSTORE DUP5 SWAP1 SIGNEXTEND PUSH1 0x80 DUP4 ADD MSTORE PUSH1 0xA0 DUP3 ADD DUP8 SWAP1 MSTORE PUSH1 0xC0 DUP3 ADD DUP7 SWAP1 MSTORE PUSH1 0x0 PUSH1 0xE0 DUP4 ADD DUP2 SWAP1 MSTORE PUSH2 0x100 DUP4 ADD DUP2 SWAP1 MSTORE ADDRESS PUSH2 0x120 DUP5 ADD MSTORE PUSH3 0x16E360 TIMESTAMP ADD PUSH2 0x140 DUP5 ADD MSTORE PUSH2 0x160 DUP4 ADD MSTORE PUSH1 0x3 SLOAD SWAP3 MLOAD PUSH4 0xB5007D1F PUSH1 0xE0 SHL DUP2 MSTORE SWAP2 SWAP3 AND SWAP1 PUSH4 0xB5007D1F SWAP1 PUSH2 0x1B83 SWAP1 DUP5 SWAP1 PUSH1 0x4 ADD PUSH2 0x27B0 JUMP JUMPDEST PUSH1 0x80 PUSH1 0x40 MLOAD DUP1 DUP4 SUB DUP2 PUSH1 0x0 DUP8 DUP1 EXTCODESIZE ISZERO DUP1 ISZERO PUSH2 0x1B9D JUMPI PUSH1 0x0 DUP1 REVERT JUMPDEST POP GAS CALL ISZERO DUP1 ISZERO PUSH2 0x1BB1 JUMPI RETURNDATASIZE PUSH1 0x0 DUP1 RETURNDATACOPY RETURNDATASIZE PUSH1 0x0 REVERT JUMPDEST POP POP POP POP PUSH1 0x40 MLOAD RETURNDATASIZE PUSH1 0x1F NOT PUSH1 0x1F DUP3 ADD AND DUP3 ADD DUP1 PUSH1 0x40 MSTORE POP DUP2 ADD SWAP1 PUSH2 0x1BD5 SWAP2 SWAP1 PUSH2 0x22C3 JUMP JUMPDEST POP POP POP PUSH1 0x4 DUP2 SWAP1 SSTORE SWAP6 POP POP POP POP POP POP SWAP1 JUMP JUMPDEST PUSH1 0x0 DUP2 GT PUSH2 0x1C07 JUMPI PUSH1 0x40 MLOAD PUSH3 0x461BCD PUSH1 0xE5 SHL DUP2 MSTORE PUSH1 0x4 ADD PUSH2 0x8FC SWAP1 PUSH2 0x2697 JUMP JUMPDEST PUSH1 0x0 DUP1 PUSH1 0x0 SWAP1 SLOAD SWAP1 PUSH2 0x100 EXP SWAP1 DIV PUSH1 0x1 PUSH1 0x1 PUSH1 0xA0 SHL SUB AND PUSH1 0x1 PUSH1 0x1 PUSH1 0xA0 SHL SUB AND PUSH4 0x3850C7BD PUSH1 0x40 MLOAD DUP2 PUSH4 0xFFFFFFFF AND PUSH1 0xE0 SHL DUP2 MSTORE PUSH1 0x4 ADD PUSH1 0xC0 PUSH1 0x40 MLOAD DUP1 DUP4 SUB DUP2 DUP7 DUP1 EXTCODESIZE ISZERO DUP1 ISZERO PUSH2 0x1C56 JUMPI PUSH1 0x0 DUP1 REVERT JUMPDEST POP GAS STATICCALL ISZERO DUP1 ISZERO PUSH2 0x1C6A JUMPI RETURNDATASIZE PUSH1 0x0 DUP1 RETURNDATACOPY RETURNDATASIZE PUSH1 0x0 REVERT JUMPDEST POP POP POP POP PUSH1 0x40 MLOAD RETURNDATASIZE PUSH1 0x1F NOT PUSH1 0x1F DUP3 ADD AND DUP3 ADD DUP1 PUSH1 0x40 MSTORE POP DUP2 ADD SWAP1 PUSH2 0x1C8E SWAP2 SWAP1 PUSH2 0x221E JUMP JUMPDEST POP POP POP POP POP SWAP1 POP PUSH1 0x0 PUSH1 0x64 DUP3 PUSH1 0x65 MUL PUSH1 0x1 PUSH1 0x1 PUSH1 0xA0 SHL SUB AND DUP2 PUSH2 0x1CAD JUMPI INVALID JUMPDEST DIV SWAP1 POP PUSH5 0x1000276A3 PUSH1 0x1 PUSH1 0x1 PUSH1 0xA0 SHL SUB DUP3 AND GT PUSH2 0x1CCD JUMPI POP PUSH5 0x1000276A2 JUMPDEST PUSH1 0x2 SLOAD PUSH1 0x0 SLOAD PUSH1 0x40 MLOAD PUSH4 0x95EA7B3 PUSH1 0xE0 SHL DUP2 MSTORE PUSH1 0x1 PUSH1 0x1 PUSH1 0xA0 SHL SUB SWAP3 DUP4 AND SWAP3 PUSH4 0x95EA7B3 SWAP3 PUSH2 0x1D03 SWAP3 SWAP2 AND SWAP1 DUP8 SWAP1 PUSH1 0x4 ADD PUSH2 0x2426 JUMP JUMPDEST PUSH1 0x20 PUSH1 0x40 MLOAD DUP1 DUP4 SUB DUP2 PUSH1 0x0 DUP8 DUP1 EXTCODESIZE ISZERO DUP1 ISZERO PUSH2 0x1D1D JUMPI PUSH1 0x0 DUP1 REVERT JUMPDEST POP GAS CALL ISZERO DUP1 ISZERO PUSH2 0x1D31 JUMPI RETURNDATASIZE PUSH1 0x0 DUP1 RETURNDATACOPY RETURNDATASIZE PUSH1 0x0 REVERT JUMPDEST POP POP POP POP PUSH1 0x40 MLOAD RETURNDATASIZE PUSH1 0x1F NOT PUSH1 0x1F DUP3 ADD AND DUP3 ADD DUP1 PUSH1 0x40 MSTORE POP DUP2 ADD SWAP1 PUSH2 0x1D55 SWAP2 SWAP1 PUSH2 0x214C JUMP JUMPDEST POP PUSH1 0x0 ADDRESS PUSH1 0x40 MLOAD PUSH1 0x20 ADD PUSH2 0x1D69 SWAP2 SWAP1 PUSH2 0x2412 JUMP JUMPDEST PUSH1 0x40 DUP1 MLOAD PUSH1 0x1F NOT DUP2 DUP5 SUB ADD DUP2 MSTORE SWAP1 DUP3 SWAP1 MSTORE PUSH1 0x0 DUP1 SLOAD PUSH4 0x2515961 PUSH1 0xE3 SHL DUP5 MSTORE SWAP2 SWAP4 POP PUSH1 0x1 PUSH1 0x1 PUSH1 0xA0 SHL SUB SWAP1 SWAP2 AND SWAP2 PUSH4 0x128ACB08 SWAP2 PUSH2 0x16B0 SWAP2 ADDRESS SWAP2 SWAP1 DUP10 SWAP1 DUP9 SWAP1 DUP9 SWAP1 PUSH1 0x4 ADD PUSH2 0x2463 JUMP JUMPDEST PUSH1 0x5 SLOAD PUSH1 0x1 PUSH1 0x1 PUSH1 0xA0 SHL SUB AND DUP2 JUMP JUMPDEST PUSH1 0x0 SLOAD PUSH1 0x1 PUSH1 0x1 PUSH1 0xA0 SHL SUB AND CALLER EQ PUSH2 0x1DEB JUMPI PUSH1 0x40 MLOAD PUSH3 0x461BCD PUSH1 0xE5 SHL DUP2 MSTORE PUSH1 0x4 ADD PUSH2 0x8FC SWAP1 PUSH2 0x26F3 JUMP JUMPDEST PUSH1 0x0 DUP5 SGT ISZERO PUSH2 0x1E7E JUMPI PUSH1 0x1 SLOAD PUSH1 0x0 SLOAD PUSH1 0x40 MLOAD PUSH4 0xA9059CBB PUSH1 0xE0 SHL DUP2 MSTORE PUSH1 0x1 PUSH1 0x1 PUSH1 0xA0 SHL SUB SWAP3 DUP4 AND SWAP3 PUSH4 0xA9059CBB SWAP3 PUSH2 0x1E2A SWAP3 SWAP2 AND SWAP1 DUP9 SWAP1 PUSH1 0x4 ADD PUSH2 0x2426 JUMP JUMPDEST PUSH1 0x20 PUSH1 0x40 MLOAD DUP1 DUP4 SUB DUP2 PUSH1 0x0 DUP8 DUP1 EXTCODESIZE ISZERO DUP1 ISZERO PUSH2 0x1E44 JUMPI PUSH1 0x0 DUP1 REVERT JUMPDEST POP GAS CALL ISZERO DUP1 ISZERO PUSH2 0x1E58 JUMPI RETURNDATASIZE PUSH1 0x0 DUP1 RETURNDATACOPY RETURNDATASIZE PUSH1 0x0 REVERT JUMPDEST POP POP POP POP PUSH1 0x40 MLOAD RETURNDATASIZE PUSH1 0x1F NOT PUSH1 0x1F DUP3 ADD AND DUP3 ADD DUP1 PUSH1 0x40 MSTORE POP DUP2 ADD SWAP1 PUSH2 0x1E7C SWAP2 SWAP1 PUSH2 0x214C JUMP JUMPDEST POP JUMPDEST PUSH1 0x0 DUP4 SGT ISZERO PUSH2 0x7C0 JUMPI PUSH1 0x2 SLOAD PUSH1 0x0 SLOAD PUSH1 0x40 MLOAD PUSH4 0xA9059CBB PUSH1 0xE0 SHL DUP2 MSTORE PUSH1 0x1 PUSH1 0x1 PUSH1 0xA0 SHL SUB SWAP3 DUP4 AND SWAP3 PUSH4 0xA9059CBB SWAP3 PUSH2 0x1EBD SWAP3 SWAP2 AND SWAP1 DUP8 SWAP1 PUSH1 0x4 ADD PUSH2 0x2426 JUMP JUMPDEST PUSH1 0x20 PUSH1 0x40 MLOAD DUP1 DUP4 SUB DUP2 PUSH1 0x0 DUP8 DUP1 EXTCODESIZE ISZERO DUP1 ISZERO PUSH2 0x1ED7 JUMPI PUSH1 0x0 DUP1 REVERT JUMPDEST POP GAS CALL ISZERO DUP1 ISZERO PUSH2 0x1EEB JUMPI RETURNDATASIZE PUSH1 0x0 DUP1 RETURNDATACOPY RETURNDATASIZE PUSH1 0x0 REVERT JUMPDEST POP POP POP POP PUSH1 0x40 MLOAD RETURNDATASIZE PUSH1 0x1F NOT PUSH1 0x1F DUP3 ADD AND DUP3 ADD DUP1 PUSH1 0x40 MSTORE POP DUP2 ADD SWAP1 PUSH2 0x96E SWAP2 SWAP1 PUSH2 0x214C JUMP JUMPDEST PUSH1 0x5 SLOAD PUSH1 0x1 PUSH1 0xB8 SHL SWAP1 DIV PUSH1 0x2 SIGNEXTEND DUP2 JUMP JUMPDEST PUSH1 0x0 DUP1 DUP1 PUSH1 0x0 NOT DUP6 DUP8 MULMOD DUP7 DUP7 MUL SWAP3 POP DUP3 DUP2 LT SWAP1 DUP4 SWAP1 SUB SUB SWAP1 POP DUP1 PUSH2 0x1F55 JUMPI PUSH1 0x0 DUP5 GT PUSH2 0x1F4A JUMPI PUSH1 0x0 DUP1 REVERT JUMPDEST POP DUP3 SWAP1 DIV SWAP1 POP PUSH2 0x1FC8 JUMP JUMPDEST DUP1 DUP5 GT PUSH2 0x1F61 JUMPI PUSH1 0x0 DUP1 REVERT JUMPDEST PUSH1 0x0 DUP5 DUP7 DUP9 MULMOD PUSH1 0x0 DUP7 DUP2 SUB DUP8 AND SWAP7 DUP8 SWAP1 DIV SWAP7 PUSH1 0x2 PUSH1 0x3 DUP10 MUL DUP2 XOR DUP1 DUP11 MUL DUP3 SUB MUL DUP1 DUP11 MUL DUP3 SUB MUL DUP1 DUP11 MUL DUP3 SUB MUL DUP1 DUP11 MUL DUP3 SUB MUL DUP1 DUP11 MUL DUP3 SUB MUL DUP1 DUP11 MUL SWAP1 SWAP2 SUB MUL SWAP2 DUP2 SWAP1 SUB DUP2 SWAP1 DIV PUSH1 0x1 ADD DUP7 DUP5 GT SWAP1 SWAP6 SUB SWAP5 SWAP1 SWAP5 MUL SWAP2 SWAP1 SWAP5 SUB SWAP3 SWAP1 SWAP3 DIV SWAP2 SWAP1 SWAP2 OR SWAP2 SWAP1 SWAP2 MUL SWAP2 POP POP JUMPDEST SWAP4 SWAP3 POP POP POP JUMP JUMPDEST DUP1 DUP3 ADD DUP3 DUP2 LT ISZERO PUSH2 0x1FDF JUMPI PUSH1 0x0 DUP1 REVERT JUMPDEST SWAP3 SWAP2 POP POP JUMP JUMPDEST DUP1 DUP3 SUB DUP3 DUP2 GT ISZERO PUSH2 0x1FDF JUMPI PUSH1 0x0 DUP1 REVERT JUMPDEST DUP1 MLOAD PUSH2 0x2000 DUP2 PUSH2 0x2892 JUMP JUMPDEST SWAP2 SWAP1 POP JUMP JUMPDEST DUP1 MLOAD DUP1 ISZERO ISZERO DUP2 EQ PUSH2 0x2000 JUMPI PUSH1 0x0 DUP1 REVERT JUMPDEST DUP1 MLOAD PUSH1 0x2 DUP2 SWAP1 SIGNEXTEND DUP2 EQ PUSH2 0x2000 JUMPI PUSH1 0x0 DUP1 REVERT JUMPDEST DUP1 MLOAD PUSH1 0x1 PUSH1 0x1 PUSH1 0x80 SHL SUB DUP2 AND DUP2 EQ PUSH2 0x2000 JUMPI PUSH1 0x0 DUP1 REVERT JUMPDEST DUP1 MLOAD PUSH2 0xFFFF DUP2 AND DUP2 EQ PUSH2 0x2000 JUMPI PUSH1 0x0 DUP1 REVERT JUMPDEST PUSH1 0x0 PUSH1 0x20 DUP3 DUP5 SUB SLT ISZERO PUSH2 0x2061 JUMPI DUP1 DUP2 REVERT JUMPDEST DUP2 CALLDATALOAD PUSH2 0x1FC8 DUP2 PUSH2 0x2892 JUMP JUMPDEST PUSH1 0x0 PUSH1 0x20 DUP3 DUP5 SUB SLT ISZERO PUSH2 0x207D JUMPI DUP1 DUP2 REVERT JUMPDEST DUP2 MLOAD PUSH2 0x1FC8 DUP2 PUSH2 0x2892 JUMP JUMPDEST PUSH1 0x0 DUP1 PUSH1 0x0 DUP1 PUSH1 0x80 DUP6 DUP8 SUB SLT ISZERO PUSH2 0x209D JUMPI DUP3 DUP4 REVERT JUMPDEST DUP5 CALLDATALOAD PUSH2 0x20A8 DUP2 PUSH2 0x2892 JUMP JUMPDEST SWAP4 POP PUSH1 0x20 DUP6 DUP2 ADD CALLDATALOAD PUSH2 0x20B9 DUP2 PUSH2 0x2892 JUMP JUMPDEST SWAP4 POP PUSH1 0x40 DUP7 ADD CALLDATALOAD SWAP3 POP PUSH1 0x60 DUP7 ADD CALLDATALOAD PUSH8 0xFFFFFFFFFFFFFFFF DUP1 DUP3 GT ISZERO PUSH2 0x20DC JUMPI DUP4 DUP5 REVERT JUMPDEST DUP2 DUP9 ADD SWAP2 POP DUP9 PUSH1 0x1F DUP4 ADD SLT PUSH2 0x20EF JUMPI DUP4 DUP5 REVERT JUMPDEST DUP2 CALLDATALOAD DUP2 DUP2 GT ISZERO PUSH2 0x20FB JUMPI INVALID JUMPDEST PUSH1 0x40 MLOAD PUSH1 0x1F DUP3 ADD PUSH1 0x1F NOT AND DUP2 ADD DUP6 ADD DUP4 DUP2 GT DUP3 DUP3 LT OR ISZERO PUSH2 0x2118 JUMPI INVALID JUMPDEST PUSH1 0x40 MSTORE DUP2 DUP2 MSTORE DUP4 DUP3 ADD DUP6 ADD DUP12 LT ISZERO PUSH2 0x212E JUMPI DUP6 DUP7 REVERT JUMPDEST DUP2 DUP6 DUP6 ADD DUP7 DUP4 ADD CALLDATACOPY SWAP1 DUP2 ADD SWAP1 SWAP4 ADD SWAP4 SWAP1 SWAP4 MSTORE POP SWAP4 SWAP7 SWAP3 SWAP6 POP SWAP1 SWAP4 POP POP JUMP JUMPDEST PUSH1 0x0 PUSH1 0x20 DUP3 DUP5 SUB SLT ISZERO PUSH2 0x215D JUMPI DUP1 DUP2 REVERT JUMPDEST PUSH2 0x1FC8 DUP3 PUSH2 0x2005 JUMP JUMPDEST PUSH1 0x0 PUSH1 0x20 DUP3 DUP5 SUB SLT ISZERO PUSH2 0x2177 JUMPI DUP1 DUP2 REVERT JUMPDEST PUSH2 0x1FC8 DUP3 PUSH2 0x2015 JUMP JUMPDEST PUSH1 0x0 DUP1 PUSH1 0x40 DUP4 DUP6 SUB SLT ISZERO PUSH2 0x2192 JUMPI DUP2 DUP3 REVERT JUMPDEST POP POP DUP1 MLOAD PUSH1 0x20 SWAP1 SWAP2 ADD MLOAD SWAP1 SWAP3 SWAP1 SWAP2 POP JUMP JUMPDEST PUSH1 0x0 DUP1 PUSH1 0x0 DUP1 PUSH1 0x60 DUP6 DUP8 SUB SLT ISZERO PUSH2 0x21B8 JUMPI DUP4 DUP5 REVERT JUMPDEST DUP5 CALLDATALOAD SWAP4 POP PUSH1 0x20 DUP6 ADD CALLDATALOAD SWAP3 POP PUSH1 0x40 DUP6 ADD CALLDATALOAD PUSH8 0xFFFFFFFFFFFFFFFF DUP1 DUP3 GT ISZERO PUSH2 0x21DD JUMPI DUP4 DUP5 REVERT JUMPDEST DUP2 DUP8 ADD SWAP2 POP DUP8 PUSH1 0x1F DUP4 ADD SLT PUSH2 0x21F0 JUMPI DUP4 DUP5 REVERT JUMPDEST DUP2 CALLDATALOAD DUP2 DUP2 GT ISZERO PUSH2 0x21FE JUMPI DUP5 DUP6 REVERT JUMPDEST DUP9 PUSH1 0x20 DUP3 DUP6 ADD ADD GT ISZERO PUSH2 0x220F JUMPI DUP5 DUP6 REVERT JUMPDEST SWAP6 SWAP9 SWAP5 SWAP8 POP POP PUSH1 0x20 ADD SWAP5 POP POP POP JUMP JUMPDEST PUSH1 0x0 DUP1 PUSH1 0x0 DUP1 PUSH1 0x0 DUP1 PUSH1 0xC0 DUP8 DUP10 SUB SLT ISZERO PUSH2 0x2236 JUMPI DUP2 DUP3 REVERT JUMPDEST DUP7 MLOAD PUSH2 0x2241 DUP2 PUSH2 0x2892 JUMP JUMPDEST SWAP6 POP PUSH2 0x224F PUSH1 0x20 DUP9 ADD PUSH2 0x2015 JUMP JUMPDEST SWAP5 POP PUSH2 0x225D PUSH1 0x40 DUP9 ADD PUSH2 0x203E JUMP JUMPDEST SWAP4 POP PUSH2 0x226B PUSH1 0x60 DUP9 ADD PUSH2 0x203E JUMP JUMPDEST SWAP3 POP PUSH2 0x2279 PUSH1 0x80 DUP9 ADD PUSH2 0x203E JUMP JUMPDEST SWAP2 POP PUSH2 0x2287 PUSH1 0xA0 DUP9 ADD PUSH2 0x2005 JUMP JUMPDEST SWAP1 POP SWAP3 SWAP6 POP SWAP3 SWAP6 POP SWAP3 SWAP6 JUMP JUMPDEST PUSH1 0x0 PUSH1 0x20 DUP3 DUP5 SUB SLT ISZERO PUSH2 0x22A4 JUMPI DUP1 DUP2 REVERT JUMPDEST POP CALLDATALOAD SWAP2 SWAP1 POP JUMP JUMPDEST PUSH1 0x0 PUSH1 0x20 DUP3 DUP5 SUB SLT ISZERO PUSH2 0x22BC JUMPI DUP1 DUP2 REVERT JUMPDEST POP MLOAD SWAP2 SWAP1 POP JUMP JUMPDEST PUSH1 0x0 DUP1 PUSH1 0x0 DUP1 PUSH1 0x80 DUP6 DUP8 SUB SLT ISZERO PUSH2 0x22D8 JUMPI DUP2 DUP3 REVERT JUMPDEST DUP5 MLOAD SWAP4 POP PUSH2 0x22E8 PUSH1 0x20 DUP7 ADD PUSH2 0x2027 JUMP JUMPDEST PUSH1 0x40 DUP7 ADD MLOAD PUSH1 0x60 SWAP1 SWAP7 ADD MLOAD SWAP5 SWAP8 SWAP1 SWAP7 POP SWAP3 POP POP POP JUMP JUMPDEST PUSH1 0x0 DUP1 PUSH1 0x40 DUP4 DUP6 SUB SLT ISZERO PUSH2 0x2310 JUMPI DUP2 DUP3 REVERT JUMPDEST POP POP DUP1 CALLDATALOAD SWAP3 PUSH1 0x20 SWAP1 SWAP2 ADD CALLDATALOAD SWAP2 POP JUMP JUMPDEST PUSH1 0x0 DUP1 PUSH1 0x0 DUP1 PUSH1 0x0 DUP1 PUSH1 0x0 DUP1 PUSH1 0x0 DUP1 PUSH1 0x0 DUP1 PUSH2 0x180 DUP14 DUP16 SUB SLT ISZERO PUSH2 0x2341 JUMPI DUP10 DUP11 REVERT JUMPDEST DUP13 MLOAD PUSH12 0xFFFFFFFFFFFFFFFFFFFFFFFF DUP2 AND DUP2 EQ PUSH2 0x235C JUMPI DUP11 DUP12 REVERT JUMPDEST SWAP12 POP PUSH2 0x236A PUSH1 0x20 DUP15 ADD PUSH2 0x1FF5 JUMP JUMPDEST SWAP11 POP PUSH2 0x2378 PUSH1 0x40 DUP15 ADD PUSH2 0x1FF5 JUMP JUMPDEST SWAP10 POP PUSH2 0x2386 PUSH1 0x60 DUP15 ADD PUSH2 0x1FF5 JUMP JUMPDEST SWAP9 POP PUSH2 0x2394 PUSH1 0x80 DUP15 ADD PUSH2 0x2015 JUMP JUMPDEST SWAP8 POP PUSH2 0x23A2 PUSH1 0xA0 DUP15 ADD PUSH2 0x2015 JUMP JUMPDEST SWAP7 POP PUSH2 0x23B0 PUSH1 0xC0 DUP15 ADD PUSH2 0x2015 JUMP JUMPDEST SWAP6 POP PUSH2 0x23BE PUSH1 0xE0 DUP15 ADD PUSH2 0x2027 JUMP JUMPDEST SWAP5 POP PUSH2 0x100 DUP14 ADD MLOAD SWAP4 POP PUSH2 0x120 DUP14 ADD MLOAD SWAP3 POP PUSH2 0x23DD PUSH2 0x140 DUP15 ADD PUSH2 0x2027 JUMP JUMPDEST SWAP2 POP PUSH2 0x23EC PUSH2 0x160 DUP15 ADD PUSH2 0x2027 JUMP JUMPDEST SWAP1 POP SWAP3 SWAP6 SWAP9 SWAP12 POP SWAP3 SWAP6 SWAP9 SWAP12 POP SWAP3 SWAP6 SWAP9 SWAP12 JUMP JUMPDEST PUSH1 0x1 PUSH1 0x1 PUSH1 0xA0 SHL SUB AND SWAP1 MSTORE JUMP JUMPDEST PUSH1 0x2 SIGNEXTEND SWAP1 MSTORE JUMP JUMPDEST PUSH1 0x1 PUSH1 0x1 PUSH1 0xA0 SHL SUB SWAP2 SWAP1 SWAP2 AND DUP2 MSTORE PUSH1 0x20 ADD SWAP1 JUMP JUMPDEST PUSH1 0x1 PUSH1 0x1 PUSH1 0xA0 SHL SUB SWAP3 SWAP1 SWAP3 AND DUP3 MSTORE PUSH1 0x20 DUP3 ADD MSTORE PUSH1 0x40 ADD SWAP1 JUMP JUMPDEST PUSH1 0x1 PUSH1 0x1 PUSH1 0xA0 SHL SUB SWAP4 DUP5 AND DUP2 MSTORE SWAP2 SWAP1 SWAP3 AND PUSH1 0x20 DUP3 ADD MSTORE PUSH1 0x40 DUP2 ADD SWAP2 SWAP1 SWAP2 MSTORE PUSH1 0x60 ADD SWAP1 JUMP JUMPDEST PUSH1 0x0 PUSH1 0x1 DUP1 PUSH1 0xA0 SHL SUB DUP1 DUP9 AND DUP4 MSTORE PUSH1 0x20 DUP8 ISZERO ISZERO DUP2 DUP6 ADD MSTORE DUP7 PUSH1 0x40 DUP6 ADD MSTORE DUP2 DUP7 AND PUSH1 0x60 DUP6 ADD MSTORE PUSH1 0xA0 PUSH1 0x80 DUP6 ADD MSTORE DUP5 MLOAD SWAP2 POP DUP2 PUSH1 0xA0 DUP6 ADD MSTORE DUP3 JUMPDEST DUP3 DUP2 LT ISZERO PUSH2 0x24B7 JUMPI DUP6 DUP2 ADD DUP3 ADD MLOAD DUP6 DUP3 ADD PUSH1 0xC0 ADD MSTORE DUP2 ADD PUSH2 0x249B JUMP JUMPDEST DUP3 DUP2 GT ISZERO PUSH2 0x24C8 JUMPI DUP4 PUSH1 0xC0 DUP5 DUP8 ADD ADD MSTORE JUMPDEST POP POP PUSH1 0x1F ADD PUSH1 0x1F NOT AND SWAP2 SWAP1 SWAP2 ADD PUSH1 0xC0 ADD SWAP7 SWAP6 POP POP POP POP POP POP JUMP JUMPDEST PUSH1 0x1 PUSH1 0x1 PUSH1 0xA0 SHL SUB SWAP5 DUP6 AND DUP2 MSTORE PUSH1 0x1 PUSH1 0x1 PUSH1 0x80 SHL SUB SWAP4 SWAP1 SWAP4 AND PUSH1 0x20 DUP5 ADD MSTORE SWAP1 DUP4 AND PUSH1 0x40 DUP4 ADD MSTORE SWAP1 SWAP2 AND PUSH1 0x60 DUP3 ADD MSTORE PUSH1 0x80 ADD SWAP1 JUMP JUMPDEST SWAP1 ISZERO ISZERO DUP2 MSTORE PUSH1 0x20 ADD SWAP1 JUMP JUMPDEST PUSH1 0x1 PUSH1 0x1 PUSH1 0xE0 SHL SUB NOT SWAP2 SWAP1 SWAP2 AND DUP2 MSTORE PUSH1 0x20 ADD SWAP1 JUMP JUMPDEST PUSH1 0x2 SWAP2 SWAP1 SWAP2 SIGNEXTEND DUP2 MSTORE PUSH1 0x20 ADD SWAP1 JUMP JUMPDEST PUSH1 0x2 SWAP4 DUP5 SIGNEXTEND DUP2 MSTORE SWAP2 DUP4 SIGNEXTEND PUSH1 0x20 DUP4 ADD MSTORE SWAP1 SWAP2 SIGNEXTEND PUSH1 0x40 DUP3 ADD MSTORE PUSH1 0x60 ADD SWAP1 JUMP JUMPDEST PUSH1 0x20 DUP1 DUP3 MSTORE PUSH1 0x16 SWAP1 DUP3 ADD MSTORE PUSH22 0x4E6F20746F6B656E7320746F20726562616C616E6365 PUSH1 0x50 SHL PUSH1 0x40 DUP3 ADD MSTORE PUSH1 0x60 ADD SWAP1 JUMP JUMPDEST PUSH1 0x20 DUP1 DUP3 MSTORE PUSH1 0x11 SWAP1 DUP3 ADD MSTORE PUSH17 0x496E73756666696369656E742056454C4F PUSH1 0x78 SHL PUSH1 0x40 DUP3 ADD MSTORE PUSH1 0x60 ADD SWAP1 JUMP JUMPDEST PUSH1 0x20 DUP1 DUP3 MSTORE PUSH1 0x12 SWAP1 DUP3 ADD MSTORE PUSH18 0x496E76616C6964207469636B2072616E6765 PUSH1 0x70 SHL PUSH1 0x40 DUP3 ADD MSTORE PUSH1 0x60 ADD SWAP1 JUMP JUMPDEST PUSH1 0x20 DUP1 DUP3 MSTORE PUSH1 0x10 SWAP1 DUP3 ADD MSTORE PUSH16 0x16995C9BC81CDDD85C08185B5BDD5B9D PUSH1 0x82 SHL PUSH1 0x40 DUP3 ADD MSTORE PUSH1 0x60 ADD SWAP1 JUMP JUMPDEST PUSH1 0x20 DUP1 DUP3 MSTORE PUSH1 0x10 SWAP1 DUP3 ADD MSTORE PUSH16 0x5A65726F20746F74616C2076616C7565 PUSH1 0x80 SHL PUSH1 0x40 DUP3 ADD MSTORE PUSH1 0x60 ADD SWAP1 JUMP JUMPDEST PUSH1 0x20 DUP1 DUP3 MSTORE PUSH1 0x11 SWAP1 DUP3 ADD MSTORE PUSH17 0x496E73756666696369656E742055534443 PUSH1 0x78 SHL PUSH1 0x40 DUP3 ADD MSTORE PUSH1 0x60 ADD SWAP1 JUMP JUMPDEST PUSH1 0x20 DUP1 DUP3 MSTORE PUSH1 0x16 SWAP1 DUP3 ADD MSTORE PUSH22 0x4F6E6C79206F776E65722063616E20646F2074686973 PUSH1 0x50 SHL PUSH1 0x40 DUP3 ADD MSTORE PUSH1 0x60 ADD SWAP1 JUMP JUMPDEST PUSH1 0x20 DUP1 DUP3 MSTORE PUSH1 0x14 SWAP1 DUP3 ADD MSTORE PUSH20 0x125B9D985B1A59081A5B9C1D5D08185B5BDD5B9D PUSH1 0x62 SHL PUSH1 0x40 DUP3 ADD MSTORE PUSH1 0x60 ADD SWAP1 JUMP JUMPDEST PUSH1 0x20 DUP1 DUP3 MSTORE PUSH1 0x14 SWAP1 DUP3 ADD MSTORE PUSH20 0x496E76616C6964206F7261636C65207072696365 PUSH1 0x60 SHL PUSH1 0x40 DUP3 ADD MSTORE PUSH1 0x60 ADD SWAP1 JUMP JUMPDEST PUSH1 0x20 DUP1 DUP3 MSTORE PUSH1 0x17 SWAP1 DUP3 ADD MSTORE PUSH32 0x43616C6C6261636B206F6E6C792066726F6D20706F6F6C000000000000000000 PUSH1 0x40 DUP3 ADD MSTORE PUSH1 0x60 ADD SWAP1 JUMP JUMPDEST DUP2 MLOAD DUP2 MSTORE PUSH1 0x20 DUP1 DUP4 ADD MLOAD PUSH1 0x1 PUSH1 0x1 PUSH1 0xA0 SHL SUB AND SWAP1 DUP3 ADD MSTORE PUSH1 0x40 DUP1 DUP4 ADD MLOAD PUSH1 0x1 PUSH1 0x1 PUSH1 0x80 SHL SUB SWAP1 DUP2 AND SWAP2 DUP4 ADD SWAP2 SWAP1 SWAP2 MSTORE PUSH1 0x60 SWAP3 DUP4 ADD MLOAD AND SWAP2 DUP2 ADD SWAP2 SWAP1 SWAP2 MSTORE PUSH1 0x80 ADD SWAP1 JUMP JUMPDEST PUSH1 0x0 PUSH1 0xA0 DUP3 ADD SWAP1 POP DUP3 MLOAD DUP3 MSTORE PUSH1 0x1 PUSH1 0x1 PUSH1 0x80 SHL SUB PUSH1 0x20 DUP5 ADD MLOAD AND PUSH1 0x20 DUP4 ADD MSTORE PUSH1 0x40 DUP4 ADD MLOAD PUSH1 0x40 DUP4 ADD MSTORE PUSH1 0x60 DUP4 ADD MLOAD PUSH1 0x60 DUP4 ADD MSTORE PUSH1 0x80 DUP4 ADD MLOAD PUSH1 0x80 DUP4 ADD MSTORE SWAP3 SWAP2 POP POP JUMP JUMPDEST PUSH1 0x0 PUSH2 0x180 DUP3 ADD SWAP1 POP PUSH2 0x27C4 DUP3 DUP5 MLOAD PUSH2 0x23FE JUMP JUMPDEST PUSH1 0x20 DUP4 ADD MLOAD PUSH2 0x27D6 PUSH1 0x20 DUP5 ADD DUP3 PUSH2 0x23FE JUMP JUMPDEST POP PUSH1 0x40 DUP4 ADD MLOAD PUSH2 0x27E9 PUSH1 0x40 DUP5 ADD DUP3 PUSH2 0x240B JUMP JUMPDEST POP PUSH1 0x60 DUP4 ADD MLOAD PUSH2 0x27FC PUSH1 0x60 DUP5 ADD DUP3 PUSH2 0x240B JUMP JUMPDEST POP PUSH1 0x80 DUP4 ADD MLOAD PUSH2 0x280F PUSH1 0x80 DUP5 ADD DUP3 PUSH2 0x240B JUMP JUMPDEST POP PUSH1 0xA0 DUP4 ADD MLOAD PUSH1 0xA0 DUP4 ADD MSTORE PUSH1 0xC0 DUP4 ADD MLOAD PUSH1 0xC0 DUP4 ADD MSTORE PUSH1 0xE0 DUP4 ADD MLOAD PUSH1 0xE0 DUP4 ADD MSTORE PUSH2 0x100 DUP1 DUP5 ADD MLOAD DUP2 DUP5 ADD MSTORE POP PUSH2 0x120 DUP1 DUP5 ADD MLOAD PUSH2 0x284D DUP3 DUP6 ADD DUP3 PUSH2 0x23FE JUMP JUMPDEST POP POP PUSH2 0x140 DUP4 DUP2 ADD MLOAD SWAP1 DUP4 ADD MSTORE PUSH2 0x160 DUP1 DUP5 ADD MLOAD PUSH2 0x286D DUP3 DUP6 ADD DUP3 PUSH2 0x23FE JUMP JUMPDEST POP POP SWAP3 SWAP2 POP POP JUMP JUMPDEST PUSH1 0x1 PUSH1 0x1 PUSH1 0x80 SHL SUB SWAP2 SWAP1 SWAP2 AND DUP2 MSTORE PUSH1 0x20 ADD SWAP1 JUMP JUMPDEST SWAP1 DUP2 MSTORE PUSH1 0x20 ADD SWAP1 JUMP JUMPDEST PUSH1 0x1 PUSH1 0x1 PUSH1 0xA0 SHL SUB DUP2 AND DUP2 EQ PUSH2 0x17F7 JUMPI PUSH1 0x0 DUP1 REVERT INVALID LOG2 PUSH5 0x6970667358 0x22 SLT KECCAK256 0x4F GASPRICE POP INVALID 0xB5 0xF7 SLT 0x28 0xD5 0xEC 0x27 PUSH17 0x65890684C966BFA2DD612B695206FA87DF 0xC 0xE1 0xD0 PUSH5 0x736F6C6343 STOP SMOD MOD STOP CALLER "
		},
		"gasEstimates": {
			"creation": {
				"codeDepositCost": "2092200",
				"executionCost": "23056",
				"totalCost": "2115256"
			},
			"external": {
				"Swap0for1(uint256)": "infinite",
				"Swap1for0(uint256)": "infinite",
				"UpdatePosition()": "infinite",
				"_manualWithdraw(uint256)": "infinite",
				"_newAdmin(address)": "22116",
				"_newOracle(address)": "22073",
				"_newPool(address)": "infinite",
				"_newtokenID(uint256)": "21154",
				"_transferToAdmin(address)": "infinite",
				"addLiquidity()": "infinite",
				"admin()": "1158",
				"approveTokens(uint256,uint256)": "infinite",
				"checkFarm()": "infinite",
				"collectRewards()": "infinite",
				"deposits(uint256)": "3926",
				"farmNFT()": "1159",
				"getTicks()": "infinite",
				"initialPosition()": "infinite",
				"liquidityCurrent()": "infinite",
				"manualSendNFTBack(uint256)": "infinite",
				"onERC721Received(address,address,uint256,bytes)": "infinite",
				"oracle()": "1159",
				"pool()": "1161",
				"rebalance()": "infinite",
				"removeLP()": "infinite",
				"sendNFTBack()": "infinite",
				"spaceMultiplier()": "1199",
				"stake()": "infinite",
				"tickSpacing()": "1157",
				"token0()": "1117",
				"token1()": "1182",
				"tokenId()": "1141",
				"uniswapV3SwapCallback(int256,int256,bytes)": "infinite",
				"withdraw()": "infinite"
			}
		},
		"methodIdentifiers": {
			"Swap0for1(uint256)": "db638298",
			"Swap1for0(uint256)": "eb20ad47",
			"UpdatePosition()": "e0842e96",
			"_manualWithdraw(uint256)": "bc7dc1ca",
			"_newAdmin(address)": "e6f4d0aa",
			"_newOracle(address)": "c0b84195",
			"_newPool(address)": "d2aca8cd",
			"_newtokenID(uint256)": "6020159d",
			"_transferToAdmin(address)": "7210468a",
			"addLiquidity()": "e8078d94",
			"admin()": "f851a440",
			"approveTokens(uint256,uint256)": "1c335703",
			"checkFarm()": "85cd14ba",
			"collectRewards()": "70bb45b3",
			"deposits(uint256)": "b02c43d0",
			"farmNFT()": "da802f80",
			"getTicks()": "3d1c387b",
			"initialPosition()": "d5898546",
			"liquidityCurrent()": "dd480bf1",
			"manualSendNFTBack(uint256)": "3efa3e6e",
			"onERC721Received(address,address,uint256,bytes)": "150b7a02",
			"oracle()": "7dc0d1d0",
			"pool()": "16f0115b",
			"rebalance()": "7d7c2a1c",
			"removeLP()": "491e91ee",
			"sendNFTBack()": "e58d539e",
			"spaceMultiplier()": "fd1c1518",
			"stake()": "3a4b66f1",
			"tickSpacing()": "d0c93a7c",
			"token0()": "0dfe1681",
			"token1()": "d21220a7",
			"tokenId()": "17d70f7c",
			"uniswapV3SwapCallback(int256,int256,bytes)": "fa461e33",
			"withdraw()": "3ccfd60b"
		}
	},
	"abi": [
		{
			"inputs": [],
			"stateMutability": "nonpayable",
			"type": "constructor"
		},
		{
			"inputs": [
				{
					"internalType": "uint256",
					"name": "amountIn",
					"type": "uint256"
				}
			],
			"name": "Swap0for1",
			"outputs": [],
			"stateMutability": "payable",
			"type": "function"
		},
		{
			"inputs": [
				{
					"internalType": "uint256",
					"name": "amountIn",
					"type": "uint256"
				}
			],
			"name": "Swap1for0",
			"outputs": [],
			"stateMutability": "payable",
			"type": "function"
		},
		{
			"inputs": [],
			"name": "UpdatePosition",
			"outputs": [],
			"stateMutability": "payable",
			"type": "function"
		},
		{
			"inputs": [
				{
					"internalType": "uint256",
					"name": "_tokenid",
					"type": "uint256"
				}
			],
			"name": "_manualWithdraw",
			"outputs": [],
			"stateMutability": "payable",
			"type": "function"
		},
		{
			"inputs": [
				{
					"internalType": "address",
					"name": "newAdmin",
					"type": "address"
				}
			],
			"name": "_newAdmin",
			"outputs": [],
			"stateMutability": "nonpayable",
			"type": "function"
		},
		{
			"inputs": [
				{
					"internalType": "address",
					"name": "newOracle",
					"type": "address"
				}
			],
			"name": "_newOracle",
			"outputs": [],
			"stateMutability": "nonpayable",
			"type": "function"
		},
		{
			"inputs": [
				{
					"internalType": "address",
					"name": "newPool",
					"type": "address"
				}
			],
			"name": "_newPool",
			"outputs": [],
			"stateMutability": "nonpayable",
			"type": "function"
		},
		{
			"inputs": [
				{
					"internalType": "uint256",
					"name": "newTokenId",
					"type": "uint256"
				}
			],
			"name": "_newtokenID",
			"outputs": [],
			"stateMutability": "nonpayable",
			"type": "function"
		},
		{
			"inputs": [
				{
					"internalType": "address",
					"name": "Token",
					"type": "address"
				}
			],
			"name": "_transferToAdmin",
			"outputs": [],
			"stateMutability": "nonpayable",
			"type": "function"
		},
		{
			"inputs": [],
			"name": "addLiquidity",
			"outputs": [
				{
					"internalType": "uint256",
					"name": "",
					"type": "uint256"
				}
			],
			"stateMutability": "payable",
			"type": "function"
		},
		{
			"inputs": [],
			"name": "admin",
			"outputs": [
				{
					"internalType": "address",
					"name": "",
					"type": "address"
				}
			],
			"stateMutability": "view",
			"type": "function"
		},
		{
			"inputs": [
				{
					"internalType": "uint256",
					"name": "approve0",
					"type": "uint256"
				},
				{
					"internalType": "uint256",
					"name": "approve1",
					"type": "uint256"
				}
			],
			"name": "approveTokens",
			"outputs": [],
			"stateMutability": "payable",
			"type": "function"
		},
		{
			"inputs": [],
			"name": "checkFarm",
			"outputs": [
				{
					"internalType": "bool",
					"name": "",
					"type": "bool"
				}
			],
			"stateMutability": "view",
			"type": "function"
		},
		{
			"inputs": [],
			"name": "collectRewards",
			"outputs": [],
			"stateMutability": "payable",
			"type": "function"
		},
		{
			"inputs": [
				{
					"internalType": "uint256",
					"name": "",
					"type": "uint256"
				}
			],
			"name": "deposits",
			"outputs": [
				{
					"internalType": "address",
					"name": "owner",
					"type": "address"
				},
				{
					"internalType": "uint128",
					"name": "liquidity",
					"type": "uint128"
				},
				{
					"internalType": "address",
					"name": "token0",
					"type": "address"
				},
				{
					"internalType": "address",
					"name": "token1",
					"type": "address"
				}
			],
			"stateMutability": "view",
			"type": "function"
		},
		{
			"inputs": [],
			"name": "farmNFT",
			"outputs": [
				{
					"internalType": "address",
					"name": "",
					"type": "address"
				}
			],
			"stateMutability": "view",
			"type": "function"
		},
		{
			"inputs": [],
			"name": "getTicks",
			"outputs": [
				{
					"internalType": "int24",
					"name": "lowTick",
					"type": "int24"
				},
				{
					"internalType": "int24",
					"name": "highTick",
					"type": "int24"
				},
				{
					"internalType": "int24",
					"name": "currentTick",
					"type": "int24"
				}
			],
			"stateMutability": "view",
			"type": "function"
		},
		{
			"inputs": [],
			"name": "initialPosition",
			"outputs": [],
			"stateMutability": "payable",
			"type": "function"
		},
		{
			"inputs": [],
			"name": "liquidityCurrent",
			"outputs": [
				{
					"internalType": "uint128",
					"name": "",
					"type": "uint128"
				}
			],
			"stateMutability": "view",
			"type": "function"
		},
		{
			"inputs": [
				{
					"internalType": "uint256",
					"name": "_tokenID",
					"type": "uint256"
				}
			],
			"name": "manualSendNFTBack",
			"outputs": [],
			"stateMutability": "payable",
			"type": "function"
		},
		{
			"inputs": [
				{
					"internalType": "address",
					"name": "",
					"type": "address"
				},
				{
					"internalType": "address",
					"name": "",
					"type": "address"
				},
				{
					"internalType": "uint256",
					"name": "",
					"type": "uint256"
				},
				{
					"internalType": "bytes",
					"name": "",
					"type": "bytes"
				}
			],
			"name": "onERC721Received",
			"outputs": [
				{
					"internalType": "bytes4",
					"name": "",
					"type": "bytes4"
				}
			],
			"stateMutability": "nonpayable",
			"type": "function"
		},
		{
			"inputs": [],
			"name": "oracle",
			"outputs": [
				{
					"internalType": "address",
					"name": "",
					"type": "address"
				}
			],
			"stateMutability": "view",
			"type": "function"
		},
		{
			"inputs": [],
			"name": "pool",
			"outputs": [
				{
					"internalType": "address",
					"name": "",
					"type": "address"
				}
			],
			"stateMutability": "view",
			"type": "function"
		},
		{
			"inputs": [],
			"name": "rebalance",
			"outputs": [],
			"stateMutability": "payable",
			"type": "function"
		},
		{
			"inputs": [],
			"name": "removeLP",
			"outputs": [],
			"stateMutability": "payable",
			"type": "function"
		},
		{
			"inputs": [],
			"name": "sendNFTBack",
			"outputs": [],
			"stateMutability": "payable",
			"type": "function"
		},
		{
			"inputs": [],
			"name": "spaceMultiplier",
			"outputs": [
				{
					"internalType": "int24",
					"name": "",
					"type": "int24"
				}
			],
			"stateMutability": "view",
			"type": "function"
		},
		{
			"inputs": [],
			"name": "stake",
			"outputs": [],
			"stateMutability": "payable",
			"type": "function"
		},
		{
			"inputs": [],
			"name": "tickSpacing",
			"outputs": [
				{
					"internalType": "int24",
					"name": "",
					"type": "int24"
				}
			],
			"stateMutability": "view",
			"type": "function"
		},
		{
			"inputs": [],
			"name": "token0",
			"outputs": [
				{
					"internalType": "address",
					"name": "",
					"type": "address"
				}
			],
			"stateMutability": "view",
			"type": "function"
		},
		{
			"inputs": [],
			"name": "token1",
			"outputs": [
				{
					"internalType": "address",
					"name": "",
					"type": "address"
				}
			],
			"stateMutability": "view",
			"type": "function"
		},
		{
			"inputs": [],
			"name": "tokenId",
			"outputs": [
				{
					"internalType": "uint256",
					"name": "",
					"type": "uint256"
				}
			],
			"stateMutability": "view",
			"type": "function"
		},
		{
			"inputs": [
				{
					"internalType": "int256",
					"name": "amount0Delta",
					"type": "int256"
				},
				{
					"internalType": "int256",
					"name": "amount1Delta",
					"type": "int256"
				},
				{
					"internalType": "bytes",
					"name": "",
					"type": "bytes"
				}
			],
			"name": "uniswapV3SwapCallback",
			"outputs": [],
			"stateMutability": "nonpayable",
			"type": "function"
		},
		{
			"inputs": [],
			"name": "withdraw",
			"outputs": [],
			"stateMutability": "payable",
			"type": "function"
		}
	]
}